{
	"Oilcompany.sol": {
		"Oilcompany": {
			"abi": [
				{
					"anonymous": false,
					"inputs": [
						{
							"indexed": false,
							"internalType": "uint256",
							"name": "barrel",
							"type": "uint256"
						},
						{
							"indexed": false,
							"internalType": "uint256",
							"name": "price",
							"type": "uint256"
						},
						{
							"indexed": false,
							"internalType": "uint256",
							"name": "timestamp",
							"type": "uint256"
						}
					],
					"name": "Dailyproduction",
					"type": "event"
				},
				{
					"anonymous": false,
					"inputs": [
						{
							"indexed": true,
							"internalType": "address",
							"name": "shareholders",
							"type": "address"
						},
						{
							"indexed": false,
							"internalType": "uint256",
							"name": "percentage",
							"type": "uint256"
						},
						{
							"indexed": false,
							"internalType": "uint256",
							"name": "timestamp",
							"type": "uint256"
						}
					],
					"name": "Shareholders",
					"type": "event"
				},
				{
					"anonymous": false,
					"inputs": [
						{
							"indexed": true,
							"internalType": "address",
							"name": "to",
							"type": "address"
						},
						{
							"indexed": false,
							"internalType": "uint256",
							"name": "amount",
							"type": "uint256"
						},
						{
							"indexed": false,
							"internalType": "uint256",
							"name": "timestamp",
							"type": "uint256"
						}
					],
					"name": "Transferofshares",
					"type": "event"
				},
				{
					"anonymous": false,
					"inputs": [
						{
							"indexed": false,
							"internalType": "uint256",
							"name": "paymentAmount",
							"type": "uint256"
						},
						{
							"indexed": false,
							"internalType": "uint256",
							"name": "paymentDate",
							"type": "uint256"
						},
						{
							"indexed": false,
							"internalType": "string",
							"name": "paymentMethod",
							"type": "string"
						}
					],
					"name": "interestpayment",
					"type": "event"
				},
				{
					"inputs": [
						{
							"internalType": "address",
							"name": "chairman",
							"type": "address"
						},
						{
							"internalType": "address",
							"name": "to",
							"type": "address"
						},
						{
							"internalType": "uint256",
							"name": "amount",
							"type": "uint256"
						},
						{
							"internalType": "uint256",
							"name": "timestamp",
							"type": "uint256"
						}
					],
					"name": "ChangeShareholders",
					"outputs": [
						{
							"internalType": "bool",
							"name": "",
							"type": "bool"
						}
					],
					"stateMutability": "nonpayable",
					"type": "function"
				},
				{
					"inputs": [
						{
							"internalType": "uint256",
							"name": "_barrel",
							"type": "uint256"
						},
						{
							"internalType": "uint256",
							"name": "_price",
							"type": "uint256"
						},
						{
							"internalType": "uint256",
							"name": "_paymentAmount",
							"type": "uint256"
						},
						{
							"internalType": "uint256",
							"name": "_paymentDate",
							"type": "uint256"
						},
						{
							"internalType": "uint256",
							"name": "_percentage",
							"type": "uint256"
						},
						{
							"internalType": "uint256",
							"name": "_amount",
							"type": "uint256"
						},
						{
							"internalType": "uint256",
							"name": "_timestamp",
							"type": "uint256"
						},
						{
							"internalType": "uint256",
							"name": "_totalShares",
							"type": "uint256"
						},
						{
							"internalType": "address",
							"name": "_to",
							"type": "address"
						},
						{
							"internalType": "address",
							"name": "_chairman",
							"type": "address"
						},
						{
							"internalType": "string",
							"name": "_paymentMethod",
							"type": "string"
						}
					],
					"name": "addcompany",
					"outputs": [],
					"stateMutability": "nonpayable",
					"type": "function"
				},
				{
					"inputs": [
						{
							"internalType": "uint256",
							"name": "profit",
							"type": "uint256"
						},
						{
							"internalType": "uint256",
							"name": "sharesAmount",
							"type": "uint256"
						},
						{
							"internalType": "uint256",
							"name": "percentage",
							"type": "uint256"
						}
					],
					"name": "getInterestPayment",
					"outputs": [
						{
							"internalType": "uint256",
							"name": "",
							"type": "uint256"
						}
					],
					"stateMutability": "pure",
					"type": "function"
				},
				{
					"inputs": [
						{
							"internalType": "address",
							"name": "shareholders",
							"type": "address"
						},
						{
							"internalType": "address",
							"name": "chairman",
							"type": "address"
						},
						{
							"internalType": "uint256",
							"name": "percentage",
							"type": "uint256"
						},
						{
							"internalType": "uint256",
							"name": "sharesAmount",
							"type": "uint256"
						},
						{
							"internalType": "uint256",
							"name": "timestamp",
							"type": "uint256"
						}
					],
					"name": "getShareholders",
					"outputs": [
						{
							"internalType": "bool",
							"name": "",
							"type": "bool"
						}
					],
					"stateMutability": "nonpayable",
					"type": "function"
				},
				{
					"inputs": [
						{
							"internalType": "uint256",
							"name": "timestamp",
							"type": "uint256"
						}
					],
					"name": "recordDailyProduction",
					"outputs": [
						{
							"internalType": "uint256",
							"name": "",
							"type": "uint256"
						},
						{
							"internalType": "uint256",
							"name": "",
							"type": "uint256"
						},
						{
							"internalType": "uint256",
							"name": "",
							"type": "uint256"
						}
					],
					"stateMutability": "nonpayable",
					"type": "function"
				}
			],
			"devdoc": {
				"kind": "dev",
				"methods": {},
				"version": 1
			},
			"evm": {
				"assembly": "    /* \"Oilcompany.sol\":61:2757  contract Oilcompany{... */\n  mstore(0x40, 0x80)\n  callvalue\n  dup1\n  iszero\n  tag_1\n  jumpi\n  0x00\n  dup1\n  revert\ntag_1:\n  pop\n  dataSize(sub_0)\n  dup1\n  dataOffset(sub_0)\n  0x00\n  codecopy\n  0x00\n  return\nstop\n\nsub_0: assembly {\n        /* \"Oilcompany.sol\":61:2757  contract Oilcompany{... */\n      mstore(0x40, 0x80)\n      callvalue\n      dup1\n      iszero\n      tag_1\n      jumpi\n      0x00\n      dup1\n      revert\n    tag_1:\n      pop\n      jumpi(tag_2, lt(calldatasize, 0x04))\n      shr(0xe0, calldataload(0x00))\n      dup1\n      0x1358b0ff\n      eq\n      tag_3\n      jumpi\n      dup1\n      0x5767c272\n      eq\n      tag_4\n      jumpi\n      dup1\n      0x716267b8\n      eq\n      tag_5\n      jumpi\n      dup1\n      0x7b2f44a5\n      eq\n      tag_6\n      jumpi\n      dup1\n      0xf20c0b29\n      eq\n      tag_7\n      jumpi\n    tag_2:\n      0x00\n      dup1\n      revert\n        /* \"Oilcompany.sol\":1387:1634  function recordDailyProduction(uint timestamp)public returns(uint , uint , uint){... */\n    tag_3:\n      tag_8\n      0x04\n      dup1\n      calldatasize\n      sub\n      dup2\n      add\n      swap1\n      tag_9\n      swap2\n      swap1\n      tag_10\n      jump\t// in\n    tag_9:\n      tag_11\n      jump\t// in\n    tag_8:\n      mload(0x40)\n      tag_12\n      swap4\n      swap3\n      swap2\n      swap1\n      tag_13\n      jump\t// in\n    tag_12:\n      mload(0x40)\n      dup1\n      swap2\n      sub\n      swap1\n      return\n        /* \"Oilcompany.sol\":858:1381  function addcompany(uint _barrel,uint _price , uint _paymentAmount , uint _paymentDate , uint _percentage , uint _amount , uint _timestamp ,uint _totalShares , address _to,address _chairman , string memory _paymentMethod) public{... */\n    tag_4:\n      tag_14\n      0x04\n      dup1\n      calldatasize\n      sub\n      dup2\n      add\n      swap1\n      tag_15\n      swap2\n      swap1\n      tag_16\n      jump\t// in\n    tag_15:\n      tag_17\n      jump\t// in\n    tag_14:\n      stop\n        /* \"Oilcompany.sol\":2015:2221  function getInterestPayment(uint profit, uint sharesAmount, uint percentage) public pure returns(uint) {... */\n    tag_5:\n      tag_18\n      0x04\n      dup1\n      calldatasize\n      sub\n      dup2\n      add\n      swap1\n      tag_19\n      swap2\n      swap1\n      tag_20\n      jump\t// in\n    tag_19:\n      tag_21\n      jump\t// in\n    tag_18:\n      mload(0x40)\n      tag_22\n      swap2\n      swap1\n      tag_23\n      jump\t// in\n    tag_22:\n      mload(0x40)\n      dup1\n      swap2\n      sub\n      swap1\n      return\n        /* \"Oilcompany.sol\":2225:2754  function ChangeShareholders( address chairman , address to , uint amount , uint timestamp)public returns(bool){... */\n    tag_6:\n      tag_24\n      0x04\n      dup1\n      calldatasize\n      sub\n      dup2\n      add\n      swap1\n      tag_25\n      swap2\n      swap1\n      tag_26\n      jump\t// in\n    tag_25:\n      tag_27\n      jump\t// in\n    tag_24:\n      mload(0x40)\n      tag_28\n      swap2\n      swap1\n      tag_29\n      jump\t// in\n    tag_28:\n      mload(0x40)\n      dup1\n      swap2\n      sub\n      swap1\n      return\n        /* \"Oilcompany.sol\":1640:2010  function getShareholders(address shareholders ,address chairman , uint percentage ,uint sharesAmount, uint timestamp)public returns(bool){... */\n    tag_7:\n      tag_30\n      0x04\n      dup1\n      calldatasize\n      sub\n      dup2\n      add\n      swap1\n      tag_31\n      swap2\n      swap1\n      tag_32\n      jump\t// in\n    tag_31:\n      tag_33\n      jump\t// in\n    tag_30:\n      mload(0x40)\n      tag_34\n      swap2\n      swap1\n      tag_29\n      jump\t// in\n    tag_34:\n      mload(0x40)\n      dup1\n      swap2\n      sub\n      swap1\n      return\n        /* \"Oilcompany.sol\":1387:1634  function recordDailyProduction(uint timestamp)public returns(uint , uint , uint){... */\n    tag_11:\n        /* \"Oilcompany.sol\":1448:1452  uint */\n      0x00\n        /* \"Oilcompany.sol\":1455:1459  uint */\n      dup1\n        /* \"Oilcompany.sol\":1462:1466  uint */\n      0x00\n        /* \"Oilcompany.sol\":1477:1488  uint barrel */\n      dup1\n        /* \"Oilcompany.sol\":1491:1497  100000 */\n      0x0186a0\n        /* \"Oilcompany.sol\":1477:1497  uint barrel = 100000 */\n      swap1\n      pop\n        /* \"Oilcompany.sol\":1508:1519  uint  price */\n      0x00\n        /* \"Oilcompany.sol\":1522:1524  90 */\n      0x5a\n        /* \"Oilcompany.sol\":1508:1524  uint  price = 90 */\n      swap1\n      pop\n        /* \"Oilcompany.sol\":1540:1584  Dailyproduction(barrel , price,  timestamp ) */\n      0xc108a69e47aaa1be5e22de5a30018d45725f3e7647131b0e358c45b73562ead0\n        /* \"Oilcompany.sol\":1556:1562  barrel */\n      dup3\n        /* \"Oilcompany.sol\":1565:1570  price */\n      dup3\n        /* \"Oilcompany.sol\":1573:1582  timestamp */\n      dup9\n        /* \"Oilcompany.sol\":1540:1584  Dailyproduction(barrel , price,  timestamp ) */\n      mload(0x40)\n      tag_36\n      swap4\n      swap3\n      swap2\n      swap1\n      tag_13\n      jump\t// in\n    tag_36:\n      mload(0x40)\n      dup1\n      swap2\n      sub\n      swap1\n      log1\n        /* \"Oilcompany.sol\":1602:1608  barrel */\n      dup2\n        /* \"Oilcompany.sol\":1611:1616  price */\n      dup2\n        /* \"Oilcompany.sol\":1619:1628  timestamp */\n      dup8\n        /* \"Oilcompany.sol\":1594:1629  return (barrel , price , timestamp) */\n      swap5\n      pop\n      swap5\n      pop\n      swap5\n      pop\n      pop\n      pop\n        /* \"Oilcompany.sol\":1387:1634  function recordDailyProduction(uint timestamp)public returns(uint , uint , uint){... */\n      swap2\n      swap4\n      swap1\n      swap3\n      pop\n      jump\t// out\n        /* \"Oilcompany.sol\":858:1381  function addcompany(uint _barrel,uint _price , uint _paymentAmount , uint _paymentDate , uint _percentage , uint _amount , uint _timestamp ,uint _totalShares , address _to,address _chairman , string memory _paymentMethod) public{... */\n    tag_17:\n        /* \"Oilcompany.sol\":1093:1096  oil */\n      0x04\n        /* \"Oilcompany.sol\":1102:1374  company({barrel : _barrel , price : _price , paymentAmount : _paymentAmount , paymentDate : _paymentDate , percentage : _percentage , amount : _amount , timestamp : _timestamp ,totalShares : _totalShares , to : _to , chairman : _chairman, paymentMethod : _paymentMethod }) */\n      mload(0x40)\n      dup1\n      0x0160\n      add\n      0x40\n      mstore\n      dup1\n        /* \"Oilcompany.sol\":1120:1127  _barrel */\n      dup14\n        /* \"Oilcompany.sol\":1102:1374  company({barrel : _barrel , price : _price , paymentAmount : _paymentAmount , paymentDate : _paymentDate , percentage : _percentage , amount : _amount , timestamp : _timestamp ,totalShares : _totalShares , to : _to , chairman : _chairman, paymentMethod : _paymentMethod }) */\n      dup2\n      mstore\n      0x20\n      add\n        /* \"Oilcompany.sol\":1138:1144  _price */\n      dup13\n        /* \"Oilcompany.sol\":1102:1374  company({barrel : _barrel , price : _price , paymentAmount : _paymentAmount , paymentDate : _paymentDate , percentage : _percentage , amount : _amount , timestamp : _timestamp ,totalShares : _totalShares , to : _to , chairman : _chairman, paymentMethod : _paymentMethod }) */\n      dup2\n      mstore\n      0x20\n      add\n        /* \"Oilcompany.sol\":1163:1177  _paymentAmount */\n      dup12\n        /* \"Oilcompany.sol\":1102:1374  company({barrel : _barrel , price : _price , paymentAmount : _paymentAmount , paymentDate : _paymentDate , percentage : _percentage , amount : _amount , timestamp : _timestamp ,totalShares : _totalShares , to : _to , chairman : _chairman, paymentMethod : _paymentMethod }) */\n      dup2\n      mstore\n      0x20\n      add\n        /* \"Oilcompany.sol\":1194:1206  _paymentDate */\n      dup11\n        /* \"Oilcompany.sol\":1102:1374  company({barrel : _barrel , price : _price , paymentAmount : _paymentAmount , paymentDate : _paymentDate , percentage : _percentage , amount : _amount , timestamp : _timestamp ,totalShares : _totalShares , to : _to , chairman : _chairman, paymentMethod : _paymentMethod }) */\n      dup2\n      mstore\n      0x20\n      add\n        /* \"Oilcompany.sol\":1222:1233  _percentage */\n      dup10\n        /* \"Oilcompany.sol\":1102:1374  company({barrel : _barrel , price : _price , paymentAmount : _paymentAmount , paymentDate : _paymentDate , percentage : _percentage , amount : _amount , timestamp : _timestamp ,totalShares : _totalShares , to : _to , chairman : _chairman, paymentMethod : _paymentMethod }) */\n      dup2\n      mstore\n      0x20\n      add\n        /* \"Oilcompany.sol\":1245:1252  _amount */\n      dup9\n        /* \"Oilcompany.sol\":1102:1374  company({barrel : _barrel , price : _price , paymentAmount : _paymentAmount , paymentDate : _paymentDate , percentage : _percentage , amount : _amount , timestamp : _timestamp ,totalShares : _totalShares , to : _to , chairman : _chairman, paymentMethod : _paymentMethod }) */\n      dup2\n      mstore\n      0x20\n      add\n        /* \"Oilcompany.sol\":1267:1277  _timestamp */\n      dup8\n        /* \"Oilcompany.sol\":1102:1374  company({barrel : _barrel , price : _price , paymentAmount : _paymentAmount , paymentDate : _paymentDate , percentage : _percentage , amount : _amount , timestamp : _timestamp ,totalShares : _totalShares , to : _to , chairman : _chairman, paymentMethod : _paymentMethod }) */\n      dup2\n      mstore\n      0x20\n      add\n        /* \"Oilcompany.sol\":1293:1305  _totalShares */\n      dup7\n        /* \"Oilcompany.sol\":1102:1374  company({barrel : _barrel , price : _price , paymentAmount : _paymentAmount , paymentDate : _paymentDate , percentage : _percentage , amount : _amount , timestamp : _timestamp ,totalShares : _totalShares , to : _to , chairman : _chairman, paymentMethod : _paymentMethod }) */\n      dup2\n      mstore\n      0x20\n      add\n        /* \"Oilcompany.sol\":1313:1316  _to */\n      dup6\n        /* \"Oilcompany.sol\":1102:1374  company({barrel : _barrel , price : _price , paymentAmount : _paymentAmount , paymentDate : _paymentDate , percentage : _percentage , amount : _amount , timestamp : _timestamp ,totalShares : _totalShares , to : _to , chairman : _chairman, paymentMethod : _paymentMethod }) */\n      0xffffffffffffffffffffffffffffffffffffffff\n      and\n      dup2\n      mstore\n      0x20\n      add\n        /* \"Oilcompany.sol\":1330:1339  _chairman */\n      dup5\n        /* \"Oilcompany.sol\":1102:1374  company({barrel : _barrel , price : _price , paymentAmount : _paymentAmount , paymentDate : _paymentDate , percentage : _percentage , amount : _amount , timestamp : _timestamp ,totalShares : _totalShares , to : _to , chairman : _chairman, paymentMethod : _paymentMethod }) */\n      0xffffffffffffffffffffffffffffffffffffffff\n      and\n      dup2\n      mstore\n      0x20\n      add\n        /* \"Oilcompany.sol\":1357:1371  _paymentMethod */\n      dup4\n        /* \"Oilcompany.sol\":1102:1374  company({barrel : _barrel , price : _price , paymentAmount : _paymentAmount , paymentDate : _paymentDate , percentage : _percentage , amount : _amount , timestamp : _timestamp ,totalShares : _totalShares , to : _to , chairman : _chairman, paymentMethod : _paymentMethod }) */\n      dup2\n      mstore\n      pop\n        /* \"Oilcompany.sol\":1093:1375  oil.push(company({barrel : _barrel , price : _price , paymentAmount : _paymentAmount , paymentDate : _paymentDate , percentage : _percentage , amount : _amount , timestamp : _timestamp ,totalShares : _totalShares , to : _to , chairman : _chairman, paymentMethod : _paymentMethod })) */\n      swap1\n      dup1\n      0x01\n      dup2\n      sload\n      add\n      dup1\n      dup3\n      sstore\n      dup1\n      swap2\n      pop\n      pop\n      0x01\n      swap1\n      sub\n      swap1\n      0x00\n      mstore\n      keccak256(0x00, 0x20)\n      swap1\n      0x0b\n      mul\n      add\n      0x00\n      swap1\n      swap2\n      swap1\n      swap2\n      swap1\n      swap2\n      pop\n      0x00\n      dup3\n      add\n      mload\n      dup2\n      0x00\n      add\n      sstore\n      0x20\n      dup3\n      add\n      mload\n      dup2\n      0x01\n      add\n      sstore\n      0x40\n      dup3\n      add\n      mload\n      dup2\n      0x02\n      add\n      sstore\n      0x60\n      dup3\n      add\n      mload\n      dup2\n      0x03\n      add\n      sstore\n      0x80\n      dup3\n      add\n      mload\n      dup2\n      0x04\n      add\n      sstore\n      0xa0\n      dup3\n      add\n      mload\n      dup2\n      0x05\n      add\n      sstore\n      0xc0\n      dup3\n      add\n      mload\n      dup2\n      0x06\n      add\n      sstore\n      0xe0\n      dup3\n      add\n      mload\n      dup2\n      0x07\n      add\n      sstore\n      0x0100\n      dup3\n      add\n      mload\n      dup2\n      0x08\n      add\n      exp(0x0100, 0x00)\n      dup2\n      sload\n      dup2\n      0xffffffffffffffffffffffffffffffffffffffff\n      mul\n      not\n      and\n      swap1\n      dup4\n      0xffffffffffffffffffffffffffffffffffffffff\n      and\n      mul\n      or\n      swap1\n      sstore\n      pop\n      0x0120\n      dup3\n      add\n      mload\n      dup2\n      0x09\n      add\n      exp(0x0100, 0x00)\n      dup2\n      sload\n      dup2\n      0xffffffffffffffffffffffffffffffffffffffff\n      mul\n      not\n      and\n      swap1\n      dup4\n      0xffffffffffffffffffffffffffffffffffffffff\n      and\n      mul\n      or\n      swap1\n      sstore\n      pop\n      0x0140\n      dup3\n      add\n      mload\n      dup2\n      0x0a\n      add\n      swap1\n      dup2\n      tag_39\n      swap2\n      swap1\n      tag_40\n      jump\t// in\n    tag_39:\n      pop\n      pop\n      pop\n        /* \"Oilcompany.sol\":858:1381  function addcompany(uint _barrel,uint _price , uint _paymentAmount , uint _paymentDate , uint _percentage , uint _amount , uint _timestamp ,uint _totalShares , address _to,address _chairman , string memory _paymentMethod) public{... */\n      pop\n      pop\n      pop\n      pop\n      pop\n      pop\n      pop\n      pop\n      pop\n      pop\n      pop\n      jump\t// out\n        /* \"Oilcompany.sol\":2015:2221  function getInterestPayment(uint profit, uint sharesAmount, uint percentage) public pure returns(uint) {... */\n    tag_21:\n        /* \"Oilcompany.sol\":2112:2116  uint */\n      0x00\n        /* \"Oilcompany.sol\":2125:2145  uint interestPayment */\n      dup1\n        /* \"Oilcompany.sol\":2176:2188  sharesAmount */\n      dup4\n        /* \"Oilcompany.sol\":2170:2173  100 */\n      0x64\n        /* \"Oilcompany.sol\":2157:2167  percentage */\n      dup5\n        /* \"Oilcompany.sol\":2148:2154  profit */\n      dup8\n        /* \"Oilcompany.sol\":2148:2167  profit * percentage */\n      tag_42\n      swap2\n      swap1\n      tag_43\n      jump\t// in\n    tag_42:\n        /* \"Oilcompany.sol\":2148:2173  profit * percentage / 100 */\n      tag_44\n      swap2\n      swap1\n      tag_45\n      jump\t// in\n    tag_44:\n        /* \"Oilcompany.sol\":2148:2188  profit * percentage / 100 / sharesAmount */\n      tag_46\n      swap2\n      swap1\n      tag_45\n      jump\t// in\n    tag_46:\n        /* \"Oilcompany.sol\":2125:2188  uint interestPayment = profit * percentage / 100 / sharesAmount */\n      swap1\n      pop\n        /* \"Oilcompany.sol\":2202:2217  interestPayment */\n      dup1\n        /* \"Oilcompany.sol\":2195:2217  return interestPayment */\n      swap2\n      pop\n      pop\n        /* \"Oilcompany.sol\":2015:2221  function getInterestPayment(uint profit, uint sharesAmount, uint percentage) public pure returns(uint) {... */\n      swap4\n      swap3\n      pop\n      pop\n      pop\n      jump\t// out\n        /* \"Oilcompany.sol\":2225:2754  function ChangeShareholders( address chairman , address to , uint amount , uint timestamp)public returns(bool){... */\n    tag_27:\n        /* \"Oilcompany.sol\":2330:2334  bool */\n      0x00\n        /* \"Oilcompany.sol\":2363:2364  0 */\n      dup1\n        /* \"Oilcompany.sol\":2349:2365  to != address(0) */\n      0xffffffffffffffffffffffffffffffffffffffff\n      and\n        /* \"Oilcompany.sol\":2349:2351  to */\n      dup5\n        /* \"Oilcompany.sol\":2349:2365  to != address(0) */\n      0xffffffffffffffffffffffffffffffffffffffff\n      and\n      sub\n        /* \"Oilcompany.sol\":2340:2392  require( to != address(0) , \"The address is wrong\" ) */\n      tag_48\n      jumpi\n      mload(0x40)\n      0x08c379a000000000000000000000000000000000000000000000000000000000\n      dup2\n      mstore\n      0x04\n      add\n      tag_49\n      swap1\n      tag_50\n      jump\t// in\n    tag_49:\n      mload(0x40)\n      dup1\n      swap2\n      sub\n      swap1\n      revert\n    tag_48:\n        /* \"Oilcompany.sol\":2425:2426  0 */\n      0x00\n        /* \"Oilcompany.sol\":2405:2427  chairman != address(0) */\n      0xffffffffffffffffffffffffffffffffffffffff\n      and\n        /* \"Oilcompany.sol\":2405:2413  chairman */\n      dup6\n        /* \"Oilcompany.sol\":2405:2427  chairman != address(0) */\n      0xffffffffffffffffffffffffffffffffffffffff\n      and\n      sub\n        /* \"Oilcompany.sol\":2397:2451  require(chairman != address(0), \"Chairman is not set\") */\n      tag_51\n      jumpi\n      mload(0x40)\n      0x08c379a000000000000000000000000000000000000000000000000000000000\n      dup2\n      mstore\n      0x04\n      add\n      tag_52\n      swap1\n      tag_53\n      jump\t// in\n    tag_52:\n      mload(0x40)\n      dup1\n      swap2\n      sub\n      swap1\n      revert\n    tag_51:\n        /* \"Oilcompany.sol\":2476:2486  msg.sender */\n      caller\n        /* \"Oilcompany.sol\":2464:2486  chairman == msg.sender */\n      0xffffffffffffffffffffffffffffffffffffffff\n      and\n        /* \"Oilcompany.sol\":2464:2472  chairman */\n      dup6\n        /* \"Oilcompany.sol\":2464:2486  chairman == msg.sender */\n      0xffffffffffffffffffffffffffffffffffffffff\n      and\n      eq\n        /* \"Oilcompany.sol\":2464:2513  chairman == msg.sender || shareholder[msg.sender] */\n      dup1\n      tag_54\n      jumpi\n      pop\n        /* \"Oilcompany.sol\":2490:2501  shareholder */\n      0x00\n        /* \"Oilcompany.sol\":2490:2513  shareholder[msg.sender] */\n      dup1\n        /* \"Oilcompany.sol\":2502:2512  msg.sender */\n      caller\n        /* \"Oilcompany.sol\":2490:2513  shareholder[msg.sender] */\n      0xffffffffffffffffffffffffffffffffffffffff\n      and\n      0xffffffffffffffffffffffffffffffffffffffff\n      and\n      dup2\n      mstore\n      0x20\n      add\n      swap1\n      dup2\n      mstore\n      0x20\n      add\n      0x00\n      keccak256\n      0x00\n      swap1\n      sload\n      swap1\n      0x0100\n      exp\n      swap1\n      div\n      0xff\n      and\n        /* \"Oilcompany.sol\":2464:2513  chairman == msg.sender || shareholder[msg.sender] */\n    tag_54:\n        /* \"Oilcompany.sol\":2456:2546  require(chairman == msg.sender || shareholder[msg.sender] , \"This request is not allowed\") */\n      tag_55\n      jumpi\n      mload(0x40)\n      0x08c379a000000000000000000000000000000000000000000000000000000000\n      dup2\n      mstore\n      0x04\n      add\n      tag_56\n      swap1\n      tag_57\n      jump\t// in\n    tag_56:\n      mload(0x40)\n      dup1\n      swap2\n      sub\n      swap1\n      revert\n    tag_55:\n        /* \"Oilcompany.sol\":2568:2569  0 */\n      0x00\n        /* \"Oilcompany.sol\":2559:2565  amount */\n      dup4\n        /* \"Oilcompany.sol\":2559:2569  amount > 0 */\n      gt\n        /* \"Oilcompany.sol\":2559:2601  amount > 0 && amount <= shares[msg.sender] */\n      dup1\n      iszero\n      tag_58\n      jumpi\n      pop\n        /* \"Oilcompany.sol\":2583:2589  shares */\n      0x01\n        /* \"Oilcompany.sol\":2583:2601  shares[msg.sender] */\n      0x00\n        /* \"Oilcompany.sol\":2590:2600  msg.sender */\n      caller\n        /* \"Oilcompany.sol\":2583:2601  shares[msg.sender] */\n      0xffffffffffffffffffffffffffffffffffffffff\n      and\n      0xffffffffffffffffffffffffffffffffffffffff\n      and\n      dup2\n      mstore\n      0x20\n      add\n      swap1\n      dup2\n      mstore\n      0x20\n      add\n      0x00\n      keccak256\n      sload\n        /* \"Oilcompany.sol\":2573:2579  amount */\n      dup4\n        /* \"Oilcompany.sol\":2573:2601  amount <= shares[msg.sender] */\n      gt\n      iszero\n        /* \"Oilcompany.sol\":2559:2601  amount > 0 && amount <= shares[msg.sender] */\n    tag_58:\n        /* \"Oilcompany.sol\":2551:2626  require(amount > 0 && amount <= shares[msg.sender] , \"More than the limit\") */\n      tag_59\n      jumpi\n      mload(0x40)\n      0x08c379a000000000000000000000000000000000000000000000000000000000\n      dup2\n      mstore\n      0x04\n      add\n      tag_60\n      swap1\n      tag_61\n      jump\t// in\n    tag_60:\n      mload(0x40)\n      dup1\n      swap2\n      sub\n      swap1\n      revert\n    tag_59:\n        /* \"Oilcompany.sol\":2653:2659  amount */\n      dup3\n        /* \"Oilcompany.sol\":2631:2637  shares */\n      0x01\n        /* \"Oilcompany.sol\":2631:2649  shares[msg.sender] */\n      0x00\n        /* \"Oilcompany.sol\":2638:2648  msg.sender */\n      caller\n        /* \"Oilcompany.sol\":2631:2649  shares[msg.sender] */\n      0xffffffffffffffffffffffffffffffffffffffff\n      and\n      0xffffffffffffffffffffffffffffffffffffffff\n      and\n      dup2\n      mstore\n      0x20\n      add\n      swap1\n      dup2\n      mstore\n      0x20\n      add\n      0x00\n      keccak256\n      0x00\n        /* \"Oilcompany.sol\":2631:2659  shares[msg.sender] -= amount */\n      dup3\n      dup3\n      sload\n      tag_62\n      swap2\n      swap1\n      tag_63\n      jump\t// in\n    tag_62:\n      swap3\n      pop\n      pop\n      dup2\n      swap1\n      sstore\n      pop\n        /* \"Oilcompany.sol\":2679:2685  amount */\n      dup3\n        /* \"Oilcompany.sol\":2665:2671  shares */\n      0x01\n        /* \"Oilcompany.sol\":2665:2675  shares[to] */\n      0x00\n        /* \"Oilcompany.sol\":2672:2674  to */\n      dup7\n        /* \"Oilcompany.sol\":2665:2675  shares[to] */\n      0xffffffffffffffffffffffffffffffffffffffff\n      and\n      0xffffffffffffffffffffffffffffffffffffffff\n      and\n      dup2\n      mstore\n      0x20\n      add\n      swap1\n      dup2\n      mstore\n      0x20\n      add\n      0x00\n      keccak256\n      0x00\n        /* \"Oilcompany.sol\":2665:2685  shares[to] += amount */\n      dup3\n      dup3\n      sload\n      tag_64\n      swap2\n      swap1\n      tag_65\n      jump\t// in\n    tag_64:\n      swap3\n      pop\n      pop\n      dup2\n      swap1\n      sstore\n      pop\n        /* \"Oilcompany.sol\":2712:2714  to */\n      dup4\n        /* \"Oilcompany.sol\":2695:2734  Transferofshares(to ,amount, timestamp) */\n      0xffffffffffffffffffffffffffffffffffffffff\n      and\n      0x7e30501c30b6d85398587b158f6b403b8e1776617da4ae472988862eb0b887bc\n        /* \"Oilcompany.sol\":2716:2722  amount */\n      dup5\n        /* \"Oilcompany.sol\":2724:2733  timestamp */\n      dup5\n        /* \"Oilcompany.sol\":2695:2734  Transferofshares(to ,amount, timestamp) */\n      mload(0x40)\n      tag_66\n      swap3\n      swap2\n      swap1\n      tag_67\n      jump\t// in\n    tag_66:\n      mload(0x40)\n      dup1\n      swap2\n      sub\n      swap1\n      log2\n        /* \"Oilcompany.sol\":2746:2750  true */\n      0x01\n        /* \"Oilcompany.sol\":2739:2750  return true */\n      swap1\n      pop\n        /* \"Oilcompany.sol\":2225:2754  function ChangeShareholders( address chairman , address to , uint amount , uint timestamp)public returns(bool){... */\n      swap5\n      swap4\n      pop\n      pop\n      pop\n      pop\n      jump\t// out\n        /* \"Oilcompany.sol\":1640:2010  function getShareholders(address shareholders ,address chairman , uint percentage ,uint sharesAmount, uint timestamp)public returns(bool){... */\n    tag_33:\n        /* \"Oilcompany.sol\":1772:1776  bool */\n      0x00\n        /* \"Oilcompany.sol\":1793:1804  shareholder */\n      dup1\n        /* \"Oilcompany.sol\":1793:1816  shareholder[msg.sender] */\n      0x00\n        /* \"Oilcompany.sol\":1805:1815  msg.sender */\n      caller\n        /* \"Oilcompany.sol\":1793:1816  shareholder[msg.sender] */\n      0xffffffffffffffffffffffffffffffffffffffff\n      and\n      0xffffffffffffffffffffffffffffffffffffffff\n      and\n      dup2\n      mstore\n      0x20\n      add\n      swap1\n      dup2\n      mstore\n      0x20\n      add\n      0x00\n      keccak256\n      0x00\n      swap1\n      sload\n      swap1\n      0x0100\n      exp\n      swap1\n      div\n      0xff\n      and\n        /* \"Oilcompany.sol\":1793:1842  shareholder[msg.sender] || chairman == msg.sender */\n      dup1\n      tag_69\n      jumpi\n      pop\n        /* \"Oilcompany.sol\":1832:1842  msg.sender */\n      caller\n        /* \"Oilcompany.sol\":1820:1842  chairman == msg.sender */\n      0xffffffffffffffffffffffffffffffffffffffff\n      and\n        /* \"Oilcompany.sol\":1820:1828  chairman */\n      dup6\n        /* \"Oilcompany.sol\":1820:1842  chairman == msg.sender */\n      0xffffffffffffffffffffffffffffffffffffffff\n      and\n      eq\n        /* \"Oilcompany.sol\":1793:1842  shareholder[msg.sender] || chairman == msg.sender */\n    tag_69:\n        /* \"Oilcompany.sol\":1785:1875  require(shareholder[msg.sender] || chairman == msg.sender ,\"This request is not allowed\" ) */\n      tag_70\n      jumpi\n      mload(0x40)\n      0x08c379a000000000000000000000000000000000000000000000000000000000\n      dup2\n      mstore\n      0x04\n      add\n      tag_71\n      swap1\n      tag_57\n      jump\t// in\n    tag_71:\n      mload(0x40)\n      dup1\n      swap2\n      sub\n      swap1\n      revert\n    tag_70:\n        /* \"Oilcompany.sol\":1900:1906  shares */\n      0x01\n        /* \"Oilcompany.sol\":1900:1920  shares[shareholders] */\n      0x00\n        /* \"Oilcompany.sol\":1907:1919  shareholders */\n      dup8\n        /* \"Oilcompany.sol\":1900:1920  shares[shareholders] */\n      0xffffffffffffffffffffffffffffffffffffffff\n      and\n      0xffffffffffffffffffffffffffffffffffffffff\n      and\n      dup2\n      mstore\n      0x20\n      add\n      swap1\n      dup2\n      mstore\n      0x20\n      add\n      0x00\n      keccak256\n      sload\n        /* \"Oilcompany.sol\":1885:1920  sharesAmount = shares[shareholders] */\n      swap3\n      pop\n        /* \"Oilcompany.sol\":1948:1960  shareholders */\n      dup6\n        /* \"Oilcompany.sol\":1935:1984  Shareholders(shareholders, percentage, timestamp) */\n      0xffffffffffffffffffffffffffffffffffffffff\n      and\n      0xda1198d8a30833e28c40dc509b8c362eb727127fe167a9fdb0ec1507c624defe\n        /* \"Oilcompany.sol\":1962:1972  percentage */\n      dup6\n        /* \"Oilcompany.sol\":1974:1983  timestamp */\n      dup5\n        /* \"Oilcompany.sol\":1935:1984  Shareholders(shareholders, percentage, timestamp) */\n      mload(0x40)\n      tag_72\n      swap3\n      swap2\n      swap1\n      tag_67\n      jump\t// in\n    tag_72:\n      mload(0x40)\n      dup1\n      swap2\n      sub\n      swap1\n      log2\n        /* \"Oilcompany.sol\":2001:2005  true */\n      0x01\n        /* \"Oilcompany.sol\":1994:2005  return true */\n      swap1\n      pop\n        /* \"Oilcompany.sol\":1640:2010  function getShareholders(address shareholders ,address chairman , uint percentage ,uint sharesAmount, uint timestamp)public returns(bool){... */\n      swap6\n      swap5\n      pop\n      pop\n      pop\n      pop\n      pop\n      jump\t// out\n        /* \"#utility.yul\":7:82   */\n    tag_73:\n        /* \"#utility.yul\":40:46   */\n      0x00\n        /* \"#utility.yul\":73:75   */\n      0x40\n        /* \"#utility.yul\":67:76   */\n      mload\n        /* \"#utility.yul\":57:76   */\n      swap1\n      pop\n        /* \"#utility.yul\":7:82   */\n      swap1\n      jump\t// out\n        /* \"#utility.yul\":88:205   */\n    tag_74:\n        /* \"#utility.yul\":197:198   */\n      0x00\n        /* \"#utility.yul\":194:195   */\n      dup1\n        /* \"#utility.yul\":187:199   */\n      revert\n        /* \"#utility.yul\":211:328   */\n    tag_75:\n        /* \"#utility.yul\":320:321   */\n      0x00\n        /* \"#utility.yul\":317:318   */\n      dup1\n        /* \"#utility.yul\":310:322   */\n      revert\n        /* \"#utility.yul\":334:411   */\n    tag_76:\n        /* \"#utility.yul\":371:378   */\n      0x00\n        /* \"#utility.yul\":400:405   */\n      dup2\n        /* \"#utility.yul\":389:405   */\n      swap1\n      pop\n        /* \"#utility.yul\":334:411   */\n      swap2\n      swap1\n      pop\n      jump\t// out\n        /* \"#utility.yul\":417:539   */\n    tag_77:\n        /* \"#utility.yul\":490:514   */\n      tag_131\n        /* \"#utility.yul\":508:513   */\n      dup2\n        /* \"#utility.yul\":490:514   */\n      tag_76\n      jump\t// in\n    tag_131:\n        /* \"#utility.yul\":483:488   */\n      dup2\n        /* \"#utility.yul\":480:515   */\n      eq\n        /* \"#utility.yul\":470:533   */\n      tag_132\n      jumpi\n        /* \"#utility.yul\":529:530   */\n      0x00\n        /* \"#utility.yul\":526:527   */\n      dup1\n        /* \"#utility.yul\":519:531   */\n      revert\n        /* \"#utility.yul\":470:533   */\n    tag_132:\n        /* \"#utility.yul\":417:539   */\n      pop\n      jump\t// out\n        /* \"#utility.yul\":545:684   */\n    tag_78:\n        /* \"#utility.yul\":591:596   */\n      0x00\n        /* \"#utility.yul\":629:635   */\n      dup2\n        /* \"#utility.yul\":616:636   */\n      calldataload\n        /* \"#utility.yul\":607:636   */\n      swap1\n      pop\n        /* \"#utility.yul\":645:678   */\n      tag_134\n        /* \"#utility.yul\":672:677   */\n      dup2\n        /* \"#utility.yul\":645:678   */\n      tag_77\n      jump\t// in\n    tag_134:\n        /* \"#utility.yul\":545:684   */\n      swap3\n      swap2\n      pop\n      pop\n      jump\t// out\n        /* \"#utility.yul\":690:1019   */\n    tag_10:\n        /* \"#utility.yul\":749:755   */\n      0x00\n        /* \"#utility.yul\":798:800   */\n      0x20\n        /* \"#utility.yul\":786:795   */\n      dup3\n        /* \"#utility.yul\":777:784   */\n      dup5\n        /* \"#utility.yul\":773:796   */\n      sub\n        /* \"#utility.yul\":769:801   */\n      slt\n        /* \"#utility.yul\":766:885   */\n      iszero\n      tag_136\n      jumpi\n        /* \"#utility.yul\":804:883   */\n      tag_137\n      tag_74\n      jump\t// in\n    tag_137:\n        /* \"#utility.yul\":766:885   */\n    tag_136:\n        /* \"#utility.yul\":924:925   */\n      0x00\n        /* \"#utility.yul\":949:1002   */\n      tag_138\n        /* \"#utility.yul\":994:1001   */\n      dup5\n        /* \"#utility.yul\":985:991   */\n      dup3\n        /* \"#utility.yul\":974:983   */\n      dup6\n        /* \"#utility.yul\":970:992   */\n      add\n        /* \"#utility.yul\":949:1002   */\n      tag_78\n      jump\t// in\n    tag_138:\n        /* \"#utility.yul\":939:1002   */\n      swap2\n      pop\n        /* \"#utility.yul\":895:1012   */\n      pop\n        /* \"#utility.yul\":690:1019   */\n      swap3\n      swap2\n      pop\n      pop\n      jump\t// out\n        /* \"#utility.yul\":1025:1143   */\n    tag_79:\n        /* \"#utility.yul\":1112:1136   */\n      tag_140\n        /* \"#utility.yul\":1130:1135   */\n      dup2\n        /* \"#utility.yul\":1112:1136   */\n      tag_76\n      jump\t// in\n    tag_140:\n        /* \"#utility.yul\":1107:1110   */\n      dup3\n        /* \"#utility.yul\":1100:1137   */\n      mstore\n        /* \"#utility.yul\":1025:1143   */\n      pop\n      pop\n      jump\t// out\n        /* \"#utility.yul\":1149:1591   */\n    tag_13:\n        /* \"#utility.yul\":1298:1302   */\n      0x00\n        /* \"#utility.yul\":1336:1338   */\n      0x60\n        /* \"#utility.yul\":1325:1334   */\n      dup3\n        /* \"#utility.yul\":1321:1339   */\n      add\n        /* \"#utility.yul\":1313:1339   */\n      swap1\n      pop\n        /* \"#utility.yul\":1349:1420   */\n      tag_142\n        /* \"#utility.yul\":1417:1418   */\n      0x00\n        /* \"#utility.yul\":1406:1415   */\n      dup4\n        /* \"#utility.yul\":1402:1419   */\n      add\n        /* \"#utility.yul\":1393:1399   */\n      dup7\n        /* \"#utility.yul\":1349:1420   */\n      tag_79\n      jump\t// in\n    tag_142:\n        /* \"#utility.yul\":1430:1502   */\n      tag_143\n        /* \"#utility.yul\":1498:1500   */\n      0x20\n        /* \"#utility.yul\":1487:1496   */\n      dup4\n        /* \"#utility.yul\":1483:1501   */\n      add\n        /* \"#utility.yul\":1474:1480   */\n      dup6\n        /* \"#utility.yul\":1430:1502   */\n      tag_79\n      jump\t// in\n    tag_143:\n        /* \"#utility.yul\":1512:1584   */\n      tag_144\n        /* \"#utility.yul\":1580:1582   */\n      0x40\n        /* \"#utility.yul\":1569:1578   */\n      dup4\n        /* \"#utility.yul\":1565:1583   */\n      add\n        /* \"#utility.yul\":1556:1562   */\n      dup5\n        /* \"#utility.yul\":1512:1584   */\n      tag_79\n      jump\t// in\n    tag_144:\n        /* \"#utility.yul\":1149:1591   */\n      swap5\n      swap4\n      pop\n      pop\n      pop\n      pop\n      jump\t// out\n        /* \"#utility.yul\":1597:1723   */\n    tag_80:\n        /* \"#utility.yul\":1634:1641   */\n      0x00\n        /* \"#utility.yul\":1674:1716   */\n      0xffffffffffffffffffffffffffffffffffffffff\n        /* \"#utility.yul\":1667:1672   */\n      dup3\n        /* \"#utility.yul\":1663:1717   */\n      and\n        /* \"#utility.yul\":1652:1717   */\n      swap1\n      pop\n        /* \"#utility.yul\":1597:1723   */\n      swap2\n      swap1\n      pop\n      jump\t// out\n        /* \"#utility.yul\":1729:1825   */\n    tag_81:\n        /* \"#utility.yul\":1766:1773   */\n      0x00\n        /* \"#utility.yul\":1795:1819   */\n      tag_147\n        /* \"#utility.yul\":1813:1818   */\n      dup3\n        /* \"#utility.yul\":1795:1819   */\n      tag_80\n      jump\t// in\n    tag_147:\n        /* \"#utility.yul\":1784:1819   */\n      swap1\n      pop\n        /* \"#utility.yul\":1729:1825   */\n      swap2\n      swap1\n      pop\n      jump\t// out\n        /* \"#utility.yul\":1831:1953   */\n    tag_82:\n        /* \"#utility.yul\":1904:1928   */\n      tag_149\n        /* \"#utility.yul\":1922:1927   */\n      dup2\n        /* \"#utility.yul\":1904:1928   */\n      tag_81\n      jump\t// in\n    tag_149:\n        /* \"#utility.yul\":1897:1902   */\n      dup2\n        /* \"#utility.yul\":1894:1929   */\n      eq\n        /* \"#utility.yul\":1884:1947   */\n      tag_150\n      jumpi\n        /* \"#utility.yul\":1943:1944   */\n      0x00\n        /* \"#utility.yul\":1940:1941   */\n      dup1\n        /* \"#utility.yul\":1933:1945   */\n      revert\n        /* \"#utility.yul\":1884:1947   */\n    tag_150:\n        /* \"#utility.yul\":1831:1953   */\n      pop\n      jump\t// out\n        /* \"#utility.yul\":1959:2098   */\n    tag_83:\n        /* \"#utility.yul\":2005:2010   */\n      0x00\n        /* \"#utility.yul\":2043:2049   */\n      dup2\n        /* \"#utility.yul\":2030:2050   */\n      calldataload\n        /* \"#utility.yul\":2021:2050   */\n      swap1\n      pop\n        /* \"#utility.yul\":2059:2092   */\n      tag_152\n        /* \"#utility.yul\":2086:2091   */\n      dup2\n        /* \"#utility.yul\":2059:2092   */\n      tag_82\n      jump\t// in\n    tag_152:\n        /* \"#utility.yul\":1959:2098   */\n      swap3\n      swap2\n      pop\n      pop\n      jump\t// out\n        /* \"#utility.yul\":2104:2221   */\n    tag_84:\n        /* \"#utility.yul\":2213:2214   */\n      0x00\n        /* \"#utility.yul\":2210:2211   */\n      dup1\n        /* \"#utility.yul\":2203:2215   */\n      revert\n        /* \"#utility.yul\":2227:2344   */\n    tag_85:\n        /* \"#utility.yul\":2336:2337   */\n      0x00\n        /* \"#utility.yul\":2333:2334   */\n      dup1\n        /* \"#utility.yul\":2326:2338   */\n      revert\n        /* \"#utility.yul\":2350:2452   */\n    tag_86:\n        /* \"#utility.yul\":2391:2397   */\n      0x00\n        /* \"#utility.yul\":2442:2444   */\n      0x1f\n        /* \"#utility.yul\":2438:2445   */\n      not\n        /* \"#utility.yul\":2433:2435   */\n      0x1f\n        /* \"#utility.yul\":2426:2431   */\n      dup4\n        /* \"#utility.yul\":2422:2436   */\n      add\n        /* \"#utility.yul\":2418:2446   */\n      and\n        /* \"#utility.yul\":2408:2446   */\n      swap1\n      pop\n        /* \"#utility.yul\":2350:2452   */\n      swap2\n      swap1\n      pop\n      jump\t// out\n        /* \"#utility.yul\":2458:2638   */\n    tag_87:\n        /* \"#utility.yul\":2506:2583   */\n      0x4e487b7100000000000000000000000000000000000000000000000000000000\n        /* \"#utility.yul\":2503:2504   */\n      0x00\n        /* \"#utility.yul\":2496:2584   */\n      mstore\n        /* \"#utility.yul\":2603:2607   */\n      0x41\n        /* \"#utility.yul\":2600:2601   */\n      0x04\n        /* \"#utility.yul\":2593:2608   */\n      mstore\n        /* \"#utility.yul\":2627:2631   */\n      0x24\n        /* \"#utility.yul\":2624:2625   */\n      0x00\n        /* \"#utility.yul\":2617:2632   */\n      revert\n        /* \"#utility.yul\":2644:2925   */\n    tag_88:\n        /* \"#utility.yul\":2727:2754   */\n      tag_158\n        /* \"#utility.yul\":2749:2753   */\n      dup3\n        /* \"#utility.yul\":2727:2754   */\n      tag_86\n      jump\t// in\n    tag_158:\n        /* \"#utility.yul\":2719:2725   */\n      dup2\n        /* \"#utility.yul\":2715:2755   */\n      add\n        /* \"#utility.yul\":2857:2863   */\n      dup2\n        /* \"#utility.yul\":2845:2855   */\n      dup2\n        /* \"#utility.yul\":2842:2864   */\n      lt\n        /* \"#utility.yul\":2821:2839   */\n      0xffffffffffffffff\n        /* \"#utility.yul\":2809:2819   */\n      dup3\n        /* \"#utility.yul\":2806:2840   */\n      gt\n        /* \"#utility.yul\":2803:2865   */\n      or\n        /* \"#utility.yul\":2800:2888   */\n      iszero\n      tag_159\n      jumpi\n        /* \"#utility.yul\":2868:2886   */\n      tag_160\n      tag_87\n      jump\t// in\n    tag_160:\n        /* \"#utility.yul\":2800:2888   */\n    tag_159:\n        /* \"#utility.yul\":2908:2918   */\n      dup1\n        /* \"#utility.yul\":2904:2906   */\n      0x40\n        /* \"#utility.yul\":2897:2919   */\n      mstore\n        /* \"#utility.yul\":2687:2925   */\n      pop\n        /* \"#utility.yul\":2644:2925   */\n      pop\n      pop\n      jump\t// out\n        /* \"#utility.yul\":2931:3060   */\n    tag_89:\n        /* \"#utility.yul\":2965:2971   */\n      0x00\n        /* \"#utility.yul\":2992:3012   */\n      tag_162\n      tag_73\n      jump\t// in\n    tag_162:\n        /* \"#utility.yul\":2982:3012   */\n      swap1\n      pop\n        /* \"#utility.yul\":3021:3054   */\n      tag_163\n        /* \"#utility.yul\":3049:3053   */\n      dup3\n        /* \"#utility.yul\":3041:3047   */\n      dup3\n        /* \"#utility.yul\":3021:3054   */\n      tag_88\n      jump\t// in\n    tag_163:\n        /* \"#utility.yul\":2931:3060   */\n      swap2\n      swap1\n      pop\n      jump\t// out\n        /* \"#utility.yul\":3066:3374   */\n    tag_90:\n        /* \"#utility.yul\":3128:3132   */\n      0x00\n        /* \"#utility.yul\":3218:3236   */\n      0xffffffffffffffff\n        /* \"#utility.yul\":3210:3216   */\n      dup3\n        /* \"#utility.yul\":3207:3237   */\n      gt\n        /* \"#utility.yul\":3204:3260   */\n      iszero\n      tag_165\n      jumpi\n        /* \"#utility.yul\":3240:3258   */\n      tag_166\n      tag_87\n      jump\t// in\n    tag_166:\n        /* \"#utility.yul\":3204:3260   */\n    tag_165:\n        /* \"#utility.yul\":3278:3307   */\n      tag_167\n        /* \"#utility.yul\":3300:3306   */\n      dup3\n        /* \"#utility.yul\":3278:3307   */\n      tag_86\n      jump\t// in\n    tag_167:\n        /* \"#utility.yul\":3270:3307   */\n      swap1\n      pop\n        /* \"#utility.yul\":3362:3366   */\n      0x20\n        /* \"#utility.yul\":3356:3360   */\n      dup2\n        /* \"#utility.yul\":3352:3367   */\n      add\n        /* \"#utility.yul\":3344:3367   */\n      swap1\n      pop\n        /* \"#utility.yul\":3066:3374   */\n      swap2\n      swap1\n      pop\n      jump\t// out\n        /* \"#utility.yul\":3380:3526   */\n    tag_91:\n        /* \"#utility.yul\":3477:3483   */\n      dup3\n        /* \"#utility.yul\":3472:3475   */\n      dup2\n        /* \"#utility.yul\":3467:3470   */\n      dup4\n        /* \"#utility.yul\":3454:3484   */\n      calldatacopy\n        /* \"#utility.yul\":3518:3519   */\n      0x00\n        /* \"#utility.yul\":3509:3515   */\n      dup4\n        /* \"#utility.yul\":3504:3507   */\n      dup4\n        /* \"#utility.yul\":3500:3516   */\n      add\n        /* \"#utility.yul\":3493:3520   */\n      mstore\n        /* \"#utility.yul\":3380:3526   */\n      pop\n      pop\n      pop\n      jump\t// out\n        /* \"#utility.yul\":3532:3957   */\n    tag_92:\n        /* \"#utility.yul\":3610:3615   */\n      0x00\n        /* \"#utility.yul\":3635:3701   */\n      tag_170\n        /* \"#utility.yul\":3651:3700   */\n      tag_171\n        /* \"#utility.yul\":3693:3699   */\n      dup5\n        /* \"#utility.yul\":3651:3700   */\n      tag_90\n      jump\t// in\n    tag_171:\n        /* \"#utility.yul\":3635:3701   */\n      tag_89\n      jump\t// in\n    tag_170:\n        /* \"#utility.yul\":3626:3701   */\n      swap1\n      pop\n        /* \"#utility.yul\":3724:3730   */\n      dup3\n        /* \"#utility.yul\":3717:3722   */\n      dup2\n        /* \"#utility.yul\":3710:3731   */\n      mstore\n        /* \"#utility.yul\":3762:3766   */\n      0x20\n        /* \"#utility.yul\":3755:3760   */\n      dup2\n        /* \"#utility.yul\":3751:3767   */\n      add\n        /* \"#utility.yul\":3800:3803   */\n      dup5\n        /* \"#utility.yul\":3791:3797   */\n      dup5\n        /* \"#utility.yul\":3786:3789   */\n      dup5\n        /* \"#utility.yul\":3782:3798   */\n      add\n        /* \"#utility.yul\":3779:3804   */\n      gt\n        /* \"#utility.yul\":3776:3888   */\n      iszero\n      tag_172\n      jumpi\n        /* \"#utility.yul\":3807:3886   */\n      tag_173\n      tag_85\n      jump\t// in\n    tag_173:\n        /* \"#utility.yul\":3776:3888   */\n    tag_172:\n        /* \"#utility.yul\":3897:3951   */\n      tag_174\n        /* \"#utility.yul\":3944:3950   */\n      dup5\n        /* \"#utility.yul\":3939:3942   */\n      dup3\n        /* \"#utility.yul\":3934:3937   */\n      dup6\n        /* \"#utility.yul\":3897:3951   */\n      tag_91\n      jump\t// in\n    tag_174:\n        /* \"#utility.yul\":3616:3957   */\n      pop\n        /* \"#utility.yul\":3532:3957   */\n      swap4\n      swap3\n      pop\n      pop\n      pop\n      jump\t// out\n        /* \"#utility.yul\":3977:4317   */\n    tag_93:\n        /* \"#utility.yul\":4033:4038   */\n      0x00\n        /* \"#utility.yul\":4082:4085   */\n      dup3\n        /* \"#utility.yul\":4075:4079   */\n      0x1f\n        /* \"#utility.yul\":4067:4073   */\n      dup4\n        /* \"#utility.yul\":4063:4080   */\n      add\n        /* \"#utility.yul\":4059:4086   */\n      slt\n        /* \"#utility.yul\":4049:4171   */\n      tag_176\n      jumpi\n        /* \"#utility.yul\":4090:4169   */\n      tag_177\n      tag_84\n      jump\t// in\n    tag_177:\n        /* \"#utility.yul\":4049:4171   */\n    tag_176:\n        /* \"#utility.yul\":4207:4213   */\n      dup2\n        /* \"#utility.yul\":4194:4214   */\n      calldataload\n        /* \"#utility.yul\":4232:4311   */\n      tag_178\n        /* \"#utility.yul\":4307:4310   */\n      dup5\n        /* \"#utility.yul\":4299:4305   */\n      dup3\n        /* \"#utility.yul\":4292:4296   */\n      0x20\n        /* \"#utility.yul\":4284:4290   */\n      dup7\n        /* \"#utility.yul\":4280:4297   */\n      add\n        /* \"#utility.yul\":4232:4311   */\n      tag_92\n      jump\t// in\n    tag_178:\n        /* \"#utility.yul\":4223:4311   */\n      swap2\n      pop\n        /* \"#utility.yul\":4039:4317   */\n      pop\n        /* \"#utility.yul\":3977:4317   */\n      swap3\n      swap2\n      pop\n      pop\n      jump\t// out\n        /* \"#utility.yul\":4323:6292   */\n    tag_16:\n        /* \"#utility.yul\":4482:4488   */\n      0x00\n        /* \"#utility.yul\":4490:4496   */\n      dup1\n        /* \"#utility.yul\":4498:4504   */\n      0x00\n        /* \"#utility.yul\":4506:4512   */\n      dup1\n        /* \"#utility.yul\":4514:4520   */\n      0x00\n        /* \"#utility.yul\":4522:4528   */\n      dup1\n        /* \"#utility.yul\":4530:4536   */\n      0x00\n        /* \"#utility.yul\":4538:4544   */\n      dup1\n        /* \"#utility.yul\":4546:4552   */\n      0x00\n        /* \"#utility.yul\":4554:4560   */\n      dup1\n        /* \"#utility.yul\":4562:4569   */\n      0x00\n        /* \"#utility.yul\":4612:4615   */\n      0x0160\n        /* \"#utility.yul\":4600:4609   */\n      dup13\n        /* \"#utility.yul\":4591:4598   */\n      dup15\n        /* \"#utility.yul\":4587:4610   */\n      sub\n        /* \"#utility.yul\":4583:4616   */\n      slt\n        /* \"#utility.yul\":4580:4700   */\n      iszero\n      tag_180\n      jumpi\n        /* \"#utility.yul\":4619:4698   */\n      tag_181\n      tag_74\n      jump\t// in\n    tag_181:\n        /* \"#utility.yul\":4580:4700   */\n    tag_180:\n        /* \"#utility.yul\":4739:4740   */\n      0x00\n        /* \"#utility.yul\":4764:4817   */\n      tag_182\n        /* \"#utility.yul\":4809:4816   */\n      dup15\n        /* \"#utility.yul\":4800:4806   */\n      dup3\n        /* \"#utility.yul\":4789:4798   */\n      dup16\n        /* \"#utility.yul\":4785:4807   */\n      add\n        /* \"#utility.yul\":4764:4817   */\n      tag_78\n      jump\t// in\n    tag_182:\n        /* \"#utility.yul\":4754:4817   */\n      swap12\n      pop\n        /* \"#utility.yul\":4710:4827   */\n      pop\n        /* \"#utility.yul\":4866:4868   */\n      0x20\n        /* \"#utility.yul\":4892:4945   */\n      tag_183\n        /* \"#utility.yul\":4937:4944   */\n      dup15\n        /* \"#utility.yul\":4928:4934   */\n      dup3\n        /* \"#utility.yul\":4917:4926   */\n      dup16\n        /* \"#utility.yul\":4913:4935   */\n      add\n        /* \"#utility.yul\":4892:4945   */\n      tag_78\n      jump\t// in\n    tag_183:\n        /* \"#utility.yul\":4882:4945   */\n      swap11\n      pop\n        /* \"#utility.yul\":4837:4955   */\n      pop\n        /* \"#utility.yul\":4994:4996   */\n      0x40\n        /* \"#utility.yul\":5020:5073   */\n      tag_184\n        /* \"#utility.yul\":5065:5072   */\n      dup15\n        /* \"#utility.yul\":5056:5062   */\n      dup3\n        /* \"#utility.yul\":5045:5054   */\n      dup16\n        /* \"#utility.yul\":5041:5063   */\n      add\n        /* \"#utility.yul\":5020:5073   */\n      tag_78\n      jump\t// in\n    tag_184:\n        /* \"#utility.yul\":5010:5073   */\n      swap10\n      pop\n        /* \"#utility.yul\":4965:5083   */\n      pop\n        /* \"#utility.yul\":5122:5124   */\n      0x60\n        /* \"#utility.yul\":5148:5201   */\n      tag_185\n        /* \"#utility.yul\":5193:5200   */\n      dup15\n        /* \"#utility.yul\":5184:5190   */\n      dup3\n        /* \"#utility.yul\":5173:5182   */\n      dup16\n        /* \"#utility.yul\":5169:5191   */\n      add\n        /* \"#utility.yul\":5148:5201   */\n      tag_78\n      jump\t// in\n    tag_185:\n        /* \"#utility.yul\":5138:5201   */\n      swap9\n      pop\n        /* \"#utility.yul\":5093:5211   */\n      pop\n        /* \"#utility.yul\":5250:5253   */\n      0x80\n        /* \"#utility.yul\":5277:5330   */\n      tag_186\n        /* \"#utility.yul\":5322:5329   */\n      dup15\n        /* \"#utility.yul\":5313:5319   */\n      dup3\n        /* \"#utility.yul\":5302:5311   */\n      dup16\n        /* \"#utility.yul\":5298:5320   */\n      add\n        /* \"#utility.yul\":5277:5330   */\n      tag_78\n      jump\t// in\n    tag_186:\n        /* \"#utility.yul\":5267:5330   */\n      swap8\n      pop\n        /* \"#utility.yul\":5221:5340   */\n      pop\n        /* \"#utility.yul\":5379:5382   */\n      0xa0\n        /* \"#utility.yul\":5406:5459   */\n      tag_187\n        /* \"#utility.yul\":5451:5458   */\n      dup15\n        /* \"#utility.yul\":5442:5448   */\n      dup3\n        /* \"#utility.yul\":5431:5440   */\n      dup16\n        /* \"#utility.yul\":5427:5449   */\n      add\n        /* \"#utility.yul\":5406:5459   */\n      tag_78\n      jump\t// in\n    tag_187:\n        /* \"#utility.yul\":5396:5459   */\n      swap7\n      pop\n        /* \"#utility.yul\":5350:5469   */\n      pop\n        /* \"#utility.yul\":5508:5511   */\n      0xc0\n        /* \"#utility.yul\":5535:5588   */\n      tag_188\n        /* \"#utility.yul\":5580:5587   */\n      dup15\n        /* \"#utility.yul\":5571:5577   */\n      dup3\n        /* \"#utility.yul\":5560:5569   */\n      dup16\n        /* \"#utility.yul\":5556:5578   */\n      add\n        /* \"#utility.yul\":5535:5588   */\n      tag_78\n      jump\t// in\n    tag_188:\n        /* \"#utility.yul\":5525:5588   */\n      swap6\n      pop\n        /* \"#utility.yul\":5479:5598   */\n      pop\n        /* \"#utility.yul\":5637:5640   */\n      0xe0\n        /* \"#utility.yul\":5664:5717   */\n      tag_189\n        /* \"#utility.yul\":5709:5716   */\n      dup15\n        /* \"#utility.yul\":5700:5706   */\n      dup3\n        /* \"#utility.yul\":5689:5698   */\n      dup16\n        /* \"#utility.yul\":5685:5707   */\n      add\n        /* \"#utility.yul\":5664:5717   */\n      tag_78\n      jump\t// in\n    tag_189:\n        /* \"#utility.yul\":5654:5717   */\n      swap5\n      pop\n        /* \"#utility.yul\":5608:5727   */\n      pop\n        /* \"#utility.yul\":5766:5769   */\n      0x0100\n        /* \"#utility.yul\":5793:5846   */\n      tag_190\n        /* \"#utility.yul\":5838:5845   */\n      dup15\n        /* \"#utility.yul\":5829:5835   */\n      dup3\n        /* \"#utility.yul\":5818:5827   */\n      dup16\n        /* \"#utility.yul\":5814:5836   */\n      add\n        /* \"#utility.yul\":5793:5846   */\n      tag_83\n      jump\t// in\n    tag_190:\n        /* \"#utility.yul\":5783:5846   */\n      swap4\n      pop\n        /* \"#utility.yul\":5737:5856   */\n      pop\n        /* \"#utility.yul\":5895:5898   */\n      0x0120\n        /* \"#utility.yul\":5922:5975   */\n      tag_191\n        /* \"#utility.yul\":5967:5974   */\n      dup15\n        /* \"#utility.yul\":5958:5964   */\n      dup3\n        /* \"#utility.yul\":5947:5956   */\n      dup16\n        /* \"#utility.yul\":5943:5965   */\n      add\n        /* \"#utility.yul\":5922:5975   */\n      tag_83\n      jump\t// in\n    tag_191:\n        /* \"#utility.yul\":5912:5975   */\n      swap3\n      pop\n        /* \"#utility.yul\":5866:5985   */\n      pop\n        /* \"#utility.yul\":6052:6055   */\n      0x0140\n        /* \"#utility.yul\":6041:6050   */\n      dup13\n        /* \"#utility.yul\":6037:6056   */\n      add\n        /* \"#utility.yul\":6024:6057   */\n      calldataload\n        /* \"#utility.yul\":6084:6102   */\n      0xffffffffffffffff\n        /* \"#utility.yul\":6076:6082   */\n      dup2\n        /* \"#utility.yul\":6073:6103   */\n      gt\n        /* \"#utility.yul\":6070:6187   */\n      iszero\n      tag_192\n      jumpi\n        /* \"#utility.yul\":6106:6185   */\n      tag_193\n      tag_75\n      jump\t// in\n    tag_193:\n        /* \"#utility.yul\":6070:6187   */\n    tag_192:\n        /* \"#utility.yul\":6212:6275   */\n      tag_194\n        /* \"#utility.yul\":6267:6274   */\n      dup15\n        /* \"#utility.yul\":6258:6264   */\n      dup3\n        /* \"#utility.yul\":6247:6256   */\n      dup16\n        /* \"#utility.yul\":6243:6265   */\n      add\n        /* \"#utility.yul\":6212:6275   */\n      tag_93\n      jump\t// in\n    tag_194:\n        /* \"#utility.yul\":6201:6275   */\n      swap2\n      pop\n        /* \"#utility.yul\":5995:6285   */\n      pop\n        /* \"#utility.yul\":4323:6292   */\n      swap3\n      swap6\n      swap9\n      swap12\n      pop\n      swap3\n      swap6\n      swap9\n      swap12\n      swap1\n      swap4\n      swap7\n      swap10\n      pop\n      jump\t// out\n        /* \"#utility.yul\":6298:6917   */\n    tag_20:\n        /* \"#utility.yul\":6375:6381   */\n      0x00\n        /* \"#utility.yul\":6383:6389   */\n      dup1\n        /* \"#utility.yul\":6391:6397   */\n      0x00\n        /* \"#utility.yul\":6440:6442   */\n      0x60\n        /* \"#utility.yul\":6428:6437   */\n      dup5\n        /* \"#utility.yul\":6419:6426   */\n      dup7\n        /* \"#utility.yul\":6415:6438   */\n      sub\n        /* \"#utility.yul\":6411:6443   */\n      slt\n        /* \"#utility.yul\":6408:6527   */\n      iszero\n      tag_196\n      jumpi\n        /* \"#utility.yul\":6446:6525   */\n      tag_197\n      tag_74\n      jump\t// in\n    tag_197:\n        /* \"#utility.yul\":6408:6527   */\n    tag_196:\n        /* \"#utility.yul\":6566:6567   */\n      0x00\n        /* \"#utility.yul\":6591:6644   */\n      tag_198\n        /* \"#utility.yul\":6636:6643   */\n      dup7\n        /* \"#utility.yul\":6627:6633   */\n      dup3\n        /* \"#utility.yul\":6616:6625   */\n      dup8\n        /* \"#utility.yul\":6612:6634   */\n      add\n        /* \"#utility.yul\":6591:6644   */\n      tag_78\n      jump\t// in\n    tag_198:\n        /* \"#utility.yul\":6581:6644   */\n      swap4\n      pop\n        /* \"#utility.yul\":6537:6654   */\n      pop\n        /* \"#utility.yul\":6693:6695   */\n      0x20\n        /* \"#utility.yul\":6719:6772   */\n      tag_199\n        /* \"#utility.yul\":6764:6771   */\n      dup7\n        /* \"#utility.yul\":6755:6761   */\n      dup3\n        /* \"#utility.yul\":6744:6753   */\n      dup8\n        /* \"#utility.yul\":6740:6762   */\n      add\n        /* \"#utility.yul\":6719:6772   */\n      tag_78\n      jump\t// in\n    tag_199:\n        /* \"#utility.yul\":6709:6772   */\n      swap3\n      pop\n        /* \"#utility.yul\":6664:6782   */\n      pop\n        /* \"#utility.yul\":6821:6823   */\n      0x40\n        /* \"#utility.yul\":6847:6900   */\n      tag_200\n        /* \"#utility.yul\":6892:6899   */\n      dup7\n        /* \"#utility.yul\":6883:6889   */\n      dup3\n        /* \"#utility.yul\":6872:6881   */\n      dup8\n        /* \"#utility.yul\":6868:6890   */\n      add\n        /* \"#utility.yul\":6847:6900   */\n      tag_78\n      jump\t// in\n    tag_200:\n        /* \"#utility.yul\":6837:6900   */\n      swap2\n      pop\n        /* \"#utility.yul\":6792:6910   */\n      pop\n        /* \"#utility.yul\":6298:6917   */\n      swap3\n      pop\n      swap3\n      pop\n      swap3\n      jump\t// out\n        /* \"#utility.yul\":6923:7145   */\n    tag_23:\n        /* \"#utility.yul\":7016:7020   */\n      0x00\n        /* \"#utility.yul\":7054:7056   */\n      0x20\n        /* \"#utility.yul\":7043:7052   */\n      dup3\n        /* \"#utility.yul\":7039:7057   */\n      add\n        /* \"#utility.yul\":7031:7057   */\n      swap1\n      pop\n        /* \"#utility.yul\":7067:7138   */\n      tag_202\n        /* \"#utility.yul\":7135:7136   */\n      0x00\n        /* \"#utility.yul\":7124:7133   */\n      dup4\n        /* \"#utility.yul\":7120:7137   */\n      add\n        /* \"#utility.yul\":7111:7117   */\n      dup5\n        /* \"#utility.yul\":7067:7138   */\n      tag_79\n      jump\t// in\n    tag_202:\n        /* \"#utility.yul\":6923:7145   */\n      swap3\n      swap2\n      pop\n      pop\n      jump\t// out\n        /* \"#utility.yul\":7151:7916   */\n    tag_26:\n        /* \"#utility.yul\":7237:7243   */\n      0x00\n        /* \"#utility.yul\":7245:7251   */\n      dup1\n        /* \"#utility.yul\":7253:7259   */\n      0x00\n        /* \"#utility.yul\":7261:7267   */\n      dup1\n        /* \"#utility.yul\":7310:7313   */\n      0x80\n        /* \"#utility.yul\":7298:7307   */\n      dup6\n        /* \"#utility.yul\":7289:7296   */\n      dup8\n        /* \"#utility.yul\":7285:7308   */\n      sub\n        /* \"#utility.yul\":7281:7314   */\n      slt\n        /* \"#utility.yul\":7278:7398   */\n      iszero\n      tag_204\n      jumpi\n        /* \"#utility.yul\":7317:7396   */\n      tag_205\n      tag_74\n      jump\t// in\n    tag_205:\n        /* \"#utility.yul\":7278:7398   */\n    tag_204:\n        /* \"#utility.yul\":7437:7438   */\n      0x00\n        /* \"#utility.yul\":7462:7515   */\n      tag_206\n        /* \"#utility.yul\":7507:7514   */\n      dup8\n        /* \"#utility.yul\":7498:7504   */\n      dup3\n        /* \"#utility.yul\":7487:7496   */\n      dup9\n        /* \"#utility.yul\":7483:7505   */\n      add\n        /* \"#utility.yul\":7462:7515   */\n      tag_83\n      jump\t// in\n    tag_206:\n        /* \"#utility.yul\":7452:7515   */\n      swap5\n      pop\n        /* \"#utility.yul\":7408:7525   */\n      pop\n        /* \"#utility.yul\":7564:7566   */\n      0x20\n        /* \"#utility.yul\":7590:7643   */\n      tag_207\n        /* \"#utility.yul\":7635:7642   */\n      dup8\n        /* \"#utility.yul\":7626:7632   */\n      dup3\n        /* \"#utility.yul\":7615:7624   */\n      dup9\n        /* \"#utility.yul\":7611:7633   */\n      add\n        /* \"#utility.yul\":7590:7643   */\n      tag_83\n      jump\t// in\n    tag_207:\n        /* \"#utility.yul\":7580:7643   */\n      swap4\n      pop\n        /* \"#utility.yul\":7535:7653   */\n      pop\n        /* \"#utility.yul\":7692:7694   */\n      0x40\n        /* \"#utility.yul\":7718:7771   */\n      tag_208\n        /* \"#utility.yul\":7763:7770   */\n      dup8\n        /* \"#utility.yul\":7754:7760   */\n      dup3\n        /* \"#utility.yul\":7743:7752   */\n      dup9\n        /* \"#utility.yul\":7739:7761   */\n      add\n        /* \"#utility.yul\":7718:7771   */\n      tag_78\n      jump\t// in\n    tag_208:\n        /* \"#utility.yul\":7708:7771   */\n      swap3\n      pop\n        /* \"#utility.yul\":7663:7781   */\n      pop\n        /* \"#utility.yul\":7820:7822   */\n      0x60\n        /* \"#utility.yul\":7846:7899   */\n      tag_209\n        /* \"#utility.yul\":7891:7898   */\n      dup8\n        /* \"#utility.yul\":7882:7888   */\n      dup3\n        /* \"#utility.yul\":7871:7880   */\n      dup9\n        /* \"#utility.yul\":7867:7889   */\n      add\n        /* \"#utility.yul\":7846:7899   */\n      tag_78\n      jump\t// in\n    tag_209:\n        /* \"#utility.yul\":7836:7899   */\n      swap2\n      pop\n        /* \"#utility.yul\":7791:7909   */\n      pop\n        /* \"#utility.yul\":7151:7916   */\n      swap3\n      swap6\n      swap2\n      swap5\n      pop\n      swap3\n      pop\n      jump\t// out\n        /* \"#utility.yul\":7922:8012   */\n    tag_94:\n        /* \"#utility.yul\":7956:7963   */\n      0x00\n        /* \"#utility.yul\":7999:8004   */\n      dup2\n        /* \"#utility.yul\":7992:8005   */\n      iszero\n        /* \"#utility.yul\":7985:8006   */\n      iszero\n        /* \"#utility.yul\":7974:8006   */\n      swap1\n      pop\n        /* \"#utility.yul\":7922:8012   */\n      swap2\n      swap1\n      pop\n      jump\t// out\n        /* \"#utility.yul\":8018:8127   */\n    tag_95:\n        /* \"#utility.yul\":8099:8120   */\n      tag_212\n        /* \"#utility.yul\":8114:8119   */\n      dup2\n        /* \"#utility.yul\":8099:8120   */\n      tag_94\n      jump\t// in\n    tag_212:\n        /* \"#utility.yul\":8094:8097   */\n      dup3\n        /* \"#utility.yul\":8087:8121   */\n      mstore\n        /* \"#utility.yul\":8018:8127   */\n      pop\n      pop\n      jump\t// out\n        /* \"#utility.yul\":8133:8343   */\n    tag_29:\n        /* \"#utility.yul\":8220:8224   */\n      0x00\n        /* \"#utility.yul\":8258:8260   */\n      0x20\n        /* \"#utility.yul\":8247:8256   */\n      dup3\n        /* \"#utility.yul\":8243:8261   */\n      add\n        /* \"#utility.yul\":8235:8261   */\n      swap1\n      pop\n        /* \"#utility.yul\":8271:8336   */\n      tag_214\n        /* \"#utility.yul\":8333:8334   */\n      0x00\n        /* \"#utility.yul\":8322:8331   */\n      dup4\n        /* \"#utility.yul\":8318:8335   */\n      add\n        /* \"#utility.yul\":8309:8315   */\n      dup5\n        /* \"#utility.yul\":8271:8336   */\n      tag_95\n      jump\t// in\n    tag_214:\n        /* \"#utility.yul\":8133:8343   */\n      swap3\n      swap2\n      pop\n      pop\n      jump\t// out\n        /* \"#utility.yul\":8349:9260   */\n    tag_32:\n        /* \"#utility.yul\":8444:8450   */\n      0x00\n        /* \"#utility.yul\":8452:8458   */\n      dup1\n        /* \"#utility.yul\":8460:8466   */\n      0x00\n        /* \"#utility.yul\":8468:8474   */\n      dup1\n        /* \"#utility.yul\":8476:8482   */\n      0x00\n        /* \"#utility.yul\":8525:8528   */\n      0xa0\n        /* \"#utility.yul\":8513:8522   */\n      dup7\n        /* \"#utility.yul\":8504:8511   */\n      dup9\n        /* \"#utility.yul\":8500:8523   */\n      sub\n        /* \"#utility.yul\":8496:8529   */\n      slt\n        /* \"#utility.yul\":8493:8613   */\n      iszero\n      tag_216\n      jumpi\n        /* \"#utility.yul\":8532:8611   */\n      tag_217\n      tag_74\n      jump\t// in\n    tag_217:\n        /* \"#utility.yul\":8493:8613   */\n    tag_216:\n        /* \"#utility.yul\":8652:8653   */\n      0x00\n        /* \"#utility.yul\":8677:8730   */\n      tag_218\n        /* \"#utility.yul\":8722:8729   */\n      dup9\n        /* \"#utility.yul\":8713:8719   */\n      dup3\n        /* \"#utility.yul\":8702:8711   */\n      dup10\n        /* \"#utility.yul\":8698:8720   */\n      add\n        /* \"#utility.yul\":8677:8730   */\n      tag_83\n      jump\t// in\n    tag_218:\n        /* \"#utility.yul\":8667:8730   */\n      swap6\n      pop\n        /* \"#utility.yul\":8623:8740   */\n      pop\n        /* \"#utility.yul\":8779:8781   */\n      0x20\n        /* \"#utility.yul\":8805:8858   */\n      tag_219\n        /* \"#utility.yul\":8850:8857   */\n      dup9\n        /* \"#utility.yul\":8841:8847   */\n      dup3\n        /* \"#utility.yul\":8830:8839   */\n      dup10\n        /* \"#utility.yul\":8826:8848   */\n      add\n        /* \"#utility.yul\":8805:8858   */\n      tag_83\n      jump\t// in\n    tag_219:\n        /* \"#utility.yul\":8795:8858   */\n      swap5\n      pop\n        /* \"#utility.yul\":8750:8868   */\n      pop\n        /* \"#utility.yul\":8907:8909   */\n      0x40\n        /* \"#utility.yul\":8933:8986   */\n      tag_220\n        /* \"#utility.yul\":8978:8985   */\n      dup9\n        /* \"#utility.yul\":8969:8975   */\n      dup3\n        /* \"#utility.yul\":8958:8967   */\n      dup10\n        /* \"#utility.yul\":8954:8976   */\n      add\n        /* \"#utility.yul\":8933:8986   */\n      tag_78\n      jump\t// in\n    tag_220:\n        /* \"#utility.yul\":8923:8986   */\n      swap4\n      pop\n        /* \"#utility.yul\":8878:8996   */\n      pop\n        /* \"#utility.yul\":9035:9037   */\n      0x60\n        /* \"#utility.yul\":9061:9114   */\n      tag_221\n        /* \"#utility.yul\":9106:9113   */\n      dup9\n        /* \"#utility.yul\":9097:9103   */\n      dup3\n        /* \"#utility.yul\":9086:9095   */\n      dup10\n        /* \"#utility.yul\":9082:9104   */\n      add\n        /* \"#utility.yul\":9061:9114   */\n      tag_78\n      jump\t// in\n    tag_221:\n        /* \"#utility.yul\":9051:9114   */\n      swap3\n      pop\n        /* \"#utility.yul\":9006:9124   */\n      pop\n        /* \"#utility.yul\":9163:9166   */\n      0x80\n        /* \"#utility.yul\":9190:9243   */\n      tag_222\n        /* \"#utility.yul\":9235:9242   */\n      dup9\n        /* \"#utility.yul\":9226:9232   */\n      dup3\n        /* \"#utility.yul\":9215:9224   */\n      dup10\n        /* \"#utility.yul\":9211:9233   */\n      add\n        /* \"#utility.yul\":9190:9243   */\n      tag_78\n      jump\t// in\n    tag_222:\n        /* \"#utility.yul\":9180:9243   */\n      swap2\n      pop\n        /* \"#utility.yul\":9134:9253   */\n      pop\n        /* \"#utility.yul\":8349:9260   */\n      swap3\n      swap6\n      pop\n      swap3\n      swap6\n      swap1\n      swap4\n      pop\n      jump\t// out\n        /* \"#utility.yul\":9266:9365   */\n    tag_96:\n        /* \"#utility.yul\":9318:9324   */\n      0x00\n        /* \"#utility.yul\":9352:9357   */\n      dup2\n        /* \"#utility.yul\":9346:9358   */\n      mload\n        /* \"#utility.yul\":9336:9358   */\n      swap1\n      pop\n        /* \"#utility.yul\":9266:9365   */\n      swap2\n      swap1\n      pop\n      jump\t// out\n        /* \"#utility.yul\":9371:9551   */\n    tag_97:\n        /* \"#utility.yul\":9419:9496   */\n      0x4e487b7100000000000000000000000000000000000000000000000000000000\n        /* \"#utility.yul\":9416:9417   */\n      0x00\n        /* \"#utility.yul\":9409:9497   */\n      mstore\n        /* \"#utility.yul\":9516:9520   */\n      0x22\n        /* \"#utility.yul\":9513:9514   */\n      0x04\n        /* \"#utility.yul\":9506:9521   */\n      mstore\n        /* \"#utility.yul\":9540:9544   */\n      0x24\n        /* \"#utility.yul\":9537:9538   */\n      0x00\n        /* \"#utility.yul\":9530:9545   */\n      revert\n        /* \"#utility.yul\":9557:9877   */\n    tag_98:\n        /* \"#utility.yul\":9601:9607   */\n      0x00\n        /* \"#utility.yul\":9638:9639   */\n      0x02\n        /* \"#utility.yul\":9632:9636   */\n      dup3\n        /* \"#utility.yul\":9628:9640   */\n      div\n        /* \"#utility.yul\":9618:9640   */\n      swap1\n      pop\n        /* \"#utility.yul\":9685:9686   */\n      0x01\n        /* \"#utility.yul\":9679:9683   */\n      dup3\n        /* \"#utility.yul\":9675:9687   */\n      and\n        /* \"#utility.yul\":9706:9724   */\n      dup1\n        /* \"#utility.yul\":9696:9777   */\n      tag_226\n      jumpi\n        /* \"#utility.yul\":9762:9766   */\n      0x7f\n        /* \"#utility.yul\":9754:9760   */\n      dup3\n        /* \"#utility.yul\":9750:9767   */\n      and\n        /* \"#utility.yul\":9740:9767   */\n      swap2\n      pop\n        /* \"#utility.yul\":9696:9777   */\n    tag_226:\n        /* \"#utility.yul\":9824:9826   */\n      0x20\n        /* \"#utility.yul\":9816:9822   */\n      dup3\n        /* \"#utility.yul\":9813:9827   */\n      lt\n        /* \"#utility.yul\":9793:9811   */\n      dup2\n        /* \"#utility.yul\":9790:9828   */\n      sub\n        /* \"#utility.yul\":9787:9871   */\n      tag_227\n      jumpi\n        /* \"#utility.yul\":9843:9861   */\n      tag_228\n      tag_97\n      jump\t// in\n    tag_228:\n        /* \"#utility.yul\":9787:9871   */\n    tag_227:\n        /* \"#utility.yul\":9608:9877   */\n      pop\n        /* \"#utility.yul\":9557:9877   */\n      swap2\n      swap1\n      pop\n      jump\t// out\n        /* \"#utility.yul\":9883:10024   */\n    tag_99:\n        /* \"#utility.yul\":9932:9936   */\n      0x00\n        /* \"#utility.yul\":9955:9958   */\n      dup2\n        /* \"#utility.yul\":9947:9958   */\n      swap1\n      pop\n        /* \"#utility.yul\":9978:9981   */\n      dup2\n        /* \"#utility.yul\":9975:9976   */\n      0x00\n        /* \"#utility.yul\":9968:9982   */\n      mstore\n        /* \"#utility.yul\":10012:10016   */\n      0x20\n        /* \"#utility.yul\":10009:10010   */\n      0x00\n        /* \"#utility.yul\":9999:10017   */\n      keccak256\n        /* \"#utility.yul\":9991:10017   */\n      swap1\n      pop\n        /* \"#utility.yul\":9883:10024   */\n      swap2\n      swap1\n      pop\n      jump\t// out\n        /* \"#utility.yul\":10030:10123   */\n    tag_100:\n        /* \"#utility.yul\":10067:10073   */\n      0x00\n        /* \"#utility.yul\":10114:10116   */\n      0x20\n        /* \"#utility.yul\":10109:10111   */\n      0x1f\n        /* \"#utility.yul\":10102:10107   */\n      dup4\n        /* \"#utility.yul\":10098:10112   */\n      add\n        /* \"#utility.yul\":10094:10117   */\n      div\n        /* \"#utility.yul\":10084:10117   */\n      swap1\n      pop\n        /* \"#utility.yul\":10030:10123   */\n      swap2\n      swap1\n      pop\n      jump\t// out\n        /* \"#utility.yul\":10129:10236   */\n    tag_101:\n        /* \"#utility.yul\":10173:10181   */\n      0x00\n        /* \"#utility.yul\":10223:10228   */\n      dup3\n        /* \"#utility.yul\":10217:10221   */\n      dup3\n        /* \"#utility.yul\":10213:10229   */\n      shl\n        /* \"#utility.yul\":10192:10229   */\n      swap1\n      pop\n        /* \"#utility.yul\":10129:10236   */\n      swap3\n      swap2\n      pop\n      pop\n      jump\t// out\n        /* \"#utility.yul\":10242:10635   */\n    tag_102:\n        /* \"#utility.yul\":10311:10317   */\n      0x00\n        /* \"#utility.yul\":10361:10362   */\n      0x08\n        /* \"#utility.yul\":10349:10359   */\n      dup4\n        /* \"#utility.yul\":10345:10363   */\n      mul\n        /* \"#utility.yul\":10384:10481   */\n      tag_233\n        /* \"#utility.yul\":10414:10480   */\n      0xffffffffffffffffffffffffffffffffffffffffffffffffffffffffffffffff\n        /* \"#utility.yul\":10403:10412   */\n      dup3\n        /* \"#utility.yul\":10384:10481   */\n      tag_101\n      jump\t// in\n    tag_233:\n        /* \"#utility.yul\":10502:10541   */\n      tag_234\n        /* \"#utility.yul\":10532:10540   */\n      dup7\n        /* \"#utility.yul\":10521:10530   */\n      dup4\n        /* \"#utility.yul\":10502:10541   */\n      tag_101\n      jump\t// in\n    tag_234:\n        /* \"#utility.yul\":10490:10541   */\n      swap6\n      pop\n        /* \"#utility.yul\":10574:10578   */\n      dup1\n        /* \"#utility.yul\":10570:10579   */\n      not\n        /* \"#utility.yul\":10563:10568   */\n      dup5\n        /* \"#utility.yul\":10559:10580   */\n      and\n        /* \"#utility.yul\":10550:10580   */\n      swap4\n      pop\n        /* \"#utility.yul\":10623:10627   */\n      dup1\n        /* \"#utility.yul\":10613:10621   */\n      dup7\n        /* \"#utility.yul\":10609:10628   */\n      and\n        /* \"#utility.yul\":10602:10607   */\n      dup5\n        /* \"#utility.yul\":10599:10629   */\n      or\n        /* \"#utility.yul\":10589:10629   */\n      swap3\n      pop\n        /* \"#utility.yul\":10318:10635   */\n      pop\n      pop\n        /* \"#utility.yul\":10242:10635   */\n      swap4\n      swap3\n      pop\n      pop\n      pop\n      jump\t// out\n        /* \"#utility.yul\":10641:10701   */\n    tag_103:\n        /* \"#utility.yul\":10669:10672   */\n      0x00\n        /* \"#utility.yul\":10690:10695   */\n      dup2\n        /* \"#utility.yul\":10683:10695   */\n      swap1\n      pop\n        /* \"#utility.yul\":10641:10701   */\n      swap2\n      swap1\n      pop\n      jump\t// out\n        /* \"#utility.yul\":10707:10849   */\n    tag_104:\n        /* \"#utility.yul\":10757:10766   */\n      0x00\n        /* \"#utility.yul\":10790:10843   */\n      tag_237\n        /* \"#utility.yul\":10808:10842   */\n      tag_238\n        /* \"#utility.yul\":10817:10841   */\n      tag_239\n        /* \"#utility.yul\":10835:10840   */\n      dup5\n        /* \"#utility.yul\":10817:10841   */\n      tag_76\n      jump\t// in\n    tag_239:\n        /* \"#utility.yul\":10808:10842   */\n      tag_103\n      jump\t// in\n    tag_238:\n        /* \"#utility.yul\":10790:10843   */\n      tag_76\n      jump\t// in\n    tag_237:\n        /* \"#utility.yul\":10777:10843   */\n      swap1\n      pop\n        /* \"#utility.yul\":10707:10849   */\n      swap2\n      swap1\n      pop\n      jump\t// out\n        /* \"#utility.yul\":10855:10930   */\n    tag_105:\n        /* \"#utility.yul\":10898:10901   */\n      0x00\n        /* \"#utility.yul\":10919:10924   */\n      dup2\n        /* \"#utility.yul\":10912:10924   */\n      swap1\n      pop\n        /* \"#utility.yul\":10855:10930   */\n      swap2\n      swap1\n      pop\n      jump\t// out\n        /* \"#utility.yul\":10936:11205   */\n    tag_106:\n        /* \"#utility.yul\":11046:11085   */\n      tag_242\n        /* \"#utility.yul\":11077:11084   */\n      dup4\n        /* \"#utility.yul\":11046:11085   */\n      tag_104\n      jump\t// in\n    tag_242:\n        /* \"#utility.yul\":11107:11198   */\n      tag_243\n        /* \"#utility.yul\":11156:11197   */\n      tag_244\n        /* \"#utility.yul\":11180:11196   */\n      dup3\n        /* \"#utility.yul\":11156:11197   */\n      tag_105\n      jump\t// in\n    tag_244:\n        /* \"#utility.yul\":11148:11154   */\n      dup5\n        /* \"#utility.yul\":11141:11145   */\n      dup5\n        /* \"#utility.yul\":11135:11146   */\n      sload\n        /* \"#utility.yul\":11107:11198   */\n      tag_102\n      jump\t// in\n    tag_243:\n        /* \"#utility.yul\":11101:11105   */\n      dup3\n        /* \"#utility.yul\":11094:11199   */\n      sstore\n        /* \"#utility.yul\":11012:11205   */\n      pop\n        /* \"#utility.yul\":10936:11205   */\n      pop\n      pop\n      pop\n      jump\t// out\n        /* \"#utility.yul\":11211:11284   */\n    tag_107:\n        /* \"#utility.yul\":11256:11259   */\n      0x00\n        /* \"#utility.yul\":11211:11284   */\n      swap1\n      jump\t// out\n        /* \"#utility.yul\":11290:11479   */\n    tag_108:\n        /* \"#utility.yul\":11367:11399   */\n      tag_247\n      tag_107\n      jump\t// in\n    tag_247:\n        /* \"#utility.yul\":11408:11473   */\n      tag_248\n        /* \"#utility.yul\":11466:11472   */\n      dup2\n        /* \"#utility.yul\":11458:11464   */\n      dup5\n        /* \"#utility.yul\":11452:11456   */\n      dup5\n        /* \"#utility.yul\":11408:11473   */\n      tag_106\n      jump\t// in\n    tag_248:\n        /* \"#utility.yul\":11343:11479   */\n      pop\n        /* \"#utility.yul\":11290:11479   */\n      pop\n      pop\n      jump\t// out\n        /* \"#utility.yul\":11485:11671   */\n    tag_109:\n        /* \"#utility.yul\":11545:11665   */\n    tag_250:\n        /* \"#utility.yul\":11562:11565   */\n      dup2\n        /* \"#utility.yul\":11555:11560   */\n      dup2\n        /* \"#utility.yul\":11552:11566   */\n      lt\n        /* \"#utility.yul\":11545:11665   */\n      iszero\n      tag_252\n      jumpi\n        /* \"#utility.yul\":11616:11655   */\n      tag_253\n        /* \"#utility.yul\":11653:11654   */\n      0x00\n        /* \"#utility.yul\":11646:11651   */\n      dup3\n        /* \"#utility.yul\":11616:11655   */\n      tag_108\n      jump\t// in\n    tag_253:\n        /* \"#utility.yul\":11589:11590   */\n      0x01\n        /* \"#utility.yul\":11582:11587   */\n      dup2\n        /* \"#utility.yul\":11578:11591   */\n      add\n        /* \"#utility.yul\":11569:11591   */\n      swap1\n      pop\n        /* \"#utility.yul\":11545:11665   */\n      jump(tag_250)\n    tag_252:\n        /* \"#utility.yul\":11485:11671   */\n      pop\n      pop\n      jump\t// out\n        /* \"#utility.yul\":11677:12220   */\n    tag_110:\n        /* \"#utility.yul\":11778:11780   */\n      0x1f\n        /* \"#utility.yul\":11773:11776   */\n      dup3\n        /* \"#utility.yul\":11770:11781   */\n      gt\n        /* \"#utility.yul\":11767:12213   */\n      iszero\n      tag_255\n      jumpi\n        /* \"#utility.yul\":11812:11850   */\n      tag_256\n        /* \"#utility.yul\":11844:11849   */\n      dup2\n        /* \"#utility.yul\":11812:11850   */\n      tag_99\n      jump\t// in\n    tag_256:\n        /* \"#utility.yul\":11896:11925   */\n      tag_257\n        /* \"#utility.yul\":11914:11924   */\n      dup5\n        /* \"#utility.yul\":11896:11925   */\n      tag_100\n      jump\t// in\n    tag_257:\n        /* \"#utility.yul\":11886:11894   */\n      dup2\n        /* \"#utility.yul\":11882:11926   */\n      add\n        /* \"#utility.yul\":12079:12081   */\n      0x20\n        /* \"#utility.yul\":12067:12077   */\n      dup6\n        /* \"#utility.yul\":12064:12082   */\n      lt\n        /* \"#utility.yul\":12061:12110   */\n      iszero\n      tag_258\n      jumpi\n        /* \"#utility.yul\":12100:12108   */\n      dup2\n        /* \"#utility.yul\":12085:12108   */\n      swap1\n      pop\n        /* \"#utility.yul\":12061:12110   */\n    tag_258:\n        /* \"#utility.yul\":12123:12203   */\n      tag_259\n        /* \"#utility.yul\":12179:12201   */\n      tag_260\n        /* \"#utility.yul\":12197:12200   */\n      dup6\n        /* \"#utility.yul\":12179:12201   */\n      tag_100\n      jump\t// in\n    tag_260:\n        /* \"#utility.yul\":12169:12177   */\n      dup4\n        /* \"#utility.yul\":12165:12202   */\n      add\n        /* \"#utility.yul\":12152:12163   */\n      dup3\n        /* \"#utility.yul\":12123:12203   */\n      tag_109\n      jump\t// in\n    tag_259:\n        /* \"#utility.yul\":11782:12213   */\n      pop\n      pop\n        /* \"#utility.yul\":11767:12213   */\n    tag_255:\n        /* \"#utility.yul\":11677:12220   */\n      pop\n      pop\n      pop\n      jump\t// out\n        /* \"#utility.yul\":12226:12343   */\n    tag_111:\n        /* \"#utility.yul\":12280:12288   */\n      0x00\n        /* \"#utility.yul\":12330:12335   */\n      dup3\n        /* \"#utility.yul\":12324:12328   */\n      dup3\n        /* \"#utility.yul\":12320:12336   */\n      shr\n        /* \"#utility.yul\":12299:12336   */\n      swap1\n      pop\n        /* \"#utility.yul\":12226:12343   */\n      swap3\n      swap2\n      pop\n      pop\n      jump\t// out\n        /* \"#utility.yul\":12349:12518   */\n    tag_112:\n        /* \"#utility.yul\":12393:12399   */\n      0x00\n        /* \"#utility.yul\":12426:12477   */\n      tag_263\n        /* \"#utility.yul\":12474:12475   */\n      0x00\n        /* \"#utility.yul\":12470:12476   */\n      not\n        /* \"#utility.yul\":12462:12467   */\n      dup5\n        /* \"#utility.yul\":12459:12460   */\n      0x08\n        /* \"#utility.yul\":12455:12468   */\n      mul\n        /* \"#utility.yul\":12426:12477   */\n      tag_111\n      jump\t// in\n    tag_263:\n        /* \"#utility.yul\":12422:12478   */\n      not\n        /* \"#utility.yul\":12507:12511   */\n      dup1\n        /* \"#utility.yul\":12501:12505   */\n      dup4\n        /* \"#utility.yul\":12497:12512   */\n      and\n        /* \"#utility.yul\":12487:12512   */\n      swap2\n      pop\n        /* \"#utility.yul\":12400:12518   */\n      pop\n        /* \"#utility.yul\":12349:12518   */\n      swap3\n      swap2\n      pop\n      pop\n      jump\t// out\n        /* \"#utility.yul\":12523:12818   */\n    tag_113:\n        /* \"#utility.yul\":12599:12603   */\n      0x00\n        /* \"#utility.yul\":12745:12774   */\n      tag_265\n        /* \"#utility.yul\":12770:12773   */\n      dup4\n        /* \"#utility.yul\":12764:12768   */\n      dup4\n        /* \"#utility.yul\":12745:12774   */\n      tag_112\n      jump\t// in\n    tag_265:\n        /* \"#utility.yul\":12737:12774   */\n      swap2\n      pop\n        /* \"#utility.yul\":12807:12810   */\n      dup3\n        /* \"#utility.yul\":12804:12805   */\n      0x02\n        /* \"#utility.yul\":12800:12811   */\n      mul\n        /* \"#utility.yul\":12794:12798   */\n      dup3\n        /* \"#utility.yul\":12791:12812   */\n      or\n        /* \"#utility.yul\":12783:12812   */\n      swap1\n      pop\n        /* \"#utility.yul\":12523:12818   */\n      swap3\n      swap2\n      pop\n      pop\n      jump\t// out\n        /* \"#utility.yul\":12823:14218   */\n    tag_40:\n        /* \"#utility.yul\":12940:12977   */\n      tag_267\n        /* \"#utility.yul\":12973:12976   */\n      dup3\n        /* \"#utility.yul\":12940:12977   */\n      tag_96\n      jump\t// in\n    tag_267:\n        /* \"#utility.yul\":13042:13060   */\n      0xffffffffffffffff\n        /* \"#utility.yul\":13034:13040   */\n      dup2\n        /* \"#utility.yul\":13031:13061   */\n      gt\n        /* \"#utility.yul\":13028:13084   */\n      iszero\n      tag_268\n      jumpi\n        /* \"#utility.yul\":13064:13082   */\n      tag_269\n      tag_87\n      jump\t// in\n    tag_269:\n        /* \"#utility.yul\":13028:13084   */\n    tag_268:\n        /* \"#utility.yul\":13108:13146   */\n      tag_270\n        /* \"#utility.yul\":13140:13144   */\n      dup3\n        /* \"#utility.yul\":13134:13145   */\n      sload\n        /* \"#utility.yul\":13108:13146   */\n      tag_98\n      jump\t// in\n    tag_270:\n        /* \"#utility.yul\":13193:13260   */\n      tag_271\n        /* \"#utility.yul\":13253:13259   */\n      dup3\n        /* \"#utility.yul\":13245:13251   */\n      dup3\n        /* \"#utility.yul\":13239:13243   */\n      dup6\n        /* \"#utility.yul\":13193:13260   */\n      tag_110\n      jump\t// in\n    tag_271:\n        /* \"#utility.yul\":13287:13288   */\n      0x00\n        /* \"#utility.yul\":13311:13315   */\n      0x20\n        /* \"#utility.yul\":13298:13315   */\n      swap1\n      pop\n        /* \"#utility.yul\":13343:13345   */\n      0x1f\n        /* \"#utility.yul\":13335:13341   */\n      dup4\n        /* \"#utility.yul\":13332:13346   */\n      gt\n        /* \"#utility.yul\":13360:13361   */\n      0x01\n        /* \"#utility.yul\":13355:13973   */\n      dup2\n      eq\n      tag_273\n      jumpi\n        /* \"#utility.yul\":14017:14018   */\n      0x00\n        /* \"#utility.yul\":14034:14040   */\n      dup5\n        /* \"#utility.yul\":14031:14108   */\n      iszero\n      tag_274\n      jumpi\n        /* \"#utility.yul\":14083:14092   */\n      dup3\n        /* \"#utility.yul\":14078:14081   */\n      dup8\n        /* \"#utility.yul\":14074:14093   */\n      add\n        /* \"#utility.yul\":14068:14094   */\n      mload\n        /* \"#utility.yul\":14059:14094   */\n      swap1\n      pop\n        /* \"#utility.yul\":14031:14108   */\n    tag_274:\n        /* \"#utility.yul\":14134:14201   */\n      tag_275\n        /* \"#utility.yul\":14194:14200   */\n      dup6\n        /* \"#utility.yul\":14187:14192   */\n      dup3\n        /* \"#utility.yul\":14134:14201   */\n      tag_113\n      jump\t// in\n    tag_275:\n        /* \"#utility.yul\":14128:14132   */\n      dup7\n        /* \"#utility.yul\":14121:14202   */\n      sstore\n        /* \"#utility.yul\":13990:14212   */\n      pop\n        /* \"#utility.yul\":13325:14212   */\n      jump(tag_272)\n        /* \"#utility.yul\":13355:13973   */\n    tag_273:\n        /* \"#utility.yul\":13407:13411   */\n      0x1f\n        /* \"#utility.yul\":13403:13412   */\n      not\n        /* \"#utility.yul\":13395:13401   */\n      dup5\n        /* \"#utility.yul\":13391:13413   */\n      and\n        /* \"#utility.yul\":13441:13478   */\n      tag_276\n        /* \"#utility.yul\":13473:13477   */\n      dup7\n        /* \"#utility.yul\":13441:13478   */\n      tag_99\n      jump\t// in\n    tag_276:\n        /* \"#utility.yul\":13500:13501   */\n      0x00\n        /* \"#utility.yul\":13514:13722   */\n    tag_277:\n        /* \"#utility.yul\":13528:13535   */\n      dup3\n        /* \"#utility.yul\":13525:13526   */\n      dup2\n        /* \"#utility.yul\":13522:13536   */\n      lt\n        /* \"#utility.yul\":13514:13722   */\n      iszero\n      tag_279\n      jumpi\n        /* \"#utility.yul\":13607:13616   */\n      dup5\n        /* \"#utility.yul\":13602:13605   */\n      dup10\n        /* \"#utility.yul\":13598:13617   */\n      add\n        /* \"#utility.yul\":13592:13618   */\n      mload\n        /* \"#utility.yul\":13584:13590   */\n      dup3\n        /* \"#utility.yul\":13577:13619   */\n      sstore\n        /* \"#utility.yul\":13658:13659   */\n      0x01\n        /* \"#utility.yul\":13650:13656   */\n      dup3\n        /* \"#utility.yul\":13646:13660   */\n      add\n        /* \"#utility.yul\":13636:13660   */\n      swap2\n      pop\n        /* \"#utility.yul\":13705:13707   */\n      0x20\n        /* \"#utility.yul\":13694:13703   */\n      dup6\n        /* \"#utility.yul\":13690:13708   */\n      add\n        /* \"#utility.yul\":13677:13708   */\n      swap5\n      pop\n        /* \"#utility.yul\":13551:13555   */\n      0x20\n        /* \"#utility.yul\":13548:13549   */\n      dup2\n        /* \"#utility.yul\":13544:13556   */\n      add\n        /* \"#utility.yul\":13539:13556   */\n      swap1\n      pop\n        /* \"#utility.yul\":13514:13722   */\n      jump(tag_277)\n    tag_279:\n        /* \"#utility.yul\":13750:13756   */\n      dup7\n        /* \"#utility.yul\":13741:13748   */\n      dup4\n        /* \"#utility.yul\":13738:13757   */\n      lt\n        /* \"#utility.yul\":13735:13914   */\n      iszero\n      tag_280\n      jumpi\n        /* \"#utility.yul\":13808:13817   */\n      dup5\n        /* \"#utility.yul\":13803:13806   */\n      dup10\n        /* \"#utility.yul\":13799:13818   */\n      add\n        /* \"#utility.yul\":13793:13819   */\n      mload\n        /* \"#utility.yul\":13851:13899   */\n      tag_281\n        /* \"#utility.yul\":13893:13897   */\n      0x1f\n        /* \"#utility.yul\":13885:13891   */\n      dup10\n        /* \"#utility.yul\":13881:13898   */\n      and\n        /* \"#utility.yul\":13870:13879   */\n      dup3\n        /* \"#utility.yul\":13851:13899   */\n      tag_112\n      jump\t// in\n    tag_281:\n        /* \"#utility.yul\":13843:13849   */\n      dup4\n        /* \"#utility.yul\":13836:13900   */\n      sstore\n        /* \"#utility.yul\":13758:13914   */\n      pop\n        /* \"#utility.yul\":13735:13914   */\n    tag_280:\n        /* \"#utility.yul\":13960:13961   */\n      0x01\n        /* \"#utility.yul\":13956:13957   */\n      0x02\n        /* \"#utility.yul\":13948:13954   */\n      dup9\n        /* \"#utility.yul\":13944:13958   */\n      mul\n        /* \"#utility.yul\":13940:13962   */\n      add\n        /* \"#utility.yul\":13934:13938   */\n      dup9\n        /* \"#utility.yul\":13927:13963   */\n      sstore\n        /* \"#utility.yul\":13362:13973   */\n      pop\n      pop\n      pop\n        /* \"#utility.yul\":13325:14212   */\n    tag_272:\n      pop\n        /* \"#utility.yul\":12915:14218   */\n      pop\n      pop\n      pop\n        /* \"#utility.yul\":12823:14218   */\n      pop\n      pop\n      jump\t// out\n        /* \"#utility.yul\":14224:14404   */\n    tag_114:\n        /* \"#utility.yul\":14272:14349   */\n      0x4e487b7100000000000000000000000000000000000000000000000000000000\n        /* \"#utility.yul\":14269:14270   */\n      0x00\n        /* \"#utility.yul\":14262:14350   */\n      mstore\n        /* \"#utility.yul\":14369:14373   */\n      0x11\n        /* \"#utility.yul\":14366:14367   */\n      0x04\n        /* \"#utility.yul\":14359:14374   */\n      mstore\n        /* \"#utility.yul\":14393:14397   */\n      0x24\n        /* \"#utility.yul\":14390:14391   */\n      0x00\n        /* \"#utility.yul\":14383:14398   */\n      revert\n        /* \"#utility.yul\":14410:14820   */\n    tag_43:\n        /* \"#utility.yul\":14450:14457   */\n      0x00\n        /* \"#utility.yul\":14473:14493   */\n      tag_284\n        /* \"#utility.yul\":14491:14492   */\n      dup3\n        /* \"#utility.yul\":14473:14493   */\n      tag_76\n      jump\t// in\n    tag_284:\n        /* \"#utility.yul\":14468:14493   */\n      swap2\n      pop\n        /* \"#utility.yul\":14507:14527   */\n      tag_285\n        /* \"#utility.yul\":14525:14526   */\n      dup4\n        /* \"#utility.yul\":14507:14527   */\n      tag_76\n      jump\t// in\n    tag_285:\n        /* \"#utility.yul\":14502:14527   */\n      swap3\n      pop\n        /* \"#utility.yul\":14562:14563   */\n      dup3\n        /* \"#utility.yul\":14559:14560   */\n      dup3\n        /* \"#utility.yul\":14555:14564   */\n      mul\n        /* \"#utility.yul\":14584:14614   */\n      tag_286\n        /* \"#utility.yul\":14602:14613   */\n      dup2\n        /* \"#utility.yul\":14584:14614   */\n      tag_76\n      jump\t// in\n    tag_286:\n        /* \"#utility.yul\":14573:14614   */\n      swap2\n      pop\n        /* \"#utility.yul\":14763:14764   */\n      dup3\n        /* \"#utility.yul\":14754:14761   */\n      dup3\n        /* \"#utility.yul\":14750:14765   */\n      div\n        /* \"#utility.yul\":14747:14748   */\n      dup5\n        /* \"#utility.yul\":14744:14766   */\n      eq\n        /* \"#utility.yul\":14724:14725   */\n      dup4\n        /* \"#utility.yul\":14717:14726   */\n      iszero\n        /* \"#utility.yul\":14697:14780   */\n      or\n        /* \"#utility.yul\":14674:14813   */\n      tag_287\n      jumpi\n        /* \"#utility.yul\":14793:14811   */\n      tag_288\n      tag_114\n      jump\t// in\n    tag_288:\n        /* \"#utility.yul\":14674:14813   */\n    tag_287:\n        /* \"#utility.yul\":14458:14820   */\n      pop\n        /* \"#utility.yul\":14410:14820   */\n      swap3\n      swap2\n      pop\n      pop\n      jump\t// out\n        /* \"#utility.yul\":14826:15006   */\n    tag_115:\n        /* \"#utility.yul\":14874:14951   */\n      0x4e487b7100000000000000000000000000000000000000000000000000000000\n        /* \"#utility.yul\":14871:14872   */\n      0x00\n        /* \"#utility.yul\":14864:14952   */\n      mstore\n        /* \"#utility.yul\":14971:14975   */\n      0x12\n        /* \"#utility.yul\":14968:14969   */\n      0x04\n        /* \"#utility.yul\":14961:14976   */\n      mstore\n        /* \"#utility.yul\":14995:14999   */\n      0x24\n        /* \"#utility.yul\":14992:14993   */\n      0x00\n        /* \"#utility.yul\":14985:15000   */\n      revert\n        /* \"#utility.yul\":15012:15197   */\n    tag_45:\n        /* \"#utility.yul\":15052:15053   */\n      0x00\n        /* \"#utility.yul\":15069:15089   */\n      tag_291\n        /* \"#utility.yul\":15087:15088   */\n      dup3\n        /* \"#utility.yul\":15069:15089   */\n      tag_76\n      jump\t// in\n    tag_291:\n        /* \"#utility.yul\":15064:15089   */\n      swap2\n      pop\n        /* \"#utility.yul\":15103:15123   */\n      tag_292\n        /* \"#utility.yul\":15121:15122   */\n      dup4\n        /* \"#utility.yul\":15103:15123   */\n      tag_76\n      jump\t// in\n    tag_292:\n        /* \"#utility.yul\":15098:15123   */\n      swap3\n      pop\n        /* \"#utility.yul\":15142:15143   */\n      dup3\n        /* \"#utility.yul\":15132:15167   */\n      tag_293\n      jumpi\n        /* \"#utility.yul\":15147:15165   */\n      tag_294\n      tag_115\n      jump\t// in\n    tag_294:\n        /* \"#utility.yul\":15132:15167   */\n    tag_293:\n        /* \"#utility.yul\":15189:15190   */\n      dup3\n        /* \"#utility.yul\":15186:15187   */\n      dup3\n        /* \"#utility.yul\":15182:15191   */\n      div\n        /* \"#utility.yul\":15177:15191   */\n      swap1\n      pop\n        /* \"#utility.yul\":15012:15197   */\n      swap3\n      swap2\n      pop\n      pop\n      jump\t// out\n        /* \"#utility.yul\":15203:15372   */\n    tag_116:\n        /* \"#utility.yul\":15287:15298   */\n      0x00\n        /* \"#utility.yul\":15321:15327   */\n      dup3\n        /* \"#utility.yul\":15316:15319   */\n      dup3\n        /* \"#utility.yul\":15309:15328   */\n      mstore\n        /* \"#utility.yul\":15361:15365   */\n      0x20\n        /* \"#utility.yul\":15356:15359   */\n      dup3\n        /* \"#utility.yul\":15352:15366   */\n      add\n        /* \"#utility.yul\":15337:15366   */\n      swap1\n      pop\n        /* \"#utility.yul\":15203:15372   */\n      swap3\n      swap2\n      pop\n      pop\n      jump\t// out\n        /* \"#utility.yul\":15378:15548   */\n    tag_117:\n        /* \"#utility.yul\":15518:15540   */\n      0x54686520616464726573732069732077726f6e67000000000000000000000000\n        /* \"#utility.yul\":15514:15515   */\n      0x00\n        /* \"#utility.yul\":15506:15512   */\n      dup3\n        /* \"#utility.yul\":15502:15516   */\n      add\n        /* \"#utility.yul\":15495:15541   */\n      mstore\n        /* \"#utility.yul\":15378:15548   */\n      pop\n      jump\t// out\n        /* \"#utility.yul\":15554:15920   */\n    tag_118:\n        /* \"#utility.yul\":15696:15699   */\n      0x00\n        /* \"#utility.yul\":15717:15784   */\n      tag_298\n        /* \"#utility.yul\":15781:15783   */\n      0x14\n        /* \"#utility.yul\":15776:15779   */\n      dup4\n        /* \"#utility.yul\":15717:15784   */\n      tag_116\n      jump\t// in\n    tag_298:\n        /* \"#utility.yul\":15710:15784   */\n      swap2\n      pop\n        /* \"#utility.yul\":15793:15886   */\n      tag_299\n        /* \"#utility.yul\":15882:15885   */\n      dup3\n        /* \"#utility.yul\":15793:15886   */\n      tag_117\n      jump\t// in\n    tag_299:\n        /* \"#utility.yul\":15911:15913   */\n      0x20\n        /* \"#utility.yul\":15906:15909   */\n      dup3\n        /* \"#utility.yul\":15902:15914   */\n      add\n        /* \"#utility.yul\":15895:15914   */\n      swap1\n      pop\n        /* \"#utility.yul\":15554:15920   */\n      swap2\n      swap1\n      pop\n      jump\t// out\n        /* \"#utility.yul\":15926:16345   */\n    tag_50:\n        /* \"#utility.yul\":16092:16096   */\n      0x00\n        /* \"#utility.yul\":16130:16132   */\n      0x20\n        /* \"#utility.yul\":16119:16128   */\n      dup3\n        /* \"#utility.yul\":16115:16133   */\n      add\n        /* \"#utility.yul\":16107:16133   */\n      swap1\n      pop\n        /* \"#utility.yul\":16179:16188   */\n      dup2\n        /* \"#utility.yul\":16173:16177   */\n      dup2\n        /* \"#utility.yul\":16169:16189   */\n      sub\n        /* \"#utility.yul\":16165:16166   */\n      0x00\n        /* \"#utility.yul\":16154:16163   */\n      dup4\n        /* \"#utility.yul\":16150:16167   */\n      add\n        /* \"#utility.yul\":16143:16190   */\n      mstore\n        /* \"#utility.yul\":16207:16338   */\n      tag_301\n        /* \"#utility.yul\":16333:16337   */\n      dup2\n        /* \"#utility.yul\":16207:16338   */\n      tag_118\n      jump\t// in\n    tag_301:\n        /* \"#utility.yul\":16199:16338   */\n      swap1\n      pop\n        /* \"#utility.yul\":15926:16345   */\n      swap2\n      swap1\n      pop\n      jump\t// out\n        /* \"#utility.yul\":16351:16520   */\n    tag_119:\n        /* \"#utility.yul\":16491:16512   */\n      0x43686169726d616e206973206e6f742073657400000000000000000000000000\n        /* \"#utility.yul\":16487:16488   */\n      0x00\n        /* \"#utility.yul\":16479:16485   */\n      dup3\n        /* \"#utility.yul\":16475:16489   */\n      add\n        /* \"#utility.yul\":16468:16513   */\n      mstore\n        /* \"#utility.yul\":16351:16520   */\n      pop\n      jump\t// out\n        /* \"#utility.yul\":16526:16892   */\n    tag_120:\n        /* \"#utility.yul\":16668:16671   */\n      0x00\n        /* \"#utility.yul\":16689:16756   */\n      tag_304\n        /* \"#utility.yul\":16753:16755   */\n      0x13\n        /* \"#utility.yul\":16748:16751   */\n      dup4\n        /* \"#utility.yul\":16689:16756   */\n      tag_116\n      jump\t// in\n    tag_304:\n        /* \"#utility.yul\":16682:16756   */\n      swap2\n      pop\n        /* \"#utility.yul\":16765:16858   */\n      tag_305\n        /* \"#utility.yul\":16854:16857   */\n      dup3\n        /* \"#utility.yul\":16765:16858   */\n      tag_119\n      jump\t// in\n    tag_305:\n        /* \"#utility.yul\":16883:16885   */\n      0x20\n        /* \"#utility.yul\":16878:16881   */\n      dup3\n        /* \"#utility.yul\":16874:16886   */\n      add\n        /* \"#utility.yul\":16867:16886   */\n      swap1\n      pop\n        /* \"#utility.yul\":16526:16892   */\n      swap2\n      swap1\n      pop\n      jump\t// out\n        /* \"#utility.yul\":16898:17317   */\n    tag_53:\n        /* \"#utility.yul\":17064:17068   */\n      0x00\n        /* \"#utility.yul\":17102:17104   */\n      0x20\n        /* \"#utility.yul\":17091:17100   */\n      dup3\n        /* \"#utility.yul\":17087:17105   */\n      add\n        /* \"#utility.yul\":17079:17105   */\n      swap1\n      pop\n        /* \"#utility.yul\":17151:17160   */\n      dup2\n        /* \"#utility.yul\":17145:17149   */\n      dup2\n        /* \"#utility.yul\":17141:17161   */\n      sub\n        /* \"#utility.yul\":17137:17138   */\n      0x00\n        /* \"#utility.yul\":17126:17135   */\n      dup4\n        /* \"#utility.yul\":17122:17139   */\n      add\n        /* \"#utility.yul\":17115:17162   */\n      mstore\n        /* \"#utility.yul\":17179:17310   */\n      tag_307\n        /* \"#utility.yul\":17305:17309   */\n      dup2\n        /* \"#utility.yul\":17179:17310   */\n      tag_120\n      jump\t// in\n    tag_307:\n        /* \"#utility.yul\":17171:17310   */\n      swap1\n      pop\n        /* \"#utility.yul\":16898:17317   */\n      swap2\n      swap1\n      pop\n      jump\t// out\n        /* \"#utility.yul\":17323:17500   */\n    tag_121:\n        /* \"#utility.yul\":17463:17492   */\n      0x546869732072657175657374206973206e6f7420616c6c6f7765640000000000\n        /* \"#utility.yul\":17459:17460   */\n      0x00\n        /* \"#utility.yul\":17451:17457   */\n      dup3\n        /* \"#utility.yul\":17447:17461   */\n      add\n        /* \"#utility.yul\":17440:17493   */\n      mstore\n        /* \"#utility.yul\":17323:17500   */\n      pop\n      jump\t// out\n        /* \"#utility.yul\":17506:17872   */\n    tag_122:\n        /* \"#utility.yul\":17648:17651   */\n      0x00\n        /* \"#utility.yul\":17669:17736   */\n      tag_310\n        /* \"#utility.yul\":17733:17735   */\n      0x1b\n        /* \"#utility.yul\":17728:17731   */\n      dup4\n        /* \"#utility.yul\":17669:17736   */\n      tag_116\n      jump\t// in\n    tag_310:\n        /* \"#utility.yul\":17662:17736   */\n      swap2\n      pop\n        /* \"#utility.yul\":17745:17838   */\n      tag_311\n        /* \"#utility.yul\":17834:17837   */\n      dup3\n        /* \"#utility.yul\":17745:17838   */\n      tag_121\n      jump\t// in\n    tag_311:\n        /* \"#utility.yul\":17863:17865   */\n      0x20\n        /* \"#utility.yul\":17858:17861   */\n      dup3\n        /* \"#utility.yul\":17854:17866   */\n      add\n        /* \"#utility.yul\":17847:17866   */\n      swap1\n      pop\n        /* \"#utility.yul\":17506:17872   */\n      swap2\n      swap1\n      pop\n      jump\t// out\n        /* \"#utility.yul\":17878:18297   */\n    tag_57:\n        /* \"#utility.yul\":18044:18048   */\n      0x00\n        /* \"#utility.yul\":18082:18084   */\n      0x20\n        /* \"#utility.yul\":18071:18080   */\n      dup3\n        /* \"#utility.yul\":18067:18085   */\n      add\n        /* \"#utility.yul\":18059:18085   */\n      swap1\n      pop\n        /* \"#utility.yul\":18131:18140   */\n      dup2\n        /* \"#utility.yul\":18125:18129   */\n      dup2\n        /* \"#utility.yul\":18121:18141   */\n      sub\n        /* \"#utility.yul\":18117:18118   */\n      0x00\n        /* \"#utility.yul\":18106:18115   */\n      dup4\n        /* \"#utility.yul\":18102:18119   */\n      add\n        /* \"#utility.yul\":18095:18142   */\n      mstore\n        /* \"#utility.yul\":18159:18290   */\n      tag_313\n        /* \"#utility.yul\":18285:18289   */\n      dup2\n        /* \"#utility.yul\":18159:18290   */\n      tag_122\n      jump\t// in\n    tag_313:\n        /* \"#utility.yul\":18151:18290   */\n      swap1\n      pop\n        /* \"#utility.yul\":17878:18297   */\n      swap2\n      swap1\n      pop\n      jump\t// out\n        /* \"#utility.yul\":18303:18472   */\n    tag_123:\n        /* \"#utility.yul\":18443:18464   */\n      0x4d6f7265207468616e20746865206c696d697400000000000000000000000000\n        /* \"#utility.yul\":18439:18440   */\n      0x00\n        /* \"#utility.yul\":18431:18437   */\n      dup3\n        /* \"#utility.yul\":18427:18441   */\n      add\n        /* \"#utility.yul\":18420:18465   */\n      mstore\n        /* \"#utility.yul\":18303:18472   */\n      pop\n      jump\t// out\n        /* \"#utility.yul\":18478:18844   */\n    tag_124:\n        /* \"#utility.yul\":18620:18623   */\n      0x00\n        /* \"#utility.yul\":18641:18708   */\n      tag_316\n        /* \"#utility.yul\":18705:18707   */\n      0x13\n        /* \"#utility.yul\":18700:18703   */\n      dup4\n        /* \"#utility.yul\":18641:18708   */\n      tag_116\n      jump\t// in\n    tag_316:\n        /* \"#utility.yul\":18634:18708   */\n      swap2\n      pop\n        /* \"#utility.yul\":18717:18810   */\n      tag_317\n        /* \"#utility.yul\":18806:18809   */\n      dup3\n        /* \"#utility.yul\":18717:18810   */\n      tag_123\n      jump\t// in\n    tag_317:\n        /* \"#utility.yul\":18835:18837   */\n      0x20\n        /* \"#utility.yul\":18830:18833   */\n      dup3\n        /* \"#utility.yul\":18826:18838   */\n      add\n        /* \"#utility.yul\":18819:18838   */\n      swap1\n      pop\n        /* \"#utility.yul\":18478:18844   */\n      swap2\n      swap1\n      pop\n      jump\t// out\n        /* \"#utility.yul\":18850:19269   */\n    tag_61:\n        /* \"#utility.yul\":19016:19020   */\n      0x00\n        /* \"#utility.yul\":19054:19056   */\n      0x20\n        /* \"#utility.yul\":19043:19052   */\n      dup3\n        /* \"#utility.yul\":19039:19057   */\n      add\n        /* \"#utility.yul\":19031:19057   */\n      swap1\n      pop\n        /* \"#utility.yul\":19103:19112   */\n      dup2\n        /* \"#utility.yul\":19097:19101   */\n      dup2\n        /* \"#utility.yul\":19093:19113   */\n      sub\n        /* \"#utility.yul\":19089:19090   */\n      0x00\n        /* \"#utility.yul\":19078:19087   */\n      dup4\n        /* \"#utility.yul\":19074:19091   */\n      add\n        /* \"#utility.yul\":19067:19114   */\n      mstore\n        /* \"#utility.yul\":19131:19262   */\n      tag_319\n        /* \"#utility.yul\":19257:19261   */\n      dup2\n        /* \"#utility.yul\":19131:19262   */\n      tag_124\n      jump\t// in\n    tag_319:\n        /* \"#utility.yul\":19123:19262   */\n      swap1\n      pop\n        /* \"#utility.yul\":18850:19269   */\n      swap2\n      swap1\n      pop\n      jump\t// out\n        /* \"#utility.yul\":19275:19469   */\n    tag_63:\n        /* \"#utility.yul\":19315:19319   */\n      0x00\n        /* \"#utility.yul\":19335:19355   */\n      tag_321\n        /* \"#utility.yul\":19353:19354   */\n      dup3\n        /* \"#utility.yul\":19335:19355   */\n      tag_76\n      jump\t// in\n    tag_321:\n        /* \"#utility.yul\":19330:19355   */\n      swap2\n      pop\n        /* \"#utility.yul\":19369:19389   */\n      tag_322\n        /* \"#utility.yul\":19387:19388   */\n      dup4\n        /* \"#utility.yul\":19369:19389   */\n      tag_76\n      jump\t// in\n    tag_322:\n        /* \"#utility.yul\":19364:19389   */\n      swap3\n      pop\n        /* \"#utility.yul\":19413:19414   */\n      dup3\n        /* \"#utility.yul\":19410:19411   */\n      dup3\n        /* \"#utility.yul\":19406:19415   */\n      sub\n        /* \"#utility.yul\":19398:19415   */\n      swap1\n      pop\n        /* \"#utility.yul\":19437:19438   */\n      dup2\n        /* \"#utility.yul\":19431:19435   */\n      dup2\n        /* \"#utility.yul\":19428:19439   */\n      gt\n        /* \"#utility.yul\":19425:19462   */\n      iszero\n      tag_323\n      jumpi\n        /* \"#utility.yul\":19442:19460   */\n      tag_324\n      tag_114\n      jump\t// in\n    tag_324:\n        /* \"#utility.yul\":19425:19462   */\n    tag_323:\n        /* \"#utility.yul\":19275:19469   */\n      swap3\n      swap2\n      pop\n      pop\n      jump\t// out\n        /* \"#utility.yul\":19475:19666   */\n    tag_65:\n        /* \"#utility.yul\":19515:19518   */\n      0x00\n        /* \"#utility.yul\":19534:19554   */\n      tag_326\n        /* \"#utility.yul\":19552:19553   */\n      dup3\n        /* \"#utility.yul\":19534:19554   */\n      tag_76\n      jump\t// in\n    tag_326:\n        /* \"#utility.yul\":19529:19554   */\n      swap2\n      pop\n        /* \"#utility.yul\":19568:19588   */\n      tag_327\n        /* \"#utility.yul\":19586:19587   */\n      dup4\n        /* \"#utility.yul\":19568:19588   */\n      tag_76\n      jump\t// in\n    tag_327:\n        /* \"#utility.yul\":19563:19588   */\n      swap3\n      pop\n        /* \"#utility.yul\":19611:19612   */\n      dup3\n        /* \"#utility.yul\":19608:19609   */\n      dup3\n        /* \"#utility.yul\":19604:19613   */\n      add\n        /* \"#utility.yul\":19597:19613   */\n      swap1\n      pop\n        /* \"#utility.yul\":19632:19635   */\n      dup1\n        /* \"#utility.yul\":19629:19630   */\n      dup3\n        /* \"#utility.yul\":19626:19636   */\n      gt\n        /* \"#utility.yul\":19623:19659   */\n      iszero\n      tag_328\n      jumpi\n        /* \"#utility.yul\":19639:19657   */\n      tag_329\n      tag_114\n      jump\t// in\n    tag_329:\n        /* \"#utility.yul\":19623:19659   */\n    tag_328:\n        /* \"#utility.yul\":19475:19666   */\n      swap3\n      swap2\n      pop\n      pop\n      jump\t// out\n        /* \"#utility.yul\":19672:20004   */\n    tag_67:\n        /* \"#utility.yul\":19793:19797   */\n      0x00\n        /* \"#utility.yul\":19831:19833   */\n      0x40\n        /* \"#utility.yul\":19820:19829   */\n      dup3\n        /* \"#utility.yul\":19816:19834   */\n      add\n        /* \"#utility.yul\":19808:19834   */\n      swap1\n      pop\n        /* \"#utility.yul\":19844:19915   */\n      tag_331\n        /* \"#utility.yul\":19912:19913   */\n      0x00\n        /* \"#utility.yul\":19901:19910   */\n      dup4\n        /* \"#utility.yul\":19897:19914   */\n      add\n        /* \"#utility.yul\":19888:19894   */\n      dup6\n        /* \"#utility.yul\":19844:19915   */\n      tag_79\n      jump\t// in\n    tag_331:\n        /* \"#utility.yul\":19925:19997   */\n      tag_332\n        /* \"#utility.yul\":19993:19995   */\n      0x20\n        /* \"#utility.yul\":19982:19991   */\n      dup4\n        /* \"#utility.yul\":19978:19996   */\n      add\n        /* \"#utility.yul\":19969:19975   */\n      dup5\n        /* \"#utility.yul\":19925:19997   */\n      tag_79\n      jump\t// in\n    tag_332:\n        /* \"#utility.yul\":19672:20004   */\n      swap4\n      swap3\n      pop\n      pop\n      pop\n      jump\t// out\n\n    auxdata: 0xa2646970667358221220d2624a22224ea641f5663f5fcc5729e73156dbd3227f3623822953265023c93d64736f6c63430008130033\n}\n",
				"bytecode": {
					"linkReferences": {},
					"object": "608060405234801561001057600080fd5b50611346806100206000396000f3fe608060405234801561001057600080fd5b50600436106100575760003560e01c80631358b0ff1461005c5780635767c2721461008e578063716267b8146100aa5780637b2f44a5146100da578063f20c0b291461010a575b600080fd5b61007660048036038101906100719190610857565b61013a565b60405161008593929190610893565b60405180910390f35b6100a860048036038101906100a39190610a6e565b610199565b005b6100c460048036038101906100bf9190610b7e565b610342565b6040516100d19190610bd1565b60405180910390f35b6100f460048036038101906100ef9190610bec565b610375565b6040516101019190610c6e565b60405180910390f35b610124600480360381019061011f9190610c89565b6106ab565b6040516101319190610c6e565b60405180910390f35b600080600080620186a090506000605a90507fc108a69e47aaa1be5e22de5a30018d45725f3e7647131b0e358c45b73562ead082828860405161017f93929190610893565b60405180910390a181818794509450945050509193909250565b60046040518061016001604052808d81526020018c81526020018b81526020018a81526020018981526020018881526020018781526020018681526020018573ffffffffffffffffffffffffffffffffffffffff1681526020018473ffffffffffffffffffffffffffffffffffffffff1681526020018381525090806001815401808255809150506001900390600052602060002090600b0201600090919091909150600082015181600001556020820151816001015560408201518160020155606082015181600301556080820151816004015560a0820151816005015560c0820151816006015560e082015181600701556101008201518160080160006101000a81548173ffffffffffffffffffffffffffffffffffffffff021916908373ffffffffffffffffffffffffffffffffffffffff1602179055506101208201518160090160006101000a81548173ffffffffffffffffffffffffffffffffffffffff021916908373ffffffffffffffffffffffffffffffffffffffff16021790555061014082015181600a0190816103329190610f1b565b5050505050505050505050505050565b6000808360648487610354919061101c565b61035e919061108d565b610368919061108d565b9050809150509392505050565b60008073ffffffffffffffffffffffffffffffffffffffff168473ffffffffffffffffffffffffffffffffffffffff16036103e5576040517f08c379a00000000000000000000000000000000000000000000000000000000081526004016103dc9061111b565b60405180910390fd5b600073ffffffffffffffffffffffffffffffffffffffff168573ffffffffffffffffffffffffffffffffffffffff1603610454576040517f08c379a000000000000000000000000000000000000000000000000000000000815260040161044b90611187565b60405180910390fd5b3373ffffffffffffffffffffffffffffffffffffffff168573ffffffffffffffffffffffffffffffffffffffff1614806104d657506000803373ffffffffffffffffffffffffffffffffffffffff1673ffffffffffffffffffffffffffffffffffffffff16815260200190815260200160002060009054906101000a900460ff165b610515576040517f08c379a000000000000000000000000000000000000000000000000000000000815260040161050c906111f3565b60405180910390fd5b6000831180156105645750600160003373ffffffffffffffffffffffffffffffffffffffff1673ffffffffffffffffffffffffffffffffffffffff168152602001908152602001600020548311155b6105a3576040517f08c379a000000000000000000000000000000000000000000000000000000000815260040161059a9061125f565b60405180910390fd5b82600160003373ffffffffffffffffffffffffffffffffffffffff1673ffffffffffffffffffffffffffffffffffffffff16815260200190815260200160002060008282546105f2919061127f565b9250508190555082600160008673ffffffffffffffffffffffffffffffffffffffff1673ffffffffffffffffffffffffffffffffffffffff168152602001908152602001600020600082825461064891906112b3565b925050819055508373ffffffffffffffffffffffffffffffffffffffff167f7e30501c30b6d85398587b158f6b403b8e1776617da4ae472988862eb0b887bc84846040516106979291906112e7565b60405180910390a260019050949350505050565b60008060003373ffffffffffffffffffffffffffffffffffffffff1673ffffffffffffffffffffffffffffffffffffffff16815260200190815260200160002060009054906101000a900460ff168061072f57503373ffffffffffffffffffffffffffffffffffffffff168573ffffffffffffffffffffffffffffffffffffffff16145b61076e576040517f08c379a0000000000000000000000000000000000000000000000000000000008152600401610765906111f3565b60405180910390fd5b600160008773ffffffffffffffffffffffffffffffffffffffff1673ffffffffffffffffffffffffffffffffffffffff1681526020019081526020016000205492508573ffffffffffffffffffffffffffffffffffffffff167fda1198d8a30833e28c40dc509b8c362eb727127fe167a9fdb0ec1507c624defe85846040516107f89291906112e7565b60405180910390a26001905095945050505050565b6000604051905090565b600080fd5b600080fd5b6000819050919050565b61083481610821565b811461083f57600080fd5b50565b6000813590506108518161082b565b92915050565b60006020828403121561086d5761086c610817565b5b600061087b84828501610842565b91505092915050565b61088d81610821565b82525050565b60006060820190506108a86000830186610884565b6108b56020830185610884565b6108c26040830184610884565b949350505050565b600073ffffffffffffffffffffffffffffffffffffffff82169050919050565b60006108f5826108ca565b9050919050565b610905816108ea565b811461091057600080fd5b50565b600081359050610922816108fc565b92915050565b600080fd5b600080fd5b6000601f19601f8301169050919050565b7f4e487b7100000000000000000000000000000000000000000000000000000000600052604160045260246000fd5b61097b82610932565b810181811067ffffffffffffffff8211171561099a57610999610943565b5b80604052505050565b60006109ad61080d565b90506109b98282610972565b919050565b600067ffffffffffffffff8211156109d9576109d8610943565b5b6109e282610932565b9050602081019050919050565b82818337600083830152505050565b6000610a11610a0c846109be565b6109a3565b905082815260208101848484011115610a2d57610a2c61092d565b5b610a388482856109ef565b509392505050565b600082601f830112610a5557610a54610928565b5b8135610a658482602086016109fe565b91505092915050565b60008060008060008060008060008060006101608c8e031215610a9457610a93610817565b5b6000610aa28e828f01610842565b9b50506020610ab38e828f01610842565b9a50506040610ac48e828f01610842565b9950506060610ad58e828f01610842565b9850506080610ae68e828f01610842565b97505060a0610af78e828f01610842565b96505060c0610b088e828f01610842565b95505060e0610b198e828f01610842565b945050610100610b2b8e828f01610913565b935050610120610b3d8e828f01610913565b9250506101408c013567ffffffffffffffff811115610b5f57610b5e61081c565b5b610b6b8e828f01610a40565b9150509295989b509295989b9093969950565b600080600060608486031215610b9757610b96610817565b5b6000610ba586828701610842565b9350506020610bb686828701610842565b9250506040610bc786828701610842565b9150509250925092565b6000602082019050610be66000830184610884565b92915050565b60008060008060808587031215610c0657610c05610817565b5b6000610c1487828801610913565b9450506020610c2587828801610913565b9350506040610c3687828801610842565b9250506060610c4787828801610842565b91505092959194509250565b60008115159050919050565b610c6881610c53565b82525050565b6000602082019050610c836000830184610c5f565b92915050565b600080600080600060a08688031215610ca557610ca4610817565b5b6000610cb388828901610913565b9550506020610cc488828901610913565b9450506040610cd588828901610842565b9350506060610ce688828901610842565b9250506080610cf788828901610842565b9150509295509295909350565b600081519050919050565b7f4e487b7100000000000000000000000000000000000000000000000000000000600052602260045260246000fd5b60006002820490506001821680610d5657607f821691505b602082108103610d6957610d68610d0f565b5b50919050565b60008190508160005260206000209050919050565b60006020601f8301049050919050565b600082821b905092915050565b600060088302610dd17fffffffffffffffffffffffffffffffffffffffffffffffffffffffffffffffff82610d94565b610ddb8683610d94565b95508019841693508086168417925050509392505050565b6000819050919050565b6000610e18610e13610e0e84610821565b610df3565b610821565b9050919050565b6000819050919050565b610e3283610dfd565b610e46610e3e82610e1f565b848454610da1565b825550505050565b600090565b610e5b610e4e565b610e66818484610e29565b505050565b5b81811015610e8a57610e7f600082610e53565b600181019050610e6c565b5050565b601f821115610ecf57610ea081610d6f565b610ea984610d84565b81016020851015610eb8578190505b610ecc610ec485610d84565b830182610e6b565b50505b505050565b600082821c905092915050565b6000610ef260001984600802610ed4565b1980831691505092915050565b6000610f0b8383610ee1565b9150826002028217905092915050565b610f2482610d04565b67ffffffffffffffff811115610f3d57610f3c610943565b5b610f478254610d3e565b610f52828285610e8e565b600060209050601f831160018114610f855760008415610f73578287015190505b610f7d8582610eff565b865550610fe5565b601f198416610f9386610d6f565b60005b82811015610fbb57848901518255600182019150602085019450602081019050610f96565b86831015610fd85784890151610fd4601f891682610ee1565b8355505b6001600288020188555050505b505050505050565b7f4e487b7100000000000000000000000000000000000000000000000000000000600052601160045260246000fd5b600061102782610821565b915061103283610821565b925082820261104081610821565b9150828204841483151761105757611056610fed565b5b5092915050565b7f4e487b7100000000000000000000000000000000000000000000000000000000600052601260045260246000fd5b600061109882610821565b91506110a383610821565b9250826110b3576110b261105e565b5b828204905092915050565b600082825260208201905092915050565b7f54686520616464726573732069732077726f6e67000000000000000000000000600082015250565b60006111056014836110be565b9150611110826110cf565b602082019050919050565b60006020820190508181036000830152611134816110f8565b9050919050565b7f43686169726d616e206973206e6f742073657400000000000000000000000000600082015250565b60006111716013836110be565b915061117c8261113b565b602082019050919050565b600060208201905081810360008301526111a081611164565b9050919050565b7f546869732072657175657374206973206e6f7420616c6c6f7765640000000000600082015250565b60006111dd601b836110be565b91506111e8826111a7565b602082019050919050565b6000602082019050818103600083015261120c816111d0565b9050919050565b7f4d6f7265207468616e20746865206c696d697400000000000000000000000000600082015250565b60006112496013836110be565b915061125482611213565b602082019050919050565b600060208201905081810360008301526112788161123c565b9050919050565b600061128a82610821565b915061129583610821565b92508282039050818111156112ad576112ac610fed565b5b92915050565b60006112be82610821565b91506112c983610821565b92508282019050808211156112e1576112e0610fed565b5b92915050565b60006040820190506112fc6000830185610884565b6113096020830184610884565b939250505056fea2646970667358221220d2624a22224ea641f5663f5fcc5729e73156dbd3227f3623822953265023c93d64736f6c63430008130033",
					"opcodes": "PUSH1 0x80 PUSH1 0x40 MSTORE CALLVALUE DUP1 ISZERO PUSH2 0x10 JUMPI PUSH1 0x0 DUP1 REVERT JUMPDEST POP PUSH2 0x1346 DUP1 PUSH2 0x20 PUSH1 0x0 CODECOPY PUSH1 0x0 RETURN INVALID PUSH1 0x80 PUSH1 0x40 MSTORE CALLVALUE DUP1 ISZERO PUSH2 0x10 JUMPI PUSH1 0x0 DUP1 REVERT JUMPDEST POP PUSH1 0x4 CALLDATASIZE LT PUSH2 0x57 JUMPI PUSH1 0x0 CALLDATALOAD PUSH1 0xE0 SHR DUP1 PUSH4 0x1358B0FF EQ PUSH2 0x5C JUMPI DUP1 PUSH4 0x5767C272 EQ PUSH2 0x8E JUMPI DUP1 PUSH4 0x716267B8 EQ PUSH2 0xAA JUMPI DUP1 PUSH4 0x7B2F44A5 EQ PUSH2 0xDA JUMPI DUP1 PUSH4 0xF20C0B29 EQ PUSH2 0x10A JUMPI JUMPDEST PUSH1 0x0 DUP1 REVERT JUMPDEST PUSH2 0x76 PUSH1 0x4 DUP1 CALLDATASIZE SUB DUP2 ADD SWAP1 PUSH2 0x71 SWAP2 SWAP1 PUSH2 0x857 JUMP JUMPDEST PUSH2 0x13A JUMP JUMPDEST PUSH1 0x40 MLOAD PUSH2 0x85 SWAP4 SWAP3 SWAP2 SWAP1 PUSH2 0x893 JUMP JUMPDEST PUSH1 0x40 MLOAD DUP1 SWAP2 SUB SWAP1 RETURN JUMPDEST PUSH2 0xA8 PUSH1 0x4 DUP1 CALLDATASIZE SUB DUP2 ADD SWAP1 PUSH2 0xA3 SWAP2 SWAP1 PUSH2 0xA6E JUMP JUMPDEST PUSH2 0x199 JUMP JUMPDEST STOP JUMPDEST PUSH2 0xC4 PUSH1 0x4 DUP1 CALLDATASIZE SUB DUP2 ADD SWAP1 PUSH2 0xBF SWAP2 SWAP1 PUSH2 0xB7E JUMP JUMPDEST PUSH2 0x342 JUMP JUMPDEST PUSH1 0x40 MLOAD PUSH2 0xD1 SWAP2 SWAP1 PUSH2 0xBD1 JUMP JUMPDEST PUSH1 0x40 MLOAD DUP1 SWAP2 SUB SWAP1 RETURN JUMPDEST PUSH2 0xF4 PUSH1 0x4 DUP1 CALLDATASIZE SUB DUP2 ADD SWAP1 PUSH2 0xEF SWAP2 SWAP1 PUSH2 0xBEC JUMP JUMPDEST PUSH2 0x375 JUMP JUMPDEST PUSH1 0x40 MLOAD PUSH2 0x101 SWAP2 SWAP1 PUSH2 0xC6E JUMP JUMPDEST PUSH1 0x40 MLOAD DUP1 SWAP2 SUB SWAP1 RETURN JUMPDEST PUSH2 0x124 PUSH1 0x4 DUP1 CALLDATASIZE SUB DUP2 ADD SWAP1 PUSH2 0x11F SWAP2 SWAP1 PUSH2 0xC89 JUMP JUMPDEST PUSH2 0x6AB JUMP JUMPDEST PUSH1 0x40 MLOAD PUSH2 0x131 SWAP2 SWAP1 PUSH2 0xC6E JUMP JUMPDEST PUSH1 0x40 MLOAD DUP1 SWAP2 SUB SWAP1 RETURN JUMPDEST PUSH1 0x0 DUP1 PUSH1 0x0 DUP1 PUSH3 0x186A0 SWAP1 POP PUSH1 0x0 PUSH1 0x5A SWAP1 POP PUSH32 0xC108A69E47AAA1BE5E22DE5A30018D45725F3E7647131B0E358C45B73562EAD0 DUP3 DUP3 DUP9 PUSH1 0x40 MLOAD PUSH2 0x17F SWAP4 SWAP3 SWAP2 SWAP1 PUSH2 0x893 JUMP JUMPDEST PUSH1 0x40 MLOAD DUP1 SWAP2 SUB SWAP1 LOG1 DUP2 DUP2 DUP8 SWAP5 POP SWAP5 POP SWAP5 POP POP POP SWAP2 SWAP4 SWAP1 SWAP3 POP JUMP JUMPDEST PUSH1 0x4 PUSH1 0x40 MLOAD DUP1 PUSH2 0x160 ADD PUSH1 0x40 MSTORE DUP1 DUP14 DUP2 MSTORE PUSH1 0x20 ADD DUP13 DUP2 MSTORE PUSH1 0x20 ADD DUP12 DUP2 MSTORE PUSH1 0x20 ADD DUP11 DUP2 MSTORE PUSH1 0x20 ADD DUP10 DUP2 MSTORE PUSH1 0x20 ADD DUP9 DUP2 MSTORE PUSH1 0x20 ADD DUP8 DUP2 MSTORE PUSH1 0x20 ADD DUP7 DUP2 MSTORE PUSH1 0x20 ADD DUP6 PUSH20 0xFFFFFFFFFFFFFFFFFFFFFFFFFFFFFFFFFFFFFFFF AND DUP2 MSTORE PUSH1 0x20 ADD DUP5 PUSH20 0xFFFFFFFFFFFFFFFFFFFFFFFFFFFFFFFFFFFFFFFF AND DUP2 MSTORE PUSH1 0x20 ADD DUP4 DUP2 MSTORE POP SWAP1 DUP1 PUSH1 0x1 DUP2 SLOAD ADD DUP1 DUP3 SSTORE DUP1 SWAP2 POP POP PUSH1 0x1 SWAP1 SUB SWAP1 PUSH1 0x0 MSTORE PUSH1 0x20 PUSH1 0x0 KECCAK256 SWAP1 PUSH1 0xB MUL ADD PUSH1 0x0 SWAP1 SWAP2 SWAP1 SWAP2 SWAP1 SWAP2 POP PUSH1 0x0 DUP3 ADD MLOAD DUP2 PUSH1 0x0 ADD SSTORE PUSH1 0x20 DUP3 ADD MLOAD DUP2 PUSH1 0x1 ADD SSTORE PUSH1 0x40 DUP3 ADD MLOAD DUP2 PUSH1 0x2 ADD SSTORE PUSH1 0x60 DUP3 ADD MLOAD DUP2 PUSH1 0x3 ADD SSTORE PUSH1 0x80 DUP3 ADD MLOAD DUP2 PUSH1 0x4 ADD SSTORE PUSH1 0xA0 DUP3 ADD MLOAD DUP2 PUSH1 0x5 ADD SSTORE PUSH1 0xC0 DUP3 ADD MLOAD DUP2 PUSH1 0x6 ADD SSTORE PUSH1 0xE0 DUP3 ADD MLOAD DUP2 PUSH1 0x7 ADD SSTORE PUSH2 0x100 DUP3 ADD MLOAD DUP2 PUSH1 0x8 ADD PUSH1 0x0 PUSH2 0x100 EXP DUP2 SLOAD DUP2 PUSH20 0xFFFFFFFFFFFFFFFFFFFFFFFFFFFFFFFFFFFFFFFF MUL NOT AND SWAP1 DUP4 PUSH20 0xFFFFFFFFFFFFFFFFFFFFFFFFFFFFFFFFFFFFFFFF AND MUL OR SWAP1 SSTORE POP PUSH2 0x120 DUP3 ADD MLOAD DUP2 PUSH1 0x9 ADD PUSH1 0x0 PUSH2 0x100 EXP DUP2 SLOAD DUP2 PUSH20 0xFFFFFFFFFFFFFFFFFFFFFFFFFFFFFFFFFFFFFFFF MUL NOT AND SWAP1 DUP4 PUSH20 0xFFFFFFFFFFFFFFFFFFFFFFFFFFFFFFFFFFFFFFFF AND MUL OR SWAP1 SSTORE POP PUSH2 0x140 DUP3 ADD MLOAD DUP2 PUSH1 0xA ADD SWAP1 DUP2 PUSH2 0x332 SWAP2 SWAP1 PUSH2 0xF1B JUMP JUMPDEST POP POP POP POP POP POP POP POP POP POP POP POP POP POP JUMP JUMPDEST PUSH1 0x0 DUP1 DUP4 PUSH1 0x64 DUP5 DUP8 PUSH2 0x354 SWAP2 SWAP1 PUSH2 0x101C JUMP JUMPDEST PUSH2 0x35E SWAP2 SWAP1 PUSH2 0x108D JUMP JUMPDEST PUSH2 0x368 SWAP2 SWAP1 PUSH2 0x108D JUMP JUMPDEST SWAP1 POP DUP1 SWAP2 POP POP SWAP4 SWAP3 POP POP POP JUMP JUMPDEST PUSH1 0x0 DUP1 PUSH20 0xFFFFFFFFFFFFFFFFFFFFFFFFFFFFFFFFFFFFFFFF AND DUP5 PUSH20 0xFFFFFFFFFFFFFFFFFFFFFFFFFFFFFFFFFFFFFFFF AND SUB PUSH2 0x3E5 JUMPI PUSH1 0x40 MLOAD PUSH32 0x8C379A000000000000000000000000000000000000000000000000000000000 DUP2 MSTORE PUSH1 0x4 ADD PUSH2 0x3DC SWAP1 PUSH2 0x111B JUMP JUMPDEST PUSH1 0x40 MLOAD DUP1 SWAP2 SUB SWAP1 REVERT JUMPDEST PUSH1 0x0 PUSH20 0xFFFFFFFFFFFFFFFFFFFFFFFFFFFFFFFFFFFFFFFF AND DUP6 PUSH20 0xFFFFFFFFFFFFFFFFFFFFFFFFFFFFFFFFFFFFFFFF AND SUB PUSH2 0x454 JUMPI PUSH1 0x40 MLOAD PUSH32 0x8C379A000000000000000000000000000000000000000000000000000000000 DUP2 MSTORE PUSH1 0x4 ADD PUSH2 0x44B SWAP1 PUSH2 0x1187 JUMP JUMPDEST PUSH1 0x40 MLOAD DUP1 SWAP2 SUB SWAP1 REVERT JUMPDEST CALLER PUSH20 0xFFFFFFFFFFFFFFFFFFFFFFFFFFFFFFFFFFFFFFFF AND DUP6 PUSH20 0xFFFFFFFFFFFFFFFFFFFFFFFFFFFFFFFFFFFFFFFF AND EQ DUP1 PUSH2 0x4D6 JUMPI POP PUSH1 0x0 DUP1 CALLER PUSH20 0xFFFFFFFFFFFFFFFFFFFFFFFFFFFFFFFFFFFFFFFF AND PUSH20 0xFFFFFFFFFFFFFFFFFFFFFFFFFFFFFFFFFFFFFFFF AND DUP2 MSTORE PUSH1 0x20 ADD SWAP1 DUP2 MSTORE PUSH1 0x20 ADD PUSH1 0x0 KECCAK256 PUSH1 0x0 SWAP1 SLOAD SWAP1 PUSH2 0x100 EXP SWAP1 DIV PUSH1 0xFF AND JUMPDEST PUSH2 0x515 JUMPI PUSH1 0x40 MLOAD PUSH32 0x8C379A000000000000000000000000000000000000000000000000000000000 DUP2 MSTORE PUSH1 0x4 ADD PUSH2 0x50C SWAP1 PUSH2 0x11F3 JUMP JUMPDEST PUSH1 0x40 MLOAD DUP1 SWAP2 SUB SWAP1 REVERT JUMPDEST PUSH1 0x0 DUP4 GT DUP1 ISZERO PUSH2 0x564 JUMPI POP PUSH1 0x1 PUSH1 0x0 CALLER PUSH20 0xFFFFFFFFFFFFFFFFFFFFFFFFFFFFFFFFFFFFFFFF AND PUSH20 0xFFFFFFFFFFFFFFFFFFFFFFFFFFFFFFFFFFFFFFFF AND DUP2 MSTORE PUSH1 0x20 ADD SWAP1 DUP2 MSTORE PUSH1 0x20 ADD PUSH1 0x0 KECCAK256 SLOAD DUP4 GT ISZERO JUMPDEST PUSH2 0x5A3 JUMPI PUSH1 0x40 MLOAD PUSH32 0x8C379A000000000000000000000000000000000000000000000000000000000 DUP2 MSTORE PUSH1 0x4 ADD PUSH2 0x59A SWAP1 PUSH2 0x125F JUMP JUMPDEST PUSH1 0x40 MLOAD DUP1 SWAP2 SUB SWAP1 REVERT JUMPDEST DUP3 PUSH1 0x1 PUSH1 0x0 CALLER PUSH20 0xFFFFFFFFFFFFFFFFFFFFFFFFFFFFFFFFFFFFFFFF AND PUSH20 0xFFFFFFFFFFFFFFFFFFFFFFFFFFFFFFFFFFFFFFFF AND DUP2 MSTORE PUSH1 0x20 ADD SWAP1 DUP2 MSTORE PUSH1 0x20 ADD PUSH1 0x0 KECCAK256 PUSH1 0x0 DUP3 DUP3 SLOAD PUSH2 0x5F2 SWAP2 SWAP1 PUSH2 0x127F JUMP JUMPDEST SWAP3 POP POP DUP2 SWAP1 SSTORE POP DUP3 PUSH1 0x1 PUSH1 0x0 DUP7 PUSH20 0xFFFFFFFFFFFFFFFFFFFFFFFFFFFFFFFFFFFFFFFF AND PUSH20 0xFFFFFFFFFFFFFFFFFFFFFFFFFFFFFFFFFFFFFFFF AND DUP2 MSTORE PUSH1 0x20 ADD SWAP1 DUP2 MSTORE PUSH1 0x20 ADD PUSH1 0x0 KECCAK256 PUSH1 0x0 DUP3 DUP3 SLOAD PUSH2 0x648 SWAP2 SWAP1 PUSH2 0x12B3 JUMP JUMPDEST SWAP3 POP POP DUP2 SWAP1 SSTORE POP DUP4 PUSH20 0xFFFFFFFFFFFFFFFFFFFFFFFFFFFFFFFFFFFFFFFF AND PUSH32 0x7E30501C30B6D85398587B158F6B403B8E1776617DA4AE472988862EB0B887BC DUP5 DUP5 PUSH1 0x40 MLOAD PUSH2 0x697 SWAP3 SWAP2 SWAP1 PUSH2 0x12E7 JUMP JUMPDEST PUSH1 0x40 MLOAD DUP1 SWAP2 SUB SWAP1 LOG2 PUSH1 0x1 SWAP1 POP SWAP5 SWAP4 POP POP POP POP JUMP JUMPDEST PUSH1 0x0 DUP1 PUSH1 0x0 CALLER PUSH20 0xFFFFFFFFFFFFFFFFFFFFFFFFFFFFFFFFFFFFFFFF AND PUSH20 0xFFFFFFFFFFFFFFFFFFFFFFFFFFFFFFFFFFFFFFFF AND DUP2 MSTORE PUSH1 0x20 ADD SWAP1 DUP2 MSTORE PUSH1 0x20 ADD PUSH1 0x0 KECCAK256 PUSH1 0x0 SWAP1 SLOAD SWAP1 PUSH2 0x100 EXP SWAP1 DIV PUSH1 0xFF AND DUP1 PUSH2 0x72F JUMPI POP CALLER PUSH20 0xFFFFFFFFFFFFFFFFFFFFFFFFFFFFFFFFFFFFFFFF AND DUP6 PUSH20 0xFFFFFFFFFFFFFFFFFFFFFFFFFFFFFFFFFFFFFFFF AND EQ JUMPDEST PUSH2 0x76E JUMPI PUSH1 0x40 MLOAD PUSH32 0x8C379A000000000000000000000000000000000000000000000000000000000 DUP2 MSTORE PUSH1 0x4 ADD PUSH2 0x765 SWAP1 PUSH2 0x11F3 JUMP JUMPDEST PUSH1 0x40 MLOAD DUP1 SWAP2 SUB SWAP1 REVERT JUMPDEST PUSH1 0x1 PUSH1 0x0 DUP8 PUSH20 0xFFFFFFFFFFFFFFFFFFFFFFFFFFFFFFFFFFFFFFFF AND PUSH20 0xFFFFFFFFFFFFFFFFFFFFFFFFFFFFFFFFFFFFFFFF AND DUP2 MSTORE PUSH1 0x20 ADD SWAP1 DUP2 MSTORE PUSH1 0x20 ADD PUSH1 0x0 KECCAK256 SLOAD SWAP3 POP DUP6 PUSH20 0xFFFFFFFFFFFFFFFFFFFFFFFFFFFFFFFFFFFFFFFF AND PUSH32 0xDA1198D8A30833E28C40DC509B8C362EB727127FE167A9FDB0EC1507C624DEFE DUP6 DUP5 PUSH1 0x40 MLOAD PUSH2 0x7F8 SWAP3 SWAP2 SWAP1 PUSH2 0x12E7 JUMP JUMPDEST PUSH1 0x40 MLOAD DUP1 SWAP2 SUB SWAP1 LOG2 PUSH1 0x1 SWAP1 POP SWAP6 SWAP5 POP POP POP POP POP JUMP JUMPDEST PUSH1 0x0 PUSH1 0x40 MLOAD SWAP1 POP SWAP1 JUMP JUMPDEST PUSH1 0x0 DUP1 REVERT JUMPDEST PUSH1 0x0 DUP1 REVERT JUMPDEST PUSH1 0x0 DUP2 SWAP1 POP SWAP2 SWAP1 POP JUMP JUMPDEST PUSH2 0x834 DUP2 PUSH2 0x821 JUMP JUMPDEST DUP2 EQ PUSH2 0x83F JUMPI PUSH1 0x0 DUP1 REVERT JUMPDEST POP JUMP JUMPDEST PUSH1 0x0 DUP2 CALLDATALOAD SWAP1 POP PUSH2 0x851 DUP2 PUSH2 0x82B JUMP JUMPDEST SWAP3 SWAP2 POP POP JUMP JUMPDEST PUSH1 0x0 PUSH1 0x20 DUP3 DUP5 SUB SLT ISZERO PUSH2 0x86D JUMPI PUSH2 0x86C PUSH2 0x817 JUMP JUMPDEST JUMPDEST PUSH1 0x0 PUSH2 0x87B DUP5 DUP3 DUP6 ADD PUSH2 0x842 JUMP JUMPDEST SWAP2 POP POP SWAP3 SWAP2 POP POP JUMP JUMPDEST PUSH2 0x88D DUP2 PUSH2 0x821 JUMP JUMPDEST DUP3 MSTORE POP POP JUMP JUMPDEST PUSH1 0x0 PUSH1 0x60 DUP3 ADD SWAP1 POP PUSH2 0x8A8 PUSH1 0x0 DUP4 ADD DUP7 PUSH2 0x884 JUMP JUMPDEST PUSH2 0x8B5 PUSH1 0x20 DUP4 ADD DUP6 PUSH2 0x884 JUMP JUMPDEST PUSH2 0x8C2 PUSH1 0x40 DUP4 ADD DUP5 PUSH2 0x884 JUMP JUMPDEST SWAP5 SWAP4 POP POP POP POP JUMP JUMPDEST PUSH1 0x0 PUSH20 0xFFFFFFFFFFFFFFFFFFFFFFFFFFFFFFFFFFFFFFFF DUP3 AND SWAP1 POP SWAP2 SWAP1 POP JUMP JUMPDEST PUSH1 0x0 PUSH2 0x8F5 DUP3 PUSH2 0x8CA JUMP JUMPDEST SWAP1 POP SWAP2 SWAP1 POP JUMP JUMPDEST PUSH2 0x905 DUP2 PUSH2 0x8EA JUMP JUMPDEST DUP2 EQ PUSH2 0x910 JUMPI PUSH1 0x0 DUP1 REVERT JUMPDEST POP JUMP JUMPDEST PUSH1 0x0 DUP2 CALLDATALOAD SWAP1 POP PUSH2 0x922 DUP2 PUSH2 0x8FC JUMP JUMPDEST SWAP3 SWAP2 POP POP JUMP JUMPDEST PUSH1 0x0 DUP1 REVERT JUMPDEST PUSH1 0x0 DUP1 REVERT JUMPDEST PUSH1 0x0 PUSH1 0x1F NOT PUSH1 0x1F DUP4 ADD AND SWAP1 POP SWAP2 SWAP1 POP JUMP JUMPDEST PUSH32 0x4E487B7100000000000000000000000000000000000000000000000000000000 PUSH1 0x0 MSTORE PUSH1 0x41 PUSH1 0x4 MSTORE PUSH1 0x24 PUSH1 0x0 REVERT JUMPDEST PUSH2 0x97B DUP3 PUSH2 0x932 JUMP JUMPDEST DUP2 ADD DUP2 DUP2 LT PUSH8 0xFFFFFFFFFFFFFFFF DUP3 GT OR ISZERO PUSH2 0x99A JUMPI PUSH2 0x999 PUSH2 0x943 JUMP JUMPDEST JUMPDEST DUP1 PUSH1 0x40 MSTORE POP POP POP JUMP JUMPDEST PUSH1 0x0 PUSH2 0x9AD PUSH2 0x80D JUMP JUMPDEST SWAP1 POP PUSH2 0x9B9 DUP3 DUP3 PUSH2 0x972 JUMP JUMPDEST SWAP2 SWAP1 POP JUMP JUMPDEST PUSH1 0x0 PUSH8 0xFFFFFFFFFFFFFFFF DUP3 GT ISZERO PUSH2 0x9D9 JUMPI PUSH2 0x9D8 PUSH2 0x943 JUMP JUMPDEST JUMPDEST PUSH2 0x9E2 DUP3 PUSH2 0x932 JUMP JUMPDEST SWAP1 POP PUSH1 0x20 DUP2 ADD SWAP1 POP SWAP2 SWAP1 POP JUMP JUMPDEST DUP3 DUP2 DUP4 CALLDATACOPY PUSH1 0x0 DUP4 DUP4 ADD MSTORE POP POP POP JUMP JUMPDEST PUSH1 0x0 PUSH2 0xA11 PUSH2 0xA0C DUP5 PUSH2 0x9BE JUMP JUMPDEST PUSH2 0x9A3 JUMP JUMPDEST SWAP1 POP DUP3 DUP2 MSTORE PUSH1 0x20 DUP2 ADD DUP5 DUP5 DUP5 ADD GT ISZERO PUSH2 0xA2D JUMPI PUSH2 0xA2C PUSH2 0x92D JUMP JUMPDEST JUMPDEST PUSH2 0xA38 DUP5 DUP3 DUP6 PUSH2 0x9EF JUMP JUMPDEST POP SWAP4 SWAP3 POP POP POP JUMP JUMPDEST PUSH1 0x0 DUP3 PUSH1 0x1F DUP4 ADD SLT PUSH2 0xA55 JUMPI PUSH2 0xA54 PUSH2 0x928 JUMP JUMPDEST JUMPDEST DUP2 CALLDATALOAD PUSH2 0xA65 DUP5 DUP3 PUSH1 0x20 DUP7 ADD PUSH2 0x9FE JUMP JUMPDEST SWAP2 POP POP SWAP3 SWAP2 POP POP JUMP JUMPDEST PUSH1 0x0 DUP1 PUSH1 0x0 DUP1 PUSH1 0x0 DUP1 PUSH1 0x0 DUP1 PUSH1 0x0 DUP1 PUSH1 0x0 PUSH2 0x160 DUP13 DUP15 SUB SLT ISZERO PUSH2 0xA94 JUMPI PUSH2 0xA93 PUSH2 0x817 JUMP JUMPDEST JUMPDEST PUSH1 0x0 PUSH2 0xAA2 DUP15 DUP3 DUP16 ADD PUSH2 0x842 JUMP JUMPDEST SWAP12 POP POP PUSH1 0x20 PUSH2 0xAB3 DUP15 DUP3 DUP16 ADD PUSH2 0x842 JUMP JUMPDEST SWAP11 POP POP PUSH1 0x40 PUSH2 0xAC4 DUP15 DUP3 DUP16 ADD PUSH2 0x842 JUMP JUMPDEST SWAP10 POP POP PUSH1 0x60 PUSH2 0xAD5 DUP15 DUP3 DUP16 ADD PUSH2 0x842 JUMP JUMPDEST SWAP9 POP POP PUSH1 0x80 PUSH2 0xAE6 DUP15 DUP3 DUP16 ADD PUSH2 0x842 JUMP JUMPDEST SWAP8 POP POP PUSH1 0xA0 PUSH2 0xAF7 DUP15 DUP3 DUP16 ADD PUSH2 0x842 JUMP JUMPDEST SWAP7 POP POP PUSH1 0xC0 PUSH2 0xB08 DUP15 DUP3 DUP16 ADD PUSH2 0x842 JUMP JUMPDEST SWAP6 POP POP PUSH1 0xE0 PUSH2 0xB19 DUP15 DUP3 DUP16 ADD PUSH2 0x842 JUMP JUMPDEST SWAP5 POP POP PUSH2 0x100 PUSH2 0xB2B DUP15 DUP3 DUP16 ADD PUSH2 0x913 JUMP JUMPDEST SWAP4 POP POP PUSH2 0x120 PUSH2 0xB3D DUP15 DUP3 DUP16 ADD PUSH2 0x913 JUMP JUMPDEST SWAP3 POP POP PUSH2 0x140 DUP13 ADD CALLDATALOAD PUSH8 0xFFFFFFFFFFFFFFFF DUP2 GT ISZERO PUSH2 0xB5F JUMPI PUSH2 0xB5E PUSH2 0x81C JUMP JUMPDEST JUMPDEST PUSH2 0xB6B DUP15 DUP3 DUP16 ADD PUSH2 0xA40 JUMP JUMPDEST SWAP2 POP POP SWAP3 SWAP6 SWAP9 SWAP12 POP SWAP3 SWAP6 SWAP9 SWAP12 SWAP1 SWAP4 SWAP7 SWAP10 POP JUMP JUMPDEST PUSH1 0x0 DUP1 PUSH1 0x0 PUSH1 0x60 DUP5 DUP7 SUB SLT ISZERO PUSH2 0xB97 JUMPI PUSH2 0xB96 PUSH2 0x817 JUMP JUMPDEST JUMPDEST PUSH1 0x0 PUSH2 0xBA5 DUP7 DUP3 DUP8 ADD PUSH2 0x842 JUMP JUMPDEST SWAP4 POP POP PUSH1 0x20 PUSH2 0xBB6 DUP7 DUP3 DUP8 ADD PUSH2 0x842 JUMP JUMPDEST SWAP3 POP POP PUSH1 0x40 PUSH2 0xBC7 DUP7 DUP3 DUP8 ADD PUSH2 0x842 JUMP JUMPDEST SWAP2 POP POP SWAP3 POP SWAP3 POP SWAP3 JUMP JUMPDEST PUSH1 0x0 PUSH1 0x20 DUP3 ADD SWAP1 POP PUSH2 0xBE6 PUSH1 0x0 DUP4 ADD DUP5 PUSH2 0x884 JUMP JUMPDEST SWAP3 SWAP2 POP POP JUMP JUMPDEST PUSH1 0x0 DUP1 PUSH1 0x0 DUP1 PUSH1 0x80 DUP6 DUP8 SUB SLT ISZERO PUSH2 0xC06 JUMPI PUSH2 0xC05 PUSH2 0x817 JUMP JUMPDEST JUMPDEST PUSH1 0x0 PUSH2 0xC14 DUP8 DUP3 DUP9 ADD PUSH2 0x913 JUMP JUMPDEST SWAP5 POP POP PUSH1 0x20 PUSH2 0xC25 DUP8 DUP3 DUP9 ADD PUSH2 0x913 JUMP JUMPDEST SWAP4 POP POP PUSH1 0x40 PUSH2 0xC36 DUP8 DUP3 DUP9 ADD PUSH2 0x842 JUMP JUMPDEST SWAP3 POP POP PUSH1 0x60 PUSH2 0xC47 DUP8 DUP3 DUP9 ADD PUSH2 0x842 JUMP JUMPDEST SWAP2 POP POP SWAP3 SWAP6 SWAP2 SWAP5 POP SWAP3 POP JUMP JUMPDEST PUSH1 0x0 DUP2 ISZERO ISZERO SWAP1 POP SWAP2 SWAP1 POP JUMP JUMPDEST PUSH2 0xC68 DUP2 PUSH2 0xC53 JUMP JUMPDEST DUP3 MSTORE POP POP JUMP JUMPDEST PUSH1 0x0 PUSH1 0x20 DUP3 ADD SWAP1 POP PUSH2 0xC83 PUSH1 0x0 DUP4 ADD DUP5 PUSH2 0xC5F JUMP JUMPDEST SWAP3 SWAP2 POP POP JUMP JUMPDEST PUSH1 0x0 DUP1 PUSH1 0x0 DUP1 PUSH1 0x0 PUSH1 0xA0 DUP7 DUP9 SUB SLT ISZERO PUSH2 0xCA5 JUMPI PUSH2 0xCA4 PUSH2 0x817 JUMP JUMPDEST JUMPDEST PUSH1 0x0 PUSH2 0xCB3 DUP9 DUP3 DUP10 ADD PUSH2 0x913 JUMP JUMPDEST SWAP6 POP POP PUSH1 0x20 PUSH2 0xCC4 DUP9 DUP3 DUP10 ADD PUSH2 0x913 JUMP JUMPDEST SWAP5 POP POP PUSH1 0x40 PUSH2 0xCD5 DUP9 DUP3 DUP10 ADD PUSH2 0x842 JUMP JUMPDEST SWAP4 POP POP PUSH1 0x60 PUSH2 0xCE6 DUP9 DUP3 DUP10 ADD PUSH2 0x842 JUMP JUMPDEST SWAP3 POP POP PUSH1 0x80 PUSH2 0xCF7 DUP9 DUP3 DUP10 ADD PUSH2 0x842 JUMP JUMPDEST SWAP2 POP POP SWAP3 SWAP6 POP SWAP3 SWAP6 SWAP1 SWAP4 POP JUMP JUMPDEST PUSH1 0x0 DUP2 MLOAD SWAP1 POP SWAP2 SWAP1 POP JUMP JUMPDEST PUSH32 0x4E487B7100000000000000000000000000000000000000000000000000000000 PUSH1 0x0 MSTORE PUSH1 0x22 PUSH1 0x4 MSTORE PUSH1 0x24 PUSH1 0x0 REVERT JUMPDEST PUSH1 0x0 PUSH1 0x2 DUP3 DIV SWAP1 POP PUSH1 0x1 DUP3 AND DUP1 PUSH2 0xD56 JUMPI PUSH1 0x7F DUP3 AND SWAP2 POP JUMPDEST PUSH1 0x20 DUP3 LT DUP2 SUB PUSH2 0xD69 JUMPI PUSH2 0xD68 PUSH2 0xD0F JUMP JUMPDEST JUMPDEST POP SWAP2 SWAP1 POP JUMP JUMPDEST PUSH1 0x0 DUP2 SWAP1 POP DUP2 PUSH1 0x0 MSTORE PUSH1 0x20 PUSH1 0x0 KECCAK256 SWAP1 POP SWAP2 SWAP1 POP JUMP JUMPDEST PUSH1 0x0 PUSH1 0x20 PUSH1 0x1F DUP4 ADD DIV SWAP1 POP SWAP2 SWAP1 POP JUMP JUMPDEST PUSH1 0x0 DUP3 DUP3 SHL SWAP1 POP SWAP3 SWAP2 POP POP JUMP JUMPDEST PUSH1 0x0 PUSH1 0x8 DUP4 MUL PUSH2 0xDD1 PUSH32 0xFFFFFFFFFFFFFFFFFFFFFFFFFFFFFFFFFFFFFFFFFFFFFFFFFFFFFFFFFFFFFFFF DUP3 PUSH2 0xD94 JUMP JUMPDEST PUSH2 0xDDB DUP7 DUP4 PUSH2 0xD94 JUMP JUMPDEST SWAP6 POP DUP1 NOT DUP5 AND SWAP4 POP DUP1 DUP7 AND DUP5 OR SWAP3 POP POP POP SWAP4 SWAP3 POP POP POP JUMP JUMPDEST PUSH1 0x0 DUP2 SWAP1 POP SWAP2 SWAP1 POP JUMP JUMPDEST PUSH1 0x0 PUSH2 0xE18 PUSH2 0xE13 PUSH2 0xE0E DUP5 PUSH2 0x821 JUMP JUMPDEST PUSH2 0xDF3 JUMP JUMPDEST PUSH2 0x821 JUMP JUMPDEST SWAP1 POP SWAP2 SWAP1 POP JUMP JUMPDEST PUSH1 0x0 DUP2 SWAP1 POP SWAP2 SWAP1 POP JUMP JUMPDEST PUSH2 0xE32 DUP4 PUSH2 0xDFD JUMP JUMPDEST PUSH2 0xE46 PUSH2 0xE3E DUP3 PUSH2 0xE1F JUMP JUMPDEST DUP5 DUP5 SLOAD PUSH2 0xDA1 JUMP JUMPDEST DUP3 SSTORE POP POP POP POP JUMP JUMPDEST PUSH1 0x0 SWAP1 JUMP JUMPDEST PUSH2 0xE5B PUSH2 0xE4E JUMP JUMPDEST PUSH2 0xE66 DUP2 DUP5 DUP5 PUSH2 0xE29 JUMP JUMPDEST POP POP POP JUMP JUMPDEST JUMPDEST DUP2 DUP2 LT ISZERO PUSH2 0xE8A JUMPI PUSH2 0xE7F PUSH1 0x0 DUP3 PUSH2 0xE53 JUMP JUMPDEST PUSH1 0x1 DUP2 ADD SWAP1 POP PUSH2 0xE6C JUMP JUMPDEST POP POP JUMP JUMPDEST PUSH1 0x1F DUP3 GT ISZERO PUSH2 0xECF JUMPI PUSH2 0xEA0 DUP2 PUSH2 0xD6F JUMP JUMPDEST PUSH2 0xEA9 DUP5 PUSH2 0xD84 JUMP JUMPDEST DUP2 ADD PUSH1 0x20 DUP6 LT ISZERO PUSH2 0xEB8 JUMPI DUP2 SWAP1 POP JUMPDEST PUSH2 0xECC PUSH2 0xEC4 DUP6 PUSH2 0xD84 JUMP JUMPDEST DUP4 ADD DUP3 PUSH2 0xE6B JUMP JUMPDEST POP POP JUMPDEST POP POP POP JUMP JUMPDEST PUSH1 0x0 DUP3 DUP3 SHR SWAP1 POP SWAP3 SWAP2 POP POP JUMP JUMPDEST PUSH1 0x0 PUSH2 0xEF2 PUSH1 0x0 NOT DUP5 PUSH1 0x8 MUL PUSH2 0xED4 JUMP JUMPDEST NOT DUP1 DUP4 AND SWAP2 POP POP SWAP3 SWAP2 POP POP JUMP JUMPDEST PUSH1 0x0 PUSH2 0xF0B DUP4 DUP4 PUSH2 0xEE1 JUMP JUMPDEST SWAP2 POP DUP3 PUSH1 0x2 MUL DUP3 OR SWAP1 POP SWAP3 SWAP2 POP POP JUMP JUMPDEST PUSH2 0xF24 DUP3 PUSH2 0xD04 JUMP JUMPDEST PUSH8 0xFFFFFFFFFFFFFFFF DUP2 GT ISZERO PUSH2 0xF3D JUMPI PUSH2 0xF3C PUSH2 0x943 JUMP JUMPDEST JUMPDEST PUSH2 0xF47 DUP3 SLOAD PUSH2 0xD3E JUMP JUMPDEST PUSH2 0xF52 DUP3 DUP3 DUP6 PUSH2 0xE8E JUMP JUMPDEST PUSH1 0x0 PUSH1 0x20 SWAP1 POP PUSH1 0x1F DUP4 GT PUSH1 0x1 DUP2 EQ PUSH2 0xF85 JUMPI PUSH1 0x0 DUP5 ISZERO PUSH2 0xF73 JUMPI DUP3 DUP8 ADD MLOAD SWAP1 POP JUMPDEST PUSH2 0xF7D DUP6 DUP3 PUSH2 0xEFF JUMP JUMPDEST DUP7 SSTORE POP PUSH2 0xFE5 JUMP JUMPDEST PUSH1 0x1F NOT DUP5 AND PUSH2 0xF93 DUP7 PUSH2 0xD6F JUMP JUMPDEST PUSH1 0x0 JUMPDEST DUP3 DUP2 LT ISZERO PUSH2 0xFBB JUMPI DUP5 DUP10 ADD MLOAD DUP3 SSTORE PUSH1 0x1 DUP3 ADD SWAP2 POP PUSH1 0x20 DUP6 ADD SWAP5 POP PUSH1 0x20 DUP2 ADD SWAP1 POP PUSH2 0xF96 JUMP JUMPDEST DUP7 DUP4 LT ISZERO PUSH2 0xFD8 JUMPI DUP5 DUP10 ADD MLOAD PUSH2 0xFD4 PUSH1 0x1F DUP10 AND DUP3 PUSH2 0xEE1 JUMP JUMPDEST DUP4 SSTORE POP JUMPDEST PUSH1 0x1 PUSH1 0x2 DUP9 MUL ADD DUP9 SSTORE POP POP POP JUMPDEST POP POP POP POP POP POP JUMP JUMPDEST PUSH32 0x4E487B7100000000000000000000000000000000000000000000000000000000 PUSH1 0x0 MSTORE PUSH1 0x11 PUSH1 0x4 MSTORE PUSH1 0x24 PUSH1 0x0 REVERT JUMPDEST PUSH1 0x0 PUSH2 0x1027 DUP3 PUSH2 0x821 JUMP JUMPDEST SWAP2 POP PUSH2 0x1032 DUP4 PUSH2 0x821 JUMP JUMPDEST SWAP3 POP DUP3 DUP3 MUL PUSH2 0x1040 DUP2 PUSH2 0x821 JUMP JUMPDEST SWAP2 POP DUP3 DUP3 DIV DUP5 EQ DUP4 ISZERO OR PUSH2 0x1057 JUMPI PUSH2 0x1056 PUSH2 0xFED JUMP JUMPDEST JUMPDEST POP SWAP3 SWAP2 POP POP JUMP JUMPDEST PUSH32 0x4E487B7100000000000000000000000000000000000000000000000000000000 PUSH1 0x0 MSTORE PUSH1 0x12 PUSH1 0x4 MSTORE PUSH1 0x24 PUSH1 0x0 REVERT JUMPDEST PUSH1 0x0 PUSH2 0x1098 DUP3 PUSH2 0x821 JUMP JUMPDEST SWAP2 POP PUSH2 0x10A3 DUP4 PUSH2 0x821 JUMP JUMPDEST SWAP3 POP DUP3 PUSH2 0x10B3 JUMPI PUSH2 0x10B2 PUSH2 0x105E JUMP JUMPDEST JUMPDEST DUP3 DUP3 DIV SWAP1 POP SWAP3 SWAP2 POP POP JUMP JUMPDEST PUSH1 0x0 DUP3 DUP3 MSTORE PUSH1 0x20 DUP3 ADD SWAP1 POP SWAP3 SWAP2 POP POP JUMP JUMPDEST PUSH32 0x54686520616464726573732069732077726F6E67000000000000000000000000 PUSH1 0x0 DUP3 ADD MSTORE POP JUMP JUMPDEST PUSH1 0x0 PUSH2 0x1105 PUSH1 0x14 DUP4 PUSH2 0x10BE JUMP JUMPDEST SWAP2 POP PUSH2 0x1110 DUP3 PUSH2 0x10CF JUMP JUMPDEST PUSH1 0x20 DUP3 ADD SWAP1 POP SWAP2 SWAP1 POP JUMP JUMPDEST PUSH1 0x0 PUSH1 0x20 DUP3 ADD SWAP1 POP DUP2 DUP2 SUB PUSH1 0x0 DUP4 ADD MSTORE PUSH2 0x1134 DUP2 PUSH2 0x10F8 JUMP JUMPDEST SWAP1 POP SWAP2 SWAP1 POP JUMP JUMPDEST PUSH32 0x43686169726D616E206973206E6F742073657400000000000000000000000000 PUSH1 0x0 DUP3 ADD MSTORE POP JUMP JUMPDEST PUSH1 0x0 PUSH2 0x1171 PUSH1 0x13 DUP4 PUSH2 0x10BE JUMP JUMPDEST SWAP2 POP PUSH2 0x117C DUP3 PUSH2 0x113B JUMP JUMPDEST PUSH1 0x20 DUP3 ADD SWAP1 POP SWAP2 SWAP1 POP JUMP JUMPDEST PUSH1 0x0 PUSH1 0x20 DUP3 ADD SWAP1 POP DUP2 DUP2 SUB PUSH1 0x0 DUP4 ADD MSTORE PUSH2 0x11A0 DUP2 PUSH2 0x1164 JUMP JUMPDEST SWAP1 POP SWAP2 SWAP1 POP JUMP JUMPDEST PUSH32 0x546869732072657175657374206973206E6F7420616C6C6F7765640000000000 PUSH1 0x0 DUP3 ADD MSTORE POP JUMP JUMPDEST PUSH1 0x0 PUSH2 0x11DD PUSH1 0x1B DUP4 PUSH2 0x10BE JUMP JUMPDEST SWAP2 POP PUSH2 0x11E8 DUP3 PUSH2 0x11A7 JUMP JUMPDEST PUSH1 0x20 DUP3 ADD SWAP1 POP SWAP2 SWAP1 POP JUMP JUMPDEST PUSH1 0x0 PUSH1 0x20 DUP3 ADD SWAP1 POP DUP2 DUP2 SUB PUSH1 0x0 DUP4 ADD MSTORE PUSH2 0x120C DUP2 PUSH2 0x11D0 JUMP JUMPDEST SWAP1 POP SWAP2 SWAP1 POP JUMP JUMPDEST PUSH32 0x4D6F7265207468616E20746865206C696D697400000000000000000000000000 PUSH1 0x0 DUP3 ADD MSTORE POP JUMP JUMPDEST PUSH1 0x0 PUSH2 0x1249 PUSH1 0x13 DUP4 PUSH2 0x10BE JUMP JUMPDEST SWAP2 POP PUSH2 0x1254 DUP3 PUSH2 0x1213 JUMP JUMPDEST PUSH1 0x20 DUP3 ADD SWAP1 POP SWAP2 SWAP1 POP JUMP JUMPDEST PUSH1 0x0 PUSH1 0x20 DUP3 ADD SWAP1 POP DUP2 DUP2 SUB PUSH1 0x0 DUP4 ADD MSTORE PUSH2 0x1278 DUP2 PUSH2 0x123C JUMP JUMPDEST SWAP1 POP SWAP2 SWAP1 POP JUMP JUMPDEST PUSH1 0x0 PUSH2 0x128A DUP3 PUSH2 0x821 JUMP JUMPDEST SWAP2 POP PUSH2 0x1295 DUP4 PUSH2 0x821 JUMP JUMPDEST SWAP3 POP DUP3 DUP3 SUB SWAP1 POP DUP2 DUP2 GT ISZERO PUSH2 0x12AD JUMPI PUSH2 0x12AC PUSH2 0xFED JUMP JUMPDEST JUMPDEST SWAP3 SWAP2 POP POP JUMP JUMPDEST PUSH1 0x0 PUSH2 0x12BE DUP3 PUSH2 0x821 JUMP JUMPDEST SWAP2 POP PUSH2 0x12C9 DUP4 PUSH2 0x821 JUMP JUMPDEST SWAP3 POP DUP3 DUP3 ADD SWAP1 POP DUP1 DUP3 GT ISZERO PUSH2 0x12E1 JUMPI PUSH2 0x12E0 PUSH2 0xFED JUMP JUMPDEST JUMPDEST SWAP3 SWAP2 POP POP JUMP JUMPDEST PUSH1 0x0 PUSH1 0x40 DUP3 ADD SWAP1 POP PUSH2 0x12FC PUSH1 0x0 DUP4 ADD DUP6 PUSH2 0x884 JUMP JUMPDEST PUSH2 0x1309 PUSH1 0x20 DUP4 ADD DUP5 PUSH2 0x884 JUMP JUMPDEST SWAP4 SWAP3 POP POP POP JUMP INVALID LOG2 PUSH5 0x6970667358 0x22 SLT KECCAK256 0xD2 PUSH3 0x4A2222 0x4E 0xA6 COINBASE CREATE2 PUSH7 0x3F5FCC5729E731 JUMP 0xDB 0xD3 0x22 PUSH32 0x3623822953265023C93D64736F6C634300081300330000000000000000000000 "
				},
				"gasEstimates": {
					"creation": {
						"codeDepositCost": "986800",
						"executionCost": "1027",
						"totalCost": "987827"
					},
					"external": {
						"ChangeShareholders(address,address,uint256,uint256)": "infinite",
						"addcompany(uint256,uint256,uint256,uint256,uint256,uint256,uint256,uint256,address,address,string)": "infinite",
						"getInterestPayment(uint256,uint256,uint256)": "infinite",
						"getShareholders(address,address,uint256,uint256,uint256)": "infinite",
						"recordDailyProduction(uint256)": "infinite"
					}
				},
				"methodIdentifiers": {
					"ChangeShareholders(address,address,uint256,uint256)": "7b2f44a5",
					"addcompany(uint256,uint256,uint256,uint256,uint256,uint256,uint256,uint256,address,address,string)": "5767c272",
					"getInterestPayment(uint256,uint256,uint256)": "716267b8",
					"getShareholders(address,address,uint256,uint256,uint256)": "f20c0b29",
					"recordDailyProduction(uint256)": "1358b0ff"
				}
			},
			"storageLayout": {
				"storage": [
					{
						"astId": 37,
						"contract": "Oilcompany.sol:Oilcompany",
						"label": "shareholder",
						"offset": 0,
						"slot": "0",
						"type": "t_mapping(t_address,t_bool)"
					},
					{
						"astId": 41,
						"contract": "Oilcompany.sol:Oilcompany",
						"label": "shares",
						"offset": 0,
						"slot": "1",
						"type": "t_mapping(t_address,t_uint256)"
					},
					{
						"astId": 43,
						"contract": "Oilcompany.sol:Oilcompany",
						"label": "totalShares",
						"offset": 0,
						"slot": "2",
						"type": "t_uint256"
					},
					{
						"astId": 45,
						"contract": "Oilcompany.sol:Oilcompany",
						"label": "numShareholders",
						"offset": 0,
						"slot": "3",
						"type": "t_uint256"
					},
					{
						"astId": 72,
						"contract": "Oilcompany.sol:Oilcompany",
						"label": "oil",
						"offset": 0,
						"slot": "4",
						"type": "t_array(t_struct(company)68_storage)dyn_storage"
					}
				],
				"types": {
					"t_address": {
						"encoding": "inplace",
						"label": "address",
						"numberOfBytes": "20"
					},
					"t_array(t_struct(company)68_storage)dyn_storage": {
						"base": "t_struct(company)68_storage",
						"encoding": "dynamic_array",
						"label": "struct Oilcompany.company[]",
						"numberOfBytes": "32"
					},
					"t_bool": {
						"encoding": "inplace",
						"label": "bool",
						"numberOfBytes": "1"
					},
					"t_mapping(t_address,t_bool)": {
						"encoding": "mapping",
						"key": "t_address",
						"label": "mapping(address => bool)",
						"numberOfBytes": "32",
						"value": "t_bool"
					},
					"t_mapping(t_address,t_uint256)": {
						"encoding": "mapping",
						"key": "t_address",
						"label": "mapping(address => uint256)",
						"numberOfBytes": "32",
						"value": "t_uint256"
					},
					"t_string_storage": {
						"encoding": "bytes",
						"label": "string",
						"numberOfBytes": "32"
					},
					"t_struct(company)68_storage": {
						"encoding": "inplace",
						"label": "struct Oilcompany.company",
						"members": [
							{
								"astId": 47,
								"contract": "Oilcompany.sol:Oilcompany",
								"label": "barrel",
								"offset": 0,
								"slot": "0",
								"type": "t_uint256"
							},
							{
								"astId": 49,
								"contract": "Oilcompany.sol:Oilcompany",
								"label": "price",
								"offset": 0,
								"slot": "1",
								"type": "t_uint256"
							},
							{
								"astId": 51,
								"contract": "Oilcompany.sol:Oilcompany",
								"label": "paymentAmount",
								"offset": 0,
								"slot": "2",
								"type": "t_uint256"
							},
							{
								"astId": 53,
								"contract": "Oilcompany.sol:Oilcompany",
								"label": "paymentDate",
								"offset": 0,
								"slot": "3",
								"type": "t_uint256"
							},
							{
								"astId": 55,
								"contract": "Oilcompany.sol:Oilcompany",
								"label": "percentage",
								"offset": 0,
								"slot": "4",
								"type": "t_uint256"
							},
							{
								"astId": 57,
								"contract": "Oilcompany.sol:Oilcompany",
								"label": "amount",
								"offset": 0,
								"slot": "5",
								"type": "t_uint256"
							},
							{
								"astId": 59,
								"contract": "Oilcompany.sol:Oilcompany",
								"label": "timestamp",
								"offset": 0,
								"slot": "6",
								"type": "t_uint256"
							},
							{
								"astId": 61,
								"contract": "Oilcompany.sol:Oilcompany",
								"label": "totalShares",
								"offset": 0,
								"slot": "7",
								"type": "t_uint256"
							},
							{
								"astId": 63,
								"contract": "Oilcompany.sol:Oilcompany",
								"label": "to",
								"offset": 0,
								"slot": "8",
								"type": "t_address"
							},
							{
								"astId": 65,
								"contract": "Oilcompany.sol:Oilcompany",
								"label": "chairman",
								"offset": 0,
								"slot": "9",
								"type": "t_address"
							},
							{
								"astId": 67,
								"contract": "Oilcompany.sol:Oilcompany",
								"label": "paymentMethod",
								"offset": 0,
								"slot": "10",
								"type": "t_string_storage"
							}
						],
						"numberOfBytes": "352"
					},
					"t_uint256": {
						"encoding": "inplace",
						"label": "uint256",
						"numberOfBytes": "32"
					}
				}
			},
			"userdoc": {
				"kind": "user",
				"methods": {},
				"version": 1
			}
		}
	}
}