{
	"Assembly.sol": {
		"Newlaw": {
			"abi": [
				{
					"anonymous": false,
					"inputs": [
						{
							"indexed": false,
							"internalType": "uint256",
							"name": "timestampstart",
							"type": "uint256"
						},
						{
							"indexed": false,
							"internalType": "uint256",
							"name": "TimeStampEnd",
							"type": "uint256"
						},
						{
							"indexed": false,
							"internalType": "string",
							"name": "namelaw",
							"type": "string"
						}
					],
					"name": "time",
					"type": "event"
				},
				{
					"anonymous": false,
					"inputs": [
						{
							"indexed": false,
							"internalType": "uint256",
							"name": "totalvotes",
							"type": "uint256"
						},
						{
							"indexed": false,
							"internalType": "uint256",
							"name": "agree",
							"type": "uint256"
						},
						{
							"indexed": false,
							"internalType": "uint256",
							"name": "Against",
							"type": "uint256"
						},
						{
							"indexed": false,
							"internalType": "uint256",
							"name": "noidea",
							"type": "uint256"
						},
						{
							"indexed": false,
							"internalType": "uint256",
							"name": "void",
							"type": "uint256"
						}
					],
					"name": "voting",
					"type": "event"
				},
				{
					"inputs": [
						{
							"internalType": "uint256",
							"name": "",
							"type": "uint256"
						}
					],
					"name": "Chairman",
					"outputs": [
						{
							"internalType": "address",
							"name": "",
							"type": "address"
						}
					],
					"stateMutability": "view",
					"type": "function"
				},
				{
					"inputs": [
						{
							"internalType": "uint256",
							"name": "_timestampstart",
							"type": "uint256"
						},
						{
							"internalType": "uint256",
							"name": "_totalvotes",
							"type": "uint256"
						},
						{
							"internalType": "uint256",
							"name": "_Against",
							"type": "uint256"
						},
						{
							"internalType": "uint256",
							"name": "_agree",
							"type": "uint256"
						},
						{
							"internalType": "uint256",
							"name": "_noidea",
							"type": "uint256"
						},
						{
							"internalType": "uint256",
							"name": "_void",
							"type": "uint256"
						},
						{
							"internalType": "uint256",
							"name": "_TimeStampEnd",
							"type": "uint256"
						}
					],
					"name": "addlow",
					"outputs": [],
					"stateMutability": "nonpayable",
					"type": "function"
				},
				{
					"inputs": [],
					"name": "endOfVoting",
					"outputs": [
						{
							"internalType": "uint256",
							"name": "_timestampstart",
							"type": "uint256"
						},
						{
							"internalType": "uint256",
							"name": "_totalvotes",
							"type": "uint256"
						},
						{
							"internalType": "uint256",
							"name": "_agree",
							"type": "uint256"
						},
						{
							"internalType": "uint256",
							"name": "_Against",
							"type": "uint256"
						},
						{
							"internalType": "uint256",
							"name": "_noidea",
							"type": "uint256"
						},
						{
							"internalType": "uint256",
							"name": "_void",
							"type": "uint256"
						},
						{
							"internalType": "uint256",
							"name": "_TimeStampEnd",
							"type": "uint256"
						}
					],
					"stateMutability": "nonpayable",
					"type": "function"
				},
				{
					"inputs": [
						{
							"internalType": "uint256",
							"name": "vote",
							"type": "uint256"
						}
					],
					"name": "hasRepresentatives",
					"outputs": [
						{
							"internalType": "uint256",
							"name": "",
							"type": "uint256"
						},
						{
							"internalType": "uint256",
							"name": "",
							"type": "uint256"
						},
						{
							"internalType": "uint256",
							"name": "",
							"type": "uint256"
						},
						{
							"internalType": "uint256",
							"name": "",
							"type": "uint256"
						},
						{
							"internalType": "uint256",
							"name": "",
							"type": "uint256"
						}
					],
					"stateMutability": "nonpayable",
					"type": "function"
				},
				{
					"inputs": [
						{
							"internalType": "address",
							"name": "",
							"type": "address"
						}
					],
					"name": "isrepresentatives",
					"outputs": [
						{
							"internalType": "bool",
							"name": "",
							"type": "bool"
						}
					],
					"stateMutability": "view",
					"type": "function"
				},
				{
					"inputs": [],
					"name": "representatives",
					"outputs": [
						{
							"internalType": "address",
							"name": "",
							"type": "address"
						}
					],
					"stateMutability": "view",
					"type": "function"
				}
			],
			"devdoc": {
				"kind": "dev",
				"methods": {},
				"version": 1
			},
			"evm": {
				"assembly": "    /* \"Assembly.sol\":61:2696  contract Newlaw{... */\n  mstore(0x40, 0x80)\n  callvalue\n  dup1\n  iszero\n  tag_1\n  jumpi\n  0x00\n  dup1\n  revert\ntag_1:\n  pop\n  dataSize(sub_0)\n  dup1\n  dataOffset(sub_0)\n  0x00\n  codecopy\n  0x00\n  return\nstop\n\nsub_0: assembly {\n        /* \"Assembly.sol\":61:2696  contract Newlaw{... */\n      mstore(0x40, 0x80)\n      callvalue\n      dup1\n      iszero\n      tag_1\n      jumpi\n      0x00\n      dup1\n      revert\n    tag_1:\n      pop\n      jumpi(tag_2, lt(calldatasize, 0x04))\n      shr(0xe0, calldataload(0x00))\n      dup1\n      0x109241e7\n      eq\n      tag_3\n      jumpi\n      dup1\n      0x396abc84\n      eq\n      tag_4\n      jumpi\n      dup1\n      0x74265c68\n      eq\n      tag_5\n      jumpi\n      dup1\n      0x7e887332\n      eq\n      tag_6\n      jumpi\n      dup1\n      0xb3ef4aa4\n      eq\n      tag_7\n      jumpi\n      dup1\n      0xfa1ad70c\n      eq\n      tag_8\n      jumpi\n    tag_2:\n      0x00\n      dup1\n      revert\n        /* \"Assembly.sol\":254:302  mapping(address => bool)public isrepresentatives */\n    tag_3:\n      tag_9\n      0x04\n      dup1\n      calldatasize\n      sub\n      dup2\n      add\n      swap1\n      tag_10\n      swap2\n      swap1\n      tag_11\n      jump\t// in\n    tag_10:\n      tag_12\n      jump\t// in\n    tag_9:\n      mload(0x40)\n      tag_13\n      swap2\n      swap1\n      tag_14\n      jump\t// in\n    tag_13:\n      mload(0x40)\n      dup1\n      swap2\n      sub\n      swap1\n      return\n        /* \"Assembly.sol\":310:340  address public representatives */\n    tag_4:\n      tag_15\n      tag_16\n      jump\t// in\n    tag_15:\n      mload(0x40)\n      tag_17\n      swap2\n      swap1\n      tag_18\n      jump\t// in\n    tag_17:\n      mload(0x40)\n      dup1\n      swap2\n      sub\n      swap1\n      return\n        /* \"Assembly.sol\":1373:2206  function hasRepresentatives(uint vote)public onlyRepresentative returns(uint ,uint , uint , uint , uint){... */\n    tag_5:\n      tag_19\n      0x04\n      dup1\n      calldatasize\n      sub\n      dup2\n      add\n      swap1\n      tag_20\n      swap2\n      swap1\n      tag_21\n      jump\t// in\n    tag_20:\n      tag_22\n      jump\t// in\n    tag_19:\n      mload(0x40)\n      tag_23\n      swap6\n      swap5\n      swap4\n      swap3\n      swap2\n      swap1\n      tag_24\n      jump\t// in\n    tag_23:\n      mload(0x40)\n      dup1\n      swap2\n      sub\n      swap1\n      return\n        /* \"Assembly.sol\":2213:2690  function endOfVoting()public returns(uint _timestampstart, uint _totalvotes , uint _agree , uint _Against, uint _noidea , uint _void, uint _TimeStampEnd){... */\n    tag_6:\n      tag_25\n      tag_26\n      jump\t// in\n    tag_25:\n      mload(0x40)\n      tag_27\n      swap8\n      swap7\n      swap6\n      swap5\n      swap4\n      swap3\n      swap2\n      swap1\n      tag_28\n      jump\t// in\n    tag_27:\n      mload(0x40)\n      dup1\n      swap2\n      sub\n      swap1\n      return\n        /* \"Assembly.sol\":348:372  address[]public Chairman */\n    tag_7:\n      tag_29\n      0x04\n      dup1\n      calldatasize\n      sub\n      dup2\n      add\n      swap1\n      tag_30\n      swap2\n      swap1\n      tag_21\n      jump\t// in\n    tag_30:\n      tag_31\n      jump\t// in\n    tag_29:\n      mload(0x40)\n      tag_32\n      swap2\n      swap1\n      tag_18\n      jump\t// in\n    tag_32:\n      mload(0x40)\n      dup1\n      swap2\n      sub\n      swap1\n      return\n        /* \"Assembly.sol\":1020:1361  function addlow(uint _timestampstart ,  uint _totalvotes, uint _Against , uint _agree ,uint _noidea ,uint _void  ,uint _TimeStampEnd)public{... */\n    tag_8:\n      tag_33\n      0x04\n      dup1\n      calldatasize\n      sub\n      dup2\n      add\n      swap1\n      tag_34\n      swap2\n      swap1\n      tag_35\n      jump\t// in\n    tag_34:\n      tag_36\n      jump\t// in\n    tag_33:\n      stop\n        /* \"Assembly.sol\":254:302  mapping(address => bool)public isrepresentatives */\n    tag_12:\n      mstore(0x20, 0x00)\n      dup1\n      0x00\n      mstore\n      keccak256(0x00, 0x40)\n      0x00\n      swap2\n      pop\n      sload\n      swap1\n      0x0100\n      exp\n      swap1\n      div\n      0xff\n      and\n      dup2\n      jump\t// out\n        /* \"Assembly.sol\":310:340  address public representatives */\n    tag_16:\n      0x01\n      0x00\n      swap1\n      sload\n      swap1\n      0x0100\n      exp\n      swap1\n      div\n      0xffffffffffffffffffffffffffffffffffffffff\n      and\n      dup2\n      jump\t// out\n        /* \"Assembly.sol\":1373:2206  function hasRepresentatives(uint vote)public onlyRepresentative returns(uint ,uint , uint , uint , uint){... */\n    tag_22:\n        /* \"Assembly.sol\":1445:1449  uint */\n      0x00\n        /* \"Assembly.sol\":1451:1455  uint */\n      dup1\n        /* \"Assembly.sol\":1458:1462  uint */\n      0x00\n        /* \"Assembly.sol\":1465:1469  uint */\n      dup1\n        /* \"Assembly.sol\":1472:1476  uint */\n      0x00\n        /* \"Assembly.sol\":692:707  representatives */\n      0x01\n      0x00\n      swap1\n      sload\n      swap1\n      0x0100\n      exp\n      swap1\n      div\n      0xffffffffffffffffffffffffffffffffffffffff\n      and\n        /* \"Assembly.sol\":678:707  msg.sender == representatives */\n      0xffffffffffffffffffffffffffffffffffffffff\n      and\n        /* \"Assembly.sol\":678:688  msg.sender */\n      caller\n        /* \"Assembly.sol\":678:707  msg.sender == representatives */\n      0xffffffffffffffffffffffffffffffffffffffff\n      and\n      eq\n        /* \"Assembly.sol\":670:756  require(msg.sender == representatives , \"Representatives only have the right to vote\") */\n      tag_38\n      jumpi\n      mload(0x40)\n      0x08c379a000000000000000000000000000000000000000000000000000000000\n      dup2\n      mstore\n      0x04\n      add\n      tag_39\n      swap1\n      tag_40\n      jump\t// in\n    tag_39:\n      mload(0x40)\n      dup1\n      swap2\n      sub\n      swap1\n      revert\n    tag_38:\n        /* \"Assembly.sol\":1499:1500  1 */\n      0x01\n        /* \"Assembly.sol\":1491:1495  vote */\n      dup7\n        /* \"Assembly.sol\":1491:1500  vote == 1 */\n      sub\n        /* \"Assembly.sol\":1488:1558  if(vote == 1){... */\n      tag_42\n      jumpi\n        /* \"Assembly.sol\":1516:1520  Laws */\n      0x03\n        /* \"Assembly.sol\":1535:1536  1 */\n      0x01\n        /* \"Assembly.sol\":1521:1525  Laws */\n      0x03\n        /* \"Assembly.sol\":1521:1532  Laws.length */\n      dup1\n      sload\n      swap1\n      pop\n        /* \"Assembly.sol\":1521:1536  Laws.length - 1 */\n      tag_43\n      swap2\n      swap1\n      tag_44\n      jump\t// in\n    tag_43:\n        /* \"Assembly.sol\":1516:1537  Laws[Laws.length - 1] */\n      dup2\n      sload\n      dup2\n      lt\n      tag_45\n      jumpi\n      tag_46\n      tag_47\n      jump\t// in\n    tag_46:\n    tag_45:\n      swap1\n      0x00\n      mstore\n      keccak256(0x00, 0x20)\n      swap1\n      0x07\n      mul\n      add\n        /* \"Assembly.sol\":1516:1543  Laws[Laws.length - 1].agree */\n      0x02\n      add\n      0x00\n        /* \"Assembly.sol\":1516:1545  Laws[Laws.length - 1].agree++ */\n      dup2\n      sload\n      dup1\n      swap3\n      swap2\n      swap1\n      tag_49\n      swap1\n      tag_50\n      jump\t// in\n    tag_49:\n      swap2\n      swap1\n      pop\n      sstore\n      pop\n        /* \"Assembly.sol\":1488:1558  if(vote == 1){... */\n    tag_42:\n        /* \"Assembly.sol\":1580:1581  2 */\n      0x02\n        /* \"Assembly.sol\":1571:1575  vote */\n      dup7\n        /* \"Assembly.sol\":1571:1581  vote ==  2 */\n      sub\n        /* \"Assembly.sol\":1568:1641  if(vote ==  2){... */\n      tag_51\n      jumpi\n        /* \"Assembly.sol\":1597:1601  Laws */\n      0x03\n        /* \"Assembly.sol\":1616:1617  1 */\n      0x01\n        /* \"Assembly.sol\":1602:1606  Laws */\n      0x03\n        /* \"Assembly.sol\":1602:1613  Laws.length */\n      dup1\n      sload\n      swap1\n      pop\n        /* \"Assembly.sol\":1602:1617  Laws.length - 1 */\n      tag_52\n      swap2\n      swap1\n      tag_44\n      jump\t// in\n    tag_52:\n        /* \"Assembly.sol\":1597:1618  Laws[Laws.length - 1] */\n      dup2\n      sload\n      dup2\n      lt\n      tag_53\n      jumpi\n      tag_54\n      tag_47\n      jump\t// in\n    tag_54:\n    tag_53:\n      swap1\n      0x00\n      mstore\n      keccak256(0x00, 0x20)\n      swap1\n      0x07\n      mul\n      add\n        /* \"Assembly.sol\":1597:1627  Laws[Laws.length - 1]. Against */\n      0x03\n      add\n      0x00\n        /* \"Assembly.sol\":1597:1629  Laws[Laws.length - 1]. Against++ */\n      dup2\n      sload\n      dup1\n      swap3\n      swap2\n      swap1\n      tag_56\n      swap1\n      tag_50\n      jump\t// in\n    tag_56:\n      swap2\n      swap1\n      pop\n      sstore\n      pop\n        /* \"Assembly.sol\":1568:1641  if(vote ==  2){... */\n    tag_51:\n        /* \"Assembly.sol\":1663:1664  3 */\n      0x03\n        /* \"Assembly.sol\":1655:1659  vote */\n      dup7\n        /* \"Assembly.sol\":1655:1664  vote == 3 */\n      sub\n        /* \"Assembly.sol\":1651:1789  if( vote == 3 ){... */\n      tag_57\n      jumpi\n        /* \"Assembly.sol\":1676:1680  Laws */\n      0x03\n        /* \"Assembly.sol\":1695:1696  1 */\n      0x01\n        /* \"Assembly.sol\":1681:1685  Laws */\n      0x03\n        /* \"Assembly.sol\":1681:1692  Laws.length */\n      dup1\n      sload\n      swap1\n      pop\n        /* \"Assembly.sol\":1681:1696  Laws.length - 1 */\n      tag_58\n      swap2\n      swap1\n      tag_44\n      jump\t// in\n    tag_58:\n        /* \"Assembly.sol\":1676:1697  Laws[Laws.length - 1] */\n      dup2\n      sload\n      dup2\n      lt\n      tag_59\n      jumpi\n      tag_60\n      tag_47\n      jump\t// in\n    tag_60:\n    tag_59:\n      swap1\n      0x00\n      mstore\n      keccak256(0x00, 0x20)\n      swap1\n      0x07\n      mul\n      add\n        /* \"Assembly.sol\":1676:1704  Laws[Laws.length - 1].noidea */\n      0x04\n      add\n      0x00\n        /* \"Assembly.sol\":1676:1706  Laws[Laws.length - 1].noidea++ */\n      dup2\n      sload\n      dup1\n      swap3\n      swap2\n      swap1\n      tag_62\n      swap1\n      tag_50\n      jump\t// in\n    tag_62:\n      swap2\n      swap1\n      pop\n      sstore\n      pop\n        /* \"Assembly.sol\":1651:1789  if( vote == 3 ){... */\n      jump(tag_63)\n    tag_57:\n        /* \"Assembly.sol\":1748:1752  Laws */\n      0x03\n        /* \"Assembly.sol\":1767:1768  1 */\n      0x01\n        /* \"Assembly.sol\":1753:1757  Laws */\n      0x03\n        /* \"Assembly.sol\":1753:1764  Laws.length */\n      dup1\n      sload\n      swap1\n      pop\n        /* \"Assembly.sol\":1753:1768  Laws.length - 1 */\n      tag_64\n      swap2\n      swap1\n      tag_44\n      jump\t// in\n    tag_64:\n        /* \"Assembly.sol\":1748:1769  Laws[Laws.length - 1] */\n      dup2\n      sload\n      dup2\n      lt\n      tag_65\n      jumpi\n      tag_66\n      tag_47\n      jump\t// in\n    tag_66:\n    tag_65:\n      swap1\n      0x00\n      mstore\n      keccak256(0x00, 0x20)\n      swap1\n      0x07\n      mul\n      add\n        /* \"Assembly.sol\":1748:1774  Laws[Laws.length - 1].void */\n      0x05\n      add\n      0x00\n        /* \"Assembly.sol\":1748:1776  Laws[Laws.length - 1].void++ */\n      dup2\n      sload\n      dup1\n      swap3\n      swap2\n      swap1\n      tag_68\n      swap1\n      tag_50\n      jump\t// in\n    tag_68:\n      swap2\n      swap1\n      pop\n      sstore\n      pop\n        /* \"Assembly.sol\":1651:1789  if( vote == 3 ){... */\n    tag_63:\n        /* \"Assembly.sol\":1806:1810  Laws */\n      0x03\n        /* \"Assembly.sol\":1825:1826  1 */\n      0x01\n        /* \"Assembly.sol\":1811:1815  Laws */\n      0x03\n        /* \"Assembly.sol\":1811:1822  Laws.length */\n      dup1\n      sload\n      swap1\n      pop\n        /* \"Assembly.sol\":1811:1826  Laws.length - 1 */\n      tag_69\n      swap2\n      swap1\n      tag_44\n      jump\t// in\n    tag_69:\n        /* \"Assembly.sol\":1806:1827  Laws[Laws.length - 1] */\n      dup2\n      sload\n      dup2\n      lt\n      tag_70\n      jumpi\n      tag_71\n      tag_47\n      jump\t// in\n    tag_71:\n    tag_70:\n      swap1\n      0x00\n      mstore\n      keccak256(0x00, 0x20)\n      swap1\n      0x07\n      mul\n      add\n        /* \"Assembly.sol\":1806:1838  Laws[Laws.length - 1].totalvotes */\n      0x01\n      add\n      0x00\n        /* \"Assembly.sol\":1806:1841  Laws[Laws.length - 1].totalvotes ++ */\n      dup2\n      sload\n      dup1\n      swap3\n      swap2\n      swap1\n      tag_73\n      swap1\n      tag_50\n      jump\t// in\n    tag_73:\n      swap2\n      swap1\n      pop\n      sstore\n      pop\n        /* \"Assembly.sol\":1857:2019  voting( Laws[Laws.length - 1].totalvotes,  Laws[Laws.length - 1].agree, Laws[Laws.length - 1].Against,  Laws[Laws.length - 1].noidea,  Laws[Laws.length - 1].void) */\n      0xe6d2c32f5b44f4fb627ab6af5eaec2409ebe41956a260cd5df4013c9f39815b9\n        /* \"Assembly.sol\":1865:1869  Laws */\n      0x03\n        /* \"Assembly.sol\":1884:1885  1 */\n      0x01\n        /* \"Assembly.sol\":1870:1874  Laws */\n      0x03\n        /* \"Assembly.sol\":1870:1881  Laws.length */\n      dup1\n      sload\n      swap1\n      pop\n        /* \"Assembly.sol\":1870:1885  Laws.length - 1 */\n      tag_74\n      swap2\n      swap1\n      tag_44\n      jump\t// in\n    tag_74:\n        /* \"Assembly.sol\":1865:1886  Laws[Laws.length - 1] */\n      dup2\n      sload\n      dup2\n      lt\n      tag_75\n      jumpi\n      tag_76\n      tag_47\n      jump\t// in\n    tag_76:\n    tag_75:\n      swap1\n      0x00\n      mstore\n      keccak256(0x00, 0x20)\n      swap1\n      0x07\n      mul\n      add\n        /* \"Assembly.sol\":1865:1897  Laws[Laws.length - 1].totalvotes */\n      0x01\n      add\n      sload\n        /* \"Assembly.sol\":1900:1904  Laws */\n      0x03\n        /* \"Assembly.sol\":1919:1920  1 */\n      0x01\n        /* \"Assembly.sol\":1905:1909  Laws */\n      0x03\n        /* \"Assembly.sol\":1905:1916  Laws.length */\n      dup1\n      sload\n      swap1\n      pop\n        /* \"Assembly.sol\":1905:1920  Laws.length - 1 */\n      tag_78\n      swap2\n      swap1\n      tag_44\n      jump\t// in\n    tag_78:\n        /* \"Assembly.sol\":1900:1921  Laws[Laws.length - 1] */\n      dup2\n      sload\n      dup2\n      lt\n      tag_79\n      jumpi\n      tag_80\n      tag_47\n      jump\t// in\n    tag_80:\n    tag_79:\n      swap1\n      0x00\n      mstore\n      keccak256(0x00, 0x20)\n      swap1\n      0x07\n      mul\n      add\n        /* \"Assembly.sol\":1900:1927  Laws[Laws.length - 1].agree */\n      0x02\n      add\n      sload\n        /* \"Assembly.sol\":1929:1933  Laws */\n      0x03\n        /* \"Assembly.sol\":1948:1949  1 */\n      0x01\n        /* \"Assembly.sol\":1934:1938  Laws */\n      0x03\n        /* \"Assembly.sol\":1934:1945  Laws.length */\n      dup1\n      sload\n      swap1\n      pop\n        /* \"Assembly.sol\":1934:1949  Laws.length - 1 */\n      tag_82\n      swap2\n      swap1\n      tag_44\n      jump\t// in\n    tag_82:\n        /* \"Assembly.sol\":1929:1950  Laws[Laws.length - 1] */\n      dup2\n      sload\n      dup2\n      lt\n      tag_83\n      jumpi\n      tag_84\n      tag_47\n      jump\t// in\n    tag_84:\n    tag_83:\n      swap1\n      0x00\n      mstore\n      keccak256(0x00, 0x20)\n      swap1\n      0x07\n      mul\n      add\n        /* \"Assembly.sol\":1929:1958  Laws[Laws.length - 1].Against */\n      0x03\n      add\n      sload\n        /* \"Assembly.sol\":1961:1965  Laws */\n      0x03\n        /* \"Assembly.sol\":1980:1981  1 */\n      0x01\n        /* \"Assembly.sol\":1966:1970  Laws */\n      0x03\n        /* \"Assembly.sol\":1966:1977  Laws.length */\n      dup1\n      sload\n      swap1\n      pop\n        /* \"Assembly.sol\":1966:1981  Laws.length - 1 */\n      tag_86\n      swap2\n      swap1\n      tag_44\n      jump\t// in\n    tag_86:\n        /* \"Assembly.sol\":1961:1982  Laws[Laws.length - 1] */\n      dup2\n      sload\n      dup2\n      lt\n      tag_87\n      jumpi\n      tag_88\n      tag_47\n      jump\t// in\n    tag_88:\n    tag_87:\n      swap1\n      0x00\n      mstore\n      keccak256(0x00, 0x20)\n      swap1\n      0x07\n      mul\n      add\n        /* \"Assembly.sol\":1961:1989  Laws[Laws.length - 1].noidea */\n      0x04\n      add\n      sload\n        /* \"Assembly.sol\":1992:1996  Laws */\n      0x03\n        /* \"Assembly.sol\":2011:2012  1 */\n      0x01\n        /* \"Assembly.sol\":1997:2001  Laws */\n      0x03\n        /* \"Assembly.sol\":1997:2008  Laws.length */\n      dup1\n      sload\n      swap1\n      pop\n        /* \"Assembly.sol\":1997:2012  Laws.length - 1 */\n      tag_90\n      swap2\n      swap1\n      tag_44\n      jump\t// in\n    tag_90:\n        /* \"Assembly.sol\":1992:2013  Laws[Laws.length - 1] */\n      dup2\n      sload\n      dup2\n      lt\n      tag_91\n      jumpi\n      tag_92\n      tag_47\n      jump\t// in\n    tag_92:\n    tag_91:\n      swap1\n      0x00\n      mstore\n      keccak256(0x00, 0x20)\n      swap1\n      0x07\n      mul\n      add\n        /* \"Assembly.sol\":1992:2018  Laws[Laws.length - 1].void */\n      0x05\n      add\n      sload\n        /* \"Assembly.sol\":1857:2019  voting( Laws[Laws.length - 1].totalvotes,  Laws[Laws.length - 1].agree, Laws[Laws.length - 1].Against,  Laws[Laws.length - 1].noidea,  Laws[Laws.length - 1].void) */\n      mload(0x40)\n      tag_94\n      swap6\n      swap5\n      swap4\n      swap3\n      swap2\n      swap1\n      tag_24\n      jump\t// in\n    tag_94:\n      mload(0x40)\n      dup1\n      swap2\n      sub\n      swap1\n      log1\n        /* \"Assembly.sol\":2038:2042  Laws */\n      0x03\n        /* \"Assembly.sol\":2057:2058  1 */\n      0x01\n        /* \"Assembly.sol\":2043:2047  Laws */\n      0x03\n        /* \"Assembly.sol\":2043:2054  Laws.length */\n      dup1\n      sload\n      swap1\n      pop\n        /* \"Assembly.sol\":2043:2058  Laws.length - 1 */\n      tag_95\n      swap2\n      swap1\n      tag_44\n      jump\t// in\n    tag_95:\n        /* \"Assembly.sol\":2038:2059  Laws[Laws.length - 1] */\n      dup2\n      sload\n      dup2\n      lt\n      tag_96\n      jumpi\n      tag_97\n      tag_47\n      jump\t// in\n    tag_97:\n    tag_96:\n      swap1\n      0x00\n      mstore\n      keccak256(0x00, 0x20)\n      swap1\n      0x07\n      mul\n      add\n        /* \"Assembly.sol\":2038:2070  Laws[Laws.length - 1].totalvotes */\n      0x01\n      add\n      sload\n        /* \"Assembly.sol\":2073:2077  Laws */\n      0x03\n        /* \"Assembly.sol\":2092:2093  1 */\n      0x01\n        /* \"Assembly.sol\":2078:2082  Laws */\n      0x03\n        /* \"Assembly.sol\":2078:2089  Laws.length */\n      dup1\n      sload\n      swap1\n      pop\n        /* \"Assembly.sol\":2078:2093  Laws.length - 1 */\n      tag_99\n      swap2\n      swap1\n      tag_44\n      jump\t// in\n    tag_99:\n        /* \"Assembly.sol\":2073:2094  Laws[Laws.length - 1] */\n      dup2\n      sload\n      dup2\n      lt\n      tag_100\n      jumpi\n      tag_101\n      tag_47\n      jump\t// in\n    tag_101:\n    tag_100:\n      swap1\n      0x00\n      mstore\n      keccak256(0x00, 0x20)\n      swap1\n      0x07\n      mul\n      add\n        /* \"Assembly.sol\":2073:2100  Laws[Laws.length - 1].agree */\n      0x02\n      add\n      sload\n        /* \"Assembly.sol\":2104:2108  Laws */\n      0x03\n        /* \"Assembly.sol\":2123:2124  1 */\n      0x01\n        /* \"Assembly.sol\":2109:2113  Laws */\n      0x03\n        /* \"Assembly.sol\":2109:2120  Laws.length */\n      dup1\n      sload\n      swap1\n      pop\n        /* \"Assembly.sol\":2109:2124  Laws.length - 1 */\n      tag_103\n      swap2\n      swap1\n      tag_44\n      jump\t// in\n    tag_103:\n        /* \"Assembly.sol\":2104:2125  Laws[Laws.length - 1] */\n      dup2\n      sload\n      dup2\n      lt\n      tag_104\n      jumpi\n      tag_105\n      tag_47\n      jump\t// in\n    tag_105:\n    tag_104:\n      swap1\n      0x00\n      mstore\n      keccak256(0x00, 0x20)\n      swap1\n      0x07\n      mul\n      add\n        /* \"Assembly.sol\":2104:2133  Laws[Laws.length - 1].Against */\n      0x03\n      add\n      sload\n        /* \"Assembly.sol\":2135:2139  Laws */\n      0x03\n        /* \"Assembly.sol\":2154:2155  1 */\n      0x01\n        /* \"Assembly.sol\":2140:2144  Laws */\n      0x03\n        /* \"Assembly.sol\":2140:2151  Laws.length */\n      dup1\n      sload\n      swap1\n      pop\n        /* \"Assembly.sol\":2140:2155  Laws.length - 1 */\n      tag_107\n      swap2\n      swap1\n      tag_44\n      jump\t// in\n    tag_107:\n        /* \"Assembly.sol\":2135:2156  Laws[Laws.length - 1] */\n      dup2\n      sload\n      dup2\n      lt\n      tag_108\n      jumpi\n      tag_109\n      tag_47\n      jump\t// in\n    tag_109:\n    tag_108:\n      swap1\n      0x00\n      mstore\n      keccak256(0x00, 0x20)\n      swap1\n      0x07\n      mul\n      add\n        /* \"Assembly.sol\":2135:2163  Laws[Laws.length - 1].noidea */\n      0x04\n      add\n      sload\n        /* \"Assembly.sol\":2167:2171  Laws */\n      0x03\n        /* \"Assembly.sol\":2186:2187  1 */\n      0x01\n        /* \"Assembly.sol\":2172:2176  Laws */\n      0x03\n        /* \"Assembly.sol\":2172:2183  Laws.length */\n      dup1\n      sload\n      swap1\n      pop\n        /* \"Assembly.sol\":2172:2187  Laws.length - 1 */\n      tag_111\n      swap2\n      swap1\n      tag_44\n      jump\t// in\n    tag_111:\n        /* \"Assembly.sol\":2167:2188  Laws[Laws.length - 1] */\n      dup2\n      sload\n      dup2\n      lt\n      tag_112\n      jumpi\n      tag_113\n      tag_47\n      jump\t// in\n    tag_113:\n    tag_112:\n      swap1\n      0x00\n      mstore\n      keccak256(0x00, 0x20)\n      swap1\n      0x07\n      mul\n      add\n        /* \"Assembly.sol\":2167:2193  Laws[Laws.length - 1].void */\n      0x05\n      add\n      sload\n        /* \"Assembly.sol\":2030:2194  return( Laws[Laws.length - 1].totalvotes,  Laws[Laws.length - 1].agree ,  Laws[Laws.length - 1].Against, Laws[Laws.length - 1].noidea ,  Laws[Laws.length - 1].void) */\n      swap5\n      pop\n      swap5\n      pop\n      swap5\n      pop\n      swap5\n      pop\n      swap5\n      pop\n        /* \"Assembly.sol\":790:807  isrepresentatives */\n      0x00\n        /* \"Assembly.sol\":790:819  isrepresentatives[msg.sender] */\n      dup1\n        /* \"Assembly.sol\":808:818  msg.sender */\n      caller\n        /* \"Assembly.sol\":790:819  isrepresentatives[msg.sender] */\n      0xffffffffffffffffffffffffffffffffffffffff\n      and\n      0xffffffffffffffffffffffffffffffffffffffff\n      and\n      dup2\n      mstore\n      0x20\n      add\n      swap1\n      dup2\n      mstore\n      0x20\n      add\n      0x00\n      keccak256\n      0x00\n      swap1\n      sload\n      swap1\n      0x0100\n      exp\n      swap1\n      div\n      0xff\n      and\n        /* \"Assembly.sol\":789:819  !isrepresentatives[msg.sender] */\n      iszero\n        /* \"Assembly.sol\":781:847  require(!isrepresentatives[msg.sender] , \"You have already voted\") */\n      tag_115\n      jumpi\n      mload(0x40)\n      0x08c379a000000000000000000000000000000000000000000000000000000000\n      dup2\n      mstore\n      0x04\n      add\n      tag_116\n      swap1\n      tag_117\n      jump\t// in\n    tag_116:\n      mload(0x40)\n      dup1\n      swap2\n      sub\n      swap1\n      revert\n    tag_115:\n        /* \"Assembly.sol\":1499:1500  1 */\n      0x01\n        /* \"Assembly.sol\":1491:1495  vote */\n      dup7\n        /* \"Assembly.sol\":1491:1500  vote == 1 */\n      sub\n        /* \"Assembly.sol\":1488:1558  if(vote == 1){... */\n      tag_119\n      jumpi\n        /* \"Assembly.sol\":1516:1520  Laws */\n      0x03\n        /* \"Assembly.sol\":1535:1536  1 */\n      0x01\n        /* \"Assembly.sol\":1521:1525  Laws */\n      0x03\n        /* \"Assembly.sol\":1521:1532  Laws.length */\n      dup1\n      sload\n      swap1\n      pop\n        /* \"Assembly.sol\":1521:1536  Laws.length - 1 */\n      tag_120\n      swap2\n      swap1\n      tag_44\n      jump\t// in\n    tag_120:\n        /* \"Assembly.sol\":1516:1537  Laws[Laws.length - 1] */\n      dup2\n      sload\n      dup2\n      lt\n      tag_121\n      jumpi\n      tag_122\n      tag_47\n      jump\t// in\n    tag_122:\n    tag_121:\n      swap1\n      0x00\n      mstore\n      keccak256(0x00, 0x20)\n      swap1\n      0x07\n      mul\n      add\n        /* \"Assembly.sol\":1516:1543  Laws[Laws.length - 1].agree */\n      0x02\n      add\n      0x00\n        /* \"Assembly.sol\":1516:1545  Laws[Laws.length - 1].agree++ */\n      dup2\n      sload\n      dup1\n      swap3\n      swap2\n      swap1\n      tag_124\n      swap1\n      tag_50\n      jump\t// in\n    tag_124:\n      swap2\n      swap1\n      pop\n      sstore\n      pop\n        /* \"Assembly.sol\":1488:1558  if(vote == 1){... */\n    tag_119:\n        /* \"Assembly.sol\":1580:1581  2 */\n      0x02\n        /* \"Assembly.sol\":1571:1575  vote */\n      dup7\n        /* \"Assembly.sol\":1571:1581  vote ==  2 */\n      sub\n        /* \"Assembly.sol\":1568:1641  if(vote ==  2){... */\n      tag_125\n      jumpi\n        /* \"Assembly.sol\":1597:1601  Laws */\n      0x03\n        /* \"Assembly.sol\":1616:1617  1 */\n      0x01\n        /* \"Assembly.sol\":1602:1606  Laws */\n      0x03\n        /* \"Assembly.sol\":1602:1613  Laws.length */\n      dup1\n      sload\n      swap1\n      pop\n        /* \"Assembly.sol\":1602:1617  Laws.length - 1 */\n      tag_126\n      swap2\n      swap1\n      tag_44\n      jump\t// in\n    tag_126:\n        /* \"Assembly.sol\":1597:1618  Laws[Laws.length - 1] */\n      dup2\n      sload\n      dup2\n      lt\n      tag_127\n      jumpi\n      tag_128\n      tag_47\n      jump\t// in\n    tag_128:\n    tag_127:\n      swap1\n      0x00\n      mstore\n      keccak256(0x00, 0x20)\n      swap1\n      0x07\n      mul\n      add\n        /* \"Assembly.sol\":1597:1627  Laws[Laws.length - 1]. Against */\n      0x03\n      add\n      0x00\n        /* \"Assembly.sol\":1597:1629  Laws[Laws.length - 1]. Against++ */\n      dup2\n      sload\n      dup1\n      swap3\n      swap2\n      swap1\n      tag_130\n      swap1\n      tag_50\n      jump\t// in\n    tag_130:\n      swap2\n      swap1\n      pop\n      sstore\n      pop\n        /* \"Assembly.sol\":1568:1641  if(vote ==  2){... */\n    tag_125:\n        /* \"Assembly.sol\":1663:1664  3 */\n      0x03\n        /* \"Assembly.sol\":1655:1659  vote */\n      dup7\n        /* \"Assembly.sol\":1655:1664  vote == 3 */\n      sub\n        /* \"Assembly.sol\":1651:1789  if( vote == 3 ){... */\n      tag_131\n      jumpi\n        /* \"Assembly.sol\":1676:1680  Laws */\n      0x03\n        /* \"Assembly.sol\":1695:1696  1 */\n      0x01\n        /* \"Assembly.sol\":1681:1685  Laws */\n      0x03\n        /* \"Assembly.sol\":1681:1692  Laws.length */\n      dup1\n      sload\n      swap1\n      pop\n        /* \"Assembly.sol\":1681:1696  Laws.length - 1 */\n      tag_132\n      swap2\n      swap1\n      tag_44\n      jump\t// in\n    tag_132:\n        /* \"Assembly.sol\":1676:1697  Laws[Laws.length - 1] */\n      dup2\n      sload\n      dup2\n      lt\n      tag_133\n      jumpi\n      tag_134\n      tag_47\n      jump\t// in\n    tag_134:\n    tag_133:\n      swap1\n      0x00\n      mstore\n      keccak256(0x00, 0x20)\n      swap1\n      0x07\n      mul\n      add\n        /* \"Assembly.sol\":1676:1704  Laws[Laws.length - 1].noidea */\n      0x04\n      add\n      0x00\n        /* \"Assembly.sol\":1676:1706  Laws[Laws.length - 1].noidea++ */\n      dup2\n      sload\n      dup1\n      swap3\n      swap2\n      swap1\n      tag_136\n      swap1\n      tag_50\n      jump\t// in\n    tag_136:\n      swap2\n      swap1\n      pop\n      sstore\n      pop\n        /* \"Assembly.sol\":1651:1789  if( vote == 3 ){... */\n      jump(tag_137)\n    tag_131:\n        /* \"Assembly.sol\":1748:1752  Laws */\n      0x03\n        /* \"Assembly.sol\":1767:1768  1 */\n      0x01\n        /* \"Assembly.sol\":1753:1757  Laws */\n      0x03\n        /* \"Assembly.sol\":1753:1764  Laws.length */\n      dup1\n      sload\n      swap1\n      pop\n        /* \"Assembly.sol\":1753:1768  Laws.length - 1 */\n      tag_138\n      swap2\n      swap1\n      tag_44\n      jump\t// in\n    tag_138:\n        /* \"Assembly.sol\":1748:1769  Laws[Laws.length - 1] */\n      dup2\n      sload\n      dup2\n      lt\n      tag_139\n      jumpi\n      tag_140\n      tag_47\n      jump\t// in\n    tag_140:\n    tag_139:\n      swap1\n      0x00\n      mstore\n      keccak256(0x00, 0x20)\n      swap1\n      0x07\n      mul\n      add\n        /* \"Assembly.sol\":1748:1774  Laws[Laws.length - 1].void */\n      0x05\n      add\n      0x00\n        /* \"Assembly.sol\":1748:1776  Laws[Laws.length - 1].void++ */\n      dup2\n      sload\n      dup1\n      swap3\n      swap2\n      swap1\n      tag_142\n      swap1\n      tag_50\n      jump\t// in\n    tag_142:\n      swap2\n      swap1\n      pop\n      sstore\n      pop\n        /* \"Assembly.sol\":1651:1789  if( vote == 3 ){... */\n    tag_137:\n        /* \"Assembly.sol\":1806:1810  Laws */\n      0x03\n        /* \"Assembly.sol\":1825:1826  1 */\n      0x01\n        /* \"Assembly.sol\":1811:1815  Laws */\n      0x03\n        /* \"Assembly.sol\":1811:1822  Laws.length */\n      dup1\n      sload\n      swap1\n      pop\n        /* \"Assembly.sol\":1811:1826  Laws.length - 1 */\n      tag_143\n      swap2\n      swap1\n      tag_44\n      jump\t// in\n    tag_143:\n        /* \"Assembly.sol\":1806:1827  Laws[Laws.length - 1] */\n      dup2\n      sload\n      dup2\n      lt\n      tag_144\n      jumpi\n      tag_145\n      tag_47\n      jump\t// in\n    tag_145:\n    tag_144:\n      swap1\n      0x00\n      mstore\n      keccak256(0x00, 0x20)\n      swap1\n      0x07\n      mul\n      add\n        /* \"Assembly.sol\":1806:1838  Laws[Laws.length - 1].totalvotes */\n      0x01\n      add\n      0x00\n        /* \"Assembly.sol\":1806:1841  Laws[Laws.length - 1].totalvotes ++ */\n      dup2\n      sload\n      dup1\n      swap3\n      swap2\n      swap1\n      tag_147\n      swap1\n      tag_50\n      jump\t// in\n    tag_147:\n      swap2\n      swap1\n      pop\n      sstore\n      pop\n        /* \"Assembly.sol\":1857:2019  voting( Laws[Laws.length - 1].totalvotes,  Laws[Laws.length - 1].agree, Laws[Laws.length - 1].Against,  Laws[Laws.length - 1].noidea,  Laws[Laws.length - 1].void) */\n      0xe6d2c32f5b44f4fb627ab6af5eaec2409ebe41956a260cd5df4013c9f39815b9\n        /* \"Assembly.sol\":1865:1869  Laws */\n      0x03\n        /* \"Assembly.sol\":1884:1885  1 */\n      0x01\n        /* \"Assembly.sol\":1870:1874  Laws */\n      0x03\n        /* \"Assembly.sol\":1870:1881  Laws.length */\n      dup1\n      sload\n      swap1\n      pop\n        /* \"Assembly.sol\":1870:1885  Laws.length - 1 */\n      tag_148\n      swap2\n      swap1\n      tag_44\n      jump\t// in\n    tag_148:\n        /* \"Assembly.sol\":1865:1886  Laws[Laws.length - 1] */\n      dup2\n      sload\n      dup2\n      lt\n      tag_149\n      jumpi\n      tag_150\n      tag_47\n      jump\t// in\n    tag_150:\n    tag_149:\n      swap1\n      0x00\n      mstore\n      keccak256(0x00, 0x20)\n      swap1\n      0x07\n      mul\n      add\n        /* \"Assembly.sol\":1865:1897  Laws[Laws.length - 1].totalvotes */\n      0x01\n      add\n      sload\n        /* \"Assembly.sol\":1900:1904  Laws */\n      0x03\n        /* \"Assembly.sol\":1919:1920  1 */\n      0x01\n        /* \"Assembly.sol\":1905:1909  Laws */\n      0x03\n        /* \"Assembly.sol\":1905:1916  Laws.length */\n      dup1\n      sload\n      swap1\n      pop\n        /* \"Assembly.sol\":1905:1920  Laws.length - 1 */\n      tag_152\n      swap2\n      swap1\n      tag_44\n      jump\t// in\n    tag_152:\n        /* \"Assembly.sol\":1900:1921  Laws[Laws.length - 1] */\n      dup2\n      sload\n      dup2\n      lt\n      tag_153\n      jumpi\n      tag_154\n      tag_47\n      jump\t// in\n    tag_154:\n    tag_153:\n      swap1\n      0x00\n      mstore\n      keccak256(0x00, 0x20)\n      swap1\n      0x07\n      mul\n      add\n        /* \"Assembly.sol\":1900:1927  Laws[Laws.length - 1].agree */\n      0x02\n      add\n      sload\n        /* \"Assembly.sol\":1929:1933  Laws */\n      0x03\n        /* \"Assembly.sol\":1948:1949  1 */\n      0x01\n        /* \"Assembly.sol\":1934:1938  Laws */\n      0x03\n        /* \"Assembly.sol\":1934:1945  Laws.length */\n      dup1\n      sload\n      swap1\n      pop\n        /* \"Assembly.sol\":1934:1949  Laws.length - 1 */\n      tag_156\n      swap2\n      swap1\n      tag_44\n      jump\t// in\n    tag_156:\n        /* \"Assembly.sol\":1929:1950  Laws[Laws.length - 1] */\n      dup2\n      sload\n      dup2\n      lt\n      tag_157\n      jumpi\n      tag_158\n      tag_47\n      jump\t// in\n    tag_158:\n    tag_157:\n      swap1\n      0x00\n      mstore\n      keccak256(0x00, 0x20)\n      swap1\n      0x07\n      mul\n      add\n        /* \"Assembly.sol\":1929:1958  Laws[Laws.length - 1].Against */\n      0x03\n      add\n      sload\n        /* \"Assembly.sol\":1961:1965  Laws */\n      0x03\n        /* \"Assembly.sol\":1980:1981  1 */\n      0x01\n        /* \"Assembly.sol\":1966:1970  Laws */\n      0x03\n        /* \"Assembly.sol\":1966:1977  Laws.length */\n      dup1\n      sload\n      swap1\n      pop\n        /* \"Assembly.sol\":1966:1981  Laws.length - 1 */\n      tag_160\n      swap2\n      swap1\n      tag_44\n      jump\t// in\n    tag_160:\n        /* \"Assembly.sol\":1961:1982  Laws[Laws.length - 1] */\n      dup2\n      sload\n      dup2\n      lt\n      tag_161\n      jumpi\n      tag_162\n      tag_47\n      jump\t// in\n    tag_162:\n    tag_161:\n      swap1\n      0x00\n      mstore\n      keccak256(0x00, 0x20)\n      swap1\n      0x07\n      mul\n      add\n        /* \"Assembly.sol\":1961:1989  Laws[Laws.length - 1].noidea */\n      0x04\n      add\n      sload\n        /* \"Assembly.sol\":1992:1996  Laws */\n      0x03\n        /* \"Assembly.sol\":2011:2012  1 */\n      0x01\n        /* \"Assembly.sol\":1997:2001  Laws */\n      0x03\n        /* \"Assembly.sol\":1997:2008  Laws.length */\n      dup1\n      sload\n      swap1\n      pop\n        /* \"Assembly.sol\":1997:2012  Laws.length - 1 */\n      tag_164\n      swap2\n      swap1\n      tag_44\n      jump\t// in\n    tag_164:\n        /* \"Assembly.sol\":1992:2013  Laws[Laws.length - 1] */\n      dup2\n      sload\n      dup2\n      lt\n      tag_165\n      jumpi\n      tag_166\n      tag_47\n      jump\t// in\n    tag_166:\n    tag_165:\n      swap1\n      0x00\n      mstore\n      keccak256(0x00, 0x20)\n      swap1\n      0x07\n      mul\n      add\n        /* \"Assembly.sol\":1992:2018  Laws[Laws.length - 1].void */\n      0x05\n      add\n      sload\n        /* \"Assembly.sol\":1857:2019  voting( Laws[Laws.length - 1].totalvotes,  Laws[Laws.length - 1].agree, Laws[Laws.length - 1].Against,  Laws[Laws.length - 1].noidea,  Laws[Laws.length - 1].void) */\n      mload(0x40)\n      tag_168\n      swap6\n      swap5\n      swap4\n      swap3\n      swap2\n      swap1\n      tag_24\n      jump\t// in\n    tag_168:\n      mload(0x40)\n      dup1\n      swap2\n      sub\n      swap1\n      log1\n        /* \"Assembly.sol\":2038:2042  Laws */\n      0x03\n        /* \"Assembly.sol\":2057:2058  1 */\n      0x01\n        /* \"Assembly.sol\":2043:2047  Laws */\n      0x03\n        /* \"Assembly.sol\":2043:2054  Laws.length */\n      dup1\n      sload\n      swap1\n      pop\n        /* \"Assembly.sol\":2043:2058  Laws.length - 1 */\n      tag_169\n      swap2\n      swap1\n      tag_44\n      jump\t// in\n    tag_169:\n        /* \"Assembly.sol\":2038:2059  Laws[Laws.length - 1] */\n      dup2\n      sload\n      dup2\n      lt\n      tag_170\n      jumpi\n      tag_171\n      tag_47\n      jump\t// in\n    tag_171:\n    tag_170:\n      swap1\n      0x00\n      mstore\n      keccak256(0x00, 0x20)\n      swap1\n      0x07\n      mul\n      add\n        /* \"Assembly.sol\":2038:2070  Laws[Laws.length - 1].totalvotes */\n      0x01\n      add\n      sload\n        /* \"Assembly.sol\":2073:2077  Laws */\n      0x03\n        /* \"Assembly.sol\":2092:2093  1 */\n      0x01\n        /* \"Assembly.sol\":2078:2082  Laws */\n      0x03\n        /* \"Assembly.sol\":2078:2089  Laws.length */\n      dup1\n      sload\n      swap1\n      pop\n        /* \"Assembly.sol\":2078:2093  Laws.length - 1 */\n      tag_173\n      swap2\n      swap1\n      tag_44\n      jump\t// in\n    tag_173:\n        /* \"Assembly.sol\":2073:2094  Laws[Laws.length - 1] */\n      dup2\n      sload\n      dup2\n      lt\n      tag_174\n      jumpi\n      tag_175\n      tag_47\n      jump\t// in\n    tag_175:\n    tag_174:\n      swap1\n      0x00\n      mstore\n      keccak256(0x00, 0x20)\n      swap1\n      0x07\n      mul\n      add\n        /* \"Assembly.sol\":2073:2100  Laws[Laws.length - 1].agree */\n      0x02\n      add\n      sload\n        /* \"Assembly.sol\":2104:2108  Laws */\n      0x03\n        /* \"Assembly.sol\":2123:2124  1 */\n      0x01\n        /* \"Assembly.sol\":2109:2113  Laws */\n      0x03\n        /* \"Assembly.sol\":2109:2120  Laws.length */\n      dup1\n      sload\n      swap1\n      pop\n        /* \"Assembly.sol\":2109:2124  Laws.length - 1 */\n      tag_177\n      swap2\n      swap1\n      tag_44\n      jump\t// in\n    tag_177:\n        /* \"Assembly.sol\":2104:2125  Laws[Laws.length - 1] */\n      dup2\n      sload\n      dup2\n      lt\n      tag_178\n      jumpi\n      tag_179\n      tag_47\n      jump\t// in\n    tag_179:\n    tag_178:\n      swap1\n      0x00\n      mstore\n      keccak256(0x00, 0x20)\n      swap1\n      0x07\n      mul\n      add\n        /* \"Assembly.sol\":2104:2133  Laws[Laws.length - 1].Against */\n      0x03\n      add\n      sload\n        /* \"Assembly.sol\":2135:2139  Laws */\n      0x03\n        /* \"Assembly.sol\":2154:2155  1 */\n      0x01\n        /* \"Assembly.sol\":2140:2144  Laws */\n      0x03\n        /* \"Assembly.sol\":2140:2151  Laws.length */\n      dup1\n      sload\n      swap1\n      pop\n        /* \"Assembly.sol\":2140:2155  Laws.length - 1 */\n      tag_181\n      swap2\n      swap1\n      tag_44\n      jump\t// in\n    tag_181:\n        /* \"Assembly.sol\":2135:2156  Laws[Laws.length - 1] */\n      dup2\n      sload\n      dup2\n      lt\n      tag_182\n      jumpi\n      tag_183\n      tag_47\n      jump\t// in\n    tag_183:\n    tag_182:\n      swap1\n      0x00\n      mstore\n      keccak256(0x00, 0x20)\n      swap1\n      0x07\n      mul\n      add\n        /* \"Assembly.sol\":2135:2163  Laws[Laws.length - 1].noidea */\n      0x04\n      add\n      sload\n        /* \"Assembly.sol\":2167:2171  Laws */\n      0x03\n        /* \"Assembly.sol\":2186:2187  1 */\n      0x01\n        /* \"Assembly.sol\":2172:2176  Laws */\n      0x03\n        /* \"Assembly.sol\":2172:2183  Laws.length */\n      dup1\n      sload\n      swap1\n      pop\n        /* \"Assembly.sol\":2172:2187  Laws.length - 1 */\n      tag_185\n      swap2\n      swap1\n      tag_44\n      jump\t// in\n    tag_185:\n        /* \"Assembly.sol\":2167:2188  Laws[Laws.length - 1] */\n      dup2\n      sload\n      dup2\n      lt\n      tag_186\n      jumpi\n      tag_187\n      tag_47\n      jump\t// in\n    tag_187:\n    tag_186:\n      swap1\n      0x00\n      mstore\n      keccak256(0x00, 0x20)\n      swap1\n      0x07\n      mul\n      add\n        /* \"Assembly.sol\":2167:2193  Laws[Laws.length - 1].void */\n      0x05\n      add\n      sload\n        /* \"Assembly.sol\":2030:2194  return( Laws[Laws.length - 1].totalvotes,  Laws[Laws.length - 1].agree ,  Laws[Laws.length - 1].Against, Laws[Laws.length - 1].noidea ,  Laws[Laws.length - 1].void) */\n      swap5\n      pop\n      swap5\n      pop\n      swap5\n      pop\n      swap5\n      pop\n      swap5\n      pop\n        /* \"Assembly.sol\":1373:2206  function hasRepresentatives(uint vote)public onlyRepresentative returns(uint ,uint , uint , uint , uint){... */\n      swap2\n      swap4\n      swap6\n      swap1\n      swap3\n      swap5\n      pop\n      jump\t// out\n        /* \"Assembly.sol\":2213:2690  function endOfVoting()public returns(uint _timestampstart, uint _totalvotes , uint _agree , uint _Against, uint _noidea , uint _void, uint _TimeStampEnd){... */\n    tag_26:\n        /* \"Assembly.sol\":2250:2270  uint _timestampstart */\n      0x00\n        /* \"Assembly.sol\":2272:2288  uint _totalvotes */\n      dup1\n        /* \"Assembly.sol\":2291:2302  uint _agree */\n      0x00\n        /* \"Assembly.sol\":2305:2318  uint _Against */\n      dup1\n        /* \"Assembly.sol\":2320:2332  uint _noidea */\n      0x00\n        /* \"Assembly.sol\":2335:2345  uint _void */\n      dup1\n        /* \"Assembly.sol\":2347:2365  uint _TimeStampEnd */\n      0x00\n        /* \"Assembly.sol\":2412:2427  block.timestamp */\n      timestamp\n        /* \"Assembly.sol\":2375:2379  Laws */\n      0x03\n        /* \"Assembly.sol\":2394:2395  1 */\n      0x01\n        /* \"Assembly.sol\":2380:2384  Laws */\n      0x03\n        /* \"Assembly.sol\":2380:2391  Laws.length */\n      dup1\n      sload\n      swap1\n      pop\n        /* \"Assembly.sol\":2380:2395  Laws.length - 1 */\n      tag_190\n      swap2\n      swap1\n      tag_44\n      jump\t// in\n    tag_190:\n        /* \"Assembly.sol\":2375:2396  Laws[Laws.length - 1] */\n      dup2\n      sload\n      dup2\n      lt\n      tag_191\n      jumpi\n      tag_192\n      tag_47\n      jump\t// in\n    tag_192:\n    tag_191:\n      swap1\n      0x00\n      mstore\n      keccak256(0x00, 0x20)\n      swap1\n      0x07\n      mul\n      add\n        /* \"Assembly.sol\":2375:2409  Laws[Laws.length - 1].TimeStampEnd */\n      0x06\n      add\n        /* \"Assembly.sol\":2375:2427  Laws[Laws.length - 1].TimeStampEnd = block.timestamp */\n      dup2\n      swap1\n      sstore\n      pop\n        /* \"Assembly.sol\":2445:2449  Laws */\n      0x03\n        /* \"Assembly.sol\":2464:2465  1 */\n      0x01\n        /* \"Assembly.sol\":2450:2454  Laws */\n      0x03\n        /* \"Assembly.sol\":2450:2461  Laws.length */\n      dup1\n      sload\n      swap1\n      pop\n        /* \"Assembly.sol\":2450:2465  Laws.length - 1 */\n      tag_194\n      swap2\n      swap1\n      tag_44\n      jump\t// in\n    tag_194:\n        /* \"Assembly.sol\":2445:2466  Laws[Laws.length - 1] */\n      dup2\n      sload\n      dup2\n      lt\n      tag_195\n      jumpi\n      tag_196\n      tag_47\n      jump\t// in\n    tag_196:\n    tag_195:\n      swap1\n      0x00\n      mstore\n      keccak256(0x00, 0x20)\n      swap1\n      0x07\n      mul\n      add\n        /* \"Assembly.sol\":2445:2481  Laws[Laws.length - 1].timestampstart */\n      0x00\n      add\n      sload\n        /* \"Assembly.sol\":2485:2489  Laws */\n      0x03\n        /* \"Assembly.sol\":2504:2505  1 */\n      0x01\n        /* \"Assembly.sol\":2490:2494  Laws */\n      0x03\n        /* \"Assembly.sol\":2490:2501  Laws.length */\n      dup1\n      sload\n      swap1\n      pop\n        /* \"Assembly.sol\":2490:2505  Laws.length - 1 */\n      tag_198\n      swap2\n      swap1\n      tag_44\n      jump\t// in\n    tag_198:\n        /* \"Assembly.sol\":2485:2506  Laws[Laws.length - 1] */\n      dup2\n      sload\n      dup2\n      lt\n      tag_199\n      jumpi\n      tag_200\n      tag_47\n      jump\t// in\n    tag_200:\n    tag_199:\n      swap1\n      0x00\n      mstore\n      keccak256(0x00, 0x20)\n      swap1\n      0x07\n      mul\n      add\n        /* \"Assembly.sol\":2485:2517  Laws[Laws.length - 1].totalvotes */\n      0x01\n      add\n      sload\n        /* \"Assembly.sol\":2521:2525  Laws */\n      0x03\n        /* \"Assembly.sol\":2540:2541  1 */\n      0x01\n        /* \"Assembly.sol\":2526:2530  Laws */\n      0x03\n        /* \"Assembly.sol\":2526:2537  Laws.length */\n      dup1\n      sload\n      swap1\n      pop\n        /* \"Assembly.sol\":2526:2541  Laws.length - 1 */\n      tag_202\n      swap2\n      swap1\n      tag_44\n      jump\t// in\n    tag_202:\n        /* \"Assembly.sol\":2521:2542  Laws[Laws.length - 1] */\n      dup2\n      sload\n      dup2\n      lt\n      tag_203\n      jumpi\n      tag_204\n      tag_47\n      jump\t// in\n    tag_204:\n    tag_203:\n      swap1\n      0x00\n      mstore\n      keccak256(0x00, 0x20)\n      swap1\n      0x07\n      mul\n      add\n        /* \"Assembly.sol\":2521:2548  Laws[Laws.length - 1].agree */\n      0x02\n      add\n      sload\n        /* \"Assembly.sol\":2552:2556  Laws */\n      0x03\n        /* \"Assembly.sol\":2571:2572  1 */\n      0x01\n        /* \"Assembly.sol\":2557:2561  Laws */\n      0x03\n        /* \"Assembly.sol\":2557:2568  Laws.length */\n      dup1\n      sload\n      swap1\n      pop\n        /* \"Assembly.sol\":2557:2572  Laws.length - 1 */\n      tag_206\n      swap2\n      swap1\n      tag_44\n      jump\t// in\n    tag_206:\n        /* \"Assembly.sol\":2552:2573  Laws[Laws.length - 1] */\n      dup2\n      sload\n      dup2\n      lt\n      tag_207\n      jumpi\n      tag_208\n      tag_47\n      jump\t// in\n    tag_208:\n    tag_207:\n      swap1\n      0x00\n      mstore\n      keccak256(0x00, 0x20)\n      swap1\n      0x07\n      mul\n      add\n        /* \"Assembly.sol\":2552:2581  Laws[Laws.length - 1].Against */\n      0x03\n      add\n      sload\n        /* \"Assembly.sol\":2585:2589  Laws */\n      0x03\n        /* \"Assembly.sol\":2604:2605  1 */\n      0x01\n        /* \"Assembly.sol\":2590:2594  Laws */\n      0x03\n        /* \"Assembly.sol\":2590:2601  Laws.length */\n      dup1\n      sload\n      swap1\n      pop\n        /* \"Assembly.sol\":2590:2605  Laws.length - 1 */\n      tag_210\n      swap2\n      swap1\n      tag_44\n      jump\t// in\n    tag_210:\n        /* \"Assembly.sol\":2585:2606  Laws[Laws.length - 1] */\n      dup2\n      sload\n      dup2\n      lt\n      tag_211\n      jumpi\n      tag_212\n      tag_47\n      jump\t// in\n    tag_212:\n    tag_211:\n      swap1\n      0x00\n      mstore\n      keccak256(0x00, 0x20)\n      swap1\n      0x07\n      mul\n      add\n        /* \"Assembly.sol\":2585:2613  Laws[Laws.length - 1].noidea */\n      0x04\n      add\n      sload\n        /* \"Assembly.sol\":2617:2621  Laws */\n      0x03\n        /* \"Assembly.sol\":2636:2637  1 */\n      0x01\n        /* \"Assembly.sol\":2622:2626  Laws */\n      0x03\n        /* \"Assembly.sol\":2622:2633  Laws.length */\n      dup1\n      sload\n      swap1\n      pop\n        /* \"Assembly.sol\":2622:2637  Laws.length - 1 */\n      tag_214\n      swap2\n      swap1\n      tag_44\n      jump\t// in\n    tag_214:\n        /* \"Assembly.sol\":2617:2638  Laws[Laws.length - 1] */\n      dup2\n      sload\n      dup2\n      lt\n      tag_215\n      jumpi\n      tag_216\n      tag_47\n      jump\t// in\n    tag_216:\n    tag_215:\n      swap1\n      0x00\n      mstore\n      keccak256(0x00, 0x20)\n      swap1\n      0x07\n      mul\n      add\n        /* \"Assembly.sol\":2617:2643  Laws[Laws.length - 1].void */\n      0x05\n      add\n      sload\n        /* \"Assembly.sol\":2647:2651  Laws */\n      0x03\n        /* \"Assembly.sol\":2666:2667  1 */\n      0x01\n        /* \"Assembly.sol\":2652:2656  Laws */\n      0x03\n        /* \"Assembly.sol\":2652:2663  Laws.length */\n      dup1\n      sload\n      swap1\n      pop\n        /* \"Assembly.sol\":2652:2667  Laws.length - 1 */\n      tag_218\n      swap2\n      swap1\n      tag_44\n      jump\t// in\n    tag_218:\n        /* \"Assembly.sol\":2647:2668  Laws[Laws.length - 1] */\n      dup2\n      sload\n      dup2\n      lt\n      tag_219\n      jumpi\n      tag_220\n      tag_47\n      jump\t// in\n    tag_220:\n    tag_219:\n      swap1\n      0x00\n      mstore\n      keccak256(0x00, 0x20)\n      swap1\n      0x07\n      mul\n      add\n        /* \"Assembly.sol\":2647:2681  Laws[Laws.length - 1].TimeStampEnd */\n      0x06\n      add\n      sload\n        /* \"Assembly.sol\":2437:2683  return( Laws[Laws.length - 1].timestampstart ,  Laws[Laws.length - 1].totalvotes ,  Laws[Laws.length - 1].agree ,  Laws[Laws.length - 1].Against ,  Laws[Laws.length - 1].noidea ,  Laws[Laws.length - 1].void ,  Laws[Laws.length - 1].TimeStampEnd ) */\n      swap7\n      pop\n      swap7\n      pop\n      swap7\n      pop\n      swap7\n      pop\n      swap7\n      pop\n      swap7\n      pop\n      swap7\n      pop\n        /* \"Assembly.sol\":2213:2690  function endOfVoting()public returns(uint _timestampstart, uint _totalvotes , uint _agree , uint _Against, uint _noidea , uint _void, uint _TimeStampEnd){... */\n      swap1\n      swap2\n      swap3\n      swap4\n      swap5\n      swap6\n      swap7\n      jump\t// out\n        /* \"Assembly.sol\":348:372  address[]public Chairman */\n    tag_31:\n      0x02\n      dup2\n      dup2\n      sload\n      dup2\n      lt\n      tag_222\n      jumpi\n      0x00\n      dup1\n      revert\n    tag_222:\n      swap1\n      0x00\n      mstore\n      keccak256(0x00, 0x20)\n      add\n      0x00\n      swap2\n      pop\n      sload\n      swap1\n      0x0100\n      exp\n      swap1\n      div\n      0xffffffffffffffffffffffffffffffffffffffff\n      and\n      dup2\n      jump\t// out\n        /* \"Assembly.sol\":1020:1361  function addlow(uint _timestampstart ,  uint _totalvotes, uint _Against , uint _agree ,uint _noidea ,uint _void  ,uint _TimeStampEnd)public{... */\n    tag_36:\n        /* \"Assembly.sol\":1171:1175  Laws */\n      0x03\n        /* \"Assembly.sol\":1181:1351  newlaw({timestampstart : _timestampstart ,totalvotes : _totalvotes, Against : _Against , agree : _agree , noidea : _noidea , void : _void ,TimeStampEnd : _TimeStampEnd }) */\n      mload(0x40)\n      dup1\n      0xe0\n      add\n      0x40\n      mstore\n      dup1\n        /* \"Assembly.sol\":1206:1221  _timestampstart */\n      dup10\n        /* \"Assembly.sol\":1181:1351  newlaw({timestampstart : _timestampstart ,totalvotes : _totalvotes, Against : _Against , agree : _agree , noidea : _noidea , void : _void ,TimeStampEnd : _TimeStampEnd }) */\n      dup2\n      mstore\n      0x20\n      add\n        /* \"Assembly.sol\":1236:1247  _totalvotes */\n      dup9\n        /* \"Assembly.sol\":1181:1351  newlaw({timestampstart : _timestampstart ,totalvotes : _totalvotes, Against : _Against , agree : _agree , noidea : _noidea , void : _void ,TimeStampEnd : _TimeStampEnd }) */\n      dup2\n      mstore\n      0x20\n      add\n        /* \"Assembly.sol\":1278:1284  _agree */\n      dup7\n        /* \"Assembly.sol\":1181:1351  newlaw({timestampstart : _timestampstart ,totalvotes : _totalvotes, Against : _Against , agree : _agree , noidea : _noidea , void : _void ,TimeStampEnd : _TimeStampEnd }) */\n      dup2\n      mstore\n      0x20\n      add\n        /* \"Assembly.sol\":1259:1267  _Against */\n      dup8\n        /* \"Assembly.sol\":1181:1351  newlaw({timestampstart : _timestampstart ,totalvotes : _totalvotes, Against : _Against , agree : _agree , noidea : _noidea , void : _void ,TimeStampEnd : _TimeStampEnd }) */\n      dup2\n      mstore\n      0x20\n      add\n        /* \"Assembly.sol\":1296:1303  _noidea */\n      dup6\n        /* \"Assembly.sol\":1181:1351  newlaw({timestampstart : _timestampstart ,totalvotes : _totalvotes, Against : _Against , agree : _agree , noidea : _noidea , void : _void ,TimeStampEnd : _TimeStampEnd }) */\n      dup2\n      mstore\n      0x20\n      add\n        /* \"Assembly.sol\":1313:1318  _void */\n      dup5\n        /* \"Assembly.sol\":1181:1351  newlaw({timestampstart : _timestampstart ,totalvotes : _totalvotes, Against : _Against , agree : _agree , noidea : _noidea , void : _void ,TimeStampEnd : _TimeStampEnd }) */\n      dup2\n      mstore\n      0x20\n      add\n        /* \"Assembly.sol\":1335:1348  _TimeStampEnd */\n      dup4\n        /* \"Assembly.sol\":1181:1351  newlaw({timestampstart : _timestampstart ,totalvotes : _totalvotes, Against : _Against , agree : _agree , noidea : _noidea , void : _void ,TimeStampEnd : _TimeStampEnd }) */\n      dup2\n      mstore\n      pop\n        /* \"Assembly.sol\":1171:1352  Laws.push(newlaw({timestampstart : _timestampstart ,totalvotes : _totalvotes, Against : _Against , agree : _agree , noidea : _noidea , void : _void ,TimeStampEnd : _TimeStampEnd })) */\n      swap1\n      dup1\n      0x01\n      dup2\n      sload\n      add\n      dup1\n      dup3\n      sstore\n      dup1\n      swap2\n      pop\n      pop\n      0x01\n      swap1\n      sub\n      swap1\n      0x00\n      mstore\n      keccak256(0x00, 0x20)\n      swap1\n      0x07\n      mul\n      add\n      0x00\n      swap1\n      swap2\n      swap1\n      swap2\n      swap1\n      swap2\n      pop\n      0x00\n      dup3\n      add\n      mload\n      dup2\n      0x00\n      add\n      sstore\n      0x20\n      dup3\n      add\n      mload\n      dup2\n      0x01\n      add\n      sstore\n      0x40\n      dup3\n      add\n      mload\n      dup2\n      0x02\n      add\n      sstore\n      0x60\n      dup3\n      add\n      mload\n      dup2\n      0x03\n      add\n      sstore\n      0x80\n      dup3\n      add\n      mload\n      dup2\n      0x04\n      add\n      sstore\n      0xa0\n      dup3\n      add\n      mload\n      dup2\n      0x05\n      add\n      sstore\n      0xc0\n      dup3\n      add\n      mload\n      dup2\n      0x06\n      add\n      sstore\n      pop\n      pop\n        /* \"Assembly.sol\":1020:1361  function addlow(uint _timestampstart ,  uint _totalvotes, uint _Against , uint _agree ,uint _noidea ,uint _void  ,uint _TimeStampEnd)public{... */\n      pop\n      pop\n      pop\n      pop\n      pop\n      pop\n      pop\n      jump\t// out\n        /* \"#utility.yul\":88:205   */\n    tag_227:\n        /* \"#utility.yul\":197:198   */\n      0x00\n        /* \"#utility.yul\":194:195   */\n      dup1\n        /* \"#utility.yul\":187:199   */\n      revert\n        /* \"#utility.yul\":334:460   */\n    tag_229:\n        /* \"#utility.yul\":371:378   */\n      0x00\n        /* \"#utility.yul\":411:453   */\n      0xffffffffffffffffffffffffffffffffffffffff\n        /* \"#utility.yul\":404:409   */\n      dup3\n        /* \"#utility.yul\":400:454   */\n      and\n        /* \"#utility.yul\":389:454   */\n      swap1\n      pop\n        /* \"#utility.yul\":334:460   */\n      swap2\n      swap1\n      pop\n      jump\t// out\n        /* \"#utility.yul\":466:562   */\n    tag_230:\n        /* \"#utility.yul\":503:510   */\n      0x00\n        /* \"#utility.yul\":532:556   */\n      tag_252\n        /* \"#utility.yul\":550:555   */\n      dup3\n        /* \"#utility.yul\":532:556   */\n      tag_229\n      jump\t// in\n    tag_252:\n        /* \"#utility.yul\":521:556   */\n      swap1\n      pop\n        /* \"#utility.yul\":466:562   */\n      swap2\n      swap1\n      pop\n      jump\t// out\n        /* \"#utility.yul\":568:690   */\n    tag_231:\n        /* \"#utility.yul\":641:665   */\n      tag_254\n        /* \"#utility.yul\":659:664   */\n      dup2\n        /* \"#utility.yul\":641:665   */\n      tag_230\n      jump\t// in\n    tag_254:\n        /* \"#utility.yul\":634:639   */\n      dup2\n        /* \"#utility.yul\":631:666   */\n      eq\n        /* \"#utility.yul\":621:684   */\n      tag_255\n      jumpi\n        /* \"#utility.yul\":680:681   */\n      0x00\n        /* \"#utility.yul\":677:678   */\n      dup1\n        /* \"#utility.yul\":670:682   */\n      revert\n        /* \"#utility.yul\":621:684   */\n    tag_255:\n        /* \"#utility.yul\":568:690   */\n      pop\n      jump\t// out\n        /* \"#utility.yul\":696:835   */\n    tag_232:\n        /* \"#utility.yul\":742:747   */\n      0x00\n        /* \"#utility.yul\":780:786   */\n      dup2\n        /* \"#utility.yul\":767:787   */\n      calldataload\n        /* \"#utility.yul\":758:787   */\n      swap1\n      pop\n        /* \"#utility.yul\":796:829   */\n      tag_257\n        /* \"#utility.yul\":823:828   */\n      dup2\n        /* \"#utility.yul\":796:829   */\n      tag_231\n      jump\t// in\n    tag_257:\n        /* \"#utility.yul\":696:835   */\n      swap3\n      swap2\n      pop\n      pop\n      jump\t// out\n        /* \"#utility.yul\":841:1170   */\n    tag_11:\n        /* \"#utility.yul\":900:906   */\n      0x00\n        /* \"#utility.yul\":949:951   */\n      0x20\n        /* \"#utility.yul\":937:946   */\n      dup3\n        /* \"#utility.yul\":928:935   */\n      dup5\n        /* \"#utility.yul\":924:947   */\n      sub\n        /* \"#utility.yul\":920:952   */\n      slt\n        /* \"#utility.yul\":917:1036   */\n      iszero\n      tag_259\n      jumpi\n        /* \"#utility.yul\":955:1034   */\n      tag_260\n      tag_227\n      jump\t// in\n    tag_260:\n        /* \"#utility.yul\":917:1036   */\n    tag_259:\n        /* \"#utility.yul\":1075:1076   */\n      0x00\n        /* \"#utility.yul\":1100:1153   */\n      tag_261\n        /* \"#utility.yul\":1145:1152   */\n      dup5\n        /* \"#utility.yul\":1136:1142   */\n      dup3\n        /* \"#utility.yul\":1125:1134   */\n      dup6\n        /* \"#utility.yul\":1121:1143   */\n      add\n        /* \"#utility.yul\":1100:1153   */\n      tag_232\n      jump\t// in\n    tag_261:\n        /* \"#utility.yul\":1090:1153   */\n      swap2\n      pop\n        /* \"#utility.yul\":1046:1163   */\n      pop\n        /* \"#utility.yul\":841:1170   */\n      swap3\n      swap2\n      pop\n      pop\n      jump\t// out\n        /* \"#utility.yul\":1176:1266   */\n    tag_233:\n        /* \"#utility.yul\":1210:1217   */\n      0x00\n        /* \"#utility.yul\":1253:1258   */\n      dup2\n        /* \"#utility.yul\":1246:1259   */\n      iszero\n        /* \"#utility.yul\":1239:1260   */\n      iszero\n        /* \"#utility.yul\":1228:1260   */\n      swap1\n      pop\n        /* \"#utility.yul\":1176:1266   */\n      swap2\n      swap1\n      pop\n      jump\t// out\n        /* \"#utility.yul\":1272:1381   */\n    tag_234:\n        /* \"#utility.yul\":1353:1374   */\n      tag_264\n        /* \"#utility.yul\":1368:1373   */\n      dup2\n        /* \"#utility.yul\":1353:1374   */\n      tag_233\n      jump\t// in\n    tag_264:\n        /* \"#utility.yul\":1348:1351   */\n      dup3\n        /* \"#utility.yul\":1341:1375   */\n      mstore\n        /* \"#utility.yul\":1272:1381   */\n      pop\n      pop\n      jump\t// out\n        /* \"#utility.yul\":1387:1597   */\n    tag_14:\n        /* \"#utility.yul\":1474:1478   */\n      0x00\n        /* \"#utility.yul\":1512:1514   */\n      0x20\n        /* \"#utility.yul\":1501:1510   */\n      dup3\n        /* \"#utility.yul\":1497:1515   */\n      add\n        /* \"#utility.yul\":1489:1515   */\n      swap1\n      pop\n        /* \"#utility.yul\":1525:1590   */\n      tag_266\n        /* \"#utility.yul\":1587:1588   */\n      0x00\n        /* \"#utility.yul\":1576:1585   */\n      dup4\n        /* \"#utility.yul\":1572:1589   */\n      add\n        /* \"#utility.yul\":1563:1569   */\n      dup5\n        /* \"#utility.yul\":1525:1590   */\n      tag_234\n      jump\t// in\n    tag_266:\n        /* \"#utility.yul\":1387:1597   */\n      swap3\n      swap2\n      pop\n      pop\n      jump\t// out\n        /* \"#utility.yul\":1603:1721   */\n    tag_235:\n        /* \"#utility.yul\":1690:1714   */\n      tag_268\n        /* \"#utility.yul\":1708:1713   */\n      dup2\n        /* \"#utility.yul\":1690:1714   */\n      tag_230\n      jump\t// in\n    tag_268:\n        /* \"#utility.yul\":1685:1688   */\n      dup3\n        /* \"#utility.yul\":1678:1715   */\n      mstore\n        /* \"#utility.yul\":1603:1721   */\n      pop\n      pop\n      jump\t// out\n        /* \"#utility.yul\":1727:1949   */\n    tag_18:\n        /* \"#utility.yul\":1820:1824   */\n      0x00\n        /* \"#utility.yul\":1858:1860   */\n      0x20\n        /* \"#utility.yul\":1847:1856   */\n      dup3\n        /* \"#utility.yul\":1843:1861   */\n      add\n        /* \"#utility.yul\":1835:1861   */\n      swap1\n      pop\n        /* \"#utility.yul\":1871:1942   */\n      tag_270\n        /* \"#utility.yul\":1939:1940   */\n      0x00\n        /* \"#utility.yul\":1928:1937   */\n      dup4\n        /* \"#utility.yul\":1924:1941   */\n      add\n        /* \"#utility.yul\":1915:1921   */\n      dup5\n        /* \"#utility.yul\":1871:1942   */\n      tag_235\n      jump\t// in\n    tag_270:\n        /* \"#utility.yul\":1727:1949   */\n      swap3\n      swap2\n      pop\n      pop\n      jump\t// out\n        /* \"#utility.yul\":1955:2032   */\n    tag_236:\n        /* \"#utility.yul\":1992:1999   */\n      0x00\n        /* \"#utility.yul\":2021:2026   */\n      dup2\n        /* \"#utility.yul\":2010:2026   */\n      swap1\n      pop\n        /* \"#utility.yul\":1955:2032   */\n      swap2\n      swap1\n      pop\n      jump\t// out\n        /* \"#utility.yul\":2038:2160   */\n    tag_237:\n        /* \"#utility.yul\":2111:2135   */\n      tag_273\n        /* \"#utility.yul\":2129:2134   */\n      dup2\n        /* \"#utility.yul\":2111:2135   */\n      tag_236\n      jump\t// in\n    tag_273:\n        /* \"#utility.yul\":2104:2109   */\n      dup2\n        /* \"#utility.yul\":2101:2136   */\n      eq\n        /* \"#utility.yul\":2091:2154   */\n      tag_274\n      jumpi\n        /* \"#utility.yul\":2150:2151   */\n      0x00\n        /* \"#utility.yul\":2147:2148   */\n      dup1\n        /* \"#utility.yul\":2140:2152   */\n      revert\n        /* \"#utility.yul\":2091:2154   */\n    tag_274:\n        /* \"#utility.yul\":2038:2160   */\n      pop\n      jump\t// out\n        /* \"#utility.yul\":2166:2305   */\n    tag_238:\n        /* \"#utility.yul\":2212:2217   */\n      0x00\n        /* \"#utility.yul\":2250:2256   */\n      dup2\n        /* \"#utility.yul\":2237:2257   */\n      calldataload\n        /* \"#utility.yul\":2228:2257   */\n      swap1\n      pop\n        /* \"#utility.yul\":2266:2299   */\n      tag_276\n        /* \"#utility.yul\":2293:2298   */\n      dup2\n        /* \"#utility.yul\":2266:2299   */\n      tag_237\n      jump\t// in\n    tag_276:\n        /* \"#utility.yul\":2166:2305   */\n      swap3\n      swap2\n      pop\n      pop\n      jump\t// out\n        /* \"#utility.yul\":2311:2640   */\n    tag_21:\n        /* \"#utility.yul\":2370:2376   */\n      0x00\n        /* \"#utility.yul\":2419:2421   */\n      0x20\n        /* \"#utility.yul\":2407:2416   */\n      dup3\n        /* \"#utility.yul\":2398:2405   */\n      dup5\n        /* \"#utility.yul\":2394:2417   */\n      sub\n        /* \"#utility.yul\":2390:2422   */\n      slt\n        /* \"#utility.yul\":2387:2506   */\n      iszero\n      tag_278\n      jumpi\n        /* \"#utility.yul\":2425:2504   */\n      tag_279\n      tag_227\n      jump\t// in\n    tag_279:\n        /* \"#utility.yul\":2387:2506   */\n    tag_278:\n        /* \"#utility.yul\":2545:2546   */\n      0x00\n        /* \"#utility.yul\":2570:2623   */\n      tag_280\n        /* \"#utility.yul\":2615:2622   */\n      dup5\n        /* \"#utility.yul\":2606:2612   */\n      dup3\n        /* \"#utility.yul\":2595:2604   */\n      dup6\n        /* \"#utility.yul\":2591:2613   */\n      add\n        /* \"#utility.yul\":2570:2623   */\n      tag_238\n      jump\t// in\n    tag_280:\n        /* \"#utility.yul\":2560:2623   */\n      swap2\n      pop\n        /* \"#utility.yul\":2516:2633   */\n      pop\n        /* \"#utility.yul\":2311:2640   */\n      swap3\n      swap2\n      pop\n      pop\n      jump\t// out\n        /* \"#utility.yul\":2646:2764   */\n    tag_239:\n        /* \"#utility.yul\":2733:2757   */\n      tag_282\n        /* \"#utility.yul\":2751:2756   */\n      dup2\n        /* \"#utility.yul\":2733:2757   */\n      tag_236\n      jump\t// in\n    tag_282:\n        /* \"#utility.yul\":2728:2731   */\n      dup3\n        /* \"#utility.yul\":2721:2758   */\n      mstore\n        /* \"#utility.yul\":2646:2764   */\n      pop\n      pop\n      jump\t// out\n        /* \"#utility.yul\":2770:3434   */\n    tag_24:\n        /* \"#utility.yul\":2975:2979   */\n      0x00\n        /* \"#utility.yul\":3013:3016   */\n      0xa0\n        /* \"#utility.yul\":3002:3011   */\n      dup3\n        /* \"#utility.yul\":2998:3017   */\n      add\n        /* \"#utility.yul\":2990:3017   */\n      swap1\n      pop\n        /* \"#utility.yul\":3027:3098   */\n      tag_284\n        /* \"#utility.yul\":3095:3096   */\n      0x00\n        /* \"#utility.yul\":3084:3093   */\n      dup4\n        /* \"#utility.yul\":3080:3097   */\n      add\n        /* \"#utility.yul\":3071:3077   */\n      dup9\n        /* \"#utility.yul\":3027:3098   */\n      tag_239\n      jump\t// in\n    tag_284:\n        /* \"#utility.yul\":3108:3180   */\n      tag_285\n        /* \"#utility.yul\":3176:3178   */\n      0x20\n        /* \"#utility.yul\":3165:3174   */\n      dup4\n        /* \"#utility.yul\":3161:3179   */\n      add\n        /* \"#utility.yul\":3152:3158   */\n      dup8\n        /* \"#utility.yul\":3108:3180   */\n      tag_239\n      jump\t// in\n    tag_285:\n        /* \"#utility.yul\":3190:3262   */\n      tag_286\n        /* \"#utility.yul\":3258:3260   */\n      0x40\n        /* \"#utility.yul\":3247:3256   */\n      dup4\n        /* \"#utility.yul\":3243:3261   */\n      add\n        /* \"#utility.yul\":3234:3240   */\n      dup7\n        /* \"#utility.yul\":3190:3262   */\n      tag_239\n      jump\t// in\n    tag_286:\n        /* \"#utility.yul\":3272:3344   */\n      tag_287\n        /* \"#utility.yul\":3340:3342   */\n      0x60\n        /* \"#utility.yul\":3329:3338   */\n      dup4\n        /* \"#utility.yul\":3325:3343   */\n      add\n        /* \"#utility.yul\":3316:3322   */\n      dup6\n        /* \"#utility.yul\":3272:3344   */\n      tag_239\n      jump\t// in\n    tag_287:\n        /* \"#utility.yul\":3354:3427   */\n      tag_288\n        /* \"#utility.yul\":3422:3425   */\n      0x80\n        /* \"#utility.yul\":3411:3420   */\n      dup4\n        /* \"#utility.yul\":3407:3426   */\n      add\n        /* \"#utility.yul\":3398:3404   */\n      dup5\n        /* \"#utility.yul\":3354:3427   */\n      tag_239\n      jump\t// in\n    tag_288:\n        /* \"#utility.yul\":2770:3434   */\n      swap7\n      swap6\n      pop\n      pop\n      pop\n      pop\n      pop\n      pop\n      jump\t// out\n        /* \"#utility.yul\":3440:4326   */\n    tag_28:\n        /* \"#utility.yul\":3701:3705   */\n      0x00\n        /* \"#utility.yul\":3739:3742   */\n      0xe0\n        /* \"#utility.yul\":3728:3737   */\n      dup3\n        /* \"#utility.yul\":3724:3743   */\n      add\n        /* \"#utility.yul\":3716:3743   */\n      swap1\n      pop\n        /* \"#utility.yul\":3753:3824   */\n      tag_290\n        /* \"#utility.yul\":3821:3822   */\n      0x00\n        /* \"#utility.yul\":3810:3819   */\n      dup4\n        /* \"#utility.yul\":3806:3823   */\n      add\n        /* \"#utility.yul\":3797:3803   */\n      dup11\n        /* \"#utility.yul\":3753:3824   */\n      tag_239\n      jump\t// in\n    tag_290:\n        /* \"#utility.yul\":3834:3906   */\n      tag_291\n        /* \"#utility.yul\":3902:3904   */\n      0x20\n        /* \"#utility.yul\":3891:3900   */\n      dup4\n        /* \"#utility.yul\":3887:3905   */\n      add\n        /* \"#utility.yul\":3878:3884   */\n      dup10\n        /* \"#utility.yul\":3834:3906   */\n      tag_239\n      jump\t// in\n    tag_291:\n        /* \"#utility.yul\":3916:3988   */\n      tag_292\n        /* \"#utility.yul\":3984:3986   */\n      0x40\n        /* \"#utility.yul\":3973:3982   */\n      dup4\n        /* \"#utility.yul\":3969:3987   */\n      add\n        /* \"#utility.yul\":3960:3966   */\n      dup9\n        /* \"#utility.yul\":3916:3988   */\n      tag_239\n      jump\t// in\n    tag_292:\n        /* \"#utility.yul\":3998:4070   */\n      tag_293\n        /* \"#utility.yul\":4066:4068   */\n      0x60\n        /* \"#utility.yul\":4055:4064   */\n      dup4\n        /* \"#utility.yul\":4051:4069   */\n      add\n        /* \"#utility.yul\":4042:4048   */\n      dup8\n        /* \"#utility.yul\":3998:4070   */\n      tag_239\n      jump\t// in\n    tag_293:\n        /* \"#utility.yul\":4080:4153   */\n      tag_294\n        /* \"#utility.yul\":4148:4151   */\n      0x80\n        /* \"#utility.yul\":4137:4146   */\n      dup4\n        /* \"#utility.yul\":4133:4152   */\n      add\n        /* \"#utility.yul\":4124:4130   */\n      dup7\n        /* \"#utility.yul\":4080:4153   */\n      tag_239\n      jump\t// in\n    tag_294:\n        /* \"#utility.yul\":4163:4236   */\n      tag_295\n        /* \"#utility.yul\":4231:4234   */\n      0xa0\n        /* \"#utility.yul\":4220:4229   */\n      dup4\n        /* \"#utility.yul\":4216:4235   */\n      add\n        /* \"#utility.yul\":4207:4213   */\n      dup6\n        /* \"#utility.yul\":4163:4236   */\n      tag_239\n      jump\t// in\n    tag_295:\n        /* \"#utility.yul\":4246:4319   */\n      tag_296\n        /* \"#utility.yul\":4314:4317   */\n      0xc0\n        /* \"#utility.yul\":4303:4312   */\n      dup4\n        /* \"#utility.yul\":4299:4318   */\n      add\n        /* \"#utility.yul\":4290:4296   */\n      dup5\n        /* \"#utility.yul\":4246:4319   */\n      tag_239\n      jump\t// in\n    tag_296:\n        /* \"#utility.yul\":3440:4326   */\n      swap9\n      swap8\n      pop\n      pop\n      pop\n      pop\n      pop\n      pop\n      pop\n      pop\n      jump\t// out\n        /* \"#utility.yul\":4332:5535   */\n    tag_35:\n        /* \"#utility.yul\":4445:4451   */\n      0x00\n        /* \"#utility.yul\":4453:4459   */\n      dup1\n        /* \"#utility.yul\":4461:4467   */\n      0x00\n        /* \"#utility.yul\":4469:4475   */\n      dup1\n        /* \"#utility.yul\":4477:4483   */\n      0x00\n        /* \"#utility.yul\":4485:4491   */\n      dup1\n        /* \"#utility.yul\":4493:4499   */\n      0x00\n        /* \"#utility.yul\":4542:4545   */\n      0xe0\n        /* \"#utility.yul\":4530:4539   */\n      dup9\n        /* \"#utility.yul\":4521:4528   */\n      dup11\n        /* \"#utility.yul\":4517:4540   */\n      sub\n        /* \"#utility.yul\":4513:4546   */\n      slt\n        /* \"#utility.yul\":4510:4630   */\n      iszero\n      tag_298\n      jumpi\n        /* \"#utility.yul\":4549:4628   */\n      tag_299\n      tag_227\n      jump\t// in\n    tag_299:\n        /* \"#utility.yul\":4510:4630   */\n    tag_298:\n        /* \"#utility.yul\":4669:4670   */\n      0x00\n        /* \"#utility.yul\":4694:4747   */\n      tag_300\n        /* \"#utility.yul\":4739:4746   */\n      dup11\n        /* \"#utility.yul\":4730:4736   */\n      dup3\n        /* \"#utility.yul\":4719:4728   */\n      dup12\n        /* \"#utility.yul\":4715:4737   */\n      add\n        /* \"#utility.yul\":4694:4747   */\n      tag_238\n      jump\t// in\n    tag_300:\n        /* \"#utility.yul\":4684:4747   */\n      swap8\n      pop\n        /* \"#utility.yul\":4640:4757   */\n      pop\n        /* \"#utility.yul\":4796:4798   */\n      0x20\n        /* \"#utility.yul\":4822:4875   */\n      tag_301\n        /* \"#utility.yul\":4867:4874   */\n      dup11\n        /* \"#utility.yul\":4858:4864   */\n      dup3\n        /* \"#utility.yul\":4847:4856   */\n      dup12\n        /* \"#utility.yul\":4843:4865   */\n      add\n        /* \"#utility.yul\":4822:4875   */\n      tag_238\n      jump\t// in\n    tag_301:\n        /* \"#utility.yul\":4812:4875   */\n      swap7\n      pop\n        /* \"#utility.yul\":4767:4885   */\n      pop\n        /* \"#utility.yul\":4924:4926   */\n      0x40\n        /* \"#utility.yul\":4950:5003   */\n      tag_302\n        /* \"#utility.yul\":4995:5002   */\n      dup11\n        /* \"#utility.yul\":4986:4992   */\n      dup3\n        /* \"#utility.yul\":4975:4984   */\n      dup12\n        /* \"#utility.yul\":4971:4993   */\n      add\n        /* \"#utility.yul\":4950:5003   */\n      tag_238\n      jump\t// in\n    tag_302:\n        /* \"#utility.yul\":4940:5003   */\n      swap6\n      pop\n        /* \"#utility.yul\":4895:5013   */\n      pop\n        /* \"#utility.yul\":5052:5054   */\n      0x60\n        /* \"#utility.yul\":5078:5131   */\n      tag_303\n        /* \"#utility.yul\":5123:5130   */\n      dup11\n        /* \"#utility.yul\":5114:5120   */\n      dup3\n        /* \"#utility.yul\":5103:5112   */\n      dup12\n        /* \"#utility.yul\":5099:5121   */\n      add\n        /* \"#utility.yul\":5078:5131   */\n      tag_238\n      jump\t// in\n    tag_303:\n        /* \"#utility.yul\":5068:5131   */\n      swap5\n      pop\n        /* \"#utility.yul\":5023:5141   */\n      pop\n        /* \"#utility.yul\":5180:5183   */\n      0x80\n        /* \"#utility.yul\":5207:5260   */\n      tag_304\n        /* \"#utility.yul\":5252:5259   */\n      dup11\n        /* \"#utility.yul\":5243:5249   */\n      dup3\n        /* \"#utility.yul\":5232:5241   */\n      dup12\n        /* \"#utility.yul\":5228:5250   */\n      add\n        /* \"#utility.yul\":5207:5260   */\n      tag_238\n      jump\t// in\n    tag_304:\n        /* \"#utility.yul\":5197:5260   */\n      swap4\n      pop\n        /* \"#utility.yul\":5151:5270   */\n      pop\n        /* \"#utility.yul\":5309:5312   */\n      0xa0\n        /* \"#utility.yul\":5336:5389   */\n      tag_305\n        /* \"#utility.yul\":5381:5388   */\n      dup11\n        /* \"#utility.yul\":5372:5378   */\n      dup3\n        /* \"#utility.yul\":5361:5370   */\n      dup12\n        /* \"#utility.yul\":5357:5379   */\n      add\n        /* \"#utility.yul\":5336:5389   */\n      tag_238\n      jump\t// in\n    tag_305:\n        /* \"#utility.yul\":5326:5389   */\n      swap3\n      pop\n        /* \"#utility.yul\":5280:5399   */\n      pop\n        /* \"#utility.yul\":5438:5441   */\n      0xc0\n        /* \"#utility.yul\":5465:5518   */\n      tag_306\n        /* \"#utility.yul\":5510:5517   */\n      dup11\n        /* \"#utility.yul\":5501:5507   */\n      dup3\n        /* \"#utility.yul\":5490:5499   */\n      dup12\n        /* \"#utility.yul\":5486:5508   */\n      add\n        /* \"#utility.yul\":5465:5518   */\n      tag_238\n      jump\t// in\n    tag_306:\n        /* \"#utility.yul\":5455:5518   */\n      swap2\n      pop\n        /* \"#utility.yul\":5409:5528   */\n      pop\n        /* \"#utility.yul\":4332:5535   */\n      swap3\n      swap6\n      swap9\n      swap2\n      swap5\n      swap8\n      pop\n      swap3\n      swap6\n      pop\n      jump\t// out\n        /* \"#utility.yul\":5541:5710   */\n    tag_240:\n        /* \"#utility.yul\":5625:5636   */\n      0x00\n        /* \"#utility.yul\":5659:5665   */\n      dup3\n        /* \"#utility.yul\":5654:5657   */\n      dup3\n        /* \"#utility.yul\":5647:5666   */\n      mstore\n        /* \"#utility.yul\":5699:5703   */\n      0x20\n        /* \"#utility.yul\":5694:5697   */\n      dup3\n        /* \"#utility.yul\":5690:5704   */\n      add\n        /* \"#utility.yul\":5675:5704   */\n      swap1\n      pop\n        /* \"#utility.yul\":5541:5710   */\n      swap3\n      swap2\n      pop\n      pop\n      jump\t// out\n        /* \"#utility.yul\":5716:5946   */\n    tag_241:\n        /* \"#utility.yul\":5856:5890   */\n      0x526570726573656e74617469766573206f6e6c79206861766520746865207269\n        /* \"#utility.yul\":5852:5853   */\n      0x00\n        /* \"#utility.yul\":5844:5850   */\n      dup3\n        /* \"#utility.yul\":5840:5854   */\n      add\n        /* \"#utility.yul\":5833:5891   */\n      mstore\n        /* \"#utility.yul\":5925:5938   */\n      0x67687420746f20766f7465000000000000000000000000000000000000000000\n        /* \"#utility.yul\":5920:5922   */\n      0x20\n        /* \"#utility.yul\":5912:5918   */\n      dup3\n        /* \"#utility.yul\":5908:5923   */\n      add\n        /* \"#utility.yul\":5901:5939   */\n      mstore\n        /* \"#utility.yul\":5716:5946   */\n      pop\n      jump\t// out\n        /* \"#utility.yul\":5952:6318   */\n    tag_242:\n        /* \"#utility.yul\":6094:6097   */\n      0x00\n        /* \"#utility.yul\":6115:6182   */\n      tag_310\n        /* \"#utility.yul\":6179:6181   */\n      0x2b\n        /* \"#utility.yul\":6174:6177   */\n      dup4\n        /* \"#utility.yul\":6115:6182   */\n      tag_240\n      jump\t// in\n    tag_310:\n        /* \"#utility.yul\":6108:6182   */\n      swap2\n      pop\n        /* \"#utility.yul\":6191:6284   */\n      tag_311\n        /* \"#utility.yul\":6280:6283   */\n      dup3\n        /* \"#utility.yul\":6191:6284   */\n      tag_241\n      jump\t// in\n    tag_311:\n        /* \"#utility.yul\":6309:6311   */\n      0x40\n        /* \"#utility.yul\":6304:6307   */\n      dup3\n        /* \"#utility.yul\":6300:6312   */\n      add\n        /* \"#utility.yul\":6293:6312   */\n      swap1\n      pop\n        /* \"#utility.yul\":5952:6318   */\n      swap2\n      swap1\n      pop\n      jump\t// out\n        /* \"#utility.yul\":6324:6743   */\n    tag_40:\n        /* \"#utility.yul\":6490:6494   */\n      0x00\n        /* \"#utility.yul\":6528:6530   */\n      0x20\n        /* \"#utility.yul\":6517:6526   */\n      dup3\n        /* \"#utility.yul\":6513:6531   */\n      add\n        /* \"#utility.yul\":6505:6531   */\n      swap1\n      pop\n        /* \"#utility.yul\":6577:6586   */\n      dup2\n        /* \"#utility.yul\":6571:6575   */\n      dup2\n        /* \"#utility.yul\":6567:6587   */\n      sub\n        /* \"#utility.yul\":6563:6564   */\n      0x00\n        /* \"#utility.yul\":6552:6561   */\n      dup4\n        /* \"#utility.yul\":6548:6565   */\n      add\n        /* \"#utility.yul\":6541:6588   */\n      mstore\n        /* \"#utility.yul\":6605:6736   */\n      tag_313\n        /* \"#utility.yul\":6731:6735   */\n      dup2\n        /* \"#utility.yul\":6605:6736   */\n      tag_242\n      jump\t// in\n    tag_313:\n        /* \"#utility.yul\":6597:6736   */\n      swap1\n      pop\n        /* \"#utility.yul\":6324:6743   */\n      swap2\n      swap1\n      pop\n      jump\t// out\n        /* \"#utility.yul\":6749:6929   */\n    tag_243:\n        /* \"#utility.yul\":6797:6874   */\n      0x4e487b7100000000000000000000000000000000000000000000000000000000\n        /* \"#utility.yul\":6794:6795   */\n      0x00\n        /* \"#utility.yul\":6787:6875   */\n      mstore\n        /* \"#utility.yul\":6894:6898   */\n      0x11\n        /* \"#utility.yul\":6891:6892   */\n      0x04\n        /* \"#utility.yul\":6884:6899   */\n      mstore\n        /* \"#utility.yul\":6918:6922   */\n      0x24\n        /* \"#utility.yul\":6915:6916   */\n      0x00\n        /* \"#utility.yul\":6908:6923   */\n      revert\n        /* \"#utility.yul\":6935:7129   */\n    tag_44:\n        /* \"#utility.yul\":6975:6979   */\n      0x00\n        /* \"#utility.yul\":6995:7015   */\n      tag_316\n        /* \"#utility.yul\":7013:7014   */\n      dup3\n        /* \"#utility.yul\":6995:7015   */\n      tag_236\n      jump\t// in\n    tag_316:\n        /* \"#utility.yul\":6990:7015   */\n      swap2\n      pop\n        /* \"#utility.yul\":7029:7049   */\n      tag_317\n        /* \"#utility.yul\":7047:7048   */\n      dup4\n        /* \"#utility.yul\":7029:7049   */\n      tag_236\n      jump\t// in\n    tag_317:\n        /* \"#utility.yul\":7024:7049   */\n      swap3\n      pop\n        /* \"#utility.yul\":7073:7074   */\n      dup3\n        /* \"#utility.yul\":7070:7071   */\n      dup3\n        /* \"#utility.yul\":7066:7075   */\n      sub\n        /* \"#utility.yul\":7058:7075   */\n      swap1\n      pop\n        /* \"#utility.yul\":7097:7098   */\n      dup2\n        /* \"#utility.yul\":7091:7095   */\n      dup2\n        /* \"#utility.yul\":7088:7099   */\n      gt\n        /* \"#utility.yul\":7085:7122   */\n      iszero\n      tag_318\n      jumpi\n        /* \"#utility.yul\":7102:7120   */\n      tag_319\n      tag_243\n      jump\t// in\n    tag_319:\n        /* \"#utility.yul\":7085:7122   */\n    tag_318:\n        /* \"#utility.yul\":6935:7129   */\n      swap3\n      swap2\n      pop\n      pop\n      jump\t// out\n        /* \"#utility.yul\":7135:7315   */\n    tag_47:\n        /* \"#utility.yul\":7183:7260   */\n      0x4e487b7100000000000000000000000000000000000000000000000000000000\n        /* \"#utility.yul\":7180:7181   */\n      0x00\n        /* \"#utility.yul\":7173:7261   */\n      mstore\n        /* \"#utility.yul\":7280:7284   */\n      0x32\n        /* \"#utility.yul\":7277:7278   */\n      0x04\n        /* \"#utility.yul\":7270:7285   */\n      mstore\n        /* \"#utility.yul\":7304:7308   */\n      0x24\n        /* \"#utility.yul\":7301:7302   */\n      0x00\n        /* \"#utility.yul\":7294:7309   */\n      revert\n        /* \"#utility.yul\":7321:7554   */\n    tag_50:\n        /* \"#utility.yul\":7360:7363   */\n      0x00\n        /* \"#utility.yul\":7383:7407   */\n      tag_322\n        /* \"#utility.yul\":7401:7406   */\n      dup3\n        /* \"#utility.yul\":7383:7407   */\n      tag_236\n      jump\t// in\n    tag_322:\n        /* \"#utility.yul\":7374:7407   */\n      swap2\n      pop\n        /* \"#utility.yul\":7429:7495   */\n      0xffffffffffffffffffffffffffffffffffffffffffffffffffffffffffffffff\n        /* \"#utility.yul\":7422:7427   */\n      dup3\n        /* \"#utility.yul\":7419:7496   */\n      sub\n        /* \"#utility.yul\":7416:7519   */\n      tag_323\n      jumpi\n        /* \"#utility.yul\":7499:7517   */\n      tag_324\n      tag_243\n      jump\t// in\n    tag_324:\n        /* \"#utility.yul\":7416:7519   */\n    tag_323:\n        /* \"#utility.yul\":7546:7547   */\n      0x01\n        /* \"#utility.yul\":7539:7544   */\n      dup3\n        /* \"#utility.yul\":7535:7548   */\n      add\n        /* \"#utility.yul\":7528:7548   */\n      swap1\n      pop\n        /* \"#utility.yul\":7321:7554   */\n      swap2\n      swap1\n      pop\n      jump\t// out\n        /* \"#utility.yul\":7560:7732   */\n    tag_244:\n        /* \"#utility.yul\":7700:7724   */\n      0x596f75206861766520616c726561647920766f74656400000000000000000000\n        /* \"#utility.yul\":7696:7697   */\n      0x00\n        /* \"#utility.yul\":7688:7694   */\n      dup3\n        /* \"#utility.yul\":7684:7698   */\n      add\n        /* \"#utility.yul\":7677:7725   */\n      mstore\n        /* \"#utility.yul\":7560:7732   */\n      pop\n      jump\t// out\n        /* \"#utility.yul\":7738:8104   */\n    tag_245:\n        /* \"#utility.yul\":7880:7883   */\n      0x00\n        /* \"#utility.yul\":7901:7968   */\n      tag_327\n        /* \"#utility.yul\":7965:7967   */\n      0x16\n        /* \"#utility.yul\":7960:7963   */\n      dup4\n        /* \"#utility.yul\":7901:7968   */\n      tag_240\n      jump\t// in\n    tag_327:\n        /* \"#utility.yul\":7894:7968   */\n      swap2\n      pop\n        /* \"#utility.yul\":7977:8070   */\n      tag_328\n        /* \"#utility.yul\":8066:8069   */\n      dup3\n        /* \"#utility.yul\":7977:8070   */\n      tag_244\n      jump\t// in\n    tag_328:\n        /* \"#utility.yul\":8095:8097   */\n      0x20\n        /* \"#utility.yul\":8090:8093   */\n      dup3\n        /* \"#utility.yul\":8086:8098   */\n      add\n        /* \"#utility.yul\":8079:8098   */\n      swap1\n      pop\n        /* \"#utility.yul\":7738:8104   */\n      swap2\n      swap1\n      pop\n      jump\t// out\n        /* \"#utility.yul\":8110:8529   */\n    tag_117:\n        /* \"#utility.yul\":8276:8280   */\n      0x00\n        /* \"#utility.yul\":8314:8316   */\n      0x20\n        /* \"#utility.yul\":8303:8312   */\n      dup3\n        /* \"#utility.yul\":8299:8317   */\n      add\n        /* \"#utility.yul\":8291:8317   */\n      swap1\n      pop\n        /* \"#utility.yul\":8363:8372   */\n      dup2\n        /* \"#utility.yul\":8357:8361   */\n      dup2\n        /* \"#utility.yul\":8353:8373   */\n      sub\n        /* \"#utility.yul\":8349:8350   */\n      0x00\n        /* \"#utility.yul\":8338:8347   */\n      dup4\n        /* \"#utility.yul\":8334:8351   */\n      add\n        /* \"#utility.yul\":8327:8374   */\n      mstore\n        /* \"#utility.yul\":8391:8522   */\n      tag_330\n        /* \"#utility.yul\":8517:8521   */\n      dup2\n        /* \"#utility.yul\":8391:8522   */\n      tag_245\n      jump\t// in\n    tag_330:\n        /* \"#utility.yul\":8383:8522   */\n      swap1\n      pop\n        /* \"#utility.yul\":8110:8529   */\n      swap2\n      swap1\n      pop\n      jump\t// out\n\n    auxdata: 0xa2646970667358221220fed8afa1f7efcb9aedb521e7e947e903dc7d3e05390c5417f53786e3113ca65364736f6c63430008120033\n}\n",
				"bytecode": {
					"linkReferences": {},
					"object": "608060405234801561001057600080fd5b50611289806100206000396000f3fe608060405234801561001057600080fd5b50600436106100625760003560e01c8063109241e714610067578063396abc841461009757806374265c68146100b55780637e887332146100e9578063b3ef4aa41461010d578063fa1ad70c1461013d575b600080fd5b610081600480360381019061007c9190610e07565b610159565b60405161008e9190610e4f565b60405180910390f35b61009f610179565b6040516100ac9190610e79565b60405180910390f35b6100cf60048036038101906100ca9190610eca565b61019f565b6040516100e0959493929190610f06565b60405180910390f35b6100f1610ad8565b6040516101049796959493929190610f59565b60405180910390f35b61012760048036038101906101229190610eca565b610cb6565b6040516101349190610e79565b60405180910390f35b61015760048036038101906101529190610fc8565b610cf5565b005b60006020528060005260406000206000915054906101000a900460ff1681565b600160009054906101000a900473ffffffffffffffffffffffffffffffffffffffff1681565b6000806000806000600160009054906101000a900473ffffffffffffffffffffffffffffffffffffffff1673ffffffffffffffffffffffffffffffffffffffff163373ffffffffffffffffffffffffffffffffffffffff1614610237576040517f08c379a000000000000000000000000000000000000000000000000000000000815260040161022e906110ed565b60405180910390fd5b6001860361028c5760036001600380549050610253919061113c565b8154811061026457610263611170565b5b906000526020600020906007020160020160008154809291906102869061119f565b91905055505b600286036102e157600360016003805490506102a8919061113c565b815481106102b9576102b8611170565b5b906000526020600020906007020160030160008154809291906102db9061119f565b91905055505b6003860361033a57600360016003805490506102fd919061113c565b8154811061030e5761030d611170565b5b906000526020600020906007020160040160008154809291906103309061119f565b9190505550610387565b6003600160038054905061034e919061113c565b8154811061035f5761035e611170565b5b906000526020600020906007020160050160008154809291906103819061119f565b91905055505b6003600160038054905061039b919061113c565b815481106103ac576103ab611170565b5b906000526020600020906007020160010160008154809291906103ce9061119f565b91905055507fe6d2c32f5b44f4fb627ab6af5eaec2409ebe41956a260cd5df4013c9f39815b960036001600380549050610408919061113c565b8154811061041957610418611170565b5b9060005260206000209060070201600101546003600160038054905061043f919061113c565b815481106104505761044f611170565b5b90600052602060002090600702016002015460036001600380549050610476919061113c565b8154811061048757610486611170565b5b906000526020600020906007020160030154600360016003805490506104ad919061113c565b815481106104be576104bd611170565b5b906000526020600020906007020160040154600360016003805490506104e4919061113c565b815481106104f5576104f4611170565b5b906000526020600020906007020160050154604051610518959493929190610f06565b60405180910390a160036001600380549050610534919061113c565b8154811061054557610544611170565b5b9060005260206000209060070201600101546003600160038054905061056b919061113c565b8154811061057c5761057b611170565b5b906000526020600020906007020160020154600360016003805490506105a2919061113c565b815481106105b3576105b2611170565b5b906000526020600020906007020160030154600360016003805490506105d9919061113c565b815481106105ea576105e9611170565b5b90600052602060002090600702016004015460036001600380549050610610919061113c565b8154811061062157610620611170565b5b906000526020600020906007020160050154945094509450945094506000803373ffffffffffffffffffffffffffffffffffffffff1673ffffffffffffffffffffffffffffffffffffffff16815260200190815260200160002060009054906101000a900460ff16156106c9576040517f08c379a00000000000000000000000000000000000000000000000000000000081526004016106c090611233565b60405180910390fd5b6001860361071e57600360016003805490506106e5919061113c565b815481106106f6576106f5611170565b5b906000526020600020906007020160020160008154809291906107189061119f565b91905055505b60028603610773576003600160038054905061073a919061113c565b8154811061074b5761074a611170565b5b9060005260206000209060070201600301600081548092919061076d9061119f565b91905055505b600386036107cc576003600160038054905061078f919061113c565b815481106107a05761079f611170565b5b906000526020600020906007020160040160008154809291906107c29061119f565b9190505550610819565b600360016003805490506107e0919061113c565b815481106107f1576107f0611170565b5b906000526020600020906007020160050160008154809291906108139061119f565b91905055505b6003600160038054905061082d919061113c565b8154811061083e5761083d611170565b5b906000526020600020906007020160010160008154809291906108609061119f565b91905055507fe6d2c32f5b44f4fb627ab6af5eaec2409ebe41956a260cd5df4013c9f39815b96003600160038054905061089a919061113c565b815481106108ab576108aa611170565b5b906000526020600020906007020160010154600360016003805490506108d1919061113c565b815481106108e2576108e1611170565b5b90600052602060002090600702016002015460036001600380549050610908919061113c565b8154811061091957610918611170565b5b9060005260206000209060070201600301546003600160038054905061093f919061113c565b815481106109505761094f611170565b5b90600052602060002090600702016004015460036001600380549050610976919061113c565b8154811061098757610986611170565b5b9060005260206000209060070201600501546040516109aa959493929190610f06565b60405180910390a1600360016003805490506109c6919061113c565b815481106109d7576109d6611170565b5b906000526020600020906007020160010154600360016003805490506109fd919061113c565b81548110610a0e57610a0d611170565b5b90600052602060002090600702016002015460036001600380549050610a34919061113c565b81548110610a4557610a44611170565b5b90600052602060002090600702016003015460036001600380549050610a6b919061113c565b81548110610a7c57610a7b611170565b5b90600052602060002090600702016004015460036001600380549050610aa2919061113c565b81548110610ab357610ab2611170565b5b9060005260206000209060070201600501549450945094509450945091939590929450565b60008060008060008060004260036001600380549050610af8919061113c565b81548110610b0957610b08611170565b5b90600052602060002090600702016006018190555060036001600380549050610b32919061113c565b81548110610b4357610b42611170565b5b90600052602060002090600702016000015460036001600380549050610b69919061113c565b81548110610b7a57610b79611170565b5b90600052602060002090600702016001015460036001600380549050610ba0919061113c565b81548110610bb157610bb0611170565b5b90600052602060002090600702016002015460036001600380549050610bd7919061113c565b81548110610be857610be7611170565b5b90600052602060002090600702016003015460036001600380549050610c0e919061113c565b81548110610c1f57610c1e611170565b5b90600052602060002090600702016004015460036001600380549050610c45919061113c565b81548110610c5657610c55611170565b5b90600052602060002090600702016005015460036001600380549050610c7c919061113c565b81548110610c8d57610c8c611170565b5b906000526020600020906007020160060154965096509650965096509650965090919293949596565b60028181548110610cc657600080fd5b906000526020600020016000915054906101000a900473ffffffffffffffffffffffffffffffffffffffff1681565b60036040518060e00160405280898152602001888152602001868152602001878152602001858152602001848152602001838152509080600181540180825580915050600190039060005260206000209060070201600090919091909150600082015181600001556020820151816001015560408201518160020155606082015181600301556080820151816004015560a0820151816005015560c08201518160060155505050505050505050565b600080fd5b600073ffffffffffffffffffffffffffffffffffffffff82169050919050565b6000610dd482610da9565b9050919050565b610de481610dc9565b8114610def57600080fd5b50565b600081359050610e0181610ddb565b92915050565b600060208284031215610e1d57610e1c610da4565b5b6000610e2b84828501610df2565b91505092915050565b60008115159050919050565b610e4981610e34565b82525050565b6000602082019050610e646000830184610e40565b92915050565b610e7381610dc9565b82525050565b6000602082019050610e8e6000830184610e6a565b92915050565b6000819050919050565b610ea781610e94565b8114610eb257600080fd5b50565b600081359050610ec481610e9e565b92915050565b600060208284031215610ee057610edf610da4565b5b6000610eee84828501610eb5565b91505092915050565b610f0081610e94565b82525050565b600060a082019050610f1b6000830188610ef7565b610f286020830187610ef7565b610f356040830186610ef7565b610f426060830185610ef7565b610f4f6080830184610ef7565b9695505050505050565b600060e082019050610f6e600083018a610ef7565b610f7b6020830189610ef7565b610f886040830188610ef7565b610f956060830187610ef7565b610fa26080830186610ef7565b610faf60a0830185610ef7565b610fbc60c0830184610ef7565b98975050505050505050565b600080600080600080600060e0888a031215610fe757610fe6610da4565b5b6000610ff58a828b01610eb5565b97505060206110068a828b01610eb5565b96505060406110178a828b01610eb5565b95505060606110288a828b01610eb5565b94505060806110398a828b01610eb5565b93505060a061104a8a828b01610eb5565b92505060c061105b8a828b01610eb5565b91505092959891949750929550565b600082825260208201905092915050565b7f526570726573656e74617469766573206f6e6c7920686176652074686520726960008201527f67687420746f20766f7465000000000000000000000000000000000000000000602082015250565b60006110d7602b8361106a565b91506110e28261107b565b604082019050919050565b60006020820190508181036000830152611106816110ca565b9050919050565b7f4e487b7100000000000000000000000000000000000000000000000000000000600052601160045260246000fd5b600061114782610e94565b915061115283610e94565b925082820390508181111561116a5761116961110d565b5b92915050565b7f4e487b7100000000000000000000000000000000000000000000000000000000600052603260045260246000fd5b60006111aa82610e94565b91507fffffffffffffffffffffffffffffffffffffffffffffffffffffffffffffffff82036111dc576111db61110d565b5b600182019050919050565b7f596f75206861766520616c726561647920766f74656400000000000000000000600082015250565b600061121d60168361106a565b9150611228826111e7565b602082019050919050565b6000602082019050818103600083015261124c81611210565b905091905056fea2646970667358221220fed8afa1f7efcb9aedb521e7e947e903dc7d3e05390c5417f53786e3113ca65364736f6c63430008120033",
					"opcodes": "PUSH1 0x80 PUSH1 0x40 MSTORE CALLVALUE DUP1 ISZERO PUSH2 0x10 JUMPI PUSH1 0x0 DUP1 REVERT JUMPDEST POP PUSH2 0x1289 DUP1 PUSH2 0x20 PUSH1 0x0 CODECOPY PUSH1 0x0 RETURN INVALID PUSH1 0x80 PUSH1 0x40 MSTORE CALLVALUE DUP1 ISZERO PUSH2 0x10 JUMPI PUSH1 0x0 DUP1 REVERT JUMPDEST POP PUSH1 0x4 CALLDATASIZE LT PUSH2 0x62 JUMPI PUSH1 0x0 CALLDATALOAD PUSH1 0xE0 SHR DUP1 PUSH4 0x109241E7 EQ PUSH2 0x67 JUMPI DUP1 PUSH4 0x396ABC84 EQ PUSH2 0x97 JUMPI DUP1 PUSH4 0x74265C68 EQ PUSH2 0xB5 JUMPI DUP1 PUSH4 0x7E887332 EQ PUSH2 0xE9 JUMPI DUP1 PUSH4 0xB3EF4AA4 EQ PUSH2 0x10D JUMPI DUP1 PUSH4 0xFA1AD70C EQ PUSH2 0x13D JUMPI JUMPDEST PUSH1 0x0 DUP1 REVERT JUMPDEST PUSH2 0x81 PUSH1 0x4 DUP1 CALLDATASIZE SUB DUP2 ADD SWAP1 PUSH2 0x7C SWAP2 SWAP1 PUSH2 0xE07 JUMP JUMPDEST PUSH2 0x159 JUMP JUMPDEST PUSH1 0x40 MLOAD PUSH2 0x8E SWAP2 SWAP1 PUSH2 0xE4F JUMP JUMPDEST PUSH1 0x40 MLOAD DUP1 SWAP2 SUB SWAP1 RETURN JUMPDEST PUSH2 0x9F PUSH2 0x179 JUMP JUMPDEST PUSH1 0x40 MLOAD PUSH2 0xAC SWAP2 SWAP1 PUSH2 0xE79 JUMP JUMPDEST PUSH1 0x40 MLOAD DUP1 SWAP2 SUB SWAP1 RETURN JUMPDEST PUSH2 0xCF PUSH1 0x4 DUP1 CALLDATASIZE SUB DUP2 ADD SWAP1 PUSH2 0xCA SWAP2 SWAP1 PUSH2 0xECA JUMP JUMPDEST PUSH2 0x19F JUMP JUMPDEST PUSH1 0x40 MLOAD PUSH2 0xE0 SWAP6 SWAP5 SWAP4 SWAP3 SWAP2 SWAP1 PUSH2 0xF06 JUMP JUMPDEST PUSH1 0x40 MLOAD DUP1 SWAP2 SUB SWAP1 RETURN JUMPDEST PUSH2 0xF1 PUSH2 0xAD8 JUMP JUMPDEST PUSH1 0x40 MLOAD PUSH2 0x104 SWAP8 SWAP7 SWAP6 SWAP5 SWAP4 SWAP3 SWAP2 SWAP1 PUSH2 0xF59 JUMP JUMPDEST PUSH1 0x40 MLOAD DUP1 SWAP2 SUB SWAP1 RETURN JUMPDEST PUSH2 0x127 PUSH1 0x4 DUP1 CALLDATASIZE SUB DUP2 ADD SWAP1 PUSH2 0x122 SWAP2 SWAP1 PUSH2 0xECA JUMP JUMPDEST PUSH2 0xCB6 JUMP JUMPDEST PUSH1 0x40 MLOAD PUSH2 0x134 SWAP2 SWAP1 PUSH2 0xE79 JUMP JUMPDEST PUSH1 0x40 MLOAD DUP1 SWAP2 SUB SWAP1 RETURN JUMPDEST PUSH2 0x157 PUSH1 0x4 DUP1 CALLDATASIZE SUB DUP2 ADD SWAP1 PUSH2 0x152 SWAP2 SWAP1 PUSH2 0xFC8 JUMP JUMPDEST PUSH2 0xCF5 JUMP JUMPDEST STOP JUMPDEST PUSH1 0x0 PUSH1 0x20 MSTORE DUP1 PUSH1 0x0 MSTORE PUSH1 0x40 PUSH1 0x0 KECCAK256 PUSH1 0x0 SWAP2 POP SLOAD SWAP1 PUSH2 0x100 EXP SWAP1 DIV PUSH1 0xFF AND DUP2 JUMP JUMPDEST PUSH1 0x1 PUSH1 0x0 SWAP1 SLOAD SWAP1 PUSH2 0x100 EXP SWAP1 DIV PUSH20 0xFFFFFFFFFFFFFFFFFFFFFFFFFFFFFFFFFFFFFFFF AND DUP2 JUMP JUMPDEST PUSH1 0x0 DUP1 PUSH1 0x0 DUP1 PUSH1 0x0 PUSH1 0x1 PUSH1 0x0 SWAP1 SLOAD SWAP1 PUSH2 0x100 EXP SWAP1 DIV PUSH20 0xFFFFFFFFFFFFFFFFFFFFFFFFFFFFFFFFFFFFFFFF AND PUSH20 0xFFFFFFFFFFFFFFFFFFFFFFFFFFFFFFFFFFFFFFFF AND CALLER PUSH20 0xFFFFFFFFFFFFFFFFFFFFFFFFFFFFFFFFFFFFFFFF AND EQ PUSH2 0x237 JUMPI PUSH1 0x40 MLOAD PUSH32 0x8C379A000000000000000000000000000000000000000000000000000000000 DUP2 MSTORE PUSH1 0x4 ADD PUSH2 0x22E SWAP1 PUSH2 0x10ED JUMP JUMPDEST PUSH1 0x40 MLOAD DUP1 SWAP2 SUB SWAP1 REVERT JUMPDEST PUSH1 0x1 DUP7 SUB PUSH2 0x28C JUMPI PUSH1 0x3 PUSH1 0x1 PUSH1 0x3 DUP1 SLOAD SWAP1 POP PUSH2 0x253 SWAP2 SWAP1 PUSH2 0x113C JUMP JUMPDEST DUP2 SLOAD DUP2 LT PUSH2 0x264 JUMPI PUSH2 0x263 PUSH2 0x1170 JUMP JUMPDEST JUMPDEST SWAP1 PUSH1 0x0 MSTORE PUSH1 0x20 PUSH1 0x0 KECCAK256 SWAP1 PUSH1 0x7 MUL ADD PUSH1 0x2 ADD PUSH1 0x0 DUP2 SLOAD DUP1 SWAP3 SWAP2 SWAP1 PUSH2 0x286 SWAP1 PUSH2 0x119F JUMP JUMPDEST SWAP2 SWAP1 POP SSTORE POP JUMPDEST PUSH1 0x2 DUP7 SUB PUSH2 0x2E1 JUMPI PUSH1 0x3 PUSH1 0x1 PUSH1 0x3 DUP1 SLOAD SWAP1 POP PUSH2 0x2A8 SWAP2 SWAP1 PUSH2 0x113C JUMP JUMPDEST DUP2 SLOAD DUP2 LT PUSH2 0x2B9 JUMPI PUSH2 0x2B8 PUSH2 0x1170 JUMP JUMPDEST JUMPDEST SWAP1 PUSH1 0x0 MSTORE PUSH1 0x20 PUSH1 0x0 KECCAK256 SWAP1 PUSH1 0x7 MUL ADD PUSH1 0x3 ADD PUSH1 0x0 DUP2 SLOAD DUP1 SWAP3 SWAP2 SWAP1 PUSH2 0x2DB SWAP1 PUSH2 0x119F JUMP JUMPDEST SWAP2 SWAP1 POP SSTORE POP JUMPDEST PUSH1 0x3 DUP7 SUB PUSH2 0x33A JUMPI PUSH1 0x3 PUSH1 0x1 PUSH1 0x3 DUP1 SLOAD SWAP1 POP PUSH2 0x2FD SWAP2 SWAP1 PUSH2 0x113C JUMP JUMPDEST DUP2 SLOAD DUP2 LT PUSH2 0x30E JUMPI PUSH2 0x30D PUSH2 0x1170 JUMP JUMPDEST JUMPDEST SWAP1 PUSH1 0x0 MSTORE PUSH1 0x20 PUSH1 0x0 KECCAK256 SWAP1 PUSH1 0x7 MUL ADD PUSH1 0x4 ADD PUSH1 0x0 DUP2 SLOAD DUP1 SWAP3 SWAP2 SWAP1 PUSH2 0x330 SWAP1 PUSH2 0x119F JUMP JUMPDEST SWAP2 SWAP1 POP SSTORE POP PUSH2 0x387 JUMP JUMPDEST PUSH1 0x3 PUSH1 0x1 PUSH1 0x3 DUP1 SLOAD SWAP1 POP PUSH2 0x34E SWAP2 SWAP1 PUSH2 0x113C JUMP JUMPDEST DUP2 SLOAD DUP2 LT PUSH2 0x35F JUMPI PUSH2 0x35E PUSH2 0x1170 JUMP JUMPDEST JUMPDEST SWAP1 PUSH1 0x0 MSTORE PUSH1 0x20 PUSH1 0x0 KECCAK256 SWAP1 PUSH1 0x7 MUL ADD PUSH1 0x5 ADD PUSH1 0x0 DUP2 SLOAD DUP1 SWAP3 SWAP2 SWAP1 PUSH2 0x381 SWAP1 PUSH2 0x119F JUMP JUMPDEST SWAP2 SWAP1 POP SSTORE POP JUMPDEST PUSH1 0x3 PUSH1 0x1 PUSH1 0x3 DUP1 SLOAD SWAP1 POP PUSH2 0x39B SWAP2 SWAP1 PUSH2 0x113C JUMP JUMPDEST DUP2 SLOAD DUP2 LT PUSH2 0x3AC JUMPI PUSH2 0x3AB PUSH2 0x1170 JUMP JUMPDEST JUMPDEST SWAP1 PUSH1 0x0 MSTORE PUSH1 0x20 PUSH1 0x0 KECCAK256 SWAP1 PUSH1 0x7 MUL ADD PUSH1 0x1 ADD PUSH1 0x0 DUP2 SLOAD DUP1 SWAP3 SWAP2 SWAP1 PUSH2 0x3CE SWAP1 PUSH2 0x119F JUMP JUMPDEST SWAP2 SWAP1 POP SSTORE POP PUSH32 0xE6D2C32F5B44F4FB627AB6AF5EAEC2409EBE41956A260CD5DF4013C9F39815B9 PUSH1 0x3 PUSH1 0x1 PUSH1 0x3 DUP1 SLOAD SWAP1 POP PUSH2 0x408 SWAP2 SWAP1 PUSH2 0x113C JUMP JUMPDEST DUP2 SLOAD DUP2 LT PUSH2 0x419 JUMPI PUSH2 0x418 PUSH2 0x1170 JUMP JUMPDEST JUMPDEST SWAP1 PUSH1 0x0 MSTORE PUSH1 0x20 PUSH1 0x0 KECCAK256 SWAP1 PUSH1 0x7 MUL ADD PUSH1 0x1 ADD SLOAD PUSH1 0x3 PUSH1 0x1 PUSH1 0x3 DUP1 SLOAD SWAP1 POP PUSH2 0x43F SWAP2 SWAP1 PUSH2 0x113C JUMP JUMPDEST DUP2 SLOAD DUP2 LT PUSH2 0x450 JUMPI PUSH2 0x44F PUSH2 0x1170 JUMP JUMPDEST JUMPDEST SWAP1 PUSH1 0x0 MSTORE PUSH1 0x20 PUSH1 0x0 KECCAK256 SWAP1 PUSH1 0x7 MUL ADD PUSH1 0x2 ADD SLOAD PUSH1 0x3 PUSH1 0x1 PUSH1 0x3 DUP1 SLOAD SWAP1 POP PUSH2 0x476 SWAP2 SWAP1 PUSH2 0x113C JUMP JUMPDEST DUP2 SLOAD DUP2 LT PUSH2 0x487 JUMPI PUSH2 0x486 PUSH2 0x1170 JUMP JUMPDEST JUMPDEST SWAP1 PUSH1 0x0 MSTORE PUSH1 0x20 PUSH1 0x0 KECCAK256 SWAP1 PUSH1 0x7 MUL ADD PUSH1 0x3 ADD SLOAD PUSH1 0x3 PUSH1 0x1 PUSH1 0x3 DUP1 SLOAD SWAP1 POP PUSH2 0x4AD SWAP2 SWAP1 PUSH2 0x113C JUMP JUMPDEST DUP2 SLOAD DUP2 LT PUSH2 0x4BE JUMPI PUSH2 0x4BD PUSH2 0x1170 JUMP JUMPDEST JUMPDEST SWAP1 PUSH1 0x0 MSTORE PUSH1 0x20 PUSH1 0x0 KECCAK256 SWAP1 PUSH1 0x7 MUL ADD PUSH1 0x4 ADD SLOAD PUSH1 0x3 PUSH1 0x1 PUSH1 0x3 DUP1 SLOAD SWAP1 POP PUSH2 0x4E4 SWAP2 SWAP1 PUSH2 0x113C JUMP JUMPDEST DUP2 SLOAD DUP2 LT PUSH2 0x4F5 JUMPI PUSH2 0x4F4 PUSH2 0x1170 JUMP JUMPDEST JUMPDEST SWAP1 PUSH1 0x0 MSTORE PUSH1 0x20 PUSH1 0x0 KECCAK256 SWAP1 PUSH1 0x7 MUL ADD PUSH1 0x5 ADD SLOAD PUSH1 0x40 MLOAD PUSH2 0x518 SWAP6 SWAP5 SWAP4 SWAP3 SWAP2 SWAP1 PUSH2 0xF06 JUMP JUMPDEST PUSH1 0x40 MLOAD DUP1 SWAP2 SUB SWAP1 LOG1 PUSH1 0x3 PUSH1 0x1 PUSH1 0x3 DUP1 SLOAD SWAP1 POP PUSH2 0x534 SWAP2 SWAP1 PUSH2 0x113C JUMP JUMPDEST DUP2 SLOAD DUP2 LT PUSH2 0x545 JUMPI PUSH2 0x544 PUSH2 0x1170 JUMP JUMPDEST JUMPDEST SWAP1 PUSH1 0x0 MSTORE PUSH1 0x20 PUSH1 0x0 KECCAK256 SWAP1 PUSH1 0x7 MUL ADD PUSH1 0x1 ADD SLOAD PUSH1 0x3 PUSH1 0x1 PUSH1 0x3 DUP1 SLOAD SWAP1 POP PUSH2 0x56B SWAP2 SWAP1 PUSH2 0x113C JUMP JUMPDEST DUP2 SLOAD DUP2 LT PUSH2 0x57C JUMPI PUSH2 0x57B PUSH2 0x1170 JUMP JUMPDEST JUMPDEST SWAP1 PUSH1 0x0 MSTORE PUSH1 0x20 PUSH1 0x0 KECCAK256 SWAP1 PUSH1 0x7 MUL ADD PUSH1 0x2 ADD SLOAD PUSH1 0x3 PUSH1 0x1 PUSH1 0x3 DUP1 SLOAD SWAP1 POP PUSH2 0x5A2 SWAP2 SWAP1 PUSH2 0x113C JUMP JUMPDEST DUP2 SLOAD DUP2 LT PUSH2 0x5B3 JUMPI PUSH2 0x5B2 PUSH2 0x1170 JUMP JUMPDEST JUMPDEST SWAP1 PUSH1 0x0 MSTORE PUSH1 0x20 PUSH1 0x0 KECCAK256 SWAP1 PUSH1 0x7 MUL ADD PUSH1 0x3 ADD SLOAD PUSH1 0x3 PUSH1 0x1 PUSH1 0x3 DUP1 SLOAD SWAP1 POP PUSH2 0x5D9 SWAP2 SWAP1 PUSH2 0x113C JUMP JUMPDEST DUP2 SLOAD DUP2 LT PUSH2 0x5EA JUMPI PUSH2 0x5E9 PUSH2 0x1170 JUMP JUMPDEST JUMPDEST SWAP1 PUSH1 0x0 MSTORE PUSH1 0x20 PUSH1 0x0 KECCAK256 SWAP1 PUSH1 0x7 MUL ADD PUSH1 0x4 ADD SLOAD PUSH1 0x3 PUSH1 0x1 PUSH1 0x3 DUP1 SLOAD SWAP1 POP PUSH2 0x610 SWAP2 SWAP1 PUSH2 0x113C JUMP JUMPDEST DUP2 SLOAD DUP2 LT PUSH2 0x621 JUMPI PUSH2 0x620 PUSH2 0x1170 JUMP JUMPDEST JUMPDEST SWAP1 PUSH1 0x0 MSTORE PUSH1 0x20 PUSH1 0x0 KECCAK256 SWAP1 PUSH1 0x7 MUL ADD PUSH1 0x5 ADD SLOAD SWAP5 POP SWAP5 POP SWAP5 POP SWAP5 POP SWAP5 POP PUSH1 0x0 DUP1 CALLER PUSH20 0xFFFFFFFFFFFFFFFFFFFFFFFFFFFFFFFFFFFFFFFF AND PUSH20 0xFFFFFFFFFFFFFFFFFFFFFFFFFFFFFFFFFFFFFFFF AND DUP2 MSTORE PUSH1 0x20 ADD SWAP1 DUP2 MSTORE PUSH1 0x20 ADD PUSH1 0x0 KECCAK256 PUSH1 0x0 SWAP1 SLOAD SWAP1 PUSH2 0x100 EXP SWAP1 DIV PUSH1 0xFF AND ISZERO PUSH2 0x6C9 JUMPI PUSH1 0x40 MLOAD PUSH32 0x8C379A000000000000000000000000000000000000000000000000000000000 DUP2 MSTORE PUSH1 0x4 ADD PUSH2 0x6C0 SWAP1 PUSH2 0x1233 JUMP JUMPDEST PUSH1 0x40 MLOAD DUP1 SWAP2 SUB SWAP1 REVERT JUMPDEST PUSH1 0x1 DUP7 SUB PUSH2 0x71E JUMPI PUSH1 0x3 PUSH1 0x1 PUSH1 0x3 DUP1 SLOAD SWAP1 POP PUSH2 0x6E5 SWAP2 SWAP1 PUSH2 0x113C JUMP JUMPDEST DUP2 SLOAD DUP2 LT PUSH2 0x6F6 JUMPI PUSH2 0x6F5 PUSH2 0x1170 JUMP JUMPDEST JUMPDEST SWAP1 PUSH1 0x0 MSTORE PUSH1 0x20 PUSH1 0x0 KECCAK256 SWAP1 PUSH1 0x7 MUL ADD PUSH1 0x2 ADD PUSH1 0x0 DUP2 SLOAD DUP1 SWAP3 SWAP2 SWAP1 PUSH2 0x718 SWAP1 PUSH2 0x119F JUMP JUMPDEST SWAP2 SWAP1 POP SSTORE POP JUMPDEST PUSH1 0x2 DUP7 SUB PUSH2 0x773 JUMPI PUSH1 0x3 PUSH1 0x1 PUSH1 0x3 DUP1 SLOAD SWAP1 POP PUSH2 0x73A SWAP2 SWAP1 PUSH2 0x113C JUMP JUMPDEST DUP2 SLOAD DUP2 LT PUSH2 0x74B JUMPI PUSH2 0x74A PUSH2 0x1170 JUMP JUMPDEST JUMPDEST SWAP1 PUSH1 0x0 MSTORE PUSH1 0x20 PUSH1 0x0 KECCAK256 SWAP1 PUSH1 0x7 MUL ADD PUSH1 0x3 ADD PUSH1 0x0 DUP2 SLOAD DUP1 SWAP3 SWAP2 SWAP1 PUSH2 0x76D SWAP1 PUSH2 0x119F JUMP JUMPDEST SWAP2 SWAP1 POP SSTORE POP JUMPDEST PUSH1 0x3 DUP7 SUB PUSH2 0x7CC JUMPI PUSH1 0x3 PUSH1 0x1 PUSH1 0x3 DUP1 SLOAD SWAP1 POP PUSH2 0x78F SWAP2 SWAP1 PUSH2 0x113C JUMP JUMPDEST DUP2 SLOAD DUP2 LT PUSH2 0x7A0 JUMPI PUSH2 0x79F PUSH2 0x1170 JUMP JUMPDEST JUMPDEST SWAP1 PUSH1 0x0 MSTORE PUSH1 0x20 PUSH1 0x0 KECCAK256 SWAP1 PUSH1 0x7 MUL ADD PUSH1 0x4 ADD PUSH1 0x0 DUP2 SLOAD DUP1 SWAP3 SWAP2 SWAP1 PUSH2 0x7C2 SWAP1 PUSH2 0x119F JUMP JUMPDEST SWAP2 SWAP1 POP SSTORE POP PUSH2 0x819 JUMP JUMPDEST PUSH1 0x3 PUSH1 0x1 PUSH1 0x3 DUP1 SLOAD SWAP1 POP PUSH2 0x7E0 SWAP2 SWAP1 PUSH2 0x113C JUMP JUMPDEST DUP2 SLOAD DUP2 LT PUSH2 0x7F1 JUMPI PUSH2 0x7F0 PUSH2 0x1170 JUMP JUMPDEST JUMPDEST SWAP1 PUSH1 0x0 MSTORE PUSH1 0x20 PUSH1 0x0 KECCAK256 SWAP1 PUSH1 0x7 MUL ADD PUSH1 0x5 ADD PUSH1 0x0 DUP2 SLOAD DUP1 SWAP3 SWAP2 SWAP1 PUSH2 0x813 SWAP1 PUSH2 0x119F JUMP JUMPDEST SWAP2 SWAP1 POP SSTORE POP JUMPDEST PUSH1 0x3 PUSH1 0x1 PUSH1 0x3 DUP1 SLOAD SWAP1 POP PUSH2 0x82D SWAP2 SWAP1 PUSH2 0x113C JUMP JUMPDEST DUP2 SLOAD DUP2 LT PUSH2 0x83E JUMPI PUSH2 0x83D PUSH2 0x1170 JUMP JUMPDEST JUMPDEST SWAP1 PUSH1 0x0 MSTORE PUSH1 0x20 PUSH1 0x0 KECCAK256 SWAP1 PUSH1 0x7 MUL ADD PUSH1 0x1 ADD PUSH1 0x0 DUP2 SLOAD DUP1 SWAP3 SWAP2 SWAP1 PUSH2 0x860 SWAP1 PUSH2 0x119F JUMP JUMPDEST SWAP2 SWAP1 POP SSTORE POP PUSH32 0xE6D2C32F5B44F4FB627AB6AF5EAEC2409EBE41956A260CD5DF4013C9F39815B9 PUSH1 0x3 PUSH1 0x1 PUSH1 0x3 DUP1 SLOAD SWAP1 POP PUSH2 0x89A SWAP2 SWAP1 PUSH2 0x113C JUMP JUMPDEST DUP2 SLOAD DUP2 LT PUSH2 0x8AB JUMPI PUSH2 0x8AA PUSH2 0x1170 JUMP JUMPDEST JUMPDEST SWAP1 PUSH1 0x0 MSTORE PUSH1 0x20 PUSH1 0x0 KECCAK256 SWAP1 PUSH1 0x7 MUL ADD PUSH1 0x1 ADD SLOAD PUSH1 0x3 PUSH1 0x1 PUSH1 0x3 DUP1 SLOAD SWAP1 POP PUSH2 0x8D1 SWAP2 SWAP1 PUSH2 0x113C JUMP JUMPDEST DUP2 SLOAD DUP2 LT PUSH2 0x8E2 JUMPI PUSH2 0x8E1 PUSH2 0x1170 JUMP JUMPDEST JUMPDEST SWAP1 PUSH1 0x0 MSTORE PUSH1 0x20 PUSH1 0x0 KECCAK256 SWAP1 PUSH1 0x7 MUL ADD PUSH1 0x2 ADD SLOAD PUSH1 0x3 PUSH1 0x1 PUSH1 0x3 DUP1 SLOAD SWAP1 POP PUSH2 0x908 SWAP2 SWAP1 PUSH2 0x113C JUMP JUMPDEST DUP2 SLOAD DUP2 LT PUSH2 0x919 JUMPI PUSH2 0x918 PUSH2 0x1170 JUMP JUMPDEST JUMPDEST SWAP1 PUSH1 0x0 MSTORE PUSH1 0x20 PUSH1 0x0 KECCAK256 SWAP1 PUSH1 0x7 MUL ADD PUSH1 0x3 ADD SLOAD PUSH1 0x3 PUSH1 0x1 PUSH1 0x3 DUP1 SLOAD SWAP1 POP PUSH2 0x93F SWAP2 SWAP1 PUSH2 0x113C JUMP JUMPDEST DUP2 SLOAD DUP2 LT PUSH2 0x950 JUMPI PUSH2 0x94F PUSH2 0x1170 JUMP JUMPDEST JUMPDEST SWAP1 PUSH1 0x0 MSTORE PUSH1 0x20 PUSH1 0x0 KECCAK256 SWAP1 PUSH1 0x7 MUL ADD PUSH1 0x4 ADD SLOAD PUSH1 0x3 PUSH1 0x1 PUSH1 0x3 DUP1 SLOAD SWAP1 POP PUSH2 0x976 SWAP2 SWAP1 PUSH2 0x113C JUMP JUMPDEST DUP2 SLOAD DUP2 LT PUSH2 0x987 JUMPI PUSH2 0x986 PUSH2 0x1170 JUMP JUMPDEST JUMPDEST SWAP1 PUSH1 0x0 MSTORE PUSH1 0x20 PUSH1 0x0 KECCAK256 SWAP1 PUSH1 0x7 MUL ADD PUSH1 0x5 ADD SLOAD PUSH1 0x40 MLOAD PUSH2 0x9AA SWAP6 SWAP5 SWAP4 SWAP3 SWAP2 SWAP1 PUSH2 0xF06 JUMP JUMPDEST PUSH1 0x40 MLOAD DUP1 SWAP2 SUB SWAP1 LOG1 PUSH1 0x3 PUSH1 0x1 PUSH1 0x3 DUP1 SLOAD SWAP1 POP PUSH2 0x9C6 SWAP2 SWAP1 PUSH2 0x113C JUMP JUMPDEST DUP2 SLOAD DUP2 LT PUSH2 0x9D7 JUMPI PUSH2 0x9D6 PUSH2 0x1170 JUMP JUMPDEST JUMPDEST SWAP1 PUSH1 0x0 MSTORE PUSH1 0x20 PUSH1 0x0 KECCAK256 SWAP1 PUSH1 0x7 MUL ADD PUSH1 0x1 ADD SLOAD PUSH1 0x3 PUSH1 0x1 PUSH1 0x3 DUP1 SLOAD SWAP1 POP PUSH2 0x9FD SWAP2 SWAP1 PUSH2 0x113C JUMP JUMPDEST DUP2 SLOAD DUP2 LT PUSH2 0xA0E JUMPI PUSH2 0xA0D PUSH2 0x1170 JUMP JUMPDEST JUMPDEST SWAP1 PUSH1 0x0 MSTORE PUSH1 0x20 PUSH1 0x0 KECCAK256 SWAP1 PUSH1 0x7 MUL ADD PUSH1 0x2 ADD SLOAD PUSH1 0x3 PUSH1 0x1 PUSH1 0x3 DUP1 SLOAD SWAP1 POP PUSH2 0xA34 SWAP2 SWAP1 PUSH2 0x113C JUMP JUMPDEST DUP2 SLOAD DUP2 LT PUSH2 0xA45 JUMPI PUSH2 0xA44 PUSH2 0x1170 JUMP JUMPDEST JUMPDEST SWAP1 PUSH1 0x0 MSTORE PUSH1 0x20 PUSH1 0x0 KECCAK256 SWAP1 PUSH1 0x7 MUL ADD PUSH1 0x3 ADD SLOAD PUSH1 0x3 PUSH1 0x1 PUSH1 0x3 DUP1 SLOAD SWAP1 POP PUSH2 0xA6B SWAP2 SWAP1 PUSH2 0x113C JUMP JUMPDEST DUP2 SLOAD DUP2 LT PUSH2 0xA7C JUMPI PUSH2 0xA7B PUSH2 0x1170 JUMP JUMPDEST JUMPDEST SWAP1 PUSH1 0x0 MSTORE PUSH1 0x20 PUSH1 0x0 KECCAK256 SWAP1 PUSH1 0x7 MUL ADD PUSH1 0x4 ADD SLOAD PUSH1 0x3 PUSH1 0x1 PUSH1 0x3 DUP1 SLOAD SWAP1 POP PUSH2 0xAA2 SWAP2 SWAP1 PUSH2 0x113C JUMP JUMPDEST DUP2 SLOAD DUP2 LT PUSH2 0xAB3 JUMPI PUSH2 0xAB2 PUSH2 0x1170 JUMP JUMPDEST JUMPDEST SWAP1 PUSH1 0x0 MSTORE PUSH1 0x20 PUSH1 0x0 KECCAK256 SWAP1 PUSH1 0x7 MUL ADD PUSH1 0x5 ADD SLOAD SWAP5 POP SWAP5 POP SWAP5 POP SWAP5 POP SWAP5 POP SWAP2 SWAP4 SWAP6 SWAP1 SWAP3 SWAP5 POP JUMP JUMPDEST PUSH1 0x0 DUP1 PUSH1 0x0 DUP1 PUSH1 0x0 DUP1 PUSH1 0x0 TIMESTAMP PUSH1 0x3 PUSH1 0x1 PUSH1 0x3 DUP1 SLOAD SWAP1 POP PUSH2 0xAF8 SWAP2 SWAP1 PUSH2 0x113C JUMP JUMPDEST DUP2 SLOAD DUP2 LT PUSH2 0xB09 JUMPI PUSH2 0xB08 PUSH2 0x1170 JUMP JUMPDEST JUMPDEST SWAP1 PUSH1 0x0 MSTORE PUSH1 0x20 PUSH1 0x0 KECCAK256 SWAP1 PUSH1 0x7 MUL ADD PUSH1 0x6 ADD DUP2 SWAP1 SSTORE POP PUSH1 0x3 PUSH1 0x1 PUSH1 0x3 DUP1 SLOAD SWAP1 POP PUSH2 0xB32 SWAP2 SWAP1 PUSH2 0x113C JUMP JUMPDEST DUP2 SLOAD DUP2 LT PUSH2 0xB43 JUMPI PUSH2 0xB42 PUSH2 0x1170 JUMP JUMPDEST JUMPDEST SWAP1 PUSH1 0x0 MSTORE PUSH1 0x20 PUSH1 0x0 KECCAK256 SWAP1 PUSH1 0x7 MUL ADD PUSH1 0x0 ADD SLOAD PUSH1 0x3 PUSH1 0x1 PUSH1 0x3 DUP1 SLOAD SWAP1 POP PUSH2 0xB69 SWAP2 SWAP1 PUSH2 0x113C JUMP JUMPDEST DUP2 SLOAD DUP2 LT PUSH2 0xB7A JUMPI PUSH2 0xB79 PUSH2 0x1170 JUMP JUMPDEST JUMPDEST SWAP1 PUSH1 0x0 MSTORE PUSH1 0x20 PUSH1 0x0 KECCAK256 SWAP1 PUSH1 0x7 MUL ADD PUSH1 0x1 ADD SLOAD PUSH1 0x3 PUSH1 0x1 PUSH1 0x3 DUP1 SLOAD SWAP1 POP PUSH2 0xBA0 SWAP2 SWAP1 PUSH2 0x113C JUMP JUMPDEST DUP2 SLOAD DUP2 LT PUSH2 0xBB1 JUMPI PUSH2 0xBB0 PUSH2 0x1170 JUMP JUMPDEST JUMPDEST SWAP1 PUSH1 0x0 MSTORE PUSH1 0x20 PUSH1 0x0 KECCAK256 SWAP1 PUSH1 0x7 MUL ADD PUSH1 0x2 ADD SLOAD PUSH1 0x3 PUSH1 0x1 PUSH1 0x3 DUP1 SLOAD SWAP1 POP PUSH2 0xBD7 SWAP2 SWAP1 PUSH2 0x113C JUMP JUMPDEST DUP2 SLOAD DUP2 LT PUSH2 0xBE8 JUMPI PUSH2 0xBE7 PUSH2 0x1170 JUMP JUMPDEST JUMPDEST SWAP1 PUSH1 0x0 MSTORE PUSH1 0x20 PUSH1 0x0 KECCAK256 SWAP1 PUSH1 0x7 MUL ADD PUSH1 0x3 ADD SLOAD PUSH1 0x3 PUSH1 0x1 PUSH1 0x3 DUP1 SLOAD SWAP1 POP PUSH2 0xC0E SWAP2 SWAP1 PUSH2 0x113C JUMP JUMPDEST DUP2 SLOAD DUP2 LT PUSH2 0xC1F JUMPI PUSH2 0xC1E PUSH2 0x1170 JUMP JUMPDEST JUMPDEST SWAP1 PUSH1 0x0 MSTORE PUSH1 0x20 PUSH1 0x0 KECCAK256 SWAP1 PUSH1 0x7 MUL ADD PUSH1 0x4 ADD SLOAD PUSH1 0x3 PUSH1 0x1 PUSH1 0x3 DUP1 SLOAD SWAP1 POP PUSH2 0xC45 SWAP2 SWAP1 PUSH2 0x113C JUMP JUMPDEST DUP2 SLOAD DUP2 LT PUSH2 0xC56 JUMPI PUSH2 0xC55 PUSH2 0x1170 JUMP JUMPDEST JUMPDEST SWAP1 PUSH1 0x0 MSTORE PUSH1 0x20 PUSH1 0x0 KECCAK256 SWAP1 PUSH1 0x7 MUL ADD PUSH1 0x5 ADD SLOAD PUSH1 0x3 PUSH1 0x1 PUSH1 0x3 DUP1 SLOAD SWAP1 POP PUSH2 0xC7C SWAP2 SWAP1 PUSH2 0x113C JUMP JUMPDEST DUP2 SLOAD DUP2 LT PUSH2 0xC8D JUMPI PUSH2 0xC8C PUSH2 0x1170 JUMP JUMPDEST JUMPDEST SWAP1 PUSH1 0x0 MSTORE PUSH1 0x20 PUSH1 0x0 KECCAK256 SWAP1 PUSH1 0x7 MUL ADD PUSH1 0x6 ADD SLOAD SWAP7 POP SWAP7 POP SWAP7 POP SWAP7 POP SWAP7 POP SWAP7 POP SWAP7 POP SWAP1 SWAP2 SWAP3 SWAP4 SWAP5 SWAP6 SWAP7 JUMP JUMPDEST PUSH1 0x2 DUP2 DUP2 SLOAD DUP2 LT PUSH2 0xCC6 JUMPI PUSH1 0x0 DUP1 REVERT JUMPDEST SWAP1 PUSH1 0x0 MSTORE PUSH1 0x20 PUSH1 0x0 KECCAK256 ADD PUSH1 0x0 SWAP2 POP SLOAD SWAP1 PUSH2 0x100 EXP SWAP1 DIV PUSH20 0xFFFFFFFFFFFFFFFFFFFFFFFFFFFFFFFFFFFFFFFF AND DUP2 JUMP JUMPDEST PUSH1 0x3 PUSH1 0x40 MLOAD DUP1 PUSH1 0xE0 ADD PUSH1 0x40 MSTORE DUP1 DUP10 DUP2 MSTORE PUSH1 0x20 ADD DUP9 DUP2 MSTORE PUSH1 0x20 ADD DUP7 DUP2 MSTORE PUSH1 0x20 ADD DUP8 DUP2 MSTORE PUSH1 0x20 ADD DUP6 DUP2 MSTORE PUSH1 0x20 ADD DUP5 DUP2 MSTORE PUSH1 0x20 ADD DUP4 DUP2 MSTORE POP SWAP1 DUP1 PUSH1 0x1 DUP2 SLOAD ADD DUP1 DUP3 SSTORE DUP1 SWAP2 POP POP PUSH1 0x1 SWAP1 SUB SWAP1 PUSH1 0x0 MSTORE PUSH1 0x20 PUSH1 0x0 KECCAK256 SWAP1 PUSH1 0x7 MUL ADD PUSH1 0x0 SWAP1 SWAP2 SWAP1 SWAP2 SWAP1 SWAP2 POP PUSH1 0x0 DUP3 ADD MLOAD DUP2 PUSH1 0x0 ADD SSTORE PUSH1 0x20 DUP3 ADD MLOAD DUP2 PUSH1 0x1 ADD SSTORE PUSH1 0x40 DUP3 ADD MLOAD DUP2 PUSH1 0x2 ADD SSTORE PUSH1 0x60 DUP3 ADD MLOAD DUP2 PUSH1 0x3 ADD SSTORE PUSH1 0x80 DUP3 ADD MLOAD DUP2 PUSH1 0x4 ADD SSTORE PUSH1 0xA0 DUP3 ADD MLOAD DUP2 PUSH1 0x5 ADD SSTORE PUSH1 0xC0 DUP3 ADD MLOAD DUP2 PUSH1 0x6 ADD SSTORE POP POP POP POP POP POP POP POP POP JUMP JUMPDEST PUSH1 0x0 DUP1 REVERT JUMPDEST PUSH1 0x0 PUSH20 0xFFFFFFFFFFFFFFFFFFFFFFFFFFFFFFFFFFFFFFFF DUP3 AND SWAP1 POP SWAP2 SWAP1 POP JUMP JUMPDEST PUSH1 0x0 PUSH2 0xDD4 DUP3 PUSH2 0xDA9 JUMP JUMPDEST SWAP1 POP SWAP2 SWAP1 POP JUMP JUMPDEST PUSH2 0xDE4 DUP2 PUSH2 0xDC9 JUMP JUMPDEST DUP2 EQ PUSH2 0xDEF JUMPI PUSH1 0x0 DUP1 REVERT JUMPDEST POP JUMP JUMPDEST PUSH1 0x0 DUP2 CALLDATALOAD SWAP1 POP PUSH2 0xE01 DUP2 PUSH2 0xDDB JUMP JUMPDEST SWAP3 SWAP2 POP POP JUMP JUMPDEST PUSH1 0x0 PUSH1 0x20 DUP3 DUP5 SUB SLT ISZERO PUSH2 0xE1D JUMPI PUSH2 0xE1C PUSH2 0xDA4 JUMP JUMPDEST JUMPDEST PUSH1 0x0 PUSH2 0xE2B DUP5 DUP3 DUP6 ADD PUSH2 0xDF2 JUMP JUMPDEST SWAP2 POP POP SWAP3 SWAP2 POP POP JUMP JUMPDEST PUSH1 0x0 DUP2 ISZERO ISZERO SWAP1 POP SWAP2 SWAP1 POP JUMP JUMPDEST PUSH2 0xE49 DUP2 PUSH2 0xE34 JUMP JUMPDEST DUP3 MSTORE POP POP JUMP JUMPDEST PUSH1 0x0 PUSH1 0x20 DUP3 ADD SWAP1 POP PUSH2 0xE64 PUSH1 0x0 DUP4 ADD DUP5 PUSH2 0xE40 JUMP JUMPDEST SWAP3 SWAP2 POP POP JUMP JUMPDEST PUSH2 0xE73 DUP2 PUSH2 0xDC9 JUMP JUMPDEST DUP3 MSTORE POP POP JUMP JUMPDEST PUSH1 0x0 PUSH1 0x20 DUP3 ADD SWAP1 POP PUSH2 0xE8E PUSH1 0x0 DUP4 ADD DUP5 PUSH2 0xE6A JUMP JUMPDEST SWAP3 SWAP2 POP POP JUMP JUMPDEST PUSH1 0x0 DUP2 SWAP1 POP SWAP2 SWAP1 POP JUMP JUMPDEST PUSH2 0xEA7 DUP2 PUSH2 0xE94 JUMP JUMPDEST DUP2 EQ PUSH2 0xEB2 JUMPI PUSH1 0x0 DUP1 REVERT JUMPDEST POP JUMP JUMPDEST PUSH1 0x0 DUP2 CALLDATALOAD SWAP1 POP PUSH2 0xEC4 DUP2 PUSH2 0xE9E JUMP JUMPDEST SWAP3 SWAP2 POP POP JUMP JUMPDEST PUSH1 0x0 PUSH1 0x20 DUP3 DUP5 SUB SLT ISZERO PUSH2 0xEE0 JUMPI PUSH2 0xEDF PUSH2 0xDA4 JUMP JUMPDEST JUMPDEST PUSH1 0x0 PUSH2 0xEEE DUP5 DUP3 DUP6 ADD PUSH2 0xEB5 JUMP JUMPDEST SWAP2 POP POP SWAP3 SWAP2 POP POP JUMP JUMPDEST PUSH2 0xF00 DUP2 PUSH2 0xE94 JUMP JUMPDEST DUP3 MSTORE POP POP JUMP JUMPDEST PUSH1 0x0 PUSH1 0xA0 DUP3 ADD SWAP1 POP PUSH2 0xF1B PUSH1 0x0 DUP4 ADD DUP9 PUSH2 0xEF7 JUMP JUMPDEST PUSH2 0xF28 PUSH1 0x20 DUP4 ADD DUP8 PUSH2 0xEF7 JUMP JUMPDEST PUSH2 0xF35 PUSH1 0x40 DUP4 ADD DUP7 PUSH2 0xEF7 JUMP JUMPDEST PUSH2 0xF42 PUSH1 0x60 DUP4 ADD DUP6 PUSH2 0xEF7 JUMP JUMPDEST PUSH2 0xF4F PUSH1 0x80 DUP4 ADD DUP5 PUSH2 0xEF7 JUMP JUMPDEST SWAP7 SWAP6 POP POP POP POP POP POP JUMP JUMPDEST PUSH1 0x0 PUSH1 0xE0 DUP3 ADD SWAP1 POP PUSH2 0xF6E PUSH1 0x0 DUP4 ADD DUP11 PUSH2 0xEF7 JUMP JUMPDEST PUSH2 0xF7B PUSH1 0x20 DUP4 ADD DUP10 PUSH2 0xEF7 JUMP JUMPDEST PUSH2 0xF88 PUSH1 0x40 DUP4 ADD DUP9 PUSH2 0xEF7 JUMP JUMPDEST PUSH2 0xF95 PUSH1 0x60 DUP4 ADD DUP8 PUSH2 0xEF7 JUMP JUMPDEST PUSH2 0xFA2 PUSH1 0x80 DUP4 ADD DUP7 PUSH2 0xEF7 JUMP JUMPDEST PUSH2 0xFAF PUSH1 0xA0 DUP4 ADD DUP6 PUSH2 0xEF7 JUMP JUMPDEST PUSH2 0xFBC PUSH1 0xC0 DUP4 ADD DUP5 PUSH2 0xEF7 JUMP JUMPDEST SWAP9 SWAP8 POP POP POP POP POP POP POP POP JUMP JUMPDEST PUSH1 0x0 DUP1 PUSH1 0x0 DUP1 PUSH1 0x0 DUP1 PUSH1 0x0 PUSH1 0xE0 DUP9 DUP11 SUB SLT ISZERO PUSH2 0xFE7 JUMPI PUSH2 0xFE6 PUSH2 0xDA4 JUMP JUMPDEST JUMPDEST PUSH1 0x0 PUSH2 0xFF5 DUP11 DUP3 DUP12 ADD PUSH2 0xEB5 JUMP JUMPDEST SWAP8 POP POP PUSH1 0x20 PUSH2 0x1006 DUP11 DUP3 DUP12 ADD PUSH2 0xEB5 JUMP JUMPDEST SWAP7 POP POP PUSH1 0x40 PUSH2 0x1017 DUP11 DUP3 DUP12 ADD PUSH2 0xEB5 JUMP JUMPDEST SWAP6 POP POP PUSH1 0x60 PUSH2 0x1028 DUP11 DUP3 DUP12 ADD PUSH2 0xEB5 JUMP JUMPDEST SWAP5 POP POP PUSH1 0x80 PUSH2 0x1039 DUP11 DUP3 DUP12 ADD PUSH2 0xEB5 JUMP JUMPDEST SWAP4 POP POP PUSH1 0xA0 PUSH2 0x104A DUP11 DUP3 DUP12 ADD PUSH2 0xEB5 JUMP JUMPDEST SWAP3 POP POP PUSH1 0xC0 PUSH2 0x105B DUP11 DUP3 DUP12 ADD PUSH2 0xEB5 JUMP JUMPDEST SWAP2 POP POP SWAP3 SWAP6 SWAP9 SWAP2 SWAP5 SWAP8 POP SWAP3 SWAP6 POP JUMP JUMPDEST PUSH1 0x0 DUP3 DUP3 MSTORE PUSH1 0x20 DUP3 ADD SWAP1 POP SWAP3 SWAP2 POP POP JUMP JUMPDEST PUSH32 0x526570726573656E74617469766573206F6E6C79206861766520746865207269 PUSH1 0x0 DUP3 ADD MSTORE PUSH32 0x67687420746F20766F7465000000000000000000000000000000000000000000 PUSH1 0x20 DUP3 ADD MSTORE POP JUMP JUMPDEST PUSH1 0x0 PUSH2 0x10D7 PUSH1 0x2B DUP4 PUSH2 0x106A JUMP JUMPDEST SWAP2 POP PUSH2 0x10E2 DUP3 PUSH2 0x107B JUMP JUMPDEST PUSH1 0x40 DUP3 ADD SWAP1 POP SWAP2 SWAP1 POP JUMP JUMPDEST PUSH1 0x0 PUSH1 0x20 DUP3 ADD SWAP1 POP DUP2 DUP2 SUB PUSH1 0x0 DUP4 ADD MSTORE PUSH2 0x1106 DUP2 PUSH2 0x10CA JUMP JUMPDEST SWAP1 POP SWAP2 SWAP1 POP JUMP JUMPDEST PUSH32 0x4E487B7100000000000000000000000000000000000000000000000000000000 PUSH1 0x0 MSTORE PUSH1 0x11 PUSH1 0x4 MSTORE PUSH1 0x24 PUSH1 0x0 REVERT JUMPDEST PUSH1 0x0 PUSH2 0x1147 DUP3 PUSH2 0xE94 JUMP JUMPDEST SWAP2 POP PUSH2 0x1152 DUP4 PUSH2 0xE94 JUMP JUMPDEST SWAP3 POP DUP3 DUP3 SUB SWAP1 POP DUP2 DUP2 GT ISZERO PUSH2 0x116A JUMPI PUSH2 0x1169 PUSH2 0x110D JUMP JUMPDEST JUMPDEST SWAP3 SWAP2 POP POP JUMP JUMPDEST PUSH32 0x4E487B7100000000000000000000000000000000000000000000000000000000 PUSH1 0x0 MSTORE PUSH1 0x32 PUSH1 0x4 MSTORE PUSH1 0x24 PUSH1 0x0 REVERT JUMPDEST PUSH1 0x0 PUSH2 0x11AA DUP3 PUSH2 0xE94 JUMP JUMPDEST SWAP2 POP PUSH32 0xFFFFFFFFFFFFFFFFFFFFFFFFFFFFFFFFFFFFFFFFFFFFFFFFFFFFFFFFFFFFFFFF DUP3 SUB PUSH2 0x11DC JUMPI PUSH2 0x11DB PUSH2 0x110D JUMP JUMPDEST JUMPDEST PUSH1 0x1 DUP3 ADD SWAP1 POP SWAP2 SWAP1 POP JUMP JUMPDEST PUSH32 0x596F75206861766520616C726561647920766F74656400000000000000000000 PUSH1 0x0 DUP3 ADD MSTORE POP JUMP JUMPDEST PUSH1 0x0 PUSH2 0x121D PUSH1 0x16 DUP4 PUSH2 0x106A JUMP JUMPDEST SWAP2 POP PUSH2 0x1228 DUP3 PUSH2 0x11E7 JUMP JUMPDEST PUSH1 0x20 DUP3 ADD SWAP1 POP SWAP2 SWAP1 POP JUMP JUMPDEST PUSH1 0x0 PUSH1 0x20 DUP3 ADD SWAP1 POP DUP2 DUP2 SUB PUSH1 0x0 DUP4 ADD MSTORE PUSH2 0x124C DUP2 PUSH2 0x1210 JUMP JUMPDEST SWAP1 POP SWAP2 SWAP1 POP JUMP INVALID LOG2 PUSH5 0x6970667358 0x22 SLT KECCAK256 INVALID 0xD8 0xAF LOG1 0xF7 0xEF 0xCB SWAP11 0xED 0xB5 0x21 0xE7 0xE9 SELFBALANCE 0xE9 SUB 0xDC PUSH30 0x3E05390C5417F53786E3113CA65364736F6C634300081200330000000000 "
				},
				"gasEstimates": {
					"creation": {
						"codeDepositCost": "949000",
						"executionCost": "988",
						"totalCost": "949988"
					},
					"external": {
						"Chairman(uint256)": "5022",
						"addlow(uint256,uint256,uint256,uint256,uint256,uint256,uint256)": "infinite",
						"endOfVoting()": "infinite",
						"hasRepresentatives(uint256)": "infinite",
						"isrepresentatives(address)": "2823",
						"representatives()": "2514"
					}
				},
				"methodIdentifiers": {
					"Chairman(uint256)": "b3ef4aa4",
					"addlow(uint256,uint256,uint256,uint256,uint256,uint256,uint256)": "fa1ad70c",
					"endOfVoting()": "7e887332",
					"hasRepresentatives(uint256)": "74265c68",
					"isrepresentatives(address)": "109241e7",
					"representatives()": "396abc84"
				}
			},
			"storageLayout": {
				"storage": [
					{
						"astId": 25,
						"contract": "Assembly.sol:Newlaw",
						"label": "isrepresentatives",
						"offset": 0,
						"slot": "0",
						"type": "t_mapping(t_address,t_bool)"
					},
					{
						"astId": 27,
						"contract": "Assembly.sol:Newlaw",
						"label": "representatives",
						"offset": 0,
						"slot": "1",
						"type": "t_address"
					},
					{
						"astId": 30,
						"contract": "Assembly.sol:Newlaw",
						"label": "Chairman",
						"offset": 0,
						"slot": "2",
						"type": "t_array(t_address)dyn_storage"
					},
					{
						"astId": 49,
						"contract": "Assembly.sol:Newlaw",
						"label": "Laws",
						"offset": 0,
						"slot": "3",
						"type": "t_array(t_struct(newlaw)45_storage)dyn_storage"
					}
				],
				"types": {
					"t_address": {
						"encoding": "inplace",
						"label": "address",
						"numberOfBytes": "20"
					},
					"t_array(t_address)dyn_storage": {
						"base": "t_address",
						"encoding": "dynamic_array",
						"label": "address[]",
						"numberOfBytes": "32"
					},
					"t_array(t_struct(newlaw)45_storage)dyn_storage": {
						"base": "t_struct(newlaw)45_storage",
						"encoding": "dynamic_array",
						"label": "struct Newlaw.newlaw[]",
						"numberOfBytes": "32"
					},
					"t_bool": {
						"encoding": "inplace",
						"label": "bool",
						"numberOfBytes": "1"
					},
					"t_mapping(t_address,t_bool)": {
						"encoding": "mapping",
						"key": "t_address",
						"label": "mapping(address => bool)",
						"numberOfBytes": "32",
						"value": "t_bool"
					},
					"t_struct(newlaw)45_storage": {
						"encoding": "inplace",
						"label": "struct Newlaw.newlaw",
						"members": [
							{
								"astId": 32,
								"contract": "Assembly.sol:Newlaw",
								"label": "timestampstart",
								"offset": 0,
								"slot": "0",
								"type": "t_uint256"
							},
							{
								"astId": 34,
								"contract": "Assembly.sol:Newlaw",
								"label": "totalvotes",
								"offset": 0,
								"slot": "1",
								"type": "t_uint256"
							},
							{
								"astId": 36,
								"contract": "Assembly.sol:Newlaw",
								"label": "agree",
								"offset": 0,
								"slot": "2",
								"type": "t_uint256"
							},
							{
								"astId": 38,
								"contract": "Assembly.sol:Newlaw",
								"label": "Against",
								"offset": 0,
								"slot": "3",
								"type": "t_uint256"
							},
							{
								"astId": 40,
								"contract": "Assembly.sol:Newlaw",
								"label": "noidea",
								"offset": 0,
								"slot": "4",
								"type": "t_uint256"
							},
							{
								"astId": 42,
								"contract": "Assembly.sol:Newlaw",
								"label": "void",
								"offset": 0,
								"slot": "5",
								"type": "t_uint256"
							},
							{
								"astId": 44,
								"contract": "Assembly.sol:Newlaw",
								"label": "TimeStampEnd",
								"offset": 0,
								"slot": "6",
								"type": "t_uint256"
							}
						],
						"numberOfBytes": "224"
					},
					"t_uint256": {
						"encoding": "inplace",
						"label": "uint256",
						"numberOfBytes": "32"
					}
				}
			},
			"userdoc": {
				"kind": "user",
				"methods": {},
				"version": 1
			}
		}
	}
}