{
	"myelection.sol": {
		"voting2": {
			"abi": [
				{
					"inputs": [
						{
							"internalType": "address",
							"name": "_Remotecontrol",
							"type": "address"
						},
						{
							"internalType": "address",
							"name": "_ballotbox",
							"type": "address"
						},
						{
							"internalType": "uint256",
							"name": "_Votingsection",
							"type": "uint256"
						}
					],
					"stateMutability": "nonpayable",
					"type": "constructor"
				},
				{
					"anonymous": false,
					"inputs": [
						{
							"indexed": false,
							"internalType": "uint256",
							"name": "Votingsection",
							"type": "uint256"
						},
						{
							"indexed": false,
							"internalType": "uint256",
							"name": "timestampstart",
							"type": "uint256"
						},
						{
							"indexed": false,
							"internalType": "uint256",
							"name": "candidateA",
							"type": "uint256"
						},
						{
							"indexed": false,
							"internalType": "uint256",
							"name": "candidateB",
							"type": "uint256"
						},
						{
							"indexed": false,
							"internalType": "uint256",
							"name": "blankvotes",
							"type": "uint256"
						},
						{
							"indexed": false,
							"internalType": "uint256",
							"name": "Nullvotes",
							"type": "uint256"
						}
					],
					"name": "voting",
					"type": "event"
				},
				{
					"inputs": [],
					"name": "Endofvoting",
					"outputs": [],
					"stateMutability": "nonpayable",
					"type": "function"
				},
				{
					"inputs": [],
					"name": "Finalresults",
					"outputs": [
						{
							"internalType": "uint256",
							"name": "_votingsection",
							"type": "uint256"
						},
						{
							"internalType": "uint256",
							"name": "_timeStampStart",
							"type": "uint256"
						},
						{
							"internalType": "uint256",
							"name": "_TimeStampEnd",
							"type": "uint256"
						},
						{
							"internalType": "uint256",
							"name": "_blankvotes",
							"type": "uint256"
						},
						{
							"internalType": "uint256",
							"name": "_NullVotes",
							"type": "uint256"
						},
						{
							"internalType": "uint256",
							"name": "_candidateA",
							"type": "uint256"
						},
						{
							"internalType": "uint256",
							"name": "_candidateB",
							"type": "uint256"
						}
					],
					"stateMutability": "view",
					"type": "function"
				},
				{
					"inputs": [],
					"name": "Remotecontrol",
					"outputs": [
						{
							"internalType": "address",
							"name": "",
							"type": "address"
						}
					],
					"stateMutability": "view",
					"type": "function"
				},
				{
					"inputs": [],
					"name": "StartVoting",
					"outputs": [],
					"stateMutability": "nonpayable",
					"type": "function"
				},
				{
					"inputs": [],
					"name": "ballotbox",
					"outputs": [
						{
							"internalType": "address",
							"name": "",
							"type": "address"
						}
					],
					"stateMutability": "view",
					"type": "function"
				},
				{
					"inputs": [
						{
							"internalType": "uint256",
							"name": "Vote",
							"type": "uint256"
						}
					],
					"name": "desiredvote",
					"outputs": [],
					"stateMutability": "nonpayable",
					"type": "function"
				}
			],
			"devdoc": {
				"kind": "dev",
				"methods": {},
				"version": 1
			},
			"evm": {
				"assembly": "    /* \"myelection.sol\":59:2285  contract voting2{... */\n  mstore(0x40, 0x80)\n    /* \"myelection.sol\":475:476  1 */\n  0x01\n    /* \"myelection.sol\":448:476  uint256 NumberCandidateA = 1 */\n  0x09\n  sstore\n    /* \"myelection.sol\":507:508  2 */\n  0x02\n    /* \"myelection.sol\":483:508  uint NumberCandidateB = 2 */\n  0x0a\n  sstore\n    /* \"myelection.sol\":578:583  false */\n  0x00\n    /* \"myelection.sol\":546:583  bool Activateballotboxaddress = false */\n  0x0c\n  exp(0x0100, 0x00)\n  dup2\n  sload\n  dup2\n  0xff\n  mul\n  not\n  and\n  swap1\n  dup4\n  iszero\n  iszero\n  mul\n  or\n  swap1\n  sstore\n  pop\n    /* \"myelection.sol\":805:1023  constructor (address _Remotecontrol, address _ballotbox , uint _Votingsection )public {... */\n  callvalue\n  dup1\n  iszero\n  tag_1\n  jumpi\n  0x00\n  dup1\n  revert\ntag_1:\n  pop\n  mload(0x40)\n  sub(codesize, bytecodeSize)\n  dup1\n  bytecodeSize\n  dup4\n  codecopy\n  dup2\n  dup2\n  add\n  0x40\n  mstore\n  dup2\n  add\n  swap1\n  tag_2\n  swap2\n  swap1\n  tag_3\n  jump\t// in\ntag_2:\n    /* \"myelection.sol\":912:926  _Remotecontrol */\n  dup3\n    /* \"myelection.sol\":896:909  Remotecontrol */\n  0x01\n  0x00\n    /* \"myelection.sol\":896:926  Remotecontrol = _Remotecontrol */\n  0x0100\n  exp\n  dup2\n  sload\n  dup2\n  0xffffffffffffffffffffffffffffffffffffffff\n  mul\n  not\n  and\n  swap1\n  dup4\n  0xffffffffffffffffffffffffffffffffffffffff\n  and\n  mul\n  or\n  swap1\n  sstore\n  pop\n    /* \"myelection.sol\":944:954  _ballotbox */\n  dup2\n    /* \"myelection.sol\":932:941  ballotbox */\n  0x00\n  dup1\n    /* \"myelection.sol\":932:954  ballotbox = _ballotbox */\n  0x0100\n  exp\n  dup2\n  sload\n  dup2\n  0xffffffffffffffffffffffffffffffffffffffff\n  mul\n  not\n  and\n  swap1\n  dup4\n  0xffffffffffffffffffffffffffffffffffffffff\n  and\n  mul\n  or\n  swap1\n  sstore\n  pop\n    /* \"myelection.sol\":976:990  _Votingsection */\n  dup1\n    /* \"myelection.sol\":960:973  votingsection */\n  0x02\n    /* \"myelection.sol\":960:990  votingsection = _Votingsection */\n  dup2\n  swap1\n  sstore\n  pop\n    /* \"myelection.sol\":1009:1019  msg.sender */\n  caller\n    /* \"myelection.sol\":997:1006  ballotbox */\n  0x00\n  dup1\n    /* \"myelection.sol\":997:1019  ballotbox = msg.sender */\n  0x0100\n  exp\n  dup2\n  sload\n  dup2\n  0xffffffffffffffffffffffffffffffffffffffff\n  mul\n  not\n  and\n  swap1\n  dup4\n  0xffffffffffffffffffffffffffffffffffffffff\n  and\n  mul\n  or\n  swap1\n  sstore\n  pop\n    /* \"myelection.sol\":805:1023  constructor (address _Remotecontrol, address _ballotbox , uint _Votingsection )public {... */\n  pop\n  pop\n  pop\n    /* \"myelection.sol\":59:2285  contract voting2{... */\n  jump(tag_6)\n    /* \"#utility.yul\":88:205   */\ntag_8:\n    /* \"#utility.yul\":197:198   */\n  0x00\n    /* \"#utility.yul\":194:195   */\n  dup1\n    /* \"#utility.yul\":187:199   */\n  revert\n    /* \"#utility.yul\":334:460   */\ntag_10:\n    /* \"#utility.yul\":371:378   */\n  0x00\n    /* \"#utility.yul\":411:453   */\n  0xffffffffffffffffffffffffffffffffffffffff\n    /* \"#utility.yul\":404:409   */\n  dup3\n    /* \"#utility.yul\":400:454   */\n  and\n    /* \"#utility.yul\":389:454   */\n  swap1\n  pop\n    /* \"#utility.yul\":334:460   */\n  swap2\n  swap1\n  pop\n  jump\t// out\n    /* \"#utility.yul\":466:562   */\ntag_11:\n    /* \"#utility.yul\":503:510   */\n  0x00\n    /* \"#utility.yul\":532:556   */\n  tag_23\n    /* \"#utility.yul\":550:555   */\n  dup3\n    /* \"#utility.yul\":532:556   */\n  tag_10\n  jump\t// in\ntag_23:\n    /* \"#utility.yul\":521:556   */\n  swap1\n  pop\n    /* \"#utility.yul\":466:562   */\n  swap2\n  swap1\n  pop\n  jump\t// out\n    /* \"#utility.yul\":568:690   */\ntag_12:\n    /* \"#utility.yul\":641:665   */\n  tag_25\n    /* \"#utility.yul\":659:664   */\n  dup2\n    /* \"#utility.yul\":641:665   */\n  tag_11\n  jump\t// in\ntag_25:\n    /* \"#utility.yul\":634:639   */\n  dup2\n    /* \"#utility.yul\":631:666   */\n  eq\n    /* \"#utility.yul\":621:684   */\n  tag_26\n  jumpi\n    /* \"#utility.yul\":680:681   */\n  0x00\n    /* \"#utility.yul\":677:678   */\n  dup1\n    /* \"#utility.yul\":670:682   */\n  revert\n    /* \"#utility.yul\":621:684   */\ntag_26:\n    /* \"#utility.yul\":568:690   */\n  pop\n  jump\t// out\n    /* \"#utility.yul\":696:839   */\ntag_13:\n    /* \"#utility.yul\":753:758   */\n  0x00\n    /* \"#utility.yul\":784:790   */\n  dup2\n    /* \"#utility.yul\":778:791   */\n  mload\n    /* \"#utility.yul\":769:791   */\n  swap1\n  pop\n    /* \"#utility.yul\":800:833   */\n  tag_28\n    /* \"#utility.yul\":827:832   */\n  dup2\n    /* \"#utility.yul\":800:833   */\n  tag_12\n  jump\t// in\ntag_28:\n    /* \"#utility.yul\":696:839   */\n  swap3\n  swap2\n  pop\n  pop\n  jump\t// out\n    /* \"#utility.yul\":845:922   */\ntag_14:\n    /* \"#utility.yul\":882:889   */\n  0x00\n    /* \"#utility.yul\":911:916   */\n  dup2\n    /* \"#utility.yul\":900:916   */\n  swap1\n  pop\n    /* \"#utility.yul\":845:922   */\n  swap2\n  swap1\n  pop\n  jump\t// out\n    /* \"#utility.yul\":928:1050   */\ntag_15:\n    /* \"#utility.yul\":1001:1025   */\n  tag_31\n    /* \"#utility.yul\":1019:1024   */\n  dup2\n    /* \"#utility.yul\":1001:1025   */\n  tag_14\n  jump\t// in\ntag_31:\n    /* \"#utility.yul\":994:999   */\n  dup2\n    /* \"#utility.yul\":991:1026   */\n  eq\n    /* \"#utility.yul\":981:1044   */\n  tag_32\n  jumpi\n    /* \"#utility.yul\":1040:1041   */\n  0x00\n    /* \"#utility.yul\":1037:1038   */\n  dup1\n    /* \"#utility.yul\":1030:1042   */\n  revert\n    /* \"#utility.yul\":981:1044   */\ntag_32:\n    /* \"#utility.yul\":928:1050   */\n  pop\n  jump\t// out\n    /* \"#utility.yul\":1056:1199   */\ntag_16:\n    /* \"#utility.yul\":1113:1118   */\n  0x00\n    /* \"#utility.yul\":1144:1150   */\n  dup2\n    /* \"#utility.yul\":1138:1151   */\n  mload\n    /* \"#utility.yul\":1129:1151   */\n  swap1\n  pop\n    /* \"#utility.yul\":1160:1193   */\n  tag_34\n    /* \"#utility.yul\":1187:1192   */\n  dup2\n    /* \"#utility.yul\":1160:1193   */\n  tag_15\n  jump\t// in\ntag_34:\n    /* \"#utility.yul\":1056:1199   */\n  swap3\n  swap2\n  pop\n  pop\n  jump\t// out\n    /* \"#utility.yul\":1205:1868   */\ntag_3:\n    /* \"#utility.yul\":1293:1299   */\n  0x00\n    /* \"#utility.yul\":1301:1307   */\n  dup1\n    /* \"#utility.yul\":1309:1315   */\n  0x00\n    /* \"#utility.yul\":1358:1360   */\n  0x60\n    /* \"#utility.yul\":1346:1355   */\n  dup5\n    /* \"#utility.yul\":1337:1344   */\n  dup7\n    /* \"#utility.yul\":1333:1356   */\n  sub\n    /* \"#utility.yul\":1329:1361   */\n  slt\n    /* \"#utility.yul\":1326:1445   */\n  iszero\n  tag_36\n  jumpi\n    /* \"#utility.yul\":1364:1443   */\n  tag_37\n  tag_8\n  jump\t// in\ntag_37:\n    /* \"#utility.yul\":1326:1445   */\ntag_36:\n    /* \"#utility.yul\":1484:1485   */\n  0x00\n    /* \"#utility.yul\":1509:1573   */\n  tag_38\n    /* \"#utility.yul\":1565:1572   */\n  dup7\n    /* \"#utility.yul\":1556:1562   */\n  dup3\n    /* \"#utility.yul\":1545:1554   */\n  dup8\n    /* \"#utility.yul\":1541:1563   */\n  add\n    /* \"#utility.yul\":1509:1573   */\n  tag_13\n  jump\t// in\ntag_38:\n    /* \"#utility.yul\":1499:1573   */\n  swap4\n  pop\n    /* \"#utility.yul\":1455:1583   */\n  pop\n    /* \"#utility.yul\":1622:1624   */\n  0x20\n    /* \"#utility.yul\":1648:1712   */\n  tag_39\n    /* \"#utility.yul\":1704:1711   */\n  dup7\n    /* \"#utility.yul\":1695:1701   */\n  dup3\n    /* \"#utility.yul\":1684:1693   */\n  dup8\n    /* \"#utility.yul\":1680:1702   */\n  add\n    /* \"#utility.yul\":1648:1712   */\n  tag_13\n  jump\t// in\ntag_39:\n    /* \"#utility.yul\":1638:1712   */\n  swap3\n  pop\n    /* \"#utility.yul\":1593:1722   */\n  pop\n    /* \"#utility.yul\":1761:1763   */\n  0x40\n    /* \"#utility.yul\":1787:1851   */\n  tag_40\n    /* \"#utility.yul\":1843:1850   */\n  dup7\n    /* \"#utility.yul\":1834:1840   */\n  dup3\n    /* \"#utility.yul\":1823:1832   */\n  dup8\n    /* \"#utility.yul\":1819:1841   */\n  add\n    /* \"#utility.yul\":1787:1851   */\n  tag_16\n  jump\t// in\ntag_40:\n    /* \"#utility.yul\":1777:1851   */\n  swap2\n  pop\n    /* \"#utility.yul\":1732:1861   */\n  pop\n    /* \"#utility.yul\":1205:1868   */\n  swap3\n  pop\n  swap3\n  pop\n  swap3\n  jump\t// out\n    /* \"myelection.sol\":59:2285  contract voting2{... */\ntag_6:\n  dataSize(sub_0)\n  dup1\n  dataOffset(sub_0)\n  0x00\n  codecopy\n  0x00\n  return\nstop\n\nsub_0: assembly {\n        /* \"myelection.sol\":59:2285  contract voting2{... */\n      mstore(0x40, 0x80)\n      callvalue\n      dup1\n      iszero\n      tag_1\n      jumpi\n      0x00\n      dup1\n      revert\n    tag_1:\n      pop\n      jumpi(tag_2, lt(calldatasize, 0x04))\n      shr(0xe0, calldataload(0x00))\n      dup1\n      0x2641aac0\n      eq\n      tag_3\n      jumpi\n      dup1\n      0x2c7412ce\n      eq\n      tag_4\n      jumpi\n      dup1\n      0x4a485c18\n      eq\n      tag_5\n      jumpi\n      dup1\n      0x4ba8184f\n      eq\n      tag_6\n      jumpi\n      dup1\n      0x7a99c0a6\n      eq\n      tag_7\n      jumpi\n      dup1\n      0xca98025b\n      eq\n      tag_8\n      jumpi\n    tag_2:\n      0x00\n      dup1\n      revert\n        /* \"myelection.sol\":1862:1971  function Endofvoting()public{... */\n    tag_3:\n      tag_9\n      tag_10\n      jump\t// in\n    tag_9:\n      stop\n        /* \"myelection.sol\":1464:1858  function desiredvote(uint256 Vote)public Votingconditions{... */\n    tag_4:\n      tag_11\n      0x04\n      dup1\n      calldatasize\n      sub\n      dup2\n      add\n      swap1\n      tag_12\n      swap2\n      swap1\n      tag_13\n      jump\t// in\n    tag_12:\n      tag_14\n      jump\t// in\n    tag_11:\n      stop\n        /* \"myelection.sol\":1975:2282  function Finalresults()public view returns(uint _votingsection , uint _timeStampStart , uint _TimeStampEnd , uint _blankvotes , uint _NullVotes, uint _candidateA , uint _candidateB ){... */\n    tag_5:\n      tag_15\n      tag_16\n      jump\t// in\n    tag_15:\n      mload(0x40)\n      tag_17\n      swap8\n      swap7\n      swap6\n      swap5\n      swap4\n      swap3\n      swap2\n      swap1\n      tag_18\n      jump\t// in\n    tag_17:\n      mload(0x40)\n      dup1\n      swap2\n      sub\n      swap1\n      return\n        /* \"myelection.sol\":214:238  address public ballotbox */\n    tag_6:\n      tag_19\n      tag_20\n      jump\t// in\n    tag_19:\n      mload(0x40)\n      tag_21\n      swap2\n      swap1\n      tag_22\n      jump\t// in\n    tag_21:\n      mload(0x40)\n      dup1\n      swap2\n      sub\n      swap1\n      return\n        /* \"myelection.sol\":1314:1460  function StartVoting()public{... */\n    tag_7:\n      tag_23\n      tag_24\n      jump\t// in\n    tag_23:\n      stop\n        /* \"myelection.sol\":246:274  address public Remotecontrol */\n    tag_8:\n      tag_25\n      tag_26\n      jump\t// in\n    tag_25:\n      mload(0x40)\n      tag_27\n      swap2\n      swap1\n      tag_22\n      jump\t// in\n    tag_27:\n      mload(0x40)\n      dup1\n      swap2\n      sub\n      swap1\n      return\n        /* \"myelection.sol\":1862:1971  function Endofvoting()public{... */\n    tag_10:\n        /* \"myelection.sol\":1912:1927  block.timestamp */\n      timestamp\n        /* \"myelection.sol\":1897:1909  TimeStampEnd */\n      0x04\n        /* \"myelection.sol\":1897:1927  TimeStampEnd = block.timestamp */\n      dup2\n      swap1\n      sstore\n      pop\n        /* \"myelection.sol\":1961:1966  false */\n      0x00\n        /* \"myelection.sol\":1934:1958  Activateballotboxaddress */\n      0x0c\n      0x00\n        /* \"myelection.sol\":1934:1966  Activateballotboxaddress = false */\n      0x0100\n      exp\n      dup2\n      sload\n      dup2\n      0xff\n      mul\n      not\n      and\n      swap1\n      dup4\n      iszero\n      iszero\n      mul\n      or\n      swap1\n      sstore\n      pop\n        /* \"myelection.sol\":1862:1971  function Endofvoting()public{... */\n      jump\t// out\n        /* \"myelection.sol\":1464:1858  function desiredvote(uint256 Vote)public Votingconditions{... */\n    tag_14:\n        /* \"myelection.sol\":1082:1091  ballotbox */\n      0x00\n      dup1\n      sload\n      swap1\n      0x0100\n      exp\n      swap1\n      div\n      0xffffffffffffffffffffffffffffffffffffffff\n      and\n        /* \"myelection.sol\":1068:1091  msg.sender == ballotbox */\n      0xffffffffffffffffffffffffffffffffffffffff\n      and\n        /* \"myelection.sol\":1068:1078  msg.sender */\n      caller\n        /* \"myelection.sol\":1068:1091  msg.sender == ballotbox */\n      0xffffffffffffffffffffffffffffffffffffffff\n      and\n      eq\n        /* \"myelection.sol\":1060:1138  require(msg.sender == ballotbox , \"The vote must be sent from the ballot box\") */\n      tag_30\n      jumpi\n      mload(0x40)\n      0x08c379a000000000000000000000000000000000000000000000000000000000\n      dup2\n      mstore\n      0x04\n      add\n      tag_31\n      swap1\n      tag_32\n      jump\t// in\n    tag_31:\n      mload(0x40)\n      dup1\n      swap2\n      sub\n      swap1\n      revert\n    tag_30:\n        /* \"myelection.sol\":1544:1549  false */\n      0x00\n        /* \"myelection.sol\":1532:1549  hasvoted == false */\n      iszero\n      iszero\n        /* \"myelection.sol\":1532:1540  hasvoted */\n      0x0c\n      0x01\n      swap1\n      sload\n      swap1\n      0x0100\n      exp\n      swap1\n      div\n      0xff\n      and\n        /* \"myelection.sol\":1532:1549  hasvoted == false */\n      iszero\n      iszero\n      sub\n        /* \"myelection.sol\":1529:1855  if(hasvoted == false){... */\n      tag_34\n      jumpi\n        /* \"myelection.sol\":1572:1588  NumberCandidateA */\n      sload(0x09)\n        /* \"myelection.sol\":1564:1568  Vote */\n      dup2\n        /* \"myelection.sol\":1564:1588  Vote == NumberCandidateA */\n      sub\n        /* \"myelection.sol\":1561:1630  if(Vote == NumberCandidateA) {... */\n      tag_35\n      jumpi\n        /* \"myelection.sol\":1604:1614  candidateA */\n      0x07\n      0x00\n        /* \"myelection.sol\":1604:1616  candidateA++ */\n      dup2\n      sload\n      dup1\n      swap3\n      swap2\n      swap1\n      tag_36\n      swap1\n      tag_37\n      jump\t// in\n    tag_36:\n      swap2\n      swap1\n      pop\n      sstore\n      pop\n        /* \"myelection.sol\":1561:1630  if(Vote == NumberCandidateA) {... */\n    tag_35:\n        /* \"myelection.sol\":1652:1668  NumberCandidateB */\n      sload(0x0a)\n        /* \"myelection.sol\":1644:1648  Vote */\n      dup2\n        /* \"myelection.sol\":1644:1668  Vote == NumberCandidateB */\n      sub\n        /* \"myelection.sol\":1641:1711  if(Vote == NumberCandidateB){... */\n      tag_38\n      jumpi\n        /* \"myelection.sol\":1685:1695  candidateB */\n      0x08\n      0x00\n        /* \"myelection.sol\":1685:1697  candidateB++ */\n      dup2\n      sload\n      dup1\n      swap3\n      swap2\n      swap1\n      tag_39\n      swap1\n      tag_37\n      jump\t// in\n    tag_39:\n      swap2\n      swap1\n      pop\n      sstore\n      pop\n        /* \"myelection.sol\":1641:1711  if(Vote == NumberCandidateB){... */\n    tag_38:\n        /* \"myelection.sol\":1733:1749  NumberBlankVotes */\n      sload(0x0b)\n        /* \"myelection.sol\":1725:1729  Vote */\n      dup2\n        /* \"myelection.sol\":1725:1749  Vote == NumberBlankVotes */\n      sub\n        /* \"myelection.sol\":1722:1847  if(Vote == NumberBlankVotes){... */\n      tag_40\n      jumpi\n        /* \"myelection.sol\":1766:1776  blankvotes */\n      0x05\n      0x00\n        /* \"myelection.sol\":1766:1778  blankvotes++ */\n      dup2\n      sload\n      dup1\n      swap3\n      swap2\n      swap1\n      tag_41\n      swap1\n      tag_37\n      jump\t// in\n    tag_41:\n      swap2\n      swap1\n      pop\n      sstore\n      pop\n        /* \"myelection.sol\":1722:1847  if(Vote == NumberBlankVotes){... */\n      jump(tag_42)\n    tag_40:\n        /* \"myelection.sol\":1822:1831  Nullvotes */\n      0x06\n      0x00\n        /* \"myelection.sol\":1822:1833  Nullvotes++ */\n      dup2\n      sload\n      dup1\n      swap3\n      swap2\n      swap1\n      tag_43\n      swap1\n      tag_37\n      jump\t// in\n    tag_43:\n      swap2\n      swap1\n      pop\n      sstore\n      pop\n        /* \"myelection.sol\":1722:1847  if(Vote == NumberBlankVotes){... */\n    tag_42:\n        /* \"myelection.sol\":1529:1855  if(hasvoted == false){... */\n    tag_34:\n        /* \"myelection.sol\":1171:1176  false */\n      0x00\n        /* \"myelection.sol\":1159:1176  hasvoted == false */\n      iszero\n      iszero\n        /* \"myelection.sol\":1159:1167  hasvoted */\n      0x0c\n      0x01\n      swap1\n      sload\n      swap1\n      0x0100\n      exp\n      swap1\n      div\n      0xff\n      and\n        /* \"myelection.sol\":1159:1176  hasvoted == false */\n      iszero\n      iszero\n      eq\n        /* \"myelection.sol\":1151:1219  require(hasvoted == false , \"Your vote has already been registered\") */\n      tag_44\n      jumpi\n      mload(0x40)\n      0x08c379a000000000000000000000000000000000000000000000000000000000\n      dup2\n      mstore\n      0x04\n      add\n      tag_45\n      swap1\n      tag_46\n      jump\t// in\n    tag_45:\n      mload(0x40)\n      dup1\n      swap2\n      sub\n      swap1\n      revert\n    tag_44:\n        /* \"myelection.sol\":1544:1549  false */\n      0x00\n        /* \"myelection.sol\":1532:1549  hasvoted == false */\n      iszero\n      iszero\n        /* \"myelection.sol\":1532:1540  hasvoted */\n      0x0c\n      0x01\n      swap1\n      sload\n      swap1\n      0x0100\n      exp\n      swap1\n      div\n      0xff\n      and\n        /* \"myelection.sol\":1532:1549  hasvoted == false */\n      iszero\n      iszero\n      sub\n        /* \"myelection.sol\":1529:1855  if(hasvoted == false){... */\n      tag_48\n      jumpi\n        /* \"myelection.sol\":1572:1588  NumberCandidateA */\n      sload(0x09)\n        /* \"myelection.sol\":1564:1568  Vote */\n      dup2\n        /* \"myelection.sol\":1564:1588  Vote == NumberCandidateA */\n      sub\n        /* \"myelection.sol\":1561:1630  if(Vote == NumberCandidateA) {... */\n      tag_49\n      jumpi\n        /* \"myelection.sol\":1604:1614  candidateA */\n      0x07\n      0x00\n        /* \"myelection.sol\":1604:1616  candidateA++ */\n      dup2\n      sload\n      dup1\n      swap3\n      swap2\n      swap1\n      tag_50\n      swap1\n      tag_37\n      jump\t// in\n    tag_50:\n      swap2\n      swap1\n      pop\n      sstore\n      pop\n        /* \"myelection.sol\":1561:1630  if(Vote == NumberCandidateA) {... */\n    tag_49:\n        /* \"myelection.sol\":1652:1668  NumberCandidateB */\n      sload(0x0a)\n        /* \"myelection.sol\":1644:1648  Vote */\n      dup2\n        /* \"myelection.sol\":1644:1668  Vote == NumberCandidateB */\n      sub\n        /* \"myelection.sol\":1641:1711  if(Vote == NumberCandidateB){... */\n      tag_51\n      jumpi\n        /* \"myelection.sol\":1685:1695  candidateB */\n      0x08\n      0x00\n        /* \"myelection.sol\":1685:1697  candidateB++ */\n      dup2\n      sload\n      dup1\n      swap3\n      swap2\n      swap1\n      tag_52\n      swap1\n      tag_37\n      jump\t// in\n    tag_52:\n      swap2\n      swap1\n      pop\n      sstore\n      pop\n        /* \"myelection.sol\":1641:1711  if(Vote == NumberCandidateB){... */\n    tag_51:\n        /* \"myelection.sol\":1733:1749  NumberBlankVotes */\n      sload(0x0b)\n        /* \"myelection.sol\":1725:1729  Vote */\n      dup2\n        /* \"myelection.sol\":1725:1749  Vote == NumberBlankVotes */\n      sub\n        /* \"myelection.sol\":1722:1847  if(Vote == NumberBlankVotes){... */\n      tag_53\n      jumpi\n        /* \"myelection.sol\":1766:1776  blankvotes */\n      0x05\n      0x00\n        /* \"myelection.sol\":1766:1778  blankvotes++ */\n      dup2\n      sload\n      dup1\n      swap3\n      swap2\n      swap1\n      tag_54\n      swap1\n      tag_37\n      jump\t// in\n    tag_54:\n      swap2\n      swap1\n      pop\n      sstore\n      pop\n        /* \"myelection.sol\":1722:1847  if(Vote == NumberBlankVotes){... */\n      jump(tag_55)\n    tag_53:\n        /* \"myelection.sol\":1822:1831  Nullvotes */\n      0x06\n      0x00\n        /* \"myelection.sol\":1822:1833  Nullvotes++ */\n      dup2\n      sload\n      dup1\n      swap3\n      swap2\n      swap1\n      tag_56\n      swap1\n      tag_37\n      jump\t// in\n    tag_56:\n      swap2\n      swap1\n      pop\n      sstore\n      pop\n        /* \"myelection.sol\":1722:1847  if(Vote == NumberBlankVotes){... */\n    tag_55:\n        /* \"myelection.sol\":1529:1855  if(hasvoted == false){... */\n    tag_48:\n        /* \"myelection.sol\":1254:1267  Remotecontrol */\n      0x01\n      0x00\n      swap1\n      sload\n      swap1\n      0x0100\n      exp\n      swap1\n      div\n      0xffffffffffffffffffffffffffffffffffffffff\n      and\n        /* \"myelection.sol\":1240:1267  msg.sender == Remotecontrol */\n      0xffffffffffffffffffffffffffffffffffffffff\n      and\n        /* \"myelection.sol\":1240:1250  msg.sender */\n      caller\n        /* \"myelection.sol\":1240:1267  msg.sender == Remotecontrol */\n      0xffffffffffffffffffffffffffffffffffffffff\n      and\n      eq\n        /* \"myelection.sol\":1232:1299  require(msg.sender == Remotecontrol , \"This address must be valid\") */\n      tag_57\n      jumpi\n      mload(0x40)\n      0x08c379a000000000000000000000000000000000000000000000000000000000\n      dup2\n      mstore\n      0x04\n      add\n      tag_58\n      swap1\n      tag_59\n      jump\t// in\n    tag_58:\n      mload(0x40)\n      dup1\n      swap2\n      sub\n      swap1\n      revert\n    tag_57:\n        /* \"myelection.sol\":1544:1549  false */\n      0x00\n        /* \"myelection.sol\":1532:1549  hasvoted == false */\n      iszero\n      iszero\n        /* \"myelection.sol\":1532:1540  hasvoted */\n      0x0c\n      0x01\n      swap1\n      sload\n      swap1\n      0x0100\n      exp\n      swap1\n      div\n      0xff\n      and\n        /* \"myelection.sol\":1532:1549  hasvoted == false */\n      iszero\n      iszero\n      sub\n        /* \"myelection.sol\":1529:1855  if(hasvoted == false){... */\n      tag_61\n      jumpi\n        /* \"myelection.sol\":1572:1588  NumberCandidateA */\n      sload(0x09)\n        /* \"myelection.sol\":1564:1568  Vote */\n      dup2\n        /* \"myelection.sol\":1564:1588  Vote == NumberCandidateA */\n      sub\n        /* \"myelection.sol\":1561:1630  if(Vote == NumberCandidateA) {... */\n      tag_62\n      jumpi\n        /* \"myelection.sol\":1604:1614  candidateA */\n      0x07\n      0x00\n        /* \"myelection.sol\":1604:1616  candidateA++ */\n      dup2\n      sload\n      dup1\n      swap3\n      swap2\n      swap1\n      tag_63\n      swap1\n      tag_37\n      jump\t// in\n    tag_63:\n      swap2\n      swap1\n      pop\n      sstore\n      pop\n        /* \"myelection.sol\":1561:1630  if(Vote == NumberCandidateA) {... */\n    tag_62:\n        /* \"myelection.sol\":1652:1668  NumberCandidateB */\n      sload(0x0a)\n        /* \"myelection.sol\":1644:1648  Vote */\n      dup2\n        /* \"myelection.sol\":1644:1668  Vote == NumberCandidateB */\n      sub\n        /* \"myelection.sol\":1641:1711  if(Vote == NumberCandidateB){... */\n      tag_64\n      jumpi\n        /* \"myelection.sol\":1685:1695  candidateB */\n      0x08\n      0x00\n        /* \"myelection.sol\":1685:1697  candidateB++ */\n      dup2\n      sload\n      dup1\n      swap3\n      swap2\n      swap1\n      tag_65\n      swap1\n      tag_37\n      jump\t// in\n    tag_65:\n      swap2\n      swap1\n      pop\n      sstore\n      pop\n        /* \"myelection.sol\":1641:1711  if(Vote == NumberCandidateB){... */\n    tag_64:\n        /* \"myelection.sol\":1733:1749  NumberBlankVotes */\n      sload(0x0b)\n        /* \"myelection.sol\":1725:1729  Vote */\n      dup2\n        /* \"myelection.sol\":1725:1749  Vote == NumberBlankVotes */\n      sub\n        /* \"myelection.sol\":1722:1847  if(Vote == NumberBlankVotes){... */\n      tag_66\n      jumpi\n        /* \"myelection.sol\":1766:1776  blankvotes */\n      0x05\n      0x00\n        /* \"myelection.sol\":1766:1778  blankvotes++ */\n      dup2\n      sload\n      dup1\n      swap3\n      swap2\n      swap1\n      tag_67\n      swap1\n      tag_37\n      jump\t// in\n    tag_67:\n      swap2\n      swap1\n      pop\n      sstore\n      pop\n        /* \"myelection.sol\":1722:1847  if(Vote == NumberBlankVotes){... */\n      jump(tag_68)\n    tag_66:\n        /* \"myelection.sol\":1822:1831  Nullvotes */\n      0x06\n      0x00\n        /* \"myelection.sol\":1822:1833  Nullvotes++ */\n      dup2\n      sload\n      dup1\n      swap3\n      swap2\n      swap1\n      tag_69\n      swap1\n      tag_37\n      jump\t// in\n    tag_69:\n      swap2\n      swap1\n      pop\n      sstore\n      pop\n        /* \"myelection.sol\":1722:1847  if(Vote == NumberBlankVotes){... */\n    tag_68:\n        /* \"myelection.sol\":1529:1855  if(hasvoted == false){... */\n    tag_61:\n        /* \"myelection.sol\":1464:1858  function desiredvote(uint256 Vote)public Votingconditions{... */\n      pop\n      jump\t// out\n        /* \"myelection.sol\":1975:2282  function Finalresults()public view returns(uint _votingsection , uint _timeStampStart , uint _TimeStampEnd , uint _blankvotes , uint _NullVotes, uint _candidateA , uint _candidateB ){... */\n    tag_16:\n        /* \"myelection.sol\":2018:2037  uint _votingsection */\n      0x00\n        /* \"myelection.sol\":2040:2060  uint _timeStampStart */\n      dup1\n        /* \"myelection.sol\":2063:2081  uint _TimeStampEnd */\n      0x00\n        /* \"myelection.sol\":2084:2100  uint _blankvotes */\n      dup1\n        /* \"myelection.sol\":2103:2118  uint _NullVotes */\n      0x00\n        /* \"myelection.sol\":2120:2136  uint _candidateA */\n      dup1\n        /* \"myelection.sol\":2139:2155  uint _candidateB */\n      0x00\n        /* \"myelection.sol\":2183:2196  votingsection */\n      sload(0x02)\n        /* \"myelection.sol\":2199:2213  timestampstart */\n      sload(0x03)\n        /* \"myelection.sol\":2215:2227  TimeStampEnd */\n      sload(0x04)\n        /* \"myelection.sol\":2229:2239  blankvotes */\n      sload(0x05)\n        /* \"myelection.sol\":2242:2251  Nullvotes */\n      sload(0x06)\n        /* \"myelection.sol\":2253:2263  candidateA */\n      sload(0x07)\n        /* \"myelection.sol\":2266:2276  candidateB */\n      sload(0x08)\n        /* \"myelection.sol\":2176:2278  return(votingsection , timestampstart ,TimeStampEnd, blankvotes , Nullvotes, candidateA , candidateB ) */\n      swap7\n      pop\n      swap7\n      pop\n      swap7\n      pop\n      swap7\n      pop\n      swap7\n      pop\n      swap7\n      pop\n      swap7\n      pop\n        /* \"myelection.sol\":1975:2282  function Finalresults()public view returns(uint _votingsection , uint _timeStampStart , uint _TimeStampEnd , uint _blankvotes , uint _NullVotes, uint _candidateA , uint _candidateB ){... */\n      swap1\n      swap2\n      swap3\n      swap4\n      swap5\n      swap6\n      swap7\n      jump\t// out\n        /* \"myelection.sol\":214:238  address public ballotbox */\n    tag_20:\n      0x00\n      dup1\n      sload\n      swap1\n      0x0100\n      exp\n      swap1\n      div\n      0xffffffffffffffffffffffffffffffffffffffff\n      and\n      dup2\n      jump\t// out\n        /* \"myelection.sol\":1314:1460  function StartVoting()public{... */\n    tag_24:\n        /* \"myelection.sol\":1367:1382  block.timestamp */\n      timestamp\n        /* \"myelection.sol\":1350:1364  timestampstart */\n      0x03\n        /* \"myelection.sol\":1350:1382  timestampstart = block.timestamp */\n      dup2\n      swap1\n      sstore\n      pop\n        /* \"myelection.sol\":1418:1422  true */\n      0x01\n        /* \"myelection.sol\":1391:1415  Activateballotboxaddress */\n      0x0c\n      0x00\n        /* \"myelection.sol\":1391:1422  Activateballotboxaddress = true */\n      0x0100\n      exp\n      dup2\n      sload\n      dup2\n      0xff\n      mul\n      not\n      and\n      swap1\n      dup4\n      iszero\n      iszero\n      mul\n      or\n      swap1\n      sstore\n      pop\n        /* \"myelection.sol\":1446:1456  msg.sender */\n      caller\n        /* \"myelection.sol\":1430:1443  Remotecontrol */\n      0x01\n      0x00\n        /* \"myelection.sol\":1430:1456  Remotecontrol = msg.sender */\n      0x0100\n      exp\n      dup2\n      sload\n      dup2\n      0xffffffffffffffffffffffffffffffffffffffff\n      mul\n      not\n      and\n      swap1\n      dup4\n      0xffffffffffffffffffffffffffffffffffffffff\n      and\n      mul\n      or\n      swap1\n      sstore\n      pop\n        /* \"myelection.sol\":1314:1460  function StartVoting()public{... */\n      jump\t// out\n        /* \"myelection.sol\":246:274  address public Remotecontrol */\n    tag_26:\n      0x01\n      0x00\n      swap1\n      sload\n      swap1\n      0x0100\n      exp\n      swap1\n      div\n      0xffffffffffffffffffffffffffffffffffffffff\n      and\n      dup2\n      jump\t// out\n        /* \"#utility.yul\":88:205   */\n    tag_73:\n        /* \"#utility.yul\":197:198   */\n      0x00\n        /* \"#utility.yul\":194:195   */\n      dup1\n        /* \"#utility.yul\":187:199   */\n      revert\n        /* \"#utility.yul\":334:411   */\n    tag_75:\n        /* \"#utility.yul\":371:378   */\n      0x00\n        /* \"#utility.yul\":400:405   */\n      dup2\n        /* \"#utility.yul\":389:405   */\n      swap1\n      pop\n        /* \"#utility.yul\":334:411   */\n      swap2\n      swap1\n      pop\n      jump\t// out\n        /* \"#utility.yul\":417:539   */\n    tag_76:\n        /* \"#utility.yul\":490:514   */\n      tag_96\n        /* \"#utility.yul\":508:513   */\n      dup2\n        /* \"#utility.yul\":490:514   */\n      tag_75\n      jump\t// in\n    tag_96:\n        /* \"#utility.yul\":483:488   */\n      dup2\n        /* \"#utility.yul\":480:515   */\n      eq\n        /* \"#utility.yul\":470:533   */\n      tag_97\n      jumpi\n        /* \"#utility.yul\":529:530   */\n      0x00\n        /* \"#utility.yul\":526:527   */\n      dup1\n        /* \"#utility.yul\":519:531   */\n      revert\n        /* \"#utility.yul\":470:533   */\n    tag_97:\n        /* \"#utility.yul\":417:539   */\n      pop\n      jump\t// out\n        /* \"#utility.yul\":545:684   */\n    tag_77:\n        /* \"#utility.yul\":591:596   */\n      0x00\n        /* \"#utility.yul\":629:635   */\n      dup2\n        /* \"#utility.yul\":616:636   */\n      calldataload\n        /* \"#utility.yul\":607:636   */\n      swap1\n      pop\n        /* \"#utility.yul\":645:678   */\n      tag_99\n        /* \"#utility.yul\":672:677   */\n      dup2\n        /* \"#utility.yul\":645:678   */\n      tag_76\n      jump\t// in\n    tag_99:\n        /* \"#utility.yul\":545:684   */\n      swap3\n      swap2\n      pop\n      pop\n      jump\t// out\n        /* \"#utility.yul\":690:1019   */\n    tag_13:\n        /* \"#utility.yul\":749:755   */\n      0x00\n        /* \"#utility.yul\":798:800   */\n      0x20\n        /* \"#utility.yul\":786:795   */\n      dup3\n        /* \"#utility.yul\":777:784   */\n      dup5\n        /* \"#utility.yul\":773:796   */\n      sub\n        /* \"#utility.yul\":769:801   */\n      slt\n        /* \"#utility.yul\":766:885   */\n      iszero\n      tag_101\n      jumpi\n        /* \"#utility.yul\":804:883   */\n      tag_102\n      tag_73\n      jump\t// in\n    tag_102:\n        /* \"#utility.yul\":766:885   */\n    tag_101:\n        /* \"#utility.yul\":924:925   */\n      0x00\n        /* \"#utility.yul\":949:1002   */\n      tag_103\n        /* \"#utility.yul\":994:1001   */\n      dup5\n        /* \"#utility.yul\":985:991   */\n      dup3\n        /* \"#utility.yul\":974:983   */\n      dup6\n        /* \"#utility.yul\":970:992   */\n      add\n        /* \"#utility.yul\":949:1002   */\n      tag_77\n      jump\t// in\n    tag_103:\n        /* \"#utility.yul\":939:1002   */\n      swap2\n      pop\n        /* \"#utility.yul\":895:1012   */\n      pop\n        /* \"#utility.yul\":690:1019   */\n      swap3\n      swap2\n      pop\n      pop\n      jump\t// out\n        /* \"#utility.yul\":1025:1143   */\n    tag_78:\n        /* \"#utility.yul\":1112:1136   */\n      tag_105\n        /* \"#utility.yul\":1130:1135   */\n      dup2\n        /* \"#utility.yul\":1112:1136   */\n      tag_75\n      jump\t// in\n    tag_105:\n        /* \"#utility.yul\":1107:1110   */\n      dup3\n        /* \"#utility.yul\":1100:1137   */\n      mstore\n        /* \"#utility.yul\":1025:1143   */\n      pop\n      pop\n      jump\t// out\n        /* \"#utility.yul\":1149:2035   */\n    tag_18:\n        /* \"#utility.yul\":1410:1414   */\n      0x00\n        /* \"#utility.yul\":1448:1451   */\n      0xe0\n        /* \"#utility.yul\":1437:1446   */\n      dup3\n        /* \"#utility.yul\":1433:1452   */\n      add\n        /* \"#utility.yul\":1425:1452   */\n      swap1\n      pop\n        /* \"#utility.yul\":1462:1533   */\n      tag_107\n        /* \"#utility.yul\":1530:1531   */\n      0x00\n        /* \"#utility.yul\":1519:1528   */\n      dup4\n        /* \"#utility.yul\":1515:1532   */\n      add\n        /* \"#utility.yul\":1506:1512   */\n      dup11\n        /* \"#utility.yul\":1462:1533   */\n      tag_78\n      jump\t// in\n    tag_107:\n        /* \"#utility.yul\":1543:1615   */\n      tag_108\n        /* \"#utility.yul\":1611:1613   */\n      0x20\n        /* \"#utility.yul\":1600:1609   */\n      dup4\n        /* \"#utility.yul\":1596:1614   */\n      add\n        /* \"#utility.yul\":1587:1593   */\n      dup10\n        /* \"#utility.yul\":1543:1615   */\n      tag_78\n      jump\t// in\n    tag_108:\n        /* \"#utility.yul\":1625:1697   */\n      tag_109\n        /* \"#utility.yul\":1693:1695   */\n      0x40\n        /* \"#utility.yul\":1682:1691   */\n      dup4\n        /* \"#utility.yul\":1678:1696   */\n      add\n        /* \"#utility.yul\":1669:1675   */\n      dup9\n        /* \"#utility.yul\":1625:1697   */\n      tag_78\n      jump\t// in\n    tag_109:\n        /* \"#utility.yul\":1707:1779   */\n      tag_110\n        /* \"#utility.yul\":1775:1777   */\n      0x60\n        /* \"#utility.yul\":1764:1773   */\n      dup4\n        /* \"#utility.yul\":1760:1778   */\n      add\n        /* \"#utility.yul\":1751:1757   */\n      dup8\n        /* \"#utility.yul\":1707:1779   */\n      tag_78\n      jump\t// in\n    tag_110:\n        /* \"#utility.yul\":1789:1862   */\n      tag_111\n        /* \"#utility.yul\":1857:1860   */\n      0x80\n        /* \"#utility.yul\":1846:1855   */\n      dup4\n        /* \"#utility.yul\":1842:1861   */\n      add\n        /* \"#utility.yul\":1833:1839   */\n      dup7\n        /* \"#utility.yul\":1789:1862   */\n      tag_78\n      jump\t// in\n    tag_111:\n        /* \"#utility.yul\":1872:1945   */\n      tag_112\n        /* \"#utility.yul\":1940:1943   */\n      0xa0\n        /* \"#utility.yul\":1929:1938   */\n      dup4\n        /* \"#utility.yul\":1925:1944   */\n      add\n        /* \"#utility.yul\":1916:1922   */\n      dup6\n        /* \"#utility.yul\":1872:1945   */\n      tag_78\n      jump\t// in\n    tag_112:\n        /* \"#utility.yul\":1955:2028   */\n      tag_113\n        /* \"#utility.yul\":2023:2026   */\n      0xc0\n        /* \"#utility.yul\":2012:2021   */\n      dup4\n        /* \"#utility.yul\":2008:2027   */\n      add\n        /* \"#utility.yul\":1999:2005   */\n      dup5\n        /* \"#utility.yul\":1955:2028   */\n      tag_78\n      jump\t// in\n    tag_113:\n        /* \"#utility.yul\":1149:2035   */\n      swap9\n      swap8\n      pop\n      pop\n      pop\n      pop\n      pop\n      pop\n      pop\n      pop\n      jump\t// out\n        /* \"#utility.yul\":2041:2167   */\n    tag_79:\n        /* \"#utility.yul\":2078:2085   */\n      0x00\n        /* \"#utility.yul\":2118:2160   */\n      0xffffffffffffffffffffffffffffffffffffffff\n        /* \"#utility.yul\":2111:2116   */\n      dup3\n        /* \"#utility.yul\":2107:2161   */\n      and\n        /* \"#utility.yul\":2096:2161   */\n      swap1\n      pop\n        /* \"#utility.yul\":2041:2167   */\n      swap2\n      swap1\n      pop\n      jump\t// out\n        /* \"#utility.yul\":2173:2269   */\n    tag_80:\n        /* \"#utility.yul\":2210:2217   */\n      0x00\n        /* \"#utility.yul\":2239:2263   */\n      tag_116\n        /* \"#utility.yul\":2257:2262   */\n      dup3\n        /* \"#utility.yul\":2239:2263   */\n      tag_79\n      jump\t// in\n    tag_116:\n        /* \"#utility.yul\":2228:2263   */\n      swap1\n      pop\n        /* \"#utility.yul\":2173:2269   */\n      swap2\n      swap1\n      pop\n      jump\t// out\n        /* \"#utility.yul\":2275:2393   */\n    tag_81:\n        /* \"#utility.yul\":2362:2386   */\n      tag_118\n        /* \"#utility.yul\":2380:2385   */\n      dup2\n        /* \"#utility.yul\":2362:2386   */\n      tag_80\n      jump\t// in\n    tag_118:\n        /* \"#utility.yul\":2357:2360   */\n      dup3\n        /* \"#utility.yul\":2350:2387   */\n      mstore\n        /* \"#utility.yul\":2275:2393   */\n      pop\n      pop\n      jump\t// out\n        /* \"#utility.yul\":2399:2621   */\n    tag_22:\n        /* \"#utility.yul\":2492:2496   */\n      0x00\n        /* \"#utility.yul\":2530:2532   */\n      0x20\n        /* \"#utility.yul\":2519:2528   */\n      dup3\n        /* \"#utility.yul\":2515:2533   */\n      add\n        /* \"#utility.yul\":2507:2533   */\n      swap1\n      pop\n        /* \"#utility.yul\":2543:2614   */\n      tag_120\n        /* \"#utility.yul\":2611:2612   */\n      0x00\n        /* \"#utility.yul\":2600:2609   */\n      dup4\n        /* \"#utility.yul\":2596:2613   */\n      add\n        /* \"#utility.yul\":2587:2593   */\n      dup5\n        /* \"#utility.yul\":2543:2614   */\n      tag_81\n      jump\t// in\n    tag_120:\n        /* \"#utility.yul\":2399:2621   */\n      swap3\n      swap2\n      pop\n      pop\n      jump\t// out\n        /* \"#utility.yul\":2627:2796   */\n    tag_82:\n        /* \"#utility.yul\":2711:2722   */\n      0x00\n        /* \"#utility.yul\":2745:2751   */\n      dup3\n        /* \"#utility.yul\":2740:2743   */\n      dup3\n        /* \"#utility.yul\":2733:2752   */\n      mstore\n        /* \"#utility.yul\":2785:2789   */\n      0x20\n        /* \"#utility.yul\":2780:2783   */\n      dup3\n        /* \"#utility.yul\":2776:2790   */\n      add\n        /* \"#utility.yul\":2761:2790   */\n      swap1\n      pop\n        /* \"#utility.yul\":2627:2796   */\n      swap3\n      swap2\n      pop\n      pop\n      jump\t// out\n        /* \"#utility.yul\":2802:3030   */\n    tag_83:\n        /* \"#utility.yul\":2942:2976   */\n      0x54686520766f7465206d7573742062652073656e742066726f6d207468652062\n        /* \"#utility.yul\":2938:2939   */\n      0x00\n        /* \"#utility.yul\":2930:2936   */\n      dup3\n        /* \"#utility.yul\":2926:2940   */\n      add\n        /* \"#utility.yul\":2919:2977   */\n      mstore\n        /* \"#utility.yul\":3011:3022   */\n      0x616c6c6f7420626f780000000000000000000000000000000000000000000000\n        /* \"#utility.yul\":3006:3008   */\n      0x20\n        /* \"#utility.yul\":2998:3004   */\n      dup3\n        /* \"#utility.yul\":2994:3009   */\n      add\n        /* \"#utility.yul\":2987:3023   */\n      mstore\n        /* \"#utility.yul\":2802:3030   */\n      pop\n      jump\t// out\n        /* \"#utility.yul\":3036:3402   */\n    tag_84:\n        /* \"#utility.yul\":3178:3181   */\n      0x00\n        /* \"#utility.yul\":3199:3266   */\n      tag_124\n        /* \"#utility.yul\":3263:3265   */\n      0x29\n        /* \"#utility.yul\":3258:3261   */\n      dup4\n        /* \"#utility.yul\":3199:3266   */\n      tag_82\n      jump\t// in\n    tag_124:\n        /* \"#utility.yul\":3192:3266   */\n      swap2\n      pop\n        /* \"#utility.yul\":3275:3368   */\n      tag_125\n        /* \"#utility.yul\":3364:3367   */\n      dup3\n        /* \"#utility.yul\":3275:3368   */\n      tag_83\n      jump\t// in\n    tag_125:\n        /* \"#utility.yul\":3393:3395   */\n      0x40\n        /* \"#utility.yul\":3388:3391   */\n      dup3\n        /* \"#utility.yul\":3384:3396   */\n      add\n        /* \"#utility.yul\":3377:3396   */\n      swap1\n      pop\n        /* \"#utility.yul\":3036:3402   */\n      swap2\n      swap1\n      pop\n      jump\t// out\n        /* \"#utility.yul\":3408:3827   */\n    tag_32:\n        /* \"#utility.yul\":3574:3578   */\n      0x00\n        /* \"#utility.yul\":3612:3614   */\n      0x20\n        /* \"#utility.yul\":3601:3610   */\n      dup3\n        /* \"#utility.yul\":3597:3615   */\n      add\n        /* \"#utility.yul\":3589:3615   */\n      swap1\n      pop\n        /* \"#utility.yul\":3661:3670   */\n      dup2\n        /* \"#utility.yul\":3655:3659   */\n      dup2\n        /* \"#utility.yul\":3651:3671   */\n      sub\n        /* \"#utility.yul\":3647:3648   */\n      0x00\n        /* \"#utility.yul\":3636:3645   */\n      dup4\n        /* \"#utility.yul\":3632:3649   */\n      add\n        /* \"#utility.yul\":3625:3672   */\n      mstore\n        /* \"#utility.yul\":3689:3820   */\n      tag_127\n        /* \"#utility.yul\":3815:3819   */\n      dup2\n        /* \"#utility.yul\":3689:3820   */\n      tag_84\n      jump\t// in\n    tag_127:\n        /* \"#utility.yul\":3681:3820   */\n      swap1\n      pop\n        /* \"#utility.yul\":3408:3827   */\n      swap2\n      swap1\n      pop\n      jump\t// out\n        /* \"#utility.yul\":3833:4013   */\n    tag_85:\n        /* \"#utility.yul\":3881:3958   */\n      0x4e487b7100000000000000000000000000000000000000000000000000000000\n        /* \"#utility.yul\":3878:3879   */\n      0x00\n        /* \"#utility.yul\":3871:3959   */\n      mstore\n        /* \"#utility.yul\":3978:3982   */\n      0x11\n        /* \"#utility.yul\":3975:3976   */\n      0x04\n        /* \"#utility.yul\":3968:3983   */\n      mstore\n        /* \"#utility.yul\":4002:4006   */\n      0x24\n        /* \"#utility.yul\":3999:4000   */\n      0x00\n        /* \"#utility.yul\":3992:4007   */\n      revert\n        /* \"#utility.yul\":4019:4252   */\n    tag_37:\n        /* \"#utility.yul\":4058:4061   */\n      0x00\n        /* \"#utility.yul\":4081:4105   */\n      tag_130\n        /* \"#utility.yul\":4099:4104   */\n      dup3\n        /* \"#utility.yul\":4081:4105   */\n      tag_75\n      jump\t// in\n    tag_130:\n        /* \"#utility.yul\":4072:4105   */\n      swap2\n      pop\n        /* \"#utility.yul\":4127:4193   */\n      0xffffffffffffffffffffffffffffffffffffffffffffffffffffffffffffffff\n        /* \"#utility.yul\":4120:4125   */\n      dup3\n        /* \"#utility.yul\":4117:4194   */\n      sub\n        /* \"#utility.yul\":4114:4217   */\n      tag_131\n      jumpi\n        /* \"#utility.yul\":4197:4215   */\n      tag_132\n      tag_85\n      jump\t// in\n    tag_132:\n        /* \"#utility.yul\":4114:4217   */\n    tag_131:\n        /* \"#utility.yul\":4244:4245   */\n      0x01\n        /* \"#utility.yul\":4237:4242   */\n      dup3\n        /* \"#utility.yul\":4233:4246   */\n      add\n        /* \"#utility.yul\":4226:4246   */\n      swap1\n      pop\n        /* \"#utility.yul\":4019:4252   */\n      swap2\n      swap1\n      pop\n      jump\t// out\n        /* \"#utility.yul\":4258:4482   */\n    tag_86:\n        /* \"#utility.yul\":4398:4432   */\n      0x596f757220766f74652068617320616c7265616479206265656e207265676973\n        /* \"#utility.yul\":4394:4395   */\n      0x00\n        /* \"#utility.yul\":4386:4392   */\n      dup3\n        /* \"#utility.yul\":4382:4396   */\n      add\n        /* \"#utility.yul\":4375:4433   */\n      mstore\n        /* \"#utility.yul\":4467:4474   */\n      0x7465726564000000000000000000000000000000000000000000000000000000\n        /* \"#utility.yul\":4462:4464   */\n      0x20\n        /* \"#utility.yul\":4454:4460   */\n      dup3\n        /* \"#utility.yul\":4450:4465   */\n      add\n        /* \"#utility.yul\":4443:4475   */\n      mstore\n        /* \"#utility.yul\":4258:4482   */\n      pop\n      jump\t// out\n        /* \"#utility.yul\":4488:4854   */\n    tag_87:\n        /* \"#utility.yul\":4630:4633   */\n      0x00\n        /* \"#utility.yul\":4651:4718   */\n      tag_135\n        /* \"#utility.yul\":4715:4717   */\n      0x25\n        /* \"#utility.yul\":4710:4713   */\n      dup4\n        /* \"#utility.yul\":4651:4718   */\n      tag_82\n      jump\t// in\n    tag_135:\n        /* \"#utility.yul\":4644:4718   */\n      swap2\n      pop\n        /* \"#utility.yul\":4727:4820   */\n      tag_136\n        /* \"#utility.yul\":4816:4819   */\n      dup3\n        /* \"#utility.yul\":4727:4820   */\n      tag_86\n      jump\t// in\n    tag_136:\n        /* \"#utility.yul\":4845:4847   */\n      0x40\n        /* \"#utility.yul\":4840:4843   */\n      dup3\n        /* \"#utility.yul\":4836:4848   */\n      add\n        /* \"#utility.yul\":4829:4848   */\n      swap1\n      pop\n        /* \"#utility.yul\":4488:4854   */\n      swap2\n      swap1\n      pop\n      jump\t// out\n        /* \"#utility.yul\":4860:5279   */\n    tag_46:\n        /* \"#utility.yul\":5026:5030   */\n      0x00\n        /* \"#utility.yul\":5064:5066   */\n      0x20\n        /* \"#utility.yul\":5053:5062   */\n      dup3\n        /* \"#utility.yul\":5049:5067   */\n      add\n        /* \"#utility.yul\":5041:5067   */\n      swap1\n      pop\n        /* \"#utility.yul\":5113:5122   */\n      dup2\n        /* \"#utility.yul\":5107:5111   */\n      dup2\n        /* \"#utility.yul\":5103:5123   */\n      sub\n        /* \"#utility.yul\":5099:5100   */\n      0x00\n        /* \"#utility.yul\":5088:5097   */\n      dup4\n        /* \"#utility.yul\":5084:5101   */\n      add\n        /* \"#utility.yul\":5077:5124   */\n      mstore\n        /* \"#utility.yul\":5141:5272   */\n      tag_138\n        /* \"#utility.yul\":5267:5271   */\n      dup2\n        /* \"#utility.yul\":5141:5272   */\n      tag_87\n      jump\t// in\n    tag_138:\n        /* \"#utility.yul\":5133:5272   */\n      swap1\n      pop\n        /* \"#utility.yul\":4860:5279   */\n      swap2\n      swap1\n      pop\n      jump\t// out\n        /* \"#utility.yul\":5285:5461   */\n    tag_88:\n        /* \"#utility.yul\":5425:5453   */\n      0x546869732061646472657373206d7573742062652076616c6964000000000000\n        /* \"#utility.yul\":5421:5422   */\n      0x00\n        /* \"#utility.yul\":5413:5419   */\n      dup3\n        /* \"#utility.yul\":5409:5423   */\n      add\n        /* \"#utility.yul\":5402:5454   */\n      mstore\n        /* \"#utility.yul\":5285:5461   */\n      pop\n      jump\t// out\n        /* \"#utility.yul\":5467:5833   */\n    tag_89:\n        /* \"#utility.yul\":5609:5612   */\n      0x00\n        /* \"#utility.yul\":5630:5697   */\n      tag_141\n        /* \"#utility.yul\":5694:5696   */\n      0x1a\n        /* \"#utility.yul\":5689:5692   */\n      dup4\n        /* \"#utility.yul\":5630:5697   */\n      tag_82\n      jump\t// in\n    tag_141:\n        /* \"#utility.yul\":5623:5697   */\n      swap2\n      pop\n        /* \"#utility.yul\":5706:5799   */\n      tag_142\n        /* \"#utility.yul\":5795:5798   */\n      dup3\n        /* \"#utility.yul\":5706:5799   */\n      tag_88\n      jump\t// in\n    tag_142:\n        /* \"#utility.yul\":5824:5826   */\n      0x20\n        /* \"#utility.yul\":5819:5822   */\n      dup3\n        /* \"#utility.yul\":5815:5827   */\n      add\n        /* \"#utility.yul\":5808:5827   */\n      swap1\n      pop\n        /* \"#utility.yul\":5467:5833   */\n      swap2\n      swap1\n      pop\n      jump\t// out\n        /* \"#utility.yul\":5839:6258   */\n    tag_59:\n        /* \"#utility.yul\":6005:6009   */\n      0x00\n        /* \"#utility.yul\":6043:6045   */\n      0x20\n        /* \"#utility.yul\":6032:6041   */\n      dup3\n        /* \"#utility.yul\":6028:6046   */\n      add\n        /* \"#utility.yul\":6020:6046   */\n      swap1\n      pop\n        /* \"#utility.yul\":6092:6101   */\n      dup2\n        /* \"#utility.yul\":6086:6090   */\n      dup2\n        /* \"#utility.yul\":6082:6102   */\n      sub\n        /* \"#utility.yul\":6078:6079   */\n      0x00\n        /* \"#utility.yul\":6067:6076   */\n      dup4\n        /* \"#utility.yul\":6063:6080   */\n      add\n        /* \"#utility.yul\":6056:6103   */\n      mstore\n        /* \"#utility.yul\":6120:6251   */\n      tag_144\n        /* \"#utility.yul\":6246:6250   */\n      dup2\n        /* \"#utility.yul\":6120:6251   */\n      tag_89\n      jump\t// in\n    tag_144:\n        /* \"#utility.yul\":6112:6251   */\n      swap1\n      pop\n        /* \"#utility.yul\":5839:6258   */\n      swap2\n      swap1\n      pop\n      jump\t// out\n\n    auxdata: 0xa2646970667358221220c11e7168a91b5b810b4c9a1b7c4769e4036a64434982d401cf91ce8cd697abc164736f6c63430008120033\n}\n",
				"bytecode": {
					"linkReferences": {},
					"object": "608060405260016009556002600a556000600c60006101000a81548160ff02191690831515021790555034801561003557600080fd5b50604051610b07380380610b07833981810160405281019061005791906101c0565b82600160006101000a81548173ffffffffffffffffffffffffffffffffffffffff021916908373ffffffffffffffffffffffffffffffffffffffff160217905550816000806101000a81548173ffffffffffffffffffffffffffffffffffffffff021916908373ffffffffffffffffffffffffffffffffffffffff16021790555080600281905550336000806101000a81548173ffffffffffffffffffffffffffffffffffffffff021916908373ffffffffffffffffffffffffffffffffffffffff160217905550505050610213565b600080fd5b600073ffffffffffffffffffffffffffffffffffffffff82169050919050565b60006101578261012c565b9050919050565b6101678161014c565b811461017257600080fd5b50565b6000815190506101848161015e565b92915050565b6000819050919050565b61019d8161018a565b81146101a857600080fd5b50565b6000815190506101ba81610194565b92915050565b6000806000606084860312156101d9576101d8610127565b5b60006101e786828701610175565b93505060206101f886828701610175565b9250506040610209868287016101ab565b9150509250925092565b6108e5806102226000396000f3fe608060405234801561001057600080fd5b50600436106100625760003560e01c80632641aac0146100675780632c7412ce146100715780634a485c181461008d5780634ba8184f146100b15780637a99c0a6146100cf578063ca98025b146100d9575b600080fd5b61006f6100f7565b005b61008b60048036038101906100869190610590565b61011b565b005b61009561046f565b6040516100a897969594939291906105cc565b60405180910390f35b6100b96104a6565b6040516100c6919061067c565b60405180910390f35b6100d76104ca565b005b6100e161052f565b6040516100ee919061067c565b60405180910390f35b426004819055506000600c60006101000a81548160ff021916908315150217905550565b60008054906101000a900473ffffffffffffffffffffffffffffffffffffffff1673ffffffffffffffffffffffffffffffffffffffff163373ffffffffffffffffffffffffffffffffffffffff16146101a9576040517f08c379a00000000000000000000000000000000000000000000000000000000081526004016101a09061071a565b60405180910390fd5b60001515600c60019054906101000a900460ff161515036102485760095481036101e657600760008154809291906101e090610769565b91905055505b600a548103610208576008600081548092919061020290610769565b91905055505b600b54810361022e576005600081548092919061022490610769565b9190505550610247565b6006600081548092919061024190610769565b91905055505b5b60001515600c60019054906101000a900460ff1615151461029e576040517f08c379a000000000000000000000000000000000000000000000000000000000815260040161029590610823565b60405180910390fd5b60001515600c60019054906101000a900460ff1615150361033d5760095481036102db57600760008154809291906102d590610769565b91905055505b600a5481036102fd57600860008154809291906102f790610769565b91905055505b600b548103610323576005600081548092919061031990610769565b919050555061033c565b6006600081548092919061033690610769565b91905055505b5b600160009054906101000a900473ffffffffffffffffffffffffffffffffffffffff1673ffffffffffffffffffffffffffffffffffffffff163373ffffffffffffffffffffffffffffffffffffffff16146103cd576040517f08c379a00000000000000000000000000000000000000000000000000000000081526004016103c49061088f565b60405180910390fd5b60001515600c60019054906101000a900460ff1615150361046c57600954810361040a576007600081548092919061040490610769565b91905055505b600a54810361042c576008600081548092919061042690610769565b91905055505b600b548103610452576005600081548092919061044890610769565b919050555061046b565b6006600081548092919061046590610769565b91905055505b5b50565b6000806000806000806000600254600354600454600554600654600754600854965096509650965096509650965090919293949596565b60008054906101000a900473ffffffffffffffffffffffffffffffffffffffff1681565b426003819055506001600c60006101000a81548160ff02191690831515021790555033600160006101000a81548173ffffffffffffffffffffffffffffffffffffffff021916908373ffffffffffffffffffffffffffffffffffffffff160217905550565b600160009054906101000a900473ffffffffffffffffffffffffffffffffffffffff1681565b600080fd5b6000819050919050565b61056d8161055a565b811461057857600080fd5b50565b60008135905061058a81610564565b92915050565b6000602082840312156105a6576105a5610555565b5b60006105b48482850161057b565b91505092915050565b6105c68161055a565b82525050565b600060e0820190506105e1600083018a6105bd565b6105ee60208301896105bd565b6105fb60408301886105bd565b61060860608301876105bd565b61061560808301866105bd565b61062260a08301856105bd565b61062f60c08301846105bd565b98975050505050505050565b600073ffffffffffffffffffffffffffffffffffffffff82169050919050565b60006106668261063b565b9050919050565b6106768161065b565b82525050565b6000602082019050610691600083018461066d565b92915050565b600082825260208201905092915050565b7f54686520766f7465206d7573742062652073656e742066726f6d20746865206260008201527f616c6c6f7420626f780000000000000000000000000000000000000000000000602082015250565b6000610704602983610697565b915061070f826106a8565b604082019050919050565b60006020820190508181036000830152610733816106f7565b9050919050565b7f4e487b7100000000000000000000000000000000000000000000000000000000600052601160045260246000fd5b60006107748261055a565b91507fffffffffffffffffffffffffffffffffffffffffffffffffffffffffffffffff82036107a6576107a561073a565b5b600182019050919050565b7f596f757220766f74652068617320616c7265616479206265656e20726567697360008201527f7465726564000000000000000000000000000000000000000000000000000000602082015250565b600061080d602583610697565b9150610818826107b1565b604082019050919050565b6000602082019050818103600083015261083c81610800565b9050919050565b7f546869732061646472657373206d7573742062652076616c6964000000000000600082015250565b6000610879601a83610697565b915061088482610843565b602082019050919050565b600060208201905081810360008301526108a88161086c565b905091905056fea2646970667358221220c11e7168a91b5b810b4c9a1b7c4769e4036a64434982d401cf91ce8cd697abc164736f6c63430008120033",
					"opcodes": "PUSH1 0x80 PUSH1 0x40 MSTORE PUSH1 0x1 PUSH1 0x9 SSTORE PUSH1 0x2 PUSH1 0xA SSTORE PUSH1 0x0 PUSH1 0xC PUSH1 0x0 PUSH2 0x100 EXP DUP2 SLOAD DUP2 PUSH1 0xFF MUL NOT AND SWAP1 DUP4 ISZERO ISZERO MUL OR SWAP1 SSTORE POP CALLVALUE DUP1 ISZERO PUSH2 0x35 JUMPI PUSH1 0x0 DUP1 REVERT JUMPDEST POP PUSH1 0x40 MLOAD PUSH2 0xB07 CODESIZE SUB DUP1 PUSH2 0xB07 DUP4 CODECOPY DUP2 DUP2 ADD PUSH1 0x40 MSTORE DUP2 ADD SWAP1 PUSH2 0x57 SWAP2 SWAP1 PUSH2 0x1C0 JUMP JUMPDEST DUP3 PUSH1 0x1 PUSH1 0x0 PUSH2 0x100 EXP DUP2 SLOAD DUP2 PUSH20 0xFFFFFFFFFFFFFFFFFFFFFFFFFFFFFFFFFFFFFFFF MUL NOT AND SWAP1 DUP4 PUSH20 0xFFFFFFFFFFFFFFFFFFFFFFFFFFFFFFFFFFFFFFFF AND MUL OR SWAP1 SSTORE POP DUP2 PUSH1 0x0 DUP1 PUSH2 0x100 EXP DUP2 SLOAD DUP2 PUSH20 0xFFFFFFFFFFFFFFFFFFFFFFFFFFFFFFFFFFFFFFFF MUL NOT AND SWAP1 DUP4 PUSH20 0xFFFFFFFFFFFFFFFFFFFFFFFFFFFFFFFFFFFFFFFF AND MUL OR SWAP1 SSTORE POP DUP1 PUSH1 0x2 DUP2 SWAP1 SSTORE POP CALLER PUSH1 0x0 DUP1 PUSH2 0x100 EXP DUP2 SLOAD DUP2 PUSH20 0xFFFFFFFFFFFFFFFFFFFFFFFFFFFFFFFFFFFFFFFF MUL NOT AND SWAP1 DUP4 PUSH20 0xFFFFFFFFFFFFFFFFFFFFFFFFFFFFFFFFFFFFFFFF AND MUL OR SWAP1 SSTORE POP POP POP POP PUSH2 0x213 JUMP JUMPDEST PUSH1 0x0 DUP1 REVERT JUMPDEST PUSH1 0x0 PUSH20 0xFFFFFFFFFFFFFFFFFFFFFFFFFFFFFFFFFFFFFFFF DUP3 AND SWAP1 POP SWAP2 SWAP1 POP JUMP JUMPDEST PUSH1 0x0 PUSH2 0x157 DUP3 PUSH2 0x12C JUMP JUMPDEST SWAP1 POP SWAP2 SWAP1 POP JUMP JUMPDEST PUSH2 0x167 DUP2 PUSH2 0x14C JUMP JUMPDEST DUP2 EQ PUSH2 0x172 JUMPI PUSH1 0x0 DUP1 REVERT JUMPDEST POP JUMP JUMPDEST PUSH1 0x0 DUP2 MLOAD SWAP1 POP PUSH2 0x184 DUP2 PUSH2 0x15E JUMP JUMPDEST SWAP3 SWAP2 POP POP JUMP JUMPDEST PUSH1 0x0 DUP2 SWAP1 POP SWAP2 SWAP1 POP JUMP JUMPDEST PUSH2 0x19D DUP2 PUSH2 0x18A JUMP JUMPDEST DUP2 EQ PUSH2 0x1A8 JUMPI PUSH1 0x0 DUP1 REVERT JUMPDEST POP JUMP JUMPDEST PUSH1 0x0 DUP2 MLOAD SWAP1 POP PUSH2 0x1BA DUP2 PUSH2 0x194 JUMP JUMPDEST SWAP3 SWAP2 POP POP JUMP JUMPDEST PUSH1 0x0 DUP1 PUSH1 0x0 PUSH1 0x60 DUP5 DUP7 SUB SLT ISZERO PUSH2 0x1D9 JUMPI PUSH2 0x1D8 PUSH2 0x127 JUMP JUMPDEST JUMPDEST PUSH1 0x0 PUSH2 0x1E7 DUP7 DUP3 DUP8 ADD PUSH2 0x175 JUMP JUMPDEST SWAP4 POP POP PUSH1 0x20 PUSH2 0x1F8 DUP7 DUP3 DUP8 ADD PUSH2 0x175 JUMP JUMPDEST SWAP3 POP POP PUSH1 0x40 PUSH2 0x209 DUP7 DUP3 DUP8 ADD PUSH2 0x1AB JUMP JUMPDEST SWAP2 POP POP SWAP3 POP SWAP3 POP SWAP3 JUMP JUMPDEST PUSH2 0x8E5 DUP1 PUSH2 0x222 PUSH1 0x0 CODECOPY PUSH1 0x0 RETURN INVALID PUSH1 0x80 PUSH1 0x40 MSTORE CALLVALUE DUP1 ISZERO PUSH2 0x10 JUMPI PUSH1 0x0 DUP1 REVERT JUMPDEST POP PUSH1 0x4 CALLDATASIZE LT PUSH2 0x62 JUMPI PUSH1 0x0 CALLDATALOAD PUSH1 0xE0 SHR DUP1 PUSH4 0x2641AAC0 EQ PUSH2 0x67 JUMPI DUP1 PUSH4 0x2C7412CE EQ PUSH2 0x71 JUMPI DUP1 PUSH4 0x4A485C18 EQ PUSH2 0x8D JUMPI DUP1 PUSH4 0x4BA8184F EQ PUSH2 0xB1 JUMPI DUP1 PUSH4 0x7A99C0A6 EQ PUSH2 0xCF JUMPI DUP1 PUSH4 0xCA98025B EQ PUSH2 0xD9 JUMPI JUMPDEST PUSH1 0x0 DUP1 REVERT JUMPDEST PUSH2 0x6F PUSH2 0xF7 JUMP JUMPDEST STOP JUMPDEST PUSH2 0x8B PUSH1 0x4 DUP1 CALLDATASIZE SUB DUP2 ADD SWAP1 PUSH2 0x86 SWAP2 SWAP1 PUSH2 0x590 JUMP JUMPDEST PUSH2 0x11B JUMP JUMPDEST STOP JUMPDEST PUSH2 0x95 PUSH2 0x46F JUMP JUMPDEST PUSH1 0x40 MLOAD PUSH2 0xA8 SWAP8 SWAP7 SWAP6 SWAP5 SWAP4 SWAP3 SWAP2 SWAP1 PUSH2 0x5CC JUMP JUMPDEST PUSH1 0x40 MLOAD DUP1 SWAP2 SUB SWAP1 RETURN JUMPDEST PUSH2 0xB9 PUSH2 0x4A6 JUMP JUMPDEST PUSH1 0x40 MLOAD PUSH2 0xC6 SWAP2 SWAP1 PUSH2 0x67C JUMP JUMPDEST PUSH1 0x40 MLOAD DUP1 SWAP2 SUB SWAP1 RETURN JUMPDEST PUSH2 0xD7 PUSH2 0x4CA JUMP JUMPDEST STOP JUMPDEST PUSH2 0xE1 PUSH2 0x52F JUMP JUMPDEST PUSH1 0x40 MLOAD PUSH2 0xEE SWAP2 SWAP1 PUSH2 0x67C JUMP JUMPDEST PUSH1 0x40 MLOAD DUP1 SWAP2 SUB SWAP1 RETURN JUMPDEST TIMESTAMP PUSH1 0x4 DUP2 SWAP1 SSTORE POP PUSH1 0x0 PUSH1 0xC PUSH1 0x0 PUSH2 0x100 EXP DUP2 SLOAD DUP2 PUSH1 0xFF MUL NOT AND SWAP1 DUP4 ISZERO ISZERO MUL OR SWAP1 SSTORE POP JUMP JUMPDEST PUSH1 0x0 DUP1 SLOAD SWAP1 PUSH2 0x100 EXP SWAP1 DIV PUSH20 0xFFFFFFFFFFFFFFFFFFFFFFFFFFFFFFFFFFFFFFFF AND PUSH20 0xFFFFFFFFFFFFFFFFFFFFFFFFFFFFFFFFFFFFFFFF AND CALLER PUSH20 0xFFFFFFFFFFFFFFFFFFFFFFFFFFFFFFFFFFFFFFFF AND EQ PUSH2 0x1A9 JUMPI PUSH1 0x40 MLOAD PUSH32 0x8C379A000000000000000000000000000000000000000000000000000000000 DUP2 MSTORE PUSH1 0x4 ADD PUSH2 0x1A0 SWAP1 PUSH2 0x71A JUMP JUMPDEST PUSH1 0x40 MLOAD DUP1 SWAP2 SUB SWAP1 REVERT JUMPDEST PUSH1 0x0 ISZERO ISZERO PUSH1 0xC PUSH1 0x1 SWAP1 SLOAD SWAP1 PUSH2 0x100 EXP SWAP1 DIV PUSH1 0xFF AND ISZERO ISZERO SUB PUSH2 0x248 JUMPI PUSH1 0x9 SLOAD DUP2 SUB PUSH2 0x1E6 JUMPI PUSH1 0x7 PUSH1 0x0 DUP2 SLOAD DUP1 SWAP3 SWAP2 SWAP1 PUSH2 0x1E0 SWAP1 PUSH2 0x769 JUMP JUMPDEST SWAP2 SWAP1 POP SSTORE POP JUMPDEST PUSH1 0xA SLOAD DUP2 SUB PUSH2 0x208 JUMPI PUSH1 0x8 PUSH1 0x0 DUP2 SLOAD DUP1 SWAP3 SWAP2 SWAP1 PUSH2 0x202 SWAP1 PUSH2 0x769 JUMP JUMPDEST SWAP2 SWAP1 POP SSTORE POP JUMPDEST PUSH1 0xB SLOAD DUP2 SUB PUSH2 0x22E JUMPI PUSH1 0x5 PUSH1 0x0 DUP2 SLOAD DUP1 SWAP3 SWAP2 SWAP1 PUSH2 0x224 SWAP1 PUSH2 0x769 JUMP JUMPDEST SWAP2 SWAP1 POP SSTORE POP PUSH2 0x247 JUMP JUMPDEST PUSH1 0x6 PUSH1 0x0 DUP2 SLOAD DUP1 SWAP3 SWAP2 SWAP1 PUSH2 0x241 SWAP1 PUSH2 0x769 JUMP JUMPDEST SWAP2 SWAP1 POP SSTORE POP JUMPDEST JUMPDEST PUSH1 0x0 ISZERO ISZERO PUSH1 0xC PUSH1 0x1 SWAP1 SLOAD SWAP1 PUSH2 0x100 EXP SWAP1 DIV PUSH1 0xFF AND ISZERO ISZERO EQ PUSH2 0x29E JUMPI PUSH1 0x40 MLOAD PUSH32 0x8C379A000000000000000000000000000000000000000000000000000000000 DUP2 MSTORE PUSH1 0x4 ADD PUSH2 0x295 SWAP1 PUSH2 0x823 JUMP JUMPDEST PUSH1 0x40 MLOAD DUP1 SWAP2 SUB SWAP1 REVERT JUMPDEST PUSH1 0x0 ISZERO ISZERO PUSH1 0xC PUSH1 0x1 SWAP1 SLOAD SWAP1 PUSH2 0x100 EXP SWAP1 DIV PUSH1 0xFF AND ISZERO ISZERO SUB PUSH2 0x33D JUMPI PUSH1 0x9 SLOAD DUP2 SUB PUSH2 0x2DB JUMPI PUSH1 0x7 PUSH1 0x0 DUP2 SLOAD DUP1 SWAP3 SWAP2 SWAP1 PUSH2 0x2D5 SWAP1 PUSH2 0x769 JUMP JUMPDEST SWAP2 SWAP1 POP SSTORE POP JUMPDEST PUSH1 0xA SLOAD DUP2 SUB PUSH2 0x2FD JUMPI PUSH1 0x8 PUSH1 0x0 DUP2 SLOAD DUP1 SWAP3 SWAP2 SWAP1 PUSH2 0x2F7 SWAP1 PUSH2 0x769 JUMP JUMPDEST SWAP2 SWAP1 POP SSTORE POP JUMPDEST PUSH1 0xB SLOAD DUP2 SUB PUSH2 0x323 JUMPI PUSH1 0x5 PUSH1 0x0 DUP2 SLOAD DUP1 SWAP3 SWAP2 SWAP1 PUSH2 0x319 SWAP1 PUSH2 0x769 JUMP JUMPDEST SWAP2 SWAP1 POP SSTORE POP PUSH2 0x33C JUMP JUMPDEST PUSH1 0x6 PUSH1 0x0 DUP2 SLOAD DUP1 SWAP3 SWAP2 SWAP1 PUSH2 0x336 SWAP1 PUSH2 0x769 JUMP JUMPDEST SWAP2 SWAP1 POP SSTORE POP JUMPDEST JUMPDEST PUSH1 0x1 PUSH1 0x0 SWAP1 SLOAD SWAP1 PUSH2 0x100 EXP SWAP1 DIV PUSH20 0xFFFFFFFFFFFFFFFFFFFFFFFFFFFFFFFFFFFFFFFF AND PUSH20 0xFFFFFFFFFFFFFFFFFFFFFFFFFFFFFFFFFFFFFFFF AND CALLER PUSH20 0xFFFFFFFFFFFFFFFFFFFFFFFFFFFFFFFFFFFFFFFF AND EQ PUSH2 0x3CD JUMPI PUSH1 0x40 MLOAD PUSH32 0x8C379A000000000000000000000000000000000000000000000000000000000 DUP2 MSTORE PUSH1 0x4 ADD PUSH2 0x3C4 SWAP1 PUSH2 0x88F JUMP JUMPDEST PUSH1 0x40 MLOAD DUP1 SWAP2 SUB SWAP1 REVERT JUMPDEST PUSH1 0x0 ISZERO ISZERO PUSH1 0xC PUSH1 0x1 SWAP1 SLOAD SWAP1 PUSH2 0x100 EXP SWAP1 DIV PUSH1 0xFF AND ISZERO ISZERO SUB PUSH2 0x46C JUMPI PUSH1 0x9 SLOAD DUP2 SUB PUSH2 0x40A JUMPI PUSH1 0x7 PUSH1 0x0 DUP2 SLOAD DUP1 SWAP3 SWAP2 SWAP1 PUSH2 0x404 SWAP1 PUSH2 0x769 JUMP JUMPDEST SWAP2 SWAP1 POP SSTORE POP JUMPDEST PUSH1 0xA SLOAD DUP2 SUB PUSH2 0x42C JUMPI PUSH1 0x8 PUSH1 0x0 DUP2 SLOAD DUP1 SWAP3 SWAP2 SWAP1 PUSH2 0x426 SWAP1 PUSH2 0x769 JUMP JUMPDEST SWAP2 SWAP1 POP SSTORE POP JUMPDEST PUSH1 0xB SLOAD DUP2 SUB PUSH2 0x452 JUMPI PUSH1 0x5 PUSH1 0x0 DUP2 SLOAD DUP1 SWAP3 SWAP2 SWAP1 PUSH2 0x448 SWAP1 PUSH2 0x769 JUMP JUMPDEST SWAP2 SWAP1 POP SSTORE POP PUSH2 0x46B JUMP JUMPDEST PUSH1 0x6 PUSH1 0x0 DUP2 SLOAD DUP1 SWAP3 SWAP2 SWAP1 PUSH2 0x465 SWAP1 PUSH2 0x769 JUMP JUMPDEST SWAP2 SWAP1 POP SSTORE POP JUMPDEST JUMPDEST POP JUMP JUMPDEST PUSH1 0x0 DUP1 PUSH1 0x0 DUP1 PUSH1 0x0 DUP1 PUSH1 0x0 PUSH1 0x2 SLOAD PUSH1 0x3 SLOAD PUSH1 0x4 SLOAD PUSH1 0x5 SLOAD PUSH1 0x6 SLOAD PUSH1 0x7 SLOAD PUSH1 0x8 SLOAD SWAP7 POP SWAP7 POP SWAP7 POP SWAP7 POP SWAP7 POP SWAP7 POP SWAP7 POP SWAP1 SWAP2 SWAP3 SWAP4 SWAP5 SWAP6 SWAP7 JUMP JUMPDEST PUSH1 0x0 DUP1 SLOAD SWAP1 PUSH2 0x100 EXP SWAP1 DIV PUSH20 0xFFFFFFFFFFFFFFFFFFFFFFFFFFFFFFFFFFFFFFFF AND DUP2 JUMP JUMPDEST TIMESTAMP PUSH1 0x3 DUP2 SWAP1 SSTORE POP PUSH1 0x1 PUSH1 0xC PUSH1 0x0 PUSH2 0x100 EXP DUP2 SLOAD DUP2 PUSH1 0xFF MUL NOT AND SWAP1 DUP4 ISZERO ISZERO MUL OR SWAP1 SSTORE POP CALLER PUSH1 0x1 PUSH1 0x0 PUSH2 0x100 EXP DUP2 SLOAD DUP2 PUSH20 0xFFFFFFFFFFFFFFFFFFFFFFFFFFFFFFFFFFFFFFFF MUL NOT AND SWAP1 DUP4 PUSH20 0xFFFFFFFFFFFFFFFFFFFFFFFFFFFFFFFFFFFFFFFF AND MUL OR SWAP1 SSTORE POP JUMP JUMPDEST PUSH1 0x1 PUSH1 0x0 SWAP1 SLOAD SWAP1 PUSH2 0x100 EXP SWAP1 DIV PUSH20 0xFFFFFFFFFFFFFFFFFFFFFFFFFFFFFFFFFFFFFFFF AND DUP2 JUMP JUMPDEST PUSH1 0x0 DUP1 REVERT JUMPDEST PUSH1 0x0 DUP2 SWAP1 POP SWAP2 SWAP1 POP JUMP JUMPDEST PUSH2 0x56D DUP2 PUSH2 0x55A JUMP JUMPDEST DUP2 EQ PUSH2 0x578 JUMPI PUSH1 0x0 DUP1 REVERT JUMPDEST POP JUMP JUMPDEST PUSH1 0x0 DUP2 CALLDATALOAD SWAP1 POP PUSH2 0x58A DUP2 PUSH2 0x564 JUMP JUMPDEST SWAP3 SWAP2 POP POP JUMP JUMPDEST PUSH1 0x0 PUSH1 0x20 DUP3 DUP5 SUB SLT ISZERO PUSH2 0x5A6 JUMPI PUSH2 0x5A5 PUSH2 0x555 JUMP JUMPDEST JUMPDEST PUSH1 0x0 PUSH2 0x5B4 DUP5 DUP3 DUP6 ADD PUSH2 0x57B JUMP JUMPDEST SWAP2 POP POP SWAP3 SWAP2 POP POP JUMP JUMPDEST PUSH2 0x5C6 DUP2 PUSH2 0x55A JUMP JUMPDEST DUP3 MSTORE POP POP JUMP JUMPDEST PUSH1 0x0 PUSH1 0xE0 DUP3 ADD SWAP1 POP PUSH2 0x5E1 PUSH1 0x0 DUP4 ADD DUP11 PUSH2 0x5BD JUMP JUMPDEST PUSH2 0x5EE PUSH1 0x20 DUP4 ADD DUP10 PUSH2 0x5BD JUMP JUMPDEST PUSH2 0x5FB PUSH1 0x40 DUP4 ADD DUP9 PUSH2 0x5BD JUMP JUMPDEST PUSH2 0x608 PUSH1 0x60 DUP4 ADD DUP8 PUSH2 0x5BD JUMP JUMPDEST PUSH2 0x615 PUSH1 0x80 DUP4 ADD DUP7 PUSH2 0x5BD JUMP JUMPDEST PUSH2 0x622 PUSH1 0xA0 DUP4 ADD DUP6 PUSH2 0x5BD JUMP JUMPDEST PUSH2 0x62F PUSH1 0xC0 DUP4 ADD DUP5 PUSH2 0x5BD JUMP JUMPDEST SWAP9 SWAP8 POP POP POP POP POP POP POP POP JUMP JUMPDEST PUSH1 0x0 PUSH20 0xFFFFFFFFFFFFFFFFFFFFFFFFFFFFFFFFFFFFFFFF DUP3 AND SWAP1 POP SWAP2 SWAP1 POP JUMP JUMPDEST PUSH1 0x0 PUSH2 0x666 DUP3 PUSH2 0x63B JUMP JUMPDEST SWAP1 POP SWAP2 SWAP1 POP JUMP JUMPDEST PUSH2 0x676 DUP2 PUSH2 0x65B JUMP JUMPDEST DUP3 MSTORE POP POP JUMP JUMPDEST PUSH1 0x0 PUSH1 0x20 DUP3 ADD SWAP1 POP PUSH2 0x691 PUSH1 0x0 DUP4 ADD DUP5 PUSH2 0x66D JUMP JUMPDEST SWAP3 SWAP2 POP POP JUMP JUMPDEST PUSH1 0x0 DUP3 DUP3 MSTORE PUSH1 0x20 DUP3 ADD SWAP1 POP SWAP3 SWAP2 POP POP JUMP JUMPDEST PUSH32 0x54686520766F7465206D7573742062652073656E742066726F6D207468652062 PUSH1 0x0 DUP3 ADD MSTORE PUSH32 0x616C6C6F7420626F780000000000000000000000000000000000000000000000 PUSH1 0x20 DUP3 ADD MSTORE POP JUMP JUMPDEST PUSH1 0x0 PUSH2 0x704 PUSH1 0x29 DUP4 PUSH2 0x697 JUMP JUMPDEST SWAP2 POP PUSH2 0x70F DUP3 PUSH2 0x6A8 JUMP JUMPDEST PUSH1 0x40 DUP3 ADD SWAP1 POP SWAP2 SWAP1 POP JUMP JUMPDEST PUSH1 0x0 PUSH1 0x20 DUP3 ADD SWAP1 POP DUP2 DUP2 SUB PUSH1 0x0 DUP4 ADD MSTORE PUSH2 0x733 DUP2 PUSH2 0x6F7 JUMP JUMPDEST SWAP1 POP SWAP2 SWAP1 POP JUMP JUMPDEST PUSH32 0x4E487B7100000000000000000000000000000000000000000000000000000000 PUSH1 0x0 MSTORE PUSH1 0x11 PUSH1 0x4 MSTORE PUSH1 0x24 PUSH1 0x0 REVERT JUMPDEST PUSH1 0x0 PUSH2 0x774 DUP3 PUSH2 0x55A JUMP JUMPDEST SWAP2 POP PUSH32 0xFFFFFFFFFFFFFFFFFFFFFFFFFFFFFFFFFFFFFFFFFFFFFFFFFFFFFFFFFFFFFFFF DUP3 SUB PUSH2 0x7A6 JUMPI PUSH2 0x7A5 PUSH2 0x73A JUMP JUMPDEST JUMPDEST PUSH1 0x1 DUP3 ADD SWAP1 POP SWAP2 SWAP1 POP JUMP JUMPDEST PUSH32 0x596F757220766F74652068617320616C7265616479206265656E207265676973 PUSH1 0x0 DUP3 ADD MSTORE PUSH32 0x7465726564000000000000000000000000000000000000000000000000000000 PUSH1 0x20 DUP3 ADD MSTORE POP JUMP JUMPDEST PUSH1 0x0 PUSH2 0x80D PUSH1 0x25 DUP4 PUSH2 0x697 JUMP JUMPDEST SWAP2 POP PUSH2 0x818 DUP3 PUSH2 0x7B1 JUMP JUMPDEST PUSH1 0x40 DUP3 ADD SWAP1 POP SWAP2 SWAP1 POP JUMP JUMPDEST PUSH1 0x0 PUSH1 0x20 DUP3 ADD SWAP1 POP DUP2 DUP2 SUB PUSH1 0x0 DUP4 ADD MSTORE PUSH2 0x83C DUP2 PUSH2 0x800 JUMP JUMPDEST SWAP1 POP SWAP2 SWAP1 POP JUMP JUMPDEST PUSH32 0x546869732061646472657373206D7573742062652076616C6964000000000000 PUSH1 0x0 DUP3 ADD MSTORE POP JUMP JUMPDEST PUSH1 0x0 PUSH2 0x879 PUSH1 0x1A DUP4 PUSH2 0x697 JUMP JUMPDEST SWAP2 POP PUSH2 0x884 DUP3 PUSH2 0x843 JUMP JUMPDEST PUSH1 0x20 DUP3 ADD SWAP1 POP SWAP2 SWAP1 POP JUMP JUMPDEST PUSH1 0x0 PUSH1 0x20 DUP3 ADD SWAP1 POP DUP2 DUP2 SUB PUSH1 0x0 DUP4 ADD MSTORE PUSH2 0x8A8 DUP2 PUSH2 0x86C JUMP JUMPDEST SWAP1 POP SWAP2 SWAP1 POP JUMP INVALID LOG2 PUSH5 0x6970667358 0x22 SLT KECCAK256 0xC1 0x1E PUSH18 0x68A91B5B810B4C9A1B7C4769E4036A644349 DUP3 0xD4 ADD 0xCF SWAP2 0xCE DUP13 0xD6 SWAP8 0xAB 0xC1 PUSH5 0x736F6C6343 STOP ADDMOD SLT STOP CALLER "
				},
				"gasEstimates": {
					"creation": {
						"codeDepositCost": "455400",
						"executionCost": "infinite",
						"totalCost": "infinite"
					},
					"external": {
						"Endofvoting()": "46502",
						"Finalresults()": "infinite",
						"Remotecontrol()": "2602",
						"StartVoting()": "70856",
						"ballotbox()": "2555",
						"desiredvote(uint256)": "infinite"
					}
				},
				"methodIdentifiers": {
					"Endofvoting()": "2641aac0",
					"Finalresults()": "4a485c18",
					"Remotecontrol()": "ca98025b",
					"StartVoting()": "7a99c0a6",
					"ballotbox()": "4ba8184f",
					"desiredvote(uint256)": "2c7412ce"
				}
			},
			"storageLayout": {
				"storage": [
					{
						"astId": 17,
						"contract": "myelection.sol:voting2",
						"label": "ballotbox",
						"offset": 0,
						"slot": "0",
						"type": "t_address"
					},
					{
						"astId": 19,
						"contract": "myelection.sol:voting2",
						"label": "Remotecontrol",
						"offset": 0,
						"slot": "1",
						"type": "t_address"
					},
					{
						"astId": 21,
						"contract": "myelection.sol:voting2",
						"label": "votingsection",
						"offset": 0,
						"slot": "2",
						"type": "t_uint256"
					},
					{
						"astId": 23,
						"contract": "myelection.sol:voting2",
						"label": "timestampstart",
						"offset": 0,
						"slot": "3",
						"type": "t_uint256"
					},
					{
						"astId": 25,
						"contract": "myelection.sol:voting2",
						"label": "TimeStampEnd",
						"offset": 0,
						"slot": "4",
						"type": "t_uint256"
					},
					{
						"astId": 27,
						"contract": "myelection.sol:voting2",
						"label": "blankvotes",
						"offset": 0,
						"slot": "5",
						"type": "t_uint256"
					},
					{
						"astId": 29,
						"contract": "myelection.sol:voting2",
						"label": "Nullvotes",
						"offset": 0,
						"slot": "6",
						"type": "t_uint256"
					},
					{
						"astId": 31,
						"contract": "myelection.sol:voting2",
						"label": "candidateA",
						"offset": 0,
						"slot": "7",
						"type": "t_uint256"
					},
					{
						"astId": 33,
						"contract": "myelection.sol:voting2",
						"label": "candidateB",
						"offset": 0,
						"slot": "8",
						"type": "t_uint256"
					},
					{
						"astId": 36,
						"contract": "myelection.sol:voting2",
						"label": "NumberCandidateA",
						"offset": 0,
						"slot": "9",
						"type": "t_uint256"
					},
					{
						"astId": 39,
						"contract": "myelection.sol:voting2",
						"label": "NumberCandidateB",
						"offset": 0,
						"slot": "10",
						"type": "t_uint256"
					},
					{
						"astId": 41,
						"contract": "myelection.sol:voting2",
						"label": "NumberBlankVotes",
						"offset": 0,
						"slot": "11",
						"type": "t_uint256"
					},
					{
						"astId": 44,
						"contract": "myelection.sol:voting2",
						"label": "Activateballotboxaddress",
						"offset": 0,
						"slot": "12",
						"type": "t_bool"
					},
					{
						"astId": 46,
						"contract": "myelection.sol:voting2",
						"label": "hasvoted",
						"offset": 1,
						"slot": "12",
						"type": "t_bool"
					}
				],
				"types": {
					"t_address": {
						"encoding": "inplace",
						"label": "address",
						"numberOfBytes": "20"
					},
					"t_bool": {
						"encoding": "inplace",
						"label": "bool",
						"numberOfBytes": "1"
					},
					"t_uint256": {
						"encoding": "inplace",
						"label": "uint256",
						"numberOfBytes": "32"
					}
				}
			},
			"userdoc": {
				"kind": "user",
				"methods": {},
				"version": 1
			}
		}
	}
}