{
	"Assembly.sol": {
		"Newlaw": {
			"abi": [
				{
					"anonymous": false,
					"inputs": [
						{
							"indexed": false,
							"internalType": "uint256",
							"name": "timestampstart",
							"type": "uint256"
						},
						{
							"indexed": false,
							"internalType": "uint256",
							"name": "TimeStampEnd",
							"type": "uint256"
						},
						{
							"indexed": false,
							"internalType": "string",
							"name": "namelaw",
							"type": "string"
						}
					],
					"name": "time",
					"type": "event"
				},
				{
					"anonymous": false,
					"inputs": [
						{
							"indexed": false,
							"internalType": "uint256",
							"name": "totalvotes",
							"type": "uint256"
						},
						{
							"indexed": false,
							"internalType": "uint256",
							"name": "agree",
							"type": "uint256"
						},
						{
							"indexed": false,
							"internalType": "uint256",
							"name": "Against",
							"type": "uint256"
						},
						{
							"indexed": false,
							"internalType": "uint256",
							"name": "noidea",
							"type": "uint256"
						},
						{
							"indexed": false,
							"internalType": "uint256",
							"name": "void",
							"type": "uint256"
						}
					],
					"name": "voting",
					"type": "event"
				},
				{
					"inputs": [
						{
							"internalType": "uint256",
							"name": "",
							"type": "uint256"
						}
					],
					"name": "Chairman",
					"outputs": [
						{
							"internalType": "address",
							"name": "",
							"type": "address"
						}
					],
					"stateMutability": "view",
					"type": "function"
				},
				{
					"inputs": [
						{
							"internalType": "uint256",
							"name": "_timestampstart",
							"type": "uint256"
						},
						{
							"internalType": "uint256",
							"name": "_totalvotes",
							"type": "uint256"
						},
						{
							"internalType": "uint256",
							"name": "_Against",
							"type": "uint256"
						},
						{
							"internalType": "uint256",
							"name": "_agree",
							"type": "uint256"
						},
						{
							"internalType": "uint256",
							"name": "_noidea",
							"type": "uint256"
						},
						{
							"internalType": "uint256",
							"name": "_void",
							"type": "uint256"
						},
						{
							"internalType": "uint256",
							"name": "_TimeStampEnd",
							"type": "uint256"
						}
					],
					"name": "addlow",
					"outputs": [],
					"stateMutability": "nonpayable",
					"type": "function"
				},
				{
					"inputs": [],
					"name": "endOfVoting",
					"outputs": [
						{
							"internalType": "uint256",
							"name": "_timestampstart",
							"type": "uint256"
						},
						{
							"internalType": "uint256",
							"name": "_totalvotes",
							"type": "uint256"
						},
						{
							"internalType": "uint256",
							"name": "_agree",
							"type": "uint256"
						},
						{
							"internalType": "uint256",
							"name": "_Against",
							"type": "uint256"
						},
						{
							"internalType": "uint256",
							"name": "_noidea",
							"type": "uint256"
						},
						{
							"internalType": "uint256",
							"name": "_void",
							"type": "uint256"
						},
						{
							"internalType": "uint256",
							"name": "_TimeStampEnd",
							"type": "uint256"
						}
					],
					"stateMutability": "nonpayable",
					"type": "function"
				},
				{
					"inputs": [
						{
							"internalType": "uint256",
							"name": "vote",
							"type": "uint256"
						}
					],
					"name": "hasRepresentatives",
					"outputs": [
						{
							"internalType": "uint256",
							"name": "",
							"type": "uint256"
						},
						{
							"internalType": "uint256",
							"name": "",
							"type": "uint256"
						},
						{
							"internalType": "uint256",
							"name": "",
							"type": "uint256"
						},
						{
							"internalType": "uint256",
							"name": "",
							"type": "uint256"
						},
						{
							"internalType": "uint256",
							"name": "",
							"type": "uint256"
						}
					],
					"stateMutability": "nonpayable",
					"type": "function"
				},
				{
					"inputs": [
						{
							"internalType": "address",
							"name": "",
							"type": "address"
						}
					],
					"name": "isrepresentatives",
					"outputs": [
						{
							"internalType": "bool",
							"name": "",
							"type": "bool"
						}
					],
					"stateMutability": "view",
					"type": "function"
				},
				{
					"inputs": [],
					"name": "representatives",
					"outputs": [
						{
							"internalType": "address",
							"name": "",
							"type": "address"
						}
					],
					"stateMutability": "view",
					"type": "function"
				}
			],
			"devdoc": {
				"kind": "dev",
				"methods": {},
				"version": 1
			},
			"evm": {
				"assembly": "    /* \"Assembly.sol\":61:2760  contract Newlaw{... */\n  mstore(0x40, 0x80)\n  callvalue\n  dup1\n  iszero\n  tag_1\n  jumpi\n  0x00\n  dup1\n  revert\ntag_1:\n  pop\n  dataSize(sub_0)\n  dup1\n  dataOffset(sub_0)\n  0x00\n  codecopy\n  0x00\n  return\nstop\n\nsub_0: assembly {\n        /* \"Assembly.sol\":61:2760  contract Newlaw{... */\n      mstore(0x40, 0x80)\n      callvalue\n      dup1\n      iszero\n      tag_1\n      jumpi\n      0x00\n      dup1\n      revert\n    tag_1:\n      pop\n      jumpi(tag_2, lt(calldatasize, 0x04))\n      shr(0xe0, calldataload(0x00))\n      dup1\n      0x109241e7\n      eq\n      tag_3\n      jumpi\n      dup1\n      0x396abc84\n      eq\n      tag_4\n      jumpi\n      dup1\n      0x74265c68\n      eq\n      tag_5\n      jumpi\n      dup1\n      0x7e887332\n      eq\n      tag_6\n      jumpi\n      dup1\n      0xb3ef4aa4\n      eq\n      tag_7\n      jumpi\n      dup1\n      0xfa1ad70c\n      eq\n      tag_8\n      jumpi\n    tag_2:\n      0x00\n      dup1\n      revert\n        /* \"Assembly.sol\":254:302  mapping(address => bool)public isrepresentatives */\n    tag_3:\n      tag_9\n      0x04\n      dup1\n      calldatasize\n      sub\n      dup2\n      add\n      swap1\n      tag_10\n      swap2\n      swap1\n      tag_11\n      jump\t// in\n    tag_10:\n      tag_12\n      jump\t// in\n    tag_9:\n      mload(0x40)\n      tag_13\n      swap2\n      swap1\n      tag_14\n      jump\t// in\n    tag_13:\n      mload(0x40)\n      dup1\n      swap2\n      sub\n      swap1\n      return\n        /* \"Assembly.sol\":310:340  address public representatives */\n    tag_4:\n      tag_15\n      tag_16\n      jump\t// in\n    tag_15:\n      mload(0x40)\n      tag_17\n      swap2\n      swap1\n      tag_18\n      jump\t// in\n    tag_17:\n      mload(0x40)\n      dup1\n      swap2\n      sub\n      swap1\n      return\n        /* \"Assembly.sol\":1373:2270  function hasRepresentatives(uint vote)public returns(uint ,uint , uint , uint , uint){... */\n    tag_5:\n      tag_19\n      0x04\n      dup1\n      calldatasize\n      sub\n      dup2\n      add\n      swap1\n      tag_20\n      swap2\n      swap1\n      tag_21\n      jump\t// in\n    tag_20:\n      tag_22\n      jump\t// in\n    tag_19:\n      mload(0x40)\n      tag_23\n      swap6\n      swap5\n      swap4\n      swap3\n      swap2\n      swap1\n      tag_24\n      jump\t// in\n    tag_23:\n      mload(0x40)\n      dup1\n      swap2\n      sub\n      swap1\n      return\n        /* \"Assembly.sol\":2277:2754  function endOfVoting()public returns(uint _timestampstart, uint _totalvotes , uint _agree , uint _Against, uint _noidea , uint _void, uint _TimeStampEnd){... */\n    tag_6:\n      tag_25\n      tag_26\n      jump\t// in\n    tag_25:\n      mload(0x40)\n      tag_27\n      swap8\n      swap7\n      swap6\n      swap5\n      swap4\n      swap3\n      swap2\n      swap1\n      tag_28\n      jump\t// in\n    tag_27:\n      mload(0x40)\n      dup1\n      swap2\n      sub\n      swap1\n      return\n        /* \"Assembly.sol\":348:372  address[]public Chairman */\n    tag_7:\n      tag_29\n      0x04\n      dup1\n      calldatasize\n      sub\n      dup2\n      add\n      swap1\n      tag_30\n      swap2\n      swap1\n      tag_21\n      jump\t// in\n    tag_30:\n      tag_31\n      jump\t// in\n    tag_29:\n      mload(0x40)\n      tag_32\n      swap2\n      swap1\n      tag_18\n      jump\t// in\n    tag_32:\n      mload(0x40)\n      dup1\n      swap2\n      sub\n      swap1\n      return\n        /* \"Assembly.sol\":1020:1361  function addlow(uint _timestampstart ,  uint _totalvotes, uint _Against , uint _agree ,uint _noidea ,uint _void  ,uint _TimeStampEnd)public{... */\n    tag_8:\n      tag_33\n      0x04\n      dup1\n      calldatasize\n      sub\n      dup2\n      add\n      swap1\n      tag_34\n      swap2\n      swap1\n      tag_35\n      jump\t// in\n    tag_34:\n      tag_36\n      jump\t// in\n    tag_33:\n      stop\n        /* \"Assembly.sol\":254:302  mapping(address => bool)public isrepresentatives */\n    tag_12:\n      mstore(0x20, 0x00)\n      dup1\n      0x00\n      mstore\n      keccak256(0x00, 0x40)\n      0x00\n      swap2\n      pop\n      sload\n      swap1\n      0x0100\n      exp\n      swap1\n      div\n      0xff\n      and\n      dup2\n      jump\t// out\n        /* \"Assembly.sol\":310:340  address public representatives */\n    tag_16:\n      0x01\n      0x00\n      swap1\n      sload\n      swap1\n      0x0100\n      exp\n      swap1\n      div\n      0xffffffffffffffffffffffffffffffffffffffff\n      and\n      dup2\n      jump\t// out\n        /* \"Assembly.sol\":1373:2270  function hasRepresentatives(uint vote)public returns(uint ,uint , uint , uint , uint){... */\n    tag_22:\n        /* \"Assembly.sol\":1426:1430  uint */\n      0x00\n        /* \"Assembly.sol\":1432:1436  uint */\n      dup1\n        /* \"Assembly.sol\":1439:1443  uint */\n      0x00\n        /* \"Assembly.sol\":1446:1450  uint */\n      dup1\n        /* \"Assembly.sol\":1453:1457  uint */\n      0x00\n        /* \"Assembly.sol\":1481:1485  Laws */\n      0x03\n        /* \"Assembly.sol\":1500:1501  1 */\n      0x01\n        /* \"Assembly.sol\":1486:1490  Laws */\n      0x03\n        /* \"Assembly.sol\":1486:1497  Laws.length */\n      dup1\n      sload\n      swap1\n      pop\n        /* \"Assembly.sol\":1486:1501  Laws.length - 1 */\n      tag_38\n      swap2\n      swap1\n      tag_39\n      jump\t// in\n    tag_38:\n        /* \"Assembly.sol\":1481:1502  Laws[Laws.length - 1] */\n      dup2\n      sload\n      dup2\n      lt\n      tag_40\n      jumpi\n      tag_41\n      tag_42\n      jump\t// in\n    tag_41:\n    tag_40:\n      swap1\n      0x00\n      mstore\n      keccak256(0x00, 0x20)\n      swap1\n      0x07\n      mul\n      add\n        /* \"Assembly.sol\":1481:1508  Laws[Laws.length - 1].agree */\n      0x02\n      add\n      sload\n        /* \"Assembly.sol\":1472:1476  vote */\n      dup7\n        /* \"Assembly.sol\":1472:1508  vote ==  Laws[Laws.length - 1].agree */\n      sub\n        /* \"Assembly.sol\":1469:1566  if(vote ==  Laws[Laws.length - 1].agree){... */\n      tag_44\n      jumpi\n        /* \"Assembly.sol\":1524:1528  Laws */\n      0x03\n        /* \"Assembly.sol\":1543:1544  1 */\n      0x01\n        /* \"Assembly.sol\":1529:1533  Laws */\n      0x03\n        /* \"Assembly.sol\":1529:1540  Laws.length */\n      dup1\n      sload\n      swap1\n      pop\n        /* \"Assembly.sol\":1529:1544  Laws.length - 1 */\n      tag_45\n      swap2\n      swap1\n      tag_39\n      jump\t// in\n    tag_45:\n        /* \"Assembly.sol\":1524:1545  Laws[Laws.length - 1] */\n      dup2\n      sload\n      dup2\n      lt\n      tag_46\n      jumpi\n      tag_47\n      tag_42\n      jump\t// in\n    tag_47:\n    tag_46:\n      swap1\n      0x00\n      mstore\n      keccak256(0x00, 0x20)\n      swap1\n      0x07\n      mul\n      add\n        /* \"Assembly.sol\":1524:1551  Laws[Laws.length - 1].agree */\n      0x02\n      add\n      0x00\n        /* \"Assembly.sol\":1524:1553  Laws[Laws.length - 1].agree++ */\n      dup2\n      sload\n      dup1\n      swap3\n      swap2\n      swap1\n      tag_49\n      swap1\n      tag_50\n      jump\t// in\n    tag_49:\n      swap2\n      swap1\n      pop\n      sstore\n      pop\n        /* \"Assembly.sol\":1469:1566  if(vote ==  Laws[Laws.length - 1].agree){... */\n    tag_44:\n        /* \"Assembly.sol\":1588:1592  Laws */\n      0x03\n        /* \"Assembly.sol\":1607:1608  1 */\n      0x01\n        /* \"Assembly.sol\":1593:1597  Laws */\n      0x03\n        /* \"Assembly.sol\":1593:1604  Laws.length */\n      dup1\n      sload\n      swap1\n      pop\n        /* \"Assembly.sol\":1593:1608  Laws.length - 1 */\n      tag_51\n      swap2\n      swap1\n      tag_39\n      jump\t// in\n    tag_51:\n        /* \"Assembly.sol\":1588:1609  Laws[Laws.length - 1] */\n      dup2\n      sload\n      dup2\n      lt\n      tag_52\n      jumpi\n      tag_53\n      tag_42\n      jump\t// in\n    tag_53:\n    tag_52:\n      swap1\n      0x00\n      mstore\n      keccak256(0x00, 0x20)\n      swap1\n      0x07\n      mul\n      add\n        /* \"Assembly.sol\":1588:1617  Laws[Laws.length - 1].Against */\n      0x03\n      add\n      sload\n        /* \"Assembly.sol\":1579:1583  vote */\n      dup7\n        /* \"Assembly.sol\":1579:1617  vote ==  Laws[Laws.length - 1].Against */\n      sub\n        /* \"Assembly.sol\":1576:1677  if(vote ==  Laws[Laws.length - 1].Against){... */\n      tag_55\n      jumpi\n        /* \"Assembly.sol\":1633:1637  Laws */\n      0x03\n        /* \"Assembly.sol\":1652:1653  1 */\n      0x01\n        /* \"Assembly.sol\":1638:1642  Laws */\n      0x03\n        /* \"Assembly.sol\":1638:1649  Laws.length */\n      dup1\n      sload\n      swap1\n      pop\n        /* \"Assembly.sol\":1638:1653  Laws.length - 1 */\n      tag_56\n      swap2\n      swap1\n      tag_39\n      jump\t// in\n    tag_56:\n        /* \"Assembly.sol\":1633:1654  Laws[Laws.length - 1] */\n      dup2\n      sload\n      dup2\n      lt\n      tag_57\n      jumpi\n      tag_58\n      tag_42\n      jump\t// in\n    tag_58:\n    tag_57:\n      swap1\n      0x00\n      mstore\n      keccak256(0x00, 0x20)\n      swap1\n      0x07\n      mul\n      add\n        /* \"Assembly.sol\":1633:1663  Laws[Laws.length - 1]. Against */\n      0x03\n      add\n      0x00\n        /* \"Assembly.sol\":1633:1665  Laws[Laws.length - 1]. Against++ */\n      dup2\n      sload\n      dup1\n      swap3\n      swap2\n      swap1\n      tag_60\n      swap1\n      tag_50\n      jump\t// in\n    tag_60:\n      swap2\n      swap1\n      pop\n      sstore\n      pop\n        /* \"Assembly.sol\":1576:1677  if(vote ==  Laws[Laws.length - 1].Against){... */\n    tag_55:\n        /* \"Assembly.sol\":1700:1704  Laws */\n      0x03\n        /* \"Assembly.sol\":1719:1720  1 */\n      0x01\n        /* \"Assembly.sol\":1705:1709  Laws */\n      0x03\n        /* \"Assembly.sol\":1705:1716  Laws.length */\n      dup1\n      sload\n      swap1\n      pop\n        /* \"Assembly.sol\":1705:1720  Laws.length - 1 */\n      tag_61\n      swap2\n      swap1\n      tag_39\n      jump\t// in\n    tag_61:\n        /* \"Assembly.sol\":1700:1721  Laws[Laws.length - 1] */\n      dup2\n      sload\n      dup2\n      lt\n      tag_62\n      jumpi\n      tag_63\n      tag_42\n      jump\t// in\n    tag_63:\n    tag_62:\n      swap1\n      0x00\n      mstore\n      keccak256(0x00, 0x20)\n      swap1\n      0x07\n      mul\n      add\n        /* \"Assembly.sol\":1700:1728  Laws[Laws.length - 1].noidea */\n      0x04\n      add\n      sload\n        /* \"Assembly.sol\":1691:1695  vote */\n      dup7\n        /* \"Assembly.sol\":1691:1728  vote ==  Laws[Laws.length - 1].noidea */\n      sub\n        /* \"Assembly.sol\":1687:1853  if( vote ==  Laws[Laws.length - 1].noidea ){... */\n      tag_65\n      jumpi\n        /* \"Assembly.sol\":1740:1744  Laws */\n      0x03\n        /* \"Assembly.sol\":1759:1760  1 */\n      0x01\n        /* \"Assembly.sol\":1745:1749  Laws */\n      0x03\n        /* \"Assembly.sol\":1745:1756  Laws.length */\n      dup1\n      sload\n      swap1\n      pop\n        /* \"Assembly.sol\":1745:1760  Laws.length - 1 */\n      tag_66\n      swap2\n      swap1\n      tag_39\n      jump\t// in\n    tag_66:\n        /* \"Assembly.sol\":1740:1761  Laws[Laws.length - 1] */\n      dup2\n      sload\n      dup2\n      lt\n      tag_67\n      jumpi\n      tag_68\n      tag_42\n      jump\t// in\n    tag_68:\n    tag_67:\n      swap1\n      0x00\n      mstore\n      keccak256(0x00, 0x20)\n      swap1\n      0x07\n      mul\n      add\n        /* \"Assembly.sol\":1740:1768  Laws[Laws.length - 1].noidea */\n      0x04\n      add\n      0x00\n        /* \"Assembly.sol\":1740:1770  Laws[Laws.length - 1].noidea++ */\n      dup2\n      sload\n      dup1\n      swap3\n      swap2\n      swap1\n      tag_70\n      swap1\n      tag_50\n      jump\t// in\n    tag_70:\n      swap2\n      swap1\n      pop\n      sstore\n      pop\n        /* \"Assembly.sol\":1687:1853  if( vote ==  Laws[Laws.length - 1].noidea ){... */\n      jump(tag_71)\n    tag_65:\n        /* \"Assembly.sol\":1812:1816  Laws */\n      0x03\n        /* \"Assembly.sol\":1831:1832  1 */\n      0x01\n        /* \"Assembly.sol\":1817:1821  Laws */\n      0x03\n        /* \"Assembly.sol\":1817:1828  Laws.length */\n      dup1\n      sload\n      swap1\n      pop\n        /* \"Assembly.sol\":1817:1832  Laws.length - 1 */\n      tag_72\n      swap2\n      swap1\n      tag_39\n      jump\t// in\n    tag_72:\n        /* \"Assembly.sol\":1812:1833  Laws[Laws.length - 1] */\n      dup2\n      sload\n      dup2\n      lt\n      tag_73\n      jumpi\n      tag_74\n      tag_42\n      jump\t// in\n    tag_74:\n    tag_73:\n      swap1\n      0x00\n      mstore\n      keccak256(0x00, 0x20)\n      swap1\n      0x07\n      mul\n      add\n        /* \"Assembly.sol\":1812:1838  Laws[Laws.length - 1].void */\n      0x05\n      add\n      0x00\n        /* \"Assembly.sol\":1812:1840  Laws[Laws.length - 1].void++ */\n      dup2\n      sload\n      dup1\n      swap3\n      swap2\n      swap1\n      tag_76\n      swap1\n      tag_50\n      jump\t// in\n    tag_76:\n      swap2\n      swap1\n      pop\n      sstore\n      pop\n        /* \"Assembly.sol\":1687:1853  if( vote ==  Laws[Laws.length - 1].noidea ){... */\n    tag_71:\n        /* \"Assembly.sol\":1870:1874  Laws */\n      0x03\n        /* \"Assembly.sol\":1889:1890  1 */\n      0x01\n        /* \"Assembly.sol\":1875:1879  Laws */\n      0x03\n        /* \"Assembly.sol\":1875:1886  Laws.length */\n      dup1\n      sload\n      swap1\n      pop\n        /* \"Assembly.sol\":1875:1890  Laws.length - 1 */\n      tag_77\n      swap2\n      swap1\n      tag_39\n      jump\t// in\n    tag_77:\n        /* \"Assembly.sol\":1870:1891  Laws[Laws.length - 1] */\n      dup2\n      sload\n      dup2\n      lt\n      tag_78\n      jumpi\n      tag_79\n      tag_42\n      jump\t// in\n    tag_79:\n    tag_78:\n      swap1\n      0x00\n      mstore\n      keccak256(0x00, 0x20)\n      swap1\n      0x07\n      mul\n      add\n        /* \"Assembly.sol\":1870:1902  Laws[Laws.length - 1].totalvotes */\n      0x01\n      add\n      0x00\n        /* \"Assembly.sol\":1870:1905  Laws[Laws.length - 1].totalvotes ++ */\n      dup2\n      sload\n      dup1\n      swap3\n      swap2\n      swap1\n      tag_81\n      swap1\n      tag_50\n      jump\t// in\n    tag_81:\n      swap2\n      swap1\n      pop\n      sstore\n      pop\n        /* \"Assembly.sol\":1921:2083  voting( Laws[Laws.length - 1].totalvotes,  Laws[Laws.length - 1].agree, Laws[Laws.length - 1].Against,  Laws[Laws.length - 1].noidea,  Laws[Laws.length - 1].void) */\n      0xe6d2c32f5b44f4fb627ab6af5eaec2409ebe41956a260cd5df4013c9f39815b9\n        /* \"Assembly.sol\":1929:1933  Laws */\n      0x03\n        /* \"Assembly.sol\":1948:1949  1 */\n      0x01\n        /* \"Assembly.sol\":1934:1938  Laws */\n      0x03\n        /* \"Assembly.sol\":1934:1945  Laws.length */\n      dup1\n      sload\n      swap1\n      pop\n        /* \"Assembly.sol\":1934:1949  Laws.length - 1 */\n      tag_82\n      swap2\n      swap1\n      tag_39\n      jump\t// in\n    tag_82:\n        /* \"Assembly.sol\":1929:1950  Laws[Laws.length - 1] */\n      dup2\n      sload\n      dup2\n      lt\n      tag_83\n      jumpi\n      tag_84\n      tag_42\n      jump\t// in\n    tag_84:\n    tag_83:\n      swap1\n      0x00\n      mstore\n      keccak256(0x00, 0x20)\n      swap1\n      0x07\n      mul\n      add\n        /* \"Assembly.sol\":1929:1961  Laws[Laws.length - 1].totalvotes */\n      0x01\n      add\n      sload\n        /* \"Assembly.sol\":1964:1968  Laws */\n      0x03\n        /* \"Assembly.sol\":1983:1984  1 */\n      0x01\n        /* \"Assembly.sol\":1969:1973  Laws */\n      0x03\n        /* \"Assembly.sol\":1969:1980  Laws.length */\n      dup1\n      sload\n      swap1\n      pop\n        /* \"Assembly.sol\":1969:1984  Laws.length - 1 */\n      tag_86\n      swap2\n      swap1\n      tag_39\n      jump\t// in\n    tag_86:\n        /* \"Assembly.sol\":1964:1985  Laws[Laws.length - 1] */\n      dup2\n      sload\n      dup2\n      lt\n      tag_87\n      jumpi\n      tag_88\n      tag_42\n      jump\t// in\n    tag_88:\n    tag_87:\n      swap1\n      0x00\n      mstore\n      keccak256(0x00, 0x20)\n      swap1\n      0x07\n      mul\n      add\n        /* \"Assembly.sol\":1964:1991  Laws[Laws.length - 1].agree */\n      0x02\n      add\n      sload\n        /* \"Assembly.sol\":1993:1997  Laws */\n      0x03\n        /* \"Assembly.sol\":2012:2013  1 */\n      0x01\n        /* \"Assembly.sol\":1998:2002  Laws */\n      0x03\n        /* \"Assembly.sol\":1998:2009  Laws.length */\n      dup1\n      sload\n      swap1\n      pop\n        /* \"Assembly.sol\":1998:2013  Laws.length - 1 */\n      tag_90\n      swap2\n      swap1\n      tag_39\n      jump\t// in\n    tag_90:\n        /* \"Assembly.sol\":1993:2014  Laws[Laws.length - 1] */\n      dup2\n      sload\n      dup2\n      lt\n      tag_91\n      jumpi\n      tag_92\n      tag_42\n      jump\t// in\n    tag_92:\n    tag_91:\n      swap1\n      0x00\n      mstore\n      keccak256(0x00, 0x20)\n      swap1\n      0x07\n      mul\n      add\n        /* \"Assembly.sol\":1993:2022  Laws[Laws.length - 1].Against */\n      0x03\n      add\n      sload\n        /* \"Assembly.sol\":2025:2029  Laws */\n      0x03\n        /* \"Assembly.sol\":2044:2045  1 */\n      0x01\n        /* \"Assembly.sol\":2030:2034  Laws */\n      0x03\n        /* \"Assembly.sol\":2030:2041  Laws.length */\n      dup1\n      sload\n      swap1\n      pop\n        /* \"Assembly.sol\":2030:2045  Laws.length - 1 */\n      tag_94\n      swap2\n      swap1\n      tag_39\n      jump\t// in\n    tag_94:\n        /* \"Assembly.sol\":2025:2046  Laws[Laws.length - 1] */\n      dup2\n      sload\n      dup2\n      lt\n      tag_95\n      jumpi\n      tag_96\n      tag_42\n      jump\t// in\n    tag_96:\n    tag_95:\n      swap1\n      0x00\n      mstore\n      keccak256(0x00, 0x20)\n      swap1\n      0x07\n      mul\n      add\n        /* \"Assembly.sol\":2025:2053  Laws[Laws.length - 1].noidea */\n      0x04\n      add\n      sload\n        /* \"Assembly.sol\":2056:2060  Laws */\n      0x03\n        /* \"Assembly.sol\":2075:2076  1 */\n      0x01\n        /* \"Assembly.sol\":2061:2065  Laws */\n      0x03\n        /* \"Assembly.sol\":2061:2072  Laws.length */\n      dup1\n      sload\n      swap1\n      pop\n        /* \"Assembly.sol\":2061:2076  Laws.length - 1 */\n      tag_98\n      swap2\n      swap1\n      tag_39\n      jump\t// in\n    tag_98:\n        /* \"Assembly.sol\":2056:2077  Laws[Laws.length - 1] */\n      dup2\n      sload\n      dup2\n      lt\n      tag_99\n      jumpi\n      tag_100\n      tag_42\n      jump\t// in\n    tag_100:\n    tag_99:\n      swap1\n      0x00\n      mstore\n      keccak256(0x00, 0x20)\n      swap1\n      0x07\n      mul\n      add\n        /* \"Assembly.sol\":2056:2082  Laws[Laws.length - 1].void */\n      0x05\n      add\n      sload\n        /* \"Assembly.sol\":1921:2083  voting( Laws[Laws.length - 1].totalvotes,  Laws[Laws.length - 1].agree, Laws[Laws.length - 1].Against,  Laws[Laws.length - 1].noidea,  Laws[Laws.length - 1].void) */\n      mload(0x40)\n      tag_102\n      swap6\n      swap5\n      swap4\n      swap3\n      swap2\n      swap1\n      tag_24\n      jump\t// in\n    tag_102:\n      mload(0x40)\n      dup1\n      swap2\n      sub\n      swap1\n      log1\n        /* \"Assembly.sol\":2102:2106  Laws */\n      0x03\n        /* \"Assembly.sol\":2121:2122  1 */\n      0x01\n        /* \"Assembly.sol\":2107:2111  Laws */\n      0x03\n        /* \"Assembly.sol\":2107:2118  Laws.length */\n      dup1\n      sload\n      swap1\n      pop\n        /* \"Assembly.sol\":2107:2122  Laws.length - 1 */\n      tag_103\n      swap2\n      swap1\n      tag_39\n      jump\t// in\n    tag_103:\n        /* \"Assembly.sol\":2102:2123  Laws[Laws.length - 1] */\n      dup2\n      sload\n      dup2\n      lt\n      tag_104\n      jumpi\n      tag_105\n      tag_42\n      jump\t// in\n    tag_105:\n    tag_104:\n      swap1\n      0x00\n      mstore\n      keccak256(0x00, 0x20)\n      swap1\n      0x07\n      mul\n      add\n        /* \"Assembly.sol\":2102:2134  Laws[Laws.length - 1].totalvotes */\n      0x01\n      add\n      sload\n        /* \"Assembly.sol\":2137:2141  Laws */\n      0x03\n        /* \"Assembly.sol\":2156:2157  1 */\n      0x01\n        /* \"Assembly.sol\":2142:2146  Laws */\n      0x03\n        /* \"Assembly.sol\":2142:2153  Laws.length */\n      dup1\n      sload\n      swap1\n      pop\n        /* \"Assembly.sol\":2142:2157  Laws.length - 1 */\n      tag_107\n      swap2\n      swap1\n      tag_39\n      jump\t// in\n    tag_107:\n        /* \"Assembly.sol\":2137:2158  Laws[Laws.length - 1] */\n      dup2\n      sload\n      dup2\n      lt\n      tag_108\n      jumpi\n      tag_109\n      tag_42\n      jump\t// in\n    tag_109:\n    tag_108:\n      swap1\n      0x00\n      mstore\n      keccak256(0x00, 0x20)\n      swap1\n      0x07\n      mul\n      add\n        /* \"Assembly.sol\":2137:2164  Laws[Laws.length - 1].agree */\n      0x02\n      add\n      sload\n        /* \"Assembly.sol\":2168:2172  Laws */\n      0x03\n        /* \"Assembly.sol\":2187:2188  1 */\n      0x01\n        /* \"Assembly.sol\":2173:2177  Laws */\n      0x03\n        /* \"Assembly.sol\":2173:2184  Laws.length */\n      dup1\n      sload\n      swap1\n      pop\n        /* \"Assembly.sol\":2173:2188  Laws.length - 1 */\n      tag_111\n      swap2\n      swap1\n      tag_39\n      jump\t// in\n    tag_111:\n        /* \"Assembly.sol\":2168:2189  Laws[Laws.length - 1] */\n      dup2\n      sload\n      dup2\n      lt\n      tag_112\n      jumpi\n      tag_113\n      tag_42\n      jump\t// in\n    tag_113:\n    tag_112:\n      swap1\n      0x00\n      mstore\n      keccak256(0x00, 0x20)\n      swap1\n      0x07\n      mul\n      add\n        /* \"Assembly.sol\":2168:2197  Laws[Laws.length - 1].Against */\n      0x03\n      add\n      sload\n        /* \"Assembly.sol\":2199:2203  Laws */\n      0x03\n        /* \"Assembly.sol\":2218:2219  1 */\n      0x01\n        /* \"Assembly.sol\":2204:2208  Laws */\n      0x03\n        /* \"Assembly.sol\":2204:2215  Laws.length */\n      dup1\n      sload\n      swap1\n      pop\n        /* \"Assembly.sol\":2204:2219  Laws.length - 1 */\n      tag_115\n      swap2\n      swap1\n      tag_39\n      jump\t// in\n    tag_115:\n        /* \"Assembly.sol\":2199:2220  Laws[Laws.length - 1] */\n      dup2\n      sload\n      dup2\n      lt\n      tag_116\n      jumpi\n      tag_117\n      tag_42\n      jump\t// in\n    tag_117:\n    tag_116:\n      swap1\n      0x00\n      mstore\n      keccak256(0x00, 0x20)\n      swap1\n      0x07\n      mul\n      add\n        /* \"Assembly.sol\":2199:2227  Laws[Laws.length - 1].noidea */\n      0x04\n      add\n      sload\n        /* \"Assembly.sol\":2231:2235  Laws */\n      0x03\n        /* \"Assembly.sol\":2250:2251  1 */\n      0x01\n        /* \"Assembly.sol\":2236:2240  Laws */\n      0x03\n        /* \"Assembly.sol\":2236:2247  Laws.length */\n      dup1\n      sload\n      swap1\n      pop\n        /* \"Assembly.sol\":2236:2251  Laws.length - 1 */\n      tag_119\n      swap2\n      swap1\n      tag_39\n      jump\t// in\n    tag_119:\n        /* \"Assembly.sol\":2231:2252  Laws[Laws.length - 1] */\n      dup2\n      sload\n      dup2\n      lt\n      tag_120\n      jumpi\n      tag_121\n      tag_42\n      jump\t// in\n    tag_121:\n    tag_120:\n      swap1\n      0x00\n      mstore\n      keccak256(0x00, 0x20)\n      swap1\n      0x07\n      mul\n      add\n        /* \"Assembly.sol\":2231:2257  Laws[Laws.length - 1].void */\n      0x05\n      add\n      sload\n        /* \"Assembly.sol\":2094:2258  return( Laws[Laws.length - 1].totalvotes,  Laws[Laws.length - 1].agree ,  Laws[Laws.length - 1].Against, Laws[Laws.length - 1].noidea ,  Laws[Laws.length - 1].void) */\n      swap5\n      pop\n      swap5\n      pop\n      swap5\n      pop\n      swap5\n      pop\n      swap5\n      pop\n        /* \"Assembly.sol\":1373:2270  function hasRepresentatives(uint vote)public returns(uint ,uint , uint , uint , uint){... */\n      swap2\n      swap4\n      swap6\n      swap1\n      swap3\n      swap5\n      pop\n      jump\t// out\n        /* \"Assembly.sol\":2277:2754  function endOfVoting()public returns(uint _timestampstart, uint _totalvotes , uint _agree , uint _Against, uint _noidea , uint _void, uint _TimeStampEnd){... */\n    tag_26:\n        /* \"Assembly.sol\":2314:2334  uint _timestampstart */\n      0x00\n        /* \"Assembly.sol\":2336:2352  uint _totalvotes */\n      dup1\n        /* \"Assembly.sol\":2355:2366  uint _agree */\n      0x00\n        /* \"Assembly.sol\":2369:2382  uint _Against */\n      dup1\n        /* \"Assembly.sol\":2384:2396  uint _noidea */\n      0x00\n        /* \"Assembly.sol\":2399:2409  uint _void */\n      dup1\n        /* \"Assembly.sol\":2411:2429  uint _TimeStampEnd */\n      0x00\n        /* \"Assembly.sol\":2476:2491  block.timestamp */\n      timestamp\n        /* \"Assembly.sol\":2439:2443  Laws */\n      0x03\n        /* \"Assembly.sol\":2458:2459  1 */\n      0x01\n        /* \"Assembly.sol\":2444:2448  Laws */\n      0x03\n        /* \"Assembly.sol\":2444:2455  Laws.length */\n      dup1\n      sload\n      swap1\n      pop\n        /* \"Assembly.sol\":2444:2459  Laws.length - 1 */\n      tag_124\n      swap2\n      swap1\n      tag_39\n      jump\t// in\n    tag_124:\n        /* \"Assembly.sol\":2439:2460  Laws[Laws.length - 1] */\n      dup2\n      sload\n      dup2\n      lt\n      tag_125\n      jumpi\n      tag_126\n      tag_42\n      jump\t// in\n    tag_126:\n    tag_125:\n      swap1\n      0x00\n      mstore\n      keccak256(0x00, 0x20)\n      swap1\n      0x07\n      mul\n      add\n        /* \"Assembly.sol\":2439:2473  Laws[Laws.length - 1].TimeStampEnd */\n      0x06\n      add\n        /* \"Assembly.sol\":2439:2491  Laws[Laws.length - 1].TimeStampEnd = block.timestamp */\n      dup2\n      swap1\n      sstore\n      pop\n        /* \"Assembly.sol\":2509:2513  Laws */\n      0x03\n        /* \"Assembly.sol\":2528:2529  1 */\n      0x01\n        /* \"Assembly.sol\":2514:2518  Laws */\n      0x03\n        /* \"Assembly.sol\":2514:2525  Laws.length */\n      dup1\n      sload\n      swap1\n      pop\n        /* \"Assembly.sol\":2514:2529  Laws.length - 1 */\n      tag_128\n      swap2\n      swap1\n      tag_39\n      jump\t// in\n    tag_128:\n        /* \"Assembly.sol\":2509:2530  Laws[Laws.length - 1] */\n      dup2\n      sload\n      dup2\n      lt\n      tag_129\n      jumpi\n      tag_130\n      tag_42\n      jump\t// in\n    tag_130:\n    tag_129:\n      swap1\n      0x00\n      mstore\n      keccak256(0x00, 0x20)\n      swap1\n      0x07\n      mul\n      add\n        /* \"Assembly.sol\":2509:2545  Laws[Laws.length - 1].timestampstart */\n      0x00\n      add\n      sload\n        /* \"Assembly.sol\":2549:2553  Laws */\n      0x03\n        /* \"Assembly.sol\":2568:2569  1 */\n      0x01\n        /* \"Assembly.sol\":2554:2558  Laws */\n      0x03\n        /* \"Assembly.sol\":2554:2565  Laws.length */\n      dup1\n      sload\n      swap1\n      pop\n        /* \"Assembly.sol\":2554:2569  Laws.length - 1 */\n      tag_132\n      swap2\n      swap1\n      tag_39\n      jump\t// in\n    tag_132:\n        /* \"Assembly.sol\":2549:2570  Laws[Laws.length - 1] */\n      dup2\n      sload\n      dup2\n      lt\n      tag_133\n      jumpi\n      tag_134\n      tag_42\n      jump\t// in\n    tag_134:\n    tag_133:\n      swap1\n      0x00\n      mstore\n      keccak256(0x00, 0x20)\n      swap1\n      0x07\n      mul\n      add\n        /* \"Assembly.sol\":2549:2581  Laws[Laws.length - 1].totalvotes */\n      0x01\n      add\n      sload\n        /* \"Assembly.sol\":2585:2589  Laws */\n      0x03\n        /* \"Assembly.sol\":2604:2605  1 */\n      0x01\n        /* \"Assembly.sol\":2590:2594  Laws */\n      0x03\n        /* \"Assembly.sol\":2590:2601  Laws.length */\n      dup1\n      sload\n      swap1\n      pop\n        /* \"Assembly.sol\":2590:2605  Laws.length - 1 */\n      tag_136\n      swap2\n      swap1\n      tag_39\n      jump\t// in\n    tag_136:\n        /* \"Assembly.sol\":2585:2606  Laws[Laws.length - 1] */\n      dup2\n      sload\n      dup2\n      lt\n      tag_137\n      jumpi\n      tag_138\n      tag_42\n      jump\t// in\n    tag_138:\n    tag_137:\n      swap1\n      0x00\n      mstore\n      keccak256(0x00, 0x20)\n      swap1\n      0x07\n      mul\n      add\n        /* \"Assembly.sol\":2585:2612  Laws[Laws.length - 1].agree */\n      0x02\n      add\n      sload\n        /* \"Assembly.sol\":2616:2620  Laws */\n      0x03\n        /* \"Assembly.sol\":2635:2636  1 */\n      0x01\n        /* \"Assembly.sol\":2621:2625  Laws */\n      0x03\n        /* \"Assembly.sol\":2621:2632  Laws.length */\n      dup1\n      sload\n      swap1\n      pop\n        /* \"Assembly.sol\":2621:2636  Laws.length - 1 */\n      tag_140\n      swap2\n      swap1\n      tag_39\n      jump\t// in\n    tag_140:\n        /* \"Assembly.sol\":2616:2637  Laws[Laws.length - 1] */\n      dup2\n      sload\n      dup2\n      lt\n      tag_141\n      jumpi\n      tag_142\n      tag_42\n      jump\t// in\n    tag_142:\n    tag_141:\n      swap1\n      0x00\n      mstore\n      keccak256(0x00, 0x20)\n      swap1\n      0x07\n      mul\n      add\n        /* \"Assembly.sol\":2616:2645  Laws[Laws.length - 1].Against */\n      0x03\n      add\n      sload\n        /* \"Assembly.sol\":2649:2653  Laws */\n      0x03\n        /* \"Assembly.sol\":2668:2669  1 */\n      0x01\n        /* \"Assembly.sol\":2654:2658  Laws */\n      0x03\n        /* \"Assembly.sol\":2654:2665  Laws.length */\n      dup1\n      sload\n      swap1\n      pop\n        /* \"Assembly.sol\":2654:2669  Laws.length - 1 */\n      tag_144\n      swap2\n      swap1\n      tag_39\n      jump\t// in\n    tag_144:\n        /* \"Assembly.sol\":2649:2670  Laws[Laws.length - 1] */\n      dup2\n      sload\n      dup2\n      lt\n      tag_145\n      jumpi\n      tag_146\n      tag_42\n      jump\t// in\n    tag_146:\n    tag_145:\n      swap1\n      0x00\n      mstore\n      keccak256(0x00, 0x20)\n      swap1\n      0x07\n      mul\n      add\n        /* \"Assembly.sol\":2649:2677  Laws[Laws.length - 1].noidea */\n      0x04\n      add\n      sload\n        /* \"Assembly.sol\":2681:2685  Laws */\n      0x03\n        /* \"Assembly.sol\":2700:2701  1 */\n      0x01\n        /* \"Assembly.sol\":2686:2690  Laws */\n      0x03\n        /* \"Assembly.sol\":2686:2697  Laws.length */\n      dup1\n      sload\n      swap1\n      pop\n        /* \"Assembly.sol\":2686:2701  Laws.length - 1 */\n      tag_148\n      swap2\n      swap1\n      tag_39\n      jump\t// in\n    tag_148:\n        /* \"Assembly.sol\":2681:2702  Laws[Laws.length - 1] */\n      dup2\n      sload\n      dup2\n      lt\n      tag_149\n      jumpi\n      tag_150\n      tag_42\n      jump\t// in\n    tag_150:\n    tag_149:\n      swap1\n      0x00\n      mstore\n      keccak256(0x00, 0x20)\n      swap1\n      0x07\n      mul\n      add\n        /* \"Assembly.sol\":2681:2707  Laws[Laws.length - 1].void */\n      0x05\n      add\n      sload\n        /* \"Assembly.sol\":2711:2715  Laws */\n      0x03\n        /* \"Assembly.sol\":2730:2731  1 */\n      0x01\n        /* \"Assembly.sol\":2716:2720  Laws */\n      0x03\n        /* \"Assembly.sol\":2716:2727  Laws.length */\n      dup1\n      sload\n      swap1\n      pop\n        /* \"Assembly.sol\":2716:2731  Laws.length - 1 */\n      tag_152\n      swap2\n      swap1\n      tag_39\n      jump\t// in\n    tag_152:\n        /* \"Assembly.sol\":2711:2732  Laws[Laws.length - 1] */\n      dup2\n      sload\n      dup2\n      lt\n      tag_153\n      jumpi\n      tag_154\n      tag_42\n      jump\t// in\n    tag_154:\n    tag_153:\n      swap1\n      0x00\n      mstore\n      keccak256(0x00, 0x20)\n      swap1\n      0x07\n      mul\n      add\n        /* \"Assembly.sol\":2711:2745  Laws[Laws.length - 1].TimeStampEnd */\n      0x06\n      add\n      sload\n        /* \"Assembly.sol\":2501:2747  return( Laws[Laws.length - 1].timestampstart ,  Laws[Laws.length - 1].totalvotes ,  Laws[Laws.length - 1].agree ,  Laws[Laws.length - 1].Against ,  Laws[Laws.length - 1].noidea ,  Laws[Laws.length - 1].void ,  Laws[Laws.length - 1].TimeStampEnd ) */\n      swap7\n      pop\n      swap7\n      pop\n      swap7\n      pop\n      swap7\n      pop\n      swap7\n      pop\n      swap7\n      pop\n      swap7\n      pop\n        /* \"Assembly.sol\":2277:2754  function endOfVoting()public returns(uint _timestampstart, uint _totalvotes , uint _agree , uint _Against, uint _noidea , uint _void, uint _TimeStampEnd){... */\n      swap1\n      swap2\n      swap3\n      swap4\n      swap5\n      swap6\n      swap7\n      jump\t// out\n        /* \"Assembly.sol\":348:372  address[]public Chairman */\n    tag_31:\n      0x02\n      dup2\n      dup2\n      sload\n      dup2\n      lt\n      tag_156\n      jumpi\n      0x00\n      dup1\n      revert\n    tag_156:\n      swap1\n      0x00\n      mstore\n      keccak256(0x00, 0x20)\n      add\n      0x00\n      swap2\n      pop\n      sload\n      swap1\n      0x0100\n      exp\n      swap1\n      div\n      0xffffffffffffffffffffffffffffffffffffffff\n      and\n      dup2\n      jump\t// out\n        /* \"Assembly.sol\":1020:1361  function addlow(uint _timestampstart ,  uint _totalvotes, uint _Against , uint _agree ,uint _noidea ,uint _void  ,uint _TimeStampEnd)public{... */\n    tag_36:\n        /* \"Assembly.sol\":1171:1175  Laws */\n      0x03\n        /* \"Assembly.sol\":1181:1351  newlaw({timestampstart : _timestampstart ,totalvotes : _totalvotes, Against : _Against , agree : _agree , noidea : _noidea , void : _void ,TimeStampEnd : _TimeStampEnd }) */\n      mload(0x40)\n      dup1\n      0xe0\n      add\n      0x40\n      mstore\n      dup1\n        /* \"Assembly.sol\":1206:1221  _timestampstart */\n      dup10\n        /* \"Assembly.sol\":1181:1351  newlaw({timestampstart : _timestampstart ,totalvotes : _totalvotes, Against : _Against , agree : _agree , noidea : _noidea , void : _void ,TimeStampEnd : _TimeStampEnd }) */\n      dup2\n      mstore\n      0x20\n      add\n        /* \"Assembly.sol\":1236:1247  _totalvotes */\n      dup9\n        /* \"Assembly.sol\":1181:1351  newlaw({timestampstart : _timestampstart ,totalvotes : _totalvotes, Against : _Against , agree : _agree , noidea : _noidea , void : _void ,TimeStampEnd : _TimeStampEnd }) */\n      dup2\n      mstore\n      0x20\n      add\n        /* \"Assembly.sol\":1278:1284  _agree */\n      dup7\n        /* \"Assembly.sol\":1181:1351  newlaw({timestampstart : _timestampstart ,totalvotes : _totalvotes, Against : _Against , agree : _agree , noidea : _noidea , void : _void ,TimeStampEnd : _TimeStampEnd }) */\n      dup2\n      mstore\n      0x20\n      add\n        /* \"Assembly.sol\":1259:1267  _Against */\n      dup8\n        /* \"Assembly.sol\":1181:1351  newlaw({timestampstart : _timestampstart ,totalvotes : _totalvotes, Against : _Against , agree : _agree , noidea : _noidea , void : _void ,TimeStampEnd : _TimeStampEnd }) */\n      dup2\n      mstore\n      0x20\n      add\n        /* \"Assembly.sol\":1296:1303  _noidea */\n      dup6\n        /* \"Assembly.sol\":1181:1351  newlaw({timestampstart : _timestampstart ,totalvotes : _totalvotes, Against : _Against , agree : _agree , noidea : _noidea , void : _void ,TimeStampEnd : _TimeStampEnd }) */\n      dup2\n      mstore\n      0x20\n      add\n        /* \"Assembly.sol\":1313:1318  _void */\n      dup5\n        /* \"Assembly.sol\":1181:1351  newlaw({timestampstart : _timestampstart ,totalvotes : _totalvotes, Against : _Against , agree : _agree , noidea : _noidea , void : _void ,TimeStampEnd : _TimeStampEnd }) */\n      dup2\n      mstore\n      0x20\n      add\n        /* \"Assembly.sol\":1335:1348  _TimeStampEnd */\n      dup4\n        /* \"Assembly.sol\":1181:1351  newlaw({timestampstart : _timestampstart ,totalvotes : _totalvotes, Against : _Against , agree : _agree , noidea : _noidea , void : _void ,TimeStampEnd : _TimeStampEnd }) */\n      dup2\n      mstore\n      pop\n        /* \"Assembly.sol\":1171:1352  Laws.push(newlaw({timestampstart : _timestampstart ,totalvotes : _totalvotes, Against : _Against , agree : _agree , noidea : _noidea , void : _void ,TimeStampEnd : _TimeStampEnd })) */\n      swap1\n      dup1\n      0x01\n      dup2\n      sload\n      add\n      dup1\n      dup3\n      sstore\n      dup1\n      swap2\n      pop\n      pop\n      0x01\n      swap1\n      sub\n      swap1\n      0x00\n      mstore\n      keccak256(0x00, 0x20)\n      swap1\n      0x07\n      mul\n      add\n      0x00\n      swap1\n      swap2\n      swap1\n      swap2\n      swap1\n      swap2\n      pop\n      0x00\n      dup3\n      add\n      mload\n      dup2\n      0x00\n      add\n      sstore\n      0x20\n      dup3\n      add\n      mload\n      dup2\n      0x01\n      add\n      sstore\n      0x40\n      dup3\n      add\n      mload\n      dup2\n      0x02\n      add\n      sstore\n      0x60\n      dup3\n      add\n      mload\n      dup2\n      0x03\n      add\n      sstore\n      0x80\n      dup3\n      add\n      mload\n      dup2\n      0x04\n      add\n      sstore\n      0xa0\n      dup3\n      add\n      mload\n      dup2\n      0x05\n      add\n      sstore\n      0xc0\n      dup3\n      add\n      mload\n      dup2\n      0x06\n      add\n      sstore\n      pop\n      pop\n        /* \"Assembly.sol\":1020:1361  function addlow(uint _timestampstart ,  uint _totalvotes, uint _Against , uint _agree ,uint _noidea ,uint _void  ,uint _TimeStampEnd)public{... */\n      pop\n      pop\n      pop\n      pop\n      pop\n      pop\n      pop\n      jump\t// out\n        /* \"#utility.yul\":88:205   */\n    tag_161:\n        /* \"#utility.yul\":197:198   */\n      0x00\n        /* \"#utility.yul\":194:195   */\n      dup1\n        /* \"#utility.yul\":187:199   */\n      revert\n        /* \"#utility.yul\":334:460   */\n    tag_163:\n        /* \"#utility.yul\":371:378   */\n      0x00\n        /* \"#utility.yul\":411:453   */\n      0xffffffffffffffffffffffffffffffffffffffff\n        /* \"#utility.yul\":404:409   */\n      dup3\n        /* \"#utility.yul\":400:454   */\n      and\n        /* \"#utility.yul\":389:454   */\n      swap1\n      pop\n        /* \"#utility.yul\":334:460   */\n      swap2\n      swap1\n      pop\n      jump\t// out\n        /* \"#utility.yul\":466:562   */\n    tag_164:\n        /* \"#utility.yul\":503:510   */\n      0x00\n        /* \"#utility.yul\":532:556   */\n      tag_181\n        /* \"#utility.yul\":550:555   */\n      dup3\n        /* \"#utility.yul\":532:556   */\n      tag_163\n      jump\t// in\n    tag_181:\n        /* \"#utility.yul\":521:556   */\n      swap1\n      pop\n        /* \"#utility.yul\":466:562   */\n      swap2\n      swap1\n      pop\n      jump\t// out\n        /* \"#utility.yul\":568:690   */\n    tag_165:\n        /* \"#utility.yul\":641:665   */\n      tag_183\n        /* \"#utility.yul\":659:664   */\n      dup2\n        /* \"#utility.yul\":641:665   */\n      tag_164\n      jump\t// in\n    tag_183:\n        /* \"#utility.yul\":634:639   */\n      dup2\n        /* \"#utility.yul\":631:666   */\n      eq\n        /* \"#utility.yul\":621:684   */\n      tag_184\n      jumpi\n        /* \"#utility.yul\":680:681   */\n      0x00\n        /* \"#utility.yul\":677:678   */\n      dup1\n        /* \"#utility.yul\":670:682   */\n      revert\n        /* \"#utility.yul\":621:684   */\n    tag_184:\n        /* \"#utility.yul\":568:690   */\n      pop\n      jump\t// out\n        /* \"#utility.yul\":696:835   */\n    tag_166:\n        /* \"#utility.yul\":742:747   */\n      0x00\n        /* \"#utility.yul\":780:786   */\n      dup2\n        /* \"#utility.yul\":767:787   */\n      calldataload\n        /* \"#utility.yul\":758:787   */\n      swap1\n      pop\n        /* \"#utility.yul\":796:829   */\n      tag_186\n        /* \"#utility.yul\":823:828   */\n      dup2\n        /* \"#utility.yul\":796:829   */\n      tag_165\n      jump\t// in\n    tag_186:\n        /* \"#utility.yul\":696:835   */\n      swap3\n      swap2\n      pop\n      pop\n      jump\t// out\n        /* \"#utility.yul\":841:1170   */\n    tag_11:\n        /* \"#utility.yul\":900:906   */\n      0x00\n        /* \"#utility.yul\":949:951   */\n      0x20\n        /* \"#utility.yul\":937:946   */\n      dup3\n        /* \"#utility.yul\":928:935   */\n      dup5\n        /* \"#utility.yul\":924:947   */\n      sub\n        /* \"#utility.yul\":920:952   */\n      slt\n        /* \"#utility.yul\":917:1036   */\n      iszero\n      tag_188\n      jumpi\n        /* \"#utility.yul\":955:1034   */\n      tag_189\n      tag_161\n      jump\t// in\n    tag_189:\n        /* \"#utility.yul\":917:1036   */\n    tag_188:\n        /* \"#utility.yul\":1075:1076   */\n      0x00\n        /* \"#utility.yul\":1100:1153   */\n      tag_190\n        /* \"#utility.yul\":1145:1152   */\n      dup5\n        /* \"#utility.yul\":1136:1142   */\n      dup3\n        /* \"#utility.yul\":1125:1134   */\n      dup6\n        /* \"#utility.yul\":1121:1143   */\n      add\n        /* \"#utility.yul\":1100:1153   */\n      tag_166\n      jump\t// in\n    tag_190:\n        /* \"#utility.yul\":1090:1153   */\n      swap2\n      pop\n        /* \"#utility.yul\":1046:1163   */\n      pop\n        /* \"#utility.yul\":841:1170   */\n      swap3\n      swap2\n      pop\n      pop\n      jump\t// out\n        /* \"#utility.yul\":1176:1266   */\n    tag_167:\n        /* \"#utility.yul\":1210:1217   */\n      0x00\n        /* \"#utility.yul\":1253:1258   */\n      dup2\n        /* \"#utility.yul\":1246:1259   */\n      iszero\n        /* \"#utility.yul\":1239:1260   */\n      iszero\n        /* \"#utility.yul\":1228:1260   */\n      swap1\n      pop\n        /* \"#utility.yul\":1176:1266   */\n      swap2\n      swap1\n      pop\n      jump\t// out\n        /* \"#utility.yul\":1272:1381   */\n    tag_168:\n        /* \"#utility.yul\":1353:1374   */\n      tag_193\n        /* \"#utility.yul\":1368:1373   */\n      dup2\n        /* \"#utility.yul\":1353:1374   */\n      tag_167\n      jump\t// in\n    tag_193:\n        /* \"#utility.yul\":1348:1351   */\n      dup3\n        /* \"#utility.yul\":1341:1375   */\n      mstore\n        /* \"#utility.yul\":1272:1381   */\n      pop\n      pop\n      jump\t// out\n        /* \"#utility.yul\":1387:1597   */\n    tag_14:\n        /* \"#utility.yul\":1474:1478   */\n      0x00\n        /* \"#utility.yul\":1512:1514   */\n      0x20\n        /* \"#utility.yul\":1501:1510   */\n      dup3\n        /* \"#utility.yul\":1497:1515   */\n      add\n        /* \"#utility.yul\":1489:1515   */\n      swap1\n      pop\n        /* \"#utility.yul\":1525:1590   */\n      tag_195\n        /* \"#utility.yul\":1587:1588   */\n      0x00\n        /* \"#utility.yul\":1576:1585   */\n      dup4\n        /* \"#utility.yul\":1572:1589   */\n      add\n        /* \"#utility.yul\":1563:1569   */\n      dup5\n        /* \"#utility.yul\":1525:1590   */\n      tag_168\n      jump\t// in\n    tag_195:\n        /* \"#utility.yul\":1387:1597   */\n      swap3\n      swap2\n      pop\n      pop\n      jump\t// out\n        /* \"#utility.yul\":1603:1721   */\n    tag_169:\n        /* \"#utility.yul\":1690:1714   */\n      tag_197\n        /* \"#utility.yul\":1708:1713   */\n      dup2\n        /* \"#utility.yul\":1690:1714   */\n      tag_164\n      jump\t// in\n    tag_197:\n        /* \"#utility.yul\":1685:1688   */\n      dup3\n        /* \"#utility.yul\":1678:1715   */\n      mstore\n        /* \"#utility.yul\":1603:1721   */\n      pop\n      pop\n      jump\t// out\n        /* \"#utility.yul\":1727:1949   */\n    tag_18:\n        /* \"#utility.yul\":1820:1824   */\n      0x00\n        /* \"#utility.yul\":1858:1860   */\n      0x20\n        /* \"#utility.yul\":1847:1856   */\n      dup3\n        /* \"#utility.yul\":1843:1861   */\n      add\n        /* \"#utility.yul\":1835:1861   */\n      swap1\n      pop\n        /* \"#utility.yul\":1871:1942   */\n      tag_199\n        /* \"#utility.yul\":1939:1940   */\n      0x00\n        /* \"#utility.yul\":1928:1937   */\n      dup4\n        /* \"#utility.yul\":1924:1941   */\n      add\n        /* \"#utility.yul\":1915:1921   */\n      dup5\n        /* \"#utility.yul\":1871:1942   */\n      tag_169\n      jump\t// in\n    tag_199:\n        /* \"#utility.yul\":1727:1949   */\n      swap3\n      swap2\n      pop\n      pop\n      jump\t// out\n        /* \"#utility.yul\":1955:2032   */\n    tag_170:\n        /* \"#utility.yul\":1992:1999   */\n      0x00\n        /* \"#utility.yul\":2021:2026   */\n      dup2\n        /* \"#utility.yul\":2010:2026   */\n      swap1\n      pop\n        /* \"#utility.yul\":1955:2032   */\n      swap2\n      swap1\n      pop\n      jump\t// out\n        /* \"#utility.yul\":2038:2160   */\n    tag_171:\n        /* \"#utility.yul\":2111:2135   */\n      tag_202\n        /* \"#utility.yul\":2129:2134   */\n      dup2\n        /* \"#utility.yul\":2111:2135   */\n      tag_170\n      jump\t// in\n    tag_202:\n        /* \"#utility.yul\":2104:2109   */\n      dup2\n        /* \"#utility.yul\":2101:2136   */\n      eq\n        /* \"#utility.yul\":2091:2154   */\n      tag_203\n      jumpi\n        /* \"#utility.yul\":2150:2151   */\n      0x00\n        /* \"#utility.yul\":2147:2148   */\n      dup1\n        /* \"#utility.yul\":2140:2152   */\n      revert\n        /* \"#utility.yul\":2091:2154   */\n    tag_203:\n        /* \"#utility.yul\":2038:2160   */\n      pop\n      jump\t// out\n        /* \"#utility.yul\":2166:2305   */\n    tag_172:\n        /* \"#utility.yul\":2212:2217   */\n      0x00\n        /* \"#utility.yul\":2250:2256   */\n      dup2\n        /* \"#utility.yul\":2237:2257   */\n      calldataload\n        /* \"#utility.yul\":2228:2257   */\n      swap1\n      pop\n        /* \"#utility.yul\":2266:2299   */\n      tag_205\n        /* \"#utility.yul\":2293:2298   */\n      dup2\n        /* \"#utility.yul\":2266:2299   */\n      tag_171\n      jump\t// in\n    tag_205:\n        /* \"#utility.yul\":2166:2305   */\n      swap3\n      swap2\n      pop\n      pop\n      jump\t// out\n        /* \"#utility.yul\":2311:2640   */\n    tag_21:\n        /* \"#utility.yul\":2370:2376   */\n      0x00\n        /* \"#utility.yul\":2419:2421   */\n      0x20\n        /* \"#utility.yul\":2407:2416   */\n      dup3\n        /* \"#utility.yul\":2398:2405   */\n      dup5\n        /* \"#utility.yul\":2394:2417   */\n      sub\n        /* \"#utility.yul\":2390:2422   */\n      slt\n        /* \"#utility.yul\":2387:2506   */\n      iszero\n      tag_207\n      jumpi\n        /* \"#utility.yul\":2425:2504   */\n      tag_208\n      tag_161\n      jump\t// in\n    tag_208:\n        /* \"#utility.yul\":2387:2506   */\n    tag_207:\n        /* \"#utility.yul\":2545:2546   */\n      0x00\n        /* \"#utility.yul\":2570:2623   */\n      tag_209\n        /* \"#utility.yul\":2615:2622   */\n      dup5\n        /* \"#utility.yul\":2606:2612   */\n      dup3\n        /* \"#utility.yul\":2595:2604   */\n      dup6\n        /* \"#utility.yul\":2591:2613   */\n      add\n        /* \"#utility.yul\":2570:2623   */\n      tag_172\n      jump\t// in\n    tag_209:\n        /* \"#utility.yul\":2560:2623   */\n      swap2\n      pop\n        /* \"#utility.yul\":2516:2633   */\n      pop\n        /* \"#utility.yul\":2311:2640   */\n      swap3\n      swap2\n      pop\n      pop\n      jump\t// out\n        /* \"#utility.yul\":2646:2764   */\n    tag_173:\n        /* \"#utility.yul\":2733:2757   */\n      tag_211\n        /* \"#utility.yul\":2751:2756   */\n      dup2\n        /* \"#utility.yul\":2733:2757   */\n      tag_170\n      jump\t// in\n    tag_211:\n        /* \"#utility.yul\":2728:2731   */\n      dup3\n        /* \"#utility.yul\":2721:2758   */\n      mstore\n        /* \"#utility.yul\":2646:2764   */\n      pop\n      pop\n      jump\t// out\n        /* \"#utility.yul\":2770:3434   */\n    tag_24:\n        /* \"#utility.yul\":2975:2979   */\n      0x00\n        /* \"#utility.yul\":3013:3016   */\n      0xa0\n        /* \"#utility.yul\":3002:3011   */\n      dup3\n        /* \"#utility.yul\":2998:3017   */\n      add\n        /* \"#utility.yul\":2990:3017   */\n      swap1\n      pop\n        /* \"#utility.yul\":3027:3098   */\n      tag_213\n        /* \"#utility.yul\":3095:3096   */\n      0x00\n        /* \"#utility.yul\":3084:3093   */\n      dup4\n        /* \"#utility.yul\":3080:3097   */\n      add\n        /* \"#utility.yul\":3071:3077   */\n      dup9\n        /* \"#utility.yul\":3027:3098   */\n      tag_173\n      jump\t// in\n    tag_213:\n        /* \"#utility.yul\":3108:3180   */\n      tag_214\n        /* \"#utility.yul\":3176:3178   */\n      0x20\n        /* \"#utility.yul\":3165:3174   */\n      dup4\n        /* \"#utility.yul\":3161:3179   */\n      add\n        /* \"#utility.yul\":3152:3158   */\n      dup8\n        /* \"#utility.yul\":3108:3180   */\n      tag_173\n      jump\t// in\n    tag_214:\n        /* \"#utility.yul\":3190:3262   */\n      tag_215\n        /* \"#utility.yul\":3258:3260   */\n      0x40\n        /* \"#utility.yul\":3247:3256   */\n      dup4\n        /* \"#utility.yul\":3243:3261   */\n      add\n        /* \"#utility.yul\":3234:3240   */\n      dup7\n        /* \"#utility.yul\":3190:3262   */\n      tag_173\n      jump\t// in\n    tag_215:\n        /* \"#utility.yul\":3272:3344   */\n      tag_216\n        /* \"#utility.yul\":3340:3342   */\n      0x60\n        /* \"#utility.yul\":3329:3338   */\n      dup4\n        /* \"#utility.yul\":3325:3343   */\n      add\n        /* \"#utility.yul\":3316:3322   */\n      dup6\n        /* \"#utility.yul\":3272:3344   */\n      tag_173\n      jump\t// in\n    tag_216:\n        /* \"#utility.yul\":3354:3427   */\n      tag_217\n        /* \"#utility.yul\":3422:3425   */\n      0x80\n        /* \"#utility.yul\":3411:3420   */\n      dup4\n        /* \"#utility.yul\":3407:3426   */\n      add\n        /* \"#utility.yul\":3398:3404   */\n      dup5\n        /* \"#utility.yul\":3354:3427   */\n      tag_173\n      jump\t// in\n    tag_217:\n        /* \"#utility.yul\":2770:3434   */\n      swap7\n      swap6\n      pop\n      pop\n      pop\n      pop\n      pop\n      pop\n      jump\t// out\n        /* \"#utility.yul\":3440:4326   */\n    tag_28:\n        /* \"#utility.yul\":3701:3705   */\n      0x00\n        /* \"#utility.yul\":3739:3742   */\n      0xe0\n        /* \"#utility.yul\":3728:3737   */\n      dup3\n        /* \"#utility.yul\":3724:3743   */\n      add\n        /* \"#utility.yul\":3716:3743   */\n      swap1\n      pop\n        /* \"#utility.yul\":3753:3824   */\n      tag_219\n        /* \"#utility.yul\":3821:3822   */\n      0x00\n        /* \"#utility.yul\":3810:3819   */\n      dup4\n        /* \"#utility.yul\":3806:3823   */\n      add\n        /* \"#utility.yul\":3797:3803   */\n      dup11\n        /* \"#utility.yul\":3753:3824   */\n      tag_173\n      jump\t// in\n    tag_219:\n        /* \"#utility.yul\":3834:3906   */\n      tag_220\n        /* \"#utility.yul\":3902:3904   */\n      0x20\n        /* \"#utility.yul\":3891:3900   */\n      dup4\n        /* \"#utility.yul\":3887:3905   */\n      add\n        /* \"#utility.yul\":3878:3884   */\n      dup10\n        /* \"#utility.yul\":3834:3906   */\n      tag_173\n      jump\t// in\n    tag_220:\n        /* \"#utility.yul\":3916:3988   */\n      tag_221\n        /* \"#utility.yul\":3984:3986   */\n      0x40\n        /* \"#utility.yul\":3973:3982   */\n      dup4\n        /* \"#utility.yul\":3969:3987   */\n      add\n        /* \"#utility.yul\":3960:3966   */\n      dup9\n        /* \"#utility.yul\":3916:3988   */\n      tag_173\n      jump\t// in\n    tag_221:\n        /* \"#utility.yul\":3998:4070   */\n      tag_222\n        /* \"#utility.yul\":4066:4068   */\n      0x60\n        /* \"#utility.yul\":4055:4064   */\n      dup4\n        /* \"#utility.yul\":4051:4069   */\n      add\n        /* \"#utility.yul\":4042:4048   */\n      dup8\n        /* \"#utility.yul\":3998:4070   */\n      tag_173\n      jump\t// in\n    tag_222:\n        /* \"#utility.yul\":4080:4153   */\n      tag_223\n        /* \"#utility.yul\":4148:4151   */\n      0x80\n        /* \"#utility.yul\":4137:4146   */\n      dup4\n        /* \"#utility.yul\":4133:4152   */\n      add\n        /* \"#utility.yul\":4124:4130   */\n      dup7\n        /* \"#utility.yul\":4080:4153   */\n      tag_173\n      jump\t// in\n    tag_223:\n        /* \"#utility.yul\":4163:4236   */\n      tag_224\n        /* \"#utility.yul\":4231:4234   */\n      0xa0\n        /* \"#utility.yul\":4220:4229   */\n      dup4\n        /* \"#utility.yul\":4216:4235   */\n      add\n        /* \"#utility.yul\":4207:4213   */\n      dup6\n        /* \"#utility.yul\":4163:4236   */\n      tag_173\n      jump\t// in\n    tag_224:\n        /* \"#utility.yul\":4246:4319   */\n      tag_225\n        /* \"#utility.yul\":4314:4317   */\n      0xc0\n        /* \"#utility.yul\":4303:4312   */\n      dup4\n        /* \"#utility.yul\":4299:4318   */\n      add\n        /* \"#utility.yul\":4290:4296   */\n      dup5\n        /* \"#utility.yul\":4246:4319   */\n      tag_173\n      jump\t// in\n    tag_225:\n        /* \"#utility.yul\":3440:4326   */\n      swap9\n      swap8\n      pop\n      pop\n      pop\n      pop\n      pop\n      pop\n      pop\n      pop\n      jump\t// out\n        /* \"#utility.yul\":4332:5535   */\n    tag_35:\n        /* \"#utility.yul\":4445:4451   */\n      0x00\n        /* \"#utility.yul\":4453:4459   */\n      dup1\n        /* \"#utility.yul\":4461:4467   */\n      0x00\n        /* \"#utility.yul\":4469:4475   */\n      dup1\n        /* \"#utility.yul\":4477:4483   */\n      0x00\n        /* \"#utility.yul\":4485:4491   */\n      dup1\n        /* \"#utility.yul\":4493:4499   */\n      0x00\n        /* \"#utility.yul\":4542:4545   */\n      0xe0\n        /* \"#utility.yul\":4530:4539   */\n      dup9\n        /* \"#utility.yul\":4521:4528   */\n      dup11\n        /* \"#utility.yul\":4517:4540   */\n      sub\n        /* \"#utility.yul\":4513:4546   */\n      slt\n        /* \"#utility.yul\":4510:4630   */\n      iszero\n      tag_227\n      jumpi\n        /* \"#utility.yul\":4549:4628   */\n      tag_228\n      tag_161\n      jump\t// in\n    tag_228:\n        /* \"#utility.yul\":4510:4630   */\n    tag_227:\n        /* \"#utility.yul\":4669:4670   */\n      0x00\n        /* \"#utility.yul\":4694:4747   */\n      tag_229\n        /* \"#utility.yul\":4739:4746   */\n      dup11\n        /* \"#utility.yul\":4730:4736   */\n      dup3\n        /* \"#utility.yul\":4719:4728   */\n      dup12\n        /* \"#utility.yul\":4715:4737   */\n      add\n        /* \"#utility.yul\":4694:4747   */\n      tag_172\n      jump\t// in\n    tag_229:\n        /* \"#utility.yul\":4684:4747   */\n      swap8\n      pop\n        /* \"#utility.yul\":4640:4757   */\n      pop\n        /* \"#utility.yul\":4796:4798   */\n      0x20\n        /* \"#utility.yul\":4822:4875   */\n      tag_230\n        /* \"#utility.yul\":4867:4874   */\n      dup11\n        /* \"#utility.yul\":4858:4864   */\n      dup3\n        /* \"#utility.yul\":4847:4856   */\n      dup12\n        /* \"#utility.yul\":4843:4865   */\n      add\n        /* \"#utility.yul\":4822:4875   */\n      tag_172\n      jump\t// in\n    tag_230:\n        /* \"#utility.yul\":4812:4875   */\n      swap7\n      pop\n        /* \"#utility.yul\":4767:4885   */\n      pop\n        /* \"#utility.yul\":4924:4926   */\n      0x40\n        /* \"#utility.yul\":4950:5003   */\n      tag_231\n        /* \"#utility.yul\":4995:5002   */\n      dup11\n        /* \"#utility.yul\":4986:4992   */\n      dup3\n        /* \"#utility.yul\":4975:4984   */\n      dup12\n        /* \"#utility.yul\":4971:4993   */\n      add\n        /* \"#utility.yul\":4950:5003   */\n      tag_172\n      jump\t// in\n    tag_231:\n        /* \"#utility.yul\":4940:5003   */\n      swap6\n      pop\n        /* \"#utility.yul\":4895:5013   */\n      pop\n        /* \"#utility.yul\":5052:5054   */\n      0x60\n        /* \"#utility.yul\":5078:5131   */\n      tag_232\n        /* \"#utility.yul\":5123:5130   */\n      dup11\n        /* \"#utility.yul\":5114:5120   */\n      dup3\n        /* \"#utility.yul\":5103:5112   */\n      dup12\n        /* \"#utility.yul\":5099:5121   */\n      add\n        /* \"#utility.yul\":5078:5131   */\n      tag_172\n      jump\t// in\n    tag_232:\n        /* \"#utility.yul\":5068:5131   */\n      swap5\n      pop\n        /* \"#utility.yul\":5023:5141   */\n      pop\n        /* \"#utility.yul\":5180:5183   */\n      0x80\n        /* \"#utility.yul\":5207:5260   */\n      tag_233\n        /* \"#utility.yul\":5252:5259   */\n      dup11\n        /* \"#utility.yul\":5243:5249   */\n      dup3\n        /* \"#utility.yul\":5232:5241   */\n      dup12\n        /* \"#utility.yul\":5228:5250   */\n      add\n        /* \"#utility.yul\":5207:5260   */\n      tag_172\n      jump\t// in\n    tag_233:\n        /* \"#utility.yul\":5197:5260   */\n      swap4\n      pop\n        /* \"#utility.yul\":5151:5270   */\n      pop\n        /* \"#utility.yul\":5309:5312   */\n      0xa0\n        /* \"#utility.yul\":5336:5389   */\n      tag_234\n        /* \"#utility.yul\":5381:5388   */\n      dup11\n        /* \"#utility.yul\":5372:5378   */\n      dup3\n        /* \"#utility.yul\":5361:5370   */\n      dup12\n        /* \"#utility.yul\":5357:5379   */\n      add\n        /* \"#utility.yul\":5336:5389   */\n      tag_172\n      jump\t// in\n    tag_234:\n        /* \"#utility.yul\":5326:5389   */\n      swap3\n      pop\n        /* \"#utility.yul\":5280:5399   */\n      pop\n        /* \"#utility.yul\":5438:5441   */\n      0xc0\n        /* \"#utility.yul\":5465:5518   */\n      tag_235\n        /* \"#utility.yul\":5510:5517   */\n      dup11\n        /* \"#utility.yul\":5501:5507   */\n      dup3\n        /* \"#utility.yul\":5490:5499   */\n      dup12\n        /* \"#utility.yul\":5486:5508   */\n      add\n        /* \"#utility.yul\":5465:5518   */\n      tag_172\n      jump\t// in\n    tag_235:\n        /* \"#utility.yul\":5455:5518   */\n      swap2\n      pop\n        /* \"#utility.yul\":5409:5528   */\n      pop\n        /* \"#utility.yul\":4332:5535   */\n      swap3\n      swap6\n      swap9\n      swap2\n      swap5\n      swap8\n      pop\n      swap3\n      swap6\n      pop\n      jump\t// out\n        /* \"#utility.yul\":5541:5721   */\n    tag_174:\n        /* \"#utility.yul\":5589:5666   */\n      0x4e487b7100000000000000000000000000000000000000000000000000000000\n        /* \"#utility.yul\":5586:5587   */\n      0x00\n        /* \"#utility.yul\":5579:5667   */\n      mstore\n        /* \"#utility.yul\":5686:5690   */\n      0x11\n        /* \"#utility.yul\":5683:5684   */\n      0x04\n        /* \"#utility.yul\":5676:5691   */\n      mstore\n        /* \"#utility.yul\":5710:5714   */\n      0x24\n        /* \"#utility.yul\":5707:5708   */\n      0x00\n        /* \"#utility.yul\":5700:5715   */\n      revert\n        /* \"#utility.yul\":5727:5921   */\n    tag_39:\n        /* \"#utility.yul\":5767:5771   */\n      0x00\n        /* \"#utility.yul\":5787:5807   */\n      tag_238\n        /* \"#utility.yul\":5805:5806   */\n      dup3\n        /* \"#utility.yul\":5787:5807   */\n      tag_170\n      jump\t// in\n    tag_238:\n        /* \"#utility.yul\":5782:5807   */\n      swap2\n      pop\n        /* \"#utility.yul\":5821:5841   */\n      tag_239\n        /* \"#utility.yul\":5839:5840   */\n      dup4\n        /* \"#utility.yul\":5821:5841   */\n      tag_170\n      jump\t// in\n    tag_239:\n        /* \"#utility.yul\":5816:5841   */\n      swap3\n      pop\n        /* \"#utility.yul\":5865:5866   */\n      dup3\n        /* \"#utility.yul\":5862:5863   */\n      dup3\n        /* \"#utility.yul\":5858:5867   */\n      sub\n        /* \"#utility.yul\":5850:5867   */\n      swap1\n      pop\n        /* \"#utility.yul\":5889:5890   */\n      dup2\n        /* \"#utility.yul\":5883:5887   */\n      dup2\n        /* \"#utility.yul\":5880:5891   */\n      gt\n        /* \"#utility.yul\":5877:5914   */\n      iszero\n      tag_240\n      jumpi\n        /* \"#utility.yul\":5894:5912   */\n      tag_241\n      tag_174\n      jump\t// in\n    tag_241:\n        /* \"#utility.yul\":5877:5914   */\n    tag_240:\n        /* \"#utility.yul\":5727:5921   */\n      swap3\n      swap2\n      pop\n      pop\n      jump\t// out\n        /* \"#utility.yul\":5927:6107   */\n    tag_42:\n        /* \"#utility.yul\":5975:6052   */\n      0x4e487b7100000000000000000000000000000000000000000000000000000000\n        /* \"#utility.yul\":5972:5973   */\n      0x00\n        /* \"#utility.yul\":5965:6053   */\n      mstore\n        /* \"#utility.yul\":6072:6076   */\n      0x32\n        /* \"#utility.yul\":6069:6070   */\n      0x04\n        /* \"#utility.yul\":6062:6077   */\n      mstore\n        /* \"#utility.yul\":6096:6100   */\n      0x24\n        /* \"#utility.yul\":6093:6094   */\n      0x00\n        /* \"#utility.yul\":6086:6101   */\n      revert\n        /* \"#utility.yul\":6113:6346   */\n    tag_50:\n        /* \"#utility.yul\":6152:6155   */\n      0x00\n        /* \"#utility.yul\":6175:6199   */\n      tag_244\n        /* \"#utility.yul\":6193:6198   */\n      dup3\n        /* \"#utility.yul\":6175:6199   */\n      tag_170\n      jump\t// in\n    tag_244:\n        /* \"#utility.yul\":6166:6199   */\n      swap2\n      pop\n        /* \"#utility.yul\":6221:6287   */\n      0xffffffffffffffffffffffffffffffffffffffffffffffffffffffffffffffff\n        /* \"#utility.yul\":6214:6219   */\n      dup3\n        /* \"#utility.yul\":6211:6288   */\n      sub\n        /* \"#utility.yul\":6208:6311   */\n      tag_245\n      jumpi\n        /* \"#utility.yul\":6291:6309   */\n      tag_246\n      tag_174\n      jump\t// in\n    tag_246:\n        /* \"#utility.yul\":6208:6311   */\n    tag_245:\n        /* \"#utility.yul\":6338:6339   */\n      0x01\n        /* \"#utility.yul\":6331:6336   */\n      dup3\n        /* \"#utility.yul\":6327:6340   */\n      add\n        /* \"#utility.yul\":6320:6340   */\n      swap1\n      pop\n        /* \"#utility.yul\":6113:6346   */\n      swap2\n      swap1\n      pop\n      jump\t// out\n\n    auxdata: 0xa2646970667358221220aca08bb716288964412471500aa5c255626c6e62d28665393fc705f44080b8d964736f6c63430008120033\n}\n",
				"bytecode": {
					"linkReferences": {},
					"object": "608060405234801561001057600080fd5b50610cf7806100206000396000f3fe608060405234801561001057600080fd5b50600436106100625760003560e01c8063109241e714610067578063396abc841461009757806374265c68146100b55780637e887332146100e9578063b3ef4aa41461010d578063fa1ad70c1461013d575b600080fd5b610081600480360381019061007c9190610984565b610159565b60405161008e91906109cc565b60405180910390f35b61009f610179565b6040516100ac91906109f6565b60405180910390f35b6100cf60048036038101906100ca9190610a47565b61019f565b6040516100e0959493929190610a83565b60405180910390f35b6100f1610655565b6040516101049796959493929190610ad6565b60405180910390f35b61012760048036038101906101229190610a47565b610833565b60405161013491906109f6565b60405180910390f35b61015760048036038101906101529190610b45565b610872565b005b60006020528060005260406000206000915054906101000a900460ff1681565b600160009054906101000a900473ffffffffffffffffffffffffffffffffffffffff1681565b6000806000806000600360016003805490506101bb9190610c16565b815481106101cc576101cb610c4a565b5b906000526020600020906007020160020154860361023157600360016003805490506101f89190610c16565b8154811061020957610208610c4a565b5b9060005260206000209060070201600201600081548092919061022b90610c79565b91905055505b600360016003805490506102459190610c16565b8154811061025657610255610c4a565b5b90600052602060002090600702016003015486036102bb57600360016003805490506102829190610c16565b8154811061029357610292610c4a565b5b906000526020600020906007020160030160008154809291906102b590610c79565b91905055505b600360016003805490506102cf9190610c16565b815481106102e0576102df610c4a565b5b9060005260206000209060070201600401548603610349576003600160038054905061030c9190610c16565b8154811061031d5761031c610c4a565b5b9060005260206000209060070201600401600081548092919061033f90610c79565b9190505550610396565b6003600160038054905061035d9190610c16565b8154811061036e5761036d610c4a565b5b9060005260206000209060070201600501600081548092919061039090610c79565b91905055505b600360016003805490506103aa9190610c16565b815481106103bb576103ba610c4a565b5b906000526020600020906007020160010160008154809291906103dd90610c79565b91905055507fe6d2c32f5b44f4fb627ab6af5eaec2409ebe41956a260cd5df4013c9f39815b9600360016003805490506104179190610c16565b8154811061042857610427610c4a565b5b9060005260206000209060070201600101546003600160038054905061044e9190610c16565b8154811061045f5761045e610c4a565b5b906000526020600020906007020160020154600360016003805490506104859190610c16565b8154811061049657610495610c4a565b5b906000526020600020906007020160030154600360016003805490506104bc9190610c16565b815481106104cd576104cc610c4a565b5b906000526020600020906007020160040154600360016003805490506104f39190610c16565b8154811061050457610503610c4a565b5b906000526020600020906007020160050154604051610527959493929190610a83565b60405180910390a1600360016003805490506105439190610c16565b8154811061055457610553610c4a565b5b9060005260206000209060070201600101546003600160038054905061057a9190610c16565b8154811061058b5761058a610c4a565b5b906000526020600020906007020160020154600360016003805490506105b19190610c16565b815481106105c2576105c1610c4a565b5b906000526020600020906007020160030154600360016003805490506105e89190610c16565b815481106105f9576105f8610c4a565b5b9060005260206000209060070201600401546003600160038054905061061f9190610c16565b815481106106305761062f610c4a565b5b9060005260206000209060070201600501549450945094509450945091939590929450565b600080600080600080600042600360016003805490506106759190610c16565b8154811061068657610685610c4a565b5b906000526020600020906007020160060181905550600360016003805490506106af9190610c16565b815481106106c0576106bf610c4a565b5b906000526020600020906007020160000154600360016003805490506106e69190610c16565b815481106106f7576106f6610c4a565b5b9060005260206000209060070201600101546003600160038054905061071d9190610c16565b8154811061072e5761072d610c4a565b5b906000526020600020906007020160020154600360016003805490506107549190610c16565b8154811061076557610764610c4a565b5b9060005260206000209060070201600301546003600160038054905061078b9190610c16565b8154811061079c5761079b610c4a565b5b906000526020600020906007020160040154600360016003805490506107c29190610c16565b815481106107d3576107d2610c4a565b5b906000526020600020906007020160050154600360016003805490506107f99190610c16565b8154811061080a57610809610c4a565b5b906000526020600020906007020160060154965096509650965096509650965090919293949596565b6002818154811061084357600080fd5b906000526020600020016000915054906101000a900473ffffffffffffffffffffffffffffffffffffffff1681565b60036040518060e00160405280898152602001888152602001868152602001878152602001858152602001848152602001838152509080600181540180825580915050600190039060005260206000209060070201600090919091909150600082015181600001556020820151816001015560408201518160020155606082015181600301556080820151816004015560a0820151816005015560c08201518160060155505050505050505050565b600080fd5b600073ffffffffffffffffffffffffffffffffffffffff82169050919050565b600061095182610926565b9050919050565b61096181610946565b811461096c57600080fd5b50565b60008135905061097e81610958565b92915050565b60006020828403121561099a57610999610921565b5b60006109a88482850161096f565b91505092915050565b60008115159050919050565b6109c6816109b1565b82525050565b60006020820190506109e160008301846109bd565b92915050565b6109f081610946565b82525050565b6000602082019050610a0b60008301846109e7565b92915050565b6000819050919050565b610a2481610a11565b8114610a2f57600080fd5b50565b600081359050610a4181610a1b565b92915050565b600060208284031215610a5d57610a5c610921565b5b6000610a6b84828501610a32565b91505092915050565b610a7d81610a11565b82525050565b600060a082019050610a986000830188610a74565b610aa56020830187610a74565b610ab26040830186610a74565b610abf6060830185610a74565b610acc6080830184610a74565b9695505050505050565b600060e082019050610aeb600083018a610a74565b610af86020830189610a74565b610b056040830188610a74565b610b126060830187610a74565b610b1f6080830186610a74565b610b2c60a0830185610a74565b610b3960c0830184610a74565b98975050505050505050565b600080600080600080600060e0888a031215610b6457610b63610921565b5b6000610b728a828b01610a32565b9750506020610b838a828b01610a32565b9650506040610b948a828b01610a32565b9550506060610ba58a828b01610a32565b9450506080610bb68a828b01610a32565b93505060a0610bc78a828b01610a32565b92505060c0610bd88a828b01610a32565b91505092959891949750929550565b7f4e487b7100000000000000000000000000000000000000000000000000000000600052601160045260246000fd5b6000610c2182610a11565b9150610c2c83610a11565b9250828203905081811115610c4457610c43610be7565b5b92915050565b7f4e487b7100000000000000000000000000000000000000000000000000000000600052603260045260246000fd5b6000610c8482610a11565b91507fffffffffffffffffffffffffffffffffffffffffffffffffffffffffffffffff8203610cb657610cb5610be7565b5b60018201905091905056fea2646970667358221220aca08bb716288964412471500aa5c255626c6e62d28665393fc705f44080b8d964736f6c63430008120033",
					"opcodes": "PUSH1 0x80 PUSH1 0x40 MSTORE CALLVALUE DUP1 ISZERO PUSH2 0x10 JUMPI PUSH1 0x0 DUP1 REVERT JUMPDEST POP PUSH2 0xCF7 DUP1 PUSH2 0x20 PUSH1 0x0 CODECOPY PUSH1 0x0 RETURN INVALID PUSH1 0x80 PUSH1 0x40 MSTORE CALLVALUE DUP1 ISZERO PUSH2 0x10 JUMPI PUSH1 0x0 DUP1 REVERT JUMPDEST POP PUSH1 0x4 CALLDATASIZE LT PUSH2 0x62 JUMPI PUSH1 0x0 CALLDATALOAD PUSH1 0xE0 SHR DUP1 PUSH4 0x109241E7 EQ PUSH2 0x67 JUMPI DUP1 PUSH4 0x396ABC84 EQ PUSH2 0x97 JUMPI DUP1 PUSH4 0x74265C68 EQ PUSH2 0xB5 JUMPI DUP1 PUSH4 0x7E887332 EQ PUSH2 0xE9 JUMPI DUP1 PUSH4 0xB3EF4AA4 EQ PUSH2 0x10D JUMPI DUP1 PUSH4 0xFA1AD70C EQ PUSH2 0x13D JUMPI JUMPDEST PUSH1 0x0 DUP1 REVERT JUMPDEST PUSH2 0x81 PUSH1 0x4 DUP1 CALLDATASIZE SUB DUP2 ADD SWAP1 PUSH2 0x7C SWAP2 SWAP1 PUSH2 0x984 JUMP JUMPDEST PUSH2 0x159 JUMP JUMPDEST PUSH1 0x40 MLOAD PUSH2 0x8E SWAP2 SWAP1 PUSH2 0x9CC JUMP JUMPDEST PUSH1 0x40 MLOAD DUP1 SWAP2 SUB SWAP1 RETURN JUMPDEST PUSH2 0x9F PUSH2 0x179 JUMP JUMPDEST PUSH1 0x40 MLOAD PUSH2 0xAC SWAP2 SWAP1 PUSH2 0x9F6 JUMP JUMPDEST PUSH1 0x40 MLOAD DUP1 SWAP2 SUB SWAP1 RETURN JUMPDEST PUSH2 0xCF PUSH1 0x4 DUP1 CALLDATASIZE SUB DUP2 ADD SWAP1 PUSH2 0xCA SWAP2 SWAP1 PUSH2 0xA47 JUMP JUMPDEST PUSH2 0x19F JUMP JUMPDEST PUSH1 0x40 MLOAD PUSH2 0xE0 SWAP6 SWAP5 SWAP4 SWAP3 SWAP2 SWAP1 PUSH2 0xA83 JUMP JUMPDEST PUSH1 0x40 MLOAD DUP1 SWAP2 SUB SWAP1 RETURN JUMPDEST PUSH2 0xF1 PUSH2 0x655 JUMP JUMPDEST PUSH1 0x40 MLOAD PUSH2 0x104 SWAP8 SWAP7 SWAP6 SWAP5 SWAP4 SWAP3 SWAP2 SWAP1 PUSH2 0xAD6 JUMP JUMPDEST PUSH1 0x40 MLOAD DUP1 SWAP2 SUB SWAP1 RETURN JUMPDEST PUSH2 0x127 PUSH1 0x4 DUP1 CALLDATASIZE SUB DUP2 ADD SWAP1 PUSH2 0x122 SWAP2 SWAP1 PUSH2 0xA47 JUMP JUMPDEST PUSH2 0x833 JUMP JUMPDEST PUSH1 0x40 MLOAD PUSH2 0x134 SWAP2 SWAP1 PUSH2 0x9F6 JUMP JUMPDEST PUSH1 0x40 MLOAD DUP1 SWAP2 SUB SWAP1 RETURN JUMPDEST PUSH2 0x157 PUSH1 0x4 DUP1 CALLDATASIZE SUB DUP2 ADD SWAP1 PUSH2 0x152 SWAP2 SWAP1 PUSH2 0xB45 JUMP JUMPDEST PUSH2 0x872 JUMP JUMPDEST STOP JUMPDEST PUSH1 0x0 PUSH1 0x20 MSTORE DUP1 PUSH1 0x0 MSTORE PUSH1 0x40 PUSH1 0x0 KECCAK256 PUSH1 0x0 SWAP2 POP SLOAD SWAP1 PUSH2 0x100 EXP SWAP1 DIV PUSH1 0xFF AND DUP2 JUMP JUMPDEST PUSH1 0x1 PUSH1 0x0 SWAP1 SLOAD SWAP1 PUSH2 0x100 EXP SWAP1 DIV PUSH20 0xFFFFFFFFFFFFFFFFFFFFFFFFFFFFFFFFFFFFFFFF AND DUP2 JUMP JUMPDEST PUSH1 0x0 DUP1 PUSH1 0x0 DUP1 PUSH1 0x0 PUSH1 0x3 PUSH1 0x1 PUSH1 0x3 DUP1 SLOAD SWAP1 POP PUSH2 0x1BB SWAP2 SWAP1 PUSH2 0xC16 JUMP JUMPDEST DUP2 SLOAD DUP2 LT PUSH2 0x1CC JUMPI PUSH2 0x1CB PUSH2 0xC4A JUMP JUMPDEST JUMPDEST SWAP1 PUSH1 0x0 MSTORE PUSH1 0x20 PUSH1 0x0 KECCAK256 SWAP1 PUSH1 0x7 MUL ADD PUSH1 0x2 ADD SLOAD DUP7 SUB PUSH2 0x231 JUMPI PUSH1 0x3 PUSH1 0x1 PUSH1 0x3 DUP1 SLOAD SWAP1 POP PUSH2 0x1F8 SWAP2 SWAP1 PUSH2 0xC16 JUMP JUMPDEST DUP2 SLOAD DUP2 LT PUSH2 0x209 JUMPI PUSH2 0x208 PUSH2 0xC4A JUMP JUMPDEST JUMPDEST SWAP1 PUSH1 0x0 MSTORE PUSH1 0x20 PUSH1 0x0 KECCAK256 SWAP1 PUSH1 0x7 MUL ADD PUSH1 0x2 ADD PUSH1 0x0 DUP2 SLOAD DUP1 SWAP3 SWAP2 SWAP1 PUSH2 0x22B SWAP1 PUSH2 0xC79 JUMP JUMPDEST SWAP2 SWAP1 POP SSTORE POP JUMPDEST PUSH1 0x3 PUSH1 0x1 PUSH1 0x3 DUP1 SLOAD SWAP1 POP PUSH2 0x245 SWAP2 SWAP1 PUSH2 0xC16 JUMP JUMPDEST DUP2 SLOAD DUP2 LT PUSH2 0x256 JUMPI PUSH2 0x255 PUSH2 0xC4A JUMP JUMPDEST JUMPDEST SWAP1 PUSH1 0x0 MSTORE PUSH1 0x20 PUSH1 0x0 KECCAK256 SWAP1 PUSH1 0x7 MUL ADD PUSH1 0x3 ADD SLOAD DUP7 SUB PUSH2 0x2BB JUMPI PUSH1 0x3 PUSH1 0x1 PUSH1 0x3 DUP1 SLOAD SWAP1 POP PUSH2 0x282 SWAP2 SWAP1 PUSH2 0xC16 JUMP JUMPDEST DUP2 SLOAD DUP2 LT PUSH2 0x293 JUMPI PUSH2 0x292 PUSH2 0xC4A JUMP JUMPDEST JUMPDEST SWAP1 PUSH1 0x0 MSTORE PUSH1 0x20 PUSH1 0x0 KECCAK256 SWAP1 PUSH1 0x7 MUL ADD PUSH1 0x3 ADD PUSH1 0x0 DUP2 SLOAD DUP1 SWAP3 SWAP2 SWAP1 PUSH2 0x2B5 SWAP1 PUSH2 0xC79 JUMP JUMPDEST SWAP2 SWAP1 POP SSTORE POP JUMPDEST PUSH1 0x3 PUSH1 0x1 PUSH1 0x3 DUP1 SLOAD SWAP1 POP PUSH2 0x2CF SWAP2 SWAP1 PUSH2 0xC16 JUMP JUMPDEST DUP2 SLOAD DUP2 LT PUSH2 0x2E0 JUMPI PUSH2 0x2DF PUSH2 0xC4A JUMP JUMPDEST JUMPDEST SWAP1 PUSH1 0x0 MSTORE PUSH1 0x20 PUSH1 0x0 KECCAK256 SWAP1 PUSH1 0x7 MUL ADD PUSH1 0x4 ADD SLOAD DUP7 SUB PUSH2 0x349 JUMPI PUSH1 0x3 PUSH1 0x1 PUSH1 0x3 DUP1 SLOAD SWAP1 POP PUSH2 0x30C SWAP2 SWAP1 PUSH2 0xC16 JUMP JUMPDEST DUP2 SLOAD DUP2 LT PUSH2 0x31D JUMPI PUSH2 0x31C PUSH2 0xC4A JUMP JUMPDEST JUMPDEST SWAP1 PUSH1 0x0 MSTORE PUSH1 0x20 PUSH1 0x0 KECCAK256 SWAP1 PUSH1 0x7 MUL ADD PUSH1 0x4 ADD PUSH1 0x0 DUP2 SLOAD DUP1 SWAP3 SWAP2 SWAP1 PUSH2 0x33F SWAP1 PUSH2 0xC79 JUMP JUMPDEST SWAP2 SWAP1 POP SSTORE POP PUSH2 0x396 JUMP JUMPDEST PUSH1 0x3 PUSH1 0x1 PUSH1 0x3 DUP1 SLOAD SWAP1 POP PUSH2 0x35D SWAP2 SWAP1 PUSH2 0xC16 JUMP JUMPDEST DUP2 SLOAD DUP2 LT PUSH2 0x36E JUMPI PUSH2 0x36D PUSH2 0xC4A JUMP JUMPDEST JUMPDEST SWAP1 PUSH1 0x0 MSTORE PUSH1 0x20 PUSH1 0x0 KECCAK256 SWAP1 PUSH1 0x7 MUL ADD PUSH1 0x5 ADD PUSH1 0x0 DUP2 SLOAD DUP1 SWAP3 SWAP2 SWAP1 PUSH2 0x390 SWAP1 PUSH2 0xC79 JUMP JUMPDEST SWAP2 SWAP1 POP SSTORE POP JUMPDEST PUSH1 0x3 PUSH1 0x1 PUSH1 0x3 DUP1 SLOAD SWAP1 POP PUSH2 0x3AA SWAP2 SWAP1 PUSH2 0xC16 JUMP JUMPDEST DUP2 SLOAD DUP2 LT PUSH2 0x3BB JUMPI PUSH2 0x3BA PUSH2 0xC4A JUMP JUMPDEST JUMPDEST SWAP1 PUSH1 0x0 MSTORE PUSH1 0x20 PUSH1 0x0 KECCAK256 SWAP1 PUSH1 0x7 MUL ADD PUSH1 0x1 ADD PUSH1 0x0 DUP2 SLOAD DUP1 SWAP3 SWAP2 SWAP1 PUSH2 0x3DD SWAP1 PUSH2 0xC79 JUMP JUMPDEST SWAP2 SWAP1 POP SSTORE POP PUSH32 0xE6D2C32F5B44F4FB627AB6AF5EAEC2409EBE41956A260CD5DF4013C9F39815B9 PUSH1 0x3 PUSH1 0x1 PUSH1 0x3 DUP1 SLOAD SWAP1 POP PUSH2 0x417 SWAP2 SWAP1 PUSH2 0xC16 JUMP JUMPDEST DUP2 SLOAD DUP2 LT PUSH2 0x428 JUMPI PUSH2 0x427 PUSH2 0xC4A JUMP JUMPDEST JUMPDEST SWAP1 PUSH1 0x0 MSTORE PUSH1 0x20 PUSH1 0x0 KECCAK256 SWAP1 PUSH1 0x7 MUL ADD PUSH1 0x1 ADD SLOAD PUSH1 0x3 PUSH1 0x1 PUSH1 0x3 DUP1 SLOAD SWAP1 POP PUSH2 0x44E SWAP2 SWAP1 PUSH2 0xC16 JUMP JUMPDEST DUP2 SLOAD DUP2 LT PUSH2 0x45F JUMPI PUSH2 0x45E PUSH2 0xC4A JUMP JUMPDEST JUMPDEST SWAP1 PUSH1 0x0 MSTORE PUSH1 0x20 PUSH1 0x0 KECCAK256 SWAP1 PUSH1 0x7 MUL ADD PUSH1 0x2 ADD SLOAD PUSH1 0x3 PUSH1 0x1 PUSH1 0x3 DUP1 SLOAD SWAP1 POP PUSH2 0x485 SWAP2 SWAP1 PUSH2 0xC16 JUMP JUMPDEST DUP2 SLOAD DUP2 LT PUSH2 0x496 JUMPI PUSH2 0x495 PUSH2 0xC4A JUMP JUMPDEST JUMPDEST SWAP1 PUSH1 0x0 MSTORE PUSH1 0x20 PUSH1 0x0 KECCAK256 SWAP1 PUSH1 0x7 MUL ADD PUSH1 0x3 ADD SLOAD PUSH1 0x3 PUSH1 0x1 PUSH1 0x3 DUP1 SLOAD SWAP1 POP PUSH2 0x4BC SWAP2 SWAP1 PUSH2 0xC16 JUMP JUMPDEST DUP2 SLOAD DUP2 LT PUSH2 0x4CD JUMPI PUSH2 0x4CC PUSH2 0xC4A JUMP JUMPDEST JUMPDEST SWAP1 PUSH1 0x0 MSTORE PUSH1 0x20 PUSH1 0x0 KECCAK256 SWAP1 PUSH1 0x7 MUL ADD PUSH1 0x4 ADD SLOAD PUSH1 0x3 PUSH1 0x1 PUSH1 0x3 DUP1 SLOAD SWAP1 POP PUSH2 0x4F3 SWAP2 SWAP1 PUSH2 0xC16 JUMP JUMPDEST DUP2 SLOAD DUP2 LT PUSH2 0x504 JUMPI PUSH2 0x503 PUSH2 0xC4A JUMP JUMPDEST JUMPDEST SWAP1 PUSH1 0x0 MSTORE PUSH1 0x20 PUSH1 0x0 KECCAK256 SWAP1 PUSH1 0x7 MUL ADD PUSH1 0x5 ADD SLOAD PUSH1 0x40 MLOAD PUSH2 0x527 SWAP6 SWAP5 SWAP4 SWAP3 SWAP2 SWAP1 PUSH2 0xA83 JUMP JUMPDEST PUSH1 0x40 MLOAD DUP1 SWAP2 SUB SWAP1 LOG1 PUSH1 0x3 PUSH1 0x1 PUSH1 0x3 DUP1 SLOAD SWAP1 POP PUSH2 0x543 SWAP2 SWAP1 PUSH2 0xC16 JUMP JUMPDEST DUP2 SLOAD DUP2 LT PUSH2 0x554 JUMPI PUSH2 0x553 PUSH2 0xC4A JUMP JUMPDEST JUMPDEST SWAP1 PUSH1 0x0 MSTORE PUSH1 0x20 PUSH1 0x0 KECCAK256 SWAP1 PUSH1 0x7 MUL ADD PUSH1 0x1 ADD SLOAD PUSH1 0x3 PUSH1 0x1 PUSH1 0x3 DUP1 SLOAD SWAP1 POP PUSH2 0x57A SWAP2 SWAP1 PUSH2 0xC16 JUMP JUMPDEST DUP2 SLOAD DUP2 LT PUSH2 0x58B JUMPI PUSH2 0x58A PUSH2 0xC4A JUMP JUMPDEST JUMPDEST SWAP1 PUSH1 0x0 MSTORE PUSH1 0x20 PUSH1 0x0 KECCAK256 SWAP1 PUSH1 0x7 MUL ADD PUSH1 0x2 ADD SLOAD PUSH1 0x3 PUSH1 0x1 PUSH1 0x3 DUP1 SLOAD SWAP1 POP PUSH2 0x5B1 SWAP2 SWAP1 PUSH2 0xC16 JUMP JUMPDEST DUP2 SLOAD DUP2 LT PUSH2 0x5C2 JUMPI PUSH2 0x5C1 PUSH2 0xC4A JUMP JUMPDEST JUMPDEST SWAP1 PUSH1 0x0 MSTORE PUSH1 0x20 PUSH1 0x0 KECCAK256 SWAP1 PUSH1 0x7 MUL ADD PUSH1 0x3 ADD SLOAD PUSH1 0x3 PUSH1 0x1 PUSH1 0x3 DUP1 SLOAD SWAP1 POP PUSH2 0x5E8 SWAP2 SWAP1 PUSH2 0xC16 JUMP JUMPDEST DUP2 SLOAD DUP2 LT PUSH2 0x5F9 JUMPI PUSH2 0x5F8 PUSH2 0xC4A JUMP JUMPDEST JUMPDEST SWAP1 PUSH1 0x0 MSTORE PUSH1 0x20 PUSH1 0x0 KECCAK256 SWAP1 PUSH1 0x7 MUL ADD PUSH1 0x4 ADD SLOAD PUSH1 0x3 PUSH1 0x1 PUSH1 0x3 DUP1 SLOAD SWAP1 POP PUSH2 0x61F SWAP2 SWAP1 PUSH2 0xC16 JUMP JUMPDEST DUP2 SLOAD DUP2 LT PUSH2 0x630 JUMPI PUSH2 0x62F PUSH2 0xC4A JUMP JUMPDEST JUMPDEST SWAP1 PUSH1 0x0 MSTORE PUSH1 0x20 PUSH1 0x0 KECCAK256 SWAP1 PUSH1 0x7 MUL ADD PUSH1 0x5 ADD SLOAD SWAP5 POP SWAP5 POP SWAP5 POP SWAP5 POP SWAP5 POP SWAP2 SWAP4 SWAP6 SWAP1 SWAP3 SWAP5 POP JUMP JUMPDEST PUSH1 0x0 DUP1 PUSH1 0x0 DUP1 PUSH1 0x0 DUP1 PUSH1 0x0 TIMESTAMP PUSH1 0x3 PUSH1 0x1 PUSH1 0x3 DUP1 SLOAD SWAP1 POP PUSH2 0x675 SWAP2 SWAP1 PUSH2 0xC16 JUMP JUMPDEST DUP2 SLOAD DUP2 LT PUSH2 0x686 JUMPI PUSH2 0x685 PUSH2 0xC4A JUMP JUMPDEST JUMPDEST SWAP1 PUSH1 0x0 MSTORE PUSH1 0x20 PUSH1 0x0 KECCAK256 SWAP1 PUSH1 0x7 MUL ADD PUSH1 0x6 ADD DUP2 SWAP1 SSTORE POP PUSH1 0x3 PUSH1 0x1 PUSH1 0x3 DUP1 SLOAD SWAP1 POP PUSH2 0x6AF SWAP2 SWAP1 PUSH2 0xC16 JUMP JUMPDEST DUP2 SLOAD DUP2 LT PUSH2 0x6C0 JUMPI PUSH2 0x6BF PUSH2 0xC4A JUMP JUMPDEST JUMPDEST SWAP1 PUSH1 0x0 MSTORE PUSH1 0x20 PUSH1 0x0 KECCAK256 SWAP1 PUSH1 0x7 MUL ADD PUSH1 0x0 ADD SLOAD PUSH1 0x3 PUSH1 0x1 PUSH1 0x3 DUP1 SLOAD SWAP1 POP PUSH2 0x6E6 SWAP2 SWAP1 PUSH2 0xC16 JUMP JUMPDEST DUP2 SLOAD DUP2 LT PUSH2 0x6F7 JUMPI PUSH2 0x6F6 PUSH2 0xC4A JUMP JUMPDEST JUMPDEST SWAP1 PUSH1 0x0 MSTORE PUSH1 0x20 PUSH1 0x0 KECCAK256 SWAP1 PUSH1 0x7 MUL ADD PUSH1 0x1 ADD SLOAD PUSH1 0x3 PUSH1 0x1 PUSH1 0x3 DUP1 SLOAD SWAP1 POP PUSH2 0x71D SWAP2 SWAP1 PUSH2 0xC16 JUMP JUMPDEST DUP2 SLOAD DUP2 LT PUSH2 0x72E JUMPI PUSH2 0x72D PUSH2 0xC4A JUMP JUMPDEST JUMPDEST SWAP1 PUSH1 0x0 MSTORE PUSH1 0x20 PUSH1 0x0 KECCAK256 SWAP1 PUSH1 0x7 MUL ADD PUSH1 0x2 ADD SLOAD PUSH1 0x3 PUSH1 0x1 PUSH1 0x3 DUP1 SLOAD SWAP1 POP PUSH2 0x754 SWAP2 SWAP1 PUSH2 0xC16 JUMP JUMPDEST DUP2 SLOAD DUP2 LT PUSH2 0x765 JUMPI PUSH2 0x764 PUSH2 0xC4A JUMP JUMPDEST JUMPDEST SWAP1 PUSH1 0x0 MSTORE PUSH1 0x20 PUSH1 0x0 KECCAK256 SWAP1 PUSH1 0x7 MUL ADD PUSH1 0x3 ADD SLOAD PUSH1 0x3 PUSH1 0x1 PUSH1 0x3 DUP1 SLOAD SWAP1 POP PUSH2 0x78B SWAP2 SWAP1 PUSH2 0xC16 JUMP JUMPDEST DUP2 SLOAD DUP2 LT PUSH2 0x79C JUMPI PUSH2 0x79B PUSH2 0xC4A JUMP JUMPDEST JUMPDEST SWAP1 PUSH1 0x0 MSTORE PUSH1 0x20 PUSH1 0x0 KECCAK256 SWAP1 PUSH1 0x7 MUL ADD PUSH1 0x4 ADD SLOAD PUSH1 0x3 PUSH1 0x1 PUSH1 0x3 DUP1 SLOAD SWAP1 POP PUSH2 0x7C2 SWAP2 SWAP1 PUSH2 0xC16 JUMP JUMPDEST DUP2 SLOAD DUP2 LT PUSH2 0x7D3 JUMPI PUSH2 0x7D2 PUSH2 0xC4A JUMP JUMPDEST JUMPDEST SWAP1 PUSH1 0x0 MSTORE PUSH1 0x20 PUSH1 0x0 KECCAK256 SWAP1 PUSH1 0x7 MUL ADD PUSH1 0x5 ADD SLOAD PUSH1 0x3 PUSH1 0x1 PUSH1 0x3 DUP1 SLOAD SWAP1 POP PUSH2 0x7F9 SWAP2 SWAP1 PUSH2 0xC16 JUMP JUMPDEST DUP2 SLOAD DUP2 LT PUSH2 0x80A JUMPI PUSH2 0x809 PUSH2 0xC4A JUMP JUMPDEST JUMPDEST SWAP1 PUSH1 0x0 MSTORE PUSH1 0x20 PUSH1 0x0 KECCAK256 SWAP1 PUSH1 0x7 MUL ADD PUSH1 0x6 ADD SLOAD SWAP7 POP SWAP7 POP SWAP7 POP SWAP7 POP SWAP7 POP SWAP7 POP SWAP7 POP SWAP1 SWAP2 SWAP3 SWAP4 SWAP5 SWAP6 SWAP7 JUMP JUMPDEST PUSH1 0x2 DUP2 DUP2 SLOAD DUP2 LT PUSH2 0x843 JUMPI PUSH1 0x0 DUP1 REVERT JUMPDEST SWAP1 PUSH1 0x0 MSTORE PUSH1 0x20 PUSH1 0x0 KECCAK256 ADD PUSH1 0x0 SWAP2 POP SLOAD SWAP1 PUSH2 0x100 EXP SWAP1 DIV PUSH20 0xFFFFFFFFFFFFFFFFFFFFFFFFFFFFFFFFFFFFFFFF AND DUP2 JUMP JUMPDEST PUSH1 0x3 PUSH1 0x40 MLOAD DUP1 PUSH1 0xE0 ADD PUSH1 0x40 MSTORE DUP1 DUP10 DUP2 MSTORE PUSH1 0x20 ADD DUP9 DUP2 MSTORE PUSH1 0x20 ADD DUP7 DUP2 MSTORE PUSH1 0x20 ADD DUP8 DUP2 MSTORE PUSH1 0x20 ADD DUP6 DUP2 MSTORE PUSH1 0x20 ADD DUP5 DUP2 MSTORE PUSH1 0x20 ADD DUP4 DUP2 MSTORE POP SWAP1 DUP1 PUSH1 0x1 DUP2 SLOAD ADD DUP1 DUP3 SSTORE DUP1 SWAP2 POP POP PUSH1 0x1 SWAP1 SUB SWAP1 PUSH1 0x0 MSTORE PUSH1 0x20 PUSH1 0x0 KECCAK256 SWAP1 PUSH1 0x7 MUL ADD PUSH1 0x0 SWAP1 SWAP2 SWAP1 SWAP2 SWAP1 SWAP2 POP PUSH1 0x0 DUP3 ADD MLOAD DUP2 PUSH1 0x0 ADD SSTORE PUSH1 0x20 DUP3 ADD MLOAD DUP2 PUSH1 0x1 ADD SSTORE PUSH1 0x40 DUP3 ADD MLOAD DUP2 PUSH1 0x2 ADD SSTORE PUSH1 0x60 DUP3 ADD MLOAD DUP2 PUSH1 0x3 ADD SSTORE PUSH1 0x80 DUP3 ADD MLOAD DUP2 PUSH1 0x4 ADD SSTORE PUSH1 0xA0 DUP3 ADD MLOAD DUP2 PUSH1 0x5 ADD SSTORE PUSH1 0xC0 DUP3 ADD MLOAD DUP2 PUSH1 0x6 ADD SSTORE POP POP POP POP POP POP POP POP POP JUMP JUMPDEST PUSH1 0x0 DUP1 REVERT JUMPDEST PUSH1 0x0 PUSH20 0xFFFFFFFFFFFFFFFFFFFFFFFFFFFFFFFFFFFFFFFF DUP3 AND SWAP1 POP SWAP2 SWAP1 POP JUMP JUMPDEST PUSH1 0x0 PUSH2 0x951 DUP3 PUSH2 0x926 JUMP JUMPDEST SWAP1 POP SWAP2 SWAP1 POP JUMP JUMPDEST PUSH2 0x961 DUP2 PUSH2 0x946 JUMP JUMPDEST DUP2 EQ PUSH2 0x96C JUMPI PUSH1 0x0 DUP1 REVERT JUMPDEST POP JUMP JUMPDEST PUSH1 0x0 DUP2 CALLDATALOAD SWAP1 POP PUSH2 0x97E DUP2 PUSH2 0x958 JUMP JUMPDEST SWAP3 SWAP2 POP POP JUMP JUMPDEST PUSH1 0x0 PUSH1 0x20 DUP3 DUP5 SUB SLT ISZERO PUSH2 0x99A JUMPI PUSH2 0x999 PUSH2 0x921 JUMP JUMPDEST JUMPDEST PUSH1 0x0 PUSH2 0x9A8 DUP5 DUP3 DUP6 ADD PUSH2 0x96F JUMP JUMPDEST SWAP2 POP POP SWAP3 SWAP2 POP POP JUMP JUMPDEST PUSH1 0x0 DUP2 ISZERO ISZERO SWAP1 POP SWAP2 SWAP1 POP JUMP JUMPDEST PUSH2 0x9C6 DUP2 PUSH2 0x9B1 JUMP JUMPDEST DUP3 MSTORE POP POP JUMP JUMPDEST PUSH1 0x0 PUSH1 0x20 DUP3 ADD SWAP1 POP PUSH2 0x9E1 PUSH1 0x0 DUP4 ADD DUP5 PUSH2 0x9BD JUMP JUMPDEST SWAP3 SWAP2 POP POP JUMP JUMPDEST PUSH2 0x9F0 DUP2 PUSH2 0x946 JUMP JUMPDEST DUP3 MSTORE POP POP JUMP JUMPDEST PUSH1 0x0 PUSH1 0x20 DUP3 ADD SWAP1 POP PUSH2 0xA0B PUSH1 0x0 DUP4 ADD DUP5 PUSH2 0x9E7 JUMP JUMPDEST SWAP3 SWAP2 POP POP JUMP JUMPDEST PUSH1 0x0 DUP2 SWAP1 POP SWAP2 SWAP1 POP JUMP JUMPDEST PUSH2 0xA24 DUP2 PUSH2 0xA11 JUMP JUMPDEST DUP2 EQ PUSH2 0xA2F JUMPI PUSH1 0x0 DUP1 REVERT JUMPDEST POP JUMP JUMPDEST PUSH1 0x0 DUP2 CALLDATALOAD SWAP1 POP PUSH2 0xA41 DUP2 PUSH2 0xA1B JUMP JUMPDEST SWAP3 SWAP2 POP POP JUMP JUMPDEST PUSH1 0x0 PUSH1 0x20 DUP3 DUP5 SUB SLT ISZERO PUSH2 0xA5D JUMPI PUSH2 0xA5C PUSH2 0x921 JUMP JUMPDEST JUMPDEST PUSH1 0x0 PUSH2 0xA6B DUP5 DUP3 DUP6 ADD PUSH2 0xA32 JUMP JUMPDEST SWAP2 POP POP SWAP3 SWAP2 POP POP JUMP JUMPDEST PUSH2 0xA7D DUP2 PUSH2 0xA11 JUMP JUMPDEST DUP3 MSTORE POP POP JUMP JUMPDEST PUSH1 0x0 PUSH1 0xA0 DUP3 ADD SWAP1 POP PUSH2 0xA98 PUSH1 0x0 DUP4 ADD DUP9 PUSH2 0xA74 JUMP JUMPDEST PUSH2 0xAA5 PUSH1 0x20 DUP4 ADD DUP8 PUSH2 0xA74 JUMP JUMPDEST PUSH2 0xAB2 PUSH1 0x40 DUP4 ADD DUP7 PUSH2 0xA74 JUMP JUMPDEST PUSH2 0xABF PUSH1 0x60 DUP4 ADD DUP6 PUSH2 0xA74 JUMP JUMPDEST PUSH2 0xACC PUSH1 0x80 DUP4 ADD DUP5 PUSH2 0xA74 JUMP JUMPDEST SWAP7 SWAP6 POP POP POP POP POP POP JUMP JUMPDEST PUSH1 0x0 PUSH1 0xE0 DUP3 ADD SWAP1 POP PUSH2 0xAEB PUSH1 0x0 DUP4 ADD DUP11 PUSH2 0xA74 JUMP JUMPDEST PUSH2 0xAF8 PUSH1 0x20 DUP4 ADD DUP10 PUSH2 0xA74 JUMP JUMPDEST PUSH2 0xB05 PUSH1 0x40 DUP4 ADD DUP9 PUSH2 0xA74 JUMP JUMPDEST PUSH2 0xB12 PUSH1 0x60 DUP4 ADD DUP8 PUSH2 0xA74 JUMP JUMPDEST PUSH2 0xB1F PUSH1 0x80 DUP4 ADD DUP7 PUSH2 0xA74 JUMP JUMPDEST PUSH2 0xB2C PUSH1 0xA0 DUP4 ADD DUP6 PUSH2 0xA74 JUMP JUMPDEST PUSH2 0xB39 PUSH1 0xC0 DUP4 ADD DUP5 PUSH2 0xA74 JUMP JUMPDEST SWAP9 SWAP8 POP POP POP POP POP POP POP POP JUMP JUMPDEST PUSH1 0x0 DUP1 PUSH1 0x0 DUP1 PUSH1 0x0 DUP1 PUSH1 0x0 PUSH1 0xE0 DUP9 DUP11 SUB SLT ISZERO PUSH2 0xB64 JUMPI PUSH2 0xB63 PUSH2 0x921 JUMP JUMPDEST JUMPDEST PUSH1 0x0 PUSH2 0xB72 DUP11 DUP3 DUP12 ADD PUSH2 0xA32 JUMP JUMPDEST SWAP8 POP POP PUSH1 0x20 PUSH2 0xB83 DUP11 DUP3 DUP12 ADD PUSH2 0xA32 JUMP JUMPDEST SWAP7 POP POP PUSH1 0x40 PUSH2 0xB94 DUP11 DUP3 DUP12 ADD PUSH2 0xA32 JUMP JUMPDEST SWAP6 POP POP PUSH1 0x60 PUSH2 0xBA5 DUP11 DUP3 DUP12 ADD PUSH2 0xA32 JUMP JUMPDEST SWAP5 POP POP PUSH1 0x80 PUSH2 0xBB6 DUP11 DUP3 DUP12 ADD PUSH2 0xA32 JUMP JUMPDEST SWAP4 POP POP PUSH1 0xA0 PUSH2 0xBC7 DUP11 DUP3 DUP12 ADD PUSH2 0xA32 JUMP JUMPDEST SWAP3 POP POP PUSH1 0xC0 PUSH2 0xBD8 DUP11 DUP3 DUP12 ADD PUSH2 0xA32 JUMP JUMPDEST SWAP2 POP POP SWAP3 SWAP6 SWAP9 SWAP2 SWAP5 SWAP8 POP SWAP3 SWAP6 POP JUMP JUMPDEST PUSH32 0x4E487B7100000000000000000000000000000000000000000000000000000000 PUSH1 0x0 MSTORE PUSH1 0x11 PUSH1 0x4 MSTORE PUSH1 0x24 PUSH1 0x0 REVERT JUMPDEST PUSH1 0x0 PUSH2 0xC21 DUP3 PUSH2 0xA11 JUMP JUMPDEST SWAP2 POP PUSH2 0xC2C DUP4 PUSH2 0xA11 JUMP JUMPDEST SWAP3 POP DUP3 DUP3 SUB SWAP1 POP DUP2 DUP2 GT ISZERO PUSH2 0xC44 JUMPI PUSH2 0xC43 PUSH2 0xBE7 JUMP JUMPDEST JUMPDEST SWAP3 SWAP2 POP POP JUMP JUMPDEST PUSH32 0x4E487B7100000000000000000000000000000000000000000000000000000000 PUSH1 0x0 MSTORE PUSH1 0x32 PUSH1 0x4 MSTORE PUSH1 0x24 PUSH1 0x0 REVERT JUMPDEST PUSH1 0x0 PUSH2 0xC84 DUP3 PUSH2 0xA11 JUMP JUMPDEST SWAP2 POP PUSH32 0xFFFFFFFFFFFFFFFFFFFFFFFFFFFFFFFFFFFFFFFFFFFFFFFFFFFFFFFFFFFFFFFF DUP3 SUB PUSH2 0xCB6 JUMPI PUSH2 0xCB5 PUSH2 0xBE7 JUMP JUMPDEST JUMPDEST PUSH1 0x1 DUP3 ADD SWAP1 POP SWAP2 SWAP1 POP JUMP INVALID LOG2 PUSH5 0x6970667358 0x22 SLT KECCAK256 0xAC LOG0 DUP12 0xB7 AND 0x28 DUP10 PUSH5 0x412471500A 0xA5 0xC2 SSTORE PUSH3 0x6C6E62 0xD2 DUP7 PUSH6 0x393FC705F440 DUP1 0xB8 0xD9 PUSH5 0x736F6C6343 STOP ADDMOD SLT STOP CALLER "
				},
				"gasEstimates": {
					"creation": {
						"codeDepositCost": "663800",
						"executionCost": "696",
						"totalCost": "664496"
					},
					"external": {
						"Chairman(uint256)": "5022",
						"addlow(uint256,uint256,uint256,uint256,uint256,uint256,uint256)": "infinite",
						"endOfVoting()": "infinite",
						"hasRepresentatives(uint256)": "infinite",
						"isrepresentatives(address)": "2823",
						"representatives()": "2514"
					}
				},
				"methodIdentifiers": {
					"Chairman(uint256)": "b3ef4aa4",
					"addlow(uint256,uint256,uint256,uint256,uint256,uint256,uint256)": "fa1ad70c",
					"endOfVoting()": "7e887332",
					"hasRepresentatives(uint256)": "74265c68",
					"isrepresentatives(address)": "109241e7",
					"representatives()": "396abc84"
				}
			},
			"storageLayout": {
				"storage": [
					{
						"astId": 25,
						"contract": "Assembly.sol:Newlaw",
						"label": "isrepresentatives",
						"offset": 0,
						"slot": "0",
						"type": "t_mapping(t_address,t_bool)"
					},
					{
						"astId": 27,
						"contract": "Assembly.sol:Newlaw",
						"label": "representatives",
						"offset": 0,
						"slot": "1",
						"type": "t_address"
					},
					{
						"astId": 30,
						"contract": "Assembly.sol:Newlaw",
						"label": "Chairman",
						"offset": 0,
						"slot": "2",
						"type": "t_array(t_address)dyn_storage"
					},
					{
						"astId": 49,
						"contract": "Assembly.sol:Newlaw",
						"label": "Laws",
						"offset": 0,
						"slot": "3",
						"type": "t_array(t_struct(newlaw)45_storage)dyn_storage"
					}
				],
				"types": {
					"t_address": {
						"encoding": "inplace",
						"label": "address",
						"numberOfBytes": "20"
					},
					"t_array(t_address)dyn_storage": {
						"base": "t_address",
						"encoding": "dynamic_array",
						"label": "address[]",
						"numberOfBytes": "32"
					},
					"t_array(t_struct(newlaw)45_storage)dyn_storage": {
						"base": "t_struct(newlaw)45_storage",
						"encoding": "dynamic_array",
						"label": "struct Newlaw.newlaw[]",
						"numberOfBytes": "32"
					},
					"t_bool": {
						"encoding": "inplace",
						"label": "bool",
						"numberOfBytes": "1"
					},
					"t_mapping(t_address,t_bool)": {
						"encoding": "mapping",
						"key": "t_address",
						"label": "mapping(address => bool)",
						"numberOfBytes": "32",
						"value": "t_bool"
					},
					"t_struct(newlaw)45_storage": {
						"encoding": "inplace",
						"label": "struct Newlaw.newlaw",
						"members": [
							{
								"astId": 32,
								"contract": "Assembly.sol:Newlaw",
								"label": "timestampstart",
								"offset": 0,
								"slot": "0",
								"type": "t_uint256"
							},
							{
								"astId": 34,
								"contract": "Assembly.sol:Newlaw",
								"label": "totalvotes",
								"offset": 0,
								"slot": "1",
								"type": "t_uint256"
							},
							{
								"astId": 36,
								"contract": "Assembly.sol:Newlaw",
								"label": "agree",
								"offset": 0,
								"slot": "2",
								"type": "t_uint256"
							},
							{
								"astId": 38,
								"contract": "Assembly.sol:Newlaw",
								"label": "Against",
								"offset": 0,
								"slot": "3",
								"type": "t_uint256"
							},
							{
								"astId": 40,
								"contract": "Assembly.sol:Newlaw",
								"label": "noidea",
								"offset": 0,
								"slot": "4",
								"type": "t_uint256"
							},
							{
								"astId": 42,
								"contract": "Assembly.sol:Newlaw",
								"label": "void",
								"offset": 0,
								"slot": "5",
								"type": "t_uint256"
							},
							{
								"astId": 44,
								"contract": "Assembly.sol:Newlaw",
								"label": "TimeStampEnd",
								"offset": 0,
								"slot": "6",
								"type": "t_uint256"
							}
						],
						"numberOfBytes": "224"
					},
					"t_uint256": {
						"encoding": "inplace",
						"label": "uint256",
						"numberOfBytes": "32"
					}
				}
			},
			"userdoc": {
				"kind": "user",
				"methods": {},
				"version": 1
			}
		}
	}
}