{
	"voting1.sol": {
		"voting": {
			"abi": [
				{
					"inputs": [
						{
							"internalType": "uint256",
							"name": "_ElectoralWard",
							"type": "uint256"
						},
						{
							"internalType": "uint256",
							"name": "_VotingSection",
							"type": "uint256"
						}
					],
					"stateMutability": "nonpayable",
					"type": "constructor"
				},
				{
					"anonymous": false,
					"inputs": [
						{
							"indexed": false,
							"internalType": "bytes",
							"name": "options",
							"type": "bytes"
						},
						{
							"indexed": false,
							"internalType": "uint256",
							"name": "voters",
							"type": "uint256"
						}
					],
					"name": "Voters",
					"type": "event"
				},
				{
					"inputs": [],
					"name": "BallotBoxAdress",
					"outputs": [
						{
							"internalType": "address",
							"name": "",
							"type": "address"
						}
					],
					"stateMutability": "view",
					"type": "function"
				},
				{
					"inputs": [],
					"name": "ElectoralWard",
					"outputs": [
						{
							"internalType": "uint256",
							"name": "",
							"type": "uint256"
						}
					],
					"stateMutability": "view",
					"type": "function"
				},
				{
					"inputs": [],
					"name": "EnableElectronicBallotBox",
					"outputs": [],
					"stateMutability": "nonpayable",
					"type": "function"
				},
				{
					"inputs": [],
					"name": "EnablePollWorker",
					"outputs": [],
					"stateMutability": "nonpayable",
					"type": "function"
				},
				{
					"inputs": [],
					"name": "FinishVoting",
					"outputs": [],
					"stateMutability": "nonpayable",
					"type": "function"
				},
				{
					"inputs": [],
					"name": "FirstPrinting",
					"outputs": [
						{
							"internalType": "uint256",
							"name": "zonal",
							"type": "uint256"
						},
						{
							"internalType": "uint256",
							"name": "votingSection",
							"type": "uint256"
						},
						{
							"internalType": "uint256",
							"name": "timeStampStart",
							"type": "uint256"
						},
						{
							"internalType": "uint256",
							"name": "_CandidateA",
							"type": "uint256"
						},
						{
							"internalType": "uint256",
							"name": "_CandidateB",
							"type": "uint256"
						},
						{
							"internalType": "uint256",
							"name": "_BlankVotes",
							"type": "uint256"
						},
						{
							"internalType": "uint256",
							"name": "_NullVotes",
							"type": "uint256"
						}
					],
					"stateMutability": "view",
					"type": "function"
				},
				{
					"inputs": [
						{
							"internalType": "uint256",
							"name": "_ElectorID",
							"type": "uint256"
						}
					],
					"name": "InsertElectorID",
					"outputs": [],
					"stateMutability": "nonpayable",
					"type": "function"
				},
				{
					"inputs": [],
					"name": "LastPrinting",
					"outputs": [
						{
							"internalType": "uint256",
							"name": "zonal",
							"type": "uint256"
						},
						{
							"internalType": "uint256",
							"name": "_VotingSection",
							"type": "uint256"
						},
						{
							"internalType": "uint256",
							"name": "_TimeStampEnd",
							"type": "uint256"
						},
						{
							"internalType": "uint256",
							"name": "_CandidateA",
							"type": "uint256"
						},
						{
							"internalType": "uint256",
							"name": "_CandidateB",
							"type": "uint256"
						},
						{
							"internalType": "uint256",
							"name": "_BlankVotes",
							"type": "uint256"
						},
						{
							"internalType": "uint256",
							"name": "_NullVotes",
							"type": "uint256"
						}
					],
					"stateMutability": "view",
					"type": "function"
				},
				{
					"inputs": [],
					"name": "RemoteControllAdress",
					"outputs": [
						{
							"internalType": "address",
							"name": "",
							"type": "address"
						}
					],
					"stateMutability": "view",
					"type": "function"
				},
				{
					"inputs": [],
					"name": "StartVoting",
					"outputs": [],
					"stateMutability": "nonpayable",
					"type": "function"
				},
				{
					"inputs": [
						{
							"internalType": "uint256",
							"name": "voto",
							"type": "uint256"
						}
					],
					"name": "ToVote",
					"outputs": [],
					"stateMutability": "nonpayable",
					"type": "function"
				},
				{
					"inputs": [],
					"name": "VotingSection",
					"outputs": [
						{
							"internalType": "uint256",
							"name": "",
							"type": "uint256"
						}
					],
					"stateMutability": "view",
					"type": "function"
				}
			],
			"devdoc": {
				"kind": "dev",
				"methods": {},
				"version": 1
			},
			"evm": {
				"assembly": "    /* \"voting1.sol\":62:6368  contract voting {... */\n  mstore(0x40, 0x80)\n    /* \"voting1.sol\":754:755  1 */\n  0x01\n    /* \"voting1.sol\":727:755  uint256 NumberCandidateA = 1 */\n  0x06\n  sstore\n    /* \"voting1.sol\":831:832  2 */\n  0x02\n    /* \"voting1.sol\":806:832  uint  NumberCandidateB = 2 */\n  0x07\n  sstore\n    /* \"voting1.sol\":973:974  0 */\n  0x00\n    /* \"voting1.sol\":956:974  uint CandidateA =0 */\n  0x09\n  sstore\n    /* \"voting1.sol\":1034:1035  0 */\n  0x00\n    /* \"voting1.sol\":1016:1035  uint CandidateB = 0 */\n  0x0a\n  sstore\n    /* \"voting1.sol\":1097:1098  0 */\n  0x00\n    /* \"voting1.sol\":1079:1098  uint BlankVotes = 0 */\n  0x0b\n  sstore\n    /* \"voting1.sol\":1159:1160  0 */\n  0x00\n    /* \"voting1.sol\":1142:1160  uint NullVotes = 0 */\n  0x0c\n  sstore\n    /* \"voting1.sol\":1227:1228  0 */\n  0x00\n    /* \"voting1.sol\":1207:1228  uint TimeStampEnd = 0 */\n  0x0d\n  sstore\n    /* \"voting1.sol\":1404:1409  false */\n  0x00\n    /* \"voting1.sol\":1374:1409  bool BallotBoxAddressEnable = false */\n  0x0e\n  exp(0x0100, 0x01)\n  dup2\n  sload\n  dup2\n  0xff\n  mul\n  not\n  and\n  swap1\n  dup4\n  iszero\n  iszero\n  mul\n  or\n  swap1\n  sstore\n  pop\n    /* \"voting1.sol\":2047:2266  constructor(uint _ElectoralWard, uint _VotingSection) public  { ... */\n  callvalue\n  dup1\n  iszero\n  tag_1\n  jumpi\n  0x00\n  dup1\n  revert\ntag_1:\n  pop\n  mload(0x40)\n  sub(codesize, bytecodeSize)\n  dup1\n  bytecodeSize\n  dup4\n  codecopy\n  dup2\n  dup2\n  add\n  0x40\n  mstore\n  dup2\n  add\n  swap1\n  tag_2\n  swap2\n  swap1\n  tag_3\n  jump\t// in\ntag_2:\n    /* \"voting1.sol\":2146:2160  _ElectoralWard */\n  dup2\n    /* \"voting1.sol\":2130:2143  ElectoralWard */\n  0x03\n    /* \"voting1.sol\":2130:2160  ElectoralWard = _ElectoralWard */\n  dup2\n  swap1\n  sstore\n  pop\n    /* \"voting1.sol\":2196:2210  _VotingSection */\n  dup1\n    /* \"voting1.sol\":2180:2193  VotingSection */\n  0x04\n    /* \"voting1.sol\":2180:2210  VotingSection = _VotingSection */\n  dup2\n  swap1\n  sstore\n  pop\n    /* \"voting1.sol\":2248:2258  msg.sender */\n  caller\n    /* \"voting1.sol\":2230:2245  BallotBoxAdress */\n  0x00\n  dup1\n    /* \"voting1.sol\":2230:2258  BallotBoxAdress = msg.sender */\n  0x0100\n  exp\n  dup2\n  sload\n  dup2\n  0xffffffffffffffffffffffffffffffffffffffff\n  mul\n  not\n  and\n  swap1\n  dup4\n  0xffffffffffffffffffffffffffffffffffffffff\n  and\n  mul\n  or\n  swap1\n  sstore\n  pop\n    /* \"voting1.sol\":2047:2266  constructor(uint _ElectoralWard, uint _VotingSection) public  { ... */\n  pop\n  pop\n    /* \"voting1.sol\":62:6368  contract voting {... */\n  jump(tag_6)\n    /* \"#utility.yul\":88:205   */\ntag_8:\n    /* \"#utility.yul\":197:198   */\n  0x00\n    /* \"#utility.yul\":194:195   */\n  dup1\n    /* \"#utility.yul\":187:199   */\n  revert\n    /* \"#utility.yul\":334:411   */\ntag_10:\n    /* \"#utility.yul\":371:378   */\n  0x00\n    /* \"#utility.yul\":400:405   */\n  dup2\n    /* \"#utility.yul\":389:405   */\n  swap1\n  pop\n    /* \"#utility.yul\":334:411   */\n  swap2\n  swap1\n  pop\n  jump\t// out\n    /* \"#utility.yul\":417:539   */\ntag_11:\n    /* \"#utility.yul\":490:514   */\n  tag_19\n    /* \"#utility.yul\":508:513   */\n  dup2\n    /* \"#utility.yul\":490:514   */\n  tag_10\n  jump\t// in\ntag_19:\n    /* \"#utility.yul\":483:488   */\n  dup2\n    /* \"#utility.yul\":480:515   */\n  eq\n    /* \"#utility.yul\":470:533   */\n  tag_20\n  jumpi\n    /* \"#utility.yul\":529:530   */\n  0x00\n    /* \"#utility.yul\":526:527   */\n  dup1\n    /* \"#utility.yul\":519:531   */\n  revert\n    /* \"#utility.yul\":470:533   */\ntag_20:\n    /* \"#utility.yul\":417:539   */\n  pop\n  jump\t// out\n    /* \"#utility.yul\":545:688   */\ntag_12:\n    /* \"#utility.yul\":602:607   */\n  0x00\n    /* \"#utility.yul\":633:639   */\n  dup2\n    /* \"#utility.yul\":627:640   */\n  mload\n    /* \"#utility.yul\":618:640   */\n  swap1\n  pop\n    /* \"#utility.yul\":649:682   */\n  tag_22\n    /* \"#utility.yul\":676:681   */\n  dup2\n    /* \"#utility.yul\":649:682   */\n  tag_11\n  jump\t// in\ntag_22:\n    /* \"#utility.yul\":545:688   */\n  swap3\n  swap2\n  pop\n  pop\n  jump\t// out\n    /* \"#utility.yul\":694:1201   */\ntag_3:\n    /* \"#utility.yul\":773:779   */\n  0x00\n    /* \"#utility.yul\":781:787   */\n  dup1\n    /* \"#utility.yul\":830:832   */\n  0x40\n    /* \"#utility.yul\":818:827   */\n  dup4\n    /* \"#utility.yul\":809:816   */\n  dup6\n    /* \"#utility.yul\":805:828   */\n  sub\n    /* \"#utility.yul\":801:833   */\n  slt\n    /* \"#utility.yul\":798:917   */\n  iszero\n  tag_24\n  jumpi\n    /* \"#utility.yul\":836:915   */\n  tag_25\n  tag_8\n  jump\t// in\ntag_25:\n    /* \"#utility.yul\":798:917   */\ntag_24:\n    /* \"#utility.yul\":956:957   */\n  0x00\n    /* \"#utility.yul\":981:1045   */\n  tag_26\n    /* \"#utility.yul\":1037:1044   */\n  dup6\n    /* \"#utility.yul\":1028:1034   */\n  dup3\n    /* \"#utility.yul\":1017:1026   */\n  dup7\n    /* \"#utility.yul\":1013:1035   */\n  add\n    /* \"#utility.yul\":981:1045   */\n  tag_12\n  jump\t// in\ntag_26:\n    /* \"#utility.yul\":971:1045   */\n  swap3\n  pop\n    /* \"#utility.yul\":927:1055   */\n  pop\n    /* \"#utility.yul\":1094:1096   */\n  0x20\n    /* \"#utility.yul\":1120:1184   */\n  tag_27\n    /* \"#utility.yul\":1176:1183   */\n  dup6\n    /* \"#utility.yul\":1167:1173   */\n  dup3\n    /* \"#utility.yul\":1156:1165   */\n  dup7\n    /* \"#utility.yul\":1152:1174   */\n  add\n    /* \"#utility.yul\":1120:1184   */\n  tag_12\n  jump\t// in\ntag_27:\n    /* \"#utility.yul\":1110:1184   */\n  swap2\n  pop\n    /* \"#utility.yul\":1065:1194   */\n  pop\n    /* \"#utility.yul\":694:1201   */\n  swap3\n  pop\n  swap3\n  swap1\n  pop\n  jump\t// out\n    /* \"voting1.sol\":62:6368  contract voting {... */\ntag_6:\n  dataSize(sub_0)\n  dup1\n  dataOffset(sub_0)\n  0x00\n  codecopy\n  0x00\n  return\nstop\n\nsub_0: assembly {\n        /* \"voting1.sol\":62:6368  contract voting {... */\n      mstore(0x40, 0x80)\n      callvalue\n      dup1\n      iszero\n      tag_1\n      jumpi\n      0x00\n      dup1\n      revert\n    tag_1:\n      pop\n      jumpi(tag_2, lt(calldatasize, 0x04))\n      shr(0xe0, calldataload(0x00))\n      dup1\n      0xbecdd940\n      gt\n      tag_15\n      jumpi\n      dup1\n      0xbecdd940\n      eq\n      tag_9\n      jumpi\n      dup1\n      0xc61cbab2\n      eq\n      tag_10\n      jumpi\n      dup1\n      0xc8aa31ef\n      eq\n      tag_11\n      jumpi\n      dup1\n      0xda042975\n      eq\n      tag_12\n      jumpi\n      dup1\n      0xde887192\n      eq\n      tag_13\n      jumpi\n      dup1\n      0xfb47c7df\n      eq\n      tag_14\n      jumpi\n      jump(tag_2)\n    tag_15:\n      dup1\n      0x0348abb1\n      eq\n      tag_3\n      jumpi\n      dup1\n      0x0d7c1b83\n      eq\n      tag_4\n      jumpi\n      dup1\n      0x6d8d6621\n      eq\n      tag_5\n      jumpi\n      dup1\n      0x7708bda6\n      eq\n      tag_6\n      jumpi\n      dup1\n      0x7a99c0a6\n      eq\n      tag_7\n      jumpi\n      dup1\n      0x89cff098\n      eq\n      tag_8\n      jumpi\n    tag_2:\n      0x00\n      dup1\n      revert\n        /* \"voting1.sol\":4546:4885  function InsertElectorID(uint _ElectorID) public verification2 {... */\n    tag_3:\n      tag_16\n      0x04\n      dup1\n      calldatasize\n      sub\n      dup2\n      add\n      swap1\n      tag_17\n      swap2\n      swap1\n      tag_18\n      jump\t// in\n    tag_17:\n      tag_19\n      jump\t// in\n    tag_16:\n      stop\n        /* \"voting1.sol\":6000:6365  function LastPrinting() public view verification1() returns(uint zonal, uint _VotingSection, uint _TimeStampEnd, uint _CandidateA, uint _CandidateB, uint _BlankVotes, uint _NullVotes){ // retorna o resultado da votação naquela BallotBoxAdress... */\n    tag_4:\n      tag_20\n      tag_21\n      jump\t// in\n    tag_20:\n      mload(0x40)\n      tag_22\n      swap8\n      swap7\n      swap6\n      swap5\n      swap4\n      swap3\n      swap2\n      swap1\n      tag_23\n      jump\t// in\n    tag_22:\n      mload(0x40)\n      dup1\n      swap2\n      sub\n      swap1\n      return\n        /* \"voting1.sol\":4397:4483  function EnablePollWorker()public{... */\n    tag_5:\n      tag_24\n      tag_25\n      jump\t// in\n    tag_24:\n      stop\n        /* \"voting1.sol\":256:286  address public BallotBoxAdress */\n    tag_6:\n      tag_26\n      tag_27\n      jump\t// in\n    tag_26:\n      mload(0x40)\n      tag_28\n      swap2\n      swap1\n      tag_29\n      jump\t// in\n    tag_28:\n      mload(0x40)\n      dup1\n      swap2\n      sub\n      swap1\n      return\n        /* \"voting1.sol\":3811:3915  function StartVoting() public verification1(){ ... */\n    tag_7:\n      tag_30\n      tag_31\n      jump\t// in\n    tag_30:\n      stop\n        /* \"voting1.sol\":351:386  address public RemoteControllAdress */\n    tag_8:\n      tag_32\n      tag_33\n      jump\t// in\n    tag_32:\n      mload(0x40)\n      tag_34\n      swap2\n      swap1\n      tag_29\n      jump\t// in\n    tag_34:\n      mload(0x40)\n      dup1\n      swap2\n      sub\n      swap1\n      return\n        /* \"voting1.sol\":584:609  uint public VotingSection */\n    tag_9:\n      tag_35\n      tag_36\n      jump\t// in\n    tag_35:\n      mload(0x40)\n      tag_37\n      swap2\n      swap1\n      tag_38\n      jump\t// in\n    tag_37:\n      mload(0x40)\n      dup1\n      swap2\n      sub\n      swap1\n      return\n        /* \"voting1.sol\":4981:5089  function EnableElectronicBallotBox() public verification4(){... */\n    tag_10:\n      tag_39\n      tag_40\n      jump\t// in\n    tag_39:\n      stop\n        /* \"voting1.sol\":510:535  uint public ElectoralWard */\n    tag_11:\n      tag_41\n      tag_42\n      jump\t// in\n    tag_41:\n      mload(0x40)\n      tag_43\n      swap2\n      swap1\n      tag_38\n      jump\t// in\n    tag_43:\n      mload(0x40)\n      dup1\n      swap2\n      sub\n      swap1\n      return\n        /* \"voting1.sol\":4014:4312  function FirstPrinting() public view verification1() returns(uint zonal, uint votingSection, uint timeStampStart, uint _CandidateA, uint _CandidateB, uint _BlankVotes, uint _NullVotes){... */\n    tag_12:\n      tag_44\n      tag_45\n      jump\t// in\n    tag_44:\n      mload(0x40)\n      tag_46\n      swap8\n      swap7\n      swap6\n      swap5\n      swap4\n      swap3\n      swap2\n      swap1\n      tag_23\n      jump\t// in\n    tag_46:\n      mload(0x40)\n      dup1\n      swap2\n      sub\n      swap1\n      return\n        /* \"voting1.sol\":5167:5690  function ToVote(uint voto) public verification3(BallotBoxAddressEnable){... */\n    tag_13:\n      tag_47\n      0x04\n      dup1\n      calldatasize\n      sub\n      dup2\n      add\n      swap1\n      tag_48\n      swap2\n      swap1\n      tag_18\n      jump\t// in\n    tag_48:\n      tag_49\n      jump\t// in\n    tag_47:\n      stop\n        /* \"voting1.sol\":5765:5903  function FinishVoting() public verification1(){... */\n    tag_14:\n      tag_50\n      tag_51\n      jump\t// in\n    tag_50:\n      stop\n        /* \"voting1.sol\":4546:4885  function InsertElectorID(uint _ElectorID) public verification2 {... */\n    tag_19:\n        /* \"voting1.sol\":2706:2726  RemoteControllAdress */\n      0x01\n      0x00\n      swap1\n      sload\n      swap1\n      0x0100\n      exp\n      swap1\n      div\n      0xffffffffffffffffffffffffffffffffffffffff\n      and\n        /* \"voting1.sol\":2692:2726  msg.sender == RemoteControllAdress */\n      0xffffffffffffffffffffffffffffffffffffffff\n      and\n        /* \"voting1.sol\":2692:2702  msg.sender */\n      caller\n        /* \"voting1.sol\":2692:2726  msg.sender == RemoteControllAdress */\n      0xffffffffffffffffffffffffffffffffffffffff\n      and\n      eq\n        /* \"voting1.sol\":2684:2781  require(msg.sender == RemoteControllAdress, \"This command need come from the poll worker Adress\") */\n      tag_53\n      jumpi\n      mload(0x40)\n      0x08c379a000000000000000000000000000000000000000000000000000000000\n      dup2\n      mstore\n      0x04\n      add\n      tag_54\n      swap1\n      tag_55\n      jump\t// in\n    tag_54:\n      mload(0x40)\n      dup1\n      swap2\n      sub\n      swap1\n      revert\n    tag_53:\n        /* \"voting1.sol\":4633:4639  uint i */\n      0x00\n        /* \"voting1.sol\":4629:4787  for(uint i=0; i < ElectorIDs.length; i++){ ... */\n    tag_57:\n        /* \"voting1.sol\":4647:4657  ElectorIDs */\n      0x02\n        /* \"voting1.sol\":4647:4664  ElectorIDs.length */\n      dup1\n      sload\n      swap1\n      pop\n        /* \"voting1.sol\":4643:4644  i */\n      dup2\n        /* \"voting1.sol\":4643:4664  i < ElectorIDs.length */\n      lt\n        /* \"voting1.sol\":4629:4787  for(uint i=0; i < ElectorIDs.length; i++){ ... */\n      iszero\n      tag_58\n      jumpi\n        /* \"voting1.sol\":4703:4713  ElectorIDs */\n      0x02\n        /* \"voting1.sol\":4714:4715  i */\n      dup2\n        /* \"voting1.sol\":4703:4716  ElectorIDs[i] */\n      dup2\n      sload\n      dup2\n      lt\n      tag_60\n      jumpi\n      tag_61\n      tag_62\n      jump\t// in\n    tag_61:\n    tag_60:\n      swap1\n      0x00\n      mstore\n      keccak256(0x00, 0x20)\n      add\n      sload\n        /* \"voting1.sol\":4689:4699  _ElectorID */\n      dup3\n        /* \"voting1.sol\":4689:4716  _ElectorID == ElectorIDs[i] */\n      sub\n        /* \"voting1.sol\":4686:4776  if(_ElectorID == ElectorIDs[i]){ ... */\n      tag_64\n      jumpi\n        /* \"voting1.sol\":4756:4760  true */\n      0x01\n        /* \"voting1.sol\":4741:4753  AlreadyVoted */\n      0x0e\n      0x00\n        /* \"voting1.sol\":4741:4760  AlreadyVoted = true */\n      0x0100\n      exp\n      dup2\n      sload\n      dup2\n      0xff\n      mul\n      not\n      and\n      swap1\n      dup4\n      iszero\n      iszero\n      mul\n      or\n      swap1\n      sstore\n      pop\n        /* \"voting1.sol\":4686:4776  if(_ElectorID == ElectorIDs[i]){ ... */\n    tag_64:\n        /* \"voting1.sol\":4666:4669  i++ */\n      dup1\n      dup1\n      tag_65\n      swap1\n      tag_66\n      jump\t// in\n    tag_65:\n      swap2\n      pop\n      pop\n        /* \"voting1.sol\":4629:4787  for(uint i=0; i < ElectorIDs.length; i++){ ... */\n      jump(tag_57)\n    tag_58:\n      pop\n        /* \"voting1.sol\":4816:4821  false */\n      0x00\n        /* \"voting1.sol\":4800:4821  AlreadyVoted == false */\n      iszero\n      iszero\n        /* \"voting1.sol\":4800:4812  AlreadyVoted */\n      0x0e\n      0x00\n      swap1\n      sload\n      swap1\n      0x0100\n      exp\n      swap1\n      div\n      0xff\n      and\n        /* \"voting1.sol\":4800:4821  AlreadyVoted == false */\n      iszero\n      iszero\n      sub\n        /* \"voting1.sol\":4797:4878  if(AlreadyVoted == false){ ... */\n      tag_67\n      jumpi\n        /* \"voting1.sol\":4838:4848  ElectorIDs */\n      0x02\n        /* \"voting1.sol\":4854:4864  _ElectorID */\n      dup2\n        /* \"voting1.sol\":4838:4865  ElectorIDs.push(_ElectorID) */\n      swap1\n      dup1\n      0x01\n      dup2\n      sload\n      add\n      dup1\n      dup3\n      sstore\n      dup1\n      swap2\n      pop\n      pop\n      0x01\n      swap1\n      sub\n      swap1\n      0x00\n      mstore\n      keccak256(0x00, 0x20)\n      add\n      0x00\n      swap1\n      swap2\n      swap1\n      swap2\n      swap1\n      swap2\n      pop\n      sstore\n        /* \"voting1.sol\":4797:4878  if(AlreadyVoted == false){ ... */\n    tag_67:\n        /* \"voting1.sol\":4546:4885  function InsertElectorID(uint _ElectorID) public verification2 {... */\n      pop\n      jump\t// out\n        /* \"voting1.sol\":6000:6365  function LastPrinting() public view verification1() returns(uint zonal, uint _VotingSection, uint _TimeStampEnd, uint _CandidateA, uint _CandidateB, uint _BlankVotes, uint _NullVotes){ // retorna o resultado da votação naquela BallotBoxAdress... */\n    tag_21:\n        /* \"voting1.sol\":6060:6070  uint zonal */\n      0x00\n        /* \"voting1.sol\":6072:6091  uint _VotingSection */\n      dup1\n        /* \"voting1.sol\":6093:6111  uint _TimeStampEnd */\n      0x00\n        /* \"voting1.sol\":6113:6129  uint _CandidateA */\n      dup1\n        /* \"voting1.sol\":6131:6147  uint _CandidateB */\n      0x00\n        /* \"voting1.sol\":6149:6165  uint _BlankVotes */\n      dup1\n        /* \"voting1.sol\":6167:6182  uint _NullVotes */\n      0x00\n        /* \"voting1.sol\":2414:2429  BallotBoxAdress */\n      dup1\n      0x00\n      swap1\n      sload\n      swap1\n      0x0100\n      exp\n      swap1\n      div\n      0xffffffffffffffffffffffffffffffffffffffff\n      and\n        /* \"voting1.sol\":2400:2429  msg.sender == BallotBoxAdress */\n      0xffffffffffffffffffffffffffffffffffffffff\n      and\n        /* \"voting1.sol\":2400:2410  msg.sender */\n      caller\n        /* \"voting1.sol\":2400:2429  msg.sender == BallotBoxAdress */\n      0xffffffffffffffffffffffffffffffffffffffff\n      and\n      eq\n        /* \"voting1.sol\":2392:2494  require(msg.sender == BallotBoxAdress, \"This command need come from the electronic Ballot Box Adress\") */\n      tag_70\n      jumpi\n      mload(0x40)\n      0x08c379a000000000000000000000000000000000000000000000000000000000\n      dup2\n      mstore\n      0x04\n      add\n      tag_71\n      swap1\n      tag_72\n      jump\t// in\n    tag_71:\n      mload(0x40)\n      dup1\n      swap2\n      sub\n      swap1\n      revert\n    tag_70:\n        /* \"voting1.sol\":6266:6279  ElectoralWard */\n      sload(0x03)\n        /* \"voting1.sol\":6280:6293  VotingSection */\n      sload(0x04)\n        /* \"voting1.sol\":6295:6309  TimeStampStart */\n      sload(0x05)\n        /* \"voting1.sol\":6311:6321  CandidateA */\n      sload(0x09)\n        /* \"voting1.sol\":6323:6333  CandidateB */\n      sload(0x0a)\n        /* \"voting1.sol\":6335:6345  BlankVotes */\n      sload(0x0b)\n        /* \"voting1.sol\":6347:6356  NullVotes */\n      sload(0x0c)\n        /* \"voting1.sol\":6258:6357  return( ElectoralWard,VotingSection, TimeStampStart, CandidateA, CandidateB, BlankVotes, NullVotes) */\n      swap7\n      pop\n      swap7\n      pop\n      swap7\n      pop\n      swap7\n      pop\n      swap7\n      pop\n      swap7\n      pop\n      swap7\n      pop\n        /* \"voting1.sol\":6000:6365  function LastPrinting() public view verification1() returns(uint zonal, uint _VotingSection, uint _TimeStampEnd, uint _CandidateA, uint _CandidateB, uint _BlankVotes, uint _NullVotes){ // retorna o resultado da votação naquela BallotBoxAdress... */\n      swap1\n      swap2\n      swap3\n      swap4\n      swap5\n      swap6\n      swap7\n      jump\t// out\n        /* \"voting1.sol\":4397:4483  function EnablePollWorker()public{... */\n    tag_25:\n        /* \"voting1.sol\":4464:4474  msg.sender */\n      caller\n        /* \"voting1.sol\":4441:4461  RemoteControllAdress */\n      0x01\n      0x00\n        /* \"voting1.sol\":4441:4474  RemoteControllAdress = msg.sender */\n      0x0100\n      exp\n      dup2\n      sload\n      dup2\n      0xffffffffffffffffffffffffffffffffffffffff\n      mul\n      not\n      and\n      swap1\n      dup4\n      0xffffffffffffffffffffffffffffffffffffffff\n      and\n      mul\n      or\n      swap1\n      sstore\n      pop\n        /* \"voting1.sol\":4397:4483  function EnablePollWorker()public{... */\n      jump\t// out\n        /* \"voting1.sol\":256:286  address public BallotBoxAdress */\n    tag_27:\n      0x00\n      dup1\n      sload\n      swap1\n      0x0100\n      exp\n      swap1\n      div\n      0xffffffffffffffffffffffffffffffffffffffff\n      and\n      dup2\n      jump\t// out\n        /* \"voting1.sol\":3811:3915  function StartVoting() public verification1(){ ... */\n    tag_31:\n        /* \"voting1.sol\":2414:2429  BallotBoxAdress */\n      0x00\n      dup1\n      sload\n      swap1\n      0x0100\n      exp\n      swap1\n      div\n      0xffffffffffffffffffffffffffffffffffffffff\n      and\n        /* \"voting1.sol\":2400:2429  msg.sender == BallotBoxAdress */\n      0xffffffffffffffffffffffffffffffffffffffff\n      and\n        /* \"voting1.sol\":2400:2410  msg.sender */\n      caller\n        /* \"voting1.sol\":2400:2429  msg.sender == BallotBoxAdress */\n      0xffffffffffffffffffffffffffffffffffffffff\n      and\n      eq\n        /* \"voting1.sol\":2392:2494  require(msg.sender == BallotBoxAdress, \"This command need come from the electronic Ballot Box Adress\") */\n      tag_76\n      jumpi\n      mload(0x40)\n      0x08c379a000000000000000000000000000000000000000000000000000000000\n      dup2\n      mstore\n      0x04\n      add\n      tag_77\n      swap1\n      tag_72\n      jump\t// in\n    tag_77:\n      mload(0x40)\n      dup1\n      swap2\n      sub\n      swap1\n      revert\n    tag_76:\n        /* \"voting1.sol\":3891:3906  block.timestamp */\n      timestamp\n        /* \"voting1.sol\":3874:3888  TimeStampStart */\n      0x05\n        /* \"voting1.sol\":3874:3906  TimeStampStart = block.timestamp */\n      dup2\n      swap1\n      sstore\n      pop\n        /* \"voting1.sol\":3811:3915  function StartVoting() public verification1(){ ... */\n      jump\t// out\n        /* \"voting1.sol\":351:386  address public RemoteControllAdress */\n    tag_33:\n      0x01\n      0x00\n      swap1\n      sload\n      swap1\n      0x0100\n      exp\n      swap1\n      div\n      0xffffffffffffffffffffffffffffffffffffffff\n      and\n      dup2\n      jump\t// out\n        /* \"voting1.sol\":584:609  uint public VotingSection */\n    tag_36:\n      sload(0x04)\n      dup2\n      jump\t// out\n        /* \"voting1.sol\":4981:5089  function EnableElectronicBallotBox() public verification4(){... */\n    tag_40:\n        /* \"voting1.sol\":3525:3545  RemoteControllAdress */\n      0x01\n      0x00\n      swap1\n      sload\n      swap1\n      0x0100\n      exp\n      swap1\n      div\n      0xffffffffffffffffffffffffffffffffffffffff\n      and\n        /* \"voting1.sol\":3511:3545  msg.sender == RemoteControllAdress */\n      0xffffffffffffffffffffffffffffffffffffffff\n      and\n        /* \"voting1.sol\":3511:3521  msg.sender */\n      caller\n        /* \"voting1.sol\":3511:3545  msg.sender == RemoteControllAdress */\n      0xffffffffffffffffffffffffffffffffffffffff\n      and\n      eq\n        /* \"voting1.sol\":3503:3600  require(msg.sender == RemoteControllAdress, \"This command need come from the poll worker Adress\") */\n      tag_80\n      jumpi\n      mload(0x40)\n      0x08c379a000000000000000000000000000000000000000000000000000000000\n      dup2\n      mstore\n      0x04\n      add\n      tag_81\n      swap1\n      tag_55\n      jump\t// in\n    tag_81:\n      mload(0x40)\n      dup1\n      swap2\n      sub\n      swap1\n      revert\n    tag_80:\n        /* \"voting1.sol\":5076:5080  true */\n      0x01\n        /* \"voting1.sol\":5051:5073  BallotBoxAddressEnable */\n      0x0e\n      0x01\n        /* \"voting1.sol\":5051:5080  BallotBoxAddressEnable = true */\n      0x0100\n      exp\n      dup2\n      sload\n      dup2\n      0xff\n      mul\n      not\n      and\n      swap1\n      dup4\n      iszero\n      iszero\n      mul\n      or\n      swap1\n      sstore\n      pop\n        /* \"voting1.sol\":3647:3652  false */\n      0x00\n        /* \"voting1.sol\":3631:3652  AlreadyVoted == false */\n      iszero\n      iszero\n        /* \"voting1.sol\":3631:3643  AlreadyVoted */\n      0x0e\n      0x00\n      swap1\n      sload\n      swap1\n      0x0100\n      exp\n      swap1\n      div\n      0xff\n      and\n        /* \"voting1.sol\":3631:3652  AlreadyVoted == false */\n      iszero\n      iszero\n      eq\n        /* \"voting1.sol\":3623:3729  require(AlreadyVoted == false, \"The electronic ballot box is disable, because this elector already voted\") */\n      tag_83\n      jumpi\n      mload(0x40)\n      0x08c379a000000000000000000000000000000000000000000000000000000000\n      dup2\n      mstore\n      0x04\n      add\n      tag_84\n      swap1\n      tag_85\n      jump\t// in\n    tag_84:\n      mload(0x40)\n      dup1\n      swap2\n      sub\n      swap1\n      revert\n    tag_83:\n        /* \"voting1.sol\":5076:5080  true */\n      0x01\n        /* \"voting1.sol\":5051:5073  BallotBoxAddressEnable */\n      0x0e\n      0x01\n        /* \"voting1.sol\":5051:5080  BallotBoxAddressEnable = true */\n      0x0100\n      exp\n      dup2\n      sload\n      dup2\n      0xff\n      mul\n      not\n      and\n      swap1\n      dup4\n      iszero\n      iszero\n      mul\n      or\n      swap1\n      sstore\n      pop\n        /* \"voting1.sol\":4981:5089  function EnableElectronicBallotBox() public verification4(){... */\n      jump\t// out\n        /* \"voting1.sol\":510:535  uint public ElectoralWard */\n    tag_42:\n      sload(0x03)\n      dup2\n      jump\t// out\n        /* \"voting1.sol\":4014:4312  function FirstPrinting() public view verification1() returns(uint zonal, uint votingSection, uint timeStampStart, uint _CandidateA, uint _CandidateB, uint _BlankVotes, uint _NullVotes){... */\n    tag_45:\n        /* \"voting1.sol\":4075:4085  uint zonal */\n      0x00\n        /* \"voting1.sol\":4087:4105  uint votingSection */\n      dup1\n        /* \"voting1.sol\":4107:4126  uint timeStampStart */\n      0x00\n        /* \"voting1.sol\":4128:4144  uint _CandidateA */\n      dup1\n        /* \"voting1.sol\":4146:4162  uint _CandidateB */\n      0x00\n        /* \"voting1.sol\":4164:4180  uint _BlankVotes */\n      dup1\n        /* \"voting1.sol\":4182:4197  uint _NullVotes */\n      0x00\n        /* \"voting1.sol\":2414:2429  BallotBoxAdress */\n      dup1\n      0x00\n      swap1\n      sload\n      swap1\n      0x0100\n      exp\n      swap1\n      div\n      0xffffffffffffffffffffffffffffffffffffffff\n      and\n        /* \"voting1.sol\":2400:2429  msg.sender == BallotBoxAdress */\n      0xffffffffffffffffffffffffffffffffffffffff\n      and\n        /* \"voting1.sol\":2400:2410  msg.sender */\n      caller\n        /* \"voting1.sol\":2400:2429  msg.sender == BallotBoxAdress */\n      0xffffffffffffffffffffffffffffffffffffffff\n      and\n      eq\n        /* \"voting1.sol\":2392:2494  require(msg.sender == BallotBoxAdress, \"This command need come from the electronic Ballot Box Adress\") */\n      tag_88\n      jumpi\n      mload(0x40)\n      0x08c379a000000000000000000000000000000000000000000000000000000000\n      dup2\n      mstore\n      0x04\n      add\n      tag_89\n      swap1\n      tag_72\n      jump\t// in\n    tag_89:\n      mload(0x40)\n      dup1\n      swap2\n      sub\n      swap1\n      revert\n    tag_88:\n        /* \"voting1.sol\":4216:4229  ElectoralWard */\n      sload(0x03)\n        /* \"voting1.sol\":4230:4243  VotingSection */\n      sload(0x04)\n        /* \"voting1.sol\":4245:4259  TimeStampStart */\n      sload(0x05)\n        /* \"voting1.sol\":4261:4271  CandidateA */\n      sload(0x09)\n        /* \"voting1.sol\":4272:4282  CandidateB */\n      sload(0x0a)\n        /* \"voting1.sol\":4283:4293  BlankVotes */\n      sload(0x0b)\n        /* \"voting1.sol\":4294:4303  NullVotes */\n      sload(0x0c)\n        /* \"voting1.sol\":4208:4304  return( ElectoralWard,VotingSection, TimeStampStart, CandidateA,CandidateB,BlankVotes,NullVotes) */\n      swap7\n      pop\n      swap7\n      pop\n      swap7\n      pop\n      swap7\n      pop\n      swap7\n      pop\n      swap7\n      pop\n      swap7\n      pop\n        /* \"voting1.sol\":4014:4312  function FirstPrinting() public view verification1() returns(uint zonal, uint votingSection, uint timeStampStart, uint _CandidateA, uint _CandidateB, uint _BlankVotes, uint _NullVotes){... */\n      swap1\n      swap2\n      swap3\n      swap4\n      swap5\n      swap6\n      swap7\n      jump\t// out\n        /* \"voting1.sol\":5167:5690  function ToVote(uint voto) public verification3(BallotBoxAddressEnable){... */\n    tag_49:\n        /* \"voting1.sol\":5215:5237  BallotBoxAddressEnable */\n      0x0e\n      0x01\n      swap1\n      sload\n      swap1\n      0x0100\n      exp\n      swap1\n      div\n      0xff\n      and\n        /* \"voting1.sol\":3055:3070  BallotBoxAdress */\n      0x00\n      dup1\n      sload\n      swap1\n      0x0100\n      exp\n      swap1\n      div\n      0xffffffffffffffffffffffffffffffffffffffff\n      and\n        /* \"voting1.sol\":3041:3070  msg.sender == BallotBoxAdress */\n      0xffffffffffffffffffffffffffffffffffffffff\n      and\n        /* \"voting1.sol\":3041:3051  msg.sender */\n      caller\n        /* \"voting1.sol\":3041:3070  msg.sender == BallotBoxAdress */\n      0xffffffffffffffffffffffffffffffffffffffff\n      and\n      eq\n        /* \"voting1.sol\":3033:3135  require(msg.sender == BallotBoxAdress, \"This command need come from the electronic Ballot Box Adress\") */\n      tag_92\n      jumpi\n      mload(0x40)\n      0x08c379a000000000000000000000000000000000000000000000000000000000\n      dup2\n      mstore\n      0x04\n      add\n      tag_93\n      swap1\n      tag_72\n      jump\t// in\n    tag_93:\n      mload(0x40)\n      dup1\n      swap2\n      sub\n      swap1\n      revert\n    tag_92:\n        /* \"voting1.sol\":5278:5282  true */\n      0x01\n        /* \"voting1.sol\":5252:5282  BallotBoxAddressEnable == true */\n      iszero\n      iszero\n        /* \"voting1.sol\":5252:5274  BallotBoxAddressEnable */\n      0x0e\n      0x01\n      swap1\n      sload\n      swap1\n      0x0100\n      exp\n      swap1\n      div\n      0xff\n      and\n        /* \"voting1.sol\":5252:5282  BallotBoxAddressEnable == true */\n      iszero\n      iszero\n      sub\n        /* \"voting1.sol\":5249:5640  if(BallotBoxAddressEnable == true){ ... */\n      tag_95\n      jumpi\n        /* \"voting1.sol\":5310:5326  NumberCandidateA */\n      sload(0x06)\n        /* \"voting1.sol\":5302:5306  voto */\n      dup3\n        /* \"voting1.sol\":5302:5326  voto == NumberCandidateA */\n      sub\n        /* \"voting1.sol\":5299:5629  if(voto == NumberCandidateA){... */\n      tag_96\n      jumpi\n        /* \"voting1.sol\":5346:5356  CandidateA */\n      0x09\n      0x00\n        /* \"voting1.sol\":5346:5358  CandidateA++ */\n      dup2\n      sload\n      dup1\n      swap3\n      swap2\n      swap1\n      tag_97\n      swap1\n      tag_66\n      jump\t// in\n    tag_97:\n      swap2\n      swap1\n      pop\n      sstore\n      pop\n        /* \"voting1.sol\":5299:5629  if(voto == NumberCandidateA){... */\n      jump(tag_98)\n    tag_96:\n        /* \"voting1.sol\":5405:5421  NumberCandidateB */\n      sload(0x07)\n        /* \"voting1.sol\":5397:5401  voto */\n      dup3\n        /* \"voting1.sol\":5397:5421  voto == NumberCandidateB */\n      sub\n        /* \"voting1.sol\":5394:5629  if(voto == NumberCandidateB){... */\n      tag_99\n      jumpi\n        /* \"voting1.sol\":5441:5451  CandidateB */\n      0x0a\n      0x00\n        /* \"voting1.sol\":5441:5453  CandidateB++ */\n      dup2\n      sload\n      dup1\n      swap3\n      swap2\n      swap1\n      tag_100\n      swap1\n      tag_66\n      jump\t// in\n    tag_100:\n      swap2\n      swap1\n      pop\n      sstore\n      pop\n        /* \"voting1.sol\":5394:5629  if(voto == NumberCandidateB){... */\n      jump(tag_101)\n    tag_99:\n        /* \"voting1.sol\":5500:5516  NumberBlankVotes */\n      sload(0x08)\n        /* \"voting1.sol\":5492:5496  voto */\n      dup3\n        /* \"voting1.sol\":5492:5516  voto == NumberBlankVotes */\n      sub\n        /* \"voting1.sol\":5489:5629  if(voto == NumberBlankVotes){... */\n      tag_102\n      jumpi\n        /* \"voting1.sol\":5536:5546  BlankVotes */\n      0x0b\n      0x00\n        /* \"voting1.sol\":5536:5548  BlankVotes++ */\n      dup2\n      sload\n      dup1\n      swap3\n      swap2\n      swap1\n      tag_103\n      swap1\n      tag_66\n      jump\t// in\n    tag_103:\n      swap2\n      swap1\n      pop\n      sstore\n      pop\n        /* \"voting1.sol\":5489:5629  if(voto == NumberBlankVotes){... */\n      jump(tag_104)\n    tag_102:\n        /* \"voting1.sol\":5602:5611  NullVotes */\n      0x0c\n      0x00\n        /* \"voting1.sol\":5602:5613  NullVotes++ */\n      dup2\n      sload\n      dup1\n      swap3\n      swap2\n      swap1\n      tag_105\n      swap1\n      tag_66\n      jump\t// in\n    tag_105:\n      swap2\n      swap1\n      pop\n      sstore\n      pop\n        /* \"voting1.sol\":5489:5629  if(voto == NumberBlankVotes){... */\n    tag_104:\n        /* \"voting1.sol\":5394:5629  if(voto == NumberCandidateB){... */\n    tag_101:\n        /* \"voting1.sol\":5299:5629  if(voto == NumberCandidateA){... */\n    tag_98:\n        /* \"voting1.sol\":5249:5640  if(BallotBoxAddressEnable == true){ ... */\n    tag_95:\n        /* \"voting1.sol\":5676:5681  false */\n      0x00\n        /* \"voting1.sol\":5651:5673  BallotBoxAddressEnable */\n      0x0e\n      0x01\n        /* \"voting1.sol\":5651:5681  BallotBoxAddressEnable = false */\n      0x0100\n      exp\n      dup2\n      sload\n      dup2\n      0xff\n      mul\n      not\n      and\n      swap1\n      dup4\n      iszero\n      iszero\n      mul\n      or\n      swap1\n      sstore\n      pop\n        /* \"voting1.sol\":3176:3180  true */\n      0x01\n        /* \"voting1.sol\":3166:3180  status == true */\n      iszero\n      iszero\n        /* \"voting1.sol\":3166:3172  status */\n      dup2\n        /* \"voting1.sol\":3166:3180  status == true */\n      iszero\n      iszero\n      eq\n        /* \"voting1.sol\":3158:3257  require(status == true, \"The electronic ballot box is disable, because this elector already voted\") */\n      tag_106\n      jumpi\n      mload(0x40)\n      0x08c379a000000000000000000000000000000000000000000000000000000000\n      dup2\n      mstore\n      0x04\n      add\n      tag_107\n      swap1\n      tag_85\n      jump\t// in\n    tag_107:\n      mload(0x40)\n      dup1\n      swap2\n      sub\n      swap1\n      revert\n    tag_106:\n        /* \"voting1.sol\":5278:5282  true */\n      0x01\n        /* \"voting1.sol\":5252:5282  BallotBoxAddressEnable == true */\n      iszero\n      iszero\n        /* \"voting1.sol\":5252:5274  BallotBoxAddressEnable */\n      0x0e\n      0x01\n      swap1\n      sload\n      swap1\n      0x0100\n      exp\n      swap1\n      div\n      0xff\n      and\n        /* \"voting1.sol\":5252:5282  BallotBoxAddressEnable == true */\n      iszero\n      iszero\n      sub\n        /* \"voting1.sol\":5249:5640  if(BallotBoxAddressEnable == true){ ... */\n      tag_109\n      jumpi\n        /* \"voting1.sol\":5310:5326  NumberCandidateA */\n      sload(0x06)\n        /* \"voting1.sol\":5302:5306  voto */\n      dup3\n        /* \"voting1.sol\":5302:5326  voto == NumberCandidateA */\n      sub\n        /* \"voting1.sol\":5299:5629  if(voto == NumberCandidateA){... */\n      tag_110\n      jumpi\n        /* \"voting1.sol\":5346:5356  CandidateA */\n      0x09\n      0x00\n        /* \"voting1.sol\":5346:5358  CandidateA++ */\n      dup2\n      sload\n      dup1\n      swap3\n      swap2\n      swap1\n      tag_111\n      swap1\n      tag_66\n      jump\t// in\n    tag_111:\n      swap2\n      swap1\n      pop\n      sstore\n      pop\n        /* \"voting1.sol\":5299:5629  if(voto == NumberCandidateA){... */\n      jump(tag_112)\n    tag_110:\n        /* \"voting1.sol\":5405:5421  NumberCandidateB */\n      sload(0x07)\n        /* \"voting1.sol\":5397:5401  voto */\n      dup3\n        /* \"voting1.sol\":5397:5421  voto == NumberCandidateB */\n      sub\n        /* \"voting1.sol\":5394:5629  if(voto == NumberCandidateB){... */\n      tag_113\n      jumpi\n        /* \"voting1.sol\":5441:5451  CandidateB */\n      0x0a\n      0x00\n        /* \"voting1.sol\":5441:5453  CandidateB++ */\n      dup2\n      sload\n      dup1\n      swap3\n      swap2\n      swap1\n      tag_114\n      swap1\n      tag_66\n      jump\t// in\n    tag_114:\n      swap2\n      swap1\n      pop\n      sstore\n      pop\n        /* \"voting1.sol\":5394:5629  if(voto == NumberCandidateB){... */\n      jump(tag_115)\n    tag_113:\n        /* \"voting1.sol\":5500:5516  NumberBlankVotes */\n      sload(0x08)\n        /* \"voting1.sol\":5492:5496  voto */\n      dup3\n        /* \"voting1.sol\":5492:5516  voto == NumberBlankVotes */\n      sub\n        /* \"voting1.sol\":5489:5629  if(voto == NumberBlankVotes){... */\n      tag_116\n      jumpi\n        /* \"voting1.sol\":5536:5546  BlankVotes */\n      0x0b\n      0x00\n        /* \"voting1.sol\":5536:5548  BlankVotes++ */\n      dup2\n      sload\n      dup1\n      swap3\n      swap2\n      swap1\n      tag_117\n      swap1\n      tag_66\n      jump\t// in\n    tag_117:\n      swap2\n      swap1\n      pop\n      sstore\n      pop\n        /* \"voting1.sol\":5489:5629  if(voto == NumberBlankVotes){... */\n      jump(tag_118)\n    tag_116:\n        /* \"voting1.sol\":5602:5611  NullVotes */\n      0x0c\n      0x00\n        /* \"voting1.sol\":5602:5613  NullVotes++ */\n      dup2\n      sload\n      dup1\n      swap3\n      swap2\n      swap1\n      tag_119\n      swap1\n      tag_66\n      jump\t// in\n    tag_119:\n      swap2\n      swap1\n      pop\n      sstore\n      pop\n        /* \"voting1.sol\":5489:5629  if(voto == NumberBlankVotes){... */\n    tag_118:\n        /* \"voting1.sol\":5394:5629  if(voto == NumberCandidateB){... */\n    tag_115:\n        /* \"voting1.sol\":5299:5629  if(voto == NumberCandidateA){... */\n    tag_112:\n        /* \"voting1.sol\":5249:5640  if(BallotBoxAddressEnable == true){ ... */\n    tag_109:\n        /* \"voting1.sol\":5676:5681  false */\n      0x00\n        /* \"voting1.sol\":5651:5673  BallotBoxAddressEnable */\n      0x0e\n      0x01\n        /* \"voting1.sol\":5651:5681  BallotBoxAddressEnable = false */\n      0x0100\n      exp\n      dup2\n      sload\n      dup2\n      0xff\n      mul\n      not\n      and\n      swap1\n      dup4\n      iszero\n      iszero\n      mul\n      or\n      swap1\n      sstore\n      pop\n        /* \"voting1.sol\":5167:5690  function ToVote(uint voto) public verification3(BallotBoxAddressEnable){... */\n      pop\n      pop\n      jump\t// out\n        /* \"voting1.sol\":5765:5903  function FinishVoting() public verification1(){... */\n    tag_51:\n        /* \"voting1.sol\":2414:2429  BallotBoxAdress */\n      0x00\n      dup1\n      sload\n      swap1\n      0x0100\n      exp\n      swap1\n      div\n      0xffffffffffffffffffffffffffffffffffffffff\n      and\n        /* \"voting1.sol\":2400:2429  msg.sender == BallotBoxAdress */\n      0xffffffffffffffffffffffffffffffffffffffff\n      and\n        /* \"voting1.sol\":2400:2410  msg.sender */\n      caller\n        /* \"voting1.sol\":2400:2429  msg.sender == BallotBoxAdress */\n      0xffffffffffffffffffffffffffffffffffffffff\n      and\n      eq\n        /* \"voting1.sol\":2392:2494  require(msg.sender == BallotBoxAdress, \"This command need come from the electronic Ballot Box Adress\") */\n      tag_121\n      jumpi\n      mload(0x40)\n      0x08c379a000000000000000000000000000000000000000000000000000000000\n      dup2\n      mstore\n      0x04\n      add\n      tag_122\n      swap1\n      tag_72\n      jump\t// in\n    tag_122:\n      mload(0x40)\n      dup1\n      swap2\n      sub\n      swap1\n      revert\n    tag_121:\n        /* \"voting1.sol\":5837:5852  block.timestamp */\n      timestamp\n        /* \"voting1.sol\":5822:5834  TimeStampEnd */\n      0x0d\n        /* \"voting1.sol\":5822:5852  TimeStampEnd = block.timestamp */\n      dup2\n      swap1\n      sstore\n      pop\n        /* \"voting1.sol\":5889:5894  false */\n      0x00\n        /* \"voting1.sol\":5864:5886  BallotBoxAddressEnable */\n      0x0e\n      0x01\n        /* \"voting1.sol\":5864:5894  BallotBoxAddressEnable = false */\n      0x0100\n      exp\n      dup2\n      sload\n      dup2\n      0xff\n      mul\n      not\n      and\n      swap1\n      dup4\n      iszero\n      iszero\n      mul\n      or\n      swap1\n      sstore\n      pop\n        /* \"voting1.sol\":5765:5903  function FinishVoting() public verification1(){... */\n      jump\t// out\n        /* \"#utility.yul\":88:205   */\n    tag_125:\n        /* \"#utility.yul\":197:198   */\n      0x00\n        /* \"#utility.yul\":194:195   */\n      dup1\n        /* \"#utility.yul\":187:199   */\n      revert\n        /* \"#utility.yul\":334:411   */\n    tag_127:\n        /* \"#utility.yul\":371:378   */\n      0x00\n        /* \"#utility.yul\":400:405   */\n      dup2\n        /* \"#utility.yul\":389:405   */\n      swap1\n      pop\n        /* \"#utility.yul\":334:411   */\n      swap2\n      swap1\n      pop\n      jump\t// out\n        /* \"#utility.yul\":417:539   */\n    tag_128:\n        /* \"#utility.yul\":490:514   */\n      tag_148\n        /* \"#utility.yul\":508:513   */\n      dup2\n        /* \"#utility.yul\":490:514   */\n      tag_127\n      jump\t// in\n    tag_148:\n        /* \"#utility.yul\":483:488   */\n      dup2\n        /* \"#utility.yul\":480:515   */\n      eq\n        /* \"#utility.yul\":470:533   */\n      tag_149\n      jumpi\n        /* \"#utility.yul\":529:530   */\n      0x00\n        /* \"#utility.yul\":526:527   */\n      dup1\n        /* \"#utility.yul\":519:531   */\n      revert\n        /* \"#utility.yul\":470:533   */\n    tag_149:\n        /* \"#utility.yul\":417:539   */\n      pop\n      jump\t// out\n        /* \"#utility.yul\":545:684   */\n    tag_129:\n        /* \"#utility.yul\":591:596   */\n      0x00\n        /* \"#utility.yul\":629:635   */\n      dup2\n        /* \"#utility.yul\":616:636   */\n      calldataload\n        /* \"#utility.yul\":607:636   */\n      swap1\n      pop\n        /* \"#utility.yul\":645:678   */\n      tag_151\n        /* \"#utility.yul\":672:677   */\n      dup2\n        /* \"#utility.yul\":645:678   */\n      tag_128\n      jump\t// in\n    tag_151:\n        /* \"#utility.yul\":545:684   */\n      swap3\n      swap2\n      pop\n      pop\n      jump\t// out\n        /* \"#utility.yul\":690:1019   */\n    tag_18:\n        /* \"#utility.yul\":749:755   */\n      0x00\n        /* \"#utility.yul\":798:800   */\n      0x20\n        /* \"#utility.yul\":786:795   */\n      dup3\n        /* \"#utility.yul\":777:784   */\n      dup5\n        /* \"#utility.yul\":773:796   */\n      sub\n        /* \"#utility.yul\":769:801   */\n      slt\n        /* \"#utility.yul\":766:885   */\n      iszero\n      tag_153\n      jumpi\n        /* \"#utility.yul\":804:883   */\n      tag_154\n      tag_125\n      jump\t// in\n    tag_154:\n        /* \"#utility.yul\":766:885   */\n    tag_153:\n        /* \"#utility.yul\":924:925   */\n      0x00\n        /* \"#utility.yul\":949:1002   */\n      tag_155\n        /* \"#utility.yul\":994:1001   */\n      dup5\n        /* \"#utility.yul\":985:991   */\n      dup3\n        /* \"#utility.yul\":974:983   */\n      dup6\n        /* \"#utility.yul\":970:992   */\n      add\n        /* \"#utility.yul\":949:1002   */\n      tag_129\n      jump\t// in\n    tag_155:\n        /* \"#utility.yul\":939:1002   */\n      swap2\n      pop\n        /* \"#utility.yul\":895:1012   */\n      pop\n        /* \"#utility.yul\":690:1019   */\n      swap3\n      swap2\n      pop\n      pop\n      jump\t// out\n        /* \"#utility.yul\":1025:1143   */\n    tag_130:\n        /* \"#utility.yul\":1112:1136   */\n      tag_157\n        /* \"#utility.yul\":1130:1135   */\n      dup2\n        /* \"#utility.yul\":1112:1136   */\n      tag_127\n      jump\t// in\n    tag_157:\n        /* \"#utility.yul\":1107:1110   */\n      dup3\n        /* \"#utility.yul\":1100:1137   */\n      mstore\n        /* \"#utility.yul\":1025:1143   */\n      pop\n      pop\n      jump\t// out\n        /* \"#utility.yul\":1149:2035   */\n    tag_23:\n        /* \"#utility.yul\":1410:1414   */\n      0x00\n        /* \"#utility.yul\":1448:1451   */\n      0xe0\n        /* \"#utility.yul\":1437:1446   */\n      dup3\n        /* \"#utility.yul\":1433:1452   */\n      add\n        /* \"#utility.yul\":1425:1452   */\n      swap1\n      pop\n        /* \"#utility.yul\":1462:1533   */\n      tag_159\n        /* \"#utility.yul\":1530:1531   */\n      0x00\n        /* \"#utility.yul\":1519:1528   */\n      dup4\n        /* \"#utility.yul\":1515:1532   */\n      add\n        /* \"#utility.yul\":1506:1512   */\n      dup11\n        /* \"#utility.yul\":1462:1533   */\n      tag_130\n      jump\t// in\n    tag_159:\n        /* \"#utility.yul\":1543:1615   */\n      tag_160\n        /* \"#utility.yul\":1611:1613   */\n      0x20\n        /* \"#utility.yul\":1600:1609   */\n      dup4\n        /* \"#utility.yul\":1596:1614   */\n      add\n        /* \"#utility.yul\":1587:1593   */\n      dup10\n        /* \"#utility.yul\":1543:1615   */\n      tag_130\n      jump\t// in\n    tag_160:\n        /* \"#utility.yul\":1625:1697   */\n      tag_161\n        /* \"#utility.yul\":1693:1695   */\n      0x40\n        /* \"#utility.yul\":1682:1691   */\n      dup4\n        /* \"#utility.yul\":1678:1696   */\n      add\n        /* \"#utility.yul\":1669:1675   */\n      dup9\n        /* \"#utility.yul\":1625:1697   */\n      tag_130\n      jump\t// in\n    tag_161:\n        /* \"#utility.yul\":1707:1779   */\n      tag_162\n        /* \"#utility.yul\":1775:1777   */\n      0x60\n        /* \"#utility.yul\":1764:1773   */\n      dup4\n        /* \"#utility.yul\":1760:1778   */\n      add\n        /* \"#utility.yul\":1751:1757   */\n      dup8\n        /* \"#utility.yul\":1707:1779   */\n      tag_130\n      jump\t// in\n    tag_162:\n        /* \"#utility.yul\":1789:1862   */\n      tag_163\n        /* \"#utility.yul\":1857:1860   */\n      0x80\n        /* \"#utility.yul\":1846:1855   */\n      dup4\n        /* \"#utility.yul\":1842:1861   */\n      add\n        /* \"#utility.yul\":1833:1839   */\n      dup7\n        /* \"#utility.yul\":1789:1862   */\n      tag_130\n      jump\t// in\n    tag_163:\n        /* \"#utility.yul\":1872:1945   */\n      tag_164\n        /* \"#utility.yul\":1940:1943   */\n      0xa0\n        /* \"#utility.yul\":1929:1938   */\n      dup4\n        /* \"#utility.yul\":1925:1944   */\n      add\n        /* \"#utility.yul\":1916:1922   */\n      dup6\n        /* \"#utility.yul\":1872:1945   */\n      tag_130\n      jump\t// in\n    tag_164:\n        /* \"#utility.yul\":1955:2028   */\n      tag_165\n        /* \"#utility.yul\":2023:2026   */\n      0xc0\n        /* \"#utility.yul\":2012:2021   */\n      dup4\n        /* \"#utility.yul\":2008:2027   */\n      add\n        /* \"#utility.yul\":1999:2005   */\n      dup5\n        /* \"#utility.yul\":1955:2028   */\n      tag_130\n      jump\t// in\n    tag_165:\n        /* \"#utility.yul\":1149:2035   */\n      swap9\n      swap8\n      pop\n      pop\n      pop\n      pop\n      pop\n      pop\n      pop\n      pop\n      jump\t// out\n        /* \"#utility.yul\":2041:2167   */\n    tag_131:\n        /* \"#utility.yul\":2078:2085   */\n      0x00\n        /* \"#utility.yul\":2118:2160   */\n      0xffffffffffffffffffffffffffffffffffffffff\n        /* \"#utility.yul\":2111:2116   */\n      dup3\n        /* \"#utility.yul\":2107:2161   */\n      and\n        /* \"#utility.yul\":2096:2161   */\n      swap1\n      pop\n        /* \"#utility.yul\":2041:2167   */\n      swap2\n      swap1\n      pop\n      jump\t// out\n        /* \"#utility.yul\":2173:2269   */\n    tag_132:\n        /* \"#utility.yul\":2210:2217   */\n      0x00\n        /* \"#utility.yul\":2239:2263   */\n      tag_168\n        /* \"#utility.yul\":2257:2262   */\n      dup3\n        /* \"#utility.yul\":2239:2263   */\n      tag_131\n      jump\t// in\n    tag_168:\n        /* \"#utility.yul\":2228:2263   */\n      swap1\n      pop\n        /* \"#utility.yul\":2173:2269   */\n      swap2\n      swap1\n      pop\n      jump\t// out\n        /* \"#utility.yul\":2275:2393   */\n    tag_133:\n        /* \"#utility.yul\":2362:2386   */\n      tag_170\n        /* \"#utility.yul\":2380:2385   */\n      dup2\n        /* \"#utility.yul\":2362:2386   */\n      tag_132\n      jump\t// in\n    tag_170:\n        /* \"#utility.yul\":2357:2360   */\n      dup3\n        /* \"#utility.yul\":2350:2387   */\n      mstore\n        /* \"#utility.yul\":2275:2393   */\n      pop\n      pop\n      jump\t// out\n        /* \"#utility.yul\":2399:2621   */\n    tag_29:\n        /* \"#utility.yul\":2492:2496   */\n      0x00\n        /* \"#utility.yul\":2530:2532   */\n      0x20\n        /* \"#utility.yul\":2519:2528   */\n      dup3\n        /* \"#utility.yul\":2515:2533   */\n      add\n        /* \"#utility.yul\":2507:2533   */\n      swap1\n      pop\n        /* \"#utility.yul\":2543:2614   */\n      tag_172\n        /* \"#utility.yul\":2611:2612   */\n      0x00\n        /* \"#utility.yul\":2600:2609   */\n      dup4\n        /* \"#utility.yul\":2596:2613   */\n      add\n        /* \"#utility.yul\":2587:2593   */\n      dup5\n        /* \"#utility.yul\":2543:2614   */\n      tag_133\n      jump\t// in\n    tag_172:\n        /* \"#utility.yul\":2399:2621   */\n      swap3\n      swap2\n      pop\n      pop\n      jump\t// out\n        /* \"#utility.yul\":2627:2849   */\n    tag_38:\n        /* \"#utility.yul\":2720:2724   */\n      0x00\n        /* \"#utility.yul\":2758:2760   */\n      0x20\n        /* \"#utility.yul\":2747:2756   */\n      dup3\n        /* \"#utility.yul\":2743:2761   */\n      add\n        /* \"#utility.yul\":2735:2761   */\n      swap1\n      pop\n        /* \"#utility.yul\":2771:2842   */\n      tag_174\n        /* \"#utility.yul\":2839:2840   */\n      0x00\n        /* \"#utility.yul\":2828:2837   */\n      dup4\n        /* \"#utility.yul\":2824:2841   */\n      add\n        /* \"#utility.yul\":2815:2821   */\n      dup5\n        /* \"#utility.yul\":2771:2842   */\n      tag_130\n      jump\t// in\n    tag_174:\n        /* \"#utility.yul\":2627:2849   */\n      swap3\n      swap2\n      pop\n      pop\n      jump\t// out\n        /* \"#utility.yul\":2855:3024   */\n    tag_134:\n        /* \"#utility.yul\":2939:2950   */\n      0x00\n        /* \"#utility.yul\":2973:2979   */\n      dup3\n        /* \"#utility.yul\":2968:2971   */\n      dup3\n        /* \"#utility.yul\":2961:2980   */\n      mstore\n        /* \"#utility.yul\":3013:3017   */\n      0x20\n        /* \"#utility.yul\":3008:3011   */\n      dup3\n        /* \"#utility.yul\":3004:3018   */\n      add\n        /* \"#utility.yul\":2989:3018   */\n      swap1\n      pop\n        /* \"#utility.yul\":2855:3024   */\n      swap3\n      swap2\n      pop\n      pop\n      jump\t// out\n        /* \"#utility.yul\":3030:3267   */\n    tag_135:\n        /* \"#utility.yul\":3170:3204   */\n      0x5468697320636f6d6d616e64206e65656420636f6d652066726f6d2074686520\n        /* \"#utility.yul\":3166:3167   */\n      0x00\n        /* \"#utility.yul\":3158:3164   */\n      dup3\n        /* \"#utility.yul\":3154:3168   */\n      add\n        /* \"#utility.yul\":3147:3205   */\n      mstore\n        /* \"#utility.yul\":3239:3259   */\n      0x706f6c6c20776f726b6572204164726573730000000000000000000000000000\n        /* \"#utility.yul\":3234:3236   */\n      0x20\n        /* \"#utility.yul\":3226:3232   */\n      dup3\n        /* \"#utility.yul\":3222:3237   */\n      add\n        /* \"#utility.yul\":3215:3260   */\n      mstore\n        /* \"#utility.yul\":3030:3267   */\n      pop\n      jump\t// out\n        /* \"#utility.yul\":3273:3639   */\n    tag_136:\n        /* \"#utility.yul\":3415:3418   */\n      0x00\n        /* \"#utility.yul\":3436:3503   */\n      tag_178\n        /* \"#utility.yul\":3500:3502   */\n      0x32\n        /* \"#utility.yul\":3495:3498   */\n      dup4\n        /* \"#utility.yul\":3436:3503   */\n      tag_134\n      jump\t// in\n    tag_178:\n        /* \"#utility.yul\":3429:3503   */\n      swap2\n      pop\n        /* \"#utility.yul\":3512:3605   */\n      tag_179\n        /* \"#utility.yul\":3601:3604   */\n      dup3\n        /* \"#utility.yul\":3512:3605   */\n      tag_135\n      jump\t// in\n    tag_179:\n        /* \"#utility.yul\":3630:3632   */\n      0x40\n        /* \"#utility.yul\":3625:3628   */\n      dup3\n        /* \"#utility.yul\":3621:3633   */\n      add\n        /* \"#utility.yul\":3614:3633   */\n      swap1\n      pop\n        /* \"#utility.yul\":3273:3639   */\n      swap2\n      swap1\n      pop\n      jump\t// out\n        /* \"#utility.yul\":3645:4064   */\n    tag_55:\n        /* \"#utility.yul\":3811:3815   */\n      0x00\n        /* \"#utility.yul\":3849:3851   */\n      0x20\n        /* \"#utility.yul\":3838:3847   */\n      dup3\n        /* \"#utility.yul\":3834:3852   */\n      add\n        /* \"#utility.yul\":3826:3852   */\n      swap1\n      pop\n        /* \"#utility.yul\":3898:3907   */\n      dup2\n        /* \"#utility.yul\":3892:3896   */\n      dup2\n        /* \"#utility.yul\":3888:3908   */\n      sub\n        /* \"#utility.yul\":3884:3885   */\n      0x00\n        /* \"#utility.yul\":3873:3882   */\n      dup4\n        /* \"#utility.yul\":3869:3886   */\n      add\n        /* \"#utility.yul\":3862:3909   */\n      mstore\n        /* \"#utility.yul\":3926:4057   */\n      tag_181\n        /* \"#utility.yul\":4052:4056   */\n      dup2\n        /* \"#utility.yul\":3926:4057   */\n      tag_136\n      jump\t// in\n    tag_181:\n        /* \"#utility.yul\":3918:4057   */\n      swap1\n      pop\n        /* \"#utility.yul\":3645:4064   */\n      swap2\n      swap1\n      pop\n      jump\t// out\n        /* \"#utility.yul\":4070:4250   */\n    tag_62:\n        /* \"#utility.yul\":4118:4195   */\n      0x4e487b7100000000000000000000000000000000000000000000000000000000\n        /* \"#utility.yul\":4115:4116   */\n      0x00\n        /* \"#utility.yul\":4108:4196   */\n      mstore\n        /* \"#utility.yul\":4215:4219   */\n      0x32\n        /* \"#utility.yul\":4212:4213   */\n      0x04\n        /* \"#utility.yul\":4205:4220   */\n      mstore\n        /* \"#utility.yul\":4239:4243   */\n      0x24\n        /* \"#utility.yul\":4236:4237   */\n      0x00\n        /* \"#utility.yul\":4229:4244   */\n      revert\n        /* \"#utility.yul\":4256:4436   */\n    tag_137:\n        /* \"#utility.yul\":4304:4381   */\n      0x4e487b7100000000000000000000000000000000000000000000000000000000\n        /* \"#utility.yul\":4301:4302   */\n      0x00\n        /* \"#utility.yul\":4294:4382   */\n      mstore\n        /* \"#utility.yul\":4401:4405   */\n      0x11\n        /* \"#utility.yul\":4398:4399   */\n      0x04\n        /* \"#utility.yul\":4391:4406   */\n      mstore\n        /* \"#utility.yul\":4425:4429   */\n      0x24\n        /* \"#utility.yul\":4422:4423   */\n      0x00\n        /* \"#utility.yul\":4415:4430   */\n      revert\n        /* \"#utility.yul\":4442:4675   */\n    tag_66:\n        /* \"#utility.yul\":4481:4484   */\n      0x00\n        /* \"#utility.yul\":4504:4528   */\n      tag_185\n        /* \"#utility.yul\":4522:4527   */\n      dup3\n        /* \"#utility.yul\":4504:4528   */\n      tag_127\n      jump\t// in\n    tag_185:\n        /* \"#utility.yul\":4495:4528   */\n      swap2\n      pop\n        /* \"#utility.yul\":4550:4616   */\n      0xffffffffffffffffffffffffffffffffffffffffffffffffffffffffffffffff\n        /* \"#utility.yul\":4543:4548   */\n      dup3\n        /* \"#utility.yul\":4540:4617   */\n      sub\n        /* \"#utility.yul\":4537:4640   */\n      tag_186\n      jumpi\n        /* \"#utility.yul\":4620:4638   */\n      tag_187\n      tag_137\n      jump\t// in\n    tag_187:\n        /* \"#utility.yul\":4537:4640   */\n    tag_186:\n        /* \"#utility.yul\":4667:4668   */\n      0x01\n        /* \"#utility.yul\":4660:4665   */\n      dup3\n        /* \"#utility.yul\":4656:4669   */\n      add\n        /* \"#utility.yul\":4649:4669   */\n      swap1\n      pop\n        /* \"#utility.yul\":4442:4675   */\n      swap2\n      swap1\n      pop\n      jump\t// out\n        /* \"#utility.yul\":4681:4928   */\n    tag_138:\n        /* \"#utility.yul\":4821:4855   */\n      0x5468697320636f6d6d616e64206e65656420636f6d652066726f6d2074686520\n        /* \"#utility.yul\":4817:4818   */\n      0x00\n        /* \"#utility.yul\":4809:4815   */\n      dup3\n        /* \"#utility.yul\":4805:4819   */\n      add\n        /* \"#utility.yul\":4798:4856   */\n      mstore\n        /* \"#utility.yul\":4890:4920   */\n      0x656c656374726f6e69632042616c6c6f7420426f782041647265737300000000\n        /* \"#utility.yul\":4885:4887   */\n      0x20\n        /* \"#utility.yul\":4877:4883   */\n      dup3\n        /* \"#utility.yul\":4873:4888   */\n      add\n        /* \"#utility.yul\":4866:4921   */\n      mstore\n        /* \"#utility.yul\":4681:4928   */\n      pop\n      jump\t// out\n        /* \"#utility.yul\":4934:5300   */\n    tag_139:\n        /* \"#utility.yul\":5076:5079   */\n      0x00\n        /* \"#utility.yul\":5097:5164   */\n      tag_190\n        /* \"#utility.yul\":5161:5163   */\n      0x3c\n        /* \"#utility.yul\":5156:5159   */\n      dup4\n        /* \"#utility.yul\":5097:5164   */\n      tag_134\n      jump\t// in\n    tag_190:\n        /* \"#utility.yul\":5090:5164   */\n      swap2\n      pop\n        /* \"#utility.yul\":5173:5266   */\n      tag_191\n        /* \"#utility.yul\":5262:5265   */\n      dup3\n        /* \"#utility.yul\":5173:5266   */\n      tag_138\n      jump\t// in\n    tag_191:\n        /* \"#utility.yul\":5291:5293   */\n      0x40\n        /* \"#utility.yul\":5286:5289   */\n      dup3\n        /* \"#utility.yul\":5282:5294   */\n      add\n        /* \"#utility.yul\":5275:5294   */\n      swap1\n      pop\n        /* \"#utility.yul\":4934:5300   */\n      swap2\n      swap1\n      pop\n      jump\t// out\n        /* \"#utility.yul\":5306:5725   */\n    tag_72:\n        /* \"#utility.yul\":5472:5476   */\n      0x00\n        /* \"#utility.yul\":5510:5512   */\n      0x20\n        /* \"#utility.yul\":5499:5508   */\n      dup3\n        /* \"#utility.yul\":5495:5513   */\n      add\n        /* \"#utility.yul\":5487:5513   */\n      swap1\n      pop\n        /* \"#utility.yul\":5559:5568   */\n      dup2\n        /* \"#utility.yul\":5553:5557   */\n      dup2\n        /* \"#utility.yul\":5549:5569   */\n      sub\n        /* \"#utility.yul\":5545:5546   */\n      0x00\n        /* \"#utility.yul\":5534:5543   */\n      dup4\n        /* \"#utility.yul\":5530:5547   */\n      add\n        /* \"#utility.yul\":5523:5570   */\n      mstore\n        /* \"#utility.yul\":5587:5718   */\n      tag_193\n        /* \"#utility.yul\":5713:5717   */\n      dup2\n        /* \"#utility.yul\":5587:5718   */\n      tag_139\n      jump\t// in\n    tag_193:\n        /* \"#utility.yul\":5579:5718   */\n      swap1\n      pop\n        /* \"#utility.yul\":5306:5725   */\n      swap2\n      swap1\n      pop\n      jump\t// out\n        /* \"#utility.yul\":5731:6027   */\n    tag_140:\n        /* \"#utility.yul\":5871:5905   */\n      0x54686520656c656374726f6e69632062616c6c6f7420626f7820697320646973\n        /* \"#utility.yul\":5867:5868   */\n      0x00\n        /* \"#utility.yul\":5859:5865   */\n      dup3\n        /* \"#utility.yul\":5855:5869   */\n      add\n        /* \"#utility.yul\":5848:5906   */\n      mstore\n        /* \"#utility.yul\":5940:5974   */\n      0x61626c652c2062656361757365207468697320656c6563746f7220616c726561\n        /* \"#utility.yul\":5935:5937   */\n      0x20\n        /* \"#utility.yul\":5927:5933   */\n      dup3\n        /* \"#utility.yul\":5923:5938   */\n      add\n        /* \"#utility.yul\":5916:5975   */\n      mstore\n        /* \"#utility.yul\":6009:6019   */\n      0x647920766f746564000000000000000000000000000000000000000000000000\n        /* \"#utility.yul\":6004:6006   */\n      0x40\n        /* \"#utility.yul\":5996:6002   */\n      dup3\n        /* \"#utility.yul\":5992:6007   */\n      add\n        /* \"#utility.yul\":5985:6020   */\n      mstore\n        /* \"#utility.yul\":5731:6027   */\n      pop\n      jump\t// out\n        /* \"#utility.yul\":6033:6399   */\n    tag_141:\n        /* \"#utility.yul\":6175:6178   */\n      0x00\n        /* \"#utility.yul\":6196:6263   */\n      tag_196\n        /* \"#utility.yul\":6260:6262   */\n      0x48\n        /* \"#utility.yul\":6255:6258   */\n      dup4\n        /* \"#utility.yul\":6196:6263   */\n      tag_134\n      jump\t// in\n    tag_196:\n        /* \"#utility.yul\":6189:6263   */\n      swap2\n      pop\n        /* \"#utility.yul\":6272:6365   */\n      tag_197\n        /* \"#utility.yul\":6361:6364   */\n      dup3\n        /* \"#utility.yul\":6272:6365   */\n      tag_140\n      jump\t// in\n    tag_197:\n        /* \"#utility.yul\":6390:6392   */\n      0x60\n        /* \"#utility.yul\":6385:6388   */\n      dup3\n        /* \"#utility.yul\":6381:6393   */\n      add\n        /* \"#utility.yul\":6374:6393   */\n      swap1\n      pop\n        /* \"#utility.yul\":6033:6399   */\n      swap2\n      swap1\n      pop\n      jump\t// out\n        /* \"#utility.yul\":6405:6824   */\n    tag_85:\n        /* \"#utility.yul\":6571:6575   */\n      0x00\n        /* \"#utility.yul\":6609:6611   */\n      0x20\n        /* \"#utility.yul\":6598:6607   */\n      dup3\n        /* \"#utility.yul\":6594:6612   */\n      add\n        /* \"#utility.yul\":6586:6612   */\n      swap1\n      pop\n        /* \"#utility.yul\":6658:6667   */\n      dup2\n        /* \"#utility.yul\":6652:6656   */\n      dup2\n        /* \"#utility.yul\":6648:6668   */\n      sub\n        /* \"#utility.yul\":6644:6645   */\n      0x00\n        /* \"#utility.yul\":6633:6642   */\n      dup4\n        /* \"#utility.yul\":6629:6646   */\n      add\n        /* \"#utility.yul\":6622:6669   */\n      mstore\n        /* \"#utility.yul\":6686:6817   */\n      tag_199\n        /* \"#utility.yul\":6812:6816   */\n      dup2\n        /* \"#utility.yul\":6686:6817   */\n      tag_141\n      jump\t// in\n    tag_199:\n        /* \"#utility.yul\":6678:6817   */\n      swap1\n      pop\n        /* \"#utility.yul\":6405:6824   */\n      swap2\n      swap1\n      pop\n      jump\t// out\n\n    auxdata: 0xa264697066735822122052443df4feef867f0c72368a687b69d2466b7d612dd40f19bdab9b1b19dcf4cd64736f6c63430008120033\n}\n",
				"bytecode": {
					"linkReferences": {},
					"object": "60806040526001600655600260075560006009556000600a556000600b556000600c556000600d556000600e60016101000a81548160ff02191690831515021790555034801561004e57600080fd5b50604051610f88380380610f8883398181016040528101906100709190610100565b8160038190555080600481905550336000806101000a81548173ffffffffffffffffffffffffffffffffffffffff021916908373ffffffffffffffffffffffffffffffffffffffff1602179055505050610140565b600080fd5b6000819050919050565b6100dd816100ca565b81146100e857600080fd5b50565b6000815190506100fa816100d4565b92915050565b60008060408385031215610117576101166100c5565b5b6000610125858286016100eb565b9250506020610136858286016100eb565b9150509250929050565b610e398061014f6000396000f3fe608060405234801561001057600080fd5b50600436106100b45760003560e01c8063becdd94011610071578063becdd94014610149578063c61cbab214610167578063c8aa31ef14610171578063da0429751461018f578063de887192146101b3578063fb47c7df146101cf576100b4565b80630348abb1146100b95780630d7c1b83146100d55780636d8d6621146100f95780637708bda6146101035780637a99c0a61461012157806389cff0981461012b575b600080fd5b6100d360048036038101906100ce9190610a4e565b6101d9565b005b6100dd610316565b6040516100f09796959493929190610a8a565b60405180910390f35b6101016103dc565b005b61010b61041f565b6040516101189190610b3a565b60405180910390f35b610129610443565b005b6101336104da565b6040516101409190610b3a565b60405180910390f35b610151610500565b60405161015e9190610b55565b60405180910390f35b61016f610506565b005b610179610624565b6040516101869190610b55565b60405180910390f35b61019761062a565b6040516101aa9796959493929190610a8a565b60405180910390f35b6101cd60048036038101906101c89190610a4e565b6106f0565b005b6101d7610961565b005b600160009054906101000a900473ffffffffffffffffffffffffffffffffffffffff1673ffffffffffffffffffffffffffffffffffffffff163373ffffffffffffffffffffffffffffffffffffffff1614610269576040517f08c379a000000000000000000000000000000000000000000000000000000000815260040161026090610bf3565b60405180910390fd5b60005b6002805490508110156102cd576002818154811061028d5761028c610c13565b5b906000526020600020015482036102ba576001600e60006101000a81548160ff0219169083151502179055505b80806102c590610c71565b91505061026c565b5060001515600e60009054906101000a900460ff161515036103135760028190806001815401808255809150506001900390600052602060002001600090919091909150555b50565b60008060008060008060008060009054906101000a900473ffffffffffffffffffffffffffffffffffffffff1673ffffffffffffffffffffffffffffffffffffffff163373ffffffffffffffffffffffffffffffffffffffff16146103b0576040517f08c379a00000000000000000000000000000000000000000000000000000000081526004016103a790610d2b565b60405180910390fd5b600354600454600554600954600a54600b54600c54965096509650965096509650965090919293949596565b33600160006101000a81548173ffffffffffffffffffffffffffffffffffffffff021916908373ffffffffffffffffffffffffffffffffffffffff160217905550565b60008054906101000a900473ffffffffffffffffffffffffffffffffffffffff1681565b60008054906101000a900473ffffffffffffffffffffffffffffffffffffffff1673ffffffffffffffffffffffffffffffffffffffff163373ffffffffffffffffffffffffffffffffffffffff16146104d1576040517f08c379a00000000000000000000000000000000000000000000000000000000081526004016104c890610d2b565b60405180910390fd5b42600581905550565b600160009054906101000a900473ffffffffffffffffffffffffffffffffffffffff1681565b60045481565b600160009054906101000a900473ffffffffffffffffffffffffffffffffffffffff1673ffffffffffffffffffffffffffffffffffffffff163373ffffffffffffffffffffffffffffffffffffffff1614610596576040517f08c379a000000000000000000000000000000000000000000000000000000000815260040161058d90610bf3565b60405180910390fd5b6001600e60016101000a81548160ff02191690831515021790555060001515600e60009054906101000a900460ff16151514610607576040517f08c379a00000000000000000000000000000000000000000000000000000000081526004016105fe90610de3565b60405180910390fd5b6001600e60016101000a81548160ff021916908315150217905550565b60035481565b60008060008060008060008060009054906101000a900473ffffffffffffffffffffffffffffffffffffffff1673ffffffffffffffffffffffffffffffffffffffff163373ffffffffffffffffffffffffffffffffffffffff16146106c4576040517f08c379a00000000000000000000000000000000000000000000000000000000081526004016106bb90610d2b565b60405180910390fd5b600354600454600554600954600a54600b54600c54965096509650965096509650965090919293949596565b600e60019054906101000a900460ff1660008054906101000a900473ffffffffffffffffffffffffffffffffffffffff1673ffffffffffffffffffffffffffffffffffffffff163373ffffffffffffffffffffffffffffffffffffffff161461078e576040517f08c379a000000000000000000000000000000000000000000000000000000000815260040161078590610d2b565b60405180910390fd5b60011515600e60019054906101000a900460ff161515036108375760065482036107cf57600960008154809291906107c590610c71565b9190505550610836565b60075482036107f557600a60008154809291906107eb90610c71565b9190505550610835565b600854820361081b57600b600081548092919061081190610c71565b9190505550610834565b600c600081548092919061082e90610c71565b91905055505b5b5b5b6000600e60016101000a81548160ff0219169083151502179055506001151581151514610899576040517f08c379a000000000000000000000000000000000000000000000000000000000815260040161089090610de3565b60405180910390fd5b60011515600e60019054906101000a900460ff161515036109425760065482036108da57600960008154809291906108d090610c71565b9190505550610941565b600754820361090057600a60008154809291906108f690610c71565b9190505550610940565b600854820361092657600b600081548092919061091c90610c71565b919050555061093f565b600c600081548092919061093990610c71565b91905055505b5b5b5b6000600e60016101000a81548160ff0219169083151502179055505050565b60008054906101000a900473ffffffffffffffffffffffffffffffffffffffff1673ffffffffffffffffffffffffffffffffffffffff163373ffffffffffffffffffffffffffffffffffffffff16146109ef576040517f08c379a00000000000000000000000000000000000000000000000000000000081526004016109e690610d2b565b60405180910390fd5b42600d819055506000600e60016101000a81548160ff021916908315150217905550565b600080fd5b6000819050919050565b610a2b81610a18565b8114610a3657600080fd5b50565b600081359050610a4881610a22565b92915050565b600060208284031215610a6457610a63610a13565b5b6000610a7284828501610a39565b91505092915050565b610a8481610a18565b82525050565b600060e082019050610a9f600083018a610a7b565b610aac6020830189610a7b565b610ab96040830188610a7b565b610ac66060830187610a7b565b610ad36080830186610a7b565b610ae060a0830185610a7b565b610aed60c0830184610a7b565b98975050505050505050565b600073ffffffffffffffffffffffffffffffffffffffff82169050919050565b6000610b2482610af9565b9050919050565b610b3481610b19565b82525050565b6000602082019050610b4f6000830184610b2b565b92915050565b6000602082019050610b6a6000830184610a7b565b92915050565b600082825260208201905092915050565b7f5468697320636f6d6d616e64206e65656420636f6d652066726f6d207468652060008201527f706f6c6c20776f726b6572204164726573730000000000000000000000000000602082015250565b6000610bdd603283610b70565b9150610be882610b81565b604082019050919050565b60006020820190508181036000830152610c0c81610bd0565b9050919050565b7f4e487b7100000000000000000000000000000000000000000000000000000000600052603260045260246000fd5b7f4e487b7100000000000000000000000000000000000000000000000000000000600052601160045260246000fd5b6000610c7c82610a18565b91507fffffffffffffffffffffffffffffffffffffffffffffffffffffffffffffffff8203610cae57610cad610c42565b5b600182019050919050565b7f5468697320636f6d6d616e64206e65656420636f6d652066726f6d207468652060008201527f656c656374726f6e69632042616c6c6f7420426f782041647265737300000000602082015250565b6000610d15603c83610b70565b9150610d2082610cb9565b604082019050919050565b60006020820190508181036000830152610d4481610d08565b9050919050565b7f54686520656c656374726f6e69632062616c6c6f7420626f782069732064697360008201527f61626c652c2062656361757365207468697320656c6563746f7220616c72656160208201527f647920766f746564000000000000000000000000000000000000000000000000604082015250565b6000610dcd604883610b70565b9150610dd882610d4b565b606082019050919050565b60006020820190508181036000830152610dfc81610dc0565b905091905056fea264697066735822122052443df4feef867f0c72368a687b69d2466b7d612dd40f19bdab9b1b19dcf4cd64736f6c63430008120033",
					"opcodes": "PUSH1 0x80 PUSH1 0x40 MSTORE PUSH1 0x1 PUSH1 0x6 SSTORE PUSH1 0x2 PUSH1 0x7 SSTORE PUSH1 0x0 PUSH1 0x9 SSTORE PUSH1 0x0 PUSH1 0xA SSTORE PUSH1 0x0 PUSH1 0xB SSTORE PUSH1 0x0 PUSH1 0xC SSTORE PUSH1 0x0 PUSH1 0xD SSTORE PUSH1 0x0 PUSH1 0xE PUSH1 0x1 PUSH2 0x100 EXP DUP2 SLOAD DUP2 PUSH1 0xFF MUL NOT AND SWAP1 DUP4 ISZERO ISZERO MUL OR SWAP1 SSTORE POP CALLVALUE DUP1 ISZERO PUSH2 0x4E JUMPI PUSH1 0x0 DUP1 REVERT JUMPDEST POP PUSH1 0x40 MLOAD PUSH2 0xF88 CODESIZE SUB DUP1 PUSH2 0xF88 DUP4 CODECOPY DUP2 DUP2 ADD PUSH1 0x40 MSTORE DUP2 ADD SWAP1 PUSH2 0x70 SWAP2 SWAP1 PUSH2 0x100 JUMP JUMPDEST DUP2 PUSH1 0x3 DUP2 SWAP1 SSTORE POP DUP1 PUSH1 0x4 DUP2 SWAP1 SSTORE POP CALLER PUSH1 0x0 DUP1 PUSH2 0x100 EXP DUP2 SLOAD DUP2 PUSH20 0xFFFFFFFFFFFFFFFFFFFFFFFFFFFFFFFFFFFFFFFF MUL NOT AND SWAP1 DUP4 PUSH20 0xFFFFFFFFFFFFFFFFFFFFFFFFFFFFFFFFFFFFFFFF AND MUL OR SWAP1 SSTORE POP POP POP PUSH2 0x140 JUMP JUMPDEST PUSH1 0x0 DUP1 REVERT JUMPDEST PUSH1 0x0 DUP2 SWAP1 POP SWAP2 SWAP1 POP JUMP JUMPDEST PUSH2 0xDD DUP2 PUSH2 0xCA JUMP JUMPDEST DUP2 EQ PUSH2 0xE8 JUMPI PUSH1 0x0 DUP1 REVERT JUMPDEST POP JUMP JUMPDEST PUSH1 0x0 DUP2 MLOAD SWAP1 POP PUSH2 0xFA DUP2 PUSH2 0xD4 JUMP JUMPDEST SWAP3 SWAP2 POP POP JUMP JUMPDEST PUSH1 0x0 DUP1 PUSH1 0x40 DUP4 DUP6 SUB SLT ISZERO PUSH2 0x117 JUMPI PUSH2 0x116 PUSH2 0xC5 JUMP JUMPDEST JUMPDEST PUSH1 0x0 PUSH2 0x125 DUP6 DUP3 DUP7 ADD PUSH2 0xEB JUMP JUMPDEST SWAP3 POP POP PUSH1 0x20 PUSH2 0x136 DUP6 DUP3 DUP7 ADD PUSH2 0xEB JUMP JUMPDEST SWAP2 POP POP SWAP3 POP SWAP3 SWAP1 POP JUMP JUMPDEST PUSH2 0xE39 DUP1 PUSH2 0x14F PUSH1 0x0 CODECOPY PUSH1 0x0 RETURN INVALID PUSH1 0x80 PUSH1 0x40 MSTORE CALLVALUE DUP1 ISZERO PUSH2 0x10 JUMPI PUSH1 0x0 DUP1 REVERT JUMPDEST POP PUSH1 0x4 CALLDATASIZE LT PUSH2 0xB4 JUMPI PUSH1 0x0 CALLDATALOAD PUSH1 0xE0 SHR DUP1 PUSH4 0xBECDD940 GT PUSH2 0x71 JUMPI DUP1 PUSH4 0xBECDD940 EQ PUSH2 0x149 JUMPI DUP1 PUSH4 0xC61CBAB2 EQ PUSH2 0x167 JUMPI DUP1 PUSH4 0xC8AA31EF EQ PUSH2 0x171 JUMPI DUP1 PUSH4 0xDA042975 EQ PUSH2 0x18F JUMPI DUP1 PUSH4 0xDE887192 EQ PUSH2 0x1B3 JUMPI DUP1 PUSH4 0xFB47C7DF EQ PUSH2 0x1CF JUMPI PUSH2 0xB4 JUMP JUMPDEST DUP1 PUSH4 0x348ABB1 EQ PUSH2 0xB9 JUMPI DUP1 PUSH4 0xD7C1B83 EQ PUSH2 0xD5 JUMPI DUP1 PUSH4 0x6D8D6621 EQ PUSH2 0xF9 JUMPI DUP1 PUSH4 0x7708BDA6 EQ PUSH2 0x103 JUMPI DUP1 PUSH4 0x7A99C0A6 EQ PUSH2 0x121 JUMPI DUP1 PUSH4 0x89CFF098 EQ PUSH2 0x12B JUMPI JUMPDEST PUSH1 0x0 DUP1 REVERT JUMPDEST PUSH2 0xD3 PUSH1 0x4 DUP1 CALLDATASIZE SUB DUP2 ADD SWAP1 PUSH2 0xCE SWAP2 SWAP1 PUSH2 0xA4E JUMP JUMPDEST PUSH2 0x1D9 JUMP JUMPDEST STOP JUMPDEST PUSH2 0xDD PUSH2 0x316 JUMP JUMPDEST PUSH1 0x40 MLOAD PUSH2 0xF0 SWAP8 SWAP7 SWAP6 SWAP5 SWAP4 SWAP3 SWAP2 SWAP1 PUSH2 0xA8A JUMP JUMPDEST PUSH1 0x40 MLOAD DUP1 SWAP2 SUB SWAP1 RETURN JUMPDEST PUSH2 0x101 PUSH2 0x3DC JUMP JUMPDEST STOP JUMPDEST PUSH2 0x10B PUSH2 0x41F JUMP JUMPDEST PUSH1 0x40 MLOAD PUSH2 0x118 SWAP2 SWAP1 PUSH2 0xB3A JUMP JUMPDEST PUSH1 0x40 MLOAD DUP1 SWAP2 SUB SWAP1 RETURN JUMPDEST PUSH2 0x129 PUSH2 0x443 JUMP JUMPDEST STOP JUMPDEST PUSH2 0x133 PUSH2 0x4DA JUMP JUMPDEST PUSH1 0x40 MLOAD PUSH2 0x140 SWAP2 SWAP1 PUSH2 0xB3A JUMP JUMPDEST PUSH1 0x40 MLOAD DUP1 SWAP2 SUB SWAP1 RETURN JUMPDEST PUSH2 0x151 PUSH2 0x500 JUMP JUMPDEST PUSH1 0x40 MLOAD PUSH2 0x15E SWAP2 SWAP1 PUSH2 0xB55 JUMP JUMPDEST PUSH1 0x40 MLOAD DUP1 SWAP2 SUB SWAP1 RETURN JUMPDEST PUSH2 0x16F PUSH2 0x506 JUMP JUMPDEST STOP JUMPDEST PUSH2 0x179 PUSH2 0x624 JUMP JUMPDEST PUSH1 0x40 MLOAD PUSH2 0x186 SWAP2 SWAP1 PUSH2 0xB55 JUMP JUMPDEST PUSH1 0x40 MLOAD DUP1 SWAP2 SUB SWAP1 RETURN JUMPDEST PUSH2 0x197 PUSH2 0x62A JUMP JUMPDEST PUSH1 0x40 MLOAD PUSH2 0x1AA SWAP8 SWAP7 SWAP6 SWAP5 SWAP4 SWAP3 SWAP2 SWAP1 PUSH2 0xA8A JUMP JUMPDEST PUSH1 0x40 MLOAD DUP1 SWAP2 SUB SWAP1 RETURN JUMPDEST PUSH2 0x1CD PUSH1 0x4 DUP1 CALLDATASIZE SUB DUP2 ADD SWAP1 PUSH2 0x1C8 SWAP2 SWAP1 PUSH2 0xA4E JUMP JUMPDEST PUSH2 0x6F0 JUMP JUMPDEST STOP JUMPDEST PUSH2 0x1D7 PUSH2 0x961 JUMP JUMPDEST STOP JUMPDEST PUSH1 0x1 PUSH1 0x0 SWAP1 SLOAD SWAP1 PUSH2 0x100 EXP SWAP1 DIV PUSH20 0xFFFFFFFFFFFFFFFFFFFFFFFFFFFFFFFFFFFFFFFF AND PUSH20 0xFFFFFFFFFFFFFFFFFFFFFFFFFFFFFFFFFFFFFFFF AND CALLER PUSH20 0xFFFFFFFFFFFFFFFFFFFFFFFFFFFFFFFFFFFFFFFF AND EQ PUSH2 0x269 JUMPI PUSH1 0x40 MLOAD PUSH32 0x8C379A000000000000000000000000000000000000000000000000000000000 DUP2 MSTORE PUSH1 0x4 ADD PUSH2 0x260 SWAP1 PUSH2 0xBF3 JUMP JUMPDEST PUSH1 0x40 MLOAD DUP1 SWAP2 SUB SWAP1 REVERT JUMPDEST PUSH1 0x0 JUMPDEST PUSH1 0x2 DUP1 SLOAD SWAP1 POP DUP2 LT ISZERO PUSH2 0x2CD JUMPI PUSH1 0x2 DUP2 DUP2 SLOAD DUP2 LT PUSH2 0x28D JUMPI PUSH2 0x28C PUSH2 0xC13 JUMP JUMPDEST JUMPDEST SWAP1 PUSH1 0x0 MSTORE PUSH1 0x20 PUSH1 0x0 KECCAK256 ADD SLOAD DUP3 SUB PUSH2 0x2BA JUMPI PUSH1 0x1 PUSH1 0xE PUSH1 0x0 PUSH2 0x100 EXP DUP2 SLOAD DUP2 PUSH1 0xFF MUL NOT AND SWAP1 DUP4 ISZERO ISZERO MUL OR SWAP1 SSTORE POP JUMPDEST DUP1 DUP1 PUSH2 0x2C5 SWAP1 PUSH2 0xC71 JUMP JUMPDEST SWAP2 POP POP PUSH2 0x26C JUMP JUMPDEST POP PUSH1 0x0 ISZERO ISZERO PUSH1 0xE PUSH1 0x0 SWAP1 SLOAD SWAP1 PUSH2 0x100 EXP SWAP1 DIV PUSH1 0xFF AND ISZERO ISZERO SUB PUSH2 0x313 JUMPI PUSH1 0x2 DUP2 SWAP1 DUP1 PUSH1 0x1 DUP2 SLOAD ADD DUP1 DUP3 SSTORE DUP1 SWAP2 POP POP PUSH1 0x1 SWAP1 SUB SWAP1 PUSH1 0x0 MSTORE PUSH1 0x20 PUSH1 0x0 KECCAK256 ADD PUSH1 0x0 SWAP1 SWAP2 SWAP1 SWAP2 SWAP1 SWAP2 POP SSTORE JUMPDEST POP JUMP JUMPDEST PUSH1 0x0 DUP1 PUSH1 0x0 DUP1 PUSH1 0x0 DUP1 PUSH1 0x0 DUP1 PUSH1 0x0 SWAP1 SLOAD SWAP1 PUSH2 0x100 EXP SWAP1 DIV PUSH20 0xFFFFFFFFFFFFFFFFFFFFFFFFFFFFFFFFFFFFFFFF AND PUSH20 0xFFFFFFFFFFFFFFFFFFFFFFFFFFFFFFFFFFFFFFFF AND CALLER PUSH20 0xFFFFFFFFFFFFFFFFFFFFFFFFFFFFFFFFFFFFFFFF AND EQ PUSH2 0x3B0 JUMPI PUSH1 0x40 MLOAD PUSH32 0x8C379A000000000000000000000000000000000000000000000000000000000 DUP2 MSTORE PUSH1 0x4 ADD PUSH2 0x3A7 SWAP1 PUSH2 0xD2B JUMP JUMPDEST PUSH1 0x40 MLOAD DUP1 SWAP2 SUB SWAP1 REVERT JUMPDEST PUSH1 0x3 SLOAD PUSH1 0x4 SLOAD PUSH1 0x5 SLOAD PUSH1 0x9 SLOAD PUSH1 0xA SLOAD PUSH1 0xB SLOAD PUSH1 0xC SLOAD SWAP7 POP SWAP7 POP SWAP7 POP SWAP7 POP SWAP7 POP SWAP7 POP SWAP7 POP SWAP1 SWAP2 SWAP3 SWAP4 SWAP5 SWAP6 SWAP7 JUMP JUMPDEST CALLER PUSH1 0x1 PUSH1 0x0 PUSH2 0x100 EXP DUP2 SLOAD DUP2 PUSH20 0xFFFFFFFFFFFFFFFFFFFFFFFFFFFFFFFFFFFFFFFF MUL NOT AND SWAP1 DUP4 PUSH20 0xFFFFFFFFFFFFFFFFFFFFFFFFFFFFFFFFFFFFFFFF AND MUL OR SWAP1 SSTORE POP JUMP JUMPDEST PUSH1 0x0 DUP1 SLOAD SWAP1 PUSH2 0x100 EXP SWAP1 DIV PUSH20 0xFFFFFFFFFFFFFFFFFFFFFFFFFFFFFFFFFFFFFFFF AND DUP2 JUMP JUMPDEST PUSH1 0x0 DUP1 SLOAD SWAP1 PUSH2 0x100 EXP SWAP1 DIV PUSH20 0xFFFFFFFFFFFFFFFFFFFFFFFFFFFFFFFFFFFFFFFF AND PUSH20 0xFFFFFFFFFFFFFFFFFFFFFFFFFFFFFFFFFFFFFFFF AND CALLER PUSH20 0xFFFFFFFFFFFFFFFFFFFFFFFFFFFFFFFFFFFFFFFF AND EQ PUSH2 0x4D1 JUMPI PUSH1 0x40 MLOAD PUSH32 0x8C379A000000000000000000000000000000000000000000000000000000000 DUP2 MSTORE PUSH1 0x4 ADD PUSH2 0x4C8 SWAP1 PUSH2 0xD2B JUMP JUMPDEST PUSH1 0x40 MLOAD DUP1 SWAP2 SUB SWAP1 REVERT JUMPDEST TIMESTAMP PUSH1 0x5 DUP2 SWAP1 SSTORE POP JUMP JUMPDEST PUSH1 0x1 PUSH1 0x0 SWAP1 SLOAD SWAP1 PUSH2 0x100 EXP SWAP1 DIV PUSH20 0xFFFFFFFFFFFFFFFFFFFFFFFFFFFFFFFFFFFFFFFF AND DUP2 JUMP JUMPDEST PUSH1 0x4 SLOAD DUP2 JUMP JUMPDEST PUSH1 0x1 PUSH1 0x0 SWAP1 SLOAD SWAP1 PUSH2 0x100 EXP SWAP1 DIV PUSH20 0xFFFFFFFFFFFFFFFFFFFFFFFFFFFFFFFFFFFFFFFF AND PUSH20 0xFFFFFFFFFFFFFFFFFFFFFFFFFFFFFFFFFFFFFFFF AND CALLER PUSH20 0xFFFFFFFFFFFFFFFFFFFFFFFFFFFFFFFFFFFFFFFF AND EQ PUSH2 0x596 JUMPI PUSH1 0x40 MLOAD PUSH32 0x8C379A000000000000000000000000000000000000000000000000000000000 DUP2 MSTORE PUSH1 0x4 ADD PUSH2 0x58D SWAP1 PUSH2 0xBF3 JUMP JUMPDEST PUSH1 0x40 MLOAD DUP1 SWAP2 SUB SWAP1 REVERT JUMPDEST PUSH1 0x1 PUSH1 0xE PUSH1 0x1 PUSH2 0x100 EXP DUP2 SLOAD DUP2 PUSH1 0xFF MUL NOT AND SWAP1 DUP4 ISZERO ISZERO MUL OR SWAP1 SSTORE POP PUSH1 0x0 ISZERO ISZERO PUSH1 0xE PUSH1 0x0 SWAP1 SLOAD SWAP1 PUSH2 0x100 EXP SWAP1 DIV PUSH1 0xFF AND ISZERO ISZERO EQ PUSH2 0x607 JUMPI PUSH1 0x40 MLOAD PUSH32 0x8C379A000000000000000000000000000000000000000000000000000000000 DUP2 MSTORE PUSH1 0x4 ADD PUSH2 0x5FE SWAP1 PUSH2 0xDE3 JUMP JUMPDEST PUSH1 0x40 MLOAD DUP1 SWAP2 SUB SWAP1 REVERT JUMPDEST PUSH1 0x1 PUSH1 0xE PUSH1 0x1 PUSH2 0x100 EXP DUP2 SLOAD DUP2 PUSH1 0xFF MUL NOT AND SWAP1 DUP4 ISZERO ISZERO MUL OR SWAP1 SSTORE POP JUMP JUMPDEST PUSH1 0x3 SLOAD DUP2 JUMP JUMPDEST PUSH1 0x0 DUP1 PUSH1 0x0 DUP1 PUSH1 0x0 DUP1 PUSH1 0x0 DUP1 PUSH1 0x0 SWAP1 SLOAD SWAP1 PUSH2 0x100 EXP SWAP1 DIV PUSH20 0xFFFFFFFFFFFFFFFFFFFFFFFFFFFFFFFFFFFFFFFF AND PUSH20 0xFFFFFFFFFFFFFFFFFFFFFFFFFFFFFFFFFFFFFFFF AND CALLER PUSH20 0xFFFFFFFFFFFFFFFFFFFFFFFFFFFFFFFFFFFFFFFF AND EQ PUSH2 0x6C4 JUMPI PUSH1 0x40 MLOAD PUSH32 0x8C379A000000000000000000000000000000000000000000000000000000000 DUP2 MSTORE PUSH1 0x4 ADD PUSH2 0x6BB SWAP1 PUSH2 0xD2B JUMP JUMPDEST PUSH1 0x40 MLOAD DUP1 SWAP2 SUB SWAP1 REVERT JUMPDEST PUSH1 0x3 SLOAD PUSH1 0x4 SLOAD PUSH1 0x5 SLOAD PUSH1 0x9 SLOAD PUSH1 0xA SLOAD PUSH1 0xB SLOAD PUSH1 0xC SLOAD SWAP7 POP SWAP7 POP SWAP7 POP SWAP7 POP SWAP7 POP SWAP7 POP SWAP7 POP SWAP1 SWAP2 SWAP3 SWAP4 SWAP5 SWAP6 SWAP7 JUMP JUMPDEST PUSH1 0xE PUSH1 0x1 SWAP1 SLOAD SWAP1 PUSH2 0x100 EXP SWAP1 DIV PUSH1 0xFF AND PUSH1 0x0 DUP1 SLOAD SWAP1 PUSH2 0x100 EXP SWAP1 DIV PUSH20 0xFFFFFFFFFFFFFFFFFFFFFFFFFFFFFFFFFFFFFFFF AND PUSH20 0xFFFFFFFFFFFFFFFFFFFFFFFFFFFFFFFFFFFFFFFF AND CALLER PUSH20 0xFFFFFFFFFFFFFFFFFFFFFFFFFFFFFFFFFFFFFFFF AND EQ PUSH2 0x78E JUMPI PUSH1 0x40 MLOAD PUSH32 0x8C379A000000000000000000000000000000000000000000000000000000000 DUP2 MSTORE PUSH1 0x4 ADD PUSH2 0x785 SWAP1 PUSH2 0xD2B JUMP JUMPDEST PUSH1 0x40 MLOAD DUP1 SWAP2 SUB SWAP1 REVERT JUMPDEST PUSH1 0x1 ISZERO ISZERO PUSH1 0xE PUSH1 0x1 SWAP1 SLOAD SWAP1 PUSH2 0x100 EXP SWAP1 DIV PUSH1 0xFF AND ISZERO ISZERO SUB PUSH2 0x837 JUMPI PUSH1 0x6 SLOAD DUP3 SUB PUSH2 0x7CF JUMPI PUSH1 0x9 PUSH1 0x0 DUP2 SLOAD DUP1 SWAP3 SWAP2 SWAP1 PUSH2 0x7C5 SWAP1 PUSH2 0xC71 JUMP JUMPDEST SWAP2 SWAP1 POP SSTORE POP PUSH2 0x836 JUMP JUMPDEST PUSH1 0x7 SLOAD DUP3 SUB PUSH2 0x7F5 JUMPI PUSH1 0xA PUSH1 0x0 DUP2 SLOAD DUP1 SWAP3 SWAP2 SWAP1 PUSH2 0x7EB SWAP1 PUSH2 0xC71 JUMP JUMPDEST SWAP2 SWAP1 POP SSTORE POP PUSH2 0x835 JUMP JUMPDEST PUSH1 0x8 SLOAD DUP3 SUB PUSH2 0x81B JUMPI PUSH1 0xB PUSH1 0x0 DUP2 SLOAD DUP1 SWAP3 SWAP2 SWAP1 PUSH2 0x811 SWAP1 PUSH2 0xC71 JUMP JUMPDEST SWAP2 SWAP1 POP SSTORE POP PUSH2 0x834 JUMP JUMPDEST PUSH1 0xC PUSH1 0x0 DUP2 SLOAD DUP1 SWAP3 SWAP2 SWAP1 PUSH2 0x82E SWAP1 PUSH2 0xC71 JUMP JUMPDEST SWAP2 SWAP1 POP SSTORE POP JUMPDEST JUMPDEST JUMPDEST JUMPDEST PUSH1 0x0 PUSH1 0xE PUSH1 0x1 PUSH2 0x100 EXP DUP2 SLOAD DUP2 PUSH1 0xFF MUL NOT AND SWAP1 DUP4 ISZERO ISZERO MUL OR SWAP1 SSTORE POP PUSH1 0x1 ISZERO ISZERO DUP2 ISZERO ISZERO EQ PUSH2 0x899 JUMPI PUSH1 0x40 MLOAD PUSH32 0x8C379A000000000000000000000000000000000000000000000000000000000 DUP2 MSTORE PUSH1 0x4 ADD PUSH2 0x890 SWAP1 PUSH2 0xDE3 JUMP JUMPDEST PUSH1 0x40 MLOAD DUP1 SWAP2 SUB SWAP1 REVERT JUMPDEST PUSH1 0x1 ISZERO ISZERO PUSH1 0xE PUSH1 0x1 SWAP1 SLOAD SWAP1 PUSH2 0x100 EXP SWAP1 DIV PUSH1 0xFF AND ISZERO ISZERO SUB PUSH2 0x942 JUMPI PUSH1 0x6 SLOAD DUP3 SUB PUSH2 0x8DA JUMPI PUSH1 0x9 PUSH1 0x0 DUP2 SLOAD DUP1 SWAP3 SWAP2 SWAP1 PUSH2 0x8D0 SWAP1 PUSH2 0xC71 JUMP JUMPDEST SWAP2 SWAP1 POP SSTORE POP PUSH2 0x941 JUMP JUMPDEST PUSH1 0x7 SLOAD DUP3 SUB PUSH2 0x900 JUMPI PUSH1 0xA PUSH1 0x0 DUP2 SLOAD DUP1 SWAP3 SWAP2 SWAP1 PUSH2 0x8F6 SWAP1 PUSH2 0xC71 JUMP JUMPDEST SWAP2 SWAP1 POP SSTORE POP PUSH2 0x940 JUMP JUMPDEST PUSH1 0x8 SLOAD DUP3 SUB PUSH2 0x926 JUMPI PUSH1 0xB PUSH1 0x0 DUP2 SLOAD DUP1 SWAP3 SWAP2 SWAP1 PUSH2 0x91C SWAP1 PUSH2 0xC71 JUMP JUMPDEST SWAP2 SWAP1 POP SSTORE POP PUSH2 0x93F JUMP JUMPDEST PUSH1 0xC PUSH1 0x0 DUP2 SLOAD DUP1 SWAP3 SWAP2 SWAP1 PUSH2 0x939 SWAP1 PUSH2 0xC71 JUMP JUMPDEST SWAP2 SWAP1 POP SSTORE POP JUMPDEST JUMPDEST JUMPDEST JUMPDEST PUSH1 0x0 PUSH1 0xE PUSH1 0x1 PUSH2 0x100 EXP DUP2 SLOAD DUP2 PUSH1 0xFF MUL NOT AND SWAP1 DUP4 ISZERO ISZERO MUL OR SWAP1 SSTORE POP POP POP JUMP JUMPDEST PUSH1 0x0 DUP1 SLOAD SWAP1 PUSH2 0x100 EXP SWAP1 DIV PUSH20 0xFFFFFFFFFFFFFFFFFFFFFFFFFFFFFFFFFFFFFFFF AND PUSH20 0xFFFFFFFFFFFFFFFFFFFFFFFFFFFFFFFFFFFFFFFF AND CALLER PUSH20 0xFFFFFFFFFFFFFFFFFFFFFFFFFFFFFFFFFFFFFFFF AND EQ PUSH2 0x9EF JUMPI PUSH1 0x40 MLOAD PUSH32 0x8C379A000000000000000000000000000000000000000000000000000000000 DUP2 MSTORE PUSH1 0x4 ADD PUSH2 0x9E6 SWAP1 PUSH2 0xD2B JUMP JUMPDEST PUSH1 0x40 MLOAD DUP1 SWAP2 SUB SWAP1 REVERT JUMPDEST TIMESTAMP PUSH1 0xD DUP2 SWAP1 SSTORE POP PUSH1 0x0 PUSH1 0xE PUSH1 0x1 PUSH2 0x100 EXP DUP2 SLOAD DUP2 PUSH1 0xFF MUL NOT AND SWAP1 DUP4 ISZERO ISZERO MUL OR SWAP1 SSTORE POP JUMP JUMPDEST PUSH1 0x0 DUP1 REVERT JUMPDEST PUSH1 0x0 DUP2 SWAP1 POP SWAP2 SWAP1 POP JUMP JUMPDEST PUSH2 0xA2B DUP2 PUSH2 0xA18 JUMP JUMPDEST DUP2 EQ PUSH2 0xA36 JUMPI PUSH1 0x0 DUP1 REVERT JUMPDEST POP JUMP JUMPDEST PUSH1 0x0 DUP2 CALLDATALOAD SWAP1 POP PUSH2 0xA48 DUP2 PUSH2 0xA22 JUMP JUMPDEST SWAP3 SWAP2 POP POP JUMP JUMPDEST PUSH1 0x0 PUSH1 0x20 DUP3 DUP5 SUB SLT ISZERO PUSH2 0xA64 JUMPI PUSH2 0xA63 PUSH2 0xA13 JUMP JUMPDEST JUMPDEST PUSH1 0x0 PUSH2 0xA72 DUP5 DUP3 DUP6 ADD PUSH2 0xA39 JUMP JUMPDEST SWAP2 POP POP SWAP3 SWAP2 POP POP JUMP JUMPDEST PUSH2 0xA84 DUP2 PUSH2 0xA18 JUMP JUMPDEST DUP3 MSTORE POP POP JUMP JUMPDEST PUSH1 0x0 PUSH1 0xE0 DUP3 ADD SWAP1 POP PUSH2 0xA9F PUSH1 0x0 DUP4 ADD DUP11 PUSH2 0xA7B JUMP JUMPDEST PUSH2 0xAAC PUSH1 0x20 DUP4 ADD DUP10 PUSH2 0xA7B JUMP JUMPDEST PUSH2 0xAB9 PUSH1 0x40 DUP4 ADD DUP9 PUSH2 0xA7B JUMP JUMPDEST PUSH2 0xAC6 PUSH1 0x60 DUP4 ADD DUP8 PUSH2 0xA7B JUMP JUMPDEST PUSH2 0xAD3 PUSH1 0x80 DUP4 ADD DUP7 PUSH2 0xA7B JUMP JUMPDEST PUSH2 0xAE0 PUSH1 0xA0 DUP4 ADD DUP6 PUSH2 0xA7B JUMP JUMPDEST PUSH2 0xAED PUSH1 0xC0 DUP4 ADD DUP5 PUSH2 0xA7B JUMP JUMPDEST SWAP9 SWAP8 POP POP POP POP POP POP POP POP JUMP JUMPDEST PUSH1 0x0 PUSH20 0xFFFFFFFFFFFFFFFFFFFFFFFFFFFFFFFFFFFFFFFF DUP3 AND SWAP1 POP SWAP2 SWAP1 POP JUMP JUMPDEST PUSH1 0x0 PUSH2 0xB24 DUP3 PUSH2 0xAF9 JUMP JUMPDEST SWAP1 POP SWAP2 SWAP1 POP JUMP JUMPDEST PUSH2 0xB34 DUP2 PUSH2 0xB19 JUMP JUMPDEST DUP3 MSTORE POP POP JUMP JUMPDEST PUSH1 0x0 PUSH1 0x20 DUP3 ADD SWAP1 POP PUSH2 0xB4F PUSH1 0x0 DUP4 ADD DUP5 PUSH2 0xB2B JUMP JUMPDEST SWAP3 SWAP2 POP POP JUMP JUMPDEST PUSH1 0x0 PUSH1 0x20 DUP3 ADD SWAP1 POP PUSH2 0xB6A PUSH1 0x0 DUP4 ADD DUP5 PUSH2 0xA7B JUMP JUMPDEST SWAP3 SWAP2 POP POP JUMP JUMPDEST PUSH1 0x0 DUP3 DUP3 MSTORE PUSH1 0x20 DUP3 ADD SWAP1 POP SWAP3 SWAP2 POP POP JUMP JUMPDEST PUSH32 0x5468697320636F6D6D616E64206E65656420636F6D652066726F6D2074686520 PUSH1 0x0 DUP3 ADD MSTORE PUSH32 0x706F6C6C20776F726B6572204164726573730000000000000000000000000000 PUSH1 0x20 DUP3 ADD MSTORE POP JUMP JUMPDEST PUSH1 0x0 PUSH2 0xBDD PUSH1 0x32 DUP4 PUSH2 0xB70 JUMP JUMPDEST SWAP2 POP PUSH2 0xBE8 DUP3 PUSH2 0xB81 JUMP JUMPDEST PUSH1 0x40 DUP3 ADD SWAP1 POP SWAP2 SWAP1 POP JUMP JUMPDEST PUSH1 0x0 PUSH1 0x20 DUP3 ADD SWAP1 POP DUP2 DUP2 SUB PUSH1 0x0 DUP4 ADD MSTORE PUSH2 0xC0C DUP2 PUSH2 0xBD0 JUMP JUMPDEST SWAP1 POP SWAP2 SWAP1 POP JUMP JUMPDEST PUSH32 0x4E487B7100000000000000000000000000000000000000000000000000000000 PUSH1 0x0 MSTORE PUSH1 0x32 PUSH1 0x4 MSTORE PUSH1 0x24 PUSH1 0x0 REVERT JUMPDEST PUSH32 0x4E487B7100000000000000000000000000000000000000000000000000000000 PUSH1 0x0 MSTORE PUSH1 0x11 PUSH1 0x4 MSTORE PUSH1 0x24 PUSH1 0x0 REVERT JUMPDEST PUSH1 0x0 PUSH2 0xC7C DUP3 PUSH2 0xA18 JUMP JUMPDEST SWAP2 POP PUSH32 0xFFFFFFFFFFFFFFFFFFFFFFFFFFFFFFFFFFFFFFFFFFFFFFFFFFFFFFFFFFFFFFFF DUP3 SUB PUSH2 0xCAE JUMPI PUSH2 0xCAD PUSH2 0xC42 JUMP JUMPDEST JUMPDEST PUSH1 0x1 DUP3 ADD SWAP1 POP SWAP2 SWAP1 POP JUMP JUMPDEST PUSH32 0x5468697320636F6D6D616E64206E65656420636F6D652066726F6D2074686520 PUSH1 0x0 DUP3 ADD MSTORE PUSH32 0x656C656374726F6E69632042616C6C6F7420426F782041647265737300000000 PUSH1 0x20 DUP3 ADD MSTORE POP JUMP JUMPDEST PUSH1 0x0 PUSH2 0xD15 PUSH1 0x3C DUP4 PUSH2 0xB70 JUMP JUMPDEST SWAP2 POP PUSH2 0xD20 DUP3 PUSH2 0xCB9 JUMP JUMPDEST PUSH1 0x40 DUP3 ADD SWAP1 POP SWAP2 SWAP1 POP JUMP JUMPDEST PUSH1 0x0 PUSH1 0x20 DUP3 ADD SWAP1 POP DUP2 DUP2 SUB PUSH1 0x0 DUP4 ADD MSTORE PUSH2 0xD44 DUP2 PUSH2 0xD08 JUMP JUMPDEST SWAP1 POP SWAP2 SWAP1 POP JUMP JUMPDEST PUSH32 0x54686520656C656374726F6E69632062616C6C6F7420626F7820697320646973 PUSH1 0x0 DUP3 ADD MSTORE PUSH32 0x61626C652C2062656361757365207468697320656C6563746F7220616C726561 PUSH1 0x20 DUP3 ADD MSTORE PUSH32 0x647920766F746564000000000000000000000000000000000000000000000000 PUSH1 0x40 DUP3 ADD MSTORE POP JUMP JUMPDEST PUSH1 0x0 PUSH2 0xDCD PUSH1 0x48 DUP4 PUSH2 0xB70 JUMP JUMPDEST SWAP2 POP PUSH2 0xDD8 DUP3 PUSH2 0xD4B JUMP JUMPDEST PUSH1 0x60 DUP3 ADD SWAP1 POP SWAP2 SWAP1 POP JUMP JUMPDEST PUSH1 0x0 PUSH1 0x20 DUP3 ADD SWAP1 POP DUP2 DUP2 SUB PUSH1 0x0 DUP4 ADD MSTORE PUSH2 0xDFC DUP2 PUSH2 0xDC0 JUMP JUMPDEST SWAP1 POP SWAP2 SWAP1 POP JUMP INVALID LOG2 PUSH5 0x6970667358 0x22 SLT KECCAK256 MSTORE PREVRANDAO RETURNDATASIZE DELEGATECALL INVALID 0xEF DUP7 PUSH32 0xC72368A687B69D2466B7D612DD40F19BDAB9B1B19DCF4CD64736F6C63430008 SLT STOP CALLER "
				},
				"gasEstimates": {
					"creation": {
						"codeDepositCost": "728200",
						"executionCost": "infinite",
						"totalCost": "infinite"
					},
					"external": {
						"BallotBoxAdress()": "2578",
						"ElectoralWard()": "2473",
						"EnableElectronicBallotBox()": "53141",
						"EnablePollWorker()": "24455",
						"FinishVoting()": "48851",
						"FirstPrinting()": "infinite",
						"InsertElectorID(uint256)": "infinite",
						"LastPrinting()": "infinite",
						"RemoteControllAdress()": "2625",
						"StartVoting()": "24513",
						"ToVote(uint256)": "infinite",
						"VotingSection()": "2429"
					}
				},
				"methodIdentifiers": {
					"BallotBoxAdress()": "7708bda6",
					"ElectoralWard()": "c8aa31ef",
					"EnableElectronicBallotBox()": "c61cbab2",
					"EnablePollWorker()": "6d8d6621",
					"FinishVoting()": "fb47c7df",
					"FirstPrinting()": "da042975",
					"InsertElectorID(uint256)": "0348abb1",
					"LastPrinting()": "0d7c1b83",
					"RemoteControllAdress()": "89cff098",
					"StartVoting()": "7a99c0a6",
					"ToVote(uint256)": "de887192",
					"VotingSection()": "becdd940"
				}
			},
			"storageLayout": {
				"storage": [
					{
						"astId": 9,
						"contract": "voting1.sol:voting",
						"label": "BallotBoxAdress",
						"offset": 0,
						"slot": "0",
						"type": "t_address"
					},
					{
						"astId": 11,
						"contract": "voting1.sol:voting",
						"label": "RemoteControllAdress",
						"offset": 0,
						"slot": "1",
						"type": "t_address"
					},
					{
						"astId": 14,
						"contract": "voting1.sol:voting",
						"label": "ElectorIDs",
						"offset": 0,
						"slot": "2",
						"type": "t_array(t_uint256)dyn_storage"
					},
					{
						"astId": 16,
						"contract": "voting1.sol:voting",
						"label": "ElectoralWard",
						"offset": 0,
						"slot": "3",
						"type": "t_uint256"
					},
					{
						"astId": 18,
						"contract": "voting1.sol:voting",
						"label": "VotingSection",
						"offset": 0,
						"slot": "4",
						"type": "t_uint256"
					},
					{
						"astId": 20,
						"contract": "voting1.sol:voting",
						"label": "TimeStampStart",
						"offset": 0,
						"slot": "5",
						"type": "t_uint256"
					},
					{
						"astId": 23,
						"contract": "voting1.sol:voting",
						"label": "NumberCandidateA",
						"offset": 0,
						"slot": "6",
						"type": "t_uint256"
					},
					{
						"astId": 26,
						"contract": "voting1.sol:voting",
						"label": "NumberCandidateB",
						"offset": 0,
						"slot": "7",
						"type": "t_uint256"
					},
					{
						"astId": 28,
						"contract": "voting1.sol:voting",
						"label": "NumberBlankVotes",
						"offset": 0,
						"slot": "8",
						"type": "t_uint256"
					},
					{
						"astId": 31,
						"contract": "voting1.sol:voting",
						"label": "CandidateA",
						"offset": 0,
						"slot": "9",
						"type": "t_uint256"
					},
					{
						"astId": 34,
						"contract": "voting1.sol:voting",
						"label": "CandidateB",
						"offset": 0,
						"slot": "10",
						"type": "t_uint256"
					},
					{
						"astId": 37,
						"contract": "voting1.sol:voting",
						"label": "BlankVotes",
						"offset": 0,
						"slot": "11",
						"type": "t_uint256"
					},
					{
						"astId": 40,
						"contract": "voting1.sol:voting",
						"label": "NullVotes",
						"offset": 0,
						"slot": "12",
						"type": "t_uint256"
					},
					{
						"astId": 43,
						"contract": "voting1.sol:voting",
						"label": "TimeStampEnd",
						"offset": 0,
						"slot": "13",
						"type": "t_uint256"
					},
					{
						"astId": 45,
						"contract": "voting1.sol:voting",
						"label": "AlreadyVoted",
						"offset": 0,
						"slot": "14",
						"type": "t_bool"
					},
					{
						"astId": 48,
						"contract": "voting1.sol:voting",
						"label": "BallotBoxAddressEnable",
						"offset": 1,
						"slot": "14",
						"type": "t_bool"
					}
				],
				"types": {
					"t_address": {
						"encoding": "inplace",
						"label": "address",
						"numberOfBytes": "20"
					},
					"t_array(t_uint256)dyn_storage": {
						"base": "t_uint256",
						"encoding": "dynamic_array",
						"label": "uint256[]",
						"numberOfBytes": "32"
					},
					"t_bool": {
						"encoding": "inplace",
						"label": "bool",
						"numberOfBytes": "1"
					},
					"t_uint256": {
						"encoding": "inplace",
						"label": "uint256",
						"numberOfBytes": "32"
					}
				}
			},
			"userdoc": {
				"kind": "user",
				"methods": {},
				"version": 1
			}
		}
	}
}