{
	"bank.sol": {
		"Bsystem": {
			"abi": [
				{
					"inputs": [
						{
							"internalType": "address[]",
							"name": "_owners",
							"type": "address[]"
						},
						{
							"internalType": "uint256",
							"name": "_ncr",
							"type": "uint256"
						}
					],
					"stateMutability": "nonpayable",
					"type": "constructor"
				},
				{
					"anonymous": false,
					"inputs": [
						{
							"indexed": true,
							"internalType": "address",
							"name": "sender",
							"type": "address"
						},
						{
							"indexed": true,
							"internalType": "address",
							"name": "owner",
							"type": "address"
						},
						{
							"indexed": true,
							"internalType": "uint256",
							"name": "txIndex",
							"type": "uint256"
						}
					],
					"name": "Customerregistration",
					"type": "event"
				},
				{
					"anonymous": false,
					"inputs": [
						{
							"indexed": true,
							"internalType": "address",
							"name": "reqsuet",
							"type": "address"
						},
						{
							"indexed": true,
							"internalType": "uint256",
							"name": "txindex",
							"type": "uint256"
						},
						{
							"indexed": false,
							"internalType": "uint256",
							"name": "amount",
							"type": "uint256"
						}
					],
					"name": "Lending",
					"type": "event"
				},
				{
					"anonymous": false,
					"inputs": [
						{
							"indexed": true,
							"internalType": "address",
							"name": "sender",
							"type": "address"
						},
						{
							"indexed": false,
							"internalType": "uint256",
							"name": "harvest",
							"type": "uint256"
						},
						{
							"indexed": false,
							"internalType": "uint256",
							"name": "balance",
							"type": "uint256"
						}
					],
					"name": "cashwithdrawal",
					"type": "event"
				},
				{
					"anonymous": false,
					"inputs": [
						{
							"indexed": true,
							"internalType": "address",
							"name": "sender",
							"type": "address"
						},
						{
							"indexed": false,
							"internalType": "uint256",
							"name": "amount",
							"type": "uint256"
						},
						{
							"indexed": false,
							"internalType": "uint256",
							"name": "balance",
							"type": "uint256"
						}
					],
					"name": "depvosit",
					"type": "event"
				},
				{
					"anonymous": false,
					"inputs": [
						{
							"indexed": true,
							"internalType": "address",
							"name": "sender",
							"type": "address"
						},
						{
							"indexed": true,
							"internalType": "address",
							"name": "receiver",
							"type": "address"
						},
						{
							"indexed": true,
							"internalType": "uint256",
							"name": "txindex",
							"type": "uint256"
						},
						{
							"indexed": false,
							"internalType": "uint256",
							"name": "amount",
							"type": "uint256"
						}
					],
					"name": "moneytransfer",
					"type": "event"
				},
				{
					"inputs": [
						{
							"internalType": "address",
							"name": "_to",
							"type": "address"
						},
						{
							"internalType": "uint256",
							"name": "_value",
							"type": "uint256"
						},
						{
							"internalType": "bytes",
							"name": "_data",
							"type": "bytes"
						},
						{
							"internalType": "uint256",
							"name": "time",
							"type": "uint256"
						},
						{
							"internalType": "uint256",
							"name": "_Operator",
							"type": "uint256"
						}
					],
					"name": "CustomerregistrationS",
					"outputs": [],
					"stateMutability": "nonpayable",
					"type": "function"
				},
				{
					"inputs": [
						{
							"internalType": "address",
							"name": "sender",
							"type": "address"
						},
						{
							"internalType": "address",
							"name": "receiver",
							"type": "address"
						},
						{
							"internalType": "uint256",
							"name": "amount",
							"type": "uint256"
						},
						{
							"internalType": "uint256",
							"name": "txIndex",
							"type": "uint256"
						},
						{
							"internalType": "uint256",
							"name": "_Operator",
							"type": "uint256"
						}
					],
					"name": "Moneytransfer",
					"outputs": [
						{
							"internalType": "bool",
							"name": "",
							"type": "bool"
						}
					],
					"stateMutability": "nonpayable",
					"type": "function"
				},
				{
					"inputs": [
						{
							"internalType": "uint256",
							"name": "",
							"type": "uint256"
						},
						{
							"internalType": "address",
							"name": "",
							"type": "address"
						}
					],
					"name": "Operator",
					"outputs": [
						{
							"internalType": "bool",
							"name": "",
							"type": "bool"
						}
					],
					"stateMutability": "view",
					"type": "function"
				},
				{
					"inputs": [
						{
							"internalType": "uint256",
							"name": "txIndex",
							"type": "uint256"
						},
						{
							"internalType": "bytes",
							"name": "data",
							"type": "bytes"
						}
					],
					"name": "cashwithdrawals",
					"outputs": [
						{
							"internalType": "bool",
							"name": "",
							"type": "bool"
						}
					],
					"stateMutability": "payable",
					"type": "function"
				},
				{
					"inputs": [
						{
							"internalType": "address",
							"name": "_to",
							"type": "address"
						},
						{
							"internalType": "uint256",
							"name": "_value",
							"type": "uint256"
						},
						{
							"internalType": "uint256",
							"name": "_nc",
							"type": "uint256"
						},
						{
							"internalType": "bytes",
							"name": "_data",
							"type": "bytes"
						},
						{
							"internalType": "bool",
							"name": "_Excuted",
							"type": "bool"
						},
						{
							"internalType": "enum Bsystem.status",
							"name": "_st",
							"type": "uint8"
						},
						{
							"internalType": "uint256",
							"name": "_time",
							"type": "uint256"
						},
						{
							"internalType": "uint256",
							"name": "_txIndex",
							"type": "uint256"
						},
						{
							"internalType": "uint256",
							"name": "_Operator",
							"type": "uint256"
						}
					],
					"name": "createtransation",
					"outputs": [],
					"stateMutability": "nonpayable",
					"type": "function"
				},
				{
					"inputs": [],
					"name": "getalltransactions",
					"outputs": [
						{
							"components": [
								{
									"internalType": "address",
									"name": "to",
									"type": "address"
								},
								{
									"internalType": "uint256",
									"name": "value",
									"type": "uint256"
								},
								{
									"internalType": "uint256",
									"name": "nc",
									"type": "uint256"
								},
								{
									"internalType": "bytes",
									"name": "data",
									"type": "bytes"
								},
								{
									"internalType": "bool",
									"name": "Executed",
									"type": "bool"
								},
								{
									"internalType": "enum Bsystem.status",
									"name": "st",
									"type": "uint8"
								},
								{
									"internalType": "uint256",
									"name": "time",
									"type": "uint256"
								},
								{
									"internalType": "uint256",
									"name": "txIndex",
									"type": "uint256"
								},
								{
									"internalType": "uint256",
									"name": "Operator",
									"type": "uint256"
								}
							],
							"internalType": "struct Bsystem.transaction[]",
							"name": "",
							"type": "tuple[]"
						}
					],
					"stateMutability": "view",
					"type": "function"
				},
				{
					"inputs": [
						{
							"internalType": "uint256",
							"name": "_txindex",
							"type": "uint256"
						}
					],
					"name": "gettransaction",
					"outputs": [
						{
							"internalType": "address",
							"name": "",
							"type": "address"
						},
						{
							"internalType": "uint256",
							"name": "",
							"type": "uint256"
						},
						{
							"internalType": "uint256",
							"name": "",
							"type": "uint256"
						},
						{
							"internalType": "bytes",
							"name": "",
							"type": "bytes"
						},
						{
							"internalType": "bool",
							"name": "",
							"type": "bool"
						}
					],
					"stateMutability": "view",
					"type": "function"
				},
				{
					"inputs": [
						{
							"internalType": "uint256",
							"name": "",
							"type": "uint256"
						},
						{
							"internalType": "address",
							"name": "",
							"type": "address"
						}
					],
					"name": "isconfirmed",
					"outputs": [
						{
							"internalType": "bool",
							"name": "",
							"type": "bool"
						}
					],
					"stateMutability": "view",
					"type": "function"
				},
				{
					"inputs": [
						{
							"internalType": "address",
							"name": "",
							"type": "address"
						}
					],
					"name": "isowner",
					"outputs": [
						{
							"internalType": "bool",
							"name": "",
							"type": "bool"
						}
					],
					"stateMutability": "view",
					"type": "function"
				},
				{
					"inputs": [
						{
							"internalType": "address",
							"name": "sender",
							"type": "address"
						},
						{
							"internalType": "bytes",
							"name": "data",
							"type": "bytes"
						},
						{
							"internalType": "uint256",
							"name": "amount",
							"type": "uint256"
						},
						{
							"internalType": "uint256",
							"name": "_txIndex",
							"type": "uint256"
						},
						{
							"internalType": "uint256",
							"name": "_Operator",
							"type": "uint256"
						}
					],
					"name": "lending",
					"outputs": [
						{
							"internalType": "bytes",
							"name": "_data",
							"type": "bytes"
						}
					],
					"stateMutability": "payable",
					"type": "function"
				},
				{
					"inputs": [],
					"name": "mostSent",
					"outputs": [
						{
							"internalType": "uint256",
							"name": "",
							"type": "uint256"
						}
					],
					"stateMutability": "view",
					"type": "function"
				},
				{
					"inputs": [],
					"name": "ncr",
					"outputs": [
						{
							"internalType": "uint256",
							"name": "",
							"type": "uint256"
						}
					],
					"stateMutability": "view",
					"type": "function"
				},
				{
					"inputs": [
						{
							"internalType": "uint256",
							"name": "",
							"type": "uint256"
						}
					],
					"name": "owners",
					"outputs": [
						{
							"internalType": "address",
							"name": "",
							"type": "address"
						}
					],
					"stateMutability": "view",
					"type": "function"
				},
				{
					"inputs": [],
					"name": "richest",
					"outputs": [
						{
							"internalType": "address",
							"name": "",
							"type": "address"
						}
					],
					"stateMutability": "view",
					"type": "function"
				},
				{
					"inputs": [
						{
							"internalType": "uint256",
							"name": "",
							"type": "uint256"
						}
					],
					"name": "transactions",
					"outputs": [
						{
							"internalType": "address",
							"name": "to",
							"type": "address"
						},
						{
							"internalType": "uint256",
							"name": "value",
							"type": "uint256"
						},
						{
							"internalType": "uint256",
							"name": "nc",
							"type": "uint256"
						},
						{
							"internalType": "bytes",
							"name": "data",
							"type": "bytes"
						},
						{
							"internalType": "bool",
							"name": "Executed",
							"type": "bool"
						},
						{
							"internalType": "enum Bsystem.status",
							"name": "st",
							"type": "uint8"
						},
						{
							"internalType": "uint256",
							"name": "time",
							"type": "uint256"
						},
						{
							"internalType": "uint256",
							"name": "txIndex",
							"type": "uint256"
						},
						{
							"internalType": "uint256",
							"name": "Operator",
							"type": "uint256"
						}
					],
					"stateMutability": "view",
					"type": "function"
				},
				{
					"stateMutability": "payable",
					"type": "receive"
				}
			],
			"devdoc": {
				"kind": "dev",
				"methods": {},
				"version": 1
			},
			"evm": {
				"assembly": "    /* \"bank.sol\":60:4634  contract Bsystem{... */\n  mstore(0x40, 0x80)\n    /* \"bank.sol\":2073:2333  constructor(address[]memory _owners , uint _ncr){... */\n  callvalue\n  dup1\n  iszero\n  tag_1\n  jumpi\n  0x00\n  dup1\n  revert\ntag_1:\n  pop\n  mload(0x40)\n  sub(codesize, bytecodeSize)\n  dup1\n  bytecodeSize\n  dup4\n  codecopy\n  dup2\n  dup2\n  add\n  0x40\n  mstore\n  dup2\n  add\n  swap1\n  tag_2\n  swap2\n  swap1\n  tag_3\n  jump\t// in\ntag_2:\n    /* \"bank.sol\":2149:2150  0 */\n  0x00\n    /* \"bank.sol\":2132:2139  _owners */\n  dup3\n    /* \"bank.sol\":2132:2146  _owners.length */\n  mload\n    /* \"bank.sol\":2132:2150  _owners.length > 0 */\n  gt\n    /* \"bank.sol\":2124:2151  require(_owners.length > 0) */\n  tag_6\n  jumpi\n  0x00\n  dup1\n  revert\ntag_6:\n    /* \"bank.sol\":2171:2178  _owners */\n  dup2\n    /* \"bank.sol\":2171:2185  _owners.length */\n  mload\n    /* \"bank.sol\":2163:2167  _ncr */\n  dup2\n    /* \"bank.sol\":2163:2185  _ncr <= _owners.length */\n  gt\n  iszero\n    /* \"bank.sol\":2163:2197  _ncr <= _owners.length && _ncr > 0 */\n  dup1\n  iszero\n  tag_7\n  jumpi\n  pop\n    /* \"bank.sol\":2196:2197  0 */\n  0x00\n    /* \"bank.sol\":2189:2193  _ncr */\n  dup2\n    /* \"bank.sol\":2189:2197  _ncr > 0 */\n  gt\n    /* \"bank.sol\":2163:2197  _ncr <= _owners.length && _ncr > 0 */\ntag_7:\n    /* \"bank.sol\":2154:2198  require (_ncr <= _owners.length && _ncr > 0) */\n  tag_8\n  jumpi\n  0x00\n  dup1\n  revert\ntag_8:\n    /* \"bank.sol\":2205:2211  uint i */\n  0x00\n    /* \"bank.sol\":2201:2317  for(uint i = 0 ; i < _owners.length ; i++){... */\ntag_9:\n    /* \"bank.sol\":2222:2229  _owners */\n  dup3\n    /* \"bank.sol\":2222:2236  _owners.length */\n  mload\n    /* \"bank.sol\":2218:2219  i */\n  dup2\n    /* \"bank.sol\":2218:2236  i < _owners.length */\n  lt\n    /* \"bank.sol\":2201:2317  for(uint i = 0 ; i < _owners.length ; i++){... */\n  iszero\n  tag_10\n  jumpi\n    /* \"bank.sol\":2259:2266  isowner */\n  0x01\n    /* \"bank.sol\":2259:2278  isowner[_owners[i]] */\n  0x00\n    /* \"bank.sol\":2267:2274  _owners */\n  dup5\n    /* \"bank.sol\":2275:2276  i */\n  dup4\n    /* \"bank.sol\":2267:2277  _owners[i] */\n  dup2\n  mload\n  dup2\n  lt\n  tag_12\n  jumpi\n  tag_13\n  tag_14\n  jump\t// in\ntag_13:\ntag_12:\n  0x20\n  mul\n  0x20\n  add\n  add\n  mload\n    /* \"bank.sol\":2259:2278  isowner[_owners[i]] */\n  0xffffffffffffffffffffffffffffffffffffffff\n  and\n  0xffffffffffffffffffffffffffffffffffffffff\n  and\n  dup2\n  mstore\n  0x20\n  add\n  swap1\n  dup2\n  mstore\n  0x20\n  add\n  0x00\n  keccak256\n  0x00\n  swap1\n  sload\n  swap1\n  0x0100\n  exp\n  swap1\n  div\n  0xff\n  and\n    /* \"bank.sol\":2258:2278  !isowner[_owners[i]] */\n  iszero\n    /* \"bank.sol\":2250:2279  require(!isowner[_owners[i]]) */\n  tag_15\n  jumpi\n  0x00\n  dup1\n  revert\ntag_15:\n    /* \"bank.sol\":2308:2312  true */\n  0x01\n    /* \"bank.sol\":2286:2293  isowner */\n  dup1\n    /* \"bank.sol\":2286:2305  isowner[_owners[i]] */\n  0x00\n    /* \"bank.sol\":2294:2301  _owners */\n  dup6\n    /* \"bank.sol\":2302:2303  i */\n  dup5\n    /* \"bank.sol\":2294:2304  _owners[i] */\n  dup2\n  mload\n  dup2\n  lt\n  tag_16\n  jumpi\n  tag_17\n  tag_14\n  jump\t// in\ntag_17:\ntag_16:\n  0x20\n  mul\n  0x20\n  add\n  add\n  mload\n    /* \"bank.sol\":2286:2305  isowner[_owners[i]] */\n  0xffffffffffffffffffffffffffffffffffffffff\n  and\n  0xffffffffffffffffffffffffffffffffffffffff\n  and\n  dup2\n  mstore\n  0x20\n  add\n  swap1\n  dup2\n  mstore\n  0x20\n  add\n  0x00\n  keccak256\n  0x00\n    /* \"bank.sol\":2286:2312  isowner[_owners[i]] = true */\n  0x0100\n  exp\n  dup2\n  sload\n  dup2\n  0xff\n  mul\n  not\n  and\n  swap1\n  dup4\n  iszero\n  iszero\n  mul\n  or\n  swap1\n  sstore\n  pop\n    /* \"bank.sol\":2239:2242  i++ */\n  dup1\n  dup1\n  tag_18\n  swap1\n  tag_19\n  jump\t// in\ntag_18:\n  swap2\n  pop\n  pop\n    /* \"bank.sol\":2201:2317  for(uint i = 0 ; i < _owners.length ; i++){... */\n  jump(tag_9)\ntag_10:\n  pop\n    /* \"bank.sol\":2325:2329  _ncr */\n  dup1\n    /* \"bank.sol\":2319:2322  ncr */\n  0x02\n    /* \"bank.sol\":2319:2329  ncr = _ncr */\n  dup2\n  swap1\n  sstore\n  pop\n    /* \"bank.sol\":2073:2333  constructor(address[]memory _owners , uint _ncr){... */\n  pop\n  pop\n    /* \"bank.sol\":60:4634  contract Bsystem{... */\n  jump(tag_20)\n    /* \"#utility.yul\":7:82   */\ntag_21:\n    /* \"#utility.yul\":40:46   */\n  0x00\n    /* \"#utility.yul\":73:75   */\n  0x40\n    /* \"#utility.yul\":67:76   */\n  mload\n    /* \"#utility.yul\":57:76   */\n  swap1\n  pop\n    /* \"#utility.yul\":7:82   */\n  swap1\n  jump\t// out\n    /* \"#utility.yul\":88:205   */\ntag_22:\n    /* \"#utility.yul\":197:198   */\n  0x00\n    /* \"#utility.yul\":194:195   */\n  dup1\n    /* \"#utility.yul\":187:199   */\n  revert\n    /* \"#utility.yul\":211:328   */\ntag_23:\n    /* \"#utility.yul\":320:321   */\n  0x00\n    /* \"#utility.yul\":317:318   */\n  dup1\n    /* \"#utility.yul\":310:322   */\n  revert\n    /* \"#utility.yul\":334:451   */\ntag_24:\n    /* \"#utility.yul\":443:444   */\n  0x00\n    /* \"#utility.yul\":440:441   */\n  dup1\n    /* \"#utility.yul\":433:445   */\n  revert\n    /* \"#utility.yul\":457:559   */\ntag_25:\n    /* \"#utility.yul\":498:504   */\n  0x00\n    /* \"#utility.yul\":549:551   */\n  0x1f\n    /* \"#utility.yul\":545:552   */\n  not\n    /* \"#utility.yul\":540:542   */\n  0x1f\n    /* \"#utility.yul\":533:538   */\n  dup4\n    /* \"#utility.yul\":529:543   */\n  add\n    /* \"#utility.yul\":525:553   */\n  and\n    /* \"#utility.yul\":515:553   */\n  swap1\n  pop\n    /* \"#utility.yul\":457:559   */\n  swap2\n  swap1\n  pop\n  jump\t// out\n    /* \"#utility.yul\":565:745   */\ntag_26:\n    /* \"#utility.yul\":613:690   */\n  0x4e487b7100000000000000000000000000000000000000000000000000000000\n    /* \"#utility.yul\":610:611   */\n  0x00\n    /* \"#utility.yul\":603:691   */\n  mstore\n    /* \"#utility.yul\":710:714   */\n  0x41\n    /* \"#utility.yul\":707:708   */\n  0x04\n    /* \"#utility.yul\":700:715   */\n  mstore\n    /* \"#utility.yul\":734:738   */\n  0x24\n    /* \"#utility.yul\":731:732   */\n  0x00\n    /* \"#utility.yul\":724:739   */\n  revert\n    /* \"#utility.yul\":751:1032   */\ntag_27:\n    /* \"#utility.yul\":834:861   */\n  tag_49\n    /* \"#utility.yul\":856:860   */\n  dup3\n    /* \"#utility.yul\":834:861   */\n  tag_25\n  jump\t// in\ntag_49:\n    /* \"#utility.yul\":826:832   */\n  dup2\n    /* \"#utility.yul\":822:862   */\n  add\n    /* \"#utility.yul\":964:970   */\n  dup2\n    /* \"#utility.yul\":952:962   */\n  dup2\n    /* \"#utility.yul\":949:971   */\n  lt\n    /* \"#utility.yul\":928:946   */\n  0xffffffffffffffff\n    /* \"#utility.yul\":916:926   */\n  dup3\n    /* \"#utility.yul\":913:947   */\n  gt\n    /* \"#utility.yul\":910:972   */\n  or\n    /* \"#utility.yul\":907:995   */\n  iszero\n  tag_50\n  jumpi\n    /* \"#utility.yul\":975:993   */\n  tag_51\n  tag_26\n  jump\t// in\ntag_51:\n    /* \"#utility.yul\":907:995   */\ntag_50:\n    /* \"#utility.yul\":1015:1025   */\n  dup1\n    /* \"#utility.yul\":1011:1013   */\n  0x40\n    /* \"#utility.yul\":1004:1026   */\n  mstore\n    /* \"#utility.yul\":794:1032   */\n  pop\n    /* \"#utility.yul\":751:1032   */\n  pop\n  pop\n  jump\t// out\n    /* \"#utility.yul\":1038:1167   */\ntag_28:\n    /* \"#utility.yul\":1072:1078   */\n  0x00\n    /* \"#utility.yul\":1099:1119   */\n  tag_53\n  tag_21\n  jump\t// in\ntag_53:\n    /* \"#utility.yul\":1089:1119   */\n  swap1\n  pop\n    /* \"#utility.yul\":1128:1161   */\n  tag_54\n    /* \"#utility.yul\":1156:1160   */\n  dup3\n    /* \"#utility.yul\":1148:1154   */\n  dup3\n    /* \"#utility.yul\":1128:1161   */\n  tag_27\n  jump\t// in\ntag_54:\n    /* \"#utility.yul\":1038:1167   */\n  swap2\n  swap1\n  pop\n  jump\t// out\n    /* \"#utility.yul\":1173:1484   */\ntag_29:\n    /* \"#utility.yul\":1250:1254   */\n  0x00\n    /* \"#utility.yul\":1340:1358   */\n  0xffffffffffffffff\n    /* \"#utility.yul\":1332:1338   */\n  dup3\n    /* \"#utility.yul\":1329:1359   */\n  gt\n    /* \"#utility.yul\":1326:1382   */\n  iszero\n  tag_56\n  jumpi\n    /* \"#utility.yul\":1362:1380   */\n  tag_57\n  tag_26\n  jump\t// in\ntag_57:\n    /* \"#utility.yul\":1326:1382   */\ntag_56:\n    /* \"#utility.yul\":1412:1416   */\n  0x20\n    /* \"#utility.yul\":1404:1410   */\n  dup3\n    /* \"#utility.yul\":1400:1417   */\n  mul\n    /* \"#utility.yul\":1392:1417   */\n  swap1\n  pop\n    /* \"#utility.yul\":1472:1476   */\n  0x20\n    /* \"#utility.yul\":1466:1470   */\n  dup2\n    /* \"#utility.yul\":1462:1477   */\n  add\n    /* \"#utility.yul\":1454:1477   */\n  swap1\n  pop\n    /* \"#utility.yul\":1173:1484   */\n  swap2\n  swap1\n  pop\n  jump\t// out\n    /* \"#utility.yul\":1490:1607   */\ntag_30:\n    /* \"#utility.yul\":1599:1600   */\n  0x00\n    /* \"#utility.yul\":1596:1597   */\n  dup1\n    /* \"#utility.yul\":1589:1601   */\n  revert\n    /* \"#utility.yul\":1613:1739   */\ntag_31:\n    /* \"#utility.yul\":1650:1657   */\n  0x00\n    /* \"#utility.yul\":1690:1732   */\n  0xffffffffffffffffffffffffffffffffffffffff\n    /* \"#utility.yul\":1683:1688   */\n  dup3\n    /* \"#utility.yul\":1679:1733   */\n  and\n    /* \"#utility.yul\":1668:1733   */\n  swap1\n  pop\n    /* \"#utility.yul\":1613:1739   */\n  swap2\n  swap1\n  pop\n  jump\t// out\n    /* \"#utility.yul\":1745:1841   */\ntag_32:\n    /* \"#utility.yul\":1782:1789   */\n  0x00\n    /* \"#utility.yul\":1811:1835   */\n  tag_61\n    /* \"#utility.yul\":1829:1834   */\n  dup3\n    /* \"#utility.yul\":1811:1835   */\n  tag_31\n  jump\t// in\ntag_61:\n    /* \"#utility.yul\":1800:1835   */\n  swap1\n  pop\n    /* \"#utility.yul\":1745:1841   */\n  swap2\n  swap1\n  pop\n  jump\t// out\n    /* \"#utility.yul\":1847:1969   */\ntag_33:\n    /* \"#utility.yul\":1920:1944   */\n  tag_63\n    /* \"#utility.yul\":1938:1943   */\n  dup2\n    /* \"#utility.yul\":1920:1944   */\n  tag_32\n  jump\t// in\ntag_63:\n    /* \"#utility.yul\":1913:1918   */\n  dup2\n    /* \"#utility.yul\":1910:1945   */\n  eq\n    /* \"#utility.yul\":1900:1963   */\n  tag_64\n  jumpi\n    /* \"#utility.yul\":1959:1960   */\n  0x00\n    /* \"#utility.yul\":1956:1957   */\n  dup1\n    /* \"#utility.yul\":1949:1961   */\n  revert\n    /* \"#utility.yul\":1900:1963   */\ntag_64:\n    /* \"#utility.yul\":1847:1969   */\n  pop\n  jump\t// out\n    /* \"#utility.yul\":1975:2118   */\ntag_34:\n    /* \"#utility.yul\":2032:2037   */\n  0x00\n    /* \"#utility.yul\":2063:2069   */\n  dup2\n    /* \"#utility.yul\":2057:2070   */\n  mload\n    /* \"#utility.yul\":2048:2070   */\n  swap1\n  pop\n    /* \"#utility.yul\":2079:2112   */\n  tag_66\n    /* \"#utility.yul\":2106:2111   */\n  dup2\n    /* \"#utility.yul\":2079:2112   */\n  tag_33\n  jump\t// in\ntag_66:\n    /* \"#utility.yul\":1975:2118   */\n  swap3\n  swap2\n  pop\n  pop\n  jump\t// out\n    /* \"#utility.yul\":2141:2873   */\ntag_35:\n    /* \"#utility.yul\":2248:2253   */\n  0x00\n    /* \"#utility.yul\":2273:2354   */\n  tag_68\n    /* \"#utility.yul\":2289:2353   */\n  tag_69\n    /* \"#utility.yul\":2346:2352   */\n  dup5\n    /* \"#utility.yul\":2289:2353   */\n  tag_29\n  jump\t// in\ntag_69:\n    /* \"#utility.yul\":2273:2354   */\n  tag_28\n  jump\t// in\ntag_68:\n    /* \"#utility.yul\":2264:2354   */\n  swap1\n  pop\n    /* \"#utility.yul\":2374:2379   */\n  dup1\n    /* \"#utility.yul\":2403:2409   */\n  dup4\n    /* \"#utility.yul\":2396:2401   */\n  dup3\n    /* \"#utility.yul\":2389:2410   */\n  mstore\n    /* \"#utility.yul\":2437:2441   */\n  0x20\n    /* \"#utility.yul\":2430:2435   */\n  dup3\n    /* \"#utility.yul\":2426:2442   */\n  add\n    /* \"#utility.yul\":2419:2442   */\n  swap1\n  pop\n    /* \"#utility.yul\":2490:2494   */\n  0x20\n    /* \"#utility.yul\":2482:2488   */\n  dup5\n    /* \"#utility.yul\":2478:2495   */\n  mul\n    /* \"#utility.yul\":2470:2476   */\n  dup4\n    /* \"#utility.yul\":2466:2496   */\n  add\n    /* \"#utility.yul\":2519:2522   */\n  dup6\n    /* \"#utility.yul\":2511:2517   */\n  dup2\n    /* \"#utility.yul\":2508:2523   */\n  gt\n    /* \"#utility.yul\":2505:2627   */\n  iszero\n  tag_70\n  jumpi\n    /* \"#utility.yul\":2538:2617   */\n  tag_71\n  tag_30\n  jump\t// in\ntag_71:\n    /* \"#utility.yul\":2505:2627   */\ntag_70:\n    /* \"#utility.yul\":2653:2659   */\n  dup4\n    /* \"#utility.yul\":2636:2867   */\ntag_72:\n    /* \"#utility.yul\":2670:2676   */\n  dup2\n    /* \"#utility.yul\":2665:2668   */\n  dup2\n    /* \"#utility.yul\":2662:2677   */\n  lt\n    /* \"#utility.yul\":2636:2867   */\n  iszero\n  tag_74\n  jumpi\n    /* \"#utility.yul\":2745:2748   */\n  dup1\n    /* \"#utility.yul\":2774:2822   */\n  tag_75\n    /* \"#utility.yul\":2818:2821   */\n  dup9\n    /* \"#utility.yul\":2806:2816   */\n  dup3\n    /* \"#utility.yul\":2774:2822   */\n  tag_34\n  jump\t// in\ntag_75:\n    /* \"#utility.yul\":2769:2772   */\n  dup5\n    /* \"#utility.yul\":2762:2823   */\n  mstore\n    /* \"#utility.yul\":2852:2856   */\n  0x20\n    /* \"#utility.yul\":2847:2850   */\n  dup5\n    /* \"#utility.yul\":2843:2857   */\n  add\n    /* \"#utility.yul\":2836:2857   */\n  swap4\n  pop\n    /* \"#utility.yul\":2712:2867   */\n  pop\n    /* \"#utility.yul\":2696:2700   */\n  0x20\n    /* \"#utility.yul\":2691:2694   */\n  dup2\n    /* \"#utility.yul\":2687:2701   */\n  add\n    /* \"#utility.yul\":2680:2701   */\n  swap1\n  pop\n    /* \"#utility.yul\":2636:2867   */\n  jump(tag_72)\ntag_74:\n    /* \"#utility.yul\":2640:2661   */\n  pop\n    /* \"#utility.yul\":2254:2873   */\n  pop\n  pop\n    /* \"#utility.yul\":2141:2873   */\n  swap4\n  swap3\n  pop\n  pop\n  pop\n  jump\t// out\n    /* \"#utility.yul\":2896:3281   */\ntag_36:\n    /* \"#utility.yul\":2978:2983   */\n  0x00\n    /* \"#utility.yul\":3027:3030   */\n  dup3\n    /* \"#utility.yul\":3020:3024   */\n  0x1f\n    /* \"#utility.yul\":3012:3018   */\n  dup4\n    /* \"#utility.yul\":3008:3025   */\n  add\n    /* \"#utility.yul\":3004:3031   */\n  slt\n    /* \"#utility.yul\":2994:3116   */\n  tag_77\n  jumpi\n    /* \"#utility.yul\":3035:3114   */\n  tag_78\n  tag_24\n  jump\t// in\ntag_78:\n    /* \"#utility.yul\":2994:3116   */\ntag_77:\n    /* \"#utility.yul\":3145:3151   */\n  dup2\n    /* \"#utility.yul\":3139:3152   */\n  mload\n    /* \"#utility.yul\":3170:3275   */\n  tag_79\n    /* \"#utility.yul\":3271:3274   */\n  dup5\n    /* \"#utility.yul\":3263:3269   */\n  dup3\n    /* \"#utility.yul\":3256:3260   */\n  0x20\n    /* \"#utility.yul\":3248:3254   */\n  dup7\n    /* \"#utility.yul\":3244:3261   */\n  add\n    /* \"#utility.yul\":3170:3275   */\n  tag_35\n  jump\t// in\ntag_79:\n    /* \"#utility.yul\":3161:3275   */\n  swap2\n  pop\n    /* \"#utility.yul\":2984:3281   */\n  pop\n    /* \"#utility.yul\":2896:3281   */\n  swap3\n  swap2\n  pop\n  pop\n  jump\t// out\n    /* \"#utility.yul\":3287:3364   */\ntag_37:\n    /* \"#utility.yul\":3324:3331   */\n  0x00\n    /* \"#utility.yul\":3353:3358   */\n  dup2\n    /* \"#utility.yul\":3342:3358   */\n  swap1\n  pop\n    /* \"#utility.yul\":3287:3364   */\n  swap2\n  swap1\n  pop\n  jump\t// out\n    /* \"#utility.yul\":3370:3492   */\ntag_38:\n    /* \"#utility.yul\":3443:3467   */\n  tag_82\n    /* \"#utility.yul\":3461:3466   */\n  dup2\n    /* \"#utility.yul\":3443:3467   */\n  tag_37\n  jump\t// in\ntag_82:\n    /* \"#utility.yul\":3436:3441   */\n  dup2\n    /* \"#utility.yul\":3433:3468   */\n  eq\n    /* \"#utility.yul\":3423:3486   */\n  tag_83\n  jumpi\n    /* \"#utility.yul\":3482:3483   */\n  0x00\n    /* \"#utility.yul\":3479:3480   */\n  dup1\n    /* \"#utility.yul\":3472:3484   */\n  revert\n    /* \"#utility.yul\":3423:3486   */\ntag_83:\n    /* \"#utility.yul\":3370:3492   */\n  pop\n  jump\t// out\n    /* \"#utility.yul\":3498:3641   */\ntag_39:\n    /* \"#utility.yul\":3555:3560   */\n  0x00\n    /* \"#utility.yul\":3586:3592   */\n  dup2\n    /* \"#utility.yul\":3580:3593   */\n  mload\n    /* \"#utility.yul\":3571:3593   */\n  swap1\n  pop\n    /* \"#utility.yul\":3602:3635   */\n  tag_85\n    /* \"#utility.yul\":3629:3634   */\n  dup2\n    /* \"#utility.yul\":3602:3635   */\n  tag_38\n  jump\t// in\ntag_85:\n    /* \"#utility.yul\":3498:3641   */\n  swap3\n  swap2\n  pop\n  pop\n  jump\t// out\n    /* \"#utility.yul\":3647:4357   */\ntag_3:\n    /* \"#utility.yul\":3751:3757   */\n  0x00\n    /* \"#utility.yul\":3759:3765   */\n  dup1\n    /* \"#utility.yul\":3808:3810   */\n  0x40\n    /* \"#utility.yul\":3796:3805   */\n  dup4\n    /* \"#utility.yul\":3787:3794   */\n  dup6\n    /* \"#utility.yul\":3783:3806   */\n  sub\n    /* \"#utility.yul\":3779:3811   */\n  slt\n    /* \"#utility.yul\":3776:3895   */\n  iszero\n  tag_87\n  jumpi\n    /* \"#utility.yul\":3814:3893   */\n  tag_88\n  tag_22\n  jump\t// in\ntag_88:\n    /* \"#utility.yul\":3776:3895   */\ntag_87:\n    /* \"#utility.yul\":3955:3956   */\n  0x00\n    /* \"#utility.yul\":3944:3953   */\n  dup4\n    /* \"#utility.yul\":3940:3957   */\n  add\n    /* \"#utility.yul\":3934:3958   */\n  mload\n    /* \"#utility.yul\":3985:4003   */\n  0xffffffffffffffff\n    /* \"#utility.yul\":3977:3983   */\n  dup2\n    /* \"#utility.yul\":3974:4004   */\n  gt\n    /* \"#utility.yul\":3971:4088   */\n  iszero\n  tag_89\n  jumpi\n    /* \"#utility.yul\":4007:4086   */\n  tag_90\n  tag_23\n  jump\t// in\ntag_90:\n    /* \"#utility.yul\":3971:4088   */\ntag_89:\n    /* \"#utility.yul\":4112:4201   */\n  tag_91\n    /* \"#utility.yul\":4193:4200   */\n  dup6\n    /* \"#utility.yul\":4184:4190   */\n  dup3\n    /* \"#utility.yul\":4173:4182   */\n  dup7\n    /* \"#utility.yul\":4169:4191   */\n  add\n    /* \"#utility.yul\":4112:4201   */\n  tag_36\n  jump\t// in\ntag_91:\n    /* \"#utility.yul\":4102:4201   */\n  swap3\n  pop\n    /* \"#utility.yul\":3905:4211   */\n  pop\n    /* \"#utility.yul\":4250:4252   */\n  0x20\n    /* \"#utility.yul\":4276:4340   */\n  tag_92\n    /* \"#utility.yul\":4332:4339   */\n  dup6\n    /* \"#utility.yul\":4323:4329   */\n  dup3\n    /* \"#utility.yul\":4312:4321   */\n  dup7\n    /* \"#utility.yul\":4308:4330   */\n  add\n    /* \"#utility.yul\":4276:4340   */\n  tag_39\n  jump\t// in\ntag_92:\n    /* \"#utility.yul\":4266:4340   */\n  swap2\n  pop\n    /* \"#utility.yul\":4221:4350   */\n  pop\n    /* \"#utility.yul\":3647:4357   */\n  swap3\n  pop\n  swap3\n  swap1\n  pop\n  jump\t// out\n    /* \"#utility.yul\":4363:4543   */\ntag_14:\n    /* \"#utility.yul\":4411:4488   */\n  0x4e487b7100000000000000000000000000000000000000000000000000000000\n    /* \"#utility.yul\":4408:4409   */\n  0x00\n    /* \"#utility.yul\":4401:4489   */\n  mstore\n    /* \"#utility.yul\":4508:4512   */\n  0x32\n    /* \"#utility.yul\":4505:4506   */\n  0x04\n    /* \"#utility.yul\":4498:4513   */\n  mstore\n    /* \"#utility.yul\":4532:4536   */\n  0x24\n    /* \"#utility.yul\":4529:4530   */\n  0x00\n    /* \"#utility.yul\":4522:4537   */\n  revert\n    /* \"#utility.yul\":4549:4729   */\ntag_40:\n    /* \"#utility.yul\":4597:4674   */\n  0x4e487b7100000000000000000000000000000000000000000000000000000000\n    /* \"#utility.yul\":4594:4595   */\n  0x00\n    /* \"#utility.yul\":4587:4675   */\n  mstore\n    /* \"#utility.yul\":4694:4698   */\n  0x11\n    /* \"#utility.yul\":4691:4692   */\n  0x04\n    /* \"#utility.yul\":4684:4699   */\n  mstore\n    /* \"#utility.yul\":4718:4722   */\n  0x24\n    /* \"#utility.yul\":4715:4716   */\n  0x00\n    /* \"#utility.yul\":4708:4723   */\n  revert\n    /* \"#utility.yul\":4735:4968   */\ntag_19:\n    /* \"#utility.yul\":4774:4777   */\n  0x00\n    /* \"#utility.yul\":4797:4821   */\n  tag_96\n    /* \"#utility.yul\":4815:4820   */\n  dup3\n    /* \"#utility.yul\":4797:4821   */\n  tag_37\n  jump\t// in\ntag_96:\n    /* \"#utility.yul\":4788:4821   */\n  swap2\n  pop\n    /* \"#utility.yul\":4843:4909   */\n  0xffffffffffffffffffffffffffffffffffffffffffffffffffffffffffffffff\n    /* \"#utility.yul\":4836:4841   */\n  dup3\n    /* \"#utility.yul\":4833:4910   */\n  sub\n    /* \"#utility.yul\":4830:4933   */\n  tag_97\n  jumpi\n    /* \"#utility.yul\":4913:4931   */\n  tag_98\n  tag_40\n  jump\t// in\ntag_98:\n    /* \"#utility.yul\":4830:4933   */\ntag_97:\n    /* \"#utility.yul\":4960:4961   */\n  0x01\n    /* \"#utility.yul\":4953:4958   */\n  dup3\n    /* \"#utility.yul\":4949:4962   */\n  add\n    /* \"#utility.yul\":4942:4962   */\n  swap1\n  pop\n    /* \"#utility.yul\":4735:4968   */\n  swap2\n  swap1\n  pop\n  jump\t// out\n    /* \"bank.sol\":60:4634  contract Bsystem{... */\ntag_20:\n  dataSize(sub_0)\n  dup1\n  dataOffset(sub_0)\n  0x00\n  codecopy\n  0x00\n  return\nstop\n\nsub_0: assembly {\n        /* \"bank.sol\":60:4634  contract Bsystem{... */\n      mstore(0x40, 0x80)\n      jumpi(tag_1, lt(calldatasize, 0x04))\n      shr(0xe0, calldataload(0x00))\n      dup1\n      0x6886bf1c\n      gt\n      tag_18\n      jumpi\n      dup1\n      0x96431ac1\n      gt\n      tag_19\n      jumpi\n      dup1\n      0x96431ac1\n      eq\n      tag_14\n      jumpi\n      dup1\n      0x9ace38c2\n      eq\n      tag_15\n      jumpi\n      dup1\n      0xda117076\n      eq\n      tag_16\n      jumpi\n      dup1\n      0xee3aba3b\n      eq\n      tag_17\n      jumpi\n      jump(tag_2)\n    tag_19:\n      dup1\n      0x6886bf1c\n      eq\n      tag_10\n      jumpi\n      dup1\n      0x738dbfa6\n      eq\n      tag_11\n      jumpi\n      dup1\n      0x80f0660e\n      eq\n      tag_12\n      jumpi\n      dup1\n      0x95564f98\n      eq\n      tag_13\n      jumpi\n      jump(tag_2)\n    tag_18:\n      dup1\n      0x29028396\n      gt\n      tag_20\n      jumpi\n      dup1\n      0x29028396\n      eq\n      tag_6\n      jumpi\n      dup1\n      0x45c9711f\n      eq\n      tag_7\n      jumpi\n      dup1\n      0x47767f60\n      eq\n      tag_8\n      jumpi\n      dup1\n      0x4c9c7af3\n      eq\n      tag_9\n      jumpi\n      jump(tag_2)\n    tag_20:\n      dup1\n      0x025e7c27\n      eq\n      tag_3\n      jumpi\n      dup1\n      0x02e26c38\n      eq\n      tag_4\n      jumpi\n      dup1\n      0x1b1e9baf\n      eq\n      tag_5\n      jumpi\n      jump(tag_2)\n    tag_1:\n      jumpi(tag_2, calldatasize)\n        /* \"bank.sol\":2383:2393  msg.sender */\n      caller\n        /* \"bank.sol\":2374:2430  depvosit(msg.sender , msg.value , address(this).balance) */\n      0xffffffffffffffffffffffffffffffffffffffff\n      and\n      0xb2d76cdf014a6584242c959b3572a48590438ddef329d378249cdfaa97cf7147\n        /* \"bank.sol\":2396:2405  msg.value */\n      callvalue\n        /* \"bank.sol\":2408:2429  address(this).balance */\n      selfbalance\n        /* \"bank.sol\":2374:2430  depvosit(msg.sender , msg.value , address(this).balance) */\n      mload(0x40)\n      tag_23\n      swap3\n      swap2\n      swap1\n      tag_24\n      jump\t// in\n    tag_23:\n      mload(0x40)\n      dup1\n      swap2\n      sub\n      swap1\n      log2\n        /* \"bank.sol\":60:4634  contract Bsystem{... */\n      stop\n    tag_2:\n      0x00\n      dup1\n      revert\n        /* \"bank.sol\":537:559  address[]public owners */\n    tag_3:\n      callvalue\n      dup1\n      iszero\n      tag_25\n      jumpi\n      0x00\n      dup1\n      revert\n    tag_25:\n      pop\n      tag_26\n      0x04\n      dup1\n      calldatasize\n      sub\n      dup2\n      add\n      swap1\n      tag_27\n      swap2\n      swap1\n      tag_28\n      jump\t// in\n    tag_27:\n      tag_29\n      jump\t// in\n    tag_26:\n      mload(0x40)\n      tag_30\n      swap2\n      swap1\n      tag_31\n      jump\t// in\n    tag_30:\n      mload(0x40)\n      dup1\n      swap2\n      sub\n      swap1\n      return\n        /* \"bank.sol\":632:654  address public richest */\n    tag_4:\n      callvalue\n      dup1\n      iszero\n      tag_32\n      jumpi\n      0x00\n      dup1\n      revert\n    tag_32:\n      pop\n      tag_33\n      tag_34\n      jump\t// in\n    tag_33:\n      mload(0x40)\n      tag_35\n      swap2\n      swap1\n      tag_31\n      jump\t// in\n    tag_35:\n      mload(0x40)\n      dup1\n      swap2\n      sub\n      swap1\n      return\n        /* \"bank.sol\":789:1070  function createtransation(address _to , uint _value , uint _nc , bytes calldata _data , bool _Excuted , status _st , uint _time , uint _txIndex ,uint _Operator)public{... */\n    tag_5:\n      callvalue\n      dup1\n      iszero\n      tag_36\n      jumpi\n      0x00\n      dup1\n      revert\n    tag_36:\n      pop\n      tag_37\n      0x04\n      dup1\n      calldatasize\n      sub\n      dup2\n      add\n      swap1\n      tag_38\n      swap2\n      swap1\n      tag_39\n      jump\t// in\n    tag_38:\n      tag_40\n      jump\t// in\n    tag_37:\n      stop\n        /* \"bank.sol\":3440:3884  function  lending(address sender , bytes calldata data ,uint amount , uint _txIndex ,uint _Operator)public payable returns(bytes memory _data){... */\n    tag_6:\n      tag_41\n      0x04\n      dup1\n      calldatasize\n      sub\n      dup2\n      add\n      swap1\n      tag_42\n      swap2\n      swap1\n      tag_43\n      jump\t// in\n    tag_42:\n      tag_44\n      jump\t// in\n    tag_41:\n      mload(0x40)\n      tag_45\n      swap2\n      swap1\n      tag_46\n      jump\t// in\n    tag_45:\n      mload(0x40)\n      dup1\n      swap2\n      sub\n      swap1\n      return\n        /* \"bank.sol\":566:603  mapping(address=> bool)public isowner */\n    tag_7:\n      callvalue\n      dup1\n      iszero\n      tag_47\n      jumpi\n      0x00\n      dup1\n      revert\n    tag_47:\n      pop\n      tag_48\n      0x04\n      dup1\n      calldatasize\n      sub\n      dup2\n      add\n      swap1\n      tag_49\n      swap2\n      swap1\n      tag_50\n      jump\t// in\n    tag_49:\n      tag_51\n      jump\t// in\n    tag_48:\n      mload(0x40)\n      tag_52\n      swap2\n      swap1\n      tag_53\n      jump\t// in\n    tag_52:\n      mload(0x40)\n      dup1\n      swap2\n      sub\n      swap1\n      return\n        /* \"bank.sol\":1074:1178  function getalltransactions()public view returns(transaction[] memory){... */\n    tag_8:\n      callvalue\n      dup1\n      iszero\n      tag_54\n      jumpi\n      0x00\n      dup1\n      revert\n    tag_54:\n      pop\n      tag_55\n      tag_56\n      jump\t// in\n    tag_55:\n      mload(0x40)\n      tag_57\n      swap2\n      swap1\n      tag_58\n      jump\t// in\n    tag_57:\n      mload(0x40)\n      dup1\n      swap2\n      sub\n      swap1\n      return\n        /* \"bank.sol\":1408:1464  mapping(uint =>mapping(address=>bool))public isconfirmed */\n    tag_9:\n      callvalue\n      dup1\n      iszero\n      tag_59\n      jumpi\n      0x00\n      dup1\n      revert\n    tag_59:\n      pop\n      tag_60\n      0x04\n      dup1\n      calldatasize\n      sub\n      dup2\n      add\n      swap1\n      tag_61\n      swap2\n      swap1\n      tag_62\n      jump\t// in\n    tag_61:\n      tag_63\n      jump\t// in\n    tag_60:\n      mload(0x40)\n      tag_64\n      swap2\n      swap1\n      tag_53\n      jump\t// in\n    tag_64:\n      mload(0x40)\n      dup1\n      swap2\n      sub\n      swap1\n      return\n        /* \"bank.sol\":661:681  uint public mostSent */\n    tag_10:\n      callvalue\n      dup1\n      iszero\n      tag_65\n      jumpi\n      0x00\n      dup1\n      revert\n    tag_65:\n      pop\n      tag_66\n      tag_67\n      jump\t// in\n    tag_66:\n      mload(0x40)\n      tag_68\n      swap2\n      swap1\n      tag_69\n      jump\t// in\n    tag_68:\n      mload(0x40)\n      dup1\n      swap2\n      sub\n      swap1\n      return\n        /* \"bank.sol\":610:625  uint public ncr */\n    tag_11:\n      callvalue\n      dup1\n      iszero\n      tag_70\n      jumpi\n      0x00\n      dup1\n      revert\n    tag_70:\n      pop\n      tag_71\n      tag_72\n      jump\t// in\n    tag_71:\n      mload(0x40)\n      tag_73\n      swap2\n      swap1\n      tag_69\n      jump\t// in\n    tag_73:\n      mload(0x40)\n      dup1\n      swap2\n      sub\n      swap1\n      return\n        /* \"bank.sol\":3888:4334  function Moneytransfer(address sender, address receiver, uint256 amount , uint txIndex , uint _Operator) external returns (bool) {... */\n    tag_12:\n      callvalue\n      dup1\n      iszero\n      tag_74\n      jumpi\n      0x00\n      dup1\n      revert\n    tag_74:\n      pop\n      tag_75\n      0x04\n      dup1\n      calldatasize\n      sub\n      dup2\n      add\n      swap1\n      tag_76\n      swap2\n      swap1\n      tag_77\n      jump\t// in\n    tag_76:\n      tag_78\n      jump\t// in\n    tag_75:\n      mload(0x40)\n      tag_79\n      swap2\n      swap1\n      tag_53\n      jump\t// in\n    tag_79:\n      mload(0x40)\n      dup1\n      swap2\n      sub\n      swap1\n      return\n        /* \"bank.sol\":2438:3044  function CustomerregistrationS(address _to , uint _value , bytes memory _data , uint time , uint _Operator)public onlyowner{... */\n    tag_13:\n      callvalue\n      dup1\n      iszero\n      tag_80\n      jumpi\n      0x00\n      dup1\n      revert\n    tag_80:\n      pop\n      tag_81\n      0x04\n      dup1\n      calldatasize\n      sub\n      dup2\n      add\n      swap1\n      tag_82\n      swap2\n      swap1\n      tag_83\n      jump\t// in\n    tag_82:\n      tag_84\n      jump\t// in\n    tag_81:\n      stop\n        /* \"bank.sol\":4338:4623  function gettransaction(uint _txindex)public view returns(address , uint , uint , bytes memory , bool){... */\n    tag_14:\n      callvalue\n      dup1\n      iszero\n      tag_85\n      jumpi\n      0x00\n      dup1\n      revert\n    tag_85:\n      pop\n      tag_86\n      0x04\n      dup1\n      calldatasize\n      sub\n      dup2\n      add\n      swap1\n      tag_87\n      swap2\n      swap1\n      tag_28\n      jump\t// in\n    tag_87:\n      tag_88\n      jump\t// in\n    tag_86:\n      mload(0x40)\n      tag_89\n      swap6\n      swap5\n      swap4\n      swap3\n      swap2\n      swap1\n      tag_90\n      jump\t// in\n    tag_89:\n      mload(0x40)\n      dup1\n      swap2\n      sub\n      swap1\n      return\n        /* \"bank.sol\":1581:1613  transaction[]public transactions */\n    tag_15:\n      callvalue\n      dup1\n      iszero\n      tag_91\n      jumpi\n      0x00\n      dup1\n      revert\n    tag_91:\n      pop\n      tag_92\n      0x04\n      dup1\n      calldatasize\n      sub\n      dup2\n      add\n      swap1\n      tag_93\n      swap2\n      swap1\n      tag_28\n      jump\t// in\n    tag_93:\n      tag_94\n      jump\t// in\n    tag_92:\n      mload(0x40)\n      tag_95\n      swap10\n      swap9\n      swap8\n      swap7\n      swap6\n      swap5\n      swap4\n      swap3\n      swap2\n      swap1\n      tag_96\n      jump\t// in\n    tag_95:\n      mload(0x40)\n      dup1\n      swap2\n      sub\n      swap1\n      return\n        /* \"bank.sol\":3047:3437  function cashwithdrawals(uint txIndex , bytes memory data)public payable returns(bool ){... */\n    tag_16:\n      tag_97\n      0x04\n      dup1\n      calldatasize\n      sub\n      dup2\n      add\n      swap1\n      tag_98\n      swap2\n      swap1\n      tag_99\n      jump\t// in\n    tag_98:\n      tag_100\n      jump\t// in\n    tag_97:\n      mload(0x40)\n      tag_101\n      swap2\n      swap1\n      tag_53\n      jump\t// in\n    tag_101:\n      mload(0x40)\n      dup1\n      swap2\n      sub\n      swap1\n      return\n        /* \"bank.sol\":1472:1525  mapping(uint =>mapping(address=>bool))public Operator */\n    tag_17:\n      callvalue\n      dup1\n      iszero\n      tag_102\n      jumpi\n      0x00\n      dup1\n      revert\n    tag_102:\n      pop\n      tag_103\n      0x04\n      dup1\n      calldatasize\n      sub\n      dup2\n      add\n      swap1\n      tag_104\n      swap2\n      swap1\n      tag_62\n      jump\t// in\n    tag_104:\n      tag_105\n      jump\t// in\n    tag_103:\n      mload(0x40)\n      tag_106\n      swap2\n      swap1\n      tag_53\n      jump\t// in\n    tag_106:\n      mload(0x40)\n      dup1\n      swap2\n      sub\n      swap1\n      return\n        /* \"bank.sol\":537:559  address[]public owners */\n    tag_29:\n      0x00\n      dup2\n      dup2\n      sload\n      dup2\n      lt\n      tag_107\n      jumpi\n      0x00\n      dup1\n      revert\n    tag_107:\n      swap1\n      0x00\n      mstore\n      keccak256(0x00, 0x20)\n      add\n      0x00\n      swap2\n      pop\n      sload\n      swap1\n      0x0100\n      exp\n      swap1\n      div\n      0xffffffffffffffffffffffffffffffffffffffff\n      and\n      dup2\n      jump\t// out\n        /* \"bank.sol\":632:654  address public richest */\n    tag_34:\n      0x03\n      0x00\n      swap1\n      sload\n      swap1\n      0x0100\n      exp\n      swap1\n      div\n      0xffffffffffffffffffffffffffffffffffffffff\n      and\n      dup2\n      jump\t// out\n        /* \"bank.sol\":789:1070  function createtransation(address _to , uint _value , uint _nc , bytes calldata _data , bool _Excuted , status _st , uint _time , uint _txIndex ,uint _Operator)public{... */\n    tag_40:\n        /* \"bank.sol\":958:970  transactions */\n      0x09\n        /* \"bank.sol\":976:1063  transaction(_to , _value , _nc , _data , _Excuted , _st , _time , _txIndex , _Operator) */\n      mload(0x40)\n      dup1\n      0x0120\n      add\n      0x40\n      mstore\n      dup1\n        /* \"bank.sol\":988:991  _to */\n      dup13\n        /* \"bank.sol\":976:1063  transaction(_to , _value , _nc , _data , _Excuted , _st , _time , _txIndex , _Operator) */\n      0xffffffffffffffffffffffffffffffffffffffff\n      and\n      dup2\n      mstore\n      0x20\n      add\n        /* \"bank.sol\":994:1000  _value */\n      dup12\n        /* \"bank.sol\":976:1063  transaction(_to , _value , _nc , _data , _Excuted , _st , _time , _txIndex , _Operator) */\n      dup2\n      mstore\n      0x20\n      add\n        /* \"bank.sol\":1003:1006  _nc */\n      dup11\n        /* \"bank.sol\":976:1063  transaction(_to , _value , _nc , _data , _Excuted , _st , _time , _txIndex , _Operator) */\n      dup2\n      mstore\n      0x20\n      add\n        /* \"bank.sol\":1009:1014  _data */\n      dup10\n      dup10\n        /* \"bank.sol\":976:1063  transaction(_to , _value , _nc , _data , _Excuted , _st , _time , _txIndex , _Operator) */\n      dup1\n      dup1\n      0x1f\n      add\n      0x20\n      dup1\n      swap2\n      div\n      mul\n      0x20\n      add\n      mload(0x40)\n      swap1\n      dup2\n      add\n      0x40\n      mstore\n      dup1\n      swap4\n      swap3\n      swap2\n      swap1\n      dup2\n      dup2\n      mstore\n      0x20\n      add\n      dup4\n      dup4\n      dup1\n      dup3\n      dup5\n      calldatacopy\n      0x00\n      dup2\n      dup5\n      add\n      mstore\n      not(0x1f)\n      0x1f\n      dup3\n      add\n      and\n      swap1\n      pop\n      dup1\n      dup4\n      add\n      swap3\n      pop\n      pop\n      pop\n      pop\n      pop\n      pop\n      pop\n      dup2\n      mstore\n      0x20\n      add\n        /* \"bank.sol\":1017:1025  _Excuted */\n      dup8\n        /* \"bank.sol\":976:1063  transaction(_to , _value , _nc , _data , _Excuted , _st , _time , _txIndex , _Operator) */\n      iszero\n      iszero\n      dup2\n      mstore\n      0x20\n      add\n        /* \"bank.sol\":1028:1031  _st */\n      dup7\n        /* \"bank.sol\":976:1063  transaction(_to , _value , _nc , _data , _Excuted , _st , _time , _txIndex , _Operator) */\n      0x03\n      dup2\n      gt\n      iszero\n      tag_110\n      jumpi\n      tag_111\n      tag_112\n      jump\t// in\n    tag_111:\n    tag_110:\n      dup2\n      mstore\n      0x20\n      add\n        /* \"bank.sol\":1034:1039  _time */\n      dup6\n        /* \"bank.sol\":976:1063  transaction(_to , _value , _nc , _data , _Excuted , _st , _time , _txIndex , _Operator) */\n      dup2\n      mstore\n      0x20\n      add\n        /* \"bank.sol\":1042:1050  _txIndex */\n      dup5\n        /* \"bank.sol\":976:1063  transaction(_to , _value , _nc , _data , _Excuted , _st , _time , _txIndex , _Operator) */\n      dup2\n      mstore\n      0x20\n      add\n        /* \"bank.sol\":1053:1062  _Operator */\n      dup4\n        /* \"bank.sol\":976:1063  transaction(_to , _value , _nc , _data , _Excuted , _st , _time , _txIndex , _Operator) */\n      dup2\n      mstore\n      pop\n        /* \"bank.sol\":958:1064  transactions.push(transaction(_to , _value , _nc , _data , _Excuted , _st , _time , _txIndex , _Operator)) */\n      swap1\n      dup1\n      0x01\n      dup2\n      sload\n      add\n      dup1\n      dup3\n      sstore\n      dup1\n      swap2\n      pop\n      pop\n      0x01\n      swap1\n      sub\n      swap1\n      0x00\n      mstore\n      keccak256(0x00, 0x20)\n      swap1\n      0x08\n      mul\n      add\n      0x00\n      swap1\n      swap2\n      swap1\n      swap2\n      swap1\n      swap2\n      pop\n      0x00\n      dup3\n      add\n      mload\n      dup2\n      0x00\n      add\n      exp(0x0100, 0x00)\n      dup2\n      sload\n      dup2\n      0xffffffffffffffffffffffffffffffffffffffff\n      mul\n      not\n      and\n      swap1\n      dup4\n      0xffffffffffffffffffffffffffffffffffffffff\n      and\n      mul\n      or\n      swap1\n      sstore\n      pop\n      0x20\n      dup3\n      add\n      mload\n      dup2\n      0x01\n      add\n      sstore\n      0x40\n      dup3\n      add\n      mload\n      dup2\n      0x02\n      add\n      sstore\n      0x60\n      dup3\n      add\n      mload\n      dup2\n      0x03\n      add\n      swap1\n      dup2\n      tag_114\n      swap2\n      swap1\n      tag_115\n      jump\t// in\n    tag_114:\n      pop\n      0x80\n      dup3\n      add\n      mload\n      dup2\n      0x04\n      add\n      exp(0x0100, 0x00)\n      dup2\n      sload\n      dup2\n      0xff\n      mul\n      not\n      and\n      swap1\n      dup4\n      iszero\n      iszero\n      mul\n      or\n      swap1\n      sstore\n      pop\n      0xa0\n      dup3\n      add\n      mload\n      dup2\n      0x04\n      add\n      exp(0x0100, 0x01)\n      dup2\n      sload\n      dup2\n      0xff\n      mul\n      not\n      and\n      swap1\n      dup4\n      0x03\n      dup2\n      gt\n      iszero\n      tag_116\n      jumpi\n      tag_117\n      tag_112\n      jump\t// in\n    tag_117:\n    tag_116:\n      mul\n      or\n      swap1\n      sstore\n      pop\n      0xc0\n      dup3\n      add\n      mload\n      dup2\n      0x05\n      add\n      sstore\n      0xe0\n      dup3\n      add\n      mload\n      dup2\n      0x06\n      add\n      sstore\n      0x0100\n      dup3\n      add\n      mload\n      dup2\n      0x07\n      add\n      sstore\n      pop\n      pop\n        /* \"bank.sol\":789:1070  function createtransation(address _to , uint _value , uint _nc , bytes calldata _data , bool _Excuted , status _st , uint _time , uint _txIndex ,uint _Operator)public{... */\n      pop\n      pop\n      pop\n      pop\n      pop\n      pop\n      pop\n      pop\n      pop\n      pop\n      jump\t// out\n        /* \"bank.sol\":3440:3884  function  lending(address sender , bytes calldata data ,uint amount , uint _txIndex ,uint _Operator)public payable returns(bytes memory _data){... */\n    tag_44:\n        /* \"bank.sol\":3563:3581  bytes memory _data */\n      0x60\n        /* \"bank.sol\":3590:3612  transaction memory trx */\n      0x00\n        /* \"bank.sol\":3615:3627  transactions */\n      0x09\n        /* \"bank.sol\":3630:3638  _txIndex */\n      dup5\n        /* \"bank.sol\":3615:3640  transactions [ _txIndex ] */\n      dup2\n      sload\n      dup2\n      lt\n      tag_119\n      jumpi\n      tag_120\n      tag_121\n      jump\t// in\n    tag_120:\n    tag_119:\n      swap1\n      0x00\n      mstore\n      keccak256(0x00, 0x20)\n      swap1\n      0x08\n      mul\n      add\n        /* \"bank.sol\":3590:3640  transaction memory trx = transactions [ _txIndex ] */\n      mload(0x40)\n      dup1\n      0x0120\n      add\n      0x40\n      mstore\n      swap1\n      dup2\n      0x00\n      dup3\n      add\n      0x00\n      swap1\n      sload\n      swap1\n      0x0100\n      exp\n      swap1\n      div\n      0xffffffffffffffffffffffffffffffffffffffff\n      and\n      0xffffffffffffffffffffffffffffffffffffffff\n      and\n      0xffffffffffffffffffffffffffffffffffffffff\n      and\n      dup2\n      mstore\n      0x20\n      add\n      0x01\n      dup3\n      add\n      sload\n      dup2\n      mstore\n      0x20\n      add\n      0x02\n      dup3\n      add\n      sload\n      dup2\n      mstore\n      0x20\n      add\n      0x03\n      dup3\n      add\n      dup1\n      sload\n      tag_123\n      swap1\n      tag_124\n      jump\t// in\n    tag_123:\n      dup1\n      0x1f\n      add\n      0x20\n      dup1\n      swap2\n      div\n      mul\n      0x20\n      add\n      mload(0x40)\n      swap1\n      dup2\n      add\n      0x40\n      mstore\n      dup1\n      swap3\n      swap2\n      swap1\n      dup2\n      dup2\n      mstore\n      0x20\n      add\n      dup3\n      dup1\n      sload\n      tag_125\n      swap1\n      tag_124\n      jump\t// in\n    tag_125:\n      dup1\n      iszero\n      tag_126\n      jumpi\n      dup1\n      0x1f\n      lt\n      tag_127\n      jumpi\n      0x0100\n      dup1\n      dup4\n      sload\n      div\n      mul\n      dup4\n      mstore\n      swap2\n      0x20\n      add\n      swap2\n      jump(tag_126)\n    tag_127:\n      dup3\n      add\n      swap2\n      swap1\n      0x00\n      mstore\n      keccak256(0x00, 0x20)\n      swap1\n    tag_128:\n      dup2\n      sload\n      dup2\n      mstore\n      swap1\n      0x01\n      add\n      swap1\n      0x20\n      add\n      dup1\n      dup4\n      gt\n      tag_128\n      jumpi\n      dup3\n      swap1\n      sub\n      0x1f\n      and\n      dup3\n      add\n      swap2\n    tag_126:\n      pop\n      pop\n      pop\n      pop\n      pop\n      dup2\n      mstore\n      0x20\n      add\n      0x04\n      dup3\n      add\n      0x00\n      swap1\n      sload\n      swap1\n      0x0100\n      exp\n      swap1\n      div\n      0xff\n      and\n      iszero\n      iszero\n      iszero\n      iszero\n      dup2\n      mstore\n      0x20\n      add\n      0x04\n      dup3\n      add\n      0x01\n      swap1\n      sload\n      swap1\n      0x0100\n      exp\n      swap1\n      div\n      0xff\n      and\n      0x03\n      dup2\n      gt\n      iszero\n      tag_129\n      jumpi\n      tag_130\n      tag_112\n      jump\t// in\n    tag_130:\n    tag_129:\n      0x03\n      dup2\n      gt\n      iszero\n      tag_131\n      jumpi\n      tag_132\n      tag_112\n      jump\t// in\n    tag_132:\n    tag_131:\n      dup2\n      mstore\n      0x20\n      add\n      0x05\n      dup3\n      add\n      sload\n      dup2\n      mstore\n      0x20\n      add\n      0x06\n      dup3\n      add\n      sload\n      dup2\n      mstore\n      0x20\n      add\n      0x07\n      dup3\n      add\n      sload\n      dup2\n      mstore\n      pop\n      pop\n      swap1\n      pop\n        /* \"bank.sol\":3688:3697  2 seconds */\n      0x02\n        /* \"bank.sol\":3677:3680  trx */\n      dup2\n        /* \"bank.sol\":3677:3685  trx.time */\n      0xc0\n      add\n      mload\n        /* \"bank.sol\":3659:3674  block.timestamp */\n      timestamp\n        /* \"bank.sol\":3659:3685  block.timestamp - trx.time */\n      tag_133\n      swap2\n      swap1\n      tag_134\n      jump\t// in\n    tag_133:\n        /* \"bank.sol\":3659:3697  block.timestamp - trx.time > 2 seconds */\n      gt\n        /* \"bank.sol\":3651:3698  require(block.timestamp - trx.time > 2 seconds) */\n      tag_135\n      jumpi\n      0x00\n      dup1\n      revert\n    tag_135:\n        /* \"bank.sol\":3730:3731  0 */\n      0x00\n        /* \"bank.sol\":3718:3727  _Operator */\n      dup4\n        /* \"bank.sol\":3718:3731  _Operator > 0 */\n      gt\n        /* \"bank.sol\":3710:3732  require(_Operator > 0) */\n      tag_136\n      jumpi\n      0x00\n      dup1\n      revert\n    tag_136:\n        /* \"bank.sol\":3752:3760  Operator */\n      0x07\n        /* \"bank.sol\":3752:3770  Operator[_txIndex] */\n      0x00\n        /* \"bank.sol\":3761:3769  _txIndex */\n      dup6\n        /* \"bank.sol\":3752:3770  Operator[_txIndex] */\n      dup2\n      mstore\n      0x20\n      add\n      swap1\n      dup2\n      mstore\n      0x20\n      add\n      0x00\n      keccak256\n        /* \"bank.sol\":3752:3782  Operator[_txIndex][msg.sender] */\n      0x00\n        /* \"bank.sol\":3771:3781  msg.sender */\n      caller\n        /* \"bank.sol\":3752:3782  Operator[_txIndex][msg.sender] */\n      0xffffffffffffffffffffffffffffffffffffffff\n      and\n      0xffffffffffffffffffffffffffffffffffffffff\n      and\n      dup2\n      mstore\n      0x20\n      add\n      swap1\n      dup2\n      mstore\n      0x20\n      add\n      0x00\n      keccak256\n      0x00\n      swap1\n      sload\n      swap1\n      0x0100\n      exp\n      swap1\n      div\n      0xff\n      and\n        /* \"bank.sol\":3751:3782  !Operator[_txIndex][msg.sender] */\n      iszero\n        /* \"bank.sol\":3743:3783  require(!Operator[_txIndex][msg.sender]) */\n      tag_137\n      jumpi\n      0x00\n      dup1\n      revert\n    tag_137:\n        /* \"bank.sol\":3803:3810  isowner */\n      0x01\n        /* \"bank.sol\":3803:3821  isowner[owners[0]] */\n      0x00\n        /* \"bank.sol\":3811:3817  owners */\n      dup1\n        /* \"bank.sol\":3818:3819  0 */\n      0x00\n        /* \"bank.sol\":3811:3820  owners[0] */\n      dup2\n      sload\n      dup2\n      lt\n      tag_138\n      jumpi\n      tag_139\n      tag_121\n      jump\t// in\n    tag_139:\n    tag_138:\n      swap1\n      0x00\n      mstore\n      keccak256(0x00, 0x20)\n      add\n      0x00\n      swap1\n      sload\n      swap1\n      0x0100\n      exp\n      swap1\n      div\n      0xffffffffffffffffffffffffffffffffffffffff\n      and\n        /* \"bank.sol\":3803:3821  isowner[owners[0]] */\n      0xffffffffffffffffffffffffffffffffffffffff\n      and\n      0xffffffffffffffffffffffffffffffffffffffff\n      and\n      dup2\n      mstore\n      0x20\n      add\n      swap1\n      dup2\n      mstore\n      0x20\n      add\n      0x00\n      keccak256\n      0x00\n      swap1\n      sload\n      swap1\n      0x0100\n      exp\n      swap1\n      div\n      0xff\n      and\n        /* \"bank.sol\":3802:3821  !isowner[owners[0]] */\n      iszero\n        /* \"bank.sol\":3794:3822  require(!isowner[owners[0]]) */\n      tag_141\n      jumpi\n      0x00\n      dup1\n      revert\n    tag_141:\n        /* \"bank.sol\":3859:3867  _txIndex */\n      dup4\n        /* \"bank.sol\":3846:3856  msg.sender */\n      caller\n        /* \"bank.sol\":3838:3878  Lending(msg.sender , _txIndex , amount ) */\n      0xffffffffffffffffffffffffffffffffffffffff\n      and\n      0x24752d85a5cc733663165f014a85e53ee7233373e03cd03a8759314180a5a680\n        /* \"bank.sol\":3870:3876  amount */\n      dup8\n        /* \"bank.sol\":3838:3878  Lending(msg.sender , _txIndex , amount ) */\n      mload(0x40)\n      tag_142\n      swap2\n      swap1\n      tag_69\n      jump\t// in\n    tag_142:\n      mload(0x40)\n      dup1\n      swap2\n      sub\n      swap1\n      log3\n        /* \"bank.sol\":3582:3884  {... */\n      pop\n        /* \"bank.sol\":3440:3884  function  lending(address sender , bytes calldata data ,uint amount , uint _txIndex ,uint _Operator)public payable returns(bytes memory _data){... */\n      swap7\n      swap6\n      pop\n      pop\n      pop\n      pop\n      pop\n      pop\n      jump\t// out\n        /* \"bank.sol\":566:603  mapping(address=> bool)public isowner */\n    tag_51:\n      mstore(0x20, 0x01)\n      dup1\n      0x00\n      mstore\n      keccak256(0x00, 0x40)\n      0x00\n      swap2\n      pop\n      sload\n      swap1\n      0x0100\n      exp\n      swap1\n      div\n      0xff\n      and\n      dup2\n      jump\t// out\n        /* \"bank.sol\":1074:1178  function getalltransactions()public view returns(transaction[] memory){... */\n    tag_56:\n        /* \"bank.sol\":1123:1143  transaction[] memory */\n      0x60\n        /* \"bank.sol\":1160:1172  transactions */\n      0x09\n        /* \"bank.sol\":1153:1172  return transactions */\n      dup1\n      sload\n      dup1\n      0x20\n      mul\n      0x20\n      add\n      mload(0x40)\n      swap1\n      dup2\n      add\n      0x40\n      mstore\n      dup1\n      swap3\n      swap2\n      swap1\n      dup2\n      dup2\n      mstore\n      0x20\n      add\n      0x00\n      swap1\n    tag_144:\n      dup3\n      dup3\n      lt\n      iszero\n      tag_145\n      jumpi\n      dup4\n      dup3\n      swap1\n      0x00\n      mstore\n      keccak256(0x00, 0x20)\n      swap1\n      0x08\n      mul\n      add\n      mload(0x40)\n      dup1\n      0x0120\n      add\n      0x40\n      mstore\n      swap1\n      dup2\n      0x00\n      dup3\n      add\n      0x00\n      swap1\n      sload\n      swap1\n      0x0100\n      exp\n      swap1\n      div\n      0xffffffffffffffffffffffffffffffffffffffff\n      and\n      0xffffffffffffffffffffffffffffffffffffffff\n      and\n      0xffffffffffffffffffffffffffffffffffffffff\n      and\n      dup2\n      mstore\n      0x20\n      add\n      0x01\n      dup3\n      add\n      sload\n      dup2\n      mstore\n      0x20\n      add\n      0x02\n      dup3\n      add\n      sload\n      dup2\n      mstore\n      0x20\n      add\n      0x03\n      dup3\n      add\n      dup1\n      sload\n      tag_147\n      swap1\n      tag_124\n      jump\t// in\n    tag_147:\n      dup1\n      0x1f\n      add\n      0x20\n      dup1\n      swap2\n      div\n      mul\n      0x20\n      add\n      mload(0x40)\n      swap1\n      dup2\n      add\n      0x40\n      mstore\n      dup1\n      swap3\n      swap2\n      swap1\n      dup2\n      dup2\n      mstore\n      0x20\n      add\n      dup3\n      dup1\n      sload\n      tag_148\n      swap1\n      tag_124\n      jump\t// in\n    tag_148:\n      dup1\n      iszero\n      tag_149\n      jumpi\n      dup1\n      0x1f\n      lt\n      tag_150\n      jumpi\n      0x0100\n      dup1\n      dup4\n      sload\n      div\n      mul\n      dup4\n      mstore\n      swap2\n      0x20\n      add\n      swap2\n      jump(tag_149)\n    tag_150:\n      dup3\n      add\n      swap2\n      swap1\n      0x00\n      mstore\n      keccak256(0x00, 0x20)\n      swap1\n    tag_151:\n      dup2\n      sload\n      dup2\n      mstore\n      swap1\n      0x01\n      add\n      swap1\n      0x20\n      add\n      dup1\n      dup4\n      gt\n      tag_151\n      jumpi\n      dup3\n      swap1\n      sub\n      0x1f\n      and\n      dup3\n      add\n      swap2\n    tag_149:\n      pop\n      pop\n      pop\n      pop\n      pop\n      dup2\n      mstore\n      0x20\n      add\n      0x04\n      dup3\n      add\n      0x00\n      swap1\n      sload\n      swap1\n      0x0100\n      exp\n      swap1\n      div\n      0xff\n      and\n      iszero\n      iszero\n      iszero\n      iszero\n      dup2\n      mstore\n      0x20\n      add\n      0x04\n      dup3\n      add\n      0x01\n      swap1\n      sload\n      swap1\n      0x0100\n      exp\n      swap1\n      div\n      0xff\n      and\n      0x03\n      dup2\n      gt\n      iszero\n      tag_152\n      jumpi\n      tag_153\n      tag_112\n      jump\t// in\n    tag_153:\n    tag_152:\n      0x03\n      dup2\n      gt\n      iszero\n      tag_154\n      jumpi\n      tag_155\n      tag_112\n      jump\t// in\n    tag_155:\n    tag_154:\n      dup2\n      mstore\n      0x20\n      add\n      0x05\n      dup3\n      add\n      sload\n      dup2\n      mstore\n      0x20\n      add\n      0x06\n      dup3\n      add\n      sload\n      dup2\n      mstore\n      0x20\n      add\n      0x07\n      dup3\n      add\n      sload\n      dup2\n      mstore\n      pop\n      pop\n      dup2\n      mstore\n      0x20\n      add\n      swap1\n      0x01\n      add\n      swap1\n      jump(tag_144)\n    tag_145:\n      pop\n      pop\n      pop\n      pop\n      swap1\n      pop\n        /* \"bank.sol\":1074:1178  function getalltransactions()public view returns(transaction[] memory){... */\n      swap1\n      jump\t// out\n        /* \"bank.sol\":1408:1464  mapping(uint =>mapping(address=>bool))public isconfirmed */\n    tag_63:\n      mstore(0x20, 0x06)\n      dup2\n      0x00\n      mstore\n      mstore(0x20, keccak256(0x00, 0x40))\n      dup1\n      0x00\n      mstore\n      keccak256(0x00, 0x40)\n      0x00\n      swap2\n      pop\n      swap2\n      pop\n      swap1\n      sload\n      swap1\n      0x0100\n      exp\n      swap1\n      div\n      0xff\n      and\n      dup2\n      jump\t// out\n        /* \"bank.sol\":661:681  uint public mostSent */\n    tag_67:\n      sload(0x04)\n      dup2\n      jump\t// out\n        /* \"bank.sol\":610:625  uint public ncr */\n    tag_72:\n      sload(0x02)\n      dup2\n      jump\t// out\n        /* \"bank.sol\":3888:4334  function Moneytransfer(address sender, address receiver, uint256 amount , uint txIndex , uint _Operator) external returns (bool) {... */\n    tag_78:\n        /* \"bank.sol\":4011:4015  bool */\n      0x00\n        /* \"bank.sol\":4024:4046  transaction memory trx */\n      dup1\n        /* \"bank.sol\":4049:4061  transactions */\n      0x09\n        /* \"bank.sol\":4062:4069  txIndex */\n      dup5\n        /* \"bank.sol\":4049:4070  transactions[txIndex] */\n      dup2\n      sload\n      dup2\n      lt\n      tag_157\n      jumpi\n      tag_158\n      tag_121\n      jump\t// in\n    tag_158:\n    tag_157:\n      swap1\n      0x00\n      mstore\n      keccak256(0x00, 0x20)\n      swap1\n      0x08\n      mul\n      add\n        /* \"bank.sol\":4024:4070  transaction memory trx = transactions[txIndex] */\n      mload(0x40)\n      dup1\n      0x0120\n      add\n      0x40\n      mstore\n      swap1\n      dup2\n      0x00\n      dup3\n      add\n      0x00\n      swap1\n      sload\n      swap1\n      0x0100\n      exp\n      swap1\n      div\n      0xffffffffffffffffffffffffffffffffffffffff\n      and\n      0xffffffffffffffffffffffffffffffffffffffff\n      and\n      0xffffffffffffffffffffffffffffffffffffffff\n      and\n      dup2\n      mstore\n      0x20\n      add\n      0x01\n      dup3\n      add\n      sload\n      dup2\n      mstore\n      0x20\n      add\n      0x02\n      dup3\n      add\n      sload\n      dup2\n      mstore\n      0x20\n      add\n      0x03\n      dup3\n      add\n      dup1\n      sload\n      tag_160\n      swap1\n      tag_124\n      jump\t// in\n    tag_160:\n      dup1\n      0x1f\n      add\n      0x20\n      dup1\n      swap2\n      div\n      mul\n      0x20\n      add\n      mload(0x40)\n      swap1\n      dup2\n      add\n      0x40\n      mstore\n      dup1\n      swap3\n      swap2\n      swap1\n      dup2\n      dup2\n      mstore\n      0x20\n      add\n      dup3\n      dup1\n      sload\n      tag_161\n      swap1\n      tag_124\n      jump\t// in\n    tag_161:\n      dup1\n      iszero\n      tag_162\n      jumpi\n      dup1\n      0x1f\n      lt\n      tag_163\n      jumpi\n      0x0100\n      dup1\n      dup4\n      sload\n      div\n      mul\n      dup4\n      mstore\n      swap2\n      0x20\n      add\n      swap2\n      jump(tag_162)\n    tag_163:\n      dup3\n      add\n      swap2\n      swap1\n      0x00\n      mstore\n      keccak256(0x00, 0x20)\n      swap1\n    tag_164:\n      dup2\n      sload\n      dup2\n      mstore\n      swap1\n      0x01\n      add\n      swap1\n      0x20\n      add\n      dup1\n      dup4\n      gt\n      tag_164\n      jumpi\n      dup3\n      swap1\n      sub\n      0x1f\n      and\n      dup3\n      add\n      swap2\n    tag_162:\n      pop\n      pop\n      pop\n      pop\n      pop\n      dup2\n      mstore\n      0x20\n      add\n      0x04\n      dup3\n      add\n      0x00\n      swap1\n      sload\n      swap1\n      0x0100\n      exp\n      swap1\n      div\n      0xff\n      and\n      iszero\n      iszero\n      iszero\n      iszero\n      dup2\n      mstore\n      0x20\n      add\n      0x04\n      dup3\n      add\n      0x01\n      swap1\n      sload\n      swap1\n      0x0100\n      exp\n      swap1\n      div\n      0xff\n      and\n      0x03\n      dup2\n      gt\n      iszero\n      tag_165\n      jumpi\n      tag_166\n      tag_112\n      jump\t// in\n    tag_166:\n    tag_165:\n      0x03\n      dup2\n      gt\n      iszero\n      tag_167\n      jumpi\n      tag_168\n      tag_112\n      jump\t// in\n    tag_168:\n    tag_167:\n      dup2\n      mstore\n      0x20\n      add\n      0x05\n      dup3\n      add\n      sload\n      dup2\n      mstore\n      0x20\n      add\n      0x06\n      dup3\n      add\n      sload\n      dup2\n      mstore\n      0x20\n      add\n      0x07\n      dup3\n      add\n      sload\n      dup2\n      mstore\n      pop\n      pop\n      swap1\n      pop\n        /* \"bank.sol\":4114:4123  2 seconds */\n      0x02\n        /* \"bank.sol\":4103:4106  trx */\n      dup2\n        /* \"bank.sol\":4103:4111  trx.time */\n      0xc0\n      add\n      mload\n        /* \"bank.sol\":4085:4100  block.timestamp */\n      timestamp\n        /* \"bank.sol\":4085:4111  block.timestamp - trx.time */\n      tag_169\n      swap2\n      swap1\n      tag_134\n      jump\t// in\n    tag_169:\n        /* \"bank.sol\":4085:4123  block.timestamp - trx.time > 2 seconds */\n      gt\n        /* \"bank.sol\":4077:4124  require(block.timestamp - trx.time > 2 seconds) */\n      tag_170\n      jumpi\n      0x00\n      dup1\n      revert\n    tag_170:\n        /* \"bank.sol\":4152:4153  0 */\n      0x00\n        /* \"bank.sol\":4140:4149  _Operator */\n      dup4\n        /* \"bank.sol\":4140:4153  _Operator > 0 */\n      gt\n        /* \"bank.sol\":4132:4154  require(_Operator > 0) */\n      tag_171\n      jumpi\n      0x00\n      dup1\n      revert\n    tag_171:\n        /* \"bank.sol\":4170:4178  Operator */\n      0x07\n        /* \"bank.sol\":4170:4187  Operator[txIndex] */\n      0x00\n        /* \"bank.sol\":4179:4186  txIndex */\n      dup6\n        /* \"bank.sol\":4170:4187  Operator[txIndex] */\n      dup2\n      mstore\n      0x20\n      add\n      swap1\n      dup2\n      mstore\n      0x20\n      add\n      0x00\n      keccak256\n        /* \"bank.sol\":4170:4199  Operator[txIndex][msg.sender] */\n      0x00\n        /* \"bank.sol\":4188:4198  msg.sender */\n      caller\n        /* \"bank.sol\":4170:4199  Operator[txIndex][msg.sender] */\n      0xffffffffffffffffffffffffffffffffffffffff\n      and\n      0xffffffffffffffffffffffffffffffffffffffff\n      and\n      dup2\n      mstore\n      0x20\n      add\n      swap1\n      dup2\n      mstore\n      0x20\n      add\n      0x00\n      keccak256\n      0x00\n      swap1\n      sload\n      swap1\n      0x0100\n      exp\n      swap1\n      div\n      0xff\n      and\n        /* \"bank.sol\":4169:4199  !Operator[txIndex][msg.sender] */\n      iszero\n        /* \"bank.sol\":4161:4200  require(!Operator[txIndex][msg.sender]) */\n      tag_172\n      jumpi\n      0x00\n      dup1\n      revert\n    tag_172:\n        /* \"bank.sol\":4235:4236  0 */\n      0x00\n        /* \"bank.sol\":4215:4237  receiver != address(0) */\n      0xffffffffffffffffffffffffffffffffffffffff\n      and\n        /* \"bank.sol\":4215:4223  receiver */\n      dup7\n        /* \"bank.sol\":4215:4237  receiver != address(0) */\n      0xffffffffffffffffffffffffffffffffffffffff\n      and\n      sub\n        /* \"bank.sol\":4207:4238  require(receiver != address(0)) */\n      tag_173\n      jumpi\n      0x00\n      dup1\n      revert\n    tag_173:\n        /* \"bank.sol\":4271:4272  0 */\n      0x00\n        /* \"bank.sol\":4253:4273  sender != address(0) */\n      0xffffffffffffffffffffffffffffffffffffffff\n      and\n        /* \"bank.sol\":4253:4259  sender */\n      dup8\n        /* \"bank.sol\":4253:4273  sender != address(0) */\n      0xffffffffffffffffffffffffffffffffffffffff\n      and\n      sub\n        /* \"bank.sol\":4245:4274  require(sender != address(0)) */\n      tag_174\n      jumpi\n      0x00\n      dup1\n      revert\n    tag_174:\n        /* \"bank.sol\":4281:4296  address Isowner */\n      0x00\n        /* \"bank.sol\":4299:4309  msg.sender */\n      caller\n        /* \"bank.sol\":4281:4309  address Isowner = msg.sender */\n      swap1\n      pop\n        /* \"bank.sol\":4323:4327  true */\n      0x01\n        /* \"bank.sol\":4316:4327  return true */\n      swap3\n      pop\n      pop\n      pop\n        /* \"bank.sol\":3888:4334  function Moneytransfer(address sender, address receiver, uint256 amount , uint txIndex , uint _Operator) external returns (bool) {... */\n      swap6\n      swap5\n      pop\n      pop\n      pop\n      pop\n      pop\n      jump\t// out\n        /* \"bank.sol\":2438:3044  function CustomerregistrationS(address _to , uint _value , bytes memory _data , uint time , uint _Operator)public onlyowner{... */\n    tag_84:\n        /* \"bank.sol\":1824:1831  isowner */\n      0x01\n        /* \"bank.sol\":1824:1843  isowner[msg.sender] */\n      0x00\n        /* \"bank.sol\":1832:1842  msg.sender */\n      caller\n        /* \"bank.sol\":1824:1843  isowner[msg.sender] */\n      0xffffffffffffffffffffffffffffffffffffffff\n      and\n      0xffffffffffffffffffffffffffffffffffffffff\n      and\n      dup2\n      mstore\n      0x20\n      add\n      swap1\n      dup2\n      mstore\n      0x20\n      add\n      0x00\n      keccak256\n      0x00\n      swap1\n      sload\n      swap1\n      0x0100\n      exp\n      swap1\n      div\n      0xff\n      and\n        /* \"bank.sol\":1816:1844  require(isowner[msg.sender]) */\n      tag_176\n      jumpi\n      0x00\n      dup1\n      revert\n    tag_176:\n        /* \"bank.sol\":2568:2580  uint txIndex */\n      0x00\n        /* \"bank.sol\":2583:2595  transactions */\n      0x09\n        /* \"bank.sol\":2583:2602  transactions.length */\n      dup1\n      sload\n      swap1\n      pop\n        /* \"bank.sol\":2568:2602  uint txIndex = transactions.length */\n      swap1\n      pop\n        /* \"bank.sol\":2610:2622  transactions */\n      0x09\n        /* \"bank.sol\":2628:2794  transaction({to:_to , value : _value , data :_data , Executed: false ,txIndex: txIndex, nc : 0 , st : status.Register , time : block.timestamp ,Operator : _Operator}) */\n      mload(0x40)\n      dup1\n      0x0120\n      add\n      0x40\n      mstore\n      dup1\n        /* \"bank.sol\":2644:2647  _to */\n      dup9\n        /* \"bank.sol\":2628:2794  transaction({to:_to , value : _value , data :_data , Executed: false ,txIndex: txIndex, nc : 0 , st : status.Register , time : block.timestamp ,Operator : _Operator}) */\n      0xffffffffffffffffffffffffffffffffffffffff\n      and\n      dup2\n      mstore\n      0x20\n      add\n        /* \"bank.sol\":2658:2664  _value */\n      dup8\n        /* \"bank.sol\":2628:2794  transaction({to:_to , value : _value , data :_data , Executed: false ,txIndex: txIndex, nc : 0 , st : status.Register , time : block.timestamp ,Operator : _Operator}) */\n      dup2\n      mstore\n      0x20\n      add\n        /* \"bank.sol\":2721:2722  0 */\n      0x00\n        /* \"bank.sol\":2628:2794  transaction({to:_to , value : _value , data :_data , Executed: false ,txIndex: txIndex, nc : 0 , st : status.Register , time : block.timestamp ,Operator : _Operator}) */\n      dup2\n      mstore\n      0x20\n      add\n        /* \"bank.sol\":2673:2678  _data */\n      dup7\n        /* \"bank.sol\":2628:2794  transaction({to:_to , value : _value , data :_data , Executed: false ,txIndex: txIndex, nc : 0 , st : status.Register , time : block.timestamp ,Operator : _Operator}) */\n      dup2\n      mstore\n      0x20\n      add\n        /* \"bank.sol\":2691:2696  false */\n      0x00\n        /* \"bank.sol\":2628:2794  transaction({to:_to , value : _value , data :_data , Executed: false ,txIndex: txIndex, nc : 0 , st : status.Register , time : block.timestamp ,Operator : _Operator}) */\n      iszero\n      iszero\n      dup2\n      mstore\n      0x20\n      add\n        /* \"bank.sol\":2730:2745  status.Register */\n      0x00\n        /* \"bank.sol\":2628:2794  transaction({to:_to , value : _value , data :_data , Executed: false ,txIndex: txIndex, nc : 0 , st : status.Register , time : block.timestamp ,Operator : _Operator}) */\n      0x03\n      dup2\n      gt\n      iszero\n      tag_178\n      jumpi\n      tag_179\n      tag_112\n      jump\t// in\n    tag_179:\n    tag_178:\n      dup2\n      mstore\n      0x20\n      add\n        /* \"bank.sol\":2755:2770  block.timestamp */\n      timestamp\n        /* \"bank.sol\":2628:2794  transaction({to:_to , value : _value , data :_data , Executed: false ,txIndex: txIndex, nc : 0 , st : status.Register , time : block.timestamp ,Operator : _Operator}) */\n      dup2\n      mstore\n      0x20\n      add\n        /* \"bank.sol\":2707:2714  txIndex */\n      dup4\n        /* \"bank.sol\":2628:2794  transaction({to:_to , value : _value , data :_data , Executed: false ,txIndex: txIndex, nc : 0 , st : status.Register , time : block.timestamp ,Operator : _Operator}) */\n      dup2\n      mstore\n      0x20\n      add\n        /* \"bank.sol\":2783:2792  _Operator */\n      dup5\n        /* \"bank.sol\":2628:2794  transaction({to:_to , value : _value , data :_data , Executed: false ,txIndex: txIndex, nc : 0 , st : status.Register , time : block.timestamp ,Operator : _Operator}) */\n      dup2\n      mstore\n      pop\n        /* \"bank.sol\":2610:2795  transactions.push(transaction({to:_to , value : _value , data :_data , Executed: false ,txIndex: txIndex, nc : 0 , st : status.Register , time : block.timestamp ,Operator : _Operator})) */\n      swap1\n      dup1\n      0x01\n      dup2\n      sload\n      add\n      dup1\n      dup3\n      sstore\n      dup1\n      swap2\n      pop\n      pop\n      0x01\n      swap1\n      sub\n      swap1\n      0x00\n      mstore\n      keccak256(0x00, 0x20)\n      swap1\n      0x08\n      mul\n      add\n      0x00\n      swap1\n      swap2\n      swap1\n      swap2\n      swap1\n      swap2\n      pop\n      0x00\n      dup3\n      add\n      mload\n      dup2\n      0x00\n      add\n      exp(0x0100, 0x00)\n      dup2\n      sload\n      dup2\n      0xffffffffffffffffffffffffffffffffffffffff\n      mul\n      not\n      and\n      swap1\n      dup4\n      0xffffffffffffffffffffffffffffffffffffffff\n      and\n      mul\n      or\n      swap1\n      sstore\n      pop\n      0x20\n      dup3\n      add\n      mload\n      dup2\n      0x01\n      add\n      sstore\n      0x40\n      dup3\n      add\n      mload\n      dup2\n      0x02\n      add\n      sstore\n      0x60\n      dup3\n      add\n      mload\n      dup2\n      0x03\n      add\n      swap1\n      dup2\n      tag_181\n      swap2\n      swap1\n      tag_115\n      jump\t// in\n    tag_181:\n      pop\n      0x80\n      dup3\n      add\n      mload\n      dup2\n      0x04\n      add\n      exp(0x0100, 0x00)\n      dup2\n      sload\n      dup2\n      0xff\n      mul\n      not\n      and\n      swap1\n      dup4\n      iszero\n      iszero\n      mul\n      or\n      swap1\n      sstore\n      pop\n      0xa0\n      dup3\n      add\n      mload\n      dup2\n      0x04\n      add\n      exp(0x0100, 0x01)\n      dup2\n      sload\n      dup2\n      0xff\n      mul\n      not\n      and\n      swap1\n      dup4\n      0x03\n      dup2\n      gt\n      iszero\n      tag_182\n      jumpi\n      tag_183\n      tag_112\n      jump\t// in\n    tag_183:\n    tag_182:\n      mul\n      or\n      swap1\n      sstore\n      pop\n      0xc0\n      dup3\n      add\n      mload\n      dup2\n      0x05\n      add\n      sstore\n      0xe0\n      dup3\n      add\n      mload\n      dup2\n      0x06\n      add\n      sstore\n      0x0100\n      dup3\n      add\n      mload\n      dup2\n      0x07\n      add\n      sstore\n      pop\n      pop\n        /* \"bank.sol\":2802:2825  transaction storage trx */\n      0x00\n        /* \"bank.sol\":2828:2840  transactions */\n      0x09\n        /* \"bank.sol\":2842:2849  txIndex */\n      dup3\n        /* \"bank.sol\":2828:2851  transactions[ txIndex ] */\n      dup2\n      sload\n      dup2\n      lt\n      tag_184\n      jumpi\n      tag_185\n      tag_121\n      jump\t// in\n    tag_185:\n    tag_184:\n      swap1\n      0x00\n      mstore\n      keccak256(0x00, 0x20)\n      swap1\n      0x08\n      mul\n      add\n        /* \"bank.sol\":2802:2851  transaction storage trx = transactions[ txIndex ] */\n      swap1\n      pop\n        /* \"bank.sol\":2896:2905  2 seconds */\n      0x02\n        /* \"bank.sol\":2885:2888  trx */\n      dup2\n        /* \"bank.sol\":2885:2893  trx.time */\n      0x05\n      add\n      sload\n        /* \"bank.sol\":2867:2882  block.timestamp */\n      timestamp\n        /* \"bank.sol\":2867:2893  block.timestamp - trx.time */\n      tag_187\n      swap2\n      swap1\n      tag_134\n      jump\t// in\n    tag_187:\n        /* \"bank.sol\":2867:2905  block.timestamp - trx.time > 2 seconds */\n      gt\n        /* \"bank.sol\":2859:2906  require(block.timestamp - trx.time > 2 seconds) */\n      tag_188\n      jumpi\n      0x00\n      dup1\n      revert\n    tag_188:\n        /* \"bank.sol\":2934:2935  0 */\n      0x00\n        /* \"bank.sol\":2922:2931  _Operator */\n      dup4\n        /* \"bank.sol\":2922:2935  _Operator > 0 */\n      gt\n        /* \"bank.sol\":2914:2936  require(_Operator > 0) */\n      tag_189\n      jumpi\n      0x00\n      dup1\n      revert\n    tag_189:\n        /* \"bank.sol\":2953:2961  Operator */\n      0x07\n        /* \"bank.sol\":2953:2970  Operator[txIndex] */\n      0x00\n        /* \"bank.sol\":2962:2969  txIndex */\n      dup4\n        /* \"bank.sol\":2953:2970  Operator[txIndex] */\n      dup2\n      mstore\n      0x20\n      add\n      swap1\n      dup2\n      mstore\n      0x20\n      add\n      0x00\n      keccak256\n        /* \"bank.sol\":2953:2982  Operator[txIndex][msg.sender] */\n      0x00\n        /* \"bank.sol\":2971:2981  msg.sender */\n      caller\n        /* \"bank.sol\":2953:2982  Operator[txIndex][msg.sender] */\n      0xffffffffffffffffffffffffffffffffffffffff\n      and\n      0xffffffffffffffffffffffffffffffffffffffff\n      and\n      dup2\n      mstore\n      0x20\n      add\n      swap1\n      dup2\n      mstore\n      0x20\n      add\n      0x00\n      keccak256\n      0x00\n      swap1\n      sload\n      swap1\n      0x0100\n      exp\n      swap1\n      div\n      0xff\n      and\n        /* \"bank.sol\":2952:2982  !Operator[txIndex][msg.sender] */\n      iszero\n        /* \"bank.sol\":2944:2983  require(!Operator[txIndex][msg.sender]) */\n      tag_190\n      jumpi\n      0x00\n      dup1\n      revert\n    tag_190:\n        /* \"bank.sol\":3032:3039  txIndex */\n      dup2\n        /* \"bank.sol\":3026:3029  _to */\n      dup8\n        /* \"bank.sol\":2991:3040  Customerregistration( msg.sender , _to , txIndex) */\n      0xffffffffffffffffffffffffffffffffffffffff\n      and\n        /* \"bank.sol\":3013:3023  msg.sender */\n      caller\n        /* \"bank.sol\":2991:3040  Customerregistration( msg.sender , _to , txIndex) */\n      0xffffffffffffffffffffffffffffffffffffffff\n      and\n      0x3a7e667d1f3e3931c98c8b2da3d29bba1ea247441cb2573a4ddf9c77eef7cd13\n      mload(0x40)\n      mload(0x40)\n      dup1\n      swap2\n      sub\n      swap1\n      log4\n        /* \"bank.sol\":2561:3044  {... */\n      pop\n      pop\n        /* \"bank.sol\":2438:3044  function CustomerregistrationS(address _to , uint _value , bytes memory _data , uint time , uint _Operator)public onlyowner{... */\n      pop\n      pop\n      pop\n      pop\n      pop\n      jump\t// out\n        /* \"bank.sol\":4338:4623  function gettransaction(uint _txindex)public view returns(address , uint , uint , bytes memory , bool){... */\n    tag_88:\n        /* \"bank.sol\":4396:4403  address */\n      0x00\n        /* \"bank.sol\":4406:4410  uint */\n      dup1\n        /* \"bank.sol\":4413:4417  uint */\n      0x00\n        /* \"bank.sol\":4420:4432  bytes memory */\n      0x60\n        /* \"bank.sol\":4435:4439  bool */\n      0x00\n        /* \"bank.sol\":4447:4469  transaction memory trx */\n      dup1\n        /* \"bank.sol\":4472:4484  transactions */\n      0x09\n        /* \"bank.sol\":4485:4493  _txindex */\n      dup8\n        /* \"bank.sol\":4472:4494  transactions[_txindex] */\n      dup2\n      sload\n      dup2\n      lt\n      tag_192\n      jumpi\n      tag_193\n      tag_121\n      jump\t// in\n    tag_193:\n    tag_192:\n      swap1\n      0x00\n      mstore\n      keccak256(0x00, 0x20)\n      swap1\n      0x08\n      mul\n      add\n        /* \"bank.sol\":4447:4494  transaction memory trx = transactions[_txindex] */\n      mload(0x40)\n      dup1\n      0x0120\n      add\n      0x40\n      mstore\n      swap1\n      dup2\n      0x00\n      dup3\n      add\n      0x00\n      swap1\n      sload\n      swap1\n      0x0100\n      exp\n      swap1\n      div\n      0xffffffffffffffffffffffffffffffffffffffff\n      and\n      0xffffffffffffffffffffffffffffffffffffffff\n      and\n      0xffffffffffffffffffffffffffffffffffffffff\n      and\n      dup2\n      mstore\n      0x20\n      add\n      0x01\n      dup3\n      add\n      sload\n      dup2\n      mstore\n      0x20\n      add\n      0x02\n      dup3\n      add\n      sload\n      dup2\n      mstore\n      0x20\n      add\n      0x03\n      dup3\n      add\n      dup1\n      sload\n      tag_195\n      swap1\n      tag_124\n      jump\t// in\n    tag_195:\n      dup1\n      0x1f\n      add\n      0x20\n      dup1\n      swap2\n      div\n      mul\n      0x20\n      add\n      mload(0x40)\n      swap1\n      dup2\n      add\n      0x40\n      mstore\n      dup1\n      swap3\n      swap2\n      swap1\n      dup2\n      dup2\n      mstore\n      0x20\n      add\n      dup3\n      dup1\n      sload\n      tag_196\n      swap1\n      tag_124\n      jump\t// in\n    tag_196:\n      dup1\n      iszero\n      tag_197\n      jumpi\n      dup1\n      0x1f\n      lt\n      tag_198\n      jumpi\n      0x0100\n      dup1\n      dup4\n      sload\n      div\n      mul\n      dup4\n      mstore\n      swap2\n      0x20\n      add\n      swap2\n      jump(tag_197)\n    tag_198:\n      dup3\n      add\n      swap2\n      swap1\n      0x00\n      mstore\n      keccak256(0x00, 0x20)\n      swap1\n    tag_199:\n      dup2\n      sload\n      dup2\n      mstore\n      swap1\n      0x01\n      add\n      swap1\n      0x20\n      add\n      dup1\n      dup4\n      gt\n      tag_199\n      jumpi\n      dup3\n      swap1\n      sub\n      0x1f\n      and\n      dup3\n      add\n      swap2\n    tag_197:\n      pop\n      pop\n      pop\n      pop\n      pop\n      dup2\n      mstore\n      0x20\n      add\n      0x04\n      dup3\n      add\n      0x00\n      swap1\n      sload\n      swap1\n      0x0100\n      exp\n      swap1\n      div\n      0xff\n      and\n      iszero\n      iszero\n      iszero\n      iszero\n      dup2\n      mstore\n      0x20\n      add\n      0x04\n      dup3\n      add\n      0x01\n      swap1\n      sload\n      swap1\n      0x0100\n      exp\n      swap1\n      div\n      0xff\n      and\n      0x03\n      dup2\n      gt\n      iszero\n      tag_200\n      jumpi\n      tag_201\n      tag_112\n      jump\t// in\n    tag_201:\n    tag_200:\n      0x03\n      dup2\n      gt\n      iszero\n      tag_202\n      jumpi\n      tag_203\n      tag_112\n      jump\t// in\n    tag_203:\n    tag_202:\n      dup2\n      mstore\n      0x20\n      add\n      0x05\n      dup3\n      add\n      sload\n      dup2\n      mstore\n      0x20\n      add\n      0x06\n      dup3\n      add\n      sload\n      dup2\n      mstore\n      0x20\n      add\n      0x07\n      dup3\n      add\n      sload\n      dup2\n      mstore\n      pop\n      pop\n      swap1\n      pop\n        /* \"bank.sol\":4539:4548  2 seconds */\n      0x02\n        /* \"bank.sol\":4528:4531  trx */\n      dup2\n        /* \"bank.sol\":4528:4536  trx.time */\n      0xc0\n      add\n      mload\n        /* \"bank.sol\":4510:4525  block.timestamp */\n      timestamp\n        /* \"bank.sol\":4510:4536  block.timestamp - trx.time */\n      tag_204\n      swap2\n      swap1\n      tag_134\n      jump\t// in\n    tag_204:\n        /* \"bank.sol\":4510:4548  block.timestamp - trx.time > 2 seconds */\n      gt\n        /* \"bank.sol\":4502:4549  require(block.timestamp - trx.time > 2 seconds) */\n      tag_205\n      jumpi\n      0x00\n      dup1\n      revert\n    tag_205:\n        /* \"bank.sol\":4563:4566  trx */\n      dup1\n        /* \"bank.sol\":4563:4571  trx . to */\n      0x00\n      add\n      mload\n        /* \"bank.sol\":4574:4577  trx */\n      dup2\n        /* \"bank.sol\":4574:4583  trx.value */\n      0x20\n      add\n      mload\n        /* \"bank.sol\":4586:4589  trx */\n      dup3\n        /* \"bank.sol\":4586:4592  trx.nc */\n      0x40\n      add\n      mload\n        /* \"bank.sol\":4595:4598  trx */\n      dup4\n        /* \"bank.sol\":4595:4603  trx.data */\n      0x60\n      add\n      mload\n        /* \"bank.sol\":4606:4609  trx */\n      dup5\n        /* \"bank.sol\":4606:4618  trx.Executed */\n      0x80\n      add\n      mload\n        /* \"bank.sol\":4556:4619  return(trx . to , trx.value , trx.nc , trx.data , trx.Executed) */\n      swap6\n      pop\n      swap6\n      pop\n      swap6\n      pop\n      swap6\n      pop\n      swap6\n      pop\n      pop\n        /* \"bank.sol\":4338:4623  function gettransaction(uint _txindex)public view returns(address , uint , uint , bytes memory , bool){... */\n      swap2\n      swap4\n      swap6\n      swap1\n      swap3\n      swap5\n      pop\n      jump\t// out\n        /* \"bank.sol\":1581:1613  transaction[]public transactions */\n    tag_94:\n      0x09\n      dup2\n      dup2\n      sload\n      dup2\n      lt\n      tag_206\n      jumpi\n      0x00\n      dup1\n      revert\n    tag_206:\n      swap1\n      0x00\n      mstore\n      keccak256(0x00, 0x20)\n      swap1\n      0x08\n      mul\n      add\n      0x00\n      swap2\n      pop\n      swap1\n      pop\n      dup1\n      0x00\n      add\n      0x00\n      swap1\n      sload\n      swap1\n      0x0100\n      exp\n      swap1\n      div\n      0xffffffffffffffffffffffffffffffffffffffff\n      and\n      swap1\n      dup1\n      0x01\n      add\n      sload\n      swap1\n      dup1\n      0x02\n      add\n      sload\n      swap1\n      dup1\n      0x03\n      add\n      dup1\n      sload\n      tag_208\n      swap1\n      tag_124\n      jump\t// in\n    tag_208:\n      dup1\n      0x1f\n      add\n      0x20\n      dup1\n      swap2\n      div\n      mul\n      0x20\n      add\n      mload(0x40)\n      swap1\n      dup2\n      add\n      0x40\n      mstore\n      dup1\n      swap3\n      swap2\n      swap1\n      dup2\n      dup2\n      mstore\n      0x20\n      add\n      dup3\n      dup1\n      sload\n      tag_209\n      swap1\n      tag_124\n      jump\t// in\n    tag_209:\n      dup1\n      iszero\n      tag_210\n      jumpi\n      dup1\n      0x1f\n      lt\n      tag_211\n      jumpi\n      0x0100\n      dup1\n      dup4\n      sload\n      div\n      mul\n      dup4\n      mstore\n      swap2\n      0x20\n      add\n      swap2\n      jump(tag_210)\n    tag_211:\n      dup3\n      add\n      swap2\n      swap1\n      0x00\n      mstore\n      keccak256(0x00, 0x20)\n      swap1\n    tag_212:\n      dup2\n      sload\n      dup2\n      mstore\n      swap1\n      0x01\n      add\n      swap1\n      0x20\n      add\n      dup1\n      dup4\n      gt\n      tag_212\n      jumpi\n      dup3\n      swap1\n      sub\n      0x1f\n      and\n      dup3\n      add\n      swap2\n    tag_210:\n      pop\n      pop\n      pop\n      pop\n      pop\n      swap1\n      dup1\n      0x04\n      add\n      0x00\n      swap1\n      sload\n      swap1\n      0x0100\n      exp\n      swap1\n      div\n      0xff\n      and\n      swap1\n      dup1\n      0x04\n      add\n      0x01\n      swap1\n      sload\n      swap1\n      0x0100\n      exp\n      swap1\n      div\n      0xff\n      and\n      swap1\n      dup1\n      0x05\n      add\n      sload\n      swap1\n      dup1\n      0x06\n      add\n      sload\n      swap1\n      dup1\n      0x07\n      add\n      sload\n      swap1\n      pop\n      dup10\n      jump\t// out\n        /* \"bank.sol\":3047:3437  function cashwithdrawals(uint txIndex , bytes memory data)public payable returns(bool ){... */\n    tag_100:\n        /* \"bank.sol\":3128:3132  bool */\n      0x00\n        /* \"bank.sol\":3142:3164  transaction memory trx */\n      dup1\n        /* \"bank.sol\":3167:3179  transactions */\n      0x09\n        /* \"bank.sol\":3181:3188  txIndex */\n      dup5\n        /* \"bank.sol\":3167:3190  transactions[ txIndex ] */\n      dup2\n      sload\n      dup2\n      lt\n      tag_214\n      jumpi\n      tag_215\n      tag_121\n      jump\t// in\n    tag_215:\n    tag_214:\n      swap1\n      0x00\n      mstore\n      keccak256(0x00, 0x20)\n      swap1\n      0x08\n      mul\n      add\n        /* \"bank.sol\":3142:3190  transaction memory trx = transactions[ txIndex ] */\n      mload(0x40)\n      dup1\n      0x0120\n      add\n      0x40\n      mstore\n      swap1\n      dup2\n      0x00\n      dup3\n      add\n      0x00\n      swap1\n      sload\n      swap1\n      0x0100\n      exp\n      swap1\n      div\n      0xffffffffffffffffffffffffffffffffffffffff\n      and\n      0xffffffffffffffffffffffffffffffffffffffff\n      and\n      0xffffffffffffffffffffffffffffffffffffffff\n      and\n      dup2\n      mstore\n      0x20\n      add\n      0x01\n      dup3\n      add\n      sload\n      dup2\n      mstore\n      0x20\n      add\n      0x02\n      dup3\n      add\n      sload\n      dup2\n      mstore\n      0x20\n      add\n      0x03\n      dup3\n      add\n      dup1\n      sload\n      tag_217\n      swap1\n      tag_124\n      jump\t// in\n    tag_217:\n      dup1\n      0x1f\n      add\n      0x20\n      dup1\n      swap2\n      div\n      mul\n      0x20\n      add\n      mload(0x40)\n      swap1\n      dup2\n      add\n      0x40\n      mstore\n      dup1\n      swap3\n      swap2\n      swap1\n      dup2\n      dup2\n      mstore\n      0x20\n      add\n      dup3\n      dup1\n      sload\n      tag_218\n      swap1\n      tag_124\n      jump\t// in\n    tag_218:\n      dup1\n      iszero\n      tag_219\n      jumpi\n      dup1\n      0x1f\n      lt\n      tag_220\n      jumpi\n      0x0100\n      dup1\n      dup4\n      sload\n      div\n      mul\n      dup4\n      mstore\n      swap2\n      0x20\n      add\n      swap2\n      jump(tag_219)\n    tag_220:\n      dup3\n      add\n      swap2\n      swap1\n      0x00\n      mstore\n      keccak256(0x00, 0x20)\n      swap1\n    tag_221:\n      dup2\n      sload\n      dup2\n      mstore\n      swap1\n      0x01\n      add\n      swap1\n      0x20\n      add\n      dup1\n      dup4\n      gt\n      tag_221\n      jumpi\n      dup3\n      swap1\n      sub\n      0x1f\n      and\n      dup3\n      add\n      swap2\n    tag_219:\n      pop\n      pop\n      pop\n      pop\n      pop\n      dup2\n      mstore\n      0x20\n      add\n      0x04\n      dup3\n      add\n      0x00\n      swap1\n      sload\n      swap1\n      0x0100\n      exp\n      swap1\n      div\n      0xff\n      and\n      iszero\n      iszero\n      iszero\n      iszero\n      dup2\n      mstore\n      0x20\n      add\n      0x04\n      dup3\n      add\n      0x01\n      swap1\n      sload\n      swap1\n      0x0100\n      exp\n      swap1\n      div\n      0xff\n      and\n      0x03\n      dup2\n      gt\n      iszero\n      tag_222\n      jumpi\n      tag_223\n      tag_112\n      jump\t// in\n    tag_223:\n    tag_222:\n      0x03\n      dup2\n      gt\n      iszero\n      tag_224\n      jumpi\n      tag_225\n      tag_112\n      jump\t// in\n    tag_225:\n    tag_224:\n      dup2\n      mstore\n      0x20\n      add\n      0x05\n      dup3\n      add\n      sload\n      dup2\n      mstore\n      0x20\n      add\n      0x06\n      dup3\n      add\n      sload\n      dup2\n      mstore\n      0x20\n      add\n      0x07\n      dup3\n      add\n      sload\n      dup2\n      mstore\n      pop\n      pop\n      swap1\n      pop\n        /* \"bank.sol\":3235:3244  2 seconds */\n      0x02\n        /* \"bank.sol\":3224:3227  trx */\n      dup2\n        /* \"bank.sol\":3224:3232  trx.time */\n      0xc0\n      add\n      mload\n        /* \"bank.sol\":3206:3221  block.timestamp */\n      timestamp\n        /* \"bank.sol\":3206:3232  block.timestamp - trx.time */\n      tag_226\n      swap2\n      swap1\n      tag_134\n      jump\t// in\n    tag_226:\n        /* \"bank.sol\":3206:3244  block.timestamp - trx.time > 2 seconds */\n      gt\n        /* \"bank.sol\":3198:3245  require(block.timestamp - trx.time > 2 seconds) */\n      tag_227\n      jumpi\n      0x00\n      dup1\n      revert\n    tag_227:\n        /* \"bank.sol\":3275:3283  mostSent */\n      sload(0x04)\n        /* \"bank.sol\":3263:3272  msg.value */\n      callvalue\n        /* \"bank.sol\":3263:3283  msg.value > mostSent */\n      gt\n        /* \"bank.sol\":3255:3284  require(msg.value > mostSent) */\n      tag_228\n      jumpi\n      0x00\n      dup1\n      revert\n    tag_228:\n        /* \"bank.sol\":3324:3333  msg.value */\n      callvalue\n        /* \"bank.sol\":3295:3311  pendingWithdraws */\n      0x08\n        /* \"bank.sol\":3295:3320  pendingWithdraws[richest] */\n      0x00\n        /* \"bank.sol\":3312:3319  richest */\n      0x03\n      0x00\n      swap1\n      sload\n      swap1\n      0x0100\n      exp\n      swap1\n      div\n      0xffffffffffffffffffffffffffffffffffffffff\n      and\n        /* \"bank.sol\":3295:3320  pendingWithdraws[richest] */\n      0xffffffffffffffffffffffffffffffffffffffff\n      and\n      0xffffffffffffffffffffffffffffffffffffffff\n      and\n      dup2\n      mstore\n      0x20\n      add\n      swap1\n      dup2\n      mstore\n      0x20\n      add\n      0x00\n      keccak256\n      0x00\n        /* \"bank.sol\":3295:3333  pendingWithdraws[richest] += msg.value */\n      dup3\n      dup3\n      sload\n      tag_229\n      swap2\n      swap1\n      tag_230\n      jump\t// in\n    tag_229:\n      swap3\n      pop\n      pop\n      dup2\n      swap1\n      sstore\n      pop\n        /* \"bank.sol\":3354:3364  msg.sender */\n      caller\n        /* \"bank.sol\":3344:3351  richest */\n      0x03\n      0x00\n        /* \"bank.sol\":3344:3364  richest = msg.sender */\n      0x0100\n      exp\n      dup2\n      sload\n      dup2\n      0xffffffffffffffffffffffffffffffffffffffff\n      mul\n      not\n      and\n      swap1\n      dup4\n      0xffffffffffffffffffffffffffffffffffffffff\n      and\n      mul\n      or\n      swap1\n      sstore\n      pop\n        /* \"bank.sol\":3386:3395  msg.value */\n      callvalue\n        /* \"bank.sol\":3375:3383  mostSent */\n      0x04\n        /* \"bank.sol\":3375:3395  mostSent = msg.value */\n      dup2\n      swap1\n      sstore\n      pop\n        /* \"bank.sol\":3413:3417  true */\n      0x01\n        /* \"bank.sol\":3406:3417  return true */\n      swap2\n      pop\n      pop\n        /* \"bank.sol\":3047:3437  function cashwithdrawals(uint txIndex , bytes memory data)public payable returns(bool ){... */\n      swap3\n      swap2\n      pop\n      pop\n      jump\t// out\n        /* \"bank.sol\":1472:1525  mapping(uint =>mapping(address=>bool))public Operator */\n    tag_105:\n      mstore(0x20, 0x07)\n      dup2\n      0x00\n      mstore\n      mstore(0x20, keccak256(0x00, 0x40))\n      dup1\n      0x00\n      mstore\n      keccak256(0x00, 0x40)\n      0x00\n      swap2\n      pop\n      swap2\n      pop\n      swap1\n      sload\n      swap1\n      0x0100\n      exp\n      swap1\n      div\n      0xff\n      and\n      dup2\n      jump\t// out\n        /* \"#utility.yul\":7:84   */\n    tag_231:\n        /* \"#utility.yul\":44:51   */\n      0x00\n        /* \"#utility.yul\":73:78   */\n      dup2\n        /* \"#utility.yul\":62:78   */\n      swap1\n      pop\n        /* \"#utility.yul\":7:84   */\n      swap2\n      swap1\n      pop\n      jump\t// out\n        /* \"#utility.yul\":90:208   */\n    tag_232:\n        /* \"#utility.yul\":177:201   */\n      tag_303\n        /* \"#utility.yul\":195:200   */\n      dup2\n        /* \"#utility.yul\":177:201   */\n      tag_231\n      jump\t// in\n    tag_303:\n        /* \"#utility.yul\":172:175   */\n      dup3\n        /* \"#utility.yul\":165:202   */\n      mstore\n        /* \"#utility.yul\":90:208   */\n      pop\n      pop\n      jump\t// out\n        /* \"#utility.yul\":214:546   */\n    tag_24:\n        /* \"#utility.yul\":335:339   */\n      0x00\n        /* \"#utility.yul\":373:375   */\n      0x40\n        /* \"#utility.yul\":362:371   */\n      dup3\n        /* \"#utility.yul\":358:376   */\n      add\n        /* \"#utility.yul\":350:376   */\n      swap1\n      pop\n        /* \"#utility.yul\":386:457   */\n      tag_305\n        /* \"#utility.yul\":454:455   */\n      0x00\n        /* \"#utility.yul\":443:452   */\n      dup4\n        /* \"#utility.yul\":439:456   */\n      add\n        /* \"#utility.yul\":430:436   */\n      dup6\n        /* \"#utility.yul\":386:457   */\n      tag_232\n      jump\t// in\n    tag_305:\n        /* \"#utility.yul\":467:539   */\n      tag_306\n        /* \"#utility.yul\":535:537   */\n      0x20\n        /* \"#utility.yul\":524:533   */\n      dup4\n        /* \"#utility.yul\":520:538   */\n      add\n        /* \"#utility.yul\":511:517   */\n      dup5\n        /* \"#utility.yul\":467:539   */\n      tag_232\n      jump\t// in\n    tag_306:\n        /* \"#utility.yul\":214:546   */\n      swap4\n      swap3\n      pop\n      pop\n      pop\n      jump\t// out\n        /* \"#utility.yul\":552:627   */\n    tag_233:\n        /* \"#utility.yul\":585:591   */\n      0x00\n        /* \"#utility.yul\":618:620   */\n      0x40\n        /* \"#utility.yul\":612:621   */\n      mload\n        /* \"#utility.yul\":602:621   */\n      swap1\n      pop\n        /* \"#utility.yul\":552:627   */\n      swap1\n      jump\t// out\n        /* \"#utility.yul\":633:750   */\n    tag_234:\n        /* \"#utility.yul\":742:743   */\n      0x00\n        /* \"#utility.yul\":739:740   */\n      dup1\n        /* \"#utility.yul\":732:744   */\n      revert\n        /* \"#utility.yul\":756:873   */\n    tag_235:\n        /* \"#utility.yul\":865:866   */\n      0x00\n        /* \"#utility.yul\":862:863   */\n      dup1\n        /* \"#utility.yul\":855:867   */\n      revert\n        /* \"#utility.yul\":879:1001   */\n    tag_236:\n        /* \"#utility.yul\":952:976   */\n      tag_311\n        /* \"#utility.yul\":970:975   */\n      dup2\n        /* \"#utility.yul\":952:976   */\n      tag_231\n      jump\t// in\n    tag_311:\n        /* \"#utility.yul\":945:950   */\n      dup2\n        /* \"#utility.yul\":942:977   */\n      eq\n        /* \"#utility.yul\":932:995   */\n      tag_312\n      jumpi\n        /* \"#utility.yul\":991:992   */\n      0x00\n        /* \"#utility.yul\":988:989   */\n      dup1\n        /* \"#utility.yul\":981:993   */\n      revert\n        /* \"#utility.yul\":932:995   */\n    tag_312:\n        /* \"#utility.yul\":879:1001   */\n      pop\n      jump\t// out\n        /* \"#utility.yul\":1007:1146   */\n    tag_237:\n        /* \"#utility.yul\":1053:1058   */\n      0x00\n        /* \"#utility.yul\":1091:1097   */\n      dup2\n        /* \"#utility.yul\":1078:1098   */\n      calldataload\n        /* \"#utility.yul\":1069:1098   */\n      swap1\n      pop\n        /* \"#utility.yul\":1107:1140   */\n      tag_314\n        /* \"#utility.yul\":1134:1139   */\n      dup2\n        /* \"#utility.yul\":1107:1140   */\n      tag_236\n      jump\t// in\n    tag_314:\n        /* \"#utility.yul\":1007:1146   */\n      swap3\n      swap2\n      pop\n      pop\n      jump\t// out\n        /* \"#utility.yul\":1152:1481   */\n    tag_28:\n        /* \"#utility.yul\":1211:1217   */\n      0x00\n        /* \"#utility.yul\":1260:1262   */\n      0x20\n        /* \"#utility.yul\":1248:1257   */\n      dup3\n        /* \"#utility.yul\":1239:1246   */\n      dup5\n        /* \"#utility.yul\":1235:1258   */\n      sub\n        /* \"#utility.yul\":1231:1263   */\n      slt\n        /* \"#utility.yul\":1228:1347   */\n      iszero\n      tag_316\n      jumpi\n        /* \"#utility.yul\":1266:1345   */\n      tag_317\n      tag_234\n      jump\t// in\n    tag_317:\n        /* \"#utility.yul\":1228:1347   */\n    tag_316:\n        /* \"#utility.yul\":1386:1387   */\n      0x00\n        /* \"#utility.yul\":1411:1464   */\n      tag_318\n        /* \"#utility.yul\":1456:1463   */\n      dup5\n        /* \"#utility.yul\":1447:1453   */\n      dup3\n        /* \"#utility.yul\":1436:1445   */\n      dup6\n        /* \"#utility.yul\":1432:1454   */\n      add\n        /* \"#utility.yul\":1411:1464   */\n      tag_237\n      jump\t// in\n    tag_318:\n        /* \"#utility.yul\":1401:1464   */\n      swap2\n      pop\n        /* \"#utility.yul\":1357:1474   */\n      pop\n        /* \"#utility.yul\":1152:1481   */\n      swap3\n      swap2\n      pop\n      pop\n      jump\t// out\n        /* \"#utility.yul\":1487:1613   */\n    tag_238:\n        /* \"#utility.yul\":1524:1531   */\n      0x00\n        /* \"#utility.yul\":1564:1606   */\n      0xffffffffffffffffffffffffffffffffffffffff\n        /* \"#utility.yul\":1557:1562   */\n      dup3\n        /* \"#utility.yul\":1553:1607   */\n      and\n        /* \"#utility.yul\":1542:1607   */\n      swap1\n      pop\n        /* \"#utility.yul\":1487:1613   */\n      swap2\n      swap1\n      pop\n      jump\t// out\n        /* \"#utility.yul\":1619:1715   */\n    tag_239:\n        /* \"#utility.yul\":1656:1663   */\n      0x00\n        /* \"#utility.yul\":1685:1709   */\n      tag_321\n        /* \"#utility.yul\":1703:1708   */\n      dup3\n        /* \"#utility.yul\":1685:1709   */\n      tag_238\n      jump\t// in\n    tag_321:\n        /* \"#utility.yul\":1674:1709   */\n      swap1\n      pop\n        /* \"#utility.yul\":1619:1715   */\n      swap2\n      swap1\n      pop\n      jump\t// out\n        /* \"#utility.yul\":1721:1839   */\n    tag_240:\n        /* \"#utility.yul\":1808:1832   */\n      tag_323\n        /* \"#utility.yul\":1826:1831   */\n      dup2\n        /* \"#utility.yul\":1808:1832   */\n      tag_239\n      jump\t// in\n    tag_323:\n        /* \"#utility.yul\":1803:1806   */\n      dup3\n        /* \"#utility.yul\":1796:1833   */\n      mstore\n        /* \"#utility.yul\":1721:1839   */\n      pop\n      pop\n      jump\t// out\n        /* \"#utility.yul\":1845:2067   */\n    tag_31:\n        /* \"#utility.yul\":1938:1942   */\n      0x00\n        /* \"#utility.yul\":1976:1978   */\n      0x20\n        /* \"#utility.yul\":1965:1974   */\n      dup3\n        /* \"#utility.yul\":1961:1979   */\n      add\n        /* \"#utility.yul\":1953:1979   */\n      swap1\n      pop\n        /* \"#utility.yul\":1989:2060   */\n      tag_325\n        /* \"#utility.yul\":2057:2058   */\n      0x00\n        /* \"#utility.yul\":2046:2055   */\n      dup4\n        /* \"#utility.yul\":2042:2059   */\n      add\n        /* \"#utility.yul\":2033:2039   */\n      dup5\n        /* \"#utility.yul\":1989:2060   */\n      tag_240\n      jump\t// in\n    tag_325:\n        /* \"#utility.yul\":1845:2067   */\n      swap3\n      swap2\n      pop\n      pop\n      jump\t// out\n        /* \"#utility.yul\":2073:2195   */\n    tag_241:\n        /* \"#utility.yul\":2146:2170   */\n      tag_327\n        /* \"#utility.yul\":2164:2169   */\n      dup2\n        /* \"#utility.yul\":2146:2170   */\n      tag_239\n      jump\t// in\n    tag_327:\n        /* \"#utility.yul\":2139:2144   */\n      dup2\n        /* \"#utility.yul\":2136:2171   */\n      eq\n        /* \"#utility.yul\":2126:2189   */\n      tag_328\n      jumpi\n        /* \"#utility.yul\":2185:2186   */\n      0x00\n        /* \"#utility.yul\":2182:2183   */\n      dup1\n        /* \"#utility.yul\":2175:2187   */\n      revert\n        /* \"#utility.yul\":2126:2189   */\n    tag_328:\n        /* \"#utility.yul\":2073:2195   */\n      pop\n      jump\t// out\n        /* \"#utility.yul\":2201:2340   */\n    tag_242:\n        /* \"#utility.yul\":2247:2252   */\n      0x00\n        /* \"#utility.yul\":2285:2291   */\n      dup2\n        /* \"#utility.yul\":2272:2292   */\n      calldataload\n        /* \"#utility.yul\":2263:2292   */\n      swap1\n      pop\n        /* \"#utility.yul\":2301:2334   */\n      tag_330\n        /* \"#utility.yul\":2328:2333   */\n      dup2\n        /* \"#utility.yul\":2301:2334   */\n      tag_241\n      jump\t// in\n    tag_330:\n        /* \"#utility.yul\":2201:2340   */\n      swap3\n      swap2\n      pop\n      pop\n      jump\t// out\n        /* \"#utility.yul\":2346:2463   */\n    tag_243:\n        /* \"#utility.yul\":2455:2456   */\n      0x00\n        /* \"#utility.yul\":2452:2453   */\n      dup1\n        /* \"#utility.yul\":2445:2457   */\n      revert\n        /* \"#utility.yul\":2469:2586   */\n    tag_244:\n        /* \"#utility.yul\":2578:2579   */\n      0x00\n        /* \"#utility.yul\":2575:2576   */\n      dup1\n        /* \"#utility.yul\":2568:2580   */\n      revert\n        /* \"#utility.yul\":2592:2709   */\n    tag_245:\n        /* \"#utility.yul\":2701:2702   */\n      0x00\n        /* \"#utility.yul\":2698:2699   */\n      dup1\n        /* \"#utility.yul\":2691:2703   */\n      revert\n        /* \"#utility.yul\":2728:3280   */\n    tag_246:\n        /* \"#utility.yul\":2785:2793   */\n      0x00\n        /* \"#utility.yul\":2795:2801   */\n      dup1\n        /* \"#utility.yul\":2845:2848   */\n      dup4\n        /* \"#utility.yul\":2838:2842   */\n      0x1f\n        /* \"#utility.yul\":2830:2836   */\n      dup5\n        /* \"#utility.yul\":2826:2843   */\n      add\n        /* \"#utility.yul\":2822:2849   */\n      slt\n        /* \"#utility.yul\":2812:2934   */\n      tag_335\n      jumpi\n        /* \"#utility.yul\":2853:2932   */\n      tag_336\n      tag_243\n      jump\t// in\n    tag_336:\n        /* \"#utility.yul\":2812:2934   */\n    tag_335:\n        /* \"#utility.yul\":2966:2972   */\n      dup3\n        /* \"#utility.yul\":2953:2973   */\n      calldataload\n        /* \"#utility.yul\":2943:2973   */\n      swap1\n      pop\n        /* \"#utility.yul\":2996:3014   */\n      0xffffffffffffffff\n        /* \"#utility.yul\":2988:2994   */\n      dup2\n        /* \"#utility.yul\":2985:3015   */\n      gt\n        /* \"#utility.yul\":2982:3099   */\n      iszero\n      tag_337\n      jumpi\n        /* \"#utility.yul\":3018:3097   */\n      tag_338\n      tag_244\n      jump\t// in\n    tag_338:\n        /* \"#utility.yul\":2982:3099   */\n    tag_337:\n        /* \"#utility.yul\":3132:3136   */\n      0x20\n        /* \"#utility.yul\":3124:3130   */\n      dup4\n        /* \"#utility.yul\":3120:3137   */\n      add\n        /* \"#utility.yul\":3108:3137   */\n      swap2\n      pop\n        /* \"#utility.yul\":3186:3189   */\n      dup4\n        /* \"#utility.yul\":3178:3182   */\n      0x01\n        /* \"#utility.yul\":3170:3176   */\n      dup3\n        /* \"#utility.yul\":3166:3183   */\n      mul\n        /* \"#utility.yul\":3156:3164   */\n      dup4\n        /* \"#utility.yul\":3152:3184   */\n      add\n        /* \"#utility.yul\":3149:3190   */\n      gt\n        /* \"#utility.yul\":3146:3274   */\n      iszero\n      tag_339\n      jumpi\n        /* \"#utility.yul\":3193:3272   */\n      tag_340\n      tag_245\n      jump\t// in\n    tag_340:\n        /* \"#utility.yul\":3146:3274   */\n    tag_339:\n        /* \"#utility.yul\":2728:3280   */\n      swap3\n      pop\n      swap3\n      swap1\n      pop\n      jump\t// out\n        /* \"#utility.yul\":3286:3376   */\n    tag_247:\n        /* \"#utility.yul\":3320:3327   */\n      0x00\n        /* \"#utility.yul\":3363:3368   */\n      dup2\n        /* \"#utility.yul\":3356:3369   */\n      iszero\n        /* \"#utility.yul\":3349:3370   */\n      iszero\n        /* \"#utility.yul\":3338:3370   */\n      swap1\n      pop\n        /* \"#utility.yul\":3286:3376   */\n      swap2\n      swap1\n      pop\n      jump\t// out\n        /* \"#utility.yul\":3382:3498   */\n    tag_248:\n        /* \"#utility.yul\":3452:3473   */\n      tag_343\n        /* \"#utility.yul\":3467:3472   */\n      dup2\n        /* \"#utility.yul\":3452:3473   */\n      tag_247\n      jump\t// in\n    tag_343:\n        /* \"#utility.yul\":3445:3450   */\n      dup2\n        /* \"#utility.yul\":3442:3474   */\n      eq\n        /* \"#utility.yul\":3432:3492   */\n      tag_344\n      jumpi\n        /* \"#utility.yul\":3488:3489   */\n      0x00\n        /* \"#utility.yul\":3485:3486   */\n      dup1\n        /* \"#utility.yul\":3478:3490   */\n      revert\n        /* \"#utility.yul\":3432:3492   */\n    tag_344:\n        /* \"#utility.yul\":3382:3498   */\n      pop\n      jump\t// out\n        /* \"#utility.yul\":3504:3637   */\n    tag_249:\n        /* \"#utility.yul\":3547:3552   */\n      0x00\n        /* \"#utility.yul\":3585:3591   */\n      dup2\n        /* \"#utility.yul\":3572:3592   */\n      calldataload\n        /* \"#utility.yul\":3563:3592   */\n      swap1\n      pop\n        /* \"#utility.yul\":3601:3631   */\n      tag_346\n        /* \"#utility.yul\":3625:3630   */\n      dup2\n        /* \"#utility.yul\":3601:3631   */\n      tag_248\n      jump\t// in\n    tag_346:\n        /* \"#utility.yul\":3504:3637   */\n      swap3\n      swap2\n      pop\n      pop\n      jump\t// out\n        /* \"#utility.yul\":3643:3751   */\n    tag_250:\n        /* \"#utility.yul\":3725:3726   */\n      0x04\n        /* \"#utility.yul\":3718:3723   */\n      dup2\n        /* \"#utility.yul\":3715:3727   */\n      lt\n        /* \"#utility.yul\":3705:3745   */\n      tag_348\n      jumpi\n        /* \"#utility.yul\":3741:3742   */\n      0x00\n        /* \"#utility.yul\":3738:3739   */\n      dup1\n        /* \"#utility.yul\":3731:3743   */\n      revert\n        /* \"#utility.yul\":3705:3745   */\n    tag_348:\n        /* \"#utility.yul\":3643:3751   */\n      pop\n      jump\t// out\n        /* \"#utility.yul\":3757:3914   */\n    tag_251:\n        /* \"#utility.yul\":3812:3817   */\n      0x00\n        /* \"#utility.yul\":3850:3856   */\n      dup2\n        /* \"#utility.yul\":3837:3857   */\n      calldataload\n        /* \"#utility.yul\":3828:3857   */\n      swap1\n      pop\n        /* \"#utility.yul\":3866:3908   */\n      tag_350\n        /* \"#utility.yul\":3902:3907   */\n      dup2\n        /* \"#utility.yul\":3866:3908   */\n      tag_250\n      jump\t// in\n    tag_350:\n        /* \"#utility.yul\":3757:3914   */\n      swap3\n      swap2\n      pop\n      pop\n      jump\t// out\n        /* \"#utility.yul\":3920:5625   */\n    tag_39:\n        /* \"#utility.yul\":4068:4074   */\n      0x00\n        /* \"#utility.yul\":4076:4082   */\n      dup1\n        /* \"#utility.yul\":4084:4090   */\n      0x00\n        /* \"#utility.yul\":4092:4098   */\n      dup1\n        /* \"#utility.yul\":4100:4106   */\n      0x00\n        /* \"#utility.yul\":4108:4114   */\n      dup1\n        /* \"#utility.yul\":4116:4122   */\n      0x00\n        /* \"#utility.yul\":4124:4130   */\n      dup1\n        /* \"#utility.yul\":4132:4138   */\n      0x00\n        /* \"#utility.yul\":4140:4146   */\n      dup1\n        /* \"#utility.yul\":4189:4192   */\n      0x0120\n        /* \"#utility.yul\":4177:4186   */\n      dup12\n        /* \"#utility.yul\":4168:4175   */\n      dup14\n        /* \"#utility.yul\":4164:4187   */\n      sub\n        /* \"#utility.yul\":4160:4193   */\n      slt\n        /* \"#utility.yul\":4157:4277   */\n      iszero\n      tag_352\n      jumpi\n        /* \"#utility.yul\":4196:4275   */\n      tag_353\n      tag_234\n      jump\t// in\n    tag_353:\n        /* \"#utility.yul\":4157:4277   */\n    tag_352:\n        /* \"#utility.yul\":4316:4317   */\n      0x00\n        /* \"#utility.yul\":4341:4394   */\n      tag_354\n        /* \"#utility.yul\":4386:4393   */\n      dup14\n        /* \"#utility.yul\":4377:4383   */\n      dup3\n        /* \"#utility.yul\":4366:4375   */\n      dup15\n        /* \"#utility.yul\":4362:4384   */\n      add\n        /* \"#utility.yul\":4341:4394   */\n      tag_242\n      jump\t// in\n    tag_354:\n        /* \"#utility.yul\":4331:4394   */\n      swap11\n      pop\n        /* \"#utility.yul\":4287:4404   */\n      pop\n        /* \"#utility.yul\":4443:4445   */\n      0x20\n        /* \"#utility.yul\":4469:4522   */\n      tag_355\n        /* \"#utility.yul\":4514:4521   */\n      dup14\n        /* \"#utility.yul\":4505:4511   */\n      dup3\n        /* \"#utility.yul\":4494:4503   */\n      dup15\n        /* \"#utility.yul\":4490:4512   */\n      add\n        /* \"#utility.yul\":4469:4522   */\n      tag_237\n      jump\t// in\n    tag_355:\n        /* \"#utility.yul\":4459:4522   */\n      swap10\n      pop\n        /* \"#utility.yul\":4414:4532   */\n      pop\n        /* \"#utility.yul\":4571:4573   */\n      0x40\n        /* \"#utility.yul\":4597:4650   */\n      tag_356\n        /* \"#utility.yul\":4642:4649   */\n      dup14\n        /* \"#utility.yul\":4633:4639   */\n      dup3\n        /* \"#utility.yul\":4622:4631   */\n      dup15\n        /* \"#utility.yul\":4618:4640   */\n      add\n        /* \"#utility.yul\":4597:4650   */\n      tag_237\n      jump\t// in\n    tag_356:\n        /* \"#utility.yul\":4587:4650   */\n      swap9\n      pop\n        /* \"#utility.yul\":4542:4660   */\n      pop\n        /* \"#utility.yul\":4727:4729   */\n      0x60\n        /* \"#utility.yul\":4716:4725   */\n      dup12\n        /* \"#utility.yul\":4712:4730   */\n      add\n        /* \"#utility.yul\":4699:4731   */\n      calldataload\n        /* \"#utility.yul\":4758:4776   */\n      0xffffffffffffffff\n        /* \"#utility.yul\":4750:4756   */\n      dup2\n        /* \"#utility.yul\":4747:4777   */\n      gt\n        /* \"#utility.yul\":4744:4861   */\n      iszero\n      tag_357\n      jumpi\n        /* \"#utility.yul\":4780:4859   */\n      tag_358\n      tag_235\n      jump\t// in\n    tag_358:\n        /* \"#utility.yul\":4744:4861   */\n    tag_357:\n        /* \"#utility.yul\":4893:4957   */\n      tag_359\n        /* \"#utility.yul\":4949:4956   */\n      dup14\n        /* \"#utility.yul\":4940:4946   */\n      dup3\n        /* \"#utility.yul\":4929:4938   */\n      dup15\n        /* \"#utility.yul\":4925:4947   */\n      add\n        /* \"#utility.yul\":4893:4957   */\n      tag_246\n      jump\t// in\n    tag_359:\n        /* \"#utility.yul\":4875:4957   */\n      swap8\n      pop\n      swap8\n      pop\n        /* \"#utility.yul\":4670:4967   */\n      pop\n        /* \"#utility.yul\":5006:5009   */\n      0x80\n        /* \"#utility.yul\":5033:5083   */\n      tag_360\n        /* \"#utility.yul\":5075:5082   */\n      dup14\n        /* \"#utility.yul\":5066:5072   */\n      dup3\n        /* \"#utility.yul\":5055:5064   */\n      dup15\n        /* \"#utility.yul\":5051:5073   */\n      add\n        /* \"#utility.yul\":5033:5083   */\n      tag_249\n      jump\t// in\n    tag_360:\n        /* \"#utility.yul\":5023:5083   */\n      swap6\n      pop\n        /* \"#utility.yul\":4977:5093   */\n      pop\n        /* \"#utility.yul\":5132:5135   */\n      0xa0\n        /* \"#utility.yul\":5159:5221   */\n      tag_361\n        /* \"#utility.yul\":5213:5220   */\n      dup14\n        /* \"#utility.yul\":5204:5210   */\n      dup3\n        /* \"#utility.yul\":5193:5202   */\n      dup15\n        /* \"#utility.yul\":5189:5211   */\n      add\n        /* \"#utility.yul\":5159:5221   */\n      tag_251\n      jump\t// in\n    tag_361:\n        /* \"#utility.yul\":5149:5221   */\n      swap5\n      pop\n        /* \"#utility.yul\":5103:5231   */\n      pop\n        /* \"#utility.yul\":5270:5273   */\n      0xc0\n        /* \"#utility.yul\":5297:5350   */\n      tag_362\n        /* \"#utility.yul\":5342:5349   */\n      dup14\n        /* \"#utility.yul\":5333:5339   */\n      dup3\n        /* \"#utility.yul\":5322:5331   */\n      dup15\n        /* \"#utility.yul\":5318:5340   */\n      add\n        /* \"#utility.yul\":5297:5350   */\n      tag_237\n      jump\t// in\n    tag_362:\n        /* \"#utility.yul\":5287:5350   */\n      swap4\n      pop\n        /* \"#utility.yul\":5241:5360   */\n      pop\n        /* \"#utility.yul\":5399:5402   */\n      0xe0\n        /* \"#utility.yul\":5426:5479   */\n      tag_363\n        /* \"#utility.yul\":5471:5478   */\n      dup14\n        /* \"#utility.yul\":5462:5468   */\n      dup3\n        /* \"#utility.yul\":5451:5460   */\n      dup15\n        /* \"#utility.yul\":5447:5469   */\n      add\n        /* \"#utility.yul\":5426:5479   */\n      tag_237\n      jump\t// in\n    tag_363:\n        /* \"#utility.yul\":5416:5479   */\n      swap3\n      pop\n        /* \"#utility.yul\":5370:5489   */\n      pop\n        /* \"#utility.yul\":5528:5531   */\n      0x0100\n        /* \"#utility.yul\":5555:5608   */\n      tag_364\n        /* \"#utility.yul\":5600:5607   */\n      dup14\n        /* \"#utility.yul\":5591:5597   */\n      dup3\n        /* \"#utility.yul\":5580:5589   */\n      dup15\n        /* \"#utility.yul\":5576:5598   */\n      add\n        /* \"#utility.yul\":5555:5608   */\n      tag_237\n      jump\t// in\n    tag_364:\n        /* \"#utility.yul\":5545:5608   */\n      swap2\n      pop\n        /* \"#utility.yul\":5499:5618   */\n      pop\n        /* \"#utility.yul\":3920:5625   */\n      swap3\n      swap6\n      swap9\n      swap12\n      swap2\n      swap5\n      swap8\n      swap11\n      pop\n      swap3\n      swap6\n      swap9\n      pop\n      jump\t// out\n        /* \"#utility.yul\":5631:6740   */\n    tag_43:\n        /* \"#utility.yul\":5737:5743   */\n      0x00\n        /* \"#utility.yul\":5745:5751   */\n      dup1\n        /* \"#utility.yul\":5753:5759   */\n      0x00\n        /* \"#utility.yul\":5761:5767   */\n      dup1\n        /* \"#utility.yul\":5769:5775   */\n      0x00\n        /* \"#utility.yul\":5777:5783   */\n      dup1\n        /* \"#utility.yul\":5826:5829   */\n      0xa0\n        /* \"#utility.yul\":5814:5823   */\n      dup8\n        /* \"#utility.yul\":5805:5812   */\n      dup10\n        /* \"#utility.yul\":5801:5824   */\n      sub\n        /* \"#utility.yul\":5797:5830   */\n      slt\n        /* \"#utility.yul\":5794:5914   */\n      iszero\n      tag_366\n      jumpi\n        /* \"#utility.yul\":5833:5912   */\n      tag_367\n      tag_234\n      jump\t// in\n    tag_367:\n        /* \"#utility.yul\":5794:5914   */\n    tag_366:\n        /* \"#utility.yul\":5953:5954   */\n      0x00\n        /* \"#utility.yul\":5978:6031   */\n      tag_368\n        /* \"#utility.yul\":6023:6030   */\n      dup10\n        /* \"#utility.yul\":6014:6020   */\n      dup3\n        /* \"#utility.yul\":6003:6012   */\n      dup11\n        /* \"#utility.yul\":5999:6021   */\n      add\n        /* \"#utility.yul\":5978:6031   */\n      tag_242\n      jump\t// in\n    tag_368:\n        /* \"#utility.yul\":5968:6031   */\n      swap7\n      pop\n        /* \"#utility.yul\":5924:6041   */\n      pop\n        /* \"#utility.yul\":6108:6110   */\n      0x20\n        /* \"#utility.yul\":6097:6106   */\n      dup8\n        /* \"#utility.yul\":6093:6111   */\n      add\n        /* \"#utility.yul\":6080:6112   */\n      calldataload\n        /* \"#utility.yul\":6139:6157   */\n      0xffffffffffffffff\n        /* \"#utility.yul\":6131:6137   */\n      dup2\n        /* \"#utility.yul\":6128:6158   */\n      gt\n        /* \"#utility.yul\":6125:6242   */\n      iszero\n      tag_369\n      jumpi\n        /* \"#utility.yul\":6161:6240   */\n      tag_370\n      tag_235\n      jump\t// in\n    tag_370:\n        /* \"#utility.yul\":6125:6242   */\n    tag_369:\n        /* \"#utility.yul\":6274:6338   */\n      tag_371\n        /* \"#utility.yul\":6330:6337   */\n      dup10\n        /* \"#utility.yul\":6321:6327   */\n      dup3\n        /* \"#utility.yul\":6310:6319   */\n      dup11\n        /* \"#utility.yul\":6306:6328   */\n      add\n        /* \"#utility.yul\":6274:6338   */\n      tag_246\n      jump\t// in\n    tag_371:\n        /* \"#utility.yul\":6256:6338   */\n      swap6\n      pop\n      swap6\n      pop\n        /* \"#utility.yul\":6051:6348   */\n      pop\n        /* \"#utility.yul\":6387:6389   */\n      0x40\n        /* \"#utility.yul\":6413:6466   */\n      tag_372\n        /* \"#utility.yul\":6458:6465   */\n      dup10\n        /* \"#utility.yul\":6449:6455   */\n      dup3\n        /* \"#utility.yul\":6438:6447   */\n      dup11\n        /* \"#utility.yul\":6434:6456   */\n      add\n        /* \"#utility.yul\":6413:6466   */\n      tag_237\n      jump\t// in\n    tag_372:\n        /* \"#utility.yul\":6403:6466   */\n      swap4\n      pop\n        /* \"#utility.yul\":6358:6476   */\n      pop\n        /* \"#utility.yul\":6515:6517   */\n      0x60\n        /* \"#utility.yul\":6541:6594   */\n      tag_373\n        /* \"#utility.yul\":6586:6593   */\n      dup10\n        /* \"#utility.yul\":6577:6583   */\n      dup3\n        /* \"#utility.yul\":6566:6575   */\n      dup11\n        /* \"#utility.yul\":6562:6584   */\n      add\n        /* \"#utility.yul\":6541:6594   */\n      tag_237\n      jump\t// in\n    tag_373:\n        /* \"#utility.yul\":6531:6594   */\n      swap3\n      pop\n        /* \"#utility.yul\":6486:6604   */\n      pop\n        /* \"#utility.yul\":6643:6646   */\n      0x80\n        /* \"#utility.yul\":6670:6723   */\n      tag_374\n        /* \"#utility.yul\":6715:6722   */\n      dup10\n        /* \"#utility.yul\":6706:6712   */\n      dup3\n        /* \"#utility.yul\":6695:6704   */\n      dup11\n        /* \"#utility.yul\":6691:6713   */\n      add\n        /* \"#utility.yul\":6670:6723   */\n      tag_237\n      jump\t// in\n    tag_374:\n        /* \"#utility.yul\":6660:6723   */\n      swap2\n      pop\n        /* \"#utility.yul\":6614:6733   */\n      pop\n        /* \"#utility.yul\":5631:6740   */\n      swap3\n      swap6\n      pop\n      swap3\n      swap6\n      pop\n      swap3\n      swap6\n      jump\t// out\n        /* \"#utility.yul\":6746:6844   */\n    tag_252:\n        /* \"#utility.yul\":6797:6803   */\n      0x00\n        /* \"#utility.yul\":6831:6836   */\n      dup2\n        /* \"#utility.yul\":6825:6837   */\n      mload\n        /* \"#utility.yul\":6815:6837   */\n      swap1\n      pop\n        /* \"#utility.yul\":6746:6844   */\n      swap2\n      swap1\n      pop\n      jump\t// out\n        /* \"#utility.yul\":6850:7018   */\n    tag_253:\n        /* \"#utility.yul\":6933:6944   */\n      0x00\n        /* \"#utility.yul\":6967:6973   */\n      dup3\n        /* \"#utility.yul\":6962:6965   */\n      dup3\n        /* \"#utility.yul\":6955:6974   */\n      mstore\n        /* \"#utility.yul\":7007:7011   */\n      0x20\n        /* \"#utility.yul\":7002:7005   */\n      dup3\n        /* \"#utility.yul\":6998:7012   */\n      add\n        /* \"#utility.yul\":6983:7012   */\n      swap1\n      pop\n        /* \"#utility.yul\":6850:7018   */\n      swap3\n      swap2\n      pop\n      pop\n      jump\t// out\n        /* \"#utility.yul\":7024:7270   */\n    tag_254:\n        /* \"#utility.yul\":7105:7106   */\n      0x00\n        /* \"#utility.yul\":7115:7228   */\n    tag_378:\n        /* \"#utility.yul\":7129:7135   */\n      dup4\n        /* \"#utility.yul\":7126:7127   */\n      dup2\n        /* \"#utility.yul\":7123:7136   */\n      lt\n        /* \"#utility.yul\":7115:7228   */\n      iszero\n      tag_380\n      jumpi\n        /* \"#utility.yul\":7214:7215   */\n      dup1\n        /* \"#utility.yul\":7209:7212   */\n      dup3\n        /* \"#utility.yul\":7205:7216   */\n      add\n        /* \"#utility.yul\":7199:7217   */\n      mload\n        /* \"#utility.yul\":7195:7196   */\n      dup2\n        /* \"#utility.yul\":7190:7193   */\n      dup5\n        /* \"#utility.yul\":7186:7197   */\n      add\n        /* \"#utility.yul\":7179:7218   */\n      mstore\n        /* \"#utility.yul\":7151:7153   */\n      0x20\n        /* \"#utility.yul\":7148:7149   */\n      dup2\n        /* \"#utility.yul\":7144:7154   */\n      add\n        /* \"#utility.yul\":7139:7154   */\n      swap1\n      pop\n        /* \"#utility.yul\":7115:7228   */\n      jump(tag_378)\n    tag_380:\n        /* \"#utility.yul\":7262:7263   */\n      0x00\n        /* \"#utility.yul\":7253:7259   */\n      dup5\n        /* \"#utility.yul\":7248:7251   */\n      dup5\n        /* \"#utility.yul\":7244:7260   */\n      add\n        /* \"#utility.yul\":7237:7264   */\n      mstore\n        /* \"#utility.yul\":7086:7270   */\n      pop\n        /* \"#utility.yul\":7024:7270   */\n      pop\n      pop\n      pop\n      jump\t// out\n        /* \"#utility.yul\":7276:7378   */\n    tag_255:\n        /* \"#utility.yul\":7317:7323   */\n      0x00\n        /* \"#utility.yul\":7368:7370   */\n      0x1f\n        /* \"#utility.yul\":7364:7371   */\n      not\n        /* \"#utility.yul\":7359:7361   */\n      0x1f\n        /* \"#utility.yul\":7352:7357   */\n      dup4\n        /* \"#utility.yul\":7348:7362   */\n      add\n        /* \"#utility.yul\":7344:7372   */\n      and\n        /* \"#utility.yul\":7334:7372   */\n      swap1\n      pop\n        /* \"#utility.yul\":7276:7378   */\n      swap2\n      swap1\n      pop\n      jump\t// out\n        /* \"#utility.yul\":7384:7757   */\n    tag_256:\n        /* \"#utility.yul\":7470:7473   */\n      0x00\n        /* \"#utility.yul\":7498:7536   */\n      tag_383\n        /* \"#utility.yul\":7530:7535   */\n      dup3\n        /* \"#utility.yul\":7498:7536   */\n      tag_252\n      jump\t// in\n    tag_383:\n        /* \"#utility.yul\":7552:7622   */\n      tag_384\n        /* \"#utility.yul\":7615:7621   */\n      dup2\n        /* \"#utility.yul\":7610:7613   */\n      dup6\n        /* \"#utility.yul\":7552:7622   */\n      tag_253\n      jump\t// in\n    tag_384:\n        /* \"#utility.yul\":7545:7622   */\n      swap4\n      pop\n        /* \"#utility.yul\":7631:7696   */\n      tag_385\n        /* \"#utility.yul\":7689:7695   */\n      dup2\n        /* \"#utility.yul\":7684:7687   */\n      dup6\n        /* \"#utility.yul\":7677:7681   */\n      0x20\n        /* \"#utility.yul\":7670:7675   */\n      dup7\n        /* \"#utility.yul\":7666:7682   */\n      add\n        /* \"#utility.yul\":7631:7696   */\n      tag_254\n      jump\t// in\n    tag_385:\n        /* \"#utility.yul\":7721:7750   */\n      tag_386\n        /* \"#utility.yul\":7743:7749   */\n      dup2\n        /* \"#utility.yul\":7721:7750   */\n      tag_255\n      jump\t// in\n    tag_386:\n        /* \"#utility.yul\":7716:7719   */\n      dup5\n        /* \"#utility.yul\":7712:7751   */\n      add\n        /* \"#utility.yul\":7705:7751   */\n      swap2\n      pop\n        /* \"#utility.yul\":7474:7757   */\n      pop\n        /* \"#utility.yul\":7384:7757   */\n      swap3\n      swap2\n      pop\n      pop\n      jump\t// out\n        /* \"#utility.yul\":7763:8072   */\n    tag_46:\n        /* \"#utility.yul\":7874:7878   */\n      0x00\n        /* \"#utility.yul\":7912:7914   */\n      0x20\n        /* \"#utility.yul\":7901:7910   */\n      dup3\n        /* \"#utility.yul\":7897:7915   */\n      add\n        /* \"#utility.yul\":7889:7915   */\n      swap1\n      pop\n        /* \"#utility.yul\":7961:7970   */\n      dup2\n        /* \"#utility.yul\":7955:7959   */\n      dup2\n        /* \"#utility.yul\":7951:7971   */\n      sub\n        /* \"#utility.yul\":7947:7948   */\n      0x00\n        /* \"#utility.yul\":7936:7945   */\n      dup4\n        /* \"#utility.yul\":7932:7949   */\n      add\n        /* \"#utility.yul\":7925:7972   */\n      mstore\n        /* \"#utility.yul\":7989:8065   */\n      tag_388\n        /* \"#utility.yul\":8060:8064   */\n      dup2\n        /* \"#utility.yul\":8051:8057   */\n      dup5\n        /* \"#utility.yul\":7989:8065   */\n      tag_256\n      jump\t// in\n    tag_388:\n        /* \"#utility.yul\":7981:8065   */\n      swap1\n      pop\n        /* \"#utility.yul\":7763:8072   */\n      swap3\n      swap2\n      pop\n      pop\n      jump\t// out\n        /* \"#utility.yul\":8078:8407   */\n    tag_50:\n        /* \"#utility.yul\":8137:8143   */\n      0x00\n        /* \"#utility.yul\":8186:8188   */\n      0x20\n        /* \"#utility.yul\":8174:8183   */\n      dup3\n        /* \"#utility.yul\":8165:8172   */\n      dup5\n        /* \"#utility.yul\":8161:8184   */\n      sub\n        /* \"#utility.yul\":8157:8189   */\n      slt\n        /* \"#utility.yul\":8154:8273   */\n      iszero\n      tag_390\n      jumpi\n        /* \"#utility.yul\":8192:8271   */\n      tag_391\n      tag_234\n      jump\t// in\n    tag_391:\n        /* \"#utility.yul\":8154:8273   */\n    tag_390:\n        /* \"#utility.yul\":8312:8313   */\n      0x00\n        /* \"#utility.yul\":8337:8390   */\n      tag_392\n        /* \"#utility.yul\":8382:8389   */\n      dup5\n        /* \"#utility.yul\":8373:8379   */\n      dup3\n        /* \"#utility.yul\":8362:8371   */\n      dup6\n        /* \"#utility.yul\":8358:8380   */\n      add\n        /* \"#utility.yul\":8337:8390   */\n      tag_242\n      jump\t// in\n    tag_392:\n        /* \"#utility.yul\":8327:8390   */\n      swap2\n      pop\n        /* \"#utility.yul\":8283:8400   */\n      pop\n        /* \"#utility.yul\":8078:8407   */\n      swap3\n      swap2\n      pop\n      pop\n      jump\t// out\n        /* \"#utility.yul\":8413:8522   */\n    tag_257:\n        /* \"#utility.yul\":8494:8515   */\n      tag_394\n        /* \"#utility.yul\":8509:8514   */\n      dup2\n        /* \"#utility.yul\":8494:8515   */\n      tag_247\n      jump\t// in\n    tag_394:\n        /* \"#utility.yul\":8489:8492   */\n      dup3\n        /* \"#utility.yul\":8482:8516   */\n      mstore\n        /* \"#utility.yul\":8413:8522   */\n      pop\n      pop\n      jump\t// out\n        /* \"#utility.yul\":8528:8738   */\n    tag_53:\n        /* \"#utility.yul\":8615:8619   */\n      0x00\n        /* \"#utility.yul\":8653:8655   */\n      0x20\n        /* \"#utility.yul\":8642:8651   */\n      dup3\n        /* \"#utility.yul\":8638:8656   */\n      add\n        /* \"#utility.yul\":8630:8656   */\n      swap1\n      pop\n        /* \"#utility.yul\":8666:8731   */\n      tag_396\n        /* \"#utility.yul\":8728:8729   */\n      0x00\n        /* \"#utility.yul\":8717:8726   */\n      dup4\n        /* \"#utility.yul\":8713:8730   */\n      add\n        /* \"#utility.yul\":8704:8710   */\n      dup5\n        /* \"#utility.yul\":8666:8731   */\n      tag_257\n      jump\t// in\n    tag_396:\n        /* \"#utility.yul\":8528:8738   */\n      swap3\n      swap2\n      pop\n      pop\n      jump\t// out\n        /* \"#utility.yul\":8744:8886   */\n    tag_258:\n        /* \"#utility.yul\":8839:8845   */\n      0x00\n        /* \"#utility.yul\":8873:8878   */\n      dup2\n        /* \"#utility.yul\":8867:8879   */\n      mload\n        /* \"#utility.yul\":8857:8879   */\n      swap1\n      pop\n        /* \"#utility.yul\":8744:8886   */\n      swap2\n      swap1\n      pop\n      jump\t// out\n        /* \"#utility.yul\":8892:9104   */\n    tag_259:\n        /* \"#utility.yul\":9019:9030   */\n      0x00\n        /* \"#utility.yul\":9053:9059   */\n      dup3\n        /* \"#utility.yul\":9048:9051   */\n      dup3\n        /* \"#utility.yul\":9041:9060   */\n      mstore\n        /* \"#utility.yul\":9093:9097   */\n      0x20\n        /* \"#utility.yul\":9088:9091   */\n      dup3\n        /* \"#utility.yul\":9084:9098   */\n      add\n        /* \"#utility.yul\":9069:9098   */\n      swap1\n      pop\n        /* \"#utility.yul\":8892:9104   */\n      swap3\n      swap2\n      pop\n      pop\n      jump\t// out\n        /* \"#utility.yul\":9110:9270   */\n    tag_260:\n        /* \"#utility.yul\":9205:9209   */\n      0x00\n        /* \"#utility.yul\":9228:9231   */\n      dup2\n        /* \"#utility.yul\":9220:9231   */\n      swap1\n      pop\n        /* \"#utility.yul\":9258:9262   */\n      0x20\n        /* \"#utility.yul\":9253:9256   */\n      dup3\n        /* \"#utility.yul\":9249:9263   */\n      add\n        /* \"#utility.yul\":9241:9263   */\n      swap1\n      pop\n        /* \"#utility.yul\":9110:9270   */\n      swap2\n      swap1\n      pop\n      jump\t// out\n        /* \"#utility.yul\":9276:9384   */\n    tag_261:\n        /* \"#utility.yul\":9353:9377   */\n      tag_401\n        /* \"#utility.yul\":9371:9376   */\n      dup2\n        /* \"#utility.yul\":9353:9377   */\n      tag_239\n      jump\t// in\n    tag_401:\n        /* \"#utility.yul\":9348:9351   */\n      dup3\n        /* \"#utility.yul\":9341:9378   */\n      mstore\n        /* \"#utility.yul\":9276:9384   */\n      pop\n      pop\n      jump\t// out\n        /* \"#utility.yul\":9390:9498   */\n    tag_262:\n        /* \"#utility.yul\":9467:9491   */\n      tag_403\n        /* \"#utility.yul\":9485:9490   */\n      dup2\n        /* \"#utility.yul\":9467:9491   */\n      tag_231\n      jump\t// in\n    tag_403:\n        /* \"#utility.yul\":9462:9465   */\n      dup3\n        /* \"#utility.yul\":9455:9492   */\n      mstore\n        /* \"#utility.yul\":9390:9498   */\n      pop\n      pop\n      jump\t// out\n        /* \"#utility.yul\":9504:9662   */\n    tag_263:\n        /* \"#utility.yul\":9577:9588   */\n      0x00\n        /* \"#utility.yul\":9611:9617   */\n      dup3\n        /* \"#utility.yul\":9606:9609   */\n      dup3\n        /* \"#utility.yul\":9599:9618   */\n      mstore\n        /* \"#utility.yul\":9651:9655   */\n      0x20\n        /* \"#utility.yul\":9646:9649   */\n      dup3\n        /* \"#utility.yul\":9642:9656   */\n      add\n        /* \"#utility.yul\":9627:9656   */\n      swap1\n      pop\n        /* \"#utility.yul\":9504:9662   */\n      swap3\n      swap2\n      pop\n      pop\n      jump\t// out\n        /* \"#utility.yul\":9668:10021   */\n    tag_264:\n        /* \"#utility.yul\":9744:9747   */\n      0x00\n        /* \"#utility.yul\":9772:9810   */\n      tag_406\n        /* \"#utility.yul\":9804:9809   */\n      dup3\n        /* \"#utility.yul\":9772:9810   */\n      tag_252\n      jump\t// in\n    tag_406:\n        /* \"#utility.yul\":9826:9886   */\n      tag_407\n        /* \"#utility.yul\":9879:9885   */\n      dup2\n        /* \"#utility.yul\":9874:9877   */\n      dup6\n        /* \"#utility.yul\":9826:9886   */\n      tag_263\n      jump\t// in\n    tag_407:\n        /* \"#utility.yul\":9819:9886   */\n      swap4\n      pop\n        /* \"#utility.yul\":9895:9960   */\n      tag_408\n        /* \"#utility.yul\":9953:9959   */\n      dup2\n        /* \"#utility.yul\":9948:9951   */\n      dup6\n        /* \"#utility.yul\":9941:9945   */\n      0x20\n        /* \"#utility.yul\":9934:9939   */\n      dup7\n        /* \"#utility.yul\":9930:9946   */\n      add\n        /* \"#utility.yul\":9895:9960   */\n      tag_254\n      jump\t// in\n    tag_408:\n        /* \"#utility.yul\":9985:10014   */\n      tag_409\n        /* \"#utility.yul\":10007:10013   */\n      dup2\n        /* \"#utility.yul\":9985:10014   */\n      tag_255\n      jump\t// in\n    tag_409:\n        /* \"#utility.yul\":9980:9983   */\n      dup5\n        /* \"#utility.yul\":9976:10015   */\n      add\n        /* \"#utility.yul\":9969:10015   */\n      swap2\n      pop\n        /* \"#utility.yul\":9748:10021   */\n      pop\n        /* \"#utility.yul\":9668:10021   */\n      swap3\n      swap2\n      pop\n      pop\n      jump\t// out\n        /* \"#utility.yul\":10027:10126   */\n    tag_265:\n        /* \"#utility.yul\":10098:10119   */\n      tag_411\n        /* \"#utility.yul\":10113:10118   */\n      dup2\n        /* \"#utility.yul\":10098:10119   */\n      tag_247\n      jump\t// in\n    tag_411:\n        /* \"#utility.yul\":10093:10096   */\n      dup3\n        /* \"#utility.yul\":10086:10120   */\n      mstore\n        /* \"#utility.yul\":10027:10126   */\n      pop\n      pop\n      jump\t// out\n        /* \"#utility.yul\":10132:10312   */\n    tag_112:\n        /* \"#utility.yul\":10180:10257   */\n      0x4e487b7100000000000000000000000000000000000000000000000000000000\n        /* \"#utility.yul\":10177:10178   */\n      0x00\n        /* \"#utility.yul\":10170:10258   */\n      mstore\n        /* \"#utility.yul\":10277:10281   */\n      0x21\n        /* \"#utility.yul\":10274:10275   */\n      0x04\n        /* \"#utility.yul\":10267:10282   */\n      mstore\n        /* \"#utility.yul\":10301:10305   */\n      0x24\n        /* \"#utility.yul\":10298:10299   */\n      0x00\n        /* \"#utility.yul\":10291:10306   */\n      revert\n        /* \"#utility.yul\":10318:10432   */\n    tag_266:\n        /* \"#utility.yul\":10400:10401   */\n      0x04\n        /* \"#utility.yul\":10393:10398   */\n      dup2\n        /* \"#utility.yul\":10390:10402   */\n      lt\n        /* \"#utility.yul\":10380:10426   */\n      tag_414\n      jumpi\n        /* \"#utility.yul\":10406:10424   */\n      tag_415\n      tag_112\n      jump\t// in\n    tag_415:\n        /* \"#utility.yul\":10380:10426   */\n    tag_414:\n        /* \"#utility.yul\":10318:10432   */\n      pop\n      jump\t// out\n        /* \"#utility.yul\":10438:10567   */\n    tag_267:\n        /* \"#utility.yul\":10484:10491   */\n      0x00\n        /* \"#utility.yul\":10513:10518   */\n      dup2\n        /* \"#utility.yul\":10502:10518   */\n      swap1\n      pop\n        /* \"#utility.yul\":10519:10561   */\n      tag_417\n        /* \"#utility.yul\":10555:10560   */\n      dup3\n        /* \"#utility.yul\":10519:10561   */\n      tag_266\n      jump\t// in\n    tag_417:\n        /* \"#utility.yul\":10438:10567   */\n      swap2\n      swap1\n      pop\n      jump\t// out\n        /* \"#utility.yul\":10573:10702   */\n    tag_268:\n        /* \"#utility.yul\":10630:10639   */\n      0x00\n        /* \"#utility.yul\":10663:10696   */\n      tag_419\n        /* \"#utility.yul\":10690:10695   */\n      dup3\n        /* \"#utility.yul\":10663:10696   */\n      tag_267\n      jump\t// in\n    tag_419:\n        /* \"#utility.yul\":10650:10696   */\n      swap1\n      pop\n        /* \"#utility.yul\":10573:10702   */\n      swap2\n      swap1\n      pop\n      jump\t// out\n        /* \"#utility.yul\":10708:10843   */\n    tag_269:\n        /* \"#utility.yul\":10792:10836   */\n      tag_421\n        /* \"#utility.yul\":10830:10835   */\n      dup2\n        /* \"#utility.yul\":10792:10836   */\n      tag_268\n      jump\t// in\n    tag_421:\n        /* \"#utility.yul\":10787:10790   */\n      dup3\n        /* \"#utility.yul\":10780:10837   */\n      mstore\n        /* \"#utility.yul\":10708:10843   */\n      pop\n      pop\n      jump\t// out\n        /* \"#utility.yul\":10913:12744   */\n    tag_270:\n        /* \"#utility.yul\":11028:11031   */\n      0x00\n        /* \"#utility.yul\":11064:11070   */\n      0x0120\n        /* \"#utility.yul\":11059:11062   */\n      dup4\n        /* \"#utility.yul\":11055:11071   */\n      add\n        /* \"#utility.yul\":11151:11155   */\n      0x00\n        /* \"#utility.yul\":11144:11149   */\n      dup4\n        /* \"#utility.yul\":11140:11156   */\n      add\n        /* \"#utility.yul\":11134:11157   */\n      mload\n        /* \"#utility.yul\":11170:11233   */\n      tag_423\n        /* \"#utility.yul\":11227:11231   */\n      0x00\n        /* \"#utility.yul\":11222:11225   */\n      dup7\n        /* \"#utility.yul\":11218:11232   */\n      add\n        /* \"#utility.yul\":11204:11216   */\n      dup3\n        /* \"#utility.yul\":11170:11233   */\n      tag_261\n      jump\t// in\n    tag_423:\n        /* \"#utility.yul\":11081:11243   */\n      pop\n        /* \"#utility.yul\":11326:11330   */\n      0x20\n        /* \"#utility.yul\":11319:11324   */\n      dup4\n        /* \"#utility.yul\":11315:11331   */\n      add\n        /* \"#utility.yul\":11309:11332   */\n      mload\n        /* \"#utility.yul\":11345:11408   */\n      tag_424\n        /* \"#utility.yul\":11402:11406   */\n      0x20\n        /* \"#utility.yul\":11397:11400   */\n      dup7\n        /* \"#utility.yul\":11393:11407   */\n      add\n        /* \"#utility.yul\":11379:11391   */\n      dup3\n        /* \"#utility.yul\":11345:11408   */\n      tag_262\n      jump\t// in\n    tag_424:\n        /* \"#utility.yul\":11253:11418   */\n      pop\n        /* \"#utility.yul\":11498:11502   */\n      0x40\n        /* \"#utility.yul\":11491:11496   */\n      dup4\n        /* \"#utility.yul\":11487:11503   */\n      add\n        /* \"#utility.yul\":11481:11504   */\n      mload\n        /* \"#utility.yul\":11517:11580   */\n      tag_425\n        /* \"#utility.yul\":11574:11578   */\n      0x40\n        /* \"#utility.yul\":11569:11572   */\n      dup7\n        /* \"#utility.yul\":11565:11579   */\n      add\n        /* \"#utility.yul\":11551:11563   */\n      dup3\n        /* \"#utility.yul\":11517:11580   */\n      tag_262\n      jump\t// in\n    tag_425:\n        /* \"#utility.yul\":11428:11590   */\n      pop\n        /* \"#utility.yul\":11672:11676   */\n      0x60\n        /* \"#utility.yul\":11665:11670   */\n      dup4\n        /* \"#utility.yul\":11661:11677   */\n      add\n        /* \"#utility.yul\":11655:11678   */\n      mload\n        /* \"#utility.yul\":11725:11728   */\n      dup5\n        /* \"#utility.yul\":11719:11723   */\n      dup3\n        /* \"#utility.yul\":11715:11729   */\n      sub\n        /* \"#utility.yul\":11708:11712   */\n      0x60\n        /* \"#utility.yul\":11703:11706   */\n      dup7\n        /* \"#utility.yul\":11699:11713   */\n      add\n        /* \"#utility.yul\":11692:11730   */\n      mstore\n        /* \"#utility.yul\":11751:11822   */\n      tag_426\n        /* \"#utility.yul\":11817:11821   */\n      dup3\n        /* \"#utility.yul\":11803:11815   */\n      dup3\n        /* \"#utility.yul\":11751:11822   */\n      tag_264\n      jump\t// in\n    tag_426:\n        /* \"#utility.yul\":11743:11822   */\n      swap2\n      pop\n        /* \"#utility.yul\":11600:11833   */\n      pop\n        /* \"#utility.yul\":11919:11923   */\n      0x80\n        /* \"#utility.yul\":11912:11917   */\n      dup4\n        /* \"#utility.yul\":11908:11924   */\n      add\n        /* \"#utility.yul\":11902:11925   */\n      mload\n        /* \"#utility.yul\":11938:11995   */\n      tag_427\n        /* \"#utility.yul\":11989:11993   */\n      0x80\n        /* \"#utility.yul\":11984:11987   */\n      dup7\n        /* \"#utility.yul\":11980:11994   */\n      add\n        /* \"#utility.yul\":11966:11978   */\n      dup3\n        /* \"#utility.yul\":11938:11995   */\n      tag_265\n      jump\t// in\n    tag_427:\n        /* \"#utility.yul\":11843:12005   */\n      pop\n        /* \"#utility.yul\":12085:12089   */\n      0xa0\n        /* \"#utility.yul\":12078:12083   */\n      dup4\n        /* \"#utility.yul\":12074:12090   */\n      add\n        /* \"#utility.yul\":12068:12091   */\n      mload\n        /* \"#utility.yul\":12104:12174   */\n      tag_428\n        /* \"#utility.yul\":12168:12172   */\n      0xa0\n        /* \"#utility.yul\":12163:12166   */\n      dup7\n        /* \"#utility.yul\":12159:12173   */\n      add\n        /* \"#utility.yul\":12145:12157   */\n      dup3\n        /* \"#utility.yul\":12104:12174   */\n      tag_269\n      jump\t// in\n    tag_428:\n        /* \"#utility.yul\":12015:12184   */\n      pop\n        /* \"#utility.yul\":12266:12270   */\n      0xc0\n        /* \"#utility.yul\":12259:12264   */\n      dup4\n        /* \"#utility.yul\":12255:12271   */\n      add\n        /* \"#utility.yul\":12249:12272   */\n      mload\n        /* \"#utility.yul\":12285:12348   */\n      tag_429\n        /* \"#utility.yul\":12342:12346   */\n      0xc0\n        /* \"#utility.yul\":12337:12340   */\n      dup7\n        /* \"#utility.yul\":12333:12347   */\n      add\n        /* \"#utility.yul\":12319:12331   */\n      dup3\n        /* \"#utility.yul\":12285:12348   */\n      tag_262\n      jump\t// in\n    tag_429:\n        /* \"#utility.yul\":12194:12358   */\n      pop\n        /* \"#utility.yul\":12443:12447   */\n      0xe0\n        /* \"#utility.yul\":12436:12441   */\n      dup4\n        /* \"#utility.yul\":12432:12448   */\n      add\n        /* \"#utility.yul\":12426:12449   */\n      mload\n        /* \"#utility.yul\":12462:12525   */\n      tag_430\n        /* \"#utility.yul\":12519:12523   */\n      0xe0\n        /* \"#utility.yul\":12514:12517   */\n      dup7\n        /* \"#utility.yul\":12510:12524   */\n      add\n        /* \"#utility.yul\":12496:12508   */\n      dup3\n        /* \"#utility.yul\":12462:12525   */\n      tag_262\n      jump\t// in\n    tag_430:\n        /* \"#utility.yul\":12368:12535   */\n      pop\n        /* \"#utility.yul\":12621:12627   */\n      0x0100\n        /* \"#utility.yul\":12614:12619   */\n      dup4\n        /* \"#utility.yul\":12610:12628   */\n      add\n        /* \"#utility.yul\":12604:12629   */\n      mload\n        /* \"#utility.yul\":12642:12707   */\n      tag_431\n        /* \"#utility.yul\":12699:12705   */\n      0x0100\n        /* \"#utility.yul\":12694:12697   */\n      dup7\n        /* \"#utility.yul\":12690:12706   */\n      add\n        /* \"#utility.yul\":12676:12688   */\n      dup3\n        /* \"#utility.yul\":12642:12707   */\n      tag_262\n      jump\t// in\n    tag_431:\n        /* \"#utility.yul\":12545:12717   */\n      pop\n        /* \"#utility.yul\":12734:12738   */\n      dup1\n        /* \"#utility.yul\":12727:12738   */\n      swap2\n      pop\n        /* \"#utility.yul\":11033:12744   */\n      pop\n        /* \"#utility.yul\":10913:12744   */\n      swap3\n      swap2\n      pop\n      pop\n      jump\t// out\n        /* \"#utility.yul\":12750:13018   */\n    tag_271:\n        /* \"#utility.yul\":12875:12885   */\n      0x00\n        /* \"#utility.yul\":12910:13012   */\n      tag_433\n        /* \"#utility.yul\":13008:13011   */\n      dup4\n        /* \"#utility.yul\":13000:13006   */\n      dup4\n        /* \"#utility.yul\":12910:13012   */\n      tag_270\n      jump\t// in\n    tag_433:\n        /* \"#utility.yul\":12896:13012   */\n      swap1\n      pop\n        /* \"#utility.yul\":12750:13018   */\n      swap3\n      swap2\n      pop\n      pop\n      jump\t// out\n        /* \"#utility.yul\":13024:13165   */\n    tag_272:\n        /* \"#utility.yul\":13122:13126   */\n      0x00\n        /* \"#utility.yul\":13154:13158   */\n      0x20\n        /* \"#utility.yul\":13149:13152   */\n      dup3\n        /* \"#utility.yul\":13145:13159   */\n      add\n        /* \"#utility.yul\":13137:13159   */\n      swap1\n      pop\n        /* \"#utility.yul\":13024:13165   */\n      swap2\n      swap1\n      pop\n      jump\t// out\n        /* \"#utility.yul\":13239:14374   */\n    tag_273:\n        /* \"#utility.yul\":13414:13417   */\n      0x00\n        /* \"#utility.yul\":13443:13525   */\n      tag_436\n        /* \"#utility.yul\":13519:13524   */\n      dup3\n        /* \"#utility.yul\":13443:13525   */\n      tag_258\n      jump\t// in\n    tag_436:\n        /* \"#utility.yul\":13541:13655   */\n      tag_437\n        /* \"#utility.yul\":13648:13654   */\n      dup2\n        /* \"#utility.yul\":13643:13646   */\n      dup6\n        /* \"#utility.yul\":13541:13655   */\n      tag_259\n      jump\t// in\n    tag_437:\n        /* \"#utility.yul\":13534:13655   */\n      swap4\n      pop\n        /* \"#utility.yul\":13681:13684   */\n      dup4\n        /* \"#utility.yul\":13726:13730   */\n      0x20\n        /* \"#utility.yul\":13718:13724   */\n      dup3\n        /* \"#utility.yul\":13714:13731   */\n      mul\n        /* \"#utility.yul\":13709:13712   */\n      dup6\n        /* \"#utility.yul\":13705:13732   */\n      add\n        /* \"#utility.yul\":13756:13840   */\n      tag_438\n        /* \"#utility.yul\":13834:13839   */\n      dup6\n        /* \"#utility.yul\":13756:13840   */\n      tag_260\n      jump\t// in\n    tag_438:\n        /* \"#utility.yul\":13863:13870   */\n      dup1\n        /* \"#utility.yul\":13894:13895   */\n      0x00\n        /* \"#utility.yul\":13879:14329   */\n    tag_439:\n        /* \"#utility.yul\":13904:13910   */\n      dup6\n        /* \"#utility.yul\":13901:13902   */\n      dup2\n        /* \"#utility.yul\":13898:13911   */\n      lt\n        /* \"#utility.yul\":13879:14329   */\n      iszero\n      tag_441\n      jumpi\n        /* \"#utility.yul\":13975:13984   */\n      dup5\n        /* \"#utility.yul\":13969:13973   */\n      dup5\n        /* \"#utility.yul\":13965:13985   */\n      sub\n        /* \"#utility.yul\":13960:13963   */\n      dup10\n        /* \"#utility.yul\":13953:13986   */\n      mstore\n        /* \"#utility.yul\":14026:14032   */\n      dup2\n        /* \"#utility.yul\":14020:14033   */\n      mload\n        /* \"#utility.yul\":14054:14174   */\n      tag_442\n        /* \"#utility.yul\":14169:14173   */\n      dup6\n        /* \"#utility.yul\":14154:14167   */\n      dup3\n        /* \"#utility.yul\":14054:14174   */\n      tag_271\n      jump\t// in\n    tag_442:\n        /* \"#utility.yul\":14046:14174   */\n      swap5\n      pop\n        /* \"#utility.yul\":14197:14285   */\n      tag_443\n        /* \"#utility.yul\":14278:14284   */\n      dup4\n        /* \"#utility.yul\":14197:14285   */\n      tag_272\n      jump\t// in\n    tag_443:\n        /* \"#utility.yul\":14187:14285   */\n      swap3\n      pop\n        /* \"#utility.yul\":14314:14318   */\n      0x20\n        /* \"#utility.yul\":14309:14312   */\n      dup11\n        /* \"#utility.yul\":14305:14319   */\n      add\n        /* \"#utility.yul\":14298:14319   */\n      swap10\n      pop\n        /* \"#utility.yul\":13939:14329   */\n      pop\n        /* \"#utility.yul\":13926:13927   */\n      0x01\n        /* \"#utility.yul\":13923:13924   */\n      dup2\n        /* \"#utility.yul\":13919:13928   */\n      add\n        /* \"#utility.yul\":13914:13928   */\n      swap1\n      pop\n        /* \"#utility.yul\":13879:14329   */\n      jump(tag_439)\n    tag_441:\n        /* \"#utility.yul\":13883:13897   */\n      pop\n        /* \"#utility.yul\":14345:14349   */\n      dup3\n        /* \"#utility.yul\":14338:14349   */\n      swap8\n      pop\n        /* \"#utility.yul\":14365:14368   */\n      dup8\n        /* \"#utility.yul\":14358:14368   */\n      swap6\n      pop\n        /* \"#utility.yul\":13419:14374   */\n      pop\n      pop\n      pop\n      pop\n      pop\n        /* \"#utility.yul\":13239:14374   */\n      swap3\n      swap2\n      pop\n      pop\n      jump\t// out\n        /* \"#utility.yul\":14380:14865   */\n    tag_58:\n        /* \"#utility.yul\":14579:14583   */\n      0x00\n        /* \"#utility.yul\":14617:14619   */\n      0x20\n        /* \"#utility.yul\":14606:14615   */\n      dup3\n        /* \"#utility.yul\":14602:14620   */\n      add\n        /* \"#utility.yul\":14594:14620   */\n      swap1\n      pop\n        /* \"#utility.yul\":14666:14675   */\n      dup2\n        /* \"#utility.yul\":14660:14664   */\n      dup2\n        /* \"#utility.yul\":14656:14676   */\n      sub\n        /* \"#utility.yul\":14652:14653   */\n      0x00\n        /* \"#utility.yul\":14641:14650   */\n      dup4\n        /* \"#utility.yul\":14637:14654   */\n      add\n        /* \"#utility.yul\":14630:14677   */\n      mstore\n        /* \"#utility.yul\":14694:14858   */\n      tag_445\n        /* \"#utility.yul\":14853:14857   */\n      dup2\n        /* \"#utility.yul\":14844:14850   */\n      dup5\n        /* \"#utility.yul\":14694:14858   */\n      tag_273\n      jump\t// in\n    tag_445:\n        /* \"#utility.yul\":14686:14858   */\n      swap1\n      pop\n        /* \"#utility.yul\":14380:14865   */\n      swap3\n      swap2\n      pop\n      pop\n      jump\t// out\n        /* \"#utility.yul\":14871:15345   */\n    tag_62:\n        /* \"#utility.yul\":14939:14945   */\n      0x00\n        /* \"#utility.yul\":14947:14953   */\n      dup1\n        /* \"#utility.yul\":14996:14998   */\n      0x40\n        /* \"#utility.yul\":14984:14993   */\n      dup4\n        /* \"#utility.yul\":14975:14982   */\n      dup6\n        /* \"#utility.yul\":14971:14994   */\n      sub\n        /* \"#utility.yul\":14967:14999   */\n      slt\n        /* \"#utility.yul\":14964:15083   */\n      iszero\n      tag_447\n      jumpi\n        /* \"#utility.yul\":15002:15081   */\n      tag_448\n      tag_234\n      jump\t// in\n    tag_448:\n        /* \"#utility.yul\":14964:15083   */\n    tag_447:\n        /* \"#utility.yul\":15122:15123   */\n      0x00\n        /* \"#utility.yul\":15147:15200   */\n      tag_449\n        /* \"#utility.yul\":15192:15199   */\n      dup6\n        /* \"#utility.yul\":15183:15189   */\n      dup3\n        /* \"#utility.yul\":15172:15181   */\n      dup7\n        /* \"#utility.yul\":15168:15190   */\n      add\n        /* \"#utility.yul\":15147:15200   */\n      tag_237\n      jump\t// in\n    tag_449:\n        /* \"#utility.yul\":15137:15200   */\n      swap3\n      pop\n        /* \"#utility.yul\":15093:15210   */\n      pop\n        /* \"#utility.yul\":15249:15251   */\n      0x20\n        /* \"#utility.yul\":15275:15328   */\n      tag_450\n        /* \"#utility.yul\":15320:15327   */\n      dup6\n        /* \"#utility.yul\":15311:15317   */\n      dup3\n        /* \"#utility.yul\":15300:15309   */\n      dup7\n        /* \"#utility.yul\":15296:15318   */\n      add\n        /* \"#utility.yul\":15275:15328   */\n      tag_242\n      jump\t// in\n    tag_450:\n        /* \"#utility.yul\":15265:15328   */\n      swap2\n      pop\n        /* \"#utility.yul\":15220:15338   */\n      pop\n        /* \"#utility.yul\":14871:15345   */\n      swap3\n      pop\n      swap3\n      swap1\n      pop\n      jump\t// out\n        /* \"#utility.yul\":15351:15573   */\n    tag_69:\n        /* \"#utility.yul\":15444:15448   */\n      0x00\n        /* \"#utility.yul\":15482:15484   */\n      0x20\n        /* \"#utility.yul\":15471:15480   */\n      dup3\n        /* \"#utility.yul\":15467:15485   */\n      add\n        /* \"#utility.yul\":15459:15485   */\n      swap1\n      pop\n        /* \"#utility.yul\":15495:15566   */\n      tag_452\n        /* \"#utility.yul\":15563:15564   */\n      0x00\n        /* \"#utility.yul\":15552:15561   */\n      dup4\n        /* \"#utility.yul\":15548:15565   */\n      add\n        /* \"#utility.yul\":15539:15545   */\n      dup5\n        /* \"#utility.yul\":15495:15566   */\n      tag_232\n      jump\t// in\n    tag_452:\n        /* \"#utility.yul\":15351:15573   */\n      swap3\n      swap2\n      pop\n      pop\n      jump\t// out\n        /* \"#utility.yul\":15579:16490   */\n    tag_77:\n        /* \"#utility.yul\":15674:15680   */\n      0x00\n        /* \"#utility.yul\":15682:15688   */\n      dup1\n        /* \"#utility.yul\":15690:15696   */\n      0x00\n        /* \"#utility.yul\":15698:15704   */\n      dup1\n        /* \"#utility.yul\":15706:15712   */\n      0x00\n        /* \"#utility.yul\":15755:15758   */\n      0xa0\n        /* \"#utility.yul\":15743:15752   */\n      dup7\n        /* \"#utility.yul\":15734:15741   */\n      dup9\n        /* \"#utility.yul\":15730:15753   */\n      sub\n        /* \"#utility.yul\":15726:15759   */\n      slt\n        /* \"#utility.yul\":15723:15843   */\n      iszero\n      tag_454\n      jumpi\n        /* \"#utility.yul\":15762:15841   */\n      tag_455\n      tag_234\n      jump\t// in\n    tag_455:\n        /* \"#utility.yul\":15723:15843   */\n    tag_454:\n        /* \"#utility.yul\":15882:15883   */\n      0x00\n        /* \"#utility.yul\":15907:15960   */\n      tag_456\n        /* \"#utility.yul\":15952:15959   */\n      dup9\n        /* \"#utility.yul\":15943:15949   */\n      dup3\n        /* \"#utility.yul\":15932:15941   */\n      dup10\n        /* \"#utility.yul\":15928:15950   */\n      add\n        /* \"#utility.yul\":15907:15960   */\n      tag_242\n      jump\t// in\n    tag_456:\n        /* \"#utility.yul\":15897:15960   */\n      swap6\n      pop\n        /* \"#utility.yul\":15853:15970   */\n      pop\n        /* \"#utility.yul\":16009:16011   */\n      0x20\n        /* \"#utility.yul\":16035:16088   */\n      tag_457\n        /* \"#utility.yul\":16080:16087   */\n      dup9\n        /* \"#utility.yul\":16071:16077   */\n      dup3\n        /* \"#utility.yul\":16060:16069   */\n      dup10\n        /* \"#utility.yul\":16056:16078   */\n      add\n        /* \"#utility.yul\":16035:16088   */\n      tag_242\n      jump\t// in\n    tag_457:\n        /* \"#utility.yul\":16025:16088   */\n      swap5\n      pop\n        /* \"#utility.yul\":15980:16098   */\n      pop\n        /* \"#utility.yul\":16137:16139   */\n      0x40\n        /* \"#utility.yul\":16163:16216   */\n      tag_458\n        /* \"#utility.yul\":16208:16215   */\n      dup9\n        /* \"#utility.yul\":16199:16205   */\n      dup3\n        /* \"#utility.yul\":16188:16197   */\n      dup10\n        /* \"#utility.yul\":16184:16206   */\n      add\n        /* \"#utility.yul\":16163:16216   */\n      tag_237\n      jump\t// in\n    tag_458:\n        /* \"#utility.yul\":16153:16216   */\n      swap4\n      pop\n        /* \"#utility.yul\":16108:16226   */\n      pop\n        /* \"#utility.yul\":16265:16267   */\n      0x60\n        /* \"#utility.yul\":16291:16344   */\n      tag_459\n        /* \"#utility.yul\":16336:16343   */\n      dup9\n        /* \"#utility.yul\":16327:16333   */\n      dup3\n        /* \"#utility.yul\":16316:16325   */\n      dup10\n        /* \"#utility.yul\":16312:16334   */\n      add\n        /* \"#utility.yul\":16291:16344   */\n      tag_237\n      jump\t// in\n    tag_459:\n        /* \"#utility.yul\":16281:16344   */\n      swap3\n      pop\n        /* \"#utility.yul\":16236:16354   */\n      pop\n        /* \"#utility.yul\":16393:16396   */\n      0x80\n        /* \"#utility.yul\":16420:16473   */\n      tag_460\n        /* \"#utility.yul\":16465:16472   */\n      dup9\n        /* \"#utility.yul\":16456:16462   */\n      dup3\n        /* \"#utility.yul\":16445:16454   */\n      dup10\n        /* \"#utility.yul\":16441:16463   */\n      add\n        /* \"#utility.yul\":16420:16473   */\n      tag_237\n      jump\t// in\n    tag_460:\n        /* \"#utility.yul\":16410:16473   */\n      swap2\n      pop\n        /* \"#utility.yul\":16364:16483   */\n      pop\n        /* \"#utility.yul\":15579:16490   */\n      swap3\n      swap6\n      pop\n      swap3\n      swap6\n      swap1\n      swap4\n      pop\n      jump\t// out\n        /* \"#utility.yul\":16496:16613   */\n    tag_274:\n        /* \"#utility.yul\":16605:16606   */\n      0x00\n        /* \"#utility.yul\":16602:16603   */\n      dup1\n        /* \"#utility.yul\":16595:16607   */\n      revert\n        /* \"#utility.yul\":16619:16799   */\n    tag_275:\n        /* \"#utility.yul\":16667:16744   */\n      0x4e487b7100000000000000000000000000000000000000000000000000000000\n        /* \"#utility.yul\":16664:16665   */\n      0x00\n        /* \"#utility.yul\":16657:16745   */\n      mstore\n        /* \"#utility.yul\":16764:16768   */\n      0x41\n        /* \"#utility.yul\":16761:16762   */\n      0x04\n        /* \"#utility.yul\":16754:16769   */\n      mstore\n        /* \"#utility.yul\":16788:16792   */\n      0x24\n        /* \"#utility.yul\":16785:16786   */\n      0x00\n        /* \"#utility.yul\":16778:16793   */\n      revert\n        /* \"#utility.yul\":16805:17086   */\n    tag_276:\n        /* \"#utility.yul\":16888:16915   */\n      tag_464\n        /* \"#utility.yul\":16910:16914   */\n      dup3\n        /* \"#utility.yul\":16888:16915   */\n      tag_255\n      jump\t// in\n    tag_464:\n        /* \"#utility.yul\":16880:16886   */\n      dup2\n        /* \"#utility.yul\":16876:16916   */\n      add\n        /* \"#utility.yul\":17018:17024   */\n      dup2\n        /* \"#utility.yul\":17006:17016   */\n      dup2\n        /* \"#utility.yul\":17003:17025   */\n      lt\n        /* \"#utility.yul\":16982:17000   */\n      0xffffffffffffffff\n        /* \"#utility.yul\":16970:16980   */\n      dup3\n        /* \"#utility.yul\":16967:17001   */\n      gt\n        /* \"#utility.yul\":16964:17026   */\n      or\n        /* \"#utility.yul\":16961:17049   */\n      iszero\n      tag_465\n      jumpi\n        /* \"#utility.yul\":17029:17047   */\n      tag_466\n      tag_275\n      jump\t// in\n    tag_466:\n        /* \"#utility.yul\":16961:17049   */\n    tag_465:\n        /* \"#utility.yul\":17069:17079   */\n      dup1\n        /* \"#utility.yul\":17065:17067   */\n      0x40\n        /* \"#utility.yul\":17058:17080   */\n      mstore\n        /* \"#utility.yul\":16848:17086   */\n      pop\n        /* \"#utility.yul\":16805:17086   */\n      pop\n      pop\n      jump\t// out\n        /* \"#utility.yul\":17092:17221   */\n    tag_277:\n        /* \"#utility.yul\":17126:17132   */\n      0x00\n        /* \"#utility.yul\":17153:17173   */\n      tag_468\n      tag_233\n      jump\t// in\n    tag_468:\n        /* \"#utility.yul\":17143:17173   */\n      swap1\n      pop\n        /* \"#utility.yul\":17182:17215   */\n      tag_469\n        /* \"#utility.yul\":17210:17214   */\n      dup3\n        /* \"#utility.yul\":17202:17208   */\n      dup3\n        /* \"#utility.yul\":17182:17215   */\n      tag_276\n      jump\t// in\n    tag_469:\n        /* \"#utility.yul\":17092:17221   */\n      swap2\n      swap1\n      pop\n      jump\t// out\n        /* \"#utility.yul\":17227:17534   */\n    tag_278:\n        /* \"#utility.yul\":17288:17292   */\n      0x00\n        /* \"#utility.yul\":17378:17396   */\n      0xffffffffffffffff\n        /* \"#utility.yul\":17370:17376   */\n      dup3\n        /* \"#utility.yul\":17367:17397   */\n      gt\n        /* \"#utility.yul\":17364:17420   */\n      iszero\n      tag_471\n      jumpi\n        /* \"#utility.yul\":17400:17418   */\n      tag_472\n      tag_275\n      jump\t// in\n    tag_472:\n        /* \"#utility.yul\":17364:17420   */\n    tag_471:\n        /* \"#utility.yul\":17438:17467   */\n      tag_473\n        /* \"#utility.yul\":17460:17466   */\n      dup3\n        /* \"#utility.yul\":17438:17467   */\n      tag_255\n      jump\t// in\n    tag_473:\n        /* \"#utility.yul\":17430:17467   */\n      swap1\n      pop\n        /* \"#utility.yul\":17522:17526   */\n      0x20\n        /* \"#utility.yul\":17516:17520   */\n      dup2\n        /* \"#utility.yul\":17512:17527   */\n      add\n        /* \"#utility.yul\":17504:17527   */\n      swap1\n      pop\n        /* \"#utility.yul\":17227:17534   */\n      swap2\n      swap1\n      pop\n      jump\t// out\n        /* \"#utility.yul\":17540:17686   */\n    tag_279:\n        /* \"#utility.yul\":17637:17643   */\n      dup3\n        /* \"#utility.yul\":17632:17635   */\n      dup2\n        /* \"#utility.yul\":17627:17630   */\n      dup4\n        /* \"#utility.yul\":17614:17644   */\n      calldatacopy\n        /* \"#utility.yul\":17678:17679   */\n      0x00\n        /* \"#utility.yul\":17669:17675   */\n      dup4\n        /* \"#utility.yul\":17664:17667   */\n      dup4\n        /* \"#utility.yul\":17660:17676   */\n      add\n        /* \"#utility.yul\":17653:17680   */\n      mstore\n        /* \"#utility.yul\":17540:17686   */\n      pop\n      pop\n      pop\n      jump\t// out\n        /* \"#utility.yul\":17692:18115   */\n    tag_280:\n        /* \"#utility.yul\":17769:17774   */\n      0x00\n        /* \"#utility.yul\":17794:17859   */\n      tag_476\n        /* \"#utility.yul\":17810:17858   */\n      tag_477\n        /* \"#utility.yul\":17851:17857   */\n      dup5\n        /* \"#utility.yul\":17810:17858   */\n      tag_278\n      jump\t// in\n    tag_477:\n        /* \"#utility.yul\":17794:17859   */\n      tag_277\n      jump\t// in\n    tag_476:\n        /* \"#utility.yul\":17785:17859   */\n      swap1\n      pop\n        /* \"#utility.yul\":17882:17888   */\n      dup3\n        /* \"#utility.yul\":17875:17880   */\n      dup2\n        /* \"#utility.yul\":17868:17889   */\n      mstore\n        /* \"#utility.yul\":17920:17924   */\n      0x20\n        /* \"#utility.yul\":17913:17918   */\n      dup2\n        /* \"#utility.yul\":17909:17925   */\n      add\n        /* \"#utility.yul\":17958:17961   */\n      dup5\n        /* \"#utility.yul\":17949:17955   */\n      dup5\n        /* \"#utility.yul\":17944:17947   */\n      dup5\n        /* \"#utility.yul\":17940:17956   */\n      add\n        /* \"#utility.yul\":17937:17962   */\n      gt\n        /* \"#utility.yul\":17934:18046   */\n      iszero\n      tag_478\n      jumpi\n        /* \"#utility.yul\":17965:18044   */\n      tag_479\n      tag_274\n      jump\t// in\n    tag_479:\n        /* \"#utility.yul\":17934:18046   */\n    tag_478:\n        /* \"#utility.yul\":18055:18109   */\n      tag_480\n        /* \"#utility.yul\":18102:18108   */\n      dup5\n        /* \"#utility.yul\":18097:18100   */\n      dup3\n        /* \"#utility.yul\":18092:18095   */\n      dup6\n        /* \"#utility.yul\":18055:18109   */\n      tag_279\n      jump\t// in\n    tag_480:\n        /* \"#utility.yul\":17775:18115   */\n      pop\n        /* \"#utility.yul\":17692:18115   */\n      swap4\n      swap3\n      pop\n      pop\n      pop\n      jump\t// out\n        /* \"#utility.yul\":18134:18472   */\n    tag_281:\n        /* \"#utility.yul\":18189:18194   */\n      0x00\n        /* \"#utility.yul\":18238:18241   */\n      dup3\n        /* \"#utility.yul\":18231:18235   */\n      0x1f\n        /* \"#utility.yul\":18223:18229   */\n      dup4\n        /* \"#utility.yul\":18219:18236   */\n      add\n        /* \"#utility.yul\":18215:18242   */\n      slt\n        /* \"#utility.yul\":18205:18327   */\n      tag_482\n      jumpi\n        /* \"#utility.yul\":18246:18325   */\n      tag_483\n      tag_243\n      jump\t// in\n    tag_483:\n        /* \"#utility.yul\":18205:18327   */\n    tag_482:\n        /* \"#utility.yul\":18363:18369   */\n      dup2\n        /* \"#utility.yul\":18350:18370   */\n      calldataload\n        /* \"#utility.yul\":18388:18466   */\n      tag_484\n        /* \"#utility.yul\":18462:18465   */\n      dup5\n        /* \"#utility.yul\":18454:18460   */\n      dup3\n        /* \"#utility.yul\":18447:18451   */\n      0x20\n        /* \"#utility.yul\":18439:18445   */\n      dup7\n        /* \"#utility.yul\":18435:18452   */\n      add\n        /* \"#utility.yul\":18388:18466   */\n      tag_280\n      jump\t// in\n    tag_484:\n        /* \"#utility.yul\":18379:18466   */\n      swap2\n      pop\n        /* \"#utility.yul\":18195:18472   */\n      pop\n        /* \"#utility.yul\":18134:18472   */\n      swap3\n      swap2\n      pop\n      pop\n      jump\t// out\n        /* \"#utility.yul\":18478:19567   */\n    tag_83:\n        /* \"#utility.yul\":18582:18588   */\n      0x00\n        /* \"#utility.yul\":18590:18596   */\n      dup1\n        /* \"#utility.yul\":18598:18604   */\n      0x00\n        /* \"#utility.yul\":18606:18612   */\n      dup1\n        /* \"#utility.yul\":18614:18620   */\n      0x00\n        /* \"#utility.yul\":18663:18666   */\n      0xa0\n        /* \"#utility.yul\":18651:18660   */\n      dup7\n        /* \"#utility.yul\":18642:18649   */\n      dup9\n        /* \"#utility.yul\":18638:18661   */\n      sub\n        /* \"#utility.yul\":18634:18667   */\n      slt\n        /* \"#utility.yul\":18631:18751   */\n      iszero\n      tag_486\n      jumpi\n        /* \"#utility.yul\":18670:18749   */\n      tag_487\n      tag_234\n      jump\t// in\n    tag_487:\n        /* \"#utility.yul\":18631:18751   */\n    tag_486:\n        /* \"#utility.yul\":18790:18791   */\n      0x00\n        /* \"#utility.yul\":18815:18868   */\n      tag_488\n        /* \"#utility.yul\":18860:18867   */\n      dup9\n        /* \"#utility.yul\":18851:18857   */\n      dup3\n        /* \"#utility.yul\":18840:18849   */\n      dup10\n        /* \"#utility.yul\":18836:18858   */\n      add\n        /* \"#utility.yul\":18815:18868   */\n      tag_242\n      jump\t// in\n    tag_488:\n        /* \"#utility.yul\":18805:18868   */\n      swap6\n      pop\n        /* \"#utility.yul\":18761:18878   */\n      pop\n        /* \"#utility.yul\":18917:18919   */\n      0x20\n        /* \"#utility.yul\":18943:18996   */\n      tag_489\n        /* \"#utility.yul\":18988:18995   */\n      dup9\n        /* \"#utility.yul\":18979:18985   */\n      dup3\n        /* \"#utility.yul\":18968:18977   */\n      dup10\n        /* \"#utility.yul\":18964:18986   */\n      add\n        /* \"#utility.yul\":18943:18996   */\n      tag_237\n      jump\t// in\n    tag_489:\n        /* \"#utility.yul\":18933:18996   */\n      swap5\n      pop\n        /* \"#utility.yul\":18888:19006   */\n      pop\n        /* \"#utility.yul\":19073:19075   */\n      0x40\n        /* \"#utility.yul\":19062:19071   */\n      dup7\n        /* \"#utility.yul\":19058:19076   */\n      add\n        /* \"#utility.yul\":19045:19077   */\n      calldataload\n        /* \"#utility.yul\":19104:19122   */\n      0xffffffffffffffff\n        /* \"#utility.yul\":19096:19102   */\n      dup2\n        /* \"#utility.yul\":19093:19123   */\n      gt\n        /* \"#utility.yul\":19090:19207   */\n      iszero\n      tag_490\n      jumpi\n        /* \"#utility.yul\":19126:19205   */\n      tag_491\n      tag_235\n      jump\t// in\n    tag_491:\n        /* \"#utility.yul\":19090:19207   */\n    tag_490:\n        /* \"#utility.yul\":19231:19293   */\n      tag_492\n        /* \"#utility.yul\":19285:19292   */\n      dup9\n        /* \"#utility.yul\":19276:19282   */\n      dup3\n        /* \"#utility.yul\":19265:19274   */\n      dup10\n        /* \"#utility.yul\":19261:19283   */\n      add\n        /* \"#utility.yul\":19231:19293   */\n      tag_281\n      jump\t// in\n    tag_492:\n        /* \"#utility.yul\":19221:19293   */\n      swap4\n      pop\n        /* \"#utility.yul\":19016:19303   */\n      pop\n        /* \"#utility.yul\":19342:19344   */\n      0x60\n        /* \"#utility.yul\":19368:19421   */\n      tag_493\n        /* \"#utility.yul\":19413:19420   */\n      dup9\n        /* \"#utility.yul\":19404:19410   */\n      dup3\n        /* \"#utility.yul\":19393:19402   */\n      dup10\n        /* \"#utility.yul\":19389:19411   */\n      add\n        /* \"#utility.yul\":19368:19421   */\n      tag_237\n      jump\t// in\n    tag_493:\n        /* \"#utility.yul\":19358:19421   */\n      swap3\n      pop\n        /* \"#utility.yul\":19313:19431   */\n      pop\n        /* \"#utility.yul\":19470:19473   */\n      0x80\n        /* \"#utility.yul\":19497:19550   */\n      tag_494\n        /* \"#utility.yul\":19542:19549   */\n      dup9\n        /* \"#utility.yul\":19533:19539   */\n      dup3\n        /* \"#utility.yul\":19522:19531   */\n      dup10\n        /* \"#utility.yul\":19518:19540   */\n      add\n        /* \"#utility.yul\":19497:19550   */\n      tag_237\n      jump\t// in\n    tag_494:\n        /* \"#utility.yul\":19487:19550   */\n      swap2\n      pop\n        /* \"#utility.yul\":19441:19560   */\n      pop\n        /* \"#utility.yul\":18478:19567   */\n      swap3\n      swap6\n      pop\n      swap3\n      swap6\n      swap1\n      swap4\n      pop\n      jump\t// out\n        /* \"#utility.yul\":19573:20312   */\n    tag_90:\n        /* \"#utility.yul\":19790:19794   */\n      0x00\n        /* \"#utility.yul\":19828:19831   */\n      0xa0\n        /* \"#utility.yul\":19817:19826   */\n      dup3\n        /* \"#utility.yul\":19813:19832   */\n      add\n        /* \"#utility.yul\":19805:19832   */\n      swap1\n      pop\n        /* \"#utility.yul\":19842:19913   */\n      tag_496\n        /* \"#utility.yul\":19910:19911   */\n      0x00\n        /* \"#utility.yul\":19899:19908   */\n      dup4\n        /* \"#utility.yul\":19895:19912   */\n      add\n        /* \"#utility.yul\":19886:19892   */\n      dup9\n        /* \"#utility.yul\":19842:19913   */\n      tag_240\n      jump\t// in\n    tag_496:\n        /* \"#utility.yul\":19923:19995   */\n      tag_497\n        /* \"#utility.yul\":19991:19993   */\n      0x20\n        /* \"#utility.yul\":19980:19989   */\n      dup4\n        /* \"#utility.yul\":19976:19994   */\n      add\n        /* \"#utility.yul\":19967:19973   */\n      dup8\n        /* \"#utility.yul\":19923:19995   */\n      tag_232\n      jump\t// in\n    tag_497:\n        /* \"#utility.yul\":20005:20077   */\n      tag_498\n        /* \"#utility.yul\":20073:20075   */\n      0x40\n        /* \"#utility.yul\":20062:20071   */\n      dup4\n        /* \"#utility.yul\":20058:20076   */\n      add\n        /* \"#utility.yul\":20049:20055   */\n      dup7\n        /* \"#utility.yul\":20005:20077   */\n      tag_232\n      jump\t// in\n    tag_498:\n        /* \"#utility.yul\":20124:20133   */\n      dup2\n        /* \"#utility.yul\":20118:20122   */\n      dup2\n        /* \"#utility.yul\":20114:20134   */\n      sub\n        /* \"#utility.yul\":20109:20111   */\n      0x60\n        /* \"#utility.yul\":20098:20107   */\n      dup4\n        /* \"#utility.yul\":20094:20112   */\n      add\n        /* \"#utility.yul\":20087:20135   */\n      mstore\n        /* \"#utility.yul\":20152:20228   */\n      tag_499\n        /* \"#utility.yul\":20223:20227   */\n      dup2\n        /* \"#utility.yul\":20214:20220   */\n      dup6\n        /* \"#utility.yul\":20152:20228   */\n      tag_256\n      jump\t// in\n    tag_499:\n        /* \"#utility.yul\":20144:20228   */\n      swap1\n      pop\n        /* \"#utility.yul\":20238:20305   */\n      tag_500\n        /* \"#utility.yul\":20300:20303   */\n      0x80\n        /* \"#utility.yul\":20289:20298   */\n      dup4\n        /* \"#utility.yul\":20285:20304   */\n      add\n        /* \"#utility.yul\":20276:20282   */\n      dup5\n        /* \"#utility.yul\":20238:20305   */\n      tag_257\n      jump\t// in\n    tag_500:\n        /* \"#utility.yul\":19573:20312   */\n      swap7\n      swap6\n      pop\n      pop\n      pop\n      pop\n      pop\n      pop\n      jump\t// out\n        /* \"#utility.yul\":20318:20463   */\n    tag_282:\n        /* \"#utility.yul\":20412:20456   */\n      tag_502\n        /* \"#utility.yul\":20450:20455   */\n      dup2\n        /* \"#utility.yul\":20412:20456   */\n      tag_268\n      jump\t// in\n    tag_502:\n        /* \"#utility.yul\":20407:20410   */\n      dup3\n        /* \"#utility.yul\":20400:20457   */\n      mstore\n        /* \"#utility.yul\":20318:20463   */\n      pop\n      pop\n      jump\t// out\n        /* \"#utility.yul\":20469:21666   */\n    tag_96:\n        /* \"#utility.yul\":20805:20809   */\n      0x00\n        /* \"#utility.yul\":20843:20846   */\n      0x0120\n        /* \"#utility.yul\":20832:20841   */\n      dup3\n        /* \"#utility.yul\":20828:20847   */\n      add\n        /* \"#utility.yul\":20820:20847   */\n      swap1\n      pop\n        /* \"#utility.yul\":20857:20928   */\n      tag_504\n        /* \"#utility.yul\":20925:20926   */\n      0x00\n        /* \"#utility.yul\":20914:20923   */\n      dup4\n        /* \"#utility.yul\":20910:20927   */\n      add\n        /* \"#utility.yul\":20901:20907   */\n      dup13\n        /* \"#utility.yul\":20857:20928   */\n      tag_240\n      jump\t// in\n    tag_504:\n        /* \"#utility.yul\":20938:21010   */\n      tag_505\n        /* \"#utility.yul\":21006:21008   */\n      0x20\n        /* \"#utility.yul\":20995:21004   */\n      dup4\n        /* \"#utility.yul\":20991:21009   */\n      add\n        /* \"#utility.yul\":20982:20988   */\n      dup12\n        /* \"#utility.yul\":20938:21010   */\n      tag_232\n      jump\t// in\n    tag_505:\n        /* \"#utility.yul\":21020:21092   */\n      tag_506\n        /* \"#utility.yul\":21088:21090   */\n      0x40\n        /* \"#utility.yul\":21077:21086   */\n      dup4\n        /* \"#utility.yul\":21073:21091   */\n      add\n        /* \"#utility.yul\":21064:21070   */\n      dup11\n        /* \"#utility.yul\":21020:21092   */\n      tag_232\n      jump\t// in\n    tag_506:\n        /* \"#utility.yul\":21139:21148   */\n      dup2\n        /* \"#utility.yul\":21133:21137   */\n      dup2\n        /* \"#utility.yul\":21129:21149   */\n      sub\n        /* \"#utility.yul\":21124:21126   */\n      0x60\n        /* \"#utility.yul\":21113:21122   */\n      dup4\n        /* \"#utility.yul\":21109:21127   */\n      add\n        /* \"#utility.yul\":21102:21150   */\n      mstore\n        /* \"#utility.yul\":21167:21243   */\n      tag_507\n        /* \"#utility.yul\":21238:21242   */\n      dup2\n        /* \"#utility.yul\":21229:21235   */\n      dup10\n        /* \"#utility.yul\":21167:21243   */\n      tag_256\n      jump\t// in\n    tag_507:\n        /* \"#utility.yul\":21159:21243   */\n      swap1\n      pop\n        /* \"#utility.yul\":21253:21320   */\n      tag_508\n        /* \"#utility.yul\":21315:21318   */\n      0x80\n        /* \"#utility.yul\":21304:21313   */\n      dup4\n        /* \"#utility.yul\":21300:21319   */\n      add\n        /* \"#utility.yul\":21291:21297   */\n      dup9\n        /* \"#utility.yul\":21253:21320   */\n      tag_257\n      jump\t// in\n    tag_508:\n        /* \"#utility.yul\":21330:21410   */\n      tag_509\n        /* \"#utility.yul\":21405:21408   */\n      0xa0\n        /* \"#utility.yul\":21394:21403   */\n      dup4\n        /* \"#utility.yul\":21390:21409   */\n      add\n        /* \"#utility.yul\":21381:21387   */\n      dup8\n        /* \"#utility.yul\":21330:21410   */\n      tag_282\n      jump\t// in\n    tag_509:\n        /* \"#utility.yul\":21420:21493   */\n      tag_510\n        /* \"#utility.yul\":21488:21491   */\n      0xc0\n        /* \"#utility.yul\":21477:21486   */\n      dup4\n        /* \"#utility.yul\":21473:21492   */\n      add\n        /* \"#utility.yul\":21464:21470   */\n      dup7\n        /* \"#utility.yul\":21420:21493   */\n      tag_232\n      jump\t// in\n    tag_510:\n        /* \"#utility.yul\":21503:21576   */\n      tag_511\n        /* \"#utility.yul\":21571:21574   */\n      0xe0\n        /* \"#utility.yul\":21560:21569   */\n      dup4\n        /* \"#utility.yul\":21556:21575   */\n      add\n        /* \"#utility.yul\":21547:21553   */\n      dup6\n        /* \"#utility.yul\":21503:21576   */\n      tag_232\n      jump\t// in\n    tag_511:\n        /* \"#utility.yul\":21586:21659   */\n      tag_512\n        /* \"#utility.yul\":21654:21657   */\n      0x0100\n        /* \"#utility.yul\":21643:21652   */\n      dup4\n        /* \"#utility.yul\":21639:21658   */\n      add\n        /* \"#utility.yul\":21630:21636   */\n      dup5\n        /* \"#utility.yul\":21586:21659   */\n      tag_232\n      jump\t// in\n    tag_512:\n        /* \"#utility.yul\":20469:21666   */\n      swap11\n      swap10\n      pop\n      pop\n      pop\n      pop\n      pop\n      pop\n      pop\n      pop\n      pop\n      pop\n      jump\t// out\n        /* \"#utility.yul\":21672:22324   */\n    tag_99:\n        /* \"#utility.yul\":21749:21755   */\n      0x00\n        /* \"#utility.yul\":21757:21763   */\n      dup1\n        /* \"#utility.yul\":21806:21808   */\n      0x40\n        /* \"#utility.yul\":21794:21803   */\n      dup4\n        /* \"#utility.yul\":21785:21792   */\n      dup6\n        /* \"#utility.yul\":21781:21804   */\n      sub\n        /* \"#utility.yul\":21777:21809   */\n      slt\n        /* \"#utility.yul\":21774:21893   */\n      iszero\n      tag_514\n      jumpi\n        /* \"#utility.yul\":21812:21891   */\n      tag_515\n      tag_234\n      jump\t// in\n    tag_515:\n        /* \"#utility.yul\":21774:21893   */\n    tag_514:\n        /* \"#utility.yul\":21932:21933   */\n      0x00\n        /* \"#utility.yul\":21957:22010   */\n      tag_516\n        /* \"#utility.yul\":22002:22009   */\n      dup6\n        /* \"#utility.yul\":21993:21999   */\n      dup3\n        /* \"#utility.yul\":21982:21991   */\n      dup7\n        /* \"#utility.yul\":21978:22000   */\n      add\n        /* \"#utility.yul\":21957:22010   */\n      tag_237\n      jump\t// in\n    tag_516:\n        /* \"#utility.yul\":21947:22010   */\n      swap3\n      pop\n        /* \"#utility.yul\":21903:22020   */\n      pop\n        /* \"#utility.yul\":22087:22089   */\n      0x20\n        /* \"#utility.yul\":22076:22085   */\n      dup4\n        /* \"#utility.yul\":22072:22090   */\n      add\n        /* \"#utility.yul\":22059:22091   */\n      calldataload\n        /* \"#utility.yul\":22118:22136   */\n      0xffffffffffffffff\n        /* \"#utility.yul\":22110:22116   */\n      dup2\n        /* \"#utility.yul\":22107:22137   */\n      gt\n        /* \"#utility.yul\":22104:22221   */\n      iszero\n      tag_517\n      jumpi\n        /* \"#utility.yul\":22140:22219   */\n      tag_518\n      tag_235\n      jump\t// in\n    tag_518:\n        /* \"#utility.yul\":22104:22221   */\n    tag_517:\n        /* \"#utility.yul\":22245:22307   */\n      tag_519\n        /* \"#utility.yul\":22299:22306   */\n      dup6\n        /* \"#utility.yul\":22290:22296   */\n      dup3\n        /* \"#utility.yul\":22279:22288   */\n      dup7\n        /* \"#utility.yul\":22275:22297   */\n      add\n        /* \"#utility.yul\":22245:22307   */\n      tag_281\n      jump\t// in\n    tag_519:\n        /* \"#utility.yul\":22235:22307   */\n      swap2\n      pop\n        /* \"#utility.yul\":22030:22317   */\n      pop\n        /* \"#utility.yul\":21672:22324   */\n      swap3\n      pop\n      swap3\n      swap1\n      pop\n      jump\t// out\n        /* \"#utility.yul\":22330:22510   */\n    tag_283:\n        /* \"#utility.yul\":22378:22455   */\n      0x4e487b7100000000000000000000000000000000000000000000000000000000\n        /* \"#utility.yul\":22375:22376   */\n      0x00\n        /* \"#utility.yul\":22368:22456   */\n      mstore\n        /* \"#utility.yul\":22475:22479   */\n      0x22\n        /* \"#utility.yul\":22472:22473   */\n      0x04\n        /* \"#utility.yul\":22465:22480   */\n      mstore\n        /* \"#utility.yul\":22499:22503   */\n      0x24\n        /* \"#utility.yul\":22496:22497   */\n      0x00\n        /* \"#utility.yul\":22489:22504   */\n      revert\n        /* \"#utility.yul\":22516:22836   */\n    tag_124:\n        /* \"#utility.yul\":22560:22566   */\n      0x00\n        /* \"#utility.yul\":22597:22598   */\n      0x02\n        /* \"#utility.yul\":22591:22595   */\n      dup3\n        /* \"#utility.yul\":22587:22599   */\n      div\n        /* \"#utility.yul\":22577:22599   */\n      swap1\n      pop\n        /* \"#utility.yul\":22644:22645   */\n      0x01\n        /* \"#utility.yul\":22638:22642   */\n      dup3\n        /* \"#utility.yul\":22634:22646   */\n      and\n        /* \"#utility.yul\":22665:22683   */\n      dup1\n        /* \"#utility.yul\":22655:22736   */\n      tag_522\n      jumpi\n        /* \"#utility.yul\":22721:22725   */\n      0x7f\n        /* \"#utility.yul\":22713:22719   */\n      dup3\n        /* \"#utility.yul\":22709:22726   */\n      and\n        /* \"#utility.yul\":22699:22726   */\n      swap2\n      pop\n        /* \"#utility.yul\":22655:22736   */\n    tag_522:\n        /* \"#utility.yul\":22783:22785   */\n      0x20\n        /* \"#utility.yul\":22775:22781   */\n      dup3\n        /* \"#utility.yul\":22772:22786   */\n      lt\n        /* \"#utility.yul\":22752:22770   */\n      dup2\n        /* \"#utility.yul\":22749:22787   */\n      sub\n        /* \"#utility.yul\":22746:22830   */\n      tag_523\n      jumpi\n        /* \"#utility.yul\":22802:22820   */\n      tag_524\n      tag_283\n      jump\t// in\n    tag_524:\n        /* \"#utility.yul\":22746:22830   */\n    tag_523:\n        /* \"#utility.yul\":22567:22836   */\n      pop\n        /* \"#utility.yul\":22516:22836   */\n      swap2\n      swap1\n      pop\n      jump\t// out\n        /* \"#utility.yul\":22842:22982   */\n    tag_284:\n        /* \"#utility.yul\":22890:22894   */\n      0x00\n        /* \"#utility.yul\":22913:22916   */\n      dup2\n        /* \"#utility.yul\":22905:22916   */\n      swap1\n      pop\n        /* \"#utility.yul\":22936:22939   */\n      dup2\n        /* \"#utility.yul\":22933:22934   */\n      0x00\n        /* \"#utility.yul\":22926:22940   */\n      mstore\n        /* \"#utility.yul\":22970:22974   */\n      0x20\n        /* \"#utility.yul\":22967:22968   */\n      0x00\n        /* \"#utility.yul\":22957:22975   */\n      keccak256\n        /* \"#utility.yul\":22949:22975   */\n      swap1\n      pop\n        /* \"#utility.yul\":22842:22982   */\n      swap2\n      swap1\n      pop\n      jump\t// out\n        /* \"#utility.yul\":22988:23081   */\n    tag_285:\n        /* \"#utility.yul\":23025:23031   */\n      0x00\n        /* \"#utility.yul\":23072:23074   */\n      0x20\n        /* \"#utility.yul\":23067:23069   */\n      0x1f\n        /* \"#utility.yul\":23060:23065   */\n      dup4\n        /* \"#utility.yul\":23056:23070   */\n      add\n        /* \"#utility.yul\":23052:23075   */\n      div\n        /* \"#utility.yul\":23042:23075   */\n      swap1\n      pop\n        /* \"#utility.yul\":22988:23081   */\n      swap2\n      swap1\n      pop\n      jump\t// out\n        /* \"#utility.yul\":23087:23194   */\n    tag_286:\n        /* \"#utility.yul\":23131:23139   */\n      0x00\n        /* \"#utility.yul\":23181:23186   */\n      dup3\n        /* \"#utility.yul\":23175:23179   */\n      dup3\n        /* \"#utility.yul\":23171:23187   */\n      shl\n        /* \"#utility.yul\":23150:23187   */\n      swap1\n      pop\n        /* \"#utility.yul\":23087:23194   */\n      swap3\n      swap2\n      pop\n      pop\n      jump\t// out\n        /* \"#utility.yul\":23200:23593   */\n    tag_287:\n        /* \"#utility.yul\":23269:23275   */\n      0x00\n        /* \"#utility.yul\":23319:23320   */\n      0x08\n        /* \"#utility.yul\":23307:23317   */\n      dup4\n        /* \"#utility.yul\":23303:23321   */\n      mul\n        /* \"#utility.yul\":23342:23439   */\n      tag_529\n        /* \"#utility.yul\":23372:23438   */\n      0xffffffffffffffffffffffffffffffffffffffffffffffffffffffffffffffff\n        /* \"#utility.yul\":23361:23370   */\n      dup3\n        /* \"#utility.yul\":23342:23439   */\n      tag_286\n      jump\t// in\n    tag_529:\n        /* \"#utility.yul\":23460:23499   */\n      tag_530\n        /* \"#utility.yul\":23490:23498   */\n      dup7\n        /* \"#utility.yul\":23479:23488   */\n      dup4\n        /* \"#utility.yul\":23460:23499   */\n      tag_286\n      jump\t// in\n    tag_530:\n        /* \"#utility.yul\":23448:23499   */\n      swap6\n      pop\n        /* \"#utility.yul\":23532:23536   */\n      dup1\n        /* \"#utility.yul\":23528:23537   */\n      not\n        /* \"#utility.yul\":23521:23526   */\n      dup5\n        /* \"#utility.yul\":23517:23538   */\n      and\n        /* \"#utility.yul\":23508:23538   */\n      swap4\n      pop\n        /* \"#utility.yul\":23581:23585   */\n      dup1\n        /* \"#utility.yul\":23571:23579   */\n      dup7\n        /* \"#utility.yul\":23567:23586   */\n      and\n        /* \"#utility.yul\":23560:23565   */\n      dup5\n        /* \"#utility.yul\":23557:23587   */\n      or\n        /* \"#utility.yul\":23547:23587   */\n      swap3\n      pop\n        /* \"#utility.yul\":23276:23593   */\n      pop\n      pop\n        /* \"#utility.yul\":23200:23593   */\n      swap4\n      swap3\n      pop\n      pop\n      pop\n      jump\t// out\n        /* \"#utility.yul\":23599:23659   */\n    tag_288:\n        /* \"#utility.yul\":23627:23630   */\n      0x00\n        /* \"#utility.yul\":23648:23653   */\n      dup2\n        /* \"#utility.yul\":23641:23653   */\n      swap1\n      pop\n        /* \"#utility.yul\":23599:23659   */\n      swap2\n      swap1\n      pop\n      jump\t// out\n        /* \"#utility.yul\":23665:23807   */\n    tag_289:\n        /* \"#utility.yul\":23715:23724   */\n      0x00\n        /* \"#utility.yul\":23748:23801   */\n      tag_533\n        /* \"#utility.yul\":23766:23800   */\n      tag_534\n        /* \"#utility.yul\":23775:23799   */\n      tag_535\n        /* \"#utility.yul\":23793:23798   */\n      dup5\n        /* \"#utility.yul\":23775:23799   */\n      tag_231\n      jump\t// in\n    tag_535:\n        /* \"#utility.yul\":23766:23800   */\n      tag_288\n      jump\t// in\n    tag_534:\n        /* \"#utility.yul\":23748:23801   */\n      tag_231\n      jump\t// in\n    tag_533:\n        /* \"#utility.yul\":23735:23801   */\n      swap1\n      pop\n        /* \"#utility.yul\":23665:23807   */\n      swap2\n      swap1\n      pop\n      jump\t// out\n        /* \"#utility.yul\":23813:23888   */\n    tag_290:\n        /* \"#utility.yul\":23856:23859   */\n      0x00\n        /* \"#utility.yul\":23877:23882   */\n      dup2\n        /* \"#utility.yul\":23870:23882   */\n      swap1\n      pop\n        /* \"#utility.yul\":23813:23888   */\n      swap2\n      swap1\n      pop\n      jump\t// out\n        /* \"#utility.yul\":23894:24163   */\n    tag_291:\n        /* \"#utility.yul\":24004:24043   */\n      tag_538\n        /* \"#utility.yul\":24035:24042   */\n      dup4\n        /* \"#utility.yul\":24004:24043   */\n      tag_289\n      jump\t// in\n    tag_538:\n        /* \"#utility.yul\":24065:24156   */\n      tag_539\n        /* \"#utility.yul\":24114:24155   */\n      tag_540\n        /* \"#utility.yul\":24138:24154   */\n      dup3\n        /* \"#utility.yul\":24114:24155   */\n      tag_290\n      jump\t// in\n    tag_540:\n        /* \"#utility.yul\":24106:24112   */\n      dup5\n        /* \"#utility.yul\":24099:24103   */\n      dup5\n        /* \"#utility.yul\":24093:24104   */\n      sload\n        /* \"#utility.yul\":24065:24156   */\n      tag_287\n      jump\t// in\n    tag_539:\n        /* \"#utility.yul\":24059:24063   */\n      dup3\n        /* \"#utility.yul\":24052:24157   */\n      sstore\n        /* \"#utility.yul\":23970:24163   */\n      pop\n        /* \"#utility.yul\":23894:24163   */\n      pop\n      pop\n      pop\n      jump\t// out\n        /* \"#utility.yul\":24169:24242   */\n    tag_292:\n        /* \"#utility.yul\":24214:24217   */\n      0x00\n        /* \"#utility.yul\":24169:24242   */\n      swap1\n      jump\t// out\n        /* \"#utility.yul\":24248:24437   */\n    tag_293:\n        /* \"#utility.yul\":24325:24357   */\n      tag_543\n      tag_292\n      jump\t// in\n    tag_543:\n        /* \"#utility.yul\":24366:24431   */\n      tag_544\n        /* \"#utility.yul\":24424:24430   */\n      dup2\n        /* \"#utility.yul\":24416:24422   */\n      dup5\n        /* \"#utility.yul\":24410:24414   */\n      dup5\n        /* \"#utility.yul\":24366:24431   */\n      tag_291\n      jump\t// in\n    tag_544:\n        /* \"#utility.yul\":24301:24437   */\n      pop\n        /* \"#utility.yul\":24248:24437   */\n      pop\n      pop\n      jump\t// out\n        /* \"#utility.yul\":24443:24629   */\n    tag_294:\n        /* \"#utility.yul\":24503:24623   */\n    tag_546:\n        /* \"#utility.yul\":24520:24523   */\n      dup2\n        /* \"#utility.yul\":24513:24518   */\n      dup2\n        /* \"#utility.yul\":24510:24524   */\n      lt\n        /* \"#utility.yul\":24503:24623   */\n      iszero\n      tag_548\n      jumpi\n        /* \"#utility.yul\":24574:24613   */\n      tag_549\n        /* \"#utility.yul\":24611:24612   */\n      0x00\n        /* \"#utility.yul\":24604:24609   */\n      dup3\n        /* \"#utility.yul\":24574:24613   */\n      tag_293\n      jump\t// in\n    tag_549:\n        /* \"#utility.yul\":24547:24548   */\n      0x01\n        /* \"#utility.yul\":24540:24545   */\n      dup2\n        /* \"#utility.yul\":24536:24549   */\n      add\n        /* \"#utility.yul\":24527:24549   */\n      swap1\n      pop\n        /* \"#utility.yul\":24503:24623   */\n      jump(tag_546)\n    tag_548:\n        /* \"#utility.yul\":24443:24629   */\n      pop\n      pop\n      jump\t// out\n        /* \"#utility.yul\":24635:25176   */\n    tag_295:\n        /* \"#utility.yul\":24735:24737   */\n      0x1f\n        /* \"#utility.yul\":24730:24733   */\n      dup3\n        /* \"#utility.yul\":24727:24738   */\n      gt\n        /* \"#utility.yul\":24724:25169   */\n      iszero\n      tag_551\n      jumpi\n        /* \"#utility.yul\":24769:24806   */\n      tag_552\n        /* \"#utility.yul\":24800:24805   */\n      dup2\n        /* \"#utility.yul\":24769:24806   */\n      tag_284\n      jump\t// in\n    tag_552:\n        /* \"#utility.yul\":24852:24881   */\n      tag_553\n        /* \"#utility.yul\":24870:24880   */\n      dup5\n        /* \"#utility.yul\":24852:24881   */\n      tag_285\n      jump\t// in\n    tag_553:\n        /* \"#utility.yul\":24842:24850   */\n      dup2\n        /* \"#utility.yul\":24838:24882   */\n      add\n        /* \"#utility.yul\":25035:25037   */\n      0x20\n        /* \"#utility.yul\":25023:25033   */\n      dup6\n        /* \"#utility.yul\":25020:25038   */\n      lt\n        /* \"#utility.yul\":25017:25066   */\n      iszero\n      tag_554\n      jumpi\n        /* \"#utility.yul\":25056:25064   */\n      dup2\n        /* \"#utility.yul\":25041:25064   */\n      swap1\n      pop\n        /* \"#utility.yul\":25017:25066   */\n    tag_554:\n        /* \"#utility.yul\":25079:25159   */\n      tag_555\n        /* \"#utility.yul\":25135:25157   */\n      tag_556\n        /* \"#utility.yul\":25153:25156   */\n      dup6\n        /* \"#utility.yul\":25135:25157   */\n      tag_285\n      jump\t// in\n    tag_556:\n        /* \"#utility.yul\":25125:25133   */\n      dup4\n        /* \"#utility.yul\":25121:25158   */\n      add\n        /* \"#utility.yul\":25108:25119   */\n      dup3\n        /* \"#utility.yul\":25079:25159   */\n      tag_294\n      jump\t// in\n    tag_555:\n        /* \"#utility.yul\":24739:25169   */\n      pop\n      pop\n        /* \"#utility.yul\":24724:25169   */\n    tag_551:\n        /* \"#utility.yul\":24635:25176   */\n      pop\n      pop\n      pop\n      jump\t// out\n        /* \"#utility.yul\":25182:25299   */\n    tag_296:\n        /* \"#utility.yul\":25236:25244   */\n      0x00\n        /* \"#utility.yul\":25286:25291   */\n      dup3\n        /* \"#utility.yul\":25280:25284   */\n      dup3\n        /* \"#utility.yul\":25276:25292   */\n      shr\n        /* \"#utility.yul\":25255:25292   */\n      swap1\n      pop\n        /* \"#utility.yul\":25182:25299   */\n      swap3\n      swap2\n      pop\n      pop\n      jump\t// out\n        /* \"#utility.yul\":25305:25474   */\n    tag_297:\n        /* \"#utility.yul\":25349:25355   */\n      0x00\n        /* \"#utility.yul\":25382:25433   */\n      tag_559\n        /* \"#utility.yul\":25430:25431   */\n      0x00\n        /* \"#utility.yul\":25426:25432   */\n      not\n        /* \"#utility.yul\":25418:25423   */\n      dup5\n        /* \"#utility.yul\":25415:25416   */\n      0x08\n        /* \"#utility.yul\":25411:25424   */\n      mul\n        /* \"#utility.yul\":25382:25433   */\n      tag_296\n      jump\t// in\n    tag_559:\n        /* \"#utility.yul\":25378:25434   */\n      not\n        /* \"#utility.yul\":25463:25467   */\n      dup1\n        /* \"#utility.yul\":25457:25461   */\n      dup4\n        /* \"#utility.yul\":25453:25468   */\n      and\n        /* \"#utility.yul\":25443:25468   */\n      swap2\n      pop\n        /* \"#utility.yul\":25356:25474   */\n      pop\n        /* \"#utility.yul\":25305:25474   */\n      swap3\n      swap2\n      pop\n      pop\n      jump\t// out\n        /* \"#utility.yul\":25479:25774   */\n    tag_298:\n        /* \"#utility.yul\":25555:25559   */\n      0x00\n        /* \"#utility.yul\":25701:25730   */\n      tag_561\n        /* \"#utility.yul\":25726:25729   */\n      dup4\n        /* \"#utility.yul\":25720:25724   */\n      dup4\n        /* \"#utility.yul\":25701:25730   */\n      tag_297\n      jump\t// in\n    tag_561:\n        /* \"#utility.yul\":25693:25730   */\n      swap2\n      pop\n        /* \"#utility.yul\":25763:25766   */\n      dup3\n        /* \"#utility.yul\":25760:25761   */\n      0x02\n        /* \"#utility.yul\":25756:25767   */\n      mul\n        /* \"#utility.yul\":25750:25754   */\n      dup3\n        /* \"#utility.yul\":25747:25768   */\n      or\n        /* \"#utility.yul\":25739:25768   */\n      swap1\n      pop\n        /* \"#utility.yul\":25479:25774   */\n      swap3\n      swap2\n      pop\n      pop\n      jump\t// out\n        /* \"#utility.yul\":25779:27169   */\n    tag_115:\n        /* \"#utility.yul\":25894:25930   */\n      tag_563\n        /* \"#utility.yul\":25926:25929   */\n      dup3\n        /* \"#utility.yul\":25894:25930   */\n      tag_252\n      jump\t// in\n    tag_563:\n        /* \"#utility.yul\":25995:26013   */\n      0xffffffffffffffff\n        /* \"#utility.yul\":25987:25993   */\n      dup2\n        /* \"#utility.yul\":25984:26014   */\n      gt\n        /* \"#utility.yul\":25981:26037   */\n      iszero\n      tag_564\n      jumpi\n        /* \"#utility.yul\":26017:26035   */\n      tag_565\n      tag_275\n      jump\t// in\n    tag_565:\n        /* \"#utility.yul\":25981:26037   */\n    tag_564:\n        /* \"#utility.yul\":26061:26099   */\n      tag_566\n        /* \"#utility.yul\":26093:26097   */\n      dup3\n        /* \"#utility.yul\":26087:26098   */\n      sload\n        /* \"#utility.yul\":26061:26099   */\n      tag_124\n      jump\t// in\n    tag_566:\n        /* \"#utility.yul\":26146:26212   */\n      tag_567\n        /* \"#utility.yul\":26205:26211   */\n      dup3\n        /* \"#utility.yul\":26197:26203   */\n      dup3\n        /* \"#utility.yul\":26191:26195   */\n      dup6\n        /* \"#utility.yul\":26146:26212   */\n      tag_295\n      jump\t// in\n    tag_567:\n        /* \"#utility.yul\":26239:26240   */\n      0x00\n        /* \"#utility.yul\":26263:26267   */\n      0x20\n        /* \"#utility.yul\":26250:26267   */\n      swap1\n      pop\n        /* \"#utility.yul\":26295:26297   */\n      0x1f\n        /* \"#utility.yul\":26287:26293   */\n      dup4\n        /* \"#utility.yul\":26284:26298   */\n      gt\n        /* \"#utility.yul\":26312:26313   */\n      0x01\n        /* \"#utility.yul\":26307:26924   */\n      dup2\n      eq\n      tag_569\n      jumpi\n        /* \"#utility.yul\":26968:26969   */\n      0x00\n        /* \"#utility.yul\":26985:26991   */\n      dup5\n        /* \"#utility.yul\":26982:27059   */\n      iszero\n      tag_570\n      jumpi\n        /* \"#utility.yul\":27034:27043   */\n      dup3\n        /* \"#utility.yul\":27029:27032   */\n      dup8\n        /* \"#utility.yul\":27025:27044   */\n      add\n        /* \"#utility.yul\":27019:27045   */\n      mload\n        /* \"#utility.yul\":27010:27045   */\n      swap1\n      pop\n        /* \"#utility.yul\":26982:27059   */\n    tag_570:\n        /* \"#utility.yul\":27085:27152   */\n      tag_571\n        /* \"#utility.yul\":27145:27151   */\n      dup6\n        /* \"#utility.yul\":27138:27143   */\n      dup3\n        /* \"#utility.yul\":27085:27152   */\n      tag_298\n      jump\t// in\n    tag_571:\n        /* \"#utility.yul\":27079:27083   */\n      dup7\n        /* \"#utility.yul\":27072:27153   */\n      sstore\n        /* \"#utility.yul\":26941:27163   */\n      pop\n        /* \"#utility.yul\":26277:27163   */\n      jump(tag_568)\n        /* \"#utility.yul\":26307:26924   */\n    tag_569:\n        /* \"#utility.yul\":26359:26363   */\n      0x1f\n        /* \"#utility.yul\":26355:26364   */\n      not\n        /* \"#utility.yul\":26347:26353   */\n      dup5\n        /* \"#utility.yul\":26343:26365   */\n      and\n        /* \"#utility.yul\":26393:26429   */\n      tag_572\n        /* \"#utility.yul\":26424:26428   */\n      dup7\n        /* \"#utility.yul\":26393:26429   */\n      tag_284\n      jump\t// in\n    tag_572:\n        /* \"#utility.yul\":26451:26452   */\n      0x00\n        /* \"#utility.yul\":26465:26673   */\n    tag_573:\n        /* \"#utility.yul\":26479:26486   */\n      dup3\n        /* \"#utility.yul\":26476:26477   */\n      dup2\n        /* \"#utility.yul\":26473:26487   */\n      lt\n        /* \"#utility.yul\":26465:26673   */\n      iszero\n      tag_575\n      jumpi\n        /* \"#utility.yul\":26558:26567   */\n      dup5\n        /* \"#utility.yul\":26553:26556   */\n      dup10\n        /* \"#utility.yul\":26549:26568   */\n      add\n        /* \"#utility.yul\":26543:26569   */\n      mload\n        /* \"#utility.yul\":26535:26541   */\n      dup3\n        /* \"#utility.yul\":26528:26570   */\n      sstore\n        /* \"#utility.yul\":26609:26610   */\n      0x01\n        /* \"#utility.yul\":26601:26607   */\n      dup3\n        /* \"#utility.yul\":26597:26611   */\n      add\n        /* \"#utility.yul\":26587:26611   */\n      swap2\n      pop\n        /* \"#utility.yul\":26656:26658   */\n      0x20\n        /* \"#utility.yul\":26645:26654   */\n      dup6\n        /* \"#utility.yul\":26641:26659   */\n      add\n        /* \"#utility.yul\":26628:26659   */\n      swap5\n      pop\n        /* \"#utility.yul\":26502:26506   */\n      0x20\n        /* \"#utility.yul\":26499:26500   */\n      dup2\n        /* \"#utility.yul\":26495:26507   */\n      add\n        /* \"#utility.yul\":26490:26507   */\n      swap1\n      pop\n        /* \"#utility.yul\":26465:26673   */\n      jump(tag_573)\n    tag_575:\n        /* \"#utility.yul\":26701:26707   */\n      dup7\n        /* \"#utility.yul\":26692:26699   */\n      dup4\n        /* \"#utility.yul\":26689:26708   */\n      lt\n        /* \"#utility.yul\":26686:26865   */\n      iszero\n      tag_576\n      jumpi\n        /* \"#utility.yul\":26759:26768   */\n      dup5\n        /* \"#utility.yul\":26754:26757   */\n      dup10\n        /* \"#utility.yul\":26750:26769   */\n      add\n        /* \"#utility.yul\":26744:26770   */\n      mload\n        /* \"#utility.yul\":26802:26850   */\n      tag_577\n        /* \"#utility.yul\":26844:26848   */\n      0x1f\n        /* \"#utility.yul\":26836:26842   */\n      dup10\n        /* \"#utility.yul\":26832:26849   */\n      and\n        /* \"#utility.yul\":26821:26830   */\n      dup3\n        /* \"#utility.yul\":26802:26850   */\n      tag_297\n      jump\t// in\n    tag_577:\n        /* \"#utility.yul\":26794:26800   */\n      dup4\n        /* \"#utility.yul\":26787:26851   */\n      sstore\n        /* \"#utility.yul\":26709:26865   */\n      pop\n        /* \"#utility.yul\":26686:26865   */\n    tag_576:\n        /* \"#utility.yul\":26911:26912   */\n      0x01\n        /* \"#utility.yul\":26907:26908   */\n      0x02\n        /* \"#utility.yul\":26899:26905   */\n      dup9\n        /* \"#utility.yul\":26895:26909   */\n      mul\n        /* \"#utility.yul\":26891:26913   */\n      add\n        /* \"#utility.yul\":26885:26889   */\n      dup9\n        /* \"#utility.yul\":26878:26914   */\n      sstore\n        /* \"#utility.yul\":26314:26924   */\n      pop\n      pop\n      pop\n        /* \"#utility.yul\":26277:27163   */\n    tag_568:\n      pop\n        /* \"#utility.yul\":25869:27169   */\n      pop\n      pop\n      pop\n        /* \"#utility.yul\":25779:27169   */\n      pop\n      pop\n      jump\t// out\n        /* \"#utility.yul\":27175:27355   */\n    tag_121:\n        /* \"#utility.yul\":27223:27300   */\n      0x4e487b7100000000000000000000000000000000000000000000000000000000\n        /* \"#utility.yul\":27220:27221   */\n      0x00\n        /* \"#utility.yul\":27213:27301   */\n      mstore\n        /* \"#utility.yul\":27320:27324   */\n      0x32\n        /* \"#utility.yul\":27317:27318   */\n      0x04\n        /* \"#utility.yul\":27310:27325   */\n      mstore\n        /* \"#utility.yul\":27344:27348   */\n      0x24\n        /* \"#utility.yul\":27341:27342   */\n      0x00\n        /* \"#utility.yul\":27334:27349   */\n      revert\n        /* \"#utility.yul\":27361:27541   */\n    tag_299:\n        /* \"#utility.yul\":27409:27486   */\n      0x4e487b7100000000000000000000000000000000000000000000000000000000\n        /* \"#utility.yul\":27406:27407   */\n      0x00\n        /* \"#utility.yul\":27399:27487   */\n      mstore\n        /* \"#utility.yul\":27506:27510   */\n      0x11\n        /* \"#utility.yul\":27503:27504   */\n      0x04\n        /* \"#utility.yul\":27496:27511   */\n      mstore\n        /* \"#utility.yul\":27530:27534   */\n      0x24\n        /* \"#utility.yul\":27527:27528   */\n      0x00\n        /* \"#utility.yul\":27520:27535   */\n      revert\n        /* \"#utility.yul\":27547:27741   */\n    tag_134:\n        /* \"#utility.yul\":27587:27591   */\n      0x00\n        /* \"#utility.yul\":27607:27627   */\n      tag_581\n        /* \"#utility.yul\":27625:27626   */\n      dup3\n        /* \"#utility.yul\":27607:27627   */\n      tag_231\n      jump\t// in\n    tag_581:\n        /* \"#utility.yul\":27602:27627   */\n      swap2\n      pop\n        /* \"#utility.yul\":27641:27661   */\n      tag_582\n        /* \"#utility.yul\":27659:27660   */\n      dup4\n        /* \"#utility.yul\":27641:27661   */\n      tag_231\n      jump\t// in\n    tag_582:\n        /* \"#utility.yul\":27636:27661   */\n      swap3\n      pop\n        /* \"#utility.yul\":27685:27686   */\n      dup3\n        /* \"#utility.yul\":27682:27683   */\n      dup3\n        /* \"#utility.yul\":27678:27687   */\n      sub\n        /* \"#utility.yul\":27670:27687   */\n      swap1\n      pop\n        /* \"#utility.yul\":27709:27710   */\n      dup2\n        /* \"#utility.yul\":27703:27707   */\n      dup2\n        /* \"#utility.yul\":27700:27711   */\n      gt\n        /* \"#utility.yul\":27697:27734   */\n      iszero\n      tag_583\n      jumpi\n        /* \"#utility.yul\":27714:27732   */\n      tag_584\n      tag_299\n      jump\t// in\n    tag_584:\n        /* \"#utility.yul\":27697:27734   */\n    tag_583:\n        /* \"#utility.yul\":27547:27741   */\n      swap3\n      swap2\n      pop\n      pop\n      jump\t// out\n        /* \"#utility.yul\":27747:27938   */\n    tag_230:\n        /* \"#utility.yul\":27787:27790   */\n      0x00\n        /* \"#utility.yul\":27806:27826   */\n      tag_586\n        /* \"#utility.yul\":27824:27825   */\n      dup3\n        /* \"#utility.yul\":27806:27826   */\n      tag_231\n      jump\t// in\n    tag_586:\n        /* \"#utility.yul\":27801:27826   */\n      swap2\n      pop\n        /* \"#utility.yul\":27840:27860   */\n      tag_587\n        /* \"#utility.yul\":27858:27859   */\n      dup4\n        /* \"#utility.yul\":27840:27860   */\n      tag_231\n      jump\t// in\n    tag_587:\n        /* \"#utility.yul\":27835:27860   */\n      swap3\n      pop\n        /* \"#utility.yul\":27883:27884   */\n      dup3\n        /* \"#utility.yul\":27880:27881   */\n      dup3\n        /* \"#utility.yul\":27876:27885   */\n      add\n        /* \"#utility.yul\":27869:27885   */\n      swap1\n      pop\n        /* \"#utility.yul\":27904:27907   */\n      dup1\n        /* \"#utility.yul\":27901:27902   */\n      dup3\n        /* \"#utility.yul\":27898:27908   */\n      gt\n        /* \"#utility.yul\":27895:27931   */\n      iszero\n      tag_588\n      jumpi\n        /* \"#utility.yul\":27911:27929   */\n      tag_589\n      tag_299\n      jump\t// in\n    tag_589:\n        /* \"#utility.yul\":27895:27931   */\n    tag_588:\n        /* \"#utility.yul\":27747:27938   */\n      swap3\n      swap2\n      pop\n      pop\n      jump\t// out\n\n    auxdata: 0xa2646970667358221220618836472dc8ea096a844402b7d0996eed4970c3ffcad2fa8e47a799e3f76ded64736f6c63430008100033\n}\n",
				"bytecode": {
					"linkReferences": {},
					"object": "60806040523480156200001157600080fd5b5060405162002b1738038062002b178339818101604052810190620000379190620003a7565b60008251116200004657600080fd5b81518111158015620000585750600081115b6200006257600080fd5b60005b82518110156200016e57600160008483815181106200008957620000886200040d565b5b602002602001015173ffffffffffffffffffffffffffffffffffffffff1673ffffffffffffffffffffffffffffffffffffffff16815260200190815260200160002060009054906101000a900460ff1615620000e457600080fd5b6001806000858481518110620000ff57620000fe6200040d565b5b602002602001015173ffffffffffffffffffffffffffffffffffffffff1673ffffffffffffffffffffffffffffffffffffffff16815260200190815260200160002060006101000a81548160ff021916908315150217905550808062000165906200046b565b91505062000065565b50806002819055505050620004b8565b6000604051905090565b600080fd5b600080fd5b600080fd5b6000601f19601f8301169050919050565b7f4e487b7100000000000000000000000000000000000000000000000000000000600052604160045260246000fd5b620001e28262000197565b810181811067ffffffffffffffff82111715620002045762000203620001a8565b5b80604052505050565b6000620002196200017e565b9050620002278282620001d7565b919050565b600067ffffffffffffffff8211156200024a5762000249620001a8565b5b602082029050602081019050919050565b600080fd5b600073ffffffffffffffffffffffffffffffffffffffff82169050919050565b60006200028d8262000260565b9050919050565b6200029f8162000280565b8114620002ab57600080fd5b50565b600081519050620002bf8162000294565b92915050565b6000620002dc620002d6846200022c565b6200020d565b905080838252602082019050602084028301858111156200030257620003016200025b565b5b835b818110156200032f57806200031a8882620002ae565b84526020840193505060208101905062000304565b5050509392505050565b600082601f83011262000351576200035062000192565b5b815162000363848260208601620002c5565b91505092915050565b6000819050919050565b62000381816200036c565b81146200038d57600080fd5b50565b600081519050620003a18162000376565b92915050565b60008060408385031215620003c157620003c062000188565b5b600083015167ffffffffffffffff811115620003e257620003e16200018d565b5b620003f08582860162000339565b9250506020620004038582860162000390565b9150509250929050565b7f4e487b7100000000000000000000000000000000000000000000000000000000600052603260045260246000fd5b7f4e487b7100000000000000000000000000000000000000000000000000000000600052601160045260246000fd5b600062000478826200036c565b91507fffffffffffffffffffffffffffffffffffffffffffffffffffffffffffffffff8203620004ad57620004ac6200043c565b5b600182019050919050565b61264f80620004c86000396000f3fe6080604052600436106100ec5760003560e01c80636886bf1c1161008a57806396431ac11161005957806396431ac11461036a5780639ace38c2146103ab578063da117076146103f0578063ee3aba3b1461042057610143565b80636886bf1c146102ae578063738dbfa6146102d957806380f0660e1461030457806395564f981461034157610143565b806329028396116100c657806329028396146101d957806345c9711f1461020957806347767f60146102465780634c9c7af31461027157610143565b8063025e7c271461014857806302e26c38146101855780631b1e9baf146101b057610143565b36610143573373ffffffffffffffffffffffffffffffffffffffff167fb2d76cdf014a6584242c959b3572a48590438ddef329d378249cdfaa97cf7147344760405161013992919061177a565b60405180910390a2005b600080fd5b34801561015457600080fd5b5061016f600480360381019061016a91906117e3565b61045d565b60405161017c9190611851565b60405180910390f35b34801561019157600080fd5b5061019a61049c565b6040516101a79190611851565b60405180910390f35b3480156101bc57600080fd5b506101d760048036038101906101d2919061195a565b6104c2565b005b6101f360048036038101906101ee9190611a45565b610689565b6040516102009190611b6f565b60405180910390f35b34801561021557600080fd5b50610230600480360381019061022b9190611b91565b6109ad565b60405161023d9190611bcd565b60405180910390f35b34801561025257600080fd5b5061025b6109cd565b6040516102689190611e5d565b60405180910390f35b34801561027d57600080fd5b5061029860048036038101906102939190611e7f565b610b9d565b6040516102a59190611bcd565b60405180910390f35b3480156102ba57600080fd5b506102c3610bcc565b6040516102d09190611ebf565b60405180910390f35b3480156102e557600080fd5b506102ee610bd2565b6040516102fb9190611ebf565b60405180910390f35b34801561031057600080fd5b5061032b60048036038101906103269190611eda565b610bd8565b6040516103389190611bcd565b60405180910390f35b34801561034d57600080fd5b5061036860048036038101906103639190612085565b610e92565b005b34801561037657600080fd5b50610391600480360381019061038c91906117e3565b611187565b6040516103a295949392919061211c565b60405180910390f35b3480156103b757600080fd5b506103d260048036038101906103cd91906117e3565b61137a565b6040516103e799989796959493929190612185565b60405180910390f35b61040a60048036038101906104059190612219565b61149a565b6040516104179190611bcd565b60405180910390f35b34801561042c57600080fd5b5061044760048036038101906104429190611e7f565b611732565b6040516104549190611bcd565b60405180910390f35b6000818154811061046d57600080fd5b906000526020600020016000915054906101000a900473ffffffffffffffffffffffffffffffffffffffff1681565b600360009054906101000a900473ffffffffffffffffffffffffffffffffffffffff1681565b60096040518061012001604052808c73ffffffffffffffffffffffffffffffffffffffff1681526020018b81526020018a815260200189898080601f016020809104026020016040519081016040528093929190818152602001838380828437600081840152601f19601f820116905080830192505050505050508152602001871515815260200186600381111561055d5761055c611c8b565b5b815260200185815260200184815260200183815250908060018154018082558091505060019003906000526020600020906008020160009091909190915060008201518160000160006101000a81548173ffffffffffffffffffffffffffffffffffffffff021916908373ffffffffffffffffffffffffffffffffffffffff1602179055506020820151816001015560408201518160020155606082015181600301908161060b9190612481565b5060808201518160040160006101000a81548160ff02191690831515021790555060a08201518160040160016101000a81548160ff0219169083600381111561065757610656611c8b565b5b021790555060c0820151816005015560e082015181600601556101008201518160070155505050505050505050505050565b60606000600984815481106106a1576106a0612553565b5b9060005260206000209060080201604051806101200160405290816000820160009054906101000a900473ffffffffffffffffffffffffffffffffffffffff1673ffffffffffffffffffffffffffffffffffffffff1673ffffffffffffffffffffffffffffffffffffffff1681526020016001820154815260200160028201548152602001600382018054610735906122a4565b80601f0160208091040260200160405190810160405280929190818152602001828054610761906122a4565b80156107ae5780601f10610783576101008083540402835291602001916107ae565b820191906000526020600020905b81548152906001019060200180831161079157829003601f168201915b505050505081526020016004820160009054906101000a900460ff161515151581526020016004820160019054906101000a900460ff1660038111156107f7576107f6611c8b565b5b600381111561080957610808611c8b565b5b81526020016005820154815260200160068201548152602001600782015481525050905060028160c001514261083f91906125b1565b1161084957600080fd5b6000831161085657600080fd5b6007600085815260200190815260200160002060003373ffffffffffffffffffffffffffffffffffffffff1673ffffffffffffffffffffffffffffffffffffffff16815260200190815260200160002060009054906101000a900460ff16156108be57600080fd5b60016000806000815481106108d6576108d5612553565b5b9060005260206000200160009054906101000a900473ffffffffffffffffffffffffffffffffffffffff1673ffffffffffffffffffffffffffffffffffffffff1673ffffffffffffffffffffffffffffffffffffffff16815260200190815260200160002060009054906101000a900460ff161561095357600080fd5b833373ffffffffffffffffffffffffffffffffffffffff167f24752d85a5cc733663165f014a85e53ee7233373e03cd03a8759314180a5a6808760405161099a9190611ebf565b60405180910390a3509695505050505050565b60016020528060005260406000206000915054906101000a900460ff1681565b60606009805480602002602001604051908101604052809291908181526020016000905b82821015610b945783829060005260206000209060080201604051806101200160405290816000820160009054906101000a900473ffffffffffffffffffffffffffffffffffffffff1673ffffffffffffffffffffffffffffffffffffffff1673ffffffffffffffffffffffffffffffffffffffff1681526020016001820154815260200160028201548152602001600382018054610a8f906122a4565b80601f0160208091040260200160405190810160405280929190818152602001828054610abb906122a4565b8015610b085780601f10610add57610100808354040283529160200191610b08565b820191906000526020600020905b815481529060010190602001808311610aeb57829003601f168201915b505050505081526020016004820160009054906101000a900460ff161515151581526020016004820160019054906101000a900460ff166003811115610b5157610b50611c8b565b5b6003811115610b6357610b62611c8b565b5b81526020016005820154815260200160068201548152602001600782015481525050815260200190600101906109f1565b50505050905090565b60066020528160005260406000206020528060005260406000206000915091509054906101000a900460ff1681565b60045481565b60025481565b60008060098481548110610bef57610bee612553565b5b9060005260206000209060080201604051806101200160405290816000820160009054906101000a900473ffffffffffffffffffffffffffffffffffffffff1673ffffffffffffffffffffffffffffffffffffffff1673ffffffffffffffffffffffffffffffffffffffff1681526020016001820154815260200160028201548152602001600382018054610c83906122a4565b80601f0160208091040260200160405190810160405280929190818152602001828054610caf906122a4565b8015610cfc5780601f10610cd157610100808354040283529160200191610cfc565b820191906000526020600020905b815481529060010190602001808311610cdf57829003601f168201915b505050505081526020016004820160009054906101000a900460ff161515151581526020016004820160019054906101000a900460ff166003811115610d4557610d44611c8b565b5b6003811115610d5757610d56611c8b565b5b81526020016005820154815260200160068201548152602001600782015481525050905060028160c0015142610d8d91906125b1565b11610d9757600080fd5b60008311610da457600080fd5b6007600085815260200190815260200160002060003373ffffffffffffffffffffffffffffffffffffffff1673ffffffffffffffffffffffffffffffffffffffff16815260200190815260200160002060009054906101000a900460ff1615610e0c57600080fd5b600073ffffffffffffffffffffffffffffffffffffffff168673ffffffffffffffffffffffffffffffffffffffff1603610e4557600080fd5b600073ffffffffffffffffffffffffffffffffffffffff168773ffffffffffffffffffffffffffffffffffffffff1603610e7e57600080fd5b600033905060019250505095945050505050565b600160003373ffffffffffffffffffffffffffffffffffffffff1673ffffffffffffffffffffffffffffffffffffffff16815260200190815260200160002060009054906101000a900460ff16610ee857600080fd5b6000600980549050905060096040518061012001604052808873ffffffffffffffffffffffffffffffffffffffff1681526020018781526020016000815260200186815260200160001515815260200160006003811115610f4c57610f4b611c8b565b5b815260200142815260200183815260200184815250908060018154018082558091505060019003906000526020600020906008020160009091909190915060008201518160000160006101000a81548173ffffffffffffffffffffffffffffffffffffffff021916908373ffffffffffffffffffffffffffffffffffffffff16021790555060208201518160010155604082015181600201556060820151816003019081610ffa9190612481565b5060808201518160040160006101000a81548160ff02191690831515021790555060a08201518160040160016101000a81548160ff0219169083600381111561104657611045611c8b565b5b021790555060c0820151816005015560e082015181600601556101008201518160070155505060006009828154811061108257611081612553565b5b9060005260206000209060080201905060028160050154426110a491906125b1565b116110ae57600080fd5b600083116110bb57600080fd5b6007600083815260200190815260200160002060003373ffffffffffffffffffffffffffffffffffffffff1673ffffffffffffffffffffffffffffffffffffffff16815260200190815260200160002060009054906101000a900460ff161561112357600080fd5b818773ffffffffffffffffffffffffffffffffffffffff163373ffffffffffffffffffffffffffffffffffffffff167f3a7e667d1f3e3931c98c8b2da3d29bba1ea247441cb2573a4ddf9c77eef7cd1360405160405180910390a450505050505050565b60008060006060600080600987815481106111a5576111a4612553565b5b9060005260206000209060080201604051806101200160405290816000820160009054906101000a900473ffffffffffffffffffffffffffffffffffffffff1673ffffffffffffffffffffffffffffffffffffffff1673ffffffffffffffffffffffffffffffffffffffff1681526020016001820154815260200160028201548152602001600382018054611239906122a4565b80601f0160208091040260200160405190810160405280929190818152602001828054611265906122a4565b80156112b25780601f10611287576101008083540402835291602001916112b2565b820191906000526020600020905b81548152906001019060200180831161129557829003601f168201915b505050505081526020016004820160009054906101000a900460ff161515151581526020016004820160019054906101000a900460ff1660038111156112fb576112fa611c8b565b5b600381111561130d5761130c611c8b565b5b81526020016005820154815260200160068201548152602001600782015481525050905060028160c001514261134391906125b1565b1161134d57600080fd5b80600001518160200151826040015183606001518460800151955095509550955095505091939590929450565b6009818154811061138a57600080fd5b90600052602060002090600802016000915090508060000160009054906101000a900473ffffffffffffffffffffffffffffffffffffffff16908060010154908060020154908060030180546113df906122a4565b80601f016020809104026020016040519081016040528092919081815260200182805461140b906122a4565b80156114585780601f1061142d57610100808354040283529160200191611458565b820191906000526020600020905b81548152906001019060200180831161143b57829003601f168201915b5050505050908060040160009054906101000a900460ff16908060040160019054906101000a900460ff16908060050154908060060154908060070154905089565b600080600984815481106114b1576114b0612553565b5b9060005260206000209060080201604051806101200160405290816000820160009054906101000a900473ffffffffffffffffffffffffffffffffffffffff1673ffffffffffffffffffffffffffffffffffffffff1673ffffffffffffffffffffffffffffffffffffffff1681526020016001820154815260200160028201548152602001600382018054611545906122a4565b80601f0160208091040260200160405190810160405280929190818152602001828054611571906122a4565b80156115be5780601f10611593576101008083540402835291602001916115be565b820191906000526020600020905b8154815290600101906020018083116115a157829003601f168201915b505050505081526020016004820160009054906101000a900460ff161515151581526020016004820160019054906101000a900460ff16600381111561160757611606611c8b565b5b600381111561161957611618611c8b565b5b81526020016005820154815260200160068201548152602001600782015481525050905060028160c001514261164f91906125b1565b1161165957600080fd5b600454341161166757600080fd5b3460086000600360009054906101000a900473ffffffffffffffffffffffffffffffffffffffff1673ffffffffffffffffffffffffffffffffffffffff1673ffffffffffffffffffffffffffffffffffffffff16815260200190815260200160002060008282546116d891906125e5565b9250508190555033600360006101000a81548173ffffffffffffffffffffffffffffffffffffffff021916908373ffffffffffffffffffffffffffffffffffffffff16021790555034600481905550600191505092915050565b60076020528160005260406000206020528060005260406000206000915091509054906101000a900460ff1681565b6000819050919050565b61177481611761565b82525050565b600060408201905061178f600083018561176b565b61179c602083018461176b565b9392505050565b6000604051905090565b600080fd5b600080fd5b6117c081611761565b81146117cb57600080fd5b50565b6000813590506117dd816117b7565b92915050565b6000602082840312156117f9576117f86117ad565b5b6000611807848285016117ce565b91505092915050565b600073ffffffffffffffffffffffffffffffffffffffff82169050919050565b600061183b82611810565b9050919050565b61184b81611830565b82525050565b60006020820190506118666000830184611842565b92915050565b61187581611830565b811461188057600080fd5b50565b6000813590506118928161186c565b92915050565b600080fd5b600080fd5b600080fd5b60008083601f8401126118bd576118bc611898565b5b8235905067ffffffffffffffff8111156118da576118d961189d565b5b6020830191508360018202830111156118f6576118f56118a2565b5b9250929050565b60008115159050919050565b611912816118fd565b811461191d57600080fd5b50565b60008135905061192f81611909565b92915050565b6004811061194257600080fd5b50565b60008135905061195481611935565b92915050565b6000806000806000806000806000806101208b8d03121561197e5761197d6117ad565b5b600061198c8d828e01611883565b9a5050602061199d8d828e016117ce565b99505060406119ae8d828e016117ce565b98505060608b013567ffffffffffffffff8111156119cf576119ce6117b2565b5b6119db8d828e016118a7565b975097505060806119ee8d828e01611920565b95505060a06119ff8d828e01611945565b94505060c0611a108d828e016117ce565b93505060e0611a218d828e016117ce565b925050610100611a338d828e016117ce565b9150509295989b9194979a5092959850565b60008060008060008060a08789031215611a6257611a616117ad565b5b6000611a7089828a01611883565b965050602087013567ffffffffffffffff811115611a9157611a906117b2565b5b611a9d89828a016118a7565b95509550506040611ab089828a016117ce565b9350506060611ac189828a016117ce565b9250506080611ad289828a016117ce565b9150509295509295509295565b600081519050919050565b600082825260208201905092915050565b60005b83811015611b19578082015181840152602081019050611afe565b60008484015250505050565b6000601f19601f8301169050919050565b6000611b4182611adf565b611b4b8185611aea565b9350611b5b818560208601611afb565b611b6481611b25565b840191505092915050565b60006020820190508181036000830152611b898184611b36565b905092915050565b600060208284031215611ba757611ba66117ad565b5b6000611bb584828501611883565b91505092915050565b611bc7816118fd565b82525050565b6000602082019050611be26000830184611bbe565b92915050565b600081519050919050565b600082825260208201905092915050565b6000819050602082019050919050565b611c1d81611830565b82525050565b611c2c81611761565b82525050565b600082825260208201905092915050565b6000611c4e82611adf565b611c588185611c32565b9350611c68818560208601611afb565b611c7181611b25565b840191505092915050565b611c85816118fd565b82525050565b7f4e487b7100000000000000000000000000000000000000000000000000000000600052602160045260246000fd5b60048110611ccb57611cca611c8b565b5b50565b6000819050611cdc82611cba565b919050565b6000611cec82611cce565b9050919050565b611cfc81611ce1565b82525050565b600061012083016000830151611d1b6000860182611c14565b506020830151611d2e6020860182611c23565b506040830151611d416040860182611c23565b5060608301518482036060860152611d598282611c43565b9150506080830151611d6e6080860182611c7c565b5060a0830151611d8160a0860182611cf3565b5060c0830151611d9460c0860182611c23565b5060e0830151611da760e0860182611c23565b50610100830151611dbc610100860182611c23565b508091505092915050565b6000611dd38383611d02565b905092915050565b6000602082019050919050565b6000611df382611be8565b611dfd8185611bf3565b935083602082028501611e0f85611c04565b8060005b85811015611e4b5784840389528151611e2c8582611dc7565b9450611e3783611ddb565b925060208a01995050600181019050611e13565b50829750879550505050505092915050565b60006020820190508181036000830152611e778184611de8565b905092915050565b60008060408385031215611e9657611e956117ad565b5b6000611ea4858286016117ce565b9250506020611eb585828601611883565b9150509250929050565b6000602082019050611ed4600083018461176b565b92915050565b600080600080600060a08688031215611ef657611ef56117ad565b5b6000611f0488828901611883565b9550506020611f1588828901611883565b9450506040611f26888289016117ce565b9350506060611f37888289016117ce565b9250506080611f48888289016117ce565b9150509295509295909350565b600080fd5b7f4e487b7100000000000000000000000000000000000000000000000000000000600052604160045260246000fd5b611f9282611b25565b810181811067ffffffffffffffff82111715611fb157611fb0611f5a565b5b80604052505050565b6000611fc46117a3565b9050611fd08282611f89565b919050565b600067ffffffffffffffff821115611ff057611fef611f5a565b5b611ff982611b25565b9050602081019050919050565b82818337600083830152505050565b600061202861202384611fd5565b611fba565b90508281526020810184848401111561204457612043611f55565b5b61204f848285612006565b509392505050565b600082601f83011261206c5761206b611898565b5b813561207c848260208601612015565b91505092915050565b600080600080600060a086880312156120a1576120a06117ad565b5b60006120af88828901611883565b95505060206120c0888289016117ce565b945050604086013567ffffffffffffffff8111156120e1576120e06117b2565b5b6120ed88828901612057565b93505060606120fe888289016117ce565b925050608061210f888289016117ce565b9150509295509295909350565b600060a0820190506121316000830188611842565b61213e602083018761176b565b61214b604083018661176b565b818103606083015261215d8185611b36565b905061216c6080830184611bbe565b9695505050505050565b61217f81611ce1565b82525050565b60006101208201905061219b600083018c611842565b6121a8602083018b61176b565b6121b5604083018a61176b565b81810360608301526121c78189611b36565b90506121d66080830188611bbe565b6121e360a0830187612176565b6121f060c083018661176b565b6121fd60e083018561176b565b61220b61010083018461176b565b9a9950505050505050505050565b600080604083850312156122305761222f6117ad565b5b600061223e858286016117ce565b925050602083013567ffffffffffffffff81111561225f5761225e6117b2565b5b61226b85828601612057565b9150509250929050565b7f4e487b7100000000000000000000000000000000000000000000000000000000600052602260045260246000fd5b600060028204905060018216806122bc57607f821691505b6020821081036122cf576122ce612275565b5b50919050565b60008190508160005260206000209050919050565b60006020601f8301049050919050565b600082821b905092915050565b6000600883026123377fffffffffffffffffffffffffffffffffffffffffffffffffffffffffffffffff826122fa565b61234186836122fa565b95508019841693508086168417925050509392505050565b6000819050919050565b600061237e61237961237484611761565b612359565b611761565b9050919050565b6000819050919050565b61239883612363565b6123ac6123a482612385565b848454612307565b825550505050565b600090565b6123c16123b4565b6123cc81848461238f565b505050565b5b818110156123f0576123e56000826123b9565b6001810190506123d2565b5050565b601f82111561243557612406816122d5565b61240f846122ea565b8101602085101561241e578190505b61243261242a856122ea565b8301826123d1565b50505b505050565b600082821c905092915050565b60006124586000198460080261243a565b1980831691505092915050565b60006124718383612447565b9150826002028217905092915050565b61248a82611adf565b67ffffffffffffffff8111156124a3576124a2611f5a565b5b6124ad82546122a4565b6124b88282856123f4565b600060209050601f8311600181146124eb57600084156124d9578287015190505b6124e38582612465565b86555061254b565b601f1984166124f9866122d5565b60005b82811015612521578489015182556001820191506020850194506020810190506124fc565b8683101561253e578489015161253a601f891682612447565b8355505b6001600288020188555050505b505050505050565b7f4e487b7100000000000000000000000000000000000000000000000000000000600052603260045260246000fd5b7f4e487b7100000000000000000000000000000000000000000000000000000000600052601160045260246000fd5b60006125bc82611761565b91506125c783611761565b92508282039050818111156125df576125de612582565b5b92915050565b60006125f082611761565b91506125fb83611761565b925082820190508082111561261357612612612582565b5b9291505056fea2646970667358221220618836472dc8ea096a844402b7d0996eed4970c3ffcad2fa8e47a799e3f76ded64736f6c63430008100033",
					"opcodes": "PUSH1 0x80 PUSH1 0x40 MSTORE CALLVALUE DUP1 ISZERO PUSH3 0x11 JUMPI PUSH1 0x0 DUP1 REVERT JUMPDEST POP PUSH1 0x40 MLOAD PUSH3 0x2B17 CODESIZE SUB DUP1 PUSH3 0x2B17 DUP4 CODECOPY DUP2 DUP2 ADD PUSH1 0x40 MSTORE DUP2 ADD SWAP1 PUSH3 0x37 SWAP2 SWAP1 PUSH3 0x3A7 JUMP JUMPDEST PUSH1 0x0 DUP3 MLOAD GT PUSH3 0x46 JUMPI PUSH1 0x0 DUP1 REVERT JUMPDEST DUP2 MLOAD DUP2 GT ISZERO DUP1 ISZERO PUSH3 0x58 JUMPI POP PUSH1 0x0 DUP2 GT JUMPDEST PUSH3 0x62 JUMPI PUSH1 0x0 DUP1 REVERT JUMPDEST PUSH1 0x0 JUMPDEST DUP3 MLOAD DUP2 LT ISZERO PUSH3 0x16E JUMPI PUSH1 0x1 PUSH1 0x0 DUP5 DUP4 DUP2 MLOAD DUP2 LT PUSH3 0x89 JUMPI PUSH3 0x88 PUSH3 0x40D JUMP JUMPDEST JUMPDEST PUSH1 0x20 MUL PUSH1 0x20 ADD ADD MLOAD PUSH20 0xFFFFFFFFFFFFFFFFFFFFFFFFFFFFFFFFFFFFFFFF AND PUSH20 0xFFFFFFFFFFFFFFFFFFFFFFFFFFFFFFFFFFFFFFFF AND DUP2 MSTORE PUSH1 0x20 ADD SWAP1 DUP2 MSTORE PUSH1 0x20 ADD PUSH1 0x0 KECCAK256 PUSH1 0x0 SWAP1 SLOAD SWAP1 PUSH2 0x100 EXP SWAP1 DIV PUSH1 0xFF AND ISZERO PUSH3 0xE4 JUMPI PUSH1 0x0 DUP1 REVERT JUMPDEST PUSH1 0x1 DUP1 PUSH1 0x0 DUP6 DUP5 DUP2 MLOAD DUP2 LT PUSH3 0xFF JUMPI PUSH3 0xFE PUSH3 0x40D JUMP JUMPDEST JUMPDEST PUSH1 0x20 MUL PUSH1 0x20 ADD ADD MLOAD PUSH20 0xFFFFFFFFFFFFFFFFFFFFFFFFFFFFFFFFFFFFFFFF AND PUSH20 0xFFFFFFFFFFFFFFFFFFFFFFFFFFFFFFFFFFFFFFFF AND DUP2 MSTORE PUSH1 0x20 ADD SWAP1 DUP2 MSTORE PUSH1 0x20 ADD PUSH1 0x0 KECCAK256 PUSH1 0x0 PUSH2 0x100 EXP DUP2 SLOAD DUP2 PUSH1 0xFF MUL NOT AND SWAP1 DUP4 ISZERO ISZERO MUL OR SWAP1 SSTORE POP DUP1 DUP1 PUSH3 0x165 SWAP1 PUSH3 0x46B JUMP JUMPDEST SWAP2 POP POP PUSH3 0x65 JUMP JUMPDEST POP DUP1 PUSH1 0x2 DUP2 SWAP1 SSTORE POP POP POP PUSH3 0x4B8 JUMP JUMPDEST PUSH1 0x0 PUSH1 0x40 MLOAD SWAP1 POP SWAP1 JUMP JUMPDEST PUSH1 0x0 DUP1 REVERT JUMPDEST PUSH1 0x0 DUP1 REVERT JUMPDEST PUSH1 0x0 DUP1 REVERT JUMPDEST PUSH1 0x0 PUSH1 0x1F NOT PUSH1 0x1F DUP4 ADD AND SWAP1 POP SWAP2 SWAP1 POP JUMP JUMPDEST PUSH32 0x4E487B7100000000000000000000000000000000000000000000000000000000 PUSH1 0x0 MSTORE PUSH1 0x41 PUSH1 0x4 MSTORE PUSH1 0x24 PUSH1 0x0 REVERT JUMPDEST PUSH3 0x1E2 DUP3 PUSH3 0x197 JUMP JUMPDEST DUP2 ADD DUP2 DUP2 LT PUSH8 0xFFFFFFFFFFFFFFFF DUP3 GT OR ISZERO PUSH3 0x204 JUMPI PUSH3 0x203 PUSH3 0x1A8 JUMP JUMPDEST JUMPDEST DUP1 PUSH1 0x40 MSTORE POP POP POP JUMP JUMPDEST PUSH1 0x0 PUSH3 0x219 PUSH3 0x17E JUMP JUMPDEST SWAP1 POP PUSH3 0x227 DUP3 DUP3 PUSH3 0x1D7 JUMP JUMPDEST SWAP2 SWAP1 POP JUMP JUMPDEST PUSH1 0x0 PUSH8 0xFFFFFFFFFFFFFFFF DUP3 GT ISZERO PUSH3 0x24A JUMPI PUSH3 0x249 PUSH3 0x1A8 JUMP JUMPDEST JUMPDEST PUSH1 0x20 DUP3 MUL SWAP1 POP PUSH1 0x20 DUP2 ADD SWAP1 POP SWAP2 SWAP1 POP JUMP JUMPDEST PUSH1 0x0 DUP1 REVERT JUMPDEST PUSH1 0x0 PUSH20 0xFFFFFFFFFFFFFFFFFFFFFFFFFFFFFFFFFFFFFFFF DUP3 AND SWAP1 POP SWAP2 SWAP1 POP JUMP JUMPDEST PUSH1 0x0 PUSH3 0x28D DUP3 PUSH3 0x260 JUMP JUMPDEST SWAP1 POP SWAP2 SWAP1 POP JUMP JUMPDEST PUSH3 0x29F DUP2 PUSH3 0x280 JUMP JUMPDEST DUP2 EQ PUSH3 0x2AB JUMPI PUSH1 0x0 DUP1 REVERT JUMPDEST POP JUMP JUMPDEST PUSH1 0x0 DUP2 MLOAD SWAP1 POP PUSH3 0x2BF DUP2 PUSH3 0x294 JUMP JUMPDEST SWAP3 SWAP2 POP POP JUMP JUMPDEST PUSH1 0x0 PUSH3 0x2DC PUSH3 0x2D6 DUP5 PUSH3 0x22C JUMP JUMPDEST PUSH3 0x20D JUMP JUMPDEST SWAP1 POP DUP1 DUP4 DUP3 MSTORE PUSH1 0x20 DUP3 ADD SWAP1 POP PUSH1 0x20 DUP5 MUL DUP4 ADD DUP6 DUP2 GT ISZERO PUSH3 0x302 JUMPI PUSH3 0x301 PUSH3 0x25B JUMP JUMPDEST JUMPDEST DUP4 JUMPDEST DUP2 DUP2 LT ISZERO PUSH3 0x32F JUMPI DUP1 PUSH3 0x31A DUP9 DUP3 PUSH3 0x2AE JUMP JUMPDEST DUP5 MSTORE PUSH1 0x20 DUP5 ADD SWAP4 POP POP PUSH1 0x20 DUP2 ADD SWAP1 POP PUSH3 0x304 JUMP JUMPDEST POP POP POP SWAP4 SWAP3 POP POP POP JUMP JUMPDEST PUSH1 0x0 DUP3 PUSH1 0x1F DUP4 ADD SLT PUSH3 0x351 JUMPI PUSH3 0x350 PUSH3 0x192 JUMP JUMPDEST JUMPDEST DUP2 MLOAD PUSH3 0x363 DUP5 DUP3 PUSH1 0x20 DUP7 ADD PUSH3 0x2C5 JUMP JUMPDEST SWAP2 POP POP SWAP3 SWAP2 POP POP JUMP JUMPDEST PUSH1 0x0 DUP2 SWAP1 POP SWAP2 SWAP1 POP JUMP JUMPDEST PUSH3 0x381 DUP2 PUSH3 0x36C JUMP JUMPDEST DUP2 EQ PUSH3 0x38D JUMPI PUSH1 0x0 DUP1 REVERT JUMPDEST POP JUMP JUMPDEST PUSH1 0x0 DUP2 MLOAD SWAP1 POP PUSH3 0x3A1 DUP2 PUSH3 0x376 JUMP JUMPDEST SWAP3 SWAP2 POP POP JUMP JUMPDEST PUSH1 0x0 DUP1 PUSH1 0x40 DUP4 DUP6 SUB SLT ISZERO PUSH3 0x3C1 JUMPI PUSH3 0x3C0 PUSH3 0x188 JUMP JUMPDEST JUMPDEST PUSH1 0x0 DUP4 ADD MLOAD PUSH8 0xFFFFFFFFFFFFFFFF DUP2 GT ISZERO PUSH3 0x3E2 JUMPI PUSH3 0x3E1 PUSH3 0x18D JUMP JUMPDEST JUMPDEST PUSH3 0x3F0 DUP6 DUP3 DUP7 ADD PUSH3 0x339 JUMP JUMPDEST SWAP3 POP POP PUSH1 0x20 PUSH3 0x403 DUP6 DUP3 DUP7 ADD PUSH3 0x390 JUMP JUMPDEST SWAP2 POP POP SWAP3 POP SWAP3 SWAP1 POP JUMP JUMPDEST PUSH32 0x4E487B7100000000000000000000000000000000000000000000000000000000 PUSH1 0x0 MSTORE PUSH1 0x32 PUSH1 0x4 MSTORE PUSH1 0x24 PUSH1 0x0 REVERT JUMPDEST PUSH32 0x4E487B7100000000000000000000000000000000000000000000000000000000 PUSH1 0x0 MSTORE PUSH1 0x11 PUSH1 0x4 MSTORE PUSH1 0x24 PUSH1 0x0 REVERT JUMPDEST PUSH1 0x0 PUSH3 0x478 DUP3 PUSH3 0x36C JUMP JUMPDEST SWAP2 POP PUSH32 0xFFFFFFFFFFFFFFFFFFFFFFFFFFFFFFFFFFFFFFFFFFFFFFFFFFFFFFFFFFFFFFFF DUP3 SUB PUSH3 0x4AD JUMPI PUSH3 0x4AC PUSH3 0x43C JUMP JUMPDEST JUMPDEST PUSH1 0x1 DUP3 ADD SWAP1 POP SWAP2 SWAP1 POP JUMP JUMPDEST PUSH2 0x264F DUP1 PUSH3 0x4C8 PUSH1 0x0 CODECOPY PUSH1 0x0 RETURN INVALID PUSH1 0x80 PUSH1 0x40 MSTORE PUSH1 0x4 CALLDATASIZE LT PUSH2 0xEC JUMPI PUSH1 0x0 CALLDATALOAD PUSH1 0xE0 SHR DUP1 PUSH4 0x6886BF1C GT PUSH2 0x8A JUMPI DUP1 PUSH4 0x96431AC1 GT PUSH2 0x59 JUMPI DUP1 PUSH4 0x96431AC1 EQ PUSH2 0x36A JUMPI DUP1 PUSH4 0x9ACE38C2 EQ PUSH2 0x3AB JUMPI DUP1 PUSH4 0xDA117076 EQ PUSH2 0x3F0 JUMPI DUP1 PUSH4 0xEE3ABA3B EQ PUSH2 0x420 JUMPI PUSH2 0x143 JUMP JUMPDEST DUP1 PUSH4 0x6886BF1C EQ PUSH2 0x2AE JUMPI DUP1 PUSH4 0x738DBFA6 EQ PUSH2 0x2D9 JUMPI DUP1 PUSH4 0x80F0660E EQ PUSH2 0x304 JUMPI DUP1 PUSH4 0x95564F98 EQ PUSH2 0x341 JUMPI PUSH2 0x143 JUMP JUMPDEST DUP1 PUSH4 0x29028396 GT PUSH2 0xC6 JUMPI DUP1 PUSH4 0x29028396 EQ PUSH2 0x1D9 JUMPI DUP1 PUSH4 0x45C9711F EQ PUSH2 0x209 JUMPI DUP1 PUSH4 0x47767F60 EQ PUSH2 0x246 JUMPI DUP1 PUSH4 0x4C9C7AF3 EQ PUSH2 0x271 JUMPI PUSH2 0x143 JUMP JUMPDEST DUP1 PUSH4 0x25E7C27 EQ PUSH2 0x148 JUMPI DUP1 PUSH4 0x2E26C38 EQ PUSH2 0x185 JUMPI DUP1 PUSH4 0x1B1E9BAF EQ PUSH2 0x1B0 JUMPI PUSH2 0x143 JUMP JUMPDEST CALLDATASIZE PUSH2 0x143 JUMPI CALLER PUSH20 0xFFFFFFFFFFFFFFFFFFFFFFFFFFFFFFFFFFFFFFFF AND PUSH32 0xB2D76CDF014A6584242C959B3572A48590438DDEF329D378249CDFAA97CF7147 CALLVALUE SELFBALANCE PUSH1 0x40 MLOAD PUSH2 0x139 SWAP3 SWAP2 SWAP1 PUSH2 0x177A JUMP JUMPDEST PUSH1 0x40 MLOAD DUP1 SWAP2 SUB SWAP1 LOG2 STOP JUMPDEST PUSH1 0x0 DUP1 REVERT JUMPDEST CALLVALUE DUP1 ISZERO PUSH2 0x154 JUMPI PUSH1 0x0 DUP1 REVERT JUMPDEST POP PUSH2 0x16F PUSH1 0x4 DUP1 CALLDATASIZE SUB DUP2 ADD SWAP1 PUSH2 0x16A SWAP2 SWAP1 PUSH2 0x17E3 JUMP JUMPDEST PUSH2 0x45D JUMP JUMPDEST PUSH1 0x40 MLOAD PUSH2 0x17C SWAP2 SWAP1 PUSH2 0x1851 JUMP JUMPDEST PUSH1 0x40 MLOAD DUP1 SWAP2 SUB SWAP1 RETURN JUMPDEST CALLVALUE DUP1 ISZERO PUSH2 0x191 JUMPI PUSH1 0x0 DUP1 REVERT JUMPDEST POP PUSH2 0x19A PUSH2 0x49C JUMP JUMPDEST PUSH1 0x40 MLOAD PUSH2 0x1A7 SWAP2 SWAP1 PUSH2 0x1851 JUMP JUMPDEST PUSH1 0x40 MLOAD DUP1 SWAP2 SUB SWAP1 RETURN JUMPDEST CALLVALUE DUP1 ISZERO PUSH2 0x1BC JUMPI PUSH1 0x0 DUP1 REVERT JUMPDEST POP PUSH2 0x1D7 PUSH1 0x4 DUP1 CALLDATASIZE SUB DUP2 ADD SWAP1 PUSH2 0x1D2 SWAP2 SWAP1 PUSH2 0x195A JUMP JUMPDEST PUSH2 0x4C2 JUMP JUMPDEST STOP JUMPDEST PUSH2 0x1F3 PUSH1 0x4 DUP1 CALLDATASIZE SUB DUP2 ADD SWAP1 PUSH2 0x1EE SWAP2 SWAP1 PUSH2 0x1A45 JUMP JUMPDEST PUSH2 0x689 JUMP JUMPDEST PUSH1 0x40 MLOAD PUSH2 0x200 SWAP2 SWAP1 PUSH2 0x1B6F JUMP JUMPDEST PUSH1 0x40 MLOAD DUP1 SWAP2 SUB SWAP1 RETURN JUMPDEST CALLVALUE DUP1 ISZERO PUSH2 0x215 JUMPI PUSH1 0x0 DUP1 REVERT JUMPDEST POP PUSH2 0x230 PUSH1 0x4 DUP1 CALLDATASIZE SUB DUP2 ADD SWAP1 PUSH2 0x22B SWAP2 SWAP1 PUSH2 0x1B91 JUMP JUMPDEST PUSH2 0x9AD JUMP JUMPDEST PUSH1 0x40 MLOAD PUSH2 0x23D SWAP2 SWAP1 PUSH2 0x1BCD JUMP JUMPDEST PUSH1 0x40 MLOAD DUP1 SWAP2 SUB SWAP1 RETURN JUMPDEST CALLVALUE DUP1 ISZERO PUSH2 0x252 JUMPI PUSH1 0x0 DUP1 REVERT JUMPDEST POP PUSH2 0x25B PUSH2 0x9CD JUMP JUMPDEST PUSH1 0x40 MLOAD PUSH2 0x268 SWAP2 SWAP1 PUSH2 0x1E5D JUMP JUMPDEST PUSH1 0x40 MLOAD DUP1 SWAP2 SUB SWAP1 RETURN JUMPDEST CALLVALUE DUP1 ISZERO PUSH2 0x27D JUMPI PUSH1 0x0 DUP1 REVERT JUMPDEST POP PUSH2 0x298 PUSH1 0x4 DUP1 CALLDATASIZE SUB DUP2 ADD SWAP1 PUSH2 0x293 SWAP2 SWAP1 PUSH2 0x1E7F JUMP JUMPDEST PUSH2 0xB9D JUMP JUMPDEST PUSH1 0x40 MLOAD PUSH2 0x2A5 SWAP2 SWAP1 PUSH2 0x1BCD JUMP JUMPDEST PUSH1 0x40 MLOAD DUP1 SWAP2 SUB SWAP1 RETURN JUMPDEST CALLVALUE DUP1 ISZERO PUSH2 0x2BA JUMPI PUSH1 0x0 DUP1 REVERT JUMPDEST POP PUSH2 0x2C3 PUSH2 0xBCC JUMP JUMPDEST PUSH1 0x40 MLOAD PUSH2 0x2D0 SWAP2 SWAP1 PUSH2 0x1EBF JUMP JUMPDEST PUSH1 0x40 MLOAD DUP1 SWAP2 SUB SWAP1 RETURN JUMPDEST CALLVALUE DUP1 ISZERO PUSH2 0x2E5 JUMPI PUSH1 0x0 DUP1 REVERT JUMPDEST POP PUSH2 0x2EE PUSH2 0xBD2 JUMP JUMPDEST PUSH1 0x40 MLOAD PUSH2 0x2FB SWAP2 SWAP1 PUSH2 0x1EBF JUMP JUMPDEST PUSH1 0x40 MLOAD DUP1 SWAP2 SUB SWAP1 RETURN JUMPDEST CALLVALUE DUP1 ISZERO PUSH2 0x310 JUMPI PUSH1 0x0 DUP1 REVERT JUMPDEST POP PUSH2 0x32B PUSH1 0x4 DUP1 CALLDATASIZE SUB DUP2 ADD SWAP1 PUSH2 0x326 SWAP2 SWAP1 PUSH2 0x1EDA JUMP JUMPDEST PUSH2 0xBD8 JUMP JUMPDEST PUSH1 0x40 MLOAD PUSH2 0x338 SWAP2 SWAP1 PUSH2 0x1BCD JUMP JUMPDEST PUSH1 0x40 MLOAD DUP1 SWAP2 SUB SWAP1 RETURN JUMPDEST CALLVALUE DUP1 ISZERO PUSH2 0x34D JUMPI PUSH1 0x0 DUP1 REVERT JUMPDEST POP PUSH2 0x368 PUSH1 0x4 DUP1 CALLDATASIZE SUB DUP2 ADD SWAP1 PUSH2 0x363 SWAP2 SWAP1 PUSH2 0x2085 JUMP JUMPDEST PUSH2 0xE92 JUMP JUMPDEST STOP JUMPDEST CALLVALUE DUP1 ISZERO PUSH2 0x376 JUMPI PUSH1 0x0 DUP1 REVERT JUMPDEST POP PUSH2 0x391 PUSH1 0x4 DUP1 CALLDATASIZE SUB DUP2 ADD SWAP1 PUSH2 0x38C SWAP2 SWAP1 PUSH2 0x17E3 JUMP JUMPDEST PUSH2 0x1187 JUMP JUMPDEST PUSH1 0x40 MLOAD PUSH2 0x3A2 SWAP6 SWAP5 SWAP4 SWAP3 SWAP2 SWAP1 PUSH2 0x211C JUMP JUMPDEST PUSH1 0x40 MLOAD DUP1 SWAP2 SUB SWAP1 RETURN JUMPDEST CALLVALUE DUP1 ISZERO PUSH2 0x3B7 JUMPI PUSH1 0x0 DUP1 REVERT JUMPDEST POP PUSH2 0x3D2 PUSH1 0x4 DUP1 CALLDATASIZE SUB DUP2 ADD SWAP1 PUSH2 0x3CD SWAP2 SWAP1 PUSH2 0x17E3 JUMP JUMPDEST PUSH2 0x137A JUMP JUMPDEST PUSH1 0x40 MLOAD PUSH2 0x3E7 SWAP10 SWAP9 SWAP8 SWAP7 SWAP6 SWAP5 SWAP4 SWAP3 SWAP2 SWAP1 PUSH2 0x2185 JUMP JUMPDEST PUSH1 0x40 MLOAD DUP1 SWAP2 SUB SWAP1 RETURN JUMPDEST PUSH2 0x40A PUSH1 0x4 DUP1 CALLDATASIZE SUB DUP2 ADD SWAP1 PUSH2 0x405 SWAP2 SWAP1 PUSH2 0x2219 JUMP JUMPDEST PUSH2 0x149A JUMP JUMPDEST PUSH1 0x40 MLOAD PUSH2 0x417 SWAP2 SWAP1 PUSH2 0x1BCD JUMP JUMPDEST PUSH1 0x40 MLOAD DUP1 SWAP2 SUB SWAP1 RETURN JUMPDEST CALLVALUE DUP1 ISZERO PUSH2 0x42C JUMPI PUSH1 0x0 DUP1 REVERT JUMPDEST POP PUSH2 0x447 PUSH1 0x4 DUP1 CALLDATASIZE SUB DUP2 ADD SWAP1 PUSH2 0x442 SWAP2 SWAP1 PUSH2 0x1E7F JUMP JUMPDEST PUSH2 0x1732 JUMP JUMPDEST PUSH1 0x40 MLOAD PUSH2 0x454 SWAP2 SWAP1 PUSH2 0x1BCD JUMP JUMPDEST PUSH1 0x40 MLOAD DUP1 SWAP2 SUB SWAP1 RETURN JUMPDEST PUSH1 0x0 DUP2 DUP2 SLOAD DUP2 LT PUSH2 0x46D JUMPI PUSH1 0x0 DUP1 REVERT JUMPDEST SWAP1 PUSH1 0x0 MSTORE PUSH1 0x20 PUSH1 0x0 KECCAK256 ADD PUSH1 0x0 SWAP2 POP SLOAD SWAP1 PUSH2 0x100 EXP SWAP1 DIV PUSH20 0xFFFFFFFFFFFFFFFFFFFFFFFFFFFFFFFFFFFFFFFF AND DUP2 JUMP JUMPDEST PUSH1 0x3 PUSH1 0x0 SWAP1 SLOAD SWAP1 PUSH2 0x100 EXP SWAP1 DIV PUSH20 0xFFFFFFFFFFFFFFFFFFFFFFFFFFFFFFFFFFFFFFFF AND DUP2 JUMP JUMPDEST PUSH1 0x9 PUSH1 0x40 MLOAD DUP1 PUSH2 0x120 ADD PUSH1 0x40 MSTORE DUP1 DUP13 PUSH20 0xFFFFFFFFFFFFFFFFFFFFFFFFFFFFFFFFFFFFFFFF AND DUP2 MSTORE PUSH1 0x20 ADD DUP12 DUP2 MSTORE PUSH1 0x20 ADD DUP11 DUP2 MSTORE PUSH1 0x20 ADD DUP10 DUP10 DUP1 DUP1 PUSH1 0x1F ADD PUSH1 0x20 DUP1 SWAP2 DIV MUL PUSH1 0x20 ADD PUSH1 0x40 MLOAD SWAP1 DUP2 ADD PUSH1 0x40 MSTORE DUP1 SWAP4 SWAP3 SWAP2 SWAP1 DUP2 DUP2 MSTORE PUSH1 0x20 ADD DUP4 DUP4 DUP1 DUP3 DUP5 CALLDATACOPY PUSH1 0x0 DUP2 DUP5 ADD MSTORE PUSH1 0x1F NOT PUSH1 0x1F DUP3 ADD AND SWAP1 POP DUP1 DUP4 ADD SWAP3 POP POP POP POP POP POP POP DUP2 MSTORE PUSH1 0x20 ADD DUP8 ISZERO ISZERO DUP2 MSTORE PUSH1 0x20 ADD DUP7 PUSH1 0x3 DUP2 GT ISZERO PUSH2 0x55D JUMPI PUSH2 0x55C PUSH2 0x1C8B JUMP JUMPDEST JUMPDEST DUP2 MSTORE PUSH1 0x20 ADD DUP6 DUP2 MSTORE PUSH1 0x20 ADD DUP5 DUP2 MSTORE PUSH1 0x20 ADD DUP4 DUP2 MSTORE POP SWAP1 DUP1 PUSH1 0x1 DUP2 SLOAD ADD DUP1 DUP3 SSTORE DUP1 SWAP2 POP POP PUSH1 0x1 SWAP1 SUB SWAP1 PUSH1 0x0 MSTORE PUSH1 0x20 PUSH1 0x0 KECCAK256 SWAP1 PUSH1 0x8 MUL ADD PUSH1 0x0 SWAP1 SWAP2 SWAP1 SWAP2 SWAP1 SWAP2 POP PUSH1 0x0 DUP3 ADD MLOAD DUP2 PUSH1 0x0 ADD PUSH1 0x0 PUSH2 0x100 EXP DUP2 SLOAD DUP2 PUSH20 0xFFFFFFFFFFFFFFFFFFFFFFFFFFFFFFFFFFFFFFFF MUL NOT AND SWAP1 DUP4 PUSH20 0xFFFFFFFFFFFFFFFFFFFFFFFFFFFFFFFFFFFFFFFF AND MUL OR SWAP1 SSTORE POP PUSH1 0x20 DUP3 ADD MLOAD DUP2 PUSH1 0x1 ADD SSTORE PUSH1 0x40 DUP3 ADD MLOAD DUP2 PUSH1 0x2 ADD SSTORE PUSH1 0x60 DUP3 ADD MLOAD DUP2 PUSH1 0x3 ADD SWAP1 DUP2 PUSH2 0x60B SWAP2 SWAP1 PUSH2 0x2481 JUMP JUMPDEST POP PUSH1 0x80 DUP3 ADD MLOAD DUP2 PUSH1 0x4 ADD PUSH1 0x0 PUSH2 0x100 EXP DUP2 SLOAD DUP2 PUSH1 0xFF MUL NOT AND SWAP1 DUP4 ISZERO ISZERO MUL OR SWAP1 SSTORE POP PUSH1 0xA0 DUP3 ADD MLOAD DUP2 PUSH1 0x4 ADD PUSH1 0x1 PUSH2 0x100 EXP DUP2 SLOAD DUP2 PUSH1 0xFF MUL NOT AND SWAP1 DUP4 PUSH1 0x3 DUP2 GT ISZERO PUSH2 0x657 JUMPI PUSH2 0x656 PUSH2 0x1C8B JUMP JUMPDEST JUMPDEST MUL OR SWAP1 SSTORE POP PUSH1 0xC0 DUP3 ADD MLOAD DUP2 PUSH1 0x5 ADD SSTORE PUSH1 0xE0 DUP3 ADD MLOAD DUP2 PUSH1 0x6 ADD SSTORE PUSH2 0x100 DUP3 ADD MLOAD DUP2 PUSH1 0x7 ADD SSTORE POP POP POP POP POP POP POP POP POP POP POP POP JUMP JUMPDEST PUSH1 0x60 PUSH1 0x0 PUSH1 0x9 DUP5 DUP2 SLOAD DUP2 LT PUSH2 0x6A1 JUMPI PUSH2 0x6A0 PUSH2 0x2553 JUMP JUMPDEST JUMPDEST SWAP1 PUSH1 0x0 MSTORE PUSH1 0x20 PUSH1 0x0 KECCAK256 SWAP1 PUSH1 0x8 MUL ADD PUSH1 0x40 MLOAD DUP1 PUSH2 0x120 ADD PUSH1 0x40 MSTORE SWAP1 DUP2 PUSH1 0x0 DUP3 ADD PUSH1 0x0 SWAP1 SLOAD SWAP1 PUSH2 0x100 EXP SWAP1 DIV PUSH20 0xFFFFFFFFFFFFFFFFFFFFFFFFFFFFFFFFFFFFFFFF AND PUSH20 0xFFFFFFFFFFFFFFFFFFFFFFFFFFFFFFFFFFFFFFFF AND PUSH20 0xFFFFFFFFFFFFFFFFFFFFFFFFFFFFFFFFFFFFFFFF AND DUP2 MSTORE PUSH1 0x20 ADD PUSH1 0x1 DUP3 ADD SLOAD DUP2 MSTORE PUSH1 0x20 ADD PUSH1 0x2 DUP3 ADD SLOAD DUP2 MSTORE PUSH1 0x20 ADD PUSH1 0x3 DUP3 ADD DUP1 SLOAD PUSH2 0x735 SWAP1 PUSH2 0x22A4 JUMP JUMPDEST DUP1 PUSH1 0x1F ADD PUSH1 0x20 DUP1 SWAP2 DIV MUL PUSH1 0x20 ADD PUSH1 0x40 MLOAD SWAP1 DUP2 ADD PUSH1 0x40 MSTORE DUP1 SWAP3 SWAP2 SWAP1 DUP2 DUP2 MSTORE PUSH1 0x20 ADD DUP3 DUP1 SLOAD PUSH2 0x761 SWAP1 PUSH2 0x22A4 JUMP JUMPDEST DUP1 ISZERO PUSH2 0x7AE JUMPI DUP1 PUSH1 0x1F LT PUSH2 0x783 JUMPI PUSH2 0x100 DUP1 DUP4 SLOAD DIV MUL DUP4 MSTORE SWAP2 PUSH1 0x20 ADD SWAP2 PUSH2 0x7AE JUMP JUMPDEST DUP3 ADD SWAP2 SWAP1 PUSH1 0x0 MSTORE PUSH1 0x20 PUSH1 0x0 KECCAK256 SWAP1 JUMPDEST DUP2 SLOAD DUP2 MSTORE SWAP1 PUSH1 0x1 ADD SWAP1 PUSH1 0x20 ADD DUP1 DUP4 GT PUSH2 0x791 JUMPI DUP3 SWAP1 SUB PUSH1 0x1F AND DUP3 ADD SWAP2 JUMPDEST POP POP POP POP POP DUP2 MSTORE PUSH1 0x20 ADD PUSH1 0x4 DUP3 ADD PUSH1 0x0 SWAP1 SLOAD SWAP1 PUSH2 0x100 EXP SWAP1 DIV PUSH1 0xFF AND ISZERO ISZERO ISZERO ISZERO DUP2 MSTORE PUSH1 0x20 ADD PUSH1 0x4 DUP3 ADD PUSH1 0x1 SWAP1 SLOAD SWAP1 PUSH2 0x100 EXP SWAP1 DIV PUSH1 0xFF AND PUSH1 0x3 DUP2 GT ISZERO PUSH2 0x7F7 JUMPI PUSH2 0x7F6 PUSH2 0x1C8B JUMP JUMPDEST JUMPDEST PUSH1 0x3 DUP2 GT ISZERO PUSH2 0x809 JUMPI PUSH2 0x808 PUSH2 0x1C8B JUMP JUMPDEST JUMPDEST DUP2 MSTORE PUSH1 0x20 ADD PUSH1 0x5 DUP3 ADD SLOAD DUP2 MSTORE PUSH1 0x20 ADD PUSH1 0x6 DUP3 ADD SLOAD DUP2 MSTORE PUSH1 0x20 ADD PUSH1 0x7 DUP3 ADD SLOAD DUP2 MSTORE POP POP SWAP1 POP PUSH1 0x2 DUP2 PUSH1 0xC0 ADD MLOAD TIMESTAMP PUSH2 0x83F SWAP2 SWAP1 PUSH2 0x25B1 JUMP JUMPDEST GT PUSH2 0x849 JUMPI PUSH1 0x0 DUP1 REVERT JUMPDEST PUSH1 0x0 DUP4 GT PUSH2 0x856 JUMPI PUSH1 0x0 DUP1 REVERT JUMPDEST PUSH1 0x7 PUSH1 0x0 DUP6 DUP2 MSTORE PUSH1 0x20 ADD SWAP1 DUP2 MSTORE PUSH1 0x20 ADD PUSH1 0x0 KECCAK256 PUSH1 0x0 CALLER PUSH20 0xFFFFFFFFFFFFFFFFFFFFFFFFFFFFFFFFFFFFFFFF AND PUSH20 0xFFFFFFFFFFFFFFFFFFFFFFFFFFFFFFFFFFFFFFFF AND DUP2 MSTORE PUSH1 0x20 ADD SWAP1 DUP2 MSTORE PUSH1 0x20 ADD PUSH1 0x0 KECCAK256 PUSH1 0x0 SWAP1 SLOAD SWAP1 PUSH2 0x100 EXP SWAP1 DIV PUSH1 0xFF AND ISZERO PUSH2 0x8BE JUMPI PUSH1 0x0 DUP1 REVERT JUMPDEST PUSH1 0x1 PUSH1 0x0 DUP1 PUSH1 0x0 DUP2 SLOAD DUP2 LT PUSH2 0x8D6 JUMPI PUSH2 0x8D5 PUSH2 0x2553 JUMP JUMPDEST JUMPDEST SWAP1 PUSH1 0x0 MSTORE PUSH1 0x20 PUSH1 0x0 KECCAK256 ADD PUSH1 0x0 SWAP1 SLOAD SWAP1 PUSH2 0x100 EXP SWAP1 DIV PUSH20 0xFFFFFFFFFFFFFFFFFFFFFFFFFFFFFFFFFFFFFFFF AND PUSH20 0xFFFFFFFFFFFFFFFFFFFFFFFFFFFFFFFFFFFFFFFF AND PUSH20 0xFFFFFFFFFFFFFFFFFFFFFFFFFFFFFFFFFFFFFFFF AND DUP2 MSTORE PUSH1 0x20 ADD SWAP1 DUP2 MSTORE PUSH1 0x20 ADD PUSH1 0x0 KECCAK256 PUSH1 0x0 SWAP1 SLOAD SWAP1 PUSH2 0x100 EXP SWAP1 DIV PUSH1 0xFF AND ISZERO PUSH2 0x953 JUMPI PUSH1 0x0 DUP1 REVERT JUMPDEST DUP4 CALLER PUSH20 0xFFFFFFFFFFFFFFFFFFFFFFFFFFFFFFFFFFFFFFFF AND PUSH32 0x24752D85A5CC733663165F014A85E53EE7233373E03CD03A8759314180A5A680 DUP8 PUSH1 0x40 MLOAD PUSH2 0x99A SWAP2 SWAP1 PUSH2 0x1EBF JUMP JUMPDEST PUSH1 0x40 MLOAD DUP1 SWAP2 SUB SWAP1 LOG3 POP SWAP7 SWAP6 POP POP POP POP POP POP JUMP JUMPDEST PUSH1 0x1 PUSH1 0x20 MSTORE DUP1 PUSH1 0x0 MSTORE PUSH1 0x40 PUSH1 0x0 KECCAK256 PUSH1 0x0 SWAP2 POP SLOAD SWAP1 PUSH2 0x100 EXP SWAP1 DIV PUSH1 0xFF AND DUP2 JUMP JUMPDEST PUSH1 0x60 PUSH1 0x9 DUP1 SLOAD DUP1 PUSH1 0x20 MUL PUSH1 0x20 ADD PUSH1 0x40 MLOAD SWAP1 DUP2 ADD PUSH1 0x40 MSTORE DUP1 SWAP3 SWAP2 SWAP1 DUP2 DUP2 MSTORE PUSH1 0x20 ADD PUSH1 0x0 SWAP1 JUMPDEST DUP3 DUP3 LT ISZERO PUSH2 0xB94 JUMPI DUP4 DUP3 SWAP1 PUSH1 0x0 MSTORE PUSH1 0x20 PUSH1 0x0 KECCAK256 SWAP1 PUSH1 0x8 MUL ADD PUSH1 0x40 MLOAD DUP1 PUSH2 0x120 ADD PUSH1 0x40 MSTORE SWAP1 DUP2 PUSH1 0x0 DUP3 ADD PUSH1 0x0 SWAP1 SLOAD SWAP1 PUSH2 0x100 EXP SWAP1 DIV PUSH20 0xFFFFFFFFFFFFFFFFFFFFFFFFFFFFFFFFFFFFFFFF AND PUSH20 0xFFFFFFFFFFFFFFFFFFFFFFFFFFFFFFFFFFFFFFFF AND PUSH20 0xFFFFFFFFFFFFFFFFFFFFFFFFFFFFFFFFFFFFFFFF AND DUP2 MSTORE PUSH1 0x20 ADD PUSH1 0x1 DUP3 ADD SLOAD DUP2 MSTORE PUSH1 0x20 ADD PUSH1 0x2 DUP3 ADD SLOAD DUP2 MSTORE PUSH1 0x20 ADD PUSH1 0x3 DUP3 ADD DUP1 SLOAD PUSH2 0xA8F SWAP1 PUSH2 0x22A4 JUMP JUMPDEST DUP1 PUSH1 0x1F ADD PUSH1 0x20 DUP1 SWAP2 DIV MUL PUSH1 0x20 ADD PUSH1 0x40 MLOAD SWAP1 DUP2 ADD PUSH1 0x40 MSTORE DUP1 SWAP3 SWAP2 SWAP1 DUP2 DUP2 MSTORE PUSH1 0x20 ADD DUP3 DUP1 SLOAD PUSH2 0xABB SWAP1 PUSH2 0x22A4 JUMP JUMPDEST DUP1 ISZERO PUSH2 0xB08 JUMPI DUP1 PUSH1 0x1F LT PUSH2 0xADD JUMPI PUSH2 0x100 DUP1 DUP4 SLOAD DIV MUL DUP4 MSTORE SWAP2 PUSH1 0x20 ADD SWAP2 PUSH2 0xB08 JUMP JUMPDEST DUP3 ADD SWAP2 SWAP1 PUSH1 0x0 MSTORE PUSH1 0x20 PUSH1 0x0 KECCAK256 SWAP1 JUMPDEST DUP2 SLOAD DUP2 MSTORE SWAP1 PUSH1 0x1 ADD SWAP1 PUSH1 0x20 ADD DUP1 DUP4 GT PUSH2 0xAEB JUMPI DUP3 SWAP1 SUB PUSH1 0x1F AND DUP3 ADD SWAP2 JUMPDEST POP POP POP POP POP DUP2 MSTORE PUSH1 0x20 ADD PUSH1 0x4 DUP3 ADD PUSH1 0x0 SWAP1 SLOAD SWAP1 PUSH2 0x100 EXP SWAP1 DIV PUSH1 0xFF AND ISZERO ISZERO ISZERO ISZERO DUP2 MSTORE PUSH1 0x20 ADD PUSH1 0x4 DUP3 ADD PUSH1 0x1 SWAP1 SLOAD SWAP1 PUSH2 0x100 EXP SWAP1 DIV PUSH1 0xFF AND PUSH1 0x3 DUP2 GT ISZERO PUSH2 0xB51 JUMPI PUSH2 0xB50 PUSH2 0x1C8B JUMP JUMPDEST JUMPDEST PUSH1 0x3 DUP2 GT ISZERO PUSH2 0xB63 JUMPI PUSH2 0xB62 PUSH2 0x1C8B JUMP JUMPDEST JUMPDEST DUP2 MSTORE PUSH1 0x20 ADD PUSH1 0x5 DUP3 ADD SLOAD DUP2 MSTORE PUSH1 0x20 ADD PUSH1 0x6 DUP3 ADD SLOAD DUP2 MSTORE PUSH1 0x20 ADD PUSH1 0x7 DUP3 ADD SLOAD DUP2 MSTORE POP POP DUP2 MSTORE PUSH1 0x20 ADD SWAP1 PUSH1 0x1 ADD SWAP1 PUSH2 0x9F1 JUMP JUMPDEST POP POP POP POP SWAP1 POP SWAP1 JUMP JUMPDEST PUSH1 0x6 PUSH1 0x20 MSTORE DUP2 PUSH1 0x0 MSTORE PUSH1 0x40 PUSH1 0x0 KECCAK256 PUSH1 0x20 MSTORE DUP1 PUSH1 0x0 MSTORE PUSH1 0x40 PUSH1 0x0 KECCAK256 PUSH1 0x0 SWAP2 POP SWAP2 POP SWAP1 SLOAD SWAP1 PUSH2 0x100 EXP SWAP1 DIV PUSH1 0xFF AND DUP2 JUMP JUMPDEST PUSH1 0x4 SLOAD DUP2 JUMP JUMPDEST PUSH1 0x2 SLOAD DUP2 JUMP JUMPDEST PUSH1 0x0 DUP1 PUSH1 0x9 DUP5 DUP2 SLOAD DUP2 LT PUSH2 0xBEF JUMPI PUSH2 0xBEE PUSH2 0x2553 JUMP JUMPDEST JUMPDEST SWAP1 PUSH1 0x0 MSTORE PUSH1 0x20 PUSH1 0x0 KECCAK256 SWAP1 PUSH1 0x8 MUL ADD PUSH1 0x40 MLOAD DUP1 PUSH2 0x120 ADD PUSH1 0x40 MSTORE SWAP1 DUP2 PUSH1 0x0 DUP3 ADD PUSH1 0x0 SWAP1 SLOAD SWAP1 PUSH2 0x100 EXP SWAP1 DIV PUSH20 0xFFFFFFFFFFFFFFFFFFFFFFFFFFFFFFFFFFFFFFFF AND PUSH20 0xFFFFFFFFFFFFFFFFFFFFFFFFFFFFFFFFFFFFFFFF AND PUSH20 0xFFFFFFFFFFFFFFFFFFFFFFFFFFFFFFFFFFFFFFFF AND DUP2 MSTORE PUSH1 0x20 ADD PUSH1 0x1 DUP3 ADD SLOAD DUP2 MSTORE PUSH1 0x20 ADD PUSH1 0x2 DUP3 ADD SLOAD DUP2 MSTORE PUSH1 0x20 ADD PUSH1 0x3 DUP3 ADD DUP1 SLOAD PUSH2 0xC83 SWAP1 PUSH2 0x22A4 JUMP JUMPDEST DUP1 PUSH1 0x1F ADD PUSH1 0x20 DUP1 SWAP2 DIV MUL PUSH1 0x20 ADD PUSH1 0x40 MLOAD SWAP1 DUP2 ADD PUSH1 0x40 MSTORE DUP1 SWAP3 SWAP2 SWAP1 DUP2 DUP2 MSTORE PUSH1 0x20 ADD DUP3 DUP1 SLOAD PUSH2 0xCAF SWAP1 PUSH2 0x22A4 JUMP JUMPDEST DUP1 ISZERO PUSH2 0xCFC JUMPI DUP1 PUSH1 0x1F LT PUSH2 0xCD1 JUMPI PUSH2 0x100 DUP1 DUP4 SLOAD DIV MUL DUP4 MSTORE SWAP2 PUSH1 0x20 ADD SWAP2 PUSH2 0xCFC JUMP JUMPDEST DUP3 ADD SWAP2 SWAP1 PUSH1 0x0 MSTORE PUSH1 0x20 PUSH1 0x0 KECCAK256 SWAP1 JUMPDEST DUP2 SLOAD DUP2 MSTORE SWAP1 PUSH1 0x1 ADD SWAP1 PUSH1 0x20 ADD DUP1 DUP4 GT PUSH2 0xCDF JUMPI DUP3 SWAP1 SUB PUSH1 0x1F AND DUP3 ADD SWAP2 JUMPDEST POP POP POP POP POP DUP2 MSTORE PUSH1 0x20 ADD PUSH1 0x4 DUP3 ADD PUSH1 0x0 SWAP1 SLOAD SWAP1 PUSH2 0x100 EXP SWAP1 DIV PUSH1 0xFF AND ISZERO ISZERO ISZERO ISZERO DUP2 MSTORE PUSH1 0x20 ADD PUSH1 0x4 DUP3 ADD PUSH1 0x1 SWAP1 SLOAD SWAP1 PUSH2 0x100 EXP SWAP1 DIV PUSH1 0xFF AND PUSH1 0x3 DUP2 GT ISZERO PUSH2 0xD45 JUMPI PUSH2 0xD44 PUSH2 0x1C8B JUMP JUMPDEST JUMPDEST PUSH1 0x3 DUP2 GT ISZERO PUSH2 0xD57 JUMPI PUSH2 0xD56 PUSH2 0x1C8B JUMP JUMPDEST JUMPDEST DUP2 MSTORE PUSH1 0x20 ADD PUSH1 0x5 DUP3 ADD SLOAD DUP2 MSTORE PUSH1 0x20 ADD PUSH1 0x6 DUP3 ADD SLOAD DUP2 MSTORE PUSH1 0x20 ADD PUSH1 0x7 DUP3 ADD SLOAD DUP2 MSTORE POP POP SWAP1 POP PUSH1 0x2 DUP2 PUSH1 0xC0 ADD MLOAD TIMESTAMP PUSH2 0xD8D SWAP2 SWAP1 PUSH2 0x25B1 JUMP JUMPDEST GT PUSH2 0xD97 JUMPI PUSH1 0x0 DUP1 REVERT JUMPDEST PUSH1 0x0 DUP4 GT PUSH2 0xDA4 JUMPI PUSH1 0x0 DUP1 REVERT JUMPDEST PUSH1 0x7 PUSH1 0x0 DUP6 DUP2 MSTORE PUSH1 0x20 ADD SWAP1 DUP2 MSTORE PUSH1 0x20 ADD PUSH1 0x0 KECCAK256 PUSH1 0x0 CALLER PUSH20 0xFFFFFFFFFFFFFFFFFFFFFFFFFFFFFFFFFFFFFFFF AND PUSH20 0xFFFFFFFFFFFFFFFFFFFFFFFFFFFFFFFFFFFFFFFF AND DUP2 MSTORE PUSH1 0x20 ADD SWAP1 DUP2 MSTORE PUSH1 0x20 ADD PUSH1 0x0 KECCAK256 PUSH1 0x0 SWAP1 SLOAD SWAP1 PUSH2 0x100 EXP SWAP1 DIV PUSH1 0xFF AND ISZERO PUSH2 0xE0C JUMPI PUSH1 0x0 DUP1 REVERT JUMPDEST PUSH1 0x0 PUSH20 0xFFFFFFFFFFFFFFFFFFFFFFFFFFFFFFFFFFFFFFFF AND DUP7 PUSH20 0xFFFFFFFFFFFFFFFFFFFFFFFFFFFFFFFFFFFFFFFF AND SUB PUSH2 0xE45 JUMPI PUSH1 0x0 DUP1 REVERT JUMPDEST PUSH1 0x0 PUSH20 0xFFFFFFFFFFFFFFFFFFFFFFFFFFFFFFFFFFFFFFFF AND DUP8 PUSH20 0xFFFFFFFFFFFFFFFFFFFFFFFFFFFFFFFFFFFFFFFF AND SUB PUSH2 0xE7E JUMPI PUSH1 0x0 DUP1 REVERT JUMPDEST PUSH1 0x0 CALLER SWAP1 POP PUSH1 0x1 SWAP3 POP POP POP SWAP6 SWAP5 POP POP POP POP POP JUMP JUMPDEST PUSH1 0x1 PUSH1 0x0 CALLER PUSH20 0xFFFFFFFFFFFFFFFFFFFFFFFFFFFFFFFFFFFFFFFF AND PUSH20 0xFFFFFFFFFFFFFFFFFFFFFFFFFFFFFFFFFFFFFFFF AND DUP2 MSTORE PUSH1 0x20 ADD SWAP1 DUP2 MSTORE PUSH1 0x20 ADD PUSH1 0x0 KECCAK256 PUSH1 0x0 SWAP1 SLOAD SWAP1 PUSH2 0x100 EXP SWAP1 DIV PUSH1 0xFF AND PUSH2 0xEE8 JUMPI PUSH1 0x0 DUP1 REVERT JUMPDEST PUSH1 0x0 PUSH1 0x9 DUP1 SLOAD SWAP1 POP SWAP1 POP PUSH1 0x9 PUSH1 0x40 MLOAD DUP1 PUSH2 0x120 ADD PUSH1 0x40 MSTORE DUP1 DUP9 PUSH20 0xFFFFFFFFFFFFFFFFFFFFFFFFFFFFFFFFFFFFFFFF AND DUP2 MSTORE PUSH1 0x20 ADD DUP8 DUP2 MSTORE PUSH1 0x20 ADD PUSH1 0x0 DUP2 MSTORE PUSH1 0x20 ADD DUP7 DUP2 MSTORE PUSH1 0x20 ADD PUSH1 0x0 ISZERO ISZERO DUP2 MSTORE PUSH1 0x20 ADD PUSH1 0x0 PUSH1 0x3 DUP2 GT ISZERO PUSH2 0xF4C JUMPI PUSH2 0xF4B PUSH2 0x1C8B JUMP JUMPDEST JUMPDEST DUP2 MSTORE PUSH1 0x20 ADD TIMESTAMP DUP2 MSTORE PUSH1 0x20 ADD DUP4 DUP2 MSTORE PUSH1 0x20 ADD DUP5 DUP2 MSTORE POP SWAP1 DUP1 PUSH1 0x1 DUP2 SLOAD ADD DUP1 DUP3 SSTORE DUP1 SWAP2 POP POP PUSH1 0x1 SWAP1 SUB SWAP1 PUSH1 0x0 MSTORE PUSH1 0x20 PUSH1 0x0 KECCAK256 SWAP1 PUSH1 0x8 MUL ADD PUSH1 0x0 SWAP1 SWAP2 SWAP1 SWAP2 SWAP1 SWAP2 POP PUSH1 0x0 DUP3 ADD MLOAD DUP2 PUSH1 0x0 ADD PUSH1 0x0 PUSH2 0x100 EXP DUP2 SLOAD DUP2 PUSH20 0xFFFFFFFFFFFFFFFFFFFFFFFFFFFFFFFFFFFFFFFF MUL NOT AND SWAP1 DUP4 PUSH20 0xFFFFFFFFFFFFFFFFFFFFFFFFFFFFFFFFFFFFFFFF AND MUL OR SWAP1 SSTORE POP PUSH1 0x20 DUP3 ADD MLOAD DUP2 PUSH1 0x1 ADD SSTORE PUSH1 0x40 DUP3 ADD MLOAD DUP2 PUSH1 0x2 ADD SSTORE PUSH1 0x60 DUP3 ADD MLOAD DUP2 PUSH1 0x3 ADD SWAP1 DUP2 PUSH2 0xFFA SWAP2 SWAP1 PUSH2 0x2481 JUMP JUMPDEST POP PUSH1 0x80 DUP3 ADD MLOAD DUP2 PUSH1 0x4 ADD PUSH1 0x0 PUSH2 0x100 EXP DUP2 SLOAD DUP2 PUSH1 0xFF MUL NOT AND SWAP1 DUP4 ISZERO ISZERO MUL OR SWAP1 SSTORE POP PUSH1 0xA0 DUP3 ADD MLOAD DUP2 PUSH1 0x4 ADD PUSH1 0x1 PUSH2 0x100 EXP DUP2 SLOAD DUP2 PUSH1 0xFF MUL NOT AND SWAP1 DUP4 PUSH1 0x3 DUP2 GT ISZERO PUSH2 0x1046 JUMPI PUSH2 0x1045 PUSH2 0x1C8B JUMP JUMPDEST JUMPDEST MUL OR SWAP1 SSTORE POP PUSH1 0xC0 DUP3 ADD MLOAD DUP2 PUSH1 0x5 ADD SSTORE PUSH1 0xE0 DUP3 ADD MLOAD DUP2 PUSH1 0x6 ADD SSTORE PUSH2 0x100 DUP3 ADD MLOAD DUP2 PUSH1 0x7 ADD SSTORE POP POP PUSH1 0x0 PUSH1 0x9 DUP3 DUP2 SLOAD DUP2 LT PUSH2 0x1082 JUMPI PUSH2 0x1081 PUSH2 0x2553 JUMP JUMPDEST JUMPDEST SWAP1 PUSH1 0x0 MSTORE PUSH1 0x20 PUSH1 0x0 KECCAK256 SWAP1 PUSH1 0x8 MUL ADD SWAP1 POP PUSH1 0x2 DUP2 PUSH1 0x5 ADD SLOAD TIMESTAMP PUSH2 0x10A4 SWAP2 SWAP1 PUSH2 0x25B1 JUMP JUMPDEST GT PUSH2 0x10AE JUMPI PUSH1 0x0 DUP1 REVERT JUMPDEST PUSH1 0x0 DUP4 GT PUSH2 0x10BB JUMPI PUSH1 0x0 DUP1 REVERT JUMPDEST PUSH1 0x7 PUSH1 0x0 DUP4 DUP2 MSTORE PUSH1 0x20 ADD SWAP1 DUP2 MSTORE PUSH1 0x20 ADD PUSH1 0x0 KECCAK256 PUSH1 0x0 CALLER PUSH20 0xFFFFFFFFFFFFFFFFFFFFFFFFFFFFFFFFFFFFFFFF AND PUSH20 0xFFFFFFFFFFFFFFFFFFFFFFFFFFFFFFFFFFFFFFFF AND DUP2 MSTORE PUSH1 0x20 ADD SWAP1 DUP2 MSTORE PUSH1 0x20 ADD PUSH1 0x0 KECCAK256 PUSH1 0x0 SWAP1 SLOAD SWAP1 PUSH2 0x100 EXP SWAP1 DIV PUSH1 0xFF AND ISZERO PUSH2 0x1123 JUMPI PUSH1 0x0 DUP1 REVERT JUMPDEST DUP2 DUP8 PUSH20 0xFFFFFFFFFFFFFFFFFFFFFFFFFFFFFFFFFFFFFFFF AND CALLER PUSH20 0xFFFFFFFFFFFFFFFFFFFFFFFFFFFFFFFFFFFFFFFF AND PUSH32 0x3A7E667D1F3E3931C98C8B2DA3D29BBA1EA247441CB2573A4DDF9C77EEF7CD13 PUSH1 0x40 MLOAD PUSH1 0x40 MLOAD DUP1 SWAP2 SUB SWAP1 LOG4 POP POP POP POP POP POP POP JUMP JUMPDEST PUSH1 0x0 DUP1 PUSH1 0x0 PUSH1 0x60 PUSH1 0x0 DUP1 PUSH1 0x9 DUP8 DUP2 SLOAD DUP2 LT PUSH2 0x11A5 JUMPI PUSH2 0x11A4 PUSH2 0x2553 JUMP JUMPDEST JUMPDEST SWAP1 PUSH1 0x0 MSTORE PUSH1 0x20 PUSH1 0x0 KECCAK256 SWAP1 PUSH1 0x8 MUL ADD PUSH1 0x40 MLOAD DUP1 PUSH2 0x120 ADD PUSH1 0x40 MSTORE SWAP1 DUP2 PUSH1 0x0 DUP3 ADD PUSH1 0x0 SWAP1 SLOAD SWAP1 PUSH2 0x100 EXP SWAP1 DIV PUSH20 0xFFFFFFFFFFFFFFFFFFFFFFFFFFFFFFFFFFFFFFFF AND PUSH20 0xFFFFFFFFFFFFFFFFFFFFFFFFFFFFFFFFFFFFFFFF AND PUSH20 0xFFFFFFFFFFFFFFFFFFFFFFFFFFFFFFFFFFFFFFFF AND DUP2 MSTORE PUSH1 0x20 ADD PUSH1 0x1 DUP3 ADD SLOAD DUP2 MSTORE PUSH1 0x20 ADD PUSH1 0x2 DUP3 ADD SLOAD DUP2 MSTORE PUSH1 0x20 ADD PUSH1 0x3 DUP3 ADD DUP1 SLOAD PUSH2 0x1239 SWAP1 PUSH2 0x22A4 JUMP JUMPDEST DUP1 PUSH1 0x1F ADD PUSH1 0x20 DUP1 SWAP2 DIV MUL PUSH1 0x20 ADD PUSH1 0x40 MLOAD SWAP1 DUP2 ADD PUSH1 0x40 MSTORE DUP1 SWAP3 SWAP2 SWAP1 DUP2 DUP2 MSTORE PUSH1 0x20 ADD DUP3 DUP1 SLOAD PUSH2 0x1265 SWAP1 PUSH2 0x22A4 JUMP JUMPDEST DUP1 ISZERO PUSH2 0x12B2 JUMPI DUP1 PUSH1 0x1F LT PUSH2 0x1287 JUMPI PUSH2 0x100 DUP1 DUP4 SLOAD DIV MUL DUP4 MSTORE SWAP2 PUSH1 0x20 ADD SWAP2 PUSH2 0x12B2 JUMP JUMPDEST DUP3 ADD SWAP2 SWAP1 PUSH1 0x0 MSTORE PUSH1 0x20 PUSH1 0x0 KECCAK256 SWAP1 JUMPDEST DUP2 SLOAD DUP2 MSTORE SWAP1 PUSH1 0x1 ADD SWAP1 PUSH1 0x20 ADD DUP1 DUP4 GT PUSH2 0x1295 JUMPI DUP3 SWAP1 SUB PUSH1 0x1F AND DUP3 ADD SWAP2 JUMPDEST POP POP POP POP POP DUP2 MSTORE PUSH1 0x20 ADD PUSH1 0x4 DUP3 ADD PUSH1 0x0 SWAP1 SLOAD SWAP1 PUSH2 0x100 EXP SWAP1 DIV PUSH1 0xFF AND ISZERO ISZERO ISZERO ISZERO DUP2 MSTORE PUSH1 0x20 ADD PUSH1 0x4 DUP3 ADD PUSH1 0x1 SWAP1 SLOAD SWAP1 PUSH2 0x100 EXP SWAP1 DIV PUSH1 0xFF AND PUSH1 0x3 DUP2 GT ISZERO PUSH2 0x12FB JUMPI PUSH2 0x12FA PUSH2 0x1C8B JUMP JUMPDEST JUMPDEST PUSH1 0x3 DUP2 GT ISZERO PUSH2 0x130D JUMPI PUSH2 0x130C PUSH2 0x1C8B JUMP JUMPDEST JUMPDEST DUP2 MSTORE PUSH1 0x20 ADD PUSH1 0x5 DUP3 ADD SLOAD DUP2 MSTORE PUSH1 0x20 ADD PUSH1 0x6 DUP3 ADD SLOAD DUP2 MSTORE PUSH1 0x20 ADD PUSH1 0x7 DUP3 ADD SLOAD DUP2 MSTORE POP POP SWAP1 POP PUSH1 0x2 DUP2 PUSH1 0xC0 ADD MLOAD TIMESTAMP PUSH2 0x1343 SWAP2 SWAP1 PUSH2 0x25B1 JUMP JUMPDEST GT PUSH2 0x134D JUMPI PUSH1 0x0 DUP1 REVERT JUMPDEST DUP1 PUSH1 0x0 ADD MLOAD DUP2 PUSH1 0x20 ADD MLOAD DUP3 PUSH1 0x40 ADD MLOAD DUP4 PUSH1 0x60 ADD MLOAD DUP5 PUSH1 0x80 ADD MLOAD SWAP6 POP SWAP6 POP SWAP6 POP SWAP6 POP SWAP6 POP POP SWAP2 SWAP4 SWAP6 SWAP1 SWAP3 SWAP5 POP JUMP JUMPDEST PUSH1 0x9 DUP2 DUP2 SLOAD DUP2 LT PUSH2 0x138A JUMPI PUSH1 0x0 DUP1 REVERT JUMPDEST SWAP1 PUSH1 0x0 MSTORE PUSH1 0x20 PUSH1 0x0 KECCAK256 SWAP1 PUSH1 0x8 MUL ADD PUSH1 0x0 SWAP2 POP SWAP1 POP DUP1 PUSH1 0x0 ADD PUSH1 0x0 SWAP1 SLOAD SWAP1 PUSH2 0x100 EXP SWAP1 DIV PUSH20 0xFFFFFFFFFFFFFFFFFFFFFFFFFFFFFFFFFFFFFFFF AND SWAP1 DUP1 PUSH1 0x1 ADD SLOAD SWAP1 DUP1 PUSH1 0x2 ADD SLOAD SWAP1 DUP1 PUSH1 0x3 ADD DUP1 SLOAD PUSH2 0x13DF SWAP1 PUSH2 0x22A4 JUMP JUMPDEST DUP1 PUSH1 0x1F ADD PUSH1 0x20 DUP1 SWAP2 DIV MUL PUSH1 0x20 ADD PUSH1 0x40 MLOAD SWAP1 DUP2 ADD PUSH1 0x40 MSTORE DUP1 SWAP3 SWAP2 SWAP1 DUP2 DUP2 MSTORE PUSH1 0x20 ADD DUP3 DUP1 SLOAD PUSH2 0x140B SWAP1 PUSH2 0x22A4 JUMP JUMPDEST DUP1 ISZERO PUSH2 0x1458 JUMPI DUP1 PUSH1 0x1F LT PUSH2 0x142D JUMPI PUSH2 0x100 DUP1 DUP4 SLOAD DIV MUL DUP4 MSTORE SWAP2 PUSH1 0x20 ADD SWAP2 PUSH2 0x1458 JUMP JUMPDEST DUP3 ADD SWAP2 SWAP1 PUSH1 0x0 MSTORE PUSH1 0x20 PUSH1 0x0 KECCAK256 SWAP1 JUMPDEST DUP2 SLOAD DUP2 MSTORE SWAP1 PUSH1 0x1 ADD SWAP1 PUSH1 0x20 ADD DUP1 DUP4 GT PUSH2 0x143B JUMPI DUP3 SWAP1 SUB PUSH1 0x1F AND DUP3 ADD SWAP2 JUMPDEST POP POP POP POP POP SWAP1 DUP1 PUSH1 0x4 ADD PUSH1 0x0 SWAP1 SLOAD SWAP1 PUSH2 0x100 EXP SWAP1 DIV PUSH1 0xFF AND SWAP1 DUP1 PUSH1 0x4 ADD PUSH1 0x1 SWAP1 SLOAD SWAP1 PUSH2 0x100 EXP SWAP1 DIV PUSH1 0xFF AND SWAP1 DUP1 PUSH1 0x5 ADD SLOAD SWAP1 DUP1 PUSH1 0x6 ADD SLOAD SWAP1 DUP1 PUSH1 0x7 ADD SLOAD SWAP1 POP DUP10 JUMP JUMPDEST PUSH1 0x0 DUP1 PUSH1 0x9 DUP5 DUP2 SLOAD DUP2 LT PUSH2 0x14B1 JUMPI PUSH2 0x14B0 PUSH2 0x2553 JUMP JUMPDEST JUMPDEST SWAP1 PUSH1 0x0 MSTORE PUSH1 0x20 PUSH1 0x0 KECCAK256 SWAP1 PUSH1 0x8 MUL ADD PUSH1 0x40 MLOAD DUP1 PUSH2 0x120 ADD PUSH1 0x40 MSTORE SWAP1 DUP2 PUSH1 0x0 DUP3 ADD PUSH1 0x0 SWAP1 SLOAD SWAP1 PUSH2 0x100 EXP SWAP1 DIV PUSH20 0xFFFFFFFFFFFFFFFFFFFFFFFFFFFFFFFFFFFFFFFF AND PUSH20 0xFFFFFFFFFFFFFFFFFFFFFFFFFFFFFFFFFFFFFFFF AND PUSH20 0xFFFFFFFFFFFFFFFFFFFFFFFFFFFFFFFFFFFFFFFF AND DUP2 MSTORE PUSH1 0x20 ADD PUSH1 0x1 DUP3 ADD SLOAD DUP2 MSTORE PUSH1 0x20 ADD PUSH1 0x2 DUP3 ADD SLOAD DUP2 MSTORE PUSH1 0x20 ADD PUSH1 0x3 DUP3 ADD DUP1 SLOAD PUSH2 0x1545 SWAP1 PUSH2 0x22A4 JUMP JUMPDEST DUP1 PUSH1 0x1F ADD PUSH1 0x20 DUP1 SWAP2 DIV MUL PUSH1 0x20 ADD PUSH1 0x40 MLOAD SWAP1 DUP2 ADD PUSH1 0x40 MSTORE DUP1 SWAP3 SWAP2 SWAP1 DUP2 DUP2 MSTORE PUSH1 0x20 ADD DUP3 DUP1 SLOAD PUSH2 0x1571 SWAP1 PUSH2 0x22A4 JUMP JUMPDEST DUP1 ISZERO PUSH2 0x15BE JUMPI DUP1 PUSH1 0x1F LT PUSH2 0x1593 JUMPI PUSH2 0x100 DUP1 DUP4 SLOAD DIV MUL DUP4 MSTORE SWAP2 PUSH1 0x20 ADD SWAP2 PUSH2 0x15BE JUMP JUMPDEST DUP3 ADD SWAP2 SWAP1 PUSH1 0x0 MSTORE PUSH1 0x20 PUSH1 0x0 KECCAK256 SWAP1 JUMPDEST DUP2 SLOAD DUP2 MSTORE SWAP1 PUSH1 0x1 ADD SWAP1 PUSH1 0x20 ADD DUP1 DUP4 GT PUSH2 0x15A1 JUMPI DUP3 SWAP1 SUB PUSH1 0x1F AND DUP3 ADD SWAP2 JUMPDEST POP POP POP POP POP DUP2 MSTORE PUSH1 0x20 ADD PUSH1 0x4 DUP3 ADD PUSH1 0x0 SWAP1 SLOAD SWAP1 PUSH2 0x100 EXP SWAP1 DIV PUSH1 0xFF AND ISZERO ISZERO ISZERO ISZERO DUP2 MSTORE PUSH1 0x20 ADD PUSH1 0x4 DUP3 ADD PUSH1 0x1 SWAP1 SLOAD SWAP1 PUSH2 0x100 EXP SWAP1 DIV PUSH1 0xFF AND PUSH1 0x3 DUP2 GT ISZERO PUSH2 0x1607 JUMPI PUSH2 0x1606 PUSH2 0x1C8B JUMP JUMPDEST JUMPDEST PUSH1 0x3 DUP2 GT ISZERO PUSH2 0x1619 JUMPI PUSH2 0x1618 PUSH2 0x1C8B JUMP JUMPDEST JUMPDEST DUP2 MSTORE PUSH1 0x20 ADD PUSH1 0x5 DUP3 ADD SLOAD DUP2 MSTORE PUSH1 0x20 ADD PUSH1 0x6 DUP3 ADD SLOAD DUP2 MSTORE PUSH1 0x20 ADD PUSH1 0x7 DUP3 ADD SLOAD DUP2 MSTORE POP POP SWAP1 POP PUSH1 0x2 DUP2 PUSH1 0xC0 ADD MLOAD TIMESTAMP PUSH2 0x164F SWAP2 SWAP1 PUSH2 0x25B1 JUMP JUMPDEST GT PUSH2 0x1659 JUMPI PUSH1 0x0 DUP1 REVERT JUMPDEST PUSH1 0x4 SLOAD CALLVALUE GT PUSH2 0x1667 JUMPI PUSH1 0x0 DUP1 REVERT JUMPDEST CALLVALUE PUSH1 0x8 PUSH1 0x0 PUSH1 0x3 PUSH1 0x0 SWAP1 SLOAD SWAP1 PUSH2 0x100 EXP SWAP1 DIV PUSH20 0xFFFFFFFFFFFFFFFFFFFFFFFFFFFFFFFFFFFFFFFF AND PUSH20 0xFFFFFFFFFFFFFFFFFFFFFFFFFFFFFFFFFFFFFFFF AND PUSH20 0xFFFFFFFFFFFFFFFFFFFFFFFFFFFFFFFFFFFFFFFF AND DUP2 MSTORE PUSH1 0x20 ADD SWAP1 DUP2 MSTORE PUSH1 0x20 ADD PUSH1 0x0 KECCAK256 PUSH1 0x0 DUP3 DUP3 SLOAD PUSH2 0x16D8 SWAP2 SWAP1 PUSH2 0x25E5 JUMP JUMPDEST SWAP3 POP POP DUP2 SWAP1 SSTORE POP CALLER PUSH1 0x3 PUSH1 0x0 PUSH2 0x100 EXP DUP2 SLOAD DUP2 PUSH20 0xFFFFFFFFFFFFFFFFFFFFFFFFFFFFFFFFFFFFFFFF MUL NOT AND SWAP1 DUP4 PUSH20 0xFFFFFFFFFFFFFFFFFFFFFFFFFFFFFFFFFFFFFFFF AND MUL OR SWAP1 SSTORE POP CALLVALUE PUSH1 0x4 DUP2 SWAP1 SSTORE POP PUSH1 0x1 SWAP2 POP POP SWAP3 SWAP2 POP POP JUMP JUMPDEST PUSH1 0x7 PUSH1 0x20 MSTORE DUP2 PUSH1 0x0 MSTORE PUSH1 0x40 PUSH1 0x0 KECCAK256 PUSH1 0x20 MSTORE DUP1 PUSH1 0x0 MSTORE PUSH1 0x40 PUSH1 0x0 KECCAK256 PUSH1 0x0 SWAP2 POP SWAP2 POP SWAP1 SLOAD SWAP1 PUSH2 0x100 EXP SWAP1 DIV PUSH1 0xFF AND DUP2 JUMP JUMPDEST PUSH1 0x0 DUP2 SWAP1 POP SWAP2 SWAP1 POP JUMP JUMPDEST PUSH2 0x1774 DUP2 PUSH2 0x1761 JUMP JUMPDEST DUP3 MSTORE POP POP JUMP JUMPDEST PUSH1 0x0 PUSH1 0x40 DUP3 ADD SWAP1 POP PUSH2 0x178F PUSH1 0x0 DUP4 ADD DUP6 PUSH2 0x176B JUMP JUMPDEST PUSH2 0x179C PUSH1 0x20 DUP4 ADD DUP5 PUSH2 0x176B JUMP JUMPDEST SWAP4 SWAP3 POP POP POP JUMP JUMPDEST PUSH1 0x0 PUSH1 0x40 MLOAD SWAP1 POP SWAP1 JUMP JUMPDEST PUSH1 0x0 DUP1 REVERT JUMPDEST PUSH1 0x0 DUP1 REVERT JUMPDEST PUSH2 0x17C0 DUP2 PUSH2 0x1761 JUMP JUMPDEST DUP2 EQ PUSH2 0x17CB JUMPI PUSH1 0x0 DUP1 REVERT JUMPDEST POP JUMP JUMPDEST PUSH1 0x0 DUP2 CALLDATALOAD SWAP1 POP PUSH2 0x17DD DUP2 PUSH2 0x17B7 JUMP JUMPDEST SWAP3 SWAP2 POP POP JUMP JUMPDEST PUSH1 0x0 PUSH1 0x20 DUP3 DUP5 SUB SLT ISZERO PUSH2 0x17F9 JUMPI PUSH2 0x17F8 PUSH2 0x17AD JUMP JUMPDEST JUMPDEST PUSH1 0x0 PUSH2 0x1807 DUP5 DUP3 DUP6 ADD PUSH2 0x17CE JUMP JUMPDEST SWAP2 POP POP SWAP3 SWAP2 POP POP JUMP JUMPDEST PUSH1 0x0 PUSH20 0xFFFFFFFFFFFFFFFFFFFFFFFFFFFFFFFFFFFFFFFF DUP3 AND SWAP1 POP SWAP2 SWAP1 POP JUMP JUMPDEST PUSH1 0x0 PUSH2 0x183B DUP3 PUSH2 0x1810 JUMP JUMPDEST SWAP1 POP SWAP2 SWAP1 POP JUMP JUMPDEST PUSH2 0x184B DUP2 PUSH2 0x1830 JUMP JUMPDEST DUP3 MSTORE POP POP JUMP JUMPDEST PUSH1 0x0 PUSH1 0x20 DUP3 ADD SWAP1 POP PUSH2 0x1866 PUSH1 0x0 DUP4 ADD DUP5 PUSH2 0x1842 JUMP JUMPDEST SWAP3 SWAP2 POP POP JUMP JUMPDEST PUSH2 0x1875 DUP2 PUSH2 0x1830 JUMP JUMPDEST DUP2 EQ PUSH2 0x1880 JUMPI PUSH1 0x0 DUP1 REVERT JUMPDEST POP JUMP JUMPDEST PUSH1 0x0 DUP2 CALLDATALOAD SWAP1 POP PUSH2 0x1892 DUP2 PUSH2 0x186C JUMP JUMPDEST SWAP3 SWAP2 POP POP JUMP JUMPDEST PUSH1 0x0 DUP1 REVERT JUMPDEST PUSH1 0x0 DUP1 REVERT JUMPDEST PUSH1 0x0 DUP1 REVERT JUMPDEST PUSH1 0x0 DUP1 DUP4 PUSH1 0x1F DUP5 ADD SLT PUSH2 0x18BD JUMPI PUSH2 0x18BC PUSH2 0x1898 JUMP JUMPDEST JUMPDEST DUP3 CALLDATALOAD SWAP1 POP PUSH8 0xFFFFFFFFFFFFFFFF DUP2 GT ISZERO PUSH2 0x18DA JUMPI PUSH2 0x18D9 PUSH2 0x189D JUMP JUMPDEST JUMPDEST PUSH1 0x20 DUP4 ADD SWAP2 POP DUP4 PUSH1 0x1 DUP3 MUL DUP4 ADD GT ISZERO PUSH2 0x18F6 JUMPI PUSH2 0x18F5 PUSH2 0x18A2 JUMP JUMPDEST JUMPDEST SWAP3 POP SWAP3 SWAP1 POP JUMP JUMPDEST PUSH1 0x0 DUP2 ISZERO ISZERO SWAP1 POP SWAP2 SWAP1 POP JUMP JUMPDEST PUSH2 0x1912 DUP2 PUSH2 0x18FD JUMP JUMPDEST DUP2 EQ PUSH2 0x191D JUMPI PUSH1 0x0 DUP1 REVERT JUMPDEST POP JUMP JUMPDEST PUSH1 0x0 DUP2 CALLDATALOAD SWAP1 POP PUSH2 0x192F DUP2 PUSH2 0x1909 JUMP JUMPDEST SWAP3 SWAP2 POP POP JUMP JUMPDEST PUSH1 0x4 DUP2 LT PUSH2 0x1942 JUMPI PUSH1 0x0 DUP1 REVERT JUMPDEST POP JUMP JUMPDEST PUSH1 0x0 DUP2 CALLDATALOAD SWAP1 POP PUSH2 0x1954 DUP2 PUSH2 0x1935 JUMP JUMPDEST SWAP3 SWAP2 POP POP JUMP JUMPDEST PUSH1 0x0 DUP1 PUSH1 0x0 DUP1 PUSH1 0x0 DUP1 PUSH1 0x0 DUP1 PUSH1 0x0 DUP1 PUSH2 0x120 DUP12 DUP14 SUB SLT ISZERO PUSH2 0x197E JUMPI PUSH2 0x197D PUSH2 0x17AD JUMP JUMPDEST JUMPDEST PUSH1 0x0 PUSH2 0x198C DUP14 DUP3 DUP15 ADD PUSH2 0x1883 JUMP JUMPDEST SWAP11 POP POP PUSH1 0x20 PUSH2 0x199D DUP14 DUP3 DUP15 ADD PUSH2 0x17CE JUMP JUMPDEST SWAP10 POP POP PUSH1 0x40 PUSH2 0x19AE DUP14 DUP3 DUP15 ADD PUSH2 0x17CE JUMP JUMPDEST SWAP9 POP POP PUSH1 0x60 DUP12 ADD CALLDATALOAD PUSH8 0xFFFFFFFFFFFFFFFF DUP2 GT ISZERO PUSH2 0x19CF JUMPI PUSH2 0x19CE PUSH2 0x17B2 JUMP JUMPDEST JUMPDEST PUSH2 0x19DB DUP14 DUP3 DUP15 ADD PUSH2 0x18A7 JUMP JUMPDEST SWAP8 POP SWAP8 POP POP PUSH1 0x80 PUSH2 0x19EE DUP14 DUP3 DUP15 ADD PUSH2 0x1920 JUMP JUMPDEST SWAP6 POP POP PUSH1 0xA0 PUSH2 0x19FF DUP14 DUP3 DUP15 ADD PUSH2 0x1945 JUMP JUMPDEST SWAP5 POP POP PUSH1 0xC0 PUSH2 0x1A10 DUP14 DUP3 DUP15 ADD PUSH2 0x17CE JUMP JUMPDEST SWAP4 POP POP PUSH1 0xE0 PUSH2 0x1A21 DUP14 DUP3 DUP15 ADD PUSH2 0x17CE JUMP JUMPDEST SWAP3 POP POP PUSH2 0x100 PUSH2 0x1A33 DUP14 DUP3 DUP15 ADD PUSH2 0x17CE JUMP JUMPDEST SWAP2 POP POP SWAP3 SWAP6 SWAP9 SWAP12 SWAP2 SWAP5 SWAP8 SWAP11 POP SWAP3 SWAP6 SWAP9 POP JUMP JUMPDEST PUSH1 0x0 DUP1 PUSH1 0x0 DUP1 PUSH1 0x0 DUP1 PUSH1 0xA0 DUP8 DUP10 SUB SLT ISZERO PUSH2 0x1A62 JUMPI PUSH2 0x1A61 PUSH2 0x17AD JUMP JUMPDEST JUMPDEST PUSH1 0x0 PUSH2 0x1A70 DUP10 DUP3 DUP11 ADD PUSH2 0x1883 JUMP JUMPDEST SWAP7 POP POP PUSH1 0x20 DUP8 ADD CALLDATALOAD PUSH8 0xFFFFFFFFFFFFFFFF DUP2 GT ISZERO PUSH2 0x1A91 JUMPI PUSH2 0x1A90 PUSH2 0x17B2 JUMP JUMPDEST JUMPDEST PUSH2 0x1A9D DUP10 DUP3 DUP11 ADD PUSH2 0x18A7 JUMP JUMPDEST SWAP6 POP SWAP6 POP POP PUSH1 0x40 PUSH2 0x1AB0 DUP10 DUP3 DUP11 ADD PUSH2 0x17CE JUMP JUMPDEST SWAP4 POP POP PUSH1 0x60 PUSH2 0x1AC1 DUP10 DUP3 DUP11 ADD PUSH2 0x17CE JUMP JUMPDEST SWAP3 POP POP PUSH1 0x80 PUSH2 0x1AD2 DUP10 DUP3 DUP11 ADD PUSH2 0x17CE JUMP JUMPDEST SWAP2 POP POP SWAP3 SWAP6 POP SWAP3 SWAP6 POP SWAP3 SWAP6 JUMP JUMPDEST PUSH1 0x0 DUP2 MLOAD SWAP1 POP SWAP2 SWAP1 POP JUMP JUMPDEST PUSH1 0x0 DUP3 DUP3 MSTORE PUSH1 0x20 DUP3 ADD SWAP1 POP SWAP3 SWAP2 POP POP JUMP JUMPDEST PUSH1 0x0 JUMPDEST DUP4 DUP2 LT ISZERO PUSH2 0x1B19 JUMPI DUP1 DUP3 ADD MLOAD DUP2 DUP5 ADD MSTORE PUSH1 0x20 DUP2 ADD SWAP1 POP PUSH2 0x1AFE JUMP JUMPDEST PUSH1 0x0 DUP5 DUP5 ADD MSTORE POP POP POP POP JUMP JUMPDEST PUSH1 0x0 PUSH1 0x1F NOT PUSH1 0x1F DUP4 ADD AND SWAP1 POP SWAP2 SWAP1 POP JUMP JUMPDEST PUSH1 0x0 PUSH2 0x1B41 DUP3 PUSH2 0x1ADF JUMP JUMPDEST PUSH2 0x1B4B DUP2 DUP6 PUSH2 0x1AEA JUMP JUMPDEST SWAP4 POP PUSH2 0x1B5B DUP2 DUP6 PUSH1 0x20 DUP7 ADD PUSH2 0x1AFB JUMP JUMPDEST PUSH2 0x1B64 DUP2 PUSH2 0x1B25 JUMP JUMPDEST DUP5 ADD SWAP2 POP POP SWAP3 SWAP2 POP POP JUMP JUMPDEST PUSH1 0x0 PUSH1 0x20 DUP3 ADD SWAP1 POP DUP2 DUP2 SUB PUSH1 0x0 DUP4 ADD MSTORE PUSH2 0x1B89 DUP2 DUP5 PUSH2 0x1B36 JUMP JUMPDEST SWAP1 POP SWAP3 SWAP2 POP POP JUMP JUMPDEST PUSH1 0x0 PUSH1 0x20 DUP3 DUP5 SUB SLT ISZERO PUSH2 0x1BA7 JUMPI PUSH2 0x1BA6 PUSH2 0x17AD JUMP JUMPDEST JUMPDEST PUSH1 0x0 PUSH2 0x1BB5 DUP5 DUP3 DUP6 ADD PUSH2 0x1883 JUMP JUMPDEST SWAP2 POP POP SWAP3 SWAP2 POP POP JUMP JUMPDEST PUSH2 0x1BC7 DUP2 PUSH2 0x18FD JUMP JUMPDEST DUP3 MSTORE POP POP JUMP JUMPDEST PUSH1 0x0 PUSH1 0x20 DUP3 ADD SWAP1 POP PUSH2 0x1BE2 PUSH1 0x0 DUP4 ADD DUP5 PUSH2 0x1BBE JUMP JUMPDEST SWAP3 SWAP2 POP POP JUMP JUMPDEST PUSH1 0x0 DUP2 MLOAD SWAP1 POP SWAP2 SWAP1 POP JUMP JUMPDEST PUSH1 0x0 DUP3 DUP3 MSTORE PUSH1 0x20 DUP3 ADD SWAP1 POP SWAP3 SWAP2 POP POP JUMP JUMPDEST PUSH1 0x0 DUP2 SWAP1 POP PUSH1 0x20 DUP3 ADD SWAP1 POP SWAP2 SWAP1 POP JUMP JUMPDEST PUSH2 0x1C1D DUP2 PUSH2 0x1830 JUMP JUMPDEST DUP3 MSTORE POP POP JUMP JUMPDEST PUSH2 0x1C2C DUP2 PUSH2 0x1761 JUMP JUMPDEST DUP3 MSTORE POP POP JUMP JUMPDEST PUSH1 0x0 DUP3 DUP3 MSTORE PUSH1 0x20 DUP3 ADD SWAP1 POP SWAP3 SWAP2 POP POP JUMP JUMPDEST PUSH1 0x0 PUSH2 0x1C4E DUP3 PUSH2 0x1ADF JUMP JUMPDEST PUSH2 0x1C58 DUP2 DUP6 PUSH2 0x1C32 JUMP JUMPDEST SWAP4 POP PUSH2 0x1C68 DUP2 DUP6 PUSH1 0x20 DUP7 ADD PUSH2 0x1AFB JUMP JUMPDEST PUSH2 0x1C71 DUP2 PUSH2 0x1B25 JUMP JUMPDEST DUP5 ADD SWAP2 POP POP SWAP3 SWAP2 POP POP JUMP JUMPDEST PUSH2 0x1C85 DUP2 PUSH2 0x18FD JUMP JUMPDEST DUP3 MSTORE POP POP JUMP JUMPDEST PUSH32 0x4E487B7100000000000000000000000000000000000000000000000000000000 PUSH1 0x0 MSTORE PUSH1 0x21 PUSH1 0x4 MSTORE PUSH1 0x24 PUSH1 0x0 REVERT JUMPDEST PUSH1 0x4 DUP2 LT PUSH2 0x1CCB JUMPI PUSH2 0x1CCA PUSH2 0x1C8B JUMP JUMPDEST JUMPDEST POP JUMP JUMPDEST PUSH1 0x0 DUP2 SWAP1 POP PUSH2 0x1CDC DUP3 PUSH2 0x1CBA JUMP JUMPDEST SWAP2 SWAP1 POP JUMP JUMPDEST PUSH1 0x0 PUSH2 0x1CEC DUP3 PUSH2 0x1CCE JUMP JUMPDEST SWAP1 POP SWAP2 SWAP1 POP JUMP JUMPDEST PUSH2 0x1CFC DUP2 PUSH2 0x1CE1 JUMP JUMPDEST DUP3 MSTORE POP POP JUMP JUMPDEST PUSH1 0x0 PUSH2 0x120 DUP4 ADD PUSH1 0x0 DUP4 ADD MLOAD PUSH2 0x1D1B PUSH1 0x0 DUP7 ADD DUP3 PUSH2 0x1C14 JUMP JUMPDEST POP PUSH1 0x20 DUP4 ADD MLOAD PUSH2 0x1D2E PUSH1 0x20 DUP7 ADD DUP3 PUSH2 0x1C23 JUMP JUMPDEST POP PUSH1 0x40 DUP4 ADD MLOAD PUSH2 0x1D41 PUSH1 0x40 DUP7 ADD DUP3 PUSH2 0x1C23 JUMP JUMPDEST POP PUSH1 0x60 DUP4 ADD MLOAD DUP5 DUP3 SUB PUSH1 0x60 DUP7 ADD MSTORE PUSH2 0x1D59 DUP3 DUP3 PUSH2 0x1C43 JUMP JUMPDEST SWAP2 POP POP PUSH1 0x80 DUP4 ADD MLOAD PUSH2 0x1D6E PUSH1 0x80 DUP7 ADD DUP3 PUSH2 0x1C7C JUMP JUMPDEST POP PUSH1 0xA0 DUP4 ADD MLOAD PUSH2 0x1D81 PUSH1 0xA0 DUP7 ADD DUP3 PUSH2 0x1CF3 JUMP JUMPDEST POP PUSH1 0xC0 DUP4 ADD MLOAD PUSH2 0x1D94 PUSH1 0xC0 DUP7 ADD DUP3 PUSH2 0x1C23 JUMP JUMPDEST POP PUSH1 0xE0 DUP4 ADD MLOAD PUSH2 0x1DA7 PUSH1 0xE0 DUP7 ADD DUP3 PUSH2 0x1C23 JUMP JUMPDEST POP PUSH2 0x100 DUP4 ADD MLOAD PUSH2 0x1DBC PUSH2 0x100 DUP7 ADD DUP3 PUSH2 0x1C23 JUMP JUMPDEST POP DUP1 SWAP2 POP POP SWAP3 SWAP2 POP POP JUMP JUMPDEST PUSH1 0x0 PUSH2 0x1DD3 DUP4 DUP4 PUSH2 0x1D02 JUMP JUMPDEST SWAP1 POP SWAP3 SWAP2 POP POP JUMP JUMPDEST PUSH1 0x0 PUSH1 0x20 DUP3 ADD SWAP1 POP SWAP2 SWAP1 POP JUMP JUMPDEST PUSH1 0x0 PUSH2 0x1DF3 DUP3 PUSH2 0x1BE8 JUMP JUMPDEST PUSH2 0x1DFD DUP2 DUP6 PUSH2 0x1BF3 JUMP JUMPDEST SWAP4 POP DUP4 PUSH1 0x20 DUP3 MUL DUP6 ADD PUSH2 0x1E0F DUP6 PUSH2 0x1C04 JUMP JUMPDEST DUP1 PUSH1 0x0 JUMPDEST DUP6 DUP2 LT ISZERO PUSH2 0x1E4B JUMPI DUP5 DUP5 SUB DUP10 MSTORE DUP2 MLOAD PUSH2 0x1E2C DUP6 DUP3 PUSH2 0x1DC7 JUMP JUMPDEST SWAP5 POP PUSH2 0x1E37 DUP4 PUSH2 0x1DDB JUMP JUMPDEST SWAP3 POP PUSH1 0x20 DUP11 ADD SWAP10 POP POP PUSH1 0x1 DUP2 ADD SWAP1 POP PUSH2 0x1E13 JUMP JUMPDEST POP DUP3 SWAP8 POP DUP8 SWAP6 POP POP POP POP POP POP SWAP3 SWAP2 POP POP JUMP JUMPDEST PUSH1 0x0 PUSH1 0x20 DUP3 ADD SWAP1 POP DUP2 DUP2 SUB PUSH1 0x0 DUP4 ADD MSTORE PUSH2 0x1E77 DUP2 DUP5 PUSH2 0x1DE8 JUMP JUMPDEST SWAP1 POP SWAP3 SWAP2 POP POP JUMP JUMPDEST PUSH1 0x0 DUP1 PUSH1 0x40 DUP4 DUP6 SUB SLT ISZERO PUSH2 0x1E96 JUMPI PUSH2 0x1E95 PUSH2 0x17AD JUMP JUMPDEST JUMPDEST PUSH1 0x0 PUSH2 0x1EA4 DUP6 DUP3 DUP7 ADD PUSH2 0x17CE JUMP JUMPDEST SWAP3 POP POP PUSH1 0x20 PUSH2 0x1EB5 DUP6 DUP3 DUP7 ADD PUSH2 0x1883 JUMP JUMPDEST SWAP2 POP POP SWAP3 POP SWAP3 SWAP1 POP JUMP JUMPDEST PUSH1 0x0 PUSH1 0x20 DUP3 ADD SWAP1 POP PUSH2 0x1ED4 PUSH1 0x0 DUP4 ADD DUP5 PUSH2 0x176B JUMP JUMPDEST SWAP3 SWAP2 POP POP JUMP JUMPDEST PUSH1 0x0 DUP1 PUSH1 0x0 DUP1 PUSH1 0x0 PUSH1 0xA0 DUP7 DUP9 SUB SLT ISZERO PUSH2 0x1EF6 JUMPI PUSH2 0x1EF5 PUSH2 0x17AD JUMP JUMPDEST JUMPDEST PUSH1 0x0 PUSH2 0x1F04 DUP9 DUP3 DUP10 ADD PUSH2 0x1883 JUMP JUMPDEST SWAP6 POP POP PUSH1 0x20 PUSH2 0x1F15 DUP9 DUP3 DUP10 ADD PUSH2 0x1883 JUMP JUMPDEST SWAP5 POP POP PUSH1 0x40 PUSH2 0x1F26 DUP9 DUP3 DUP10 ADD PUSH2 0x17CE JUMP JUMPDEST SWAP4 POP POP PUSH1 0x60 PUSH2 0x1F37 DUP9 DUP3 DUP10 ADD PUSH2 0x17CE JUMP JUMPDEST SWAP3 POP POP PUSH1 0x80 PUSH2 0x1F48 DUP9 DUP3 DUP10 ADD PUSH2 0x17CE JUMP JUMPDEST SWAP2 POP POP SWAP3 SWAP6 POP SWAP3 SWAP6 SWAP1 SWAP4 POP JUMP JUMPDEST PUSH1 0x0 DUP1 REVERT JUMPDEST PUSH32 0x4E487B7100000000000000000000000000000000000000000000000000000000 PUSH1 0x0 MSTORE PUSH1 0x41 PUSH1 0x4 MSTORE PUSH1 0x24 PUSH1 0x0 REVERT JUMPDEST PUSH2 0x1F92 DUP3 PUSH2 0x1B25 JUMP JUMPDEST DUP2 ADD DUP2 DUP2 LT PUSH8 0xFFFFFFFFFFFFFFFF DUP3 GT OR ISZERO PUSH2 0x1FB1 JUMPI PUSH2 0x1FB0 PUSH2 0x1F5A JUMP JUMPDEST JUMPDEST DUP1 PUSH1 0x40 MSTORE POP POP POP JUMP JUMPDEST PUSH1 0x0 PUSH2 0x1FC4 PUSH2 0x17A3 JUMP JUMPDEST SWAP1 POP PUSH2 0x1FD0 DUP3 DUP3 PUSH2 0x1F89 JUMP JUMPDEST SWAP2 SWAP1 POP JUMP JUMPDEST PUSH1 0x0 PUSH8 0xFFFFFFFFFFFFFFFF DUP3 GT ISZERO PUSH2 0x1FF0 JUMPI PUSH2 0x1FEF PUSH2 0x1F5A JUMP JUMPDEST JUMPDEST PUSH2 0x1FF9 DUP3 PUSH2 0x1B25 JUMP JUMPDEST SWAP1 POP PUSH1 0x20 DUP2 ADD SWAP1 POP SWAP2 SWAP1 POP JUMP JUMPDEST DUP3 DUP2 DUP4 CALLDATACOPY PUSH1 0x0 DUP4 DUP4 ADD MSTORE POP POP POP JUMP JUMPDEST PUSH1 0x0 PUSH2 0x2028 PUSH2 0x2023 DUP5 PUSH2 0x1FD5 JUMP JUMPDEST PUSH2 0x1FBA JUMP JUMPDEST SWAP1 POP DUP3 DUP2 MSTORE PUSH1 0x20 DUP2 ADD DUP5 DUP5 DUP5 ADD GT ISZERO PUSH2 0x2044 JUMPI PUSH2 0x2043 PUSH2 0x1F55 JUMP JUMPDEST JUMPDEST PUSH2 0x204F DUP5 DUP3 DUP6 PUSH2 0x2006 JUMP JUMPDEST POP SWAP4 SWAP3 POP POP POP JUMP JUMPDEST PUSH1 0x0 DUP3 PUSH1 0x1F DUP4 ADD SLT PUSH2 0x206C JUMPI PUSH2 0x206B PUSH2 0x1898 JUMP JUMPDEST JUMPDEST DUP2 CALLDATALOAD PUSH2 0x207C DUP5 DUP3 PUSH1 0x20 DUP7 ADD PUSH2 0x2015 JUMP JUMPDEST SWAP2 POP POP SWAP3 SWAP2 POP POP JUMP JUMPDEST PUSH1 0x0 DUP1 PUSH1 0x0 DUP1 PUSH1 0x0 PUSH1 0xA0 DUP7 DUP9 SUB SLT ISZERO PUSH2 0x20A1 JUMPI PUSH2 0x20A0 PUSH2 0x17AD JUMP JUMPDEST JUMPDEST PUSH1 0x0 PUSH2 0x20AF DUP9 DUP3 DUP10 ADD PUSH2 0x1883 JUMP JUMPDEST SWAP6 POP POP PUSH1 0x20 PUSH2 0x20C0 DUP9 DUP3 DUP10 ADD PUSH2 0x17CE JUMP JUMPDEST SWAP5 POP POP PUSH1 0x40 DUP7 ADD CALLDATALOAD PUSH8 0xFFFFFFFFFFFFFFFF DUP2 GT ISZERO PUSH2 0x20E1 JUMPI PUSH2 0x20E0 PUSH2 0x17B2 JUMP JUMPDEST JUMPDEST PUSH2 0x20ED DUP9 DUP3 DUP10 ADD PUSH2 0x2057 JUMP JUMPDEST SWAP4 POP POP PUSH1 0x60 PUSH2 0x20FE DUP9 DUP3 DUP10 ADD PUSH2 0x17CE JUMP JUMPDEST SWAP3 POP POP PUSH1 0x80 PUSH2 0x210F DUP9 DUP3 DUP10 ADD PUSH2 0x17CE JUMP JUMPDEST SWAP2 POP POP SWAP3 SWAP6 POP SWAP3 SWAP6 SWAP1 SWAP4 POP JUMP JUMPDEST PUSH1 0x0 PUSH1 0xA0 DUP3 ADD SWAP1 POP PUSH2 0x2131 PUSH1 0x0 DUP4 ADD DUP9 PUSH2 0x1842 JUMP JUMPDEST PUSH2 0x213E PUSH1 0x20 DUP4 ADD DUP8 PUSH2 0x176B JUMP JUMPDEST PUSH2 0x214B PUSH1 0x40 DUP4 ADD DUP7 PUSH2 0x176B JUMP JUMPDEST DUP2 DUP2 SUB PUSH1 0x60 DUP4 ADD MSTORE PUSH2 0x215D DUP2 DUP6 PUSH2 0x1B36 JUMP JUMPDEST SWAP1 POP PUSH2 0x216C PUSH1 0x80 DUP4 ADD DUP5 PUSH2 0x1BBE JUMP JUMPDEST SWAP7 SWAP6 POP POP POP POP POP POP JUMP JUMPDEST PUSH2 0x217F DUP2 PUSH2 0x1CE1 JUMP JUMPDEST DUP3 MSTORE POP POP JUMP JUMPDEST PUSH1 0x0 PUSH2 0x120 DUP3 ADD SWAP1 POP PUSH2 0x219B PUSH1 0x0 DUP4 ADD DUP13 PUSH2 0x1842 JUMP JUMPDEST PUSH2 0x21A8 PUSH1 0x20 DUP4 ADD DUP12 PUSH2 0x176B JUMP JUMPDEST PUSH2 0x21B5 PUSH1 0x40 DUP4 ADD DUP11 PUSH2 0x176B JUMP JUMPDEST DUP2 DUP2 SUB PUSH1 0x60 DUP4 ADD MSTORE PUSH2 0x21C7 DUP2 DUP10 PUSH2 0x1B36 JUMP JUMPDEST SWAP1 POP PUSH2 0x21D6 PUSH1 0x80 DUP4 ADD DUP9 PUSH2 0x1BBE JUMP JUMPDEST PUSH2 0x21E3 PUSH1 0xA0 DUP4 ADD DUP8 PUSH2 0x2176 JUMP JUMPDEST PUSH2 0x21F0 PUSH1 0xC0 DUP4 ADD DUP7 PUSH2 0x176B JUMP JUMPDEST PUSH2 0x21FD PUSH1 0xE0 DUP4 ADD DUP6 PUSH2 0x176B JUMP JUMPDEST PUSH2 0x220B PUSH2 0x100 DUP4 ADD DUP5 PUSH2 0x176B JUMP JUMPDEST SWAP11 SWAP10 POP POP POP POP POP POP POP POP POP POP JUMP JUMPDEST PUSH1 0x0 DUP1 PUSH1 0x40 DUP4 DUP6 SUB SLT ISZERO PUSH2 0x2230 JUMPI PUSH2 0x222F PUSH2 0x17AD JUMP JUMPDEST JUMPDEST PUSH1 0x0 PUSH2 0x223E DUP6 DUP3 DUP7 ADD PUSH2 0x17CE JUMP JUMPDEST SWAP3 POP POP PUSH1 0x20 DUP4 ADD CALLDATALOAD PUSH8 0xFFFFFFFFFFFFFFFF DUP2 GT ISZERO PUSH2 0x225F JUMPI PUSH2 0x225E PUSH2 0x17B2 JUMP JUMPDEST JUMPDEST PUSH2 0x226B DUP6 DUP3 DUP7 ADD PUSH2 0x2057 JUMP JUMPDEST SWAP2 POP POP SWAP3 POP SWAP3 SWAP1 POP JUMP JUMPDEST PUSH32 0x4E487B7100000000000000000000000000000000000000000000000000000000 PUSH1 0x0 MSTORE PUSH1 0x22 PUSH1 0x4 MSTORE PUSH1 0x24 PUSH1 0x0 REVERT JUMPDEST PUSH1 0x0 PUSH1 0x2 DUP3 DIV SWAP1 POP PUSH1 0x1 DUP3 AND DUP1 PUSH2 0x22BC JUMPI PUSH1 0x7F DUP3 AND SWAP2 POP JUMPDEST PUSH1 0x20 DUP3 LT DUP2 SUB PUSH2 0x22CF JUMPI PUSH2 0x22CE PUSH2 0x2275 JUMP JUMPDEST JUMPDEST POP SWAP2 SWAP1 POP JUMP JUMPDEST PUSH1 0x0 DUP2 SWAP1 POP DUP2 PUSH1 0x0 MSTORE PUSH1 0x20 PUSH1 0x0 KECCAK256 SWAP1 POP SWAP2 SWAP1 POP JUMP JUMPDEST PUSH1 0x0 PUSH1 0x20 PUSH1 0x1F DUP4 ADD DIV SWAP1 POP SWAP2 SWAP1 POP JUMP JUMPDEST PUSH1 0x0 DUP3 DUP3 SHL SWAP1 POP SWAP3 SWAP2 POP POP JUMP JUMPDEST PUSH1 0x0 PUSH1 0x8 DUP4 MUL PUSH2 0x2337 PUSH32 0xFFFFFFFFFFFFFFFFFFFFFFFFFFFFFFFFFFFFFFFFFFFFFFFFFFFFFFFFFFFFFFFF DUP3 PUSH2 0x22FA JUMP JUMPDEST PUSH2 0x2341 DUP7 DUP4 PUSH2 0x22FA JUMP JUMPDEST SWAP6 POP DUP1 NOT DUP5 AND SWAP4 POP DUP1 DUP7 AND DUP5 OR SWAP3 POP POP POP SWAP4 SWAP3 POP POP POP JUMP JUMPDEST PUSH1 0x0 DUP2 SWAP1 POP SWAP2 SWAP1 POP JUMP JUMPDEST PUSH1 0x0 PUSH2 0x237E PUSH2 0x2379 PUSH2 0x2374 DUP5 PUSH2 0x1761 JUMP JUMPDEST PUSH2 0x2359 JUMP JUMPDEST PUSH2 0x1761 JUMP JUMPDEST SWAP1 POP SWAP2 SWAP1 POP JUMP JUMPDEST PUSH1 0x0 DUP2 SWAP1 POP SWAP2 SWAP1 POP JUMP JUMPDEST PUSH2 0x2398 DUP4 PUSH2 0x2363 JUMP JUMPDEST PUSH2 0x23AC PUSH2 0x23A4 DUP3 PUSH2 0x2385 JUMP JUMPDEST DUP5 DUP5 SLOAD PUSH2 0x2307 JUMP JUMPDEST DUP3 SSTORE POP POP POP POP JUMP JUMPDEST PUSH1 0x0 SWAP1 JUMP JUMPDEST PUSH2 0x23C1 PUSH2 0x23B4 JUMP JUMPDEST PUSH2 0x23CC DUP2 DUP5 DUP5 PUSH2 0x238F JUMP JUMPDEST POP POP POP JUMP JUMPDEST JUMPDEST DUP2 DUP2 LT ISZERO PUSH2 0x23F0 JUMPI PUSH2 0x23E5 PUSH1 0x0 DUP3 PUSH2 0x23B9 JUMP JUMPDEST PUSH1 0x1 DUP2 ADD SWAP1 POP PUSH2 0x23D2 JUMP JUMPDEST POP POP JUMP JUMPDEST PUSH1 0x1F DUP3 GT ISZERO PUSH2 0x2435 JUMPI PUSH2 0x2406 DUP2 PUSH2 0x22D5 JUMP JUMPDEST PUSH2 0x240F DUP5 PUSH2 0x22EA JUMP JUMPDEST DUP2 ADD PUSH1 0x20 DUP6 LT ISZERO PUSH2 0x241E JUMPI DUP2 SWAP1 POP JUMPDEST PUSH2 0x2432 PUSH2 0x242A DUP6 PUSH2 0x22EA JUMP JUMPDEST DUP4 ADD DUP3 PUSH2 0x23D1 JUMP JUMPDEST POP POP JUMPDEST POP POP POP JUMP JUMPDEST PUSH1 0x0 DUP3 DUP3 SHR SWAP1 POP SWAP3 SWAP2 POP POP JUMP JUMPDEST PUSH1 0x0 PUSH2 0x2458 PUSH1 0x0 NOT DUP5 PUSH1 0x8 MUL PUSH2 0x243A JUMP JUMPDEST NOT DUP1 DUP4 AND SWAP2 POP POP SWAP3 SWAP2 POP POP JUMP JUMPDEST PUSH1 0x0 PUSH2 0x2471 DUP4 DUP4 PUSH2 0x2447 JUMP JUMPDEST SWAP2 POP DUP3 PUSH1 0x2 MUL DUP3 OR SWAP1 POP SWAP3 SWAP2 POP POP JUMP JUMPDEST PUSH2 0x248A DUP3 PUSH2 0x1ADF JUMP JUMPDEST PUSH8 0xFFFFFFFFFFFFFFFF DUP2 GT ISZERO PUSH2 0x24A3 JUMPI PUSH2 0x24A2 PUSH2 0x1F5A JUMP JUMPDEST JUMPDEST PUSH2 0x24AD DUP3 SLOAD PUSH2 0x22A4 JUMP JUMPDEST PUSH2 0x24B8 DUP3 DUP3 DUP6 PUSH2 0x23F4 JUMP JUMPDEST PUSH1 0x0 PUSH1 0x20 SWAP1 POP PUSH1 0x1F DUP4 GT PUSH1 0x1 DUP2 EQ PUSH2 0x24EB JUMPI PUSH1 0x0 DUP5 ISZERO PUSH2 0x24D9 JUMPI DUP3 DUP8 ADD MLOAD SWAP1 POP JUMPDEST PUSH2 0x24E3 DUP6 DUP3 PUSH2 0x2465 JUMP JUMPDEST DUP7 SSTORE POP PUSH2 0x254B JUMP JUMPDEST PUSH1 0x1F NOT DUP5 AND PUSH2 0x24F9 DUP7 PUSH2 0x22D5 JUMP JUMPDEST PUSH1 0x0 JUMPDEST DUP3 DUP2 LT ISZERO PUSH2 0x2521 JUMPI DUP5 DUP10 ADD MLOAD DUP3 SSTORE PUSH1 0x1 DUP3 ADD SWAP2 POP PUSH1 0x20 DUP6 ADD SWAP5 POP PUSH1 0x20 DUP2 ADD SWAP1 POP PUSH2 0x24FC JUMP JUMPDEST DUP7 DUP4 LT ISZERO PUSH2 0x253E JUMPI DUP5 DUP10 ADD MLOAD PUSH2 0x253A PUSH1 0x1F DUP10 AND DUP3 PUSH2 0x2447 JUMP JUMPDEST DUP4 SSTORE POP JUMPDEST PUSH1 0x1 PUSH1 0x2 DUP9 MUL ADD DUP9 SSTORE POP POP POP JUMPDEST POP POP POP POP POP POP JUMP JUMPDEST PUSH32 0x4E487B7100000000000000000000000000000000000000000000000000000000 PUSH1 0x0 MSTORE PUSH1 0x32 PUSH1 0x4 MSTORE PUSH1 0x24 PUSH1 0x0 REVERT JUMPDEST PUSH32 0x4E487B7100000000000000000000000000000000000000000000000000000000 PUSH1 0x0 MSTORE PUSH1 0x11 PUSH1 0x4 MSTORE PUSH1 0x24 PUSH1 0x0 REVERT JUMPDEST PUSH1 0x0 PUSH2 0x25BC DUP3 PUSH2 0x1761 JUMP JUMPDEST SWAP2 POP PUSH2 0x25C7 DUP4 PUSH2 0x1761 JUMP JUMPDEST SWAP3 POP DUP3 DUP3 SUB SWAP1 POP DUP2 DUP2 GT ISZERO PUSH2 0x25DF JUMPI PUSH2 0x25DE PUSH2 0x2582 JUMP JUMPDEST JUMPDEST SWAP3 SWAP2 POP POP JUMP JUMPDEST PUSH1 0x0 PUSH2 0x25F0 DUP3 PUSH2 0x1761 JUMP JUMPDEST SWAP2 POP PUSH2 0x25FB DUP4 PUSH2 0x1761 JUMP JUMPDEST SWAP3 POP DUP3 DUP3 ADD SWAP1 POP DUP1 DUP3 GT ISZERO PUSH2 0x2613 JUMPI PUSH2 0x2612 PUSH2 0x2582 JUMP JUMPDEST JUMPDEST SWAP3 SWAP2 POP POP JUMP INVALID LOG2 PUSH5 0x6970667358 0x22 SLT KECCAK256 PUSH2 0x8836 SELFBALANCE 0x2D 0xC8 0xEA MULMOD PUSH11 0x844402B7D0996EED4970C3 SELFDESTRUCT 0xCA 0xD2 STATICCALL DUP15 SELFBALANCE 0xA7 SWAP10 0xE3 0xF7 PUSH14 0xED64736F6C634300081000330000 "
				},
				"gasEstimates": {
					"creation": {
						"codeDepositCost": "1961400",
						"executionCost": "infinite",
						"totalCost": "infinite"
					},
					"external": {
						"CustomerregistrationS(address,uint256,bytes,uint256,uint256)": "infinite",
						"Moneytransfer(address,address,uint256,uint256,uint256)": "infinite",
						"Operator(uint256,address)": "3175",
						"cashwithdrawals(uint256,bytes)": "infinite",
						"createtransation(address,uint256,uint256,bytes,bool,uint8,uint256,uint256,uint256)": "infinite",
						"getalltransactions()": "infinite",
						"gettransaction(uint256)": "infinite",
						"isconfirmed(uint256,address)": "3176",
						"isowner(address)": "2890",
						"lending(address,bytes,uint256,uint256,uint256)": "infinite",
						"mostSent()": "2452",
						"ncr()": "2474",
						"owners(uint256)": "4980",
						"richest()": "2560",
						"transactions(uint256)": "infinite"
					}
				},
				"methodIdentifiers": {
					"CustomerregistrationS(address,uint256,bytes,uint256,uint256)": "95564f98",
					"Moneytransfer(address,address,uint256,uint256,uint256)": "80f0660e",
					"Operator(uint256,address)": "ee3aba3b",
					"cashwithdrawals(uint256,bytes)": "da117076",
					"createtransation(address,uint256,uint256,bytes,bool,uint8,uint256,uint256,uint256)": "1b1e9baf",
					"getalltransactions()": "47767f60",
					"gettransaction(uint256)": "96431ac1",
					"isconfirmed(uint256,address)": "4c9c7af3",
					"isowner(address)": "45c9711f",
					"lending(address,bytes,uint256,uint256,uint256)": "29028396",
					"mostSent()": "6886bf1c",
					"ncr()": "738dbfa6",
					"owners(uint256)": "025e7c27",
					"richest()": "02e26c38",
					"transactions(uint256)": "9ace38c2"
				}
			},
			"storageLayout": {
				"storage": [
					{
						"astId": 46,
						"contract": "bank.sol:Bsystem",
						"label": "owners",
						"offset": 0,
						"slot": "0",
						"type": "t_array(t_address)dyn_storage"
					},
					{
						"astId": 50,
						"contract": "bank.sol:Bsystem",
						"label": "isowner",
						"offset": 0,
						"slot": "1",
						"type": "t_mapping(t_address,t_bool)"
					},
					{
						"astId": 52,
						"contract": "bank.sol:Bsystem",
						"label": "ncr",
						"offset": 0,
						"slot": "2",
						"type": "t_uint256"
					},
					{
						"astId": 54,
						"contract": "bank.sol:Bsystem",
						"label": "richest",
						"offset": 0,
						"slot": "3",
						"type": "t_address"
					},
					{
						"astId": 56,
						"contract": "bank.sol:Bsystem",
						"label": "mostSent",
						"offset": 0,
						"slot": "4",
						"type": "t_uint256"
					},
					{
						"astId": 65,
						"contract": "bank.sol:Bsystem",
						"label": "Transactions",
						"offset": 0,
						"slot": "5",
						"type": "t_array(t_struct(transaction)134_storage)dyn_storage"
					},
					{
						"astId": 140,
						"contract": "bank.sol:Bsystem",
						"label": "isconfirmed",
						"offset": 0,
						"slot": "6",
						"type": "t_mapping(t_uint256,t_mapping(t_address,t_bool))"
					},
					{
						"astId": 146,
						"contract": "bank.sol:Bsystem",
						"label": "Operator",
						"offset": 0,
						"slot": "7",
						"type": "t_mapping(t_uint256,t_mapping(t_address,t_bool))"
					},
					{
						"astId": 150,
						"contract": "bank.sol:Bsystem",
						"label": "pendingWithdraws",
						"offset": 0,
						"slot": "8",
						"type": "t_mapping(t_address,t_uint256)"
					},
					{
						"astId": 154,
						"contract": "bank.sol:Bsystem",
						"label": "transactions",
						"offset": 0,
						"slot": "9",
						"type": "t_array(t_struct(transaction)134_storage)dyn_storage"
					}
				],
				"types": {
					"t_address": {
						"encoding": "inplace",
						"label": "address",
						"numberOfBytes": "20"
					},
					"t_array(t_address)dyn_storage": {
						"base": "t_address",
						"encoding": "dynamic_array",
						"label": "address[]",
						"numberOfBytes": "32"
					},
					"t_array(t_struct(transaction)134_storage)dyn_storage": {
						"base": "t_struct(transaction)134_storage",
						"encoding": "dynamic_array",
						"label": "struct Bsystem.transaction[]",
						"numberOfBytes": "32"
					},
					"t_bool": {
						"encoding": "inplace",
						"label": "bool",
						"numberOfBytes": "1"
					},
					"t_bytes_storage": {
						"encoding": "bytes",
						"label": "bytes",
						"numberOfBytes": "32"
					},
					"t_enum(status)61": {
						"encoding": "inplace",
						"label": "enum Bsystem.status",
						"numberOfBytes": "1"
					},
					"t_mapping(t_address,t_bool)": {
						"encoding": "mapping",
						"key": "t_address",
						"label": "mapping(address => bool)",
						"numberOfBytes": "32",
						"value": "t_bool"
					},
					"t_mapping(t_address,t_uint256)": {
						"encoding": "mapping",
						"key": "t_address",
						"label": "mapping(address => uint256)",
						"numberOfBytes": "32",
						"value": "t_uint256"
					},
					"t_mapping(t_uint256,t_mapping(t_address,t_bool))": {
						"encoding": "mapping",
						"key": "t_uint256",
						"label": "mapping(uint256 => mapping(address => bool))",
						"numberOfBytes": "32",
						"value": "t_mapping(t_address,t_bool)"
					},
					"t_struct(transaction)134_storage": {
						"encoding": "inplace",
						"label": "struct Bsystem.transaction",
						"members": [
							{
								"astId": 116,
								"contract": "bank.sol:Bsystem",
								"label": "to",
								"offset": 0,
								"slot": "0",
								"type": "t_address"
							},
							{
								"astId": 118,
								"contract": "bank.sol:Bsystem",
								"label": "value",
								"offset": 0,
								"slot": "1",
								"type": "t_uint256"
							},
							{
								"astId": 120,
								"contract": "bank.sol:Bsystem",
								"label": "nc",
								"offset": 0,
								"slot": "2",
								"type": "t_uint256"
							},
							{
								"astId": 122,
								"contract": "bank.sol:Bsystem",
								"label": "data",
								"offset": 0,
								"slot": "3",
								"type": "t_bytes_storage"
							},
							{
								"astId": 124,
								"contract": "bank.sol:Bsystem",
								"label": "Executed",
								"offset": 0,
								"slot": "4",
								"type": "t_bool"
							},
							{
								"astId": 127,
								"contract": "bank.sol:Bsystem",
								"label": "st",
								"offset": 1,
								"slot": "4",
								"type": "t_enum(status)61"
							},
							{
								"astId": 129,
								"contract": "bank.sol:Bsystem",
								"label": "time",
								"offset": 0,
								"slot": "5",
								"type": "t_uint256"
							},
							{
								"astId": 131,
								"contract": "bank.sol:Bsystem",
								"label": "txIndex",
								"offset": 0,
								"slot": "6",
								"type": "t_uint256"
							},
							{
								"astId": 133,
								"contract": "bank.sol:Bsystem",
								"label": "Operator",
								"offset": 0,
								"slot": "7",
								"type": "t_uint256"
							}
						],
						"numberOfBytes": "256"
					},
					"t_uint256": {
						"encoding": "inplace",
						"label": "uint256",
						"numberOfBytes": "32"
					}
				}
			},
			"userdoc": {
				"kind": "user",
				"methods": {},
				"version": 1
			}
		}
	}
}