{
	"bank1.sol": {
		"bank2": {
			"abi": [
				{
					"inputs": [
						{
							"internalType": "address[]",
							"name": "_owners",
							"type": "address[]"
						},
						{
							"internalType": "uint256",
							"name": "_ncr",
							"type": "uint256"
						}
					],
					"stateMutability": "nonpayable",
					"type": "constructor"
				},
				{
					"inputs": [
						{
							"internalType": "address",
							"name": "spender",
							"type": "address"
						},
						{
							"internalType": "uint256",
							"name": "currentAllowance",
							"type": "uint256"
						},
						{
							"internalType": "uint256",
							"name": "requestedDecrease",
							"type": "uint256"
						}
					],
					"name": "ERC20FailedDecreaseAllowance",
					"type": "error"
				},
				{
					"inputs": [
						{
							"internalType": "address",
							"name": "spender",
							"type": "address"
						},
						{
							"internalType": "uint256",
							"name": "allowance",
							"type": "uint256"
						},
						{
							"internalType": "uint256",
							"name": "needed",
							"type": "uint256"
						}
					],
					"name": "ERC20InsufficientAllowance",
					"type": "error"
				},
				{
					"inputs": [
						{
							"internalType": "address",
							"name": "sender",
							"type": "address"
						},
						{
							"internalType": "uint256",
							"name": "balance",
							"type": "uint256"
						},
						{
							"internalType": "uint256",
							"name": "needed",
							"type": "uint256"
						}
					],
					"name": "ERC20InsufficientBalance",
					"type": "error"
				},
				{
					"inputs": [
						{
							"internalType": "address",
							"name": "approver",
							"type": "address"
						}
					],
					"name": "ERC20InvalidApprover",
					"type": "error"
				},
				{
					"inputs": [
						{
							"internalType": "address",
							"name": "receiver",
							"type": "address"
						}
					],
					"name": "ERC20InvalidReceiver",
					"type": "error"
				},
				{
					"inputs": [
						{
							"internalType": "address",
							"name": "sender",
							"type": "address"
						}
					],
					"name": "ERC20InvalidSender",
					"type": "error"
				},
				{
					"inputs": [
						{
							"internalType": "address",
							"name": "spender",
							"type": "address"
						}
					],
					"name": "ERC20InvalidSpender",
					"type": "error"
				},
				{
					"anonymous": false,
					"inputs": [
						{
							"indexed": true,
							"internalType": "address",
							"name": "owner",
							"type": "address"
						},
						{
							"indexed": true,
							"internalType": "address",
							"name": "spender",
							"type": "address"
						},
						{
							"indexed": false,
							"internalType": "uint256",
							"name": "value",
							"type": "uint256"
						}
					],
					"name": "Approval",
					"type": "event"
				},
				{
					"anonymous": false,
					"inputs": [
						{
							"indexed": true,
							"internalType": "address",
							"name": "sender",
							"type": "address"
						},
						{
							"indexed": true,
							"internalType": "address",
							"name": "operator",
							"type": "address"
						},
						{
							"indexed": true,
							"internalType": "uint256",
							"name": "txIndex",
							"type": "uint256"
						}
					],
					"name": "Customerregistration",
					"type": "event"
				},
				{
					"anonymous": false,
					"inputs": [
						{
							"indexed": true,
							"internalType": "address",
							"name": "sender",
							"type": "address"
						},
						{
							"indexed": true,
							"internalType": "uint256",
							"name": "txIndex",
							"type": "uint256"
						},
						{
							"indexed": false,
							"internalType": "uint256",
							"name": "amount",
							"type": "uint256"
						}
					],
					"name": "Lending",
					"type": "event"
				},
				{
					"anonymous": false,
					"inputs": [
						{
							"indexed": true,
							"internalType": "address",
							"name": "from",
							"type": "address"
						},
						{
							"indexed": true,
							"internalType": "address",
							"name": "to",
							"type": "address"
						},
						{
							"indexed": false,
							"internalType": "uint256",
							"name": "value",
							"type": "uint256"
						}
					],
					"name": "Transfer",
					"type": "event"
				},
				{
					"anonymous": false,
					"inputs": [
						{
							"indexed": true,
							"internalType": "address",
							"name": "sender",
							"type": "address"
						},
						{
							"indexed": false,
							"internalType": "uint256",
							"name": "amount",
							"type": "uint256"
						},
						{
							"indexed": false,
							"internalType": "uint256",
							"name": "balance",
							"type": "uint256"
						}
					],
					"name": "cashwithdrawal",
					"type": "event"
				},
				{
					"anonymous": false,
					"inputs": [
						{
							"indexed": true,
							"internalType": "address",
							"name": "sender",
							"type": "address"
						},
						{
							"indexed": false,
							"internalType": "uint256",
							"name": "amount",
							"type": "uint256"
						}
					],
					"name": "depvosit",
					"type": "event"
				},
				{
					"anonymous": false,
					"inputs": [
						{
							"indexed": true,
							"internalType": "address",
							"name": "sender",
							"type": "address"
						},
						{
							"indexed": true,
							"internalType": "address",
							"name": "received",
							"type": "address"
						},
						{
							"indexed": true,
							"internalType": "uint256",
							"name": "txIndex",
							"type": "uint256"
						},
						{
							"indexed": false,
							"internalType": "uint256",
							"name": "amount",
							"type": "uint256"
						}
					],
					"name": "moneytransfer",
					"type": "event"
				},
				{
					"inputs": [
						{
							"internalType": "address",
							"name": "",
							"type": "address"
						}
					],
					"name": "Awaitingpayment",
					"outputs": [
						{
							"internalType": "uint256",
							"name": "",
							"type": "uint256"
						}
					],
					"stateMutability": "view",
					"type": "function"
				},
				{
					"inputs": [],
					"name": "Balences",
					"outputs": [
						{
							"internalType": "uint256",
							"name": "",
							"type": "uint256"
						}
					],
					"stateMutability": "view",
					"type": "function"
				},
				{
					"inputs": [
						{
							"internalType": "uint256",
							"name": "amount",
							"type": "uint256"
						},
						{
							"internalType": "uint256",
							"name": "txIndex",
							"type": "uint256"
						}
					],
					"name": "Cashwithdrawal",
					"outputs": [
						{
							"internalType": "uint256",
							"name": "",
							"type": "uint256"
						}
					],
					"stateMutability": "payable",
					"type": "function"
				},
				{
					"inputs": [
						{
							"internalType": "address",
							"name": "_to",
							"type": "address"
						},
						{
							"internalType": "uint256",
							"name": "_value",
							"type": "uint256"
						},
						{
							"internalType": "bytes",
							"name": "_data",
							"type": "bytes"
						},
						{
							"internalType": "uint256",
							"name": "_nc",
							"type": "uint256"
						},
						{
							"internalType": "uint256",
							"name": "_Operator",
							"type": "uint256"
						},
						{
							"internalType": "uint256",
							"name": "txIndex",
							"type": "uint256"
						}
					],
					"name": "CustomerregistrationS",
					"outputs": [],
					"stateMutability": "payable",
					"type": "function"
				},
				{
					"inputs": [
						{
							"internalType": "uint256",
							"name": "_txIndex",
							"type": "uint256"
						}
					],
					"name": "Depvosit",
					"outputs": [
						{
							"internalType": "uint256",
							"name": "",
							"type": "uint256"
						}
					],
					"stateMutability": "payable",
					"type": "function"
				},
				{
					"inputs": [
						{
							"internalType": "address",
							"name": "sender",
							"type": "address"
						},
						{
							"internalType": "uint256",
							"name": "txindex",
							"type": "uint256"
						},
						{
							"internalType": "address",
							"name": "received",
							"type": "address"
						},
						{
							"internalType": "uint256",
							"name": "amount",
							"type": "uint256"
						}
					],
					"name": "Moneytransfer",
					"outputs": [
						{
							"internalType": "uint256",
							"name": "",
							"type": "uint256"
						}
					],
					"stateMutability": "payable",
					"type": "function"
				},
				{
					"inputs": [
						{
							"internalType": "uint256",
							"name": "",
							"type": "uint256"
						},
						{
							"internalType": "address",
							"name": "",
							"type": "address"
						}
					],
					"name": "Operator",
					"outputs": [
						{
							"internalType": "bool",
							"name": "",
							"type": "bool"
						}
					],
					"stateMutability": "view",
					"type": "function"
				},
				{
					"inputs": [
						{
							"internalType": "uint256",
							"name": "",
							"type": "uint256"
						}
					],
					"name": "Persons",
					"outputs": [
						{
							"internalType": "string",
							"name": "name",
							"type": "string"
						},
						{
							"internalType": "uint256",
							"name": "nn",
							"type": "uint256"
						},
						{
							"internalType": "uint256",
							"name": "Account",
							"type": "uint256"
						},
						{
							"internalType": "address",
							"name": "owner",
							"type": "address"
						},
						{
							"internalType": "uint256",
							"name": "amount",
							"type": "uint256"
						}
					],
					"stateMutability": "view",
					"type": "function"
				},
				{
					"inputs": [
						{
							"internalType": "address",
							"name": "owner",
							"type": "address"
						},
						{
							"internalType": "address",
							"name": "spender",
							"type": "address"
						}
					],
					"name": "allowance",
					"outputs": [
						{
							"internalType": "uint256",
							"name": "",
							"type": "uint256"
						}
					],
					"stateMutability": "view",
					"type": "function"
				},
				{
					"inputs": [
						{
							"internalType": "address",
							"name": "spender",
							"type": "address"
						},
						{
							"internalType": "uint256",
							"name": "amount",
							"type": "uint256"
						}
					],
					"name": "approve",
					"outputs": [
						{
							"internalType": "bool",
							"name": "",
							"type": "bool"
						}
					],
					"stateMutability": "nonpayable",
					"type": "function"
				},
				{
					"inputs": [
						{
							"internalType": "address",
							"name": "account",
							"type": "address"
						}
					],
					"name": "balanceOf",
					"outputs": [
						{
							"internalType": "uint256",
							"name": "",
							"type": "uint256"
						}
					],
					"stateMutability": "view",
					"type": "function"
				},
				{
					"inputs": [
						{
							"internalType": "address",
							"name": "_to",
							"type": "address"
						},
						{
							"internalType": "uint256",
							"name": "_value",
							"type": "uint256"
						},
						{
							"internalType": "bytes",
							"name": "_data",
							"type": "bytes"
						},
						{
							"internalType": "bool",
							"name": "_Executed",
							"type": "bool"
						},
						{
							"internalType": "uint256",
							"name": "_nc",
							"type": "uint256"
						},
						{
							"internalType": "uint256",
							"name": "_Operator",
							"type": "uint256"
						},
						{
							"internalType": "uint256",
							"name": "_txIndex",
							"type": "uint256"
						},
						{
							"internalType": "enum bank2.status",
							"name": "_st",
							"type": "uint8"
						},
						{
							"internalType": "uint256",
							"name": "_time",
							"type": "uint256"
						}
					],
					"name": "createtransation",
					"outputs": [],
					"stateMutability": "nonpayable",
					"type": "function"
				},
				{
					"inputs": [],
					"name": "decimals",
					"outputs": [
						{
							"internalType": "uint8",
							"name": "",
							"type": "uint8"
						}
					],
					"stateMutability": "view",
					"type": "function"
				},
				{
					"inputs": [
						{
							"internalType": "address",
							"name": "spender",
							"type": "address"
						},
						{
							"internalType": "uint256",
							"name": "requestedDecrease",
							"type": "uint256"
						}
					],
					"name": "decreaseAllowance",
					"outputs": [
						{
							"internalType": "bool",
							"name": "",
							"type": "bool"
						}
					],
					"stateMutability": "nonpayable",
					"type": "function"
				},
				{
					"inputs": [
						{
							"internalType": "uint256",
							"name": "_txIndex",
							"type": "uint256"
						}
					],
					"name": "getalltransactions",
					"outputs": [
						{
							"internalType": "address",
							"name": "",
							"type": "address"
						},
						{
							"internalType": "uint256",
							"name": "",
							"type": "uint256"
						},
						{
							"internalType": "bytes",
							"name": "",
							"type": "bytes"
						},
						{
							"internalType": "bool",
							"name": "",
							"type": "bool"
						},
						{
							"internalType": "uint256",
							"name": "",
							"type": "uint256"
						},
						{
							"internalType": "uint256",
							"name": "",
							"type": "uint256"
						}
					],
					"stateMutability": "view",
					"type": "function"
				},
				{
					"inputs": [],
					"name": "gettransaction",
					"outputs": [
						{
							"components": [
								{
									"internalType": "address",
									"name": "to",
									"type": "address"
								},
								{
									"internalType": "uint256",
									"name": "value",
									"type": "uint256"
								},
								{
									"internalType": "bytes",
									"name": "data",
									"type": "bytes"
								},
								{
									"internalType": "bool",
									"name": "Executed",
									"type": "bool"
								},
								{
									"internalType": "uint256",
									"name": "nc",
									"type": "uint256"
								},
								{
									"internalType": "uint256",
									"name": "Operator",
									"type": "uint256"
								},
								{
									"internalType": "uint256",
									"name": "txIndex",
									"type": "uint256"
								},
								{
									"internalType": "enum bank2.status",
									"name": "st",
									"type": "uint8"
								},
								{
									"internalType": "uint256",
									"name": "time",
									"type": "uint256"
								}
							],
							"internalType": "struct bank2.transaction[]",
							"name": "",
							"type": "tuple[]"
						}
					],
					"stateMutability": "view",
					"type": "function"
				},
				{
					"inputs": [
						{
							"internalType": "address",
							"name": "spender",
							"type": "address"
						},
						{
							"internalType": "uint256",
							"name": "addedValue",
							"type": "uint256"
						}
					],
					"name": "increaseAllowance",
					"outputs": [
						{
							"internalType": "bool",
							"name": "",
							"type": "bool"
						}
					],
					"stateMutability": "nonpayable",
					"type": "function"
				},
				{
					"inputs": [
						{
							"internalType": "uint256",
							"name": "",
							"type": "uint256"
						},
						{
							"internalType": "address",
							"name": "",
							"type": "address"
						}
					],
					"name": "isconfirmed",
					"outputs": [
						{
							"internalType": "bool",
							"name": "",
							"type": "bool"
						}
					],
					"stateMutability": "view",
					"type": "function"
				},
				{
					"inputs": [
						{
							"internalType": "address",
							"name": "",
							"type": "address"
						}
					],
					"name": "isowner",
					"outputs": [
						{
							"internalType": "bool",
							"name": "",
							"type": "bool"
						}
					],
					"stateMutability": "view",
					"type": "function"
				},
				{
					"inputs": [
						{
							"internalType": "uint256",
							"name": "amount",
							"type": "uint256"
						},
						{
							"internalType": "uint256",
							"name": "_txIndex",
							"type": "uint256"
						}
					],
					"name": "lending",
					"outputs": [
						{
							"internalType": "bool",
							"name": "",
							"type": "bool"
						}
					],
					"stateMutability": "payable",
					"type": "function"
				},
				{
					"inputs": [],
					"name": "name",
					"outputs": [
						{
							"internalType": "string",
							"name": "",
							"type": "string"
						}
					],
					"stateMutability": "view",
					"type": "function"
				},
				{
					"inputs": [],
					"name": "ncr",
					"outputs": [
						{
							"internalType": "uint256",
							"name": "",
							"type": "uint256"
						}
					],
					"stateMutability": "view",
					"type": "function"
				},
				{
					"inputs": [
						{
							"internalType": "uint256",
							"name": "",
							"type": "uint256"
						}
					],
					"name": "owners",
					"outputs": [
						{
							"internalType": "address",
							"name": "",
							"type": "address"
						}
					],
					"stateMutability": "view",
					"type": "function"
				},
				{
					"inputs": [],
					"name": "symbol",
					"outputs": [
						{
							"internalType": "string",
							"name": "",
							"type": "string"
						}
					],
					"stateMutability": "view",
					"type": "function"
				},
				{
					"inputs": [],
					"name": "totalSupply",
					"outputs": [
						{
							"internalType": "uint256",
							"name": "",
							"type": "uint256"
						}
					],
					"stateMutability": "view",
					"type": "function"
				},
				{
					"inputs": [
						{
							"internalType": "uint256",
							"name": "",
							"type": "uint256"
						}
					],
					"name": "transactions",
					"outputs": [
						{
							"internalType": "address",
							"name": "to",
							"type": "address"
						},
						{
							"internalType": "uint256",
							"name": "value",
							"type": "uint256"
						},
						{
							"internalType": "bytes",
							"name": "data",
							"type": "bytes"
						},
						{
							"internalType": "bool",
							"name": "Executed",
							"type": "bool"
						},
						{
							"internalType": "uint256",
							"name": "nc",
							"type": "uint256"
						},
						{
							"internalType": "uint256",
							"name": "Operator",
							"type": "uint256"
						},
						{
							"internalType": "uint256",
							"name": "txIndex",
							"type": "uint256"
						},
						{
							"internalType": "enum bank2.status",
							"name": "st",
							"type": "uint8"
						},
						{
							"internalType": "uint256",
							"name": "time",
							"type": "uint256"
						}
					],
					"stateMutability": "view",
					"type": "function"
				},
				{
					"inputs": [
						{
							"internalType": "address",
							"name": "to",
							"type": "address"
						},
						{
							"internalType": "uint256",
							"name": "amount",
							"type": "uint256"
						}
					],
					"name": "transfer",
					"outputs": [
						{
							"internalType": "bool",
							"name": "",
							"type": "bool"
						}
					],
					"stateMutability": "nonpayable",
					"type": "function"
				},
				{
					"inputs": [
						{
							"internalType": "address",
							"name": "from",
							"type": "address"
						},
						{
							"internalType": "address",
							"name": "to",
							"type": "address"
						},
						{
							"internalType": "uint256",
							"name": "amount",
							"type": "uint256"
						}
					],
					"name": "transferFrom",
					"outputs": [
						{
							"internalType": "bool",
							"name": "",
							"type": "bool"
						}
					],
					"stateMutability": "nonpayable",
					"type": "function"
				},
				{
					"stateMutability": "payable",
					"type": "receive"
				}
			],
			"devdoc": {
				"errors": {
					"ERC20FailedDecreaseAllowance(address,uint256,uint256)": [
						{
							"details": "Indicates a failed `decreaseAllowance` request."
						}
					],
					"ERC20InsufficientAllowance(address,uint256,uint256)": [
						{
							"details": "Indicates a failure with the `spender`’s `allowance`. Used in transfers.",
							"params": {
								"allowance": "Amount of tokens a `spender` is allowed to operate with.",
								"needed": "Minimum amount required to perform a transfer.",
								"spender": "Address that may be allowed to operate on tokens without being their owner."
							}
						}
					],
					"ERC20InsufficientBalance(address,uint256,uint256)": [
						{
							"details": "Indicates an error related to the current `balance` of a `sender`. Used in transfers.",
							"params": {
								"balance": "Current balance for the interacting account.",
								"needed": "Minimum amount required to perform a transfer.",
								"sender": "Address whose tokens are being transferred."
							}
						}
					],
					"ERC20InvalidApprover(address)": [
						{
							"details": "Indicates a failure with the `approver` of a token to be approved. Used in approvals.",
							"params": {
								"approver": "Address initiating an approval operation."
							}
						}
					],
					"ERC20InvalidReceiver(address)": [
						{
							"details": "Indicates a failure with the token `receiver`. Used in transfers.",
							"params": {
								"receiver": "Address to which tokens are being transferred."
							}
						}
					],
					"ERC20InvalidSender(address)": [
						{
							"details": "Indicates a failure with the token `sender`. Used in transfers.",
							"params": {
								"sender": "Address whose tokens are being transferred."
							}
						}
					],
					"ERC20InvalidSpender(address)": [
						{
							"details": "Indicates a failure with the `spender` to be approved. Used in approvals.",
							"params": {
								"spender": "Address that may be allowed to operate on tokens without being their owner."
							}
						}
					]
				},
				"events": {
					"Approval(address,address,uint256)": {
						"details": "Emitted when the allowance of a `spender` for an `owner` is set by a call to {approve}. `value` is the new allowance."
					},
					"Transfer(address,address,uint256)": {
						"details": "Emitted when `value` tokens are moved from one account (`from`) to another (`to`). Note that `value` may be zero."
					}
				},
				"kind": "dev",
				"methods": {
					"allowance(address,address)": {
						"details": "See {IERC20-allowance}."
					},
					"approve(address,uint256)": {
						"details": "See {IERC20-approve}. NOTE: If `amount` is the maximum `uint256`, the allowance is not updated on `transferFrom`. This is semantically equivalent to an infinite approval. Requirements: - `spender` cannot be the zero address."
					},
					"balanceOf(address)": {
						"details": "See {IERC20-balanceOf}."
					},
					"decimals()": {
						"details": "Returns the number of decimals used to get its user representation. For example, if `decimals` equals `2`, a balance of `505` tokens should be displayed to a user as `5.05` (`505 / 10 ** 2`). Tokens usually opt for a value of 18, imitating the relationship between Ether and Wei. This is the default value returned by this function, unless it's overridden. NOTE: This information is only used for _display_ purposes: it in no way affects any of the arithmetic of the contract, including {IERC20-balanceOf} and {IERC20-transfer}."
					},
					"decreaseAllowance(address,uint256)": {
						"details": "Atomically decreases the allowance granted to `spender` by the caller. This is an alternative to {approve} that can be used as a mitigation for problems described in {IERC20-approve}. Emits an {Approval} event indicating the updated allowance. Requirements: - `spender` cannot be the zero address. - `spender` must have allowance for the caller of at least `requestedDecrease`."
					},
					"increaseAllowance(address,uint256)": {
						"details": "Atomically increases the allowance granted to `spender` by the caller. This is an alternative to {approve} that can be used as a mitigation for problems described in {IERC20-approve}. Emits an {Approval} event indicating the updated allowance. Requirements: - `spender` cannot be the zero address."
					},
					"name()": {
						"details": "Returns the name of the token."
					},
					"symbol()": {
						"details": "Returns the symbol of the token, usually a shorter version of the name."
					},
					"totalSupply()": {
						"details": "See {IERC20-totalSupply}."
					},
					"transfer(address,uint256)": {
						"details": "See {IERC20-transfer}. Requirements: - `to` cannot be the zero address. - the caller must have a balance of at least `amount`."
					},
					"transferFrom(address,address,uint256)": {
						"details": "See {IERC20-transferFrom}. Emits an {Approval} event indicating the updated allowance. This is not required by the EIP. See the note at the beginning of {ERC20}. NOTE: Does not update the allowance if the current allowance is the maximum `uint256`. Requirements: - `from` and `to` cannot be the zero address. - `from` must have a balance of at least `amount`. - the caller must have allowance for ``from``'s tokens of at least `amount`."
					}
				},
				"version": 1
			},
			"evm": {
				"assembly": "    /* \"bank1.sol\":169:6047  contract bank2 is ERC20{... */\n  mstore(0x40, 0x80)\n    /* \"bank1.sol\":1978:2318  constructor(address[]memory _owners , uint _ncr ) ERC20 (\"name\" ,\"symbol\"){... */\n  callvalue\n  dup1\n  iszero\n  tag_1\n  jumpi\n  0x00\n  dup1\n  revert\ntag_1:\n  pop\n  mload(0x40)\n  sub(codesize, bytecodeSize)\n  dup1\n  bytecodeSize\n  dup4\n  codecopy\n  dup2\n  dup2\n  add\n  0x40\n  mstore\n  dup2\n  add\n  swap1\n  tag_2\n  swap2\n  swap1\n  tag_3\n  jump\t// in\ntag_2:\n    /* \"https://github.com/OpenZeppelin/openzeppelin-contracts/blob/master/contracts/token/ERC20/ERC20.sol\":2179:2292  constructor(string memory name_, string memory symbol_) {... */\n  mload(0x40)\n  dup1\n  0x40\n  add\n  0x40\n  mstore\n  dup1\n  0x04\n  dup2\n  mstore\n  0x20\n  add\n  0x6e616d6500000000000000000000000000000000000000000000000000000000\n  dup2\n  mstore\n  pop\n  mload(0x40)\n  dup1\n  0x40\n  add\n  0x40\n  mstore\n  dup1\n  0x06\n  dup2\n  mstore\n  0x20\n  add\n  0x73796d626f6c0000000000000000000000000000000000000000000000000000\n  dup2\n  mstore\n  pop\n    /* \"https://github.com/OpenZeppelin/openzeppelin-contracts/blob/master/contracts/token/ERC20/ERC20.sol\":2253:2258  name_ */\n  dup2\n    /* \"https://github.com/OpenZeppelin/openzeppelin-contracts/blob/master/contracts/token/ERC20/ERC20.sol\":2245:2250  _name */\n  0x03\n    /* \"https://github.com/OpenZeppelin/openzeppelin-contracts/blob/master/contracts/token/ERC20/ERC20.sol\":2245:2258  _name = name_ */\n  swap1\n  dup2\n  tag_7\n  swap2\n  swap1\n  tag_8\n  jump\t// in\ntag_7:\n  pop\n    /* \"https://github.com/OpenZeppelin/openzeppelin-contracts/blob/master/contracts/token/ERC20/ERC20.sol\":2278:2285  symbol_ */\n  dup1\n    /* \"https://github.com/OpenZeppelin/openzeppelin-contracts/blob/master/contracts/token/ERC20/ERC20.sol\":2268:2275  _symbol */\n  0x04\n    /* \"https://github.com/OpenZeppelin/openzeppelin-contracts/blob/master/contracts/token/ERC20/ERC20.sol\":2268:2285  _symbol = symbol_ */\n  swap1\n  dup2\n  tag_9\n  swap2\n  swap1\n  tag_8\n  jump\t// in\ntag_9:\n  pop\n    /* \"https://github.com/OpenZeppelin/openzeppelin-contracts/blob/master/contracts/token/ERC20/ERC20.sol\":2179:2292  constructor(string memory name_, string memory symbol_) {... */\n  pop\n  pop\n    /* \"bank1.sol\":2084:2085  0 */\n  0x00\n    /* \"bank1.sol\":2067:2074  _owners */\n  dup3\n    /* \"bank1.sol\":2067:2081  _owners.length */\n  mload\n    /* \"bank1.sol\":2067:2085  _owners.length > 0 */\n  gt\n    /* \"bank1.sol\":2059:2086  require(_owners.length > 0) */\n  tag_11\n  jumpi\n  0x00\n  dup1\n  revert\ntag_11:\n    /* \"bank1.sol\":2110:2117  _owners */\n  dup2\n    /* \"bank1.sol\":2110:2124  _owners.length */\n  mload\n    /* \"bank1.sol\":2102:2106  _ncr */\n  dup2\n    /* \"bank1.sol\":2102:2124  _ncr <= _owners.length */\n  gt\n  iszero\n    /* \"bank1.sol\":2102:2136  _ncr <= _owners.length && _ncr > 0 */\n  dup1\n  iszero\n  tag_12\n  jumpi\n  pop\n    /* \"bank1.sol\":2135:2136  0 */\n  0x00\n    /* \"bank1.sol\":2128:2132  _ncr */\n  dup2\n    /* \"bank1.sol\":2128:2136  _ncr > 0 */\n  gt\n    /* \"bank1.sol\":2102:2136  _ncr <= _owners.length && _ncr > 0 */\ntag_12:\n    /* \"bank1.sol\":2093:2137  require (_ncr <= _owners.length && _ncr > 0) */\n  tag_13\n  jumpi\n  0x00\n  dup1\n  revert\ntag_13:\n    /* \"bank1.sol\":2144:2165  owners = [msg.sender] */\n  mload(0x40)\n  dup1\n  0x20\n  add\n  0x40\n  mstore\n  dup1\n    /* \"bank1.sol\":2154:2164  msg.sender */\n  caller\n    /* \"bank1.sol\":2144:2165  owners = [msg.sender] */\n  0xffffffffffffffffffffffffffffffffffffffff\n  and\n  0xffffffffffffffffffffffffffffffffffffffff\n  and\n  dup2\n  mstore\n  pop\n    /* \"bank1.sol\":2144:2150  owners */\n  0x0a\n    /* \"bank1.sol\":2144:2165  owners = [msg.sender] */\n  swap1\n  0x01\n  tag_14\n  swap3\n  swap2\n  swap1\n  tag_15\n  jump\t// in\ntag_14:\n  pop\n    /* \"bank1.sol\":2176:2182  uint i */\n  0x00\n    /* \"bank1.sol\":2172:2292  for(uint i = 0 ; i < _owners.length ; i++){... */\ntag_16:\n    /* \"bank1.sol\":2193:2200  _owners */\n  dup3\n    /* \"bank1.sol\":2193:2207  _owners.length */\n  mload\n    /* \"bank1.sol\":2189:2190  i */\n  dup2\n    /* \"bank1.sol\":2189:2207  i < _owners.length */\n  lt\n    /* \"bank1.sol\":2172:2292  for(uint i = 0 ; i < _owners.length ; i++){... */\n  iszero\n  tag_17\n  jumpi\n    /* \"bank1.sol\":2230:2237  isowner */\n  0x05\n    /* \"bank1.sol\":2230:2249  isowner[_owners[i]] */\n  0x00\n    /* \"bank1.sol\":2238:2245  _owners */\n  dup5\n    /* \"bank1.sol\":2246:2247  i */\n  dup4\n    /* \"bank1.sol\":2238:2248  _owners[i] */\n  dup2\n  mload\n  dup2\n  lt\n  tag_19\n  jumpi\n  tag_20\n  tag_21\n  jump\t// in\ntag_20:\ntag_19:\n  0x20\n  mul\n  0x20\n  add\n  add\n  mload\n    /* \"bank1.sol\":2230:2249  isowner[_owners[i]] */\n  0xffffffffffffffffffffffffffffffffffffffff\n  and\n  0xffffffffffffffffffffffffffffffffffffffff\n  and\n  dup2\n  mstore\n  0x20\n  add\n  swap1\n  dup2\n  mstore\n  0x20\n  add\n  0x00\n  keccak256\n  0x00\n  swap1\n  sload\n  swap1\n  0x0100\n  exp\n  swap1\n  div\n  0xff\n  and\n    /* \"bank1.sol\":2229:2249  !isowner[_owners[i]] */\n  iszero\n    /* \"bank1.sol\":2221:2250  require(!isowner[_owners[i]]) */\n  tag_22\n  jumpi\n  0x00\n  dup1\n  revert\ntag_22:\n    /* \"bank1.sol\":2279:2283  true */\n  0x01\n    /* \"bank1.sol\":2257:2264  isowner */\n  0x05\n    /* \"bank1.sol\":2257:2276  isowner[_owners[i]] */\n  0x00\n    /* \"bank1.sol\":2265:2272  _owners */\n  dup6\n    /* \"bank1.sol\":2273:2274  i */\n  dup5\n    /* \"bank1.sol\":2265:2275  _owners[i] */\n  dup2\n  mload\n  dup2\n  lt\n  tag_23\n  jumpi\n  tag_24\n  tag_21\n  jump\t// in\ntag_24:\ntag_23:\n  0x20\n  mul\n  0x20\n  add\n  add\n  mload\n    /* \"bank1.sol\":2257:2276  isowner[_owners[i]] */\n  0xffffffffffffffffffffffffffffffffffffffff\n  and\n  0xffffffffffffffffffffffffffffffffffffffff\n  and\n  dup2\n  mstore\n  0x20\n  add\n  swap1\n  dup2\n  mstore\n  0x20\n  add\n  0x00\n  keccak256\n  0x00\n    /* \"bank1.sol\":2257:2283  isowner[_owners[i]] = true */\n  0x0100\n  exp\n  dup2\n  sload\n  dup2\n  0xff\n  mul\n  not\n  and\n  swap1\n  dup4\n  iszero\n  iszero\n  mul\n  or\n  swap1\n  sstore\n  pop\n    /* \"bank1.sol\":2210:2213  i++ */\n  dup1\n  dup1\n  tag_25\n  swap1\n  tag_26\n  jump\t// in\ntag_25:\n  swap2\n  pop\n  pop\n    /* \"bank1.sol\":2172:2292  for(uint i = 0 ; i < _owners.length ; i++){... */\n  jump(tag_16)\ntag_17:\n  pop\n    /* \"bank1.sol\":2304:2308  _ncr */\n  dup1\n    /* \"bank1.sol\":2298:2301  ncr */\n  0x0d\n    /* \"bank1.sol\":2298:2308  ncr = _ncr */\n  dup2\n  swap1\n  sstore\n  pop\n    /* \"bank1.sol\":1978:2318  constructor(address[]memory _owners , uint _ncr ) ERC20 (\"name\" ,\"symbol\"){... */\n  pop\n  pop\n    /* \"bank1.sol\":169:6047  contract bank2 is ERC20{... */\n  jump(tag_27)\ntag_15:\n  dup3\n  dup1\n  sload\n  dup3\n  dup3\n  sstore\n  swap1\n  0x00\n  mstore\n  keccak256(0x00, 0x20)\n  swap1\n  dup2\n  add\n  swap3\n  dup3\n  iszero\n  tag_28\n  jumpi\n  swap2\n  0x20\n  mul\n  dup3\n  add\ntag_29:\n  dup3\n  dup2\n  gt\n  iszero\n  tag_30\n  jumpi\n  dup3\n  mload\n  dup3\n  exp(0x0100, 0x00)\n  dup2\n  sload\n  dup2\n  0xffffffffffffffffffffffffffffffffffffffff\n  mul\n  not\n  and\n  swap1\n  dup4\n  0xffffffffffffffffffffffffffffffffffffffff\n  and\n  mul\n  or\n  swap1\n  sstore\n  pop\n  swap2\n  0x20\n  add\n  swap2\n  swap1\n  0x01\n  add\n  swap1\n  jump(tag_29)\ntag_30:\ntag_28:\n  pop\n  swap1\n  pop\n  tag_31\n  swap2\n  swap1\n  tag_32\n  jump\t// in\ntag_31:\n  pop\n  swap1\n  jump\t// out\ntag_32:\ntag_33:\n  dup1\n  dup3\n  gt\n  iszero\n  tag_34\n  jumpi\n  0x00\n  dup2\n  0x00\n  swap1\n  sstore\n  pop\n  0x01\n  add\n  jump(tag_33)\ntag_34:\n  pop\n  swap1\n  jump\t// out\n    /* \"#utility.yul\":7:82   */\ntag_35:\n    /* \"#utility.yul\":40:46   */\n  0x00\n    /* \"#utility.yul\":73:75   */\n  0x40\n    /* \"#utility.yul\":67:76   */\n  mload\n    /* \"#utility.yul\":57:76   */\n  swap1\n  pop\n    /* \"#utility.yul\":7:82   */\n  swap1\n  jump\t// out\n    /* \"#utility.yul\":88:205   */\ntag_36:\n    /* \"#utility.yul\":197:198   */\n  0x00\n    /* \"#utility.yul\":194:195   */\n  dup1\n    /* \"#utility.yul\":187:199   */\n  revert\n    /* \"#utility.yul\":211:328   */\ntag_37:\n    /* \"#utility.yul\":320:321   */\n  0x00\n    /* \"#utility.yul\":317:318   */\n  dup1\n    /* \"#utility.yul\":310:322   */\n  revert\n    /* \"#utility.yul\":334:451   */\ntag_38:\n    /* \"#utility.yul\":443:444   */\n  0x00\n    /* \"#utility.yul\":440:441   */\n  dup1\n    /* \"#utility.yul\":433:445   */\n  revert\n    /* \"#utility.yul\":457:559   */\ntag_39:\n    /* \"#utility.yul\":498:504   */\n  0x00\n    /* \"#utility.yul\":549:551   */\n  0x1f\n    /* \"#utility.yul\":545:552   */\n  not\n    /* \"#utility.yul\":540:542   */\n  0x1f\n    /* \"#utility.yul\":533:538   */\n  dup4\n    /* \"#utility.yul\":529:543   */\n  add\n    /* \"#utility.yul\":525:553   */\n  and\n    /* \"#utility.yul\":515:553   */\n  swap1\n  pop\n    /* \"#utility.yul\":457:559   */\n  swap2\n  swap1\n  pop\n  jump\t// out\n    /* \"#utility.yul\":565:745   */\ntag_40:\n    /* \"#utility.yul\":613:690   */\n  0x4e487b7100000000000000000000000000000000000000000000000000000000\n    /* \"#utility.yul\":610:611   */\n  0x00\n    /* \"#utility.yul\":603:691   */\n  mstore\n    /* \"#utility.yul\":710:714   */\n  0x41\n    /* \"#utility.yul\":707:708   */\n  0x04\n    /* \"#utility.yul\":700:715   */\n  mstore\n    /* \"#utility.yul\":734:738   */\n  0x24\n    /* \"#utility.yul\":731:732   */\n  0x00\n    /* \"#utility.yul\":724:739   */\n  revert\n    /* \"#utility.yul\":751:1032   */\ntag_41:\n    /* \"#utility.yul\":834:861   */\n  tag_81\n    /* \"#utility.yul\":856:860   */\n  dup3\n    /* \"#utility.yul\":834:861   */\n  tag_39\n  jump\t// in\ntag_81:\n    /* \"#utility.yul\":826:832   */\n  dup2\n    /* \"#utility.yul\":822:862   */\n  add\n    /* \"#utility.yul\":964:970   */\n  dup2\n    /* \"#utility.yul\":952:962   */\n  dup2\n    /* \"#utility.yul\":949:971   */\n  lt\n    /* \"#utility.yul\":928:946   */\n  0xffffffffffffffff\n    /* \"#utility.yul\":916:926   */\n  dup3\n    /* \"#utility.yul\":913:947   */\n  gt\n    /* \"#utility.yul\":910:972   */\n  or\n    /* \"#utility.yul\":907:995   */\n  iszero\n  tag_82\n  jumpi\n    /* \"#utility.yul\":975:993   */\n  tag_83\n  tag_40\n  jump\t// in\ntag_83:\n    /* \"#utility.yul\":907:995   */\ntag_82:\n    /* \"#utility.yul\":1015:1025   */\n  dup1\n    /* \"#utility.yul\":1011:1013   */\n  0x40\n    /* \"#utility.yul\":1004:1026   */\n  mstore\n    /* \"#utility.yul\":794:1032   */\n  pop\n    /* \"#utility.yul\":751:1032   */\n  pop\n  pop\n  jump\t// out\n    /* \"#utility.yul\":1038:1167   */\ntag_42:\n    /* \"#utility.yul\":1072:1078   */\n  0x00\n    /* \"#utility.yul\":1099:1119   */\n  tag_85\n  tag_35\n  jump\t// in\ntag_85:\n    /* \"#utility.yul\":1089:1119   */\n  swap1\n  pop\n    /* \"#utility.yul\":1128:1161   */\n  tag_86\n    /* \"#utility.yul\":1156:1160   */\n  dup3\n    /* \"#utility.yul\":1148:1154   */\n  dup3\n    /* \"#utility.yul\":1128:1161   */\n  tag_41\n  jump\t// in\ntag_86:\n    /* \"#utility.yul\":1038:1167   */\n  swap2\n  swap1\n  pop\n  jump\t// out\n    /* \"#utility.yul\":1173:1484   */\ntag_43:\n    /* \"#utility.yul\":1250:1254   */\n  0x00\n    /* \"#utility.yul\":1340:1358   */\n  0xffffffffffffffff\n    /* \"#utility.yul\":1332:1338   */\n  dup3\n    /* \"#utility.yul\":1329:1359   */\n  gt\n    /* \"#utility.yul\":1326:1382   */\n  iszero\n  tag_88\n  jumpi\n    /* \"#utility.yul\":1362:1380   */\n  tag_89\n  tag_40\n  jump\t// in\ntag_89:\n    /* \"#utility.yul\":1326:1382   */\ntag_88:\n    /* \"#utility.yul\":1412:1416   */\n  0x20\n    /* \"#utility.yul\":1404:1410   */\n  dup3\n    /* \"#utility.yul\":1400:1417   */\n  mul\n    /* \"#utility.yul\":1392:1417   */\n  swap1\n  pop\n    /* \"#utility.yul\":1472:1476   */\n  0x20\n    /* \"#utility.yul\":1466:1470   */\n  dup2\n    /* \"#utility.yul\":1462:1477   */\n  add\n    /* \"#utility.yul\":1454:1477   */\n  swap1\n  pop\n    /* \"#utility.yul\":1173:1484   */\n  swap2\n  swap1\n  pop\n  jump\t// out\n    /* \"#utility.yul\":1490:1607   */\ntag_44:\n    /* \"#utility.yul\":1599:1600   */\n  0x00\n    /* \"#utility.yul\":1596:1597   */\n  dup1\n    /* \"#utility.yul\":1589:1601   */\n  revert\n    /* \"#utility.yul\":1613:1739   */\ntag_45:\n    /* \"#utility.yul\":1650:1657   */\n  0x00\n    /* \"#utility.yul\":1690:1732   */\n  0xffffffffffffffffffffffffffffffffffffffff\n    /* \"#utility.yul\":1683:1688   */\n  dup3\n    /* \"#utility.yul\":1679:1733   */\n  and\n    /* \"#utility.yul\":1668:1733   */\n  swap1\n  pop\n    /* \"#utility.yul\":1613:1739   */\n  swap2\n  swap1\n  pop\n  jump\t// out\n    /* \"#utility.yul\":1745:1841   */\ntag_46:\n    /* \"#utility.yul\":1782:1789   */\n  0x00\n    /* \"#utility.yul\":1811:1835   */\n  tag_93\n    /* \"#utility.yul\":1829:1834   */\n  dup3\n    /* \"#utility.yul\":1811:1835   */\n  tag_45\n  jump\t// in\ntag_93:\n    /* \"#utility.yul\":1800:1835   */\n  swap1\n  pop\n    /* \"#utility.yul\":1745:1841   */\n  swap2\n  swap1\n  pop\n  jump\t// out\n    /* \"#utility.yul\":1847:1969   */\ntag_47:\n    /* \"#utility.yul\":1920:1944   */\n  tag_95\n    /* \"#utility.yul\":1938:1943   */\n  dup2\n    /* \"#utility.yul\":1920:1944   */\n  tag_46\n  jump\t// in\ntag_95:\n    /* \"#utility.yul\":1913:1918   */\n  dup2\n    /* \"#utility.yul\":1910:1945   */\n  eq\n    /* \"#utility.yul\":1900:1963   */\n  tag_96\n  jumpi\n    /* \"#utility.yul\":1959:1960   */\n  0x00\n    /* \"#utility.yul\":1956:1957   */\n  dup1\n    /* \"#utility.yul\":1949:1961   */\n  revert\n    /* \"#utility.yul\":1900:1963   */\ntag_96:\n    /* \"#utility.yul\":1847:1969   */\n  pop\n  jump\t// out\n    /* \"#utility.yul\":1975:2118   */\ntag_48:\n    /* \"#utility.yul\":2032:2037   */\n  0x00\n    /* \"#utility.yul\":2063:2069   */\n  dup2\n    /* \"#utility.yul\":2057:2070   */\n  mload\n    /* \"#utility.yul\":2048:2070   */\n  swap1\n  pop\n    /* \"#utility.yul\":2079:2112   */\n  tag_98\n    /* \"#utility.yul\":2106:2111   */\n  dup2\n    /* \"#utility.yul\":2079:2112   */\n  tag_47\n  jump\t// in\ntag_98:\n    /* \"#utility.yul\":1975:2118   */\n  swap3\n  swap2\n  pop\n  pop\n  jump\t// out\n    /* \"#utility.yul\":2141:2873   */\ntag_49:\n    /* \"#utility.yul\":2248:2253   */\n  0x00\n    /* \"#utility.yul\":2273:2354   */\n  tag_100\n    /* \"#utility.yul\":2289:2353   */\n  tag_101\n    /* \"#utility.yul\":2346:2352   */\n  dup5\n    /* \"#utility.yul\":2289:2353   */\n  tag_43\n  jump\t// in\ntag_101:\n    /* \"#utility.yul\":2273:2354   */\n  tag_42\n  jump\t// in\ntag_100:\n    /* \"#utility.yul\":2264:2354   */\n  swap1\n  pop\n    /* \"#utility.yul\":2374:2379   */\n  dup1\n    /* \"#utility.yul\":2403:2409   */\n  dup4\n    /* \"#utility.yul\":2396:2401   */\n  dup3\n    /* \"#utility.yul\":2389:2410   */\n  mstore\n    /* \"#utility.yul\":2437:2441   */\n  0x20\n    /* \"#utility.yul\":2430:2435   */\n  dup3\n    /* \"#utility.yul\":2426:2442   */\n  add\n    /* \"#utility.yul\":2419:2442   */\n  swap1\n  pop\n    /* \"#utility.yul\":2490:2494   */\n  0x20\n    /* \"#utility.yul\":2482:2488   */\n  dup5\n    /* \"#utility.yul\":2478:2495   */\n  mul\n    /* \"#utility.yul\":2470:2476   */\n  dup4\n    /* \"#utility.yul\":2466:2496   */\n  add\n    /* \"#utility.yul\":2519:2522   */\n  dup6\n    /* \"#utility.yul\":2511:2517   */\n  dup2\n    /* \"#utility.yul\":2508:2523   */\n  gt\n    /* \"#utility.yul\":2505:2627   */\n  iszero\n  tag_102\n  jumpi\n    /* \"#utility.yul\":2538:2617   */\n  tag_103\n  tag_44\n  jump\t// in\ntag_103:\n    /* \"#utility.yul\":2505:2627   */\ntag_102:\n    /* \"#utility.yul\":2653:2659   */\n  dup4\n    /* \"#utility.yul\":2636:2867   */\ntag_104:\n    /* \"#utility.yul\":2670:2676   */\n  dup2\n    /* \"#utility.yul\":2665:2668   */\n  dup2\n    /* \"#utility.yul\":2662:2677   */\n  lt\n    /* \"#utility.yul\":2636:2867   */\n  iszero\n  tag_106\n  jumpi\n    /* \"#utility.yul\":2745:2748   */\n  dup1\n    /* \"#utility.yul\":2774:2822   */\n  tag_107\n    /* \"#utility.yul\":2818:2821   */\n  dup9\n    /* \"#utility.yul\":2806:2816   */\n  dup3\n    /* \"#utility.yul\":2774:2822   */\n  tag_48\n  jump\t// in\ntag_107:\n    /* \"#utility.yul\":2769:2772   */\n  dup5\n    /* \"#utility.yul\":2762:2823   */\n  mstore\n    /* \"#utility.yul\":2852:2856   */\n  0x20\n    /* \"#utility.yul\":2847:2850   */\n  dup5\n    /* \"#utility.yul\":2843:2857   */\n  add\n    /* \"#utility.yul\":2836:2857   */\n  swap4\n  pop\n    /* \"#utility.yul\":2712:2867   */\n  pop\n    /* \"#utility.yul\":2696:2700   */\n  0x20\n    /* \"#utility.yul\":2691:2694   */\n  dup2\n    /* \"#utility.yul\":2687:2701   */\n  add\n    /* \"#utility.yul\":2680:2701   */\n  swap1\n  pop\n    /* \"#utility.yul\":2636:2867   */\n  jump(tag_104)\ntag_106:\n    /* \"#utility.yul\":2640:2661   */\n  pop\n    /* \"#utility.yul\":2254:2873   */\n  pop\n  pop\n    /* \"#utility.yul\":2141:2873   */\n  swap4\n  swap3\n  pop\n  pop\n  pop\n  jump\t// out\n    /* \"#utility.yul\":2896:3281   */\ntag_50:\n    /* \"#utility.yul\":2978:2983   */\n  0x00\n    /* \"#utility.yul\":3027:3030   */\n  dup3\n    /* \"#utility.yul\":3020:3024   */\n  0x1f\n    /* \"#utility.yul\":3012:3018   */\n  dup4\n    /* \"#utility.yul\":3008:3025   */\n  add\n    /* \"#utility.yul\":3004:3031   */\n  slt\n    /* \"#utility.yul\":2994:3116   */\n  tag_109\n  jumpi\n    /* \"#utility.yul\":3035:3114   */\n  tag_110\n  tag_38\n  jump\t// in\ntag_110:\n    /* \"#utility.yul\":2994:3116   */\ntag_109:\n    /* \"#utility.yul\":3145:3151   */\n  dup2\n    /* \"#utility.yul\":3139:3152   */\n  mload\n    /* \"#utility.yul\":3170:3275   */\n  tag_111\n    /* \"#utility.yul\":3271:3274   */\n  dup5\n    /* \"#utility.yul\":3263:3269   */\n  dup3\n    /* \"#utility.yul\":3256:3260   */\n  0x20\n    /* \"#utility.yul\":3248:3254   */\n  dup7\n    /* \"#utility.yul\":3244:3261   */\n  add\n    /* \"#utility.yul\":3170:3275   */\n  tag_49\n  jump\t// in\ntag_111:\n    /* \"#utility.yul\":3161:3275   */\n  swap2\n  pop\n    /* \"#utility.yul\":2984:3281   */\n  pop\n    /* \"#utility.yul\":2896:3281   */\n  swap3\n  swap2\n  pop\n  pop\n  jump\t// out\n    /* \"#utility.yul\":3287:3364   */\ntag_51:\n    /* \"#utility.yul\":3324:3331   */\n  0x00\n    /* \"#utility.yul\":3353:3358   */\n  dup2\n    /* \"#utility.yul\":3342:3358   */\n  swap1\n  pop\n    /* \"#utility.yul\":3287:3364   */\n  swap2\n  swap1\n  pop\n  jump\t// out\n    /* \"#utility.yul\":3370:3492   */\ntag_52:\n    /* \"#utility.yul\":3443:3467   */\n  tag_114\n    /* \"#utility.yul\":3461:3466   */\n  dup2\n    /* \"#utility.yul\":3443:3467   */\n  tag_51\n  jump\t// in\ntag_114:\n    /* \"#utility.yul\":3436:3441   */\n  dup2\n    /* \"#utility.yul\":3433:3468   */\n  eq\n    /* \"#utility.yul\":3423:3486   */\n  tag_115\n  jumpi\n    /* \"#utility.yul\":3482:3483   */\n  0x00\n    /* \"#utility.yul\":3479:3480   */\n  dup1\n    /* \"#utility.yul\":3472:3484   */\n  revert\n    /* \"#utility.yul\":3423:3486   */\ntag_115:\n    /* \"#utility.yul\":3370:3492   */\n  pop\n  jump\t// out\n    /* \"#utility.yul\":3498:3641   */\ntag_53:\n    /* \"#utility.yul\":3555:3560   */\n  0x00\n    /* \"#utility.yul\":3586:3592   */\n  dup2\n    /* \"#utility.yul\":3580:3593   */\n  mload\n    /* \"#utility.yul\":3571:3593   */\n  swap1\n  pop\n    /* \"#utility.yul\":3602:3635   */\n  tag_117\n    /* \"#utility.yul\":3629:3634   */\n  dup2\n    /* \"#utility.yul\":3602:3635   */\n  tag_52\n  jump\t// in\ntag_117:\n    /* \"#utility.yul\":3498:3641   */\n  swap3\n  swap2\n  pop\n  pop\n  jump\t// out\n    /* \"#utility.yul\":3647:4357   */\ntag_3:\n    /* \"#utility.yul\":3751:3757   */\n  0x00\n    /* \"#utility.yul\":3759:3765   */\n  dup1\n    /* \"#utility.yul\":3808:3810   */\n  0x40\n    /* \"#utility.yul\":3796:3805   */\n  dup4\n    /* \"#utility.yul\":3787:3794   */\n  dup6\n    /* \"#utility.yul\":3783:3806   */\n  sub\n    /* \"#utility.yul\":3779:3811   */\n  slt\n    /* \"#utility.yul\":3776:3895   */\n  iszero\n  tag_119\n  jumpi\n    /* \"#utility.yul\":3814:3893   */\n  tag_120\n  tag_36\n  jump\t// in\ntag_120:\n    /* \"#utility.yul\":3776:3895   */\ntag_119:\n    /* \"#utility.yul\":3955:3956   */\n  0x00\n    /* \"#utility.yul\":3944:3953   */\n  dup4\n    /* \"#utility.yul\":3940:3957   */\n  add\n    /* \"#utility.yul\":3934:3958   */\n  mload\n    /* \"#utility.yul\":3985:4003   */\n  0xffffffffffffffff\n    /* \"#utility.yul\":3977:3983   */\n  dup2\n    /* \"#utility.yul\":3974:4004   */\n  gt\n    /* \"#utility.yul\":3971:4088   */\n  iszero\n  tag_121\n  jumpi\n    /* \"#utility.yul\":4007:4086   */\n  tag_122\n  tag_37\n  jump\t// in\ntag_122:\n    /* \"#utility.yul\":3971:4088   */\ntag_121:\n    /* \"#utility.yul\":4112:4201   */\n  tag_123\n    /* \"#utility.yul\":4193:4200   */\n  dup6\n    /* \"#utility.yul\":4184:4190   */\n  dup3\n    /* \"#utility.yul\":4173:4182   */\n  dup7\n    /* \"#utility.yul\":4169:4191   */\n  add\n    /* \"#utility.yul\":4112:4201   */\n  tag_50\n  jump\t// in\ntag_123:\n    /* \"#utility.yul\":4102:4201   */\n  swap3\n  pop\n    /* \"#utility.yul\":3905:4211   */\n  pop\n    /* \"#utility.yul\":4250:4252   */\n  0x20\n    /* \"#utility.yul\":4276:4340   */\n  tag_124\n    /* \"#utility.yul\":4332:4339   */\n  dup6\n    /* \"#utility.yul\":4323:4329   */\n  dup3\n    /* \"#utility.yul\":4312:4321   */\n  dup7\n    /* \"#utility.yul\":4308:4330   */\n  add\n    /* \"#utility.yul\":4276:4340   */\n  tag_53\n  jump\t// in\ntag_124:\n    /* \"#utility.yul\":4266:4340   */\n  swap2\n  pop\n    /* \"#utility.yul\":4221:4350   */\n  pop\n    /* \"#utility.yul\":3647:4357   */\n  swap3\n  pop\n  swap3\n  swap1\n  pop\n  jump\t// out\n    /* \"#utility.yul\":4363:4462   */\ntag_54:\n    /* \"#utility.yul\":4415:4421   */\n  0x00\n    /* \"#utility.yul\":4449:4454   */\n  dup2\n    /* \"#utility.yul\":4443:4455   */\n  mload\n    /* \"#utility.yul\":4433:4455   */\n  swap1\n  pop\n    /* \"#utility.yul\":4363:4462   */\n  swap2\n  swap1\n  pop\n  jump\t// out\n    /* \"#utility.yul\":4468:4648   */\ntag_55:\n    /* \"#utility.yul\":4516:4593   */\n  0x4e487b7100000000000000000000000000000000000000000000000000000000\n    /* \"#utility.yul\":4513:4514   */\n  0x00\n    /* \"#utility.yul\":4506:4594   */\n  mstore\n    /* \"#utility.yul\":4613:4617   */\n  0x22\n    /* \"#utility.yul\":4610:4611   */\n  0x04\n    /* \"#utility.yul\":4603:4618   */\n  mstore\n    /* \"#utility.yul\":4637:4641   */\n  0x24\n    /* \"#utility.yul\":4634:4635   */\n  0x00\n    /* \"#utility.yul\":4627:4642   */\n  revert\n    /* \"#utility.yul\":4654:4974   */\ntag_56:\n    /* \"#utility.yul\":4698:4704   */\n  0x00\n    /* \"#utility.yul\":4735:4736   */\n  0x02\n    /* \"#utility.yul\":4729:4733   */\n  dup3\n    /* \"#utility.yul\":4725:4737   */\n  div\n    /* \"#utility.yul\":4715:4737   */\n  swap1\n  pop\n    /* \"#utility.yul\":4782:4783   */\n  0x01\n    /* \"#utility.yul\":4776:4780   */\n  dup3\n    /* \"#utility.yul\":4772:4784   */\n  and\n    /* \"#utility.yul\":4803:4821   */\n  dup1\n    /* \"#utility.yul\":4793:4874   */\n  tag_128\n  jumpi\n    /* \"#utility.yul\":4859:4863   */\n  0x7f\n    /* \"#utility.yul\":4851:4857   */\n  dup3\n    /* \"#utility.yul\":4847:4864   */\n  and\n    /* \"#utility.yul\":4837:4864   */\n  swap2\n  pop\n    /* \"#utility.yul\":4793:4874   */\ntag_128:\n    /* \"#utility.yul\":4921:4923   */\n  0x20\n    /* \"#utility.yul\":4913:4919   */\n  dup3\n    /* \"#utility.yul\":4910:4924   */\n  lt\n    /* \"#utility.yul\":4890:4908   */\n  dup2\n    /* \"#utility.yul\":4887:4925   */\n  sub\n    /* \"#utility.yul\":4884:4968   */\n  tag_129\n  jumpi\n    /* \"#utility.yul\":4940:4958   */\n  tag_130\n  tag_55\n  jump\t// in\ntag_130:\n    /* \"#utility.yul\":4884:4968   */\ntag_129:\n    /* \"#utility.yul\":4705:4974   */\n  pop\n    /* \"#utility.yul\":4654:4974   */\n  swap2\n  swap1\n  pop\n  jump\t// out\n    /* \"#utility.yul\":4980:5121   */\ntag_57:\n    /* \"#utility.yul\":5029:5033   */\n  0x00\n    /* \"#utility.yul\":5052:5055   */\n  dup2\n    /* \"#utility.yul\":5044:5055   */\n  swap1\n  pop\n    /* \"#utility.yul\":5075:5078   */\n  dup2\n    /* \"#utility.yul\":5072:5073   */\n  0x00\n    /* \"#utility.yul\":5065:5079   */\n  mstore\n    /* \"#utility.yul\":5109:5113   */\n  0x20\n    /* \"#utility.yul\":5106:5107   */\n  0x00\n    /* \"#utility.yul\":5096:5114   */\n  keccak256\n    /* \"#utility.yul\":5088:5114   */\n  swap1\n  pop\n    /* \"#utility.yul\":4980:5121   */\n  swap2\n  swap1\n  pop\n  jump\t// out\n    /* \"#utility.yul\":5127:5220   */\ntag_58:\n    /* \"#utility.yul\":5164:5170   */\n  0x00\n    /* \"#utility.yul\":5211:5213   */\n  0x20\n    /* \"#utility.yul\":5206:5208   */\n  0x1f\n    /* \"#utility.yul\":5199:5204   */\n  dup4\n    /* \"#utility.yul\":5195:5209   */\n  add\n    /* \"#utility.yul\":5191:5214   */\n  div\n    /* \"#utility.yul\":5181:5214   */\n  swap1\n  pop\n    /* \"#utility.yul\":5127:5220   */\n  swap2\n  swap1\n  pop\n  jump\t// out\n    /* \"#utility.yul\":5226:5333   */\ntag_59:\n    /* \"#utility.yul\":5270:5278   */\n  0x00\n    /* \"#utility.yul\":5320:5325   */\n  dup3\n    /* \"#utility.yul\":5314:5318   */\n  dup3\n    /* \"#utility.yul\":5310:5326   */\n  shl\n    /* \"#utility.yul\":5289:5326   */\n  swap1\n  pop\n    /* \"#utility.yul\":5226:5333   */\n  swap3\n  swap2\n  pop\n  pop\n  jump\t// out\n    /* \"#utility.yul\":5339:5732   */\ntag_60:\n    /* \"#utility.yul\":5408:5414   */\n  0x00\n    /* \"#utility.yul\":5458:5459   */\n  0x08\n    /* \"#utility.yul\":5446:5456   */\n  dup4\n    /* \"#utility.yul\":5442:5460   */\n  mul\n    /* \"#utility.yul\":5481:5578   */\n  tag_135\n    /* \"#utility.yul\":5511:5577   */\n  0xffffffffffffffffffffffffffffffffffffffffffffffffffffffffffffffff\n    /* \"#utility.yul\":5500:5509   */\n  dup3\n    /* \"#utility.yul\":5481:5578   */\n  tag_59\n  jump\t// in\ntag_135:\n    /* \"#utility.yul\":5599:5638   */\n  tag_136\n    /* \"#utility.yul\":5629:5637   */\n  dup7\n    /* \"#utility.yul\":5618:5627   */\n  dup4\n    /* \"#utility.yul\":5599:5638   */\n  tag_59\n  jump\t// in\ntag_136:\n    /* \"#utility.yul\":5587:5638   */\n  swap6\n  pop\n    /* \"#utility.yul\":5671:5675   */\n  dup1\n    /* \"#utility.yul\":5667:5676   */\n  not\n    /* \"#utility.yul\":5660:5665   */\n  dup5\n    /* \"#utility.yul\":5656:5677   */\n  and\n    /* \"#utility.yul\":5647:5677   */\n  swap4\n  pop\n    /* \"#utility.yul\":5720:5724   */\n  dup1\n    /* \"#utility.yul\":5710:5718   */\n  dup7\n    /* \"#utility.yul\":5706:5725   */\n  and\n    /* \"#utility.yul\":5699:5704   */\n  dup5\n    /* \"#utility.yul\":5696:5726   */\n  or\n    /* \"#utility.yul\":5686:5726   */\n  swap3\n  pop\n    /* \"#utility.yul\":5415:5732   */\n  pop\n  pop\n    /* \"#utility.yul\":5339:5732   */\n  swap4\n  swap3\n  pop\n  pop\n  pop\n  jump\t// out\n    /* \"#utility.yul\":5738:5798   */\ntag_61:\n    /* \"#utility.yul\":5766:5769   */\n  0x00\n    /* \"#utility.yul\":5787:5792   */\n  dup2\n    /* \"#utility.yul\":5780:5792   */\n  swap1\n  pop\n    /* \"#utility.yul\":5738:5798   */\n  swap2\n  swap1\n  pop\n  jump\t// out\n    /* \"#utility.yul\":5804:5946   */\ntag_62:\n    /* \"#utility.yul\":5854:5863   */\n  0x00\n    /* \"#utility.yul\":5887:5940   */\n  tag_139\n    /* \"#utility.yul\":5905:5939   */\n  tag_140\n    /* \"#utility.yul\":5914:5938   */\n  tag_141\n    /* \"#utility.yul\":5932:5937   */\n  dup5\n    /* \"#utility.yul\":5914:5938   */\n  tag_51\n  jump\t// in\ntag_141:\n    /* \"#utility.yul\":5905:5939   */\n  tag_61\n  jump\t// in\ntag_140:\n    /* \"#utility.yul\":5887:5940   */\n  tag_51\n  jump\t// in\ntag_139:\n    /* \"#utility.yul\":5874:5940   */\n  swap1\n  pop\n    /* \"#utility.yul\":5804:5946   */\n  swap2\n  swap1\n  pop\n  jump\t// out\n    /* \"#utility.yul\":5952:6027   */\ntag_63:\n    /* \"#utility.yul\":5995:5998   */\n  0x00\n    /* \"#utility.yul\":6016:6021   */\n  dup2\n    /* \"#utility.yul\":6009:6021   */\n  swap1\n  pop\n    /* \"#utility.yul\":5952:6027   */\n  swap2\n  swap1\n  pop\n  jump\t// out\n    /* \"#utility.yul\":6033:6302   */\ntag_64:\n    /* \"#utility.yul\":6143:6182   */\n  tag_144\n    /* \"#utility.yul\":6174:6181   */\n  dup4\n    /* \"#utility.yul\":6143:6182   */\n  tag_62\n  jump\t// in\ntag_144:\n    /* \"#utility.yul\":6204:6295   */\n  tag_145\n    /* \"#utility.yul\":6253:6294   */\n  tag_146\n    /* \"#utility.yul\":6277:6293   */\n  dup3\n    /* \"#utility.yul\":6253:6294   */\n  tag_63\n  jump\t// in\ntag_146:\n    /* \"#utility.yul\":6245:6251   */\n  dup5\n    /* \"#utility.yul\":6238:6242   */\n  dup5\n    /* \"#utility.yul\":6232:6243   */\n  sload\n    /* \"#utility.yul\":6204:6295   */\n  tag_60\n  jump\t// in\ntag_145:\n    /* \"#utility.yul\":6198:6202   */\n  dup3\n    /* \"#utility.yul\":6191:6296   */\n  sstore\n    /* \"#utility.yul\":6109:6302   */\n  pop\n    /* \"#utility.yul\":6033:6302   */\n  pop\n  pop\n  pop\n  jump\t// out\n    /* \"#utility.yul\":6308:6381   */\ntag_65:\n    /* \"#utility.yul\":6353:6356   */\n  0x00\n    /* \"#utility.yul\":6308:6381   */\n  swap1\n  jump\t// out\n    /* \"#utility.yul\":6387:6576   */\ntag_66:\n    /* \"#utility.yul\":6464:6496   */\n  tag_149\n  tag_65\n  jump\t// in\ntag_149:\n    /* \"#utility.yul\":6505:6570   */\n  tag_150\n    /* \"#utility.yul\":6563:6569   */\n  dup2\n    /* \"#utility.yul\":6555:6561   */\n  dup5\n    /* \"#utility.yul\":6549:6553   */\n  dup5\n    /* \"#utility.yul\":6505:6570   */\n  tag_64\n  jump\t// in\ntag_150:\n    /* \"#utility.yul\":6440:6576   */\n  pop\n    /* \"#utility.yul\":6387:6576   */\n  pop\n  pop\n  jump\t// out\n    /* \"#utility.yul\":6582:6768   */\ntag_67:\n    /* \"#utility.yul\":6642:6762   */\ntag_152:\n    /* \"#utility.yul\":6659:6662   */\n  dup2\n    /* \"#utility.yul\":6652:6657   */\n  dup2\n    /* \"#utility.yul\":6649:6663   */\n  lt\n    /* \"#utility.yul\":6642:6762   */\n  iszero\n  tag_154\n  jumpi\n    /* \"#utility.yul\":6713:6752   */\n  tag_155\n    /* \"#utility.yul\":6750:6751   */\n  0x00\n    /* \"#utility.yul\":6743:6748   */\n  dup3\n    /* \"#utility.yul\":6713:6752   */\n  tag_66\n  jump\t// in\ntag_155:\n    /* \"#utility.yul\":6686:6687   */\n  0x01\n    /* \"#utility.yul\":6679:6684   */\n  dup2\n    /* \"#utility.yul\":6675:6688   */\n  add\n    /* \"#utility.yul\":6666:6688   */\n  swap1\n  pop\n    /* \"#utility.yul\":6642:6762   */\n  jump(tag_152)\ntag_154:\n    /* \"#utility.yul\":6582:6768   */\n  pop\n  pop\n  jump\t// out\n    /* \"#utility.yul\":6774:7317   */\ntag_68:\n    /* \"#utility.yul\":6875:6877   */\n  0x1f\n    /* \"#utility.yul\":6870:6873   */\n  dup3\n    /* \"#utility.yul\":6867:6878   */\n  gt\n    /* \"#utility.yul\":6864:7310   */\n  iszero\n  tag_157\n  jumpi\n    /* \"#utility.yul\":6909:6947   */\n  tag_158\n    /* \"#utility.yul\":6941:6946   */\n  dup2\n    /* \"#utility.yul\":6909:6947   */\n  tag_57\n  jump\t// in\ntag_158:\n    /* \"#utility.yul\":6993:7022   */\n  tag_159\n    /* \"#utility.yul\":7011:7021   */\n  dup5\n    /* \"#utility.yul\":6993:7022   */\n  tag_58\n  jump\t// in\ntag_159:\n    /* \"#utility.yul\":6983:6991   */\n  dup2\n    /* \"#utility.yul\":6979:7023   */\n  add\n    /* \"#utility.yul\":7176:7178   */\n  0x20\n    /* \"#utility.yul\":7164:7174   */\n  dup6\n    /* \"#utility.yul\":7161:7179   */\n  lt\n    /* \"#utility.yul\":7158:7207   */\n  iszero\n  tag_160\n  jumpi\n    /* \"#utility.yul\":7197:7205   */\n  dup2\n    /* \"#utility.yul\":7182:7205   */\n  swap1\n  pop\n    /* \"#utility.yul\":7158:7207   */\ntag_160:\n    /* \"#utility.yul\":7220:7300   */\n  tag_161\n    /* \"#utility.yul\":7276:7298   */\n  tag_162\n    /* \"#utility.yul\":7294:7297   */\n  dup6\n    /* \"#utility.yul\":7276:7298   */\n  tag_58\n  jump\t// in\ntag_162:\n    /* \"#utility.yul\":7266:7274   */\n  dup4\n    /* \"#utility.yul\":7262:7299   */\n  add\n    /* \"#utility.yul\":7249:7260   */\n  dup3\n    /* \"#utility.yul\":7220:7300   */\n  tag_67\n  jump\t// in\ntag_161:\n    /* \"#utility.yul\":6879:7310   */\n  pop\n  pop\n    /* \"#utility.yul\":6864:7310   */\ntag_157:\n    /* \"#utility.yul\":6774:7317   */\n  pop\n  pop\n  pop\n  jump\t// out\n    /* \"#utility.yul\":7323:7440   */\ntag_69:\n    /* \"#utility.yul\":7377:7385   */\n  0x00\n    /* \"#utility.yul\":7427:7432   */\n  dup3\n    /* \"#utility.yul\":7421:7425   */\n  dup3\n    /* \"#utility.yul\":7417:7433   */\n  shr\n    /* \"#utility.yul\":7396:7433   */\n  swap1\n  pop\n    /* \"#utility.yul\":7323:7440   */\n  swap3\n  swap2\n  pop\n  pop\n  jump\t// out\n    /* \"#utility.yul\":7446:7615   */\ntag_70:\n    /* \"#utility.yul\":7490:7496   */\n  0x00\n    /* \"#utility.yul\":7523:7574   */\n  tag_165\n    /* \"#utility.yul\":7571:7572   */\n  0x00\n    /* \"#utility.yul\":7567:7573   */\n  not\n    /* \"#utility.yul\":7559:7564   */\n  dup5\n    /* \"#utility.yul\":7556:7557   */\n  0x08\n    /* \"#utility.yul\":7552:7565   */\n  mul\n    /* \"#utility.yul\":7523:7574   */\n  tag_69\n  jump\t// in\ntag_165:\n    /* \"#utility.yul\":7519:7575   */\n  not\n    /* \"#utility.yul\":7604:7608   */\n  dup1\n    /* \"#utility.yul\":7598:7602   */\n  dup4\n    /* \"#utility.yul\":7594:7609   */\n  and\n    /* \"#utility.yul\":7584:7609   */\n  swap2\n  pop\n    /* \"#utility.yul\":7497:7615   */\n  pop\n    /* \"#utility.yul\":7446:7615   */\n  swap3\n  swap2\n  pop\n  pop\n  jump\t// out\n    /* \"#utility.yul\":7620:7915   */\ntag_71:\n    /* \"#utility.yul\":7696:7700   */\n  0x00\n    /* \"#utility.yul\":7842:7871   */\n  tag_167\n    /* \"#utility.yul\":7867:7870   */\n  dup4\n    /* \"#utility.yul\":7861:7865   */\n  dup4\n    /* \"#utility.yul\":7842:7871   */\n  tag_70\n  jump\t// in\ntag_167:\n    /* \"#utility.yul\":7834:7871   */\n  swap2\n  pop\n    /* \"#utility.yul\":7904:7907   */\n  dup3\n    /* \"#utility.yul\":7901:7902   */\n  0x02\n    /* \"#utility.yul\":7897:7908   */\n  mul\n    /* \"#utility.yul\":7891:7895   */\n  dup3\n    /* \"#utility.yul\":7888:7909   */\n  or\n    /* \"#utility.yul\":7880:7909   */\n  swap1\n  pop\n    /* \"#utility.yul\":7620:7915   */\n  swap3\n  swap2\n  pop\n  pop\n  jump\t// out\n    /* \"#utility.yul\":7920:9315   */\ntag_8:\n    /* \"#utility.yul\":8037:8074   */\n  tag_169\n    /* \"#utility.yul\":8070:8073   */\n  dup3\n    /* \"#utility.yul\":8037:8074   */\n  tag_54\n  jump\t// in\ntag_169:\n    /* \"#utility.yul\":8139:8157   */\n  0xffffffffffffffff\n    /* \"#utility.yul\":8131:8137   */\n  dup2\n    /* \"#utility.yul\":8128:8158   */\n  gt\n    /* \"#utility.yul\":8125:8181   */\n  iszero\n  tag_170\n  jumpi\n    /* \"#utility.yul\":8161:8179   */\n  tag_171\n  tag_40\n  jump\t// in\ntag_171:\n    /* \"#utility.yul\":8125:8181   */\ntag_170:\n    /* \"#utility.yul\":8205:8243   */\n  tag_172\n    /* \"#utility.yul\":8237:8241   */\n  dup3\n    /* \"#utility.yul\":8231:8242   */\n  sload\n    /* \"#utility.yul\":8205:8243   */\n  tag_56\n  jump\t// in\ntag_172:\n    /* \"#utility.yul\":8290:8357   */\n  tag_173\n    /* \"#utility.yul\":8350:8356   */\n  dup3\n    /* \"#utility.yul\":8342:8348   */\n  dup3\n    /* \"#utility.yul\":8336:8340   */\n  dup6\n    /* \"#utility.yul\":8290:8357   */\n  tag_68\n  jump\t// in\ntag_173:\n    /* \"#utility.yul\":8384:8385   */\n  0x00\n    /* \"#utility.yul\":8408:8412   */\n  0x20\n    /* \"#utility.yul\":8395:8412   */\n  swap1\n  pop\n    /* \"#utility.yul\":8440:8442   */\n  0x1f\n    /* \"#utility.yul\":8432:8438   */\n  dup4\n    /* \"#utility.yul\":8429:8443   */\n  gt\n    /* \"#utility.yul\":8457:8458   */\n  0x01\n    /* \"#utility.yul\":8452:9070   */\n  dup2\n  eq\n  tag_175\n  jumpi\n    /* \"#utility.yul\":9114:9115   */\n  0x00\n    /* \"#utility.yul\":9131:9137   */\n  dup5\n    /* \"#utility.yul\":9128:9205   */\n  iszero\n  tag_176\n  jumpi\n    /* \"#utility.yul\":9180:9189   */\n  dup3\n    /* \"#utility.yul\":9175:9178   */\n  dup8\n    /* \"#utility.yul\":9171:9190   */\n  add\n    /* \"#utility.yul\":9165:9191   */\n  mload\n    /* \"#utility.yul\":9156:9191   */\n  swap1\n  pop\n    /* \"#utility.yul\":9128:9205   */\ntag_176:\n    /* \"#utility.yul\":9231:9298   */\n  tag_177\n    /* \"#utility.yul\":9291:9297   */\n  dup6\n    /* \"#utility.yul\":9284:9289   */\n  dup3\n    /* \"#utility.yul\":9231:9298   */\n  tag_71\n  jump\t// in\ntag_177:\n    /* \"#utility.yul\":9225:9229   */\n  dup7\n    /* \"#utility.yul\":9218:9299   */\n  sstore\n    /* \"#utility.yul\":9087:9309   */\n  pop\n    /* \"#utility.yul\":8422:9309   */\n  jump(tag_174)\n    /* \"#utility.yul\":8452:9070   */\ntag_175:\n    /* \"#utility.yul\":8504:8508   */\n  0x1f\n    /* \"#utility.yul\":8500:8509   */\n  not\n    /* \"#utility.yul\":8492:8498   */\n  dup5\n    /* \"#utility.yul\":8488:8510   */\n  and\n    /* \"#utility.yul\":8538:8575   */\n  tag_178\n    /* \"#utility.yul\":8570:8574   */\n  dup7\n    /* \"#utility.yul\":8538:8575   */\n  tag_57\n  jump\t// in\ntag_178:\n    /* \"#utility.yul\":8597:8598   */\n  0x00\n    /* \"#utility.yul\":8611:8819   */\ntag_179:\n    /* \"#utility.yul\":8625:8632   */\n  dup3\n    /* \"#utility.yul\":8622:8623   */\n  dup2\n    /* \"#utility.yul\":8619:8633   */\n  lt\n    /* \"#utility.yul\":8611:8819   */\n  iszero\n  tag_181\n  jumpi\n    /* \"#utility.yul\":8704:8713   */\n  dup5\n    /* \"#utility.yul\":8699:8702   */\n  dup10\n    /* \"#utility.yul\":8695:8714   */\n  add\n    /* \"#utility.yul\":8689:8715   */\n  mload\n    /* \"#utility.yul\":8681:8687   */\n  dup3\n    /* \"#utility.yul\":8674:8716   */\n  sstore\n    /* \"#utility.yul\":8755:8756   */\n  0x01\n    /* \"#utility.yul\":8747:8753   */\n  dup3\n    /* \"#utility.yul\":8743:8757   */\n  add\n    /* \"#utility.yul\":8733:8757   */\n  swap2\n  pop\n    /* \"#utility.yul\":8802:8804   */\n  0x20\n    /* \"#utility.yul\":8791:8800   */\n  dup6\n    /* \"#utility.yul\":8787:8805   */\n  add\n    /* \"#utility.yul\":8774:8805   */\n  swap5\n  pop\n    /* \"#utility.yul\":8648:8652   */\n  0x20\n    /* \"#utility.yul\":8645:8646   */\n  dup2\n    /* \"#utility.yul\":8641:8653   */\n  add\n    /* \"#utility.yul\":8636:8653   */\n  swap1\n  pop\n    /* \"#utility.yul\":8611:8819   */\n  jump(tag_179)\ntag_181:\n    /* \"#utility.yul\":8847:8853   */\n  dup7\n    /* \"#utility.yul\":8838:8845   */\n  dup4\n    /* \"#utility.yul\":8835:8854   */\n  lt\n    /* \"#utility.yul\":8832:9011   */\n  iszero\n  tag_182\n  jumpi\n    /* \"#utility.yul\":8905:8914   */\n  dup5\n    /* \"#utility.yul\":8900:8903   */\n  dup10\n    /* \"#utility.yul\":8896:8915   */\n  add\n    /* \"#utility.yul\":8890:8916   */\n  mload\n    /* \"#utility.yul\":8948:8996   */\n  tag_183\n    /* \"#utility.yul\":8990:8994   */\n  0x1f\n    /* \"#utility.yul\":8982:8988   */\n  dup10\n    /* \"#utility.yul\":8978:8995   */\n  and\n    /* \"#utility.yul\":8967:8976   */\n  dup3\n    /* \"#utility.yul\":8948:8996   */\n  tag_70\n  jump\t// in\ntag_183:\n    /* \"#utility.yul\":8940:8946   */\n  dup4\n    /* \"#utility.yul\":8933:8997   */\n  sstore\n    /* \"#utility.yul\":8855:9011   */\n  pop\n    /* \"#utility.yul\":8832:9011   */\ntag_182:\n    /* \"#utility.yul\":9057:9058   */\n  0x01\n    /* \"#utility.yul\":9053:9054   */\n  0x02\n    /* \"#utility.yul\":9045:9051   */\n  dup9\n    /* \"#utility.yul\":9041:9055   */\n  mul\n    /* \"#utility.yul\":9037:9059   */\n  add\n    /* \"#utility.yul\":9031:9035   */\n  dup9\n    /* \"#utility.yul\":9024:9060   */\n  sstore\n    /* \"#utility.yul\":8459:9070   */\n  pop\n  pop\n  pop\n    /* \"#utility.yul\":8422:9309   */\ntag_174:\n  pop\n    /* \"#utility.yul\":8012:9315   */\n  pop\n  pop\n  pop\n    /* \"#utility.yul\":7920:9315   */\n  pop\n  pop\n  jump\t// out\n    /* \"#utility.yul\":9321:9501   */\ntag_21:\n    /* \"#utility.yul\":9369:9446   */\n  0x4e487b7100000000000000000000000000000000000000000000000000000000\n    /* \"#utility.yul\":9366:9367   */\n  0x00\n    /* \"#utility.yul\":9359:9447   */\n  mstore\n    /* \"#utility.yul\":9466:9470   */\n  0x32\n    /* \"#utility.yul\":9463:9464   */\n  0x04\n    /* \"#utility.yul\":9456:9471   */\n  mstore\n    /* \"#utility.yul\":9490:9494   */\n  0x24\n    /* \"#utility.yul\":9487:9488   */\n  0x00\n    /* \"#utility.yul\":9480:9495   */\n  revert\n    /* \"#utility.yul\":9507:9687   */\ntag_72:\n    /* \"#utility.yul\":9555:9632   */\n  0x4e487b7100000000000000000000000000000000000000000000000000000000\n    /* \"#utility.yul\":9552:9553   */\n  0x00\n    /* \"#utility.yul\":9545:9633   */\n  mstore\n    /* \"#utility.yul\":9652:9656   */\n  0x11\n    /* \"#utility.yul\":9649:9650   */\n  0x04\n    /* \"#utility.yul\":9642:9657   */\n  mstore\n    /* \"#utility.yul\":9676:9680   */\n  0x24\n    /* \"#utility.yul\":9673:9674   */\n  0x00\n    /* \"#utility.yul\":9666:9681   */\n  revert\n    /* \"#utility.yul\":9693:9926   */\ntag_26:\n    /* \"#utility.yul\":9732:9735   */\n  0x00\n    /* \"#utility.yul\":9755:9779   */\n  tag_187\n    /* \"#utility.yul\":9773:9778   */\n  dup3\n    /* \"#utility.yul\":9755:9779   */\n  tag_51\n  jump\t// in\ntag_187:\n    /* \"#utility.yul\":9746:9779   */\n  swap2\n  pop\n    /* \"#utility.yul\":9801:9867   */\n  0xffffffffffffffffffffffffffffffffffffffffffffffffffffffffffffffff\n    /* \"#utility.yul\":9794:9799   */\n  dup3\n    /* \"#utility.yul\":9791:9868   */\n  sub\n    /* \"#utility.yul\":9788:9891   */\n  tag_188\n  jumpi\n    /* \"#utility.yul\":9871:9889   */\n  tag_189\n  tag_72\n  jump\t// in\ntag_189:\n    /* \"#utility.yul\":9788:9891   */\ntag_188:\n    /* \"#utility.yul\":9918:9919   */\n  0x01\n    /* \"#utility.yul\":9911:9916   */\n  dup3\n    /* \"#utility.yul\":9907:9920   */\n  add\n    /* \"#utility.yul\":9900:9920   */\n  swap1\n  pop\n    /* \"#utility.yul\":9693:9926   */\n  swap2\n  swap1\n  pop\n  jump\t// out\n    /* \"bank1.sol\":169:6047  contract bank2 is ERC20{... */\ntag_27:\n  dataSize(sub_0)\n  dup1\n  dataOffset(sub_0)\n  0x00\n  codecopy\n  0x00\n  return\nstop\n\nsub_0: assembly {\n        /* \"bank1.sol\":169:6047  contract bank2 is ERC20{... */\n      mstore(0x40, 0x80)\n      jumpi(tag_1, lt(calldatasize, 0x04))\n      shr(0xe0, calldataload(0x00))\n      dup1\n      0x8f14f715\n      gt\n      tag_31\n      jumpi\n      dup1\n      0xb5685f6c\n      gt\n      tag_32\n      jumpi\n      dup1\n      0xdd62ed3e\n      gt\n      tag_33\n      jumpi\n      dup1\n      0xdd62ed3e\n      eq\n      tag_27\n      jumpi\n      dup1\n      0xee3aba3b\n      eq\n      tag_28\n      jumpi\n      dup1\n      0xee51ba59\n      eq\n      tag_29\n      jumpi\n      dup1\n      0xf1f00acc\n      eq\n      tag_30\n      jumpi\n      jump(tag_2)\n    tag_33:\n      dup1\n      0xb5685f6c\n      eq\n      tag_24\n      jumpi\n      dup1\n      0xba88c967\n      eq\n      tag_25\n      jumpi\n      dup1\n      0xbb68796b\n      eq\n      tag_26\n      jumpi\n      jump(tag_2)\n    tag_32:\n      dup1\n      0x9ace38c2\n      gt\n      tag_34\n      jumpi\n      dup1\n      0x9ace38c2\n      eq\n      tag_20\n      jumpi\n      dup1\n      0xa457c2d7\n      eq\n      tag_21\n      jumpi\n      dup1\n      0xa80dfb5c\n      eq\n      tag_22\n      jumpi\n      dup1\n      0xa9059cbb\n      eq\n      tag_23\n      jumpi\n      jump(tag_2)\n    tag_34:\n      dup1\n      0x8f14f715\n      eq\n      tag_17\n      jumpi\n      dup1\n      0x95d89b41\n      eq\n      tag_18\n      jumpi\n      dup1\n      0x9a887f58\n      eq\n      tag_19\n      jumpi\n      jump(tag_2)\n    tag_31:\n      dup1\n      0x313ce567\n      gt\n      tag_35\n      jumpi\n      dup1\n      0x4c31f249\n      gt\n      tag_36\n      jumpi\n      dup1\n      0x4c31f249\n      eq\n      tag_13\n      jumpi\n      dup1\n      0x4c9c7af3\n      eq\n      tag_14\n      jumpi\n      dup1\n      0x70a08231\n      eq\n      tag_15\n      jumpi\n      dup1\n      0x738dbfa6\n      eq\n      tag_16\n      jumpi\n      jump(tag_2)\n    tag_36:\n      dup1\n      0x313ce567\n      eq\n      tag_10\n      jumpi\n      dup1\n      0x39509351\n      eq\n      tag_11\n      jumpi\n      dup1\n      0x45c9711f\n      eq\n      tag_12\n      jumpi\n      jump(tag_2)\n    tag_35:\n      dup1\n      0x18160ddd\n      gt\n      tag_37\n      jumpi\n      dup1\n      0x18160ddd\n      eq\n      tag_6\n      jumpi\n      dup1\n      0x228f1173\n      eq\n      tag_7\n      jumpi\n      dup1\n      0x23b872dd\n      eq\n      tag_8\n      jumpi\n      dup1\n      0x2b29fca1\n      eq\n      tag_9\n      jumpi\n      jump(tag_2)\n    tag_37:\n      dup1\n      0x025e7c27\n      eq\n      tag_3\n      jumpi\n      dup1\n      0x06fdde03\n      eq\n      tag_4\n      jumpi\n      dup1\n      0x095ea7b3\n      eq\n      tag_5\n      jumpi\n      jump(tag_2)\n    tag_1:\n      jumpi(tag_2, calldatasize)\n        /* \"bank1.sol\":2377:2387  msg.sender */\n      caller\n        /* \"bank1.sol\":2368:2401  depvosit(msg.sender , msg.value ) */\n      0xffffffffffffffffffffffffffffffffffffffff\n      and\n      0x65f1df07eef63e0eb903b4a8275b11fda817b71ad87abbd791e95353ac8f86f2\n        /* \"bank1.sol\":2390:2399  msg.value */\n      callvalue\n        /* \"bank1.sol\":2368:2401  depvosit(msg.sender , msg.value ) */\n      mload(0x40)\n      tag_40\n      swap2\n      swap1\n      tag_41\n      jump\t// in\n    tag_40:\n      mload(0x40)\n      dup1\n      swap2\n      sub\n      swap1\n      log2\n        /* \"bank1.sol\":169:6047  contract bank2 is ERC20{... */\n      stop\n    tag_2:\n      0x00\n      dup1\n      revert\n        /* \"bank1.sol\":882:905  address[] public owners */\n    tag_3:\n      callvalue\n      dup1\n      iszero\n      tag_42\n      jumpi\n      0x00\n      dup1\n      revert\n    tag_42:\n      pop\n      tag_43\n      0x04\n      dup1\n      calldatasize\n      sub\n      dup2\n      add\n      swap1\n      tag_44\n      swap2\n      swap1\n      tag_45\n      jump\t// in\n    tag_44:\n      tag_46\n      jump\t// in\n    tag_43:\n      mload(0x40)\n      tag_47\n      swap2\n      swap1\n      tag_48\n      jump\t// in\n    tag_47:\n      mload(0x40)\n      dup1\n      swap2\n      sub\n      swap1\n      return\n        /* \"https://github.com/OpenZeppelin/openzeppelin-contracts/blob/master/contracts/token/ERC20/ERC20.sol\":2357:2446  function name() public view virtual returns (string memory) {... */\n    tag_4:\n      callvalue\n      dup1\n      iszero\n      tag_49\n      jumpi\n      0x00\n      dup1\n      revert\n    tag_49:\n      pop\n      tag_50\n      tag_51\n      jump\t// in\n    tag_50:\n      mload(0x40)\n      tag_52\n      swap2\n      swap1\n      tag_53\n      jump\t// in\n    tag_52:\n      mload(0x40)\n      dup1\n      swap2\n      sub\n      swap1\n      return\n        /* \"https://github.com/OpenZeppelin/openzeppelin-contracts/blob/master/contracts/token/ERC20/ERC20.sol\":4580:4768  function approve(address spender, uint256 amount) public virtual returns (bool) {... */\n    tag_5:\n      callvalue\n      dup1\n      iszero\n      tag_54\n      jumpi\n      0x00\n      dup1\n      revert\n    tag_54:\n      pop\n      tag_55\n      0x04\n      dup1\n      calldatasize\n      sub\n      dup2\n      add\n      swap1\n      tag_56\n      swap2\n      swap1\n      tag_57\n      jump\t// in\n    tag_56:\n      tag_58\n      jump\t// in\n    tag_55:\n      mload(0x40)\n      tag_59\n      swap2\n      swap1\n      tag_60\n      jump\t// in\n    tag_59:\n      mload(0x40)\n      dup1\n      swap2\n      sub\n      swap1\n      return\n        /* \"https://github.com/OpenZeppelin/openzeppelin-contracts/blob/master/contracts/token/ERC20/ERC20.sol\":3427:3524  function totalSupply() public view virtual returns (uint256) {... */\n    tag_6:\n      callvalue\n      dup1\n      iszero\n      tag_61\n      jumpi\n      0x00\n      dup1\n      revert\n    tag_61:\n      pop\n      tag_62\n      tag_63\n      jump\t// in\n    tag_62:\n      mload(0x40)\n      tag_64\n      swap2\n      swap1\n      tag_41\n      jump\t// in\n    tag_64:\n      mload(0x40)\n      dup1\n      swap2\n      sub\n      swap1\n      return\n        /* \"bank1.sol\":5617:5942  function getalltransactions(uint _txIndex)public view returns(address , uint , bytes memory , bool ,uint , uint ){... */\n    tag_7:\n      callvalue\n      dup1\n      iszero\n      tag_65\n      jumpi\n      0x00\n      dup1\n      revert\n    tag_65:\n      pop\n      tag_66\n      0x04\n      dup1\n      calldatasize\n      sub\n      dup2\n      add\n      swap1\n      tag_67\n      swap2\n      swap1\n      tag_45\n      jump\t// in\n    tag_67:\n      tag_68\n      jump\t// in\n    tag_66:\n      mload(0x40)\n      tag_69\n      swap7\n      swap6\n      swap5\n      swap4\n      swap3\n      swap2\n      swap1\n      tag_70\n      jump\t// in\n    tag_69:\n      mload(0x40)\n      dup1\n      swap2\n      sub\n      swap1\n      return\n        /* \"https://github.com/OpenZeppelin/openzeppelin-contracts/blob/master/contracts/token/ERC20/ERC20.sol\":5330:5577  function transferFrom(address from, address to, uint256 amount) public virtual returns (bool) {... */\n    tag_8:\n      callvalue\n      dup1\n      iszero\n      tag_71\n      jumpi\n      0x00\n      dup1\n      revert\n    tag_71:\n      pop\n      tag_72\n      0x04\n      dup1\n      calldatasize\n      sub\n      dup2\n      add\n      swap1\n      tag_73\n      swap2\n      swap1\n      tag_74\n      jump\t// in\n    tag_73:\n      tag_75\n      jump\t// in\n    tag_72:\n      mload(0x40)\n      tag_76\n      swap2\n      swap1\n      tag_60\n      jump\t// in\n    tag_76:\n      mload(0x40)\n      dup1\n      swap2\n      sub\n      swap1\n      return\n        /* \"bank1.sol\":4480:5007  function lending(uint amount , uint _txIndex)public payable returns(bool){... */\n    tag_9:\n      tag_77\n      0x04\n      dup1\n      calldatasize\n      sub\n      dup2\n      add\n      swap1\n      tag_78\n      swap2\n      swap1\n      tag_79\n      jump\t// in\n    tag_78:\n      tag_80\n      jump\t// in\n    tag_77:\n      mload(0x40)\n      tag_81\n      swap2\n      swap1\n      tag_60\n      jump\t// in\n    tag_81:\n      mload(0x40)\n      dup1\n      swap2\n      sub\n      swap1\n      return\n        /* \"https://github.com/OpenZeppelin/openzeppelin-contracts/blob/master/contracts/token/ERC20/ERC20.sol\":3285:3367  function decimals() public view virtual returns (uint8) {... */\n    tag_10:\n      callvalue\n      dup1\n      iszero\n      tag_82\n      jumpi\n      0x00\n      dup1\n      revert\n    tag_82:\n      pop\n      tag_83\n      tag_84\n      jump\t// in\n    tag_83:\n      mload(0x40)\n      tag_85\n      swap2\n      swap1\n      tag_86\n      jump\t// in\n    tag_85:\n      mload(0x40)\n      dup1\n      swap2\n      sub\n      swap1\n      return\n        /* \"https://github.com/OpenZeppelin/openzeppelin-contracts/blob/master/contracts/token/ERC20/ERC20.sol\":5972:6206  function increaseAllowance(address spender, uint256 addedValue) public virtual returns (bool) {... */\n    tag_11:\n      callvalue\n      dup1\n      iszero\n      tag_87\n      jumpi\n      0x00\n      dup1\n      revert\n    tag_87:\n      pop\n      tag_88\n      0x04\n      dup1\n      calldatasize\n      sub\n      dup2\n      add\n      swap1\n      tag_89\n      swap2\n      swap1\n      tag_57\n      jump\t// in\n    tag_89:\n      tag_90\n      jump\t// in\n    tag_88:\n      mload(0x40)\n      tag_91\n      swap2\n      swap1\n      tag_60\n      jump\t// in\n    tag_91:\n      mload(0x40)\n      dup1\n      swap2\n      sub\n      swap1\n      return\n        /* \"bank1.sol\":623:661  mapping(address => bool)public isowner */\n    tag_12:\n      callvalue\n      dup1\n      iszero\n      tag_92\n      jumpi\n      0x00\n      dup1\n      revert\n    tag_92:\n      pop\n      tag_93\n      0x04\n      dup1\n      calldatasize\n      sub\n      dup2\n      add\n      swap1\n      tag_94\n      swap2\n      swap1\n      tag_95\n      jump\t// in\n    tag_94:\n      tag_96\n      jump\t// in\n    tag_93:\n      mload(0x40)\n      tag_97\n      swap2\n      swap1\n      tag_60\n      jump\t// in\n    tag_97:\n      mload(0x40)\n      dup1\n      swap2\n      sub\n      swap1\n      return\n        /* \"bank1.sol\":3989:4472  function Cashwithdrawal(uint amount , uint txIndex)public payable returns(uint){... */\n    tag_13:\n      tag_98\n      0x04\n      dup1\n      calldatasize\n      sub\n      dup2\n      add\n      swap1\n      tag_99\n      swap2\n      swap1\n      tag_79\n      jump\t// in\n    tag_99:\n      tag_100\n      jump\t// in\n    tag_98:\n      mload(0x40)\n      tag_101\n      swap2\n      swap1\n      tag_41\n      jump\t// in\n    tag_101:\n      mload(0x40)\n      dup1\n      swap2\n      sub\n      swap1\n      return\n        /* \"bank1.sol\":818:877  mapping(uint => mapping(address => bool))public isconfirmed */\n    tag_14:\n      callvalue\n      dup1\n      iszero\n      tag_102\n      jumpi\n      0x00\n      dup1\n      revert\n    tag_102:\n      pop\n      tag_103\n      0x04\n      dup1\n      calldatasize\n      sub\n      dup2\n      add\n      swap1\n      tag_104\n      swap2\n      swap1\n      tag_105\n      jump\t// in\n    tag_104:\n      tag_106\n      jump\t// in\n    tag_103:\n      mload(0x40)\n      tag_107\n      swap2\n      swap1\n      tag_60\n      jump\t// in\n    tag_107:\n      mload(0x40)\n      dup1\n      swap2\n      sub\n      swap1\n      return\n        /* \"https://github.com/OpenZeppelin/openzeppelin-contracts/blob/master/contracts/token/ERC20/ERC20.sol\":3582:3698  function balanceOf(address account) public view virtual returns (uint256) {... */\n    tag_15:\n      callvalue\n      dup1\n      iszero\n      tag_108\n      jumpi\n      0x00\n      dup1\n      revert\n    tag_108:\n      pop\n      tag_109\n      0x04\n      dup1\n      calldatasize\n      sub\n      dup2\n      add\n      swap1\n      tag_110\n      swap2\n      swap1\n      tag_95\n      jump\t// in\n    tag_110:\n      tag_111\n      jump\t// in\n    tag_109:\n      mload(0x40)\n      tag_112\n      swap2\n      swap1\n      tag_41\n      jump\t// in\n    tag_112:\n      mload(0x40)\n      dup1\n      swap2\n      sub\n      swap1\n      return\n        /* \"bank1.sol\":977:992  uint public ncr */\n    tag_16:\n      callvalue\n      dup1\n      iszero\n      tag_113\n      jumpi\n      0x00\n      dup1\n      revert\n    tag_113:\n      pop\n      tag_114\n      tag_115\n      jump\t// in\n    tag_114:\n      mload(0x40)\n      tag_116\n      swap2\n      swap1\n      tag_41\n      jump\t// in\n    tag_116:\n      mload(0x40)\n      dup1\n      swap2\n      sub\n      swap1\n      return\n        /* \"bank1.sol\":2703:2806  function gettransaction()public view returns(transaction[] memory){... */\n    tag_17:\n      callvalue\n      dup1\n      iszero\n      tag_117\n      jumpi\n      0x00\n      dup1\n      revert\n    tag_117:\n      pop\n      tag_118\n      tag_119\n      jump\t// in\n    tag_118:\n      mload(0x40)\n      tag_120\n      swap2\n      swap1\n      tag_121\n      jump\t// in\n    tag_120:\n      mload(0x40)\n      dup1\n      swap2\n      sub\n      swap1\n      return\n        /* \"https://github.com/OpenZeppelin/openzeppelin-contracts/blob/master/contracts/token/ERC20/ERC20.sol\":2559:2652  function symbol() public view virtual returns (string memory) {... */\n    tag_18:\n      callvalue\n      dup1\n      iszero\n      tag_122\n      jumpi\n      0x00\n      dup1\n      revert\n    tag_122:\n      pop\n      tag_123\n      tag_124\n      jump\t// in\n    tag_123:\n      mload(0x40)\n      tag_125\n      swap2\n      swap1\n      tag_53\n      jump\t// in\n    tag_125:\n      mload(0x40)\n      dup1\n      swap2\n      sub\n      swap1\n      return\n        /* \"bank1.sol\":950:972  person[]public Persons */\n    tag_19:\n      callvalue\n      dup1\n      iszero\n      tag_126\n      jumpi\n      0x00\n      dup1\n      revert\n    tag_126:\n      pop\n      tag_127\n      0x04\n      dup1\n      calldatasize\n      sub\n      dup2\n      add\n      swap1\n      tag_128\n      swap2\n      swap1\n      tag_45\n      jump\t// in\n    tag_128:\n      tag_129\n      jump\t// in\n    tag_127:\n      mload(0x40)\n      tag_130\n      swap6\n      swap5\n      swap4\n      swap3\n      swap2\n      swap1\n      tag_131\n      jump\t// in\n    tag_130:\n      mload(0x40)\n      dup1\n      swap2\n      sub\n      swap1\n      return\n        /* \"bank1.sol\":913:945  transaction[]public transactions */\n    tag_20:\n      callvalue\n      dup1\n      iszero\n      tag_132\n      jumpi\n      0x00\n      dup1\n      revert\n    tag_132:\n      pop\n      tag_133\n      0x04\n      dup1\n      calldatasize\n      sub\n      dup2\n      add\n      swap1\n      tag_134\n      swap2\n      swap1\n      tag_45\n      jump\t// in\n    tag_134:\n      tag_135\n      jump\t// in\n    tag_133:\n      mload(0x40)\n      tag_136\n      swap10\n      swap9\n      swap8\n      swap7\n      swap6\n      swap5\n      swap4\n      swap3\n      swap2\n      swap1\n      tag_137\n      jump\t// in\n    tag_136:\n      mload(0x40)\n      dup1\n      swap2\n      sub\n      swap1\n      return\n        /* \"https://github.com/OpenZeppelin/openzeppelin-contracts/blob/master/contracts/token/ERC20/ERC20.sol\":6695:7188  function decreaseAllowance(address spender, uint256 requestedDecrease) public virtual returns (bool) {... */\n    tag_21:\n      callvalue\n      dup1\n      iszero\n      tag_138\n      jumpi\n      0x00\n      dup1\n      revert\n    tag_138:\n      pop\n      tag_139\n      0x04\n      dup1\n      calldatasize\n      sub\n      dup2\n      add\n      swap1\n      tag_140\n      swap2\n      swap1\n      tag_57\n      jump\t// in\n    tag_140:\n      tag_141\n      jump\t// in\n    tag_139:\n      mload(0x40)\n      tag_142\n      swap2\n      swap1\n      tag_60\n      jump\t// in\n    tag_142:\n      mload(0x40)\n      dup1\n      swap2\n      sub\n      swap1\n      return\n        /* \"bank1.sol\":709:755  mapping(address => uint)public Awaitingpayment */\n    tag_22:\n      callvalue\n      dup1\n      iszero\n      tag_143\n      jumpi\n      0x00\n      dup1\n      revert\n    tag_143:\n      pop\n      tag_144\n      0x04\n      dup1\n      calldatasize\n      sub\n      dup2\n      add\n      swap1\n      tag_145\n      swap2\n      swap1\n      tag_95\n      jump\t// in\n    tag_145:\n      tag_146\n      jump\t// in\n    tag_144:\n      mload(0x40)\n      tag_147\n      swap2\n      swap1\n      tag_41\n      jump\t// in\n    tag_147:\n      mload(0x40)\n      dup1\n      swap2\n      sub\n      swap1\n      return\n        /* \"https://github.com/OpenZeppelin/openzeppelin-contracts/blob/master/contracts/token/ERC20/ERC20.sol\":3894:4074  function transfer(address to, uint256 amount) public virtual returns (bool) {... */\n    tag_23:\n      callvalue\n      dup1\n      iszero\n      tag_148\n      jumpi\n      0x00\n      dup1\n      revert\n    tag_148:\n      pop\n      tag_149\n      0x04\n      dup1\n      calldatasize\n      sub\n      dup2\n      add\n      swap1\n      tag_150\n      swap2\n      swap1\n      tag_57\n      jump\t// in\n    tag_150:\n      tag_151\n      jump\t// in\n    tag_149:\n      mload(0x40)\n      tag_152\n      swap2\n      swap1\n      tag_60\n      jump\t// in\n    tag_152:\n      mload(0x40)\n      dup1\n      swap2\n      sub\n      swap1\n      return\n        /* \"bank1.sol\":2417:2695  function createtransation(address _to , uint _value , bytes memory _data ,bool _Executed, uint _nc , uint _Operator , uint _txIndex , status _st , uint _time )public{... */\n    tag_24:\n      callvalue\n      dup1\n      iszero\n      tag_153\n      jumpi\n      0x00\n      dup1\n      revert\n    tag_153:\n      pop\n      tag_154\n      0x04\n      dup1\n      calldatasize\n      sub\n      dup2\n      add\n      swap1\n      tag_155\n      swap2\n      swap1\n      tag_156\n      jump\t// in\n    tag_155:\n      tag_157\n      jump\t// in\n    tag_154:\n      stop\n        /* \"bank1.sol\":5950:6040  function Balences()public view returns(uint){... */\n    tag_25:\n      callvalue\n      dup1\n      iszero\n      tag_158\n      jumpi\n      0x00\n      dup1\n      revert\n    tag_158:\n      pop\n      tag_159\n      tag_160\n      jump\t// in\n    tag_159:\n      mload(0x40)\n      tag_161\n      swap2\n      swap1\n      tag_41\n      jump\t// in\n    tag_161:\n      mload(0x40)\n      dup1\n      swap2\n      sub\n      swap1\n      return\n        /* \"bank1.sol\":3589:3981  function Depvosit(uint _txIndex)public payable returns(uint){... */\n    tag_26:\n      tag_162\n      0x04\n      dup1\n      calldatasize\n      sub\n      dup2\n      add\n      swap1\n      tag_163\n      swap2\n      swap1\n      tag_45\n      jump\t// in\n    tag_163:\n      tag_164\n      jump\t// in\n    tag_162:\n      mload(0x40)\n      tag_165\n      swap2\n      swap1\n      tag_41\n      jump\t// in\n    tag_165:\n      mload(0x40)\n      dup1\n      swap2\n      sub\n      swap1\n      return\n        /* \"https://github.com/OpenZeppelin/openzeppelin-contracts/blob/master/contracts/token/ERC20/ERC20.sol\":4132:4272  function allowance(address owner, address spender) public view virtual returns (uint256) {... */\n    tag_27:\n      callvalue\n      dup1\n      iszero\n      tag_166\n      jumpi\n      0x00\n      dup1\n      revert\n    tag_166:\n      pop\n      tag_167\n      0x04\n      dup1\n      calldatasize\n      sub\n      dup2\n      add\n      swap1\n      tag_168\n      swap2\n      swap1\n      tag_169\n      jump\t// in\n    tag_168:\n      tag_170\n      jump\t// in\n    tag_167:\n      mload(0x40)\n      tag_171\n      swap2\n      swap1\n      tag_41\n      jump\t// in\n    tag_171:\n      mload(0x40)\n      dup1\n      swap2\n      sub\n      swap1\n      return\n        /* \"bank1.sol\":760:813  mapping(uint =>mapping(address=>bool))public Operator */\n    tag_28:\n      callvalue\n      dup1\n      iszero\n      tag_172\n      jumpi\n      0x00\n      dup1\n      revert\n    tag_172:\n      pop\n      tag_173\n      0x04\n      dup1\n      calldatasize\n      sub\n      dup2\n      add\n      swap1\n      tag_174\n      swap2\n      swap1\n      tag_105\n      jump\t// in\n    tag_174:\n      tag_175\n      jump\t// in\n    tag_173:\n      mload(0x40)\n      tag_176\n      swap2\n      swap1\n      tag_60\n      jump\t// in\n    tag_176:\n      mload(0x40)\n      dup1\n      swap2\n      sub\n      swap1\n      return\n        /* \"bank1.sol\":5015:5610  function Moneytransfer(address sender , uint txindex, address received  , uint amount )public payable returns(uint){... */\n    tag_29:\n      tag_177\n      0x04\n      dup1\n      calldatasize\n      sub\n      dup2\n      add\n      swap1\n      tag_178\n      swap2\n      swap1\n      tag_179\n      jump\t// in\n    tag_178:\n      tag_180\n      jump\t// in\n    tag_177:\n      mload(0x40)\n      tag_181\n      swap2\n      swap1\n      tag_41\n      jump\t// in\n    tag_181:\n      mload(0x40)\n      dup1\n      swap2\n      sub\n      swap1\n      return\n        /* \"bank1.sol\":2812:3581  function CustomerregistrationS( address _to , uint _value , bytes memory _data , uint _nc , uint _Operator , uint txIndex )public payable onlyOwner{... */\n    tag_30:\n      tag_182\n      0x04\n      dup1\n      calldatasize\n      sub\n      dup2\n      add\n      swap1\n      tag_183\n      swap2\n      swap1\n      tag_184\n      jump\t// in\n    tag_183:\n      tag_185\n      jump\t// in\n    tag_182:\n      stop\n        /* \"bank1.sol\":882:905  address[] public owners */\n    tag_46:\n      0x0a\n      dup2\n      dup2\n      sload\n      dup2\n      lt\n      tag_186\n      jumpi\n      0x00\n      dup1\n      revert\n    tag_186:\n      swap1\n      0x00\n      mstore\n      keccak256(0x00, 0x20)\n      add\n      0x00\n      swap2\n      pop\n      sload\n      swap1\n      0x0100\n      exp\n      swap1\n      div\n      0xffffffffffffffffffffffffffffffffffffffff\n      and\n      dup2\n      jump\t// out\n        /* \"https://github.com/OpenZeppelin/openzeppelin-contracts/blob/master/contracts/token/ERC20/ERC20.sol\":2357:2446  function name() public view virtual returns (string memory) {... */\n    tag_51:\n        /* \"https://github.com/OpenZeppelin/openzeppelin-contracts/blob/master/contracts/token/ERC20/ERC20.sol\":2402:2415  string memory */\n      0x60\n        /* \"https://github.com/OpenZeppelin/openzeppelin-contracts/blob/master/contracts/token/ERC20/ERC20.sol\":2434:2439  _name */\n      0x03\n        /* \"https://github.com/OpenZeppelin/openzeppelin-contracts/blob/master/contracts/token/ERC20/ERC20.sol\":2427:2439  return _name */\n      dup1\n      sload\n      tag_189\n      swap1\n      tag_190\n      jump\t// in\n    tag_189:\n      dup1\n      0x1f\n      add\n      0x20\n      dup1\n      swap2\n      div\n      mul\n      0x20\n      add\n      mload(0x40)\n      swap1\n      dup2\n      add\n      0x40\n      mstore\n      dup1\n      swap3\n      swap2\n      swap1\n      dup2\n      dup2\n      mstore\n      0x20\n      add\n      dup3\n      dup1\n      sload\n      tag_191\n      swap1\n      tag_190\n      jump\t// in\n    tag_191:\n      dup1\n      iszero\n      tag_192\n      jumpi\n      dup1\n      0x1f\n      lt\n      tag_193\n      jumpi\n      0x0100\n      dup1\n      dup4\n      sload\n      div\n      mul\n      dup4\n      mstore\n      swap2\n      0x20\n      add\n      swap2\n      jump(tag_192)\n    tag_193:\n      dup3\n      add\n      swap2\n      swap1\n      0x00\n      mstore\n      keccak256(0x00, 0x20)\n      swap1\n    tag_194:\n      dup2\n      sload\n      dup2\n      mstore\n      swap1\n      0x01\n      add\n      swap1\n      0x20\n      add\n      dup1\n      dup4\n      gt\n      tag_194\n      jumpi\n      dup3\n      swap1\n      sub\n      0x1f\n      and\n      dup3\n      add\n      swap2\n    tag_192:\n      pop\n      pop\n      pop\n      pop\n      pop\n      swap1\n      pop\n        /* \"https://github.com/OpenZeppelin/openzeppelin-contracts/blob/master/contracts/token/ERC20/ERC20.sol\":2357:2446  function name() public view virtual returns (string memory) {... */\n      swap1\n      jump\t// out\n        /* \"https://github.com/OpenZeppelin/openzeppelin-contracts/blob/master/contracts/token/ERC20/ERC20.sol\":4580:4768  function approve(address spender, uint256 amount) public virtual returns (bool) {... */\n    tag_58:\n        /* \"https://github.com/OpenZeppelin/openzeppelin-contracts/blob/master/contracts/token/ERC20/ERC20.sol\":4654:4658  bool */\n      0x00\n        /* \"https://github.com/OpenZeppelin/openzeppelin-contracts/blob/master/contracts/token/ERC20/ERC20.sol\":4670:4683  address owner */\n      dup1\n        /* \"https://github.com/OpenZeppelin/openzeppelin-contracts/blob/master/contracts/token/ERC20/ERC20.sol\":4686:4698  _msgSender() */\n      tag_196\n        /* \"https://github.com/OpenZeppelin/openzeppelin-contracts/blob/master/contracts/token/ERC20/ERC20.sol\":4686:4696  _msgSender */\n      tag_197\n        /* \"https://github.com/OpenZeppelin/openzeppelin-contracts/blob/master/contracts/token/ERC20/ERC20.sol\":4686:4698  _msgSender() */\n      jump\t// in\n    tag_196:\n        /* \"https://github.com/OpenZeppelin/openzeppelin-contracts/blob/master/contracts/token/ERC20/ERC20.sol\":4670:4698  address owner = _msgSender() */\n      swap1\n      pop\n        /* \"https://github.com/OpenZeppelin/openzeppelin-contracts/blob/master/contracts/token/ERC20/ERC20.sol\":4708:4740  _approve(owner, spender, amount) */\n      tag_198\n        /* \"https://github.com/OpenZeppelin/openzeppelin-contracts/blob/master/contracts/token/ERC20/ERC20.sol\":4717:4722  owner */\n      dup2\n        /* \"https://github.com/OpenZeppelin/openzeppelin-contracts/blob/master/contracts/token/ERC20/ERC20.sol\":4724:4731  spender */\n      dup6\n        /* \"https://github.com/OpenZeppelin/openzeppelin-contracts/blob/master/contracts/token/ERC20/ERC20.sol\":4733:4739  amount */\n      dup6\n        /* \"https://github.com/OpenZeppelin/openzeppelin-contracts/blob/master/contracts/token/ERC20/ERC20.sol\":4708:4716  _approve */\n      tag_199\n        /* \"https://github.com/OpenZeppelin/openzeppelin-contracts/blob/master/contracts/token/ERC20/ERC20.sol\":4708:4740  _approve(owner, spender, amount) */\n      jump\t// in\n    tag_198:\n        /* \"https://github.com/OpenZeppelin/openzeppelin-contracts/blob/master/contracts/token/ERC20/ERC20.sol\":4757:4761  true */\n      0x01\n        /* \"https://github.com/OpenZeppelin/openzeppelin-contracts/blob/master/contracts/token/ERC20/ERC20.sol\":4750:4761  return true */\n      swap2\n      pop\n      pop\n        /* \"https://github.com/OpenZeppelin/openzeppelin-contracts/blob/master/contracts/token/ERC20/ERC20.sol\":4580:4768  function approve(address spender, uint256 amount) public virtual returns (bool) {... */\n      swap3\n      swap2\n      pop\n      pop\n      jump\t// out\n        /* \"https://github.com/OpenZeppelin/openzeppelin-contracts/blob/master/contracts/token/ERC20/ERC20.sol\":3427:3524  function totalSupply() public view virtual returns (uint256) {... */\n    tag_63:\n        /* \"https://github.com/OpenZeppelin/openzeppelin-contracts/blob/master/contracts/token/ERC20/ERC20.sol\":3479:3486  uint256 */\n      0x00\n        /* \"https://github.com/OpenZeppelin/openzeppelin-contracts/blob/master/contracts/token/ERC20/ERC20.sol\":3505:3517  _totalSupply */\n      sload(0x02)\n        /* \"https://github.com/OpenZeppelin/openzeppelin-contracts/blob/master/contracts/token/ERC20/ERC20.sol\":3498:3517  return _totalSupply */\n      swap1\n      pop\n        /* \"https://github.com/OpenZeppelin/openzeppelin-contracts/blob/master/contracts/token/ERC20/ERC20.sol\":3427:3524  function totalSupply() public view virtual returns (uint256) {... */\n      swap1\n      jump\t// out\n        /* \"bank1.sol\":5617:5942  function getalltransactions(uint _txIndex)public view returns(address , uint , bytes memory , bool ,uint , uint ){... */\n    tag_68:\n        /* \"bank1.sol\":5679:5686  address */\n      0x00\n        /* \"bank1.sol\":5689:5693  uint */\n      dup1\n        /* \"bank1.sol\":5696:5708  bytes memory */\n      0x60\n        /* \"bank1.sol\":5711:5715  bool */\n      0x00\n        /* \"bank1.sol\":5717:5721  uint */\n      dup1\n        /* \"bank1.sol\":5724:5728  uint */\n      0x00\n        /* \"bank1.sol\":5742:5765  transaction storage trx */\n      dup1\n        /* \"bank1.sol\":5768:5780  transactions */\n      0x0b\n        /* \"bank1.sol\":5782:5790  _txIndex */\n      dup9\n        /* \"bank1.sol\":5768:5792  transactions[ _txIndex ] */\n      dup2\n      sload\n      dup2\n      lt\n      tag_202\n      jumpi\n      tag_203\n      tag_204\n      jump\t// in\n    tag_203:\n    tag_202:\n      swap1\n      0x00\n      mstore\n      keccak256(0x00, 0x20)\n      swap1\n      0x09\n      mul\n      add\n        /* \"bank1.sol\":5742:5792  transaction storage trx = transactions[ _txIndex ] */\n      swap1\n      pop\n        /* \"bank1.sol\":5840:5849  2 seconds */\n      0x02\n        /* \"bank1.sol\":5829:5832  trx */\n      dup2\n        /* \"bank1.sol\":5829:5837  trx.time */\n      0x08\n      add\n      sload\n        /* \"bank1.sol\":5811:5826  block.timestamp */\n      timestamp\n        /* \"bank1.sol\":5811:5837  block.timestamp - trx.time */\n      tag_206\n      swap2\n      swap1\n      tag_207\n      jump\t// in\n    tag_206:\n        /* \"bank1.sol\":5811:5849  block.timestamp - trx.time > 2 seconds */\n      gt\n        /* \"bank1.sol\":5803:5850  require(block.timestamp - trx.time > 2 seconds) */\n      tag_208\n      jumpi\n      0x00\n      dup1\n      revert\n    tag_208:\n        /* \"bank1.sol\":5869:5872  trx */\n      dup1\n        /* \"bank1.sol\":5869:5875  trx.to */\n      0x00\n      add\n      0x00\n      swap1\n      sload\n      swap1\n      0x0100\n      exp\n      swap1\n      div\n      0xffffffffffffffffffffffffffffffffffffffff\n      and\n        /* \"bank1.sol\":5878:5881  trx */\n      dup2\n        /* \"bank1.sol\":5878:5887  trx.value */\n      0x01\n      add\n      sload\n        /* \"bank1.sol\":5889:5892  trx */\n      dup3\n        /* \"bank1.sol\":5889:5897  trx.data */\n      0x02\n      add\n        /* \"bank1.sol\":5899:5902  trx */\n      dup4\n        /* \"bank1.sol\":5899:5911  trx.Executed */\n      0x03\n      add\n      0x00\n      swap1\n      sload\n      swap1\n      0x0100\n      exp\n      swap1\n      div\n      0xff\n      and\n        /* \"bank1.sol\":5914:5917  trx */\n      dup5\n        /* \"bank1.sol\":5914:5920  trx.nc */\n      0x04\n      add\n      sload\n        /* \"bank1.sol\":5922:5925  trx */\n      dup6\n        /* \"bank1.sol\":5922:5933  trx.txIndex */\n      0x06\n      add\n      sload\n        /* \"bank1.sol\":5862:5934  return(trx.to , trx.value ,trx.data, trx.Executed , trx.nc, trx.txIndex) */\n      dup4\n      dup1\n      sload\n      tag_209\n      swap1\n      tag_190\n      jump\t// in\n    tag_209:\n      dup1\n      0x1f\n      add\n      0x20\n      dup1\n      swap2\n      div\n      mul\n      0x20\n      add\n      mload(0x40)\n      swap1\n      dup2\n      add\n      0x40\n      mstore\n      dup1\n      swap3\n      swap2\n      swap1\n      dup2\n      dup2\n      mstore\n      0x20\n      add\n      dup3\n      dup1\n      sload\n      tag_210\n      swap1\n      tag_190\n      jump\t// in\n    tag_210:\n      dup1\n      iszero\n      tag_211\n      jumpi\n      dup1\n      0x1f\n      lt\n      tag_212\n      jumpi\n      0x0100\n      dup1\n      dup4\n      sload\n      div\n      mul\n      dup4\n      mstore\n      swap2\n      0x20\n      add\n      swap2\n      jump(tag_211)\n    tag_212:\n      dup3\n      add\n      swap2\n      swap1\n      0x00\n      mstore\n      keccak256(0x00, 0x20)\n      swap1\n    tag_213:\n      dup2\n      sload\n      dup2\n      mstore\n      swap1\n      0x01\n      add\n      swap1\n      0x20\n      add\n      dup1\n      dup4\n      gt\n      tag_213\n      jumpi\n      dup3\n      swap1\n      sub\n      0x1f\n      and\n      dup3\n      add\n      swap2\n    tag_211:\n      pop\n      pop\n      pop\n      pop\n      pop\n      swap4\n      pop\n      swap7\n      pop\n      swap7\n      pop\n      swap7\n      pop\n      swap7\n      pop\n      swap7\n      pop\n      swap7\n      pop\n      pop\n        /* \"bank1.sol\":5617:5942  function getalltransactions(uint _txIndex)public view returns(address , uint , bytes memory , bool ,uint , uint ){... */\n      swap2\n      swap4\n      swap6\n      pop\n      swap2\n      swap4\n      swap6\n      jump\t// out\n        /* \"https://github.com/OpenZeppelin/openzeppelin-contracts/blob/master/contracts/token/ERC20/ERC20.sol\":5330:5577  function transferFrom(address from, address to, uint256 amount) public virtual returns (bool) {... */\n    tag_75:\n        /* \"https://github.com/OpenZeppelin/openzeppelin-contracts/blob/master/contracts/token/ERC20/ERC20.sol\":5418:5422  bool */\n      0x00\n        /* \"https://github.com/OpenZeppelin/openzeppelin-contracts/blob/master/contracts/token/ERC20/ERC20.sol\":5434:5449  address spender */\n      dup1\n        /* \"https://github.com/OpenZeppelin/openzeppelin-contracts/blob/master/contracts/token/ERC20/ERC20.sol\":5452:5464  _msgSender() */\n      tag_215\n        /* \"https://github.com/OpenZeppelin/openzeppelin-contracts/blob/master/contracts/token/ERC20/ERC20.sol\":5452:5462  _msgSender */\n      tag_197\n        /* \"https://github.com/OpenZeppelin/openzeppelin-contracts/blob/master/contracts/token/ERC20/ERC20.sol\":5452:5464  _msgSender() */\n      jump\t// in\n    tag_215:\n        /* \"https://github.com/OpenZeppelin/openzeppelin-contracts/blob/master/contracts/token/ERC20/ERC20.sol\":5434:5464  address spender = _msgSender() */\n      swap1\n      pop\n        /* \"https://github.com/OpenZeppelin/openzeppelin-contracts/blob/master/contracts/token/ERC20/ERC20.sol\":5474:5512  _spendAllowance(from, spender, amount) */\n      tag_216\n        /* \"https://github.com/OpenZeppelin/openzeppelin-contracts/blob/master/contracts/token/ERC20/ERC20.sol\":5490:5494  from */\n      dup6\n        /* \"https://github.com/OpenZeppelin/openzeppelin-contracts/blob/master/contracts/token/ERC20/ERC20.sol\":5496:5503  spender */\n      dup3\n        /* \"https://github.com/OpenZeppelin/openzeppelin-contracts/blob/master/contracts/token/ERC20/ERC20.sol\":5505:5511  amount */\n      dup6\n        /* \"https://github.com/OpenZeppelin/openzeppelin-contracts/blob/master/contracts/token/ERC20/ERC20.sol\":5474:5489  _spendAllowance */\n      tag_217\n        /* \"https://github.com/OpenZeppelin/openzeppelin-contracts/blob/master/contracts/token/ERC20/ERC20.sol\":5474:5512  _spendAllowance(from, spender, amount) */\n      jump\t// in\n    tag_216:\n        /* \"https://github.com/OpenZeppelin/openzeppelin-contracts/blob/master/contracts/token/ERC20/ERC20.sol\":5522:5549  _transfer(from, to, amount) */\n      tag_218\n        /* \"https://github.com/OpenZeppelin/openzeppelin-contracts/blob/master/contracts/token/ERC20/ERC20.sol\":5532:5536  from */\n      dup6\n        /* \"https://github.com/OpenZeppelin/openzeppelin-contracts/blob/master/contracts/token/ERC20/ERC20.sol\":5538:5540  to */\n      dup6\n        /* \"https://github.com/OpenZeppelin/openzeppelin-contracts/blob/master/contracts/token/ERC20/ERC20.sol\":5542:5548  amount */\n      dup6\n        /* \"https://github.com/OpenZeppelin/openzeppelin-contracts/blob/master/contracts/token/ERC20/ERC20.sol\":5522:5531  _transfer */\n      tag_219\n        /* \"https://github.com/OpenZeppelin/openzeppelin-contracts/blob/master/contracts/token/ERC20/ERC20.sol\":5522:5549  _transfer(from, to, amount) */\n      jump\t// in\n    tag_218:\n        /* \"https://github.com/OpenZeppelin/openzeppelin-contracts/blob/master/contracts/token/ERC20/ERC20.sol\":5566:5570  true */\n      0x01\n        /* \"https://github.com/OpenZeppelin/openzeppelin-contracts/blob/master/contracts/token/ERC20/ERC20.sol\":5559:5570  return true */\n      swap2\n      pop\n      pop\n        /* \"https://github.com/OpenZeppelin/openzeppelin-contracts/blob/master/contracts/token/ERC20/ERC20.sol\":5330:5577  function transferFrom(address from, address to, uint256 amount) public virtual returns (bool) {... */\n      swap4\n      swap3\n      pop\n      pop\n      pop\n      jump\t// out\n        /* \"bank1.sol\":4480:5007  function lending(uint amount , uint _txIndex)public payable returns(bool){... */\n    tag_80:\n        /* \"bank1.sol\":4548:4552  bool */\n      0x00\n        /* \"bank1.sol\":4572:4580  Operator */\n      0x08\n        /* \"bank1.sol\":4572:4590  Operator[_txIndex] */\n      0x00\n        /* \"bank1.sol\":4581:4589  _txIndex */\n      dup4\n        /* \"bank1.sol\":4572:4590  Operator[_txIndex] */\n      dup2\n      mstore\n      0x20\n      add\n      swap1\n      dup2\n      mstore\n      0x20\n      add\n      0x00\n      keccak256\n        /* \"bank1.sol\":4572:4602  Operator[_txIndex][msg.sender] */\n      0x00\n        /* \"bank1.sol\":4591:4601  msg.sender */\n      caller\n        /* \"bank1.sol\":4572:4602  Operator[_txIndex][msg.sender] */\n      0xffffffffffffffffffffffffffffffffffffffff\n      and\n      0xffffffffffffffffffffffffffffffffffffffff\n      and\n      dup2\n      mstore\n      0x20\n      add\n      swap1\n      dup2\n      mstore\n      0x20\n      add\n      0x00\n      keccak256\n      0x00\n      swap1\n      sload\n      swap1\n      0x0100\n      exp\n      swap1\n      div\n      0xff\n      and\n        /* \"bank1.sol\":4564:4603  require(Operator[_txIndex][msg.sender]) */\n      tag_221\n      jumpi\n      0x00\n      dup1\n      revert\n    tag_221:\n        /* \"bank1.sol\":4637:4645  10 ether */\n      0x8ac7230489e80000\n        /* \"bank1.sol\":4614:4621  balance */\n      0x06\n        /* \"bank1.sol\":4614:4633  balance[msg.sender] */\n      0x00\n        /* \"bank1.sol\":4622:4632  msg.sender */\n      caller\n        /* \"bank1.sol\":4614:4633  balance[msg.sender] */\n      0xffffffffffffffffffffffffffffffffffffffff\n      and\n      0xffffffffffffffffffffffffffffffffffffffff\n      and\n      dup2\n      mstore\n      0x20\n      add\n      swap1\n      dup2\n      mstore\n      0x20\n      add\n      0x00\n      keccak256\n      0x00\n        /* \"bank1.sol\":4614:4645  balance[msg.sender] += 10 ether */\n      dup3\n      dup3\n      sload\n      tag_222\n      swap2\n      swap1\n      tag_223\n      jump\t// in\n    tag_222:\n      swap3\n      pop\n      pop\n      dup2\n      swap1\n      sstore\n      pop\n        /* \"bank1.sol\":4678:4687  msg.value */\n      callvalue\n        /* \"bank1.sol\":4656:4663  balance */\n      0x06\n        /* \"bank1.sol\":4656:4675  balance[msg.sender] */\n      0x00\n        /* \"bank1.sol\":4664:4674  msg.sender */\n      caller\n        /* \"bank1.sol\":4656:4675  balance[msg.sender] */\n      0xffffffffffffffffffffffffffffffffffffffff\n      and\n      0xffffffffffffffffffffffffffffffffffffffff\n      and\n      dup2\n      mstore\n      0x20\n      add\n      swap1\n      dup2\n      mstore\n      0x20\n      add\n      0x00\n      keccak256\n      0x00\n        /* \"bank1.sol\":4656:4687  balance[msg.sender]+= msg.value */\n      dup3\n      dup3\n      sload\n      tag_224\n      swap2\n      swap1\n      tag_223\n      jump\t// in\n    tag_224:\n      swap3\n      pop\n      pop\n      dup2\n      swap1\n      sstore\n      pop\n        /* \"bank1.sol\":4699:4722  transaction storage trx */\n      0x00\n        /* \"bank1.sol\":4725:4737  transactions */\n      0x0b\n        /* \"bank1.sol\":4739:4747  _txIndex */\n      dup4\n        /* \"bank1.sol\":4725:4749  transactions[ _txIndex ] */\n      dup2\n      sload\n      dup2\n      lt\n      tag_225\n      jumpi\n      tag_226\n      tag_204\n      jump\t// in\n    tag_226:\n    tag_225:\n      swap1\n      0x00\n      mstore\n      keccak256(0x00, 0x20)\n      swap1\n      0x09\n      mul\n      add\n        /* \"bank1.sol\":4699:4749  transaction storage trx = transactions[ _txIndex ] */\n      swap1\n      pop\n        /* \"bank1.sol\":4797:4806  2 seconds */\n      0x02\n        /* \"bank1.sol\":4786:4789  trx */\n      dup2\n        /* \"bank1.sol\":4786:4794  trx.time */\n      0x08\n      add\n      sload\n        /* \"bank1.sol\":4768:4783  block.timestamp */\n      timestamp\n        /* \"bank1.sol\":4768:4794  block.timestamp - trx.time */\n      tag_228\n      swap2\n      swap1\n      tag_207\n      jump\t// in\n    tag_228:\n        /* \"bank1.sol\":4768:4806  block.timestamp - trx.time > 2 seconds */\n      gt\n        /* \"bank1.sol\":4760:4807  require(block.timestamp - trx.time > 2 seconds) */\n      tag_229\n      jumpi\n      0x00\n      dup1\n      revert\n    tag_229:\n        /* \"bank1.sol\":4819:4828  bool sent */\n      0x00\n        /* \"bank1.sol\":4833:4843  msg.sender */\n      caller\n        /* \"bank1.sol\":4833:4848  msg.sender.call */\n      0xffffffffffffffffffffffffffffffffffffffff\n      and\n        /* \"bank1.sol\":4857:4863  amount */\n      dup6\n        /* \"bank1.sol\":4833:4872  msg.sender.call{value : amount}(\"sent\") */\n      mload(0x40)\n      tag_230\n      swap1\n      tag_231\n      jump\t// in\n    tag_230:\n      0x00\n      mload(0x40)\n      dup1\n      dup4\n      sub\n      dup2\n      dup6\n      dup8\n      gas\n      call\n      swap3\n      pop\n      pop\n      pop\n      returndatasize\n      dup1\n      0x00\n      dup2\n      eq\n      tag_234\n      jumpi\n      mload(0x40)\n      swap2\n      pop\n      and(add(returndatasize, 0x3f), not(0x1f))\n      dup3\n      add\n      0x40\n      mstore\n      returndatasize\n      dup3\n      mstore\n      returndatasize\n      0x00\n      0x20\n      dup5\n      add\n      returndatacopy\n      jump(tag_233)\n    tag_234:\n      0x60\n      swap2\n      pop\n    tag_233:\n      pop\n        /* \"bank1.sol\":4818:4872  (bool sent , )=msg.sender.call{value : amount}(\"sent\") */\n      pop\n      swap1\n      pop\n        /* \"bank1.sol\":4892:4896  sent */\n      dup1\n        /* \"bank1.sol\":4883:4920  require( sent , \"Failed to complete\") */\n      tag_235\n      jumpi\n      mload(0x40)\n      0x08c379a000000000000000000000000000000000000000000000000000000000\n      dup2\n      mstore\n      0x04\n      add\n      tag_236\n      swap1\n      tag_237\n      jump\t// in\n    tag_236:\n      mload(0x40)\n      dup1\n      swap2\n      sub\n      swap1\n      revert\n    tag_235:\n        /* \"bank1.sol\":4957:4965  _txIndex */\n      dup4\n        /* \"bank1.sol\":4944:4954  msg.sender */\n      caller\n        /* \"bank1.sol\":4936:4976  Lending(msg.sender , _txIndex , amount ) */\n      0xffffffffffffffffffffffffffffffffffffffff\n      and\n      0x24752d85a5cc733663165f014a85e53ee7233373e03cd03a8759314180a5a680\n        /* \"bank1.sol\":4968:4974  amount */\n      dup8\n        /* \"bank1.sol\":4936:4976  Lending(msg.sender , _txIndex , amount ) */\n      mload(0x40)\n      tag_238\n      swap2\n      swap1\n      tag_41\n      jump\t// in\n    tag_238:\n      mload(0x40)\n      dup1\n      swap2\n      sub\n      swap1\n      log3\n        /* \"bank1.sol\":4994:4998  true */\n      0x01\n        /* \"bank1.sol\":4987:4998  return true */\n      swap3\n      pop\n      pop\n      pop\n        /* \"bank1.sol\":4480:5007  function lending(uint amount , uint _txIndex)public payable returns(bool){... */\n      swap3\n      swap2\n      pop\n      pop\n      jump\t// out\n        /* \"https://github.com/OpenZeppelin/openzeppelin-contracts/blob/master/contracts/token/ERC20/ERC20.sol\":3285:3367  function decimals() public view virtual returns (uint8) {... */\n    tag_84:\n        /* \"https://github.com/OpenZeppelin/openzeppelin-contracts/blob/master/contracts/token/ERC20/ERC20.sol\":3334:3339  uint8 */\n      0x00\n        /* \"https://github.com/OpenZeppelin/openzeppelin-contracts/blob/master/contracts/token/ERC20/ERC20.sol\":3358:3360  18 */\n      0x12\n        /* \"https://github.com/OpenZeppelin/openzeppelin-contracts/blob/master/contracts/token/ERC20/ERC20.sol\":3351:3360  return 18 */\n      swap1\n      pop\n        /* \"https://github.com/OpenZeppelin/openzeppelin-contracts/blob/master/contracts/token/ERC20/ERC20.sol\":3285:3367  function decimals() public view virtual returns (uint8) {... */\n      swap1\n      jump\t// out\n        /* \"https://github.com/OpenZeppelin/openzeppelin-contracts/blob/master/contracts/token/ERC20/ERC20.sol\":5972:6206  function increaseAllowance(address spender, uint256 addedValue) public virtual returns (bool) {... */\n    tag_90:\n        /* \"https://github.com/OpenZeppelin/openzeppelin-contracts/blob/master/contracts/token/ERC20/ERC20.sol\":6060:6064  bool */\n      0x00\n        /* \"https://github.com/OpenZeppelin/openzeppelin-contracts/blob/master/contracts/token/ERC20/ERC20.sol\":6076:6089  address owner */\n      dup1\n        /* \"https://github.com/OpenZeppelin/openzeppelin-contracts/blob/master/contracts/token/ERC20/ERC20.sol\":6092:6104  _msgSender() */\n      tag_241\n        /* \"https://github.com/OpenZeppelin/openzeppelin-contracts/blob/master/contracts/token/ERC20/ERC20.sol\":6092:6102  _msgSender */\n      tag_197\n        /* \"https://github.com/OpenZeppelin/openzeppelin-contracts/blob/master/contracts/token/ERC20/ERC20.sol\":6092:6104  _msgSender() */\n      jump\t// in\n    tag_241:\n        /* \"https://github.com/OpenZeppelin/openzeppelin-contracts/blob/master/contracts/token/ERC20/ERC20.sol\":6076:6104  address owner = _msgSender() */\n      swap1\n      pop\n        /* \"https://github.com/OpenZeppelin/openzeppelin-contracts/blob/master/contracts/token/ERC20/ERC20.sol\":6114:6178  _approve(owner, spender, allowance(owner, spender) + addedValue) */\n      tag_242\n        /* \"https://github.com/OpenZeppelin/openzeppelin-contracts/blob/master/contracts/token/ERC20/ERC20.sol\":6123:6128  owner */\n      dup2\n        /* \"https://github.com/OpenZeppelin/openzeppelin-contracts/blob/master/contracts/token/ERC20/ERC20.sol\":6130:6137  spender */\n      dup6\n        /* \"https://github.com/OpenZeppelin/openzeppelin-contracts/blob/master/contracts/token/ERC20/ERC20.sol\":6167:6177  addedValue */\n      dup6\n        /* \"https://github.com/OpenZeppelin/openzeppelin-contracts/blob/master/contracts/token/ERC20/ERC20.sol\":6139:6164  allowance(owner, spender) */\n      tag_243\n        /* \"https://github.com/OpenZeppelin/openzeppelin-contracts/blob/master/contracts/token/ERC20/ERC20.sol\":6149:6154  owner */\n      dup6\n        /* \"https://github.com/OpenZeppelin/openzeppelin-contracts/blob/master/contracts/token/ERC20/ERC20.sol\":6156:6163  spender */\n      dup10\n        /* \"https://github.com/OpenZeppelin/openzeppelin-contracts/blob/master/contracts/token/ERC20/ERC20.sol\":6139:6148  allowance */\n      tag_170\n        /* \"https://github.com/OpenZeppelin/openzeppelin-contracts/blob/master/contracts/token/ERC20/ERC20.sol\":6139:6164  allowance(owner, spender) */\n      jump\t// in\n    tag_243:\n        /* \"https://github.com/OpenZeppelin/openzeppelin-contracts/blob/master/contracts/token/ERC20/ERC20.sol\":6139:6177  allowance(owner, spender) + addedValue */\n      tag_244\n      swap2\n      swap1\n      tag_223\n      jump\t// in\n    tag_244:\n        /* \"https://github.com/OpenZeppelin/openzeppelin-contracts/blob/master/contracts/token/ERC20/ERC20.sol\":6114:6122  _approve */\n      tag_199\n        /* \"https://github.com/OpenZeppelin/openzeppelin-contracts/blob/master/contracts/token/ERC20/ERC20.sol\":6114:6178  _approve(owner, spender, allowance(owner, spender) + addedValue) */\n      jump\t// in\n    tag_242:\n        /* \"https://github.com/OpenZeppelin/openzeppelin-contracts/blob/master/contracts/token/ERC20/ERC20.sol\":6195:6199  true */\n      0x01\n        /* \"https://github.com/OpenZeppelin/openzeppelin-contracts/blob/master/contracts/token/ERC20/ERC20.sol\":6188:6199  return true */\n      swap2\n      pop\n      pop\n        /* \"https://github.com/OpenZeppelin/openzeppelin-contracts/blob/master/contracts/token/ERC20/ERC20.sol\":5972:6206  function increaseAllowance(address spender, uint256 addedValue) public virtual returns (bool) {... */\n      swap3\n      swap2\n      pop\n      pop\n      jump\t// out\n        /* \"bank1.sol\":623:661  mapping(address => bool)public isowner */\n    tag_96:\n      mstore(0x20, 0x05)\n      dup1\n      0x00\n      mstore\n      keccak256(0x00, 0x40)\n      0x00\n      swap2\n      pop\n      sload\n      swap1\n      0x0100\n      exp\n      swap1\n      div\n      0xff\n      and\n      dup2\n      jump\t// out\n        /* \"bank1.sol\":3989:4472  function Cashwithdrawal(uint amount , uint txIndex)public payable returns(uint){... */\n    tag_100:\n        /* \"bank1.sol\":4063:4067  uint */\n      0x00\n        /* \"bank1.sol\":4098:4105  balance */\n      0x06\n        /* \"bank1.sol\":4098:4117  balance[msg.sender] */\n      0x00\n        /* \"bank1.sol\":4106:4116  msg.sender */\n      caller\n        /* \"bank1.sol\":4098:4117  balance[msg.sender] */\n      0xffffffffffffffffffffffffffffffffffffffff\n      and\n      0xffffffffffffffffffffffffffffffffffffffff\n      and\n      dup2\n      mstore\n      0x20\n      add\n      swap1\n      dup2\n      mstore\n      0x20\n      add\n      0x00\n      keccak256\n      sload\n        /* \"bank1.sol\":4088:4094  amount */\n      dup4\n        /* \"bank1.sol\":4088:4117  amount <= balance[msg.sender] */\n      gt\n      iszero\n        /* \"bank1.sol\":4080:4144  require(amount <= balance[msg.sender], \"Insufficient inventory\") */\n      tag_246\n      jumpi\n      mload(0x40)\n      0x08c379a000000000000000000000000000000000000000000000000000000000\n      dup2\n      mstore\n      0x04\n      add\n      tag_247\n      swap1\n      tag_248\n      jump\t// in\n    tag_247:\n      mload(0x40)\n      dup1\n      swap2\n      sub\n      swap1\n      revert\n    tag_246:\n        /* \"bank1.sol\":4179:4185  amount */\n      dup3\n        /* \"bank1.sol\":4156:4163  balance */\n      0x06\n        /* \"bank1.sol\":4156:4175  balance[msg.sender] */\n      0x00\n        /* \"bank1.sol\":4164:4174  msg.sender */\n      caller\n        /* \"bank1.sol\":4156:4175  balance[msg.sender] */\n      0xffffffffffffffffffffffffffffffffffffffff\n      and\n      0xffffffffffffffffffffffffffffffffffffffff\n      and\n      dup2\n      mstore\n      0x20\n      add\n      swap1\n      dup2\n      mstore\n      0x20\n      add\n      0x00\n      keccak256\n      0x00\n        /* \"bank1.sol\":4156:4185  balance[msg.sender] -= amount */\n      dup3\n      dup3\n      sload\n      tag_249\n      swap2\n      swap1\n      tag_207\n      jump\t// in\n    tag_249:\n      swap3\n      pop\n      pop\n      dup2\n      swap1\n      sstore\n      pop\n        /* \"bank1.sol\":4197:4206  bool sent */\n      0x00\n        /* \"bank1.sol\":4211:4221  msg.sender */\n      caller\n        /* \"bank1.sol\":4211:4226  msg.sender.call */\n      0xffffffffffffffffffffffffffffffffffffffff\n      and\n        /* \"bank1.sol\":4235:4241  amount */\n      dup5\n        /* \"bank1.sol\":4211:4250  msg.sender.call{value : amount}(\"sent\") */\n      mload(0x40)\n      tag_250\n      swap1\n      tag_231\n      jump\t// in\n    tag_250:\n      0x00\n      mload(0x40)\n      dup1\n      dup4\n      sub\n      dup2\n      dup6\n      dup8\n      gas\n      call\n      swap3\n      pop\n      pop\n      pop\n      returndatasize\n      dup1\n      0x00\n      dup2\n      eq\n      tag_253\n      jumpi\n      mload(0x40)\n      swap2\n      pop\n      and(add(returndatasize, 0x3f), not(0x1f))\n      dup3\n      add\n      0x40\n      mstore\n      returndatasize\n      dup3\n      mstore\n      returndatasize\n      0x00\n      0x20\n      dup5\n      add\n      returndatacopy\n      jump(tag_252)\n    tag_253:\n      0x60\n      swap2\n      pop\n    tag_252:\n      pop\n        /* \"bank1.sol\":4196:4250  (bool sent, )= msg.sender.call{value : amount}(\"sent\") */\n      pop\n      swap1\n      pop\n        /* \"bank1.sol\":4271:4275  sent */\n      dup1\n        /* \"bank1.sol\":4262:4299  require( sent , \"Failed to complete\") */\n      tag_254\n      jumpi\n      mload(0x40)\n      0x08c379a000000000000000000000000000000000000000000000000000000000\n      dup2\n      mstore\n      0x04\n      add\n      tag_255\n      swap1\n      tag_237\n      jump\t// in\n    tag_255:\n      mload(0x40)\n      dup1\n      swap2\n      sub\n      swap1\n      revert\n    tag_254:\n        /* \"bank1.sol\":4312:4335  transaction storage trx */\n      0x00\n        /* \"bank1.sol\":4338:4350  transactions */\n      0x0b\n        /* \"bank1.sol\":4352:4359  txIndex */\n      dup5\n        /* \"bank1.sol\":4338:4361  transactions[ txIndex ] */\n      dup2\n      sload\n      dup2\n      lt\n      tag_256\n      jumpi\n      tag_257\n      tag_204\n      jump\t// in\n    tag_257:\n    tag_256:\n      swap1\n      0x00\n      mstore\n      keccak256(0x00, 0x20)\n      swap1\n      0x09\n      mul\n      add\n        /* \"bank1.sol\":4312:4361  transaction storage trx = transactions[ txIndex ] */\n      swap1\n      pop\n        /* \"bank1.sol\":4411:4420  2 seconds */\n      0x02\n        /* \"bank1.sol\":4400:4403  trx */\n      dup2\n        /* \"bank1.sol\":4400:4408  trx.time */\n      0x08\n      add\n      sload\n        /* \"bank1.sol\":4382:4397  block.timestamp */\n      timestamp\n        /* \"bank1.sol\":4382:4408  block.timestamp - trx.time */\n      tag_259\n      swap2\n      swap1\n      tag_207\n      jump\t// in\n    tag_259:\n        /* \"bank1.sol\":4382:4420  block.timestamp - trx.time > 2 seconds */\n      gt\n        /* \"bank1.sol\":4374:4421  require(block.timestamp - trx.time > 2 seconds) */\n      tag_260\n      jumpi\n      0x00\n      dup1\n      revert\n    tag_260:\n        /* \"bank1.sol\":4441:4448  balance */\n      0x06\n        /* \"bank1.sol\":4441:4460  balance[msg.sender] */\n      0x00\n        /* \"bank1.sol\":4449:4459  msg.sender */\n      caller\n        /* \"bank1.sol\":4441:4460  balance[msg.sender] */\n      0xffffffffffffffffffffffffffffffffffffffff\n      and\n      0xffffffffffffffffffffffffffffffffffffffff\n      and\n      dup2\n      mstore\n      0x20\n      add\n      swap1\n      dup2\n      mstore\n      0x20\n      add\n      0x00\n      keccak256\n      sload\n        /* \"bank1.sol\":4434:4461  return(balance[msg.sender]) */\n      swap3\n      pop\n      pop\n      pop\n        /* \"bank1.sol\":3989:4472  function Cashwithdrawal(uint amount , uint txIndex)public payable returns(uint){... */\n      swap3\n      swap2\n      pop\n      pop\n      jump\t// out\n        /* \"bank1.sol\":818:877  mapping(uint => mapping(address => bool))public isconfirmed */\n    tag_106:\n      mstore(0x20, 0x09)\n      dup2\n      0x00\n      mstore\n      mstore(0x20, keccak256(0x00, 0x40))\n      dup1\n      0x00\n      mstore\n      keccak256(0x00, 0x40)\n      0x00\n      swap2\n      pop\n      swap2\n      pop\n      swap1\n      sload\n      swap1\n      0x0100\n      exp\n      swap1\n      div\n      0xff\n      and\n      dup2\n      jump\t// out\n        /* \"https://github.com/OpenZeppelin/openzeppelin-contracts/blob/master/contracts/token/ERC20/ERC20.sol\":3582:3698  function balanceOf(address account) public view virtual returns (uint256) {... */\n    tag_111:\n        /* \"https://github.com/OpenZeppelin/openzeppelin-contracts/blob/master/contracts/token/ERC20/ERC20.sol\":3647:3654  uint256 */\n      0x00\n        /* \"https://github.com/OpenZeppelin/openzeppelin-contracts/blob/master/contracts/token/ERC20/ERC20.sol\":3673:3682  _balances */\n      dup1\n        /* \"https://github.com/OpenZeppelin/openzeppelin-contracts/blob/master/contracts/token/ERC20/ERC20.sol\":3673:3691  _balances[account] */\n      0x00\n        /* \"https://github.com/OpenZeppelin/openzeppelin-contracts/blob/master/contracts/token/ERC20/ERC20.sol\":3683:3690  account */\n      dup4\n        /* \"https://github.com/OpenZeppelin/openzeppelin-contracts/blob/master/contracts/token/ERC20/ERC20.sol\":3673:3691  _balances[account] */\n      0xffffffffffffffffffffffffffffffffffffffff\n      and\n      0xffffffffffffffffffffffffffffffffffffffff\n      and\n      dup2\n      mstore\n      0x20\n      add\n      swap1\n      dup2\n      mstore\n      0x20\n      add\n      0x00\n      keccak256\n      sload\n        /* \"https://github.com/OpenZeppelin/openzeppelin-contracts/blob/master/contracts/token/ERC20/ERC20.sol\":3666:3691  return _balances[account] */\n      swap1\n      pop\n        /* \"https://github.com/OpenZeppelin/openzeppelin-contracts/blob/master/contracts/token/ERC20/ERC20.sol\":3582:3698  function balanceOf(address account) public view virtual returns (uint256) {... */\n      swap2\n      swap1\n      pop\n      jump\t// out\n        /* \"bank1.sol\":977:992  uint public ncr */\n    tag_115:\n      sload(0x0d)\n      dup2\n      jump\t// out\n        /* \"bank1.sol\":2703:2806  function gettransaction()public view returns(transaction[] memory){... */\n    tag_119:\n        /* \"bank1.sol\":2748:2768  transaction[] memory */\n      0x60\n        /* \"bank1.sol\":2785:2797  transactions */\n      0x0b\n        /* \"bank1.sol\":2778:2797  return transactions */\n      dup1\n      sload\n      dup1\n      0x20\n      mul\n      0x20\n      add\n      mload(0x40)\n      swap1\n      dup2\n      add\n      0x40\n      mstore\n      dup1\n      swap3\n      swap2\n      swap1\n      dup2\n      dup2\n      mstore\n      0x20\n      add\n      0x00\n      swap1\n    tag_263:\n      dup3\n      dup3\n      lt\n      iszero\n      tag_264\n      jumpi\n      dup4\n      dup3\n      swap1\n      0x00\n      mstore\n      keccak256(0x00, 0x20)\n      swap1\n      0x09\n      mul\n      add\n      mload(0x40)\n      dup1\n      0x0120\n      add\n      0x40\n      mstore\n      swap1\n      dup2\n      0x00\n      dup3\n      add\n      0x00\n      swap1\n      sload\n      swap1\n      0x0100\n      exp\n      swap1\n      div\n      0xffffffffffffffffffffffffffffffffffffffff\n      and\n      0xffffffffffffffffffffffffffffffffffffffff\n      and\n      0xffffffffffffffffffffffffffffffffffffffff\n      and\n      dup2\n      mstore\n      0x20\n      add\n      0x01\n      dup3\n      add\n      sload\n      dup2\n      mstore\n      0x20\n      add\n      0x02\n      dup3\n      add\n      dup1\n      sload\n      tag_266\n      swap1\n      tag_190\n      jump\t// in\n    tag_266:\n      dup1\n      0x1f\n      add\n      0x20\n      dup1\n      swap2\n      div\n      mul\n      0x20\n      add\n      mload(0x40)\n      swap1\n      dup2\n      add\n      0x40\n      mstore\n      dup1\n      swap3\n      swap2\n      swap1\n      dup2\n      dup2\n      mstore\n      0x20\n      add\n      dup3\n      dup1\n      sload\n      tag_267\n      swap1\n      tag_190\n      jump\t// in\n    tag_267:\n      dup1\n      iszero\n      tag_268\n      jumpi\n      dup1\n      0x1f\n      lt\n      tag_269\n      jumpi\n      0x0100\n      dup1\n      dup4\n      sload\n      div\n      mul\n      dup4\n      mstore\n      swap2\n      0x20\n      add\n      swap2\n      jump(tag_268)\n    tag_269:\n      dup3\n      add\n      swap2\n      swap1\n      0x00\n      mstore\n      keccak256(0x00, 0x20)\n      swap1\n    tag_270:\n      dup2\n      sload\n      dup2\n      mstore\n      swap1\n      0x01\n      add\n      swap1\n      0x20\n      add\n      dup1\n      dup4\n      gt\n      tag_270\n      jumpi\n      dup3\n      swap1\n      sub\n      0x1f\n      and\n      dup3\n      add\n      swap2\n    tag_268:\n      pop\n      pop\n      pop\n      pop\n      pop\n      dup2\n      mstore\n      0x20\n      add\n      0x03\n      dup3\n      add\n      0x00\n      swap1\n      sload\n      swap1\n      0x0100\n      exp\n      swap1\n      div\n      0xff\n      and\n      iszero\n      iszero\n      iszero\n      iszero\n      dup2\n      mstore\n      0x20\n      add\n      0x04\n      dup3\n      add\n      sload\n      dup2\n      mstore\n      0x20\n      add\n      0x05\n      dup3\n      add\n      sload\n      dup2\n      mstore\n      0x20\n      add\n      0x06\n      dup3\n      add\n      sload\n      dup2\n      mstore\n      0x20\n      add\n      0x07\n      dup3\n      add\n      0x00\n      swap1\n      sload\n      swap1\n      0x0100\n      exp\n      swap1\n      div\n      0xff\n      and\n      0x03\n      dup2\n      gt\n      iszero\n      tag_271\n      jumpi\n      tag_272\n      tag_273\n      jump\t// in\n    tag_272:\n    tag_271:\n      0x03\n      dup2\n      gt\n      iszero\n      tag_274\n      jumpi\n      tag_275\n      tag_273\n      jump\t// in\n    tag_275:\n    tag_274:\n      dup2\n      mstore\n      0x20\n      add\n      0x08\n      dup3\n      add\n      sload\n      dup2\n      mstore\n      pop\n      pop\n      dup2\n      mstore\n      0x20\n      add\n      swap1\n      0x01\n      add\n      swap1\n      jump(tag_263)\n    tag_264:\n      pop\n      pop\n      pop\n      pop\n      swap1\n      pop\n        /* \"bank1.sol\":2703:2806  function gettransaction()public view returns(transaction[] memory){... */\n      swap1\n      jump\t// out\n        /* \"https://github.com/OpenZeppelin/openzeppelin-contracts/blob/master/contracts/token/ERC20/ERC20.sol\":2559:2652  function symbol() public view virtual returns (string memory) {... */\n    tag_124:\n        /* \"https://github.com/OpenZeppelin/openzeppelin-contracts/blob/master/contracts/token/ERC20/ERC20.sol\":2606:2619  string memory */\n      0x60\n        /* \"https://github.com/OpenZeppelin/openzeppelin-contracts/blob/master/contracts/token/ERC20/ERC20.sol\":2638:2645  _symbol */\n      0x04\n        /* \"https://github.com/OpenZeppelin/openzeppelin-contracts/blob/master/contracts/token/ERC20/ERC20.sol\":2631:2645  return _symbol */\n      dup1\n      sload\n      tag_277\n      swap1\n      tag_190\n      jump\t// in\n    tag_277:\n      dup1\n      0x1f\n      add\n      0x20\n      dup1\n      swap2\n      div\n      mul\n      0x20\n      add\n      mload(0x40)\n      swap1\n      dup2\n      add\n      0x40\n      mstore\n      dup1\n      swap3\n      swap2\n      swap1\n      dup2\n      dup2\n      mstore\n      0x20\n      add\n      dup3\n      dup1\n      sload\n      tag_278\n      swap1\n      tag_190\n      jump\t// in\n    tag_278:\n      dup1\n      iszero\n      tag_279\n      jumpi\n      dup1\n      0x1f\n      lt\n      tag_280\n      jumpi\n      0x0100\n      dup1\n      dup4\n      sload\n      div\n      mul\n      dup4\n      mstore\n      swap2\n      0x20\n      add\n      swap2\n      jump(tag_279)\n    tag_280:\n      dup3\n      add\n      swap2\n      swap1\n      0x00\n      mstore\n      keccak256(0x00, 0x20)\n      swap1\n    tag_281:\n      dup2\n      sload\n      dup2\n      mstore\n      swap1\n      0x01\n      add\n      swap1\n      0x20\n      add\n      dup1\n      dup4\n      gt\n      tag_281\n      jumpi\n      dup3\n      swap1\n      sub\n      0x1f\n      and\n      dup3\n      add\n      swap2\n    tag_279:\n      pop\n      pop\n      pop\n      pop\n      pop\n      swap1\n      pop\n        /* \"https://github.com/OpenZeppelin/openzeppelin-contracts/blob/master/contracts/token/ERC20/ERC20.sol\":2559:2652  function symbol() public view virtual returns (string memory) {... */\n      swap1\n      jump\t// out\n        /* \"bank1.sol\":950:972  person[]public Persons */\n    tag_129:\n      0x0c\n      dup2\n      dup2\n      sload\n      dup2\n      lt\n      tag_282\n      jumpi\n      0x00\n      dup1\n      revert\n    tag_282:\n      swap1\n      0x00\n      mstore\n      keccak256(0x00, 0x20)\n      swap1\n      0x05\n      mul\n      add\n      0x00\n      swap2\n      pop\n      swap1\n      pop\n      dup1\n      0x00\n      add\n      dup1\n      sload\n      tag_284\n      swap1\n      tag_190\n      jump\t// in\n    tag_284:\n      dup1\n      0x1f\n      add\n      0x20\n      dup1\n      swap2\n      div\n      mul\n      0x20\n      add\n      mload(0x40)\n      swap1\n      dup2\n      add\n      0x40\n      mstore\n      dup1\n      swap3\n      swap2\n      swap1\n      dup2\n      dup2\n      mstore\n      0x20\n      add\n      dup3\n      dup1\n      sload\n      tag_285\n      swap1\n      tag_190\n      jump\t// in\n    tag_285:\n      dup1\n      iszero\n      tag_286\n      jumpi\n      dup1\n      0x1f\n      lt\n      tag_287\n      jumpi\n      0x0100\n      dup1\n      dup4\n      sload\n      div\n      mul\n      dup4\n      mstore\n      swap2\n      0x20\n      add\n      swap2\n      jump(tag_286)\n    tag_287:\n      dup3\n      add\n      swap2\n      swap1\n      0x00\n      mstore\n      keccak256(0x00, 0x20)\n      swap1\n    tag_288:\n      dup2\n      sload\n      dup2\n      mstore\n      swap1\n      0x01\n      add\n      swap1\n      0x20\n      add\n      dup1\n      dup4\n      gt\n      tag_288\n      jumpi\n      dup3\n      swap1\n      sub\n      0x1f\n      and\n      dup3\n      add\n      swap2\n    tag_286:\n      pop\n      pop\n      pop\n      pop\n      pop\n      swap1\n      dup1\n      0x01\n      add\n      sload\n      swap1\n      dup1\n      0x02\n      add\n      sload\n      swap1\n      dup1\n      0x03\n      add\n      0x00\n      swap1\n      sload\n      swap1\n      0x0100\n      exp\n      swap1\n      div\n      0xffffffffffffffffffffffffffffffffffffffff\n      and\n      swap1\n      dup1\n      0x04\n      add\n      sload\n      swap1\n      pop\n      dup6\n      jump\t// out\n        /* \"bank1.sol\":913:945  transaction[]public transactions */\n    tag_135:\n      0x0b\n      dup2\n      dup2\n      sload\n      dup2\n      lt\n      tag_289\n      jumpi\n      0x00\n      dup1\n      revert\n    tag_289:\n      swap1\n      0x00\n      mstore\n      keccak256(0x00, 0x20)\n      swap1\n      0x09\n      mul\n      add\n      0x00\n      swap2\n      pop\n      swap1\n      pop\n      dup1\n      0x00\n      add\n      0x00\n      swap1\n      sload\n      swap1\n      0x0100\n      exp\n      swap1\n      div\n      0xffffffffffffffffffffffffffffffffffffffff\n      and\n      swap1\n      dup1\n      0x01\n      add\n      sload\n      swap1\n      dup1\n      0x02\n      add\n      dup1\n      sload\n      tag_291\n      swap1\n      tag_190\n      jump\t// in\n    tag_291:\n      dup1\n      0x1f\n      add\n      0x20\n      dup1\n      swap2\n      div\n      mul\n      0x20\n      add\n      mload(0x40)\n      swap1\n      dup2\n      add\n      0x40\n      mstore\n      dup1\n      swap3\n      swap2\n      swap1\n      dup2\n      dup2\n      mstore\n      0x20\n      add\n      dup3\n      dup1\n      sload\n      tag_292\n      swap1\n      tag_190\n      jump\t// in\n    tag_292:\n      dup1\n      iszero\n      tag_293\n      jumpi\n      dup1\n      0x1f\n      lt\n      tag_294\n      jumpi\n      0x0100\n      dup1\n      dup4\n      sload\n      div\n      mul\n      dup4\n      mstore\n      swap2\n      0x20\n      add\n      swap2\n      jump(tag_293)\n    tag_294:\n      dup3\n      add\n      swap2\n      swap1\n      0x00\n      mstore\n      keccak256(0x00, 0x20)\n      swap1\n    tag_295:\n      dup2\n      sload\n      dup2\n      mstore\n      swap1\n      0x01\n      add\n      swap1\n      0x20\n      add\n      dup1\n      dup4\n      gt\n      tag_295\n      jumpi\n      dup3\n      swap1\n      sub\n      0x1f\n      and\n      dup3\n      add\n      swap2\n    tag_293:\n      pop\n      pop\n      pop\n      pop\n      pop\n      swap1\n      dup1\n      0x03\n      add\n      0x00\n      swap1\n      sload\n      swap1\n      0x0100\n      exp\n      swap1\n      div\n      0xff\n      and\n      swap1\n      dup1\n      0x04\n      add\n      sload\n      swap1\n      dup1\n      0x05\n      add\n      sload\n      swap1\n      dup1\n      0x06\n      add\n      sload\n      swap1\n      dup1\n      0x07\n      add\n      0x00\n      swap1\n      sload\n      swap1\n      0x0100\n      exp\n      swap1\n      div\n      0xff\n      and\n      swap1\n      dup1\n      0x08\n      add\n      sload\n      swap1\n      pop\n      dup10\n      jump\t// out\n        /* \"https://github.com/OpenZeppelin/openzeppelin-contracts/blob/master/contracts/token/ERC20/ERC20.sol\":6695:7188  function decreaseAllowance(address spender, uint256 requestedDecrease) public virtual returns (bool) {... */\n    tag_141:\n        /* \"https://github.com/OpenZeppelin/openzeppelin-contracts/blob/master/contracts/token/ERC20/ERC20.sol\":6790:6794  bool */\n      0x00\n        /* \"https://github.com/OpenZeppelin/openzeppelin-contracts/blob/master/contracts/token/ERC20/ERC20.sol\":6806:6819  address owner */\n      dup1\n        /* \"https://github.com/OpenZeppelin/openzeppelin-contracts/blob/master/contracts/token/ERC20/ERC20.sol\":6822:6834  _msgSender() */\n      tag_297\n        /* \"https://github.com/OpenZeppelin/openzeppelin-contracts/blob/master/contracts/token/ERC20/ERC20.sol\":6822:6832  _msgSender */\n      tag_197\n        /* \"https://github.com/OpenZeppelin/openzeppelin-contracts/blob/master/contracts/token/ERC20/ERC20.sol\":6822:6834  _msgSender() */\n      jump\t// in\n    tag_297:\n        /* \"https://github.com/OpenZeppelin/openzeppelin-contracts/blob/master/contracts/token/ERC20/ERC20.sol\":6806:6834  address owner = _msgSender() */\n      swap1\n      pop\n        /* \"https://github.com/OpenZeppelin/openzeppelin-contracts/blob/master/contracts/token/ERC20/ERC20.sol\":6844:6868  uint256 currentAllowance */\n      0x00\n        /* \"https://github.com/OpenZeppelin/openzeppelin-contracts/blob/master/contracts/token/ERC20/ERC20.sol\":6871:6896  allowance(owner, spender) */\n      tag_298\n        /* \"https://github.com/OpenZeppelin/openzeppelin-contracts/blob/master/contracts/token/ERC20/ERC20.sol\":6881:6886  owner */\n      dup3\n        /* \"https://github.com/OpenZeppelin/openzeppelin-contracts/blob/master/contracts/token/ERC20/ERC20.sol\":6888:6895  spender */\n      dup7\n        /* \"https://github.com/OpenZeppelin/openzeppelin-contracts/blob/master/contracts/token/ERC20/ERC20.sol\":6871:6880  allowance */\n      tag_170\n        /* \"https://github.com/OpenZeppelin/openzeppelin-contracts/blob/master/contracts/token/ERC20/ERC20.sol\":6871:6896  allowance(owner, spender) */\n      jump\t// in\n    tag_298:\n        /* \"https://github.com/OpenZeppelin/openzeppelin-contracts/blob/master/contracts/token/ERC20/ERC20.sol\":6844:6896  uint256 currentAllowance = allowance(owner, spender) */\n      swap1\n      pop\n        /* \"https://github.com/OpenZeppelin/openzeppelin-contracts/blob/master/contracts/token/ERC20/ERC20.sol\":6929:6946  requestedDecrease */\n      dup4\n        /* \"https://github.com/OpenZeppelin/openzeppelin-contracts/blob/master/contracts/token/ERC20/ERC20.sol\":6910:6926  currentAllowance */\n      dup2\n        /* \"https://github.com/OpenZeppelin/openzeppelin-contracts/blob/master/contracts/token/ERC20/ERC20.sol\":6910:6946  currentAllowance < requestedDecrease */\n      lt\n        /* \"https://github.com/OpenZeppelin/openzeppelin-contracts/blob/master/contracts/token/ERC20/ERC20.sol\":6906:7054  if (currentAllowance < requestedDecrease) {... */\n      iszero\n      tag_299\n      jumpi\n        /* \"https://github.com/OpenZeppelin/openzeppelin-contracts/blob/master/contracts/token/ERC20/ERC20.sol\":6998:7005  spender */\n      dup5\n        /* \"https://github.com/OpenZeppelin/openzeppelin-contracts/blob/master/contracts/token/ERC20/ERC20.sol\":7007:7023  currentAllowance */\n      dup2\n        /* \"https://github.com/OpenZeppelin/openzeppelin-contracts/blob/master/contracts/token/ERC20/ERC20.sol\":7025:7042  requestedDecrease */\n      dup6\n        /* \"https://github.com/OpenZeppelin/openzeppelin-contracts/blob/master/contracts/token/ERC20/ERC20.sol\":6969:7043  ERC20FailedDecreaseAllowance(spender, currentAllowance, requestedDecrease) */\n      mload(0x40)\n      0xa60f030c00000000000000000000000000000000000000000000000000000000\n      dup2\n      mstore\n      0x04\n      add\n      tag_300\n      swap4\n      swap3\n      swap2\n      swap1\n      tag_301\n      jump\t// in\n    tag_300:\n      mload(0x40)\n      dup1\n      swap2\n      sub\n      swap1\n      revert\n        /* \"https://github.com/OpenZeppelin/openzeppelin-contracts/blob/master/contracts/token/ERC20/ERC20.sol\":6906:7054  if (currentAllowance < requestedDecrease) {... */\n    tag_299:\n        /* \"https://github.com/OpenZeppelin/openzeppelin-contracts/blob/master/contracts/token/ERC20/ERC20.sol\":7087:7149  _approve(owner, spender, currentAllowance - requestedDecrease) */\n      tag_302\n        /* \"https://github.com/OpenZeppelin/openzeppelin-contracts/blob/master/contracts/token/ERC20/ERC20.sol\":7096:7101  owner */\n      dup3\n        /* \"https://github.com/OpenZeppelin/openzeppelin-contracts/blob/master/contracts/token/ERC20/ERC20.sol\":7103:7110  spender */\n      dup7\n        /* \"https://github.com/OpenZeppelin/openzeppelin-contracts/blob/master/contracts/token/ERC20/ERC20.sol\":7131:7148  requestedDecrease */\n      dup7\n        /* \"https://github.com/OpenZeppelin/openzeppelin-contracts/blob/master/contracts/token/ERC20/ERC20.sol\":7112:7128  currentAllowance */\n      dup5\n        /* \"https://github.com/OpenZeppelin/openzeppelin-contracts/blob/master/contracts/token/ERC20/ERC20.sol\":7112:7148  currentAllowance - requestedDecrease */\n      sub\n        /* \"https://github.com/OpenZeppelin/openzeppelin-contracts/blob/master/contracts/token/ERC20/ERC20.sol\":7087:7095  _approve */\n      tag_199\n        /* \"https://github.com/OpenZeppelin/openzeppelin-contracts/blob/master/contracts/token/ERC20/ERC20.sol\":7087:7149  _approve(owner, spender, currentAllowance - requestedDecrease) */\n      jump\t// in\n    tag_302:\n        /* \"https://github.com/OpenZeppelin/openzeppelin-contracts/blob/master/contracts/token/ERC20/ERC20.sol\":7177:7181  true */\n      0x01\n        /* \"https://github.com/OpenZeppelin/openzeppelin-contracts/blob/master/contracts/token/ERC20/ERC20.sol\":7170:7181  return true */\n      swap3\n      pop\n      pop\n      pop\n        /* \"https://github.com/OpenZeppelin/openzeppelin-contracts/blob/master/contracts/token/ERC20/ERC20.sol\":6695:7188  function decreaseAllowance(address spender, uint256 requestedDecrease) public virtual returns (bool) {... */\n      swap3\n      swap2\n      pop\n      pop\n      jump\t// out\n        /* \"bank1.sol\":709:755  mapping(address => uint)public Awaitingpayment */\n    tag_146:\n      mstore(0x20, 0x07)\n      dup1\n      0x00\n      mstore\n      keccak256(0x00, 0x40)\n      0x00\n      swap2\n      pop\n      swap1\n      pop\n      sload\n      dup2\n      jump\t// out\n        /* \"https://github.com/OpenZeppelin/openzeppelin-contracts/blob/master/contracts/token/ERC20/ERC20.sol\":3894:4074  function transfer(address to, uint256 amount) public virtual returns (bool) {... */\n    tag_151:\n        /* \"https://github.com/OpenZeppelin/openzeppelin-contracts/blob/master/contracts/token/ERC20/ERC20.sol\":3964:3968  bool */\n      0x00\n        /* \"https://github.com/OpenZeppelin/openzeppelin-contracts/blob/master/contracts/token/ERC20/ERC20.sol\":3980:3993  address owner */\n      dup1\n        /* \"https://github.com/OpenZeppelin/openzeppelin-contracts/blob/master/contracts/token/ERC20/ERC20.sol\":3996:4008  _msgSender() */\n      tag_304\n        /* \"https://github.com/OpenZeppelin/openzeppelin-contracts/blob/master/contracts/token/ERC20/ERC20.sol\":3996:4006  _msgSender */\n      tag_197\n        /* \"https://github.com/OpenZeppelin/openzeppelin-contracts/blob/master/contracts/token/ERC20/ERC20.sol\":3996:4008  _msgSender() */\n      jump\t// in\n    tag_304:\n        /* \"https://github.com/OpenZeppelin/openzeppelin-contracts/blob/master/contracts/token/ERC20/ERC20.sol\":3980:4008  address owner = _msgSender() */\n      swap1\n      pop\n        /* \"https://github.com/OpenZeppelin/openzeppelin-contracts/blob/master/contracts/token/ERC20/ERC20.sol\":4018:4046  _transfer(owner, to, amount) */\n      tag_305\n        /* \"https://github.com/OpenZeppelin/openzeppelin-contracts/blob/master/contracts/token/ERC20/ERC20.sol\":4028:4033  owner */\n      dup2\n        /* \"https://github.com/OpenZeppelin/openzeppelin-contracts/blob/master/contracts/token/ERC20/ERC20.sol\":4035:4037  to */\n      dup6\n        /* \"https://github.com/OpenZeppelin/openzeppelin-contracts/blob/master/contracts/token/ERC20/ERC20.sol\":4039:4045  amount */\n      dup6\n        /* \"https://github.com/OpenZeppelin/openzeppelin-contracts/blob/master/contracts/token/ERC20/ERC20.sol\":4018:4027  _transfer */\n      tag_219\n        /* \"https://github.com/OpenZeppelin/openzeppelin-contracts/blob/master/contracts/token/ERC20/ERC20.sol\":4018:4046  _transfer(owner, to, amount) */\n      jump\t// in\n    tag_305:\n        /* \"https://github.com/OpenZeppelin/openzeppelin-contracts/blob/master/contracts/token/ERC20/ERC20.sol\":4063:4067  true */\n      0x01\n        /* \"https://github.com/OpenZeppelin/openzeppelin-contracts/blob/master/contracts/token/ERC20/ERC20.sol\":4056:4067  return true */\n      swap2\n      pop\n      pop\n        /* \"https://github.com/OpenZeppelin/openzeppelin-contracts/blob/master/contracts/token/ERC20/ERC20.sol\":3894:4074  function transfer(address to, uint256 amount) public virtual returns (bool) {... */\n      swap3\n      swap2\n      pop\n      pop\n      jump\t// out\n        /* \"bank1.sol\":2417:2695  function createtransation(address _to , uint _value , bytes memory _data ,bool _Executed, uint _nc , uint _Operator , uint _txIndex , status _st , uint _time )public{... */\n    tag_157:\n        /* \"bank1.sol\":2585:2597  transactions */\n      0x0b\n        /* \"bank1.sol\":2603:2686  transaction(_to , _value ,_data , _Executed ,_nc, _Operator, _txIndex, _st , _time) */\n      mload(0x40)\n      dup1\n      0x0120\n      add\n      0x40\n      mstore\n      dup1\n        /* \"bank1.sol\":2615:2618  _to */\n      dup12\n        /* \"bank1.sol\":2603:2686  transaction(_to , _value ,_data , _Executed ,_nc, _Operator, _txIndex, _st , _time) */\n      0xffffffffffffffffffffffffffffffffffffffff\n      and\n      dup2\n      mstore\n      0x20\n      add\n        /* \"bank1.sol\":2621:2627  _value */\n      dup11\n        /* \"bank1.sol\":2603:2686  transaction(_to , _value ,_data , _Executed ,_nc, _Operator, _txIndex, _st , _time) */\n      dup2\n      mstore\n      0x20\n      add\n        /* \"bank1.sol\":2629:2634  _data */\n      dup10\n        /* \"bank1.sol\":2603:2686  transaction(_to , _value ,_data , _Executed ,_nc, _Operator, _txIndex, _st , _time) */\n      dup2\n      mstore\n      0x20\n      add\n        /* \"bank1.sol\":2637:2646  _Executed */\n      dup9\n        /* \"bank1.sol\":2603:2686  transaction(_to , _value ,_data , _Executed ,_nc, _Operator, _txIndex, _st , _time) */\n      iszero\n      iszero\n      dup2\n      mstore\n      0x20\n      add\n        /* \"bank1.sol\":2648:2651  _nc */\n      dup8\n        /* \"bank1.sol\":2603:2686  transaction(_to , _value ,_data , _Executed ,_nc, _Operator, _txIndex, _st , _time) */\n      dup2\n      mstore\n      0x20\n      add\n        /* \"bank1.sol\":2653:2662  _Operator */\n      dup7\n        /* \"bank1.sol\":2603:2686  transaction(_to , _value ,_data , _Executed ,_nc, _Operator, _txIndex, _st , _time) */\n      dup2\n      mstore\n      0x20\n      add\n        /* \"bank1.sol\":2664:2672  _txIndex */\n      dup6\n        /* \"bank1.sol\":2603:2686  transaction(_to , _value ,_data , _Executed ,_nc, _Operator, _txIndex, _st , _time) */\n      dup2\n      mstore\n      0x20\n      add\n        /* \"bank1.sol\":2674:2677  _st */\n      dup5\n        /* \"bank1.sol\":2603:2686  transaction(_to , _value ,_data , _Executed ,_nc, _Operator, _txIndex, _st , _time) */\n      0x03\n      dup2\n      gt\n      iszero\n      tag_307\n      jumpi\n      tag_308\n      tag_273\n      jump\t// in\n    tag_308:\n    tag_307:\n      dup2\n      mstore\n      0x20\n      add\n        /* \"bank1.sol\":2680:2685  _time */\n      dup4\n        /* \"bank1.sol\":2603:2686  transaction(_to , _value ,_data , _Executed ,_nc, _Operator, _txIndex, _st , _time) */\n      dup2\n      mstore\n      pop\n        /* \"bank1.sol\":2585:2687  transactions.push(transaction(_to , _value ,_data , _Executed ,_nc, _Operator, _txIndex, _st , _time)) */\n      swap1\n      dup1\n      0x01\n      dup2\n      sload\n      add\n      dup1\n      dup3\n      sstore\n      dup1\n      swap2\n      pop\n      pop\n      0x01\n      swap1\n      sub\n      swap1\n      0x00\n      mstore\n      keccak256(0x00, 0x20)\n      swap1\n      0x09\n      mul\n      add\n      0x00\n      swap1\n      swap2\n      swap1\n      swap2\n      swap1\n      swap2\n      pop\n      0x00\n      dup3\n      add\n      mload\n      dup2\n      0x00\n      add\n      exp(0x0100, 0x00)\n      dup2\n      sload\n      dup2\n      0xffffffffffffffffffffffffffffffffffffffff\n      mul\n      not\n      and\n      swap1\n      dup4\n      0xffffffffffffffffffffffffffffffffffffffff\n      and\n      mul\n      or\n      swap1\n      sstore\n      pop\n      0x20\n      dup3\n      add\n      mload\n      dup2\n      0x01\n      add\n      sstore\n      0x40\n      dup3\n      add\n      mload\n      dup2\n      0x02\n      add\n      swap1\n      dup2\n      tag_310\n      swap2\n      swap1\n      tag_311\n      jump\t// in\n    tag_310:\n      pop\n      0x60\n      dup3\n      add\n      mload\n      dup2\n      0x03\n      add\n      exp(0x0100, 0x00)\n      dup2\n      sload\n      dup2\n      0xff\n      mul\n      not\n      and\n      swap1\n      dup4\n      iszero\n      iszero\n      mul\n      or\n      swap1\n      sstore\n      pop\n      0x80\n      dup3\n      add\n      mload\n      dup2\n      0x04\n      add\n      sstore\n      0xa0\n      dup3\n      add\n      mload\n      dup2\n      0x05\n      add\n      sstore\n      0xc0\n      dup3\n      add\n      mload\n      dup2\n      0x06\n      add\n      sstore\n      0xe0\n      dup3\n      add\n      mload\n      dup2\n      0x07\n      add\n      exp(0x0100, 0x00)\n      dup2\n      sload\n      dup2\n      0xff\n      mul\n      not\n      and\n      swap1\n      dup4\n      0x03\n      dup2\n      gt\n      iszero\n      tag_312\n      jumpi\n      tag_313\n      tag_273\n      jump\t// in\n    tag_313:\n    tag_312:\n      mul\n      or\n      swap1\n      sstore\n      pop\n      0x0100\n      dup3\n      add\n      mload\n      dup2\n      0x08\n      add\n      sstore\n      pop\n      pop\n        /* \"bank1.sol\":2417:2695  function createtransation(address _to , uint _value , bytes memory _data ,bool _Executed, uint _nc , uint _Operator , uint _txIndex , status _st , uint _time )public{... */\n      pop\n      pop\n      pop\n      pop\n      pop\n      pop\n      pop\n      pop\n      pop\n      jump\t// out\n        /* \"bank1.sol\":5950:6040  function Balences()public view returns(uint){... */\n    tag_160:\n        /* \"bank1.sol\":5989:5993  uint */\n      0x00\n        /* \"bank1.sol\":6013:6020  balance */\n      0x06\n        /* \"bank1.sol\":6013:6032  balance[msg.sender] */\n      0x00\n        /* \"bank1.sol\":6021:6031  msg.sender */\n      caller\n        /* \"bank1.sol\":6013:6032  balance[msg.sender] */\n      0xffffffffffffffffffffffffffffffffffffffff\n      and\n      0xffffffffffffffffffffffffffffffffffffffff\n      and\n      dup2\n      mstore\n      0x20\n      add\n      swap1\n      dup2\n      mstore\n      0x20\n      add\n      0x00\n      keccak256\n      sload\n        /* \"bank1.sol\":6006:6032  return balance[msg.sender] */\n      swap1\n      pop\n        /* \"bank1.sol\":5950:6040  function Balences()public view returns(uint){... */\n      swap1\n      jump\t// out\n        /* \"bank1.sol\":3589:3981  function Depvosit(uint _txIndex)public payable returns(uint){... */\n    tag_164:\n        /* \"bank1.sol\":3644:3648  uint */\n      0x00\n        /* \"bank1.sol\":3705:3712  balance */\n      0x06\n        /* \"bank1.sol\":3705:3724  balance[msg.sender] */\n      0x00\n        /* \"bank1.sol\":3713:3723  msg.sender */\n      caller\n        /* \"bank1.sol\":3705:3724  balance[msg.sender] */\n      0xffffffffffffffffffffffffffffffffffffffff\n      and\n      0xffffffffffffffffffffffffffffffffffffffff\n      and\n      dup2\n      mstore\n      0x20\n      add\n      swap1\n      dup2\n      mstore\n      0x20\n      add\n      0x00\n      keccak256\n      sload\n        /* \"bank1.sol\":3691:3700  msg.value */\n      callvalue\n        /* \"bank1.sol\":3669:3676  balance */\n      0x06\n        /* \"bank1.sol\":3669:3688  balance[msg.sender] */\n      0x00\n        /* \"bank1.sol\":3677:3687  msg.sender */\n      caller\n        /* \"bank1.sol\":3669:3688  balance[msg.sender] */\n      0xffffffffffffffffffffffffffffffffffffffff\n      and\n      0xffffffffffffffffffffffffffffffffffffffff\n      and\n      dup2\n      mstore\n      0x20\n      add\n      swap1\n      dup2\n      mstore\n      0x20\n      add\n      0x00\n      keccak256\n      sload\n        /* \"bank1.sol\":3669:3700  balance[msg.sender] + msg.value */\n      tag_316\n      swap2\n      swap1\n      tag_223\n      jump\t// in\n    tag_316:\n        /* \"bank1.sol\":3668:3724  (balance[msg.sender] + msg.value) >= balance[msg.sender] */\n      lt\n      iszero\n        /* \"bank1.sol\":3660:3725  require((balance[msg.sender] + msg.value) >= balance[msg.sender]) */\n      tag_317\n      jumpi\n      0x00\n      dup1\n      revert\n    tag_317:\n        /* \"bank1.sol\":3759:3768  msg.value */\n      callvalue\n        /* \"bank1.sol\":3736:3743  balance */\n      0x06\n        /* \"bank1.sol\":3736:3755  balance[msg.sender] */\n      0x00\n        /* \"bank1.sol\":3744:3754  msg.sender */\n      caller\n        /* \"bank1.sol\":3736:3755  balance[msg.sender] */\n      0xffffffffffffffffffffffffffffffffffffffff\n      and\n      0xffffffffffffffffffffffffffffffffffffffff\n      and\n      dup2\n      mstore\n      0x20\n      add\n      swap1\n      dup2\n      mstore\n      0x20\n      add\n      0x00\n      keccak256\n      0x00\n        /* \"bank1.sol\":3736:3768  balance[msg.sender] += msg.value */\n      dup3\n      dup3\n      sload\n      tag_318\n      swap2\n      swap1\n      tag_223\n      jump\t// in\n    tag_318:\n      swap3\n      pop\n      pop\n      dup2\n      swap1\n      sstore\n      pop\n        /* \"bank1.sol\":3794:3804  msg.sender */\n      caller\n        /* \"bank1.sol\":3785:3818  depvosit(msg.sender , msg.value ) */\n      0xffffffffffffffffffffffffffffffffffffffff\n      and\n      0x65f1df07eef63e0eb903b4a8275b11fda817b71ad87abbd791e95353ac8f86f2\n        /* \"bank1.sol\":3807:3816  msg.value */\n      callvalue\n        /* \"bank1.sol\":3785:3818  depvosit(msg.sender , msg.value ) */\n      mload(0x40)\n      tag_319\n      swap2\n      swap1\n      tag_41\n      jump\t// in\n    tag_319:\n      mload(0x40)\n      dup1\n      swap2\n      sub\n      swap1\n      log2\n        /* \"bank1.sol\":3831:3854  transaction storage trx */\n      0x00\n        /* \"bank1.sol\":3857:3869  transactions */\n      0x0b\n        /* \"bank1.sol\":3871:3879  _txIndex */\n      dup4\n        /* \"bank1.sol\":3857:3881  transactions[ _txIndex ] */\n      dup2\n      sload\n      dup2\n      lt\n      tag_320\n      jumpi\n      tag_321\n      tag_204\n      jump\t// in\n    tag_321:\n    tag_320:\n      swap1\n      0x00\n      mstore\n      keccak256(0x00, 0x20)\n      swap1\n      0x09\n      mul\n      add\n        /* \"bank1.sol\":3831:3881  transaction storage trx = transactions[ _txIndex ] */\n      swap1\n      pop\n        /* \"bank1.sol\":3930:3939  2 seconds */\n      0x02\n        /* \"bank1.sol\":3919:3922  trx */\n      dup2\n        /* \"bank1.sol\":3919:3927  trx.time */\n      0x08\n      add\n      sload\n        /* \"bank1.sol\":3901:3916  block.timestamp */\n      timestamp\n        /* \"bank1.sol\":3901:3927  block.timestamp - trx.time */\n      tag_323\n      swap2\n      swap1\n      tag_207\n      jump\t// in\n    tag_323:\n        /* \"bank1.sol\":3901:3939  block.timestamp - trx.time > 2 seconds */\n      gt\n        /* \"bank1.sol\":3893:3940  require(block.timestamp - trx.time > 2 seconds) */\n      tag_324\n      jumpi\n      0x00\n      dup1\n      revert\n    tag_324:\n        /* \"bank1.sol\":3958:3965  balance */\n      0x06\n        /* \"bank1.sol\":3958:3977  balance[msg.sender] */\n      0x00\n        /* \"bank1.sol\":3966:3976  msg.sender */\n      caller\n        /* \"bank1.sol\":3958:3977  balance[msg.sender] */\n      0xffffffffffffffffffffffffffffffffffffffff\n      and\n      0xffffffffffffffffffffffffffffffffffffffff\n      and\n      dup2\n      mstore\n      0x20\n      add\n      swap1\n      dup2\n      mstore\n      0x20\n      add\n      0x00\n      keccak256\n      sload\n        /* \"bank1.sol\":3951:3977  return balance[msg.sender] */\n      swap2\n      pop\n      pop\n        /* \"bank1.sol\":3589:3981  function Depvosit(uint _txIndex)public payable returns(uint){... */\n      swap2\n      swap1\n      pop\n      jump\t// out\n        /* \"https://github.com/OpenZeppelin/openzeppelin-contracts/blob/master/contracts/token/ERC20/ERC20.sol\":4132:4272  function allowance(address owner, address spender) public view virtual returns (uint256) {... */\n    tag_170:\n        /* \"https://github.com/OpenZeppelin/openzeppelin-contracts/blob/master/contracts/token/ERC20/ERC20.sol\":4212:4219  uint256 */\n      0x00\n        /* \"https://github.com/OpenZeppelin/openzeppelin-contracts/blob/master/contracts/token/ERC20/ERC20.sol\":4238:4249  _allowances */\n      0x01\n        /* \"https://github.com/OpenZeppelin/openzeppelin-contracts/blob/master/contracts/token/ERC20/ERC20.sol\":4238:4256  _allowances[owner] */\n      0x00\n        /* \"https://github.com/OpenZeppelin/openzeppelin-contracts/blob/master/contracts/token/ERC20/ERC20.sol\":4250:4255  owner */\n      dup5\n        /* \"https://github.com/OpenZeppelin/openzeppelin-contracts/blob/master/contracts/token/ERC20/ERC20.sol\":4238:4256  _allowances[owner] */\n      0xffffffffffffffffffffffffffffffffffffffff\n      and\n      0xffffffffffffffffffffffffffffffffffffffff\n      and\n      dup2\n      mstore\n      0x20\n      add\n      swap1\n      dup2\n      mstore\n      0x20\n      add\n      0x00\n      keccak256\n        /* \"https://github.com/OpenZeppelin/openzeppelin-contracts/blob/master/contracts/token/ERC20/ERC20.sol\":4238:4265  _allowances[owner][spender] */\n      0x00\n        /* \"https://github.com/OpenZeppelin/openzeppelin-contracts/blob/master/contracts/token/ERC20/ERC20.sol\":4257:4264  spender */\n      dup4\n        /* \"https://github.com/OpenZeppelin/openzeppelin-contracts/blob/master/contracts/token/ERC20/ERC20.sol\":4238:4265  _allowances[owner][spender] */\n      0xffffffffffffffffffffffffffffffffffffffff\n      and\n      0xffffffffffffffffffffffffffffffffffffffff\n      and\n      dup2\n      mstore\n      0x20\n      add\n      swap1\n      dup2\n      mstore\n      0x20\n      add\n      0x00\n      keccak256\n      sload\n        /* \"https://github.com/OpenZeppelin/openzeppelin-contracts/blob/master/contracts/token/ERC20/ERC20.sol\":4231:4265  return _allowances[owner][spender] */\n      swap1\n      pop\n        /* \"https://github.com/OpenZeppelin/openzeppelin-contracts/blob/master/contracts/token/ERC20/ERC20.sol\":4132:4272  function allowance(address owner, address spender) public view virtual returns (uint256) {... */\n      swap3\n      swap2\n      pop\n      pop\n      jump\t// out\n        /* \"bank1.sol\":760:813  mapping(uint =>mapping(address=>bool))public Operator */\n    tag_175:\n      mstore(0x20, 0x08)\n      dup2\n      0x00\n      mstore\n      mstore(0x20, keccak256(0x00, 0x40))\n      dup1\n      0x00\n      mstore\n      keccak256(0x00, 0x40)\n      0x00\n      swap2\n      pop\n      swap2\n      pop\n      swap1\n      sload\n      swap1\n      0x0100\n      exp\n      swap1\n      div\n      0xff\n      and\n      dup2\n      jump\t// out\n        /* \"bank1.sol\":5015:5610  function Moneytransfer(address sender , uint txindex, address received  , uint amount )public payable returns(uint){... */\n    tag_180:\n        /* \"bank1.sol\":5125:5129  uint */\n      0x00\n        /* \"bank1.sol\":5160:5167  balance */\n      0x06\n        /* \"bank1.sol\":5160:5179  balance[msg.sender] */\n      0x00\n        /* \"bank1.sol\":5168:5178  msg.sender */\n      caller\n        /* \"bank1.sol\":5160:5179  balance[msg.sender] */\n      0xffffffffffffffffffffffffffffffffffffffff\n      and\n      0xffffffffffffffffffffffffffffffffffffffff\n      and\n      dup2\n      mstore\n      0x20\n      add\n      swap1\n      dup2\n      mstore\n      0x20\n      add\n      0x00\n      keccak256\n      sload\n        /* \"bank1.sol\":5150:5156  amount */\n      dup3\n        /* \"bank1.sol\":5150:5179  amount <= balance[msg.sender] */\n      gt\n      iszero\n        /* \"bank1.sol\":5142:5215  require(amount <= balance[msg.sender] , \"Your inventory is insufficient\") */\n      tag_327\n      jumpi\n      mload(0x40)\n      0x08c379a000000000000000000000000000000000000000000000000000000000\n      dup2\n      mstore\n      0x04\n      add\n      tag_328\n      swap1\n      tag_329\n      jump\t// in\n    tag_328:\n      mload(0x40)\n      dup1\n      swap2\n      sub\n      swap1\n      revert\n    tag_327:\n        /* \"bank1.sol\":5227:5236  bool sent */\n      0x00\n        /* \"bank1.sol\":5241:5251  msg.sender */\n      caller\n        /* \"bank1.sol\":5241:5256  msg.sender.call */\n      0xffffffffffffffffffffffffffffffffffffffff\n      and\n        /* \"bank1.sol\":5265:5271  amount */\n      dup4\n        /* \"bank1.sol\":5241:5280  msg.sender.call{value : amount}(\"sent\") */\n      mload(0x40)\n      tag_330\n      swap1\n      tag_231\n      jump\t// in\n    tag_330:\n      0x00\n      mload(0x40)\n      dup1\n      dup4\n      sub\n      dup2\n      dup6\n      dup8\n      gas\n      call\n      swap3\n      pop\n      pop\n      pop\n      returndatasize\n      dup1\n      0x00\n      dup2\n      eq\n      tag_333\n      jumpi\n      mload(0x40)\n      swap2\n      pop\n      and(add(returndatasize, 0x3f), not(0x1f))\n      dup3\n      add\n      0x40\n      mstore\n      returndatasize\n      dup3\n      mstore\n      returndatasize\n      0x00\n      0x20\n      dup5\n      add\n      returndatacopy\n      jump(tag_332)\n    tag_333:\n      0x60\n      swap2\n      pop\n    tag_332:\n      pop\n        /* \"bank1.sol\":5226:5280  (bool sent , )=msg.sender.call{value : amount}(\"sent\") */\n      pop\n      swap1\n      pop\n        /* \"bank1.sol\":5301:5305  sent */\n      dup1\n        /* \"bank1.sol\":5292:5329  require( sent , \"Failed to complete\") */\n      tag_334\n      jumpi\n      mload(0x40)\n      0x08c379a000000000000000000000000000000000000000000000000000000000\n      dup2\n      mstore\n      0x04\n      add\n      tag_335\n      swap1\n      tag_237\n      jump\t// in\n    tag_335:\n      mload(0x40)\n      dup1\n      swap2\n      sub\n      swap1\n      revert\n    tag_334:\n        /* \"bank1.sol\":5340:5363  transaction storage trx */\n      0x00\n        /* \"bank1.sol\":5366:5378  transactions */\n      0x0b\n        /* \"bank1.sol\":5380:5387  txindex */\n      dup7\n        /* \"bank1.sol\":5366:5389  transactions[ txindex ] */\n      dup2\n      sload\n      dup2\n      lt\n      tag_336\n      jumpi\n      tag_337\n      tag_204\n      jump\t// in\n    tag_337:\n    tag_336:\n      swap1\n      0x00\n      mstore\n      keccak256(0x00, 0x20)\n      swap1\n      0x09\n      mul\n      add\n        /* \"bank1.sol\":5340:5389  transaction storage trx = transactions[ txindex ] */\n      swap1\n      pop\n        /* \"bank1.sol\":5437:5446  2 seconds */\n      0x02\n        /* \"bank1.sol\":5426:5429  trx */\n      dup2\n        /* \"bank1.sol\":5426:5434  trx.time */\n      0x08\n      add\n      sload\n        /* \"bank1.sol\":5408:5423  block.timestamp */\n      timestamp\n        /* \"bank1.sol\":5408:5434  block.timestamp - trx.time */\n      tag_339\n      swap2\n      swap1\n      tag_207\n      jump\t// in\n    tag_339:\n        /* \"bank1.sol\":5408:5446  block.timestamp - trx.time > 2 seconds */\n      gt\n        /* \"bank1.sol\":5400:5447  require(block.timestamp - trx.time > 2 seconds) */\n      tag_340\n      jumpi\n      0x00\n      dup1\n      revert\n    tag_340:\n        /* \"bank1.sol\":5482:5488  amount */\n      dup4\n        /* \"bank1.sol\":5459:5466  balance */\n      0x06\n        /* \"bank1.sol\":5459:5478  balance[msg.sender] */\n      0x00\n        /* \"bank1.sol\":5467:5477  msg.sender */\n      caller\n        /* \"bank1.sol\":5459:5478  balance[msg.sender] */\n      0xffffffffffffffffffffffffffffffffffffffff\n      and\n      0xffffffffffffffffffffffffffffffffffffffff\n      and\n      dup2\n      mstore\n      0x20\n      add\n      swap1\n      dup2\n      mstore\n      0x20\n      add\n      0x00\n      keccak256\n      0x00\n        /* \"bank1.sol\":5459:5488  balance[msg.sender] -= amount */\n      dup3\n      dup3\n      sload\n      tag_341\n      swap2\n      swap1\n      tag_207\n      jump\t// in\n    tag_341:\n      swap3\n      pop\n      pop\n      dup2\n      swap1\n      sstore\n      pop\n        /* \"bank1.sol\":5522:5531  msg.value */\n      callvalue\n        /* \"bank1.sol\":5500:5507  balance */\n      0x06\n        /* \"bank1.sol\":5500:5519  balance[msg.sender] */\n      0x00\n        /* \"bank1.sol\":5508:5518  msg.sender */\n      caller\n        /* \"bank1.sol\":5500:5519  balance[msg.sender] */\n      0xffffffffffffffffffffffffffffffffffffffff\n      and\n      0xffffffffffffffffffffffffffffffffffffffff\n      and\n      dup2\n      mstore\n      0x20\n      add\n      swap1\n      dup2\n      mstore\n      0x20\n      add\n      0x00\n      keccak256\n      0x00\n        /* \"bank1.sol\":5500:5531  balance[msg.sender] -=msg.value */\n      dup3\n      dup3\n      sload\n      tag_342\n      swap2\n      swap1\n      tag_207\n      jump\t// in\n    tag_342:\n      swap3\n      pop\n      pop\n      dup2\n      swap1\n      sstore\n      pop\n        /* \"bank1.sol\":5585:5592  txindex */\n      dup6\n        /* \"bank1.sol\":5574:5582  received */\n      dup6\n        /* \"bank1.sol\":5548:5602  moneytransfer(msg.sender ,received , txindex , amount) */\n      0xffffffffffffffffffffffffffffffffffffffff\n      and\n        /* \"bank1.sol\":5562:5572  msg.sender */\n      caller\n        /* \"bank1.sol\":5548:5602  moneytransfer(msg.sender ,received , txindex , amount) */\n      0xffffffffffffffffffffffffffffffffffffffff\n      and\n      0x189409402a897f6d67cc0bd64109d12c62445a3ee7e86a7f7ad3b10bc3f50cfb\n        /* \"bank1.sol\":5595:5601  amount */\n      dup8\n        /* \"bank1.sol\":5548:5602  moneytransfer(msg.sender ,received , txindex , amount) */\n      mload(0x40)\n      tag_343\n      swap2\n      swap1\n      tag_41\n      jump\t// in\n    tag_343:\n      mload(0x40)\n      dup1\n      swap2\n      sub\n      swap1\n      log4\n        /* \"bank1.sol\":5130:5610  {... */\n      pop\n      pop\n        /* \"bank1.sol\":5015:5610  function Moneytransfer(address sender , uint txindex, address received  , uint amount )public payable returns(uint){... */\n      swap5\n      swap4\n      pop\n      pop\n      pop\n      pop\n      jump\t// out\n        /* \"bank1.sol\":2812:3581  function CustomerregistrationS( address _to , uint _value , bytes memory _data , uint _nc , uint _Operator , uint txIndex )public payable onlyOwner{... */\n    tag_185:\n        /* \"bank1.sol\":1936:1943  isowner */\n      0x05\n        /* \"bank1.sol\":1936:1955  isowner[msg.sender] */\n      0x00\n        /* \"bank1.sol\":1944:1954  msg.sender */\n      caller\n        /* \"bank1.sol\":1936:1955  isowner[msg.sender] */\n      0xffffffffffffffffffffffffffffffffffffffff\n      and\n      0xffffffffffffffffffffffffffffffffffffffff\n      and\n      dup2\n      mstore\n      0x20\n      add\n      swap1\n      dup2\n      mstore\n      0x20\n      add\n      0x00\n      keccak256\n      0x00\n      swap1\n      sload\n      swap1\n      0x0100\n      exp\n      swap1\n      div\n      0xff\n      and\n        /* \"bank1.sol\":1928:1956  require(isowner[msg.sender]) */\n      tag_345\n      jumpi\n      0x00\n      dup1\n      revert\n    tag_345:\n        /* \"bank1.sol\":2993:2994  0 */\n      0x00\n        /* \"bank1.sol\":2981:2990  _Operator */\n      dup3\n        /* \"bank1.sol\":2981:2994  _Operator > 0 */\n      gt\n        /* \"bank1.sol\":2972:2995  require( _Operator > 0) */\n      tag_347\n      jumpi\n      0x00\n      dup1\n      revert\n    tag_347:\n        /* \"bank1.sol\":3016:3028  transactions */\n      0x0b\n        /* \"bank1.sol\":3030:3037  txIndex */\n      dup2\n        /* \"bank1.sol\":3016:3039  transactions[ txIndex ] */\n      dup2\n      sload\n      dup2\n      lt\n      tag_348\n      jumpi\n      tag_349\n      tag_204\n      jump\t// in\n    tag_349:\n    tag_348:\n      swap1\n      0x00\n      mstore\n      keccak256(0x00, 0x20)\n      swap1\n      0x09\n      mul\n      add\n        /* \"bank1.sol\":3016:3048  transactions[ txIndex ].Executed */\n      0x03\n      add\n      0x00\n      swap1\n      sload\n      swap1\n      0x0100\n      exp\n      swap1\n      div\n      0xff\n      and\n        /* \"bank1.sol\":3015:3048  !transactions[ txIndex ].Executed */\n      iszero\n        /* \"bank1.sol\":3007:3049  require(!transactions[ txIndex ].Executed) */\n      tag_351\n      jumpi\n      0x00\n      dup1\n      revert\n    tag_351:\n        /* \"bank1.sol\":3060:3083  transaction storage trx */\n      0x00\n        /* \"bank1.sol\":3086:3098  transactions */\n      0x0b\n        /* \"bank1.sol\":3100:3107  txIndex */\n      dup3\n        /* \"bank1.sol\":3086:3109  transactions[ txIndex ] */\n      dup2\n      sload\n      dup2\n      lt\n      tag_352\n      jumpi\n      tag_353\n      tag_204\n      jump\t// in\n    tag_353:\n    tag_352:\n      swap1\n      0x00\n      mstore\n      keccak256(0x00, 0x20)\n      swap1\n      0x09\n      mul\n      add\n        /* \"bank1.sol\":3060:3109  transaction storage trx = transactions[ txIndex ] */\n      swap1\n      pop\n        /* \"bank1.sol\":3157:3166  2 seconds */\n      0x02\n        /* \"bank1.sol\":3146:3149  trx */\n      dup2\n        /* \"bank1.sol\":3146:3154  trx.time */\n      0x08\n      add\n      sload\n        /* \"bank1.sol\":3128:3143  block.timestamp */\n      timestamp\n        /* \"bank1.sol\":3128:3154  block.timestamp - trx.time */\n      tag_355\n      swap2\n      swap1\n      tag_207\n      jump\t// in\n    tag_355:\n        /* \"bank1.sol\":3128:3166  block.timestamp - trx.time > 2 seconds */\n      gt\n        /* \"bank1.sol\":3120:3167  require(block.timestamp - trx.time > 2 seconds) */\n      tag_356\n      jumpi\n      0x00\n      dup1\n      revert\n    tag_356:\n        /* \"bank1.sol\":3179:3192  uint _txIndex */\n      0x00\n        /* \"bank1.sol\":3195:3207  transactions */\n      0x0b\n        /* \"bank1.sol\":3195:3214  transactions.length */\n      dup1\n      sload\n      swap1\n      pop\n        /* \"bank1.sol\":3179:3214  uint _txIndex = transactions.length */\n      swap1\n      pop\n        /* \"bank1.sol\":3226:3238  transactions */\n      0x0b\n        /* \"bank1.sol\":3245:3418  transaction({ to: _to , value : _value , data : _data , Executed : false ,nc : _nc , Operator: _Operator, txIndex : _txIndex , st : status.Register , time: block.timestamp}) */\n      mload(0x40)\n      dup1\n      0x0120\n      add\n      0x40\n      mstore\n      dup1\n        /* \"bank1.sol\":3263:3266  _to */\n      dup11\n        /* \"bank1.sol\":3245:3418  transaction({ to: _to , value : _value , data : _data , Executed : false ,nc : _nc , Operator: _Operator, txIndex : _txIndex , st : status.Register , time: block.timestamp}) */\n      0xffffffffffffffffffffffffffffffffffffffff\n      and\n      dup2\n      mstore\n      0x20\n      add\n        /* \"bank1.sol\":3277:3283  _value */\n      dup10\n        /* \"bank1.sol\":3245:3418  transaction({ to: _to , value : _value , data : _data , Executed : false ,nc : _nc , Operator: _Operator, txIndex : _txIndex , st : status.Register , time: block.timestamp}) */\n      dup2\n      mstore\n      0x20\n      add\n        /* \"bank1.sol\":3293:3298  _data */\n      dup9\n        /* \"bank1.sol\":3245:3418  transaction({ to: _to , value : _value , data : _data , Executed : false ,nc : _nc , Operator: _Operator, txIndex : _txIndex , st : status.Register , time: block.timestamp}) */\n      dup2\n      mstore\n      0x20\n      add\n        /* \"bank1.sol\":3312:3317  false */\n      0x00\n        /* \"bank1.sol\":3245:3418  transaction({ to: _to , value : _value , data : _data , Executed : false ,nc : _nc , Operator: _Operator, txIndex : _txIndex , st : status.Register , time: block.timestamp}) */\n      iszero\n      iszero\n      dup2\n      mstore\n      0x20\n      add\n        /* \"bank1.sol\":3324:3327  _nc */\n      dup8\n        /* \"bank1.sol\":3245:3418  transaction({ to: _to , value : _value , data : _data , Executed : false ,nc : _nc , Operator: _Operator, txIndex : _txIndex , st : status.Register , time: block.timestamp}) */\n      dup2\n      mstore\n      0x20\n      add\n        /* \"bank1.sol\":3340:3349  _Operator */\n      dup7\n        /* \"bank1.sol\":3245:3418  transaction({ to: _to , value : _value , data : _data , Executed : false ,nc : _nc , Operator: _Operator, txIndex : _txIndex , st : status.Register , time: block.timestamp}) */\n      dup2\n      mstore\n      0x20\n      add\n        /* \"bank1.sol\":3361:3369  _txIndex */\n      dup4\n        /* \"bank1.sol\":3245:3418  transaction({ to: _to , value : _value , data : _data , Executed : false ,nc : _nc , Operator: _Operator, txIndex : _txIndex , st : status.Register , time: block.timestamp}) */\n      dup2\n      mstore\n      0x20\n      add\n        /* \"bank1.sol\":3377:3392  status.Register */\n      0x00\n        /* \"bank1.sol\":3245:3418  transaction({ to: _to , value : _value , data : _data , Executed : false ,nc : _nc , Operator: _Operator, txIndex : _txIndex , st : status.Register , time: block.timestamp}) */\n      0x03\n      dup2\n      gt\n      iszero\n      tag_357\n      jumpi\n      tag_358\n      tag_273\n      jump\t// in\n    tag_358:\n    tag_357:\n      dup2\n      mstore\n      0x20\n      add\n        /* \"bank1.sol\":3401:3416  block.timestamp */\n      timestamp\n        /* \"bank1.sol\":3245:3418  transaction({ to: _to , value : _value , data : _data , Executed : false ,nc : _nc , Operator: _Operator, txIndex : _txIndex , st : status.Register , time: block.timestamp}) */\n      dup2\n      mstore\n      pop\n        /* \"bank1.sol\":3226:3419  transactions.push( transaction({ to: _to , value : _value , data : _data , Executed : false ,nc : _nc , Operator: _Operator, txIndex : _txIndex , st : status.Register , time: block.timestamp})) */\n      swap1\n      dup1\n      0x01\n      dup2\n      sload\n      add\n      dup1\n      dup3\n      sstore\n      dup1\n      swap2\n      pop\n      pop\n      0x01\n      swap1\n      sub\n      swap1\n      0x00\n      mstore\n      keccak256(0x00, 0x20)\n      swap1\n      0x09\n      mul\n      add\n      0x00\n      swap1\n      swap2\n      swap1\n      swap2\n      swap1\n      swap2\n      pop\n      0x00\n      dup3\n      add\n      mload\n      dup2\n      0x00\n      add\n      exp(0x0100, 0x00)\n      dup2\n      sload\n      dup2\n      0xffffffffffffffffffffffffffffffffffffffff\n      mul\n      not\n      and\n      swap1\n      dup4\n      0xffffffffffffffffffffffffffffffffffffffff\n      and\n      mul\n      or\n      swap1\n      sstore\n      pop\n      0x20\n      dup3\n      add\n      mload\n      dup2\n      0x01\n      add\n      sstore\n      0x40\n      dup3\n      add\n      mload\n      dup2\n      0x02\n      add\n      swap1\n      dup2\n      tag_360\n      swap2\n      swap1\n      tag_311\n      jump\t// in\n    tag_360:\n      pop\n      0x60\n      dup3\n      add\n      mload\n      dup2\n      0x03\n      add\n      exp(0x0100, 0x00)\n      dup2\n      sload\n      dup2\n      0xff\n      mul\n      not\n      and\n      swap1\n      dup4\n      iszero\n      iszero\n      mul\n      or\n      swap1\n      sstore\n      pop\n      0x80\n      dup3\n      add\n      mload\n      dup2\n      0x04\n      add\n      sstore\n      0xa0\n      dup3\n      add\n      mload\n      dup2\n      0x05\n      add\n      sstore\n      0xc0\n      dup3\n      add\n      mload\n      dup2\n      0x06\n      add\n      sstore\n      0xe0\n      dup3\n      add\n      mload\n      dup2\n      0x07\n      add\n      exp(0x0100, 0x00)\n      dup2\n      sload\n      dup2\n      0xff\n      mul\n      not\n      and\n      swap1\n      dup4\n      0x03\n      dup2\n      gt\n      iszero\n      tag_361\n      jumpi\n      tag_362\n      tag_273\n      jump\t// in\n    tag_362:\n    tag_361:\n      mul\n      or\n      swap1\n      sstore\n      pop\n      0x0100\n      dup3\n      add\n      mload\n      dup2\n      0x08\n      add\n      sstore\n      pop\n      pop\n        /* \"bank1.sol\":3453:3460  2 ether */\n      0x1bc16d674ec80000\n        /* \"bank1.sol\":3431:3438  balance */\n      0x06\n        /* \"bank1.sol\":3431:3450  balance[msg.sender] */\n      0x00\n        /* \"bank1.sol\":3439:3449  msg.sender */\n      caller\n        /* \"bank1.sol\":3431:3450  balance[msg.sender] */\n      0xffffffffffffffffffffffffffffffffffffffff\n      and\n      0xffffffffffffffffffffffffffffffffffffffff\n      and\n      dup2\n      mstore\n      0x20\n      add\n      swap1\n      dup2\n      mstore\n      0x20\n      add\n      0x00\n      keccak256\n      0x00\n        /* \"bank1.sol\":3431:3460  balance[msg.sender] +=2 ether */\n      dup3\n      dup3\n      sload\n      tag_363\n      swap2\n      swap1\n      tag_223\n      jump\t// in\n    tag_363:\n      swap3\n      pop\n      pop\n      dup2\n      swap1\n      sstore\n      pop\n        /* \"bank1.sol\":3503:3507  true */\n      0x01\n        /* \"bank1.sol\":3472:3480  Operator */\n      0x08\n        /* \"bank1.sol\":3472:3489  Operator[txIndex] */\n      0x00\n        /* \"bank1.sol\":3481:3488  txIndex */\n      dup6\n        /* \"bank1.sol\":3472:3489  Operator[txIndex] */\n      dup2\n      mstore\n      0x20\n      add\n      swap1\n      dup2\n      mstore\n      0x20\n      add\n      0x00\n      keccak256\n        /* \"bank1.sol\":3472:3501  Operator[txIndex][msg.sender] */\n      0x00\n        /* \"bank1.sol\":3490:3500  msg.sender */\n      caller\n        /* \"bank1.sol\":3472:3501  Operator[txIndex][msg.sender] */\n      0xffffffffffffffffffffffffffffffffffffffff\n      and\n      0xffffffffffffffffffffffffffffffffffffffff\n      and\n      dup2\n      mstore\n      0x20\n      add\n      swap1\n      dup2\n      mstore\n      0x20\n      add\n      0x00\n      keccak256\n      0x00\n        /* \"bank1.sol\":3472:3507  Operator[txIndex][msg.sender]= true */\n      0x0100\n      exp\n      dup2\n      sload\n      dup2\n      0xff\n      mul\n      not\n      and\n      swap1\n      dup4\n      iszero\n      iszero\n      mul\n      or\n      swap1\n      sstore\n      pop\n        /* \"bank1.sol\":3565:3572  txIndex */\n      dup3\n        /* \"bank1.sol\":3559:3562  _to */\n      dup9\n        /* \"bank1.sol\":3524:3573  Customerregistration( msg.sender , _to , txIndex) */\n      0xffffffffffffffffffffffffffffffffffffffff\n      and\n        /* \"bank1.sol\":3546:3556  msg.sender */\n      caller\n        /* \"bank1.sol\":3524:3573  Customerregistration( msg.sender , _to , txIndex) */\n      0xffffffffffffffffffffffffffffffffffffffff\n      and\n      0x3a7e667d1f3e3931c98c8b2da3d29bba1ea247441cb2573a4ddf9c77eef7cd13\n      mload(0x40)\n      mload(0x40)\n      dup1\n      swap2\n      sub\n      swap1\n      log4\n        /* \"bank1.sol\":2959:3581  {... */\n      pop\n      pop\n        /* \"bank1.sol\":2812:3581  function CustomerregistrationS( address _to , uint _value , bytes memory _data , uint _nc , uint _Operator , uint txIndex )public payable onlyOwner{... */\n      pop\n      pop\n      pop\n      pop\n      pop\n      pop\n      jump\t// out\n        /* \"https://github.com/OpenZeppelin/openzeppelin-contracts/blob/master/contracts/utils/Context.sol\":641:737  function _msgSender() internal view virtual returns (address) {... */\n    tag_197:\n        /* \"https://github.com/OpenZeppelin/openzeppelin-contracts/blob/master/contracts/utils/Context.sol\":694:701  address */\n      0x00\n        /* \"https://github.com/OpenZeppelin/openzeppelin-contracts/blob/master/contracts/utils/Context.sol\":720:730  msg.sender */\n      caller\n        /* \"https://github.com/OpenZeppelin/openzeppelin-contracts/blob/master/contracts/utils/Context.sol\":713:730  return msg.sender */\n      swap1\n      pop\n        /* \"https://github.com/OpenZeppelin/openzeppelin-contracts/blob/master/contracts/utils/Context.sol\":641:737  function _msgSender() internal view virtual returns (address) {... */\n      swap1\n      jump\t// out\n        /* \"https://github.com/OpenZeppelin/openzeppelin-contracts/blob/master/contracts/token/ERC20/ERC20.sol\":10659:11039  function _approve(address owner, address spender, uint256 amount) internal virtual {... */\n    tag_199:\n        /* \"https://github.com/OpenZeppelin/openzeppelin-contracts/blob/master/contracts/token/ERC20/ERC20.sol\":10773:10774  0 */\n      0x00\n        /* \"https://github.com/OpenZeppelin/openzeppelin-contracts/blob/master/contracts/token/ERC20/ERC20.sol\":10756:10775  owner == address(0) */\n      0xffffffffffffffffffffffffffffffffffffffff\n      and\n        /* \"https://github.com/OpenZeppelin/openzeppelin-contracts/blob/master/contracts/token/ERC20/ERC20.sol\":10756:10761  owner */\n      dup4\n        /* \"https://github.com/OpenZeppelin/openzeppelin-contracts/blob/master/contracts/token/ERC20/ERC20.sol\":10756:10775  owner == address(0) */\n      0xffffffffffffffffffffffffffffffffffffffff\n      and\n      sub\n        /* \"https://github.com/OpenZeppelin/openzeppelin-contracts/blob/master/contracts/token/ERC20/ERC20.sol\":10752:10841  if (owner == address(0)) {... */\n      tag_366\n      jumpi\n        /* \"https://github.com/OpenZeppelin/openzeppelin-contracts/blob/master/contracts/token/ERC20/ERC20.sol\":10827:10828  0 */\n      0x00\n        /* \"https://github.com/OpenZeppelin/openzeppelin-contracts/blob/master/contracts/token/ERC20/ERC20.sol\":10798:10830  ERC20InvalidApprover(address(0)) */\n      mload(0x40)\n      0xe602df0500000000000000000000000000000000000000000000000000000000\n      dup2\n      mstore\n      0x04\n      add\n      tag_367\n      swap2\n      swap1\n      tag_48\n      jump\t// in\n    tag_367:\n      mload(0x40)\n      dup1\n      swap2\n      sub\n      swap1\n      revert\n        /* \"https://github.com/OpenZeppelin/openzeppelin-contracts/blob/master/contracts/token/ERC20/ERC20.sol\":10752:10841  if (owner == address(0)) {... */\n    tag_366:\n        /* \"https://github.com/OpenZeppelin/openzeppelin-contracts/blob/master/contracts/token/ERC20/ERC20.sol\":10873:10874  0 */\n      0x00\n        /* \"https://github.com/OpenZeppelin/openzeppelin-contracts/blob/master/contracts/token/ERC20/ERC20.sol\":10854:10875  spender == address(0) */\n      0xffffffffffffffffffffffffffffffffffffffff\n      and\n        /* \"https://github.com/OpenZeppelin/openzeppelin-contracts/blob/master/contracts/token/ERC20/ERC20.sol\":10854:10861  spender */\n      dup3\n        /* \"https://github.com/OpenZeppelin/openzeppelin-contracts/blob/master/contracts/token/ERC20/ERC20.sol\":10854:10875  spender == address(0) */\n      0xffffffffffffffffffffffffffffffffffffffff\n      and\n      sub\n        /* \"https://github.com/OpenZeppelin/openzeppelin-contracts/blob/master/contracts/token/ERC20/ERC20.sol\":10850:10940  if (spender == address(0)) {... */\n      tag_368\n      jumpi\n        /* \"https://github.com/OpenZeppelin/openzeppelin-contracts/blob/master/contracts/token/ERC20/ERC20.sol\":10926:10927  0 */\n      0x00\n        /* \"https://github.com/OpenZeppelin/openzeppelin-contracts/blob/master/contracts/token/ERC20/ERC20.sol\":10898:10929  ERC20InvalidSpender(address(0)) */\n      mload(0x40)\n      0x94280d6200000000000000000000000000000000000000000000000000000000\n      dup2\n      mstore\n      0x04\n      add\n      tag_369\n      swap2\n      swap1\n      tag_48\n      jump\t// in\n    tag_369:\n      mload(0x40)\n      dup1\n      swap2\n      sub\n      swap1\n      revert\n        /* \"https://github.com/OpenZeppelin/openzeppelin-contracts/blob/master/contracts/token/ERC20/ERC20.sol\":10850:10940  if (spender == address(0)) {... */\n    tag_368:\n        /* \"https://github.com/OpenZeppelin/openzeppelin-contracts/blob/master/contracts/token/ERC20/ERC20.sol\":10979:10985  amount */\n      dup1\n        /* \"https://github.com/OpenZeppelin/openzeppelin-contracts/blob/master/contracts/token/ERC20/ERC20.sol\":10949:10960  _allowances */\n      0x01\n        /* \"https://github.com/OpenZeppelin/openzeppelin-contracts/blob/master/contracts/token/ERC20/ERC20.sol\":10949:10967  _allowances[owner] */\n      0x00\n        /* \"https://github.com/OpenZeppelin/openzeppelin-contracts/blob/master/contracts/token/ERC20/ERC20.sol\":10961:10966  owner */\n      dup6\n        /* \"https://github.com/OpenZeppelin/openzeppelin-contracts/blob/master/contracts/token/ERC20/ERC20.sol\":10949:10967  _allowances[owner] */\n      0xffffffffffffffffffffffffffffffffffffffff\n      and\n      0xffffffffffffffffffffffffffffffffffffffff\n      and\n      dup2\n      mstore\n      0x20\n      add\n      swap1\n      dup2\n      mstore\n      0x20\n      add\n      0x00\n      keccak256\n        /* \"https://github.com/OpenZeppelin/openzeppelin-contracts/blob/master/contracts/token/ERC20/ERC20.sol\":10949:10976  _allowances[owner][spender] */\n      0x00\n        /* \"https://github.com/OpenZeppelin/openzeppelin-contracts/blob/master/contracts/token/ERC20/ERC20.sol\":10968:10975  spender */\n      dup5\n        /* \"https://github.com/OpenZeppelin/openzeppelin-contracts/blob/master/contracts/token/ERC20/ERC20.sol\":10949:10976  _allowances[owner][spender] */\n      0xffffffffffffffffffffffffffffffffffffffff\n      and\n      0xffffffffffffffffffffffffffffffffffffffff\n      and\n      dup2\n      mstore\n      0x20\n      add\n      swap1\n      dup2\n      mstore\n      0x20\n      add\n      0x00\n      keccak256\n        /* \"https://github.com/OpenZeppelin/openzeppelin-contracts/blob/master/contracts/token/ERC20/ERC20.sol\":10949:10985  _allowances[owner][spender] = amount */\n      dup2\n      swap1\n      sstore\n      pop\n        /* \"https://github.com/OpenZeppelin/openzeppelin-contracts/blob/master/contracts/token/ERC20/ERC20.sol\":11016:11023  spender */\n      dup2\n        /* \"https://github.com/OpenZeppelin/openzeppelin-contracts/blob/master/contracts/token/ERC20/ERC20.sol\":11000:11032  Approval(owner, spender, amount) */\n      0xffffffffffffffffffffffffffffffffffffffff\n      and\n        /* \"https://github.com/OpenZeppelin/openzeppelin-contracts/blob/master/contracts/token/ERC20/ERC20.sol\":11009:11014  owner */\n      dup4\n        /* \"https://github.com/OpenZeppelin/openzeppelin-contracts/blob/master/contracts/token/ERC20/ERC20.sol\":11000:11032  Approval(owner, spender, amount) */\n      0xffffffffffffffffffffffffffffffffffffffff\n      and\n      0x8c5be1e5ebec7d5bd14f71427d1e84f3dd0314c0f7b2291e5b200ac8c7c3b925\n        /* \"https://github.com/OpenZeppelin/openzeppelin-contracts/blob/master/contracts/token/ERC20/ERC20.sol\":11025:11031  amount */\n      dup4\n        /* \"https://github.com/OpenZeppelin/openzeppelin-contracts/blob/master/contracts/token/ERC20/ERC20.sol\":11000:11032  Approval(owner, spender, amount) */\n      mload(0x40)\n      tag_370\n      swap2\n      swap1\n      tag_41\n      jump\t// in\n    tag_370:\n      mload(0x40)\n      dup1\n      swap2\n      sub\n      swap1\n      log3\n        /* \"https://github.com/OpenZeppelin/openzeppelin-contracts/blob/master/contracts/token/ERC20/ERC20.sol\":10659:11039  function _approve(address owner, address spender, uint256 amount) internal virtual {... */\n      pop\n      pop\n      pop\n      jump\t// out\n        /* \"https://github.com/OpenZeppelin/openzeppelin-contracts/blob/master/contracts/token/ERC20/ERC20.sol\":11320:11794  function _spendAllowance(address owner, address spender, uint256 amount) internal virtual {... */\n    tag_217:\n        /* \"https://github.com/OpenZeppelin/openzeppelin-contracts/blob/master/contracts/token/ERC20/ERC20.sol\":11420:11444  uint256 currentAllowance */\n      0x00\n        /* \"https://github.com/OpenZeppelin/openzeppelin-contracts/blob/master/contracts/token/ERC20/ERC20.sol\":11447:11472  allowance(owner, spender) */\n      tag_372\n        /* \"https://github.com/OpenZeppelin/openzeppelin-contracts/blob/master/contracts/token/ERC20/ERC20.sol\":11457:11462  owner */\n      dup5\n        /* \"https://github.com/OpenZeppelin/openzeppelin-contracts/blob/master/contracts/token/ERC20/ERC20.sol\":11464:11471  spender */\n      dup5\n        /* \"https://github.com/OpenZeppelin/openzeppelin-contracts/blob/master/contracts/token/ERC20/ERC20.sol\":11447:11456  allowance */\n      tag_170\n        /* \"https://github.com/OpenZeppelin/openzeppelin-contracts/blob/master/contracts/token/ERC20/ERC20.sol\":11447:11472  allowance(owner, spender) */\n      jump\t// in\n    tag_372:\n        /* \"https://github.com/OpenZeppelin/openzeppelin-contracts/blob/master/contracts/token/ERC20/ERC20.sol\":11420:11472  uint256 currentAllowance = allowance(owner, spender) */\n      swap1\n      pop\n        /* \"https://github.com/OpenZeppelin/openzeppelin-contracts/blob/master/contracts/token/ERC20/ERC20.sol\":11506:11523  type(uint256).max */\n      0xffffffffffffffffffffffffffffffffffffffffffffffffffffffffffffffff\n        /* \"https://github.com/OpenZeppelin/openzeppelin-contracts/blob/master/contracts/token/ERC20/ERC20.sol\":11486:11502  currentAllowance */\n      dup2\n        /* \"https://github.com/OpenZeppelin/openzeppelin-contracts/blob/master/contracts/token/ERC20/ERC20.sol\":11486:11523  currentAllowance != type(uint256).max */\n      eq\n        /* \"https://github.com/OpenZeppelin/openzeppelin-contracts/blob/master/contracts/token/ERC20/ERC20.sol\":11482:11788  if (currentAllowance != type(uint256).max) {... */\n      tag_373\n      jumpi\n        /* \"https://github.com/OpenZeppelin/openzeppelin-contracts/blob/master/contracts/token/ERC20/ERC20.sol\":11562:11568  amount */\n      dup2\n        /* \"https://github.com/OpenZeppelin/openzeppelin-contracts/blob/master/contracts/token/ERC20/ERC20.sol\":11543:11559  currentAllowance */\n      dup2\n        /* \"https://github.com/OpenZeppelin/openzeppelin-contracts/blob/master/contracts/token/ERC20/ERC20.sol\":11543:11568  currentAllowance < amount */\n      lt\n        /* \"https://github.com/OpenZeppelin/openzeppelin-contracts/blob/master/contracts/token/ERC20/ERC20.sol\":11539:11671  if (currentAllowance < amount) {... */\n      iszero\n      tag_374\n      jumpi\n        /* \"https://github.com/OpenZeppelin/openzeppelin-contracts/blob/master/contracts/token/ERC20/ERC20.sol\":11622:11629  spender */\n      dup3\n        /* \"https://github.com/OpenZeppelin/openzeppelin-contracts/blob/master/contracts/token/ERC20/ERC20.sol\":11631:11647  currentAllowance */\n      dup2\n        /* \"https://github.com/OpenZeppelin/openzeppelin-contracts/blob/master/contracts/token/ERC20/ERC20.sol\":11649:11655  amount */\n      dup4\n        /* \"https://github.com/OpenZeppelin/openzeppelin-contracts/blob/master/contracts/token/ERC20/ERC20.sol\":11595:11656  ERC20InsufficientAllowance(spender, currentAllowance, amount) */\n      mload(0x40)\n      0xfb8f41b200000000000000000000000000000000000000000000000000000000\n      dup2\n      mstore\n      0x04\n      add\n      tag_375\n      swap4\n      swap3\n      swap2\n      swap1\n      tag_301\n      jump\t// in\n    tag_375:\n      mload(0x40)\n      dup1\n      swap2\n      sub\n      swap1\n      revert\n        /* \"https://github.com/OpenZeppelin/openzeppelin-contracts/blob/master/contracts/token/ERC20/ERC20.sol\":11539:11671  if (currentAllowance < amount) {... */\n    tag_374:\n        /* \"https://github.com/OpenZeppelin/openzeppelin-contracts/blob/master/contracts/token/ERC20/ERC20.sol\":11712:11763  _approve(owner, spender, currentAllowance - amount) */\n      tag_376\n        /* \"https://github.com/OpenZeppelin/openzeppelin-contracts/blob/master/contracts/token/ERC20/ERC20.sol\":11721:11726  owner */\n      dup5\n        /* \"https://github.com/OpenZeppelin/openzeppelin-contracts/blob/master/contracts/token/ERC20/ERC20.sol\":11728:11735  spender */\n      dup5\n        /* \"https://github.com/OpenZeppelin/openzeppelin-contracts/blob/master/contracts/token/ERC20/ERC20.sol\":11756:11762  amount */\n      dup5\n        /* \"https://github.com/OpenZeppelin/openzeppelin-contracts/blob/master/contracts/token/ERC20/ERC20.sol\":11737:11753  currentAllowance */\n      dup5\n        /* \"https://github.com/OpenZeppelin/openzeppelin-contracts/blob/master/contracts/token/ERC20/ERC20.sol\":11737:11762  currentAllowance - amount */\n      sub\n        /* \"https://github.com/OpenZeppelin/openzeppelin-contracts/blob/master/contracts/token/ERC20/ERC20.sol\":11712:11720  _approve */\n      tag_199\n        /* \"https://github.com/OpenZeppelin/openzeppelin-contracts/blob/master/contracts/token/ERC20/ERC20.sol\":11712:11763  _approve(owner, spender, currentAllowance - amount) */\n      jump\t// in\n    tag_376:\n        /* \"https://github.com/OpenZeppelin/openzeppelin-contracts/blob/master/contracts/token/ERC20/ERC20.sol\":11482:11788  if (currentAllowance != type(uint256).max) {... */\n    tag_373:\n        /* \"https://github.com/OpenZeppelin/openzeppelin-contracts/blob/master/contracts/token/ERC20/ERC20.sol\":11410:11794  {... */\n      pop\n        /* \"https://github.com/OpenZeppelin/openzeppelin-contracts/blob/master/contracts/token/ERC20/ERC20.sol\":11320:11794  function _spendAllowance(address owner, address spender, uint256 amount) internal virtual {... */\n      pop\n      pop\n      pop\n      jump\t// out\n        /* \"https://github.com/OpenZeppelin/openzeppelin-contracts/blob/master/contracts/token/ERC20/ERC20.sol\":7553:7855  function _transfer(address from, address to, uint256 amount) internal {... */\n    tag_219:\n        /* \"https://github.com/OpenZeppelin/openzeppelin-contracts/blob/master/contracts/token/ERC20/ERC20.sol\":7653:7654  0 */\n      0x00\n        /* \"https://github.com/OpenZeppelin/openzeppelin-contracts/blob/master/contracts/token/ERC20/ERC20.sol\":7637:7655  from == address(0) */\n      0xffffffffffffffffffffffffffffffffffffffff\n      and\n        /* \"https://github.com/OpenZeppelin/openzeppelin-contracts/blob/master/contracts/token/ERC20/ERC20.sol\":7637:7641  from */\n      dup4\n        /* \"https://github.com/OpenZeppelin/openzeppelin-contracts/blob/master/contracts/token/ERC20/ERC20.sol\":7637:7655  from == address(0) */\n      0xffffffffffffffffffffffffffffffffffffffff\n      and\n      sub\n        /* \"https://github.com/OpenZeppelin/openzeppelin-contracts/blob/master/contracts/token/ERC20/ERC20.sol\":7633:7719  if (from == address(0)) {... */\n      tag_378\n      jumpi\n        /* \"https://github.com/OpenZeppelin/openzeppelin-contracts/blob/master/contracts/token/ERC20/ERC20.sol\":7705:7706  0 */\n      0x00\n        /* \"https://github.com/OpenZeppelin/openzeppelin-contracts/blob/master/contracts/token/ERC20/ERC20.sol\":7678:7708  ERC20InvalidSender(address(0)) */\n      mload(0x40)\n      0x96c6fd1e00000000000000000000000000000000000000000000000000000000\n      dup2\n      mstore\n      0x04\n      add\n      tag_379\n      swap2\n      swap1\n      tag_48\n      jump\t// in\n    tag_379:\n      mload(0x40)\n      dup1\n      swap2\n      sub\n      swap1\n      revert\n        /* \"https://github.com/OpenZeppelin/openzeppelin-contracts/blob/master/contracts/token/ERC20/ERC20.sol\":7633:7719  if (from == address(0)) {... */\n    tag_378:\n        /* \"https://github.com/OpenZeppelin/openzeppelin-contracts/blob/master/contracts/token/ERC20/ERC20.sol\":7746:7747  0 */\n      0x00\n        /* \"https://github.com/OpenZeppelin/openzeppelin-contracts/blob/master/contracts/token/ERC20/ERC20.sol\":7732:7748  to == address(0) */\n      0xffffffffffffffffffffffffffffffffffffffff\n      and\n        /* \"https://github.com/OpenZeppelin/openzeppelin-contracts/blob/master/contracts/token/ERC20/ERC20.sol\":7732:7734  to */\n      dup3\n        /* \"https://github.com/OpenZeppelin/openzeppelin-contracts/blob/master/contracts/token/ERC20/ERC20.sol\":7732:7748  to == address(0) */\n      0xffffffffffffffffffffffffffffffffffffffff\n      and\n      sub\n        /* \"https://github.com/OpenZeppelin/openzeppelin-contracts/blob/master/contracts/token/ERC20/ERC20.sol\":7728:7814  if (to == address(0)) {... */\n      tag_380\n      jumpi\n        /* \"https://github.com/OpenZeppelin/openzeppelin-contracts/blob/master/contracts/token/ERC20/ERC20.sol\":7800:7801  0 */\n      0x00\n        /* \"https://github.com/OpenZeppelin/openzeppelin-contracts/blob/master/contracts/token/ERC20/ERC20.sol\":7771:7803  ERC20InvalidReceiver(address(0)) */\n      mload(0x40)\n      0xec442f0500000000000000000000000000000000000000000000000000000000\n      dup2\n      mstore\n      0x04\n      add\n      tag_381\n      swap2\n      swap1\n      tag_48\n      jump\t// in\n    tag_381:\n      mload(0x40)\n      dup1\n      swap2\n      sub\n      swap1\n      revert\n        /* \"https://github.com/OpenZeppelin/openzeppelin-contracts/blob/master/contracts/token/ERC20/ERC20.sol\":7728:7814  if (to == address(0)) {... */\n    tag_380:\n        /* \"https://github.com/OpenZeppelin/openzeppelin-contracts/blob/master/contracts/token/ERC20/ERC20.sol\":7823:7848  _update(from, to, amount) */\n      tag_382\n        /* \"https://github.com/OpenZeppelin/openzeppelin-contracts/blob/master/contracts/token/ERC20/ERC20.sol\":7831:7835  from */\n      dup4\n        /* \"https://github.com/OpenZeppelin/openzeppelin-contracts/blob/master/contracts/token/ERC20/ERC20.sol\":7837:7839  to */\n      dup4\n        /* \"https://github.com/OpenZeppelin/openzeppelin-contracts/blob/master/contracts/token/ERC20/ERC20.sol\":7841:7847  amount */\n      dup4\n        /* \"https://github.com/OpenZeppelin/openzeppelin-contracts/blob/master/contracts/token/ERC20/ERC20.sol\":7823:7830  _update */\n      tag_383\n        /* \"https://github.com/OpenZeppelin/openzeppelin-contracts/blob/master/contracts/token/ERC20/ERC20.sol\":7823:7848  _update(from, to, amount) */\n      jump\t// in\n    tag_382:\n        /* \"https://github.com/OpenZeppelin/openzeppelin-contracts/blob/master/contracts/token/ERC20/ERC20.sol\":7553:7855  function _transfer(address from, address to, uint256 amount) internal {... */\n      pop\n      pop\n      pop\n      jump\t// out\n        /* \"https://github.com/OpenZeppelin/openzeppelin-contracts/blob/master/contracts/token/ERC20/ERC20.sol\":8155:9172  function _update(address from, address to, uint256 amount) internal virtual {... */\n    tag_383:\n        /* \"https://github.com/OpenZeppelin/openzeppelin-contracts/blob/master/contracts/token/ERC20/ERC20.sol\":8261:8262  0 */\n      0x00\n        /* \"https://github.com/OpenZeppelin/openzeppelin-contracts/blob/master/contracts/token/ERC20/ERC20.sol\":8245:8263  from == address(0) */\n      0xffffffffffffffffffffffffffffffffffffffff\n      and\n        /* \"https://github.com/OpenZeppelin/openzeppelin-contracts/blob/master/contracts/token/ERC20/ERC20.sol\":8245:8249  from */\n      dup4\n        /* \"https://github.com/OpenZeppelin/openzeppelin-contracts/blob/master/contracts/token/ERC20/ERC20.sol\":8245:8263  from == address(0) */\n      0xffffffffffffffffffffffffffffffffffffffff\n      and\n      sub\n        /* \"https://github.com/OpenZeppelin/openzeppelin-contracts/blob/master/contracts/token/ERC20/ERC20.sol\":8241:8684  if (from == address(0)) {... */\n      tag_385\n      jumpi\n        /* \"https://github.com/OpenZeppelin/openzeppelin-contracts/blob/master/contracts/token/ERC20/ERC20.sol\":8295:8301  amount */\n      dup1\n        /* \"https://github.com/OpenZeppelin/openzeppelin-contracts/blob/master/contracts/token/ERC20/ERC20.sol\":8279:8291  _totalSupply */\n      0x02\n      0x00\n        /* \"https://github.com/OpenZeppelin/openzeppelin-contracts/blob/master/contracts/token/ERC20/ERC20.sol\":8279:8301  _totalSupply += amount */\n      dup3\n      dup3\n      sload\n      tag_386\n      swap2\n      swap1\n      tag_223\n      jump\t// in\n    tag_386:\n      swap3\n      pop\n      pop\n      dup2\n      swap1\n      sstore\n      pop\n        /* \"https://github.com/OpenZeppelin/openzeppelin-contracts/blob/master/contracts/token/ERC20/ERC20.sol\":8241:8684  if (from == address(0)) {... */\n      jump(tag_387)\n    tag_385:\n        /* \"https://github.com/OpenZeppelin/openzeppelin-contracts/blob/master/contracts/token/ERC20/ERC20.sol\":8332:8351  uint256 fromBalance */\n      0x00\n        /* \"https://github.com/OpenZeppelin/openzeppelin-contracts/blob/master/contracts/token/ERC20/ERC20.sol\":8354:8363  _balances */\n      dup1\n        /* \"https://github.com/OpenZeppelin/openzeppelin-contracts/blob/master/contracts/token/ERC20/ERC20.sol\":8354:8369  _balances[from] */\n      0x00\n        /* \"https://github.com/OpenZeppelin/openzeppelin-contracts/blob/master/contracts/token/ERC20/ERC20.sol\":8364:8368  from */\n      dup6\n        /* \"https://github.com/OpenZeppelin/openzeppelin-contracts/blob/master/contracts/token/ERC20/ERC20.sol\":8354:8369  _balances[from] */\n      0xffffffffffffffffffffffffffffffffffffffff\n      and\n      0xffffffffffffffffffffffffffffffffffffffff\n      and\n      dup2\n      mstore\n      0x20\n      add\n      swap1\n      dup2\n      mstore\n      0x20\n      add\n      0x00\n      keccak256\n      sload\n        /* \"https://github.com/OpenZeppelin/openzeppelin-contracts/blob/master/contracts/token/ERC20/ERC20.sol\":8332:8369  uint256 fromBalance = _balances[from] */\n      swap1\n      pop\n        /* \"https://github.com/OpenZeppelin/openzeppelin-contracts/blob/master/contracts/token/ERC20/ERC20.sol\":8401:8407  amount */\n      dup2\n        /* \"https://github.com/OpenZeppelin/openzeppelin-contracts/blob/master/contracts/token/ERC20/ERC20.sol\":8387:8398  fromBalance */\n      dup2\n        /* \"https://github.com/OpenZeppelin/openzeppelin-contracts/blob/master/contracts/token/ERC20/ERC20.sol\":8387:8407  fromBalance < amount */\n      lt\n        /* \"https://github.com/OpenZeppelin/openzeppelin-contracts/blob/master/contracts/token/ERC20/ERC20.sol\":8383:8500  if (fromBalance < amount) {... */\n      iszero\n      tag_388\n      jumpi\n        /* \"https://github.com/OpenZeppelin/openzeppelin-contracts/blob/master/contracts/token/ERC20/ERC20.sol\":8459:8463  from */\n      dup4\n        /* \"https://github.com/OpenZeppelin/openzeppelin-contracts/blob/master/contracts/token/ERC20/ERC20.sol\":8465:8476  fromBalance */\n      dup2\n        /* \"https://github.com/OpenZeppelin/openzeppelin-contracts/blob/master/contracts/token/ERC20/ERC20.sol\":8478:8484  amount */\n      dup4\n        /* \"https://github.com/OpenZeppelin/openzeppelin-contracts/blob/master/contracts/token/ERC20/ERC20.sol\":8434:8485  ERC20InsufficientBalance(from, fromBalance, amount) */\n      mload(0x40)\n      0xe450d38c00000000000000000000000000000000000000000000000000000000\n      dup2\n      mstore\n      0x04\n      add\n      tag_389\n      swap4\n      swap3\n      swap2\n      swap1\n      tag_301\n      jump\t// in\n    tag_389:\n      mload(0x40)\n      dup1\n      swap2\n      sub\n      swap1\n      revert\n        /* \"https://github.com/OpenZeppelin/openzeppelin-contracts/blob/master/contracts/token/ERC20/ERC20.sol\":8383:8500  if (fromBalance < amount) {... */\n    tag_388:\n        /* \"https://github.com/OpenZeppelin/openzeppelin-contracts/blob/master/contracts/token/ERC20/ERC20.sol\":8653:8659  amount */\n      dup2\n        /* \"https://github.com/OpenZeppelin/openzeppelin-contracts/blob/master/contracts/token/ERC20/ERC20.sol\":8639:8650  fromBalance */\n      dup2\n        /* \"https://github.com/OpenZeppelin/openzeppelin-contracts/blob/master/contracts/token/ERC20/ERC20.sol\":8639:8659  fromBalance - amount */\n      sub\n        /* \"https://github.com/OpenZeppelin/openzeppelin-contracts/blob/master/contracts/token/ERC20/ERC20.sol\":8621:8630  _balances */\n      0x00\n        /* \"https://github.com/OpenZeppelin/openzeppelin-contracts/blob/master/contracts/token/ERC20/ERC20.sol\":8621:8636  _balances[from] */\n      dup1\n        /* \"https://github.com/OpenZeppelin/openzeppelin-contracts/blob/master/contracts/token/ERC20/ERC20.sol\":8631:8635  from */\n      dup7\n        /* \"https://github.com/OpenZeppelin/openzeppelin-contracts/blob/master/contracts/token/ERC20/ERC20.sol\":8621:8636  _balances[from] */\n      0xffffffffffffffffffffffffffffffffffffffff\n      and\n      0xffffffffffffffffffffffffffffffffffffffff\n      and\n      dup2\n      mstore\n      0x20\n      add\n      swap1\n      dup2\n      mstore\n      0x20\n      add\n      0x00\n      keccak256\n        /* \"https://github.com/OpenZeppelin/openzeppelin-contracts/blob/master/contracts/token/ERC20/ERC20.sol\":8621:8659  _balances[from] = fromBalance - amount */\n      dup2\n      swap1\n      sstore\n      pop\n        /* \"https://github.com/OpenZeppelin/openzeppelin-contracts/blob/master/contracts/token/ERC20/ERC20.sol\":8318:8684  {... */\n      pop\n        /* \"https://github.com/OpenZeppelin/openzeppelin-contracts/blob/master/contracts/token/ERC20/ERC20.sol\":8241:8684  if (from == address(0)) {... */\n    tag_387:\n        /* \"https://github.com/OpenZeppelin/openzeppelin-contracts/blob/master/contracts/token/ERC20/ERC20.sol\":8712:8713  0 */\n      0x00\n        /* \"https://github.com/OpenZeppelin/openzeppelin-contracts/blob/master/contracts/token/ERC20/ERC20.sol\":8698:8714  to == address(0) */\n      0xffffffffffffffffffffffffffffffffffffffff\n      and\n        /* \"https://github.com/OpenZeppelin/openzeppelin-contracts/blob/master/contracts/token/ERC20/ERC20.sol\":8698:8700  to */\n      dup3\n        /* \"https://github.com/OpenZeppelin/openzeppelin-contracts/blob/master/contracts/token/ERC20/ERC20.sol\":8698:8714  to == address(0) */\n      0xffffffffffffffffffffffffffffffffffffffff\n      and\n      sub\n        /* \"https://github.com/OpenZeppelin/openzeppelin-contracts/blob/master/contracts/token/ERC20/ERC20.sol\":8694:9124  if (to == address(0)) {... */\n      tag_390\n      jumpi\n        /* \"https://github.com/OpenZeppelin/openzeppelin-contracts/blob/master/contracts/token/ERC20/ERC20.sol\":8879:8885  amount */\n      dup1\n        /* \"https://github.com/OpenZeppelin/openzeppelin-contracts/blob/master/contracts/token/ERC20/ERC20.sol\":8863:8875  _totalSupply */\n      0x02\n      0x00\n        /* \"https://github.com/OpenZeppelin/openzeppelin-contracts/blob/master/contracts/token/ERC20/ERC20.sol\":8863:8885  _totalSupply -= amount */\n      dup3\n      dup3\n      sload\n      sub\n      swap3\n      pop\n      pop\n      dup2\n      swap1\n      sstore\n      pop\n        /* \"https://github.com/OpenZeppelin/openzeppelin-contracts/blob/master/contracts/token/ERC20/ERC20.sol\":8694:9124  if (to == address(0)) {... */\n      jump(tag_391)\n    tag_390:\n        /* \"https://github.com/OpenZeppelin/openzeppelin-contracts/blob/master/contracts/token/ERC20/ERC20.sol\":9093:9099  amount */\n      dup1\n        /* \"https://github.com/OpenZeppelin/openzeppelin-contracts/blob/master/contracts/token/ERC20/ERC20.sol\":9076:9085  _balances */\n      0x00\n        /* \"https://github.com/OpenZeppelin/openzeppelin-contracts/blob/master/contracts/token/ERC20/ERC20.sol\":9076:9089  _balances[to] */\n      dup1\n        /* \"https://github.com/OpenZeppelin/openzeppelin-contracts/blob/master/contracts/token/ERC20/ERC20.sol\":9086:9088  to */\n      dup5\n        /* \"https://github.com/OpenZeppelin/openzeppelin-contracts/blob/master/contracts/token/ERC20/ERC20.sol\":9076:9089  _balances[to] */\n      0xffffffffffffffffffffffffffffffffffffffff\n      and\n      0xffffffffffffffffffffffffffffffffffffffff\n      and\n      dup2\n      mstore\n      0x20\n      add\n      swap1\n      dup2\n      mstore\n      0x20\n      add\n      0x00\n      keccak256\n      0x00\n        /* \"https://github.com/OpenZeppelin/openzeppelin-contracts/blob/master/contracts/token/ERC20/ERC20.sol\":9076:9099  _balances[to] += amount */\n      dup3\n      dup3\n      sload\n      add\n      swap3\n      pop\n      pop\n      dup2\n      swap1\n      sstore\n      pop\n        /* \"https://github.com/OpenZeppelin/openzeppelin-contracts/blob/master/contracts/token/ERC20/ERC20.sol\":8694:9124  if (to == address(0)) {... */\n    tag_391:\n        /* \"https://github.com/OpenZeppelin/openzeppelin-contracts/blob/master/contracts/token/ERC20/ERC20.sol\":9154:9156  to */\n      dup2\n        /* \"https://github.com/OpenZeppelin/openzeppelin-contracts/blob/master/contracts/token/ERC20/ERC20.sol\":9139:9165  Transfer(from, to, amount) */\n      0xffffffffffffffffffffffffffffffffffffffff\n      and\n        /* \"https://github.com/OpenZeppelin/openzeppelin-contracts/blob/master/contracts/token/ERC20/ERC20.sol\":9148:9152  from */\n      dup4\n        /* \"https://github.com/OpenZeppelin/openzeppelin-contracts/blob/master/contracts/token/ERC20/ERC20.sol\":9139:9165  Transfer(from, to, amount) */\n      0xffffffffffffffffffffffffffffffffffffffff\n      and\n      0xddf252ad1be2c89b69c2b068fc378daa952ba7f163c4a11628f55a4df523b3ef\n        /* \"https://github.com/OpenZeppelin/openzeppelin-contracts/blob/master/contracts/token/ERC20/ERC20.sol\":9158:9164  amount */\n      dup4\n        /* \"https://github.com/OpenZeppelin/openzeppelin-contracts/blob/master/contracts/token/ERC20/ERC20.sol\":9139:9165  Transfer(from, to, amount) */\n      mload(0x40)\n      tag_392\n      swap2\n      swap1\n      tag_41\n      jump\t// in\n    tag_392:\n      mload(0x40)\n      dup1\n      swap2\n      sub\n      swap1\n      log3\n        /* \"https://github.com/OpenZeppelin/openzeppelin-contracts/blob/master/contracts/token/ERC20/ERC20.sol\":8155:9172  function _update(address from, address to, uint256 amount) internal virtual {... */\n      pop\n      pop\n      pop\n      jump\t// out\n        /* \"#utility.yul\":7:84   */\n    tag_393:\n        /* \"#utility.yul\":44:51   */\n      0x00\n        /* \"#utility.yul\":73:78   */\n      dup2\n        /* \"#utility.yul\":62:78   */\n      swap1\n      pop\n        /* \"#utility.yul\":7:84   */\n      swap2\n      swap1\n      pop\n      jump\t// out\n        /* \"#utility.yul\":90:208   */\n    tag_394:\n        /* \"#utility.yul\":177:201   */\n      tag_476\n        /* \"#utility.yul\":195:200   */\n      dup2\n        /* \"#utility.yul\":177:201   */\n      tag_393\n      jump\t// in\n    tag_476:\n        /* \"#utility.yul\":172:175   */\n      dup3\n        /* \"#utility.yul\":165:202   */\n      mstore\n        /* \"#utility.yul\":90:208   */\n      pop\n      pop\n      jump\t// out\n        /* \"#utility.yul\":214:436   */\n    tag_41:\n        /* \"#utility.yul\":307:311   */\n      0x00\n        /* \"#utility.yul\":345:347   */\n      0x20\n        /* \"#utility.yul\":334:343   */\n      dup3\n        /* \"#utility.yul\":330:348   */\n      add\n        /* \"#utility.yul\":322:348   */\n      swap1\n      pop\n        /* \"#utility.yul\":358:429   */\n      tag_478\n        /* \"#utility.yul\":426:427   */\n      0x00\n        /* \"#utility.yul\":415:424   */\n      dup4\n        /* \"#utility.yul\":411:428   */\n      add\n        /* \"#utility.yul\":402:408   */\n      dup5\n        /* \"#utility.yul\":358:429   */\n      tag_394\n      jump\t// in\n    tag_478:\n        /* \"#utility.yul\":214:436   */\n      swap3\n      swap2\n      pop\n      pop\n      jump\t// out\n        /* \"#utility.yul\":442:517   */\n    tag_395:\n        /* \"#utility.yul\":475:481   */\n      0x00\n        /* \"#utility.yul\":508:510   */\n      0x40\n        /* \"#utility.yul\":502:511   */\n      mload\n        /* \"#utility.yul\":492:511   */\n      swap1\n      pop\n        /* \"#utility.yul\":442:517   */\n      swap1\n      jump\t// out\n        /* \"#utility.yul\":523:640   */\n    tag_396:\n        /* \"#utility.yul\":632:633   */\n      0x00\n        /* \"#utility.yul\":629:630   */\n      dup1\n        /* \"#utility.yul\":622:634   */\n      revert\n        /* \"#utility.yul\":646:763   */\n    tag_397:\n        /* \"#utility.yul\":755:756   */\n      0x00\n        /* \"#utility.yul\":752:753   */\n      dup1\n        /* \"#utility.yul\":745:757   */\n      revert\n        /* \"#utility.yul\":769:891   */\n    tag_398:\n        /* \"#utility.yul\":842:866   */\n      tag_483\n        /* \"#utility.yul\":860:865   */\n      dup2\n        /* \"#utility.yul\":842:866   */\n      tag_393\n      jump\t// in\n    tag_483:\n        /* \"#utility.yul\":835:840   */\n      dup2\n        /* \"#utility.yul\":832:867   */\n      eq\n        /* \"#utility.yul\":822:885   */\n      tag_484\n      jumpi\n        /* \"#utility.yul\":881:882   */\n      0x00\n        /* \"#utility.yul\":878:879   */\n      dup1\n        /* \"#utility.yul\":871:883   */\n      revert\n        /* \"#utility.yul\":822:885   */\n    tag_484:\n        /* \"#utility.yul\":769:891   */\n      pop\n      jump\t// out\n        /* \"#utility.yul\":897:1036   */\n    tag_399:\n        /* \"#utility.yul\":943:948   */\n      0x00\n        /* \"#utility.yul\":981:987   */\n      dup2\n        /* \"#utility.yul\":968:988   */\n      calldataload\n        /* \"#utility.yul\":959:988   */\n      swap1\n      pop\n        /* \"#utility.yul\":997:1030   */\n      tag_486\n        /* \"#utility.yul\":1024:1029   */\n      dup2\n        /* \"#utility.yul\":997:1030   */\n      tag_398\n      jump\t// in\n    tag_486:\n        /* \"#utility.yul\":897:1036   */\n      swap3\n      swap2\n      pop\n      pop\n      jump\t// out\n        /* \"#utility.yul\":1042:1371   */\n    tag_45:\n        /* \"#utility.yul\":1101:1107   */\n      0x00\n        /* \"#utility.yul\":1150:1152   */\n      0x20\n        /* \"#utility.yul\":1138:1147   */\n      dup3\n        /* \"#utility.yul\":1129:1136   */\n      dup5\n        /* \"#utility.yul\":1125:1148   */\n      sub\n        /* \"#utility.yul\":1121:1153   */\n      slt\n        /* \"#utility.yul\":1118:1237   */\n      iszero\n      tag_488\n      jumpi\n        /* \"#utility.yul\":1156:1235   */\n      tag_489\n      tag_396\n      jump\t// in\n    tag_489:\n        /* \"#utility.yul\":1118:1237   */\n    tag_488:\n        /* \"#utility.yul\":1276:1277   */\n      0x00\n        /* \"#utility.yul\":1301:1354   */\n      tag_490\n        /* \"#utility.yul\":1346:1353   */\n      dup5\n        /* \"#utility.yul\":1337:1343   */\n      dup3\n        /* \"#utility.yul\":1326:1335   */\n      dup6\n        /* \"#utility.yul\":1322:1344   */\n      add\n        /* \"#utility.yul\":1301:1354   */\n      tag_399\n      jump\t// in\n    tag_490:\n        /* \"#utility.yul\":1291:1354   */\n      swap2\n      pop\n        /* \"#utility.yul\":1247:1364   */\n      pop\n        /* \"#utility.yul\":1042:1371   */\n      swap3\n      swap2\n      pop\n      pop\n      jump\t// out\n        /* \"#utility.yul\":1377:1503   */\n    tag_400:\n        /* \"#utility.yul\":1414:1421   */\n      0x00\n        /* \"#utility.yul\":1454:1496   */\n      0xffffffffffffffffffffffffffffffffffffffff\n        /* \"#utility.yul\":1447:1452   */\n      dup3\n        /* \"#utility.yul\":1443:1497   */\n      and\n        /* \"#utility.yul\":1432:1497   */\n      swap1\n      pop\n        /* \"#utility.yul\":1377:1503   */\n      swap2\n      swap1\n      pop\n      jump\t// out\n        /* \"#utility.yul\":1509:1605   */\n    tag_401:\n        /* \"#utility.yul\":1546:1553   */\n      0x00\n        /* \"#utility.yul\":1575:1599   */\n      tag_493\n        /* \"#utility.yul\":1593:1598   */\n      dup3\n        /* \"#utility.yul\":1575:1599   */\n      tag_400\n      jump\t// in\n    tag_493:\n        /* \"#utility.yul\":1564:1599   */\n      swap1\n      pop\n        /* \"#utility.yul\":1509:1605   */\n      swap2\n      swap1\n      pop\n      jump\t// out\n        /* \"#utility.yul\":1611:1729   */\n    tag_402:\n        /* \"#utility.yul\":1698:1722   */\n      tag_495\n        /* \"#utility.yul\":1716:1721   */\n      dup2\n        /* \"#utility.yul\":1698:1722   */\n      tag_401\n      jump\t// in\n    tag_495:\n        /* \"#utility.yul\":1693:1696   */\n      dup3\n        /* \"#utility.yul\":1686:1723   */\n      mstore\n        /* \"#utility.yul\":1611:1729   */\n      pop\n      pop\n      jump\t// out\n        /* \"#utility.yul\":1735:1957   */\n    tag_48:\n        /* \"#utility.yul\":1828:1832   */\n      0x00\n        /* \"#utility.yul\":1866:1868   */\n      0x20\n        /* \"#utility.yul\":1855:1864   */\n      dup3\n        /* \"#utility.yul\":1851:1869   */\n      add\n        /* \"#utility.yul\":1843:1869   */\n      swap1\n      pop\n        /* \"#utility.yul\":1879:1950   */\n      tag_497\n        /* \"#utility.yul\":1947:1948   */\n      0x00\n        /* \"#utility.yul\":1936:1945   */\n      dup4\n        /* \"#utility.yul\":1932:1949   */\n      add\n        /* \"#utility.yul\":1923:1929   */\n      dup5\n        /* \"#utility.yul\":1879:1950   */\n      tag_402\n      jump\t// in\n    tag_497:\n        /* \"#utility.yul\":1735:1957   */\n      swap3\n      swap2\n      pop\n      pop\n      jump\t// out\n        /* \"#utility.yul\":1963:2062   */\n    tag_403:\n        /* \"#utility.yul\":2015:2021   */\n      0x00\n        /* \"#utility.yul\":2049:2054   */\n      dup2\n        /* \"#utility.yul\":2043:2055   */\n      mload\n        /* \"#utility.yul\":2033:2055   */\n      swap1\n      pop\n        /* \"#utility.yul\":1963:2062   */\n      swap2\n      swap1\n      pop\n      jump\t// out\n        /* \"#utility.yul\":2068:2237   */\n    tag_404:\n        /* \"#utility.yul\":2152:2163   */\n      0x00\n        /* \"#utility.yul\":2186:2192   */\n      dup3\n        /* \"#utility.yul\":2181:2184   */\n      dup3\n        /* \"#utility.yul\":2174:2193   */\n      mstore\n        /* \"#utility.yul\":2226:2230   */\n      0x20\n        /* \"#utility.yul\":2221:2224   */\n      dup3\n        /* \"#utility.yul\":2217:2231   */\n      add\n        /* \"#utility.yul\":2202:2231   */\n      swap1\n      pop\n        /* \"#utility.yul\":2068:2237   */\n      swap3\n      swap2\n      pop\n      pop\n      jump\t// out\n        /* \"#utility.yul\":2243:2489   */\n    tag_405:\n        /* \"#utility.yul\":2324:2325   */\n      0x00\n        /* \"#utility.yul\":2334:2447   */\n    tag_501:\n        /* \"#utility.yul\":2348:2354   */\n      dup4\n        /* \"#utility.yul\":2345:2346   */\n      dup2\n        /* \"#utility.yul\":2342:2355   */\n      lt\n        /* \"#utility.yul\":2334:2447   */\n      iszero\n      tag_503\n      jumpi\n        /* \"#utility.yul\":2433:2434   */\n      dup1\n        /* \"#utility.yul\":2428:2431   */\n      dup3\n        /* \"#utility.yul\":2424:2435   */\n      add\n        /* \"#utility.yul\":2418:2436   */\n      mload\n        /* \"#utility.yul\":2414:2415   */\n      dup2\n        /* \"#utility.yul\":2409:2412   */\n      dup5\n        /* \"#utility.yul\":2405:2416   */\n      add\n        /* \"#utility.yul\":2398:2437   */\n      mstore\n        /* \"#utility.yul\":2370:2372   */\n      0x20\n        /* \"#utility.yul\":2367:2368   */\n      dup2\n        /* \"#utility.yul\":2363:2373   */\n      add\n        /* \"#utility.yul\":2358:2373   */\n      swap1\n      pop\n        /* \"#utility.yul\":2334:2447   */\n      jump(tag_501)\n    tag_503:\n        /* \"#utility.yul\":2481:2482   */\n      0x00\n        /* \"#utility.yul\":2472:2478   */\n      dup5\n        /* \"#utility.yul\":2467:2470   */\n      dup5\n        /* \"#utility.yul\":2463:2479   */\n      add\n        /* \"#utility.yul\":2456:2483   */\n      mstore\n        /* \"#utility.yul\":2305:2489   */\n      pop\n        /* \"#utility.yul\":2243:2489   */\n      pop\n      pop\n      pop\n      jump\t// out\n        /* \"#utility.yul\":2495:2597   */\n    tag_406:\n        /* \"#utility.yul\":2536:2542   */\n      0x00\n        /* \"#utility.yul\":2587:2589   */\n      0x1f\n        /* \"#utility.yul\":2583:2590   */\n      not\n        /* \"#utility.yul\":2578:2580   */\n      0x1f\n        /* \"#utility.yul\":2571:2576   */\n      dup4\n        /* \"#utility.yul\":2567:2581   */\n      add\n        /* \"#utility.yul\":2563:2591   */\n      and\n        /* \"#utility.yul\":2553:2591   */\n      swap1\n      pop\n        /* \"#utility.yul\":2495:2597   */\n      swap2\n      swap1\n      pop\n      jump\t// out\n        /* \"#utility.yul\":2603:2980   */\n    tag_407:\n        /* \"#utility.yul\":2691:2694   */\n      0x00\n        /* \"#utility.yul\":2719:2758   */\n      tag_506\n        /* \"#utility.yul\":2752:2757   */\n      dup3\n        /* \"#utility.yul\":2719:2758   */\n      tag_403\n      jump\t// in\n    tag_506:\n        /* \"#utility.yul\":2774:2845   */\n      tag_507\n        /* \"#utility.yul\":2838:2844   */\n      dup2\n        /* \"#utility.yul\":2833:2836   */\n      dup6\n        /* \"#utility.yul\":2774:2845   */\n      tag_404\n      jump\t// in\n    tag_507:\n        /* \"#utility.yul\":2767:2845   */\n      swap4\n      pop\n        /* \"#utility.yul\":2854:2919   */\n      tag_508\n        /* \"#utility.yul\":2912:2918   */\n      dup2\n        /* \"#utility.yul\":2907:2910   */\n      dup6\n        /* \"#utility.yul\":2900:2904   */\n      0x20\n        /* \"#utility.yul\":2893:2898   */\n      dup7\n        /* \"#utility.yul\":2889:2905   */\n      add\n        /* \"#utility.yul\":2854:2919   */\n      tag_405\n      jump\t// in\n    tag_508:\n        /* \"#utility.yul\":2944:2973   */\n      tag_509\n        /* \"#utility.yul\":2966:2972   */\n      dup2\n        /* \"#utility.yul\":2944:2973   */\n      tag_406\n      jump\t// in\n    tag_509:\n        /* \"#utility.yul\":2939:2942   */\n      dup5\n        /* \"#utility.yul\":2935:2974   */\n      add\n        /* \"#utility.yul\":2928:2974   */\n      swap2\n      pop\n        /* \"#utility.yul\":2695:2980   */\n      pop\n        /* \"#utility.yul\":2603:2980   */\n      swap3\n      swap2\n      pop\n      pop\n      jump\t// out\n        /* \"#utility.yul\":2986:3299   */\n    tag_53:\n        /* \"#utility.yul\":3099:3103   */\n      0x00\n        /* \"#utility.yul\":3137:3139   */\n      0x20\n        /* \"#utility.yul\":3126:3135   */\n      dup3\n        /* \"#utility.yul\":3122:3140   */\n      add\n        /* \"#utility.yul\":3114:3140   */\n      swap1\n      pop\n        /* \"#utility.yul\":3186:3195   */\n      dup2\n        /* \"#utility.yul\":3180:3184   */\n      dup2\n        /* \"#utility.yul\":3176:3196   */\n      sub\n        /* \"#utility.yul\":3172:3173   */\n      0x00\n        /* \"#utility.yul\":3161:3170   */\n      dup4\n        /* \"#utility.yul\":3157:3174   */\n      add\n        /* \"#utility.yul\":3150:3197   */\n      mstore\n        /* \"#utility.yul\":3214:3292   */\n      tag_511\n        /* \"#utility.yul\":3287:3291   */\n      dup2\n        /* \"#utility.yul\":3278:3284   */\n      dup5\n        /* \"#utility.yul\":3214:3292   */\n      tag_407\n      jump\t// in\n    tag_511:\n        /* \"#utility.yul\":3206:3292   */\n      swap1\n      pop\n        /* \"#utility.yul\":2986:3299   */\n      swap3\n      swap2\n      pop\n      pop\n      jump\t// out\n        /* \"#utility.yul\":3305:3427   */\n    tag_408:\n        /* \"#utility.yul\":3378:3402   */\n      tag_513\n        /* \"#utility.yul\":3396:3401   */\n      dup2\n        /* \"#utility.yul\":3378:3402   */\n      tag_401\n      jump\t// in\n    tag_513:\n        /* \"#utility.yul\":3371:3376   */\n      dup2\n        /* \"#utility.yul\":3368:3403   */\n      eq\n        /* \"#utility.yul\":3358:3421   */\n      tag_514\n      jumpi\n        /* \"#utility.yul\":3417:3418   */\n      0x00\n        /* \"#utility.yul\":3414:3415   */\n      dup1\n        /* \"#utility.yul\":3407:3419   */\n      revert\n        /* \"#utility.yul\":3358:3421   */\n    tag_514:\n        /* \"#utility.yul\":3305:3427   */\n      pop\n      jump\t// out\n        /* \"#utility.yul\":3433:3572   */\n    tag_409:\n        /* \"#utility.yul\":3479:3484   */\n      0x00\n        /* \"#utility.yul\":3517:3523   */\n      dup2\n        /* \"#utility.yul\":3504:3524   */\n      calldataload\n        /* \"#utility.yul\":3495:3524   */\n      swap1\n      pop\n        /* \"#utility.yul\":3533:3566   */\n      tag_516\n        /* \"#utility.yul\":3560:3565   */\n      dup2\n        /* \"#utility.yul\":3533:3566   */\n      tag_408\n      jump\t// in\n    tag_516:\n        /* \"#utility.yul\":3433:3572   */\n      swap3\n      swap2\n      pop\n      pop\n      jump\t// out\n        /* \"#utility.yul\":3578:4052   */\n    tag_57:\n        /* \"#utility.yul\":3646:3652   */\n      0x00\n        /* \"#utility.yul\":3654:3660   */\n      dup1\n        /* \"#utility.yul\":3703:3705   */\n      0x40\n        /* \"#utility.yul\":3691:3700   */\n      dup4\n        /* \"#utility.yul\":3682:3689   */\n      dup6\n        /* \"#utility.yul\":3678:3701   */\n      sub\n        /* \"#utility.yul\":3674:3706   */\n      slt\n        /* \"#utility.yul\":3671:3790   */\n      iszero\n      tag_518\n      jumpi\n        /* \"#utility.yul\":3709:3788   */\n      tag_519\n      tag_396\n      jump\t// in\n    tag_519:\n        /* \"#utility.yul\":3671:3790   */\n    tag_518:\n        /* \"#utility.yul\":3829:3830   */\n      0x00\n        /* \"#utility.yul\":3854:3907   */\n      tag_520\n        /* \"#utility.yul\":3899:3906   */\n      dup6\n        /* \"#utility.yul\":3890:3896   */\n      dup3\n        /* \"#utility.yul\":3879:3888   */\n      dup7\n        /* \"#utility.yul\":3875:3897   */\n      add\n        /* \"#utility.yul\":3854:3907   */\n      tag_409\n      jump\t// in\n    tag_520:\n        /* \"#utility.yul\":3844:3907   */\n      swap3\n      pop\n        /* \"#utility.yul\":3800:3917   */\n      pop\n        /* \"#utility.yul\":3956:3958   */\n      0x20\n        /* \"#utility.yul\":3982:4035   */\n      tag_521\n        /* \"#utility.yul\":4027:4034   */\n      dup6\n        /* \"#utility.yul\":4018:4024   */\n      dup3\n        /* \"#utility.yul\":4007:4016   */\n      dup7\n        /* \"#utility.yul\":4003:4025   */\n      add\n        /* \"#utility.yul\":3982:4035   */\n      tag_399\n      jump\t// in\n    tag_521:\n        /* \"#utility.yul\":3972:4035   */\n      swap2\n      pop\n        /* \"#utility.yul\":3927:4045   */\n      pop\n        /* \"#utility.yul\":3578:4052   */\n      swap3\n      pop\n      swap3\n      swap1\n      pop\n      jump\t// out\n        /* \"#utility.yul\":4058:4148   */\n    tag_410:\n        /* \"#utility.yul\":4092:4099   */\n      0x00\n        /* \"#utility.yul\":4135:4140   */\n      dup2\n        /* \"#utility.yul\":4128:4141   */\n      iszero\n        /* \"#utility.yul\":4121:4142   */\n      iszero\n        /* \"#utility.yul\":4110:4142   */\n      swap1\n      pop\n        /* \"#utility.yul\":4058:4148   */\n      swap2\n      swap1\n      pop\n      jump\t// out\n        /* \"#utility.yul\":4154:4263   */\n    tag_411:\n        /* \"#utility.yul\":4235:4256   */\n      tag_524\n        /* \"#utility.yul\":4250:4255   */\n      dup2\n        /* \"#utility.yul\":4235:4256   */\n      tag_410\n      jump\t// in\n    tag_524:\n        /* \"#utility.yul\":4230:4233   */\n      dup3\n        /* \"#utility.yul\":4223:4257   */\n      mstore\n        /* \"#utility.yul\":4154:4263   */\n      pop\n      pop\n      jump\t// out\n        /* \"#utility.yul\":4269:4479   */\n    tag_60:\n        /* \"#utility.yul\":4356:4360   */\n      0x00\n        /* \"#utility.yul\":4394:4396   */\n      0x20\n        /* \"#utility.yul\":4383:4392   */\n      dup3\n        /* \"#utility.yul\":4379:4397   */\n      add\n        /* \"#utility.yul\":4371:4397   */\n      swap1\n      pop\n        /* \"#utility.yul\":4407:4472   */\n      tag_526\n        /* \"#utility.yul\":4469:4470   */\n      0x00\n        /* \"#utility.yul\":4458:4467   */\n      dup4\n        /* \"#utility.yul\":4454:4471   */\n      add\n        /* \"#utility.yul\":4445:4451   */\n      dup5\n        /* \"#utility.yul\":4407:4472   */\n      tag_411\n      jump\t// in\n    tag_526:\n        /* \"#utility.yul\":4269:4479   */\n      swap3\n      swap2\n      pop\n      pop\n      jump\t// out\n        /* \"#utility.yul\":4485:4583   */\n    tag_412:\n        /* \"#utility.yul\":4536:4542   */\n      0x00\n        /* \"#utility.yul\":4570:4575   */\n      dup2\n        /* \"#utility.yul\":4564:4576   */\n      mload\n        /* \"#utility.yul\":4554:4576   */\n      swap1\n      pop\n        /* \"#utility.yul\":4485:4583   */\n      swap2\n      swap1\n      pop\n      jump\t// out\n        /* \"#utility.yul\":4589:4757   */\n    tag_413:\n        /* \"#utility.yul\":4672:4683   */\n      0x00\n        /* \"#utility.yul\":4706:4712   */\n      dup3\n        /* \"#utility.yul\":4701:4704   */\n      dup3\n        /* \"#utility.yul\":4694:4713   */\n      mstore\n        /* \"#utility.yul\":4746:4750   */\n      0x20\n        /* \"#utility.yul\":4741:4744   */\n      dup3\n        /* \"#utility.yul\":4737:4751   */\n      add\n        /* \"#utility.yul\":4722:4751   */\n      swap1\n      pop\n        /* \"#utility.yul\":4589:4757   */\n      swap3\n      swap2\n      pop\n      pop\n      jump\t// out\n        /* \"#utility.yul\":4763:5136   */\n    tag_414:\n        /* \"#utility.yul\":4849:4852   */\n      0x00\n        /* \"#utility.yul\":4877:4915   */\n      tag_530\n        /* \"#utility.yul\":4909:4914   */\n      dup3\n        /* \"#utility.yul\":4877:4915   */\n      tag_412\n      jump\t// in\n    tag_530:\n        /* \"#utility.yul\":4931:5001   */\n      tag_531\n        /* \"#utility.yul\":4994:5000   */\n      dup2\n        /* \"#utility.yul\":4989:4992   */\n      dup6\n        /* \"#utility.yul\":4931:5001   */\n      tag_413\n      jump\t// in\n    tag_531:\n        /* \"#utility.yul\":4924:5001   */\n      swap4\n      pop\n        /* \"#utility.yul\":5010:5075   */\n      tag_532\n        /* \"#utility.yul\":5068:5074   */\n      dup2\n        /* \"#utility.yul\":5063:5066   */\n      dup6\n        /* \"#utility.yul\":5056:5060   */\n      0x20\n        /* \"#utility.yul\":5049:5054   */\n      dup7\n        /* \"#utility.yul\":5045:5061   */\n      add\n        /* \"#utility.yul\":5010:5075   */\n      tag_405\n      jump\t// in\n    tag_532:\n        /* \"#utility.yul\":5100:5129   */\n      tag_533\n        /* \"#utility.yul\":5122:5128   */\n      dup2\n        /* \"#utility.yul\":5100:5129   */\n      tag_406\n      jump\t// in\n    tag_533:\n        /* \"#utility.yul\":5095:5098   */\n      dup5\n        /* \"#utility.yul\":5091:5130   */\n      add\n        /* \"#utility.yul\":5084:5130   */\n      swap2\n      pop\n        /* \"#utility.yul\":4853:5136   */\n      pop\n        /* \"#utility.yul\":4763:5136   */\n      swap3\n      swap2\n      pop\n      pop\n      jump\t// out\n        /* \"#utility.yul\":5142:5992   */\n    tag_70:\n        /* \"#utility.yul\":5387:5391   */\n      0x00\n        /* \"#utility.yul\":5425:5428   */\n      0xc0\n        /* \"#utility.yul\":5414:5423   */\n      dup3\n        /* \"#utility.yul\":5410:5429   */\n      add\n        /* \"#utility.yul\":5402:5429   */\n      swap1\n      pop\n        /* \"#utility.yul\":5439:5510   */\n      tag_535\n        /* \"#utility.yul\":5507:5508   */\n      0x00\n        /* \"#utility.yul\":5496:5505   */\n      dup4\n        /* \"#utility.yul\":5492:5509   */\n      add\n        /* \"#utility.yul\":5483:5489   */\n      dup10\n        /* \"#utility.yul\":5439:5510   */\n      tag_402\n      jump\t// in\n    tag_535:\n        /* \"#utility.yul\":5520:5592   */\n      tag_536\n        /* \"#utility.yul\":5588:5590   */\n      0x20\n        /* \"#utility.yul\":5577:5586   */\n      dup4\n        /* \"#utility.yul\":5573:5591   */\n      add\n        /* \"#utility.yul\":5564:5570   */\n      dup9\n        /* \"#utility.yul\":5520:5592   */\n      tag_394\n      jump\t// in\n    tag_536:\n        /* \"#utility.yul\":5639:5648   */\n      dup2\n        /* \"#utility.yul\":5633:5637   */\n      dup2\n        /* \"#utility.yul\":5629:5649   */\n      sub\n        /* \"#utility.yul\":5624:5626   */\n      0x40\n        /* \"#utility.yul\":5613:5622   */\n      dup4\n        /* \"#utility.yul\":5609:5627   */\n      add\n        /* \"#utility.yul\":5602:5650   */\n      mstore\n        /* \"#utility.yul\":5667:5743   */\n      tag_537\n        /* \"#utility.yul\":5738:5742   */\n      dup2\n        /* \"#utility.yul\":5729:5735   */\n      dup8\n        /* \"#utility.yul\":5667:5743   */\n      tag_414\n      jump\t// in\n    tag_537:\n        /* \"#utility.yul\":5659:5743   */\n      swap1\n      pop\n        /* \"#utility.yul\":5753:5819   */\n      tag_538\n        /* \"#utility.yul\":5815:5817   */\n      0x60\n        /* \"#utility.yul\":5804:5813   */\n      dup4\n        /* \"#utility.yul\":5800:5818   */\n      add\n        /* \"#utility.yul\":5791:5797   */\n      dup7\n        /* \"#utility.yul\":5753:5819   */\n      tag_411\n      jump\t// in\n    tag_538:\n        /* \"#utility.yul\":5829:5902   */\n      tag_539\n        /* \"#utility.yul\":5897:5900   */\n      0x80\n        /* \"#utility.yul\":5886:5895   */\n      dup4\n        /* \"#utility.yul\":5882:5901   */\n      add\n        /* \"#utility.yul\":5873:5879   */\n      dup6\n        /* \"#utility.yul\":5829:5902   */\n      tag_394\n      jump\t// in\n    tag_539:\n        /* \"#utility.yul\":5912:5985   */\n      tag_540\n        /* \"#utility.yul\":5980:5983   */\n      0xa0\n        /* \"#utility.yul\":5969:5978   */\n      dup4\n        /* \"#utility.yul\":5965:5984   */\n      add\n        /* \"#utility.yul\":5956:5962   */\n      dup5\n        /* \"#utility.yul\":5912:5985   */\n      tag_394\n      jump\t// in\n    tag_540:\n        /* \"#utility.yul\":5142:5992   */\n      swap8\n      swap7\n      pop\n      pop\n      pop\n      pop\n      pop\n      pop\n      pop\n      jump\t// out\n        /* \"#utility.yul\":5998:6617   */\n    tag_74:\n        /* \"#utility.yul\":6075:6081   */\n      0x00\n        /* \"#utility.yul\":6083:6089   */\n      dup1\n        /* \"#utility.yul\":6091:6097   */\n      0x00\n        /* \"#utility.yul\":6140:6142   */\n      0x60\n        /* \"#utility.yul\":6128:6137   */\n      dup5\n        /* \"#utility.yul\":6119:6126   */\n      dup7\n        /* \"#utility.yul\":6115:6138   */\n      sub\n        /* \"#utility.yul\":6111:6143   */\n      slt\n        /* \"#utility.yul\":6108:6227   */\n      iszero\n      tag_542\n      jumpi\n        /* \"#utility.yul\":6146:6225   */\n      tag_543\n      tag_396\n      jump\t// in\n    tag_543:\n        /* \"#utility.yul\":6108:6227   */\n    tag_542:\n        /* \"#utility.yul\":6266:6267   */\n      0x00\n        /* \"#utility.yul\":6291:6344   */\n      tag_544\n        /* \"#utility.yul\":6336:6343   */\n      dup7\n        /* \"#utility.yul\":6327:6333   */\n      dup3\n        /* \"#utility.yul\":6316:6325   */\n      dup8\n        /* \"#utility.yul\":6312:6334   */\n      add\n        /* \"#utility.yul\":6291:6344   */\n      tag_409\n      jump\t// in\n    tag_544:\n        /* \"#utility.yul\":6281:6344   */\n      swap4\n      pop\n        /* \"#utility.yul\":6237:6354   */\n      pop\n        /* \"#utility.yul\":6393:6395   */\n      0x20\n        /* \"#utility.yul\":6419:6472   */\n      tag_545\n        /* \"#utility.yul\":6464:6471   */\n      dup7\n        /* \"#utility.yul\":6455:6461   */\n      dup3\n        /* \"#utility.yul\":6444:6453   */\n      dup8\n        /* \"#utility.yul\":6440:6462   */\n      add\n        /* \"#utility.yul\":6419:6472   */\n      tag_409\n      jump\t// in\n    tag_545:\n        /* \"#utility.yul\":6409:6472   */\n      swap3\n      pop\n        /* \"#utility.yul\":6364:6482   */\n      pop\n        /* \"#utility.yul\":6521:6523   */\n      0x40\n        /* \"#utility.yul\":6547:6600   */\n      tag_546\n        /* \"#utility.yul\":6592:6599   */\n      dup7\n        /* \"#utility.yul\":6583:6589   */\n      dup3\n        /* \"#utility.yul\":6572:6581   */\n      dup8\n        /* \"#utility.yul\":6568:6590   */\n      add\n        /* \"#utility.yul\":6547:6600   */\n      tag_399\n      jump\t// in\n    tag_546:\n        /* \"#utility.yul\":6537:6600   */\n      swap2\n      pop\n        /* \"#utility.yul\":6492:6610   */\n      pop\n        /* \"#utility.yul\":5998:6617   */\n      swap3\n      pop\n      swap3\n      pop\n      swap3\n      jump\t// out\n        /* \"#utility.yul\":6623:7097   */\n    tag_79:\n        /* \"#utility.yul\":6691:6697   */\n      0x00\n        /* \"#utility.yul\":6699:6705   */\n      dup1\n        /* \"#utility.yul\":6748:6750   */\n      0x40\n        /* \"#utility.yul\":6736:6745   */\n      dup4\n        /* \"#utility.yul\":6727:6734   */\n      dup6\n        /* \"#utility.yul\":6723:6746   */\n      sub\n        /* \"#utility.yul\":6719:6751   */\n      slt\n        /* \"#utility.yul\":6716:6835   */\n      iszero\n      tag_548\n      jumpi\n        /* \"#utility.yul\":6754:6833   */\n      tag_549\n      tag_396\n      jump\t// in\n    tag_549:\n        /* \"#utility.yul\":6716:6835   */\n    tag_548:\n        /* \"#utility.yul\":6874:6875   */\n      0x00\n        /* \"#utility.yul\":6899:6952   */\n      tag_550\n        /* \"#utility.yul\":6944:6951   */\n      dup6\n        /* \"#utility.yul\":6935:6941   */\n      dup3\n        /* \"#utility.yul\":6924:6933   */\n      dup7\n        /* \"#utility.yul\":6920:6942   */\n      add\n        /* \"#utility.yul\":6899:6952   */\n      tag_399\n      jump\t// in\n    tag_550:\n        /* \"#utility.yul\":6889:6952   */\n      swap3\n      pop\n        /* \"#utility.yul\":6845:6962   */\n      pop\n        /* \"#utility.yul\":7001:7003   */\n      0x20\n        /* \"#utility.yul\":7027:7080   */\n      tag_551\n        /* \"#utility.yul\":7072:7079   */\n      dup6\n        /* \"#utility.yul\":7063:7069   */\n      dup3\n        /* \"#utility.yul\":7052:7061   */\n      dup7\n        /* \"#utility.yul\":7048:7070   */\n      add\n        /* \"#utility.yul\":7027:7080   */\n      tag_399\n      jump\t// in\n    tag_551:\n        /* \"#utility.yul\":7017:7080   */\n      swap2\n      pop\n        /* \"#utility.yul\":6972:7090   */\n      pop\n        /* \"#utility.yul\":6623:7097   */\n      swap3\n      pop\n      swap3\n      swap1\n      pop\n      jump\t// out\n        /* \"#utility.yul\":7103:7189   */\n    tag_415:\n        /* \"#utility.yul\":7138:7145   */\n      0x00\n        /* \"#utility.yul\":7178:7182   */\n      0xff\n        /* \"#utility.yul\":7171:7176   */\n      dup3\n        /* \"#utility.yul\":7167:7183   */\n      and\n        /* \"#utility.yul\":7156:7183   */\n      swap1\n      pop\n        /* \"#utility.yul\":7103:7189   */\n      swap2\n      swap1\n      pop\n      jump\t// out\n        /* \"#utility.yul\":7195:7307   */\n    tag_416:\n        /* \"#utility.yul\":7278:7300   */\n      tag_554\n        /* \"#utility.yul\":7294:7299   */\n      dup2\n        /* \"#utility.yul\":7278:7300   */\n      tag_415\n      jump\t// in\n    tag_554:\n        /* \"#utility.yul\":7273:7276   */\n      dup3\n        /* \"#utility.yul\":7266:7301   */\n      mstore\n        /* \"#utility.yul\":7195:7307   */\n      pop\n      pop\n      jump\t// out\n        /* \"#utility.yul\":7313:7527   */\n    tag_86:\n        /* \"#utility.yul\":7402:7406   */\n      0x00\n        /* \"#utility.yul\":7440:7442   */\n      0x20\n        /* \"#utility.yul\":7429:7438   */\n      dup3\n        /* \"#utility.yul\":7425:7443   */\n      add\n        /* \"#utility.yul\":7417:7443   */\n      swap1\n      pop\n        /* \"#utility.yul\":7453:7520   */\n      tag_556\n        /* \"#utility.yul\":7517:7518   */\n      0x00\n        /* \"#utility.yul\":7506:7515   */\n      dup4\n        /* \"#utility.yul\":7502:7519   */\n      add\n        /* \"#utility.yul\":7493:7499   */\n      dup5\n        /* \"#utility.yul\":7453:7520   */\n      tag_416\n      jump\t// in\n    tag_556:\n        /* \"#utility.yul\":7313:7527   */\n      swap3\n      swap2\n      pop\n      pop\n      jump\t// out\n        /* \"#utility.yul\":7533:7862   */\n    tag_95:\n        /* \"#utility.yul\":7592:7598   */\n      0x00\n        /* \"#utility.yul\":7641:7643   */\n      0x20\n        /* \"#utility.yul\":7629:7638   */\n      dup3\n        /* \"#utility.yul\":7620:7627   */\n      dup5\n        /* \"#utility.yul\":7616:7639   */\n      sub\n        /* \"#utility.yul\":7612:7644   */\n      slt\n        /* \"#utility.yul\":7609:7728   */\n      iszero\n      tag_558\n      jumpi\n        /* \"#utility.yul\":7647:7726   */\n      tag_559\n      tag_396\n      jump\t// in\n    tag_559:\n        /* \"#utility.yul\":7609:7728   */\n    tag_558:\n        /* \"#utility.yul\":7767:7768   */\n      0x00\n        /* \"#utility.yul\":7792:7845   */\n      tag_560\n        /* \"#utility.yul\":7837:7844   */\n      dup5\n        /* \"#utility.yul\":7828:7834   */\n      dup3\n        /* \"#utility.yul\":7817:7826   */\n      dup6\n        /* \"#utility.yul\":7813:7835   */\n      add\n        /* \"#utility.yul\":7792:7845   */\n      tag_409\n      jump\t// in\n    tag_560:\n        /* \"#utility.yul\":7782:7845   */\n      swap2\n      pop\n        /* \"#utility.yul\":7738:7855   */\n      pop\n        /* \"#utility.yul\":7533:7862   */\n      swap3\n      swap2\n      pop\n      pop\n      jump\t// out\n        /* \"#utility.yul\":7868:8342   */\n    tag_105:\n        /* \"#utility.yul\":7936:7942   */\n      0x00\n        /* \"#utility.yul\":7944:7950   */\n      dup1\n        /* \"#utility.yul\":7993:7995   */\n      0x40\n        /* \"#utility.yul\":7981:7990   */\n      dup4\n        /* \"#utility.yul\":7972:7979   */\n      dup6\n        /* \"#utility.yul\":7968:7991   */\n      sub\n        /* \"#utility.yul\":7964:7996   */\n      slt\n        /* \"#utility.yul\":7961:8080   */\n      iszero\n      tag_562\n      jumpi\n        /* \"#utility.yul\":7999:8078   */\n      tag_563\n      tag_396\n      jump\t// in\n    tag_563:\n        /* \"#utility.yul\":7961:8080   */\n    tag_562:\n        /* \"#utility.yul\":8119:8120   */\n      0x00\n        /* \"#utility.yul\":8144:8197   */\n      tag_564\n        /* \"#utility.yul\":8189:8196   */\n      dup6\n        /* \"#utility.yul\":8180:8186   */\n      dup3\n        /* \"#utility.yul\":8169:8178   */\n      dup7\n        /* \"#utility.yul\":8165:8187   */\n      add\n        /* \"#utility.yul\":8144:8197   */\n      tag_399\n      jump\t// in\n    tag_564:\n        /* \"#utility.yul\":8134:8197   */\n      swap3\n      pop\n        /* \"#utility.yul\":8090:8207   */\n      pop\n        /* \"#utility.yul\":8246:8248   */\n      0x20\n        /* \"#utility.yul\":8272:8325   */\n      tag_565\n        /* \"#utility.yul\":8317:8324   */\n      dup6\n        /* \"#utility.yul\":8308:8314   */\n      dup3\n        /* \"#utility.yul\":8297:8306   */\n      dup7\n        /* \"#utility.yul\":8293:8315   */\n      add\n        /* \"#utility.yul\":8272:8325   */\n      tag_409\n      jump\t// in\n    tag_565:\n        /* \"#utility.yul\":8262:8325   */\n      swap2\n      pop\n        /* \"#utility.yul\":8217:8335   */\n      pop\n        /* \"#utility.yul\":7868:8342   */\n      swap3\n      pop\n      swap3\n      swap1\n      pop\n      jump\t// out\n        /* \"#utility.yul\":8348:8490   */\n    tag_417:\n        /* \"#utility.yul\":8443:8449   */\n      0x00\n        /* \"#utility.yul\":8477:8482   */\n      dup2\n        /* \"#utility.yul\":8471:8483   */\n      mload\n        /* \"#utility.yul\":8461:8483   */\n      swap1\n      pop\n        /* \"#utility.yul\":8348:8490   */\n      swap2\n      swap1\n      pop\n      jump\t// out\n        /* \"#utility.yul\":8496:8708   */\n    tag_418:\n        /* \"#utility.yul\":8623:8634   */\n      0x00\n        /* \"#utility.yul\":8657:8663   */\n      dup3\n        /* \"#utility.yul\":8652:8655   */\n      dup3\n        /* \"#utility.yul\":8645:8664   */\n      mstore\n        /* \"#utility.yul\":8697:8701   */\n      0x20\n        /* \"#utility.yul\":8692:8695   */\n      dup3\n        /* \"#utility.yul\":8688:8702   */\n      add\n        /* \"#utility.yul\":8673:8702   */\n      swap1\n      pop\n        /* \"#utility.yul\":8496:8708   */\n      swap3\n      swap2\n      pop\n      pop\n      jump\t// out\n        /* \"#utility.yul\":8714:8874   */\n    tag_419:\n        /* \"#utility.yul\":8809:8813   */\n      0x00\n        /* \"#utility.yul\":8832:8835   */\n      dup2\n        /* \"#utility.yul\":8824:8835   */\n      swap1\n      pop\n        /* \"#utility.yul\":8862:8866   */\n      0x20\n        /* \"#utility.yul\":8857:8860   */\n      dup3\n        /* \"#utility.yul\":8853:8867   */\n      add\n        /* \"#utility.yul\":8845:8867   */\n      swap1\n      pop\n        /* \"#utility.yul\":8714:8874   */\n      swap2\n      swap1\n      pop\n      jump\t// out\n        /* \"#utility.yul\":8880:8988   */\n    tag_420:\n        /* \"#utility.yul\":8957:8981   */\n      tag_570\n        /* \"#utility.yul\":8975:8980   */\n      dup2\n        /* \"#utility.yul\":8957:8981   */\n      tag_401\n      jump\t// in\n    tag_570:\n        /* \"#utility.yul\":8952:8955   */\n      dup3\n        /* \"#utility.yul\":8945:8982   */\n      mstore\n        /* \"#utility.yul\":8880:8988   */\n      pop\n      pop\n      jump\t// out\n        /* \"#utility.yul\":8994:9102   */\n    tag_421:\n        /* \"#utility.yul\":9071:9095   */\n      tag_572\n        /* \"#utility.yul\":9089:9094   */\n      dup2\n        /* \"#utility.yul\":9071:9095   */\n      tag_393\n      jump\t// in\n    tag_572:\n        /* \"#utility.yul\":9066:9069   */\n      dup3\n        /* \"#utility.yul\":9059:9096   */\n      mstore\n        /* \"#utility.yul\":8994:9102   */\n      pop\n      pop\n      jump\t// out\n        /* \"#utility.yul\":9108:9266   */\n    tag_422:\n        /* \"#utility.yul\":9181:9192   */\n      0x00\n        /* \"#utility.yul\":9215:9221   */\n      dup3\n        /* \"#utility.yul\":9210:9213   */\n      dup3\n        /* \"#utility.yul\":9203:9222   */\n      mstore\n        /* \"#utility.yul\":9255:9259   */\n      0x20\n        /* \"#utility.yul\":9250:9253   */\n      dup3\n        /* \"#utility.yul\":9246:9260   */\n      add\n        /* \"#utility.yul\":9231:9260   */\n      swap1\n      pop\n        /* \"#utility.yul\":9108:9266   */\n      swap3\n      swap2\n      pop\n      pop\n      jump\t// out\n        /* \"#utility.yul\":9272:9625   */\n    tag_423:\n        /* \"#utility.yul\":9348:9351   */\n      0x00\n        /* \"#utility.yul\":9376:9414   */\n      tag_575\n        /* \"#utility.yul\":9408:9413   */\n      dup3\n        /* \"#utility.yul\":9376:9414   */\n      tag_412\n      jump\t// in\n    tag_575:\n        /* \"#utility.yul\":9430:9490   */\n      tag_576\n        /* \"#utility.yul\":9483:9489   */\n      dup2\n        /* \"#utility.yul\":9478:9481   */\n      dup6\n        /* \"#utility.yul\":9430:9490   */\n      tag_422\n      jump\t// in\n    tag_576:\n        /* \"#utility.yul\":9423:9490   */\n      swap4\n      pop\n        /* \"#utility.yul\":9499:9564   */\n      tag_577\n        /* \"#utility.yul\":9557:9563   */\n      dup2\n        /* \"#utility.yul\":9552:9555   */\n      dup6\n        /* \"#utility.yul\":9545:9549   */\n      0x20\n        /* \"#utility.yul\":9538:9543   */\n      dup7\n        /* \"#utility.yul\":9534:9550   */\n      add\n        /* \"#utility.yul\":9499:9564   */\n      tag_405\n      jump\t// in\n    tag_577:\n        /* \"#utility.yul\":9589:9618   */\n      tag_578\n        /* \"#utility.yul\":9611:9617   */\n      dup2\n        /* \"#utility.yul\":9589:9618   */\n      tag_406\n      jump\t// in\n    tag_578:\n        /* \"#utility.yul\":9584:9587   */\n      dup5\n        /* \"#utility.yul\":9580:9619   */\n      add\n        /* \"#utility.yul\":9573:9619   */\n      swap2\n      pop\n        /* \"#utility.yul\":9352:9625   */\n      pop\n        /* \"#utility.yul\":9272:9625   */\n      swap3\n      swap2\n      pop\n      pop\n      jump\t// out\n        /* \"#utility.yul\":9631:9730   */\n    tag_424:\n        /* \"#utility.yul\":9702:9723   */\n      tag_580\n        /* \"#utility.yul\":9717:9722   */\n      dup2\n        /* \"#utility.yul\":9702:9723   */\n      tag_410\n      jump\t// in\n    tag_580:\n        /* \"#utility.yul\":9697:9700   */\n      dup3\n        /* \"#utility.yul\":9690:9724   */\n      mstore\n        /* \"#utility.yul\":9631:9730   */\n      pop\n      pop\n      jump\t// out\n        /* \"#utility.yul\":9736:9916   */\n    tag_273:\n        /* \"#utility.yul\":9784:9861   */\n      0x4e487b7100000000000000000000000000000000000000000000000000000000\n        /* \"#utility.yul\":9781:9782   */\n      0x00\n        /* \"#utility.yul\":9774:9862   */\n      mstore\n        /* \"#utility.yul\":9881:9885   */\n      0x21\n        /* \"#utility.yul\":9878:9879   */\n      0x04\n        /* \"#utility.yul\":9871:9886   */\n      mstore\n        /* \"#utility.yul\":9905:9909   */\n      0x24\n        /* \"#utility.yul\":9902:9903   */\n      0x00\n        /* \"#utility.yul\":9895:9910   */\n      revert\n        /* \"#utility.yul\":9922:10036   */\n    tag_425:\n        /* \"#utility.yul\":10004:10005   */\n      0x04\n        /* \"#utility.yul\":9997:10002   */\n      dup2\n        /* \"#utility.yul\":9994:10006   */\n      lt\n        /* \"#utility.yul\":9984:10030   */\n      tag_583\n      jumpi\n        /* \"#utility.yul\":10010:10028   */\n      tag_584\n      tag_273\n      jump\t// in\n    tag_584:\n        /* \"#utility.yul\":9984:10030   */\n    tag_583:\n        /* \"#utility.yul\":9922:10036   */\n      pop\n      jump\t// out\n        /* \"#utility.yul\":10042:10171   */\n    tag_426:\n        /* \"#utility.yul\":10088:10095   */\n      0x00\n        /* \"#utility.yul\":10117:10122   */\n      dup2\n        /* \"#utility.yul\":10106:10122   */\n      swap1\n      pop\n        /* \"#utility.yul\":10123:10165   */\n      tag_586\n        /* \"#utility.yul\":10159:10164   */\n      dup3\n        /* \"#utility.yul\":10123:10165   */\n      tag_425\n      jump\t// in\n    tag_586:\n        /* \"#utility.yul\":10042:10171   */\n      swap2\n      swap1\n      pop\n      jump\t// out\n        /* \"#utility.yul\":10177:10306   */\n    tag_427:\n        /* \"#utility.yul\":10234:10243   */\n      0x00\n        /* \"#utility.yul\":10267:10300   */\n      tag_588\n        /* \"#utility.yul\":10294:10299   */\n      dup3\n        /* \"#utility.yul\":10267:10300   */\n      tag_426\n      jump\t// in\n    tag_588:\n        /* \"#utility.yul\":10254:10300   */\n      swap1\n      pop\n        /* \"#utility.yul\":10177:10306   */\n      swap2\n      swap1\n      pop\n      jump\t// out\n        /* \"#utility.yul\":10312:10447   */\n    tag_428:\n        /* \"#utility.yul\":10396:10440   */\n      tag_590\n        /* \"#utility.yul\":10434:10439   */\n      dup2\n        /* \"#utility.yul\":10396:10440   */\n      tag_427\n      jump\t// in\n    tag_590:\n        /* \"#utility.yul\":10391:10394   */\n      dup3\n        /* \"#utility.yul\":10384:10441   */\n      mstore\n        /* \"#utility.yul\":10312:10447   */\n      pop\n      pop\n      jump\t// out\n        /* \"#utility.yul\":10513:12344   */\n    tag_429:\n        /* \"#utility.yul\":10628:10631   */\n      0x00\n        /* \"#utility.yul\":10664:10670   */\n      0x0120\n        /* \"#utility.yul\":10659:10662   */\n      dup4\n        /* \"#utility.yul\":10655:10671   */\n      add\n        /* \"#utility.yul\":10751:10755   */\n      0x00\n        /* \"#utility.yul\":10744:10749   */\n      dup4\n        /* \"#utility.yul\":10740:10756   */\n      add\n        /* \"#utility.yul\":10734:10757   */\n      mload\n        /* \"#utility.yul\":10770:10833   */\n      tag_592\n        /* \"#utility.yul\":10827:10831   */\n      0x00\n        /* \"#utility.yul\":10822:10825   */\n      dup7\n        /* \"#utility.yul\":10818:10832   */\n      add\n        /* \"#utility.yul\":10804:10816   */\n      dup3\n        /* \"#utility.yul\":10770:10833   */\n      tag_420\n      jump\t// in\n    tag_592:\n        /* \"#utility.yul\":10681:10843   */\n      pop\n        /* \"#utility.yul\":10926:10930   */\n      0x20\n        /* \"#utility.yul\":10919:10924   */\n      dup4\n        /* \"#utility.yul\":10915:10931   */\n      add\n        /* \"#utility.yul\":10909:10932   */\n      mload\n        /* \"#utility.yul\":10945:11008   */\n      tag_593\n        /* \"#utility.yul\":11002:11006   */\n      0x20\n        /* \"#utility.yul\":10997:11000   */\n      dup7\n        /* \"#utility.yul\":10993:11007   */\n      add\n        /* \"#utility.yul\":10979:10991   */\n      dup3\n        /* \"#utility.yul\":10945:11008   */\n      tag_421\n      jump\t// in\n    tag_593:\n        /* \"#utility.yul\":10853:11018   */\n      pop\n        /* \"#utility.yul\":11100:11104   */\n      0x40\n        /* \"#utility.yul\":11093:11098   */\n      dup4\n        /* \"#utility.yul\":11089:11105   */\n      add\n        /* \"#utility.yul\":11083:11106   */\n      mload\n        /* \"#utility.yul\":11153:11156   */\n      dup5\n        /* \"#utility.yul\":11147:11151   */\n      dup3\n        /* \"#utility.yul\":11143:11157   */\n      sub\n        /* \"#utility.yul\":11136:11140   */\n      0x40\n        /* \"#utility.yul\":11131:11134   */\n      dup7\n        /* \"#utility.yul\":11127:11141   */\n      add\n        /* \"#utility.yul\":11120:11158   */\n      mstore\n        /* \"#utility.yul\":11179:11250   */\n      tag_594\n        /* \"#utility.yul\":11245:11249   */\n      dup3\n        /* \"#utility.yul\":11231:11243   */\n      dup3\n        /* \"#utility.yul\":11179:11250   */\n      tag_423\n      jump\t// in\n    tag_594:\n        /* \"#utility.yul\":11171:11250   */\n      swap2\n      pop\n        /* \"#utility.yul\":11028:11261   */\n      pop\n        /* \"#utility.yul\":11347:11351   */\n      0x60\n        /* \"#utility.yul\":11340:11345   */\n      dup4\n        /* \"#utility.yul\":11336:11352   */\n      add\n        /* \"#utility.yul\":11330:11353   */\n      mload\n        /* \"#utility.yul\":11366:11423   */\n      tag_595\n        /* \"#utility.yul\":11417:11421   */\n      0x60\n        /* \"#utility.yul\":11412:11415   */\n      dup7\n        /* \"#utility.yul\":11408:11422   */\n      add\n        /* \"#utility.yul\":11394:11406   */\n      dup3\n        /* \"#utility.yul\":11366:11423   */\n      tag_424\n      jump\t// in\n    tag_595:\n        /* \"#utility.yul\":11271:11433   */\n      pop\n        /* \"#utility.yul\":11513:11517   */\n      0x80\n        /* \"#utility.yul\":11506:11511   */\n      dup4\n        /* \"#utility.yul\":11502:11518   */\n      add\n        /* \"#utility.yul\":11496:11519   */\n      mload\n        /* \"#utility.yul\":11532:11595   */\n      tag_596\n        /* \"#utility.yul\":11589:11593   */\n      0x80\n        /* \"#utility.yul\":11584:11587   */\n      dup7\n        /* \"#utility.yul\":11580:11594   */\n      add\n        /* \"#utility.yul\":11566:11578   */\n      dup3\n        /* \"#utility.yul\":11532:11595   */\n      tag_421\n      jump\t// in\n    tag_596:\n        /* \"#utility.yul\":11443:11605   */\n      pop\n        /* \"#utility.yul\":11691:11695   */\n      0xa0\n        /* \"#utility.yul\":11684:11689   */\n      dup4\n        /* \"#utility.yul\":11680:11696   */\n      add\n        /* \"#utility.yul\":11674:11697   */\n      mload\n        /* \"#utility.yul\":11710:11773   */\n      tag_597\n        /* \"#utility.yul\":11767:11771   */\n      0xa0\n        /* \"#utility.yul\":11762:11765   */\n      dup7\n        /* \"#utility.yul\":11758:11772   */\n      add\n        /* \"#utility.yul\":11744:11756   */\n      dup3\n        /* \"#utility.yul\":11710:11773   */\n      tag_421\n      jump\t// in\n    tag_597:\n        /* \"#utility.yul\":11615:11783   */\n      pop\n        /* \"#utility.yul\":11868:11872   */\n      0xc0\n        /* \"#utility.yul\":11861:11866   */\n      dup4\n        /* \"#utility.yul\":11857:11873   */\n      add\n        /* \"#utility.yul\":11851:11874   */\n      mload\n        /* \"#utility.yul\":11887:11950   */\n      tag_598\n        /* \"#utility.yul\":11944:11948   */\n      0xc0\n        /* \"#utility.yul\":11939:11942   */\n      dup7\n        /* \"#utility.yul\":11935:11949   */\n      add\n        /* \"#utility.yul\":11921:11933   */\n      dup3\n        /* \"#utility.yul\":11887:11950   */\n      tag_421\n      jump\t// in\n    tag_598:\n        /* \"#utility.yul\":11793:11960   */\n      pop\n        /* \"#utility.yul\":12040:12044   */\n      0xe0\n        /* \"#utility.yul\":12033:12038   */\n      dup4\n        /* \"#utility.yul\":12029:12045   */\n      add\n        /* \"#utility.yul\":12023:12046   */\n      mload\n        /* \"#utility.yul\":12059:12129   */\n      tag_599\n        /* \"#utility.yul\":12123:12127   */\n      0xe0\n        /* \"#utility.yul\":12118:12121   */\n      dup7\n        /* \"#utility.yul\":12114:12128   */\n      add\n        /* \"#utility.yul\":12100:12112   */\n      dup3\n        /* \"#utility.yul\":12059:12129   */\n      tag_428\n      jump\t// in\n    tag_599:\n        /* \"#utility.yul\":11970:12139   */\n      pop\n        /* \"#utility.yul\":12221:12227   */\n      0x0100\n        /* \"#utility.yul\":12214:12219   */\n      dup4\n        /* \"#utility.yul\":12210:12228   */\n      add\n        /* \"#utility.yul\":12204:12229   */\n      mload\n        /* \"#utility.yul\":12242:12307   */\n      tag_600\n        /* \"#utility.yul\":12299:12305   */\n      0x0100\n        /* \"#utility.yul\":12294:12297   */\n      dup7\n        /* \"#utility.yul\":12290:12306   */\n      add\n        /* \"#utility.yul\":12276:12288   */\n      dup3\n        /* \"#utility.yul\":12242:12307   */\n      tag_421\n      jump\t// in\n    tag_600:\n        /* \"#utility.yul\":12149:12317   */\n      pop\n        /* \"#utility.yul\":12334:12338   */\n      dup1\n        /* \"#utility.yul\":12327:12338   */\n      swap2\n      pop\n        /* \"#utility.yul\":10633:12344   */\n      pop\n        /* \"#utility.yul\":10513:12344   */\n      swap3\n      swap2\n      pop\n      pop\n      jump\t// out\n        /* \"#utility.yul\":12350:12618   */\n    tag_430:\n        /* \"#utility.yul\":12475:12485   */\n      0x00\n        /* \"#utility.yul\":12510:12612   */\n      tag_602\n        /* \"#utility.yul\":12608:12611   */\n      dup4\n        /* \"#utility.yul\":12600:12606   */\n      dup4\n        /* \"#utility.yul\":12510:12612   */\n      tag_429\n      jump\t// in\n    tag_602:\n        /* \"#utility.yul\":12496:12612   */\n      swap1\n      pop\n        /* \"#utility.yul\":12350:12618   */\n      swap3\n      swap2\n      pop\n      pop\n      jump\t// out\n        /* \"#utility.yul\":12624:12765   */\n    tag_431:\n        /* \"#utility.yul\":12722:12726   */\n      0x00\n        /* \"#utility.yul\":12754:12758   */\n      0x20\n        /* \"#utility.yul\":12749:12752   */\n      dup3\n        /* \"#utility.yul\":12745:12759   */\n      add\n        /* \"#utility.yul\":12737:12759   */\n      swap1\n      pop\n        /* \"#utility.yul\":12624:12765   */\n      swap2\n      swap1\n      pop\n      jump\t// out\n        /* \"#utility.yul\":12835:13970   */\n    tag_432:\n        /* \"#utility.yul\":13010:13013   */\n      0x00\n        /* \"#utility.yul\":13039:13121   */\n      tag_605\n        /* \"#utility.yul\":13115:13120   */\n      dup3\n        /* \"#utility.yul\":13039:13121   */\n      tag_417\n      jump\t// in\n    tag_605:\n        /* \"#utility.yul\":13137:13251   */\n      tag_606\n        /* \"#utility.yul\":13244:13250   */\n      dup2\n        /* \"#utility.yul\":13239:13242   */\n      dup6\n        /* \"#utility.yul\":13137:13251   */\n      tag_418\n      jump\t// in\n    tag_606:\n        /* \"#utility.yul\":13130:13251   */\n      swap4\n      pop\n        /* \"#utility.yul\":13277:13280   */\n      dup4\n        /* \"#utility.yul\":13322:13326   */\n      0x20\n        /* \"#utility.yul\":13314:13320   */\n      dup3\n        /* \"#utility.yul\":13310:13327   */\n      mul\n        /* \"#utility.yul\":13305:13308   */\n      dup6\n        /* \"#utility.yul\":13301:13328   */\n      add\n        /* \"#utility.yul\":13352:13436   */\n      tag_607\n        /* \"#utility.yul\":13430:13435   */\n      dup6\n        /* \"#utility.yul\":13352:13436   */\n      tag_419\n      jump\t// in\n    tag_607:\n        /* \"#utility.yul\":13459:13466   */\n      dup1\n        /* \"#utility.yul\":13490:13491   */\n      0x00\n        /* \"#utility.yul\":13475:13925   */\n    tag_608:\n        /* \"#utility.yul\":13500:13506   */\n      dup6\n        /* \"#utility.yul\":13497:13498   */\n      dup2\n        /* \"#utility.yul\":13494:13507   */\n      lt\n        /* \"#utility.yul\":13475:13925   */\n      iszero\n      tag_610\n      jumpi\n        /* \"#utility.yul\":13571:13580   */\n      dup5\n        /* \"#utility.yul\":13565:13569   */\n      dup5\n        /* \"#utility.yul\":13561:13581   */\n      sub\n        /* \"#utility.yul\":13556:13559   */\n      dup10\n        /* \"#utility.yul\":13549:13582   */\n      mstore\n        /* \"#utility.yul\":13622:13628   */\n      dup2\n        /* \"#utility.yul\":13616:13629   */\n      mload\n        /* \"#utility.yul\":13650:13770   */\n      tag_611\n        /* \"#utility.yul\":13765:13769   */\n      dup6\n        /* \"#utility.yul\":13750:13763   */\n      dup3\n        /* \"#utility.yul\":13650:13770   */\n      tag_430\n      jump\t// in\n    tag_611:\n        /* \"#utility.yul\":13642:13770   */\n      swap5\n      pop\n        /* \"#utility.yul\":13793:13881   */\n      tag_612\n        /* \"#utility.yul\":13874:13880   */\n      dup4\n        /* \"#utility.yul\":13793:13881   */\n      tag_431\n      jump\t// in\n    tag_612:\n        /* \"#utility.yul\":13783:13881   */\n      swap3\n      pop\n        /* \"#utility.yul\":13910:13914   */\n      0x20\n        /* \"#utility.yul\":13905:13908   */\n      dup11\n        /* \"#utility.yul\":13901:13915   */\n      add\n        /* \"#utility.yul\":13894:13915   */\n      swap10\n      pop\n        /* \"#utility.yul\":13535:13925   */\n      pop\n        /* \"#utility.yul\":13522:13523   */\n      0x01\n        /* \"#utility.yul\":13519:13520   */\n      dup2\n        /* \"#utility.yul\":13515:13524   */\n      add\n        /* \"#utility.yul\":13510:13524   */\n      swap1\n      pop\n        /* \"#utility.yul\":13475:13925   */\n      jump(tag_608)\n    tag_610:\n        /* \"#utility.yul\":13479:13493   */\n      pop\n        /* \"#utility.yul\":13941:13945   */\n      dup3\n        /* \"#utility.yul\":13934:13945   */\n      swap8\n      pop\n        /* \"#utility.yul\":13961:13964   */\n      dup8\n        /* \"#utility.yul\":13954:13964   */\n      swap6\n      pop\n        /* \"#utility.yul\":13015:13970   */\n      pop\n      pop\n      pop\n      pop\n      pop\n        /* \"#utility.yul\":12835:13970   */\n      swap3\n      swap2\n      pop\n      pop\n      jump\t// out\n        /* \"#utility.yul\":13976:14461   */\n    tag_121:\n        /* \"#utility.yul\":14175:14179   */\n      0x00\n        /* \"#utility.yul\":14213:14215   */\n      0x20\n        /* \"#utility.yul\":14202:14211   */\n      dup3\n        /* \"#utility.yul\":14198:14216   */\n      add\n        /* \"#utility.yul\":14190:14216   */\n      swap1\n      pop\n        /* \"#utility.yul\":14262:14271   */\n      dup2\n        /* \"#utility.yul\":14256:14260   */\n      dup2\n        /* \"#utility.yul\":14252:14272   */\n      sub\n        /* \"#utility.yul\":14248:14249   */\n      0x00\n        /* \"#utility.yul\":14237:14246   */\n      dup4\n        /* \"#utility.yul\":14233:14250   */\n      add\n        /* \"#utility.yul\":14226:14273   */\n      mstore\n        /* \"#utility.yul\":14290:14454   */\n      tag_614\n        /* \"#utility.yul\":14449:14453   */\n      dup2\n        /* \"#utility.yul\":14440:14446   */\n      dup5\n        /* \"#utility.yul\":14290:14454   */\n      tag_432\n      jump\t// in\n    tag_614:\n        /* \"#utility.yul\":14282:14454   */\n      swap1\n      pop\n        /* \"#utility.yul\":13976:14461   */\n      swap3\n      swap2\n      pop\n      pop\n      jump\t// out\n        /* \"#utility.yul\":14467:15222   */\n    tag_131:\n        /* \"#utility.yul\":14692:14696   */\n      0x00\n        /* \"#utility.yul\":14730:14733   */\n      0xa0\n        /* \"#utility.yul\":14719:14728   */\n      dup3\n        /* \"#utility.yul\":14715:14734   */\n      add\n        /* \"#utility.yul\":14707:14734   */\n      swap1\n      pop\n        /* \"#utility.yul\":14780:14789   */\n      dup2\n        /* \"#utility.yul\":14774:14778   */\n      dup2\n        /* \"#utility.yul\":14770:14790   */\n      sub\n        /* \"#utility.yul\":14766:14767   */\n      0x00\n        /* \"#utility.yul\":14755:14764   */\n      dup4\n        /* \"#utility.yul\":14751:14768   */\n      add\n        /* \"#utility.yul\":14744:14791   */\n      mstore\n        /* \"#utility.yul\":14808:14886   */\n      tag_616\n        /* \"#utility.yul\":14881:14885   */\n      dup2\n        /* \"#utility.yul\":14872:14878   */\n      dup9\n        /* \"#utility.yul\":14808:14886   */\n      tag_407\n      jump\t// in\n    tag_616:\n        /* \"#utility.yul\":14800:14886   */\n      swap1\n      pop\n        /* \"#utility.yul\":14896:14968   */\n      tag_617\n        /* \"#utility.yul\":14964:14966   */\n      0x20\n        /* \"#utility.yul\":14953:14962   */\n      dup4\n        /* \"#utility.yul\":14949:14967   */\n      add\n        /* \"#utility.yul\":14940:14946   */\n      dup8\n        /* \"#utility.yul\":14896:14968   */\n      tag_394\n      jump\t// in\n    tag_617:\n        /* \"#utility.yul\":14978:15050   */\n      tag_618\n        /* \"#utility.yul\":15046:15048   */\n      0x40\n        /* \"#utility.yul\":15035:15044   */\n      dup4\n        /* \"#utility.yul\":15031:15049   */\n      add\n        /* \"#utility.yul\":15022:15028   */\n      dup7\n        /* \"#utility.yul\":14978:15050   */\n      tag_394\n      jump\t// in\n    tag_618:\n        /* \"#utility.yul\":15060:15132   */\n      tag_619\n        /* \"#utility.yul\":15128:15130   */\n      0x60\n        /* \"#utility.yul\":15117:15126   */\n      dup4\n        /* \"#utility.yul\":15113:15131   */\n      add\n        /* \"#utility.yul\":15104:15110   */\n      dup6\n        /* \"#utility.yul\":15060:15132   */\n      tag_402\n      jump\t// in\n    tag_619:\n        /* \"#utility.yul\":15142:15215   */\n      tag_620\n        /* \"#utility.yul\":15210:15213   */\n      0x80\n        /* \"#utility.yul\":15199:15208   */\n      dup4\n        /* \"#utility.yul\":15195:15214   */\n      add\n        /* \"#utility.yul\":15186:15192   */\n      dup5\n        /* \"#utility.yul\":15142:15215   */\n      tag_394\n      jump\t// in\n    tag_620:\n        /* \"#utility.yul\":14467:15222   */\n      swap7\n      swap6\n      pop\n      pop\n      pop\n      pop\n      pop\n      pop\n      jump\t// out\n        /* \"#utility.yul\":15228:15373   */\n    tag_433:\n        /* \"#utility.yul\":15322:15366   */\n      tag_622\n        /* \"#utility.yul\":15360:15365   */\n      dup2\n        /* \"#utility.yul\":15322:15366   */\n      tag_427\n      jump\t// in\n    tag_622:\n        /* \"#utility.yul\":15317:15320   */\n      dup3\n        /* \"#utility.yul\":15310:15367   */\n      mstore\n        /* \"#utility.yul\":15228:15373   */\n      pop\n      pop\n      jump\t// out\n        /* \"#utility.yul\":15379:16576   */\n    tag_137:\n        /* \"#utility.yul\":15715:15719   */\n      0x00\n        /* \"#utility.yul\":15753:15756   */\n      0x0120\n        /* \"#utility.yul\":15742:15751   */\n      dup3\n        /* \"#utility.yul\":15738:15757   */\n      add\n        /* \"#utility.yul\":15730:15757   */\n      swap1\n      pop\n        /* \"#utility.yul\":15767:15838   */\n      tag_624\n        /* \"#utility.yul\":15835:15836   */\n      0x00\n        /* \"#utility.yul\":15824:15833   */\n      dup4\n        /* \"#utility.yul\":15820:15837   */\n      add\n        /* \"#utility.yul\":15811:15817   */\n      dup13\n        /* \"#utility.yul\":15767:15838   */\n      tag_402\n      jump\t// in\n    tag_624:\n        /* \"#utility.yul\":15848:15920   */\n      tag_625\n        /* \"#utility.yul\":15916:15918   */\n      0x20\n        /* \"#utility.yul\":15905:15914   */\n      dup4\n        /* \"#utility.yul\":15901:15919   */\n      add\n        /* \"#utility.yul\":15892:15898   */\n      dup12\n        /* \"#utility.yul\":15848:15920   */\n      tag_394\n      jump\t// in\n    tag_625:\n        /* \"#utility.yul\":15967:15976   */\n      dup2\n        /* \"#utility.yul\":15961:15965   */\n      dup2\n        /* \"#utility.yul\":15957:15977   */\n      sub\n        /* \"#utility.yul\":15952:15954   */\n      0x40\n        /* \"#utility.yul\":15941:15950   */\n      dup4\n        /* \"#utility.yul\":15937:15955   */\n      add\n        /* \"#utility.yul\":15930:15978   */\n      mstore\n        /* \"#utility.yul\":15995:16071   */\n      tag_626\n        /* \"#utility.yul\":16066:16070   */\n      dup2\n        /* \"#utility.yul\":16057:16063   */\n      dup11\n        /* \"#utility.yul\":15995:16071   */\n      tag_414\n      jump\t// in\n    tag_626:\n        /* \"#utility.yul\":15987:16071   */\n      swap1\n      pop\n        /* \"#utility.yul\":16081:16147   */\n      tag_627\n        /* \"#utility.yul\":16143:16145   */\n      0x60\n        /* \"#utility.yul\":16132:16141   */\n      dup4\n        /* \"#utility.yul\":16128:16146   */\n      add\n        /* \"#utility.yul\":16119:16125   */\n      dup10\n        /* \"#utility.yul\":16081:16147   */\n      tag_411\n      jump\t// in\n    tag_627:\n        /* \"#utility.yul\":16157:16230   */\n      tag_628\n        /* \"#utility.yul\":16225:16228   */\n      0x80\n        /* \"#utility.yul\":16214:16223   */\n      dup4\n        /* \"#utility.yul\":16210:16229   */\n      add\n        /* \"#utility.yul\":16201:16207   */\n      dup9\n        /* \"#utility.yul\":16157:16230   */\n      tag_394\n      jump\t// in\n    tag_628:\n        /* \"#utility.yul\":16240:16313   */\n      tag_629\n        /* \"#utility.yul\":16308:16311   */\n      0xa0\n        /* \"#utility.yul\":16297:16306   */\n      dup4\n        /* \"#utility.yul\":16293:16312   */\n      add\n        /* \"#utility.yul\":16284:16290   */\n      dup8\n        /* \"#utility.yul\":16240:16313   */\n      tag_394\n      jump\t// in\n    tag_629:\n        /* \"#utility.yul\":16323:16396   */\n      tag_630\n        /* \"#utility.yul\":16391:16394   */\n      0xc0\n        /* \"#utility.yul\":16380:16389   */\n      dup4\n        /* \"#utility.yul\":16376:16395   */\n      add\n        /* \"#utility.yul\":16367:16373   */\n      dup7\n        /* \"#utility.yul\":16323:16396   */\n      tag_394\n      jump\t// in\n    tag_630:\n        /* \"#utility.yul\":16406:16486   */\n      tag_631\n        /* \"#utility.yul\":16481:16484   */\n      0xe0\n        /* \"#utility.yul\":16470:16479   */\n      dup4\n        /* \"#utility.yul\":16466:16485   */\n      add\n        /* \"#utility.yul\":16457:16463   */\n      dup6\n        /* \"#utility.yul\":16406:16486   */\n      tag_433\n      jump\t// in\n    tag_631:\n        /* \"#utility.yul\":16496:16569   */\n      tag_632\n        /* \"#utility.yul\":16564:16567   */\n      0x0100\n        /* \"#utility.yul\":16553:16562   */\n      dup4\n        /* \"#utility.yul\":16549:16568   */\n      add\n        /* \"#utility.yul\":16540:16546   */\n      dup5\n        /* \"#utility.yul\":16496:16569   */\n      tag_394\n      jump\t// in\n    tag_632:\n        /* \"#utility.yul\":15379:16576   */\n      swap11\n      swap10\n      pop\n      pop\n      pop\n      pop\n      pop\n      pop\n      pop\n      pop\n      pop\n      pop\n      jump\t// out\n        /* \"#utility.yul\":16582:16699   */\n    tag_434:\n        /* \"#utility.yul\":16691:16692   */\n      0x00\n        /* \"#utility.yul\":16688:16689   */\n      dup1\n        /* \"#utility.yul\":16681:16693   */\n      revert\n        /* \"#utility.yul\":16705:16822   */\n    tag_435:\n        /* \"#utility.yul\":16814:16815   */\n      0x00\n        /* \"#utility.yul\":16811:16812   */\n      dup1\n        /* \"#utility.yul\":16804:16816   */\n      revert\n        /* \"#utility.yul\":16828:17008   */\n    tag_436:\n        /* \"#utility.yul\":16876:16953   */\n      0x4e487b7100000000000000000000000000000000000000000000000000000000\n        /* \"#utility.yul\":16873:16874   */\n      0x00\n        /* \"#utility.yul\":16866:16954   */\n      mstore\n        /* \"#utility.yul\":16973:16977   */\n      0x41\n        /* \"#utility.yul\":16970:16971   */\n      0x04\n        /* \"#utility.yul\":16963:16978   */\n      mstore\n        /* \"#utility.yul\":16997:17001   */\n      0x24\n        /* \"#utility.yul\":16994:16995   */\n      0x00\n        /* \"#utility.yul\":16987:17002   */\n      revert\n        /* \"#utility.yul\":17014:17295   */\n    tag_437:\n        /* \"#utility.yul\":17097:17124   */\n      tag_637\n        /* \"#utility.yul\":17119:17123   */\n      dup3\n        /* \"#utility.yul\":17097:17124   */\n      tag_406\n      jump\t// in\n    tag_637:\n        /* \"#utility.yul\":17089:17095   */\n      dup2\n        /* \"#utility.yul\":17085:17125   */\n      add\n        /* \"#utility.yul\":17227:17233   */\n      dup2\n        /* \"#utility.yul\":17215:17225   */\n      dup2\n        /* \"#utility.yul\":17212:17234   */\n      lt\n        /* \"#utility.yul\":17191:17209   */\n      0xffffffffffffffff\n        /* \"#utility.yul\":17179:17189   */\n      dup3\n        /* \"#utility.yul\":17176:17210   */\n      gt\n        /* \"#utility.yul\":17173:17235   */\n      or\n        /* \"#utility.yul\":17170:17258   */\n      iszero\n      tag_638\n      jumpi\n        /* \"#utility.yul\":17238:17256   */\n      tag_639\n      tag_436\n      jump\t// in\n    tag_639:\n        /* \"#utility.yul\":17170:17258   */\n    tag_638:\n        /* \"#utility.yul\":17278:17288   */\n      dup1\n        /* \"#utility.yul\":17274:17276   */\n      0x40\n        /* \"#utility.yul\":17267:17289   */\n      mstore\n        /* \"#utility.yul\":17057:17295   */\n      pop\n        /* \"#utility.yul\":17014:17295   */\n      pop\n      pop\n      jump\t// out\n        /* \"#utility.yul\":17301:17430   */\n    tag_438:\n        /* \"#utility.yul\":17335:17341   */\n      0x00\n        /* \"#utility.yul\":17362:17382   */\n      tag_641\n      tag_395\n      jump\t// in\n    tag_641:\n        /* \"#utility.yul\":17352:17382   */\n      swap1\n      pop\n        /* \"#utility.yul\":17391:17424   */\n      tag_642\n        /* \"#utility.yul\":17419:17423   */\n      dup3\n        /* \"#utility.yul\":17411:17417   */\n      dup3\n        /* \"#utility.yul\":17391:17424   */\n      tag_437\n      jump\t// in\n    tag_642:\n        /* \"#utility.yul\":17301:17430   */\n      swap2\n      swap1\n      pop\n      jump\t// out\n        /* \"#utility.yul\":17436:17743   */\n    tag_439:\n        /* \"#utility.yul\":17497:17501   */\n      0x00\n        /* \"#utility.yul\":17587:17605   */\n      0xffffffffffffffff\n        /* \"#utility.yul\":17579:17585   */\n      dup3\n        /* \"#utility.yul\":17576:17606   */\n      gt\n        /* \"#utility.yul\":17573:17629   */\n      iszero\n      tag_644\n      jumpi\n        /* \"#utility.yul\":17609:17627   */\n      tag_645\n      tag_436\n      jump\t// in\n    tag_645:\n        /* \"#utility.yul\":17573:17629   */\n    tag_644:\n        /* \"#utility.yul\":17647:17676   */\n      tag_646\n        /* \"#utility.yul\":17669:17675   */\n      dup3\n        /* \"#utility.yul\":17647:17676   */\n      tag_406\n      jump\t// in\n    tag_646:\n        /* \"#utility.yul\":17639:17676   */\n      swap1\n      pop\n        /* \"#utility.yul\":17731:17735   */\n      0x20\n        /* \"#utility.yul\":17725:17729   */\n      dup2\n        /* \"#utility.yul\":17721:17736   */\n      add\n        /* \"#utility.yul\":17713:17736   */\n      swap1\n      pop\n        /* \"#utility.yul\":17436:17743   */\n      swap2\n      swap1\n      pop\n      jump\t// out\n        /* \"#utility.yul\":17749:17895   */\n    tag_440:\n        /* \"#utility.yul\":17846:17852   */\n      dup3\n        /* \"#utility.yul\":17841:17844   */\n      dup2\n        /* \"#utility.yul\":17836:17839   */\n      dup4\n        /* \"#utility.yul\":17823:17853   */\n      calldatacopy\n        /* \"#utility.yul\":17887:17888   */\n      0x00\n        /* \"#utility.yul\":17878:17884   */\n      dup4\n        /* \"#utility.yul\":17873:17876   */\n      dup4\n        /* \"#utility.yul\":17869:17885   */\n      add\n        /* \"#utility.yul\":17862:17889   */\n      mstore\n        /* \"#utility.yul\":17749:17895   */\n      pop\n      pop\n      pop\n      jump\t// out\n        /* \"#utility.yul\":17901:18324   */\n    tag_441:\n        /* \"#utility.yul\":17978:17983   */\n      0x00\n        /* \"#utility.yul\":18003:18068   */\n      tag_649\n        /* \"#utility.yul\":18019:18067   */\n      tag_650\n        /* \"#utility.yul\":18060:18066   */\n      dup5\n        /* \"#utility.yul\":18019:18067   */\n      tag_439\n      jump\t// in\n    tag_650:\n        /* \"#utility.yul\":18003:18068   */\n      tag_438\n      jump\t// in\n    tag_649:\n        /* \"#utility.yul\":17994:18068   */\n      swap1\n      pop\n        /* \"#utility.yul\":18091:18097   */\n      dup3\n        /* \"#utility.yul\":18084:18089   */\n      dup2\n        /* \"#utility.yul\":18077:18098   */\n      mstore\n        /* \"#utility.yul\":18129:18133   */\n      0x20\n        /* \"#utility.yul\":18122:18127   */\n      dup2\n        /* \"#utility.yul\":18118:18134   */\n      add\n        /* \"#utility.yul\":18167:18170   */\n      dup5\n        /* \"#utility.yul\":18158:18164   */\n      dup5\n        /* \"#utility.yul\":18153:18156   */\n      dup5\n        /* \"#utility.yul\":18149:18165   */\n      add\n        /* \"#utility.yul\":18146:18171   */\n      gt\n        /* \"#utility.yul\":18143:18255   */\n      iszero\n      tag_651\n      jumpi\n        /* \"#utility.yul\":18174:18253   */\n      tag_652\n      tag_435\n      jump\t// in\n    tag_652:\n        /* \"#utility.yul\":18143:18255   */\n    tag_651:\n        /* \"#utility.yul\":18264:18318   */\n      tag_653\n        /* \"#utility.yul\":18311:18317   */\n      dup5\n        /* \"#utility.yul\":18306:18309   */\n      dup3\n        /* \"#utility.yul\":18301:18304   */\n      dup6\n        /* \"#utility.yul\":18264:18318   */\n      tag_440\n      jump\t// in\n    tag_653:\n        /* \"#utility.yul\":17984:18324   */\n      pop\n        /* \"#utility.yul\":17901:18324   */\n      swap4\n      swap3\n      pop\n      pop\n      pop\n      jump\t// out\n        /* \"#utility.yul\":18343:18681   */\n    tag_442:\n        /* \"#utility.yul\":18398:18403   */\n      0x00\n        /* \"#utility.yul\":18447:18450   */\n      dup3\n        /* \"#utility.yul\":18440:18444   */\n      0x1f\n        /* \"#utility.yul\":18432:18438   */\n      dup4\n        /* \"#utility.yul\":18428:18445   */\n      add\n        /* \"#utility.yul\":18424:18451   */\n      slt\n        /* \"#utility.yul\":18414:18536   */\n      tag_655\n      jumpi\n        /* \"#utility.yul\":18455:18534   */\n      tag_656\n      tag_434\n      jump\t// in\n    tag_656:\n        /* \"#utility.yul\":18414:18536   */\n    tag_655:\n        /* \"#utility.yul\":18572:18578   */\n      dup2\n        /* \"#utility.yul\":18559:18579   */\n      calldataload\n        /* \"#utility.yul\":18597:18675   */\n      tag_657\n        /* \"#utility.yul\":18671:18674   */\n      dup5\n        /* \"#utility.yul\":18663:18669   */\n      dup3\n        /* \"#utility.yul\":18656:18660   */\n      0x20\n        /* \"#utility.yul\":18648:18654   */\n      dup7\n        /* \"#utility.yul\":18644:18661   */\n      add\n        /* \"#utility.yul\":18597:18675   */\n      tag_441\n      jump\t// in\n    tag_657:\n        /* \"#utility.yul\":18588:18675   */\n      swap2\n      pop\n        /* \"#utility.yul\":18404:18681   */\n      pop\n        /* \"#utility.yul\":18343:18681   */\n      swap3\n      swap2\n      pop\n      pop\n      jump\t// out\n        /* \"#utility.yul\":18687:18803   */\n    tag_443:\n        /* \"#utility.yul\":18757:18778   */\n      tag_659\n        /* \"#utility.yul\":18772:18777   */\n      dup2\n        /* \"#utility.yul\":18757:18778   */\n      tag_410\n      jump\t// in\n    tag_659:\n        /* \"#utility.yul\":18750:18755   */\n      dup2\n        /* \"#utility.yul\":18747:18779   */\n      eq\n        /* \"#utility.yul\":18737:18797   */\n      tag_660\n      jumpi\n        /* \"#utility.yul\":18793:18794   */\n      0x00\n        /* \"#utility.yul\":18790:18791   */\n      dup1\n        /* \"#utility.yul\":18783:18795   */\n      revert\n        /* \"#utility.yul\":18737:18797   */\n    tag_660:\n        /* \"#utility.yul\":18687:18803   */\n      pop\n      jump\t// out\n        /* \"#utility.yul\":18809:18942   */\n    tag_444:\n        /* \"#utility.yul\":18852:18857   */\n      0x00\n        /* \"#utility.yul\":18890:18896   */\n      dup2\n        /* \"#utility.yul\":18877:18897   */\n      calldataload\n        /* \"#utility.yul\":18868:18897   */\n      swap1\n      pop\n        /* \"#utility.yul\":18906:18936   */\n      tag_662\n        /* \"#utility.yul\":18930:18935   */\n      dup2\n        /* \"#utility.yul\":18906:18936   */\n      tag_443\n      jump\t// in\n    tag_662:\n        /* \"#utility.yul\":18809:18942   */\n      swap3\n      swap2\n      pop\n      pop\n      jump\t// out\n        /* \"#utility.yul\":18948:19056   */\n    tag_445:\n        /* \"#utility.yul\":19030:19031   */\n      0x04\n        /* \"#utility.yul\":19023:19028   */\n      dup2\n        /* \"#utility.yul\":19020:19032   */\n      lt\n        /* \"#utility.yul\":19010:19050   */\n      tag_664\n      jumpi\n        /* \"#utility.yul\":19046:19047   */\n      0x00\n        /* \"#utility.yul\":19043:19044   */\n      dup1\n        /* \"#utility.yul\":19036:19048   */\n      revert\n        /* \"#utility.yul\":19010:19050   */\n    tag_664:\n        /* \"#utility.yul\":18948:19056   */\n      pop\n      jump\t// out\n        /* \"#utility.yul\":19062:19219   */\n    tag_446:\n        /* \"#utility.yul\":19117:19122   */\n      0x00\n        /* \"#utility.yul\":19155:19161   */\n      dup2\n        /* \"#utility.yul\":19142:19162   */\n      calldataload\n        /* \"#utility.yul\":19133:19162   */\n      swap1\n      pop\n        /* \"#utility.yul\":19171:19213   */\n      tag_666\n        /* \"#utility.yul\":19207:19212   */\n      dup2\n        /* \"#utility.yul\":19171:19213   */\n      tag_445\n      jump\t// in\n    tag_666:\n        /* \"#utility.yul\":19062:19219   */\n      swap3\n      swap2\n      pop\n      pop\n      jump\t// out\n        /* \"#utility.yul\":19225:20910   */\n    tag_156:\n        /* \"#utility.yul\":19371:19377   */\n      0x00\n        /* \"#utility.yul\":19379:19385   */\n      dup1\n        /* \"#utility.yul\":19387:19393   */\n      0x00\n        /* \"#utility.yul\":19395:19401   */\n      dup1\n        /* \"#utility.yul\":19403:19409   */\n      0x00\n        /* \"#utility.yul\":19411:19417   */\n      dup1\n        /* \"#utility.yul\":19419:19425   */\n      0x00\n        /* \"#utility.yul\":19427:19433   */\n      dup1\n        /* \"#utility.yul\":19435:19441   */\n      0x00\n        /* \"#utility.yul\":19484:19487   */\n      0x0120\n        /* \"#utility.yul\":19472:19481   */\n      dup11\n        /* \"#utility.yul\":19463:19470   */\n      dup13\n        /* \"#utility.yul\":19459:19482   */\n      sub\n        /* \"#utility.yul\":19455:19488   */\n      slt\n        /* \"#utility.yul\":19452:19572   */\n      iszero\n      tag_668\n      jumpi\n        /* \"#utility.yul\":19491:19570   */\n      tag_669\n      tag_396\n      jump\t// in\n    tag_669:\n        /* \"#utility.yul\":19452:19572   */\n    tag_668:\n        /* \"#utility.yul\":19611:19612   */\n      0x00\n        /* \"#utility.yul\":19636:19689   */\n      tag_670\n        /* \"#utility.yul\":19681:19688   */\n      dup13\n        /* \"#utility.yul\":19672:19678   */\n      dup3\n        /* \"#utility.yul\":19661:19670   */\n      dup14\n        /* \"#utility.yul\":19657:19679   */\n      add\n        /* \"#utility.yul\":19636:19689   */\n      tag_409\n      jump\t// in\n    tag_670:\n        /* \"#utility.yul\":19626:19689   */\n      swap10\n      pop\n        /* \"#utility.yul\":19582:19699   */\n      pop\n        /* \"#utility.yul\":19738:19740   */\n      0x20\n        /* \"#utility.yul\":19764:19817   */\n      tag_671\n        /* \"#utility.yul\":19809:19816   */\n      dup13\n        /* \"#utility.yul\":19800:19806   */\n      dup3\n        /* \"#utility.yul\":19789:19798   */\n      dup14\n        /* \"#utility.yul\":19785:19807   */\n      add\n        /* \"#utility.yul\":19764:19817   */\n      tag_399\n      jump\t// in\n    tag_671:\n        /* \"#utility.yul\":19754:19817   */\n      swap9\n      pop\n        /* \"#utility.yul\":19709:19827   */\n      pop\n        /* \"#utility.yul\":19894:19896   */\n      0x40\n        /* \"#utility.yul\":19883:19892   */\n      dup11\n        /* \"#utility.yul\":19879:19897   */\n      add\n        /* \"#utility.yul\":19866:19898   */\n      calldataload\n        /* \"#utility.yul\":19925:19943   */\n      0xffffffffffffffff\n        /* \"#utility.yul\":19917:19923   */\n      dup2\n        /* \"#utility.yul\":19914:19944   */\n      gt\n        /* \"#utility.yul\":19911:20028   */\n      iszero\n      tag_672\n      jumpi\n        /* \"#utility.yul\":19947:20026   */\n      tag_673\n      tag_397\n      jump\t// in\n    tag_673:\n        /* \"#utility.yul\":19911:20028   */\n    tag_672:\n        /* \"#utility.yul\":20052:20114   */\n      tag_674\n        /* \"#utility.yul\":20106:20113   */\n      dup13\n        /* \"#utility.yul\":20097:20103   */\n      dup3\n        /* \"#utility.yul\":20086:20095   */\n      dup14\n        /* \"#utility.yul\":20082:20104   */\n      add\n        /* \"#utility.yul\":20052:20114   */\n      tag_442\n      jump\t// in\n    tag_674:\n        /* \"#utility.yul\":20042:20114   */\n      swap8\n      pop\n        /* \"#utility.yul\":19837:20124   */\n      pop\n        /* \"#utility.yul\":20163:20165   */\n      0x60\n        /* \"#utility.yul\":20189:20239   */\n      tag_675\n        /* \"#utility.yul\":20231:20238   */\n      dup13\n        /* \"#utility.yul\":20222:20228   */\n      dup3\n        /* \"#utility.yul\":20211:20220   */\n      dup14\n        /* \"#utility.yul\":20207:20229   */\n      add\n        /* \"#utility.yul\":20189:20239   */\n      tag_444\n      jump\t// in\n    tag_675:\n        /* \"#utility.yul\":20179:20239   */\n      swap7\n      pop\n        /* \"#utility.yul\":20134:20249   */\n      pop\n        /* \"#utility.yul\":20288:20291   */\n      0x80\n        /* \"#utility.yul\":20315:20368   */\n      tag_676\n        /* \"#utility.yul\":20360:20367   */\n      dup13\n        /* \"#utility.yul\":20351:20357   */\n      dup3\n        /* \"#utility.yul\":20340:20349   */\n      dup14\n        /* \"#utility.yul\":20336:20358   */\n      add\n        /* \"#utility.yul\":20315:20368   */\n      tag_399\n      jump\t// in\n    tag_676:\n        /* \"#utility.yul\":20305:20368   */\n      swap6\n      pop\n        /* \"#utility.yul\":20259:20378   */\n      pop\n        /* \"#utility.yul\":20417:20420   */\n      0xa0\n        /* \"#utility.yul\":20444:20497   */\n      tag_677\n        /* \"#utility.yul\":20489:20496   */\n      dup13\n        /* \"#utility.yul\":20480:20486   */\n      dup3\n        /* \"#utility.yul\":20469:20478   */\n      dup14\n        /* \"#utility.yul\":20465:20487   */\n      add\n        /* \"#utility.yul\":20444:20497   */\n      tag_399\n      jump\t// in\n    tag_677:\n        /* \"#utility.yul\":20434:20497   */\n      swap5\n      pop\n        /* \"#utility.yul\":20388:20507   */\n      pop\n        /* \"#utility.yul\":20546:20549   */\n      0xc0\n        /* \"#utility.yul\":20573:20626   */\n      tag_678\n        /* \"#utility.yul\":20618:20625   */\n      dup13\n        /* \"#utility.yul\":20609:20615   */\n      dup3\n        /* \"#utility.yul\":20598:20607   */\n      dup14\n        /* \"#utility.yul\":20594:20616   */\n      add\n        /* \"#utility.yul\":20573:20626   */\n      tag_399\n      jump\t// in\n    tag_678:\n        /* \"#utility.yul\":20563:20626   */\n      swap4\n      pop\n        /* \"#utility.yul\":20517:20636   */\n      pop\n        /* \"#utility.yul\":20675:20678   */\n      0xe0\n        /* \"#utility.yul\":20702:20764   */\n      tag_679\n        /* \"#utility.yul\":20756:20763   */\n      dup13\n        /* \"#utility.yul\":20747:20753   */\n      dup3\n        /* \"#utility.yul\":20736:20745   */\n      dup14\n        /* \"#utility.yul\":20732:20754   */\n      add\n        /* \"#utility.yul\":20702:20764   */\n      tag_446\n      jump\t// in\n    tag_679:\n        /* \"#utility.yul\":20692:20764   */\n      swap3\n      pop\n        /* \"#utility.yul\":20646:20774   */\n      pop\n        /* \"#utility.yul\":20813:20816   */\n      0x0100\n        /* \"#utility.yul\":20840:20893   */\n      tag_680\n        /* \"#utility.yul\":20885:20892   */\n      dup13\n        /* \"#utility.yul\":20876:20882   */\n      dup3\n        /* \"#utility.yul\":20865:20874   */\n      dup14\n        /* \"#utility.yul\":20861:20883   */\n      add\n        /* \"#utility.yul\":20840:20893   */\n      tag_399\n      jump\t// in\n    tag_680:\n        /* \"#utility.yul\":20830:20893   */\n      swap2\n      pop\n        /* \"#utility.yul\":20784:20903   */\n      pop\n        /* \"#utility.yul\":19225:20910   */\n      swap3\n      swap6\n      swap9\n      pop\n      swap3\n      swap6\n      swap9\n      pop\n      swap3\n      swap6\n      swap9\n      jump\t// out\n        /* \"#utility.yul\":20916:21390   */\n    tag_169:\n        /* \"#utility.yul\":20984:20990   */\n      0x00\n        /* \"#utility.yul\":20992:20998   */\n      dup1\n        /* \"#utility.yul\":21041:21043   */\n      0x40\n        /* \"#utility.yul\":21029:21038   */\n      dup4\n        /* \"#utility.yul\":21020:21027   */\n      dup6\n        /* \"#utility.yul\":21016:21039   */\n      sub\n        /* \"#utility.yul\":21012:21044   */\n      slt\n        /* \"#utility.yul\":21009:21128   */\n      iszero\n      tag_682\n      jumpi\n        /* \"#utility.yul\":21047:21126   */\n      tag_683\n      tag_396\n      jump\t// in\n    tag_683:\n        /* \"#utility.yul\":21009:21128   */\n    tag_682:\n        /* \"#utility.yul\":21167:21168   */\n      0x00\n        /* \"#utility.yul\":21192:21245   */\n      tag_684\n        /* \"#utility.yul\":21237:21244   */\n      dup6\n        /* \"#utility.yul\":21228:21234   */\n      dup3\n        /* \"#utility.yul\":21217:21226   */\n      dup7\n        /* \"#utility.yul\":21213:21235   */\n      add\n        /* \"#utility.yul\":21192:21245   */\n      tag_409\n      jump\t// in\n    tag_684:\n        /* \"#utility.yul\":21182:21245   */\n      swap3\n      pop\n        /* \"#utility.yul\":21138:21255   */\n      pop\n        /* \"#utility.yul\":21294:21296   */\n      0x20\n        /* \"#utility.yul\":21320:21373   */\n      tag_685\n        /* \"#utility.yul\":21365:21372   */\n      dup6\n        /* \"#utility.yul\":21356:21362   */\n      dup3\n        /* \"#utility.yul\":21345:21354   */\n      dup7\n        /* \"#utility.yul\":21341:21363   */\n      add\n        /* \"#utility.yul\":21320:21373   */\n      tag_409\n      jump\t// in\n    tag_685:\n        /* \"#utility.yul\":21310:21373   */\n      swap2\n      pop\n        /* \"#utility.yul\":21265:21383   */\n      pop\n        /* \"#utility.yul\":20916:21390   */\n      swap3\n      pop\n      swap3\n      swap1\n      pop\n      jump\t// out\n        /* \"#utility.yul\":21396:22161   */\n    tag_179:\n        /* \"#utility.yul\":21482:21488   */\n      0x00\n        /* \"#utility.yul\":21490:21496   */\n      dup1\n        /* \"#utility.yul\":21498:21504   */\n      0x00\n        /* \"#utility.yul\":21506:21512   */\n      dup1\n        /* \"#utility.yul\":21555:21558   */\n      0x80\n        /* \"#utility.yul\":21543:21552   */\n      dup6\n        /* \"#utility.yul\":21534:21541   */\n      dup8\n        /* \"#utility.yul\":21530:21553   */\n      sub\n        /* \"#utility.yul\":21526:21559   */\n      slt\n        /* \"#utility.yul\":21523:21643   */\n      iszero\n      tag_687\n      jumpi\n        /* \"#utility.yul\":21562:21641   */\n      tag_688\n      tag_396\n      jump\t// in\n    tag_688:\n        /* \"#utility.yul\":21523:21643   */\n    tag_687:\n        /* \"#utility.yul\":21682:21683   */\n      0x00\n        /* \"#utility.yul\":21707:21760   */\n      tag_689\n        /* \"#utility.yul\":21752:21759   */\n      dup8\n        /* \"#utility.yul\":21743:21749   */\n      dup3\n        /* \"#utility.yul\":21732:21741   */\n      dup9\n        /* \"#utility.yul\":21728:21750   */\n      add\n        /* \"#utility.yul\":21707:21760   */\n      tag_409\n      jump\t// in\n    tag_689:\n        /* \"#utility.yul\":21697:21760   */\n      swap5\n      pop\n        /* \"#utility.yul\":21653:21770   */\n      pop\n        /* \"#utility.yul\":21809:21811   */\n      0x20\n        /* \"#utility.yul\":21835:21888   */\n      tag_690\n        /* \"#utility.yul\":21880:21887   */\n      dup8\n        /* \"#utility.yul\":21871:21877   */\n      dup3\n        /* \"#utility.yul\":21860:21869   */\n      dup9\n        /* \"#utility.yul\":21856:21878   */\n      add\n        /* \"#utility.yul\":21835:21888   */\n      tag_399\n      jump\t// in\n    tag_690:\n        /* \"#utility.yul\":21825:21888   */\n      swap4\n      pop\n        /* \"#utility.yul\":21780:21898   */\n      pop\n        /* \"#utility.yul\":21937:21939   */\n      0x40\n        /* \"#utility.yul\":21963:22016   */\n      tag_691\n        /* \"#utility.yul\":22008:22015   */\n      dup8\n        /* \"#utility.yul\":21999:22005   */\n      dup3\n        /* \"#utility.yul\":21988:21997   */\n      dup9\n        /* \"#utility.yul\":21984:22006   */\n      add\n        /* \"#utility.yul\":21963:22016   */\n      tag_409\n      jump\t// in\n    tag_691:\n        /* \"#utility.yul\":21953:22016   */\n      swap3\n      pop\n        /* \"#utility.yul\":21908:22026   */\n      pop\n        /* \"#utility.yul\":22065:22067   */\n      0x60\n        /* \"#utility.yul\":22091:22144   */\n      tag_692\n        /* \"#utility.yul\":22136:22143   */\n      dup8\n        /* \"#utility.yul\":22127:22133   */\n      dup3\n        /* \"#utility.yul\":22116:22125   */\n      dup9\n        /* \"#utility.yul\":22112:22134   */\n      add\n        /* \"#utility.yul\":22091:22144   */\n      tag_399\n      jump\t// in\n    tag_692:\n        /* \"#utility.yul\":22081:22144   */\n      swap2\n      pop\n        /* \"#utility.yul\":22036:22154   */\n      pop\n        /* \"#utility.yul\":21396:22161   */\n      swap3\n      swap6\n      swap2\n      swap5\n      pop\n      swap3\n      pop\n      jump\t// out\n        /* \"#utility.yul\":22167:23402   */\n    tag_184:\n        /* \"#utility.yul\":22280:22286   */\n      0x00\n        /* \"#utility.yul\":22288:22294   */\n      dup1\n        /* \"#utility.yul\":22296:22302   */\n      0x00\n        /* \"#utility.yul\":22304:22310   */\n      dup1\n        /* \"#utility.yul\":22312:22318   */\n      0x00\n        /* \"#utility.yul\":22320:22326   */\n      dup1\n        /* \"#utility.yul\":22369:22372   */\n      0xc0\n        /* \"#utility.yul\":22357:22366   */\n      dup8\n        /* \"#utility.yul\":22348:22355   */\n      dup10\n        /* \"#utility.yul\":22344:22367   */\n      sub\n        /* \"#utility.yul\":22340:22373   */\n      slt\n        /* \"#utility.yul\":22337:22457   */\n      iszero\n      tag_694\n      jumpi\n        /* \"#utility.yul\":22376:22455   */\n      tag_695\n      tag_396\n      jump\t// in\n    tag_695:\n        /* \"#utility.yul\":22337:22457   */\n    tag_694:\n        /* \"#utility.yul\":22496:22497   */\n      0x00\n        /* \"#utility.yul\":22521:22574   */\n      tag_696\n        /* \"#utility.yul\":22566:22573   */\n      dup10\n        /* \"#utility.yul\":22557:22563   */\n      dup3\n        /* \"#utility.yul\":22546:22555   */\n      dup11\n        /* \"#utility.yul\":22542:22564   */\n      add\n        /* \"#utility.yul\":22521:22574   */\n      tag_409\n      jump\t// in\n    tag_696:\n        /* \"#utility.yul\":22511:22574   */\n      swap7\n      pop\n        /* \"#utility.yul\":22467:22584   */\n      pop\n        /* \"#utility.yul\":22623:22625   */\n      0x20\n        /* \"#utility.yul\":22649:22702   */\n      tag_697\n        /* \"#utility.yul\":22694:22701   */\n      dup10\n        /* \"#utility.yul\":22685:22691   */\n      dup3\n        /* \"#utility.yul\":22674:22683   */\n      dup11\n        /* \"#utility.yul\":22670:22692   */\n      add\n        /* \"#utility.yul\":22649:22702   */\n      tag_399\n      jump\t// in\n    tag_697:\n        /* \"#utility.yul\":22639:22702   */\n      swap6\n      pop\n        /* \"#utility.yul\":22594:22712   */\n      pop\n        /* \"#utility.yul\":22779:22781   */\n      0x40\n        /* \"#utility.yul\":22768:22777   */\n      dup8\n        /* \"#utility.yul\":22764:22782   */\n      add\n        /* \"#utility.yul\":22751:22783   */\n      calldataload\n        /* \"#utility.yul\":22810:22828   */\n      0xffffffffffffffff\n        /* \"#utility.yul\":22802:22808   */\n      dup2\n        /* \"#utility.yul\":22799:22829   */\n      gt\n        /* \"#utility.yul\":22796:22913   */\n      iszero\n      tag_698\n      jumpi\n        /* \"#utility.yul\":22832:22911   */\n      tag_699\n      tag_397\n      jump\t// in\n    tag_699:\n        /* \"#utility.yul\":22796:22913   */\n    tag_698:\n        /* \"#utility.yul\":22937:22999   */\n      tag_700\n        /* \"#utility.yul\":22991:22998   */\n      dup10\n        /* \"#utility.yul\":22982:22988   */\n      dup3\n        /* \"#utility.yul\":22971:22980   */\n      dup11\n        /* \"#utility.yul\":22967:22989   */\n      add\n        /* \"#utility.yul\":22937:22999   */\n      tag_442\n      jump\t// in\n    tag_700:\n        /* \"#utility.yul\":22927:22999   */\n      swap5\n      pop\n        /* \"#utility.yul\":22722:23009   */\n      pop\n        /* \"#utility.yul\":23048:23050   */\n      0x60\n        /* \"#utility.yul\":23074:23127   */\n      tag_701\n        /* \"#utility.yul\":23119:23126   */\n      dup10\n        /* \"#utility.yul\":23110:23116   */\n      dup3\n        /* \"#utility.yul\":23099:23108   */\n      dup11\n        /* \"#utility.yul\":23095:23117   */\n      add\n        /* \"#utility.yul\":23074:23127   */\n      tag_399\n      jump\t// in\n    tag_701:\n        /* \"#utility.yul\":23064:23127   */\n      swap4\n      pop\n        /* \"#utility.yul\":23019:23137   */\n      pop\n        /* \"#utility.yul\":23176:23179   */\n      0x80\n        /* \"#utility.yul\":23203:23256   */\n      tag_702\n        /* \"#utility.yul\":23248:23255   */\n      dup10\n        /* \"#utility.yul\":23239:23245   */\n      dup3\n        /* \"#utility.yul\":23228:23237   */\n      dup11\n        /* \"#utility.yul\":23224:23246   */\n      add\n        /* \"#utility.yul\":23203:23256   */\n      tag_399\n      jump\t// in\n    tag_702:\n        /* \"#utility.yul\":23193:23256   */\n      swap3\n      pop\n        /* \"#utility.yul\":23147:23266   */\n      pop\n        /* \"#utility.yul\":23305:23308   */\n      0xa0\n        /* \"#utility.yul\":23332:23385   */\n      tag_703\n        /* \"#utility.yul\":23377:23384   */\n      dup10\n        /* \"#utility.yul\":23368:23374   */\n      dup3\n        /* \"#utility.yul\":23357:23366   */\n      dup11\n        /* \"#utility.yul\":23353:23375   */\n      add\n        /* \"#utility.yul\":23332:23385   */\n      tag_399\n      jump\t// in\n    tag_703:\n        /* \"#utility.yul\":23322:23385   */\n      swap2\n      pop\n        /* \"#utility.yul\":23276:23395   */\n      pop\n        /* \"#utility.yul\":22167:23402   */\n      swap3\n      swap6\n      pop\n      swap3\n      swap6\n      pop\n      swap3\n      swap6\n      jump\t// out\n        /* \"#utility.yul\":23408:23588   */\n    tag_447:\n        /* \"#utility.yul\":23456:23533   */\n      0x4e487b7100000000000000000000000000000000000000000000000000000000\n        /* \"#utility.yul\":23453:23454   */\n      0x00\n        /* \"#utility.yul\":23446:23534   */\n      mstore\n        /* \"#utility.yul\":23553:23557   */\n      0x22\n        /* \"#utility.yul\":23550:23551   */\n      0x04\n        /* \"#utility.yul\":23543:23558   */\n      mstore\n        /* \"#utility.yul\":23577:23581   */\n      0x24\n        /* \"#utility.yul\":23574:23575   */\n      0x00\n        /* \"#utility.yul\":23567:23582   */\n      revert\n        /* \"#utility.yul\":23594:23914   */\n    tag_190:\n        /* \"#utility.yul\":23638:23644   */\n      0x00\n        /* \"#utility.yul\":23675:23676   */\n      0x02\n        /* \"#utility.yul\":23669:23673   */\n      dup3\n        /* \"#utility.yul\":23665:23677   */\n      div\n        /* \"#utility.yul\":23655:23677   */\n      swap1\n      pop\n        /* \"#utility.yul\":23722:23723   */\n      0x01\n        /* \"#utility.yul\":23716:23720   */\n      dup3\n        /* \"#utility.yul\":23712:23724   */\n      and\n        /* \"#utility.yul\":23743:23761   */\n      dup1\n        /* \"#utility.yul\":23733:23814   */\n      tag_706\n      jumpi\n        /* \"#utility.yul\":23799:23803   */\n      0x7f\n        /* \"#utility.yul\":23791:23797   */\n      dup3\n        /* \"#utility.yul\":23787:23804   */\n      and\n        /* \"#utility.yul\":23777:23804   */\n      swap2\n      pop\n        /* \"#utility.yul\":23733:23814   */\n    tag_706:\n        /* \"#utility.yul\":23861:23863   */\n      0x20\n        /* \"#utility.yul\":23853:23859   */\n      dup3\n        /* \"#utility.yul\":23850:23864   */\n      lt\n        /* \"#utility.yul\":23830:23848   */\n      dup2\n        /* \"#utility.yul\":23827:23865   */\n      sub\n        /* \"#utility.yul\":23824:23908   */\n      tag_707\n      jumpi\n        /* \"#utility.yul\":23880:23898   */\n      tag_708\n      tag_447\n      jump\t// in\n    tag_708:\n        /* \"#utility.yul\":23824:23908   */\n    tag_707:\n        /* \"#utility.yul\":23645:23914   */\n      pop\n        /* \"#utility.yul\":23594:23914   */\n      swap2\n      swap1\n      pop\n      jump\t// out\n        /* \"#utility.yul\":23920:24100   */\n    tag_204:\n        /* \"#utility.yul\":23968:24045   */\n      0x4e487b7100000000000000000000000000000000000000000000000000000000\n        /* \"#utility.yul\":23965:23966   */\n      0x00\n        /* \"#utility.yul\":23958:24046   */\n      mstore\n        /* \"#utility.yul\":24065:24069   */\n      0x32\n        /* \"#utility.yul\":24062:24063   */\n      0x04\n        /* \"#utility.yul\":24055:24070   */\n      mstore\n        /* \"#utility.yul\":24089:24093   */\n      0x24\n        /* \"#utility.yul\":24086:24087   */\n      0x00\n        /* \"#utility.yul\":24079:24094   */\n      revert\n        /* \"#utility.yul\":24106:24286   */\n    tag_448:\n        /* \"#utility.yul\":24154:24231   */\n      0x4e487b7100000000000000000000000000000000000000000000000000000000\n        /* \"#utility.yul\":24151:24152   */\n      0x00\n        /* \"#utility.yul\":24144:24232   */\n      mstore\n        /* \"#utility.yul\":24251:24255   */\n      0x11\n        /* \"#utility.yul\":24248:24249   */\n      0x04\n        /* \"#utility.yul\":24241:24256   */\n      mstore\n        /* \"#utility.yul\":24275:24279   */\n      0x24\n        /* \"#utility.yul\":24272:24273   */\n      0x00\n        /* \"#utility.yul\":24265:24280   */\n      revert\n        /* \"#utility.yul\":24292:24486   */\n    tag_207:\n        /* \"#utility.yul\":24332:24336   */\n      0x00\n        /* \"#utility.yul\":24352:24372   */\n      tag_712\n        /* \"#utility.yul\":24370:24371   */\n      dup3\n        /* \"#utility.yul\":24352:24372   */\n      tag_393\n      jump\t// in\n    tag_712:\n        /* \"#utility.yul\":24347:24372   */\n      swap2\n      pop\n        /* \"#utility.yul\":24386:24406   */\n      tag_713\n        /* \"#utility.yul\":24404:24405   */\n      dup4\n        /* \"#utility.yul\":24386:24406   */\n      tag_393\n      jump\t// in\n    tag_713:\n        /* \"#utility.yul\":24381:24406   */\n      swap3\n      pop\n        /* \"#utility.yul\":24430:24431   */\n      dup3\n        /* \"#utility.yul\":24427:24428   */\n      dup3\n        /* \"#utility.yul\":24423:24432   */\n      sub\n        /* \"#utility.yul\":24415:24432   */\n      swap1\n      pop\n        /* \"#utility.yul\":24454:24455   */\n      dup2\n        /* \"#utility.yul\":24448:24452   */\n      dup2\n        /* \"#utility.yul\":24445:24456   */\n      gt\n        /* \"#utility.yul\":24442:24479   */\n      iszero\n      tag_714\n      jumpi\n        /* \"#utility.yul\":24459:24477   */\n      tag_715\n      tag_448\n      jump\t// in\n    tag_715:\n        /* \"#utility.yul\":24442:24479   */\n    tag_714:\n        /* \"#utility.yul\":24292:24486   */\n      swap3\n      swap2\n      pop\n      pop\n      jump\t// out\n        /* \"#utility.yul\":24492:24683   */\n    tag_223:\n        /* \"#utility.yul\":24532:24535   */\n      0x00\n        /* \"#utility.yul\":24551:24571   */\n      tag_717\n        /* \"#utility.yul\":24569:24570   */\n      dup3\n        /* \"#utility.yul\":24551:24571   */\n      tag_393\n      jump\t// in\n    tag_717:\n        /* \"#utility.yul\":24546:24571   */\n      swap2\n      pop\n        /* \"#utility.yul\":24585:24605   */\n      tag_718\n        /* \"#utility.yul\":24603:24604   */\n      dup4\n        /* \"#utility.yul\":24585:24605   */\n      tag_393\n      jump\t// in\n    tag_718:\n        /* \"#utility.yul\":24580:24605   */\n      swap3\n      pop\n        /* \"#utility.yul\":24628:24629   */\n      dup3\n        /* \"#utility.yul\":24625:24626   */\n      dup3\n        /* \"#utility.yul\":24621:24630   */\n      add\n        /* \"#utility.yul\":24614:24630   */\n      swap1\n      pop\n        /* \"#utility.yul\":24649:24652   */\n      dup1\n        /* \"#utility.yul\":24646:24647   */\n      dup3\n        /* \"#utility.yul\":24643:24653   */\n      gt\n        /* \"#utility.yul\":24640:24676   */\n      iszero\n      tag_719\n      jumpi\n        /* \"#utility.yul\":24656:24674   */\n      tag_720\n      tag_448\n      jump\t// in\n    tag_720:\n        /* \"#utility.yul\":24640:24676   */\n    tag_719:\n        /* \"#utility.yul\":24492:24683   */\n      swap3\n      swap2\n      pop\n      pop\n      jump\t// out\n        /* \"#utility.yul\":24689:24836   */\n    tag_449:\n        /* \"#utility.yul\":24790:24801   */\n      0x00\n        /* \"#utility.yul\":24827:24830   */\n      dup2\n        /* \"#utility.yul\":24812:24830   */\n      swap1\n      pop\n        /* \"#utility.yul\":24689:24836   */\n      swap3\n      swap2\n      pop\n      pop\n      jump\t// out\n        /* \"#utility.yul\":24842:24996   */\n    tag_450:\n        /* \"#utility.yul\":24982:24988   */\n      0x73656e7400000000000000000000000000000000000000000000000000000000\n        /* \"#utility.yul\":24978:24979   */\n      0x00\n        /* \"#utility.yul\":24970:24976   */\n      dup3\n        /* \"#utility.yul\":24966:24980   */\n      add\n        /* \"#utility.yul\":24959:24989   */\n      mstore\n        /* \"#utility.yul\":24842:24996   */\n      pop\n      jump\t// out\n        /* \"#utility.yul\":25002:25400   */\n    tag_451:\n        /* \"#utility.yul\":25161:25164   */\n      0x00\n        /* \"#utility.yul\":25182:25265   */\n      tag_724\n        /* \"#utility.yul\":25263:25264   */\n      0x04\n        /* \"#utility.yul\":25258:25261   */\n      dup4\n        /* \"#utility.yul\":25182:25265   */\n      tag_449\n      jump\t// in\n    tag_724:\n        /* \"#utility.yul\":25175:25265   */\n      swap2\n      pop\n        /* \"#utility.yul\":25274:25367   */\n      tag_725\n        /* \"#utility.yul\":25363:25366   */\n      dup3\n        /* \"#utility.yul\":25274:25367   */\n      tag_450\n      jump\t// in\n    tag_725:\n        /* \"#utility.yul\":25392:25393   */\n      0x04\n        /* \"#utility.yul\":25387:25390   */\n      dup3\n        /* \"#utility.yul\":25383:25394   */\n      add\n        /* \"#utility.yul\":25376:25394   */\n      swap1\n      pop\n        /* \"#utility.yul\":25002:25400   */\n      swap2\n      swap1\n      pop\n      jump\t// out\n        /* \"#utility.yul\":25406:25785   */\n    tag_231:\n        /* \"#utility.yul\":25590:25593   */\n      0x00\n        /* \"#utility.yul\":25612:25759   */\n      tag_727\n        /* \"#utility.yul\":25755:25758   */\n      dup3\n        /* \"#utility.yul\":25612:25759   */\n      tag_451\n      jump\t// in\n    tag_727:\n        /* \"#utility.yul\":25605:25759   */\n      swap2\n      pop\n        /* \"#utility.yul\":25776:25779   */\n      dup2\n        /* \"#utility.yul\":25769:25779   */\n      swap1\n      pop\n        /* \"#utility.yul\":25406:25785   */\n      swap2\n      swap1\n      pop\n      jump\t// out\n        /* \"#utility.yul\":25791:25959   */\n    tag_452:\n        /* \"#utility.yul\":25931:25951   */\n      0x4661696c656420746f20636f6d706c6574650000000000000000000000000000\n        /* \"#utility.yul\":25927:25928   */\n      0x00\n        /* \"#utility.yul\":25919:25925   */\n      dup3\n        /* \"#utility.yul\":25915:25929   */\n      add\n        /* \"#utility.yul\":25908:25952   */\n      mstore\n        /* \"#utility.yul\":25791:25959   */\n      pop\n      jump\t// out\n        /* \"#utility.yul\":25965:26331   */\n    tag_453:\n        /* \"#utility.yul\":26107:26110   */\n      0x00\n        /* \"#utility.yul\":26128:26195   */\n      tag_730\n        /* \"#utility.yul\":26192:26194   */\n      0x12\n        /* \"#utility.yul\":26187:26190   */\n      dup4\n        /* \"#utility.yul\":26128:26195   */\n      tag_404\n      jump\t// in\n    tag_730:\n        /* \"#utility.yul\":26121:26195   */\n      swap2\n      pop\n        /* \"#utility.yul\":26204:26297   */\n      tag_731\n        /* \"#utility.yul\":26293:26296   */\n      dup3\n        /* \"#utility.yul\":26204:26297   */\n      tag_452\n      jump\t// in\n    tag_731:\n        /* \"#utility.yul\":26322:26324   */\n      0x20\n        /* \"#utility.yul\":26317:26320   */\n      dup3\n        /* \"#utility.yul\":26313:26325   */\n      add\n        /* \"#utility.yul\":26306:26325   */\n      swap1\n      pop\n        /* \"#utility.yul\":25965:26331   */\n      swap2\n      swap1\n      pop\n      jump\t// out\n        /* \"#utility.yul\":26337:26756   */\n    tag_237:\n        /* \"#utility.yul\":26503:26507   */\n      0x00\n        /* \"#utility.yul\":26541:26543   */\n      0x20\n        /* \"#utility.yul\":26530:26539   */\n      dup3\n        /* \"#utility.yul\":26526:26544   */\n      add\n        /* \"#utility.yul\":26518:26544   */\n      swap1\n      pop\n        /* \"#utility.yul\":26590:26599   */\n      dup2\n        /* \"#utility.yul\":26584:26588   */\n      dup2\n        /* \"#utility.yul\":26580:26600   */\n      sub\n        /* \"#utility.yul\":26576:26577   */\n      0x00\n        /* \"#utility.yul\":26565:26574   */\n      dup4\n        /* \"#utility.yul\":26561:26578   */\n      add\n        /* \"#utility.yul\":26554:26601   */\n      mstore\n        /* \"#utility.yul\":26618:26749   */\n      tag_733\n        /* \"#utility.yul\":26744:26748   */\n      dup2\n        /* \"#utility.yul\":26618:26749   */\n      tag_453\n      jump\t// in\n    tag_733:\n        /* \"#utility.yul\":26610:26749   */\n      swap1\n      pop\n        /* \"#utility.yul\":26337:26756   */\n      swap2\n      swap1\n      pop\n      jump\t// out\n        /* \"#utility.yul\":26762:26934   */\n    tag_454:\n        /* \"#utility.yul\":26902:26926   */\n      0x496e73756666696369656e7420696e76656e746f727900000000000000000000\n        /* \"#utility.yul\":26898:26899   */\n      0x00\n        /* \"#utility.yul\":26890:26896   */\n      dup3\n        /* \"#utility.yul\":26886:26900   */\n      add\n        /* \"#utility.yul\":26879:26927   */\n      mstore\n        /* \"#utility.yul\":26762:26934   */\n      pop\n      jump\t// out\n        /* \"#utility.yul\":26940:27306   */\n    tag_455:\n        /* \"#utility.yul\":27082:27085   */\n      0x00\n        /* \"#utility.yul\":27103:27170   */\n      tag_736\n        /* \"#utility.yul\":27167:27169   */\n      0x16\n        /* \"#utility.yul\":27162:27165   */\n      dup4\n        /* \"#utility.yul\":27103:27170   */\n      tag_404\n      jump\t// in\n    tag_736:\n        /* \"#utility.yul\":27096:27170   */\n      swap2\n      pop\n        /* \"#utility.yul\":27179:27272   */\n      tag_737\n        /* \"#utility.yul\":27268:27271   */\n      dup3\n        /* \"#utility.yul\":27179:27272   */\n      tag_454\n      jump\t// in\n    tag_737:\n        /* \"#utility.yul\":27297:27299   */\n      0x20\n        /* \"#utility.yul\":27292:27295   */\n      dup3\n        /* \"#utility.yul\":27288:27300   */\n      add\n        /* \"#utility.yul\":27281:27300   */\n      swap1\n      pop\n        /* \"#utility.yul\":26940:27306   */\n      swap2\n      swap1\n      pop\n      jump\t// out\n        /* \"#utility.yul\":27312:27731   */\n    tag_248:\n        /* \"#utility.yul\":27478:27482   */\n      0x00\n        /* \"#utility.yul\":27516:27518   */\n      0x20\n        /* \"#utility.yul\":27505:27514   */\n      dup3\n        /* \"#utility.yul\":27501:27519   */\n      add\n        /* \"#utility.yul\":27493:27519   */\n      swap1\n      pop\n        /* \"#utility.yul\":27565:27574   */\n      dup2\n        /* \"#utility.yul\":27559:27563   */\n      dup2\n        /* \"#utility.yul\":27555:27575   */\n      sub\n        /* \"#utility.yul\":27551:27552   */\n      0x00\n        /* \"#utility.yul\":27540:27549   */\n      dup4\n        /* \"#utility.yul\":27536:27553   */\n      add\n        /* \"#utility.yul\":27529:27576   */\n      mstore\n        /* \"#utility.yul\":27593:27724   */\n      tag_739\n        /* \"#utility.yul\":27719:27723   */\n      dup2\n        /* \"#utility.yul\":27593:27724   */\n      tag_455\n      jump\t// in\n    tag_739:\n        /* \"#utility.yul\":27585:27724   */\n      swap1\n      pop\n        /* \"#utility.yul\":27312:27731   */\n      swap2\n      swap1\n      pop\n      jump\t// out\n        /* \"#utility.yul\":27737:28179   */\n    tag_301:\n        /* \"#utility.yul\":27886:27890   */\n      0x00\n        /* \"#utility.yul\":27924:27926   */\n      0x60\n        /* \"#utility.yul\":27913:27922   */\n      dup3\n        /* \"#utility.yul\":27909:27927   */\n      add\n        /* \"#utility.yul\":27901:27927   */\n      swap1\n      pop\n        /* \"#utility.yul\":27937:28008   */\n      tag_741\n        /* \"#utility.yul\":28005:28006   */\n      0x00\n        /* \"#utility.yul\":27994:28003   */\n      dup4\n        /* \"#utility.yul\":27990:28007   */\n      add\n        /* \"#utility.yul\":27981:27987   */\n      dup7\n        /* \"#utility.yul\":27937:28008   */\n      tag_402\n      jump\t// in\n    tag_741:\n        /* \"#utility.yul\":28018:28090   */\n      tag_742\n        /* \"#utility.yul\":28086:28088   */\n      0x20\n        /* \"#utility.yul\":28075:28084   */\n      dup4\n        /* \"#utility.yul\":28071:28089   */\n      add\n        /* \"#utility.yul\":28062:28068   */\n      dup6\n        /* \"#utility.yul\":28018:28090   */\n      tag_394\n      jump\t// in\n    tag_742:\n        /* \"#utility.yul\":28100:28172   */\n      tag_743\n        /* \"#utility.yul\":28168:28170   */\n      0x40\n        /* \"#utility.yul\":28157:28166   */\n      dup4\n        /* \"#utility.yul\":28153:28171   */\n      add\n        /* \"#utility.yul\":28144:28150   */\n      dup5\n        /* \"#utility.yul\":28100:28172   */\n      tag_394\n      jump\t// in\n    tag_743:\n        /* \"#utility.yul\":27737:28179   */\n      swap5\n      swap4\n      pop\n      pop\n      pop\n      pop\n      jump\t// out\n        /* \"#utility.yul\":28185:28325   */\n    tag_456:\n        /* \"#utility.yul\":28233:28237   */\n      0x00\n        /* \"#utility.yul\":28256:28259   */\n      dup2\n        /* \"#utility.yul\":28248:28259   */\n      swap1\n      pop\n        /* \"#utility.yul\":28279:28282   */\n      dup2\n        /* \"#utility.yul\":28276:28277   */\n      0x00\n        /* \"#utility.yul\":28269:28283   */\n      mstore\n        /* \"#utility.yul\":28313:28317   */\n      0x20\n        /* \"#utility.yul\":28310:28311   */\n      0x00\n        /* \"#utility.yul\":28300:28318   */\n      keccak256\n        /* \"#utility.yul\":28292:28318   */\n      swap1\n      pop\n        /* \"#utility.yul\":28185:28325   */\n      swap2\n      swap1\n      pop\n      jump\t// out\n        /* \"#utility.yul\":28331:28424   */\n    tag_457:\n        /* \"#utility.yul\":28368:28374   */\n      0x00\n        /* \"#utility.yul\":28415:28417   */\n      0x20\n        /* \"#utility.yul\":28410:28412   */\n      0x1f\n        /* \"#utility.yul\":28403:28408   */\n      dup4\n        /* \"#utility.yul\":28399:28413   */\n      add\n        /* \"#utility.yul\":28395:28418   */\n      div\n        /* \"#utility.yul\":28385:28418   */\n      swap1\n      pop\n        /* \"#utility.yul\":28331:28424   */\n      swap2\n      swap1\n      pop\n      jump\t// out\n        /* \"#utility.yul\":28430:28537   */\n    tag_458:\n        /* \"#utility.yul\":28474:28482   */\n      0x00\n        /* \"#utility.yul\":28524:28529   */\n      dup3\n        /* \"#utility.yul\":28518:28522   */\n      dup3\n        /* \"#utility.yul\":28514:28530   */\n      shl\n        /* \"#utility.yul\":28493:28530   */\n      swap1\n      pop\n        /* \"#utility.yul\":28430:28537   */\n      swap3\n      swap2\n      pop\n      pop\n      jump\t// out\n        /* \"#utility.yul\":28543:28936   */\n    tag_459:\n        /* \"#utility.yul\":28612:28618   */\n      0x00\n        /* \"#utility.yul\":28662:28663   */\n      0x08\n        /* \"#utility.yul\":28650:28660   */\n      dup4\n        /* \"#utility.yul\":28646:28664   */\n      mul\n        /* \"#utility.yul\":28685:28782   */\n      tag_748\n        /* \"#utility.yul\":28715:28781   */\n      0xffffffffffffffffffffffffffffffffffffffffffffffffffffffffffffffff\n        /* \"#utility.yul\":28704:28713   */\n      dup3\n        /* \"#utility.yul\":28685:28782   */\n      tag_458\n      jump\t// in\n    tag_748:\n        /* \"#utility.yul\":28803:28842   */\n      tag_749\n        /* \"#utility.yul\":28833:28841   */\n      dup7\n        /* \"#utility.yul\":28822:28831   */\n      dup4\n        /* \"#utility.yul\":28803:28842   */\n      tag_458\n      jump\t// in\n    tag_749:\n        /* \"#utility.yul\":28791:28842   */\n      swap6\n      pop\n        /* \"#utility.yul\":28875:28879   */\n      dup1\n        /* \"#utility.yul\":28871:28880   */\n      not\n        /* \"#utility.yul\":28864:28869   */\n      dup5\n        /* \"#utility.yul\":28860:28881   */\n      and\n        /* \"#utility.yul\":28851:28881   */\n      swap4\n      pop\n        /* \"#utility.yul\":28924:28928   */\n      dup1\n        /* \"#utility.yul\":28914:28922   */\n      dup7\n        /* \"#utility.yul\":28910:28929   */\n      and\n        /* \"#utility.yul\":28903:28908   */\n      dup5\n        /* \"#utility.yul\":28900:28930   */\n      or\n        /* \"#utility.yul\":28890:28930   */\n      swap3\n      pop\n        /* \"#utility.yul\":28619:28936   */\n      pop\n      pop\n        /* \"#utility.yul\":28543:28936   */\n      swap4\n      swap3\n      pop\n      pop\n      pop\n      jump\t// out\n        /* \"#utility.yul\":28942:29002   */\n    tag_460:\n        /* \"#utility.yul\":28970:28973   */\n      0x00\n        /* \"#utility.yul\":28991:28996   */\n      dup2\n        /* \"#utility.yul\":28984:28996   */\n      swap1\n      pop\n        /* \"#utility.yul\":28942:29002   */\n      swap2\n      swap1\n      pop\n      jump\t// out\n        /* \"#utility.yul\":29008:29150   */\n    tag_461:\n        /* \"#utility.yul\":29058:29067   */\n      0x00\n        /* \"#utility.yul\":29091:29144   */\n      tag_752\n        /* \"#utility.yul\":29109:29143   */\n      tag_753\n        /* \"#utility.yul\":29118:29142   */\n      tag_754\n        /* \"#utility.yul\":29136:29141   */\n      dup5\n        /* \"#utility.yul\":29118:29142   */\n      tag_393\n      jump\t// in\n    tag_754:\n        /* \"#utility.yul\":29109:29143   */\n      tag_460\n      jump\t// in\n    tag_753:\n        /* \"#utility.yul\":29091:29144   */\n      tag_393\n      jump\t// in\n    tag_752:\n        /* \"#utility.yul\":29078:29144   */\n      swap1\n      pop\n        /* \"#utility.yul\":29008:29150   */\n      swap2\n      swap1\n      pop\n      jump\t// out\n        /* \"#utility.yul\":29156:29231   */\n    tag_462:\n        /* \"#utility.yul\":29199:29202   */\n      0x00\n        /* \"#utility.yul\":29220:29225   */\n      dup2\n        /* \"#utility.yul\":29213:29225   */\n      swap1\n      pop\n        /* \"#utility.yul\":29156:29231   */\n      swap2\n      swap1\n      pop\n      jump\t// out\n        /* \"#utility.yul\":29237:29506   */\n    tag_463:\n        /* \"#utility.yul\":29347:29386   */\n      tag_757\n        /* \"#utility.yul\":29378:29385   */\n      dup4\n        /* \"#utility.yul\":29347:29386   */\n      tag_461\n      jump\t// in\n    tag_757:\n        /* \"#utility.yul\":29408:29499   */\n      tag_758\n        /* \"#utility.yul\":29457:29498   */\n      tag_759\n        /* \"#utility.yul\":29481:29497   */\n      dup3\n        /* \"#utility.yul\":29457:29498   */\n      tag_462\n      jump\t// in\n    tag_759:\n        /* \"#utility.yul\":29449:29455   */\n      dup5\n        /* \"#utility.yul\":29442:29446   */\n      dup5\n        /* \"#utility.yul\":29436:29447   */\n      sload\n        /* \"#utility.yul\":29408:29499   */\n      tag_459\n      jump\t// in\n    tag_758:\n        /* \"#utility.yul\":29402:29406   */\n      dup3\n        /* \"#utility.yul\":29395:29500   */\n      sstore\n        /* \"#utility.yul\":29313:29506   */\n      pop\n        /* \"#utility.yul\":29237:29506   */\n      pop\n      pop\n      pop\n      jump\t// out\n        /* \"#utility.yul\":29512:29585   */\n    tag_464:\n        /* \"#utility.yul\":29557:29560   */\n      0x00\n        /* \"#utility.yul\":29512:29585   */\n      swap1\n      jump\t// out\n        /* \"#utility.yul\":29591:29780   */\n    tag_465:\n        /* \"#utility.yul\":29668:29700   */\n      tag_762\n      tag_464\n      jump\t// in\n    tag_762:\n        /* \"#utility.yul\":29709:29774   */\n      tag_763\n        /* \"#utility.yul\":29767:29773   */\n      dup2\n        /* \"#utility.yul\":29759:29765   */\n      dup5\n        /* \"#utility.yul\":29753:29757   */\n      dup5\n        /* \"#utility.yul\":29709:29774   */\n      tag_463\n      jump\t// in\n    tag_763:\n        /* \"#utility.yul\":29644:29780   */\n      pop\n        /* \"#utility.yul\":29591:29780   */\n      pop\n      pop\n      jump\t// out\n        /* \"#utility.yul\":29786:29972   */\n    tag_466:\n        /* \"#utility.yul\":29846:29966   */\n    tag_765:\n        /* \"#utility.yul\":29863:29866   */\n      dup2\n        /* \"#utility.yul\":29856:29861   */\n      dup2\n        /* \"#utility.yul\":29853:29867   */\n      lt\n        /* \"#utility.yul\":29846:29966   */\n      iszero\n      tag_767\n      jumpi\n        /* \"#utility.yul\":29917:29956   */\n      tag_768\n        /* \"#utility.yul\":29954:29955   */\n      0x00\n        /* \"#utility.yul\":29947:29952   */\n      dup3\n        /* \"#utility.yul\":29917:29956   */\n      tag_465\n      jump\t// in\n    tag_768:\n        /* \"#utility.yul\":29890:29891   */\n      0x01\n        /* \"#utility.yul\":29883:29888   */\n      dup2\n        /* \"#utility.yul\":29879:29892   */\n      add\n        /* \"#utility.yul\":29870:29892   */\n      swap1\n      pop\n        /* \"#utility.yul\":29846:29966   */\n      jump(tag_765)\n    tag_767:\n        /* \"#utility.yul\":29786:29972   */\n      pop\n      pop\n      jump\t// out\n        /* \"#utility.yul\":29978:30519   */\n    tag_467:\n        /* \"#utility.yul\":30078:30080   */\n      0x1f\n        /* \"#utility.yul\":30073:30076   */\n      dup3\n        /* \"#utility.yul\":30070:30081   */\n      gt\n        /* \"#utility.yul\":30067:30512   */\n      iszero\n      tag_770\n      jumpi\n        /* \"#utility.yul\":30112:30149   */\n      tag_771\n        /* \"#utility.yul\":30143:30148   */\n      dup2\n        /* \"#utility.yul\":30112:30149   */\n      tag_456\n      jump\t// in\n    tag_771:\n        /* \"#utility.yul\":30195:30224   */\n      tag_772\n        /* \"#utility.yul\":30213:30223   */\n      dup5\n        /* \"#utility.yul\":30195:30224   */\n      tag_457\n      jump\t// in\n    tag_772:\n        /* \"#utility.yul\":30185:30193   */\n      dup2\n        /* \"#utility.yul\":30181:30225   */\n      add\n        /* \"#utility.yul\":30378:30380   */\n      0x20\n        /* \"#utility.yul\":30366:30376   */\n      dup6\n        /* \"#utility.yul\":30363:30381   */\n      lt\n        /* \"#utility.yul\":30360:30409   */\n      iszero\n      tag_773\n      jumpi\n        /* \"#utility.yul\":30399:30407   */\n      dup2\n        /* \"#utility.yul\":30384:30407   */\n      swap1\n      pop\n        /* \"#utility.yul\":30360:30409   */\n    tag_773:\n        /* \"#utility.yul\":30422:30502   */\n      tag_774\n        /* \"#utility.yul\":30478:30500   */\n      tag_775\n        /* \"#utility.yul\":30496:30499   */\n      dup6\n        /* \"#utility.yul\":30478:30500   */\n      tag_457\n      jump\t// in\n    tag_775:\n        /* \"#utility.yul\":30468:30476   */\n      dup4\n        /* \"#utility.yul\":30464:30501   */\n      add\n        /* \"#utility.yul\":30451:30462   */\n      dup3\n        /* \"#utility.yul\":30422:30502   */\n      tag_466\n      jump\t// in\n    tag_774:\n        /* \"#utility.yul\":30082:30512   */\n      pop\n      pop\n        /* \"#utility.yul\":30067:30512   */\n    tag_770:\n        /* \"#utility.yul\":29978:30519   */\n      pop\n      pop\n      pop\n      jump\t// out\n        /* \"#utility.yul\":30525:30642   */\n    tag_468:\n        /* \"#utility.yul\":30579:30587   */\n      0x00\n        /* \"#utility.yul\":30629:30634   */\n      dup3\n        /* \"#utility.yul\":30623:30627   */\n      dup3\n        /* \"#utility.yul\":30619:30635   */\n      shr\n        /* \"#utility.yul\":30598:30635   */\n      swap1\n      pop\n        /* \"#utility.yul\":30525:30642   */\n      swap3\n      swap2\n      pop\n      pop\n      jump\t// out\n        /* \"#utility.yul\":30648:30817   */\n    tag_469:\n        /* \"#utility.yul\":30692:30698   */\n      0x00\n        /* \"#utility.yul\":30725:30776   */\n      tag_778\n        /* \"#utility.yul\":30773:30774   */\n      0x00\n        /* \"#utility.yul\":30769:30775   */\n      not\n        /* \"#utility.yul\":30761:30766   */\n      dup5\n        /* \"#utility.yul\":30758:30759   */\n      0x08\n        /* \"#utility.yul\":30754:30767   */\n      mul\n        /* \"#utility.yul\":30725:30776   */\n      tag_468\n      jump\t// in\n    tag_778:\n        /* \"#utility.yul\":30721:30777   */\n      not\n        /* \"#utility.yul\":30806:30810   */\n      dup1\n        /* \"#utility.yul\":30800:30804   */\n      dup4\n        /* \"#utility.yul\":30796:30811   */\n      and\n        /* \"#utility.yul\":30786:30811   */\n      swap2\n      pop\n        /* \"#utility.yul\":30699:30817   */\n      pop\n        /* \"#utility.yul\":30648:30817   */\n      swap3\n      swap2\n      pop\n      pop\n      jump\t// out\n        /* \"#utility.yul\":30822:31117   */\n    tag_470:\n        /* \"#utility.yul\":30898:30902   */\n      0x00\n        /* \"#utility.yul\":31044:31073   */\n      tag_780\n        /* \"#utility.yul\":31069:31072   */\n      dup4\n        /* \"#utility.yul\":31063:31067   */\n      dup4\n        /* \"#utility.yul\":31044:31073   */\n      tag_469\n      jump\t// in\n    tag_780:\n        /* \"#utility.yul\":31036:31073   */\n      swap2\n      pop\n        /* \"#utility.yul\":31106:31109   */\n      dup3\n        /* \"#utility.yul\":31103:31104   */\n      0x02\n        /* \"#utility.yul\":31099:31110   */\n      mul\n        /* \"#utility.yul\":31093:31097   */\n      dup3\n        /* \"#utility.yul\":31090:31111   */\n      or\n        /* \"#utility.yul\":31082:31111   */\n      swap1\n      pop\n        /* \"#utility.yul\":30822:31117   */\n      swap3\n      swap2\n      pop\n      pop\n      jump\t// out\n        /* \"#utility.yul\":31122:32512   */\n    tag_311:\n        /* \"#utility.yul\":31237:31273   */\n      tag_782\n        /* \"#utility.yul\":31269:31272   */\n      dup3\n        /* \"#utility.yul\":31237:31273   */\n      tag_412\n      jump\t// in\n    tag_782:\n        /* \"#utility.yul\":31338:31356   */\n      0xffffffffffffffff\n        /* \"#utility.yul\":31330:31336   */\n      dup2\n        /* \"#utility.yul\":31327:31357   */\n      gt\n        /* \"#utility.yul\":31324:31380   */\n      iszero\n      tag_783\n      jumpi\n        /* \"#utility.yul\":31360:31378   */\n      tag_784\n      tag_436\n      jump\t// in\n    tag_784:\n        /* \"#utility.yul\":31324:31380   */\n    tag_783:\n        /* \"#utility.yul\":31404:31442   */\n      tag_785\n        /* \"#utility.yul\":31436:31440   */\n      dup3\n        /* \"#utility.yul\":31430:31441   */\n      sload\n        /* \"#utility.yul\":31404:31442   */\n      tag_190\n      jump\t// in\n    tag_785:\n        /* \"#utility.yul\":31489:31555   */\n      tag_786\n        /* \"#utility.yul\":31548:31554   */\n      dup3\n        /* \"#utility.yul\":31540:31546   */\n      dup3\n        /* \"#utility.yul\":31534:31538   */\n      dup6\n        /* \"#utility.yul\":31489:31555   */\n      tag_467\n      jump\t// in\n    tag_786:\n        /* \"#utility.yul\":31582:31583   */\n      0x00\n        /* \"#utility.yul\":31606:31610   */\n      0x20\n        /* \"#utility.yul\":31593:31610   */\n      swap1\n      pop\n        /* \"#utility.yul\":31638:31640   */\n      0x1f\n        /* \"#utility.yul\":31630:31636   */\n      dup4\n        /* \"#utility.yul\":31627:31641   */\n      gt\n        /* \"#utility.yul\":31655:31656   */\n      0x01\n        /* \"#utility.yul\":31650:32267   */\n      dup2\n      eq\n      tag_788\n      jumpi\n        /* \"#utility.yul\":32311:32312   */\n      0x00\n        /* \"#utility.yul\":32328:32334   */\n      dup5\n        /* \"#utility.yul\":32325:32402   */\n      iszero\n      tag_789\n      jumpi\n        /* \"#utility.yul\":32377:32386   */\n      dup3\n        /* \"#utility.yul\":32372:32375   */\n      dup8\n        /* \"#utility.yul\":32368:32387   */\n      add\n        /* \"#utility.yul\":32362:32388   */\n      mload\n        /* \"#utility.yul\":32353:32388   */\n      swap1\n      pop\n        /* \"#utility.yul\":32325:32402   */\n    tag_789:\n        /* \"#utility.yul\":32428:32495   */\n      tag_790\n        /* \"#utility.yul\":32488:32494   */\n      dup6\n        /* \"#utility.yul\":32481:32486   */\n      dup3\n        /* \"#utility.yul\":32428:32495   */\n      tag_470\n      jump\t// in\n    tag_790:\n        /* \"#utility.yul\":32422:32426   */\n      dup7\n        /* \"#utility.yul\":32415:32496   */\n      sstore\n        /* \"#utility.yul\":32284:32506   */\n      pop\n        /* \"#utility.yul\":31620:32506   */\n      jump(tag_787)\n        /* \"#utility.yul\":31650:32267   */\n    tag_788:\n        /* \"#utility.yul\":31702:31706   */\n      0x1f\n        /* \"#utility.yul\":31698:31707   */\n      not\n        /* \"#utility.yul\":31690:31696   */\n      dup5\n        /* \"#utility.yul\":31686:31708   */\n      and\n        /* \"#utility.yul\":31736:31772   */\n      tag_791\n        /* \"#utility.yul\":31767:31771   */\n      dup7\n        /* \"#utility.yul\":31736:31772   */\n      tag_456\n      jump\t// in\n    tag_791:\n        /* \"#utility.yul\":31794:31795   */\n      0x00\n        /* \"#utility.yul\":31808:32016   */\n    tag_792:\n        /* \"#utility.yul\":31822:31829   */\n      dup3\n        /* \"#utility.yul\":31819:31820   */\n      dup2\n        /* \"#utility.yul\":31816:31830   */\n      lt\n        /* \"#utility.yul\":31808:32016   */\n      iszero\n      tag_794\n      jumpi\n        /* \"#utility.yul\":31901:31910   */\n      dup5\n        /* \"#utility.yul\":31896:31899   */\n      dup10\n        /* \"#utility.yul\":31892:31911   */\n      add\n        /* \"#utility.yul\":31886:31912   */\n      mload\n        /* \"#utility.yul\":31878:31884   */\n      dup3\n        /* \"#utility.yul\":31871:31913   */\n      sstore\n        /* \"#utility.yul\":31952:31953   */\n      0x01\n        /* \"#utility.yul\":31944:31950   */\n      dup3\n        /* \"#utility.yul\":31940:31954   */\n      add\n        /* \"#utility.yul\":31930:31954   */\n      swap2\n      pop\n        /* \"#utility.yul\":31999:32001   */\n      0x20\n        /* \"#utility.yul\":31988:31997   */\n      dup6\n        /* \"#utility.yul\":31984:32002   */\n      add\n        /* \"#utility.yul\":31971:32002   */\n      swap5\n      pop\n        /* \"#utility.yul\":31845:31849   */\n      0x20\n        /* \"#utility.yul\":31842:31843   */\n      dup2\n        /* \"#utility.yul\":31838:31850   */\n      add\n        /* \"#utility.yul\":31833:31850   */\n      swap1\n      pop\n        /* \"#utility.yul\":31808:32016   */\n      jump(tag_792)\n    tag_794:\n        /* \"#utility.yul\":32044:32050   */\n      dup7\n        /* \"#utility.yul\":32035:32042   */\n      dup4\n        /* \"#utility.yul\":32032:32051   */\n      lt\n        /* \"#utility.yul\":32029:32208   */\n      iszero\n      tag_795\n      jumpi\n        /* \"#utility.yul\":32102:32111   */\n      dup5\n        /* \"#utility.yul\":32097:32100   */\n      dup10\n        /* \"#utility.yul\":32093:32112   */\n      add\n        /* \"#utility.yul\":32087:32113   */\n      mload\n        /* \"#utility.yul\":32145:32193   */\n      tag_796\n        /* \"#utility.yul\":32187:32191   */\n      0x1f\n        /* \"#utility.yul\":32179:32185   */\n      dup10\n        /* \"#utility.yul\":32175:32192   */\n      and\n        /* \"#utility.yul\":32164:32173   */\n      dup3\n        /* \"#utility.yul\":32145:32193   */\n      tag_469\n      jump\t// in\n    tag_796:\n        /* \"#utility.yul\":32137:32143   */\n      dup4\n        /* \"#utility.yul\":32130:32194   */\n      sstore\n        /* \"#utility.yul\":32052:32208   */\n      pop\n        /* \"#utility.yul\":32029:32208   */\n    tag_795:\n        /* \"#utility.yul\":32254:32255   */\n      0x01\n        /* \"#utility.yul\":32250:32251   */\n      0x02\n        /* \"#utility.yul\":32242:32248   */\n      dup9\n        /* \"#utility.yul\":32238:32252   */\n      mul\n        /* \"#utility.yul\":32234:32256   */\n      add\n        /* \"#utility.yul\":32228:32232   */\n      dup9\n        /* \"#utility.yul\":32221:32257   */\n      sstore\n        /* \"#utility.yul\":31657:32267   */\n      pop\n      pop\n      pop\n        /* \"#utility.yul\":31620:32506   */\n    tag_787:\n      pop\n        /* \"#utility.yul\":31212:32512   */\n      pop\n      pop\n      pop\n        /* \"#utility.yul\":31122:32512   */\n      pop\n      pop\n      jump\t// out\n        /* \"#utility.yul\":32518:32698   */\n    tag_471:\n        /* \"#utility.yul\":32658:32690   */\n      0x596f757220696e76656e746f727920697320696e73756666696369656e740000\n        /* \"#utility.yul\":32654:32655   */\n      0x00\n        /* \"#utility.yul\":32646:32652   */\n      dup3\n        /* \"#utility.yul\":32642:32656   */\n      add\n        /* \"#utility.yul\":32635:32691   */\n      mstore\n        /* \"#utility.yul\":32518:32698   */\n      pop\n      jump\t// out\n        /* \"#utility.yul\":32704:33070   */\n    tag_472:\n        /* \"#utility.yul\":32846:32849   */\n      0x00\n        /* \"#utility.yul\":32867:32934   */\n      tag_799\n        /* \"#utility.yul\":32931:32933   */\n      0x1e\n        /* \"#utility.yul\":32926:32929   */\n      dup4\n        /* \"#utility.yul\":32867:32934   */\n      tag_404\n      jump\t// in\n    tag_799:\n        /* \"#utility.yul\":32860:32934   */\n      swap2\n      pop\n        /* \"#utility.yul\":32943:33036   */\n      tag_800\n        /* \"#utility.yul\":33032:33035   */\n      dup3\n        /* \"#utility.yul\":32943:33036   */\n      tag_471\n      jump\t// in\n    tag_800:\n        /* \"#utility.yul\":33061:33063   */\n      0x20\n        /* \"#utility.yul\":33056:33059   */\n      dup3\n        /* \"#utility.yul\":33052:33064   */\n      add\n        /* \"#utility.yul\":33045:33064   */\n      swap1\n      pop\n        /* \"#utility.yul\":32704:33070   */\n      swap2\n      swap1\n      pop\n      jump\t// out\n        /* \"#utility.yul\":33076:33495   */\n    tag_329:\n        /* \"#utility.yul\":33242:33246   */\n      0x00\n        /* \"#utility.yul\":33280:33282   */\n      0x20\n        /* \"#utility.yul\":33269:33278   */\n      dup3\n        /* \"#utility.yul\":33265:33283   */\n      add\n        /* \"#utility.yul\":33257:33283   */\n      swap1\n      pop\n        /* \"#utility.yul\":33329:33338   */\n      dup2\n        /* \"#utility.yul\":33323:33327   */\n      dup2\n        /* \"#utility.yul\":33319:33339   */\n      sub\n        /* \"#utility.yul\":33315:33316   */\n      0x00\n        /* \"#utility.yul\":33304:33313   */\n      dup4\n        /* \"#utility.yul\":33300:33317   */\n      add\n        /* \"#utility.yul\":33293:33340   */\n      mstore\n        /* \"#utility.yul\":33357:33488   */\n      tag_802\n        /* \"#utility.yul\":33483:33487   */\n      dup2\n        /* \"#utility.yul\":33357:33488   */\n      tag_472\n      jump\t// in\n    tag_802:\n        /* \"#utility.yul\":33349:33488   */\n      swap1\n      pop\n        /* \"#utility.yul\":33076:33495   */\n      swap2\n      swap1\n      pop\n      jump\t// out\n\n    auxdata: 0xa264697066735822122038a0f78392a8606e0e7b6e6908034d9bf764dbbbb9975d1b308fb51f770fda3064736f6c63430008130033\n}\n",
				"bytecode": {
					"linkReferences": {},
					"object": "60806040523480156200001157600080fd5b5060405162003f8738038062003f87833981810160405281019062000037919062000536565b6040518060400160405280600481526020017f6e616d65000000000000000000000000000000000000000000000000000000008152506040518060400160405280600681526020017f73796d626f6c00000000000000000000000000000000000000000000000000008152508160039081620000b49190620007dd565b508060049081620000c69190620007dd565b5050506000825111620000d857600080fd5b81518111158015620000ea5750600081115b620000f457600080fd5b60405180602001604052803373ffffffffffffffffffffffffffffffffffffffff1673ffffffffffffffffffffffffffffffffffffffff16815250600a906001620001419291906200025f565b5060005b82518110156200024f5760056000848381518110620001695762000168620008c4565b5b602002602001015173ffffffffffffffffffffffffffffffffffffffff1673ffffffffffffffffffffffffffffffffffffffff16815260200190815260200160002060009054906101000a900460ff1615620001c457600080fd5b600160056000858481518110620001e057620001df620008c4565b5b602002602001015173ffffffffffffffffffffffffffffffffffffffff1673ffffffffffffffffffffffffffffffffffffffff16815260200190815260200160002060006101000a81548160ff0219169083151502179055508080620002469062000922565b91505062000145565b5080600d8190555050506200096f565b828054828255906000526020600020908101928215620002db579160200282015b82811115620002da5782518260006101000a81548173ffffffffffffffffffffffffffffffffffffffff021916908373ffffffffffffffffffffffffffffffffffffffff1602179055509160200191906001019062000280565b5b509050620002ea9190620002ee565b5090565b5b8082111562000309576000816000905550600101620002ef565b5090565b6000604051905090565b600080fd5b600080fd5b600080fd5b6000601f19601f8301169050919050565b7f4e487b7100000000000000000000000000000000000000000000000000000000600052604160045260246000fd5b620003718262000326565b810181811067ffffffffffffffff8211171562000393576200039262000337565b5b80604052505050565b6000620003a86200030d565b9050620003b6828262000366565b919050565b600067ffffffffffffffff821115620003d957620003d862000337565b5b602082029050602081019050919050565b600080fd5b600073ffffffffffffffffffffffffffffffffffffffff82169050919050565b60006200041c82620003ef565b9050919050565b6200042e816200040f565b81146200043a57600080fd5b50565b6000815190506200044e8162000423565b92915050565b60006200046b6200046584620003bb565b6200039c565b90508083825260208201905060208402830185811115620004915762000490620003ea565b5b835b81811015620004be5780620004a988826200043d565b84526020840193505060208101905062000493565b5050509392505050565b600082601f830112620004e057620004df62000321565b5b8151620004f284826020860162000454565b91505092915050565b6000819050919050565b6200051081620004fb565b81146200051c57600080fd5b50565b600081519050620005308162000505565b92915050565b6000806040838503121562000550576200054f62000317565b5b600083015167ffffffffffffffff8111156200057157620005706200031c565b5b6200057f85828601620004c8565b925050602062000592858286016200051f565b9150509250929050565b600081519050919050565b7f4e487b7100000000000000000000000000000000000000000000000000000000600052602260045260246000fd5b60006002820490506001821680620005ef57607f821691505b602082108103620006055762000604620005a7565b5b50919050565b60008190508160005260206000209050919050565b60006020601f8301049050919050565b600082821b905092915050565b6000600883026200066f7fffffffffffffffffffffffffffffffffffffffffffffffffffffffffffffffff8262000630565b6200067b868362000630565b95508019841693508086168417925050509392505050565b6000819050919050565b6000620006be620006b8620006b284620004fb565b62000693565b620004fb565b9050919050565b6000819050919050565b620006da836200069d565b620006f2620006e982620006c5565b8484546200063d565b825550505050565b600090565b62000709620006fa565b62000716818484620006cf565b505050565b5b818110156200073e5762000732600082620006ff565b6001810190506200071c565b5050565b601f8211156200078d5762000757816200060b565b620007628462000620565b8101602085101562000772578190505b6200078a620007818562000620565b8301826200071b565b50505b505050565b600082821c905092915050565b6000620007b26000198460080262000792565b1980831691505092915050565b6000620007cd83836200079f565b9150826002028217905092915050565b620007e8826200059c565b67ffffffffffffffff81111562000804576200080362000337565b5b620008108254620005d6565b6200081d82828562000742565b600060209050601f83116001811462000855576000841562000840578287015190505b6200084c8582620007bf565b865550620008bc565b601f19841662000865866200060b565b60005b828110156200088f5784890151825560018201915060208501945060208101905062000868565b86831015620008af5784890151620008ab601f8916826200079f565b8355505b6001600288020188555050505b505050505050565b7f4e487b7100000000000000000000000000000000000000000000000000000000600052603260045260246000fd5b7f4e487b7100000000000000000000000000000000000000000000000000000000600052601160045260246000fd5b60006200092f82620004fb565b91507fffffffffffffffffffffffffffffffffffffffffffffffffffffffffffffffff8203620009645762000963620008f3565b5b600182019050919050565b613608806200097f6000396000f3fe6080604052600436106101bb5760003560e01c80638f14f715116100ec578063b5685f6c1161008a578063dd62ed3e11610064578063dd62ed3e14610725578063ee3aba3b14610762578063ee51ba591461079f578063f1f00acc146107cf57610210565b8063b5685f6c146106a1578063ba88c967146106ca578063bb68796b146106f557610210565b80639ace38c2116100c65780639ace38c2146105a5578063a457c2d7146105ea578063a80dfb5c14610627578063a9059cbb1461066457610210565b80638f14f7151461050e57806395d89b41146105395780639a887f581461056457610210565b8063313ce567116101595780634c31f249116101335780634c31f249146104395780634c9c7af31461046957806370a08231146104a6578063738dbfa6146104e357610210565b8063313ce5671461039457806339509351146103bf57806345c9711f146103fc57610210565b806318160ddd1161019557806318160ddd146102ba578063228f1173146102e557806323b872dd146103275780632b29fca11461036457610210565b8063025e7c271461021557806306fdde0314610252578063095ea7b31461027d57610210565b36610210573373ffffffffffffffffffffffffffffffffffffffff167f65f1df07eef63e0eb903b4a8275b11fda817b71ad87abbd791e95353ac8f86f23460405161020691906124cb565b60405180910390a2005b600080fd5b34801561022157600080fd5b5061023c60048036038101906102379190612526565b6107eb565b6040516102499190612594565b60405180910390f35b34801561025e57600080fd5b5061026761082a565b604051610274919061263f565b60405180910390f35b34801561028957600080fd5b506102a4600480360381019061029f919061268d565b6108bc565b6040516102b191906126e8565b60405180910390f35b3480156102c657600080fd5b506102cf6108df565b6040516102dc91906124cb565b60405180910390f35b3480156102f157600080fd5b5061030c60048036038101906103079190612526565b6108e9565b60405161031e96959493929190612758565b60405180910390f35b34801561033357600080fd5b5061034e600480360381019061034991906127c0565b610a20565b60405161035b91906126e8565b60405180910390f35b61037e60048036038101906103799190612813565b610a4f565b60405161038b91906126e8565b60405180910390f35b3480156103a057600080fd5b506103a9610cb5565b6040516103b6919061286f565b60405180910390f35b3480156103cb57600080fd5b506103e660048036038101906103e1919061268d565b610cbe565b6040516103f391906126e8565b60405180910390f35b34801561040857600080fd5b50610423600480360381019061041e919061288a565b610cf5565b60405161043091906126e8565b60405180910390f35b610453600480360381019061044e9190612813565b610d15565b60405161046091906124cb565b60405180910390f35b34801561047557600080fd5b50610490600480360381019061048b91906128b7565b610f27565b60405161049d91906126e8565b60405180910390f35b3480156104b257600080fd5b506104cd60048036038101906104c8919061288a565b610f56565b6040516104da91906124cb565b60405180910390f35b3480156104ef57600080fd5b506104f8610f9e565b60405161050591906124cb565b60405180910390f35b34801561051a57600080fd5b50610523610fa4565b6040516105309190612b6c565b60405180910390f35b34801561054557600080fd5b5061054e611174565b60405161055b919061263f565b60405180910390f35b34801561057057600080fd5b5061058b60048036038101906105869190612526565b611206565b60405161059c959493929190612b8e565b60405180910390f35b3480156105b157600080fd5b506105cc60048036038101906105c79190612526565b6112f4565b6040516105e199989796959493929190612bf7565b60405180910390f35b3480156105f657600080fd5b50610611600480360381019061060c919061268d565b611414565b60405161061e91906126e8565b60405180910390f35b34801561063357600080fd5b5061064e6004803603810190610649919061288a565b611491565b60405161065b91906124cb565b60405180910390f35b34801561067057600080fd5b5061068b6004803603810190610686919061268d565b6114a9565b60405161069891906126e8565b60405180910390f35b3480156106ad57600080fd5b506106c860048036038101906106c39190612e11565b6114cc565b005b3480156106d657600080fd5b506106df61164e565b6040516106ec91906124cb565b60405180910390f35b61070f600480360381019061070a9190612526565b611695565b60405161071c91906124cb565b60405180910390f35b34801561073157600080fd5b5061074c60048036038101906107479190612ef7565b61185b565b60405161075991906124cb565b60405180910390f35b34801561076e57600080fd5b50610789600480360381019061078491906128b7565b6118e2565b60405161079691906126e8565b60405180910390f35b6107b960048036038101906107b49190612f37565b611911565b6040516107c691906124cb565b60405180910390f35b6107e960048036038101906107e49190612f9e565b611b9f565b005b600a81815481106107fb57600080fd5b906000526020600020016000915054906101000a900473ffffffffffffffffffffffffffffffffffffffff1681565b60606003805461083990613076565b80601f016020809104026020016040519081016040528092919081815260200182805461086590613076565b80156108b25780601f10610887576101008083540402835291602001916108b2565b820191906000526020600020905b81548152906001019060200180831161089557829003601f168201915b5050505050905090565b6000806108c7611f30565b90506108d4818585611f38565b600191505092915050565b6000600254905090565b6000806060600080600080600b8881548110610908576109076130a7565b5b90600052602060002090600902019050600281600801544261092a9190613105565b1161093457600080fd5b8060000160009054906101000a900473ffffffffffffffffffffffffffffffffffffffff168160010154826002018360030160009054906101000a900460ff168460040154856006015483805461098a90613076565b80601f01602080910402602001604051908101604052809291908181526020018280546109b690613076565b8015610a035780601f106109d857610100808354040283529160200191610a03565b820191906000526020600020905b8154815290600101906020018083116109e657829003601f168201915b505050505093509650965096509650965096505091939550919395565b600080610a2b611f30565b9050610a38858285612107565b610a43858585612199565b60019150509392505050565b60006008600083815260200190815260200160002060003373ffffffffffffffffffffffffffffffffffffffff1673ffffffffffffffffffffffffffffffffffffffff16815260200190815260200160002060009054906101000a900460ff16610ab857600080fd5b678ac7230489e80000600660003373ffffffffffffffffffffffffffffffffffffffff1673ffffffffffffffffffffffffffffffffffffffff1681526020019081526020016000206000828254610b0f9190613139565b9250508190555034600660003373ffffffffffffffffffffffffffffffffffffffff1673ffffffffffffffffffffffffffffffffffffffff1681526020019081526020016000206000828254610b659190613139565b925050819055506000600b8381548110610b8257610b816130a7565b5b906000526020600020906009020190506002816008015442610ba49190613105565b11610bae57600080fd5b60003373ffffffffffffffffffffffffffffffffffffffff1685604051610bd4906131c4565b60006040518083038185875af1925050503d8060008114610c11576040519150601f19603f3d011682016040523d82523d6000602084013e610c16565b606091505b5050905080610c5a576040517f08c379a0000000000000000000000000000000000000000000000000000000008152600401610c5190613225565b60405180910390fd5b833373ffffffffffffffffffffffffffffffffffffffff167f24752d85a5cc733663165f014a85e53ee7233373e03cd03a8759314180a5a68087604051610ca191906124cb565b60405180910390a360019250505092915050565b60006012905090565b600080610cc9611f30565b9050610cea818585610cdb858961185b565b610ce59190613139565b611f38565b600191505092915050565b60056020528060005260406000206000915054906101000a900460ff1681565b6000600660003373ffffffffffffffffffffffffffffffffffffffff1673ffffffffffffffffffffffffffffffffffffffff16815260200190815260200160002054831115610d99576040517f08c379a0000000000000000000000000000000000000000000000000000000008152600401610d9090613291565b60405180910390fd5b82600660003373ffffffffffffffffffffffffffffffffffffffff1673ffffffffffffffffffffffffffffffffffffffff1681526020019081526020016000206000828254610de89190613105565b9250508190555060003373ffffffffffffffffffffffffffffffffffffffff1684604051610e15906131c4565b60006040518083038185875af1925050503d8060008114610e52576040519150601f19603f3d011682016040523d82523d6000602084013e610e57565b606091505b5050905080610e9b576040517f08c379a0000000000000000000000000000000000000000000000000000000008152600401610e9290613225565b60405180910390fd5b6000600b8481548110610eb157610eb06130a7565b5b906000526020600020906009020190506002816008015442610ed39190613105565b11610edd57600080fd5b600660003373ffffffffffffffffffffffffffffffffffffffff1673ffffffffffffffffffffffffffffffffffffffff168152602001908152602001600020549250505092915050565b60096020528160005260406000206020528060005260406000206000915091509054906101000a900460ff1681565b60008060008373ffffffffffffffffffffffffffffffffffffffff1673ffffffffffffffffffffffffffffffffffffffff168152602001908152602001600020549050919050565b600d5481565b6060600b805480602002602001604051908101604052809291908181526020016000905b8282101561116b5783829060005260206000209060090201604051806101200160405290816000820160009054906101000a900473ffffffffffffffffffffffffffffffffffffffff1673ffffffffffffffffffffffffffffffffffffffff1673ffffffffffffffffffffffffffffffffffffffff1681526020016001820154815260200160028201805461105c90613076565b80601f016020809104026020016040519081016040528092919081815260200182805461108890613076565b80156110d55780601f106110aa576101008083540402835291602001916110d5565b820191906000526020600020905b8154815290600101906020018083116110b857829003601f168201915b505050505081526020016003820160009054906101000a900460ff161515151581526020016004820154815260200160058201548152602001600682015481526020016007820160009054906101000a900460ff16600381111561113c5761113b61299a565b5b600381111561114e5761114d61299a565b5b815260200160088201548152505081526020019060010190610fc8565b50505050905090565b60606004805461118390613076565b80601f01602080910402602001604051908101604052809291908181526020018280546111af90613076565b80156111fc5780601f106111d1576101008083540402835291602001916111fc565b820191906000526020600020905b8154815290600101906020018083116111df57829003601f168201915b5050505050905090565b600c818154811061121657600080fd5b906000526020600020906005020160009150905080600001805461123990613076565b80601f016020809104026020016040519081016040528092919081815260200182805461126590613076565b80156112b25780601f10611287576101008083540402835291602001916112b2565b820191906000526020600020905b81548152906001019060200180831161129557829003601f168201915b5050505050908060010154908060020154908060030160009054906101000a900473ffffffffffffffffffffffffffffffffffffffff16908060040154905085565b600b818154811061130457600080fd5b90600052602060002090600902016000915090508060000160009054906101000a900473ffffffffffffffffffffffffffffffffffffffff169080600101549080600201805461135390613076565b80601f016020809104026020016040519081016040528092919081815260200182805461137f90613076565b80156113cc5780601f106113a1576101008083540402835291602001916113cc565b820191906000526020600020905b8154815290600101906020018083116113af57829003601f168201915b5050505050908060030160009054906101000a900460ff16908060040154908060050154908060060154908060070160009054906101000a900460ff16908060080154905089565b60008061141f611f30565b9050600061142d828661185b565b905083811015611478578481856040517fa60f030c00000000000000000000000000000000000000000000000000000000815260040161146f939291906132b1565b60405180910390fd5b6114858286868403611f38565b60019250505092915050565b60076020528060005260406000206000915090505481565b6000806114b4611f30565b90506114c1818585612199565b600191505092915050565b600b6040518061012001604052808b73ffffffffffffffffffffffffffffffffffffffff1681526020018a8152602001898152602001881515815260200187815260200186815260200185815260200184600381111561152f5761152e61299a565b5b815260200183815250908060018154018082558091505060019003906000526020600020906009020160009091909190915060008201518160000160006101000a81548173ffffffffffffffffffffffffffffffffffffffff021916908373ffffffffffffffffffffffffffffffffffffffff1602179055506020820151816001015560408201518160020190816115c79190613494565b5060608201518160030160006101000a81548160ff0219169083151502179055506080820151816004015560a0820151816005015560c0820151816006015560e08201518160070160006101000a81548160ff021916908360038111156116315761163061299a565b5b021790555061010082015181600801555050505050505050505050565b6000600660003373ffffffffffffffffffffffffffffffffffffffff1673ffffffffffffffffffffffffffffffffffffffff16815260200190815260200160002054905090565b6000600660003373ffffffffffffffffffffffffffffffffffffffff1673ffffffffffffffffffffffffffffffffffffffff1681526020019081526020016000205434600660003373ffffffffffffffffffffffffffffffffffffffff1673ffffffffffffffffffffffffffffffffffffffff168152602001908152602001600020546117229190613139565b101561172d57600080fd5b34600660003373ffffffffffffffffffffffffffffffffffffffff1673ffffffffffffffffffffffffffffffffffffffff168152602001908152602001600020600082825461177c9190613139565b925050819055503373ffffffffffffffffffffffffffffffffffffffff167f65f1df07eef63e0eb903b4a8275b11fda817b71ad87abbd791e95353ac8f86f2346040516117c991906124cb565b60405180910390a26000600b83815481106117e7576117e66130a7565b5b9060005260206000209060090201905060028160080154426118099190613105565b1161181357600080fd5b600660003373ffffffffffffffffffffffffffffffffffffffff1673ffffffffffffffffffffffffffffffffffffffff16815260200190815260200160002054915050919050565b6000600160008473ffffffffffffffffffffffffffffffffffffffff1673ffffffffffffffffffffffffffffffffffffffff16815260200190815260200160002060008373ffffffffffffffffffffffffffffffffffffffff1673ffffffffffffffffffffffffffffffffffffffff16815260200190815260200160002054905092915050565b60086020528160005260406000206020528060005260406000206000915091509054906101000a900460ff1681565b6000600660003373ffffffffffffffffffffffffffffffffffffffff1673ffffffffffffffffffffffffffffffffffffffff16815260200190815260200160002054821115611995576040517f08c379a000000000000000000000000000000000000000000000000000000000815260040161198c906135b2565b60405180910390fd5b60003373ffffffffffffffffffffffffffffffffffffffff16836040516119bb906131c4565b60006040518083038185875af1925050503d80600081146119f8576040519150601f19603f3d011682016040523d82523d6000602084013e6119fd565b606091505b5050905080611a41576040517f08c379a0000000000000000000000000000000000000000000000000000000008152600401611a3890613225565b60405180910390fd5b6000600b8681548110611a5757611a566130a7565b5b906000526020600020906009020190506002816008015442611a799190613105565b11611a8357600080fd5b83600660003373ffffffffffffffffffffffffffffffffffffffff1673ffffffffffffffffffffffffffffffffffffffff1681526020019081526020016000206000828254611ad29190613105565b9250508190555034600660003373ffffffffffffffffffffffffffffffffffffffff1673ffffffffffffffffffffffffffffffffffffffff1681526020019081526020016000206000828254611b289190613105565b92505081905550858573ffffffffffffffffffffffffffffffffffffffff163373ffffffffffffffffffffffffffffffffffffffff167f189409402a897f6d67cc0bd64109d12c62445a3ee7e86a7f7ad3b10bc3f50cfb87604051611b8d91906124cb565b60405180910390a45050949350505050565b600560003373ffffffffffffffffffffffffffffffffffffffff1673ffffffffffffffffffffffffffffffffffffffff16815260200190815260200160002060009054906101000a900460ff16611bf557600080fd5b60008211611c0257600080fd5b600b8181548110611c1657611c156130a7565b5b906000526020600020906009020160030160009054906101000a900460ff1615611c3f57600080fd5b6000600b8281548110611c5557611c546130a7565b5b906000526020600020906009020190506002816008015442611c779190613105565b11611c8157600080fd5b6000600b805490509050600b6040518061012001604052808a73ffffffffffffffffffffffffffffffffffffffff16815260200189815260200188815260200160001515815260200187815260200186815260200183815260200160006003811115611cf057611cef61299a565b5b815260200142815250908060018154018082558091505060019003906000526020600020906009020160009091909190915060008201518160000160006101000a81548173ffffffffffffffffffffffffffffffffffffffff021916908373ffffffffffffffffffffffffffffffffffffffff160217905550602082015181600101556040820151816002019081611d889190613494565b5060608201518160030160006101000a81548160ff0219169083151502179055506080820151816004015560a0820151816005015560c0820151816006015560e08201518160070160006101000a81548160ff02191690836003811115611df257611df161299a565b5b021790555061010082015181600801555050671bc16d674ec80000600660003373ffffffffffffffffffffffffffffffffffffffff1673ffffffffffffffffffffffffffffffffffffffff1681526020019081526020016000206000828254611e5b9190613139565b9250508190555060016008600085815260200190815260200160002060003373ffffffffffffffffffffffffffffffffffffffff1673ffffffffffffffffffffffffffffffffffffffff16815260200190815260200160002060006101000a81548160ff021916908315150217905550828873ffffffffffffffffffffffffffffffffffffffff163373ffffffffffffffffffffffffffffffffffffffff167f3a7e667d1f3e3931c98c8b2da3d29bba1ea247441cb2573a4ddf9c77eef7cd1360405160405180910390a45050505050505050565b600033905090565b600073ffffffffffffffffffffffffffffffffffffffff168373ffffffffffffffffffffffffffffffffffffffff1603611faa5760006040517fe602df05000000000000000000000000000000000000000000000000000000008152600401611fa19190612594565b60405180910390fd5b600073ffffffffffffffffffffffffffffffffffffffff168273ffffffffffffffffffffffffffffffffffffffff160361201c5760006040517f94280d620000000000000000000000000000000000000000000000000000000081526004016120139190612594565b60405180910390fd5b80600160008573ffffffffffffffffffffffffffffffffffffffff1673ffffffffffffffffffffffffffffffffffffffff16815260200190815260200160002060008473ffffffffffffffffffffffffffffffffffffffff1673ffffffffffffffffffffffffffffffffffffffff168152602001908152602001600020819055508173ffffffffffffffffffffffffffffffffffffffff168373ffffffffffffffffffffffffffffffffffffffff167f8c5be1e5ebec7d5bd14f71427d1e84f3dd0314c0f7b2291e5b200ac8c7c3b925836040516120fa91906124cb565b60405180910390a3505050565b6000612113848461185b565b90507fffffffffffffffffffffffffffffffffffffffffffffffffffffffffffffffff81146121935781811015612185578281836040517ffb8f41b200000000000000000000000000000000000000000000000000000000815260040161217c939291906132b1565b60405180910390fd5b6121928484848403611f38565b5b50505050565b600073ffffffffffffffffffffffffffffffffffffffff168373ffffffffffffffffffffffffffffffffffffffff160361220b5760006040517f96c6fd1e0000000000000000000000000000000000000000000000000000000081526004016122029190612594565b60405180910390fd5b600073ffffffffffffffffffffffffffffffffffffffff168273ffffffffffffffffffffffffffffffffffffffff160361227d5760006040517fec442f050000000000000000000000000000000000000000000000000000000081526004016122749190612594565b60405180910390fd5b61228883838361228d565b505050565b600073ffffffffffffffffffffffffffffffffffffffff168373ffffffffffffffffffffffffffffffffffffffff16036122df5780600260008282546122d39190613139565b925050819055506123b2565b60008060008573ffffffffffffffffffffffffffffffffffffffff1673ffffffffffffffffffffffffffffffffffffffff1681526020019081526020016000205490508181101561236b578381836040517fe450d38c000000000000000000000000000000000000000000000000000000008152600401612362939291906132b1565b60405180910390fd5b8181036000808673ffffffffffffffffffffffffffffffffffffffff1673ffffffffffffffffffffffffffffffffffffffff16815260200190815260200160002081905550505b600073ffffffffffffffffffffffffffffffffffffffff168273ffffffffffffffffffffffffffffffffffffffff16036123fb5780600260008282540392505081905550612448565b806000808473ffffffffffffffffffffffffffffffffffffffff1673ffffffffffffffffffffffffffffffffffffffff168152602001908152602001600020600082825401925050819055505b8173ffffffffffffffffffffffffffffffffffffffff168373ffffffffffffffffffffffffffffffffffffffff167fddf252ad1be2c89b69c2b068fc378daa952ba7f163c4a11628f55a4df523b3ef836040516124a591906124cb565b60405180910390a3505050565b6000819050919050565b6124c5816124b2565b82525050565b60006020820190506124e060008301846124bc565b92915050565b6000604051905090565b600080fd5b600080fd5b612503816124b2565b811461250e57600080fd5b50565b600081359050612520816124fa565b92915050565b60006020828403121561253c5761253b6124f0565b5b600061254a84828501612511565b91505092915050565b600073ffffffffffffffffffffffffffffffffffffffff82169050919050565b600061257e82612553565b9050919050565b61258e81612573565b82525050565b60006020820190506125a96000830184612585565b92915050565b600081519050919050565b600082825260208201905092915050565b60005b838110156125e95780820151818401526020810190506125ce565b60008484015250505050565b6000601f19601f8301169050919050565b6000612611826125af565b61261b81856125ba565b935061262b8185602086016125cb565b612634816125f5565b840191505092915050565b600060208201905081810360008301526126598184612606565b905092915050565b61266a81612573565b811461267557600080fd5b50565b60008135905061268781612661565b92915050565b600080604083850312156126a4576126a36124f0565b5b60006126b285828601612678565b92505060206126c385828601612511565b9150509250929050565b60008115159050919050565b6126e2816126cd565b82525050565b60006020820190506126fd60008301846126d9565b92915050565b600081519050919050565b600082825260208201905092915050565b600061272a82612703565b612734818561270e565b93506127448185602086016125cb565b61274d816125f5565b840191505092915050565b600060c08201905061276d6000830189612585565b61277a60208301886124bc565b818103604083015261278c818761271f565b905061279b60608301866126d9565b6127a860808301856124bc565b6127b560a08301846124bc565b979650505050505050565b6000806000606084860312156127d9576127d86124f0565b5b60006127e786828701612678565b93505060206127f886828701612678565b925050604061280986828701612511565b9150509250925092565b6000806040838503121561282a576128296124f0565b5b600061283885828601612511565b925050602061284985828601612511565b9150509250929050565b600060ff82169050919050565b61286981612853565b82525050565b60006020820190506128846000830184612860565b92915050565b6000602082840312156128a05761289f6124f0565b5b60006128ae84828501612678565b91505092915050565b600080604083850312156128ce576128cd6124f0565b5b60006128dc85828601612511565b92505060206128ed85828601612678565b9150509250929050565b600081519050919050565b600082825260208201905092915050565b6000819050602082019050919050565b61292c81612573565b82525050565b61293b816124b2565b82525050565b600082825260208201905092915050565b600061295d82612703565b6129678185612941565b93506129778185602086016125cb565b612980816125f5565b840191505092915050565b612994816126cd565b82525050565b7f4e487b7100000000000000000000000000000000000000000000000000000000600052602160045260246000fd5b600481106129da576129d961299a565b5b50565b60008190506129eb826129c9565b919050565b60006129fb826129dd565b9050919050565b612a0b816129f0565b82525050565b600061012083016000830151612a2a6000860182612923565b506020830151612a3d6020860182612932565b5060408301518482036040860152612a558282612952565b9150506060830151612a6a606086018261298b565b506080830151612a7d6080860182612932565b5060a0830151612a9060a0860182612932565b5060c0830151612aa360c0860182612932565b5060e0830151612ab660e0860182612a02565b50610100830151612acb610100860182612932565b508091505092915050565b6000612ae28383612a11565b905092915050565b6000602082019050919050565b6000612b02826128f7565b612b0c8185612902565b935083602082028501612b1e85612913565b8060005b85811015612b5a5784840389528151612b3b8582612ad6565b9450612b4683612aea565b925060208a01995050600181019050612b22565b50829750879550505050505092915050565b60006020820190508181036000830152612b868184612af7565b905092915050565b600060a0820190508181036000830152612ba88188612606565b9050612bb760208301876124bc565b612bc460408301866124bc565b612bd16060830185612585565b612bde60808301846124bc565b9695505050505050565b612bf1816129f0565b82525050565b600061012082019050612c0d600083018c612585565b612c1a602083018b6124bc565b8181036040830152612c2c818a61271f565b9050612c3b60608301896126d9565b612c4860808301886124bc565b612c5560a08301876124bc565b612c6260c08301866124bc565b612c6f60e0830185612be8565b612c7d6101008301846124bc565b9a9950505050505050505050565b600080fd5b600080fd5b7f4e487b7100000000000000000000000000000000000000000000000000000000600052604160045260246000fd5b612ccd826125f5565b810181811067ffffffffffffffff82111715612cec57612ceb612c95565b5b80604052505050565b6000612cff6124e6565b9050612d0b8282612cc4565b919050565b600067ffffffffffffffff821115612d2b57612d2a612c95565b5b612d34826125f5565b9050602081019050919050565b82818337600083830152505050565b6000612d63612d5e84612d10565b612cf5565b905082815260208101848484011115612d7f57612d7e612c90565b5b612d8a848285612d41565b509392505050565b600082601f830112612da757612da6612c8b565b5b8135612db7848260208601612d50565b91505092915050565b612dc9816126cd565b8114612dd457600080fd5b50565b600081359050612de681612dc0565b92915050565b60048110612df957600080fd5b50565b600081359050612e0b81612dec565b92915050565b60008060008060008060008060006101208a8c031215612e3457612e336124f0565b5b6000612e428c828d01612678565b9950506020612e538c828d01612511565b98505060408a013567ffffffffffffffff811115612e7457612e736124f5565b5b612e808c828d01612d92565b9750506060612e918c828d01612dd7565b9650506080612ea28c828d01612511565b95505060a0612eb38c828d01612511565b94505060c0612ec48c828d01612511565b93505060e0612ed58c828d01612dfc565b925050610100612ee78c828d01612511565b9150509295985092959850929598565b60008060408385031215612f0e57612f0d6124f0565b5b6000612f1c85828601612678565b9250506020612f2d85828601612678565b9150509250929050565b60008060008060808587031215612f5157612f506124f0565b5b6000612f5f87828801612678565b9450506020612f7087828801612511565b9350506040612f8187828801612678565b9250506060612f9287828801612511565b91505092959194509250565b60008060008060008060c08789031215612fbb57612fba6124f0565b5b6000612fc989828a01612678565b9650506020612fda89828a01612511565b955050604087013567ffffffffffffffff811115612ffb57612ffa6124f5565b5b61300789828a01612d92565b945050606061301889828a01612511565b935050608061302989828a01612511565b92505060a061303a89828a01612511565b9150509295509295509295565b7f4e487b7100000000000000000000000000000000000000000000000000000000600052602260045260246000fd5b6000600282049050600182168061308e57607f821691505b6020821081036130a1576130a0613047565b5b50919050565b7f4e487b7100000000000000000000000000000000000000000000000000000000600052603260045260246000fd5b7f4e487b7100000000000000000000000000000000000000000000000000000000600052601160045260246000fd5b6000613110826124b2565b915061311b836124b2565b9250828203905081811115613133576131326130d6565b5b92915050565b6000613144826124b2565b915061314f836124b2565b9250828201905080821115613167576131666130d6565b5b92915050565b600081905092915050565b7f73656e7400000000000000000000000000000000000000000000000000000000600082015250565b60006131ae60048361316d565b91506131b982613178565b600482019050919050565b60006131cf826131a1565b9150819050919050565b7f4661696c656420746f20636f6d706c6574650000000000000000000000000000600082015250565b600061320f6012836125ba565b915061321a826131d9565b602082019050919050565b6000602082019050818103600083015261323e81613202565b9050919050565b7f496e73756666696369656e7420696e76656e746f727900000000000000000000600082015250565b600061327b6016836125ba565b915061328682613245565b602082019050919050565b600060208201905081810360008301526132aa8161326e565b9050919050565b60006060820190506132c66000830186612585565b6132d360208301856124bc565b6132e060408301846124bc565b949350505050565b60008190508160005260206000209050919050565b60006020601f8301049050919050565b600082821b905092915050565b60006008830261334a7fffffffffffffffffffffffffffffffffffffffffffffffffffffffffffffffff8261330d565b613354868361330d565b95508019841693508086168417925050509392505050565b6000819050919050565b600061339161338c613387846124b2565b61336c565b6124b2565b9050919050565b6000819050919050565b6133ab83613376565b6133bf6133b782613398565b84845461331a565b825550505050565b600090565b6133d46133c7565b6133df8184846133a2565b505050565b5b81811015613403576133f86000826133cc565b6001810190506133e5565b5050565b601f82111561344857613419816132e8565b613422846132fd565b81016020851015613431578190505b61344561343d856132fd565b8301826133e4565b50505b505050565b600082821c905092915050565b600061346b6000198460080261344d565b1980831691505092915050565b6000613484838361345a565b9150826002028217905092915050565b61349d82612703565b67ffffffffffffffff8111156134b6576134b5612c95565b5b6134c08254613076565b6134cb828285613407565b600060209050601f8311600181146134fe57600084156134ec578287015190505b6134f68582613478565b86555061355e565b601f19841661350c866132e8565b60005b828110156135345784890151825560018201915060208501945060208101905061350f565b86831015613551578489015161354d601f89168261345a565b8355505b6001600288020188555050505b505050505050565b7f596f757220696e76656e746f727920697320696e73756666696369656e740000600082015250565b600061359c601e836125ba565b91506135a782613566565b602082019050919050565b600060208201905081810360008301526135cb8161358f565b905091905056fea264697066735822122038a0f78392a8606e0e7b6e6908034d9bf764dbbbb9975d1b308fb51f770fda3064736f6c63430008130033",
					"opcodes": "PUSH1 0x80 PUSH1 0x40 MSTORE CALLVALUE DUP1 ISZERO PUSH3 0x11 JUMPI PUSH1 0x0 DUP1 REVERT JUMPDEST POP PUSH1 0x40 MLOAD PUSH3 0x3F87 CODESIZE SUB DUP1 PUSH3 0x3F87 DUP4 CODECOPY DUP2 DUP2 ADD PUSH1 0x40 MSTORE DUP2 ADD SWAP1 PUSH3 0x37 SWAP2 SWAP1 PUSH3 0x536 JUMP JUMPDEST PUSH1 0x40 MLOAD DUP1 PUSH1 0x40 ADD PUSH1 0x40 MSTORE DUP1 PUSH1 0x4 DUP2 MSTORE PUSH1 0x20 ADD PUSH32 0x6E616D6500000000000000000000000000000000000000000000000000000000 DUP2 MSTORE POP PUSH1 0x40 MLOAD DUP1 PUSH1 0x40 ADD PUSH1 0x40 MSTORE DUP1 PUSH1 0x6 DUP2 MSTORE PUSH1 0x20 ADD PUSH32 0x73796D626F6C0000000000000000000000000000000000000000000000000000 DUP2 MSTORE POP DUP2 PUSH1 0x3 SWAP1 DUP2 PUSH3 0xB4 SWAP2 SWAP1 PUSH3 0x7DD JUMP JUMPDEST POP DUP1 PUSH1 0x4 SWAP1 DUP2 PUSH3 0xC6 SWAP2 SWAP1 PUSH3 0x7DD JUMP JUMPDEST POP POP POP PUSH1 0x0 DUP3 MLOAD GT PUSH3 0xD8 JUMPI PUSH1 0x0 DUP1 REVERT JUMPDEST DUP2 MLOAD DUP2 GT ISZERO DUP1 ISZERO PUSH3 0xEA JUMPI POP PUSH1 0x0 DUP2 GT JUMPDEST PUSH3 0xF4 JUMPI PUSH1 0x0 DUP1 REVERT JUMPDEST PUSH1 0x40 MLOAD DUP1 PUSH1 0x20 ADD PUSH1 0x40 MSTORE DUP1 CALLER PUSH20 0xFFFFFFFFFFFFFFFFFFFFFFFFFFFFFFFFFFFFFFFF AND PUSH20 0xFFFFFFFFFFFFFFFFFFFFFFFFFFFFFFFFFFFFFFFF AND DUP2 MSTORE POP PUSH1 0xA SWAP1 PUSH1 0x1 PUSH3 0x141 SWAP3 SWAP2 SWAP1 PUSH3 0x25F JUMP JUMPDEST POP PUSH1 0x0 JUMPDEST DUP3 MLOAD DUP2 LT ISZERO PUSH3 0x24F JUMPI PUSH1 0x5 PUSH1 0x0 DUP5 DUP4 DUP2 MLOAD DUP2 LT PUSH3 0x169 JUMPI PUSH3 0x168 PUSH3 0x8C4 JUMP JUMPDEST JUMPDEST PUSH1 0x20 MUL PUSH1 0x20 ADD ADD MLOAD PUSH20 0xFFFFFFFFFFFFFFFFFFFFFFFFFFFFFFFFFFFFFFFF AND PUSH20 0xFFFFFFFFFFFFFFFFFFFFFFFFFFFFFFFFFFFFFFFF AND DUP2 MSTORE PUSH1 0x20 ADD SWAP1 DUP2 MSTORE PUSH1 0x20 ADD PUSH1 0x0 KECCAK256 PUSH1 0x0 SWAP1 SLOAD SWAP1 PUSH2 0x100 EXP SWAP1 DIV PUSH1 0xFF AND ISZERO PUSH3 0x1C4 JUMPI PUSH1 0x0 DUP1 REVERT JUMPDEST PUSH1 0x1 PUSH1 0x5 PUSH1 0x0 DUP6 DUP5 DUP2 MLOAD DUP2 LT PUSH3 0x1E0 JUMPI PUSH3 0x1DF PUSH3 0x8C4 JUMP JUMPDEST JUMPDEST PUSH1 0x20 MUL PUSH1 0x20 ADD ADD MLOAD PUSH20 0xFFFFFFFFFFFFFFFFFFFFFFFFFFFFFFFFFFFFFFFF AND PUSH20 0xFFFFFFFFFFFFFFFFFFFFFFFFFFFFFFFFFFFFFFFF AND DUP2 MSTORE PUSH1 0x20 ADD SWAP1 DUP2 MSTORE PUSH1 0x20 ADD PUSH1 0x0 KECCAK256 PUSH1 0x0 PUSH2 0x100 EXP DUP2 SLOAD DUP2 PUSH1 0xFF MUL NOT AND SWAP1 DUP4 ISZERO ISZERO MUL OR SWAP1 SSTORE POP DUP1 DUP1 PUSH3 0x246 SWAP1 PUSH3 0x922 JUMP JUMPDEST SWAP2 POP POP PUSH3 0x145 JUMP JUMPDEST POP DUP1 PUSH1 0xD DUP2 SWAP1 SSTORE POP POP POP PUSH3 0x96F JUMP JUMPDEST DUP3 DUP1 SLOAD DUP3 DUP3 SSTORE SWAP1 PUSH1 0x0 MSTORE PUSH1 0x20 PUSH1 0x0 KECCAK256 SWAP1 DUP2 ADD SWAP3 DUP3 ISZERO PUSH3 0x2DB JUMPI SWAP2 PUSH1 0x20 MUL DUP3 ADD JUMPDEST DUP3 DUP2 GT ISZERO PUSH3 0x2DA JUMPI DUP3 MLOAD DUP3 PUSH1 0x0 PUSH2 0x100 EXP DUP2 SLOAD DUP2 PUSH20 0xFFFFFFFFFFFFFFFFFFFFFFFFFFFFFFFFFFFFFFFF MUL NOT AND SWAP1 DUP4 PUSH20 0xFFFFFFFFFFFFFFFFFFFFFFFFFFFFFFFFFFFFFFFF AND MUL OR SWAP1 SSTORE POP SWAP2 PUSH1 0x20 ADD SWAP2 SWAP1 PUSH1 0x1 ADD SWAP1 PUSH3 0x280 JUMP JUMPDEST JUMPDEST POP SWAP1 POP PUSH3 0x2EA SWAP2 SWAP1 PUSH3 0x2EE JUMP JUMPDEST POP SWAP1 JUMP JUMPDEST JUMPDEST DUP1 DUP3 GT ISZERO PUSH3 0x309 JUMPI PUSH1 0x0 DUP2 PUSH1 0x0 SWAP1 SSTORE POP PUSH1 0x1 ADD PUSH3 0x2EF JUMP JUMPDEST POP SWAP1 JUMP JUMPDEST PUSH1 0x0 PUSH1 0x40 MLOAD SWAP1 POP SWAP1 JUMP JUMPDEST PUSH1 0x0 DUP1 REVERT JUMPDEST PUSH1 0x0 DUP1 REVERT JUMPDEST PUSH1 0x0 DUP1 REVERT JUMPDEST PUSH1 0x0 PUSH1 0x1F NOT PUSH1 0x1F DUP4 ADD AND SWAP1 POP SWAP2 SWAP1 POP JUMP JUMPDEST PUSH32 0x4E487B7100000000000000000000000000000000000000000000000000000000 PUSH1 0x0 MSTORE PUSH1 0x41 PUSH1 0x4 MSTORE PUSH1 0x24 PUSH1 0x0 REVERT JUMPDEST PUSH3 0x371 DUP3 PUSH3 0x326 JUMP JUMPDEST DUP2 ADD DUP2 DUP2 LT PUSH8 0xFFFFFFFFFFFFFFFF DUP3 GT OR ISZERO PUSH3 0x393 JUMPI PUSH3 0x392 PUSH3 0x337 JUMP JUMPDEST JUMPDEST DUP1 PUSH1 0x40 MSTORE POP POP POP JUMP JUMPDEST PUSH1 0x0 PUSH3 0x3A8 PUSH3 0x30D JUMP JUMPDEST SWAP1 POP PUSH3 0x3B6 DUP3 DUP3 PUSH3 0x366 JUMP JUMPDEST SWAP2 SWAP1 POP JUMP JUMPDEST PUSH1 0x0 PUSH8 0xFFFFFFFFFFFFFFFF DUP3 GT ISZERO PUSH3 0x3D9 JUMPI PUSH3 0x3D8 PUSH3 0x337 JUMP JUMPDEST JUMPDEST PUSH1 0x20 DUP3 MUL SWAP1 POP PUSH1 0x20 DUP2 ADD SWAP1 POP SWAP2 SWAP1 POP JUMP JUMPDEST PUSH1 0x0 DUP1 REVERT JUMPDEST PUSH1 0x0 PUSH20 0xFFFFFFFFFFFFFFFFFFFFFFFFFFFFFFFFFFFFFFFF DUP3 AND SWAP1 POP SWAP2 SWAP1 POP JUMP JUMPDEST PUSH1 0x0 PUSH3 0x41C DUP3 PUSH3 0x3EF JUMP JUMPDEST SWAP1 POP SWAP2 SWAP1 POP JUMP JUMPDEST PUSH3 0x42E DUP2 PUSH3 0x40F JUMP JUMPDEST DUP2 EQ PUSH3 0x43A JUMPI PUSH1 0x0 DUP1 REVERT JUMPDEST POP JUMP JUMPDEST PUSH1 0x0 DUP2 MLOAD SWAP1 POP PUSH3 0x44E DUP2 PUSH3 0x423 JUMP JUMPDEST SWAP3 SWAP2 POP POP JUMP JUMPDEST PUSH1 0x0 PUSH3 0x46B PUSH3 0x465 DUP5 PUSH3 0x3BB JUMP JUMPDEST PUSH3 0x39C JUMP JUMPDEST SWAP1 POP DUP1 DUP4 DUP3 MSTORE PUSH1 0x20 DUP3 ADD SWAP1 POP PUSH1 0x20 DUP5 MUL DUP4 ADD DUP6 DUP2 GT ISZERO PUSH3 0x491 JUMPI PUSH3 0x490 PUSH3 0x3EA JUMP JUMPDEST JUMPDEST DUP4 JUMPDEST DUP2 DUP2 LT ISZERO PUSH3 0x4BE JUMPI DUP1 PUSH3 0x4A9 DUP9 DUP3 PUSH3 0x43D JUMP JUMPDEST DUP5 MSTORE PUSH1 0x20 DUP5 ADD SWAP4 POP POP PUSH1 0x20 DUP2 ADD SWAP1 POP PUSH3 0x493 JUMP JUMPDEST POP POP POP SWAP4 SWAP3 POP POP POP JUMP JUMPDEST PUSH1 0x0 DUP3 PUSH1 0x1F DUP4 ADD SLT PUSH3 0x4E0 JUMPI PUSH3 0x4DF PUSH3 0x321 JUMP JUMPDEST JUMPDEST DUP2 MLOAD PUSH3 0x4F2 DUP5 DUP3 PUSH1 0x20 DUP7 ADD PUSH3 0x454 JUMP JUMPDEST SWAP2 POP POP SWAP3 SWAP2 POP POP JUMP JUMPDEST PUSH1 0x0 DUP2 SWAP1 POP SWAP2 SWAP1 POP JUMP JUMPDEST PUSH3 0x510 DUP2 PUSH3 0x4FB JUMP JUMPDEST DUP2 EQ PUSH3 0x51C JUMPI PUSH1 0x0 DUP1 REVERT JUMPDEST POP JUMP JUMPDEST PUSH1 0x0 DUP2 MLOAD SWAP1 POP PUSH3 0x530 DUP2 PUSH3 0x505 JUMP JUMPDEST SWAP3 SWAP2 POP POP JUMP JUMPDEST PUSH1 0x0 DUP1 PUSH1 0x40 DUP4 DUP6 SUB SLT ISZERO PUSH3 0x550 JUMPI PUSH3 0x54F PUSH3 0x317 JUMP JUMPDEST JUMPDEST PUSH1 0x0 DUP4 ADD MLOAD PUSH8 0xFFFFFFFFFFFFFFFF DUP2 GT ISZERO PUSH3 0x571 JUMPI PUSH3 0x570 PUSH3 0x31C JUMP JUMPDEST JUMPDEST PUSH3 0x57F DUP6 DUP3 DUP7 ADD PUSH3 0x4C8 JUMP JUMPDEST SWAP3 POP POP PUSH1 0x20 PUSH3 0x592 DUP6 DUP3 DUP7 ADD PUSH3 0x51F JUMP JUMPDEST SWAP2 POP POP SWAP3 POP SWAP3 SWAP1 POP JUMP JUMPDEST PUSH1 0x0 DUP2 MLOAD SWAP1 POP SWAP2 SWAP1 POP JUMP JUMPDEST PUSH32 0x4E487B7100000000000000000000000000000000000000000000000000000000 PUSH1 0x0 MSTORE PUSH1 0x22 PUSH1 0x4 MSTORE PUSH1 0x24 PUSH1 0x0 REVERT JUMPDEST PUSH1 0x0 PUSH1 0x2 DUP3 DIV SWAP1 POP PUSH1 0x1 DUP3 AND DUP1 PUSH3 0x5EF JUMPI PUSH1 0x7F DUP3 AND SWAP2 POP JUMPDEST PUSH1 0x20 DUP3 LT DUP2 SUB PUSH3 0x605 JUMPI PUSH3 0x604 PUSH3 0x5A7 JUMP JUMPDEST JUMPDEST POP SWAP2 SWAP1 POP JUMP JUMPDEST PUSH1 0x0 DUP2 SWAP1 POP DUP2 PUSH1 0x0 MSTORE PUSH1 0x20 PUSH1 0x0 KECCAK256 SWAP1 POP SWAP2 SWAP1 POP JUMP JUMPDEST PUSH1 0x0 PUSH1 0x20 PUSH1 0x1F DUP4 ADD DIV SWAP1 POP SWAP2 SWAP1 POP JUMP JUMPDEST PUSH1 0x0 DUP3 DUP3 SHL SWAP1 POP SWAP3 SWAP2 POP POP JUMP JUMPDEST PUSH1 0x0 PUSH1 0x8 DUP4 MUL PUSH3 0x66F PUSH32 0xFFFFFFFFFFFFFFFFFFFFFFFFFFFFFFFFFFFFFFFFFFFFFFFFFFFFFFFFFFFFFFFF DUP3 PUSH3 0x630 JUMP JUMPDEST PUSH3 0x67B DUP7 DUP4 PUSH3 0x630 JUMP JUMPDEST SWAP6 POP DUP1 NOT DUP5 AND SWAP4 POP DUP1 DUP7 AND DUP5 OR SWAP3 POP POP POP SWAP4 SWAP3 POP POP POP JUMP JUMPDEST PUSH1 0x0 DUP2 SWAP1 POP SWAP2 SWAP1 POP JUMP JUMPDEST PUSH1 0x0 PUSH3 0x6BE PUSH3 0x6B8 PUSH3 0x6B2 DUP5 PUSH3 0x4FB JUMP JUMPDEST PUSH3 0x693 JUMP JUMPDEST PUSH3 0x4FB JUMP JUMPDEST SWAP1 POP SWAP2 SWAP1 POP JUMP JUMPDEST PUSH1 0x0 DUP2 SWAP1 POP SWAP2 SWAP1 POP JUMP JUMPDEST PUSH3 0x6DA DUP4 PUSH3 0x69D JUMP JUMPDEST PUSH3 0x6F2 PUSH3 0x6E9 DUP3 PUSH3 0x6C5 JUMP JUMPDEST DUP5 DUP5 SLOAD PUSH3 0x63D JUMP JUMPDEST DUP3 SSTORE POP POP POP POP JUMP JUMPDEST PUSH1 0x0 SWAP1 JUMP JUMPDEST PUSH3 0x709 PUSH3 0x6FA JUMP JUMPDEST PUSH3 0x716 DUP2 DUP5 DUP5 PUSH3 0x6CF JUMP JUMPDEST POP POP POP JUMP JUMPDEST JUMPDEST DUP2 DUP2 LT ISZERO PUSH3 0x73E JUMPI PUSH3 0x732 PUSH1 0x0 DUP3 PUSH3 0x6FF JUMP JUMPDEST PUSH1 0x1 DUP2 ADD SWAP1 POP PUSH3 0x71C JUMP JUMPDEST POP POP JUMP JUMPDEST PUSH1 0x1F DUP3 GT ISZERO PUSH3 0x78D JUMPI PUSH3 0x757 DUP2 PUSH3 0x60B JUMP JUMPDEST PUSH3 0x762 DUP5 PUSH3 0x620 JUMP JUMPDEST DUP2 ADD PUSH1 0x20 DUP6 LT ISZERO PUSH3 0x772 JUMPI DUP2 SWAP1 POP JUMPDEST PUSH3 0x78A PUSH3 0x781 DUP6 PUSH3 0x620 JUMP JUMPDEST DUP4 ADD DUP3 PUSH3 0x71B JUMP JUMPDEST POP POP JUMPDEST POP POP POP JUMP JUMPDEST PUSH1 0x0 DUP3 DUP3 SHR SWAP1 POP SWAP3 SWAP2 POP POP JUMP JUMPDEST PUSH1 0x0 PUSH3 0x7B2 PUSH1 0x0 NOT DUP5 PUSH1 0x8 MUL PUSH3 0x792 JUMP JUMPDEST NOT DUP1 DUP4 AND SWAP2 POP POP SWAP3 SWAP2 POP POP JUMP JUMPDEST PUSH1 0x0 PUSH3 0x7CD DUP4 DUP4 PUSH3 0x79F JUMP JUMPDEST SWAP2 POP DUP3 PUSH1 0x2 MUL DUP3 OR SWAP1 POP SWAP3 SWAP2 POP POP JUMP JUMPDEST PUSH3 0x7E8 DUP3 PUSH3 0x59C JUMP JUMPDEST PUSH8 0xFFFFFFFFFFFFFFFF DUP2 GT ISZERO PUSH3 0x804 JUMPI PUSH3 0x803 PUSH3 0x337 JUMP JUMPDEST JUMPDEST PUSH3 0x810 DUP3 SLOAD PUSH3 0x5D6 JUMP JUMPDEST PUSH3 0x81D DUP3 DUP3 DUP6 PUSH3 0x742 JUMP JUMPDEST PUSH1 0x0 PUSH1 0x20 SWAP1 POP PUSH1 0x1F DUP4 GT PUSH1 0x1 DUP2 EQ PUSH3 0x855 JUMPI PUSH1 0x0 DUP5 ISZERO PUSH3 0x840 JUMPI DUP3 DUP8 ADD MLOAD SWAP1 POP JUMPDEST PUSH3 0x84C DUP6 DUP3 PUSH3 0x7BF JUMP JUMPDEST DUP7 SSTORE POP PUSH3 0x8BC JUMP JUMPDEST PUSH1 0x1F NOT DUP5 AND PUSH3 0x865 DUP7 PUSH3 0x60B JUMP JUMPDEST PUSH1 0x0 JUMPDEST DUP3 DUP2 LT ISZERO PUSH3 0x88F JUMPI DUP5 DUP10 ADD MLOAD DUP3 SSTORE PUSH1 0x1 DUP3 ADD SWAP2 POP PUSH1 0x20 DUP6 ADD SWAP5 POP PUSH1 0x20 DUP2 ADD SWAP1 POP PUSH3 0x868 JUMP JUMPDEST DUP7 DUP4 LT ISZERO PUSH3 0x8AF JUMPI DUP5 DUP10 ADD MLOAD PUSH3 0x8AB PUSH1 0x1F DUP10 AND DUP3 PUSH3 0x79F JUMP JUMPDEST DUP4 SSTORE POP JUMPDEST PUSH1 0x1 PUSH1 0x2 DUP9 MUL ADD DUP9 SSTORE POP POP POP JUMPDEST POP POP POP POP POP POP JUMP JUMPDEST PUSH32 0x4E487B7100000000000000000000000000000000000000000000000000000000 PUSH1 0x0 MSTORE PUSH1 0x32 PUSH1 0x4 MSTORE PUSH1 0x24 PUSH1 0x0 REVERT JUMPDEST PUSH32 0x4E487B7100000000000000000000000000000000000000000000000000000000 PUSH1 0x0 MSTORE PUSH1 0x11 PUSH1 0x4 MSTORE PUSH1 0x24 PUSH1 0x0 REVERT JUMPDEST PUSH1 0x0 PUSH3 0x92F DUP3 PUSH3 0x4FB JUMP JUMPDEST SWAP2 POP PUSH32 0xFFFFFFFFFFFFFFFFFFFFFFFFFFFFFFFFFFFFFFFFFFFFFFFFFFFFFFFFFFFFFFFF DUP3 SUB PUSH3 0x964 JUMPI PUSH3 0x963 PUSH3 0x8F3 JUMP JUMPDEST JUMPDEST PUSH1 0x1 DUP3 ADD SWAP1 POP SWAP2 SWAP1 POP JUMP JUMPDEST PUSH2 0x3608 DUP1 PUSH3 0x97F PUSH1 0x0 CODECOPY PUSH1 0x0 RETURN INVALID PUSH1 0x80 PUSH1 0x40 MSTORE PUSH1 0x4 CALLDATASIZE LT PUSH2 0x1BB JUMPI PUSH1 0x0 CALLDATALOAD PUSH1 0xE0 SHR DUP1 PUSH4 0x8F14F715 GT PUSH2 0xEC JUMPI DUP1 PUSH4 0xB5685F6C GT PUSH2 0x8A JUMPI DUP1 PUSH4 0xDD62ED3E GT PUSH2 0x64 JUMPI DUP1 PUSH4 0xDD62ED3E EQ PUSH2 0x725 JUMPI DUP1 PUSH4 0xEE3ABA3B EQ PUSH2 0x762 JUMPI DUP1 PUSH4 0xEE51BA59 EQ PUSH2 0x79F JUMPI DUP1 PUSH4 0xF1F00ACC EQ PUSH2 0x7CF JUMPI PUSH2 0x210 JUMP JUMPDEST DUP1 PUSH4 0xB5685F6C EQ PUSH2 0x6A1 JUMPI DUP1 PUSH4 0xBA88C967 EQ PUSH2 0x6CA JUMPI DUP1 PUSH4 0xBB68796B EQ PUSH2 0x6F5 JUMPI PUSH2 0x210 JUMP JUMPDEST DUP1 PUSH4 0x9ACE38C2 GT PUSH2 0xC6 JUMPI DUP1 PUSH4 0x9ACE38C2 EQ PUSH2 0x5A5 JUMPI DUP1 PUSH4 0xA457C2D7 EQ PUSH2 0x5EA JUMPI DUP1 PUSH4 0xA80DFB5C EQ PUSH2 0x627 JUMPI DUP1 PUSH4 0xA9059CBB EQ PUSH2 0x664 JUMPI PUSH2 0x210 JUMP JUMPDEST DUP1 PUSH4 0x8F14F715 EQ PUSH2 0x50E JUMPI DUP1 PUSH4 0x95D89B41 EQ PUSH2 0x539 JUMPI DUP1 PUSH4 0x9A887F58 EQ PUSH2 0x564 JUMPI PUSH2 0x210 JUMP JUMPDEST DUP1 PUSH4 0x313CE567 GT PUSH2 0x159 JUMPI DUP1 PUSH4 0x4C31F249 GT PUSH2 0x133 JUMPI DUP1 PUSH4 0x4C31F249 EQ PUSH2 0x439 JUMPI DUP1 PUSH4 0x4C9C7AF3 EQ PUSH2 0x469 JUMPI DUP1 PUSH4 0x70A08231 EQ PUSH2 0x4A6 JUMPI DUP1 PUSH4 0x738DBFA6 EQ PUSH2 0x4E3 JUMPI PUSH2 0x210 JUMP JUMPDEST DUP1 PUSH4 0x313CE567 EQ PUSH2 0x394 JUMPI DUP1 PUSH4 0x39509351 EQ PUSH2 0x3BF JUMPI DUP1 PUSH4 0x45C9711F EQ PUSH2 0x3FC JUMPI PUSH2 0x210 JUMP JUMPDEST DUP1 PUSH4 0x18160DDD GT PUSH2 0x195 JUMPI DUP1 PUSH4 0x18160DDD EQ PUSH2 0x2BA JUMPI DUP1 PUSH4 0x228F1173 EQ PUSH2 0x2E5 JUMPI DUP1 PUSH4 0x23B872DD EQ PUSH2 0x327 JUMPI DUP1 PUSH4 0x2B29FCA1 EQ PUSH2 0x364 JUMPI PUSH2 0x210 JUMP JUMPDEST DUP1 PUSH4 0x25E7C27 EQ PUSH2 0x215 JUMPI DUP1 PUSH4 0x6FDDE03 EQ PUSH2 0x252 JUMPI DUP1 PUSH4 0x95EA7B3 EQ PUSH2 0x27D JUMPI PUSH2 0x210 JUMP JUMPDEST CALLDATASIZE PUSH2 0x210 JUMPI CALLER PUSH20 0xFFFFFFFFFFFFFFFFFFFFFFFFFFFFFFFFFFFFFFFF AND PUSH32 0x65F1DF07EEF63E0EB903B4A8275B11FDA817B71AD87ABBD791E95353AC8F86F2 CALLVALUE PUSH1 0x40 MLOAD PUSH2 0x206 SWAP2 SWAP1 PUSH2 0x24CB JUMP JUMPDEST PUSH1 0x40 MLOAD DUP1 SWAP2 SUB SWAP1 LOG2 STOP JUMPDEST PUSH1 0x0 DUP1 REVERT JUMPDEST CALLVALUE DUP1 ISZERO PUSH2 0x221 JUMPI PUSH1 0x0 DUP1 REVERT JUMPDEST POP PUSH2 0x23C PUSH1 0x4 DUP1 CALLDATASIZE SUB DUP2 ADD SWAP1 PUSH2 0x237 SWAP2 SWAP1 PUSH2 0x2526 JUMP JUMPDEST PUSH2 0x7EB JUMP JUMPDEST PUSH1 0x40 MLOAD PUSH2 0x249 SWAP2 SWAP1 PUSH2 0x2594 JUMP JUMPDEST PUSH1 0x40 MLOAD DUP1 SWAP2 SUB SWAP1 RETURN JUMPDEST CALLVALUE DUP1 ISZERO PUSH2 0x25E JUMPI PUSH1 0x0 DUP1 REVERT JUMPDEST POP PUSH2 0x267 PUSH2 0x82A JUMP JUMPDEST PUSH1 0x40 MLOAD PUSH2 0x274 SWAP2 SWAP1 PUSH2 0x263F JUMP JUMPDEST PUSH1 0x40 MLOAD DUP1 SWAP2 SUB SWAP1 RETURN JUMPDEST CALLVALUE DUP1 ISZERO PUSH2 0x289 JUMPI PUSH1 0x0 DUP1 REVERT JUMPDEST POP PUSH2 0x2A4 PUSH1 0x4 DUP1 CALLDATASIZE SUB DUP2 ADD SWAP1 PUSH2 0x29F SWAP2 SWAP1 PUSH2 0x268D JUMP JUMPDEST PUSH2 0x8BC JUMP JUMPDEST PUSH1 0x40 MLOAD PUSH2 0x2B1 SWAP2 SWAP1 PUSH2 0x26E8 JUMP JUMPDEST PUSH1 0x40 MLOAD DUP1 SWAP2 SUB SWAP1 RETURN JUMPDEST CALLVALUE DUP1 ISZERO PUSH2 0x2C6 JUMPI PUSH1 0x0 DUP1 REVERT JUMPDEST POP PUSH2 0x2CF PUSH2 0x8DF JUMP JUMPDEST PUSH1 0x40 MLOAD PUSH2 0x2DC SWAP2 SWAP1 PUSH2 0x24CB JUMP JUMPDEST PUSH1 0x40 MLOAD DUP1 SWAP2 SUB SWAP1 RETURN JUMPDEST CALLVALUE DUP1 ISZERO PUSH2 0x2F1 JUMPI PUSH1 0x0 DUP1 REVERT JUMPDEST POP PUSH2 0x30C PUSH1 0x4 DUP1 CALLDATASIZE SUB DUP2 ADD SWAP1 PUSH2 0x307 SWAP2 SWAP1 PUSH2 0x2526 JUMP JUMPDEST PUSH2 0x8E9 JUMP JUMPDEST PUSH1 0x40 MLOAD PUSH2 0x31E SWAP7 SWAP6 SWAP5 SWAP4 SWAP3 SWAP2 SWAP1 PUSH2 0x2758 JUMP JUMPDEST PUSH1 0x40 MLOAD DUP1 SWAP2 SUB SWAP1 RETURN JUMPDEST CALLVALUE DUP1 ISZERO PUSH2 0x333 JUMPI PUSH1 0x0 DUP1 REVERT JUMPDEST POP PUSH2 0x34E PUSH1 0x4 DUP1 CALLDATASIZE SUB DUP2 ADD SWAP1 PUSH2 0x349 SWAP2 SWAP1 PUSH2 0x27C0 JUMP JUMPDEST PUSH2 0xA20 JUMP JUMPDEST PUSH1 0x40 MLOAD PUSH2 0x35B SWAP2 SWAP1 PUSH2 0x26E8 JUMP JUMPDEST PUSH1 0x40 MLOAD DUP1 SWAP2 SUB SWAP1 RETURN JUMPDEST PUSH2 0x37E PUSH1 0x4 DUP1 CALLDATASIZE SUB DUP2 ADD SWAP1 PUSH2 0x379 SWAP2 SWAP1 PUSH2 0x2813 JUMP JUMPDEST PUSH2 0xA4F JUMP JUMPDEST PUSH1 0x40 MLOAD PUSH2 0x38B SWAP2 SWAP1 PUSH2 0x26E8 JUMP JUMPDEST PUSH1 0x40 MLOAD DUP1 SWAP2 SUB SWAP1 RETURN JUMPDEST CALLVALUE DUP1 ISZERO PUSH2 0x3A0 JUMPI PUSH1 0x0 DUP1 REVERT JUMPDEST POP PUSH2 0x3A9 PUSH2 0xCB5 JUMP JUMPDEST PUSH1 0x40 MLOAD PUSH2 0x3B6 SWAP2 SWAP1 PUSH2 0x286F JUMP JUMPDEST PUSH1 0x40 MLOAD DUP1 SWAP2 SUB SWAP1 RETURN JUMPDEST CALLVALUE DUP1 ISZERO PUSH2 0x3CB JUMPI PUSH1 0x0 DUP1 REVERT JUMPDEST POP PUSH2 0x3E6 PUSH1 0x4 DUP1 CALLDATASIZE SUB DUP2 ADD SWAP1 PUSH2 0x3E1 SWAP2 SWAP1 PUSH2 0x268D JUMP JUMPDEST PUSH2 0xCBE JUMP JUMPDEST PUSH1 0x40 MLOAD PUSH2 0x3F3 SWAP2 SWAP1 PUSH2 0x26E8 JUMP JUMPDEST PUSH1 0x40 MLOAD DUP1 SWAP2 SUB SWAP1 RETURN JUMPDEST CALLVALUE DUP1 ISZERO PUSH2 0x408 JUMPI PUSH1 0x0 DUP1 REVERT JUMPDEST POP PUSH2 0x423 PUSH1 0x4 DUP1 CALLDATASIZE SUB DUP2 ADD SWAP1 PUSH2 0x41E SWAP2 SWAP1 PUSH2 0x288A JUMP JUMPDEST PUSH2 0xCF5 JUMP JUMPDEST PUSH1 0x40 MLOAD PUSH2 0x430 SWAP2 SWAP1 PUSH2 0x26E8 JUMP JUMPDEST PUSH1 0x40 MLOAD DUP1 SWAP2 SUB SWAP1 RETURN JUMPDEST PUSH2 0x453 PUSH1 0x4 DUP1 CALLDATASIZE SUB DUP2 ADD SWAP1 PUSH2 0x44E SWAP2 SWAP1 PUSH2 0x2813 JUMP JUMPDEST PUSH2 0xD15 JUMP JUMPDEST PUSH1 0x40 MLOAD PUSH2 0x460 SWAP2 SWAP1 PUSH2 0x24CB JUMP JUMPDEST PUSH1 0x40 MLOAD DUP1 SWAP2 SUB SWAP1 RETURN JUMPDEST CALLVALUE DUP1 ISZERO PUSH2 0x475 JUMPI PUSH1 0x0 DUP1 REVERT JUMPDEST POP PUSH2 0x490 PUSH1 0x4 DUP1 CALLDATASIZE SUB DUP2 ADD SWAP1 PUSH2 0x48B SWAP2 SWAP1 PUSH2 0x28B7 JUMP JUMPDEST PUSH2 0xF27 JUMP JUMPDEST PUSH1 0x40 MLOAD PUSH2 0x49D SWAP2 SWAP1 PUSH2 0x26E8 JUMP JUMPDEST PUSH1 0x40 MLOAD DUP1 SWAP2 SUB SWAP1 RETURN JUMPDEST CALLVALUE DUP1 ISZERO PUSH2 0x4B2 JUMPI PUSH1 0x0 DUP1 REVERT JUMPDEST POP PUSH2 0x4CD PUSH1 0x4 DUP1 CALLDATASIZE SUB DUP2 ADD SWAP1 PUSH2 0x4C8 SWAP2 SWAP1 PUSH2 0x288A JUMP JUMPDEST PUSH2 0xF56 JUMP JUMPDEST PUSH1 0x40 MLOAD PUSH2 0x4DA SWAP2 SWAP1 PUSH2 0x24CB JUMP JUMPDEST PUSH1 0x40 MLOAD DUP1 SWAP2 SUB SWAP1 RETURN JUMPDEST CALLVALUE DUP1 ISZERO PUSH2 0x4EF JUMPI PUSH1 0x0 DUP1 REVERT JUMPDEST POP PUSH2 0x4F8 PUSH2 0xF9E JUMP JUMPDEST PUSH1 0x40 MLOAD PUSH2 0x505 SWAP2 SWAP1 PUSH2 0x24CB JUMP JUMPDEST PUSH1 0x40 MLOAD DUP1 SWAP2 SUB SWAP1 RETURN JUMPDEST CALLVALUE DUP1 ISZERO PUSH2 0x51A JUMPI PUSH1 0x0 DUP1 REVERT JUMPDEST POP PUSH2 0x523 PUSH2 0xFA4 JUMP JUMPDEST PUSH1 0x40 MLOAD PUSH2 0x530 SWAP2 SWAP1 PUSH2 0x2B6C JUMP JUMPDEST PUSH1 0x40 MLOAD DUP1 SWAP2 SUB SWAP1 RETURN JUMPDEST CALLVALUE DUP1 ISZERO PUSH2 0x545 JUMPI PUSH1 0x0 DUP1 REVERT JUMPDEST POP PUSH2 0x54E PUSH2 0x1174 JUMP JUMPDEST PUSH1 0x40 MLOAD PUSH2 0x55B SWAP2 SWAP1 PUSH2 0x263F JUMP JUMPDEST PUSH1 0x40 MLOAD DUP1 SWAP2 SUB SWAP1 RETURN JUMPDEST CALLVALUE DUP1 ISZERO PUSH2 0x570 JUMPI PUSH1 0x0 DUP1 REVERT JUMPDEST POP PUSH2 0x58B PUSH1 0x4 DUP1 CALLDATASIZE SUB DUP2 ADD SWAP1 PUSH2 0x586 SWAP2 SWAP1 PUSH2 0x2526 JUMP JUMPDEST PUSH2 0x1206 JUMP JUMPDEST PUSH1 0x40 MLOAD PUSH2 0x59C SWAP6 SWAP5 SWAP4 SWAP3 SWAP2 SWAP1 PUSH2 0x2B8E JUMP JUMPDEST PUSH1 0x40 MLOAD DUP1 SWAP2 SUB SWAP1 RETURN JUMPDEST CALLVALUE DUP1 ISZERO PUSH2 0x5B1 JUMPI PUSH1 0x0 DUP1 REVERT JUMPDEST POP PUSH2 0x5CC PUSH1 0x4 DUP1 CALLDATASIZE SUB DUP2 ADD SWAP1 PUSH2 0x5C7 SWAP2 SWAP1 PUSH2 0x2526 JUMP JUMPDEST PUSH2 0x12F4 JUMP JUMPDEST PUSH1 0x40 MLOAD PUSH2 0x5E1 SWAP10 SWAP9 SWAP8 SWAP7 SWAP6 SWAP5 SWAP4 SWAP3 SWAP2 SWAP1 PUSH2 0x2BF7 JUMP JUMPDEST PUSH1 0x40 MLOAD DUP1 SWAP2 SUB SWAP1 RETURN JUMPDEST CALLVALUE DUP1 ISZERO PUSH2 0x5F6 JUMPI PUSH1 0x0 DUP1 REVERT JUMPDEST POP PUSH2 0x611 PUSH1 0x4 DUP1 CALLDATASIZE SUB DUP2 ADD SWAP1 PUSH2 0x60C SWAP2 SWAP1 PUSH2 0x268D JUMP JUMPDEST PUSH2 0x1414 JUMP JUMPDEST PUSH1 0x40 MLOAD PUSH2 0x61E SWAP2 SWAP1 PUSH2 0x26E8 JUMP JUMPDEST PUSH1 0x40 MLOAD DUP1 SWAP2 SUB SWAP1 RETURN JUMPDEST CALLVALUE DUP1 ISZERO PUSH2 0x633 JUMPI PUSH1 0x0 DUP1 REVERT JUMPDEST POP PUSH2 0x64E PUSH1 0x4 DUP1 CALLDATASIZE SUB DUP2 ADD SWAP1 PUSH2 0x649 SWAP2 SWAP1 PUSH2 0x288A JUMP JUMPDEST PUSH2 0x1491 JUMP JUMPDEST PUSH1 0x40 MLOAD PUSH2 0x65B SWAP2 SWAP1 PUSH2 0x24CB JUMP JUMPDEST PUSH1 0x40 MLOAD DUP1 SWAP2 SUB SWAP1 RETURN JUMPDEST CALLVALUE DUP1 ISZERO PUSH2 0x670 JUMPI PUSH1 0x0 DUP1 REVERT JUMPDEST POP PUSH2 0x68B PUSH1 0x4 DUP1 CALLDATASIZE SUB DUP2 ADD SWAP1 PUSH2 0x686 SWAP2 SWAP1 PUSH2 0x268D JUMP JUMPDEST PUSH2 0x14A9 JUMP JUMPDEST PUSH1 0x40 MLOAD PUSH2 0x698 SWAP2 SWAP1 PUSH2 0x26E8 JUMP JUMPDEST PUSH1 0x40 MLOAD DUP1 SWAP2 SUB SWAP1 RETURN JUMPDEST CALLVALUE DUP1 ISZERO PUSH2 0x6AD JUMPI PUSH1 0x0 DUP1 REVERT JUMPDEST POP PUSH2 0x6C8 PUSH1 0x4 DUP1 CALLDATASIZE SUB DUP2 ADD SWAP1 PUSH2 0x6C3 SWAP2 SWAP1 PUSH2 0x2E11 JUMP JUMPDEST PUSH2 0x14CC JUMP JUMPDEST STOP JUMPDEST CALLVALUE DUP1 ISZERO PUSH2 0x6D6 JUMPI PUSH1 0x0 DUP1 REVERT JUMPDEST POP PUSH2 0x6DF PUSH2 0x164E JUMP JUMPDEST PUSH1 0x40 MLOAD PUSH2 0x6EC SWAP2 SWAP1 PUSH2 0x24CB JUMP JUMPDEST PUSH1 0x40 MLOAD DUP1 SWAP2 SUB SWAP1 RETURN JUMPDEST PUSH2 0x70F PUSH1 0x4 DUP1 CALLDATASIZE SUB DUP2 ADD SWAP1 PUSH2 0x70A SWAP2 SWAP1 PUSH2 0x2526 JUMP JUMPDEST PUSH2 0x1695 JUMP JUMPDEST PUSH1 0x40 MLOAD PUSH2 0x71C SWAP2 SWAP1 PUSH2 0x24CB JUMP JUMPDEST PUSH1 0x40 MLOAD DUP1 SWAP2 SUB SWAP1 RETURN JUMPDEST CALLVALUE DUP1 ISZERO PUSH2 0x731 JUMPI PUSH1 0x0 DUP1 REVERT JUMPDEST POP PUSH2 0x74C PUSH1 0x4 DUP1 CALLDATASIZE SUB DUP2 ADD SWAP1 PUSH2 0x747 SWAP2 SWAP1 PUSH2 0x2EF7 JUMP JUMPDEST PUSH2 0x185B JUMP JUMPDEST PUSH1 0x40 MLOAD PUSH2 0x759 SWAP2 SWAP1 PUSH2 0x24CB JUMP JUMPDEST PUSH1 0x40 MLOAD DUP1 SWAP2 SUB SWAP1 RETURN JUMPDEST CALLVALUE DUP1 ISZERO PUSH2 0x76E JUMPI PUSH1 0x0 DUP1 REVERT JUMPDEST POP PUSH2 0x789 PUSH1 0x4 DUP1 CALLDATASIZE SUB DUP2 ADD SWAP1 PUSH2 0x784 SWAP2 SWAP1 PUSH2 0x28B7 JUMP JUMPDEST PUSH2 0x18E2 JUMP JUMPDEST PUSH1 0x40 MLOAD PUSH2 0x796 SWAP2 SWAP1 PUSH2 0x26E8 JUMP JUMPDEST PUSH1 0x40 MLOAD DUP1 SWAP2 SUB SWAP1 RETURN JUMPDEST PUSH2 0x7B9 PUSH1 0x4 DUP1 CALLDATASIZE SUB DUP2 ADD SWAP1 PUSH2 0x7B4 SWAP2 SWAP1 PUSH2 0x2F37 JUMP JUMPDEST PUSH2 0x1911 JUMP JUMPDEST PUSH1 0x40 MLOAD PUSH2 0x7C6 SWAP2 SWAP1 PUSH2 0x24CB JUMP JUMPDEST PUSH1 0x40 MLOAD DUP1 SWAP2 SUB SWAP1 RETURN JUMPDEST PUSH2 0x7E9 PUSH1 0x4 DUP1 CALLDATASIZE SUB DUP2 ADD SWAP1 PUSH2 0x7E4 SWAP2 SWAP1 PUSH2 0x2F9E JUMP JUMPDEST PUSH2 0x1B9F JUMP JUMPDEST STOP JUMPDEST PUSH1 0xA DUP2 DUP2 SLOAD DUP2 LT PUSH2 0x7FB JUMPI PUSH1 0x0 DUP1 REVERT JUMPDEST SWAP1 PUSH1 0x0 MSTORE PUSH1 0x20 PUSH1 0x0 KECCAK256 ADD PUSH1 0x0 SWAP2 POP SLOAD SWAP1 PUSH2 0x100 EXP SWAP1 DIV PUSH20 0xFFFFFFFFFFFFFFFFFFFFFFFFFFFFFFFFFFFFFFFF AND DUP2 JUMP JUMPDEST PUSH1 0x60 PUSH1 0x3 DUP1 SLOAD PUSH2 0x839 SWAP1 PUSH2 0x3076 JUMP JUMPDEST DUP1 PUSH1 0x1F ADD PUSH1 0x20 DUP1 SWAP2 DIV MUL PUSH1 0x20 ADD PUSH1 0x40 MLOAD SWAP1 DUP2 ADD PUSH1 0x40 MSTORE DUP1 SWAP3 SWAP2 SWAP1 DUP2 DUP2 MSTORE PUSH1 0x20 ADD DUP3 DUP1 SLOAD PUSH2 0x865 SWAP1 PUSH2 0x3076 JUMP JUMPDEST DUP1 ISZERO PUSH2 0x8B2 JUMPI DUP1 PUSH1 0x1F LT PUSH2 0x887 JUMPI PUSH2 0x100 DUP1 DUP4 SLOAD DIV MUL DUP4 MSTORE SWAP2 PUSH1 0x20 ADD SWAP2 PUSH2 0x8B2 JUMP JUMPDEST DUP3 ADD SWAP2 SWAP1 PUSH1 0x0 MSTORE PUSH1 0x20 PUSH1 0x0 KECCAK256 SWAP1 JUMPDEST DUP2 SLOAD DUP2 MSTORE SWAP1 PUSH1 0x1 ADD SWAP1 PUSH1 0x20 ADD DUP1 DUP4 GT PUSH2 0x895 JUMPI DUP3 SWAP1 SUB PUSH1 0x1F AND DUP3 ADD SWAP2 JUMPDEST POP POP POP POP POP SWAP1 POP SWAP1 JUMP JUMPDEST PUSH1 0x0 DUP1 PUSH2 0x8C7 PUSH2 0x1F30 JUMP JUMPDEST SWAP1 POP PUSH2 0x8D4 DUP2 DUP6 DUP6 PUSH2 0x1F38 JUMP JUMPDEST PUSH1 0x1 SWAP2 POP POP SWAP3 SWAP2 POP POP JUMP JUMPDEST PUSH1 0x0 PUSH1 0x2 SLOAD SWAP1 POP SWAP1 JUMP JUMPDEST PUSH1 0x0 DUP1 PUSH1 0x60 PUSH1 0x0 DUP1 PUSH1 0x0 DUP1 PUSH1 0xB DUP9 DUP2 SLOAD DUP2 LT PUSH2 0x908 JUMPI PUSH2 0x907 PUSH2 0x30A7 JUMP JUMPDEST JUMPDEST SWAP1 PUSH1 0x0 MSTORE PUSH1 0x20 PUSH1 0x0 KECCAK256 SWAP1 PUSH1 0x9 MUL ADD SWAP1 POP PUSH1 0x2 DUP2 PUSH1 0x8 ADD SLOAD TIMESTAMP PUSH2 0x92A SWAP2 SWAP1 PUSH2 0x3105 JUMP JUMPDEST GT PUSH2 0x934 JUMPI PUSH1 0x0 DUP1 REVERT JUMPDEST DUP1 PUSH1 0x0 ADD PUSH1 0x0 SWAP1 SLOAD SWAP1 PUSH2 0x100 EXP SWAP1 DIV PUSH20 0xFFFFFFFFFFFFFFFFFFFFFFFFFFFFFFFFFFFFFFFF AND DUP2 PUSH1 0x1 ADD SLOAD DUP3 PUSH1 0x2 ADD DUP4 PUSH1 0x3 ADD PUSH1 0x0 SWAP1 SLOAD SWAP1 PUSH2 0x100 EXP SWAP1 DIV PUSH1 0xFF AND DUP5 PUSH1 0x4 ADD SLOAD DUP6 PUSH1 0x6 ADD SLOAD DUP4 DUP1 SLOAD PUSH2 0x98A SWAP1 PUSH2 0x3076 JUMP JUMPDEST DUP1 PUSH1 0x1F ADD PUSH1 0x20 DUP1 SWAP2 DIV MUL PUSH1 0x20 ADD PUSH1 0x40 MLOAD SWAP1 DUP2 ADD PUSH1 0x40 MSTORE DUP1 SWAP3 SWAP2 SWAP1 DUP2 DUP2 MSTORE PUSH1 0x20 ADD DUP3 DUP1 SLOAD PUSH2 0x9B6 SWAP1 PUSH2 0x3076 JUMP JUMPDEST DUP1 ISZERO PUSH2 0xA03 JUMPI DUP1 PUSH1 0x1F LT PUSH2 0x9D8 JUMPI PUSH2 0x100 DUP1 DUP4 SLOAD DIV MUL DUP4 MSTORE SWAP2 PUSH1 0x20 ADD SWAP2 PUSH2 0xA03 JUMP JUMPDEST DUP3 ADD SWAP2 SWAP1 PUSH1 0x0 MSTORE PUSH1 0x20 PUSH1 0x0 KECCAK256 SWAP1 JUMPDEST DUP2 SLOAD DUP2 MSTORE SWAP1 PUSH1 0x1 ADD SWAP1 PUSH1 0x20 ADD DUP1 DUP4 GT PUSH2 0x9E6 JUMPI DUP3 SWAP1 SUB PUSH1 0x1F AND DUP3 ADD SWAP2 JUMPDEST POP POP POP POP POP SWAP4 POP SWAP7 POP SWAP7 POP SWAP7 POP SWAP7 POP SWAP7 POP SWAP7 POP POP SWAP2 SWAP4 SWAP6 POP SWAP2 SWAP4 SWAP6 JUMP JUMPDEST PUSH1 0x0 DUP1 PUSH2 0xA2B PUSH2 0x1F30 JUMP JUMPDEST SWAP1 POP PUSH2 0xA38 DUP6 DUP3 DUP6 PUSH2 0x2107 JUMP JUMPDEST PUSH2 0xA43 DUP6 DUP6 DUP6 PUSH2 0x2199 JUMP JUMPDEST PUSH1 0x1 SWAP2 POP POP SWAP4 SWAP3 POP POP POP JUMP JUMPDEST PUSH1 0x0 PUSH1 0x8 PUSH1 0x0 DUP4 DUP2 MSTORE PUSH1 0x20 ADD SWAP1 DUP2 MSTORE PUSH1 0x20 ADD PUSH1 0x0 KECCAK256 PUSH1 0x0 CALLER PUSH20 0xFFFFFFFFFFFFFFFFFFFFFFFFFFFFFFFFFFFFFFFF AND PUSH20 0xFFFFFFFFFFFFFFFFFFFFFFFFFFFFFFFFFFFFFFFF AND DUP2 MSTORE PUSH1 0x20 ADD SWAP1 DUP2 MSTORE PUSH1 0x20 ADD PUSH1 0x0 KECCAK256 PUSH1 0x0 SWAP1 SLOAD SWAP1 PUSH2 0x100 EXP SWAP1 DIV PUSH1 0xFF AND PUSH2 0xAB8 JUMPI PUSH1 0x0 DUP1 REVERT JUMPDEST PUSH8 0x8AC7230489E80000 PUSH1 0x6 PUSH1 0x0 CALLER PUSH20 0xFFFFFFFFFFFFFFFFFFFFFFFFFFFFFFFFFFFFFFFF AND PUSH20 0xFFFFFFFFFFFFFFFFFFFFFFFFFFFFFFFFFFFFFFFF AND DUP2 MSTORE PUSH1 0x20 ADD SWAP1 DUP2 MSTORE PUSH1 0x20 ADD PUSH1 0x0 KECCAK256 PUSH1 0x0 DUP3 DUP3 SLOAD PUSH2 0xB0F SWAP2 SWAP1 PUSH2 0x3139 JUMP JUMPDEST SWAP3 POP POP DUP2 SWAP1 SSTORE POP CALLVALUE PUSH1 0x6 PUSH1 0x0 CALLER PUSH20 0xFFFFFFFFFFFFFFFFFFFFFFFFFFFFFFFFFFFFFFFF AND PUSH20 0xFFFFFFFFFFFFFFFFFFFFFFFFFFFFFFFFFFFFFFFF AND DUP2 MSTORE PUSH1 0x20 ADD SWAP1 DUP2 MSTORE PUSH1 0x20 ADD PUSH1 0x0 KECCAK256 PUSH1 0x0 DUP3 DUP3 SLOAD PUSH2 0xB65 SWAP2 SWAP1 PUSH2 0x3139 JUMP JUMPDEST SWAP3 POP POP DUP2 SWAP1 SSTORE POP PUSH1 0x0 PUSH1 0xB DUP4 DUP2 SLOAD DUP2 LT PUSH2 0xB82 JUMPI PUSH2 0xB81 PUSH2 0x30A7 JUMP JUMPDEST JUMPDEST SWAP1 PUSH1 0x0 MSTORE PUSH1 0x20 PUSH1 0x0 KECCAK256 SWAP1 PUSH1 0x9 MUL ADD SWAP1 POP PUSH1 0x2 DUP2 PUSH1 0x8 ADD SLOAD TIMESTAMP PUSH2 0xBA4 SWAP2 SWAP1 PUSH2 0x3105 JUMP JUMPDEST GT PUSH2 0xBAE JUMPI PUSH1 0x0 DUP1 REVERT JUMPDEST PUSH1 0x0 CALLER PUSH20 0xFFFFFFFFFFFFFFFFFFFFFFFFFFFFFFFFFFFFFFFF AND DUP6 PUSH1 0x40 MLOAD PUSH2 0xBD4 SWAP1 PUSH2 0x31C4 JUMP JUMPDEST PUSH1 0x0 PUSH1 0x40 MLOAD DUP1 DUP4 SUB DUP2 DUP6 DUP8 GAS CALL SWAP3 POP POP POP RETURNDATASIZE DUP1 PUSH1 0x0 DUP2 EQ PUSH2 0xC11 JUMPI PUSH1 0x40 MLOAD SWAP2 POP PUSH1 0x1F NOT PUSH1 0x3F RETURNDATASIZE ADD AND DUP3 ADD PUSH1 0x40 MSTORE RETURNDATASIZE DUP3 MSTORE RETURNDATASIZE PUSH1 0x0 PUSH1 0x20 DUP5 ADD RETURNDATACOPY PUSH2 0xC16 JUMP JUMPDEST PUSH1 0x60 SWAP2 POP JUMPDEST POP POP SWAP1 POP DUP1 PUSH2 0xC5A JUMPI PUSH1 0x40 MLOAD PUSH32 0x8C379A000000000000000000000000000000000000000000000000000000000 DUP2 MSTORE PUSH1 0x4 ADD PUSH2 0xC51 SWAP1 PUSH2 0x3225 JUMP JUMPDEST PUSH1 0x40 MLOAD DUP1 SWAP2 SUB SWAP1 REVERT JUMPDEST DUP4 CALLER PUSH20 0xFFFFFFFFFFFFFFFFFFFFFFFFFFFFFFFFFFFFFFFF AND PUSH32 0x24752D85A5CC733663165F014A85E53EE7233373E03CD03A8759314180A5A680 DUP8 PUSH1 0x40 MLOAD PUSH2 0xCA1 SWAP2 SWAP1 PUSH2 0x24CB JUMP JUMPDEST PUSH1 0x40 MLOAD DUP1 SWAP2 SUB SWAP1 LOG3 PUSH1 0x1 SWAP3 POP POP POP SWAP3 SWAP2 POP POP JUMP JUMPDEST PUSH1 0x0 PUSH1 0x12 SWAP1 POP SWAP1 JUMP JUMPDEST PUSH1 0x0 DUP1 PUSH2 0xCC9 PUSH2 0x1F30 JUMP JUMPDEST SWAP1 POP PUSH2 0xCEA DUP2 DUP6 DUP6 PUSH2 0xCDB DUP6 DUP10 PUSH2 0x185B JUMP JUMPDEST PUSH2 0xCE5 SWAP2 SWAP1 PUSH2 0x3139 JUMP JUMPDEST PUSH2 0x1F38 JUMP JUMPDEST PUSH1 0x1 SWAP2 POP POP SWAP3 SWAP2 POP POP JUMP JUMPDEST PUSH1 0x5 PUSH1 0x20 MSTORE DUP1 PUSH1 0x0 MSTORE PUSH1 0x40 PUSH1 0x0 KECCAK256 PUSH1 0x0 SWAP2 POP SLOAD SWAP1 PUSH2 0x100 EXP SWAP1 DIV PUSH1 0xFF AND DUP2 JUMP JUMPDEST PUSH1 0x0 PUSH1 0x6 PUSH1 0x0 CALLER PUSH20 0xFFFFFFFFFFFFFFFFFFFFFFFFFFFFFFFFFFFFFFFF AND PUSH20 0xFFFFFFFFFFFFFFFFFFFFFFFFFFFFFFFFFFFFFFFF AND DUP2 MSTORE PUSH1 0x20 ADD SWAP1 DUP2 MSTORE PUSH1 0x20 ADD PUSH1 0x0 KECCAK256 SLOAD DUP4 GT ISZERO PUSH2 0xD99 JUMPI PUSH1 0x40 MLOAD PUSH32 0x8C379A000000000000000000000000000000000000000000000000000000000 DUP2 MSTORE PUSH1 0x4 ADD PUSH2 0xD90 SWAP1 PUSH2 0x3291 JUMP JUMPDEST PUSH1 0x40 MLOAD DUP1 SWAP2 SUB SWAP1 REVERT JUMPDEST DUP3 PUSH1 0x6 PUSH1 0x0 CALLER PUSH20 0xFFFFFFFFFFFFFFFFFFFFFFFFFFFFFFFFFFFFFFFF AND PUSH20 0xFFFFFFFFFFFFFFFFFFFFFFFFFFFFFFFFFFFFFFFF AND DUP2 MSTORE PUSH1 0x20 ADD SWAP1 DUP2 MSTORE PUSH1 0x20 ADD PUSH1 0x0 KECCAK256 PUSH1 0x0 DUP3 DUP3 SLOAD PUSH2 0xDE8 SWAP2 SWAP1 PUSH2 0x3105 JUMP JUMPDEST SWAP3 POP POP DUP2 SWAP1 SSTORE POP PUSH1 0x0 CALLER PUSH20 0xFFFFFFFFFFFFFFFFFFFFFFFFFFFFFFFFFFFFFFFF AND DUP5 PUSH1 0x40 MLOAD PUSH2 0xE15 SWAP1 PUSH2 0x31C4 JUMP JUMPDEST PUSH1 0x0 PUSH1 0x40 MLOAD DUP1 DUP4 SUB DUP2 DUP6 DUP8 GAS CALL SWAP3 POP POP POP RETURNDATASIZE DUP1 PUSH1 0x0 DUP2 EQ PUSH2 0xE52 JUMPI PUSH1 0x40 MLOAD SWAP2 POP PUSH1 0x1F NOT PUSH1 0x3F RETURNDATASIZE ADD AND DUP3 ADD PUSH1 0x40 MSTORE RETURNDATASIZE DUP3 MSTORE RETURNDATASIZE PUSH1 0x0 PUSH1 0x20 DUP5 ADD RETURNDATACOPY PUSH2 0xE57 JUMP JUMPDEST PUSH1 0x60 SWAP2 POP JUMPDEST POP POP SWAP1 POP DUP1 PUSH2 0xE9B JUMPI PUSH1 0x40 MLOAD PUSH32 0x8C379A000000000000000000000000000000000000000000000000000000000 DUP2 MSTORE PUSH1 0x4 ADD PUSH2 0xE92 SWAP1 PUSH2 0x3225 JUMP JUMPDEST PUSH1 0x40 MLOAD DUP1 SWAP2 SUB SWAP1 REVERT JUMPDEST PUSH1 0x0 PUSH1 0xB DUP5 DUP2 SLOAD DUP2 LT PUSH2 0xEB1 JUMPI PUSH2 0xEB0 PUSH2 0x30A7 JUMP JUMPDEST JUMPDEST SWAP1 PUSH1 0x0 MSTORE PUSH1 0x20 PUSH1 0x0 KECCAK256 SWAP1 PUSH1 0x9 MUL ADD SWAP1 POP PUSH1 0x2 DUP2 PUSH1 0x8 ADD SLOAD TIMESTAMP PUSH2 0xED3 SWAP2 SWAP1 PUSH2 0x3105 JUMP JUMPDEST GT PUSH2 0xEDD JUMPI PUSH1 0x0 DUP1 REVERT JUMPDEST PUSH1 0x6 PUSH1 0x0 CALLER PUSH20 0xFFFFFFFFFFFFFFFFFFFFFFFFFFFFFFFFFFFFFFFF AND PUSH20 0xFFFFFFFFFFFFFFFFFFFFFFFFFFFFFFFFFFFFFFFF AND DUP2 MSTORE PUSH1 0x20 ADD SWAP1 DUP2 MSTORE PUSH1 0x20 ADD PUSH1 0x0 KECCAK256 SLOAD SWAP3 POP POP POP SWAP3 SWAP2 POP POP JUMP JUMPDEST PUSH1 0x9 PUSH1 0x20 MSTORE DUP2 PUSH1 0x0 MSTORE PUSH1 0x40 PUSH1 0x0 KECCAK256 PUSH1 0x20 MSTORE DUP1 PUSH1 0x0 MSTORE PUSH1 0x40 PUSH1 0x0 KECCAK256 PUSH1 0x0 SWAP2 POP SWAP2 POP SWAP1 SLOAD SWAP1 PUSH2 0x100 EXP SWAP1 DIV PUSH1 0xFF AND DUP2 JUMP JUMPDEST PUSH1 0x0 DUP1 PUSH1 0x0 DUP4 PUSH20 0xFFFFFFFFFFFFFFFFFFFFFFFFFFFFFFFFFFFFFFFF AND PUSH20 0xFFFFFFFFFFFFFFFFFFFFFFFFFFFFFFFFFFFFFFFF AND DUP2 MSTORE PUSH1 0x20 ADD SWAP1 DUP2 MSTORE PUSH1 0x20 ADD PUSH1 0x0 KECCAK256 SLOAD SWAP1 POP SWAP2 SWAP1 POP JUMP JUMPDEST PUSH1 0xD SLOAD DUP2 JUMP JUMPDEST PUSH1 0x60 PUSH1 0xB DUP1 SLOAD DUP1 PUSH1 0x20 MUL PUSH1 0x20 ADD PUSH1 0x40 MLOAD SWAP1 DUP2 ADD PUSH1 0x40 MSTORE DUP1 SWAP3 SWAP2 SWAP1 DUP2 DUP2 MSTORE PUSH1 0x20 ADD PUSH1 0x0 SWAP1 JUMPDEST DUP3 DUP3 LT ISZERO PUSH2 0x116B JUMPI DUP4 DUP3 SWAP1 PUSH1 0x0 MSTORE PUSH1 0x20 PUSH1 0x0 KECCAK256 SWAP1 PUSH1 0x9 MUL ADD PUSH1 0x40 MLOAD DUP1 PUSH2 0x120 ADD PUSH1 0x40 MSTORE SWAP1 DUP2 PUSH1 0x0 DUP3 ADD PUSH1 0x0 SWAP1 SLOAD SWAP1 PUSH2 0x100 EXP SWAP1 DIV PUSH20 0xFFFFFFFFFFFFFFFFFFFFFFFFFFFFFFFFFFFFFFFF AND PUSH20 0xFFFFFFFFFFFFFFFFFFFFFFFFFFFFFFFFFFFFFFFF AND PUSH20 0xFFFFFFFFFFFFFFFFFFFFFFFFFFFFFFFFFFFFFFFF AND DUP2 MSTORE PUSH1 0x20 ADD PUSH1 0x1 DUP3 ADD SLOAD DUP2 MSTORE PUSH1 0x20 ADD PUSH1 0x2 DUP3 ADD DUP1 SLOAD PUSH2 0x105C SWAP1 PUSH2 0x3076 JUMP JUMPDEST DUP1 PUSH1 0x1F ADD PUSH1 0x20 DUP1 SWAP2 DIV MUL PUSH1 0x20 ADD PUSH1 0x40 MLOAD SWAP1 DUP2 ADD PUSH1 0x40 MSTORE DUP1 SWAP3 SWAP2 SWAP1 DUP2 DUP2 MSTORE PUSH1 0x20 ADD DUP3 DUP1 SLOAD PUSH2 0x1088 SWAP1 PUSH2 0x3076 JUMP JUMPDEST DUP1 ISZERO PUSH2 0x10D5 JUMPI DUP1 PUSH1 0x1F LT PUSH2 0x10AA JUMPI PUSH2 0x100 DUP1 DUP4 SLOAD DIV MUL DUP4 MSTORE SWAP2 PUSH1 0x20 ADD SWAP2 PUSH2 0x10D5 JUMP JUMPDEST DUP3 ADD SWAP2 SWAP1 PUSH1 0x0 MSTORE PUSH1 0x20 PUSH1 0x0 KECCAK256 SWAP1 JUMPDEST DUP2 SLOAD DUP2 MSTORE SWAP1 PUSH1 0x1 ADD SWAP1 PUSH1 0x20 ADD DUP1 DUP4 GT PUSH2 0x10B8 JUMPI DUP3 SWAP1 SUB PUSH1 0x1F AND DUP3 ADD SWAP2 JUMPDEST POP POP POP POP POP DUP2 MSTORE PUSH1 0x20 ADD PUSH1 0x3 DUP3 ADD PUSH1 0x0 SWAP1 SLOAD SWAP1 PUSH2 0x100 EXP SWAP1 DIV PUSH1 0xFF AND ISZERO ISZERO ISZERO ISZERO DUP2 MSTORE PUSH1 0x20 ADD PUSH1 0x4 DUP3 ADD SLOAD DUP2 MSTORE PUSH1 0x20 ADD PUSH1 0x5 DUP3 ADD SLOAD DUP2 MSTORE PUSH1 0x20 ADD PUSH1 0x6 DUP3 ADD SLOAD DUP2 MSTORE PUSH1 0x20 ADD PUSH1 0x7 DUP3 ADD PUSH1 0x0 SWAP1 SLOAD SWAP1 PUSH2 0x100 EXP SWAP1 DIV PUSH1 0xFF AND PUSH1 0x3 DUP2 GT ISZERO PUSH2 0x113C JUMPI PUSH2 0x113B PUSH2 0x299A JUMP JUMPDEST JUMPDEST PUSH1 0x3 DUP2 GT ISZERO PUSH2 0x114E JUMPI PUSH2 0x114D PUSH2 0x299A JUMP JUMPDEST JUMPDEST DUP2 MSTORE PUSH1 0x20 ADD PUSH1 0x8 DUP3 ADD SLOAD DUP2 MSTORE POP POP DUP2 MSTORE PUSH1 0x20 ADD SWAP1 PUSH1 0x1 ADD SWAP1 PUSH2 0xFC8 JUMP JUMPDEST POP POP POP POP SWAP1 POP SWAP1 JUMP JUMPDEST PUSH1 0x60 PUSH1 0x4 DUP1 SLOAD PUSH2 0x1183 SWAP1 PUSH2 0x3076 JUMP JUMPDEST DUP1 PUSH1 0x1F ADD PUSH1 0x20 DUP1 SWAP2 DIV MUL PUSH1 0x20 ADD PUSH1 0x40 MLOAD SWAP1 DUP2 ADD PUSH1 0x40 MSTORE DUP1 SWAP3 SWAP2 SWAP1 DUP2 DUP2 MSTORE PUSH1 0x20 ADD DUP3 DUP1 SLOAD PUSH2 0x11AF SWAP1 PUSH2 0x3076 JUMP JUMPDEST DUP1 ISZERO PUSH2 0x11FC JUMPI DUP1 PUSH1 0x1F LT PUSH2 0x11D1 JUMPI PUSH2 0x100 DUP1 DUP4 SLOAD DIV MUL DUP4 MSTORE SWAP2 PUSH1 0x20 ADD SWAP2 PUSH2 0x11FC JUMP JUMPDEST DUP3 ADD SWAP2 SWAP1 PUSH1 0x0 MSTORE PUSH1 0x20 PUSH1 0x0 KECCAK256 SWAP1 JUMPDEST DUP2 SLOAD DUP2 MSTORE SWAP1 PUSH1 0x1 ADD SWAP1 PUSH1 0x20 ADD DUP1 DUP4 GT PUSH2 0x11DF JUMPI DUP3 SWAP1 SUB PUSH1 0x1F AND DUP3 ADD SWAP2 JUMPDEST POP POP POP POP POP SWAP1 POP SWAP1 JUMP JUMPDEST PUSH1 0xC DUP2 DUP2 SLOAD DUP2 LT PUSH2 0x1216 JUMPI PUSH1 0x0 DUP1 REVERT JUMPDEST SWAP1 PUSH1 0x0 MSTORE PUSH1 0x20 PUSH1 0x0 KECCAK256 SWAP1 PUSH1 0x5 MUL ADD PUSH1 0x0 SWAP2 POP SWAP1 POP DUP1 PUSH1 0x0 ADD DUP1 SLOAD PUSH2 0x1239 SWAP1 PUSH2 0x3076 JUMP JUMPDEST DUP1 PUSH1 0x1F ADD PUSH1 0x20 DUP1 SWAP2 DIV MUL PUSH1 0x20 ADD PUSH1 0x40 MLOAD SWAP1 DUP2 ADD PUSH1 0x40 MSTORE DUP1 SWAP3 SWAP2 SWAP1 DUP2 DUP2 MSTORE PUSH1 0x20 ADD DUP3 DUP1 SLOAD PUSH2 0x1265 SWAP1 PUSH2 0x3076 JUMP JUMPDEST DUP1 ISZERO PUSH2 0x12B2 JUMPI DUP1 PUSH1 0x1F LT PUSH2 0x1287 JUMPI PUSH2 0x100 DUP1 DUP4 SLOAD DIV MUL DUP4 MSTORE SWAP2 PUSH1 0x20 ADD SWAP2 PUSH2 0x12B2 JUMP JUMPDEST DUP3 ADD SWAP2 SWAP1 PUSH1 0x0 MSTORE PUSH1 0x20 PUSH1 0x0 KECCAK256 SWAP1 JUMPDEST DUP2 SLOAD DUP2 MSTORE SWAP1 PUSH1 0x1 ADD SWAP1 PUSH1 0x20 ADD DUP1 DUP4 GT PUSH2 0x1295 JUMPI DUP3 SWAP1 SUB PUSH1 0x1F AND DUP3 ADD SWAP2 JUMPDEST POP POP POP POP POP SWAP1 DUP1 PUSH1 0x1 ADD SLOAD SWAP1 DUP1 PUSH1 0x2 ADD SLOAD SWAP1 DUP1 PUSH1 0x3 ADD PUSH1 0x0 SWAP1 SLOAD SWAP1 PUSH2 0x100 EXP SWAP1 DIV PUSH20 0xFFFFFFFFFFFFFFFFFFFFFFFFFFFFFFFFFFFFFFFF AND SWAP1 DUP1 PUSH1 0x4 ADD SLOAD SWAP1 POP DUP6 JUMP JUMPDEST PUSH1 0xB DUP2 DUP2 SLOAD DUP2 LT PUSH2 0x1304 JUMPI PUSH1 0x0 DUP1 REVERT JUMPDEST SWAP1 PUSH1 0x0 MSTORE PUSH1 0x20 PUSH1 0x0 KECCAK256 SWAP1 PUSH1 0x9 MUL ADD PUSH1 0x0 SWAP2 POP SWAP1 POP DUP1 PUSH1 0x0 ADD PUSH1 0x0 SWAP1 SLOAD SWAP1 PUSH2 0x100 EXP SWAP1 DIV PUSH20 0xFFFFFFFFFFFFFFFFFFFFFFFFFFFFFFFFFFFFFFFF AND SWAP1 DUP1 PUSH1 0x1 ADD SLOAD SWAP1 DUP1 PUSH1 0x2 ADD DUP1 SLOAD PUSH2 0x1353 SWAP1 PUSH2 0x3076 JUMP JUMPDEST DUP1 PUSH1 0x1F ADD PUSH1 0x20 DUP1 SWAP2 DIV MUL PUSH1 0x20 ADD PUSH1 0x40 MLOAD SWAP1 DUP2 ADD PUSH1 0x40 MSTORE DUP1 SWAP3 SWAP2 SWAP1 DUP2 DUP2 MSTORE PUSH1 0x20 ADD DUP3 DUP1 SLOAD PUSH2 0x137F SWAP1 PUSH2 0x3076 JUMP JUMPDEST DUP1 ISZERO PUSH2 0x13CC JUMPI DUP1 PUSH1 0x1F LT PUSH2 0x13A1 JUMPI PUSH2 0x100 DUP1 DUP4 SLOAD DIV MUL DUP4 MSTORE SWAP2 PUSH1 0x20 ADD SWAP2 PUSH2 0x13CC JUMP JUMPDEST DUP3 ADD SWAP2 SWAP1 PUSH1 0x0 MSTORE PUSH1 0x20 PUSH1 0x0 KECCAK256 SWAP1 JUMPDEST DUP2 SLOAD DUP2 MSTORE SWAP1 PUSH1 0x1 ADD SWAP1 PUSH1 0x20 ADD DUP1 DUP4 GT PUSH2 0x13AF JUMPI DUP3 SWAP1 SUB PUSH1 0x1F AND DUP3 ADD SWAP2 JUMPDEST POP POP POP POP POP SWAP1 DUP1 PUSH1 0x3 ADD PUSH1 0x0 SWAP1 SLOAD SWAP1 PUSH2 0x100 EXP SWAP1 DIV PUSH1 0xFF AND SWAP1 DUP1 PUSH1 0x4 ADD SLOAD SWAP1 DUP1 PUSH1 0x5 ADD SLOAD SWAP1 DUP1 PUSH1 0x6 ADD SLOAD SWAP1 DUP1 PUSH1 0x7 ADD PUSH1 0x0 SWAP1 SLOAD SWAP1 PUSH2 0x100 EXP SWAP1 DIV PUSH1 0xFF AND SWAP1 DUP1 PUSH1 0x8 ADD SLOAD SWAP1 POP DUP10 JUMP JUMPDEST PUSH1 0x0 DUP1 PUSH2 0x141F PUSH2 0x1F30 JUMP JUMPDEST SWAP1 POP PUSH1 0x0 PUSH2 0x142D DUP3 DUP7 PUSH2 0x185B JUMP JUMPDEST SWAP1 POP DUP4 DUP2 LT ISZERO PUSH2 0x1478 JUMPI DUP5 DUP2 DUP6 PUSH1 0x40 MLOAD PUSH32 0xA60F030C00000000000000000000000000000000000000000000000000000000 DUP2 MSTORE PUSH1 0x4 ADD PUSH2 0x146F SWAP4 SWAP3 SWAP2 SWAP1 PUSH2 0x32B1 JUMP JUMPDEST PUSH1 0x40 MLOAD DUP1 SWAP2 SUB SWAP1 REVERT JUMPDEST PUSH2 0x1485 DUP3 DUP7 DUP7 DUP5 SUB PUSH2 0x1F38 JUMP JUMPDEST PUSH1 0x1 SWAP3 POP POP POP SWAP3 SWAP2 POP POP JUMP JUMPDEST PUSH1 0x7 PUSH1 0x20 MSTORE DUP1 PUSH1 0x0 MSTORE PUSH1 0x40 PUSH1 0x0 KECCAK256 PUSH1 0x0 SWAP2 POP SWAP1 POP SLOAD DUP2 JUMP JUMPDEST PUSH1 0x0 DUP1 PUSH2 0x14B4 PUSH2 0x1F30 JUMP JUMPDEST SWAP1 POP PUSH2 0x14C1 DUP2 DUP6 DUP6 PUSH2 0x2199 JUMP JUMPDEST PUSH1 0x1 SWAP2 POP POP SWAP3 SWAP2 POP POP JUMP JUMPDEST PUSH1 0xB PUSH1 0x40 MLOAD DUP1 PUSH2 0x120 ADD PUSH1 0x40 MSTORE DUP1 DUP12 PUSH20 0xFFFFFFFFFFFFFFFFFFFFFFFFFFFFFFFFFFFFFFFF AND DUP2 MSTORE PUSH1 0x20 ADD DUP11 DUP2 MSTORE PUSH1 0x20 ADD DUP10 DUP2 MSTORE PUSH1 0x20 ADD DUP9 ISZERO ISZERO DUP2 MSTORE PUSH1 0x20 ADD DUP8 DUP2 MSTORE PUSH1 0x20 ADD DUP7 DUP2 MSTORE PUSH1 0x20 ADD DUP6 DUP2 MSTORE PUSH1 0x20 ADD DUP5 PUSH1 0x3 DUP2 GT ISZERO PUSH2 0x152F JUMPI PUSH2 0x152E PUSH2 0x299A JUMP JUMPDEST JUMPDEST DUP2 MSTORE PUSH1 0x20 ADD DUP4 DUP2 MSTORE POP SWAP1 DUP1 PUSH1 0x1 DUP2 SLOAD ADD DUP1 DUP3 SSTORE DUP1 SWAP2 POP POP PUSH1 0x1 SWAP1 SUB SWAP1 PUSH1 0x0 MSTORE PUSH1 0x20 PUSH1 0x0 KECCAK256 SWAP1 PUSH1 0x9 MUL ADD PUSH1 0x0 SWAP1 SWAP2 SWAP1 SWAP2 SWAP1 SWAP2 POP PUSH1 0x0 DUP3 ADD MLOAD DUP2 PUSH1 0x0 ADD PUSH1 0x0 PUSH2 0x100 EXP DUP2 SLOAD DUP2 PUSH20 0xFFFFFFFFFFFFFFFFFFFFFFFFFFFFFFFFFFFFFFFF MUL NOT AND SWAP1 DUP4 PUSH20 0xFFFFFFFFFFFFFFFFFFFFFFFFFFFFFFFFFFFFFFFF AND MUL OR SWAP1 SSTORE POP PUSH1 0x20 DUP3 ADD MLOAD DUP2 PUSH1 0x1 ADD SSTORE PUSH1 0x40 DUP3 ADD MLOAD DUP2 PUSH1 0x2 ADD SWAP1 DUP2 PUSH2 0x15C7 SWAP2 SWAP1 PUSH2 0x3494 JUMP JUMPDEST POP PUSH1 0x60 DUP3 ADD MLOAD DUP2 PUSH1 0x3 ADD PUSH1 0x0 PUSH2 0x100 EXP DUP2 SLOAD DUP2 PUSH1 0xFF MUL NOT AND SWAP1 DUP4 ISZERO ISZERO MUL OR SWAP1 SSTORE POP PUSH1 0x80 DUP3 ADD MLOAD DUP2 PUSH1 0x4 ADD SSTORE PUSH1 0xA0 DUP3 ADD MLOAD DUP2 PUSH1 0x5 ADD SSTORE PUSH1 0xC0 DUP3 ADD MLOAD DUP2 PUSH1 0x6 ADD SSTORE PUSH1 0xE0 DUP3 ADD MLOAD DUP2 PUSH1 0x7 ADD PUSH1 0x0 PUSH2 0x100 EXP DUP2 SLOAD DUP2 PUSH1 0xFF MUL NOT AND SWAP1 DUP4 PUSH1 0x3 DUP2 GT ISZERO PUSH2 0x1631 JUMPI PUSH2 0x1630 PUSH2 0x299A JUMP JUMPDEST JUMPDEST MUL OR SWAP1 SSTORE POP PUSH2 0x100 DUP3 ADD MLOAD DUP2 PUSH1 0x8 ADD SSTORE POP POP POP POP POP POP POP POP POP POP POP JUMP JUMPDEST PUSH1 0x0 PUSH1 0x6 PUSH1 0x0 CALLER PUSH20 0xFFFFFFFFFFFFFFFFFFFFFFFFFFFFFFFFFFFFFFFF AND PUSH20 0xFFFFFFFFFFFFFFFFFFFFFFFFFFFFFFFFFFFFFFFF AND DUP2 MSTORE PUSH1 0x20 ADD SWAP1 DUP2 MSTORE PUSH1 0x20 ADD PUSH1 0x0 KECCAK256 SLOAD SWAP1 POP SWAP1 JUMP JUMPDEST PUSH1 0x0 PUSH1 0x6 PUSH1 0x0 CALLER PUSH20 0xFFFFFFFFFFFFFFFFFFFFFFFFFFFFFFFFFFFFFFFF AND PUSH20 0xFFFFFFFFFFFFFFFFFFFFFFFFFFFFFFFFFFFFFFFF AND DUP2 MSTORE PUSH1 0x20 ADD SWAP1 DUP2 MSTORE PUSH1 0x20 ADD PUSH1 0x0 KECCAK256 SLOAD CALLVALUE PUSH1 0x6 PUSH1 0x0 CALLER PUSH20 0xFFFFFFFFFFFFFFFFFFFFFFFFFFFFFFFFFFFFFFFF AND PUSH20 0xFFFFFFFFFFFFFFFFFFFFFFFFFFFFFFFFFFFFFFFF AND DUP2 MSTORE PUSH1 0x20 ADD SWAP1 DUP2 MSTORE PUSH1 0x20 ADD PUSH1 0x0 KECCAK256 SLOAD PUSH2 0x1722 SWAP2 SWAP1 PUSH2 0x3139 JUMP JUMPDEST LT ISZERO PUSH2 0x172D JUMPI PUSH1 0x0 DUP1 REVERT JUMPDEST CALLVALUE PUSH1 0x6 PUSH1 0x0 CALLER PUSH20 0xFFFFFFFFFFFFFFFFFFFFFFFFFFFFFFFFFFFFFFFF AND PUSH20 0xFFFFFFFFFFFFFFFFFFFFFFFFFFFFFFFFFFFFFFFF AND DUP2 MSTORE PUSH1 0x20 ADD SWAP1 DUP2 MSTORE PUSH1 0x20 ADD PUSH1 0x0 KECCAK256 PUSH1 0x0 DUP3 DUP3 SLOAD PUSH2 0x177C SWAP2 SWAP1 PUSH2 0x3139 JUMP JUMPDEST SWAP3 POP POP DUP2 SWAP1 SSTORE POP CALLER PUSH20 0xFFFFFFFFFFFFFFFFFFFFFFFFFFFFFFFFFFFFFFFF AND PUSH32 0x65F1DF07EEF63E0EB903B4A8275B11FDA817B71AD87ABBD791E95353AC8F86F2 CALLVALUE PUSH1 0x40 MLOAD PUSH2 0x17C9 SWAP2 SWAP1 PUSH2 0x24CB JUMP JUMPDEST PUSH1 0x40 MLOAD DUP1 SWAP2 SUB SWAP1 LOG2 PUSH1 0x0 PUSH1 0xB DUP4 DUP2 SLOAD DUP2 LT PUSH2 0x17E7 JUMPI PUSH2 0x17E6 PUSH2 0x30A7 JUMP JUMPDEST JUMPDEST SWAP1 PUSH1 0x0 MSTORE PUSH1 0x20 PUSH1 0x0 KECCAK256 SWAP1 PUSH1 0x9 MUL ADD SWAP1 POP PUSH1 0x2 DUP2 PUSH1 0x8 ADD SLOAD TIMESTAMP PUSH2 0x1809 SWAP2 SWAP1 PUSH2 0x3105 JUMP JUMPDEST GT PUSH2 0x1813 JUMPI PUSH1 0x0 DUP1 REVERT JUMPDEST PUSH1 0x6 PUSH1 0x0 CALLER PUSH20 0xFFFFFFFFFFFFFFFFFFFFFFFFFFFFFFFFFFFFFFFF AND PUSH20 0xFFFFFFFFFFFFFFFFFFFFFFFFFFFFFFFFFFFFFFFF AND DUP2 MSTORE PUSH1 0x20 ADD SWAP1 DUP2 MSTORE PUSH1 0x20 ADD PUSH1 0x0 KECCAK256 SLOAD SWAP2 POP POP SWAP2 SWAP1 POP JUMP JUMPDEST PUSH1 0x0 PUSH1 0x1 PUSH1 0x0 DUP5 PUSH20 0xFFFFFFFFFFFFFFFFFFFFFFFFFFFFFFFFFFFFFFFF AND PUSH20 0xFFFFFFFFFFFFFFFFFFFFFFFFFFFFFFFFFFFFFFFF AND DUP2 MSTORE PUSH1 0x20 ADD SWAP1 DUP2 MSTORE PUSH1 0x20 ADD PUSH1 0x0 KECCAK256 PUSH1 0x0 DUP4 PUSH20 0xFFFFFFFFFFFFFFFFFFFFFFFFFFFFFFFFFFFFFFFF AND PUSH20 0xFFFFFFFFFFFFFFFFFFFFFFFFFFFFFFFFFFFFFFFF AND DUP2 MSTORE PUSH1 0x20 ADD SWAP1 DUP2 MSTORE PUSH1 0x20 ADD PUSH1 0x0 KECCAK256 SLOAD SWAP1 POP SWAP3 SWAP2 POP POP JUMP JUMPDEST PUSH1 0x8 PUSH1 0x20 MSTORE DUP2 PUSH1 0x0 MSTORE PUSH1 0x40 PUSH1 0x0 KECCAK256 PUSH1 0x20 MSTORE DUP1 PUSH1 0x0 MSTORE PUSH1 0x40 PUSH1 0x0 KECCAK256 PUSH1 0x0 SWAP2 POP SWAP2 POP SWAP1 SLOAD SWAP1 PUSH2 0x100 EXP SWAP1 DIV PUSH1 0xFF AND DUP2 JUMP JUMPDEST PUSH1 0x0 PUSH1 0x6 PUSH1 0x0 CALLER PUSH20 0xFFFFFFFFFFFFFFFFFFFFFFFFFFFFFFFFFFFFFFFF AND PUSH20 0xFFFFFFFFFFFFFFFFFFFFFFFFFFFFFFFFFFFFFFFF AND DUP2 MSTORE PUSH1 0x20 ADD SWAP1 DUP2 MSTORE PUSH1 0x20 ADD PUSH1 0x0 KECCAK256 SLOAD DUP3 GT ISZERO PUSH2 0x1995 JUMPI PUSH1 0x40 MLOAD PUSH32 0x8C379A000000000000000000000000000000000000000000000000000000000 DUP2 MSTORE PUSH1 0x4 ADD PUSH2 0x198C SWAP1 PUSH2 0x35B2 JUMP JUMPDEST PUSH1 0x40 MLOAD DUP1 SWAP2 SUB SWAP1 REVERT JUMPDEST PUSH1 0x0 CALLER PUSH20 0xFFFFFFFFFFFFFFFFFFFFFFFFFFFFFFFFFFFFFFFF AND DUP4 PUSH1 0x40 MLOAD PUSH2 0x19BB SWAP1 PUSH2 0x31C4 JUMP JUMPDEST PUSH1 0x0 PUSH1 0x40 MLOAD DUP1 DUP4 SUB DUP2 DUP6 DUP8 GAS CALL SWAP3 POP POP POP RETURNDATASIZE DUP1 PUSH1 0x0 DUP2 EQ PUSH2 0x19F8 JUMPI PUSH1 0x40 MLOAD SWAP2 POP PUSH1 0x1F NOT PUSH1 0x3F RETURNDATASIZE ADD AND DUP3 ADD PUSH1 0x40 MSTORE RETURNDATASIZE DUP3 MSTORE RETURNDATASIZE PUSH1 0x0 PUSH1 0x20 DUP5 ADD RETURNDATACOPY PUSH2 0x19FD JUMP JUMPDEST PUSH1 0x60 SWAP2 POP JUMPDEST POP POP SWAP1 POP DUP1 PUSH2 0x1A41 JUMPI PUSH1 0x40 MLOAD PUSH32 0x8C379A000000000000000000000000000000000000000000000000000000000 DUP2 MSTORE PUSH1 0x4 ADD PUSH2 0x1A38 SWAP1 PUSH2 0x3225 JUMP JUMPDEST PUSH1 0x40 MLOAD DUP1 SWAP2 SUB SWAP1 REVERT JUMPDEST PUSH1 0x0 PUSH1 0xB DUP7 DUP2 SLOAD DUP2 LT PUSH2 0x1A57 JUMPI PUSH2 0x1A56 PUSH2 0x30A7 JUMP JUMPDEST JUMPDEST SWAP1 PUSH1 0x0 MSTORE PUSH1 0x20 PUSH1 0x0 KECCAK256 SWAP1 PUSH1 0x9 MUL ADD SWAP1 POP PUSH1 0x2 DUP2 PUSH1 0x8 ADD SLOAD TIMESTAMP PUSH2 0x1A79 SWAP2 SWAP1 PUSH2 0x3105 JUMP JUMPDEST GT PUSH2 0x1A83 JUMPI PUSH1 0x0 DUP1 REVERT JUMPDEST DUP4 PUSH1 0x6 PUSH1 0x0 CALLER PUSH20 0xFFFFFFFFFFFFFFFFFFFFFFFFFFFFFFFFFFFFFFFF AND PUSH20 0xFFFFFFFFFFFFFFFFFFFFFFFFFFFFFFFFFFFFFFFF AND DUP2 MSTORE PUSH1 0x20 ADD SWAP1 DUP2 MSTORE PUSH1 0x20 ADD PUSH1 0x0 KECCAK256 PUSH1 0x0 DUP3 DUP3 SLOAD PUSH2 0x1AD2 SWAP2 SWAP1 PUSH2 0x3105 JUMP JUMPDEST SWAP3 POP POP DUP2 SWAP1 SSTORE POP CALLVALUE PUSH1 0x6 PUSH1 0x0 CALLER PUSH20 0xFFFFFFFFFFFFFFFFFFFFFFFFFFFFFFFFFFFFFFFF AND PUSH20 0xFFFFFFFFFFFFFFFFFFFFFFFFFFFFFFFFFFFFFFFF AND DUP2 MSTORE PUSH1 0x20 ADD SWAP1 DUP2 MSTORE PUSH1 0x20 ADD PUSH1 0x0 KECCAK256 PUSH1 0x0 DUP3 DUP3 SLOAD PUSH2 0x1B28 SWAP2 SWAP1 PUSH2 0x3105 JUMP JUMPDEST SWAP3 POP POP DUP2 SWAP1 SSTORE POP DUP6 DUP6 PUSH20 0xFFFFFFFFFFFFFFFFFFFFFFFFFFFFFFFFFFFFFFFF AND CALLER PUSH20 0xFFFFFFFFFFFFFFFFFFFFFFFFFFFFFFFFFFFFFFFF AND PUSH32 0x189409402A897F6D67CC0BD64109D12C62445A3EE7E86A7F7AD3B10BC3F50CFB DUP8 PUSH1 0x40 MLOAD PUSH2 0x1B8D SWAP2 SWAP1 PUSH2 0x24CB JUMP JUMPDEST PUSH1 0x40 MLOAD DUP1 SWAP2 SUB SWAP1 LOG4 POP POP SWAP5 SWAP4 POP POP POP POP JUMP JUMPDEST PUSH1 0x5 PUSH1 0x0 CALLER PUSH20 0xFFFFFFFFFFFFFFFFFFFFFFFFFFFFFFFFFFFFFFFF AND PUSH20 0xFFFFFFFFFFFFFFFFFFFFFFFFFFFFFFFFFFFFFFFF AND DUP2 MSTORE PUSH1 0x20 ADD SWAP1 DUP2 MSTORE PUSH1 0x20 ADD PUSH1 0x0 KECCAK256 PUSH1 0x0 SWAP1 SLOAD SWAP1 PUSH2 0x100 EXP SWAP1 DIV PUSH1 0xFF AND PUSH2 0x1BF5 JUMPI PUSH1 0x0 DUP1 REVERT JUMPDEST PUSH1 0x0 DUP3 GT PUSH2 0x1C02 JUMPI PUSH1 0x0 DUP1 REVERT JUMPDEST PUSH1 0xB DUP2 DUP2 SLOAD DUP2 LT PUSH2 0x1C16 JUMPI PUSH2 0x1C15 PUSH2 0x30A7 JUMP JUMPDEST JUMPDEST SWAP1 PUSH1 0x0 MSTORE PUSH1 0x20 PUSH1 0x0 KECCAK256 SWAP1 PUSH1 0x9 MUL ADD PUSH1 0x3 ADD PUSH1 0x0 SWAP1 SLOAD SWAP1 PUSH2 0x100 EXP SWAP1 DIV PUSH1 0xFF AND ISZERO PUSH2 0x1C3F JUMPI PUSH1 0x0 DUP1 REVERT JUMPDEST PUSH1 0x0 PUSH1 0xB DUP3 DUP2 SLOAD DUP2 LT PUSH2 0x1C55 JUMPI PUSH2 0x1C54 PUSH2 0x30A7 JUMP JUMPDEST JUMPDEST SWAP1 PUSH1 0x0 MSTORE PUSH1 0x20 PUSH1 0x0 KECCAK256 SWAP1 PUSH1 0x9 MUL ADD SWAP1 POP PUSH1 0x2 DUP2 PUSH1 0x8 ADD SLOAD TIMESTAMP PUSH2 0x1C77 SWAP2 SWAP1 PUSH2 0x3105 JUMP JUMPDEST GT PUSH2 0x1C81 JUMPI PUSH1 0x0 DUP1 REVERT JUMPDEST PUSH1 0x0 PUSH1 0xB DUP1 SLOAD SWAP1 POP SWAP1 POP PUSH1 0xB PUSH1 0x40 MLOAD DUP1 PUSH2 0x120 ADD PUSH1 0x40 MSTORE DUP1 DUP11 PUSH20 0xFFFFFFFFFFFFFFFFFFFFFFFFFFFFFFFFFFFFFFFF AND DUP2 MSTORE PUSH1 0x20 ADD DUP10 DUP2 MSTORE PUSH1 0x20 ADD DUP9 DUP2 MSTORE PUSH1 0x20 ADD PUSH1 0x0 ISZERO ISZERO DUP2 MSTORE PUSH1 0x20 ADD DUP8 DUP2 MSTORE PUSH1 0x20 ADD DUP7 DUP2 MSTORE PUSH1 0x20 ADD DUP4 DUP2 MSTORE PUSH1 0x20 ADD PUSH1 0x0 PUSH1 0x3 DUP2 GT ISZERO PUSH2 0x1CF0 JUMPI PUSH2 0x1CEF PUSH2 0x299A JUMP JUMPDEST JUMPDEST DUP2 MSTORE PUSH1 0x20 ADD TIMESTAMP DUP2 MSTORE POP SWAP1 DUP1 PUSH1 0x1 DUP2 SLOAD ADD DUP1 DUP3 SSTORE DUP1 SWAP2 POP POP PUSH1 0x1 SWAP1 SUB SWAP1 PUSH1 0x0 MSTORE PUSH1 0x20 PUSH1 0x0 KECCAK256 SWAP1 PUSH1 0x9 MUL ADD PUSH1 0x0 SWAP1 SWAP2 SWAP1 SWAP2 SWAP1 SWAP2 POP PUSH1 0x0 DUP3 ADD MLOAD DUP2 PUSH1 0x0 ADD PUSH1 0x0 PUSH2 0x100 EXP DUP2 SLOAD DUP2 PUSH20 0xFFFFFFFFFFFFFFFFFFFFFFFFFFFFFFFFFFFFFFFF MUL NOT AND SWAP1 DUP4 PUSH20 0xFFFFFFFFFFFFFFFFFFFFFFFFFFFFFFFFFFFFFFFF AND MUL OR SWAP1 SSTORE POP PUSH1 0x20 DUP3 ADD MLOAD DUP2 PUSH1 0x1 ADD SSTORE PUSH1 0x40 DUP3 ADD MLOAD DUP2 PUSH1 0x2 ADD SWAP1 DUP2 PUSH2 0x1D88 SWAP2 SWAP1 PUSH2 0x3494 JUMP JUMPDEST POP PUSH1 0x60 DUP3 ADD MLOAD DUP2 PUSH1 0x3 ADD PUSH1 0x0 PUSH2 0x100 EXP DUP2 SLOAD DUP2 PUSH1 0xFF MUL NOT AND SWAP1 DUP4 ISZERO ISZERO MUL OR SWAP1 SSTORE POP PUSH1 0x80 DUP3 ADD MLOAD DUP2 PUSH1 0x4 ADD SSTORE PUSH1 0xA0 DUP3 ADD MLOAD DUP2 PUSH1 0x5 ADD SSTORE PUSH1 0xC0 DUP3 ADD MLOAD DUP2 PUSH1 0x6 ADD SSTORE PUSH1 0xE0 DUP3 ADD MLOAD DUP2 PUSH1 0x7 ADD PUSH1 0x0 PUSH2 0x100 EXP DUP2 SLOAD DUP2 PUSH1 0xFF MUL NOT AND SWAP1 DUP4 PUSH1 0x3 DUP2 GT ISZERO PUSH2 0x1DF2 JUMPI PUSH2 0x1DF1 PUSH2 0x299A JUMP JUMPDEST JUMPDEST MUL OR SWAP1 SSTORE POP PUSH2 0x100 DUP3 ADD MLOAD DUP2 PUSH1 0x8 ADD SSTORE POP POP PUSH8 0x1BC16D674EC80000 PUSH1 0x6 PUSH1 0x0 CALLER PUSH20 0xFFFFFFFFFFFFFFFFFFFFFFFFFFFFFFFFFFFFFFFF AND PUSH20 0xFFFFFFFFFFFFFFFFFFFFFFFFFFFFFFFFFFFFFFFF AND DUP2 MSTORE PUSH1 0x20 ADD SWAP1 DUP2 MSTORE PUSH1 0x20 ADD PUSH1 0x0 KECCAK256 PUSH1 0x0 DUP3 DUP3 SLOAD PUSH2 0x1E5B SWAP2 SWAP1 PUSH2 0x3139 JUMP JUMPDEST SWAP3 POP POP DUP2 SWAP1 SSTORE POP PUSH1 0x1 PUSH1 0x8 PUSH1 0x0 DUP6 DUP2 MSTORE PUSH1 0x20 ADD SWAP1 DUP2 MSTORE PUSH1 0x20 ADD PUSH1 0x0 KECCAK256 PUSH1 0x0 CALLER PUSH20 0xFFFFFFFFFFFFFFFFFFFFFFFFFFFFFFFFFFFFFFFF AND PUSH20 0xFFFFFFFFFFFFFFFFFFFFFFFFFFFFFFFFFFFFFFFF AND DUP2 MSTORE PUSH1 0x20 ADD SWAP1 DUP2 MSTORE PUSH1 0x20 ADD PUSH1 0x0 KECCAK256 PUSH1 0x0 PUSH2 0x100 EXP DUP2 SLOAD DUP2 PUSH1 0xFF MUL NOT AND SWAP1 DUP4 ISZERO ISZERO MUL OR SWAP1 SSTORE POP DUP3 DUP9 PUSH20 0xFFFFFFFFFFFFFFFFFFFFFFFFFFFFFFFFFFFFFFFF AND CALLER PUSH20 0xFFFFFFFFFFFFFFFFFFFFFFFFFFFFFFFFFFFFFFFF AND PUSH32 0x3A7E667D1F3E3931C98C8B2DA3D29BBA1EA247441CB2573A4DDF9C77EEF7CD13 PUSH1 0x40 MLOAD PUSH1 0x40 MLOAD DUP1 SWAP2 SUB SWAP1 LOG4 POP POP POP POP POP POP POP POP JUMP JUMPDEST PUSH1 0x0 CALLER SWAP1 POP SWAP1 JUMP JUMPDEST PUSH1 0x0 PUSH20 0xFFFFFFFFFFFFFFFFFFFFFFFFFFFFFFFFFFFFFFFF AND DUP4 PUSH20 0xFFFFFFFFFFFFFFFFFFFFFFFFFFFFFFFFFFFFFFFF AND SUB PUSH2 0x1FAA JUMPI PUSH1 0x0 PUSH1 0x40 MLOAD PUSH32 0xE602DF0500000000000000000000000000000000000000000000000000000000 DUP2 MSTORE PUSH1 0x4 ADD PUSH2 0x1FA1 SWAP2 SWAP1 PUSH2 0x2594 JUMP JUMPDEST PUSH1 0x40 MLOAD DUP1 SWAP2 SUB SWAP1 REVERT JUMPDEST PUSH1 0x0 PUSH20 0xFFFFFFFFFFFFFFFFFFFFFFFFFFFFFFFFFFFFFFFF AND DUP3 PUSH20 0xFFFFFFFFFFFFFFFFFFFFFFFFFFFFFFFFFFFFFFFF AND SUB PUSH2 0x201C JUMPI PUSH1 0x0 PUSH1 0x40 MLOAD PUSH32 0x94280D6200000000000000000000000000000000000000000000000000000000 DUP2 MSTORE PUSH1 0x4 ADD PUSH2 0x2013 SWAP2 SWAP1 PUSH2 0x2594 JUMP JUMPDEST PUSH1 0x40 MLOAD DUP1 SWAP2 SUB SWAP1 REVERT JUMPDEST DUP1 PUSH1 0x1 PUSH1 0x0 DUP6 PUSH20 0xFFFFFFFFFFFFFFFFFFFFFFFFFFFFFFFFFFFFFFFF AND PUSH20 0xFFFFFFFFFFFFFFFFFFFFFFFFFFFFFFFFFFFFFFFF AND DUP2 MSTORE PUSH1 0x20 ADD SWAP1 DUP2 MSTORE PUSH1 0x20 ADD PUSH1 0x0 KECCAK256 PUSH1 0x0 DUP5 PUSH20 0xFFFFFFFFFFFFFFFFFFFFFFFFFFFFFFFFFFFFFFFF AND PUSH20 0xFFFFFFFFFFFFFFFFFFFFFFFFFFFFFFFFFFFFFFFF AND DUP2 MSTORE PUSH1 0x20 ADD SWAP1 DUP2 MSTORE PUSH1 0x20 ADD PUSH1 0x0 KECCAK256 DUP2 SWAP1 SSTORE POP DUP2 PUSH20 0xFFFFFFFFFFFFFFFFFFFFFFFFFFFFFFFFFFFFFFFF AND DUP4 PUSH20 0xFFFFFFFFFFFFFFFFFFFFFFFFFFFFFFFFFFFFFFFF AND PUSH32 0x8C5BE1E5EBEC7D5BD14F71427D1E84F3DD0314C0F7B2291E5B200AC8C7C3B925 DUP4 PUSH1 0x40 MLOAD PUSH2 0x20FA SWAP2 SWAP1 PUSH2 0x24CB JUMP JUMPDEST PUSH1 0x40 MLOAD DUP1 SWAP2 SUB SWAP1 LOG3 POP POP POP JUMP JUMPDEST PUSH1 0x0 PUSH2 0x2113 DUP5 DUP5 PUSH2 0x185B JUMP JUMPDEST SWAP1 POP PUSH32 0xFFFFFFFFFFFFFFFFFFFFFFFFFFFFFFFFFFFFFFFFFFFFFFFFFFFFFFFFFFFFFFFF DUP2 EQ PUSH2 0x2193 JUMPI DUP2 DUP2 LT ISZERO PUSH2 0x2185 JUMPI DUP3 DUP2 DUP4 PUSH1 0x40 MLOAD PUSH32 0xFB8F41B200000000000000000000000000000000000000000000000000000000 DUP2 MSTORE PUSH1 0x4 ADD PUSH2 0x217C SWAP4 SWAP3 SWAP2 SWAP1 PUSH2 0x32B1 JUMP JUMPDEST PUSH1 0x40 MLOAD DUP1 SWAP2 SUB SWAP1 REVERT JUMPDEST PUSH2 0x2192 DUP5 DUP5 DUP5 DUP5 SUB PUSH2 0x1F38 JUMP JUMPDEST JUMPDEST POP POP POP POP JUMP JUMPDEST PUSH1 0x0 PUSH20 0xFFFFFFFFFFFFFFFFFFFFFFFFFFFFFFFFFFFFFFFF AND DUP4 PUSH20 0xFFFFFFFFFFFFFFFFFFFFFFFFFFFFFFFFFFFFFFFF AND SUB PUSH2 0x220B JUMPI PUSH1 0x0 PUSH1 0x40 MLOAD PUSH32 0x96C6FD1E00000000000000000000000000000000000000000000000000000000 DUP2 MSTORE PUSH1 0x4 ADD PUSH2 0x2202 SWAP2 SWAP1 PUSH2 0x2594 JUMP JUMPDEST PUSH1 0x40 MLOAD DUP1 SWAP2 SUB SWAP1 REVERT JUMPDEST PUSH1 0x0 PUSH20 0xFFFFFFFFFFFFFFFFFFFFFFFFFFFFFFFFFFFFFFFF AND DUP3 PUSH20 0xFFFFFFFFFFFFFFFFFFFFFFFFFFFFFFFFFFFFFFFF AND SUB PUSH2 0x227D JUMPI PUSH1 0x0 PUSH1 0x40 MLOAD PUSH32 0xEC442F0500000000000000000000000000000000000000000000000000000000 DUP2 MSTORE PUSH1 0x4 ADD PUSH2 0x2274 SWAP2 SWAP1 PUSH2 0x2594 JUMP JUMPDEST PUSH1 0x40 MLOAD DUP1 SWAP2 SUB SWAP1 REVERT JUMPDEST PUSH2 0x2288 DUP4 DUP4 DUP4 PUSH2 0x228D JUMP JUMPDEST POP POP POP JUMP JUMPDEST PUSH1 0x0 PUSH20 0xFFFFFFFFFFFFFFFFFFFFFFFFFFFFFFFFFFFFFFFF AND DUP4 PUSH20 0xFFFFFFFFFFFFFFFFFFFFFFFFFFFFFFFFFFFFFFFF AND SUB PUSH2 0x22DF JUMPI DUP1 PUSH1 0x2 PUSH1 0x0 DUP3 DUP3 SLOAD PUSH2 0x22D3 SWAP2 SWAP1 PUSH2 0x3139 JUMP JUMPDEST SWAP3 POP POP DUP2 SWAP1 SSTORE POP PUSH2 0x23B2 JUMP JUMPDEST PUSH1 0x0 DUP1 PUSH1 0x0 DUP6 PUSH20 0xFFFFFFFFFFFFFFFFFFFFFFFFFFFFFFFFFFFFFFFF AND PUSH20 0xFFFFFFFFFFFFFFFFFFFFFFFFFFFFFFFFFFFFFFFF AND DUP2 MSTORE PUSH1 0x20 ADD SWAP1 DUP2 MSTORE PUSH1 0x20 ADD PUSH1 0x0 KECCAK256 SLOAD SWAP1 POP DUP2 DUP2 LT ISZERO PUSH2 0x236B JUMPI DUP4 DUP2 DUP4 PUSH1 0x40 MLOAD PUSH32 0xE450D38C00000000000000000000000000000000000000000000000000000000 DUP2 MSTORE PUSH1 0x4 ADD PUSH2 0x2362 SWAP4 SWAP3 SWAP2 SWAP1 PUSH2 0x32B1 JUMP JUMPDEST PUSH1 0x40 MLOAD DUP1 SWAP2 SUB SWAP1 REVERT JUMPDEST DUP2 DUP2 SUB PUSH1 0x0 DUP1 DUP7 PUSH20 0xFFFFFFFFFFFFFFFFFFFFFFFFFFFFFFFFFFFFFFFF AND PUSH20 0xFFFFFFFFFFFFFFFFFFFFFFFFFFFFFFFFFFFFFFFF AND DUP2 MSTORE PUSH1 0x20 ADD SWAP1 DUP2 MSTORE PUSH1 0x20 ADD PUSH1 0x0 KECCAK256 DUP2 SWAP1 SSTORE POP POP JUMPDEST PUSH1 0x0 PUSH20 0xFFFFFFFFFFFFFFFFFFFFFFFFFFFFFFFFFFFFFFFF AND DUP3 PUSH20 0xFFFFFFFFFFFFFFFFFFFFFFFFFFFFFFFFFFFFFFFF AND SUB PUSH2 0x23FB JUMPI DUP1 PUSH1 0x2 PUSH1 0x0 DUP3 DUP3 SLOAD SUB SWAP3 POP POP DUP2 SWAP1 SSTORE POP PUSH2 0x2448 JUMP JUMPDEST DUP1 PUSH1 0x0 DUP1 DUP5 PUSH20 0xFFFFFFFFFFFFFFFFFFFFFFFFFFFFFFFFFFFFFFFF AND PUSH20 0xFFFFFFFFFFFFFFFFFFFFFFFFFFFFFFFFFFFFFFFF AND DUP2 MSTORE PUSH1 0x20 ADD SWAP1 DUP2 MSTORE PUSH1 0x20 ADD PUSH1 0x0 KECCAK256 PUSH1 0x0 DUP3 DUP3 SLOAD ADD SWAP3 POP POP DUP2 SWAP1 SSTORE POP JUMPDEST DUP2 PUSH20 0xFFFFFFFFFFFFFFFFFFFFFFFFFFFFFFFFFFFFFFFF AND DUP4 PUSH20 0xFFFFFFFFFFFFFFFFFFFFFFFFFFFFFFFFFFFFFFFF AND PUSH32 0xDDF252AD1BE2C89B69C2B068FC378DAA952BA7F163C4A11628F55A4DF523B3EF DUP4 PUSH1 0x40 MLOAD PUSH2 0x24A5 SWAP2 SWAP1 PUSH2 0x24CB JUMP JUMPDEST PUSH1 0x40 MLOAD DUP1 SWAP2 SUB SWAP1 LOG3 POP POP POP JUMP JUMPDEST PUSH1 0x0 DUP2 SWAP1 POP SWAP2 SWAP1 POP JUMP JUMPDEST PUSH2 0x24C5 DUP2 PUSH2 0x24B2 JUMP JUMPDEST DUP3 MSTORE POP POP JUMP JUMPDEST PUSH1 0x0 PUSH1 0x20 DUP3 ADD SWAP1 POP PUSH2 0x24E0 PUSH1 0x0 DUP4 ADD DUP5 PUSH2 0x24BC JUMP JUMPDEST SWAP3 SWAP2 POP POP JUMP JUMPDEST PUSH1 0x0 PUSH1 0x40 MLOAD SWAP1 POP SWAP1 JUMP JUMPDEST PUSH1 0x0 DUP1 REVERT JUMPDEST PUSH1 0x0 DUP1 REVERT JUMPDEST PUSH2 0x2503 DUP2 PUSH2 0x24B2 JUMP JUMPDEST DUP2 EQ PUSH2 0x250E JUMPI PUSH1 0x0 DUP1 REVERT JUMPDEST POP JUMP JUMPDEST PUSH1 0x0 DUP2 CALLDATALOAD SWAP1 POP PUSH2 0x2520 DUP2 PUSH2 0x24FA JUMP JUMPDEST SWAP3 SWAP2 POP POP JUMP JUMPDEST PUSH1 0x0 PUSH1 0x20 DUP3 DUP5 SUB SLT ISZERO PUSH2 0x253C JUMPI PUSH2 0x253B PUSH2 0x24F0 JUMP JUMPDEST JUMPDEST PUSH1 0x0 PUSH2 0x254A DUP5 DUP3 DUP6 ADD PUSH2 0x2511 JUMP JUMPDEST SWAP2 POP POP SWAP3 SWAP2 POP POP JUMP JUMPDEST PUSH1 0x0 PUSH20 0xFFFFFFFFFFFFFFFFFFFFFFFFFFFFFFFFFFFFFFFF DUP3 AND SWAP1 POP SWAP2 SWAP1 POP JUMP JUMPDEST PUSH1 0x0 PUSH2 0x257E DUP3 PUSH2 0x2553 JUMP JUMPDEST SWAP1 POP SWAP2 SWAP1 POP JUMP JUMPDEST PUSH2 0x258E DUP2 PUSH2 0x2573 JUMP JUMPDEST DUP3 MSTORE POP POP JUMP JUMPDEST PUSH1 0x0 PUSH1 0x20 DUP3 ADD SWAP1 POP PUSH2 0x25A9 PUSH1 0x0 DUP4 ADD DUP5 PUSH2 0x2585 JUMP JUMPDEST SWAP3 SWAP2 POP POP JUMP JUMPDEST PUSH1 0x0 DUP2 MLOAD SWAP1 POP SWAP2 SWAP1 POP JUMP JUMPDEST PUSH1 0x0 DUP3 DUP3 MSTORE PUSH1 0x20 DUP3 ADD SWAP1 POP SWAP3 SWAP2 POP POP JUMP JUMPDEST PUSH1 0x0 JUMPDEST DUP4 DUP2 LT ISZERO PUSH2 0x25E9 JUMPI DUP1 DUP3 ADD MLOAD DUP2 DUP5 ADD MSTORE PUSH1 0x20 DUP2 ADD SWAP1 POP PUSH2 0x25CE JUMP JUMPDEST PUSH1 0x0 DUP5 DUP5 ADD MSTORE POP POP POP POP JUMP JUMPDEST PUSH1 0x0 PUSH1 0x1F NOT PUSH1 0x1F DUP4 ADD AND SWAP1 POP SWAP2 SWAP1 POP JUMP JUMPDEST PUSH1 0x0 PUSH2 0x2611 DUP3 PUSH2 0x25AF JUMP JUMPDEST PUSH2 0x261B DUP2 DUP6 PUSH2 0x25BA JUMP JUMPDEST SWAP4 POP PUSH2 0x262B DUP2 DUP6 PUSH1 0x20 DUP7 ADD PUSH2 0x25CB JUMP JUMPDEST PUSH2 0x2634 DUP2 PUSH2 0x25F5 JUMP JUMPDEST DUP5 ADD SWAP2 POP POP SWAP3 SWAP2 POP POP JUMP JUMPDEST PUSH1 0x0 PUSH1 0x20 DUP3 ADD SWAP1 POP DUP2 DUP2 SUB PUSH1 0x0 DUP4 ADD MSTORE PUSH2 0x2659 DUP2 DUP5 PUSH2 0x2606 JUMP JUMPDEST SWAP1 POP SWAP3 SWAP2 POP POP JUMP JUMPDEST PUSH2 0x266A DUP2 PUSH2 0x2573 JUMP JUMPDEST DUP2 EQ PUSH2 0x2675 JUMPI PUSH1 0x0 DUP1 REVERT JUMPDEST POP JUMP JUMPDEST PUSH1 0x0 DUP2 CALLDATALOAD SWAP1 POP PUSH2 0x2687 DUP2 PUSH2 0x2661 JUMP JUMPDEST SWAP3 SWAP2 POP POP JUMP JUMPDEST PUSH1 0x0 DUP1 PUSH1 0x40 DUP4 DUP6 SUB SLT ISZERO PUSH2 0x26A4 JUMPI PUSH2 0x26A3 PUSH2 0x24F0 JUMP JUMPDEST JUMPDEST PUSH1 0x0 PUSH2 0x26B2 DUP6 DUP3 DUP7 ADD PUSH2 0x2678 JUMP JUMPDEST SWAP3 POP POP PUSH1 0x20 PUSH2 0x26C3 DUP6 DUP3 DUP7 ADD PUSH2 0x2511 JUMP JUMPDEST SWAP2 POP POP SWAP3 POP SWAP3 SWAP1 POP JUMP JUMPDEST PUSH1 0x0 DUP2 ISZERO ISZERO SWAP1 POP SWAP2 SWAP1 POP JUMP JUMPDEST PUSH2 0x26E2 DUP2 PUSH2 0x26CD JUMP JUMPDEST DUP3 MSTORE POP POP JUMP JUMPDEST PUSH1 0x0 PUSH1 0x20 DUP3 ADD SWAP1 POP PUSH2 0x26FD PUSH1 0x0 DUP4 ADD DUP5 PUSH2 0x26D9 JUMP JUMPDEST SWAP3 SWAP2 POP POP JUMP JUMPDEST PUSH1 0x0 DUP2 MLOAD SWAP1 POP SWAP2 SWAP1 POP JUMP JUMPDEST PUSH1 0x0 DUP3 DUP3 MSTORE PUSH1 0x20 DUP3 ADD SWAP1 POP SWAP3 SWAP2 POP POP JUMP JUMPDEST PUSH1 0x0 PUSH2 0x272A DUP3 PUSH2 0x2703 JUMP JUMPDEST PUSH2 0x2734 DUP2 DUP6 PUSH2 0x270E JUMP JUMPDEST SWAP4 POP PUSH2 0x2744 DUP2 DUP6 PUSH1 0x20 DUP7 ADD PUSH2 0x25CB JUMP JUMPDEST PUSH2 0x274D DUP2 PUSH2 0x25F5 JUMP JUMPDEST DUP5 ADD SWAP2 POP POP SWAP3 SWAP2 POP POP JUMP JUMPDEST PUSH1 0x0 PUSH1 0xC0 DUP3 ADD SWAP1 POP PUSH2 0x276D PUSH1 0x0 DUP4 ADD DUP10 PUSH2 0x2585 JUMP JUMPDEST PUSH2 0x277A PUSH1 0x20 DUP4 ADD DUP9 PUSH2 0x24BC JUMP JUMPDEST DUP2 DUP2 SUB PUSH1 0x40 DUP4 ADD MSTORE PUSH2 0x278C DUP2 DUP8 PUSH2 0x271F JUMP JUMPDEST SWAP1 POP PUSH2 0x279B PUSH1 0x60 DUP4 ADD DUP7 PUSH2 0x26D9 JUMP JUMPDEST PUSH2 0x27A8 PUSH1 0x80 DUP4 ADD DUP6 PUSH2 0x24BC JUMP JUMPDEST PUSH2 0x27B5 PUSH1 0xA0 DUP4 ADD DUP5 PUSH2 0x24BC JUMP JUMPDEST SWAP8 SWAP7 POP POP POP POP POP POP POP JUMP JUMPDEST PUSH1 0x0 DUP1 PUSH1 0x0 PUSH1 0x60 DUP5 DUP7 SUB SLT ISZERO PUSH2 0x27D9 JUMPI PUSH2 0x27D8 PUSH2 0x24F0 JUMP JUMPDEST JUMPDEST PUSH1 0x0 PUSH2 0x27E7 DUP7 DUP3 DUP8 ADD PUSH2 0x2678 JUMP JUMPDEST SWAP4 POP POP PUSH1 0x20 PUSH2 0x27F8 DUP7 DUP3 DUP8 ADD PUSH2 0x2678 JUMP JUMPDEST SWAP3 POP POP PUSH1 0x40 PUSH2 0x2809 DUP7 DUP3 DUP8 ADD PUSH2 0x2511 JUMP JUMPDEST SWAP2 POP POP SWAP3 POP SWAP3 POP SWAP3 JUMP JUMPDEST PUSH1 0x0 DUP1 PUSH1 0x40 DUP4 DUP6 SUB SLT ISZERO PUSH2 0x282A JUMPI PUSH2 0x2829 PUSH2 0x24F0 JUMP JUMPDEST JUMPDEST PUSH1 0x0 PUSH2 0x2838 DUP6 DUP3 DUP7 ADD PUSH2 0x2511 JUMP JUMPDEST SWAP3 POP POP PUSH1 0x20 PUSH2 0x2849 DUP6 DUP3 DUP7 ADD PUSH2 0x2511 JUMP JUMPDEST SWAP2 POP POP SWAP3 POP SWAP3 SWAP1 POP JUMP JUMPDEST PUSH1 0x0 PUSH1 0xFF DUP3 AND SWAP1 POP SWAP2 SWAP1 POP JUMP JUMPDEST PUSH2 0x2869 DUP2 PUSH2 0x2853 JUMP JUMPDEST DUP3 MSTORE POP POP JUMP JUMPDEST PUSH1 0x0 PUSH1 0x20 DUP3 ADD SWAP1 POP PUSH2 0x2884 PUSH1 0x0 DUP4 ADD DUP5 PUSH2 0x2860 JUMP JUMPDEST SWAP3 SWAP2 POP POP JUMP JUMPDEST PUSH1 0x0 PUSH1 0x20 DUP3 DUP5 SUB SLT ISZERO PUSH2 0x28A0 JUMPI PUSH2 0x289F PUSH2 0x24F0 JUMP JUMPDEST JUMPDEST PUSH1 0x0 PUSH2 0x28AE DUP5 DUP3 DUP6 ADD PUSH2 0x2678 JUMP JUMPDEST SWAP2 POP POP SWAP3 SWAP2 POP POP JUMP JUMPDEST PUSH1 0x0 DUP1 PUSH1 0x40 DUP4 DUP6 SUB SLT ISZERO PUSH2 0x28CE JUMPI PUSH2 0x28CD PUSH2 0x24F0 JUMP JUMPDEST JUMPDEST PUSH1 0x0 PUSH2 0x28DC DUP6 DUP3 DUP7 ADD PUSH2 0x2511 JUMP JUMPDEST SWAP3 POP POP PUSH1 0x20 PUSH2 0x28ED DUP6 DUP3 DUP7 ADD PUSH2 0x2678 JUMP JUMPDEST SWAP2 POP POP SWAP3 POP SWAP3 SWAP1 POP JUMP JUMPDEST PUSH1 0x0 DUP2 MLOAD SWAP1 POP SWAP2 SWAP1 POP JUMP JUMPDEST PUSH1 0x0 DUP3 DUP3 MSTORE PUSH1 0x20 DUP3 ADD SWAP1 POP SWAP3 SWAP2 POP POP JUMP JUMPDEST PUSH1 0x0 DUP2 SWAP1 POP PUSH1 0x20 DUP3 ADD SWAP1 POP SWAP2 SWAP1 POP JUMP JUMPDEST PUSH2 0x292C DUP2 PUSH2 0x2573 JUMP JUMPDEST DUP3 MSTORE POP POP JUMP JUMPDEST PUSH2 0x293B DUP2 PUSH2 0x24B2 JUMP JUMPDEST DUP3 MSTORE POP POP JUMP JUMPDEST PUSH1 0x0 DUP3 DUP3 MSTORE PUSH1 0x20 DUP3 ADD SWAP1 POP SWAP3 SWAP2 POP POP JUMP JUMPDEST PUSH1 0x0 PUSH2 0x295D DUP3 PUSH2 0x2703 JUMP JUMPDEST PUSH2 0x2967 DUP2 DUP6 PUSH2 0x2941 JUMP JUMPDEST SWAP4 POP PUSH2 0x2977 DUP2 DUP6 PUSH1 0x20 DUP7 ADD PUSH2 0x25CB JUMP JUMPDEST PUSH2 0x2980 DUP2 PUSH2 0x25F5 JUMP JUMPDEST DUP5 ADD SWAP2 POP POP SWAP3 SWAP2 POP POP JUMP JUMPDEST PUSH2 0x2994 DUP2 PUSH2 0x26CD JUMP JUMPDEST DUP3 MSTORE POP POP JUMP JUMPDEST PUSH32 0x4E487B7100000000000000000000000000000000000000000000000000000000 PUSH1 0x0 MSTORE PUSH1 0x21 PUSH1 0x4 MSTORE PUSH1 0x24 PUSH1 0x0 REVERT JUMPDEST PUSH1 0x4 DUP2 LT PUSH2 0x29DA JUMPI PUSH2 0x29D9 PUSH2 0x299A JUMP JUMPDEST JUMPDEST POP JUMP JUMPDEST PUSH1 0x0 DUP2 SWAP1 POP PUSH2 0x29EB DUP3 PUSH2 0x29C9 JUMP JUMPDEST SWAP2 SWAP1 POP JUMP JUMPDEST PUSH1 0x0 PUSH2 0x29FB DUP3 PUSH2 0x29DD JUMP JUMPDEST SWAP1 POP SWAP2 SWAP1 POP JUMP JUMPDEST PUSH2 0x2A0B DUP2 PUSH2 0x29F0 JUMP JUMPDEST DUP3 MSTORE POP POP JUMP JUMPDEST PUSH1 0x0 PUSH2 0x120 DUP4 ADD PUSH1 0x0 DUP4 ADD MLOAD PUSH2 0x2A2A PUSH1 0x0 DUP7 ADD DUP3 PUSH2 0x2923 JUMP JUMPDEST POP PUSH1 0x20 DUP4 ADD MLOAD PUSH2 0x2A3D PUSH1 0x20 DUP7 ADD DUP3 PUSH2 0x2932 JUMP JUMPDEST POP PUSH1 0x40 DUP4 ADD MLOAD DUP5 DUP3 SUB PUSH1 0x40 DUP7 ADD MSTORE PUSH2 0x2A55 DUP3 DUP3 PUSH2 0x2952 JUMP JUMPDEST SWAP2 POP POP PUSH1 0x60 DUP4 ADD MLOAD PUSH2 0x2A6A PUSH1 0x60 DUP7 ADD DUP3 PUSH2 0x298B JUMP JUMPDEST POP PUSH1 0x80 DUP4 ADD MLOAD PUSH2 0x2A7D PUSH1 0x80 DUP7 ADD DUP3 PUSH2 0x2932 JUMP JUMPDEST POP PUSH1 0xA0 DUP4 ADD MLOAD PUSH2 0x2A90 PUSH1 0xA0 DUP7 ADD DUP3 PUSH2 0x2932 JUMP JUMPDEST POP PUSH1 0xC0 DUP4 ADD MLOAD PUSH2 0x2AA3 PUSH1 0xC0 DUP7 ADD DUP3 PUSH2 0x2932 JUMP JUMPDEST POP PUSH1 0xE0 DUP4 ADD MLOAD PUSH2 0x2AB6 PUSH1 0xE0 DUP7 ADD DUP3 PUSH2 0x2A02 JUMP JUMPDEST POP PUSH2 0x100 DUP4 ADD MLOAD PUSH2 0x2ACB PUSH2 0x100 DUP7 ADD DUP3 PUSH2 0x2932 JUMP JUMPDEST POP DUP1 SWAP2 POP POP SWAP3 SWAP2 POP POP JUMP JUMPDEST PUSH1 0x0 PUSH2 0x2AE2 DUP4 DUP4 PUSH2 0x2A11 JUMP JUMPDEST SWAP1 POP SWAP3 SWAP2 POP POP JUMP JUMPDEST PUSH1 0x0 PUSH1 0x20 DUP3 ADD SWAP1 POP SWAP2 SWAP1 POP JUMP JUMPDEST PUSH1 0x0 PUSH2 0x2B02 DUP3 PUSH2 0x28F7 JUMP JUMPDEST PUSH2 0x2B0C DUP2 DUP6 PUSH2 0x2902 JUMP JUMPDEST SWAP4 POP DUP4 PUSH1 0x20 DUP3 MUL DUP6 ADD PUSH2 0x2B1E DUP6 PUSH2 0x2913 JUMP JUMPDEST DUP1 PUSH1 0x0 JUMPDEST DUP6 DUP2 LT ISZERO PUSH2 0x2B5A JUMPI DUP5 DUP5 SUB DUP10 MSTORE DUP2 MLOAD PUSH2 0x2B3B DUP6 DUP3 PUSH2 0x2AD6 JUMP JUMPDEST SWAP5 POP PUSH2 0x2B46 DUP4 PUSH2 0x2AEA JUMP JUMPDEST SWAP3 POP PUSH1 0x20 DUP11 ADD SWAP10 POP POP PUSH1 0x1 DUP2 ADD SWAP1 POP PUSH2 0x2B22 JUMP JUMPDEST POP DUP3 SWAP8 POP DUP8 SWAP6 POP POP POP POP POP POP SWAP3 SWAP2 POP POP JUMP JUMPDEST PUSH1 0x0 PUSH1 0x20 DUP3 ADD SWAP1 POP DUP2 DUP2 SUB PUSH1 0x0 DUP4 ADD MSTORE PUSH2 0x2B86 DUP2 DUP5 PUSH2 0x2AF7 JUMP JUMPDEST SWAP1 POP SWAP3 SWAP2 POP POP JUMP JUMPDEST PUSH1 0x0 PUSH1 0xA0 DUP3 ADD SWAP1 POP DUP2 DUP2 SUB PUSH1 0x0 DUP4 ADD MSTORE PUSH2 0x2BA8 DUP2 DUP9 PUSH2 0x2606 JUMP JUMPDEST SWAP1 POP PUSH2 0x2BB7 PUSH1 0x20 DUP4 ADD DUP8 PUSH2 0x24BC JUMP JUMPDEST PUSH2 0x2BC4 PUSH1 0x40 DUP4 ADD DUP7 PUSH2 0x24BC JUMP JUMPDEST PUSH2 0x2BD1 PUSH1 0x60 DUP4 ADD DUP6 PUSH2 0x2585 JUMP JUMPDEST PUSH2 0x2BDE PUSH1 0x80 DUP4 ADD DUP5 PUSH2 0x24BC JUMP JUMPDEST SWAP7 SWAP6 POP POP POP POP POP POP JUMP JUMPDEST PUSH2 0x2BF1 DUP2 PUSH2 0x29F0 JUMP JUMPDEST DUP3 MSTORE POP POP JUMP JUMPDEST PUSH1 0x0 PUSH2 0x120 DUP3 ADD SWAP1 POP PUSH2 0x2C0D PUSH1 0x0 DUP4 ADD DUP13 PUSH2 0x2585 JUMP JUMPDEST PUSH2 0x2C1A PUSH1 0x20 DUP4 ADD DUP12 PUSH2 0x24BC JUMP JUMPDEST DUP2 DUP2 SUB PUSH1 0x40 DUP4 ADD MSTORE PUSH2 0x2C2C DUP2 DUP11 PUSH2 0x271F JUMP JUMPDEST SWAP1 POP PUSH2 0x2C3B PUSH1 0x60 DUP4 ADD DUP10 PUSH2 0x26D9 JUMP JUMPDEST PUSH2 0x2C48 PUSH1 0x80 DUP4 ADD DUP9 PUSH2 0x24BC JUMP JUMPDEST PUSH2 0x2C55 PUSH1 0xA0 DUP4 ADD DUP8 PUSH2 0x24BC JUMP JUMPDEST PUSH2 0x2C62 PUSH1 0xC0 DUP4 ADD DUP7 PUSH2 0x24BC JUMP JUMPDEST PUSH2 0x2C6F PUSH1 0xE0 DUP4 ADD DUP6 PUSH2 0x2BE8 JUMP JUMPDEST PUSH2 0x2C7D PUSH2 0x100 DUP4 ADD DUP5 PUSH2 0x24BC JUMP JUMPDEST SWAP11 SWAP10 POP POP POP POP POP POP POP POP POP POP JUMP JUMPDEST PUSH1 0x0 DUP1 REVERT JUMPDEST PUSH1 0x0 DUP1 REVERT JUMPDEST PUSH32 0x4E487B7100000000000000000000000000000000000000000000000000000000 PUSH1 0x0 MSTORE PUSH1 0x41 PUSH1 0x4 MSTORE PUSH1 0x24 PUSH1 0x0 REVERT JUMPDEST PUSH2 0x2CCD DUP3 PUSH2 0x25F5 JUMP JUMPDEST DUP2 ADD DUP2 DUP2 LT PUSH8 0xFFFFFFFFFFFFFFFF DUP3 GT OR ISZERO PUSH2 0x2CEC JUMPI PUSH2 0x2CEB PUSH2 0x2C95 JUMP JUMPDEST JUMPDEST DUP1 PUSH1 0x40 MSTORE POP POP POP JUMP JUMPDEST PUSH1 0x0 PUSH2 0x2CFF PUSH2 0x24E6 JUMP JUMPDEST SWAP1 POP PUSH2 0x2D0B DUP3 DUP3 PUSH2 0x2CC4 JUMP JUMPDEST SWAP2 SWAP1 POP JUMP JUMPDEST PUSH1 0x0 PUSH8 0xFFFFFFFFFFFFFFFF DUP3 GT ISZERO PUSH2 0x2D2B JUMPI PUSH2 0x2D2A PUSH2 0x2C95 JUMP JUMPDEST JUMPDEST PUSH2 0x2D34 DUP3 PUSH2 0x25F5 JUMP JUMPDEST SWAP1 POP PUSH1 0x20 DUP2 ADD SWAP1 POP SWAP2 SWAP1 POP JUMP JUMPDEST DUP3 DUP2 DUP4 CALLDATACOPY PUSH1 0x0 DUP4 DUP4 ADD MSTORE POP POP POP JUMP JUMPDEST PUSH1 0x0 PUSH2 0x2D63 PUSH2 0x2D5E DUP5 PUSH2 0x2D10 JUMP JUMPDEST PUSH2 0x2CF5 JUMP JUMPDEST SWAP1 POP DUP3 DUP2 MSTORE PUSH1 0x20 DUP2 ADD DUP5 DUP5 DUP5 ADD GT ISZERO PUSH2 0x2D7F JUMPI PUSH2 0x2D7E PUSH2 0x2C90 JUMP JUMPDEST JUMPDEST PUSH2 0x2D8A DUP5 DUP3 DUP6 PUSH2 0x2D41 JUMP JUMPDEST POP SWAP4 SWAP3 POP POP POP JUMP JUMPDEST PUSH1 0x0 DUP3 PUSH1 0x1F DUP4 ADD SLT PUSH2 0x2DA7 JUMPI PUSH2 0x2DA6 PUSH2 0x2C8B JUMP JUMPDEST JUMPDEST DUP2 CALLDATALOAD PUSH2 0x2DB7 DUP5 DUP3 PUSH1 0x20 DUP7 ADD PUSH2 0x2D50 JUMP JUMPDEST SWAP2 POP POP SWAP3 SWAP2 POP POP JUMP JUMPDEST PUSH2 0x2DC9 DUP2 PUSH2 0x26CD JUMP JUMPDEST DUP2 EQ PUSH2 0x2DD4 JUMPI PUSH1 0x0 DUP1 REVERT JUMPDEST POP JUMP JUMPDEST PUSH1 0x0 DUP2 CALLDATALOAD SWAP1 POP PUSH2 0x2DE6 DUP2 PUSH2 0x2DC0 JUMP JUMPDEST SWAP3 SWAP2 POP POP JUMP JUMPDEST PUSH1 0x4 DUP2 LT PUSH2 0x2DF9 JUMPI PUSH1 0x0 DUP1 REVERT JUMPDEST POP JUMP JUMPDEST PUSH1 0x0 DUP2 CALLDATALOAD SWAP1 POP PUSH2 0x2E0B DUP2 PUSH2 0x2DEC JUMP JUMPDEST SWAP3 SWAP2 POP POP JUMP JUMPDEST PUSH1 0x0 DUP1 PUSH1 0x0 DUP1 PUSH1 0x0 DUP1 PUSH1 0x0 DUP1 PUSH1 0x0 PUSH2 0x120 DUP11 DUP13 SUB SLT ISZERO PUSH2 0x2E34 JUMPI PUSH2 0x2E33 PUSH2 0x24F0 JUMP JUMPDEST JUMPDEST PUSH1 0x0 PUSH2 0x2E42 DUP13 DUP3 DUP14 ADD PUSH2 0x2678 JUMP JUMPDEST SWAP10 POP POP PUSH1 0x20 PUSH2 0x2E53 DUP13 DUP3 DUP14 ADD PUSH2 0x2511 JUMP JUMPDEST SWAP9 POP POP PUSH1 0x40 DUP11 ADD CALLDATALOAD PUSH8 0xFFFFFFFFFFFFFFFF DUP2 GT ISZERO PUSH2 0x2E74 JUMPI PUSH2 0x2E73 PUSH2 0x24F5 JUMP JUMPDEST JUMPDEST PUSH2 0x2E80 DUP13 DUP3 DUP14 ADD PUSH2 0x2D92 JUMP JUMPDEST SWAP8 POP POP PUSH1 0x60 PUSH2 0x2E91 DUP13 DUP3 DUP14 ADD PUSH2 0x2DD7 JUMP JUMPDEST SWAP7 POP POP PUSH1 0x80 PUSH2 0x2EA2 DUP13 DUP3 DUP14 ADD PUSH2 0x2511 JUMP JUMPDEST SWAP6 POP POP PUSH1 0xA0 PUSH2 0x2EB3 DUP13 DUP3 DUP14 ADD PUSH2 0x2511 JUMP JUMPDEST SWAP5 POP POP PUSH1 0xC0 PUSH2 0x2EC4 DUP13 DUP3 DUP14 ADD PUSH2 0x2511 JUMP JUMPDEST SWAP4 POP POP PUSH1 0xE0 PUSH2 0x2ED5 DUP13 DUP3 DUP14 ADD PUSH2 0x2DFC JUMP JUMPDEST SWAP3 POP POP PUSH2 0x100 PUSH2 0x2EE7 DUP13 DUP3 DUP14 ADD PUSH2 0x2511 JUMP JUMPDEST SWAP2 POP POP SWAP3 SWAP6 SWAP9 POP SWAP3 SWAP6 SWAP9 POP SWAP3 SWAP6 SWAP9 JUMP JUMPDEST PUSH1 0x0 DUP1 PUSH1 0x40 DUP4 DUP6 SUB SLT ISZERO PUSH2 0x2F0E JUMPI PUSH2 0x2F0D PUSH2 0x24F0 JUMP JUMPDEST JUMPDEST PUSH1 0x0 PUSH2 0x2F1C DUP6 DUP3 DUP7 ADD PUSH2 0x2678 JUMP JUMPDEST SWAP3 POP POP PUSH1 0x20 PUSH2 0x2F2D DUP6 DUP3 DUP7 ADD PUSH2 0x2678 JUMP JUMPDEST SWAP2 POP POP SWAP3 POP SWAP3 SWAP1 POP JUMP JUMPDEST PUSH1 0x0 DUP1 PUSH1 0x0 DUP1 PUSH1 0x80 DUP6 DUP8 SUB SLT ISZERO PUSH2 0x2F51 JUMPI PUSH2 0x2F50 PUSH2 0x24F0 JUMP JUMPDEST JUMPDEST PUSH1 0x0 PUSH2 0x2F5F DUP8 DUP3 DUP9 ADD PUSH2 0x2678 JUMP JUMPDEST SWAP5 POP POP PUSH1 0x20 PUSH2 0x2F70 DUP8 DUP3 DUP9 ADD PUSH2 0x2511 JUMP JUMPDEST SWAP4 POP POP PUSH1 0x40 PUSH2 0x2F81 DUP8 DUP3 DUP9 ADD PUSH2 0x2678 JUMP JUMPDEST SWAP3 POP POP PUSH1 0x60 PUSH2 0x2F92 DUP8 DUP3 DUP9 ADD PUSH2 0x2511 JUMP JUMPDEST SWAP2 POP POP SWAP3 SWAP6 SWAP2 SWAP5 POP SWAP3 POP JUMP JUMPDEST PUSH1 0x0 DUP1 PUSH1 0x0 DUP1 PUSH1 0x0 DUP1 PUSH1 0xC0 DUP8 DUP10 SUB SLT ISZERO PUSH2 0x2FBB JUMPI PUSH2 0x2FBA PUSH2 0x24F0 JUMP JUMPDEST JUMPDEST PUSH1 0x0 PUSH2 0x2FC9 DUP10 DUP3 DUP11 ADD PUSH2 0x2678 JUMP JUMPDEST SWAP7 POP POP PUSH1 0x20 PUSH2 0x2FDA DUP10 DUP3 DUP11 ADD PUSH2 0x2511 JUMP JUMPDEST SWAP6 POP POP PUSH1 0x40 DUP8 ADD CALLDATALOAD PUSH8 0xFFFFFFFFFFFFFFFF DUP2 GT ISZERO PUSH2 0x2FFB JUMPI PUSH2 0x2FFA PUSH2 0x24F5 JUMP JUMPDEST JUMPDEST PUSH2 0x3007 DUP10 DUP3 DUP11 ADD PUSH2 0x2D92 JUMP JUMPDEST SWAP5 POP POP PUSH1 0x60 PUSH2 0x3018 DUP10 DUP3 DUP11 ADD PUSH2 0x2511 JUMP JUMPDEST SWAP4 POP POP PUSH1 0x80 PUSH2 0x3029 DUP10 DUP3 DUP11 ADD PUSH2 0x2511 JUMP JUMPDEST SWAP3 POP POP PUSH1 0xA0 PUSH2 0x303A DUP10 DUP3 DUP11 ADD PUSH2 0x2511 JUMP JUMPDEST SWAP2 POP POP SWAP3 SWAP6 POP SWAP3 SWAP6 POP SWAP3 SWAP6 JUMP JUMPDEST PUSH32 0x4E487B7100000000000000000000000000000000000000000000000000000000 PUSH1 0x0 MSTORE PUSH1 0x22 PUSH1 0x4 MSTORE PUSH1 0x24 PUSH1 0x0 REVERT JUMPDEST PUSH1 0x0 PUSH1 0x2 DUP3 DIV SWAP1 POP PUSH1 0x1 DUP3 AND DUP1 PUSH2 0x308E JUMPI PUSH1 0x7F DUP3 AND SWAP2 POP JUMPDEST PUSH1 0x20 DUP3 LT DUP2 SUB PUSH2 0x30A1 JUMPI PUSH2 0x30A0 PUSH2 0x3047 JUMP JUMPDEST JUMPDEST POP SWAP2 SWAP1 POP JUMP JUMPDEST PUSH32 0x4E487B7100000000000000000000000000000000000000000000000000000000 PUSH1 0x0 MSTORE PUSH1 0x32 PUSH1 0x4 MSTORE PUSH1 0x24 PUSH1 0x0 REVERT JUMPDEST PUSH32 0x4E487B7100000000000000000000000000000000000000000000000000000000 PUSH1 0x0 MSTORE PUSH1 0x11 PUSH1 0x4 MSTORE PUSH1 0x24 PUSH1 0x0 REVERT JUMPDEST PUSH1 0x0 PUSH2 0x3110 DUP3 PUSH2 0x24B2 JUMP JUMPDEST SWAP2 POP PUSH2 0x311B DUP4 PUSH2 0x24B2 JUMP JUMPDEST SWAP3 POP DUP3 DUP3 SUB SWAP1 POP DUP2 DUP2 GT ISZERO PUSH2 0x3133 JUMPI PUSH2 0x3132 PUSH2 0x30D6 JUMP JUMPDEST JUMPDEST SWAP3 SWAP2 POP POP JUMP JUMPDEST PUSH1 0x0 PUSH2 0x3144 DUP3 PUSH2 0x24B2 JUMP JUMPDEST SWAP2 POP PUSH2 0x314F DUP4 PUSH2 0x24B2 JUMP JUMPDEST SWAP3 POP DUP3 DUP3 ADD SWAP1 POP DUP1 DUP3 GT ISZERO PUSH2 0x3167 JUMPI PUSH2 0x3166 PUSH2 0x30D6 JUMP JUMPDEST JUMPDEST SWAP3 SWAP2 POP POP JUMP JUMPDEST PUSH1 0x0 DUP2 SWAP1 POP SWAP3 SWAP2 POP POP JUMP JUMPDEST PUSH32 0x73656E7400000000000000000000000000000000000000000000000000000000 PUSH1 0x0 DUP3 ADD MSTORE POP JUMP JUMPDEST PUSH1 0x0 PUSH2 0x31AE PUSH1 0x4 DUP4 PUSH2 0x316D JUMP JUMPDEST SWAP2 POP PUSH2 0x31B9 DUP3 PUSH2 0x3178 JUMP JUMPDEST PUSH1 0x4 DUP3 ADD SWAP1 POP SWAP2 SWAP1 POP JUMP JUMPDEST PUSH1 0x0 PUSH2 0x31CF DUP3 PUSH2 0x31A1 JUMP JUMPDEST SWAP2 POP DUP2 SWAP1 POP SWAP2 SWAP1 POP JUMP JUMPDEST PUSH32 0x4661696C656420746F20636F6D706C6574650000000000000000000000000000 PUSH1 0x0 DUP3 ADD MSTORE POP JUMP JUMPDEST PUSH1 0x0 PUSH2 0x320F PUSH1 0x12 DUP4 PUSH2 0x25BA JUMP JUMPDEST SWAP2 POP PUSH2 0x321A DUP3 PUSH2 0x31D9 JUMP JUMPDEST PUSH1 0x20 DUP3 ADD SWAP1 POP SWAP2 SWAP1 POP JUMP JUMPDEST PUSH1 0x0 PUSH1 0x20 DUP3 ADD SWAP1 POP DUP2 DUP2 SUB PUSH1 0x0 DUP4 ADD MSTORE PUSH2 0x323E DUP2 PUSH2 0x3202 JUMP JUMPDEST SWAP1 POP SWAP2 SWAP1 POP JUMP JUMPDEST PUSH32 0x496E73756666696369656E7420696E76656E746F727900000000000000000000 PUSH1 0x0 DUP3 ADD MSTORE POP JUMP JUMPDEST PUSH1 0x0 PUSH2 0x327B PUSH1 0x16 DUP4 PUSH2 0x25BA JUMP JUMPDEST SWAP2 POP PUSH2 0x3286 DUP3 PUSH2 0x3245 JUMP JUMPDEST PUSH1 0x20 DUP3 ADD SWAP1 POP SWAP2 SWAP1 POP JUMP JUMPDEST PUSH1 0x0 PUSH1 0x20 DUP3 ADD SWAP1 POP DUP2 DUP2 SUB PUSH1 0x0 DUP4 ADD MSTORE PUSH2 0x32AA DUP2 PUSH2 0x326E JUMP JUMPDEST SWAP1 POP SWAP2 SWAP1 POP JUMP JUMPDEST PUSH1 0x0 PUSH1 0x60 DUP3 ADD SWAP1 POP PUSH2 0x32C6 PUSH1 0x0 DUP4 ADD DUP7 PUSH2 0x2585 JUMP JUMPDEST PUSH2 0x32D3 PUSH1 0x20 DUP4 ADD DUP6 PUSH2 0x24BC JUMP JUMPDEST PUSH2 0x32E0 PUSH1 0x40 DUP4 ADD DUP5 PUSH2 0x24BC JUMP JUMPDEST SWAP5 SWAP4 POP POP POP POP JUMP JUMPDEST PUSH1 0x0 DUP2 SWAP1 POP DUP2 PUSH1 0x0 MSTORE PUSH1 0x20 PUSH1 0x0 KECCAK256 SWAP1 POP SWAP2 SWAP1 POP JUMP JUMPDEST PUSH1 0x0 PUSH1 0x20 PUSH1 0x1F DUP4 ADD DIV SWAP1 POP SWAP2 SWAP1 POP JUMP JUMPDEST PUSH1 0x0 DUP3 DUP3 SHL SWAP1 POP SWAP3 SWAP2 POP POP JUMP JUMPDEST PUSH1 0x0 PUSH1 0x8 DUP4 MUL PUSH2 0x334A PUSH32 0xFFFFFFFFFFFFFFFFFFFFFFFFFFFFFFFFFFFFFFFFFFFFFFFFFFFFFFFFFFFFFFFF DUP3 PUSH2 0x330D JUMP JUMPDEST PUSH2 0x3354 DUP7 DUP4 PUSH2 0x330D JUMP JUMPDEST SWAP6 POP DUP1 NOT DUP5 AND SWAP4 POP DUP1 DUP7 AND DUP5 OR SWAP3 POP POP POP SWAP4 SWAP3 POP POP POP JUMP JUMPDEST PUSH1 0x0 DUP2 SWAP1 POP SWAP2 SWAP1 POP JUMP JUMPDEST PUSH1 0x0 PUSH2 0x3391 PUSH2 0x338C PUSH2 0x3387 DUP5 PUSH2 0x24B2 JUMP JUMPDEST PUSH2 0x336C JUMP JUMPDEST PUSH2 0x24B2 JUMP JUMPDEST SWAP1 POP SWAP2 SWAP1 POP JUMP JUMPDEST PUSH1 0x0 DUP2 SWAP1 POP SWAP2 SWAP1 POP JUMP JUMPDEST PUSH2 0x33AB DUP4 PUSH2 0x3376 JUMP JUMPDEST PUSH2 0x33BF PUSH2 0x33B7 DUP3 PUSH2 0x3398 JUMP JUMPDEST DUP5 DUP5 SLOAD PUSH2 0x331A JUMP JUMPDEST DUP3 SSTORE POP POP POP POP JUMP JUMPDEST PUSH1 0x0 SWAP1 JUMP JUMPDEST PUSH2 0x33D4 PUSH2 0x33C7 JUMP JUMPDEST PUSH2 0x33DF DUP2 DUP5 DUP5 PUSH2 0x33A2 JUMP JUMPDEST POP POP POP JUMP JUMPDEST JUMPDEST DUP2 DUP2 LT ISZERO PUSH2 0x3403 JUMPI PUSH2 0x33F8 PUSH1 0x0 DUP3 PUSH2 0x33CC JUMP JUMPDEST PUSH1 0x1 DUP2 ADD SWAP1 POP PUSH2 0x33E5 JUMP JUMPDEST POP POP JUMP JUMPDEST PUSH1 0x1F DUP3 GT ISZERO PUSH2 0x3448 JUMPI PUSH2 0x3419 DUP2 PUSH2 0x32E8 JUMP JUMPDEST PUSH2 0x3422 DUP5 PUSH2 0x32FD JUMP JUMPDEST DUP2 ADD PUSH1 0x20 DUP6 LT ISZERO PUSH2 0x3431 JUMPI DUP2 SWAP1 POP JUMPDEST PUSH2 0x3445 PUSH2 0x343D DUP6 PUSH2 0x32FD JUMP JUMPDEST DUP4 ADD DUP3 PUSH2 0x33E4 JUMP JUMPDEST POP POP JUMPDEST POP POP POP JUMP JUMPDEST PUSH1 0x0 DUP3 DUP3 SHR SWAP1 POP SWAP3 SWAP2 POP POP JUMP JUMPDEST PUSH1 0x0 PUSH2 0x346B PUSH1 0x0 NOT DUP5 PUSH1 0x8 MUL PUSH2 0x344D JUMP JUMPDEST NOT DUP1 DUP4 AND SWAP2 POP POP SWAP3 SWAP2 POP POP JUMP JUMPDEST PUSH1 0x0 PUSH2 0x3484 DUP4 DUP4 PUSH2 0x345A JUMP JUMPDEST SWAP2 POP DUP3 PUSH1 0x2 MUL DUP3 OR SWAP1 POP SWAP3 SWAP2 POP POP JUMP JUMPDEST PUSH2 0x349D DUP3 PUSH2 0x2703 JUMP JUMPDEST PUSH8 0xFFFFFFFFFFFFFFFF DUP2 GT ISZERO PUSH2 0x34B6 JUMPI PUSH2 0x34B5 PUSH2 0x2C95 JUMP JUMPDEST JUMPDEST PUSH2 0x34C0 DUP3 SLOAD PUSH2 0x3076 JUMP JUMPDEST PUSH2 0x34CB DUP3 DUP3 DUP6 PUSH2 0x3407 JUMP JUMPDEST PUSH1 0x0 PUSH1 0x20 SWAP1 POP PUSH1 0x1F DUP4 GT PUSH1 0x1 DUP2 EQ PUSH2 0x34FE JUMPI PUSH1 0x0 DUP5 ISZERO PUSH2 0x34EC JUMPI DUP3 DUP8 ADD MLOAD SWAP1 POP JUMPDEST PUSH2 0x34F6 DUP6 DUP3 PUSH2 0x3478 JUMP JUMPDEST DUP7 SSTORE POP PUSH2 0x355E JUMP JUMPDEST PUSH1 0x1F NOT DUP5 AND PUSH2 0x350C DUP7 PUSH2 0x32E8 JUMP JUMPDEST PUSH1 0x0 JUMPDEST DUP3 DUP2 LT ISZERO PUSH2 0x3534 JUMPI DUP5 DUP10 ADD MLOAD DUP3 SSTORE PUSH1 0x1 DUP3 ADD SWAP2 POP PUSH1 0x20 DUP6 ADD SWAP5 POP PUSH1 0x20 DUP2 ADD SWAP1 POP PUSH2 0x350F JUMP JUMPDEST DUP7 DUP4 LT ISZERO PUSH2 0x3551 JUMPI DUP5 DUP10 ADD MLOAD PUSH2 0x354D PUSH1 0x1F DUP10 AND DUP3 PUSH2 0x345A JUMP JUMPDEST DUP4 SSTORE POP JUMPDEST PUSH1 0x1 PUSH1 0x2 DUP9 MUL ADD DUP9 SSTORE POP POP POP JUMPDEST POP POP POP POP POP POP JUMP JUMPDEST PUSH32 0x596F757220696E76656E746F727920697320696E73756666696369656E740000 PUSH1 0x0 DUP3 ADD MSTORE POP JUMP JUMPDEST PUSH1 0x0 PUSH2 0x359C PUSH1 0x1E DUP4 PUSH2 0x25BA JUMP JUMPDEST SWAP2 POP PUSH2 0x35A7 DUP3 PUSH2 0x3566 JUMP JUMPDEST PUSH1 0x20 DUP3 ADD SWAP1 POP SWAP2 SWAP1 POP JUMP JUMPDEST PUSH1 0x0 PUSH1 0x20 DUP3 ADD SWAP1 POP DUP2 DUP2 SUB PUSH1 0x0 DUP4 ADD MSTORE PUSH2 0x35CB DUP2 PUSH2 0x358F JUMP JUMPDEST SWAP1 POP SWAP2 SWAP1 POP JUMP INVALID LOG2 PUSH5 0x6970667358 0x22 SLT KECCAK256 CODESIZE LOG0 0xF7 DUP4 SWAP3 0xA8 PUSH1 0x6E 0xE PUSH28 0x6E6908034D9BF764DBBBB9975D1B308FB51F770FDA3064736F6C6343 STOP ADDMOD SGT STOP CALLER "
				},
				"gasEstimates": {
					"creation": {
						"codeDepositCost": "2766400",
						"executionCost": "infinite",
						"totalCost": "infinite"
					},
					"external": {
						"Awaitingpayment(address)": "2903",
						"Balences()": "2593",
						"Cashwithdrawal(uint256,uint256)": "infinite",
						"CustomerregistrationS(address,uint256,bytes,uint256,uint256,uint256)": "infinite",
						"Depvosit(uint256)": "infinite",
						"Moneytransfer(address,uint256,address,uint256)": "infinite",
						"Operator(uint256,address)": "3153",
						"Persons(uint256)": "infinite",
						"allowance(address,address)": "infinite",
						"approve(address,uint256)": "infinite",
						"balanceOf(address)": "2930",
						"createtransation(address,uint256,bytes,bool,uint256,uint256,uint256,uint8,uint256)": "infinite",
						"decimals()": "389",
						"decreaseAllowance(address,uint256)": "infinite",
						"getalltransactions(uint256)": "infinite",
						"gettransaction()": "infinite",
						"increaseAllowance(address,uint256)": "infinite",
						"isconfirmed(uint256,address)": "3154",
						"isowner(address)": "2935",
						"lending(uint256,uint256)": "infinite",
						"name()": "infinite",
						"ncr()": "2540",
						"owners(uint256)": "5003",
						"symbol()": "infinite",
						"totalSupply()": "2483",
						"transactions(uint256)": "infinite",
						"transfer(address,uint256)": "infinite",
						"transferFrom(address,address,uint256)": "infinite"
					}
				},
				"methodIdentifiers": {
					"Awaitingpayment(address)": "a80dfb5c",
					"Balences()": "ba88c967",
					"Cashwithdrawal(uint256,uint256)": "4c31f249",
					"CustomerregistrationS(address,uint256,bytes,uint256,uint256,uint256)": "f1f00acc",
					"Depvosit(uint256)": "bb68796b",
					"Moneytransfer(address,uint256,address,uint256)": "ee51ba59",
					"Operator(uint256,address)": "ee3aba3b",
					"Persons(uint256)": "9a887f58",
					"allowance(address,address)": "dd62ed3e",
					"approve(address,uint256)": "095ea7b3",
					"balanceOf(address)": "70a08231",
					"createtransation(address,uint256,bytes,bool,uint256,uint256,uint256,uint8,uint256)": "b5685f6c",
					"decimals()": "313ce567",
					"decreaseAllowance(address,uint256)": "a457c2d7",
					"getalltransactions(uint256)": "228f1173",
					"gettransaction()": "8f14f715",
					"increaseAllowance(address,uint256)": "39509351",
					"isconfirmed(uint256,address)": "4c9c7af3",
					"isowner(address)": "45c9711f",
					"lending(uint256,uint256)": "2b29fca1",
					"name()": "06fdde03",
					"ncr()": "738dbfa6",
					"owners(uint256)": "025e7c27",
					"symbol()": "95d89b41",
					"totalSupply()": "18160ddd",
					"transactions(uint256)": "9ace38c2",
					"transfer(address,uint256)": "a9059cbb",
					"transferFrom(address,address,uint256)": "23b872dd"
				}
			},
			"storageLayout": {
				"storage": [
					{
						"astId": 905,
						"contract": "bank1.sol:bank2",
						"label": "_balances",
						"offset": 0,
						"slot": "0",
						"type": "t_mapping(t_address,t_uint256)"
					},
					{
						"astId": 911,
						"contract": "bank1.sol:bank2",
						"label": "_allowances",
						"offset": 0,
						"slot": "1",
						"type": "t_mapping(t_address,t_mapping(t_address,t_uint256))"
					},
					{
						"astId": 913,
						"contract": "bank1.sol:bank2",
						"label": "_totalSupply",
						"offset": 0,
						"slot": "2",
						"type": "t_uint256"
					},
					{
						"astId": 915,
						"contract": "bank1.sol:bank2",
						"label": "_name",
						"offset": 0,
						"slot": "3",
						"type": "t_string_storage"
					},
					{
						"astId": 917,
						"contract": "bank1.sol:bank2",
						"label": "_symbol",
						"offset": 0,
						"slot": "4",
						"type": "t_string_storage"
					},
					{
						"astId": 48,
						"contract": "bank1.sol:bank2",
						"label": "isowner",
						"offset": 0,
						"slot": "5",
						"type": "t_mapping(t_address,t_bool)"
					},
					{
						"astId": 52,
						"contract": "bank1.sol:bank2",
						"label": "balance",
						"offset": 0,
						"slot": "6",
						"type": "t_mapping(t_address,t_uint256)"
					},
					{
						"astId": 56,
						"contract": "bank1.sol:bank2",
						"label": "Awaitingpayment",
						"offset": 0,
						"slot": "7",
						"type": "t_mapping(t_address,t_uint256)"
					},
					{
						"astId": 62,
						"contract": "bank1.sol:bank2",
						"label": "Operator",
						"offset": 0,
						"slot": "8",
						"type": "t_mapping(t_uint256,t_mapping(t_address,t_bool))"
					},
					{
						"astId": 68,
						"contract": "bank1.sol:bank2",
						"label": "isconfirmed",
						"offset": 0,
						"slot": "9",
						"type": "t_mapping(t_uint256,t_mapping(t_address,t_bool))"
					},
					{
						"astId": 71,
						"contract": "bank1.sol:bank2",
						"label": "owners",
						"offset": 0,
						"slot": "10",
						"type": "t_array(t_address)dyn_storage"
					},
					{
						"astId": 75,
						"contract": "bank1.sol:bank2",
						"label": "transactions",
						"offset": 0,
						"slot": "11",
						"type": "t_array(t_struct(transaction)106_storage)dyn_storage"
					},
					{
						"astId": 79,
						"contract": "bank1.sol:bank2",
						"label": "Persons",
						"offset": 0,
						"slot": "12",
						"type": "t_array(t_struct(person)117_storage)dyn_storage"
					},
					{
						"astId": 81,
						"contract": "bank1.sol:bank2",
						"label": "ncr",
						"offset": 0,
						"slot": "13",
						"type": "t_uint256"
					}
				],
				"types": {
					"t_address": {
						"encoding": "inplace",
						"label": "address",
						"numberOfBytes": "20"
					},
					"t_array(t_address)dyn_storage": {
						"base": "t_address",
						"encoding": "dynamic_array",
						"label": "address[]",
						"numberOfBytes": "32"
					},
					"t_array(t_struct(person)117_storage)dyn_storage": {
						"base": "t_struct(person)117_storage",
						"encoding": "dynamic_array",
						"label": "struct bank2.person[]",
						"numberOfBytes": "32"
					},
					"t_array(t_struct(transaction)106_storage)dyn_storage": {
						"base": "t_struct(transaction)106_storage",
						"encoding": "dynamic_array",
						"label": "struct bank2.transaction[]",
						"numberOfBytes": "32"
					},
					"t_bool": {
						"encoding": "inplace",
						"label": "bool",
						"numberOfBytes": "1"
					},
					"t_bytes_storage": {
						"encoding": "bytes",
						"label": "bytes",
						"numberOfBytes": "32"
					},
					"t_enum(status)86": {
						"encoding": "inplace",
						"label": "enum bank2.status",
						"numberOfBytes": "1"
					},
					"t_mapping(t_address,t_bool)": {
						"encoding": "mapping",
						"key": "t_address",
						"label": "mapping(address => bool)",
						"numberOfBytes": "32",
						"value": "t_bool"
					},
					"t_mapping(t_address,t_mapping(t_address,t_uint256))": {
						"encoding": "mapping",
						"key": "t_address",
						"label": "mapping(address => mapping(address => uint256))",
						"numberOfBytes": "32",
						"value": "t_mapping(t_address,t_uint256)"
					},
					"t_mapping(t_address,t_uint256)": {
						"encoding": "mapping",
						"key": "t_address",
						"label": "mapping(address => uint256)",
						"numberOfBytes": "32",
						"value": "t_uint256"
					},
					"t_mapping(t_uint256,t_mapping(t_address,t_bool))": {
						"encoding": "mapping",
						"key": "t_uint256",
						"label": "mapping(uint256 => mapping(address => bool))",
						"numberOfBytes": "32",
						"value": "t_mapping(t_address,t_bool)"
					},
					"t_string_storage": {
						"encoding": "bytes",
						"label": "string",
						"numberOfBytes": "32"
					},
					"t_struct(person)117_storage": {
						"encoding": "inplace",
						"label": "struct bank2.person",
						"members": [
							{
								"astId": 108,
								"contract": "bank1.sol:bank2",
								"label": "name",
								"offset": 0,
								"slot": "0",
								"type": "t_string_storage"
							},
							{
								"astId": 110,
								"contract": "bank1.sol:bank2",
								"label": "nn",
								"offset": 0,
								"slot": "1",
								"type": "t_uint256"
							},
							{
								"astId": 112,
								"contract": "bank1.sol:bank2",
								"label": "Account",
								"offset": 0,
								"slot": "2",
								"type": "t_uint256"
							},
							{
								"astId": 114,
								"contract": "bank1.sol:bank2",
								"label": "owner",
								"offset": 0,
								"slot": "3",
								"type": "t_address"
							},
							{
								"astId": 116,
								"contract": "bank1.sol:bank2",
								"label": "amount",
								"offset": 0,
								"slot": "4",
								"type": "t_uint256"
							}
						],
						"numberOfBytes": "160"
					},
					"t_struct(transaction)106_storage": {
						"encoding": "inplace",
						"label": "struct bank2.transaction",
						"members": [
							{
								"astId": 88,
								"contract": "bank1.sol:bank2",
								"label": "to",
								"offset": 0,
								"slot": "0",
								"type": "t_address"
							},
							{
								"astId": 90,
								"contract": "bank1.sol:bank2",
								"label": "value",
								"offset": 0,
								"slot": "1",
								"type": "t_uint256"
							},
							{
								"astId": 92,
								"contract": "bank1.sol:bank2",
								"label": "data",
								"offset": 0,
								"slot": "2",
								"type": "t_bytes_storage"
							},
							{
								"astId": 94,
								"contract": "bank1.sol:bank2",
								"label": "Executed",
								"offset": 0,
								"slot": "3",
								"type": "t_bool"
							},
							{
								"astId": 96,
								"contract": "bank1.sol:bank2",
								"label": "nc",
								"offset": 0,
								"slot": "4",
								"type": "t_uint256"
							},
							{
								"astId": 98,
								"contract": "bank1.sol:bank2",
								"label": "Operator",
								"offset": 0,
								"slot": "5",
								"type": "t_uint256"
							},
							{
								"astId": 100,
								"contract": "bank1.sol:bank2",
								"label": "txIndex",
								"offset": 0,
								"slot": "6",
								"type": "t_uint256"
							},
							{
								"astId": 103,
								"contract": "bank1.sol:bank2",
								"label": "st",
								"offset": 0,
								"slot": "7",
								"type": "t_enum(status)86"
							},
							{
								"astId": 105,
								"contract": "bank1.sol:bank2",
								"label": "time",
								"offset": 0,
								"slot": "8",
								"type": "t_uint256"
							}
						],
						"numberOfBytes": "288"
					},
					"t_uint256": {
						"encoding": "inplace",
						"label": "uint256",
						"numberOfBytes": "32"
					}
				}
			},
			"userdoc": {
				"kind": "user",
				"methods": {},
				"version": 1
			}
		}
	}
}