{
	"msw/msw1.sol": {
		"msw": {
			"abi": [
				{
					"inputs": [
						{
							"internalType": "address[]",
							"name": "_owners",
							"type": "address[]"
						},
						{
							"internalType": "uint256",
							"name": "_ncr",
							"type": "uint256"
						},
						{
							"internalType": "string",
							"name": "_password",
							"type": "string"
						}
					],
					"stateMutability": "nonpayable",
					"type": "constructor"
				},
				{
					"anonymous": false,
					"inputs": [
						{
							"indexed": true,
							"internalType": "address",
							"name": "sender",
							"type": "address"
						},
						{
							"indexed": false,
							"internalType": "uint256",
							"name": "amount",
							"type": "uint256"
						},
						{
							"indexed": false,
							"internalType": "uint256",
							"name": "balance",
							"type": "uint256"
						}
					],
					"name": "Deposit",
					"type": "event"
				},
				{
					"anonymous": false,
					"inputs": [
						{
							"indexed": true,
							"internalType": "address",
							"name": "owner",
							"type": "address"
						},
						{
							"indexed": true,
							"internalType": "uint256",
							"name": "txindex",
							"type": "uint256"
						}
					],
					"name": "Executetransaction",
					"type": "event"
				},
				{
					"anonymous": false,
					"inputs": [
						{
							"indexed": true,
							"internalType": "address",
							"name": "owner",
							"type": "address"
						},
						{
							"indexed": true,
							"internalType": "uint256",
							"name": "txindex",
							"type": "uint256"
						}
					],
					"name": "Revokecanfirmation",
					"type": "event"
				},
				{
					"anonymous": false,
					"inputs": [
						{
							"indexed": true,
							"internalType": "address",
							"name": "owner",
							"type": "address"
						},
						{
							"indexed": true,
							"internalType": "uint256",
							"name": "txindex",
							"type": "uint256"
						}
					],
					"name": "confirmtransaction",
					"type": "event"
				},
				{
					"anonymous": false,
					"inputs": [
						{
							"indexed": true,
							"internalType": "address",
							"name": "owner",
							"type": "address"
						},
						{
							"indexed": true,
							"internalType": "uint256",
							"name": "txindex",
							"type": "uint256"
						},
						{
							"indexed": true,
							"internalType": "address",
							"name": "to",
							"type": "address"
						}
					],
					"name": "submittransaction",
					"type": "event"
				},
				{
					"inputs": [
						{
							"internalType": "uint256",
							"name": "_txindex",
							"type": "uint256"
						}
					],
					"name": "confirmtransactions",
					"outputs": [],
					"stateMutability": "nonpayable",
					"type": "function"
				},
				{
					"inputs": [
						{
							"internalType": "uint256",
							"name": "_txindex",
							"type": "uint256"
						},
						{
							"internalType": "string",
							"name": "pass",
							"type": "string"
						}
					],
					"name": "executetransaction",
					"outputs": [],
					"stateMutability": "nonpayable",
					"type": "function"
				},
				{
					"inputs": [
						{
							"internalType": "uint256",
							"name": "_txindex",
							"type": "uint256"
						}
					],
					"name": "gettransaction",
					"outputs": [
						{
							"internalType": "address",
							"name": "",
							"type": "address"
						},
						{
							"internalType": "uint256",
							"name": "",
							"type": "uint256"
						},
						{
							"internalType": "bytes",
							"name": "",
							"type": "bytes"
						},
						{
							"internalType": "bool",
							"name": "",
							"type": "bool"
						},
						{
							"internalType": "uint256",
							"name": "",
							"type": "uint256"
						}
					],
					"stateMutability": "view",
					"type": "function"
				},
				{
					"inputs": [
						{
							"internalType": "uint256",
							"name": "",
							"type": "uint256"
						},
						{
							"internalType": "address",
							"name": "",
							"type": "address"
						}
					],
					"name": "isconfirmed",
					"outputs": [
						{
							"internalType": "bool",
							"name": "",
							"type": "bool"
						}
					],
					"stateMutability": "view",
					"type": "function"
				},
				{
					"inputs": [
						{
							"internalType": "address",
							"name": "",
							"type": "address"
						}
					],
					"name": "isowner",
					"outputs": [
						{
							"internalType": "bool",
							"name": "",
							"type": "bool"
						}
					],
					"stateMutability": "view",
					"type": "function"
				},
				{
					"inputs": [],
					"name": "ncr",
					"outputs": [
						{
							"internalType": "uint256",
							"name": "",
							"type": "uint256"
						}
					],
					"stateMutability": "view",
					"type": "function"
				},
				{
					"inputs": [
						{
							"internalType": "uint256",
							"name": "",
							"type": "uint256"
						}
					],
					"name": "owners",
					"outputs": [
						{
							"internalType": "address",
							"name": "",
							"type": "address"
						}
					],
					"stateMutability": "view",
					"type": "function"
				},
				{
					"inputs": [
						{
							"internalType": "uint256",
							"name": "_txindex",
							"type": "uint256"
						}
					],
					"name": "revokecanfirmation",
					"outputs": [],
					"stateMutability": "nonpayable",
					"type": "function"
				},
				{
					"inputs": [
						{
							"internalType": "address",
							"name": "_to",
							"type": "address"
						},
						{
							"internalType": "uint256",
							"name": "_value",
							"type": "uint256"
						},
						{
							"internalType": "bytes",
							"name": "_data",
							"type": "bytes"
						}
					],
					"name": "submittransactions",
					"outputs": [],
					"stateMutability": "payable",
					"type": "function"
				},
				{
					"inputs": [
						{
							"internalType": "uint256",
							"name": "",
							"type": "uint256"
						}
					],
					"name": "transactions",
					"outputs": [
						{
							"internalType": "address",
							"name": "to",
							"type": "address"
						},
						{
							"internalType": "uint256",
							"name": "value",
							"type": "uint256"
						},
						{
							"internalType": "bytes",
							"name": "data",
							"type": "bytes"
						},
						{
							"internalType": "bool",
							"name": "Executed",
							"type": "bool"
						},
						{
							"internalType": "uint256",
							"name": "nc",
							"type": "uint256"
						},
						{
							"internalType": "enum msw.status",
							"name": "st",
							"type": "uint8"
						}
					],
					"stateMutability": "view",
					"type": "function"
				},
				{
					"stateMutability": "payable",
					"type": "receive"
				}
			],
			"devdoc": {
				"kind": "dev",
				"methods": {},
				"version": 1
			},
			"evm": {
				"assembly": "    /* \"msw/msw1.sol\":402:3915  contract msw {... */\n  mstore(0x40, 0x80)\n    /* \"msw/msw1.sol\":1556:2015  constructor(address [] memory _owners , uint _ncr , string memory _password){... */\n  callvalue\n  dup1\n  iszero\n  tag_1\n  jumpi\n  0x00\n  dup1\n  revert\ntag_1:\n  pop\n  mload(0x40)\n  sub(codesize, bytecodeSize)\n  dup1\n  bytecodeSize\n  dup4\n  codecopy\n  dup2\n  dup2\n  add\n  0x40\n  mstore\n  dup2\n  add\n  swap1\n  tag_2\n  swap2\n  swap1\n  tag_3\n  jump\t// in\ntag_2:\n    /* \"msw/msw1.sol\":1667:1668  0 */\n  0x00\n    /* \"msw/msw1.sol\":1649:1656  _owners */\n  dup4\n    /* \"msw/msw1.sol\":1649:1664  _owners .length */\n  mload\n    /* \"msw/msw1.sol\":1649:1668  _owners .length > 0 */\n  gt\n    /* \"msw/msw1.sol\":1639:1670  require ( _owners .length > 0 ) */\n  tag_6\n  jumpi\n  0x00\n  dup1\n  revert\ntag_6:\n    /* \"msw/msw1.sol\":1693:1700  _owners */\n  dup3\n    /* \"msw/msw1.sol\":1693:1707  _owners.length */\n  mload\n    /* \"msw/msw1.sol\":1685:1689  _ncr */\n  dup3\n    /* \"msw/msw1.sol\":1685:1707  _ncr <= _owners.length */\n  gt\n  iszero\n    /* \"msw/msw1.sol\":1685:1719  _ncr <= _owners.length && _ncr > 0 */\n  dup1\n  iszero\n  tag_7\n  jumpi\n  pop\n    /* \"msw/msw1.sol\":1718:1719  0 */\n  0x00\n    /* \"msw/msw1.sol\":1711:1715  _ncr */\n  dup3\n    /* \"msw/msw1.sol\":1711:1719  _ncr > 0 */\n  gt\n    /* \"msw/msw1.sol\":1685:1719  _ncr <= _owners.length && _ncr > 0 */\ntag_7:\n    /* \"msw/msw1.sol\":1677:1720  require(_ncr <= _owners.length && _ncr > 0) */\n  tag_8\n  jumpi\n  0x00\n  dup1\n  revert\ntag_8:\n    /* \"msw/msw1.sol\":1731:1737  uint i */\n  0x00\n    /* \"msw/msw1.sol\":1727:1993  for(uint i = 0 ; i < _owners.length ; i ++){... */\ntag_9:\n    /* \"msw/msw1.sol\":1748:1755  _owners */\n  dup4\n    /* \"msw/msw1.sol\":1748:1762  _owners.length */\n  mload\n    /* \"msw/msw1.sol\":1744:1745  i */\n  dup2\n    /* \"msw/msw1.sol\":1744:1762  i < _owners.length */\n  lt\n    /* \"msw/msw1.sol\":1727:1993  for(uint i = 0 ; i < _owners.length ; i ++){... */\n  iszero\n  tag_10\n  jumpi\n    /* \"msw/msw1.sol\":1781:1794  address owner */\n  0x00\n    /* \"msw/msw1.sol\":1797:1804  _owners */\n  dup5\n    /* \"msw/msw1.sol\":1806:1807  i */\n  dup3\n    /* \"msw/msw1.sol\":1797:1808  _owners [i] */\n  dup2\n  mload\n  dup2\n  lt\n  tag_12\n  jumpi\n  tag_13\n  tag_14\n  jump\t// in\ntag_13:\ntag_12:\n  0x20\n  mul\n  0x20\n  add\n  add\n  mload\n    /* \"msw/msw1.sol\":1781:1808  address owner = _owners [i] */\n  swap1\n  pop\n    /* \"msw/msw1.sol\":1847:1848  0 */\n  0x00\n    /* \"msw/msw1.sol\":1829:1849  owner != address (0) */\n  0xffffffffffffffffffffffffffffffffffffffff\n  and\n    /* \"msw/msw1.sol\":1829:1834  owner */\n  dup2\n    /* \"msw/msw1.sol\":1829:1849  owner != address (0) */\n  0xffffffffffffffffffffffffffffffffffffffff\n  and\n  sub\n    /* \"msw/msw1.sol\":1820:1850  require (owner != address (0)) */\n  tag_15\n  jumpi\n  0x00\n  dup1\n  revert\ntag_15:\n    /* \"msw/msw1.sol\":1872:1879  isowner */\n  0x01\n    /* \"msw/msw1.sol\":1872:1887  isowner [owner] */\n  0x00\n    /* \"msw/msw1.sol\":1881:1886  owner */\n  dup3\n    /* \"msw/msw1.sol\":1872:1887  isowner [owner] */\n  0xffffffffffffffffffffffffffffffffffffffff\n  and\n  0xffffffffffffffffffffffffffffffffffffffff\n  and\n  dup2\n  mstore\n  0x20\n  add\n  swap1\n  dup2\n  mstore\n  0x20\n  add\n  0x00\n  keccak256\n  0x00\n  swap1\n  sload\n  swap1\n  0x0100\n  exp\n  swap1\n  div\n  0xff\n  and\n    /* \"msw/msw1.sol\":1870:1887  ! isowner [owner] */\n  iszero\n    /* \"msw/msw1.sol\":1861:1888  require (! isowner [owner]) */\n  tag_16\n  jumpi\n  0x00\n  dup1\n  revert\ntag_16:\n    /* \"msw/msw1.sol\":1917:1921  true */\n  0x01\n    /* \"msw/msw1.sol\":1899:1906  isowner */\n  dup1\n    /* \"msw/msw1.sol\":1899:1914  isowner [owner] */\n  0x00\n    /* \"msw/msw1.sol\":1908:1913  owner */\n  dup4\n    /* \"msw/msw1.sol\":1899:1914  isowner [owner] */\n  0xffffffffffffffffffffffffffffffffffffffff\n  and\n  0xffffffffffffffffffffffffffffffffffffffff\n  and\n  dup2\n  mstore\n  0x20\n  add\n  swap1\n  dup2\n  mstore\n  0x20\n  add\n  0x00\n  keccak256\n  0x00\n    /* \"msw/msw1.sol\":1899:1921  isowner [owner] = true */\n  0x0100\n  exp\n  dup2\n  sload\n  dup2\n  0xff\n  mul\n  not\n  and\n  swap1\n  dup4\n  iszero\n  iszero\n  mul\n  or\n  swap1\n  sstore\n  pop\n    /* \"msw/msw1.sol\":1934:1940  owners */\n  0x00\n    /* \"msw/msw1.sol\":1946:1951  owner */\n  dup2\n    /* \"msw/msw1.sol\":1934:1952  owners.push(owner) */\n  swap1\n  dup1\n  0x01\n  dup2\n  sload\n  add\n  dup1\n  dup3\n  sstore\n  dup1\n  swap2\n  pop\n  pop\n  0x01\n  swap1\n  sub\n  swap1\n  0x00\n  mstore\n  keccak256(0x00, 0x20)\n  add\n  0x00\n  swap1\n  swap2\n  swap1\n  swap2\n  swap1\n  swap2\n  0x0100\n  exp\n  dup2\n  sload\n  dup2\n  0xffffffffffffffffffffffffffffffffffffffff\n  mul\n  not\n  and\n  swap1\n  dup4\n  0xffffffffffffffffffffffffffffffffffffffff\n  and\n  mul\n  or\n  swap1\n  sstore\n  pop\n    /* \"msw/msw1.sol\":1974:1983  _password */\n  dup3\n    /* \"msw/msw1.sol\":1963:1971  password */\n  0x03\n    /* \"msw/msw1.sol\":1963:1983  password = _password */\n  swap1\n  dup2\n  tag_18\n  swap2\n  swap1\n  tag_19\n  jump\t// in\ntag_18:\n  pop\n    /* \"msw/msw1.sol\":1770:1993  {... */\n  pop\n    /* \"msw/msw1.sol\":1765:1769  i ++ */\n  dup1\n  dup1\n  tag_20\n  swap1\n  tag_21\n  jump\t// in\ntag_20:\n  swap2\n  pop\n  pop\n    /* \"msw/msw1.sol\":1727:1993  for(uint i = 0 ; i < _owners.length ; i ++){... */\n  jump(tag_9)\ntag_10:\n  pop\n    /* \"msw/msw1.sol\":2005:2009  _ncr */\n  dup2\n    /* \"msw/msw1.sol\":1999:2002  ncr */\n  0x02\n    /* \"msw/msw1.sol\":1999:2009  ncr = _ncr */\n  dup2\n  swap1\n  sstore\n  pop\n    /* \"msw/msw1.sol\":1556:2015  constructor(address [] memory _owners , uint _ncr , string memory _password){... */\n  pop\n  pop\n  pop\n    /* \"msw/msw1.sol\":402:3915  contract msw {... */\n  jump(tag_22)\n    /* \"#utility.yul\":7:82   */\ntag_23:\n    /* \"#utility.yul\":40:46   */\n  0x00\n    /* \"#utility.yul\":73:75   */\n  0x40\n    /* \"#utility.yul\":67:76   */\n  mload\n    /* \"#utility.yul\":57:76   */\n  swap1\n  pop\n    /* \"#utility.yul\":7:82   */\n  swap1\n  jump\t// out\n    /* \"#utility.yul\":88:205   */\ntag_24:\n    /* \"#utility.yul\":197:198   */\n  0x00\n    /* \"#utility.yul\":194:195   */\n  dup1\n    /* \"#utility.yul\":187:199   */\n  revert\n    /* \"#utility.yul\":211:328   */\ntag_25:\n    /* \"#utility.yul\":320:321   */\n  0x00\n    /* \"#utility.yul\":317:318   */\n  dup1\n    /* \"#utility.yul\":310:322   */\n  revert\n    /* \"#utility.yul\":334:451   */\ntag_26:\n    /* \"#utility.yul\":443:444   */\n  0x00\n    /* \"#utility.yul\":440:441   */\n  dup1\n    /* \"#utility.yul\":433:445   */\n  revert\n    /* \"#utility.yul\":457:559   */\ntag_27:\n    /* \"#utility.yul\":498:504   */\n  0x00\n    /* \"#utility.yul\":549:551   */\n  0x1f\n    /* \"#utility.yul\":545:552   */\n  not\n    /* \"#utility.yul\":540:542   */\n  0x1f\n    /* \"#utility.yul\":533:538   */\n  dup4\n    /* \"#utility.yul\":529:543   */\n  add\n    /* \"#utility.yul\":525:553   */\n  and\n    /* \"#utility.yul\":515:553   */\n  swap1\n  pop\n    /* \"#utility.yul\":457:559   */\n  swap2\n  swap1\n  pop\n  jump\t// out\n    /* \"#utility.yul\":565:745   */\ntag_28:\n    /* \"#utility.yul\":613:690   */\n  0x4e487b7100000000000000000000000000000000000000000000000000000000\n    /* \"#utility.yul\":610:611   */\n  0x00\n    /* \"#utility.yul\":603:691   */\n  mstore\n    /* \"#utility.yul\":710:714   */\n  0x41\n    /* \"#utility.yul\":707:708   */\n  0x04\n    /* \"#utility.yul\":700:715   */\n  mstore\n    /* \"#utility.yul\":734:738   */\n  0x24\n    /* \"#utility.yul\":731:732   */\n  0x00\n    /* \"#utility.yul\":724:739   */\n  revert\n    /* \"#utility.yul\":751:1032   */\ntag_29:\n    /* \"#utility.yul\":834:861   */\n  tag_74\n    /* \"#utility.yul\":856:860   */\n  dup3\n    /* \"#utility.yul\":834:861   */\n  tag_27\n  jump\t// in\ntag_74:\n    /* \"#utility.yul\":826:832   */\n  dup2\n    /* \"#utility.yul\":822:862   */\n  add\n    /* \"#utility.yul\":964:970   */\n  dup2\n    /* \"#utility.yul\":952:962   */\n  dup2\n    /* \"#utility.yul\":949:971   */\n  lt\n    /* \"#utility.yul\":928:946   */\n  0xffffffffffffffff\n    /* \"#utility.yul\":916:926   */\n  dup3\n    /* \"#utility.yul\":913:947   */\n  gt\n    /* \"#utility.yul\":910:972   */\n  or\n    /* \"#utility.yul\":907:995   */\n  iszero\n  tag_75\n  jumpi\n    /* \"#utility.yul\":975:993   */\n  tag_76\n  tag_28\n  jump\t// in\ntag_76:\n    /* \"#utility.yul\":907:995   */\ntag_75:\n    /* \"#utility.yul\":1015:1025   */\n  dup1\n    /* \"#utility.yul\":1011:1013   */\n  0x40\n    /* \"#utility.yul\":1004:1026   */\n  mstore\n    /* \"#utility.yul\":794:1032   */\n  pop\n    /* \"#utility.yul\":751:1032   */\n  pop\n  pop\n  jump\t// out\n    /* \"#utility.yul\":1038:1167   */\ntag_30:\n    /* \"#utility.yul\":1072:1078   */\n  0x00\n    /* \"#utility.yul\":1099:1119   */\n  tag_78\n  tag_23\n  jump\t// in\ntag_78:\n    /* \"#utility.yul\":1089:1119   */\n  swap1\n  pop\n    /* \"#utility.yul\":1128:1161   */\n  tag_79\n    /* \"#utility.yul\":1156:1160   */\n  dup3\n    /* \"#utility.yul\":1148:1154   */\n  dup3\n    /* \"#utility.yul\":1128:1161   */\n  tag_29\n  jump\t// in\ntag_79:\n    /* \"#utility.yul\":1038:1167   */\n  swap2\n  swap1\n  pop\n  jump\t// out\n    /* \"#utility.yul\":1173:1484   */\ntag_31:\n    /* \"#utility.yul\":1250:1254   */\n  0x00\n    /* \"#utility.yul\":1340:1358   */\n  0xffffffffffffffff\n    /* \"#utility.yul\":1332:1338   */\n  dup3\n    /* \"#utility.yul\":1329:1359   */\n  gt\n    /* \"#utility.yul\":1326:1382   */\n  iszero\n  tag_81\n  jumpi\n    /* \"#utility.yul\":1362:1380   */\n  tag_82\n  tag_28\n  jump\t// in\ntag_82:\n    /* \"#utility.yul\":1326:1382   */\ntag_81:\n    /* \"#utility.yul\":1412:1416   */\n  0x20\n    /* \"#utility.yul\":1404:1410   */\n  dup3\n    /* \"#utility.yul\":1400:1417   */\n  mul\n    /* \"#utility.yul\":1392:1417   */\n  swap1\n  pop\n    /* \"#utility.yul\":1472:1476   */\n  0x20\n    /* \"#utility.yul\":1466:1470   */\n  dup2\n    /* \"#utility.yul\":1462:1477   */\n  add\n    /* \"#utility.yul\":1454:1477   */\n  swap1\n  pop\n    /* \"#utility.yul\":1173:1484   */\n  swap2\n  swap1\n  pop\n  jump\t// out\n    /* \"#utility.yul\":1490:1607   */\ntag_32:\n    /* \"#utility.yul\":1599:1600   */\n  0x00\n    /* \"#utility.yul\":1596:1597   */\n  dup1\n    /* \"#utility.yul\":1589:1601   */\n  revert\n    /* \"#utility.yul\":1613:1739   */\ntag_33:\n    /* \"#utility.yul\":1650:1657   */\n  0x00\n    /* \"#utility.yul\":1690:1732   */\n  0xffffffffffffffffffffffffffffffffffffffff\n    /* \"#utility.yul\":1683:1688   */\n  dup3\n    /* \"#utility.yul\":1679:1733   */\n  and\n    /* \"#utility.yul\":1668:1733   */\n  swap1\n  pop\n    /* \"#utility.yul\":1613:1739   */\n  swap2\n  swap1\n  pop\n  jump\t// out\n    /* \"#utility.yul\":1745:1841   */\ntag_34:\n    /* \"#utility.yul\":1782:1789   */\n  0x00\n    /* \"#utility.yul\":1811:1835   */\n  tag_86\n    /* \"#utility.yul\":1829:1834   */\n  dup3\n    /* \"#utility.yul\":1811:1835   */\n  tag_33\n  jump\t// in\ntag_86:\n    /* \"#utility.yul\":1800:1835   */\n  swap1\n  pop\n    /* \"#utility.yul\":1745:1841   */\n  swap2\n  swap1\n  pop\n  jump\t// out\n    /* \"#utility.yul\":1847:1969   */\ntag_35:\n    /* \"#utility.yul\":1920:1944   */\n  tag_88\n    /* \"#utility.yul\":1938:1943   */\n  dup2\n    /* \"#utility.yul\":1920:1944   */\n  tag_34\n  jump\t// in\ntag_88:\n    /* \"#utility.yul\":1913:1918   */\n  dup2\n    /* \"#utility.yul\":1910:1945   */\n  eq\n    /* \"#utility.yul\":1900:1963   */\n  tag_89\n  jumpi\n    /* \"#utility.yul\":1959:1960   */\n  0x00\n    /* \"#utility.yul\":1956:1957   */\n  dup1\n    /* \"#utility.yul\":1949:1961   */\n  revert\n    /* \"#utility.yul\":1900:1963   */\ntag_89:\n    /* \"#utility.yul\":1847:1969   */\n  pop\n  jump\t// out\n    /* \"#utility.yul\":1975:2118   */\ntag_36:\n    /* \"#utility.yul\":2032:2037   */\n  0x00\n    /* \"#utility.yul\":2063:2069   */\n  dup2\n    /* \"#utility.yul\":2057:2070   */\n  mload\n    /* \"#utility.yul\":2048:2070   */\n  swap1\n  pop\n    /* \"#utility.yul\":2079:2112   */\n  tag_91\n    /* \"#utility.yul\":2106:2111   */\n  dup2\n    /* \"#utility.yul\":2079:2112   */\n  tag_35\n  jump\t// in\ntag_91:\n    /* \"#utility.yul\":1975:2118   */\n  swap3\n  swap2\n  pop\n  pop\n  jump\t// out\n    /* \"#utility.yul\":2141:2873   */\ntag_37:\n    /* \"#utility.yul\":2248:2253   */\n  0x00\n    /* \"#utility.yul\":2273:2354   */\n  tag_93\n    /* \"#utility.yul\":2289:2353   */\n  tag_94\n    /* \"#utility.yul\":2346:2352   */\n  dup5\n    /* \"#utility.yul\":2289:2353   */\n  tag_31\n  jump\t// in\ntag_94:\n    /* \"#utility.yul\":2273:2354   */\n  tag_30\n  jump\t// in\ntag_93:\n    /* \"#utility.yul\":2264:2354   */\n  swap1\n  pop\n    /* \"#utility.yul\":2374:2379   */\n  dup1\n    /* \"#utility.yul\":2403:2409   */\n  dup4\n    /* \"#utility.yul\":2396:2401   */\n  dup3\n    /* \"#utility.yul\":2389:2410   */\n  mstore\n    /* \"#utility.yul\":2437:2441   */\n  0x20\n    /* \"#utility.yul\":2430:2435   */\n  dup3\n    /* \"#utility.yul\":2426:2442   */\n  add\n    /* \"#utility.yul\":2419:2442   */\n  swap1\n  pop\n    /* \"#utility.yul\":2490:2494   */\n  0x20\n    /* \"#utility.yul\":2482:2488   */\n  dup5\n    /* \"#utility.yul\":2478:2495   */\n  mul\n    /* \"#utility.yul\":2470:2476   */\n  dup4\n    /* \"#utility.yul\":2466:2496   */\n  add\n    /* \"#utility.yul\":2519:2522   */\n  dup6\n    /* \"#utility.yul\":2511:2517   */\n  dup2\n    /* \"#utility.yul\":2508:2523   */\n  gt\n    /* \"#utility.yul\":2505:2627   */\n  iszero\n  tag_95\n  jumpi\n    /* \"#utility.yul\":2538:2617   */\n  tag_96\n  tag_32\n  jump\t// in\ntag_96:\n    /* \"#utility.yul\":2505:2627   */\ntag_95:\n    /* \"#utility.yul\":2653:2659   */\n  dup4\n    /* \"#utility.yul\":2636:2867   */\ntag_97:\n    /* \"#utility.yul\":2670:2676   */\n  dup2\n    /* \"#utility.yul\":2665:2668   */\n  dup2\n    /* \"#utility.yul\":2662:2677   */\n  lt\n    /* \"#utility.yul\":2636:2867   */\n  iszero\n  tag_99\n  jumpi\n    /* \"#utility.yul\":2745:2748   */\n  dup1\n    /* \"#utility.yul\":2774:2822   */\n  tag_100\n    /* \"#utility.yul\":2818:2821   */\n  dup9\n    /* \"#utility.yul\":2806:2816   */\n  dup3\n    /* \"#utility.yul\":2774:2822   */\n  tag_36\n  jump\t// in\ntag_100:\n    /* \"#utility.yul\":2769:2772   */\n  dup5\n    /* \"#utility.yul\":2762:2823   */\n  mstore\n    /* \"#utility.yul\":2852:2856   */\n  0x20\n    /* \"#utility.yul\":2847:2850   */\n  dup5\n    /* \"#utility.yul\":2843:2857   */\n  add\n    /* \"#utility.yul\":2836:2857   */\n  swap4\n  pop\n    /* \"#utility.yul\":2712:2867   */\n  pop\n    /* \"#utility.yul\":2696:2700   */\n  0x20\n    /* \"#utility.yul\":2691:2694   */\n  dup2\n    /* \"#utility.yul\":2687:2701   */\n  add\n    /* \"#utility.yul\":2680:2701   */\n  swap1\n  pop\n    /* \"#utility.yul\":2636:2867   */\n  jump(tag_97)\ntag_99:\n    /* \"#utility.yul\":2640:2661   */\n  pop\n    /* \"#utility.yul\":2254:2873   */\n  pop\n  pop\n    /* \"#utility.yul\":2141:2873   */\n  swap4\n  swap3\n  pop\n  pop\n  pop\n  jump\t// out\n    /* \"#utility.yul\":2896:3281   */\ntag_38:\n    /* \"#utility.yul\":2978:2983   */\n  0x00\n    /* \"#utility.yul\":3027:3030   */\n  dup3\n    /* \"#utility.yul\":3020:3024   */\n  0x1f\n    /* \"#utility.yul\":3012:3018   */\n  dup4\n    /* \"#utility.yul\":3008:3025   */\n  add\n    /* \"#utility.yul\":3004:3031   */\n  slt\n    /* \"#utility.yul\":2994:3116   */\n  tag_102\n  jumpi\n    /* \"#utility.yul\":3035:3114   */\n  tag_103\n  tag_26\n  jump\t// in\ntag_103:\n    /* \"#utility.yul\":2994:3116   */\ntag_102:\n    /* \"#utility.yul\":3145:3151   */\n  dup2\n    /* \"#utility.yul\":3139:3152   */\n  mload\n    /* \"#utility.yul\":3170:3275   */\n  tag_104\n    /* \"#utility.yul\":3271:3274   */\n  dup5\n    /* \"#utility.yul\":3263:3269   */\n  dup3\n    /* \"#utility.yul\":3256:3260   */\n  0x20\n    /* \"#utility.yul\":3248:3254   */\n  dup7\n    /* \"#utility.yul\":3244:3261   */\n  add\n    /* \"#utility.yul\":3170:3275   */\n  tag_37\n  jump\t// in\ntag_104:\n    /* \"#utility.yul\":3161:3275   */\n  swap2\n  pop\n    /* \"#utility.yul\":2984:3281   */\n  pop\n    /* \"#utility.yul\":2896:3281   */\n  swap3\n  swap2\n  pop\n  pop\n  jump\t// out\n    /* \"#utility.yul\":3287:3364   */\ntag_39:\n    /* \"#utility.yul\":3324:3331   */\n  0x00\n    /* \"#utility.yul\":3353:3358   */\n  dup2\n    /* \"#utility.yul\":3342:3358   */\n  swap1\n  pop\n    /* \"#utility.yul\":3287:3364   */\n  swap2\n  swap1\n  pop\n  jump\t// out\n    /* \"#utility.yul\":3370:3492   */\ntag_40:\n    /* \"#utility.yul\":3443:3467   */\n  tag_107\n    /* \"#utility.yul\":3461:3466   */\n  dup2\n    /* \"#utility.yul\":3443:3467   */\n  tag_39\n  jump\t// in\ntag_107:\n    /* \"#utility.yul\":3436:3441   */\n  dup2\n    /* \"#utility.yul\":3433:3468   */\n  eq\n    /* \"#utility.yul\":3423:3486   */\n  tag_108\n  jumpi\n    /* \"#utility.yul\":3482:3483   */\n  0x00\n    /* \"#utility.yul\":3479:3480   */\n  dup1\n    /* \"#utility.yul\":3472:3484   */\n  revert\n    /* \"#utility.yul\":3423:3486   */\ntag_108:\n    /* \"#utility.yul\":3370:3492   */\n  pop\n  jump\t// out\n    /* \"#utility.yul\":3498:3641   */\ntag_41:\n    /* \"#utility.yul\":3555:3560   */\n  0x00\n    /* \"#utility.yul\":3586:3592   */\n  dup2\n    /* \"#utility.yul\":3580:3593   */\n  mload\n    /* \"#utility.yul\":3571:3593   */\n  swap1\n  pop\n    /* \"#utility.yul\":3602:3635   */\n  tag_110\n    /* \"#utility.yul\":3629:3634   */\n  dup2\n    /* \"#utility.yul\":3602:3635   */\n  tag_40\n  jump\t// in\ntag_110:\n    /* \"#utility.yul\":3498:3641   */\n  swap3\n  swap2\n  pop\n  pop\n  jump\t// out\n    /* \"#utility.yul\":3647:3764   */\ntag_42:\n    /* \"#utility.yul\":3756:3757   */\n  0x00\n    /* \"#utility.yul\":3753:3754   */\n  dup1\n    /* \"#utility.yul\":3746:3758   */\n  revert\n    /* \"#utility.yul\":3770:4078   */\ntag_43:\n    /* \"#utility.yul\":3832:3836   */\n  0x00\n    /* \"#utility.yul\":3922:3940   */\n  0xffffffffffffffff\n    /* \"#utility.yul\":3914:3920   */\n  dup3\n    /* \"#utility.yul\":3911:3941   */\n  gt\n    /* \"#utility.yul\":3908:3964   */\n  iszero\n  tag_113\n  jumpi\n    /* \"#utility.yul\":3944:3962   */\n  tag_114\n  tag_28\n  jump\t// in\ntag_114:\n    /* \"#utility.yul\":3908:3964   */\ntag_113:\n    /* \"#utility.yul\":3982:4011   */\n  tag_115\n    /* \"#utility.yul\":4004:4010   */\n  dup3\n    /* \"#utility.yul\":3982:4011   */\n  tag_27\n  jump\t// in\ntag_115:\n    /* \"#utility.yul\":3974:4011   */\n  swap1\n  pop\n    /* \"#utility.yul\":4066:4070   */\n  0x20\n    /* \"#utility.yul\":4060:4064   */\n  dup2\n    /* \"#utility.yul\":4056:4071   */\n  add\n    /* \"#utility.yul\":4048:4071   */\n  swap1\n  pop\n    /* \"#utility.yul\":3770:4078   */\n  swap2\n  swap1\n  pop\n  jump\t// out\n    /* \"#utility.yul\":4084:4330   */\ntag_44:\n    /* \"#utility.yul\":4165:4166   */\n  0x00\n    /* \"#utility.yul\":4175:4288   */\ntag_117:\n    /* \"#utility.yul\":4189:4195   */\n  dup4\n    /* \"#utility.yul\":4186:4187   */\n  dup2\n    /* \"#utility.yul\":4183:4196   */\n  lt\n    /* \"#utility.yul\":4175:4288   */\n  iszero\n  tag_119\n  jumpi\n    /* \"#utility.yul\":4274:4275   */\n  dup1\n    /* \"#utility.yul\":4269:4272   */\n  dup3\n    /* \"#utility.yul\":4265:4276   */\n  add\n    /* \"#utility.yul\":4259:4277   */\n  mload\n    /* \"#utility.yul\":4255:4256   */\n  dup2\n    /* \"#utility.yul\":4250:4253   */\n  dup5\n    /* \"#utility.yul\":4246:4257   */\n  add\n    /* \"#utility.yul\":4239:4278   */\n  mstore\n    /* \"#utility.yul\":4211:4213   */\n  0x20\n    /* \"#utility.yul\":4208:4209   */\n  dup2\n    /* \"#utility.yul\":4204:4214   */\n  add\n    /* \"#utility.yul\":4199:4214   */\n  swap1\n  pop\n    /* \"#utility.yul\":4175:4288   */\n  jump(tag_117)\ntag_119:\n    /* \"#utility.yul\":4322:4323   */\n  0x00\n    /* \"#utility.yul\":4313:4319   */\n  dup5\n    /* \"#utility.yul\":4308:4311   */\n  dup5\n    /* \"#utility.yul\":4304:4320   */\n  add\n    /* \"#utility.yul\":4297:4324   */\n  mstore\n    /* \"#utility.yul\":4146:4330   */\n  pop\n    /* \"#utility.yul\":4084:4330   */\n  pop\n  pop\n  pop\n  jump\t// out\n    /* \"#utility.yul\":4336:4770   */\ntag_45:\n    /* \"#utility.yul\":4425:4430   */\n  0x00\n    /* \"#utility.yul\":4450:4516   */\n  tag_121\n    /* \"#utility.yul\":4466:4515   */\n  tag_122\n    /* \"#utility.yul\":4508:4514   */\n  dup5\n    /* \"#utility.yul\":4466:4515   */\n  tag_43\n  jump\t// in\ntag_122:\n    /* \"#utility.yul\":4450:4516   */\n  tag_30\n  jump\t// in\ntag_121:\n    /* \"#utility.yul\":4441:4516   */\n  swap1\n  pop\n    /* \"#utility.yul\":4539:4545   */\n  dup3\n    /* \"#utility.yul\":4532:4537   */\n  dup2\n    /* \"#utility.yul\":4525:4546   */\n  mstore\n    /* \"#utility.yul\":4577:4581   */\n  0x20\n    /* \"#utility.yul\":4570:4575   */\n  dup2\n    /* \"#utility.yul\":4566:4582   */\n  add\n    /* \"#utility.yul\":4615:4618   */\n  dup5\n    /* \"#utility.yul\":4606:4612   */\n  dup5\n    /* \"#utility.yul\":4601:4604   */\n  dup5\n    /* \"#utility.yul\":4597:4613   */\n  add\n    /* \"#utility.yul\":4594:4619   */\n  gt\n    /* \"#utility.yul\":4591:4703   */\n  iszero\n  tag_123\n  jumpi\n    /* \"#utility.yul\":4622:4701   */\n  tag_124\n  tag_42\n  jump\t// in\ntag_124:\n    /* \"#utility.yul\":4591:4703   */\ntag_123:\n    /* \"#utility.yul\":4712:4764   */\n  tag_125\n    /* \"#utility.yul\":4757:4763   */\n  dup5\n    /* \"#utility.yul\":4752:4755   */\n  dup3\n    /* \"#utility.yul\":4747:4750   */\n  dup6\n    /* \"#utility.yul\":4712:4764   */\n  tag_44\n  jump\t// in\ntag_125:\n    /* \"#utility.yul\":4431:4770   */\n  pop\n    /* \"#utility.yul\":4336:4770   */\n  swap4\n  swap3\n  pop\n  pop\n  pop\n  jump\t// out\n    /* \"#utility.yul\":4790:5145   */\ntag_46:\n    /* \"#utility.yul\":4857:4862   */\n  0x00\n    /* \"#utility.yul\":4906:4909   */\n  dup3\n    /* \"#utility.yul\":4899:4903   */\n  0x1f\n    /* \"#utility.yul\":4891:4897   */\n  dup4\n    /* \"#utility.yul\":4887:4904   */\n  add\n    /* \"#utility.yul\":4883:4910   */\n  slt\n    /* \"#utility.yul\":4873:4995   */\n  tag_127\n  jumpi\n    /* \"#utility.yul\":4914:4993   */\n  tag_128\n  tag_26\n  jump\t// in\ntag_128:\n    /* \"#utility.yul\":4873:4995   */\ntag_127:\n    /* \"#utility.yul\":5024:5030   */\n  dup2\n    /* \"#utility.yul\":5018:5031   */\n  mload\n    /* \"#utility.yul\":5049:5139   */\n  tag_129\n    /* \"#utility.yul\":5135:5138   */\n  dup5\n    /* \"#utility.yul\":5127:5133   */\n  dup3\n    /* \"#utility.yul\":5120:5124   */\n  0x20\n    /* \"#utility.yul\":5112:5118   */\n  dup7\n    /* \"#utility.yul\":5108:5125   */\n  add\n    /* \"#utility.yul\":5049:5139   */\n  tag_45\n  jump\t// in\ntag_129:\n    /* \"#utility.yul\":5040:5139   */\n  swap2\n  pop\n    /* \"#utility.yul\":4863:5145   */\n  pop\n    /* \"#utility.yul\":4790:5145   */\n  swap3\n  swap2\n  pop\n  pop\n  jump\t// out\n    /* \"#utility.yul\":5151:6190   */\ntag_3:\n    /* \"#utility.yul\":5274:5280   */\n  0x00\n    /* \"#utility.yul\":5282:5288   */\n  dup1\n    /* \"#utility.yul\":5290:5296   */\n  0x00\n    /* \"#utility.yul\":5339:5341   */\n  0x60\n    /* \"#utility.yul\":5327:5336   */\n  dup5\n    /* \"#utility.yul\":5318:5325   */\n  dup7\n    /* \"#utility.yul\":5314:5337   */\n  sub\n    /* \"#utility.yul\":5310:5342   */\n  slt\n    /* \"#utility.yul\":5307:5426   */\n  iszero\n  tag_131\n  jumpi\n    /* \"#utility.yul\":5345:5424   */\n  tag_132\n  tag_24\n  jump\t// in\ntag_132:\n    /* \"#utility.yul\":5307:5426   */\ntag_131:\n    /* \"#utility.yul\":5486:5487   */\n  0x00\n    /* \"#utility.yul\":5475:5484   */\n  dup5\n    /* \"#utility.yul\":5471:5488   */\n  add\n    /* \"#utility.yul\":5465:5489   */\n  mload\n    /* \"#utility.yul\":5516:5534   */\n  0xffffffffffffffff\n    /* \"#utility.yul\":5508:5514   */\n  dup2\n    /* \"#utility.yul\":5505:5535   */\n  gt\n    /* \"#utility.yul\":5502:5619   */\n  iszero\n  tag_133\n  jumpi\n    /* \"#utility.yul\":5538:5617   */\n  tag_134\n  tag_25\n  jump\t// in\ntag_134:\n    /* \"#utility.yul\":5502:5619   */\ntag_133:\n    /* \"#utility.yul\":5643:5732   */\n  tag_135\n    /* \"#utility.yul\":5724:5731   */\n  dup7\n    /* \"#utility.yul\":5715:5721   */\n  dup3\n    /* \"#utility.yul\":5704:5713   */\n  dup8\n    /* \"#utility.yul\":5700:5722   */\n  add\n    /* \"#utility.yul\":5643:5732   */\n  tag_38\n  jump\t// in\ntag_135:\n    /* \"#utility.yul\":5633:5732   */\n  swap4\n  pop\n    /* \"#utility.yul\":5436:5742   */\n  pop\n    /* \"#utility.yul\":5781:5783   */\n  0x20\n    /* \"#utility.yul\":5807:5871   */\n  tag_136\n    /* \"#utility.yul\":5863:5870   */\n  dup7\n    /* \"#utility.yul\":5854:5860   */\n  dup3\n    /* \"#utility.yul\":5843:5852   */\n  dup8\n    /* \"#utility.yul\":5839:5861   */\n  add\n    /* \"#utility.yul\":5807:5871   */\n  tag_41\n  jump\t// in\ntag_136:\n    /* \"#utility.yul\":5797:5871   */\n  swap3\n  pop\n    /* \"#utility.yul\":5752:5881   */\n  pop\n    /* \"#utility.yul\":5941:5943   */\n  0x40\n    /* \"#utility.yul\":5930:5939   */\n  dup5\n    /* \"#utility.yul\":5926:5944   */\n  add\n    /* \"#utility.yul\":5920:5945   */\n  mload\n    /* \"#utility.yul\":5972:5990   */\n  0xffffffffffffffff\n    /* \"#utility.yul\":5964:5970   */\n  dup2\n    /* \"#utility.yul\":5961:5991   */\n  gt\n    /* \"#utility.yul\":5958:6075   */\n  iszero\n  tag_137\n  jumpi\n    /* \"#utility.yul\":5994:6073   */\n  tag_138\n  tag_25\n  jump\t// in\ntag_138:\n    /* \"#utility.yul\":5958:6075   */\ntag_137:\n    /* \"#utility.yul\":6099:6173   */\n  tag_139\n    /* \"#utility.yul\":6165:6172   */\n  dup7\n    /* \"#utility.yul\":6156:6162   */\n  dup3\n    /* \"#utility.yul\":6145:6154   */\n  dup8\n    /* \"#utility.yul\":6141:6163   */\n  add\n    /* \"#utility.yul\":6099:6173   */\n  tag_46\n  jump\t// in\ntag_139:\n    /* \"#utility.yul\":6089:6173   */\n  swap2\n  pop\n    /* \"#utility.yul\":5891:6183   */\n  pop\n    /* \"#utility.yul\":5151:6190   */\n  swap3\n  pop\n  swap3\n  pop\n  swap3\n  jump\t// out\n    /* \"#utility.yul\":6196:6376   */\ntag_14:\n    /* \"#utility.yul\":6244:6321   */\n  0x4e487b7100000000000000000000000000000000000000000000000000000000\n    /* \"#utility.yul\":6241:6242   */\n  0x00\n    /* \"#utility.yul\":6234:6322   */\n  mstore\n    /* \"#utility.yul\":6341:6345   */\n  0x32\n    /* \"#utility.yul\":6338:6339   */\n  0x04\n    /* \"#utility.yul\":6331:6346   */\n  mstore\n    /* \"#utility.yul\":6365:6369   */\n  0x24\n    /* \"#utility.yul\":6362:6363   */\n  0x00\n    /* \"#utility.yul\":6355:6370   */\n  revert\n    /* \"#utility.yul\":6382:6481   */\ntag_47:\n    /* \"#utility.yul\":6434:6440   */\n  0x00\n    /* \"#utility.yul\":6468:6473   */\n  dup2\n    /* \"#utility.yul\":6462:6474   */\n  mload\n    /* \"#utility.yul\":6452:6474   */\n  swap1\n  pop\n    /* \"#utility.yul\":6382:6481   */\n  swap2\n  swap1\n  pop\n  jump\t// out\n    /* \"#utility.yul\":6487:6667   */\ntag_48:\n    /* \"#utility.yul\":6535:6612   */\n  0x4e487b7100000000000000000000000000000000000000000000000000000000\n    /* \"#utility.yul\":6532:6533   */\n  0x00\n    /* \"#utility.yul\":6525:6613   */\n  mstore\n    /* \"#utility.yul\":6632:6636   */\n  0x22\n    /* \"#utility.yul\":6629:6630   */\n  0x04\n    /* \"#utility.yul\":6622:6637   */\n  mstore\n    /* \"#utility.yul\":6656:6660   */\n  0x24\n    /* \"#utility.yul\":6653:6654   */\n  0x00\n    /* \"#utility.yul\":6646:6661   */\n  revert\n    /* \"#utility.yul\":6673:6993   */\ntag_49:\n    /* \"#utility.yul\":6717:6723   */\n  0x00\n    /* \"#utility.yul\":6754:6755   */\n  0x02\n    /* \"#utility.yul\":6748:6752   */\n  dup3\n    /* \"#utility.yul\":6744:6756   */\n  div\n    /* \"#utility.yul\":6734:6756   */\n  swap1\n  pop\n    /* \"#utility.yul\":6801:6802   */\n  0x01\n    /* \"#utility.yul\":6795:6799   */\n  dup3\n    /* \"#utility.yul\":6791:6803   */\n  and\n    /* \"#utility.yul\":6822:6840   */\n  dup1\n    /* \"#utility.yul\":6812:6893   */\n  tag_144\n  jumpi\n    /* \"#utility.yul\":6878:6882   */\n  0x7f\n    /* \"#utility.yul\":6870:6876   */\n  dup3\n    /* \"#utility.yul\":6866:6883   */\n  and\n    /* \"#utility.yul\":6856:6883   */\n  swap2\n  pop\n    /* \"#utility.yul\":6812:6893   */\ntag_144:\n    /* \"#utility.yul\":6940:6942   */\n  0x20\n    /* \"#utility.yul\":6932:6938   */\n  dup3\n    /* \"#utility.yul\":6929:6943   */\n  lt\n    /* \"#utility.yul\":6909:6927   */\n  dup2\n    /* \"#utility.yul\":6906:6944   */\n  sub\n    /* \"#utility.yul\":6903:6987   */\n  tag_145\n  jumpi\n    /* \"#utility.yul\":6959:6977   */\n  tag_146\n  tag_48\n  jump\t// in\ntag_146:\n    /* \"#utility.yul\":6903:6987   */\ntag_145:\n    /* \"#utility.yul\":6724:6993   */\n  pop\n    /* \"#utility.yul\":6673:6993   */\n  swap2\n  swap1\n  pop\n  jump\t// out\n    /* \"#utility.yul\":6999:7140   */\ntag_50:\n    /* \"#utility.yul\":7048:7052   */\n  0x00\n    /* \"#utility.yul\":7071:7074   */\n  dup2\n    /* \"#utility.yul\":7063:7074   */\n  swap1\n  pop\n    /* \"#utility.yul\":7094:7097   */\n  dup2\n    /* \"#utility.yul\":7091:7092   */\n  0x00\n    /* \"#utility.yul\":7084:7098   */\n  mstore\n    /* \"#utility.yul\":7128:7132   */\n  0x20\n    /* \"#utility.yul\":7125:7126   */\n  0x00\n    /* \"#utility.yul\":7115:7133   */\n  keccak256\n    /* \"#utility.yul\":7107:7133   */\n  swap1\n  pop\n    /* \"#utility.yul\":6999:7140   */\n  swap2\n  swap1\n  pop\n  jump\t// out\n    /* \"#utility.yul\":7146:7239   */\ntag_51:\n    /* \"#utility.yul\":7183:7189   */\n  0x00\n    /* \"#utility.yul\":7230:7232   */\n  0x20\n    /* \"#utility.yul\":7225:7227   */\n  0x1f\n    /* \"#utility.yul\":7218:7223   */\n  dup4\n    /* \"#utility.yul\":7214:7228   */\n  add\n    /* \"#utility.yul\":7210:7233   */\n  div\n    /* \"#utility.yul\":7200:7233   */\n  swap1\n  pop\n    /* \"#utility.yul\":7146:7239   */\n  swap2\n  swap1\n  pop\n  jump\t// out\n    /* \"#utility.yul\":7245:7352   */\ntag_52:\n    /* \"#utility.yul\":7289:7297   */\n  0x00\n    /* \"#utility.yul\":7339:7344   */\n  dup3\n    /* \"#utility.yul\":7333:7337   */\n  dup3\n    /* \"#utility.yul\":7329:7345   */\n  shl\n    /* \"#utility.yul\":7308:7345   */\n  swap1\n  pop\n    /* \"#utility.yul\":7245:7352   */\n  swap3\n  swap2\n  pop\n  pop\n  jump\t// out\n    /* \"#utility.yul\":7358:7751   */\ntag_53:\n    /* \"#utility.yul\":7427:7433   */\n  0x00\n    /* \"#utility.yul\":7477:7478   */\n  0x08\n    /* \"#utility.yul\":7465:7475   */\n  dup4\n    /* \"#utility.yul\":7461:7479   */\n  mul\n    /* \"#utility.yul\":7500:7597   */\n  tag_151\n    /* \"#utility.yul\":7530:7596   */\n  0xffffffffffffffffffffffffffffffffffffffffffffffffffffffffffffffff\n    /* \"#utility.yul\":7519:7528   */\n  dup3\n    /* \"#utility.yul\":7500:7597   */\n  tag_52\n  jump\t// in\ntag_151:\n    /* \"#utility.yul\":7618:7657   */\n  tag_152\n    /* \"#utility.yul\":7648:7656   */\n  dup7\n    /* \"#utility.yul\":7637:7646   */\n  dup4\n    /* \"#utility.yul\":7618:7657   */\n  tag_52\n  jump\t// in\ntag_152:\n    /* \"#utility.yul\":7606:7657   */\n  swap6\n  pop\n    /* \"#utility.yul\":7690:7694   */\n  dup1\n    /* \"#utility.yul\":7686:7695   */\n  not\n    /* \"#utility.yul\":7679:7684   */\n  dup5\n    /* \"#utility.yul\":7675:7696   */\n  and\n    /* \"#utility.yul\":7666:7696   */\n  swap4\n  pop\n    /* \"#utility.yul\":7739:7743   */\n  dup1\n    /* \"#utility.yul\":7729:7737   */\n  dup7\n    /* \"#utility.yul\":7725:7744   */\n  and\n    /* \"#utility.yul\":7718:7723   */\n  dup5\n    /* \"#utility.yul\":7715:7745   */\n  or\n    /* \"#utility.yul\":7705:7745   */\n  swap3\n  pop\n    /* \"#utility.yul\":7434:7751   */\n  pop\n  pop\n    /* \"#utility.yul\":7358:7751   */\n  swap4\n  swap3\n  pop\n  pop\n  pop\n  jump\t// out\n    /* \"#utility.yul\":7757:7817   */\ntag_54:\n    /* \"#utility.yul\":7785:7788   */\n  0x00\n    /* \"#utility.yul\":7806:7811   */\n  dup2\n    /* \"#utility.yul\":7799:7811   */\n  swap1\n  pop\n    /* \"#utility.yul\":7757:7817   */\n  swap2\n  swap1\n  pop\n  jump\t// out\n    /* \"#utility.yul\":7823:7965   */\ntag_55:\n    /* \"#utility.yul\":7873:7882   */\n  0x00\n    /* \"#utility.yul\":7906:7959   */\n  tag_155\n    /* \"#utility.yul\":7924:7958   */\n  tag_156\n    /* \"#utility.yul\":7933:7957   */\n  tag_157\n    /* \"#utility.yul\":7951:7956   */\n  dup5\n    /* \"#utility.yul\":7933:7957   */\n  tag_39\n  jump\t// in\ntag_157:\n    /* \"#utility.yul\":7924:7958   */\n  tag_54\n  jump\t// in\ntag_156:\n    /* \"#utility.yul\":7906:7959   */\n  tag_39\n  jump\t// in\ntag_155:\n    /* \"#utility.yul\":7893:7959   */\n  swap1\n  pop\n    /* \"#utility.yul\":7823:7965   */\n  swap2\n  swap1\n  pop\n  jump\t// out\n    /* \"#utility.yul\":7971:8046   */\ntag_56:\n    /* \"#utility.yul\":8014:8017   */\n  0x00\n    /* \"#utility.yul\":8035:8040   */\n  dup2\n    /* \"#utility.yul\":8028:8040   */\n  swap1\n  pop\n    /* \"#utility.yul\":7971:8046   */\n  swap2\n  swap1\n  pop\n  jump\t// out\n    /* \"#utility.yul\":8052:8321   */\ntag_57:\n    /* \"#utility.yul\":8162:8201   */\n  tag_160\n    /* \"#utility.yul\":8193:8200   */\n  dup4\n    /* \"#utility.yul\":8162:8201   */\n  tag_55\n  jump\t// in\ntag_160:\n    /* \"#utility.yul\":8223:8314   */\n  tag_161\n    /* \"#utility.yul\":8272:8313   */\n  tag_162\n    /* \"#utility.yul\":8296:8312   */\n  dup3\n    /* \"#utility.yul\":8272:8313   */\n  tag_56\n  jump\t// in\ntag_162:\n    /* \"#utility.yul\":8264:8270   */\n  dup5\n    /* \"#utility.yul\":8257:8261   */\n  dup5\n    /* \"#utility.yul\":8251:8262   */\n  sload\n    /* \"#utility.yul\":8223:8314   */\n  tag_53\n  jump\t// in\ntag_161:\n    /* \"#utility.yul\":8217:8221   */\n  dup3\n    /* \"#utility.yul\":8210:8315   */\n  sstore\n    /* \"#utility.yul\":8128:8321   */\n  pop\n    /* \"#utility.yul\":8052:8321   */\n  pop\n  pop\n  pop\n  jump\t// out\n    /* \"#utility.yul\":8327:8400   */\ntag_58:\n    /* \"#utility.yul\":8372:8375   */\n  0x00\n    /* \"#utility.yul\":8327:8400   */\n  swap1\n  jump\t// out\n    /* \"#utility.yul\":8406:8595   */\ntag_59:\n    /* \"#utility.yul\":8483:8515   */\n  tag_165\n  tag_58\n  jump\t// in\ntag_165:\n    /* \"#utility.yul\":8524:8589   */\n  tag_166\n    /* \"#utility.yul\":8582:8588   */\n  dup2\n    /* \"#utility.yul\":8574:8580   */\n  dup5\n    /* \"#utility.yul\":8568:8572   */\n  dup5\n    /* \"#utility.yul\":8524:8589   */\n  tag_57\n  jump\t// in\ntag_166:\n    /* \"#utility.yul\":8459:8595   */\n  pop\n    /* \"#utility.yul\":8406:8595   */\n  pop\n  pop\n  jump\t// out\n    /* \"#utility.yul\":8601:8787   */\ntag_60:\n    /* \"#utility.yul\":8661:8781   */\ntag_168:\n    /* \"#utility.yul\":8678:8681   */\n  dup2\n    /* \"#utility.yul\":8671:8676   */\n  dup2\n    /* \"#utility.yul\":8668:8682   */\n  lt\n    /* \"#utility.yul\":8661:8781   */\n  iszero\n  tag_170\n  jumpi\n    /* \"#utility.yul\":8732:8771   */\n  tag_171\n    /* \"#utility.yul\":8769:8770   */\n  0x00\n    /* \"#utility.yul\":8762:8767   */\n  dup3\n    /* \"#utility.yul\":8732:8771   */\n  tag_59\n  jump\t// in\ntag_171:\n    /* \"#utility.yul\":8705:8706   */\n  0x01\n    /* \"#utility.yul\":8698:8703   */\n  dup2\n    /* \"#utility.yul\":8694:8707   */\n  add\n    /* \"#utility.yul\":8685:8707   */\n  swap1\n  pop\n    /* \"#utility.yul\":8661:8781   */\n  jump(tag_168)\ntag_170:\n    /* \"#utility.yul\":8601:8787   */\n  pop\n  pop\n  jump\t// out\n    /* \"#utility.yul\":8793:9336   */\ntag_61:\n    /* \"#utility.yul\":8894:8896   */\n  0x1f\n    /* \"#utility.yul\":8889:8892   */\n  dup3\n    /* \"#utility.yul\":8886:8897   */\n  gt\n    /* \"#utility.yul\":8883:9329   */\n  iszero\n  tag_173\n  jumpi\n    /* \"#utility.yul\":8928:8966   */\n  tag_174\n    /* \"#utility.yul\":8960:8965   */\n  dup2\n    /* \"#utility.yul\":8928:8966   */\n  tag_50\n  jump\t// in\ntag_174:\n    /* \"#utility.yul\":9012:9041   */\n  tag_175\n    /* \"#utility.yul\":9030:9040   */\n  dup5\n    /* \"#utility.yul\":9012:9041   */\n  tag_51\n  jump\t// in\ntag_175:\n    /* \"#utility.yul\":9002:9010   */\n  dup2\n    /* \"#utility.yul\":8998:9042   */\n  add\n    /* \"#utility.yul\":9195:9197   */\n  0x20\n    /* \"#utility.yul\":9183:9193   */\n  dup6\n    /* \"#utility.yul\":9180:9198   */\n  lt\n    /* \"#utility.yul\":9177:9226   */\n  iszero\n  tag_176\n  jumpi\n    /* \"#utility.yul\":9216:9224   */\n  dup2\n    /* \"#utility.yul\":9201:9224   */\n  swap1\n  pop\n    /* \"#utility.yul\":9177:9226   */\ntag_176:\n    /* \"#utility.yul\":9239:9319   */\n  tag_177\n    /* \"#utility.yul\":9295:9317   */\n  tag_178\n    /* \"#utility.yul\":9313:9316   */\n  dup6\n    /* \"#utility.yul\":9295:9317   */\n  tag_51\n  jump\t// in\ntag_178:\n    /* \"#utility.yul\":9285:9293   */\n  dup4\n    /* \"#utility.yul\":9281:9318   */\n  add\n    /* \"#utility.yul\":9268:9279   */\n  dup3\n    /* \"#utility.yul\":9239:9319   */\n  tag_60\n  jump\t// in\ntag_177:\n    /* \"#utility.yul\":8898:9329   */\n  pop\n  pop\n    /* \"#utility.yul\":8883:9329   */\ntag_173:\n    /* \"#utility.yul\":8793:9336   */\n  pop\n  pop\n  pop\n  jump\t// out\n    /* \"#utility.yul\":9342:9459   */\ntag_62:\n    /* \"#utility.yul\":9396:9404   */\n  0x00\n    /* \"#utility.yul\":9446:9451   */\n  dup3\n    /* \"#utility.yul\":9440:9444   */\n  dup3\n    /* \"#utility.yul\":9436:9452   */\n  shr\n    /* \"#utility.yul\":9415:9452   */\n  swap1\n  pop\n    /* \"#utility.yul\":9342:9459   */\n  swap3\n  swap2\n  pop\n  pop\n  jump\t// out\n    /* \"#utility.yul\":9465:9634   */\ntag_63:\n    /* \"#utility.yul\":9509:9515   */\n  0x00\n    /* \"#utility.yul\":9542:9593   */\n  tag_181\n    /* \"#utility.yul\":9590:9591   */\n  0x00\n    /* \"#utility.yul\":9586:9592   */\n  not\n    /* \"#utility.yul\":9578:9583   */\n  dup5\n    /* \"#utility.yul\":9575:9576   */\n  0x08\n    /* \"#utility.yul\":9571:9584   */\n  mul\n    /* \"#utility.yul\":9542:9593   */\n  tag_62\n  jump\t// in\ntag_181:\n    /* \"#utility.yul\":9538:9594   */\n  not\n    /* \"#utility.yul\":9623:9627   */\n  dup1\n    /* \"#utility.yul\":9617:9621   */\n  dup4\n    /* \"#utility.yul\":9613:9628   */\n  and\n    /* \"#utility.yul\":9603:9628   */\n  swap2\n  pop\n    /* \"#utility.yul\":9516:9634   */\n  pop\n    /* \"#utility.yul\":9465:9634   */\n  swap3\n  swap2\n  pop\n  pop\n  jump\t// out\n    /* \"#utility.yul\":9639:9934   */\ntag_64:\n    /* \"#utility.yul\":9715:9719   */\n  0x00\n    /* \"#utility.yul\":9861:9890   */\n  tag_183\n    /* \"#utility.yul\":9886:9889   */\n  dup4\n    /* \"#utility.yul\":9880:9884   */\n  dup4\n    /* \"#utility.yul\":9861:9890   */\n  tag_63\n  jump\t// in\ntag_183:\n    /* \"#utility.yul\":9853:9890   */\n  swap2\n  pop\n    /* \"#utility.yul\":9923:9926   */\n  dup3\n    /* \"#utility.yul\":9920:9921   */\n  0x02\n    /* \"#utility.yul\":9916:9927   */\n  mul\n    /* \"#utility.yul\":9910:9914   */\n  dup3\n    /* \"#utility.yul\":9907:9928   */\n  or\n    /* \"#utility.yul\":9899:9928   */\n  swap1\n  pop\n    /* \"#utility.yul\":9639:9934   */\n  swap3\n  swap2\n  pop\n  pop\n  jump\t// out\n    /* \"#utility.yul\":9939:11334   */\ntag_19:\n    /* \"#utility.yul\":10056:10093   */\n  tag_185\n    /* \"#utility.yul\":10089:10092   */\n  dup3\n    /* \"#utility.yul\":10056:10093   */\n  tag_47\n  jump\t// in\ntag_185:\n    /* \"#utility.yul\":10158:10176   */\n  0xffffffffffffffff\n    /* \"#utility.yul\":10150:10156   */\n  dup2\n    /* \"#utility.yul\":10147:10177   */\n  gt\n    /* \"#utility.yul\":10144:10200   */\n  iszero\n  tag_186\n  jumpi\n    /* \"#utility.yul\":10180:10198   */\n  tag_187\n  tag_28\n  jump\t// in\ntag_187:\n    /* \"#utility.yul\":10144:10200   */\ntag_186:\n    /* \"#utility.yul\":10224:10262   */\n  tag_188\n    /* \"#utility.yul\":10256:10260   */\n  dup3\n    /* \"#utility.yul\":10250:10261   */\n  sload\n    /* \"#utility.yul\":10224:10262   */\n  tag_49\n  jump\t// in\ntag_188:\n    /* \"#utility.yul\":10309:10376   */\n  tag_189\n    /* \"#utility.yul\":10369:10375   */\n  dup3\n    /* \"#utility.yul\":10361:10367   */\n  dup3\n    /* \"#utility.yul\":10355:10359   */\n  dup6\n    /* \"#utility.yul\":10309:10376   */\n  tag_61\n  jump\t// in\ntag_189:\n    /* \"#utility.yul\":10403:10404   */\n  0x00\n    /* \"#utility.yul\":10427:10431   */\n  0x20\n    /* \"#utility.yul\":10414:10431   */\n  swap1\n  pop\n    /* \"#utility.yul\":10459:10461   */\n  0x1f\n    /* \"#utility.yul\":10451:10457   */\n  dup4\n    /* \"#utility.yul\":10448:10462   */\n  gt\n    /* \"#utility.yul\":10476:10477   */\n  0x01\n    /* \"#utility.yul\":10471:11089   */\n  dup2\n  eq\n  tag_191\n  jumpi\n    /* \"#utility.yul\":11133:11134   */\n  0x00\n    /* \"#utility.yul\":11150:11156   */\n  dup5\n    /* \"#utility.yul\":11147:11224   */\n  iszero\n  tag_192\n  jumpi\n    /* \"#utility.yul\":11199:11208   */\n  dup3\n    /* \"#utility.yul\":11194:11197   */\n  dup8\n    /* \"#utility.yul\":11190:11209   */\n  add\n    /* \"#utility.yul\":11184:11210   */\n  mload\n    /* \"#utility.yul\":11175:11210   */\n  swap1\n  pop\n    /* \"#utility.yul\":11147:11224   */\ntag_192:\n    /* \"#utility.yul\":11250:11317   */\n  tag_193\n    /* \"#utility.yul\":11310:11316   */\n  dup6\n    /* \"#utility.yul\":11303:11308   */\n  dup3\n    /* \"#utility.yul\":11250:11317   */\n  tag_64\n  jump\t// in\ntag_193:\n    /* \"#utility.yul\":11244:11248   */\n  dup7\n    /* \"#utility.yul\":11237:11318   */\n  sstore\n    /* \"#utility.yul\":11106:11328   */\n  pop\n    /* \"#utility.yul\":10441:11328   */\n  jump(tag_190)\n    /* \"#utility.yul\":10471:11089   */\ntag_191:\n    /* \"#utility.yul\":10523:10527   */\n  0x1f\n    /* \"#utility.yul\":10519:10528   */\n  not\n    /* \"#utility.yul\":10511:10517   */\n  dup5\n    /* \"#utility.yul\":10507:10529   */\n  and\n    /* \"#utility.yul\":10557:10594   */\n  tag_194\n    /* \"#utility.yul\":10589:10593   */\n  dup7\n    /* \"#utility.yul\":10557:10594   */\n  tag_50\n  jump\t// in\ntag_194:\n    /* \"#utility.yul\":10616:10617   */\n  0x00\n    /* \"#utility.yul\":10630:10838   */\ntag_195:\n    /* \"#utility.yul\":10644:10651   */\n  dup3\n    /* \"#utility.yul\":10641:10642   */\n  dup2\n    /* \"#utility.yul\":10638:10652   */\n  lt\n    /* \"#utility.yul\":10630:10838   */\n  iszero\n  tag_197\n  jumpi\n    /* \"#utility.yul\":10723:10732   */\n  dup5\n    /* \"#utility.yul\":10718:10721   */\n  dup10\n    /* \"#utility.yul\":10714:10733   */\n  add\n    /* \"#utility.yul\":10708:10734   */\n  mload\n    /* \"#utility.yul\":10700:10706   */\n  dup3\n    /* \"#utility.yul\":10693:10735   */\n  sstore\n    /* \"#utility.yul\":10774:10775   */\n  0x01\n    /* \"#utility.yul\":10766:10772   */\n  dup3\n    /* \"#utility.yul\":10762:10776   */\n  add\n    /* \"#utility.yul\":10752:10776   */\n  swap2\n  pop\n    /* \"#utility.yul\":10821:10823   */\n  0x20\n    /* \"#utility.yul\":10810:10819   */\n  dup6\n    /* \"#utility.yul\":10806:10824   */\n  add\n    /* \"#utility.yul\":10793:10824   */\n  swap5\n  pop\n    /* \"#utility.yul\":10667:10671   */\n  0x20\n    /* \"#utility.yul\":10664:10665   */\n  dup2\n    /* \"#utility.yul\":10660:10672   */\n  add\n    /* \"#utility.yul\":10655:10672   */\n  swap1\n  pop\n    /* \"#utility.yul\":10630:10838   */\n  jump(tag_195)\ntag_197:\n    /* \"#utility.yul\":10866:10872   */\n  dup7\n    /* \"#utility.yul\":10857:10864   */\n  dup4\n    /* \"#utility.yul\":10854:10873   */\n  lt\n    /* \"#utility.yul\":10851:11030   */\n  iszero\n  tag_198\n  jumpi\n    /* \"#utility.yul\":10924:10933   */\n  dup5\n    /* \"#utility.yul\":10919:10922   */\n  dup10\n    /* \"#utility.yul\":10915:10934   */\n  add\n    /* \"#utility.yul\":10909:10935   */\n  mload\n    /* \"#utility.yul\":10967:11015   */\n  tag_199\n    /* \"#utility.yul\":11009:11013   */\n  0x1f\n    /* \"#utility.yul\":11001:11007   */\n  dup10\n    /* \"#utility.yul\":10997:11014   */\n  and\n    /* \"#utility.yul\":10986:10995   */\n  dup3\n    /* \"#utility.yul\":10967:11015   */\n  tag_63\n  jump\t// in\ntag_199:\n    /* \"#utility.yul\":10959:10965   */\n  dup4\n    /* \"#utility.yul\":10952:11016   */\n  sstore\n    /* \"#utility.yul\":10874:11030   */\n  pop\n    /* \"#utility.yul\":10851:11030   */\ntag_198:\n    /* \"#utility.yul\":11076:11077   */\n  0x01\n    /* \"#utility.yul\":11072:11073   */\n  0x02\n    /* \"#utility.yul\":11064:11070   */\n  dup9\n    /* \"#utility.yul\":11060:11074   */\n  mul\n    /* \"#utility.yul\":11056:11078   */\n  add\n    /* \"#utility.yul\":11050:11054   */\n  dup9\n    /* \"#utility.yul\":11043:11079   */\n  sstore\n    /* \"#utility.yul\":10478:11089   */\n  pop\n  pop\n  pop\n    /* \"#utility.yul\":10441:11328   */\ntag_190:\n  pop\n    /* \"#utility.yul\":10031:11334   */\n  pop\n  pop\n  pop\n    /* \"#utility.yul\":9939:11334   */\n  pop\n  pop\n  jump\t// out\n    /* \"#utility.yul\":11340:11520   */\ntag_65:\n    /* \"#utility.yul\":11388:11465   */\n  0x4e487b7100000000000000000000000000000000000000000000000000000000\n    /* \"#utility.yul\":11385:11386   */\n  0x00\n    /* \"#utility.yul\":11378:11466   */\n  mstore\n    /* \"#utility.yul\":11485:11489   */\n  0x11\n    /* \"#utility.yul\":11482:11483   */\n  0x04\n    /* \"#utility.yul\":11475:11490   */\n  mstore\n    /* \"#utility.yul\":11509:11513   */\n  0x24\n    /* \"#utility.yul\":11506:11507   */\n  0x00\n    /* \"#utility.yul\":11499:11514   */\n  revert\n    /* \"#utility.yul\":11526:11759   */\ntag_21:\n    /* \"#utility.yul\":11565:11568   */\n  0x00\n    /* \"#utility.yul\":11588:11612   */\n  tag_202\n    /* \"#utility.yul\":11606:11611   */\n  dup3\n    /* \"#utility.yul\":11588:11612   */\n  tag_39\n  jump\t// in\ntag_202:\n    /* \"#utility.yul\":11579:11612   */\n  swap2\n  pop\n    /* \"#utility.yul\":11634:11700   */\n  0xffffffffffffffffffffffffffffffffffffffffffffffffffffffffffffffff\n    /* \"#utility.yul\":11627:11632   */\n  dup3\n    /* \"#utility.yul\":11624:11701   */\n  sub\n    /* \"#utility.yul\":11621:11724   */\n  tag_203\n  jumpi\n    /* \"#utility.yul\":11704:11722   */\n  tag_204\n  tag_65\n  jump\t// in\ntag_204:\n    /* \"#utility.yul\":11621:11724   */\ntag_203:\n    /* \"#utility.yul\":11751:11752   */\n  0x01\n    /* \"#utility.yul\":11744:11749   */\n  dup3\n    /* \"#utility.yul\":11740:11753   */\n  add\n    /* \"#utility.yul\":11733:11753   */\n  swap1\n  pop\n    /* \"#utility.yul\":11526:11759   */\n  swap2\n  swap1\n  pop\n  jump\t// out\n    /* \"msw/msw1.sol\":402:3915  contract msw {... */\ntag_22:\n  dataSize(sub_0)\n  dup1\n  dataOffset(sub_0)\n  0x00\n  codecopy\n  0x00\n  return\nstop\n\nsub_0: assembly {\n        /* \"msw/msw1.sol\":402:3915  contract msw {... */\n      mstore(0x40, 0x80)\n      jumpi(tag_1, lt(calldatasize, 0x04))\n      shr(0xe0, calldataload(0x00))\n      dup1\n      0x4c9c7af3\n      gt\n      tag_13\n      jumpi\n      dup1\n      0x4c9c7af3\n      eq\n      tag_8\n      jumpi\n      dup1\n      0x738dbfa6\n      eq\n      tag_9\n      jumpi\n      dup1\n      0x96431ac1\n      eq\n      tag_10\n      jumpi\n      dup1\n      0x9ace38c2\n      eq\n      tag_11\n      jumpi\n      dup1\n      0x9fe8ed9b\n      eq\n      tag_12\n      jumpi\n      jump(tag_2)\n    tag_13:\n      dup1\n      0x025e7c27\n      eq\n      tag_3\n      jumpi\n      dup1\n      0x05cbf344\n      eq\n      tag_4\n      jumpi\n      dup1\n      0x0a147bc1\n      eq\n      tag_5\n      jumpi\n      dup1\n      0x45c9711f\n      eq\n      tag_6\n      jumpi\n      dup1\n      0x4632952c\n      eq\n      tag_7\n      jumpi\n      jump(tag_2)\n    tag_1:\n      jumpi(tag_2, calldatasize)\n        /* \"msw/msw1.sol\":2063:2073  msg.sender */\n      caller\n        /* \"msw/msw1.sol\":2055:2110  Deposit(msg.sender , msg.value , address(this).balance) */\n      0xffffffffffffffffffffffffffffffffffffffff\n      and\n      0x90890809c654f11d6e72a28fa60149770a0d11ec6c92319d6ceb2bb0a4ea1a15\n        /* \"msw/msw1.sol\":2076:2085  msg.value */\n      callvalue\n        /* \"msw/msw1.sol\":2088:2109  address(this).balance */\n      selfbalance\n        /* \"msw/msw1.sol\":2055:2110  Deposit(msg.sender , msg.value , address(this).balance) */\n      mload(0x40)\n      tag_16\n      swap3\n      swap2\n      swap1\n      tag_17\n      jump\t// in\n    tag_16:\n      mload(0x40)\n      dup1\n      swap2\n      sub\n      swap1\n      log2\n        /* \"msw/msw1.sol\":402:3915  contract msw {... */\n      stop\n    tag_2:\n      0x00\n      dup1\n      revert\n        /* \"msw/msw1.sol\":798:820  address[]public owners */\n    tag_3:\n      callvalue\n      dup1\n      iszero\n      tag_18\n      jumpi\n      0x00\n      dup1\n      revert\n    tag_18:\n      pop\n      tag_19\n      0x04\n      dup1\n      calldatasize\n      sub\n      dup2\n      add\n      swap1\n      tag_20\n      swap2\n      swap1\n      tag_21\n      jump\t// in\n    tag_20:\n      tag_22\n      jump\t// in\n    tag_19:\n      mload(0x40)\n      tag_23\n      swap2\n      swap1\n      tag_24\n      jump\t// in\n    tag_23:\n      mload(0x40)\n      dup1\n      swap2\n      sub\n      swap1\n      return\n        /* \"msw/msw1.sol\":2118:2486  function submittransactions(address _to , uint _value , bytes memory _data)public payable onlyowner{... */\n    tag_4:\n      tag_25\n      0x04\n      dup1\n      calldatasize\n      sub\n      dup2\n      add\n      swap1\n      tag_26\n      swap2\n      swap1\n      tag_27\n      jump\t// in\n    tag_26:\n      tag_28\n      jump\t// in\n    tag_25:\n      stop\n        /* \"msw/msw1.sol\":2834:3329  function executetransaction(uint _txindex , string memory pass)public onlyowner txexists(_txindex) notexecuted(_txindex){... */\n    tag_5:\n      callvalue\n      dup1\n      iszero\n      tag_29\n      jumpi\n      0x00\n      dup1\n      revert\n    tag_29:\n      pop\n      tag_30\n      0x04\n      dup1\n      calldatasize\n      sub\n      dup2\n      add\n      swap1\n      tag_31\n      swap2\n      swap1\n      tag_32\n      jump\t// in\n    tag_31:\n      tag_33\n      jump\t// in\n    tag_30:\n      stop\n        /* \"msw/msw1.sol\":823:860  mapping(address=> bool)public isowner */\n    tag_6:\n      callvalue\n      dup1\n      iszero\n      tag_34\n      jumpi\n      0x00\n      dup1\n      revert\n    tag_34:\n      pop\n      tag_35\n      0x04\n      dup1\n      calldatasize\n      sub\n      dup2\n      add\n      swap1\n      tag_36\n      swap2\n      swap1\n      tag_37\n      jump\t// in\n    tag_36:\n      tag_38\n      jump\t// in\n    tag_35:\n      mload(0x40)\n      tag_39\n      swap2\n      swap1\n      tag_40\n      jump\t// in\n    tag_39:\n      mload(0x40)\n      dup1\n      swap2\n      sub\n      swap1\n      return\n        /* \"msw/msw1.sol\":3332:3684  function revokecanfirmation(uint _txindex)public onlyowner txexists(_txindex) notexecuted(_txindex){... */\n    tag_7:\n      callvalue\n      dup1\n      iszero\n      tag_41\n      jumpi\n      0x00\n      dup1\n      revert\n    tag_41:\n      pop\n      tag_42\n      0x04\n      dup1\n      calldatasize\n      sub\n      dup2\n      add\n      swap1\n      tag_43\n      swap2\n      swap1\n      tag_21\n      jump\t// in\n    tag_43:\n      tag_44\n      jump\t// in\n    tag_42:\n      stop\n        /* \"msw/msw1.sol\":1087:1146  mapping(uint => mapping(address => bool))public isconfirmed */\n    tag_8:\n      callvalue\n      dup1\n      iszero\n      tag_45\n      jumpi\n      0x00\n      dup1\n      revert\n    tag_45:\n      pop\n      tag_46\n      0x04\n      dup1\n      calldatasize\n      sub\n      dup2\n      add\n      swap1\n      tag_47\n      swap2\n      swap1\n      tag_48\n      jump\t// in\n    tag_47:\n      tag_49\n      jump\t// in\n    tag_46:\n      mload(0x40)\n      tag_50\n      swap2\n      swap1\n      tag_40\n      jump\t// in\n    tag_50:\n      mload(0x40)\n      dup1\n      swap2\n      sub\n      swap1\n      return\n        /* \"msw/msw1.sol\":864:879  uint public ncr */\n    tag_9:\n      callvalue\n      dup1\n      iszero\n      tag_51\n      jumpi\n      0x00\n      dup1\n      revert\n    tag_51:\n      pop\n      tag_52\n      tag_53\n      jump\t// in\n    tag_52:\n      mload(0x40)\n      tag_54\n      swap2\n      swap1\n      tag_55\n      jump\t// in\n    tag_54:\n      mload(0x40)\n      dup1\n      swap2\n      sub\n      swap1\n      return\n        /* \"msw/msw1.sol\":3687:3910  function gettransaction(uint _txindex)public view returns(address , uint , bytes memory , bool , uint ){... */\n    tag_10:\n      callvalue\n      dup1\n      iszero\n      tag_56\n      jumpi\n      0x00\n      dup1\n      revert\n    tag_56:\n      pop\n      tag_57\n      0x04\n      dup1\n      calldatasize\n      sub\n      dup2\n      add\n      swap1\n      tag_58\n      swap2\n      swap1\n      tag_21\n      jump\t// in\n    tag_58:\n      tag_59\n      jump\t// in\n    tag_57:\n      mload(0x40)\n      tag_60\n      swap6\n      swap5\n      swap4\n      swap3\n      swap2\n      swap1\n      tag_61\n      jump\t// in\n    tag_60:\n      mload(0x40)\n      dup1\n      swap2\n      sub\n      swap1\n      return\n        /* \"msw/msw1.sol\":1149:1181  transaction[]public transactions */\n    tag_11:\n      callvalue\n      dup1\n      iszero\n      tag_62\n      jumpi\n      0x00\n      dup1\n      revert\n    tag_62:\n      pop\n      tag_63\n      0x04\n      dup1\n      calldatasize\n      sub\n      dup2\n      add\n      swap1\n      tag_64\n      swap2\n      swap1\n      tag_21\n      jump\t// in\n    tag_64:\n      tag_65\n      jump\t// in\n    tag_63:\n      mload(0x40)\n      tag_66\n      swap7\n      swap6\n      swap5\n      swap4\n      swap3\n      swap2\n      swap1\n      tag_67\n      jump\t// in\n    tag_66:\n      mload(0x40)\n      dup1\n      swap2\n      sub\n      swap1\n      return\n        /* \"msw/msw1.sol\":2489:2829  function confirmtransactions(uint _txindex)public onlyowner txexists(_txindex) notexecuted(_txindex) notconfimed(_txindex){... */\n    tag_12:\n      callvalue\n      dup1\n      iszero\n      tag_68\n      jumpi\n      0x00\n      dup1\n      revert\n    tag_68:\n      pop\n      tag_69\n      0x04\n      dup1\n      calldatasize\n      sub\n      dup2\n      add\n      swap1\n      tag_70\n      swap2\n      swap1\n      tag_21\n      jump\t// in\n    tag_70:\n      tag_71\n      jump\t// in\n    tag_69:\n      stop\n        /* \"msw/msw1.sol\":798:820  address[]public owners */\n    tag_22:\n      0x00\n      dup2\n      dup2\n      sload\n      dup2\n      lt\n      tag_72\n      jumpi\n      0x00\n      dup1\n      revert\n    tag_72:\n      swap1\n      0x00\n      mstore\n      keccak256(0x00, 0x20)\n      add\n      0x00\n      swap2\n      pop\n      sload\n      swap1\n      0x0100\n      exp\n      swap1\n      div\n      0xffffffffffffffffffffffffffffffffffffffff\n      and\n      dup2\n      jump\t// out\n        /* \"msw/msw1.sol\":2118:2486  function submittransactions(address _to , uint _value , bytes memory _data)public payable onlyowner{... */\n    tag_28:\n        /* \"msw/msw1.sol\":1223:1230  isowner */\n      0x01\n        /* \"msw/msw1.sol\":1223:1243  isowner [msg.sender] */\n      0x00\n        /* \"msw/msw1.sol\":1232:1242  msg.sender */\n      caller\n        /* \"msw/msw1.sol\":1223:1243  isowner [msg.sender] */\n      0xffffffffffffffffffffffffffffffffffffffff\n      and\n      0xffffffffffffffffffffffffffffffffffffffff\n      and\n      dup2\n      mstore\n      0x20\n      add\n      swap1\n      dup2\n      mstore\n      0x20\n      add\n      0x00\n      keccak256\n      0x00\n      swap1\n      sload\n      swap1\n      0x0100\n      exp\n      swap1\n      div\n      0xff\n      and\n        /* \"msw/msw1.sol\":1214:1244  require (isowner [msg.sender]) */\n      tag_75\n      jumpi\n      0x00\n      dup1\n      revert\n    tag_75:\n        /* \"msw/msw1.sol\":2246:2253  1 ether */\n      0x0de0b6b3a7640000\n        /* \"msw/msw1.sol\":2233:2242  msg.value */\n      callvalue\n        /* \"msw/msw1.sol\":2233:2253  msg.value >= 1 ether */\n      lt\n      iszero\n        /* \"msw/msw1.sol\":2224:2254  require (msg.value >= 1 ether) */\n      tag_77\n      jumpi\n      0x00\n      dup1\n      revert\n    tag_77:\n        /* \"msw/msw1.sol\":2262:2274  uint txindex */\n      0x00\n        /* \"msw/msw1.sol\":2277:2289  transactions */\n      0x05\n        /* \"msw/msw1.sol\":2277:2296  transactions.length */\n      dup1\n      sload\n      swap1\n      pop\n        /* \"msw/msw1.sol\":2262:2296  uint txindex = transactions.length */\n      swap1\n      pop\n        /* \"msw/msw1.sol\":2304:2316  transactions */\n      0x05\n        /* \"msw/msw1.sol\":2322:2423  transaction({to :_to , value:_value , data :_data , Executed :false , nc : 0 , st : status.submited}) */\n      mload(0x40)\n      dup1\n      0xc0\n      add\n      0x40\n      mstore\n      dup1\n        /* \"msw/msw1.sol\":2339:2342  _to */\n      dup7\n        /* \"msw/msw1.sol\":2322:2423  transaction({to :_to , value:_value , data :_data , Executed :false , nc : 0 , st : status.submited}) */\n      0xffffffffffffffffffffffffffffffffffffffff\n      and\n      dup2\n      mstore\n      0x20\n      add\n        /* \"msw/msw1.sol\":2351:2357  _value */\n      dup6\n        /* \"msw/msw1.sol\":2322:2423  transaction({to :_to , value:_value , data :_data , Executed :false , nc : 0 , st : status.submited}) */\n      dup2\n      mstore\n      0x20\n      add\n        /* \"msw/msw1.sol\":2366:2371  _data */\n      dup5\n        /* \"msw/msw1.sol\":2322:2423  transaction({to :_to , value:_value , data :_data , Executed :false , nc : 0 , st : status.submited}) */\n      dup2\n      mstore\n      0x20\n      add\n        /* \"msw/msw1.sol\":2384:2389  false */\n      0x00\n        /* \"msw/msw1.sol\":2322:2423  transaction({to :_to , value:_value , data :_data , Executed :false , nc : 0 , st : status.submited}) */\n      iszero\n      iszero\n      dup2\n      mstore\n      0x20\n      add\n        /* \"msw/msw1.sol\":2397:2398  0 */\n      0x00\n        /* \"msw/msw1.sol\":2322:2423  transaction({to :_to , value:_value , data :_data , Executed :false , nc : 0 , st : status.submited}) */\n      dup2\n      mstore\n      0x20\n      add\n        /* \"msw/msw1.sol\":2406:2421  status.submited */\n      0x00\n        /* \"msw/msw1.sol\":2322:2423  transaction({to :_to , value:_value , data :_data , Executed :false , nc : 0 , st : status.submited}) */\n      0x02\n      dup2\n      gt\n      iszero\n      tag_78\n      jumpi\n      tag_79\n      tag_80\n      jump\t// in\n    tag_79:\n    tag_78:\n      dup2\n      mstore\n      pop\n        /* \"msw/msw1.sol\":2304:2424  transactions.push(transaction({to :_to , value:_value , data :_data , Executed :false , nc : 0 , st : status.submited})) */\n      swap1\n      dup1\n      0x01\n      dup2\n      sload\n      add\n      dup1\n      dup3\n      sstore\n      dup1\n      swap2\n      pop\n      pop\n      0x01\n      swap1\n      sub\n      swap1\n      0x00\n      mstore\n      keccak256(0x00, 0x20)\n      swap1\n      0x06\n      mul\n      add\n      0x00\n      swap1\n      swap2\n      swap1\n      swap2\n      swap1\n      swap2\n      pop\n      0x00\n      dup3\n      add\n      mload\n      dup2\n      0x00\n      add\n      exp(0x0100, 0x00)\n      dup2\n      sload\n      dup2\n      0xffffffffffffffffffffffffffffffffffffffff\n      mul\n      not\n      and\n      swap1\n      dup4\n      0xffffffffffffffffffffffffffffffffffffffff\n      and\n      mul\n      or\n      swap1\n      sstore\n      pop\n      0x20\n      dup3\n      add\n      mload\n      dup2\n      0x01\n      add\n      sstore\n      0x40\n      dup3\n      add\n      mload\n      dup2\n      0x02\n      add\n      swap1\n      dup2\n      tag_82\n      swap2\n      swap1\n      tag_83\n      jump\t// in\n    tag_82:\n      pop\n      0x60\n      dup3\n      add\n      mload\n      dup2\n      0x03\n      add\n      exp(0x0100, 0x00)\n      dup2\n      sload\n      dup2\n      0xff\n      mul\n      not\n      and\n      swap1\n      dup4\n      iszero\n      iszero\n      mul\n      or\n      swap1\n      sstore\n      pop\n      0x80\n      dup3\n      add\n      mload\n      dup2\n      0x04\n      add\n      sstore\n      0xa0\n      dup3\n      add\n      mload\n      dup2\n      0x05\n      add\n      exp(0x0100, 0x00)\n      dup2\n      sload\n      dup2\n      0xff\n      mul\n      not\n      and\n      swap1\n      dup4\n      0x02\n      dup2\n      gt\n      iszero\n      tag_84\n      jumpi\n      tag_85\n      tag_80\n      jump\t// in\n    tag_85:\n    tag_84:\n      mul\n      or\n      swap1\n      sstore\n      pop\n      pop\n      pop\n        /* \"msw/msw1.sol\":2478:2481  _to */\n      dup4\n        /* \"msw/msw1.sol\":2437:2482  submittransaction(msg.sender , txindex , _to) */\n      0xffffffffffffffffffffffffffffffffffffffff\n      and\n        /* \"msw/msw1.sol\":2468:2475  txindex */\n      dup2\n        /* \"msw/msw1.sol\":2455:2465  msg.sender */\n      caller\n        /* \"msw/msw1.sol\":2437:2482  submittransaction(msg.sender , txindex , _to) */\n      0xffffffffffffffffffffffffffffffffffffffff\n      and\n      0x10fc5065332186bcdf0a1a2bc3062965c8af95e70bccb1ea7c4261bc322d4666\n      mload(0x40)\n      mload(0x40)\n      dup1\n      swap2\n      sub\n      swap1\n      log4\n        /* \"msw/msw1.sol\":2217:2486  {... */\n      pop\n        /* \"msw/msw1.sol\":2118:2486  function submittransactions(address _to , uint _value , bytes memory _data)public payable onlyowner{... */\n      pop\n      pop\n      pop\n      jump\t// out\n        /* \"msw/msw1.sol\":2834:3329  function executetransaction(uint _txindex , string memory pass)public onlyowner txexists(_txindex) notexecuted(_txindex){... */\n    tag_33:\n        /* \"msw/msw1.sol\":1223:1230  isowner */\n      0x01\n        /* \"msw/msw1.sol\":1223:1243  isowner [msg.sender] */\n      0x00\n        /* \"msw/msw1.sol\":1232:1242  msg.sender */\n      caller\n        /* \"msw/msw1.sol\":1223:1243  isowner [msg.sender] */\n      0xffffffffffffffffffffffffffffffffffffffff\n      and\n      0xffffffffffffffffffffffffffffffffffffffff\n      and\n      dup2\n      mstore\n      0x20\n      add\n      swap1\n      dup2\n      mstore\n      0x20\n      add\n      0x00\n      keccak256\n      0x00\n      swap1\n      sload\n      swap1\n      0x0100\n      exp\n      swap1\n      div\n      0xff\n      and\n        /* \"msw/msw1.sol\":1214:1244  require (isowner [msg.sender]) */\n      tag_87\n      jumpi\n      0x00\n      dup1\n      revert\n    tag_87:\n        /* \"msw/msw1.sol\":2923:2931  _txindex */\n      dup2\n        /* \"msw/msw1.sol\":1320:1332  transactions */\n      0x05\n        /* \"msw/msw1.sol\":1320:1339  transactions.length */\n      dup1\n      sload\n      swap1\n      pop\n        /* \"msw/msw1.sol\":1309:1317  _txindex */\n      dup2\n        /* \"msw/msw1.sol\":1309:1339  _txindex < transactions.length */\n      lt\n        /* \"msw/msw1.sol\":1300:1340  require( _txindex < transactions.length) */\n      tag_89\n      jumpi\n      0x00\n      dup1\n      revert\n    tag_89:\n        /* \"msw/msw1.sol\":2945:2953  _txindex */\n      dup3\n        /* \"msw/msw1.sol\":1405:1417  transactions */\n      0x05\n        /* \"msw/msw1.sol\":1420:1428  _txindex */\n      dup2\n        /* \"msw/msw1.sol\":1405:1430  transactions [ _txindex ] */\n      dup2\n      sload\n      dup2\n      lt\n      tag_91\n      jumpi\n      tag_92\n      tag_93\n      jump\t// in\n    tag_92:\n    tag_91:\n      swap1\n      0x00\n      mstore\n      keccak256(0x00, 0x20)\n      swap1\n      0x06\n      mul\n      add\n        /* \"msw/msw1.sol\":1405:1439  transactions [ _txindex ].Executed */\n      0x03\n      add\n      0x00\n      swap1\n      sload\n      swap1\n      0x0100\n      exp\n      swap1\n      div\n      0xff\n      and\n        /* \"msw/msw1.sol\":1396:1440  require (transactions [ _txindex ].Executed) */\n      tag_95\n      jumpi\n      0x00\n      dup1\n      revert\n    tag_95:\n        /* \"msw/msw1.sol\":3014:3022  password */\n      0x03\n        /* \"msw/msw1.sol\":2997:3024  keccak256 (bytes(password)) */\n      mload(0x40)\n      tag_97\n      swap2\n      swap1\n      tag_98\n      jump\t// in\n    tag_97:\n      mload(0x40)\n      dup1\n      swap2\n      sub\n      swap1\n      keccak256\n        /* \"msw/msw1.sol\":2987:2991  pass */\n      dup4\n        /* \"msw/msw1.sol\":2970:2993  keccak256 (bytes(pass)) */\n      dup1\n      mload\n      swap1\n      0x20\n      add\n      keccak256\n        /* \"msw/msw1.sol\":2970:3024  keccak256 (bytes(pass)) == keccak256 (bytes(password)) */\n      eq\n        /* \"msw/msw1.sol\":2962:3025  require(keccak256 (bytes(pass)) == keccak256 (bytes(password))) */\n      tag_99\n      jumpi\n      0x00\n      dup1\n      revert\n    tag_99:\n        /* \"msw/msw1.sol\":3033:3056  transaction storage trx */\n      0x00\n        /* \"msw/msw1.sol\":3059:3071  transactions */\n      0x05\n        /* \"msw/msw1.sol\":3072:3080  _txindex */\n      dup6\n        /* \"msw/msw1.sol\":3059:3081  transactions[_txindex] */\n      dup2\n      sload\n      dup2\n      lt\n      tag_100\n      jumpi\n      tag_101\n      tag_93\n      jump\t// in\n    tag_101:\n    tag_100:\n      swap1\n      0x00\n      mstore\n      keccak256(0x00, 0x20)\n      swap1\n      0x06\n      mul\n      add\n        /* \"msw/msw1.sol\":3033:3081  transaction storage trx = transactions[_txindex] */\n      swap1\n      pop\n        /* \"msw/msw1.sol\":3108:3111  ncr */\n      sload(0x02)\n        /* \"msw/msw1.sol\":3098:3101  trx */\n      dup2\n        /* \"msw/msw1.sol\":3098:3104  trx.nc */\n      0x04\n      add\n      sload\n        /* \"msw/msw1.sol\":3098:3111  trx.nc >= ncr */\n      lt\n      iszero\n        /* \"msw/msw1.sol\":3089:3112  require (trx.nc >= ncr) */\n      tag_103\n      jumpi\n      0x00\n      dup1\n      revert\n    tag_103:\n        /* \"msw/msw1.sol\":3121:3127  bool c */\n      0x00\n        /* \"msw/msw1.sol\":3135:3138  trx */\n      dup2\n        /* \"msw/msw1.sol\":3135:3141  trx.to */\n      0x00\n      add\n      0x00\n      swap1\n      sload\n      swap1\n      0x0100\n      exp\n      swap1\n      div\n      0xffffffffffffffffffffffffffffffffffffffff\n      and\n        /* \"msw/msw1.sol\":3135:3146  trx.to.call */\n      0xffffffffffffffffffffffffffffffffffffffff\n      and\n        /* \"msw/msw1.sol\":3155:3158  trx */\n      dup3\n        /* \"msw/msw1.sol\":3155:3164  trx.value */\n      0x01\n      add\n      sload\n        /* \"msw/msw1.sol\":3166:3169  trx */\n      dup4\n        /* \"msw/msw1.sol\":3166:3174  trx.data */\n      0x02\n      add\n        /* \"msw/msw1.sol\":3135:3175  trx.to.call{value : trx.value}(trx.data) */\n      mload(0x40)\n      tag_104\n      swap2\n      swap1\n      tag_105\n      jump\t// in\n    tag_104:\n      0x00\n      mload(0x40)\n      dup1\n      dup4\n      sub\n      dup2\n      dup6\n      dup8\n      gas\n      call\n      swap3\n      pop\n      pop\n      pop\n      returndatasize\n      dup1\n      0x00\n      dup2\n      eq\n      tag_108\n      jumpi\n      mload(0x40)\n      swap2\n      pop\n      and(add(returndatasize, 0x3f), not(0x1f))\n      dup3\n      add\n      0x40\n      mstore\n      returndatasize\n      dup3\n      mstore\n      returndatasize\n      0x00\n      0x20\n      dup5\n      add\n      returndatacopy\n      jump(tag_107)\n    tag_108:\n      0x60\n      swap2\n      pop\n    tag_107:\n      pop\n        /* \"msw/msw1.sol\":3120:3175  (bool c ,  ) = trx.to.call{value : trx.value}(trx.data) */\n      pop\n      swap1\n      pop\n        /* \"msw/msw1.sol\":3198:3202  true */\n      0x01\n        /* \"msw/msw1.sol\":3183:3186  trx */\n      dup3\n        /* \"msw/msw1.sol\":3183:3195  trx.Executed */\n      0x03\n      add\n      0x00\n        /* \"msw/msw1.sol\":3183:3202  trx.Executed = true */\n      0x0100\n      exp\n      dup2\n      sload\n      dup2\n      0xff\n      mul\n      not\n      and\n      swap1\n      dup4\n      iszero\n      iszero\n      mul\n      or\n      swap1\n      sstore\n      pop\n        /* \"msw/msw1.sol\":3219:3235  status. Executed */\n      0x02\n        /* \"msw/msw1.sol\":3210:3213  trx */\n      dup3\n        /* \"msw/msw1.sol\":3210:3216  trx.st */\n      0x05\n      add\n      0x00\n        /* \"msw/msw1.sol\":3210:3235  trx.st = status. Executed */\n      0x0100\n      exp\n      dup2\n      sload\n      dup2\n      0xff\n      mul\n      not\n      and\n      swap1\n      dup4\n      0x02\n      dup2\n      gt\n      iszero\n      tag_109\n      jumpi\n      tag_110\n      tag_80\n      jump\t// in\n    tag_110:\n    tag_109:\n      mul\n      or\n      swap1\n      sstore\n      pop\n        /* \"msw/msw1.sol\":3253:3254  c */\n      dup1\n        /* \"msw/msw1.sol\":3244:3270  require (c , \"trx failed\") */\n      tag_111\n      jumpi\n      mload(0x40)\n      0x08c379a000000000000000000000000000000000000000000000000000000000\n      dup2\n      mstore\n      0x04\n      add\n      tag_112\n      swap1\n      tag_113\n      jump\t// in\n    tag_112:\n      mload(0x40)\n      dup1\n      swap2\n      sub\n      swap1\n      revert\n    tag_111:\n        /* \"msw/msw1.sol\":3315:3323  _txindex */\n      dup6\n        /* \"msw/msw1.sol\":3302:3312  msg.sender */\n      caller\n        /* \"msw/msw1.sol\":3283:3324  Executetransaction(msg.sender , _txindex) */\n      0xffffffffffffffffffffffffffffffffffffffff\n      and\n      0x40be3fbff8abc172ea87bc4ba12feec976ed14084b8ca7055532701181940e5a\n      mload(0x40)\n      mload(0x40)\n      dup1\n      swap2\n      sub\n      swap1\n      log3\n        /* \"msw/msw1.sol\":2954:3329  {... */\n      pop\n      pop\n        /* \"msw/msw1.sol\":1347:1348  _ */\n      pop\n        /* \"msw/msw1.sol\":1252:1253  _ */\n      pop\n        /* \"msw/msw1.sol\":2834:3329  function executetransaction(uint _txindex , string memory pass)public onlyowner txexists(_txindex) notexecuted(_txindex){... */\n      pop\n      pop\n      jump\t// out\n        /* \"msw/msw1.sol\":823:860  mapping(address=> bool)public isowner */\n    tag_38:\n      mstore(0x20, 0x01)\n      dup1\n      0x00\n      mstore\n      keccak256(0x00, 0x40)\n      0x00\n      swap2\n      pop\n      sload\n      swap1\n      0x0100\n      exp\n      swap1\n      div\n      0xff\n      and\n      dup2\n      jump\t// out\n        /* \"msw/msw1.sol\":3332:3684  function revokecanfirmation(uint _txindex)public onlyowner txexists(_txindex) notexecuted(_txindex){... */\n    tag_44:\n        /* \"msw/msw1.sol\":1223:1230  isowner */\n      0x01\n        /* \"msw/msw1.sol\":1223:1243  isowner [msg.sender] */\n      0x00\n        /* \"msw/msw1.sol\":1232:1242  msg.sender */\n      caller\n        /* \"msw/msw1.sol\":1223:1243  isowner [msg.sender] */\n      0xffffffffffffffffffffffffffffffffffffffff\n      and\n      0xffffffffffffffffffffffffffffffffffffffff\n      and\n      dup2\n      mstore\n      0x20\n      add\n      swap1\n      dup2\n      mstore\n      0x20\n      add\n      0x00\n      keccak256\n      0x00\n      swap1\n      sload\n      swap1\n      0x0100\n      exp\n      swap1\n      div\n      0xff\n      and\n        /* \"msw/msw1.sol\":1214:1244  require (isowner [msg.sender]) */\n      tag_115\n      jumpi\n      0x00\n      dup1\n      revert\n    tag_115:\n        /* \"msw/msw1.sol\":3400:3408  _txindex */\n      dup1\n        /* \"msw/msw1.sol\":1320:1332  transactions */\n      0x05\n        /* \"msw/msw1.sol\":1320:1339  transactions.length */\n      dup1\n      sload\n      swap1\n      pop\n        /* \"msw/msw1.sol\":1309:1317  _txindex */\n      dup2\n        /* \"msw/msw1.sol\":1309:1339  _txindex < transactions.length */\n      lt\n        /* \"msw/msw1.sol\":1300:1340  require( _txindex < transactions.length) */\n      tag_117\n      jumpi\n      0x00\n      dup1\n      revert\n    tag_117:\n        /* \"msw/msw1.sol\":3422:3430  _txindex */\n      dup2\n        /* \"msw/msw1.sol\":1405:1417  transactions */\n      0x05\n        /* \"msw/msw1.sol\":1420:1428  _txindex */\n      dup2\n        /* \"msw/msw1.sol\":1405:1430  transactions [ _txindex ] */\n      dup2\n      sload\n      dup2\n      lt\n      tag_119\n      jumpi\n      tag_120\n      tag_93\n      jump\t// in\n    tag_120:\n    tag_119:\n      swap1\n      0x00\n      mstore\n      keccak256(0x00, 0x20)\n      swap1\n      0x06\n      mul\n      add\n        /* \"msw/msw1.sol\":1405:1439  transactions [ _txindex ].Executed */\n      0x03\n      add\n      0x00\n      swap1\n      sload\n      swap1\n      0x0100\n      exp\n      swap1\n      div\n      0xff\n      and\n        /* \"msw/msw1.sol\":1396:1440  require (transactions [ _txindex ].Executed) */\n      tag_122\n      jumpi\n      0x00\n      dup1\n      revert\n    tag_122:\n        /* \"msw/msw1.sol\":3434:3457  transaction storage trx */\n      0x00\n        /* \"msw/msw1.sol\":3460:3472  transactions */\n      0x05\n        /* \"msw/msw1.sol\":3475:3483  _txindex */\n      dup5\n        /* \"msw/msw1.sol\":3460:3485  transactions [ _txindex ] */\n      dup2\n      sload\n      dup2\n      lt\n      tag_124\n      jumpi\n      tag_125\n      tag_93\n      jump\t// in\n    tag_125:\n    tag_124:\n      swap1\n      0x00\n      mstore\n      keccak256(0x00, 0x20)\n      swap1\n      0x06\n      mul\n      add\n        /* \"msw/msw1.sol\":3434:3485  transaction storage trx = transactions [ _txindex ] */\n      swap1\n      pop\n        /* \"msw/msw1.sol\":3503:3514  isconfirmed */\n      0x04\n        /* \"msw/msw1.sol\":3503:3524  isconfirmed[_txindex] */\n      0x00\n        /* \"msw/msw1.sol\":3515:3523  _txindex */\n      dup6\n        /* \"msw/msw1.sol\":3503:3524  isconfirmed[_txindex] */\n      dup2\n      mstore\n      0x20\n      add\n      swap1\n      dup2\n      mstore\n      0x20\n      add\n      0x00\n      keccak256\n        /* \"msw/msw1.sol\":3503:3536  isconfirmed[_txindex][msg.sender] */\n      0x00\n        /* \"msw/msw1.sol\":3525:3535  msg.sender */\n      caller\n        /* \"msw/msw1.sol\":3503:3536  isconfirmed[_txindex][msg.sender] */\n      0xffffffffffffffffffffffffffffffffffffffff\n      and\n      0xffffffffffffffffffffffffffffffffffffffff\n      and\n      dup2\n      mstore\n      0x20\n      add\n      swap1\n      dup2\n      mstore\n      0x20\n      add\n      0x00\n      keccak256\n      0x00\n      swap1\n      sload\n      swap1\n      0x0100\n      exp\n      swap1\n      div\n      0xff\n      and\n        /* \"msw/msw1.sol\":3494:3537  require (isconfirmed[_txindex][msg.sender]) */\n      tag_127\n      jumpi\n      0x00\n      dup1\n      revert\n    tag_127:\n        /* \"msw/msw1.sol\":3554:3576  incanddec .inc(trx.nc) */\n      tag_128\n        /* \"msw/msw1.sol\":3569:3572  trx */\n      dup2\n        /* \"msw/msw1.sol\":3569:3575  trx.nc */\n      0x04\n      add\n      sload\n        /* \"msw/msw1.sol\":3554:3568  incanddec .inc */\n      tag_129\n        /* \"msw/msw1.sol\":3554:3576  incanddec .inc(trx.nc) */\n      jump\t// in\n    tag_128:\n        /* \"msw/msw1.sol\":3545:3548  trx */\n      dup2\n        /* \"msw/msw1.sol\":3545:3551  trx.nc */\n      0x04\n      add\n        /* \"msw/msw1.sol\":3545:3576  trx.nc = incanddec .inc(trx.nc) */\n      dup2\n      swap1\n      sstore\n      pop\n        /* \"msw/msw1.sol\":3619:3624  false */\n      0x00\n        /* \"msw/msw1.sol\":3583:3594  isconfirmed */\n      0x04\n        /* \"msw/msw1.sol\":3583:3605  isconfirmed [_txindex] */\n      0x00\n        /* \"msw/msw1.sol\":3596:3604  _txindex */\n      dup7\n        /* \"msw/msw1.sol\":3583:3605  isconfirmed [_txindex] */\n      dup2\n      mstore\n      0x20\n      add\n      swap1\n      dup2\n      mstore\n      0x20\n      add\n      0x00\n      keccak256\n        /* \"msw/msw1.sol\":3583:3617  isconfirmed [_txindex][msg.sender] */\n      0x00\n        /* \"msw/msw1.sol\":3606:3616  msg.sender */\n      caller\n        /* \"msw/msw1.sol\":3583:3617  isconfirmed [_txindex][msg.sender] */\n      0xffffffffffffffffffffffffffffffffffffffff\n      and\n      0xffffffffffffffffffffffffffffffffffffffff\n      and\n      dup2\n      mstore\n      0x20\n      add\n      swap1\n      dup2\n      mstore\n      0x20\n      add\n      0x00\n      keccak256\n      0x00\n        /* \"msw/msw1.sol\":3583:3624  isconfirmed [_txindex][msg.sender]= false */\n      0x0100\n      exp\n      dup2\n      sload\n      dup2\n      0xff\n      mul\n      not\n      and\n      swap1\n      dup4\n      iszero\n      iszero\n      mul\n      or\n      swap1\n      sstore\n      pop\n        /* \"msw/msw1.sol\":3668:3676  _txindex */\n      dup4\n        /* \"msw/msw1.sol\":3655:3665  msg.sender */\n      caller\n        /* \"msw/msw1.sol\":3636:3677  Revokecanfirmation(msg.sender , _txindex) */\n      0xffffffffffffffffffffffffffffffffffffffff\n      and\n      0xff5034bbbfef728f81c60ddbf47aba85a6f69878d5912968167b4e9e8ac9b5a9\n      mload(0x40)\n      mload(0x40)\n      dup1\n      swap2\n      sub\n      swap1\n      log3\n        /* \"msw/msw1.sol\":3431:3684  {... */\n      pop\n        /* \"msw/msw1.sol\":1347:1348  _ */\n      pop\n        /* \"msw/msw1.sol\":1252:1253  _ */\n      pop\n        /* \"msw/msw1.sol\":3332:3684  function revokecanfirmation(uint _txindex)public onlyowner txexists(_txindex) notexecuted(_txindex){... */\n      pop\n      jump\t// out\n        /* \"msw/msw1.sol\":1087:1146  mapping(uint => mapping(address => bool))public isconfirmed */\n    tag_49:\n      mstore(0x20, 0x04)\n      dup2\n      0x00\n      mstore\n      mstore(0x20, keccak256(0x00, 0x40))\n      dup1\n      0x00\n      mstore\n      keccak256(0x00, 0x40)\n      0x00\n      swap2\n      pop\n      swap2\n      pop\n      swap1\n      sload\n      swap1\n      0x0100\n      exp\n      swap1\n      div\n      0xff\n      and\n      dup2\n      jump\t// out\n        /* \"msw/msw1.sol\":864:879  uint public ncr */\n    tag_53:\n      sload(0x02)\n      dup2\n      jump\t// out\n        /* \"msw/msw1.sol\":3687:3910  function gettransaction(uint _txindex)public view returns(address , uint , bytes memory , bool , uint ){... */\n    tag_59:\n        /* \"msw/msw1.sol\":3745:3752  address */\n      0x00\n        /* \"msw/msw1.sol\":3755:3759  uint */\n      dup1\n        /* \"msw/msw1.sol\":3762:3774  bytes memory */\n      0x60\n        /* \"msw/msw1.sol\":3777:3781  bool */\n      0x00\n        /* \"msw/msw1.sol\":3784:3788  uint */\n      dup1\n        /* \"msw/msw1.sol\":3793:3815  transaction memory trx */\n      0x00\n        /* \"msw/msw1.sol\":3818:3830  transactions */\n      0x05\n        /* \"msw/msw1.sol\":3832:3840  _txindex */\n      dup8\n        /* \"msw/msw1.sol\":3818:3841  transactions [_txindex] */\n      dup2\n      sload\n      dup2\n      lt\n      tag_131\n      jumpi\n      tag_132\n      tag_93\n      jump\t// in\n    tag_132:\n    tag_131:\n      swap1\n      0x00\n      mstore\n      keccak256(0x00, 0x20)\n      swap1\n      0x06\n      mul\n      add\n        /* \"msw/msw1.sol\":3793:3841  transaction memory trx = transactions [_txindex] */\n      mload(0x40)\n      dup1\n      0xc0\n      add\n      0x40\n      mstore\n      swap1\n      dup2\n      0x00\n      dup3\n      add\n      0x00\n      swap1\n      sload\n      swap1\n      0x0100\n      exp\n      swap1\n      div\n      0xffffffffffffffffffffffffffffffffffffffff\n      and\n      0xffffffffffffffffffffffffffffffffffffffff\n      and\n      0xffffffffffffffffffffffffffffffffffffffff\n      and\n      dup2\n      mstore\n      0x20\n      add\n      0x01\n      dup3\n      add\n      sload\n      dup2\n      mstore\n      0x20\n      add\n      0x02\n      dup3\n      add\n      dup1\n      sload\n      tag_134\n      swap1\n      tag_135\n      jump\t// in\n    tag_134:\n      dup1\n      0x1f\n      add\n      0x20\n      dup1\n      swap2\n      div\n      mul\n      0x20\n      add\n      mload(0x40)\n      swap1\n      dup2\n      add\n      0x40\n      mstore\n      dup1\n      swap3\n      swap2\n      swap1\n      dup2\n      dup2\n      mstore\n      0x20\n      add\n      dup3\n      dup1\n      sload\n      tag_136\n      swap1\n      tag_135\n      jump\t// in\n    tag_136:\n      dup1\n      iszero\n      tag_137\n      jumpi\n      dup1\n      0x1f\n      lt\n      tag_138\n      jumpi\n      0x0100\n      dup1\n      dup4\n      sload\n      div\n      mul\n      dup4\n      mstore\n      swap2\n      0x20\n      add\n      swap2\n      jump(tag_137)\n    tag_138:\n      dup3\n      add\n      swap2\n      swap1\n      0x00\n      mstore\n      keccak256(0x00, 0x20)\n      swap1\n    tag_139:\n      dup2\n      sload\n      dup2\n      mstore\n      swap1\n      0x01\n      add\n      swap1\n      0x20\n      add\n      dup1\n      dup4\n      gt\n      tag_139\n      jumpi\n      dup3\n      swap1\n      sub\n      0x1f\n      and\n      dup3\n      add\n      swap2\n    tag_137:\n      pop\n      pop\n      pop\n      pop\n      pop\n      dup2\n      mstore\n      0x20\n      add\n      0x03\n      dup3\n      add\n      0x00\n      swap1\n      sload\n      swap1\n      0x0100\n      exp\n      swap1\n      div\n      0xff\n      and\n      iszero\n      iszero\n      iszero\n      iszero\n      dup2\n      mstore\n      0x20\n      add\n      0x04\n      dup3\n      add\n      sload\n      dup2\n      mstore\n      0x20\n      add\n      0x05\n      dup3\n      add\n      0x00\n      swap1\n      sload\n      swap1\n      0x0100\n      exp\n      swap1\n      div\n      0xff\n      and\n      0x02\n      dup2\n      gt\n      iszero\n      tag_140\n      jumpi\n      tag_141\n      tag_80\n      jump\t// in\n    tag_141:\n    tag_140:\n      0x02\n      dup2\n      gt\n      iszero\n      tag_142\n      jumpi\n      tag_143\n      tag_80\n      jump\t// in\n    tag_143:\n    tag_142:\n      dup2\n      mstore\n      pop\n      pop\n      swap1\n      pop\n        /* \"msw/msw1.sol\":3851:3854  trx */\n      dup1\n        /* \"msw/msw1.sol\":3851:3857  trx.to */\n      0x00\n      add\n      mload\n        /* \"msw/msw1.sol\":3860:3863  trx */\n      dup2\n        /* \"msw/msw1.sol\":3860:3869  trx.value */\n      0x20\n      add\n      mload\n        /* \"msw/msw1.sol\":3872:3875  trx */\n      dup3\n        /* \"msw/msw1.sol\":3872:3880  trx.data */\n      0x40\n      add\n      mload\n        /* \"msw/msw1.sol\":3883:3886  trx */\n      dup4\n        /* \"msw/msw1.sol\":3883:3895  trx.Executed */\n      0x60\n      add\n      mload\n        /* \"msw/msw1.sol\":3898:3901  trx */\n      dup5\n        /* \"msw/msw1.sol\":3898:3904  trx.nc */\n      0x80\n      add\n      mload\n        /* \"msw/msw1.sol\":3844:3905  return(trx.to , trx.value , trx.data , trx.Executed , trx.nc) */\n      swap6\n      pop\n      swap6\n      pop\n      swap6\n      pop\n      swap6\n      pop\n      swap6\n      pop\n      pop\n        /* \"msw/msw1.sol\":3687:3910  function gettransaction(uint _txindex)public view returns(address , uint , bytes memory , bool , uint ){... */\n      swap2\n      swap4\n      swap6\n      swap1\n      swap3\n      swap5\n      pop\n      jump\t// out\n        /* \"msw/msw1.sol\":1149:1181  transaction[]public transactions */\n    tag_65:\n      0x05\n      dup2\n      dup2\n      sload\n      dup2\n      lt\n      tag_144\n      jumpi\n      0x00\n      dup1\n      revert\n    tag_144:\n      swap1\n      0x00\n      mstore\n      keccak256(0x00, 0x20)\n      swap1\n      0x06\n      mul\n      add\n      0x00\n      swap2\n      pop\n      swap1\n      pop\n      dup1\n      0x00\n      add\n      0x00\n      swap1\n      sload\n      swap1\n      0x0100\n      exp\n      swap1\n      div\n      0xffffffffffffffffffffffffffffffffffffffff\n      and\n      swap1\n      dup1\n      0x01\n      add\n      sload\n      swap1\n      dup1\n      0x02\n      add\n      dup1\n      sload\n      tag_146\n      swap1\n      tag_135\n      jump\t// in\n    tag_146:\n      dup1\n      0x1f\n      add\n      0x20\n      dup1\n      swap2\n      div\n      mul\n      0x20\n      add\n      mload(0x40)\n      swap1\n      dup2\n      add\n      0x40\n      mstore\n      dup1\n      swap3\n      swap2\n      swap1\n      dup2\n      dup2\n      mstore\n      0x20\n      add\n      dup3\n      dup1\n      sload\n      tag_147\n      swap1\n      tag_135\n      jump\t// in\n    tag_147:\n      dup1\n      iszero\n      tag_148\n      jumpi\n      dup1\n      0x1f\n      lt\n      tag_149\n      jumpi\n      0x0100\n      dup1\n      dup4\n      sload\n      div\n      mul\n      dup4\n      mstore\n      swap2\n      0x20\n      add\n      swap2\n      jump(tag_148)\n    tag_149:\n      dup3\n      add\n      swap2\n      swap1\n      0x00\n      mstore\n      keccak256(0x00, 0x20)\n      swap1\n    tag_150:\n      dup2\n      sload\n      dup2\n      mstore\n      swap1\n      0x01\n      add\n      swap1\n      0x20\n      add\n      dup1\n      dup4\n      gt\n      tag_150\n      jumpi\n      dup3\n      swap1\n      sub\n      0x1f\n      and\n      dup3\n      add\n      swap2\n    tag_148:\n      pop\n      pop\n      pop\n      pop\n      pop\n      swap1\n      dup1\n      0x03\n      add\n      0x00\n      swap1\n      sload\n      swap1\n      0x0100\n      exp\n      swap1\n      div\n      0xff\n      and\n      swap1\n      dup1\n      0x04\n      add\n      sload\n      swap1\n      dup1\n      0x05\n      add\n      0x00\n      swap1\n      sload\n      swap1\n      0x0100\n      exp\n      swap1\n      div\n      0xff\n      and\n      swap1\n      pop\n      dup7\n      jump\t// out\n        /* \"msw/msw1.sol\":2489:2829  function confirmtransactions(uint _txindex)public onlyowner txexists(_txindex) notexecuted(_txindex) notconfimed(_txindex){... */\n    tag_71:\n        /* \"msw/msw1.sol\":1223:1230  isowner */\n      0x01\n        /* \"msw/msw1.sol\":1223:1243  isowner [msg.sender] */\n      0x00\n        /* \"msw/msw1.sol\":1232:1242  msg.sender */\n      caller\n        /* \"msw/msw1.sol\":1223:1243  isowner [msg.sender] */\n      0xffffffffffffffffffffffffffffffffffffffff\n      and\n      0xffffffffffffffffffffffffffffffffffffffff\n      and\n      dup2\n      mstore\n      0x20\n      add\n      swap1\n      dup2\n      mstore\n      0x20\n      add\n      0x00\n      keccak256\n      0x00\n      swap1\n      sload\n      swap1\n      0x0100\n      exp\n      swap1\n      div\n      0xff\n      and\n        /* \"msw/msw1.sol\":1214:1244  require (isowner [msg.sender]) */\n      tag_152\n      jumpi\n      0x00\n      dup1\n      revert\n    tag_152:\n        /* \"msw/msw1.sol\":2558:2566  _txindex */\n      dup1\n        /* \"msw/msw1.sol\":1320:1332  transactions */\n      0x05\n        /* \"msw/msw1.sol\":1320:1339  transactions.length */\n      dup1\n      sload\n      swap1\n      pop\n        /* \"msw/msw1.sol\":1309:1317  _txindex */\n      dup2\n        /* \"msw/msw1.sol\":1309:1339  _txindex < transactions.length */\n      lt\n        /* \"msw/msw1.sol\":1300:1340  require( _txindex < transactions.length) */\n      tag_154\n      jumpi\n      0x00\n      dup1\n      revert\n    tag_154:\n        /* \"msw/msw1.sol\":2580:2588  _txindex */\n      dup2\n        /* \"msw/msw1.sol\":1405:1417  transactions */\n      0x05\n        /* \"msw/msw1.sol\":1420:1428  _txindex */\n      dup2\n        /* \"msw/msw1.sol\":1405:1430  transactions [ _txindex ] */\n      dup2\n      sload\n      dup2\n      lt\n      tag_156\n      jumpi\n      tag_157\n      tag_93\n      jump\t// in\n    tag_157:\n    tag_156:\n      swap1\n      0x00\n      mstore\n      keccak256(0x00, 0x20)\n      swap1\n      0x06\n      mul\n      add\n        /* \"msw/msw1.sol\":1405:1439  transactions [ _txindex ].Executed */\n      0x03\n      add\n      0x00\n      swap1\n      sload\n      swap1\n      0x0100\n      exp\n      swap1\n      div\n      0xff\n      and\n        /* \"msw/msw1.sol\":1396:1440  require (transactions [ _txindex ].Executed) */\n      tag_159\n      jumpi\n      0x00\n      dup1\n      revert\n    tag_159:\n        /* \"msw/msw1.sol\":2602:2610  _txindex */\n      dup3\n        /* \"msw/msw1.sol\":1508:1519  isconfirmed */\n      0x04\n        /* \"msw/msw1.sol\":1508:1529  isconfirmed[_txindex] */\n      0x00\n        /* \"msw/msw1.sol\":1520:1528  _txindex */\n      dup3\n        /* \"msw/msw1.sol\":1508:1529  isconfirmed[_txindex] */\n      dup2\n      mstore\n      0x20\n      add\n      swap1\n      dup2\n      mstore\n      0x20\n      add\n      0x00\n      keccak256\n        /* \"msw/msw1.sol\":1508:1541  isconfirmed[_txindex][msg.sender] */\n      0x00\n        /* \"msw/msw1.sol\":1530:1540  msg.sender */\n      caller\n        /* \"msw/msw1.sol\":1508:1541  isconfirmed[_txindex][msg.sender] */\n      0xffffffffffffffffffffffffffffffffffffffff\n      and\n      0xffffffffffffffffffffffffffffffffffffffff\n      and\n      dup2\n      mstore\n      0x20\n      add\n      swap1\n      dup2\n      mstore\n      0x20\n      add\n      0x00\n      keccak256\n      0x00\n      swap1\n      sload\n      swap1\n      0x0100\n      exp\n      swap1\n      div\n      0xff\n      and\n        /* \"msw/msw1.sol\":1507:1541  !isconfirmed[_txindex][msg.sender] */\n      iszero\n        /* \"msw/msw1.sol\":1499:1542  require(!isconfirmed[_txindex][msg.sender]) */\n      tag_161\n      jumpi\n      0x00\n      dup1\n      revert\n    tag_161:\n        /* \"msw/msw1.sol\":2614:2637  transaction storage trx */\n      0x00\n        /* \"msw/msw1.sol\":2640:2652  transactions */\n      0x05\n        /* \"msw/msw1.sol\":2653:2661  _txindex */\n      dup6\n        /* \"msw/msw1.sol\":2640:2662  transactions[_txindex] */\n      dup2\n      sload\n      dup2\n      lt\n      tag_163\n      jumpi\n      tag_164\n      tag_93\n      jump\t// in\n    tag_164:\n    tag_163:\n      swap1\n      0x00\n      mstore\n      keccak256(0x00, 0x20)\n      swap1\n      0x06\n      mul\n      add\n        /* \"msw/msw1.sol\":2614:2662  transaction storage trx = transactions[_txindex] */\n      swap1\n      pop\n        /* \"msw/msw1.sol\":2674:2695  incanddec.inc(trx.nc) */\n      tag_166\n        /* \"msw/msw1.sol\":2688:2691  trx */\n      dup2\n        /* \"msw/msw1.sol\":2688:2694  trx.nc */\n      0x04\n      add\n      sload\n        /* \"msw/msw1.sol\":2674:2687  incanddec.inc */\n      tag_129\n        /* \"msw/msw1.sol\":2674:2695  incanddec.inc(trx.nc) */\n      jump\t// in\n    tag_166:\n        /* \"msw/msw1.sol\":2665:2668  trx */\n      dup2\n        /* \"msw/msw1.sol\":2665:2671  trx.nc */\n      0x04\n      add\n        /* \"msw/msw1.sol\":2665:2695  trx.nc = incanddec.inc(trx.nc) */\n      dup2\n      swap1\n      sstore\n      pop\n        /* \"msw/msw1.sol\":2732:2736  true */\n      0x01\n        /* \"msw/msw1.sol\":2698:2709  isconfirmed */\n      0x04\n        /* \"msw/msw1.sol\":2698:2719  isconfirmed[_txindex] */\n      0x00\n        /* \"msw/msw1.sol\":2710:2718  _txindex */\n      dup8\n        /* \"msw/msw1.sol\":2698:2719  isconfirmed[_txindex] */\n      dup2\n      mstore\n      0x20\n      add\n      swap1\n      dup2\n      mstore\n      0x20\n      add\n      0x00\n      keccak256\n        /* \"msw/msw1.sol\":2698:2731  isconfirmed[_txindex][msg.sender] */\n      0x00\n        /* \"msw/msw1.sol\":2720:2730  msg.sender */\n      caller\n        /* \"msw/msw1.sol\":2698:2731  isconfirmed[_txindex][msg.sender] */\n      0xffffffffffffffffffffffffffffffffffffffff\n      and\n      0xffffffffffffffffffffffffffffffffffffffff\n      and\n      dup2\n      mstore\n      0x20\n      add\n      swap1\n      dup2\n      mstore\n      0x20\n      add\n      0x00\n      keccak256\n      0x00\n        /* \"msw/msw1.sol\":2698:2736  isconfirmed[_txindex][msg.sender]=true */\n      0x0100\n      exp\n      dup2\n      sload\n      dup2\n      0xff\n      mul\n      not\n      and\n      swap1\n      dup4\n      iszero\n      iszero\n      mul\n      or\n      swap1\n      sstore\n      pop\n        /* \"msw/msw1.sol\":2749:2774  status .waitingforconfirm */\n      0x01\n        /* \"msw/msw1.sol\":2740:2743  trx */\n      dup2\n        /* \"msw/msw1.sol\":2740:2746  trx.st */\n      0x05\n      add\n      0x00\n        /* \"msw/msw1.sol\":2740:2774  trx.st = status .waitingforconfirm */\n      0x0100\n      exp\n      dup2\n      sload\n      dup2\n      0xff\n      mul\n      not\n      and\n      swap1\n      dup4\n      0x02\n      dup2\n      gt\n      iszero\n      tag_167\n      jumpi\n      tag_168\n      tag_80\n      jump\t// in\n    tag_168:\n    tag_167:\n      mul\n      or\n      swap1\n      sstore\n      pop\n        /* \"msw/msw1.sol\":2815:2823  _txindex */\n      dup5\n        /* \"msw/msw1.sol\":2802:2812  msg.sender */\n      caller\n        /* \"msw/msw1.sol\":2783:2824  confirmtransaction(msg.sender , _txindex) */\n      0xffffffffffffffffffffffffffffffffffffffff\n      and\n      0x2d7323b056dbf61c34c184ecc2c4042dca462ad27537fd871196c73715017928\n      mload(0x40)\n      mload(0x40)\n      dup1\n      swap2\n      sub\n      swap1\n      log3\n        /* \"msw/msw1.sol\":2611:2829  {... */\n      pop\n        /* \"msw/msw1.sol\":1448:1449  _ */\n      pop\n        /* \"msw/msw1.sol\":1347:1348  _ */\n      pop\n        /* \"msw/msw1.sol\":1252:1253  _ */\n      pop\n        /* \"msw/msw1.sol\":2489:2829  function confirmtransactions(uint _txindex)public onlyowner txexists(_txindex) notexecuted(_txindex) notconfimed(_txindex){... */\n      pop\n      jump\t// out\n        /* \"msw/msw1.sol\":234:311  function inc(uint a)internal pure returns(uint){... */\n    tag_129:\n        /* \"msw/msw1.sol\":276:280  uint */\n      0x00\n        /* \"msw/msw1.sol\":299:302  a++ */\n      dup2\n      dup1\n      tag_170\n      swap1\n      tag_171\n      jump\t// in\n    tag_170:\n      swap3\n      pop\n        /* \"msw/msw1.sol\":292:302  return a++ */\n      swap1\n      pop\n        /* \"msw/msw1.sol\":234:311  function inc(uint a)internal pure returns(uint){... */\n      swap2\n      swap1\n      pop\n      jump\t// out\n        /* \"#utility.yul\":7:84   */\n    tag_172:\n        /* \"#utility.yul\":44:51   */\n      0x00\n        /* \"#utility.yul\":73:78   */\n      dup2\n        /* \"#utility.yul\":62:78   */\n      swap1\n      pop\n        /* \"#utility.yul\":7:84   */\n      swap2\n      swap1\n      pop\n      jump\t// out\n        /* \"#utility.yul\":90:208   */\n    tag_173:\n        /* \"#utility.yul\":177:201   */\n      tag_234\n        /* \"#utility.yul\":195:200   */\n      dup2\n        /* \"#utility.yul\":177:201   */\n      tag_172\n      jump\t// in\n    tag_234:\n        /* \"#utility.yul\":172:175   */\n      dup3\n        /* \"#utility.yul\":165:202   */\n      mstore\n        /* \"#utility.yul\":90:208   */\n      pop\n      pop\n      jump\t// out\n        /* \"#utility.yul\":214:546   */\n    tag_17:\n        /* \"#utility.yul\":335:339   */\n      0x00\n        /* \"#utility.yul\":373:375   */\n      0x40\n        /* \"#utility.yul\":362:371   */\n      dup3\n        /* \"#utility.yul\":358:376   */\n      add\n        /* \"#utility.yul\":350:376   */\n      swap1\n      pop\n        /* \"#utility.yul\":386:457   */\n      tag_236\n        /* \"#utility.yul\":454:455   */\n      0x00\n        /* \"#utility.yul\":443:452   */\n      dup4\n        /* \"#utility.yul\":439:456   */\n      add\n        /* \"#utility.yul\":430:436   */\n      dup6\n        /* \"#utility.yul\":386:457   */\n      tag_173\n      jump\t// in\n    tag_236:\n        /* \"#utility.yul\":467:539   */\n      tag_237\n        /* \"#utility.yul\":535:537   */\n      0x20\n        /* \"#utility.yul\":524:533   */\n      dup4\n        /* \"#utility.yul\":520:538   */\n      add\n        /* \"#utility.yul\":511:517   */\n      dup5\n        /* \"#utility.yul\":467:539   */\n      tag_173\n      jump\t// in\n    tag_237:\n        /* \"#utility.yul\":214:546   */\n      swap4\n      swap3\n      pop\n      pop\n      pop\n      jump\t// out\n        /* \"#utility.yul\":552:627   */\n    tag_174:\n        /* \"#utility.yul\":585:591   */\n      0x00\n        /* \"#utility.yul\":618:620   */\n      0x40\n        /* \"#utility.yul\":612:621   */\n      mload\n        /* \"#utility.yul\":602:621   */\n      swap1\n      pop\n        /* \"#utility.yul\":552:627   */\n      swap1\n      jump\t// out\n        /* \"#utility.yul\":633:750   */\n    tag_175:\n        /* \"#utility.yul\":742:743   */\n      0x00\n        /* \"#utility.yul\":739:740   */\n      dup1\n        /* \"#utility.yul\":732:744   */\n      revert\n        /* \"#utility.yul\":756:873   */\n    tag_176:\n        /* \"#utility.yul\":865:866   */\n      0x00\n        /* \"#utility.yul\":862:863   */\n      dup1\n        /* \"#utility.yul\":855:867   */\n      revert\n        /* \"#utility.yul\":879:1001   */\n    tag_177:\n        /* \"#utility.yul\":952:976   */\n      tag_242\n        /* \"#utility.yul\":970:975   */\n      dup2\n        /* \"#utility.yul\":952:976   */\n      tag_172\n      jump\t// in\n    tag_242:\n        /* \"#utility.yul\":945:950   */\n      dup2\n        /* \"#utility.yul\":942:977   */\n      eq\n        /* \"#utility.yul\":932:995   */\n      tag_243\n      jumpi\n        /* \"#utility.yul\":991:992   */\n      0x00\n        /* \"#utility.yul\":988:989   */\n      dup1\n        /* \"#utility.yul\":981:993   */\n      revert\n        /* \"#utility.yul\":932:995   */\n    tag_243:\n        /* \"#utility.yul\":879:1001   */\n      pop\n      jump\t// out\n        /* \"#utility.yul\":1007:1146   */\n    tag_178:\n        /* \"#utility.yul\":1053:1058   */\n      0x00\n        /* \"#utility.yul\":1091:1097   */\n      dup2\n        /* \"#utility.yul\":1078:1098   */\n      calldataload\n        /* \"#utility.yul\":1069:1098   */\n      swap1\n      pop\n        /* \"#utility.yul\":1107:1140   */\n      tag_245\n        /* \"#utility.yul\":1134:1139   */\n      dup2\n        /* \"#utility.yul\":1107:1140   */\n      tag_177\n      jump\t// in\n    tag_245:\n        /* \"#utility.yul\":1007:1146   */\n      swap3\n      swap2\n      pop\n      pop\n      jump\t// out\n        /* \"#utility.yul\":1152:1481   */\n    tag_21:\n        /* \"#utility.yul\":1211:1217   */\n      0x00\n        /* \"#utility.yul\":1260:1262   */\n      0x20\n        /* \"#utility.yul\":1248:1257   */\n      dup3\n        /* \"#utility.yul\":1239:1246   */\n      dup5\n        /* \"#utility.yul\":1235:1258   */\n      sub\n        /* \"#utility.yul\":1231:1263   */\n      slt\n        /* \"#utility.yul\":1228:1347   */\n      iszero\n      tag_247\n      jumpi\n        /* \"#utility.yul\":1266:1345   */\n      tag_248\n      tag_175\n      jump\t// in\n    tag_248:\n        /* \"#utility.yul\":1228:1347   */\n    tag_247:\n        /* \"#utility.yul\":1386:1387   */\n      0x00\n        /* \"#utility.yul\":1411:1464   */\n      tag_249\n        /* \"#utility.yul\":1456:1463   */\n      dup5\n        /* \"#utility.yul\":1447:1453   */\n      dup3\n        /* \"#utility.yul\":1436:1445   */\n      dup6\n        /* \"#utility.yul\":1432:1454   */\n      add\n        /* \"#utility.yul\":1411:1464   */\n      tag_178\n      jump\t// in\n    tag_249:\n        /* \"#utility.yul\":1401:1464   */\n      swap2\n      pop\n        /* \"#utility.yul\":1357:1474   */\n      pop\n        /* \"#utility.yul\":1152:1481   */\n      swap3\n      swap2\n      pop\n      pop\n      jump\t// out\n        /* \"#utility.yul\":1487:1613   */\n    tag_179:\n        /* \"#utility.yul\":1524:1531   */\n      0x00\n        /* \"#utility.yul\":1564:1606   */\n      0xffffffffffffffffffffffffffffffffffffffff\n        /* \"#utility.yul\":1557:1562   */\n      dup3\n        /* \"#utility.yul\":1553:1607   */\n      and\n        /* \"#utility.yul\":1542:1607   */\n      swap1\n      pop\n        /* \"#utility.yul\":1487:1613   */\n      swap2\n      swap1\n      pop\n      jump\t// out\n        /* \"#utility.yul\":1619:1715   */\n    tag_180:\n        /* \"#utility.yul\":1656:1663   */\n      0x00\n        /* \"#utility.yul\":1685:1709   */\n      tag_252\n        /* \"#utility.yul\":1703:1708   */\n      dup3\n        /* \"#utility.yul\":1685:1709   */\n      tag_179\n      jump\t// in\n    tag_252:\n        /* \"#utility.yul\":1674:1709   */\n      swap1\n      pop\n        /* \"#utility.yul\":1619:1715   */\n      swap2\n      swap1\n      pop\n      jump\t// out\n        /* \"#utility.yul\":1721:1839   */\n    tag_181:\n        /* \"#utility.yul\":1808:1832   */\n      tag_254\n        /* \"#utility.yul\":1826:1831   */\n      dup2\n        /* \"#utility.yul\":1808:1832   */\n      tag_180\n      jump\t// in\n    tag_254:\n        /* \"#utility.yul\":1803:1806   */\n      dup3\n        /* \"#utility.yul\":1796:1833   */\n      mstore\n        /* \"#utility.yul\":1721:1839   */\n      pop\n      pop\n      jump\t// out\n        /* \"#utility.yul\":1845:2067   */\n    tag_24:\n        /* \"#utility.yul\":1938:1942   */\n      0x00\n        /* \"#utility.yul\":1976:1978   */\n      0x20\n        /* \"#utility.yul\":1965:1974   */\n      dup3\n        /* \"#utility.yul\":1961:1979   */\n      add\n        /* \"#utility.yul\":1953:1979   */\n      swap1\n      pop\n        /* \"#utility.yul\":1989:2060   */\n      tag_256\n        /* \"#utility.yul\":2057:2058   */\n      0x00\n        /* \"#utility.yul\":2046:2055   */\n      dup4\n        /* \"#utility.yul\":2042:2059   */\n      add\n        /* \"#utility.yul\":2033:2039   */\n      dup5\n        /* \"#utility.yul\":1989:2060   */\n      tag_181\n      jump\t// in\n    tag_256:\n        /* \"#utility.yul\":1845:2067   */\n      swap3\n      swap2\n      pop\n      pop\n      jump\t// out\n        /* \"#utility.yul\":2073:2195   */\n    tag_182:\n        /* \"#utility.yul\":2146:2170   */\n      tag_258\n        /* \"#utility.yul\":2164:2169   */\n      dup2\n        /* \"#utility.yul\":2146:2170   */\n      tag_180\n      jump\t// in\n    tag_258:\n        /* \"#utility.yul\":2139:2144   */\n      dup2\n        /* \"#utility.yul\":2136:2171   */\n      eq\n        /* \"#utility.yul\":2126:2189   */\n      tag_259\n      jumpi\n        /* \"#utility.yul\":2185:2186   */\n      0x00\n        /* \"#utility.yul\":2182:2183   */\n      dup1\n        /* \"#utility.yul\":2175:2187   */\n      revert\n        /* \"#utility.yul\":2126:2189   */\n    tag_259:\n        /* \"#utility.yul\":2073:2195   */\n      pop\n      jump\t// out\n        /* \"#utility.yul\":2201:2340   */\n    tag_183:\n        /* \"#utility.yul\":2247:2252   */\n      0x00\n        /* \"#utility.yul\":2285:2291   */\n      dup2\n        /* \"#utility.yul\":2272:2292   */\n      calldataload\n        /* \"#utility.yul\":2263:2292   */\n      swap1\n      pop\n        /* \"#utility.yul\":2301:2334   */\n      tag_261\n        /* \"#utility.yul\":2328:2333   */\n      dup2\n        /* \"#utility.yul\":2301:2334   */\n      tag_182\n      jump\t// in\n    tag_261:\n        /* \"#utility.yul\":2201:2340   */\n      swap3\n      swap2\n      pop\n      pop\n      jump\t// out\n        /* \"#utility.yul\":2346:2463   */\n    tag_184:\n        /* \"#utility.yul\":2455:2456   */\n      0x00\n        /* \"#utility.yul\":2452:2453   */\n      dup1\n        /* \"#utility.yul\":2445:2457   */\n      revert\n        /* \"#utility.yul\":2469:2586   */\n    tag_185:\n        /* \"#utility.yul\":2578:2579   */\n      0x00\n        /* \"#utility.yul\":2575:2576   */\n      dup1\n        /* \"#utility.yul\":2568:2580   */\n      revert\n        /* \"#utility.yul\":2592:2694   */\n    tag_186:\n        /* \"#utility.yul\":2633:2639   */\n      0x00\n        /* \"#utility.yul\":2684:2686   */\n      0x1f\n        /* \"#utility.yul\":2680:2687   */\n      not\n        /* \"#utility.yul\":2675:2677   */\n      0x1f\n        /* \"#utility.yul\":2668:2673   */\n      dup4\n        /* \"#utility.yul\":2664:2678   */\n      add\n        /* \"#utility.yul\":2660:2688   */\n      and\n        /* \"#utility.yul\":2650:2688   */\n      swap1\n      pop\n        /* \"#utility.yul\":2592:2694   */\n      swap2\n      swap1\n      pop\n      jump\t// out\n        /* \"#utility.yul\":2700:2880   */\n    tag_187:\n        /* \"#utility.yul\":2748:2825   */\n      0x4e487b7100000000000000000000000000000000000000000000000000000000\n        /* \"#utility.yul\":2745:2746   */\n      0x00\n        /* \"#utility.yul\":2738:2826   */\n      mstore\n        /* \"#utility.yul\":2845:2849   */\n      0x41\n        /* \"#utility.yul\":2842:2843   */\n      0x04\n        /* \"#utility.yul\":2835:2850   */\n      mstore\n        /* \"#utility.yul\":2869:2873   */\n      0x24\n        /* \"#utility.yul\":2866:2867   */\n      0x00\n        /* \"#utility.yul\":2859:2874   */\n      revert\n        /* \"#utility.yul\":2886:3167   */\n    tag_188:\n        /* \"#utility.yul\":2969:2996   */\n      tag_267\n        /* \"#utility.yul\":2991:2995   */\n      dup3\n        /* \"#utility.yul\":2969:2996   */\n      tag_186\n      jump\t// in\n    tag_267:\n        /* \"#utility.yul\":2961:2967   */\n      dup2\n        /* \"#utility.yul\":2957:2997   */\n      add\n        /* \"#utility.yul\":3099:3105   */\n      dup2\n        /* \"#utility.yul\":3087:3097   */\n      dup2\n        /* \"#utility.yul\":3084:3106   */\n      lt\n        /* \"#utility.yul\":3063:3081   */\n      0xffffffffffffffff\n        /* \"#utility.yul\":3051:3061   */\n      dup3\n        /* \"#utility.yul\":3048:3082   */\n      gt\n        /* \"#utility.yul\":3045:3107   */\n      or\n        /* \"#utility.yul\":3042:3130   */\n      iszero\n      tag_268\n      jumpi\n        /* \"#utility.yul\":3110:3128   */\n      tag_269\n      tag_187\n      jump\t// in\n    tag_269:\n        /* \"#utility.yul\":3042:3130   */\n    tag_268:\n        /* \"#utility.yul\":3150:3160   */\n      dup1\n        /* \"#utility.yul\":3146:3148   */\n      0x40\n        /* \"#utility.yul\":3139:3161   */\n      mstore\n        /* \"#utility.yul\":2929:3167   */\n      pop\n        /* \"#utility.yul\":2886:3167   */\n      pop\n      pop\n      jump\t// out\n        /* \"#utility.yul\":3173:3302   */\n    tag_189:\n        /* \"#utility.yul\":3207:3213   */\n      0x00\n        /* \"#utility.yul\":3234:3254   */\n      tag_271\n      tag_174\n      jump\t// in\n    tag_271:\n        /* \"#utility.yul\":3224:3254   */\n      swap1\n      pop\n        /* \"#utility.yul\":3263:3296   */\n      tag_272\n        /* \"#utility.yul\":3291:3295   */\n      dup3\n        /* \"#utility.yul\":3283:3289   */\n      dup3\n        /* \"#utility.yul\":3263:3296   */\n      tag_188\n      jump\t// in\n    tag_272:\n        /* \"#utility.yul\":3173:3302   */\n      swap2\n      swap1\n      pop\n      jump\t// out\n        /* \"#utility.yul\":3308:3615   */\n    tag_190:\n        /* \"#utility.yul\":3369:3373   */\n      0x00\n        /* \"#utility.yul\":3459:3477   */\n      0xffffffffffffffff\n        /* \"#utility.yul\":3451:3457   */\n      dup3\n        /* \"#utility.yul\":3448:3478   */\n      gt\n        /* \"#utility.yul\":3445:3501   */\n      iszero\n      tag_274\n      jumpi\n        /* \"#utility.yul\":3481:3499   */\n      tag_275\n      tag_187\n      jump\t// in\n    tag_275:\n        /* \"#utility.yul\":3445:3501   */\n    tag_274:\n        /* \"#utility.yul\":3519:3548   */\n      tag_276\n        /* \"#utility.yul\":3541:3547   */\n      dup3\n        /* \"#utility.yul\":3519:3548   */\n      tag_186\n      jump\t// in\n    tag_276:\n        /* \"#utility.yul\":3511:3548   */\n      swap1\n      pop\n        /* \"#utility.yul\":3603:3607   */\n      0x20\n        /* \"#utility.yul\":3597:3601   */\n      dup2\n        /* \"#utility.yul\":3593:3608   */\n      add\n        /* \"#utility.yul\":3585:3608   */\n      swap1\n      pop\n        /* \"#utility.yul\":3308:3615   */\n      swap2\n      swap1\n      pop\n      jump\t// out\n        /* \"#utility.yul\":3621:3767   */\n    tag_191:\n        /* \"#utility.yul\":3718:3724   */\n      dup3\n        /* \"#utility.yul\":3713:3716   */\n      dup2\n        /* \"#utility.yul\":3708:3711   */\n      dup4\n        /* \"#utility.yul\":3695:3725   */\n      calldatacopy\n        /* \"#utility.yul\":3759:3760   */\n      0x00\n        /* \"#utility.yul\":3750:3756   */\n      dup4\n        /* \"#utility.yul\":3745:3748   */\n      dup4\n        /* \"#utility.yul\":3741:3757   */\n      add\n        /* \"#utility.yul\":3734:3761   */\n      mstore\n        /* \"#utility.yul\":3621:3767   */\n      pop\n      pop\n      pop\n      jump\t// out\n        /* \"#utility.yul\":3773:4196   */\n    tag_192:\n        /* \"#utility.yul\":3850:3855   */\n      0x00\n        /* \"#utility.yul\":3875:3940   */\n      tag_279\n        /* \"#utility.yul\":3891:3939   */\n      tag_280\n        /* \"#utility.yul\":3932:3938   */\n      dup5\n        /* \"#utility.yul\":3891:3939   */\n      tag_190\n      jump\t// in\n    tag_280:\n        /* \"#utility.yul\":3875:3940   */\n      tag_189\n      jump\t// in\n    tag_279:\n        /* \"#utility.yul\":3866:3940   */\n      swap1\n      pop\n        /* \"#utility.yul\":3963:3969   */\n      dup3\n        /* \"#utility.yul\":3956:3961   */\n      dup2\n        /* \"#utility.yul\":3949:3970   */\n      mstore\n        /* \"#utility.yul\":4001:4005   */\n      0x20\n        /* \"#utility.yul\":3994:3999   */\n      dup2\n        /* \"#utility.yul\":3990:4006   */\n      add\n        /* \"#utility.yul\":4039:4042   */\n      dup5\n        /* \"#utility.yul\":4030:4036   */\n      dup5\n        /* \"#utility.yul\":4025:4028   */\n      dup5\n        /* \"#utility.yul\":4021:4037   */\n      add\n        /* \"#utility.yul\":4018:4043   */\n      gt\n        /* \"#utility.yul\":4015:4127   */\n      iszero\n      tag_281\n      jumpi\n        /* \"#utility.yul\":4046:4125   */\n      tag_282\n      tag_185\n      jump\t// in\n    tag_282:\n        /* \"#utility.yul\":4015:4127   */\n    tag_281:\n        /* \"#utility.yul\":4136:4190   */\n      tag_283\n        /* \"#utility.yul\":4183:4189   */\n      dup5\n        /* \"#utility.yul\":4178:4181   */\n      dup3\n        /* \"#utility.yul\":4173:4176   */\n      dup6\n        /* \"#utility.yul\":4136:4190   */\n      tag_191\n      jump\t// in\n    tag_283:\n        /* \"#utility.yul\":3856:4196   */\n      pop\n        /* \"#utility.yul\":3773:4196   */\n      swap4\n      swap3\n      pop\n      pop\n      pop\n      jump\t// out\n        /* \"#utility.yul\":4215:4553   */\n    tag_193:\n        /* \"#utility.yul\":4270:4275   */\n      0x00\n        /* \"#utility.yul\":4319:4322   */\n      dup3\n        /* \"#utility.yul\":4312:4316   */\n      0x1f\n        /* \"#utility.yul\":4304:4310   */\n      dup4\n        /* \"#utility.yul\":4300:4317   */\n      add\n        /* \"#utility.yul\":4296:4323   */\n      slt\n        /* \"#utility.yul\":4286:4408   */\n      tag_285\n      jumpi\n        /* \"#utility.yul\":4327:4406   */\n      tag_286\n      tag_184\n      jump\t// in\n    tag_286:\n        /* \"#utility.yul\":4286:4408   */\n    tag_285:\n        /* \"#utility.yul\":4444:4450   */\n      dup2\n        /* \"#utility.yul\":4431:4451   */\n      calldataload\n        /* \"#utility.yul\":4469:4547   */\n      tag_287\n        /* \"#utility.yul\":4543:4546   */\n      dup5\n        /* \"#utility.yul\":4535:4541   */\n      dup3\n        /* \"#utility.yul\":4528:4532   */\n      0x20\n        /* \"#utility.yul\":4520:4526   */\n      dup7\n        /* \"#utility.yul\":4516:4533   */\n      add\n        /* \"#utility.yul\":4469:4547   */\n      tag_192\n      jump\t// in\n    tag_287:\n        /* \"#utility.yul\":4460:4547   */\n      swap2\n      pop\n        /* \"#utility.yul\":4276:4553   */\n      pop\n        /* \"#utility.yul\":4215:4553   */\n      swap3\n      swap2\n      pop\n      pop\n      jump\t// out\n        /* \"#utility.yul\":4559:5356   */\n    tag_27:\n        /* \"#utility.yul\":4645:4651   */\n      0x00\n        /* \"#utility.yul\":4653:4659   */\n      dup1\n        /* \"#utility.yul\":4661:4667   */\n      0x00\n        /* \"#utility.yul\":4710:4712   */\n      0x60\n        /* \"#utility.yul\":4698:4707   */\n      dup5\n        /* \"#utility.yul\":4689:4696   */\n      dup7\n        /* \"#utility.yul\":4685:4708   */\n      sub\n        /* \"#utility.yul\":4681:4713   */\n      slt\n        /* \"#utility.yul\":4678:4797   */\n      iszero\n      tag_289\n      jumpi\n        /* \"#utility.yul\":4716:4795   */\n      tag_290\n      tag_175\n      jump\t// in\n    tag_290:\n        /* \"#utility.yul\":4678:4797   */\n    tag_289:\n        /* \"#utility.yul\":4836:4837   */\n      0x00\n        /* \"#utility.yul\":4861:4914   */\n      tag_291\n        /* \"#utility.yul\":4906:4913   */\n      dup7\n        /* \"#utility.yul\":4897:4903   */\n      dup3\n        /* \"#utility.yul\":4886:4895   */\n      dup8\n        /* \"#utility.yul\":4882:4904   */\n      add\n        /* \"#utility.yul\":4861:4914   */\n      tag_183\n      jump\t// in\n    tag_291:\n        /* \"#utility.yul\":4851:4914   */\n      swap4\n      pop\n        /* \"#utility.yul\":4807:4924   */\n      pop\n        /* \"#utility.yul\":4963:4965   */\n      0x20\n        /* \"#utility.yul\":4989:5042   */\n      tag_292\n        /* \"#utility.yul\":5034:5041   */\n      dup7\n        /* \"#utility.yul\":5025:5031   */\n      dup3\n        /* \"#utility.yul\":5014:5023   */\n      dup8\n        /* \"#utility.yul\":5010:5032   */\n      add\n        /* \"#utility.yul\":4989:5042   */\n      tag_178\n      jump\t// in\n    tag_292:\n        /* \"#utility.yul\":4979:5042   */\n      swap3\n      pop\n        /* \"#utility.yul\":4934:5052   */\n      pop\n        /* \"#utility.yul\":5119:5121   */\n      0x40\n        /* \"#utility.yul\":5108:5117   */\n      dup5\n        /* \"#utility.yul\":5104:5122   */\n      add\n        /* \"#utility.yul\":5091:5123   */\n      calldataload\n        /* \"#utility.yul\":5150:5168   */\n      0xffffffffffffffff\n        /* \"#utility.yul\":5142:5148   */\n      dup2\n        /* \"#utility.yul\":5139:5169   */\n      gt\n        /* \"#utility.yul\":5136:5253   */\n      iszero\n      tag_293\n      jumpi\n        /* \"#utility.yul\":5172:5251   */\n      tag_294\n      tag_176\n      jump\t// in\n    tag_294:\n        /* \"#utility.yul\":5136:5253   */\n    tag_293:\n        /* \"#utility.yul\":5277:5339   */\n      tag_295\n        /* \"#utility.yul\":5331:5338   */\n      dup7\n        /* \"#utility.yul\":5322:5328   */\n      dup3\n        /* \"#utility.yul\":5311:5320   */\n      dup8\n        /* \"#utility.yul\":5307:5329   */\n      add\n        /* \"#utility.yul\":5277:5339   */\n      tag_193\n      jump\t// in\n    tag_295:\n        /* \"#utility.yul\":5267:5339   */\n      swap2\n      pop\n        /* \"#utility.yul\":5062:5349   */\n      pop\n        /* \"#utility.yul\":4559:5356   */\n      swap3\n      pop\n      swap3\n      pop\n      swap3\n      jump\t// out\n        /* \"#utility.yul\":5362:5670   */\n    tag_194:\n        /* \"#utility.yul\":5424:5428   */\n      0x00\n        /* \"#utility.yul\":5514:5532   */\n      0xffffffffffffffff\n        /* \"#utility.yul\":5506:5512   */\n      dup3\n        /* \"#utility.yul\":5503:5533   */\n      gt\n        /* \"#utility.yul\":5500:5556   */\n      iszero\n      tag_297\n      jumpi\n        /* \"#utility.yul\":5536:5554   */\n      tag_298\n      tag_187\n      jump\t// in\n    tag_298:\n        /* \"#utility.yul\":5500:5556   */\n    tag_297:\n        /* \"#utility.yul\":5574:5603   */\n      tag_299\n        /* \"#utility.yul\":5596:5602   */\n      dup3\n        /* \"#utility.yul\":5574:5603   */\n      tag_186\n      jump\t// in\n    tag_299:\n        /* \"#utility.yul\":5566:5603   */\n      swap1\n      pop\n        /* \"#utility.yul\":5658:5662   */\n      0x20\n        /* \"#utility.yul\":5652:5656   */\n      dup2\n        /* \"#utility.yul\":5648:5663   */\n      add\n        /* \"#utility.yul\":5640:5663   */\n      swap1\n      pop\n        /* \"#utility.yul\":5362:5670   */\n      swap2\n      swap1\n      pop\n      jump\t// out\n        /* \"#utility.yul\":5676:6101   */\n    tag_195:\n        /* \"#utility.yul\":5754:5759   */\n      0x00\n        /* \"#utility.yul\":5779:5845   */\n      tag_301\n        /* \"#utility.yul\":5795:5844   */\n      tag_302\n        /* \"#utility.yul\":5837:5843   */\n      dup5\n        /* \"#utility.yul\":5795:5844   */\n      tag_194\n      jump\t// in\n    tag_302:\n        /* \"#utility.yul\":5779:5845   */\n      tag_189\n      jump\t// in\n    tag_301:\n        /* \"#utility.yul\":5770:5845   */\n      swap1\n      pop\n        /* \"#utility.yul\":5868:5874   */\n      dup3\n        /* \"#utility.yul\":5861:5866   */\n      dup2\n        /* \"#utility.yul\":5854:5875   */\n      mstore\n        /* \"#utility.yul\":5906:5910   */\n      0x20\n        /* \"#utility.yul\":5899:5904   */\n      dup2\n        /* \"#utility.yul\":5895:5911   */\n      add\n        /* \"#utility.yul\":5944:5947   */\n      dup5\n        /* \"#utility.yul\":5935:5941   */\n      dup5\n        /* \"#utility.yul\":5930:5933   */\n      dup5\n        /* \"#utility.yul\":5926:5942   */\n      add\n        /* \"#utility.yul\":5923:5948   */\n      gt\n        /* \"#utility.yul\":5920:6032   */\n      iszero\n      tag_303\n      jumpi\n        /* \"#utility.yul\":5951:6030   */\n      tag_304\n      tag_185\n      jump\t// in\n    tag_304:\n        /* \"#utility.yul\":5920:6032   */\n    tag_303:\n        /* \"#utility.yul\":6041:6095   */\n      tag_305\n        /* \"#utility.yul\":6088:6094   */\n      dup5\n        /* \"#utility.yul\":6083:6086   */\n      dup3\n        /* \"#utility.yul\":6078:6081   */\n      dup6\n        /* \"#utility.yul\":6041:6095   */\n      tag_191\n      jump\t// in\n    tag_305:\n        /* \"#utility.yul\":5760:6101   */\n      pop\n        /* \"#utility.yul\":5676:6101   */\n      swap4\n      swap3\n      pop\n      pop\n      pop\n      jump\t// out\n        /* \"#utility.yul\":6121:6461   */\n    tag_196:\n        /* \"#utility.yul\":6177:6182   */\n      0x00\n        /* \"#utility.yul\":6226:6229   */\n      dup3\n        /* \"#utility.yul\":6219:6223   */\n      0x1f\n        /* \"#utility.yul\":6211:6217   */\n      dup4\n        /* \"#utility.yul\":6207:6224   */\n      add\n        /* \"#utility.yul\":6203:6230   */\n      slt\n        /* \"#utility.yul\":6193:6315   */\n      tag_307\n      jumpi\n        /* \"#utility.yul\":6234:6313   */\n      tag_308\n      tag_184\n      jump\t// in\n    tag_308:\n        /* \"#utility.yul\":6193:6315   */\n    tag_307:\n        /* \"#utility.yul\":6351:6357   */\n      dup2\n        /* \"#utility.yul\":6338:6358   */\n      calldataload\n        /* \"#utility.yul\":6376:6455   */\n      tag_309\n        /* \"#utility.yul\":6451:6454   */\n      dup5\n        /* \"#utility.yul\":6443:6449   */\n      dup3\n        /* \"#utility.yul\":6436:6440   */\n      0x20\n        /* \"#utility.yul\":6428:6434   */\n      dup7\n        /* \"#utility.yul\":6424:6441   */\n      add\n        /* \"#utility.yul\":6376:6455   */\n      tag_195\n      jump\t// in\n    tag_309:\n        /* \"#utility.yul\":6367:6455   */\n      swap2\n      pop\n        /* \"#utility.yul\":6183:6461   */\n      pop\n        /* \"#utility.yul\":6121:6461   */\n      swap3\n      swap2\n      pop\n      pop\n      jump\t// out\n        /* \"#utility.yul\":6467:7121   */\n    tag_32:\n        /* \"#utility.yul\":6545:6551   */\n      0x00\n        /* \"#utility.yul\":6553:6559   */\n      dup1\n        /* \"#utility.yul\":6602:6604   */\n      0x40\n        /* \"#utility.yul\":6590:6599   */\n      dup4\n        /* \"#utility.yul\":6581:6588   */\n      dup6\n        /* \"#utility.yul\":6577:6600   */\n      sub\n        /* \"#utility.yul\":6573:6605   */\n      slt\n        /* \"#utility.yul\":6570:6689   */\n      iszero\n      tag_311\n      jumpi\n        /* \"#utility.yul\":6608:6687   */\n      tag_312\n      tag_175\n      jump\t// in\n    tag_312:\n        /* \"#utility.yul\":6570:6689   */\n    tag_311:\n        /* \"#utility.yul\":6728:6729   */\n      0x00\n        /* \"#utility.yul\":6753:6806   */\n      tag_313\n        /* \"#utility.yul\":6798:6805   */\n      dup6\n        /* \"#utility.yul\":6789:6795   */\n      dup3\n        /* \"#utility.yul\":6778:6787   */\n      dup7\n        /* \"#utility.yul\":6774:6796   */\n      add\n        /* \"#utility.yul\":6753:6806   */\n      tag_178\n      jump\t// in\n    tag_313:\n        /* \"#utility.yul\":6743:6806   */\n      swap3\n      pop\n        /* \"#utility.yul\":6699:6816   */\n      pop\n        /* \"#utility.yul\":6883:6885   */\n      0x20\n        /* \"#utility.yul\":6872:6881   */\n      dup4\n        /* \"#utility.yul\":6868:6886   */\n      add\n        /* \"#utility.yul\":6855:6887   */\n      calldataload\n        /* \"#utility.yul\":6914:6932   */\n      0xffffffffffffffff\n        /* \"#utility.yul\":6906:6912   */\n      dup2\n        /* \"#utility.yul\":6903:6933   */\n      gt\n        /* \"#utility.yul\":6900:7017   */\n      iszero\n      tag_314\n      jumpi\n        /* \"#utility.yul\":6936:7015   */\n      tag_315\n      tag_176\n      jump\t// in\n    tag_315:\n        /* \"#utility.yul\":6900:7017   */\n    tag_314:\n        /* \"#utility.yul\":7041:7104   */\n      tag_316\n        /* \"#utility.yul\":7096:7103   */\n      dup6\n        /* \"#utility.yul\":7087:7093   */\n      dup3\n        /* \"#utility.yul\":7076:7085   */\n      dup7\n        /* \"#utility.yul\":7072:7094   */\n      add\n        /* \"#utility.yul\":7041:7104   */\n      tag_196\n      jump\t// in\n    tag_316:\n        /* \"#utility.yul\":7031:7104   */\n      swap2\n      pop\n        /* \"#utility.yul\":6826:7114   */\n      pop\n        /* \"#utility.yul\":6467:7121   */\n      swap3\n      pop\n      swap3\n      swap1\n      pop\n      jump\t// out\n        /* \"#utility.yul\":7127:7456   */\n    tag_37:\n        /* \"#utility.yul\":7186:7192   */\n      0x00\n        /* \"#utility.yul\":7235:7237   */\n      0x20\n        /* \"#utility.yul\":7223:7232   */\n      dup3\n        /* \"#utility.yul\":7214:7221   */\n      dup5\n        /* \"#utility.yul\":7210:7233   */\n      sub\n        /* \"#utility.yul\":7206:7238   */\n      slt\n        /* \"#utility.yul\":7203:7322   */\n      iszero\n      tag_318\n      jumpi\n        /* \"#utility.yul\":7241:7320   */\n      tag_319\n      tag_175\n      jump\t// in\n    tag_319:\n        /* \"#utility.yul\":7203:7322   */\n    tag_318:\n        /* \"#utility.yul\":7361:7362   */\n      0x00\n        /* \"#utility.yul\":7386:7439   */\n      tag_320\n        /* \"#utility.yul\":7431:7438   */\n      dup5\n        /* \"#utility.yul\":7422:7428   */\n      dup3\n        /* \"#utility.yul\":7411:7420   */\n      dup6\n        /* \"#utility.yul\":7407:7429   */\n      add\n        /* \"#utility.yul\":7386:7439   */\n      tag_183\n      jump\t// in\n    tag_320:\n        /* \"#utility.yul\":7376:7439   */\n      swap2\n      pop\n        /* \"#utility.yul\":7332:7449   */\n      pop\n        /* \"#utility.yul\":7127:7456   */\n      swap3\n      swap2\n      pop\n      pop\n      jump\t// out\n        /* \"#utility.yul\":7462:7552   */\n    tag_197:\n        /* \"#utility.yul\":7496:7503   */\n      0x00\n        /* \"#utility.yul\":7539:7544   */\n      dup2\n        /* \"#utility.yul\":7532:7545   */\n      iszero\n        /* \"#utility.yul\":7525:7546   */\n      iszero\n        /* \"#utility.yul\":7514:7546   */\n      swap1\n      pop\n        /* \"#utility.yul\":7462:7552   */\n      swap2\n      swap1\n      pop\n      jump\t// out\n        /* \"#utility.yul\":7558:7667   */\n    tag_198:\n        /* \"#utility.yul\":7639:7660   */\n      tag_323\n        /* \"#utility.yul\":7654:7659   */\n      dup2\n        /* \"#utility.yul\":7639:7660   */\n      tag_197\n      jump\t// in\n    tag_323:\n        /* \"#utility.yul\":7634:7637   */\n      dup3\n        /* \"#utility.yul\":7627:7661   */\n      mstore\n        /* \"#utility.yul\":7558:7667   */\n      pop\n      pop\n      jump\t// out\n        /* \"#utility.yul\":7673:7883   */\n    tag_40:\n        /* \"#utility.yul\":7760:7764   */\n      0x00\n        /* \"#utility.yul\":7798:7800   */\n      0x20\n        /* \"#utility.yul\":7787:7796   */\n      dup3\n        /* \"#utility.yul\":7783:7801   */\n      add\n        /* \"#utility.yul\":7775:7801   */\n      swap1\n      pop\n        /* \"#utility.yul\":7811:7876   */\n      tag_325\n        /* \"#utility.yul\":7873:7874   */\n      0x00\n        /* \"#utility.yul\":7862:7871   */\n      dup4\n        /* \"#utility.yul\":7858:7875   */\n      add\n        /* \"#utility.yul\":7849:7855   */\n      dup5\n        /* \"#utility.yul\":7811:7876   */\n      tag_198\n      jump\t// in\n    tag_325:\n        /* \"#utility.yul\":7673:7883   */\n      swap3\n      swap2\n      pop\n      pop\n      jump\t// out\n        /* \"#utility.yul\":7889:8363   */\n    tag_48:\n        /* \"#utility.yul\":7957:7963   */\n      0x00\n        /* \"#utility.yul\":7965:7971   */\n      dup1\n        /* \"#utility.yul\":8014:8016   */\n      0x40\n        /* \"#utility.yul\":8002:8011   */\n      dup4\n        /* \"#utility.yul\":7993:8000   */\n      dup6\n        /* \"#utility.yul\":7989:8012   */\n      sub\n        /* \"#utility.yul\":7985:8017   */\n      slt\n        /* \"#utility.yul\":7982:8101   */\n      iszero\n      tag_327\n      jumpi\n        /* \"#utility.yul\":8020:8099   */\n      tag_328\n      tag_175\n      jump\t// in\n    tag_328:\n        /* \"#utility.yul\":7982:8101   */\n    tag_327:\n        /* \"#utility.yul\":8140:8141   */\n      0x00\n        /* \"#utility.yul\":8165:8218   */\n      tag_329\n        /* \"#utility.yul\":8210:8217   */\n      dup6\n        /* \"#utility.yul\":8201:8207   */\n      dup3\n        /* \"#utility.yul\":8190:8199   */\n      dup7\n        /* \"#utility.yul\":8186:8208   */\n      add\n        /* \"#utility.yul\":8165:8218   */\n      tag_178\n      jump\t// in\n    tag_329:\n        /* \"#utility.yul\":8155:8218   */\n      swap3\n      pop\n        /* \"#utility.yul\":8111:8228   */\n      pop\n        /* \"#utility.yul\":8267:8269   */\n      0x20\n        /* \"#utility.yul\":8293:8346   */\n      tag_330\n        /* \"#utility.yul\":8338:8345   */\n      dup6\n        /* \"#utility.yul\":8329:8335   */\n      dup3\n        /* \"#utility.yul\":8318:8327   */\n      dup7\n        /* \"#utility.yul\":8314:8336   */\n      add\n        /* \"#utility.yul\":8293:8346   */\n      tag_183\n      jump\t// in\n    tag_330:\n        /* \"#utility.yul\":8283:8346   */\n      swap2\n      pop\n        /* \"#utility.yul\":8238:8356   */\n      pop\n        /* \"#utility.yul\":7889:8363   */\n      swap3\n      pop\n      swap3\n      swap1\n      pop\n      jump\t// out\n        /* \"#utility.yul\":8369:8591   */\n    tag_55:\n        /* \"#utility.yul\":8462:8466   */\n      0x00\n        /* \"#utility.yul\":8500:8502   */\n      0x20\n        /* \"#utility.yul\":8489:8498   */\n      dup3\n        /* \"#utility.yul\":8485:8503   */\n      add\n        /* \"#utility.yul\":8477:8503   */\n      swap1\n      pop\n        /* \"#utility.yul\":8513:8584   */\n      tag_332\n        /* \"#utility.yul\":8581:8582   */\n      0x00\n        /* \"#utility.yul\":8570:8579   */\n      dup4\n        /* \"#utility.yul\":8566:8583   */\n      add\n        /* \"#utility.yul\":8557:8563   */\n      dup5\n        /* \"#utility.yul\":8513:8584   */\n      tag_173\n      jump\t// in\n    tag_332:\n        /* \"#utility.yul\":8369:8591   */\n      swap3\n      swap2\n      pop\n      pop\n      jump\t// out\n        /* \"#utility.yul\":8597:8695   */\n    tag_199:\n        /* \"#utility.yul\":8648:8654   */\n      0x00\n        /* \"#utility.yul\":8682:8687   */\n      dup2\n        /* \"#utility.yul\":8676:8688   */\n      mload\n        /* \"#utility.yul\":8666:8688   */\n      swap1\n      pop\n        /* \"#utility.yul\":8597:8695   */\n      swap2\n      swap1\n      pop\n      jump\t// out\n        /* \"#utility.yul\":8701:8869   */\n    tag_200:\n        /* \"#utility.yul\":8784:8795   */\n      0x00\n        /* \"#utility.yul\":8818:8824   */\n      dup3\n        /* \"#utility.yul\":8813:8816   */\n      dup3\n        /* \"#utility.yul\":8806:8825   */\n      mstore\n        /* \"#utility.yul\":8858:8862   */\n      0x20\n        /* \"#utility.yul\":8853:8856   */\n      dup3\n        /* \"#utility.yul\":8849:8863   */\n      add\n        /* \"#utility.yul\":8834:8863   */\n      swap1\n      pop\n        /* \"#utility.yul\":8701:8869   */\n      swap3\n      swap2\n      pop\n      pop\n      jump\t// out\n        /* \"#utility.yul\":8875:9121   */\n    tag_201:\n        /* \"#utility.yul\":8956:8957   */\n      0x00\n        /* \"#utility.yul\":8966:9079   */\n    tag_336:\n        /* \"#utility.yul\":8980:8986   */\n      dup4\n        /* \"#utility.yul\":8977:8978   */\n      dup2\n        /* \"#utility.yul\":8974:8987   */\n      lt\n        /* \"#utility.yul\":8966:9079   */\n      iszero\n      tag_338\n      jumpi\n        /* \"#utility.yul\":9065:9066   */\n      dup1\n        /* \"#utility.yul\":9060:9063   */\n      dup3\n        /* \"#utility.yul\":9056:9067   */\n      add\n        /* \"#utility.yul\":9050:9068   */\n      mload\n        /* \"#utility.yul\":9046:9047   */\n      dup2\n        /* \"#utility.yul\":9041:9044   */\n      dup5\n        /* \"#utility.yul\":9037:9048   */\n      add\n        /* \"#utility.yul\":9030:9069   */\n      mstore\n        /* \"#utility.yul\":9002:9004   */\n      0x20\n        /* \"#utility.yul\":8999:9000   */\n      dup2\n        /* \"#utility.yul\":8995:9005   */\n      add\n        /* \"#utility.yul\":8990:9005   */\n      swap1\n      pop\n        /* \"#utility.yul\":8966:9079   */\n      jump(tag_336)\n    tag_338:\n        /* \"#utility.yul\":9113:9114   */\n      0x00\n        /* \"#utility.yul\":9104:9110   */\n      dup5\n        /* \"#utility.yul\":9099:9102   */\n      dup5\n        /* \"#utility.yul\":9095:9111   */\n      add\n        /* \"#utility.yul\":9088:9115   */\n      mstore\n        /* \"#utility.yul\":8937:9121   */\n      pop\n        /* \"#utility.yul\":8875:9121   */\n      pop\n      pop\n      pop\n      jump\t// out\n        /* \"#utility.yul\":9127:9500   */\n    tag_202:\n        /* \"#utility.yul\":9213:9216   */\n      0x00\n        /* \"#utility.yul\":9241:9279   */\n      tag_340\n        /* \"#utility.yul\":9273:9278   */\n      dup3\n        /* \"#utility.yul\":9241:9279   */\n      tag_199\n      jump\t// in\n    tag_340:\n        /* \"#utility.yul\":9295:9365   */\n      tag_341\n        /* \"#utility.yul\":9358:9364   */\n      dup2\n        /* \"#utility.yul\":9353:9356   */\n      dup6\n        /* \"#utility.yul\":9295:9365   */\n      tag_200\n      jump\t// in\n    tag_341:\n        /* \"#utility.yul\":9288:9365   */\n      swap4\n      pop\n        /* \"#utility.yul\":9374:9439   */\n      tag_342\n        /* \"#utility.yul\":9432:9438   */\n      dup2\n        /* \"#utility.yul\":9427:9430   */\n      dup6\n        /* \"#utility.yul\":9420:9424   */\n      0x20\n        /* \"#utility.yul\":9413:9418   */\n      dup7\n        /* \"#utility.yul\":9409:9425   */\n      add\n        /* \"#utility.yul\":9374:9439   */\n      tag_201\n      jump\t// in\n    tag_342:\n        /* \"#utility.yul\":9464:9493   */\n      tag_343\n        /* \"#utility.yul\":9486:9492   */\n      dup2\n        /* \"#utility.yul\":9464:9493   */\n      tag_186\n      jump\t// in\n    tag_343:\n        /* \"#utility.yul\":9459:9462   */\n      dup5\n        /* \"#utility.yul\":9455:9494   */\n      add\n        /* \"#utility.yul\":9448:9494   */\n      swap2\n      pop\n        /* \"#utility.yul\":9217:9500   */\n      pop\n        /* \"#utility.yul\":9127:9500   */\n      swap3\n      swap2\n      pop\n      pop\n      jump\t// out\n        /* \"#utility.yul\":9506:10245   */\n    tag_61:\n        /* \"#utility.yul\":9723:9727   */\n      0x00\n        /* \"#utility.yul\":9761:9764   */\n      0xa0\n        /* \"#utility.yul\":9750:9759   */\n      dup3\n        /* \"#utility.yul\":9746:9765   */\n      add\n        /* \"#utility.yul\":9738:9765   */\n      swap1\n      pop\n        /* \"#utility.yul\":9775:9846   */\n      tag_345\n        /* \"#utility.yul\":9843:9844   */\n      0x00\n        /* \"#utility.yul\":9832:9841   */\n      dup4\n        /* \"#utility.yul\":9828:9845   */\n      add\n        /* \"#utility.yul\":9819:9825   */\n      dup9\n        /* \"#utility.yul\":9775:9846   */\n      tag_181\n      jump\t// in\n    tag_345:\n        /* \"#utility.yul\":9856:9928   */\n      tag_346\n        /* \"#utility.yul\":9924:9926   */\n      0x20\n        /* \"#utility.yul\":9913:9922   */\n      dup4\n        /* \"#utility.yul\":9909:9927   */\n      add\n        /* \"#utility.yul\":9900:9906   */\n      dup8\n        /* \"#utility.yul\":9856:9928   */\n      tag_173\n      jump\t// in\n    tag_346:\n        /* \"#utility.yul\":9975:9984   */\n      dup2\n        /* \"#utility.yul\":9969:9973   */\n      dup2\n        /* \"#utility.yul\":9965:9985   */\n      sub\n        /* \"#utility.yul\":9960:9962   */\n      0x40\n        /* \"#utility.yul\":9949:9958   */\n      dup4\n        /* \"#utility.yul\":9945:9963   */\n      add\n        /* \"#utility.yul\":9938:9986   */\n      mstore\n        /* \"#utility.yul\":10003:10079   */\n      tag_347\n        /* \"#utility.yul\":10074:10078   */\n      dup2\n        /* \"#utility.yul\":10065:10071   */\n      dup7\n        /* \"#utility.yul\":10003:10079   */\n      tag_202\n      jump\t// in\n    tag_347:\n        /* \"#utility.yul\":9995:10079   */\n      swap1\n      pop\n        /* \"#utility.yul\":10089:10155   */\n      tag_348\n        /* \"#utility.yul\":10151:10153   */\n      0x60\n        /* \"#utility.yul\":10140:10149   */\n      dup4\n        /* \"#utility.yul\":10136:10154   */\n      add\n        /* \"#utility.yul\":10127:10133   */\n      dup6\n        /* \"#utility.yul\":10089:10155   */\n      tag_198\n      jump\t// in\n    tag_348:\n        /* \"#utility.yul\":10165:10238   */\n      tag_349\n        /* \"#utility.yul\":10233:10236   */\n      0x80\n        /* \"#utility.yul\":10222:10231   */\n      dup4\n        /* \"#utility.yul\":10218:10237   */\n      add\n        /* \"#utility.yul\":10209:10215   */\n      dup5\n        /* \"#utility.yul\":10165:10238   */\n      tag_173\n      jump\t// in\n    tag_349:\n        /* \"#utility.yul\":9506:10245   */\n      swap7\n      swap6\n      pop\n      pop\n      pop\n      pop\n      pop\n      pop\n      jump\t// out\n        /* \"#utility.yul\":10251:10431   */\n    tag_80:\n        /* \"#utility.yul\":10299:10376   */\n      0x4e487b7100000000000000000000000000000000000000000000000000000000\n        /* \"#utility.yul\":10296:10297   */\n      0x00\n        /* \"#utility.yul\":10289:10377   */\n      mstore\n        /* \"#utility.yul\":10396:10400   */\n      0x21\n        /* \"#utility.yul\":10393:10394   */\n      0x04\n        /* \"#utility.yul\":10386:10401   */\n      mstore\n        /* \"#utility.yul\":10420:10424   */\n      0x24\n        /* \"#utility.yul\":10417:10418   */\n      0x00\n        /* \"#utility.yul\":10410:10425   */\n      revert\n        /* \"#utility.yul\":10437:10552   */\n    tag_203:\n        /* \"#utility.yul\":10520:10521   */\n      0x03\n        /* \"#utility.yul\":10513:10518   */\n      dup2\n        /* \"#utility.yul\":10510:10522   */\n      lt\n        /* \"#utility.yul\":10500:10546   */\n      tag_352\n      jumpi\n        /* \"#utility.yul\":10526:10544   */\n      tag_353\n      tag_80\n      jump\t// in\n    tag_353:\n        /* \"#utility.yul\":10500:10546   */\n    tag_352:\n        /* \"#utility.yul\":10437:10552   */\n      pop\n      jump\t// out\n        /* \"#utility.yul\":10558:10689   */\n    tag_204:\n        /* \"#utility.yul\":10605:10612   */\n      0x00\n        /* \"#utility.yul\":10634:10639   */\n      dup2\n        /* \"#utility.yul\":10623:10639   */\n      swap1\n      pop\n        /* \"#utility.yul\":10640:10683   */\n      tag_355\n        /* \"#utility.yul\":10677:10682   */\n      dup3\n        /* \"#utility.yul\":10640:10683   */\n      tag_203\n      jump\t// in\n    tag_355:\n        /* \"#utility.yul\":10558:10689   */\n      swap2\n      swap1\n      pop\n      jump\t// out\n        /* \"#utility.yul\":10695:10826   */\n    tag_205:\n        /* \"#utility.yul\":10753:10762   */\n      0x00\n        /* \"#utility.yul\":10786:10820   */\n      tag_357\n        /* \"#utility.yul\":10814:10819   */\n      dup3\n        /* \"#utility.yul\":10786:10820   */\n      tag_204\n      jump\t// in\n    tag_357:\n        /* \"#utility.yul\":10773:10820   */\n      swap1\n      pop\n        /* \"#utility.yul\":10695:10826   */\n      swap2\n      swap1\n      pop\n      jump\t// out\n        /* \"#utility.yul\":10832:10979   */\n    tag_206:\n        /* \"#utility.yul\":10927:10972   */\n      tag_359\n        /* \"#utility.yul\":10966:10971   */\n      dup2\n        /* \"#utility.yul\":10927:10972   */\n      tag_205\n      jump\t// in\n    tag_359:\n        /* \"#utility.yul\":10922:10925   */\n      dup3\n        /* \"#utility.yul\":10915:10973   */\n      mstore\n        /* \"#utility.yul\":10832:10979   */\n      pop\n      pop\n      jump\t// out\n        /* \"#utility.yul\":10985:11851   */\n    tag_67:\n        /* \"#utility.yul\":11238:11242   */\n      0x00\n        /* \"#utility.yul\":11276:11279   */\n      0xc0\n        /* \"#utility.yul\":11265:11274   */\n      dup3\n        /* \"#utility.yul\":11261:11280   */\n      add\n        /* \"#utility.yul\":11253:11280   */\n      swap1\n      pop\n        /* \"#utility.yul\":11290:11361   */\n      tag_361\n        /* \"#utility.yul\":11358:11359   */\n      0x00\n        /* \"#utility.yul\":11347:11356   */\n      dup4\n        /* \"#utility.yul\":11343:11360   */\n      add\n        /* \"#utility.yul\":11334:11340   */\n      dup10\n        /* \"#utility.yul\":11290:11361   */\n      tag_181\n      jump\t// in\n    tag_361:\n        /* \"#utility.yul\":11371:11443   */\n      tag_362\n        /* \"#utility.yul\":11439:11441   */\n      0x20\n        /* \"#utility.yul\":11428:11437   */\n      dup4\n        /* \"#utility.yul\":11424:11442   */\n      add\n        /* \"#utility.yul\":11415:11421   */\n      dup9\n        /* \"#utility.yul\":11371:11443   */\n      tag_173\n      jump\t// in\n    tag_362:\n        /* \"#utility.yul\":11490:11499   */\n      dup2\n        /* \"#utility.yul\":11484:11488   */\n      dup2\n        /* \"#utility.yul\":11480:11500   */\n      sub\n        /* \"#utility.yul\":11475:11477   */\n      0x40\n        /* \"#utility.yul\":11464:11473   */\n      dup4\n        /* \"#utility.yul\":11460:11478   */\n      add\n        /* \"#utility.yul\":11453:11501   */\n      mstore\n        /* \"#utility.yul\":11518:11594   */\n      tag_363\n        /* \"#utility.yul\":11589:11593   */\n      dup2\n        /* \"#utility.yul\":11580:11586   */\n      dup8\n        /* \"#utility.yul\":11518:11594   */\n      tag_202\n      jump\t// in\n    tag_363:\n        /* \"#utility.yul\":11510:11594   */\n      swap1\n      pop\n        /* \"#utility.yul\":11604:11670   */\n      tag_364\n        /* \"#utility.yul\":11666:11668   */\n      0x60\n        /* \"#utility.yul\":11655:11664   */\n      dup4\n        /* \"#utility.yul\":11651:11669   */\n      add\n        /* \"#utility.yul\":11642:11648   */\n      dup7\n        /* \"#utility.yul\":11604:11670   */\n      tag_198\n      jump\t// in\n    tag_364:\n        /* \"#utility.yul\":11680:11753   */\n      tag_365\n        /* \"#utility.yul\":11748:11751   */\n      0x80\n        /* \"#utility.yul\":11737:11746   */\n      dup4\n        /* \"#utility.yul\":11733:11752   */\n      add\n        /* \"#utility.yul\":11724:11730   */\n      dup6\n        /* \"#utility.yul\":11680:11753   */\n      tag_173\n      jump\t// in\n    tag_365:\n        /* \"#utility.yul\":11763:11844   */\n      tag_366\n        /* \"#utility.yul\":11839:11842   */\n      0xa0\n        /* \"#utility.yul\":11828:11837   */\n      dup4\n        /* \"#utility.yul\":11824:11843   */\n      add\n        /* \"#utility.yul\":11815:11821   */\n      dup5\n        /* \"#utility.yul\":11763:11844   */\n      tag_206\n      jump\t// in\n    tag_366:\n        /* \"#utility.yul\":10985:11851   */\n      swap8\n      swap7\n      pop\n      pop\n      pop\n      pop\n      pop\n      pop\n      pop\n      jump\t// out\n        /* \"#utility.yul\":11857:12037   */\n    tag_207:\n        /* \"#utility.yul\":11905:11982   */\n      0x4e487b7100000000000000000000000000000000000000000000000000000000\n        /* \"#utility.yul\":11902:11903   */\n      0x00\n        /* \"#utility.yul\":11895:11983   */\n      mstore\n        /* \"#utility.yul\":12002:12006   */\n      0x22\n        /* \"#utility.yul\":11999:12000   */\n      0x04\n        /* \"#utility.yul\":11992:12007   */\n      mstore\n        /* \"#utility.yul\":12026:12030   */\n      0x24\n        /* \"#utility.yul\":12023:12024   */\n      0x00\n        /* \"#utility.yul\":12016:12031   */\n      revert\n        /* \"#utility.yul\":12043:12363   */\n    tag_135:\n        /* \"#utility.yul\":12087:12093   */\n      0x00\n        /* \"#utility.yul\":12124:12125   */\n      0x02\n        /* \"#utility.yul\":12118:12122   */\n      dup3\n        /* \"#utility.yul\":12114:12126   */\n      div\n        /* \"#utility.yul\":12104:12126   */\n      swap1\n      pop\n        /* \"#utility.yul\":12171:12172   */\n      0x01\n        /* \"#utility.yul\":12165:12169   */\n      dup3\n        /* \"#utility.yul\":12161:12173   */\n      and\n        /* \"#utility.yul\":12192:12210   */\n      dup1\n        /* \"#utility.yul\":12182:12263   */\n      tag_369\n      jumpi\n        /* \"#utility.yul\":12248:12252   */\n      0x7f\n        /* \"#utility.yul\":12240:12246   */\n      dup3\n        /* \"#utility.yul\":12236:12253   */\n      and\n        /* \"#utility.yul\":12226:12253   */\n      swap2\n      pop\n        /* \"#utility.yul\":12182:12263   */\n    tag_369:\n        /* \"#utility.yul\":12310:12312   */\n      0x20\n        /* \"#utility.yul\":12302:12308   */\n      dup3\n        /* \"#utility.yul\":12299:12313   */\n      lt\n        /* \"#utility.yul\":12279:12297   */\n      dup2\n        /* \"#utility.yul\":12276:12314   */\n      sub\n        /* \"#utility.yul\":12273:12357   */\n      tag_370\n      jumpi\n        /* \"#utility.yul\":12329:12347   */\n      tag_371\n      tag_207\n      jump\t// in\n    tag_371:\n        /* \"#utility.yul\":12273:12357   */\n    tag_370:\n        /* \"#utility.yul\":12094:12363   */\n      pop\n        /* \"#utility.yul\":12043:12363   */\n      swap2\n      swap1\n      pop\n      jump\t// out\n        /* \"#utility.yul\":12369:12509   */\n    tag_208:\n        /* \"#utility.yul\":12417:12421   */\n      0x00\n        /* \"#utility.yul\":12440:12443   */\n      dup2\n        /* \"#utility.yul\":12432:12443   */\n      swap1\n      pop\n        /* \"#utility.yul\":12463:12466   */\n      dup2\n        /* \"#utility.yul\":12460:12461   */\n      0x00\n        /* \"#utility.yul\":12453:12467   */\n      mstore\n        /* \"#utility.yul\":12497:12501   */\n      0x20\n        /* \"#utility.yul\":12494:12495   */\n      0x00\n        /* \"#utility.yul\":12484:12502   */\n      keccak256\n        /* \"#utility.yul\":12476:12502   */\n      swap1\n      pop\n        /* \"#utility.yul\":12369:12509   */\n      swap2\n      swap1\n      pop\n      jump\t// out\n        /* \"#utility.yul\":12515:12608   */\n    tag_209:\n        /* \"#utility.yul\":12552:12558   */\n      0x00\n        /* \"#utility.yul\":12599:12601   */\n      0x20\n        /* \"#utility.yul\":12594:12596   */\n      0x1f\n        /* \"#utility.yul\":12587:12592   */\n      dup4\n        /* \"#utility.yul\":12583:12597   */\n      add\n        /* \"#utility.yul\":12579:12602   */\n      div\n        /* \"#utility.yul\":12569:12602   */\n      swap1\n      pop\n        /* \"#utility.yul\":12515:12608   */\n      swap2\n      swap1\n      pop\n      jump\t// out\n        /* \"#utility.yul\":12614:12721   */\n    tag_210:\n        /* \"#utility.yul\":12658:12666   */\n      0x00\n        /* \"#utility.yul\":12708:12713   */\n      dup3\n        /* \"#utility.yul\":12702:12706   */\n      dup3\n        /* \"#utility.yul\":12698:12714   */\n      shl\n        /* \"#utility.yul\":12677:12714   */\n      swap1\n      pop\n        /* \"#utility.yul\":12614:12721   */\n      swap3\n      swap2\n      pop\n      pop\n      jump\t// out\n        /* \"#utility.yul\":12727:13120   */\n    tag_211:\n        /* \"#utility.yul\":12796:12802   */\n      0x00\n        /* \"#utility.yul\":12846:12847   */\n      0x08\n        /* \"#utility.yul\":12834:12844   */\n      dup4\n        /* \"#utility.yul\":12830:12848   */\n      mul\n        /* \"#utility.yul\":12869:12966   */\n      tag_376\n        /* \"#utility.yul\":12899:12965   */\n      0xffffffffffffffffffffffffffffffffffffffffffffffffffffffffffffffff\n        /* \"#utility.yul\":12888:12897   */\n      dup3\n        /* \"#utility.yul\":12869:12966   */\n      tag_210\n      jump\t// in\n    tag_376:\n        /* \"#utility.yul\":12987:13026   */\n      tag_377\n        /* \"#utility.yul\":13017:13025   */\n      dup7\n        /* \"#utility.yul\":13006:13015   */\n      dup4\n        /* \"#utility.yul\":12987:13026   */\n      tag_210\n      jump\t// in\n    tag_377:\n        /* \"#utility.yul\":12975:13026   */\n      swap6\n      pop\n        /* \"#utility.yul\":13059:13063   */\n      dup1\n        /* \"#utility.yul\":13055:13064   */\n      not\n        /* \"#utility.yul\":13048:13053   */\n      dup5\n        /* \"#utility.yul\":13044:13065   */\n      and\n        /* \"#utility.yul\":13035:13065   */\n      swap4\n      pop\n        /* \"#utility.yul\":13108:13112   */\n      dup1\n        /* \"#utility.yul\":13098:13106   */\n      dup7\n        /* \"#utility.yul\":13094:13113   */\n      and\n        /* \"#utility.yul\":13087:13092   */\n      dup5\n        /* \"#utility.yul\":13084:13114   */\n      or\n        /* \"#utility.yul\":13074:13114   */\n      swap3\n      pop\n        /* \"#utility.yul\":12803:13120   */\n      pop\n      pop\n        /* \"#utility.yul\":12727:13120   */\n      swap4\n      swap3\n      pop\n      pop\n      pop\n      jump\t// out\n        /* \"#utility.yul\":13126:13186   */\n    tag_212:\n        /* \"#utility.yul\":13154:13157   */\n      0x00\n        /* \"#utility.yul\":13175:13180   */\n      dup2\n        /* \"#utility.yul\":13168:13180   */\n      swap1\n      pop\n        /* \"#utility.yul\":13126:13186   */\n      swap2\n      swap1\n      pop\n      jump\t// out\n        /* \"#utility.yul\":13192:13334   */\n    tag_213:\n        /* \"#utility.yul\":13242:13251   */\n      0x00\n        /* \"#utility.yul\":13275:13328   */\n      tag_380\n        /* \"#utility.yul\":13293:13327   */\n      tag_381\n        /* \"#utility.yul\":13302:13326   */\n      tag_382\n        /* \"#utility.yul\":13320:13325   */\n      dup5\n        /* \"#utility.yul\":13302:13326   */\n      tag_172\n      jump\t// in\n    tag_382:\n        /* \"#utility.yul\":13293:13327   */\n      tag_212\n      jump\t// in\n    tag_381:\n        /* \"#utility.yul\":13275:13328   */\n      tag_172\n      jump\t// in\n    tag_380:\n        /* \"#utility.yul\":13262:13328   */\n      swap1\n      pop\n        /* \"#utility.yul\":13192:13334   */\n      swap2\n      swap1\n      pop\n      jump\t// out\n        /* \"#utility.yul\":13340:13415   */\n    tag_214:\n        /* \"#utility.yul\":13383:13386   */\n      0x00\n        /* \"#utility.yul\":13404:13409   */\n      dup2\n        /* \"#utility.yul\":13397:13409   */\n      swap1\n      pop\n        /* \"#utility.yul\":13340:13415   */\n      swap2\n      swap1\n      pop\n      jump\t// out\n        /* \"#utility.yul\":13421:13690   */\n    tag_215:\n        /* \"#utility.yul\":13531:13570   */\n      tag_385\n        /* \"#utility.yul\":13562:13569   */\n      dup4\n        /* \"#utility.yul\":13531:13570   */\n      tag_213\n      jump\t// in\n    tag_385:\n        /* \"#utility.yul\":13592:13683   */\n      tag_386\n        /* \"#utility.yul\":13641:13682   */\n      tag_387\n        /* \"#utility.yul\":13665:13681   */\n      dup3\n        /* \"#utility.yul\":13641:13682   */\n      tag_214\n      jump\t// in\n    tag_387:\n        /* \"#utility.yul\":13633:13639   */\n      dup5\n        /* \"#utility.yul\":13626:13630   */\n      dup5\n        /* \"#utility.yul\":13620:13631   */\n      sload\n        /* \"#utility.yul\":13592:13683   */\n      tag_211\n      jump\t// in\n    tag_386:\n        /* \"#utility.yul\":13586:13590   */\n      dup3\n        /* \"#utility.yul\":13579:13684   */\n      sstore\n        /* \"#utility.yul\":13497:13690   */\n      pop\n        /* \"#utility.yul\":13421:13690   */\n      pop\n      pop\n      pop\n      jump\t// out\n        /* \"#utility.yul\":13696:13769   */\n    tag_216:\n        /* \"#utility.yul\":13741:13744   */\n      0x00\n        /* \"#utility.yul\":13696:13769   */\n      swap1\n      jump\t// out\n        /* \"#utility.yul\":13775:13964   */\n    tag_217:\n        /* \"#utility.yul\":13852:13884   */\n      tag_390\n      tag_216\n      jump\t// in\n    tag_390:\n        /* \"#utility.yul\":13893:13958   */\n      tag_391\n        /* \"#utility.yul\":13951:13957   */\n      dup2\n        /* \"#utility.yul\":13943:13949   */\n      dup5\n        /* \"#utility.yul\":13937:13941   */\n      dup5\n        /* \"#utility.yul\":13893:13958   */\n      tag_215\n      jump\t// in\n    tag_391:\n        /* \"#utility.yul\":13828:13964   */\n      pop\n        /* \"#utility.yul\":13775:13964   */\n      pop\n      pop\n      jump\t// out\n        /* \"#utility.yul\":13970:14156   */\n    tag_218:\n        /* \"#utility.yul\":14030:14150   */\n    tag_393:\n        /* \"#utility.yul\":14047:14050   */\n      dup2\n        /* \"#utility.yul\":14040:14045   */\n      dup2\n        /* \"#utility.yul\":14037:14051   */\n      lt\n        /* \"#utility.yul\":14030:14150   */\n      iszero\n      tag_395\n      jumpi\n        /* \"#utility.yul\":14101:14140   */\n      tag_396\n        /* \"#utility.yul\":14138:14139   */\n      0x00\n        /* \"#utility.yul\":14131:14136   */\n      dup3\n        /* \"#utility.yul\":14101:14140   */\n      tag_217\n      jump\t// in\n    tag_396:\n        /* \"#utility.yul\":14074:14075   */\n      0x01\n        /* \"#utility.yul\":14067:14072   */\n      dup2\n        /* \"#utility.yul\":14063:14076   */\n      add\n        /* \"#utility.yul\":14054:14076   */\n      swap1\n      pop\n        /* \"#utility.yul\":14030:14150   */\n      jump(tag_393)\n    tag_395:\n        /* \"#utility.yul\":13970:14156   */\n      pop\n      pop\n      jump\t// out\n        /* \"#utility.yul\":14162:14703   */\n    tag_219:\n        /* \"#utility.yul\":14262:14264   */\n      0x1f\n        /* \"#utility.yul\":14257:14260   */\n      dup3\n        /* \"#utility.yul\":14254:14265   */\n      gt\n        /* \"#utility.yul\":14251:14696   */\n      iszero\n      tag_398\n      jumpi\n        /* \"#utility.yul\":14296:14333   */\n      tag_399\n        /* \"#utility.yul\":14327:14332   */\n      dup2\n        /* \"#utility.yul\":14296:14333   */\n      tag_208\n      jump\t// in\n    tag_399:\n        /* \"#utility.yul\":14379:14408   */\n      tag_400\n        /* \"#utility.yul\":14397:14407   */\n      dup5\n        /* \"#utility.yul\":14379:14408   */\n      tag_209\n      jump\t// in\n    tag_400:\n        /* \"#utility.yul\":14369:14377   */\n      dup2\n        /* \"#utility.yul\":14365:14409   */\n      add\n        /* \"#utility.yul\":14562:14564   */\n      0x20\n        /* \"#utility.yul\":14550:14560   */\n      dup6\n        /* \"#utility.yul\":14547:14565   */\n      lt\n        /* \"#utility.yul\":14544:14593   */\n      iszero\n      tag_401\n      jumpi\n        /* \"#utility.yul\":14583:14591   */\n      dup2\n        /* \"#utility.yul\":14568:14591   */\n      swap1\n      pop\n        /* \"#utility.yul\":14544:14593   */\n    tag_401:\n        /* \"#utility.yul\":14606:14686   */\n      tag_402\n        /* \"#utility.yul\":14662:14684   */\n      tag_403\n        /* \"#utility.yul\":14680:14683   */\n      dup6\n        /* \"#utility.yul\":14662:14684   */\n      tag_209\n      jump\t// in\n    tag_403:\n        /* \"#utility.yul\":14652:14660   */\n      dup4\n        /* \"#utility.yul\":14648:14685   */\n      add\n        /* \"#utility.yul\":14635:14646   */\n      dup3\n        /* \"#utility.yul\":14606:14686   */\n      tag_218\n      jump\t// in\n    tag_402:\n        /* \"#utility.yul\":14266:14696   */\n      pop\n      pop\n        /* \"#utility.yul\":14251:14696   */\n    tag_398:\n        /* \"#utility.yul\":14162:14703   */\n      pop\n      pop\n      pop\n      jump\t// out\n        /* \"#utility.yul\":14709:14826   */\n    tag_220:\n        /* \"#utility.yul\":14763:14771   */\n      0x00\n        /* \"#utility.yul\":14813:14818   */\n      dup3\n        /* \"#utility.yul\":14807:14811   */\n      dup3\n        /* \"#utility.yul\":14803:14819   */\n      shr\n        /* \"#utility.yul\":14782:14819   */\n      swap1\n      pop\n        /* \"#utility.yul\":14709:14826   */\n      swap3\n      swap2\n      pop\n      pop\n      jump\t// out\n        /* \"#utility.yul\":14832:15001   */\n    tag_221:\n        /* \"#utility.yul\":14876:14882   */\n      0x00\n        /* \"#utility.yul\":14909:14960   */\n      tag_406\n        /* \"#utility.yul\":14957:14958   */\n      0x00\n        /* \"#utility.yul\":14953:14959   */\n      not\n        /* \"#utility.yul\":14945:14950   */\n      dup5\n        /* \"#utility.yul\":14942:14943   */\n      0x08\n        /* \"#utility.yul\":14938:14951   */\n      mul\n        /* \"#utility.yul\":14909:14960   */\n      tag_220\n      jump\t// in\n    tag_406:\n        /* \"#utility.yul\":14905:14961   */\n      not\n        /* \"#utility.yul\":14990:14994   */\n      dup1\n        /* \"#utility.yul\":14984:14988   */\n      dup4\n        /* \"#utility.yul\":14980:14995   */\n      and\n        /* \"#utility.yul\":14970:14995   */\n      swap2\n      pop\n        /* \"#utility.yul\":14883:15001   */\n      pop\n        /* \"#utility.yul\":14832:15001   */\n      swap3\n      swap2\n      pop\n      pop\n      jump\t// out\n        /* \"#utility.yul\":15006:15301   */\n    tag_222:\n        /* \"#utility.yul\":15082:15086   */\n      0x00\n        /* \"#utility.yul\":15228:15257   */\n      tag_408\n        /* \"#utility.yul\":15253:15256   */\n      dup4\n        /* \"#utility.yul\":15247:15251   */\n      dup4\n        /* \"#utility.yul\":15228:15257   */\n      tag_221\n      jump\t// in\n    tag_408:\n        /* \"#utility.yul\":15220:15257   */\n      swap2\n      pop\n        /* \"#utility.yul\":15290:15293   */\n      dup3\n        /* \"#utility.yul\":15287:15288   */\n      0x02\n        /* \"#utility.yul\":15283:15294   */\n      mul\n        /* \"#utility.yul\":15277:15281   */\n      dup3\n        /* \"#utility.yul\":15274:15295   */\n      or\n        /* \"#utility.yul\":15266:15295   */\n      swap1\n      pop\n        /* \"#utility.yul\":15006:15301   */\n      swap3\n      swap2\n      pop\n      pop\n      jump\t// out\n        /* \"#utility.yul\":15306:16696   */\n    tag_83:\n        /* \"#utility.yul\":15421:15457   */\n      tag_410\n        /* \"#utility.yul\":15453:15456   */\n      dup3\n        /* \"#utility.yul\":15421:15457   */\n      tag_199\n      jump\t// in\n    tag_410:\n        /* \"#utility.yul\":15522:15540   */\n      0xffffffffffffffff\n        /* \"#utility.yul\":15514:15520   */\n      dup2\n        /* \"#utility.yul\":15511:15541   */\n      gt\n        /* \"#utility.yul\":15508:15564   */\n      iszero\n      tag_411\n      jumpi\n        /* \"#utility.yul\":15544:15562   */\n      tag_412\n      tag_187\n      jump\t// in\n    tag_412:\n        /* \"#utility.yul\":15508:15564   */\n    tag_411:\n        /* \"#utility.yul\":15588:15626   */\n      tag_413\n        /* \"#utility.yul\":15620:15624   */\n      dup3\n        /* \"#utility.yul\":15614:15625   */\n      sload\n        /* \"#utility.yul\":15588:15626   */\n      tag_135\n      jump\t// in\n    tag_413:\n        /* \"#utility.yul\":15673:15739   */\n      tag_414\n        /* \"#utility.yul\":15732:15738   */\n      dup3\n        /* \"#utility.yul\":15724:15730   */\n      dup3\n        /* \"#utility.yul\":15718:15722   */\n      dup6\n        /* \"#utility.yul\":15673:15739   */\n      tag_219\n      jump\t// in\n    tag_414:\n        /* \"#utility.yul\":15766:15767   */\n      0x00\n        /* \"#utility.yul\":15790:15794   */\n      0x20\n        /* \"#utility.yul\":15777:15794   */\n      swap1\n      pop\n        /* \"#utility.yul\":15822:15824   */\n      0x1f\n        /* \"#utility.yul\":15814:15820   */\n      dup4\n        /* \"#utility.yul\":15811:15825   */\n      gt\n        /* \"#utility.yul\":15839:15840   */\n      0x01\n        /* \"#utility.yul\":15834:16451   */\n      dup2\n      eq\n      tag_416\n      jumpi\n        /* \"#utility.yul\":16495:16496   */\n      0x00\n        /* \"#utility.yul\":16512:16518   */\n      dup5\n        /* \"#utility.yul\":16509:16586   */\n      iszero\n      tag_417\n      jumpi\n        /* \"#utility.yul\":16561:16570   */\n      dup3\n        /* \"#utility.yul\":16556:16559   */\n      dup8\n        /* \"#utility.yul\":16552:16571   */\n      add\n        /* \"#utility.yul\":16546:16572   */\n      mload\n        /* \"#utility.yul\":16537:16572   */\n      swap1\n      pop\n        /* \"#utility.yul\":16509:16586   */\n    tag_417:\n        /* \"#utility.yul\":16612:16679   */\n      tag_418\n        /* \"#utility.yul\":16672:16678   */\n      dup6\n        /* \"#utility.yul\":16665:16670   */\n      dup3\n        /* \"#utility.yul\":16612:16679   */\n      tag_222\n      jump\t// in\n    tag_418:\n        /* \"#utility.yul\":16606:16610   */\n      dup7\n        /* \"#utility.yul\":16599:16680   */\n      sstore\n        /* \"#utility.yul\":16468:16690   */\n      pop\n        /* \"#utility.yul\":15804:16690   */\n      jump(tag_415)\n        /* \"#utility.yul\":15834:16451   */\n    tag_416:\n        /* \"#utility.yul\":15886:15890   */\n      0x1f\n        /* \"#utility.yul\":15882:15891   */\n      not\n        /* \"#utility.yul\":15874:15880   */\n      dup5\n        /* \"#utility.yul\":15870:15892   */\n      and\n        /* \"#utility.yul\":15920:15956   */\n      tag_419\n        /* \"#utility.yul\":15951:15955   */\n      dup7\n        /* \"#utility.yul\":15920:15956   */\n      tag_208\n      jump\t// in\n    tag_419:\n        /* \"#utility.yul\":15978:15979   */\n      0x00\n        /* \"#utility.yul\":15992:16200   */\n    tag_420:\n        /* \"#utility.yul\":16006:16013   */\n      dup3\n        /* \"#utility.yul\":16003:16004   */\n      dup2\n        /* \"#utility.yul\":16000:16014   */\n      lt\n        /* \"#utility.yul\":15992:16200   */\n      iszero\n      tag_422\n      jumpi\n        /* \"#utility.yul\":16085:16094   */\n      dup5\n        /* \"#utility.yul\":16080:16083   */\n      dup10\n        /* \"#utility.yul\":16076:16095   */\n      add\n        /* \"#utility.yul\":16070:16096   */\n      mload\n        /* \"#utility.yul\":16062:16068   */\n      dup3\n        /* \"#utility.yul\":16055:16097   */\n      sstore\n        /* \"#utility.yul\":16136:16137   */\n      0x01\n        /* \"#utility.yul\":16128:16134   */\n      dup3\n        /* \"#utility.yul\":16124:16138   */\n      add\n        /* \"#utility.yul\":16114:16138   */\n      swap2\n      pop\n        /* \"#utility.yul\":16183:16185   */\n      0x20\n        /* \"#utility.yul\":16172:16181   */\n      dup6\n        /* \"#utility.yul\":16168:16186   */\n      add\n        /* \"#utility.yul\":16155:16186   */\n      swap5\n      pop\n        /* \"#utility.yul\":16029:16033   */\n      0x20\n        /* \"#utility.yul\":16026:16027   */\n      dup2\n        /* \"#utility.yul\":16022:16034   */\n      add\n        /* \"#utility.yul\":16017:16034   */\n      swap1\n      pop\n        /* \"#utility.yul\":15992:16200   */\n      jump(tag_420)\n    tag_422:\n        /* \"#utility.yul\":16228:16234   */\n      dup7\n        /* \"#utility.yul\":16219:16226   */\n      dup4\n        /* \"#utility.yul\":16216:16235   */\n      lt\n        /* \"#utility.yul\":16213:16392   */\n      iszero\n      tag_423\n      jumpi\n        /* \"#utility.yul\":16286:16295   */\n      dup5\n        /* \"#utility.yul\":16281:16284   */\n      dup10\n        /* \"#utility.yul\":16277:16296   */\n      add\n        /* \"#utility.yul\":16271:16297   */\n      mload\n        /* \"#utility.yul\":16329:16377   */\n      tag_424\n        /* \"#utility.yul\":16371:16375   */\n      0x1f\n        /* \"#utility.yul\":16363:16369   */\n      dup10\n        /* \"#utility.yul\":16359:16376   */\n      and\n        /* \"#utility.yul\":16348:16357   */\n      dup3\n        /* \"#utility.yul\":16329:16377   */\n      tag_221\n      jump\t// in\n    tag_424:\n        /* \"#utility.yul\":16321:16327   */\n      dup4\n        /* \"#utility.yul\":16314:16378   */\n      sstore\n        /* \"#utility.yul\":16236:16392   */\n      pop\n        /* \"#utility.yul\":16213:16392   */\n    tag_423:\n        /* \"#utility.yul\":16438:16439   */\n      0x01\n        /* \"#utility.yul\":16434:16435   */\n      0x02\n        /* \"#utility.yul\":16426:16432   */\n      dup9\n        /* \"#utility.yul\":16422:16436   */\n      mul\n        /* \"#utility.yul\":16418:16440   */\n      add\n        /* \"#utility.yul\":16412:16416   */\n      dup9\n        /* \"#utility.yul\":16405:16441   */\n      sstore\n        /* \"#utility.yul\":15841:16451   */\n      pop\n      pop\n      pop\n        /* \"#utility.yul\":15804:16690   */\n    tag_415:\n      pop\n        /* \"#utility.yul\":15396:16696   */\n      pop\n      pop\n      pop\n        /* \"#utility.yul\":15306:16696   */\n      pop\n      pop\n      jump\t// out\n        /* \"#utility.yul\":16702:16882   */\n    tag_93:\n        /* \"#utility.yul\":16750:16827   */\n      0x4e487b7100000000000000000000000000000000000000000000000000000000\n        /* \"#utility.yul\":16747:16748   */\n      0x00\n        /* \"#utility.yul\":16740:16828   */\n      mstore\n        /* \"#utility.yul\":16847:16851   */\n      0x32\n        /* \"#utility.yul\":16844:16845   */\n      0x04\n        /* \"#utility.yul\":16837:16852   */\n      mstore\n        /* \"#utility.yul\":16871:16875   */\n      0x24\n        /* \"#utility.yul\":16868:16869   */\n      0x00\n        /* \"#utility.yul\":16861:16876   */\n      revert\n        /* \"#utility.yul\":16888:17035   */\n    tag_223:\n        /* \"#utility.yul\":16989:17000   */\n      0x00\n        /* \"#utility.yul\":17026:17029   */\n      dup2\n        /* \"#utility.yul\":17011:17029   */\n      swap1\n      pop\n        /* \"#utility.yul\":16888:17035   */\n      swap3\n      swap2\n      pop\n      pop\n      jump\t// out\n        /* \"#utility.yul\":17041:17185   */\n    tag_224:\n        /* \"#utility.yul\":17093:17097   */\n      0x00\n        /* \"#utility.yul\":17116:17119   */\n      dup2\n        /* \"#utility.yul\":17108:17119   */\n      swap1\n      pop\n        /* \"#utility.yul\":17139:17142   */\n      dup2\n        /* \"#utility.yul\":17136:17137   */\n      0x00\n        /* \"#utility.yul\":17129:17143   */\n      mstore\n        /* \"#utility.yul\":17173:17177   */\n      0x20\n        /* \"#utility.yul\":17170:17171   */\n      0x00\n        /* \"#utility.yul\":17160:17178   */\n      keccak256\n        /* \"#utility.yul\":17152:17178   */\n      swap1\n      pop\n        /* \"#utility.yul\":17041:17185   */\n      swap2\n      swap1\n      pop\n      jump\t// out\n        /* \"#utility.yul\":17213:18091   */\n    tag_225:\n        /* \"#utility.yul\":17318:17321   */\n      0x00\n        /* \"#utility.yul\":17355:17360   */\n      dup2\n        /* \"#utility.yul\":17349:17361   */\n      sload\n        /* \"#utility.yul\":17384:17420   */\n      tag_429\n        /* \"#utility.yul\":17410:17419   */\n      dup2\n        /* \"#utility.yul\":17384:17420   */\n      tag_135\n      jump\t// in\n    tag_429:\n        /* \"#utility.yul\":17436:17524   */\n      tag_430\n        /* \"#utility.yul\":17517:17523   */\n      dup2\n        /* \"#utility.yul\":17512:17515   */\n      dup7\n        /* \"#utility.yul\":17436:17524   */\n      tag_223\n      jump\t// in\n    tag_430:\n        /* \"#utility.yul\":17429:17524   */\n      swap5\n      pop\n        /* \"#utility.yul\":17555:17556   */\n      0x01\n        /* \"#utility.yul\":17544:17553   */\n      dup3\n        /* \"#utility.yul\":17540:17557   */\n      and\n        /* \"#utility.yul\":17571:17572   */\n      0x00\n        /* \"#utility.yul\":17566:17732   */\n      dup2\n      eq\n      tag_432\n      jumpi\n        /* \"#utility.yul\":17746:17747   */\n      0x01\n        /* \"#utility.yul\":17741:18085   */\n      dup2\n      eq\n      tag_433\n      jumpi\n        /* \"#utility.yul\":17533:18085   */\n      jump(tag_431)\n        /* \"#utility.yul\":17566:17732   */\n    tag_432:\n        /* \"#utility.yul\":17650:17654   */\n      0xff\n        /* \"#utility.yul\":17646:17655   */\n      not\n        /* \"#utility.yul\":17635:17644   */\n      dup4\n        /* \"#utility.yul\":17631:17656   */\n      and\n        /* \"#utility.yul\":17626:17629   */\n      dup7\n        /* \"#utility.yul\":17619:17657   */\n      mstore\n        /* \"#utility.yul\":17712:17718   */\n      dup2\n        /* \"#utility.yul\":17705:17719   */\n      iszero\n        /* \"#utility.yul\":17698:17720   */\n      iszero\n        /* \"#utility.yul\":17690:17696   */\n      dup3\n        /* \"#utility.yul\":17686:17721   */\n      mul\n        /* \"#utility.yul\":17681:17684   */\n      dup7\n        /* \"#utility.yul\":17677:17722   */\n      add\n        /* \"#utility.yul\":17670:17722   */\n      swap4\n      pop\n        /* \"#utility.yul\":17566:17732   */\n      jump(tag_431)\n        /* \"#utility.yul\":17741:18085   */\n    tag_433:\n        /* \"#utility.yul\":17808:17849   */\n      tag_434\n        /* \"#utility.yul\":17843:17848   */\n      dup6\n        /* \"#utility.yul\":17808:17849   */\n      tag_224\n      jump\t// in\n    tag_434:\n        /* \"#utility.yul\":17871:17872   */\n      0x00\n        /* \"#utility.yul\":17885:18039   */\n    tag_435:\n        /* \"#utility.yul\":17899:17905   */\n      dup4\n        /* \"#utility.yul\":17896:17897   */\n      dup2\n        /* \"#utility.yul\":17893:17906   */\n      lt\n        /* \"#utility.yul\":17885:18039   */\n      iszero\n      tag_437\n      jumpi\n        /* \"#utility.yul\":17973:17980   */\n      dup2\n        /* \"#utility.yul\":17967:17981   */\n      sload\n        /* \"#utility.yul\":17963:17964   */\n      dup2\n        /* \"#utility.yul\":17958:17961   */\n      dup10\n        /* \"#utility.yul\":17954:17965   */\n      add\n        /* \"#utility.yul\":17947:17982   */\n      mstore\n        /* \"#utility.yul\":18023:18024   */\n      0x01\n        /* \"#utility.yul\":18014:18021   */\n      dup3\n        /* \"#utility.yul\":18010:18025   */\n      add\n        /* \"#utility.yul\":17999:18025   */\n      swap2\n      pop\n        /* \"#utility.yul\":17921:17925   */\n      0x20\n        /* \"#utility.yul\":17918:17919   */\n      dup2\n        /* \"#utility.yul\":17914:17926   */\n      add\n        /* \"#utility.yul\":17909:17926   */\n      swap1\n      pop\n        /* \"#utility.yul\":17885:18039   */\n      jump(tag_435)\n    tag_437:\n        /* \"#utility.yul\":18068:18074   */\n      dup4\n        /* \"#utility.yul\":18063:18066   */\n      dup9\n        /* \"#utility.yul\":18059:18075   */\n      add\n        /* \"#utility.yul\":18052:18075   */\n      swap6\n      pop\n        /* \"#utility.yul\":17748:18085   */\n      pop\n      pop\n        /* \"#utility.yul\":17533:18085   */\n    tag_431:\n      pop\n        /* \"#utility.yul\":17322:18091   */\n      pop\n      pop\n        /* \"#utility.yul\":17213:18091   */\n      swap3\n      swap2\n      pop\n      pop\n      jump\t// out\n        /* \"#utility.yul\":18097:18370   */\n    tag_98:\n        /* \"#utility.yul\":18228:18231   */\n      0x00\n        /* \"#utility.yul\":18250:18344   */\n      tag_439\n        /* \"#utility.yul\":18340:18343   */\n      dup3\n        /* \"#utility.yul\":18331:18337   */\n      dup5\n        /* \"#utility.yul\":18250:18344   */\n      tag_225\n      jump\t// in\n    tag_439:\n        /* \"#utility.yul\":18243:18344   */\n      swap2\n      pop\n        /* \"#utility.yul\":18361:18364   */\n      dup2\n        /* \"#utility.yul\":18354:18364   */\n      swap1\n      pop\n        /* \"#utility.yul\":18097:18370   */\n      swap3\n      swap2\n      pop\n      pop\n      jump\t// out\n        /* \"#utility.yul\":18398:19268   */\n    tag_226:\n        /* \"#utility.yul\":18499:18502   */\n      0x00\n        /* \"#utility.yul\":18536:18541   */\n      dup2\n        /* \"#utility.yul\":18530:18542   */\n      sload\n        /* \"#utility.yul\":18565:18601   */\n      tag_441\n        /* \"#utility.yul\":18591:18600   */\n      dup2\n        /* \"#utility.yul\":18565:18601   */\n      tag_135\n      jump\t// in\n    tag_441:\n        /* \"#utility.yul\":18617:18705   */\n      tag_442\n        /* \"#utility.yul\":18698:18704   */\n      dup2\n        /* \"#utility.yul\":18693:18696   */\n      dup7\n        /* \"#utility.yul\":18617:18705   */\n      tag_223\n      jump\t// in\n    tag_442:\n        /* \"#utility.yul\":18610:18705   */\n      swap5\n      pop\n        /* \"#utility.yul\":18736:18737   */\n      0x01\n        /* \"#utility.yul\":18725:18734   */\n      dup3\n        /* \"#utility.yul\":18721:18738   */\n      and\n        /* \"#utility.yul\":18752:18753   */\n      0x00\n        /* \"#utility.yul\":18747:18913   */\n      dup2\n      eq\n      tag_444\n      jumpi\n        /* \"#utility.yul\":18927:18928   */\n      0x01\n        /* \"#utility.yul\":18922:19262   */\n      dup2\n      eq\n      tag_445\n      jumpi\n        /* \"#utility.yul\":18714:19262   */\n      jump(tag_443)\n        /* \"#utility.yul\":18747:18913   */\n    tag_444:\n        /* \"#utility.yul\":18831:18835   */\n      0xff\n        /* \"#utility.yul\":18827:18836   */\n      not\n        /* \"#utility.yul\":18816:18825   */\n      dup4\n        /* \"#utility.yul\":18812:18837   */\n      and\n        /* \"#utility.yul\":18807:18810   */\n      dup7\n        /* \"#utility.yul\":18800:18838   */\n      mstore\n        /* \"#utility.yul\":18893:18899   */\n      dup2\n        /* \"#utility.yul\":18886:18900   */\n      iszero\n        /* \"#utility.yul\":18879:18901   */\n      iszero\n        /* \"#utility.yul\":18871:18877   */\n      dup3\n        /* \"#utility.yul\":18867:18902   */\n      mul\n        /* \"#utility.yul\":18862:18865   */\n      dup7\n        /* \"#utility.yul\":18858:18903   */\n      add\n        /* \"#utility.yul\":18851:18903   */\n      swap4\n      pop\n        /* \"#utility.yul\":18747:18913   */\n      jump(tag_443)\n        /* \"#utility.yul\":18922:19262   */\n    tag_445:\n        /* \"#utility.yul\":18989:19026   */\n      tag_446\n        /* \"#utility.yul\":19020:19025   */\n      dup6\n        /* \"#utility.yul\":18989:19026   */\n      tag_208\n      jump\t// in\n    tag_446:\n        /* \"#utility.yul\":19048:19049   */\n      0x00\n        /* \"#utility.yul\":19062:19216   */\n    tag_447:\n        /* \"#utility.yul\":19076:19082   */\n      dup4\n        /* \"#utility.yul\":19073:19074   */\n      dup2\n        /* \"#utility.yul\":19070:19083   */\n      lt\n        /* \"#utility.yul\":19062:19216   */\n      iszero\n      tag_449\n      jumpi\n        /* \"#utility.yul\":19150:19157   */\n      dup2\n        /* \"#utility.yul\":19144:19158   */\n      sload\n        /* \"#utility.yul\":19140:19141   */\n      dup2\n        /* \"#utility.yul\":19135:19138   */\n      dup10\n        /* \"#utility.yul\":19131:19142   */\n      add\n        /* \"#utility.yul\":19124:19159   */\n      mstore\n        /* \"#utility.yul\":19200:19201   */\n      0x01\n        /* \"#utility.yul\":19191:19198   */\n      dup3\n        /* \"#utility.yul\":19187:19202   */\n      add\n        /* \"#utility.yul\":19176:19202   */\n      swap2\n      pop\n        /* \"#utility.yul\":19098:19102   */\n      0x20\n        /* \"#utility.yul\":19095:19096   */\n      dup2\n        /* \"#utility.yul\":19091:19103   */\n      add\n        /* \"#utility.yul\":19086:19103   */\n      swap1\n      pop\n        /* \"#utility.yul\":19062:19216   */\n      jump(tag_447)\n    tag_449:\n        /* \"#utility.yul\":19245:19251   */\n      dup4\n        /* \"#utility.yul\":19240:19243   */\n      dup9\n        /* \"#utility.yul\":19236:19252   */\n      add\n        /* \"#utility.yul\":19229:19252   */\n      swap6\n      pop\n        /* \"#utility.yul\":18929:19262   */\n      pop\n      pop\n        /* \"#utility.yul\":18714:19262   */\n    tag_443:\n      pop\n        /* \"#utility.yul\":18503:19268   */\n      pop\n      pop\n        /* \"#utility.yul\":18398:19268   */\n      swap3\n      swap2\n      pop\n      pop\n      jump\t// out\n        /* \"#utility.yul\":19274:19539   */\n    tag_105:\n        /* \"#utility.yul\":19401:19404   */\n      0x00\n        /* \"#utility.yul\":19423:19513   */\n      tag_451\n        /* \"#utility.yul\":19509:19512   */\n      dup3\n        /* \"#utility.yul\":19500:19506   */\n      dup5\n        /* \"#utility.yul\":19423:19513   */\n      tag_226\n      jump\t// in\n    tag_451:\n        /* \"#utility.yul\":19416:19513   */\n      swap2\n      pop\n        /* \"#utility.yul\":19530:19533   */\n      dup2\n        /* \"#utility.yul\":19523:19533   */\n      swap1\n      pop\n        /* \"#utility.yul\":19274:19539   */\n      swap3\n      swap2\n      pop\n      pop\n      jump\t// out\n        /* \"#utility.yul\":19545:19714   */\n    tag_227:\n        /* \"#utility.yul\":19629:19640   */\n      0x00\n        /* \"#utility.yul\":19663:19669   */\n      dup3\n        /* \"#utility.yul\":19658:19661   */\n      dup3\n        /* \"#utility.yul\":19651:19670   */\n      mstore\n        /* \"#utility.yul\":19703:19707   */\n      0x20\n        /* \"#utility.yul\":19698:19701   */\n      dup3\n        /* \"#utility.yul\":19694:19708   */\n      add\n        /* \"#utility.yul\":19679:19708   */\n      swap1\n      pop\n        /* \"#utility.yul\":19545:19714   */\n      swap3\n      swap2\n      pop\n      pop\n      jump\t// out\n        /* \"#utility.yul\":19720:19880   */\n    tag_228:\n        /* \"#utility.yul\":19860:19872   */\n      0x747278206661696c656400000000000000000000000000000000000000000000\n        /* \"#utility.yul\":19856:19857   */\n      0x00\n        /* \"#utility.yul\":19848:19854   */\n      dup3\n        /* \"#utility.yul\":19844:19858   */\n      add\n        /* \"#utility.yul\":19837:19873   */\n      mstore\n        /* \"#utility.yul\":19720:19880   */\n      pop\n      jump\t// out\n        /* \"#utility.yul\":19886:20252   */\n    tag_229:\n        /* \"#utility.yul\":20028:20031   */\n      0x00\n        /* \"#utility.yul\":20049:20116   */\n      tag_455\n        /* \"#utility.yul\":20113:20115   */\n      0x0a\n        /* \"#utility.yul\":20108:20111   */\n      dup4\n        /* \"#utility.yul\":20049:20116   */\n      tag_227\n      jump\t// in\n    tag_455:\n        /* \"#utility.yul\":20042:20116   */\n      swap2\n      pop\n        /* \"#utility.yul\":20125:20218   */\n      tag_456\n        /* \"#utility.yul\":20214:20217   */\n      dup3\n        /* \"#utility.yul\":20125:20218   */\n      tag_228\n      jump\t// in\n    tag_456:\n        /* \"#utility.yul\":20243:20245   */\n      0x20\n        /* \"#utility.yul\":20238:20241   */\n      dup3\n        /* \"#utility.yul\":20234:20246   */\n      add\n        /* \"#utility.yul\":20227:20246   */\n      swap1\n      pop\n        /* \"#utility.yul\":19886:20252   */\n      swap2\n      swap1\n      pop\n      jump\t// out\n        /* \"#utility.yul\":20258:20677   */\n    tag_113:\n        /* \"#utility.yul\":20424:20428   */\n      0x00\n        /* \"#utility.yul\":20462:20464   */\n      0x20\n        /* \"#utility.yul\":20451:20460   */\n      dup3\n        /* \"#utility.yul\":20447:20465   */\n      add\n        /* \"#utility.yul\":20439:20465   */\n      swap1\n      pop\n        /* \"#utility.yul\":20511:20520   */\n      dup2\n        /* \"#utility.yul\":20505:20509   */\n      dup2\n        /* \"#utility.yul\":20501:20521   */\n      sub\n        /* \"#utility.yul\":20497:20498   */\n      0x00\n        /* \"#utility.yul\":20486:20495   */\n      dup4\n        /* \"#utility.yul\":20482:20499   */\n      add\n        /* \"#utility.yul\":20475:20522   */\n      mstore\n        /* \"#utility.yul\":20539:20670   */\n      tag_458\n        /* \"#utility.yul\":20665:20669   */\n      dup2\n        /* \"#utility.yul\":20539:20670   */\n      tag_229\n      jump\t// in\n    tag_458:\n        /* \"#utility.yul\":20531:20670   */\n      swap1\n      pop\n        /* \"#utility.yul\":20258:20677   */\n      swap2\n      swap1\n      pop\n      jump\t// out\n        /* \"#utility.yul\":20683:20863   */\n    tag_230:\n        /* \"#utility.yul\":20731:20808   */\n      0x4e487b7100000000000000000000000000000000000000000000000000000000\n        /* \"#utility.yul\":20728:20729   */\n      0x00\n        /* \"#utility.yul\":20721:20809   */\n      mstore\n        /* \"#utility.yul\":20828:20832   */\n      0x11\n        /* \"#utility.yul\":20825:20826   */\n      0x04\n        /* \"#utility.yul\":20818:20833   */\n      mstore\n        /* \"#utility.yul\":20852:20856   */\n      0x24\n        /* \"#utility.yul\":20849:20850   */\n      0x00\n        /* \"#utility.yul\":20842:20857   */\n      revert\n        /* \"#utility.yul\":20869:21102   */\n    tag_171:\n        /* \"#utility.yul\":20908:20911   */\n      0x00\n        /* \"#utility.yul\":20931:20955   */\n      tag_461\n        /* \"#utility.yul\":20949:20954   */\n      dup3\n        /* \"#utility.yul\":20931:20955   */\n      tag_172\n      jump\t// in\n    tag_461:\n        /* \"#utility.yul\":20922:20955   */\n      swap2\n      pop\n        /* \"#utility.yul\":20977:21043   */\n      0xffffffffffffffffffffffffffffffffffffffffffffffffffffffffffffffff\n        /* \"#utility.yul\":20970:20975   */\n      dup3\n        /* \"#utility.yul\":20967:21044   */\n      sub\n        /* \"#utility.yul\":20964:21067   */\n      tag_462\n      jumpi\n        /* \"#utility.yul\":21047:21065   */\n      tag_463\n      tag_230\n      jump\t// in\n    tag_463:\n        /* \"#utility.yul\":20964:21067   */\n    tag_462:\n        /* \"#utility.yul\":21094:21095   */\n      0x01\n        /* \"#utility.yul\":21087:21092   */\n      dup3\n        /* \"#utility.yul\":21083:21096   */\n      add\n        /* \"#utility.yul\":21076:21096   */\n      swap1\n      pop\n        /* \"#utility.yul\":20869:21102   */\n      swap2\n      swap1\n      pop\n      jump\t// out\n\n    auxdata: 0xa264697066735822122030d3e409fc776f95fd19e7ebf6d8c7e6d1ffdb093923823bc6d3196c32a5993c64736f6c63430008100033\n}\n",
				"bytecode": {
					"linkReferences": {},
					"object": "60806040523480156200001157600080fd5b50604051620024a1380380620024a1833981810160405281019062000037919062000525565b60008351116200004657600080fd5b82518211158015620000585750600082115b6200006257600080fd5b60005b835181101562000206576000848281518110620000875762000086620005bf565b5b60200260200101519050600073ffffffffffffffffffffffffffffffffffffffff168173ffffffffffffffffffffffffffffffffffffffff1603620000cb57600080fd5b600160008273ffffffffffffffffffffffffffffffffffffffff1673ffffffffffffffffffffffffffffffffffffffff16815260200190815260200160002060009054906101000a900460ff16156200012357600080fd5b60018060008373ffffffffffffffffffffffffffffffffffffffff1673ffffffffffffffffffffffffffffffffffffffff16815260200190815260200160002060006101000a81548160ff0219169083151502179055506000819080600181540180825580915050600190039060005260206000200160009091909190916101000a81548173ffffffffffffffffffffffffffffffffffffffff021916908373ffffffffffffffffffffffffffffffffffffffff1602179055508260039081620001ee91906200082f565b50508080620001fd9062000945565b91505062000065565b508160028190555050505062000992565b6000604051905090565b600080fd5b600080fd5b600080fd5b6000601f19601f8301169050919050565b7f4e487b7100000000000000000000000000000000000000000000000000000000600052604160045260246000fd5b6200027b8262000230565b810181811067ffffffffffffffff821117156200029d576200029c62000241565b5b80604052505050565b6000620002b262000217565b9050620002c0828262000270565b919050565b600067ffffffffffffffff821115620002e357620002e262000241565b5b602082029050602081019050919050565b600080fd5b600073ffffffffffffffffffffffffffffffffffffffff82169050919050565b60006200032682620002f9565b9050919050565b620003388162000319565b81146200034457600080fd5b50565b60008151905062000358816200032d565b92915050565b6000620003756200036f84620002c5565b620002a6565b905080838252602082019050602084028301858111156200039b576200039a620002f4565b5b835b81811015620003c85780620003b3888262000347565b8452602084019350506020810190506200039d565b5050509392505050565b600082601f830112620003ea57620003e96200022b565b5b8151620003fc8482602086016200035e565b91505092915050565b6000819050919050565b6200041a8162000405565b81146200042657600080fd5b50565b6000815190506200043a816200040f565b92915050565b600080fd5b600067ffffffffffffffff82111562000463576200046262000241565b5b6200046e8262000230565b9050602081019050919050565b60005b838110156200049b5780820151818401526020810190506200047e565b60008484015250505050565b6000620004be620004b88462000445565b620002a6565b905082815260208101848484011115620004dd57620004dc62000440565b5b620004ea8482856200047b565b509392505050565b600082601f8301126200050a57620005096200022b565b5b81516200051c848260208601620004a7565b91505092915050565b60008060006060848603121562000541576200054062000221565b5b600084015167ffffffffffffffff81111562000562576200056162000226565b5b6200057086828701620003d2565b9350506020620005838682870162000429565b925050604084015167ffffffffffffffff811115620005a757620005a662000226565b5b620005b586828701620004f2565b9150509250925092565b7f4e487b7100000000000000000000000000000000000000000000000000000000600052603260045260246000fd5b600081519050919050565b7f4e487b7100000000000000000000000000000000000000000000000000000000600052602260045260246000fd5b600060028204905060018216806200064157607f821691505b602082108103620006575762000656620005f9565b5b50919050565b60008190508160005260206000209050919050565b60006020601f8301049050919050565b600082821b905092915050565b600060088302620006c17fffffffffffffffffffffffffffffffffffffffffffffffffffffffffffffffff8262000682565b620006cd868362000682565b95508019841693508086168417925050509392505050565b6000819050919050565b6000620007106200070a620007048462000405565b620006e5565b62000405565b9050919050565b6000819050919050565b6200072c83620006ef565b620007446200073b8262000717565b8484546200068f565b825550505050565b600090565b6200075b6200074c565b6200076881848462000721565b505050565b5b8181101562000790576200078460008262000751565b6001810190506200076e565b5050565b601f821115620007df57620007a9816200065d565b620007b48462000672565b81016020851015620007c4578190505b620007dc620007d38562000672565b8301826200076d565b50505b505050565b600082821c905092915050565b60006200080460001984600802620007e4565b1980831691505092915050565b60006200081f8383620007f1565b9150826002028217905092915050565b6200083a82620005ee565b67ffffffffffffffff81111562000856576200085562000241565b5b62000862825462000628565b6200086f82828562000794565b600060209050601f831160018114620008a7576000841562000892578287015190505b6200089e858262000811565b8655506200090e565b601f198416620008b7866200065d565b60005b82811015620008e157848901518255600182019150602085019450602081019050620008ba565b86831015620009015784890151620008fd601f891682620007f1565b8355505b6001600288020188555050505b505050505050565b7f4e487b7100000000000000000000000000000000000000000000000000000000600052601160045260246000fd5b6000620009528262000405565b91507fffffffffffffffffffffffffffffffffffffffffffffffffffffffffffffffff820362000987576200098662000916565b5b600182019050919050565b611aff80620009a26000396000f3fe6080604052600436106100955760003560e01c80634c9c7af3116100595780634c9c7af3146101d9578063738dbfa61461021657806396431ac1146102415780639ace38c2146102825780639fe8ed9b146102c4576100ec565b8063025e7c27146100f157806305cbf3441461012e5780630a147bc11461014a57806345c9711f146101735780634632952c146101b0576100ec565b366100ec573373ffffffffffffffffffffffffffffffffffffffff167f90890809c654f11d6e72a28fa60149770a0d11ec6c92319d6ceb2bb0a4ea1a1534476040516100e2929190610f2e565b60405180910390a2005b600080fd5b3480156100fd57600080fd5b5061011860048036038101906101139190610f97565b6102ed565b6040516101259190611005565b60405180910390f35b61014860048036038101906101439190611192565b61032c565b005b34801561015657600080fd5b50610171600480360381019061016c91906112a2565b61054a565b005b34801561017f57600080fd5b5061019a600480360381019061019591906112fe565b6107c0565b6040516101a79190611346565b60405180910390f35b3480156101bc57600080fd5b506101d760048036038101906101d29190610f97565b6107e0565b005b3480156101e557600080fd5b5061020060048036038101906101fb9190611361565b6109da565b60405161020d9190611346565b60405180910390f35b34801561022257600080fd5b5061022b610a09565b60405161023891906113a1565b60405180910390f35b34801561024d57600080fd5b5061026860048036038101906102639190610f97565b610a0f565b60405161027995949392919061143b565b60405180910390f35b34801561028e57600080fd5b506102a960048036038101906102a49190610f97565b610bc7565b6040516102bb9695949392919061150c565b60405180910390f35b3480156102d057600080fd5b506102eb60048036038101906102e69190610f97565b610cd5565b005b600081815481106102fd57600080fd5b906000526020600020016000915054906101000a900473ffffffffffffffffffffffffffffffffffffffff1681565b600160003373ffffffffffffffffffffffffffffffffffffffff1673ffffffffffffffffffffffffffffffffffffffff16815260200190815260200160002060009054906101000a900460ff1661038257600080fd5b670de0b6b3a764000034101561039757600080fd5b6000600580549050905060056040518060c001604052808673ffffffffffffffffffffffffffffffffffffffff16815260200185815260200184815260200160001515815260200160008152602001600060028111156103fa576103f9611495565b5b815250908060018154018082558091505060019003906000526020600020906006020160009091909190915060008201518160000160006101000a81548173ffffffffffffffffffffffffffffffffffffffff021916908373ffffffffffffffffffffffffffffffffffffffff16021790555060208201518160010155604082015181600201908161048c9190611780565b5060608201518160030160006101000a81548160ff0219169083151502179055506080820151816004015560a08201518160050160006101000a81548160ff021916908360028111156104e2576104e1611495565b5b021790555050508373ffffffffffffffffffffffffffffffffffffffff16813373ffffffffffffffffffffffffffffffffffffffff167f10fc5065332186bcdf0a1a2bc3062965c8af95e70bccb1ea7c4261bc322d466660405160405180910390a450505050565b600160003373ffffffffffffffffffffffffffffffffffffffff1673ffffffffffffffffffffffffffffffffffffffff16815260200190815260200160002060009054906101000a900460ff166105a057600080fd5b8160058054905081106105b257600080fd5b82600581815481106105c7576105c6611852565b5b906000526020600020906006020160030160009054906101000a900460ff166105ef57600080fd5b60036040516105fe9190611924565b604051809103902083805190602001201461061857600080fd5b60006005858154811061062e5761062d611852565b5b906000526020600020906006020190506002548160040154101561065157600080fd5b60008160000160009054906101000a900473ffffffffffffffffffffffffffffffffffffffff1673ffffffffffffffffffffffffffffffffffffffff168260010154836002016040516106a491906119be565b60006040518083038185875af1925050503d80600081146106e1576040519150601f19603f3d011682016040523d82523d6000602084013e6106e6565b606091505b5050905060018260030160006101000a81548160ff02191690831515021790555060028260050160006101000a81548160ff0219169083600281111561072f5761072e611495565b5b021790555080610774576040517f08c379a000000000000000000000000000000000000000000000000000000000815260040161076b90611a32565b60405180910390fd5b853373ffffffffffffffffffffffffffffffffffffffff167f40be3fbff8abc172ea87bc4ba12feec976ed14084b8ca7055532701181940e5a60405160405180910390a3505050505050565b60016020528060005260406000206000915054906101000a900460ff1681565b600160003373ffffffffffffffffffffffffffffffffffffffff1673ffffffffffffffffffffffffffffffffffffffff16815260200190815260200160002060009054906101000a900460ff1661083657600080fd5b80600580549050811061084857600080fd5b816005818154811061085d5761085c611852565b5b906000526020600020906006020160030160009054906101000a900460ff1661088557600080fd5b60006005848154811061089b5761089a611852565b5b906000526020600020906006020190506004600085815260200190815260200160002060003373ffffffffffffffffffffffffffffffffffffffff1673ffffffffffffffffffffffffffffffffffffffff16815260200190815260200160002060009054906101000a900460ff1661091257600080fd5b61091f8160040154610eff565b816004018190555060006004600086815260200190815260200160002060003373ffffffffffffffffffffffffffffffffffffffff1673ffffffffffffffffffffffffffffffffffffffff16815260200190815260200160002060006101000a81548160ff021916908315150217905550833373ffffffffffffffffffffffffffffffffffffffff167fff5034bbbfef728f81c60ddbf47aba85a6f69878d5912968167b4e9e8ac9b5a960405160405180910390a350505050565b60046020528160005260406000206020528060005260406000206000915091509054906101000a900460ff1681565b60025481565b6000806060600080600060058781548110610a2d57610a2c611852565b5b90600052602060002090600602016040518060c00160405290816000820160009054906101000a900473ffffffffffffffffffffffffffffffffffffffff1673ffffffffffffffffffffffffffffffffffffffff1673ffffffffffffffffffffffffffffffffffffffff16815260200160018201548152602001600282018054610ab6906115a3565b80601f0160208091040260200160405190810160405280929190818152602001828054610ae2906115a3565b8015610b2f5780601f10610b0457610100808354040283529160200191610b2f565b820191906000526020600020905b815481529060010190602001808311610b1257829003601f168201915b505050505081526020016003820160009054906101000a900460ff16151515158152602001600482015481526020016005820160009054906101000a900460ff166002811115610b8257610b81611495565b5b6002811115610b9457610b93611495565b5b81525050905080600001518160200151826040015183606001518460800151955095509550955095505091939590929450565b60058181548110610bd757600080fd5b90600052602060002090600602016000915090508060000160009054906101000a900473ffffffffffffffffffffffffffffffffffffffff1690806001015490806002018054610c26906115a3565b80601f0160208091040260200160405190810160405280929190818152602001828054610c52906115a3565b8015610c9f5780601f10610c7457610100808354040283529160200191610c9f565b820191906000526020600020905b815481529060010190602001808311610c8257829003601f168201915b5050505050908060030160009054906101000a900460ff16908060040154908060050160009054906101000a900460ff16905086565b600160003373ffffffffffffffffffffffffffffffffffffffff1673ffffffffffffffffffffffffffffffffffffffff16815260200190815260200160002060009054906101000a900460ff16610d2b57600080fd5b806005805490508110610d3d57600080fd5b8160058181548110610d5257610d51611852565b5b906000526020600020906006020160030160009054906101000a900460ff16610d7a57600080fd5b826004600082815260200190815260200160002060003373ffffffffffffffffffffffffffffffffffffffff1673ffffffffffffffffffffffffffffffffffffffff16815260200190815260200160002060009054906101000a900460ff1615610de357600080fd5b600060058581548110610df957610df8611852565b5b90600052602060002090600602019050610e168160040154610eff565b816004018190555060016004600087815260200190815260200160002060003373ffffffffffffffffffffffffffffffffffffffff1673ffffffffffffffffffffffffffffffffffffffff16815260200190815260200160002060006101000a81548160ff02191690831515021790555060018160050160006101000a81548160ff02191690836002811115610eaf57610eae611495565b5b0217905550843373ffffffffffffffffffffffffffffffffffffffff167f2d7323b056dbf61c34c184ecc2c4042dca462ad27537fd871196c7371501792860405160405180910390a35050505050565b60008180610f0c90611a81565b92509050919050565b6000819050919050565b610f2881610f15565b82525050565b6000604082019050610f436000830185610f1f565b610f506020830184610f1f565b9392505050565b6000604051905090565b600080fd5b600080fd5b610f7481610f15565b8114610f7f57600080fd5b50565b600081359050610f9181610f6b565b92915050565b600060208284031215610fad57610fac610f61565b5b6000610fbb84828501610f82565b91505092915050565b600073ffffffffffffffffffffffffffffffffffffffff82169050919050565b6000610fef82610fc4565b9050919050565b610fff81610fe4565b82525050565b600060208201905061101a6000830184610ff6565b92915050565b61102981610fe4565b811461103457600080fd5b50565b60008135905061104681611020565b92915050565b600080fd5b600080fd5b6000601f19601f8301169050919050565b7f4e487b7100000000000000000000000000000000000000000000000000000000600052604160045260246000fd5b61109f82611056565b810181811067ffffffffffffffff821117156110be576110bd611067565b5b80604052505050565b60006110d1610f57565b90506110dd8282611096565b919050565b600067ffffffffffffffff8211156110fd576110fc611067565b5b61110682611056565b9050602081019050919050565b82818337600083830152505050565b6000611135611130846110e2565b6110c7565b90508281526020810184848401111561115157611150611051565b5b61115c848285611113565b509392505050565b600082601f8301126111795761117861104c565b5b8135611189848260208601611122565b91505092915050565b6000806000606084860312156111ab576111aa610f61565b5b60006111b986828701611037565b93505060206111ca86828701610f82565b925050604084013567ffffffffffffffff8111156111eb576111ea610f66565b5b6111f786828701611164565b9150509250925092565b600067ffffffffffffffff82111561121c5761121b611067565b5b61122582611056565b9050602081019050919050565b600061124561124084611201565b6110c7565b90508281526020810184848401111561126157611260611051565b5b61126c848285611113565b509392505050565b600082601f8301126112895761128861104c565b5b8135611299848260208601611232565b91505092915050565b600080604083850312156112b9576112b8610f61565b5b60006112c785828601610f82565b925050602083013567ffffffffffffffff8111156112e8576112e7610f66565b5b6112f485828601611274565b9150509250929050565b60006020828403121561131457611313610f61565b5b600061132284828501611037565b91505092915050565b60008115159050919050565b6113408161132b565b82525050565b600060208201905061135b6000830184611337565b92915050565b6000806040838503121561137857611377610f61565b5b600061138685828601610f82565b925050602061139785828601611037565b9150509250929050565b60006020820190506113b66000830184610f1f565b92915050565b600081519050919050565b600082825260208201905092915050565b60005b838110156113f65780820151818401526020810190506113db565b60008484015250505050565b600061140d826113bc565b61141781856113c7565b93506114278185602086016113d8565b61143081611056565b840191505092915050565b600060a0820190506114506000830188610ff6565b61145d6020830187610f1f565b818103604083015261146f8186611402565b905061147e6060830185611337565b61148b6080830184610f1f565b9695505050505050565b7f4e487b7100000000000000000000000000000000000000000000000000000000600052602160045260246000fd5b600381106114d5576114d4611495565b5b50565b60008190506114e6826114c4565b919050565b60006114f6826114d8565b9050919050565b611506816114eb565b82525050565b600060c0820190506115216000830189610ff6565b61152e6020830188610f1f565b81810360408301526115408187611402565b905061154f6060830186611337565b61155c6080830185610f1f565b61156960a08301846114fd565b979650505050505050565b7f4e487b7100000000000000000000000000000000000000000000000000000000600052602260045260246000fd5b600060028204905060018216806115bb57607f821691505b6020821081036115ce576115cd611574565b5b50919050565b60008190508160005260206000209050919050565b60006020601f8301049050919050565b600082821b905092915050565b6000600883026116367fffffffffffffffffffffffffffffffffffffffffffffffffffffffffffffffff826115f9565b61164086836115f9565b95508019841693508086168417925050509392505050565b6000819050919050565b600061167d61167861167384610f15565b611658565b610f15565b9050919050565b6000819050919050565b61169783611662565b6116ab6116a382611684565b848454611606565b825550505050565b600090565b6116c06116b3565b6116cb81848461168e565b505050565b5b818110156116ef576116e46000826116b8565b6001810190506116d1565b5050565b601f82111561173457611705816115d4565b61170e846115e9565b8101602085101561171d578190505b611731611729856115e9565b8301826116d0565b50505b505050565b600082821c905092915050565b600061175760001984600802611739565b1980831691505092915050565b60006117708383611746565b9150826002028217905092915050565b611789826113bc565b67ffffffffffffffff8111156117a2576117a1611067565b5b6117ac82546115a3565b6117b78282856116f3565b600060209050601f8311600181146117ea57600084156117d8578287015190505b6117e28582611764565b86555061184a565b601f1984166117f8866115d4565b60005b82811015611820578489015182556001820191506020850194506020810190506117fb565b8683101561183d5784890151611839601f891682611746565b8355505b6001600288020188555050505b505050505050565b7f4e487b7100000000000000000000000000000000000000000000000000000000600052603260045260246000fd5b600081905092915050565b60008190508160005260206000209050919050565b600081546118ae816115a3565b6118b88186611881565b945060018216600081146118d357600181146118e85761191b565b60ff198316865281151582028601935061191b565b6118f18561188c565b60005b83811015611913578154818901526001820191506020810190506118f4565b838801955050505b50505092915050565b600061193082846118a1565b915081905092915050565b60008154611948816115a3565b6119528186611881565b9450600182166000811461196d5760018114611982576119b5565b60ff19831686528115158202860193506119b5565b61198b856115d4565b60005b838110156119ad5781548189015260018201915060208101905061198e565b838801955050505b50505092915050565b60006119ca828461193b565b915081905092915050565b600082825260208201905092915050565b7f747278206661696c656400000000000000000000000000000000000000000000600082015250565b6000611a1c600a836119d5565b9150611a27826119e6565b602082019050919050565b60006020820190508181036000830152611a4b81611a0f565b9050919050565b7f4e487b7100000000000000000000000000000000000000000000000000000000600052601160045260246000fd5b6000611a8c82610f15565b91507fffffffffffffffffffffffffffffffffffffffffffffffffffffffffffffffff8203611abe57611abd611a52565b5b60018201905091905056fea264697066735822122030d3e409fc776f95fd19e7ebf6d8c7e6d1ffdb093923823bc6d3196c32a5993c64736f6c63430008100033",
					"opcodes": "PUSH1 0x80 PUSH1 0x40 MSTORE CALLVALUE DUP1 ISZERO PUSH3 0x11 JUMPI PUSH1 0x0 DUP1 REVERT JUMPDEST POP PUSH1 0x40 MLOAD PUSH3 0x24A1 CODESIZE SUB DUP1 PUSH3 0x24A1 DUP4 CODECOPY DUP2 DUP2 ADD PUSH1 0x40 MSTORE DUP2 ADD SWAP1 PUSH3 0x37 SWAP2 SWAP1 PUSH3 0x525 JUMP JUMPDEST PUSH1 0x0 DUP4 MLOAD GT PUSH3 0x46 JUMPI PUSH1 0x0 DUP1 REVERT JUMPDEST DUP3 MLOAD DUP3 GT ISZERO DUP1 ISZERO PUSH3 0x58 JUMPI POP PUSH1 0x0 DUP3 GT JUMPDEST PUSH3 0x62 JUMPI PUSH1 0x0 DUP1 REVERT JUMPDEST PUSH1 0x0 JUMPDEST DUP4 MLOAD DUP2 LT ISZERO PUSH3 0x206 JUMPI PUSH1 0x0 DUP5 DUP3 DUP2 MLOAD DUP2 LT PUSH3 0x87 JUMPI PUSH3 0x86 PUSH3 0x5BF JUMP JUMPDEST JUMPDEST PUSH1 0x20 MUL PUSH1 0x20 ADD ADD MLOAD SWAP1 POP PUSH1 0x0 PUSH20 0xFFFFFFFFFFFFFFFFFFFFFFFFFFFFFFFFFFFFFFFF AND DUP2 PUSH20 0xFFFFFFFFFFFFFFFFFFFFFFFFFFFFFFFFFFFFFFFF AND SUB PUSH3 0xCB JUMPI PUSH1 0x0 DUP1 REVERT JUMPDEST PUSH1 0x1 PUSH1 0x0 DUP3 PUSH20 0xFFFFFFFFFFFFFFFFFFFFFFFFFFFFFFFFFFFFFFFF AND PUSH20 0xFFFFFFFFFFFFFFFFFFFFFFFFFFFFFFFFFFFFFFFF AND DUP2 MSTORE PUSH1 0x20 ADD SWAP1 DUP2 MSTORE PUSH1 0x20 ADD PUSH1 0x0 KECCAK256 PUSH1 0x0 SWAP1 SLOAD SWAP1 PUSH2 0x100 EXP SWAP1 DIV PUSH1 0xFF AND ISZERO PUSH3 0x123 JUMPI PUSH1 0x0 DUP1 REVERT JUMPDEST PUSH1 0x1 DUP1 PUSH1 0x0 DUP4 PUSH20 0xFFFFFFFFFFFFFFFFFFFFFFFFFFFFFFFFFFFFFFFF AND PUSH20 0xFFFFFFFFFFFFFFFFFFFFFFFFFFFFFFFFFFFFFFFF AND DUP2 MSTORE PUSH1 0x20 ADD SWAP1 DUP2 MSTORE PUSH1 0x20 ADD PUSH1 0x0 KECCAK256 PUSH1 0x0 PUSH2 0x100 EXP DUP2 SLOAD DUP2 PUSH1 0xFF MUL NOT AND SWAP1 DUP4 ISZERO ISZERO MUL OR SWAP1 SSTORE POP PUSH1 0x0 DUP2 SWAP1 DUP1 PUSH1 0x1 DUP2 SLOAD ADD DUP1 DUP3 SSTORE DUP1 SWAP2 POP POP PUSH1 0x1 SWAP1 SUB SWAP1 PUSH1 0x0 MSTORE PUSH1 0x20 PUSH1 0x0 KECCAK256 ADD PUSH1 0x0 SWAP1 SWAP2 SWAP1 SWAP2 SWAP1 SWAP2 PUSH2 0x100 EXP DUP2 SLOAD DUP2 PUSH20 0xFFFFFFFFFFFFFFFFFFFFFFFFFFFFFFFFFFFFFFFF MUL NOT AND SWAP1 DUP4 PUSH20 0xFFFFFFFFFFFFFFFFFFFFFFFFFFFFFFFFFFFFFFFF AND MUL OR SWAP1 SSTORE POP DUP3 PUSH1 0x3 SWAP1 DUP2 PUSH3 0x1EE SWAP2 SWAP1 PUSH3 0x82F JUMP JUMPDEST POP POP DUP1 DUP1 PUSH3 0x1FD SWAP1 PUSH3 0x945 JUMP JUMPDEST SWAP2 POP POP PUSH3 0x65 JUMP JUMPDEST POP DUP2 PUSH1 0x2 DUP2 SWAP1 SSTORE POP POP POP POP PUSH3 0x992 JUMP JUMPDEST PUSH1 0x0 PUSH1 0x40 MLOAD SWAP1 POP SWAP1 JUMP JUMPDEST PUSH1 0x0 DUP1 REVERT JUMPDEST PUSH1 0x0 DUP1 REVERT JUMPDEST PUSH1 0x0 DUP1 REVERT JUMPDEST PUSH1 0x0 PUSH1 0x1F NOT PUSH1 0x1F DUP4 ADD AND SWAP1 POP SWAP2 SWAP1 POP JUMP JUMPDEST PUSH32 0x4E487B7100000000000000000000000000000000000000000000000000000000 PUSH1 0x0 MSTORE PUSH1 0x41 PUSH1 0x4 MSTORE PUSH1 0x24 PUSH1 0x0 REVERT JUMPDEST PUSH3 0x27B DUP3 PUSH3 0x230 JUMP JUMPDEST DUP2 ADD DUP2 DUP2 LT PUSH8 0xFFFFFFFFFFFFFFFF DUP3 GT OR ISZERO PUSH3 0x29D JUMPI PUSH3 0x29C PUSH3 0x241 JUMP JUMPDEST JUMPDEST DUP1 PUSH1 0x40 MSTORE POP POP POP JUMP JUMPDEST PUSH1 0x0 PUSH3 0x2B2 PUSH3 0x217 JUMP JUMPDEST SWAP1 POP PUSH3 0x2C0 DUP3 DUP3 PUSH3 0x270 JUMP JUMPDEST SWAP2 SWAP1 POP JUMP JUMPDEST PUSH1 0x0 PUSH8 0xFFFFFFFFFFFFFFFF DUP3 GT ISZERO PUSH3 0x2E3 JUMPI PUSH3 0x2E2 PUSH3 0x241 JUMP JUMPDEST JUMPDEST PUSH1 0x20 DUP3 MUL SWAP1 POP PUSH1 0x20 DUP2 ADD SWAP1 POP SWAP2 SWAP1 POP JUMP JUMPDEST PUSH1 0x0 DUP1 REVERT JUMPDEST PUSH1 0x0 PUSH20 0xFFFFFFFFFFFFFFFFFFFFFFFFFFFFFFFFFFFFFFFF DUP3 AND SWAP1 POP SWAP2 SWAP1 POP JUMP JUMPDEST PUSH1 0x0 PUSH3 0x326 DUP3 PUSH3 0x2F9 JUMP JUMPDEST SWAP1 POP SWAP2 SWAP1 POP JUMP JUMPDEST PUSH3 0x338 DUP2 PUSH3 0x319 JUMP JUMPDEST DUP2 EQ PUSH3 0x344 JUMPI PUSH1 0x0 DUP1 REVERT JUMPDEST POP JUMP JUMPDEST PUSH1 0x0 DUP2 MLOAD SWAP1 POP PUSH3 0x358 DUP2 PUSH3 0x32D JUMP JUMPDEST SWAP3 SWAP2 POP POP JUMP JUMPDEST PUSH1 0x0 PUSH3 0x375 PUSH3 0x36F DUP5 PUSH3 0x2C5 JUMP JUMPDEST PUSH3 0x2A6 JUMP JUMPDEST SWAP1 POP DUP1 DUP4 DUP3 MSTORE PUSH1 0x20 DUP3 ADD SWAP1 POP PUSH1 0x20 DUP5 MUL DUP4 ADD DUP6 DUP2 GT ISZERO PUSH3 0x39B JUMPI PUSH3 0x39A PUSH3 0x2F4 JUMP JUMPDEST JUMPDEST DUP4 JUMPDEST DUP2 DUP2 LT ISZERO PUSH3 0x3C8 JUMPI DUP1 PUSH3 0x3B3 DUP9 DUP3 PUSH3 0x347 JUMP JUMPDEST DUP5 MSTORE PUSH1 0x20 DUP5 ADD SWAP4 POP POP PUSH1 0x20 DUP2 ADD SWAP1 POP PUSH3 0x39D JUMP JUMPDEST POP POP POP SWAP4 SWAP3 POP POP POP JUMP JUMPDEST PUSH1 0x0 DUP3 PUSH1 0x1F DUP4 ADD SLT PUSH3 0x3EA JUMPI PUSH3 0x3E9 PUSH3 0x22B JUMP JUMPDEST JUMPDEST DUP2 MLOAD PUSH3 0x3FC DUP5 DUP3 PUSH1 0x20 DUP7 ADD PUSH3 0x35E JUMP JUMPDEST SWAP2 POP POP SWAP3 SWAP2 POP POP JUMP JUMPDEST PUSH1 0x0 DUP2 SWAP1 POP SWAP2 SWAP1 POP JUMP JUMPDEST PUSH3 0x41A DUP2 PUSH3 0x405 JUMP JUMPDEST DUP2 EQ PUSH3 0x426 JUMPI PUSH1 0x0 DUP1 REVERT JUMPDEST POP JUMP JUMPDEST PUSH1 0x0 DUP2 MLOAD SWAP1 POP PUSH3 0x43A DUP2 PUSH3 0x40F JUMP JUMPDEST SWAP3 SWAP2 POP POP JUMP JUMPDEST PUSH1 0x0 DUP1 REVERT JUMPDEST PUSH1 0x0 PUSH8 0xFFFFFFFFFFFFFFFF DUP3 GT ISZERO PUSH3 0x463 JUMPI PUSH3 0x462 PUSH3 0x241 JUMP JUMPDEST JUMPDEST PUSH3 0x46E DUP3 PUSH3 0x230 JUMP JUMPDEST SWAP1 POP PUSH1 0x20 DUP2 ADD SWAP1 POP SWAP2 SWAP1 POP JUMP JUMPDEST PUSH1 0x0 JUMPDEST DUP4 DUP2 LT ISZERO PUSH3 0x49B JUMPI DUP1 DUP3 ADD MLOAD DUP2 DUP5 ADD MSTORE PUSH1 0x20 DUP2 ADD SWAP1 POP PUSH3 0x47E JUMP JUMPDEST PUSH1 0x0 DUP5 DUP5 ADD MSTORE POP POP POP POP JUMP JUMPDEST PUSH1 0x0 PUSH3 0x4BE PUSH3 0x4B8 DUP5 PUSH3 0x445 JUMP JUMPDEST PUSH3 0x2A6 JUMP JUMPDEST SWAP1 POP DUP3 DUP2 MSTORE PUSH1 0x20 DUP2 ADD DUP5 DUP5 DUP5 ADD GT ISZERO PUSH3 0x4DD JUMPI PUSH3 0x4DC PUSH3 0x440 JUMP JUMPDEST JUMPDEST PUSH3 0x4EA DUP5 DUP3 DUP6 PUSH3 0x47B JUMP JUMPDEST POP SWAP4 SWAP3 POP POP POP JUMP JUMPDEST PUSH1 0x0 DUP3 PUSH1 0x1F DUP4 ADD SLT PUSH3 0x50A JUMPI PUSH3 0x509 PUSH3 0x22B JUMP JUMPDEST JUMPDEST DUP2 MLOAD PUSH3 0x51C DUP5 DUP3 PUSH1 0x20 DUP7 ADD PUSH3 0x4A7 JUMP JUMPDEST SWAP2 POP POP SWAP3 SWAP2 POP POP JUMP JUMPDEST PUSH1 0x0 DUP1 PUSH1 0x0 PUSH1 0x60 DUP5 DUP7 SUB SLT ISZERO PUSH3 0x541 JUMPI PUSH3 0x540 PUSH3 0x221 JUMP JUMPDEST JUMPDEST PUSH1 0x0 DUP5 ADD MLOAD PUSH8 0xFFFFFFFFFFFFFFFF DUP2 GT ISZERO PUSH3 0x562 JUMPI PUSH3 0x561 PUSH3 0x226 JUMP JUMPDEST JUMPDEST PUSH3 0x570 DUP7 DUP3 DUP8 ADD PUSH3 0x3D2 JUMP JUMPDEST SWAP4 POP POP PUSH1 0x20 PUSH3 0x583 DUP7 DUP3 DUP8 ADD PUSH3 0x429 JUMP JUMPDEST SWAP3 POP POP PUSH1 0x40 DUP5 ADD MLOAD PUSH8 0xFFFFFFFFFFFFFFFF DUP2 GT ISZERO PUSH3 0x5A7 JUMPI PUSH3 0x5A6 PUSH3 0x226 JUMP JUMPDEST JUMPDEST PUSH3 0x5B5 DUP7 DUP3 DUP8 ADD PUSH3 0x4F2 JUMP JUMPDEST SWAP2 POP POP SWAP3 POP SWAP3 POP SWAP3 JUMP JUMPDEST PUSH32 0x4E487B7100000000000000000000000000000000000000000000000000000000 PUSH1 0x0 MSTORE PUSH1 0x32 PUSH1 0x4 MSTORE PUSH1 0x24 PUSH1 0x0 REVERT JUMPDEST PUSH1 0x0 DUP2 MLOAD SWAP1 POP SWAP2 SWAP1 POP JUMP JUMPDEST PUSH32 0x4E487B7100000000000000000000000000000000000000000000000000000000 PUSH1 0x0 MSTORE PUSH1 0x22 PUSH1 0x4 MSTORE PUSH1 0x24 PUSH1 0x0 REVERT JUMPDEST PUSH1 0x0 PUSH1 0x2 DUP3 DIV SWAP1 POP PUSH1 0x1 DUP3 AND DUP1 PUSH3 0x641 JUMPI PUSH1 0x7F DUP3 AND SWAP2 POP JUMPDEST PUSH1 0x20 DUP3 LT DUP2 SUB PUSH3 0x657 JUMPI PUSH3 0x656 PUSH3 0x5F9 JUMP JUMPDEST JUMPDEST POP SWAP2 SWAP1 POP JUMP JUMPDEST PUSH1 0x0 DUP2 SWAP1 POP DUP2 PUSH1 0x0 MSTORE PUSH1 0x20 PUSH1 0x0 KECCAK256 SWAP1 POP SWAP2 SWAP1 POP JUMP JUMPDEST PUSH1 0x0 PUSH1 0x20 PUSH1 0x1F DUP4 ADD DIV SWAP1 POP SWAP2 SWAP1 POP JUMP JUMPDEST PUSH1 0x0 DUP3 DUP3 SHL SWAP1 POP SWAP3 SWAP2 POP POP JUMP JUMPDEST PUSH1 0x0 PUSH1 0x8 DUP4 MUL PUSH3 0x6C1 PUSH32 0xFFFFFFFFFFFFFFFFFFFFFFFFFFFFFFFFFFFFFFFFFFFFFFFFFFFFFFFFFFFFFFFF DUP3 PUSH3 0x682 JUMP JUMPDEST PUSH3 0x6CD DUP7 DUP4 PUSH3 0x682 JUMP JUMPDEST SWAP6 POP DUP1 NOT DUP5 AND SWAP4 POP DUP1 DUP7 AND DUP5 OR SWAP3 POP POP POP SWAP4 SWAP3 POP POP POP JUMP JUMPDEST PUSH1 0x0 DUP2 SWAP1 POP SWAP2 SWAP1 POP JUMP JUMPDEST PUSH1 0x0 PUSH3 0x710 PUSH3 0x70A PUSH3 0x704 DUP5 PUSH3 0x405 JUMP JUMPDEST PUSH3 0x6E5 JUMP JUMPDEST PUSH3 0x405 JUMP JUMPDEST SWAP1 POP SWAP2 SWAP1 POP JUMP JUMPDEST PUSH1 0x0 DUP2 SWAP1 POP SWAP2 SWAP1 POP JUMP JUMPDEST PUSH3 0x72C DUP4 PUSH3 0x6EF JUMP JUMPDEST PUSH3 0x744 PUSH3 0x73B DUP3 PUSH3 0x717 JUMP JUMPDEST DUP5 DUP5 SLOAD PUSH3 0x68F JUMP JUMPDEST DUP3 SSTORE POP POP POP POP JUMP JUMPDEST PUSH1 0x0 SWAP1 JUMP JUMPDEST PUSH3 0x75B PUSH3 0x74C JUMP JUMPDEST PUSH3 0x768 DUP2 DUP5 DUP5 PUSH3 0x721 JUMP JUMPDEST POP POP POP JUMP JUMPDEST JUMPDEST DUP2 DUP2 LT ISZERO PUSH3 0x790 JUMPI PUSH3 0x784 PUSH1 0x0 DUP3 PUSH3 0x751 JUMP JUMPDEST PUSH1 0x1 DUP2 ADD SWAP1 POP PUSH3 0x76E JUMP JUMPDEST POP POP JUMP JUMPDEST PUSH1 0x1F DUP3 GT ISZERO PUSH3 0x7DF JUMPI PUSH3 0x7A9 DUP2 PUSH3 0x65D JUMP JUMPDEST PUSH3 0x7B4 DUP5 PUSH3 0x672 JUMP JUMPDEST DUP2 ADD PUSH1 0x20 DUP6 LT ISZERO PUSH3 0x7C4 JUMPI DUP2 SWAP1 POP JUMPDEST PUSH3 0x7DC PUSH3 0x7D3 DUP6 PUSH3 0x672 JUMP JUMPDEST DUP4 ADD DUP3 PUSH3 0x76D JUMP JUMPDEST POP POP JUMPDEST POP POP POP JUMP JUMPDEST PUSH1 0x0 DUP3 DUP3 SHR SWAP1 POP SWAP3 SWAP2 POP POP JUMP JUMPDEST PUSH1 0x0 PUSH3 0x804 PUSH1 0x0 NOT DUP5 PUSH1 0x8 MUL PUSH3 0x7E4 JUMP JUMPDEST NOT DUP1 DUP4 AND SWAP2 POP POP SWAP3 SWAP2 POP POP JUMP JUMPDEST PUSH1 0x0 PUSH3 0x81F DUP4 DUP4 PUSH3 0x7F1 JUMP JUMPDEST SWAP2 POP DUP3 PUSH1 0x2 MUL DUP3 OR SWAP1 POP SWAP3 SWAP2 POP POP JUMP JUMPDEST PUSH3 0x83A DUP3 PUSH3 0x5EE JUMP JUMPDEST PUSH8 0xFFFFFFFFFFFFFFFF DUP2 GT ISZERO PUSH3 0x856 JUMPI PUSH3 0x855 PUSH3 0x241 JUMP JUMPDEST JUMPDEST PUSH3 0x862 DUP3 SLOAD PUSH3 0x628 JUMP JUMPDEST PUSH3 0x86F DUP3 DUP3 DUP6 PUSH3 0x794 JUMP JUMPDEST PUSH1 0x0 PUSH1 0x20 SWAP1 POP PUSH1 0x1F DUP4 GT PUSH1 0x1 DUP2 EQ PUSH3 0x8A7 JUMPI PUSH1 0x0 DUP5 ISZERO PUSH3 0x892 JUMPI DUP3 DUP8 ADD MLOAD SWAP1 POP JUMPDEST PUSH3 0x89E DUP6 DUP3 PUSH3 0x811 JUMP JUMPDEST DUP7 SSTORE POP PUSH3 0x90E JUMP JUMPDEST PUSH1 0x1F NOT DUP5 AND PUSH3 0x8B7 DUP7 PUSH3 0x65D JUMP JUMPDEST PUSH1 0x0 JUMPDEST DUP3 DUP2 LT ISZERO PUSH3 0x8E1 JUMPI DUP5 DUP10 ADD MLOAD DUP3 SSTORE PUSH1 0x1 DUP3 ADD SWAP2 POP PUSH1 0x20 DUP6 ADD SWAP5 POP PUSH1 0x20 DUP2 ADD SWAP1 POP PUSH3 0x8BA JUMP JUMPDEST DUP7 DUP4 LT ISZERO PUSH3 0x901 JUMPI DUP5 DUP10 ADD MLOAD PUSH3 0x8FD PUSH1 0x1F DUP10 AND DUP3 PUSH3 0x7F1 JUMP JUMPDEST DUP4 SSTORE POP JUMPDEST PUSH1 0x1 PUSH1 0x2 DUP9 MUL ADD DUP9 SSTORE POP POP POP JUMPDEST POP POP POP POP POP POP JUMP JUMPDEST PUSH32 0x4E487B7100000000000000000000000000000000000000000000000000000000 PUSH1 0x0 MSTORE PUSH1 0x11 PUSH1 0x4 MSTORE PUSH1 0x24 PUSH1 0x0 REVERT JUMPDEST PUSH1 0x0 PUSH3 0x952 DUP3 PUSH3 0x405 JUMP JUMPDEST SWAP2 POP PUSH32 0xFFFFFFFFFFFFFFFFFFFFFFFFFFFFFFFFFFFFFFFFFFFFFFFFFFFFFFFFFFFFFFFF DUP3 SUB PUSH3 0x987 JUMPI PUSH3 0x986 PUSH3 0x916 JUMP JUMPDEST JUMPDEST PUSH1 0x1 DUP3 ADD SWAP1 POP SWAP2 SWAP1 POP JUMP JUMPDEST PUSH2 0x1AFF DUP1 PUSH3 0x9A2 PUSH1 0x0 CODECOPY PUSH1 0x0 RETURN INVALID PUSH1 0x80 PUSH1 0x40 MSTORE PUSH1 0x4 CALLDATASIZE LT PUSH2 0x95 JUMPI PUSH1 0x0 CALLDATALOAD PUSH1 0xE0 SHR DUP1 PUSH4 0x4C9C7AF3 GT PUSH2 0x59 JUMPI DUP1 PUSH4 0x4C9C7AF3 EQ PUSH2 0x1D9 JUMPI DUP1 PUSH4 0x738DBFA6 EQ PUSH2 0x216 JUMPI DUP1 PUSH4 0x96431AC1 EQ PUSH2 0x241 JUMPI DUP1 PUSH4 0x9ACE38C2 EQ PUSH2 0x282 JUMPI DUP1 PUSH4 0x9FE8ED9B EQ PUSH2 0x2C4 JUMPI PUSH2 0xEC JUMP JUMPDEST DUP1 PUSH4 0x25E7C27 EQ PUSH2 0xF1 JUMPI DUP1 PUSH4 0x5CBF344 EQ PUSH2 0x12E JUMPI DUP1 PUSH4 0xA147BC1 EQ PUSH2 0x14A JUMPI DUP1 PUSH4 0x45C9711F EQ PUSH2 0x173 JUMPI DUP1 PUSH4 0x4632952C EQ PUSH2 0x1B0 JUMPI PUSH2 0xEC JUMP JUMPDEST CALLDATASIZE PUSH2 0xEC JUMPI CALLER PUSH20 0xFFFFFFFFFFFFFFFFFFFFFFFFFFFFFFFFFFFFFFFF AND PUSH32 0x90890809C654F11D6E72A28FA60149770A0D11EC6C92319D6CEB2BB0A4EA1A15 CALLVALUE SELFBALANCE PUSH1 0x40 MLOAD PUSH2 0xE2 SWAP3 SWAP2 SWAP1 PUSH2 0xF2E JUMP JUMPDEST PUSH1 0x40 MLOAD DUP1 SWAP2 SUB SWAP1 LOG2 STOP JUMPDEST PUSH1 0x0 DUP1 REVERT JUMPDEST CALLVALUE DUP1 ISZERO PUSH2 0xFD JUMPI PUSH1 0x0 DUP1 REVERT JUMPDEST POP PUSH2 0x118 PUSH1 0x4 DUP1 CALLDATASIZE SUB DUP2 ADD SWAP1 PUSH2 0x113 SWAP2 SWAP1 PUSH2 0xF97 JUMP JUMPDEST PUSH2 0x2ED JUMP JUMPDEST PUSH1 0x40 MLOAD PUSH2 0x125 SWAP2 SWAP1 PUSH2 0x1005 JUMP JUMPDEST PUSH1 0x40 MLOAD DUP1 SWAP2 SUB SWAP1 RETURN JUMPDEST PUSH2 0x148 PUSH1 0x4 DUP1 CALLDATASIZE SUB DUP2 ADD SWAP1 PUSH2 0x143 SWAP2 SWAP1 PUSH2 0x1192 JUMP JUMPDEST PUSH2 0x32C JUMP JUMPDEST STOP JUMPDEST CALLVALUE DUP1 ISZERO PUSH2 0x156 JUMPI PUSH1 0x0 DUP1 REVERT JUMPDEST POP PUSH2 0x171 PUSH1 0x4 DUP1 CALLDATASIZE SUB DUP2 ADD SWAP1 PUSH2 0x16C SWAP2 SWAP1 PUSH2 0x12A2 JUMP JUMPDEST PUSH2 0x54A JUMP JUMPDEST STOP JUMPDEST CALLVALUE DUP1 ISZERO PUSH2 0x17F JUMPI PUSH1 0x0 DUP1 REVERT JUMPDEST POP PUSH2 0x19A PUSH1 0x4 DUP1 CALLDATASIZE SUB DUP2 ADD SWAP1 PUSH2 0x195 SWAP2 SWAP1 PUSH2 0x12FE JUMP JUMPDEST PUSH2 0x7C0 JUMP JUMPDEST PUSH1 0x40 MLOAD PUSH2 0x1A7 SWAP2 SWAP1 PUSH2 0x1346 JUMP JUMPDEST PUSH1 0x40 MLOAD DUP1 SWAP2 SUB SWAP1 RETURN JUMPDEST CALLVALUE DUP1 ISZERO PUSH2 0x1BC JUMPI PUSH1 0x0 DUP1 REVERT JUMPDEST POP PUSH2 0x1D7 PUSH1 0x4 DUP1 CALLDATASIZE SUB DUP2 ADD SWAP1 PUSH2 0x1D2 SWAP2 SWAP1 PUSH2 0xF97 JUMP JUMPDEST PUSH2 0x7E0 JUMP JUMPDEST STOP JUMPDEST CALLVALUE DUP1 ISZERO PUSH2 0x1E5 JUMPI PUSH1 0x0 DUP1 REVERT JUMPDEST POP PUSH2 0x200 PUSH1 0x4 DUP1 CALLDATASIZE SUB DUP2 ADD SWAP1 PUSH2 0x1FB SWAP2 SWAP1 PUSH2 0x1361 JUMP JUMPDEST PUSH2 0x9DA JUMP JUMPDEST PUSH1 0x40 MLOAD PUSH2 0x20D SWAP2 SWAP1 PUSH2 0x1346 JUMP JUMPDEST PUSH1 0x40 MLOAD DUP1 SWAP2 SUB SWAP1 RETURN JUMPDEST CALLVALUE DUP1 ISZERO PUSH2 0x222 JUMPI PUSH1 0x0 DUP1 REVERT JUMPDEST POP PUSH2 0x22B PUSH2 0xA09 JUMP JUMPDEST PUSH1 0x40 MLOAD PUSH2 0x238 SWAP2 SWAP1 PUSH2 0x13A1 JUMP JUMPDEST PUSH1 0x40 MLOAD DUP1 SWAP2 SUB SWAP1 RETURN JUMPDEST CALLVALUE DUP1 ISZERO PUSH2 0x24D JUMPI PUSH1 0x0 DUP1 REVERT JUMPDEST POP PUSH2 0x268 PUSH1 0x4 DUP1 CALLDATASIZE SUB DUP2 ADD SWAP1 PUSH2 0x263 SWAP2 SWAP1 PUSH2 0xF97 JUMP JUMPDEST PUSH2 0xA0F JUMP JUMPDEST PUSH1 0x40 MLOAD PUSH2 0x279 SWAP6 SWAP5 SWAP4 SWAP3 SWAP2 SWAP1 PUSH2 0x143B JUMP JUMPDEST PUSH1 0x40 MLOAD DUP1 SWAP2 SUB SWAP1 RETURN JUMPDEST CALLVALUE DUP1 ISZERO PUSH2 0x28E JUMPI PUSH1 0x0 DUP1 REVERT JUMPDEST POP PUSH2 0x2A9 PUSH1 0x4 DUP1 CALLDATASIZE SUB DUP2 ADD SWAP1 PUSH2 0x2A4 SWAP2 SWAP1 PUSH2 0xF97 JUMP JUMPDEST PUSH2 0xBC7 JUMP JUMPDEST PUSH1 0x40 MLOAD PUSH2 0x2BB SWAP7 SWAP6 SWAP5 SWAP4 SWAP3 SWAP2 SWAP1 PUSH2 0x150C JUMP JUMPDEST PUSH1 0x40 MLOAD DUP1 SWAP2 SUB SWAP1 RETURN JUMPDEST CALLVALUE DUP1 ISZERO PUSH2 0x2D0 JUMPI PUSH1 0x0 DUP1 REVERT JUMPDEST POP PUSH2 0x2EB PUSH1 0x4 DUP1 CALLDATASIZE SUB DUP2 ADD SWAP1 PUSH2 0x2E6 SWAP2 SWAP1 PUSH2 0xF97 JUMP JUMPDEST PUSH2 0xCD5 JUMP JUMPDEST STOP JUMPDEST PUSH1 0x0 DUP2 DUP2 SLOAD DUP2 LT PUSH2 0x2FD JUMPI PUSH1 0x0 DUP1 REVERT JUMPDEST SWAP1 PUSH1 0x0 MSTORE PUSH1 0x20 PUSH1 0x0 KECCAK256 ADD PUSH1 0x0 SWAP2 POP SLOAD SWAP1 PUSH2 0x100 EXP SWAP1 DIV PUSH20 0xFFFFFFFFFFFFFFFFFFFFFFFFFFFFFFFFFFFFFFFF AND DUP2 JUMP JUMPDEST PUSH1 0x1 PUSH1 0x0 CALLER PUSH20 0xFFFFFFFFFFFFFFFFFFFFFFFFFFFFFFFFFFFFFFFF AND PUSH20 0xFFFFFFFFFFFFFFFFFFFFFFFFFFFFFFFFFFFFFFFF AND DUP2 MSTORE PUSH1 0x20 ADD SWAP1 DUP2 MSTORE PUSH1 0x20 ADD PUSH1 0x0 KECCAK256 PUSH1 0x0 SWAP1 SLOAD SWAP1 PUSH2 0x100 EXP SWAP1 DIV PUSH1 0xFF AND PUSH2 0x382 JUMPI PUSH1 0x0 DUP1 REVERT JUMPDEST PUSH8 0xDE0B6B3A7640000 CALLVALUE LT ISZERO PUSH2 0x397 JUMPI PUSH1 0x0 DUP1 REVERT JUMPDEST PUSH1 0x0 PUSH1 0x5 DUP1 SLOAD SWAP1 POP SWAP1 POP PUSH1 0x5 PUSH1 0x40 MLOAD DUP1 PUSH1 0xC0 ADD PUSH1 0x40 MSTORE DUP1 DUP7 PUSH20 0xFFFFFFFFFFFFFFFFFFFFFFFFFFFFFFFFFFFFFFFF AND DUP2 MSTORE PUSH1 0x20 ADD DUP6 DUP2 MSTORE PUSH1 0x20 ADD DUP5 DUP2 MSTORE PUSH1 0x20 ADD PUSH1 0x0 ISZERO ISZERO DUP2 MSTORE PUSH1 0x20 ADD PUSH1 0x0 DUP2 MSTORE PUSH1 0x20 ADD PUSH1 0x0 PUSH1 0x2 DUP2 GT ISZERO PUSH2 0x3FA JUMPI PUSH2 0x3F9 PUSH2 0x1495 JUMP JUMPDEST JUMPDEST DUP2 MSTORE POP SWAP1 DUP1 PUSH1 0x1 DUP2 SLOAD ADD DUP1 DUP3 SSTORE DUP1 SWAP2 POP POP PUSH1 0x1 SWAP1 SUB SWAP1 PUSH1 0x0 MSTORE PUSH1 0x20 PUSH1 0x0 KECCAK256 SWAP1 PUSH1 0x6 MUL ADD PUSH1 0x0 SWAP1 SWAP2 SWAP1 SWAP2 SWAP1 SWAP2 POP PUSH1 0x0 DUP3 ADD MLOAD DUP2 PUSH1 0x0 ADD PUSH1 0x0 PUSH2 0x100 EXP DUP2 SLOAD DUP2 PUSH20 0xFFFFFFFFFFFFFFFFFFFFFFFFFFFFFFFFFFFFFFFF MUL NOT AND SWAP1 DUP4 PUSH20 0xFFFFFFFFFFFFFFFFFFFFFFFFFFFFFFFFFFFFFFFF AND MUL OR SWAP1 SSTORE POP PUSH1 0x20 DUP3 ADD MLOAD DUP2 PUSH1 0x1 ADD SSTORE PUSH1 0x40 DUP3 ADD MLOAD DUP2 PUSH1 0x2 ADD SWAP1 DUP2 PUSH2 0x48C SWAP2 SWAP1 PUSH2 0x1780 JUMP JUMPDEST POP PUSH1 0x60 DUP3 ADD MLOAD DUP2 PUSH1 0x3 ADD PUSH1 0x0 PUSH2 0x100 EXP DUP2 SLOAD DUP2 PUSH1 0xFF MUL NOT AND SWAP1 DUP4 ISZERO ISZERO MUL OR SWAP1 SSTORE POP PUSH1 0x80 DUP3 ADD MLOAD DUP2 PUSH1 0x4 ADD SSTORE PUSH1 0xA0 DUP3 ADD MLOAD DUP2 PUSH1 0x5 ADD PUSH1 0x0 PUSH2 0x100 EXP DUP2 SLOAD DUP2 PUSH1 0xFF MUL NOT AND SWAP1 DUP4 PUSH1 0x2 DUP2 GT ISZERO PUSH2 0x4E2 JUMPI PUSH2 0x4E1 PUSH2 0x1495 JUMP JUMPDEST JUMPDEST MUL OR SWAP1 SSTORE POP POP POP DUP4 PUSH20 0xFFFFFFFFFFFFFFFFFFFFFFFFFFFFFFFFFFFFFFFF AND DUP2 CALLER PUSH20 0xFFFFFFFFFFFFFFFFFFFFFFFFFFFFFFFFFFFFFFFF AND PUSH32 0x10FC5065332186BCDF0A1A2BC3062965C8AF95E70BCCB1EA7C4261BC322D4666 PUSH1 0x40 MLOAD PUSH1 0x40 MLOAD DUP1 SWAP2 SUB SWAP1 LOG4 POP POP POP POP JUMP JUMPDEST PUSH1 0x1 PUSH1 0x0 CALLER PUSH20 0xFFFFFFFFFFFFFFFFFFFFFFFFFFFFFFFFFFFFFFFF AND PUSH20 0xFFFFFFFFFFFFFFFFFFFFFFFFFFFFFFFFFFFFFFFF AND DUP2 MSTORE PUSH1 0x20 ADD SWAP1 DUP2 MSTORE PUSH1 0x20 ADD PUSH1 0x0 KECCAK256 PUSH1 0x0 SWAP1 SLOAD SWAP1 PUSH2 0x100 EXP SWAP1 DIV PUSH1 0xFF AND PUSH2 0x5A0 JUMPI PUSH1 0x0 DUP1 REVERT JUMPDEST DUP2 PUSH1 0x5 DUP1 SLOAD SWAP1 POP DUP2 LT PUSH2 0x5B2 JUMPI PUSH1 0x0 DUP1 REVERT JUMPDEST DUP3 PUSH1 0x5 DUP2 DUP2 SLOAD DUP2 LT PUSH2 0x5C7 JUMPI PUSH2 0x5C6 PUSH2 0x1852 JUMP JUMPDEST JUMPDEST SWAP1 PUSH1 0x0 MSTORE PUSH1 0x20 PUSH1 0x0 KECCAK256 SWAP1 PUSH1 0x6 MUL ADD PUSH1 0x3 ADD PUSH1 0x0 SWAP1 SLOAD SWAP1 PUSH2 0x100 EXP SWAP1 DIV PUSH1 0xFF AND PUSH2 0x5EF JUMPI PUSH1 0x0 DUP1 REVERT JUMPDEST PUSH1 0x3 PUSH1 0x40 MLOAD PUSH2 0x5FE SWAP2 SWAP1 PUSH2 0x1924 JUMP JUMPDEST PUSH1 0x40 MLOAD DUP1 SWAP2 SUB SWAP1 KECCAK256 DUP4 DUP1 MLOAD SWAP1 PUSH1 0x20 ADD KECCAK256 EQ PUSH2 0x618 JUMPI PUSH1 0x0 DUP1 REVERT JUMPDEST PUSH1 0x0 PUSH1 0x5 DUP6 DUP2 SLOAD DUP2 LT PUSH2 0x62E JUMPI PUSH2 0x62D PUSH2 0x1852 JUMP JUMPDEST JUMPDEST SWAP1 PUSH1 0x0 MSTORE PUSH1 0x20 PUSH1 0x0 KECCAK256 SWAP1 PUSH1 0x6 MUL ADD SWAP1 POP PUSH1 0x2 SLOAD DUP2 PUSH1 0x4 ADD SLOAD LT ISZERO PUSH2 0x651 JUMPI PUSH1 0x0 DUP1 REVERT JUMPDEST PUSH1 0x0 DUP2 PUSH1 0x0 ADD PUSH1 0x0 SWAP1 SLOAD SWAP1 PUSH2 0x100 EXP SWAP1 DIV PUSH20 0xFFFFFFFFFFFFFFFFFFFFFFFFFFFFFFFFFFFFFFFF AND PUSH20 0xFFFFFFFFFFFFFFFFFFFFFFFFFFFFFFFFFFFFFFFF AND DUP3 PUSH1 0x1 ADD SLOAD DUP4 PUSH1 0x2 ADD PUSH1 0x40 MLOAD PUSH2 0x6A4 SWAP2 SWAP1 PUSH2 0x19BE JUMP JUMPDEST PUSH1 0x0 PUSH1 0x40 MLOAD DUP1 DUP4 SUB DUP2 DUP6 DUP8 GAS CALL SWAP3 POP POP POP RETURNDATASIZE DUP1 PUSH1 0x0 DUP2 EQ PUSH2 0x6E1 JUMPI PUSH1 0x40 MLOAD SWAP2 POP PUSH1 0x1F NOT PUSH1 0x3F RETURNDATASIZE ADD AND DUP3 ADD PUSH1 0x40 MSTORE RETURNDATASIZE DUP3 MSTORE RETURNDATASIZE PUSH1 0x0 PUSH1 0x20 DUP5 ADD RETURNDATACOPY PUSH2 0x6E6 JUMP JUMPDEST PUSH1 0x60 SWAP2 POP JUMPDEST POP POP SWAP1 POP PUSH1 0x1 DUP3 PUSH1 0x3 ADD PUSH1 0x0 PUSH2 0x100 EXP DUP2 SLOAD DUP2 PUSH1 0xFF MUL NOT AND SWAP1 DUP4 ISZERO ISZERO MUL OR SWAP1 SSTORE POP PUSH1 0x2 DUP3 PUSH1 0x5 ADD PUSH1 0x0 PUSH2 0x100 EXP DUP2 SLOAD DUP2 PUSH1 0xFF MUL NOT AND SWAP1 DUP4 PUSH1 0x2 DUP2 GT ISZERO PUSH2 0x72F JUMPI PUSH2 0x72E PUSH2 0x1495 JUMP JUMPDEST JUMPDEST MUL OR SWAP1 SSTORE POP DUP1 PUSH2 0x774 JUMPI PUSH1 0x40 MLOAD PUSH32 0x8C379A000000000000000000000000000000000000000000000000000000000 DUP2 MSTORE PUSH1 0x4 ADD PUSH2 0x76B SWAP1 PUSH2 0x1A32 JUMP JUMPDEST PUSH1 0x40 MLOAD DUP1 SWAP2 SUB SWAP1 REVERT JUMPDEST DUP6 CALLER PUSH20 0xFFFFFFFFFFFFFFFFFFFFFFFFFFFFFFFFFFFFFFFF AND PUSH32 0x40BE3FBFF8ABC172EA87BC4BA12FEEC976ED14084B8CA7055532701181940E5A PUSH1 0x40 MLOAD PUSH1 0x40 MLOAD DUP1 SWAP2 SUB SWAP1 LOG3 POP POP POP POP POP POP JUMP JUMPDEST PUSH1 0x1 PUSH1 0x20 MSTORE DUP1 PUSH1 0x0 MSTORE PUSH1 0x40 PUSH1 0x0 KECCAK256 PUSH1 0x0 SWAP2 POP SLOAD SWAP1 PUSH2 0x100 EXP SWAP1 DIV PUSH1 0xFF AND DUP2 JUMP JUMPDEST PUSH1 0x1 PUSH1 0x0 CALLER PUSH20 0xFFFFFFFFFFFFFFFFFFFFFFFFFFFFFFFFFFFFFFFF AND PUSH20 0xFFFFFFFFFFFFFFFFFFFFFFFFFFFFFFFFFFFFFFFF AND DUP2 MSTORE PUSH1 0x20 ADD SWAP1 DUP2 MSTORE PUSH1 0x20 ADD PUSH1 0x0 KECCAK256 PUSH1 0x0 SWAP1 SLOAD SWAP1 PUSH2 0x100 EXP SWAP1 DIV PUSH1 0xFF AND PUSH2 0x836 JUMPI PUSH1 0x0 DUP1 REVERT JUMPDEST DUP1 PUSH1 0x5 DUP1 SLOAD SWAP1 POP DUP2 LT PUSH2 0x848 JUMPI PUSH1 0x0 DUP1 REVERT JUMPDEST DUP2 PUSH1 0x5 DUP2 DUP2 SLOAD DUP2 LT PUSH2 0x85D JUMPI PUSH2 0x85C PUSH2 0x1852 JUMP JUMPDEST JUMPDEST SWAP1 PUSH1 0x0 MSTORE PUSH1 0x20 PUSH1 0x0 KECCAK256 SWAP1 PUSH1 0x6 MUL ADD PUSH1 0x3 ADD PUSH1 0x0 SWAP1 SLOAD SWAP1 PUSH2 0x100 EXP SWAP1 DIV PUSH1 0xFF AND PUSH2 0x885 JUMPI PUSH1 0x0 DUP1 REVERT JUMPDEST PUSH1 0x0 PUSH1 0x5 DUP5 DUP2 SLOAD DUP2 LT PUSH2 0x89B JUMPI PUSH2 0x89A PUSH2 0x1852 JUMP JUMPDEST JUMPDEST SWAP1 PUSH1 0x0 MSTORE PUSH1 0x20 PUSH1 0x0 KECCAK256 SWAP1 PUSH1 0x6 MUL ADD SWAP1 POP PUSH1 0x4 PUSH1 0x0 DUP6 DUP2 MSTORE PUSH1 0x20 ADD SWAP1 DUP2 MSTORE PUSH1 0x20 ADD PUSH1 0x0 KECCAK256 PUSH1 0x0 CALLER PUSH20 0xFFFFFFFFFFFFFFFFFFFFFFFFFFFFFFFFFFFFFFFF AND PUSH20 0xFFFFFFFFFFFFFFFFFFFFFFFFFFFFFFFFFFFFFFFF AND DUP2 MSTORE PUSH1 0x20 ADD SWAP1 DUP2 MSTORE PUSH1 0x20 ADD PUSH1 0x0 KECCAK256 PUSH1 0x0 SWAP1 SLOAD SWAP1 PUSH2 0x100 EXP SWAP1 DIV PUSH1 0xFF AND PUSH2 0x912 JUMPI PUSH1 0x0 DUP1 REVERT JUMPDEST PUSH2 0x91F DUP2 PUSH1 0x4 ADD SLOAD PUSH2 0xEFF JUMP JUMPDEST DUP2 PUSH1 0x4 ADD DUP2 SWAP1 SSTORE POP PUSH1 0x0 PUSH1 0x4 PUSH1 0x0 DUP7 DUP2 MSTORE PUSH1 0x20 ADD SWAP1 DUP2 MSTORE PUSH1 0x20 ADD PUSH1 0x0 KECCAK256 PUSH1 0x0 CALLER PUSH20 0xFFFFFFFFFFFFFFFFFFFFFFFFFFFFFFFFFFFFFFFF AND PUSH20 0xFFFFFFFFFFFFFFFFFFFFFFFFFFFFFFFFFFFFFFFF AND DUP2 MSTORE PUSH1 0x20 ADD SWAP1 DUP2 MSTORE PUSH1 0x20 ADD PUSH1 0x0 KECCAK256 PUSH1 0x0 PUSH2 0x100 EXP DUP2 SLOAD DUP2 PUSH1 0xFF MUL NOT AND SWAP1 DUP4 ISZERO ISZERO MUL OR SWAP1 SSTORE POP DUP4 CALLER PUSH20 0xFFFFFFFFFFFFFFFFFFFFFFFFFFFFFFFFFFFFFFFF AND PUSH32 0xFF5034BBBFEF728F81C60DDBF47ABA85A6F69878D5912968167B4E9E8AC9B5A9 PUSH1 0x40 MLOAD PUSH1 0x40 MLOAD DUP1 SWAP2 SUB SWAP1 LOG3 POP POP POP POP JUMP JUMPDEST PUSH1 0x4 PUSH1 0x20 MSTORE DUP2 PUSH1 0x0 MSTORE PUSH1 0x40 PUSH1 0x0 KECCAK256 PUSH1 0x20 MSTORE DUP1 PUSH1 0x0 MSTORE PUSH1 0x40 PUSH1 0x0 KECCAK256 PUSH1 0x0 SWAP2 POP SWAP2 POP SWAP1 SLOAD SWAP1 PUSH2 0x100 EXP SWAP1 DIV PUSH1 0xFF AND DUP2 JUMP JUMPDEST PUSH1 0x2 SLOAD DUP2 JUMP JUMPDEST PUSH1 0x0 DUP1 PUSH1 0x60 PUSH1 0x0 DUP1 PUSH1 0x0 PUSH1 0x5 DUP8 DUP2 SLOAD DUP2 LT PUSH2 0xA2D JUMPI PUSH2 0xA2C PUSH2 0x1852 JUMP JUMPDEST JUMPDEST SWAP1 PUSH1 0x0 MSTORE PUSH1 0x20 PUSH1 0x0 KECCAK256 SWAP1 PUSH1 0x6 MUL ADD PUSH1 0x40 MLOAD DUP1 PUSH1 0xC0 ADD PUSH1 0x40 MSTORE SWAP1 DUP2 PUSH1 0x0 DUP3 ADD PUSH1 0x0 SWAP1 SLOAD SWAP1 PUSH2 0x100 EXP SWAP1 DIV PUSH20 0xFFFFFFFFFFFFFFFFFFFFFFFFFFFFFFFFFFFFFFFF AND PUSH20 0xFFFFFFFFFFFFFFFFFFFFFFFFFFFFFFFFFFFFFFFF AND PUSH20 0xFFFFFFFFFFFFFFFFFFFFFFFFFFFFFFFFFFFFFFFF AND DUP2 MSTORE PUSH1 0x20 ADD PUSH1 0x1 DUP3 ADD SLOAD DUP2 MSTORE PUSH1 0x20 ADD PUSH1 0x2 DUP3 ADD DUP1 SLOAD PUSH2 0xAB6 SWAP1 PUSH2 0x15A3 JUMP JUMPDEST DUP1 PUSH1 0x1F ADD PUSH1 0x20 DUP1 SWAP2 DIV MUL PUSH1 0x20 ADD PUSH1 0x40 MLOAD SWAP1 DUP2 ADD PUSH1 0x40 MSTORE DUP1 SWAP3 SWAP2 SWAP1 DUP2 DUP2 MSTORE PUSH1 0x20 ADD DUP3 DUP1 SLOAD PUSH2 0xAE2 SWAP1 PUSH2 0x15A3 JUMP JUMPDEST DUP1 ISZERO PUSH2 0xB2F JUMPI DUP1 PUSH1 0x1F LT PUSH2 0xB04 JUMPI PUSH2 0x100 DUP1 DUP4 SLOAD DIV MUL DUP4 MSTORE SWAP2 PUSH1 0x20 ADD SWAP2 PUSH2 0xB2F JUMP JUMPDEST DUP3 ADD SWAP2 SWAP1 PUSH1 0x0 MSTORE PUSH1 0x20 PUSH1 0x0 KECCAK256 SWAP1 JUMPDEST DUP2 SLOAD DUP2 MSTORE SWAP1 PUSH1 0x1 ADD SWAP1 PUSH1 0x20 ADD DUP1 DUP4 GT PUSH2 0xB12 JUMPI DUP3 SWAP1 SUB PUSH1 0x1F AND DUP3 ADD SWAP2 JUMPDEST POP POP POP POP POP DUP2 MSTORE PUSH1 0x20 ADD PUSH1 0x3 DUP3 ADD PUSH1 0x0 SWAP1 SLOAD SWAP1 PUSH2 0x100 EXP SWAP1 DIV PUSH1 0xFF AND ISZERO ISZERO ISZERO ISZERO DUP2 MSTORE PUSH1 0x20 ADD PUSH1 0x4 DUP3 ADD SLOAD DUP2 MSTORE PUSH1 0x20 ADD PUSH1 0x5 DUP3 ADD PUSH1 0x0 SWAP1 SLOAD SWAP1 PUSH2 0x100 EXP SWAP1 DIV PUSH1 0xFF AND PUSH1 0x2 DUP2 GT ISZERO PUSH2 0xB82 JUMPI PUSH2 0xB81 PUSH2 0x1495 JUMP JUMPDEST JUMPDEST PUSH1 0x2 DUP2 GT ISZERO PUSH2 0xB94 JUMPI PUSH2 0xB93 PUSH2 0x1495 JUMP JUMPDEST JUMPDEST DUP2 MSTORE POP POP SWAP1 POP DUP1 PUSH1 0x0 ADD MLOAD DUP2 PUSH1 0x20 ADD MLOAD DUP3 PUSH1 0x40 ADD MLOAD DUP4 PUSH1 0x60 ADD MLOAD DUP5 PUSH1 0x80 ADD MLOAD SWAP6 POP SWAP6 POP SWAP6 POP SWAP6 POP SWAP6 POP POP SWAP2 SWAP4 SWAP6 SWAP1 SWAP3 SWAP5 POP JUMP JUMPDEST PUSH1 0x5 DUP2 DUP2 SLOAD DUP2 LT PUSH2 0xBD7 JUMPI PUSH1 0x0 DUP1 REVERT JUMPDEST SWAP1 PUSH1 0x0 MSTORE PUSH1 0x20 PUSH1 0x0 KECCAK256 SWAP1 PUSH1 0x6 MUL ADD PUSH1 0x0 SWAP2 POP SWAP1 POP DUP1 PUSH1 0x0 ADD PUSH1 0x0 SWAP1 SLOAD SWAP1 PUSH2 0x100 EXP SWAP1 DIV PUSH20 0xFFFFFFFFFFFFFFFFFFFFFFFFFFFFFFFFFFFFFFFF AND SWAP1 DUP1 PUSH1 0x1 ADD SLOAD SWAP1 DUP1 PUSH1 0x2 ADD DUP1 SLOAD PUSH2 0xC26 SWAP1 PUSH2 0x15A3 JUMP JUMPDEST DUP1 PUSH1 0x1F ADD PUSH1 0x20 DUP1 SWAP2 DIV MUL PUSH1 0x20 ADD PUSH1 0x40 MLOAD SWAP1 DUP2 ADD PUSH1 0x40 MSTORE DUP1 SWAP3 SWAP2 SWAP1 DUP2 DUP2 MSTORE PUSH1 0x20 ADD DUP3 DUP1 SLOAD PUSH2 0xC52 SWAP1 PUSH2 0x15A3 JUMP JUMPDEST DUP1 ISZERO PUSH2 0xC9F JUMPI DUP1 PUSH1 0x1F LT PUSH2 0xC74 JUMPI PUSH2 0x100 DUP1 DUP4 SLOAD DIV MUL DUP4 MSTORE SWAP2 PUSH1 0x20 ADD SWAP2 PUSH2 0xC9F JUMP JUMPDEST DUP3 ADD SWAP2 SWAP1 PUSH1 0x0 MSTORE PUSH1 0x20 PUSH1 0x0 KECCAK256 SWAP1 JUMPDEST DUP2 SLOAD DUP2 MSTORE SWAP1 PUSH1 0x1 ADD SWAP1 PUSH1 0x20 ADD DUP1 DUP4 GT PUSH2 0xC82 JUMPI DUP3 SWAP1 SUB PUSH1 0x1F AND DUP3 ADD SWAP2 JUMPDEST POP POP POP POP POP SWAP1 DUP1 PUSH1 0x3 ADD PUSH1 0x0 SWAP1 SLOAD SWAP1 PUSH2 0x100 EXP SWAP1 DIV PUSH1 0xFF AND SWAP1 DUP1 PUSH1 0x4 ADD SLOAD SWAP1 DUP1 PUSH1 0x5 ADD PUSH1 0x0 SWAP1 SLOAD SWAP1 PUSH2 0x100 EXP SWAP1 DIV PUSH1 0xFF AND SWAP1 POP DUP7 JUMP JUMPDEST PUSH1 0x1 PUSH1 0x0 CALLER PUSH20 0xFFFFFFFFFFFFFFFFFFFFFFFFFFFFFFFFFFFFFFFF AND PUSH20 0xFFFFFFFFFFFFFFFFFFFFFFFFFFFFFFFFFFFFFFFF AND DUP2 MSTORE PUSH1 0x20 ADD SWAP1 DUP2 MSTORE PUSH1 0x20 ADD PUSH1 0x0 KECCAK256 PUSH1 0x0 SWAP1 SLOAD SWAP1 PUSH2 0x100 EXP SWAP1 DIV PUSH1 0xFF AND PUSH2 0xD2B JUMPI PUSH1 0x0 DUP1 REVERT JUMPDEST DUP1 PUSH1 0x5 DUP1 SLOAD SWAP1 POP DUP2 LT PUSH2 0xD3D JUMPI PUSH1 0x0 DUP1 REVERT JUMPDEST DUP2 PUSH1 0x5 DUP2 DUP2 SLOAD DUP2 LT PUSH2 0xD52 JUMPI PUSH2 0xD51 PUSH2 0x1852 JUMP JUMPDEST JUMPDEST SWAP1 PUSH1 0x0 MSTORE PUSH1 0x20 PUSH1 0x0 KECCAK256 SWAP1 PUSH1 0x6 MUL ADD PUSH1 0x3 ADD PUSH1 0x0 SWAP1 SLOAD SWAP1 PUSH2 0x100 EXP SWAP1 DIV PUSH1 0xFF AND PUSH2 0xD7A JUMPI PUSH1 0x0 DUP1 REVERT JUMPDEST DUP3 PUSH1 0x4 PUSH1 0x0 DUP3 DUP2 MSTORE PUSH1 0x20 ADD SWAP1 DUP2 MSTORE PUSH1 0x20 ADD PUSH1 0x0 KECCAK256 PUSH1 0x0 CALLER PUSH20 0xFFFFFFFFFFFFFFFFFFFFFFFFFFFFFFFFFFFFFFFF AND PUSH20 0xFFFFFFFFFFFFFFFFFFFFFFFFFFFFFFFFFFFFFFFF AND DUP2 MSTORE PUSH1 0x20 ADD SWAP1 DUP2 MSTORE PUSH1 0x20 ADD PUSH1 0x0 KECCAK256 PUSH1 0x0 SWAP1 SLOAD SWAP1 PUSH2 0x100 EXP SWAP1 DIV PUSH1 0xFF AND ISZERO PUSH2 0xDE3 JUMPI PUSH1 0x0 DUP1 REVERT JUMPDEST PUSH1 0x0 PUSH1 0x5 DUP6 DUP2 SLOAD DUP2 LT PUSH2 0xDF9 JUMPI PUSH2 0xDF8 PUSH2 0x1852 JUMP JUMPDEST JUMPDEST SWAP1 PUSH1 0x0 MSTORE PUSH1 0x20 PUSH1 0x0 KECCAK256 SWAP1 PUSH1 0x6 MUL ADD SWAP1 POP PUSH2 0xE16 DUP2 PUSH1 0x4 ADD SLOAD PUSH2 0xEFF JUMP JUMPDEST DUP2 PUSH1 0x4 ADD DUP2 SWAP1 SSTORE POP PUSH1 0x1 PUSH1 0x4 PUSH1 0x0 DUP8 DUP2 MSTORE PUSH1 0x20 ADD SWAP1 DUP2 MSTORE PUSH1 0x20 ADD PUSH1 0x0 KECCAK256 PUSH1 0x0 CALLER PUSH20 0xFFFFFFFFFFFFFFFFFFFFFFFFFFFFFFFFFFFFFFFF AND PUSH20 0xFFFFFFFFFFFFFFFFFFFFFFFFFFFFFFFFFFFFFFFF AND DUP2 MSTORE PUSH1 0x20 ADD SWAP1 DUP2 MSTORE PUSH1 0x20 ADD PUSH1 0x0 KECCAK256 PUSH1 0x0 PUSH2 0x100 EXP DUP2 SLOAD DUP2 PUSH1 0xFF MUL NOT AND SWAP1 DUP4 ISZERO ISZERO MUL OR SWAP1 SSTORE POP PUSH1 0x1 DUP2 PUSH1 0x5 ADD PUSH1 0x0 PUSH2 0x100 EXP DUP2 SLOAD DUP2 PUSH1 0xFF MUL NOT AND SWAP1 DUP4 PUSH1 0x2 DUP2 GT ISZERO PUSH2 0xEAF JUMPI PUSH2 0xEAE PUSH2 0x1495 JUMP JUMPDEST JUMPDEST MUL OR SWAP1 SSTORE POP DUP5 CALLER PUSH20 0xFFFFFFFFFFFFFFFFFFFFFFFFFFFFFFFFFFFFFFFF AND PUSH32 0x2D7323B056DBF61C34C184ECC2C4042DCA462AD27537FD871196C73715017928 PUSH1 0x40 MLOAD PUSH1 0x40 MLOAD DUP1 SWAP2 SUB SWAP1 LOG3 POP POP POP POP POP JUMP JUMPDEST PUSH1 0x0 DUP2 DUP1 PUSH2 0xF0C SWAP1 PUSH2 0x1A81 JUMP JUMPDEST SWAP3 POP SWAP1 POP SWAP2 SWAP1 POP JUMP JUMPDEST PUSH1 0x0 DUP2 SWAP1 POP SWAP2 SWAP1 POP JUMP JUMPDEST PUSH2 0xF28 DUP2 PUSH2 0xF15 JUMP JUMPDEST DUP3 MSTORE POP POP JUMP JUMPDEST PUSH1 0x0 PUSH1 0x40 DUP3 ADD SWAP1 POP PUSH2 0xF43 PUSH1 0x0 DUP4 ADD DUP6 PUSH2 0xF1F JUMP JUMPDEST PUSH2 0xF50 PUSH1 0x20 DUP4 ADD DUP5 PUSH2 0xF1F JUMP JUMPDEST SWAP4 SWAP3 POP POP POP JUMP JUMPDEST PUSH1 0x0 PUSH1 0x40 MLOAD SWAP1 POP SWAP1 JUMP JUMPDEST PUSH1 0x0 DUP1 REVERT JUMPDEST PUSH1 0x0 DUP1 REVERT JUMPDEST PUSH2 0xF74 DUP2 PUSH2 0xF15 JUMP JUMPDEST DUP2 EQ PUSH2 0xF7F JUMPI PUSH1 0x0 DUP1 REVERT JUMPDEST POP JUMP JUMPDEST PUSH1 0x0 DUP2 CALLDATALOAD SWAP1 POP PUSH2 0xF91 DUP2 PUSH2 0xF6B JUMP JUMPDEST SWAP3 SWAP2 POP POP JUMP JUMPDEST PUSH1 0x0 PUSH1 0x20 DUP3 DUP5 SUB SLT ISZERO PUSH2 0xFAD JUMPI PUSH2 0xFAC PUSH2 0xF61 JUMP JUMPDEST JUMPDEST PUSH1 0x0 PUSH2 0xFBB DUP5 DUP3 DUP6 ADD PUSH2 0xF82 JUMP JUMPDEST SWAP2 POP POP SWAP3 SWAP2 POP POP JUMP JUMPDEST PUSH1 0x0 PUSH20 0xFFFFFFFFFFFFFFFFFFFFFFFFFFFFFFFFFFFFFFFF DUP3 AND SWAP1 POP SWAP2 SWAP1 POP JUMP JUMPDEST PUSH1 0x0 PUSH2 0xFEF DUP3 PUSH2 0xFC4 JUMP JUMPDEST SWAP1 POP SWAP2 SWAP1 POP JUMP JUMPDEST PUSH2 0xFFF DUP2 PUSH2 0xFE4 JUMP JUMPDEST DUP3 MSTORE POP POP JUMP JUMPDEST PUSH1 0x0 PUSH1 0x20 DUP3 ADD SWAP1 POP PUSH2 0x101A PUSH1 0x0 DUP4 ADD DUP5 PUSH2 0xFF6 JUMP JUMPDEST SWAP3 SWAP2 POP POP JUMP JUMPDEST PUSH2 0x1029 DUP2 PUSH2 0xFE4 JUMP JUMPDEST DUP2 EQ PUSH2 0x1034 JUMPI PUSH1 0x0 DUP1 REVERT JUMPDEST POP JUMP JUMPDEST PUSH1 0x0 DUP2 CALLDATALOAD SWAP1 POP PUSH2 0x1046 DUP2 PUSH2 0x1020 JUMP JUMPDEST SWAP3 SWAP2 POP POP JUMP JUMPDEST PUSH1 0x0 DUP1 REVERT JUMPDEST PUSH1 0x0 DUP1 REVERT JUMPDEST PUSH1 0x0 PUSH1 0x1F NOT PUSH1 0x1F DUP4 ADD AND SWAP1 POP SWAP2 SWAP1 POP JUMP JUMPDEST PUSH32 0x4E487B7100000000000000000000000000000000000000000000000000000000 PUSH1 0x0 MSTORE PUSH1 0x41 PUSH1 0x4 MSTORE PUSH1 0x24 PUSH1 0x0 REVERT JUMPDEST PUSH2 0x109F DUP3 PUSH2 0x1056 JUMP JUMPDEST DUP2 ADD DUP2 DUP2 LT PUSH8 0xFFFFFFFFFFFFFFFF DUP3 GT OR ISZERO PUSH2 0x10BE JUMPI PUSH2 0x10BD PUSH2 0x1067 JUMP JUMPDEST JUMPDEST DUP1 PUSH1 0x40 MSTORE POP POP POP JUMP JUMPDEST PUSH1 0x0 PUSH2 0x10D1 PUSH2 0xF57 JUMP JUMPDEST SWAP1 POP PUSH2 0x10DD DUP3 DUP3 PUSH2 0x1096 JUMP JUMPDEST SWAP2 SWAP1 POP JUMP JUMPDEST PUSH1 0x0 PUSH8 0xFFFFFFFFFFFFFFFF DUP3 GT ISZERO PUSH2 0x10FD JUMPI PUSH2 0x10FC PUSH2 0x1067 JUMP JUMPDEST JUMPDEST PUSH2 0x1106 DUP3 PUSH2 0x1056 JUMP JUMPDEST SWAP1 POP PUSH1 0x20 DUP2 ADD SWAP1 POP SWAP2 SWAP1 POP JUMP JUMPDEST DUP3 DUP2 DUP4 CALLDATACOPY PUSH1 0x0 DUP4 DUP4 ADD MSTORE POP POP POP JUMP JUMPDEST PUSH1 0x0 PUSH2 0x1135 PUSH2 0x1130 DUP5 PUSH2 0x10E2 JUMP JUMPDEST PUSH2 0x10C7 JUMP JUMPDEST SWAP1 POP DUP3 DUP2 MSTORE PUSH1 0x20 DUP2 ADD DUP5 DUP5 DUP5 ADD GT ISZERO PUSH2 0x1151 JUMPI PUSH2 0x1150 PUSH2 0x1051 JUMP JUMPDEST JUMPDEST PUSH2 0x115C DUP5 DUP3 DUP6 PUSH2 0x1113 JUMP JUMPDEST POP SWAP4 SWAP3 POP POP POP JUMP JUMPDEST PUSH1 0x0 DUP3 PUSH1 0x1F DUP4 ADD SLT PUSH2 0x1179 JUMPI PUSH2 0x1178 PUSH2 0x104C JUMP JUMPDEST JUMPDEST DUP2 CALLDATALOAD PUSH2 0x1189 DUP5 DUP3 PUSH1 0x20 DUP7 ADD PUSH2 0x1122 JUMP JUMPDEST SWAP2 POP POP SWAP3 SWAP2 POP POP JUMP JUMPDEST PUSH1 0x0 DUP1 PUSH1 0x0 PUSH1 0x60 DUP5 DUP7 SUB SLT ISZERO PUSH2 0x11AB JUMPI PUSH2 0x11AA PUSH2 0xF61 JUMP JUMPDEST JUMPDEST PUSH1 0x0 PUSH2 0x11B9 DUP7 DUP3 DUP8 ADD PUSH2 0x1037 JUMP JUMPDEST SWAP4 POP POP PUSH1 0x20 PUSH2 0x11CA DUP7 DUP3 DUP8 ADD PUSH2 0xF82 JUMP JUMPDEST SWAP3 POP POP PUSH1 0x40 DUP5 ADD CALLDATALOAD PUSH8 0xFFFFFFFFFFFFFFFF DUP2 GT ISZERO PUSH2 0x11EB JUMPI PUSH2 0x11EA PUSH2 0xF66 JUMP JUMPDEST JUMPDEST PUSH2 0x11F7 DUP7 DUP3 DUP8 ADD PUSH2 0x1164 JUMP JUMPDEST SWAP2 POP POP SWAP3 POP SWAP3 POP SWAP3 JUMP JUMPDEST PUSH1 0x0 PUSH8 0xFFFFFFFFFFFFFFFF DUP3 GT ISZERO PUSH2 0x121C JUMPI PUSH2 0x121B PUSH2 0x1067 JUMP JUMPDEST JUMPDEST PUSH2 0x1225 DUP3 PUSH2 0x1056 JUMP JUMPDEST SWAP1 POP PUSH1 0x20 DUP2 ADD SWAP1 POP SWAP2 SWAP1 POP JUMP JUMPDEST PUSH1 0x0 PUSH2 0x1245 PUSH2 0x1240 DUP5 PUSH2 0x1201 JUMP JUMPDEST PUSH2 0x10C7 JUMP JUMPDEST SWAP1 POP DUP3 DUP2 MSTORE PUSH1 0x20 DUP2 ADD DUP5 DUP5 DUP5 ADD GT ISZERO PUSH2 0x1261 JUMPI PUSH2 0x1260 PUSH2 0x1051 JUMP JUMPDEST JUMPDEST PUSH2 0x126C DUP5 DUP3 DUP6 PUSH2 0x1113 JUMP JUMPDEST POP SWAP4 SWAP3 POP POP POP JUMP JUMPDEST PUSH1 0x0 DUP3 PUSH1 0x1F DUP4 ADD SLT PUSH2 0x1289 JUMPI PUSH2 0x1288 PUSH2 0x104C JUMP JUMPDEST JUMPDEST DUP2 CALLDATALOAD PUSH2 0x1299 DUP5 DUP3 PUSH1 0x20 DUP7 ADD PUSH2 0x1232 JUMP JUMPDEST SWAP2 POP POP SWAP3 SWAP2 POP POP JUMP JUMPDEST PUSH1 0x0 DUP1 PUSH1 0x40 DUP4 DUP6 SUB SLT ISZERO PUSH2 0x12B9 JUMPI PUSH2 0x12B8 PUSH2 0xF61 JUMP JUMPDEST JUMPDEST PUSH1 0x0 PUSH2 0x12C7 DUP6 DUP3 DUP7 ADD PUSH2 0xF82 JUMP JUMPDEST SWAP3 POP POP PUSH1 0x20 DUP4 ADD CALLDATALOAD PUSH8 0xFFFFFFFFFFFFFFFF DUP2 GT ISZERO PUSH2 0x12E8 JUMPI PUSH2 0x12E7 PUSH2 0xF66 JUMP JUMPDEST JUMPDEST PUSH2 0x12F4 DUP6 DUP3 DUP7 ADD PUSH2 0x1274 JUMP JUMPDEST SWAP2 POP POP SWAP3 POP SWAP3 SWAP1 POP JUMP JUMPDEST PUSH1 0x0 PUSH1 0x20 DUP3 DUP5 SUB SLT ISZERO PUSH2 0x1314 JUMPI PUSH2 0x1313 PUSH2 0xF61 JUMP JUMPDEST JUMPDEST PUSH1 0x0 PUSH2 0x1322 DUP5 DUP3 DUP6 ADD PUSH2 0x1037 JUMP JUMPDEST SWAP2 POP POP SWAP3 SWAP2 POP POP JUMP JUMPDEST PUSH1 0x0 DUP2 ISZERO ISZERO SWAP1 POP SWAP2 SWAP1 POP JUMP JUMPDEST PUSH2 0x1340 DUP2 PUSH2 0x132B JUMP JUMPDEST DUP3 MSTORE POP POP JUMP JUMPDEST PUSH1 0x0 PUSH1 0x20 DUP3 ADD SWAP1 POP PUSH2 0x135B PUSH1 0x0 DUP4 ADD DUP5 PUSH2 0x1337 JUMP JUMPDEST SWAP3 SWAP2 POP POP JUMP JUMPDEST PUSH1 0x0 DUP1 PUSH1 0x40 DUP4 DUP6 SUB SLT ISZERO PUSH2 0x1378 JUMPI PUSH2 0x1377 PUSH2 0xF61 JUMP JUMPDEST JUMPDEST PUSH1 0x0 PUSH2 0x1386 DUP6 DUP3 DUP7 ADD PUSH2 0xF82 JUMP JUMPDEST SWAP3 POP POP PUSH1 0x20 PUSH2 0x1397 DUP6 DUP3 DUP7 ADD PUSH2 0x1037 JUMP JUMPDEST SWAP2 POP POP SWAP3 POP SWAP3 SWAP1 POP JUMP JUMPDEST PUSH1 0x0 PUSH1 0x20 DUP3 ADD SWAP1 POP PUSH2 0x13B6 PUSH1 0x0 DUP4 ADD DUP5 PUSH2 0xF1F JUMP JUMPDEST SWAP3 SWAP2 POP POP JUMP JUMPDEST PUSH1 0x0 DUP2 MLOAD SWAP1 POP SWAP2 SWAP1 POP JUMP JUMPDEST PUSH1 0x0 DUP3 DUP3 MSTORE PUSH1 0x20 DUP3 ADD SWAP1 POP SWAP3 SWAP2 POP POP JUMP JUMPDEST PUSH1 0x0 JUMPDEST DUP4 DUP2 LT ISZERO PUSH2 0x13F6 JUMPI DUP1 DUP3 ADD MLOAD DUP2 DUP5 ADD MSTORE PUSH1 0x20 DUP2 ADD SWAP1 POP PUSH2 0x13DB JUMP JUMPDEST PUSH1 0x0 DUP5 DUP5 ADD MSTORE POP POP POP POP JUMP JUMPDEST PUSH1 0x0 PUSH2 0x140D DUP3 PUSH2 0x13BC JUMP JUMPDEST PUSH2 0x1417 DUP2 DUP6 PUSH2 0x13C7 JUMP JUMPDEST SWAP4 POP PUSH2 0x1427 DUP2 DUP6 PUSH1 0x20 DUP7 ADD PUSH2 0x13D8 JUMP JUMPDEST PUSH2 0x1430 DUP2 PUSH2 0x1056 JUMP JUMPDEST DUP5 ADD SWAP2 POP POP SWAP3 SWAP2 POP POP JUMP JUMPDEST PUSH1 0x0 PUSH1 0xA0 DUP3 ADD SWAP1 POP PUSH2 0x1450 PUSH1 0x0 DUP4 ADD DUP9 PUSH2 0xFF6 JUMP JUMPDEST PUSH2 0x145D PUSH1 0x20 DUP4 ADD DUP8 PUSH2 0xF1F JUMP JUMPDEST DUP2 DUP2 SUB PUSH1 0x40 DUP4 ADD MSTORE PUSH2 0x146F DUP2 DUP7 PUSH2 0x1402 JUMP JUMPDEST SWAP1 POP PUSH2 0x147E PUSH1 0x60 DUP4 ADD DUP6 PUSH2 0x1337 JUMP JUMPDEST PUSH2 0x148B PUSH1 0x80 DUP4 ADD DUP5 PUSH2 0xF1F JUMP JUMPDEST SWAP7 SWAP6 POP POP POP POP POP POP JUMP JUMPDEST PUSH32 0x4E487B7100000000000000000000000000000000000000000000000000000000 PUSH1 0x0 MSTORE PUSH1 0x21 PUSH1 0x4 MSTORE PUSH1 0x24 PUSH1 0x0 REVERT JUMPDEST PUSH1 0x3 DUP2 LT PUSH2 0x14D5 JUMPI PUSH2 0x14D4 PUSH2 0x1495 JUMP JUMPDEST JUMPDEST POP JUMP JUMPDEST PUSH1 0x0 DUP2 SWAP1 POP PUSH2 0x14E6 DUP3 PUSH2 0x14C4 JUMP JUMPDEST SWAP2 SWAP1 POP JUMP JUMPDEST PUSH1 0x0 PUSH2 0x14F6 DUP3 PUSH2 0x14D8 JUMP JUMPDEST SWAP1 POP SWAP2 SWAP1 POP JUMP JUMPDEST PUSH2 0x1506 DUP2 PUSH2 0x14EB JUMP JUMPDEST DUP3 MSTORE POP POP JUMP JUMPDEST PUSH1 0x0 PUSH1 0xC0 DUP3 ADD SWAP1 POP PUSH2 0x1521 PUSH1 0x0 DUP4 ADD DUP10 PUSH2 0xFF6 JUMP JUMPDEST PUSH2 0x152E PUSH1 0x20 DUP4 ADD DUP9 PUSH2 0xF1F JUMP JUMPDEST DUP2 DUP2 SUB PUSH1 0x40 DUP4 ADD MSTORE PUSH2 0x1540 DUP2 DUP8 PUSH2 0x1402 JUMP JUMPDEST SWAP1 POP PUSH2 0x154F PUSH1 0x60 DUP4 ADD DUP7 PUSH2 0x1337 JUMP JUMPDEST PUSH2 0x155C PUSH1 0x80 DUP4 ADD DUP6 PUSH2 0xF1F JUMP JUMPDEST PUSH2 0x1569 PUSH1 0xA0 DUP4 ADD DUP5 PUSH2 0x14FD JUMP JUMPDEST SWAP8 SWAP7 POP POP POP POP POP POP POP JUMP JUMPDEST PUSH32 0x4E487B7100000000000000000000000000000000000000000000000000000000 PUSH1 0x0 MSTORE PUSH1 0x22 PUSH1 0x4 MSTORE PUSH1 0x24 PUSH1 0x0 REVERT JUMPDEST PUSH1 0x0 PUSH1 0x2 DUP3 DIV SWAP1 POP PUSH1 0x1 DUP3 AND DUP1 PUSH2 0x15BB JUMPI PUSH1 0x7F DUP3 AND SWAP2 POP JUMPDEST PUSH1 0x20 DUP3 LT DUP2 SUB PUSH2 0x15CE JUMPI PUSH2 0x15CD PUSH2 0x1574 JUMP JUMPDEST JUMPDEST POP SWAP2 SWAP1 POP JUMP JUMPDEST PUSH1 0x0 DUP2 SWAP1 POP DUP2 PUSH1 0x0 MSTORE PUSH1 0x20 PUSH1 0x0 KECCAK256 SWAP1 POP SWAP2 SWAP1 POP JUMP JUMPDEST PUSH1 0x0 PUSH1 0x20 PUSH1 0x1F DUP4 ADD DIV SWAP1 POP SWAP2 SWAP1 POP JUMP JUMPDEST PUSH1 0x0 DUP3 DUP3 SHL SWAP1 POP SWAP3 SWAP2 POP POP JUMP JUMPDEST PUSH1 0x0 PUSH1 0x8 DUP4 MUL PUSH2 0x1636 PUSH32 0xFFFFFFFFFFFFFFFFFFFFFFFFFFFFFFFFFFFFFFFFFFFFFFFFFFFFFFFFFFFFFFFF DUP3 PUSH2 0x15F9 JUMP JUMPDEST PUSH2 0x1640 DUP7 DUP4 PUSH2 0x15F9 JUMP JUMPDEST SWAP6 POP DUP1 NOT DUP5 AND SWAP4 POP DUP1 DUP7 AND DUP5 OR SWAP3 POP POP POP SWAP4 SWAP3 POP POP POP JUMP JUMPDEST PUSH1 0x0 DUP2 SWAP1 POP SWAP2 SWAP1 POP JUMP JUMPDEST PUSH1 0x0 PUSH2 0x167D PUSH2 0x1678 PUSH2 0x1673 DUP5 PUSH2 0xF15 JUMP JUMPDEST PUSH2 0x1658 JUMP JUMPDEST PUSH2 0xF15 JUMP JUMPDEST SWAP1 POP SWAP2 SWAP1 POP JUMP JUMPDEST PUSH1 0x0 DUP2 SWAP1 POP SWAP2 SWAP1 POP JUMP JUMPDEST PUSH2 0x1697 DUP4 PUSH2 0x1662 JUMP JUMPDEST PUSH2 0x16AB PUSH2 0x16A3 DUP3 PUSH2 0x1684 JUMP JUMPDEST DUP5 DUP5 SLOAD PUSH2 0x1606 JUMP JUMPDEST DUP3 SSTORE POP POP POP POP JUMP JUMPDEST PUSH1 0x0 SWAP1 JUMP JUMPDEST PUSH2 0x16C0 PUSH2 0x16B3 JUMP JUMPDEST PUSH2 0x16CB DUP2 DUP5 DUP5 PUSH2 0x168E JUMP JUMPDEST POP POP POP JUMP JUMPDEST JUMPDEST DUP2 DUP2 LT ISZERO PUSH2 0x16EF JUMPI PUSH2 0x16E4 PUSH1 0x0 DUP3 PUSH2 0x16B8 JUMP JUMPDEST PUSH1 0x1 DUP2 ADD SWAP1 POP PUSH2 0x16D1 JUMP JUMPDEST POP POP JUMP JUMPDEST PUSH1 0x1F DUP3 GT ISZERO PUSH2 0x1734 JUMPI PUSH2 0x1705 DUP2 PUSH2 0x15D4 JUMP JUMPDEST PUSH2 0x170E DUP5 PUSH2 0x15E9 JUMP JUMPDEST DUP2 ADD PUSH1 0x20 DUP6 LT ISZERO PUSH2 0x171D JUMPI DUP2 SWAP1 POP JUMPDEST PUSH2 0x1731 PUSH2 0x1729 DUP6 PUSH2 0x15E9 JUMP JUMPDEST DUP4 ADD DUP3 PUSH2 0x16D0 JUMP JUMPDEST POP POP JUMPDEST POP POP POP JUMP JUMPDEST PUSH1 0x0 DUP3 DUP3 SHR SWAP1 POP SWAP3 SWAP2 POP POP JUMP JUMPDEST PUSH1 0x0 PUSH2 0x1757 PUSH1 0x0 NOT DUP5 PUSH1 0x8 MUL PUSH2 0x1739 JUMP JUMPDEST NOT DUP1 DUP4 AND SWAP2 POP POP SWAP3 SWAP2 POP POP JUMP JUMPDEST PUSH1 0x0 PUSH2 0x1770 DUP4 DUP4 PUSH2 0x1746 JUMP JUMPDEST SWAP2 POP DUP3 PUSH1 0x2 MUL DUP3 OR SWAP1 POP SWAP3 SWAP2 POP POP JUMP JUMPDEST PUSH2 0x1789 DUP3 PUSH2 0x13BC JUMP JUMPDEST PUSH8 0xFFFFFFFFFFFFFFFF DUP2 GT ISZERO PUSH2 0x17A2 JUMPI PUSH2 0x17A1 PUSH2 0x1067 JUMP JUMPDEST JUMPDEST PUSH2 0x17AC DUP3 SLOAD PUSH2 0x15A3 JUMP JUMPDEST PUSH2 0x17B7 DUP3 DUP3 DUP6 PUSH2 0x16F3 JUMP JUMPDEST PUSH1 0x0 PUSH1 0x20 SWAP1 POP PUSH1 0x1F DUP4 GT PUSH1 0x1 DUP2 EQ PUSH2 0x17EA JUMPI PUSH1 0x0 DUP5 ISZERO PUSH2 0x17D8 JUMPI DUP3 DUP8 ADD MLOAD SWAP1 POP JUMPDEST PUSH2 0x17E2 DUP6 DUP3 PUSH2 0x1764 JUMP JUMPDEST DUP7 SSTORE POP PUSH2 0x184A JUMP JUMPDEST PUSH1 0x1F NOT DUP5 AND PUSH2 0x17F8 DUP7 PUSH2 0x15D4 JUMP JUMPDEST PUSH1 0x0 JUMPDEST DUP3 DUP2 LT ISZERO PUSH2 0x1820 JUMPI DUP5 DUP10 ADD MLOAD DUP3 SSTORE PUSH1 0x1 DUP3 ADD SWAP2 POP PUSH1 0x20 DUP6 ADD SWAP5 POP PUSH1 0x20 DUP2 ADD SWAP1 POP PUSH2 0x17FB JUMP JUMPDEST DUP7 DUP4 LT ISZERO PUSH2 0x183D JUMPI DUP5 DUP10 ADD MLOAD PUSH2 0x1839 PUSH1 0x1F DUP10 AND DUP3 PUSH2 0x1746 JUMP JUMPDEST DUP4 SSTORE POP JUMPDEST PUSH1 0x1 PUSH1 0x2 DUP9 MUL ADD DUP9 SSTORE POP POP POP JUMPDEST POP POP POP POP POP POP JUMP JUMPDEST PUSH32 0x4E487B7100000000000000000000000000000000000000000000000000000000 PUSH1 0x0 MSTORE PUSH1 0x32 PUSH1 0x4 MSTORE PUSH1 0x24 PUSH1 0x0 REVERT JUMPDEST PUSH1 0x0 DUP2 SWAP1 POP SWAP3 SWAP2 POP POP JUMP JUMPDEST PUSH1 0x0 DUP2 SWAP1 POP DUP2 PUSH1 0x0 MSTORE PUSH1 0x20 PUSH1 0x0 KECCAK256 SWAP1 POP SWAP2 SWAP1 POP JUMP JUMPDEST PUSH1 0x0 DUP2 SLOAD PUSH2 0x18AE DUP2 PUSH2 0x15A3 JUMP JUMPDEST PUSH2 0x18B8 DUP2 DUP7 PUSH2 0x1881 JUMP JUMPDEST SWAP5 POP PUSH1 0x1 DUP3 AND PUSH1 0x0 DUP2 EQ PUSH2 0x18D3 JUMPI PUSH1 0x1 DUP2 EQ PUSH2 0x18E8 JUMPI PUSH2 0x191B JUMP JUMPDEST PUSH1 0xFF NOT DUP4 AND DUP7 MSTORE DUP2 ISZERO ISZERO DUP3 MUL DUP7 ADD SWAP4 POP PUSH2 0x191B JUMP JUMPDEST PUSH2 0x18F1 DUP6 PUSH2 0x188C JUMP JUMPDEST PUSH1 0x0 JUMPDEST DUP4 DUP2 LT ISZERO PUSH2 0x1913 JUMPI DUP2 SLOAD DUP2 DUP10 ADD MSTORE PUSH1 0x1 DUP3 ADD SWAP2 POP PUSH1 0x20 DUP2 ADD SWAP1 POP PUSH2 0x18F4 JUMP JUMPDEST DUP4 DUP9 ADD SWAP6 POP POP POP JUMPDEST POP POP POP SWAP3 SWAP2 POP POP JUMP JUMPDEST PUSH1 0x0 PUSH2 0x1930 DUP3 DUP5 PUSH2 0x18A1 JUMP JUMPDEST SWAP2 POP DUP2 SWAP1 POP SWAP3 SWAP2 POP POP JUMP JUMPDEST PUSH1 0x0 DUP2 SLOAD PUSH2 0x1948 DUP2 PUSH2 0x15A3 JUMP JUMPDEST PUSH2 0x1952 DUP2 DUP7 PUSH2 0x1881 JUMP JUMPDEST SWAP5 POP PUSH1 0x1 DUP3 AND PUSH1 0x0 DUP2 EQ PUSH2 0x196D JUMPI PUSH1 0x1 DUP2 EQ PUSH2 0x1982 JUMPI PUSH2 0x19B5 JUMP JUMPDEST PUSH1 0xFF NOT DUP4 AND DUP7 MSTORE DUP2 ISZERO ISZERO DUP3 MUL DUP7 ADD SWAP4 POP PUSH2 0x19B5 JUMP JUMPDEST PUSH2 0x198B DUP6 PUSH2 0x15D4 JUMP JUMPDEST PUSH1 0x0 JUMPDEST DUP4 DUP2 LT ISZERO PUSH2 0x19AD JUMPI DUP2 SLOAD DUP2 DUP10 ADD MSTORE PUSH1 0x1 DUP3 ADD SWAP2 POP PUSH1 0x20 DUP2 ADD SWAP1 POP PUSH2 0x198E JUMP JUMPDEST DUP4 DUP9 ADD SWAP6 POP POP POP JUMPDEST POP POP POP SWAP3 SWAP2 POP POP JUMP JUMPDEST PUSH1 0x0 PUSH2 0x19CA DUP3 DUP5 PUSH2 0x193B JUMP JUMPDEST SWAP2 POP DUP2 SWAP1 POP SWAP3 SWAP2 POP POP JUMP JUMPDEST PUSH1 0x0 DUP3 DUP3 MSTORE PUSH1 0x20 DUP3 ADD SWAP1 POP SWAP3 SWAP2 POP POP JUMP JUMPDEST PUSH32 0x747278206661696C656400000000000000000000000000000000000000000000 PUSH1 0x0 DUP3 ADD MSTORE POP JUMP JUMPDEST PUSH1 0x0 PUSH2 0x1A1C PUSH1 0xA DUP4 PUSH2 0x19D5 JUMP JUMPDEST SWAP2 POP PUSH2 0x1A27 DUP3 PUSH2 0x19E6 JUMP JUMPDEST PUSH1 0x20 DUP3 ADD SWAP1 POP SWAP2 SWAP1 POP JUMP JUMPDEST PUSH1 0x0 PUSH1 0x20 DUP3 ADD SWAP1 POP DUP2 DUP2 SUB PUSH1 0x0 DUP4 ADD MSTORE PUSH2 0x1A4B DUP2 PUSH2 0x1A0F JUMP JUMPDEST SWAP1 POP SWAP2 SWAP1 POP JUMP JUMPDEST PUSH32 0x4E487B7100000000000000000000000000000000000000000000000000000000 PUSH1 0x0 MSTORE PUSH1 0x11 PUSH1 0x4 MSTORE PUSH1 0x24 PUSH1 0x0 REVERT JUMPDEST PUSH1 0x0 PUSH2 0x1A8C DUP3 PUSH2 0xF15 JUMP JUMPDEST SWAP2 POP PUSH32 0xFFFFFFFFFFFFFFFFFFFFFFFFFFFFFFFFFFFFFFFFFFFFFFFFFFFFFFFFFFFFFFFF DUP3 SUB PUSH2 0x1ABE JUMPI PUSH2 0x1ABD PUSH2 0x1A52 JUMP JUMPDEST JUMPDEST PUSH1 0x1 DUP3 ADD SWAP1 POP SWAP2 SWAP1 POP JUMP INVALID LOG2 PUSH5 0x6970667358 0x22 SLT KECCAK256 ADDRESS 0xD3 0xE4 MULMOD 0xFC PUSH24 0x6F95FD19E7EBF6D8C7E6D1FFDB093923823BC6D3196C32A5 SWAP10 EXTCODECOPY PUSH5 0x736F6C6343 STOP ADDMOD LT STOP CALLER "
				},
				"gasEstimates": {
					"creation": {
						"codeDepositCost": "1382200",
						"executionCost": "infinite",
						"totalCost": "infinite"
					},
					"external": {
						"confirmtransactions(uint256)": "infinite",
						"executetransaction(uint256,string)": "infinite",
						"gettransaction(uint256)": "infinite",
						"isconfirmed(uint256,address)": "3087",
						"isowner(address)": "2912",
						"ncr()": "2451",
						"owners(uint256)": "4957",
						"revokecanfirmation(uint256)": "infinite",
						"submittransactions(address,uint256,bytes)": "infinite",
						"transactions(uint256)": "infinite"
					}
				},
				"methodIdentifiers": {
					"confirmtransactions(uint256)": "9fe8ed9b",
					"executetransaction(uint256,string)": "0a147bc1",
					"gettransaction(uint256)": "96431ac1",
					"isconfirmed(uint256,address)": "4c9c7af3",
					"isowner(address)": "45c9711f",
					"ncr()": "738dbfa6",
					"owners(uint256)": "025e7c27",
					"revokecanfirmation(uint256)": "4632952c",
					"submittransactions(address,uint256,bytes)": "05cbf344",
					"transactions(uint256)": "9ace38c2"
				}
			},
			"storageLayout": {
				"storage": [
					{
						"astId": 227,
						"contract": "msw/msw1.sol:msw",
						"label": "owners",
						"offset": 0,
						"slot": "0",
						"type": "t_array(t_address)dyn_storage"
					},
					{
						"astId": 231,
						"contract": "msw/msw1.sol:msw",
						"label": "isowner",
						"offset": 0,
						"slot": "1",
						"type": "t_mapping(t_address,t_bool)"
					},
					{
						"astId": 233,
						"contract": "msw/msw1.sol:msw",
						"label": "ncr",
						"offset": 0,
						"slot": "2",
						"type": "t_uint256"
					},
					{
						"astId": 235,
						"contract": "msw/msw1.sol:msw",
						"label": "password",
						"offset": 0,
						"slot": "3",
						"type": "t_string_storage"
					},
					{
						"astId": 259,
						"contract": "msw/msw1.sol:msw",
						"label": "isconfirmed",
						"offset": 0,
						"slot": "4",
						"type": "t_mapping(t_uint256,t_mapping(t_address,t_bool))"
					},
					{
						"astId": 263,
						"contract": "msw/msw1.sol:msw",
						"label": "transactions",
						"offset": 0,
						"slot": "5",
						"type": "t_array(t_struct(transaction)253_storage)dyn_storage"
					}
				],
				"types": {
					"t_address": {
						"encoding": "inplace",
						"label": "address",
						"numberOfBytes": "20"
					},
					"t_array(t_address)dyn_storage": {
						"base": "t_address",
						"encoding": "dynamic_array",
						"label": "address[]",
						"numberOfBytes": "32"
					},
					"t_array(t_struct(transaction)253_storage)dyn_storage": {
						"base": "t_struct(transaction)253_storage",
						"encoding": "dynamic_array",
						"label": "struct msw.transaction[]",
						"numberOfBytes": "32"
					},
					"t_bool": {
						"encoding": "inplace",
						"label": "bool",
						"numberOfBytes": "1"
					},
					"t_bytes_storage": {
						"encoding": "bytes",
						"label": "bytes",
						"numberOfBytes": "32"
					},
					"t_enum(status)239": {
						"encoding": "inplace",
						"label": "enum msw.status",
						"numberOfBytes": "1"
					},
					"t_mapping(t_address,t_bool)": {
						"encoding": "mapping",
						"key": "t_address",
						"label": "mapping(address => bool)",
						"numberOfBytes": "32",
						"value": "t_bool"
					},
					"t_mapping(t_uint256,t_mapping(t_address,t_bool))": {
						"encoding": "mapping",
						"key": "t_uint256",
						"label": "mapping(uint256 => mapping(address => bool))",
						"numberOfBytes": "32",
						"value": "t_mapping(t_address,t_bool)"
					},
					"t_string_storage": {
						"encoding": "bytes",
						"label": "string",
						"numberOfBytes": "32"
					},
					"t_struct(transaction)253_storage": {
						"encoding": "inplace",
						"label": "struct msw.transaction",
						"members": [
							{
								"astId": 241,
								"contract": "msw/msw1.sol:msw",
								"label": "to",
								"offset": 0,
								"slot": "0",
								"type": "t_address"
							},
							{
								"astId": 243,
								"contract": "msw/msw1.sol:msw",
								"label": "value",
								"offset": 0,
								"slot": "1",
								"type": "t_uint256"
							},
							{
								"astId": 245,
								"contract": "msw/msw1.sol:msw",
								"label": "data",
								"offset": 0,
								"slot": "2",
								"type": "t_bytes_storage"
							},
							{
								"astId": 247,
								"contract": "msw/msw1.sol:msw",
								"label": "Executed",
								"offset": 0,
								"slot": "3",
								"type": "t_bool"
							},
							{
								"astId": 249,
								"contract": "msw/msw1.sol:msw",
								"label": "nc",
								"offset": 0,
								"slot": "4",
								"type": "t_uint256"
							},
							{
								"astId": 252,
								"contract": "msw/msw1.sol:msw",
								"label": "st",
								"offset": 0,
								"slot": "5",
								"type": "t_enum(status)239"
							}
						],
						"numberOfBytes": "192"
					},
					"t_uint256": {
						"encoding": "inplace",
						"label": "uint256",
						"numberOfBytes": "32"
					}
				}
			},
			"userdoc": {
				"kind": "user",
				"methods": {},
				"version": 1
			}
		}
	}
}