{
	"https://github.com/metafy-social/web3-smart-contracts/blob/10ac898f2a6d9b094f2e08af5daa07887e640807/contracts/Misc/Vesting_Contract.sol#L37": {
		"Vesting": {
			"abi": [
				{
					"inputs": [
						{
							"internalType": "uint256",
							"name": "_cliff",
							"type": "uint256"
						},
						{
							"internalType": "uint256",
							"name": "_vesting_duration",
							"type": "uint256"
						},
						{
							"internalType": "address",
							"name": "_owner",
							"type": "address"
						},
						{
							"internalType": "uint256",
							"name": "_vesting_cycles",
							"type": "uint256"
						}
					],
					"stateMutability": "nonpayable",
					"type": "constructor"
				},
				{
					"inputs": [
						{
							"internalType": "address",
							"name": "newReceiver",
							"type": "address"
						}
					],
					"name": "changeReceiver",
					"outputs": [],
					"stateMutability": "nonpayable",
					"type": "function"
				},
				{
					"inputs": [],
					"name": "claimTokens",
					"outputs": [],
					"stateMutability": "nonpayable",
					"type": "function"
				},
				{
					"inputs": [],
					"name": "cliff",
					"outputs": [
						{
							"internalType": "uint256",
							"name": "",
							"type": "uint256"
						}
					],
					"stateMutability": "view",
					"type": "function"
				},
				{
					"inputs": [
						{
							"internalType": "uint256",
							"name": "_tokens",
							"type": "uint256"
						}
					],
					"name": "fundContract",
					"outputs": [],
					"stateMutability": "nonpayable",
					"type": "function"
				},
				{
					"inputs": [],
					"name": "owner",
					"outputs": [
						{
							"internalType": "address",
							"name": "",
							"type": "address"
						}
					],
					"stateMutability": "view",
					"type": "function"
				},
				{
					"inputs": [],
					"name": "receiver",
					"outputs": [
						{
							"internalType": "address",
							"name": "",
							"type": "address"
						}
					],
					"stateMutability": "view",
					"type": "function"
				},
				{
					"inputs": [],
					"name": "start",
					"outputs": [
						{
							"internalType": "uint256",
							"name": "",
							"type": "uint256"
						}
					],
					"stateMutability": "view",
					"type": "function"
				},
				{
					"inputs": [],
					"name": "tokensClaimed",
					"outputs": [
						{
							"internalType": "uint256",
							"name": "",
							"type": "uint256"
						}
					],
					"stateMutability": "view",
					"type": "function"
				},
				{
					"inputs": [],
					"name": "totalTokens",
					"outputs": [
						{
							"internalType": "uint256",
							"name": "",
							"type": "uint256"
						}
					],
					"stateMutability": "view",
					"type": "function"
				},
				{
					"inputs": [],
					"name": "vesting_cycles",
					"outputs": [
						{
							"internalType": "uint256",
							"name": "",
							"type": "uint256"
						}
					],
					"stateMutability": "view",
					"type": "function"
				},
				{
					"inputs": [],
					"name": "vesting_duration",
					"outputs": [
						{
							"internalType": "uint256",
							"name": "",
							"type": "uint256"
						}
					],
					"stateMutability": "view",
					"type": "function"
				}
			],
			"devdoc": {
				"kind": "dev",
				"methods": {},
				"version": 1
			},
			"evm": {
				"assembly": "    /* \"https://github.com/metafy-social/web3-smart-contracts/blob/10ac898f2a6d9b094f2e08af5daa07887e640807/contracts/Misc/Vesting_Contract.sol#L37\":59:1985  contract Vesting{... */\n  mstore(0x40, 0x80)\n    /* \"https://github.com/metafy-social/web3-smart-contracts/blob/10ac898f2a6d9b094f2e08af5daa07887e640807/contracts/Misc/Vesting_Contract.sol#L37\":504:814  constructor(... */\n  callvalue\n  dup1\n  iszero\n  tag_1\n  jumpi\n  0x00\n  dup1\n  revert\ntag_1:\n  pop\n  mload(0x40)\n  sub(codesize, bytecodeSize)\n  dup1\n  bytecodeSize\n  dup4\n  codecopy\n  dup2\n  dup2\n  add\n  0x40\n  mstore\n  dup2\n  add\n  swap1\n  tag_2\n  swap2\n  swap1\n  tag_3\n  jump\t// in\ntag_2:\n    /* \"https://github.com/metafy-social/web3-smart-contracts/blob/10ac898f2a6d9b094f2e08af5daa07887e640807/contracts/Misc/Vesting_Contract.sol#L37\":627:637  msg.sender */\n  caller\n    /* \"https://github.com/metafy-social/web3-smart-contracts/blob/10ac898f2a6d9b094f2e08af5daa07887e640807/contracts/Misc/Vesting_Contract.sol#L37\":618:637  _owner = msg.sender */\n  swap2\n  pop\n    /* \"https://github.com/metafy-social/web3-smart-contracts/blob/10ac898f2a6d9b094f2e08af5daa07887e640807/contracts/Misc/Vesting_Contract.sol#L37\":655:661  _owner */\n  dup2\n    /* \"https://github.com/metafy-social/web3-smart-contracts/blob/10ac898f2a6d9b094f2e08af5daa07887e640807/contracts/Misc/Vesting_Contract.sol#L37\":647:652  owner */\n  0x06\n  0x00\n    /* \"https://github.com/metafy-social/web3-smart-contracts/blob/10ac898f2a6d9b094f2e08af5daa07887e640807/contracts/Misc/Vesting_Contract.sol#L37\":647:661  owner = _owner */\n  0x0100\n  exp\n  dup2\n  sload\n  dup2\n  0xffffffffffffffffffffffffffffffffffffffff\n  mul\n  not\n  and\n  swap1\n  dup4\n  0xffffffffffffffffffffffffffffffffffffffff\n  and\n  mul\n  or\n  swap1\n  sstore\n  pop\n    /* \"https://github.com/metafy-social/web3-smart-contracts/blob/10ac898f2a6d9b094f2e08af5daa07887e640807/contracts/Misc/Vesting_Contract.sol#L37\":690:707  _vesting_duration */\n  dup3\n    /* \"https://github.com/metafy-social/web3-smart-contracts/blob/10ac898f2a6d9b094f2e08af5daa07887e640807/contracts/Misc/Vesting_Contract.sol#L37\":671:687  vesting_duration */\n  0x02\n    /* \"https://github.com/metafy-social/web3-smart-contracts/blob/10ac898f2a6d9b094f2e08af5daa07887e640807/contracts/Misc/Vesting_Contract.sol#L37\":671:707  vesting_duration = _vesting_duration */\n  dup2\n  swap1\n  sstore\n  pop\n    /* \"https://github.com/metafy-social/web3-smart-contracts/blob/10ac898f2a6d9b094f2e08af5daa07887e640807/contracts/Misc/Vesting_Contract.sol#L37\":725:731  _cliff */\n  dup4\n    /* \"https://github.com/metafy-social/web3-smart-contracts/blob/10ac898f2a6d9b094f2e08af5daa07887e640807/contracts/Misc/Vesting_Contract.sol#L37\":717:722  cliff */\n  0x00\n    /* \"https://github.com/metafy-social/web3-smart-contracts/blob/10ac898f2a6d9b094f2e08af5daa07887e640807/contracts/Misc/Vesting_Contract.sol#L37\":717:731  cliff = _cliff */\n  dup2\n  swap1\n  sstore\n  pop\n    /* \"https://github.com/metafy-social/web3-smart-contracts/blob/10ac898f2a6d9b094f2e08af5daa07887e640807/contracts/Misc/Vesting_Contract.sol#L37\":749:764  block.timestamp */\n  timestamp\n    /* \"https://github.com/metafy-social/web3-smart-contracts/blob/10ac898f2a6d9b094f2e08af5daa07887e640807/contracts/Misc/Vesting_Contract.sol#L37\":741:746  start */\n  0x01\n    /* \"https://github.com/metafy-social/web3-smart-contracts/blob/10ac898f2a6d9b094f2e08af5daa07887e640807/contracts/Misc/Vesting_Contract.sol#L37\":741:764  start = block.timestamp */\n  dup2\n  swap1\n  sstore\n  pop\n    /* \"https://github.com/metafy-social/web3-smart-contracts/blob/10ac898f2a6d9b094f2e08af5daa07887e640807/contracts/Misc/Vesting_Contract.sol#L37\":791:806  _vesting_cycles */\n  dup1\n    /* \"https://github.com/metafy-social/web3-smart-contracts/blob/10ac898f2a6d9b094f2e08af5daa07887e640807/contracts/Misc/Vesting_Contract.sol#L37\":774:788  vesting_cycles */\n  0x03\n    /* \"https://github.com/metafy-social/web3-smart-contracts/blob/10ac898f2a6d9b094f2e08af5daa07887e640807/contracts/Misc/Vesting_Contract.sol#L37\":774:806  vesting_cycles = _vesting_cycles */\n  dup2\n  swap1\n  sstore\n  pop\n    /* \"https://github.com/metafy-social/web3-smart-contracts/blob/10ac898f2a6d9b094f2e08af5daa07887e640807/contracts/Misc/Vesting_Contract.sol#L37\":504:814  constructor(... */\n  pop\n  pop\n  pop\n  pop\n    /* \"https://github.com/metafy-social/web3-smart-contracts/blob/10ac898f2a6d9b094f2e08af5daa07887e640807/contracts/Misc/Vesting_Contract.sol#L37\":59:1985  contract Vesting{... */\n  jump(tag_6)\n    /* \"#utility.yul\":88:205   */\ntag_8:\n    /* \"#utility.yul\":197:198   */\n  0x00\n    /* \"#utility.yul\":194:195   */\n  dup1\n    /* \"#utility.yul\":187:199   */\n  revert\n    /* \"#utility.yul\":334:411   */\ntag_10:\n    /* \"#utility.yul\":371:378   */\n  0x00\n    /* \"#utility.yul\":400:405   */\n  dup2\n    /* \"#utility.yul\":389:405   */\n  swap1\n  pop\n    /* \"#utility.yul\":334:411   */\n  swap2\n  swap1\n  pop\n  jump\t// out\n    /* \"#utility.yul\":417:539   */\ntag_11:\n    /* \"#utility.yul\":490:514   */\n  tag_23\n    /* \"#utility.yul\":508:513   */\n  dup2\n    /* \"#utility.yul\":490:514   */\n  tag_10\n  jump\t// in\ntag_23:\n    /* \"#utility.yul\":483:488   */\n  dup2\n    /* \"#utility.yul\":480:515   */\n  eq\n    /* \"#utility.yul\":470:533   */\n  tag_24\n  jumpi\n    /* \"#utility.yul\":529:530   */\n  0x00\n    /* \"#utility.yul\":526:527   */\n  dup1\n    /* \"#utility.yul\":519:531   */\n  revert\n    /* \"#utility.yul\":470:533   */\ntag_24:\n    /* \"#utility.yul\":417:539   */\n  pop\n  jump\t// out\n    /* \"#utility.yul\":545:688   */\ntag_12:\n    /* \"#utility.yul\":602:607   */\n  0x00\n    /* \"#utility.yul\":633:639   */\n  dup2\n    /* \"#utility.yul\":627:640   */\n  mload\n    /* \"#utility.yul\":618:640   */\n  swap1\n  pop\n    /* \"#utility.yul\":649:682   */\n  tag_26\n    /* \"#utility.yul\":676:681   */\n  dup2\n    /* \"#utility.yul\":649:682   */\n  tag_11\n  jump\t// in\ntag_26:\n    /* \"#utility.yul\":545:688   */\n  swap3\n  swap2\n  pop\n  pop\n  jump\t// out\n    /* \"#utility.yul\":694:820   */\ntag_13:\n    /* \"#utility.yul\":731:738   */\n  0x00\n    /* \"#utility.yul\":771:813   */\n  0xffffffffffffffffffffffffffffffffffffffff\n    /* \"#utility.yul\":764:769   */\n  dup3\n    /* \"#utility.yul\":760:814   */\n  and\n    /* \"#utility.yul\":749:814   */\n  swap1\n  pop\n    /* \"#utility.yul\":694:820   */\n  swap2\n  swap1\n  pop\n  jump\t// out\n    /* \"#utility.yul\":826:922   */\ntag_14:\n    /* \"#utility.yul\":863:870   */\n  0x00\n    /* \"#utility.yul\":892:916   */\n  tag_29\n    /* \"#utility.yul\":910:915   */\n  dup3\n    /* \"#utility.yul\":892:916   */\n  tag_13\n  jump\t// in\ntag_29:\n    /* \"#utility.yul\":881:916   */\n  swap1\n  pop\n    /* \"#utility.yul\":826:922   */\n  swap2\n  swap1\n  pop\n  jump\t// out\n    /* \"#utility.yul\":928:1050   */\ntag_15:\n    /* \"#utility.yul\":1001:1025   */\n  tag_31\n    /* \"#utility.yul\":1019:1024   */\n  dup2\n    /* \"#utility.yul\":1001:1025   */\n  tag_14\n  jump\t// in\ntag_31:\n    /* \"#utility.yul\":994:999   */\n  dup2\n    /* \"#utility.yul\":991:1026   */\n  eq\n    /* \"#utility.yul\":981:1044   */\n  tag_32\n  jumpi\n    /* \"#utility.yul\":1040:1041   */\n  0x00\n    /* \"#utility.yul\":1037:1038   */\n  dup1\n    /* \"#utility.yul\":1030:1042   */\n  revert\n    /* \"#utility.yul\":981:1044   */\ntag_32:\n    /* \"#utility.yul\":928:1050   */\n  pop\n  jump\t// out\n    /* \"#utility.yul\":1056:1199   */\ntag_16:\n    /* \"#utility.yul\":1113:1118   */\n  0x00\n    /* \"#utility.yul\":1144:1150   */\n  dup2\n    /* \"#utility.yul\":1138:1151   */\n  mload\n    /* \"#utility.yul\":1129:1151   */\n  swap1\n  pop\n    /* \"#utility.yul\":1160:1193   */\n  tag_34\n    /* \"#utility.yul\":1187:1192   */\n  dup2\n    /* \"#utility.yul\":1160:1193   */\n  tag_15\n  jump\t// in\ntag_34:\n    /* \"#utility.yul\":1056:1199   */\n  swap3\n  swap2\n  pop\n  pop\n  jump\t// out\n    /* \"#utility.yul\":1205:2025   */\ntag_3:\n    /* \"#utility.yul\":1302:1308   */\n  0x00\n    /* \"#utility.yul\":1310:1316   */\n  dup1\n    /* \"#utility.yul\":1318:1324   */\n  0x00\n    /* \"#utility.yul\":1326:1332   */\n  dup1\n    /* \"#utility.yul\":1375:1378   */\n  0x80\n    /* \"#utility.yul\":1363:1372   */\n  dup6\n    /* \"#utility.yul\":1354:1361   */\n  dup8\n    /* \"#utility.yul\":1350:1373   */\n  sub\n    /* \"#utility.yul\":1346:1379   */\n  slt\n    /* \"#utility.yul\":1343:1463   */\n  iszero\n  tag_36\n  jumpi\n    /* \"#utility.yul\":1382:1461   */\n  tag_37\n  tag_8\n  jump\t// in\ntag_37:\n    /* \"#utility.yul\":1343:1463   */\ntag_36:\n    /* \"#utility.yul\":1502:1503   */\n  0x00\n    /* \"#utility.yul\":1527:1591   */\n  tag_38\n    /* \"#utility.yul\":1583:1590   */\n  dup8\n    /* \"#utility.yul\":1574:1580   */\n  dup3\n    /* \"#utility.yul\":1563:1572   */\n  dup9\n    /* \"#utility.yul\":1559:1581   */\n  add\n    /* \"#utility.yul\":1527:1591   */\n  tag_12\n  jump\t// in\ntag_38:\n    /* \"#utility.yul\":1517:1591   */\n  swap5\n  pop\n    /* \"#utility.yul\":1473:1601   */\n  pop\n    /* \"#utility.yul\":1640:1642   */\n  0x20\n    /* \"#utility.yul\":1666:1730   */\n  tag_39\n    /* \"#utility.yul\":1722:1729   */\n  dup8\n    /* \"#utility.yul\":1713:1719   */\n  dup3\n    /* \"#utility.yul\":1702:1711   */\n  dup9\n    /* \"#utility.yul\":1698:1720   */\n  add\n    /* \"#utility.yul\":1666:1730   */\n  tag_12\n  jump\t// in\ntag_39:\n    /* \"#utility.yul\":1656:1730   */\n  swap4\n  pop\n    /* \"#utility.yul\":1611:1740   */\n  pop\n    /* \"#utility.yul\":1779:1781   */\n  0x40\n    /* \"#utility.yul\":1805:1869   */\n  tag_40\n    /* \"#utility.yul\":1861:1868   */\n  dup8\n    /* \"#utility.yul\":1852:1858   */\n  dup3\n    /* \"#utility.yul\":1841:1850   */\n  dup9\n    /* \"#utility.yul\":1837:1859   */\n  add\n    /* \"#utility.yul\":1805:1869   */\n  tag_16\n  jump\t// in\ntag_40:\n    /* \"#utility.yul\":1795:1869   */\n  swap3\n  pop\n    /* \"#utility.yul\":1750:1879   */\n  pop\n    /* \"#utility.yul\":1918:1920   */\n  0x60\n    /* \"#utility.yul\":1944:2008   */\n  tag_41\n    /* \"#utility.yul\":2000:2007   */\n  dup8\n    /* \"#utility.yul\":1991:1997   */\n  dup3\n    /* \"#utility.yul\":1980:1989   */\n  dup9\n    /* \"#utility.yul\":1976:1998   */\n  add\n    /* \"#utility.yul\":1944:2008   */\n  tag_12\n  jump\t// in\ntag_41:\n    /* \"#utility.yul\":1934:2008   */\n  swap2\n  pop\n    /* \"#utility.yul\":1889:2018   */\n  pop\n    /* \"#utility.yul\":1205:2025   */\n  swap3\n  swap6\n  swap2\n  swap5\n  pop\n  swap3\n  pop\n  jump\t// out\n    /* \"https://github.com/metafy-social/web3-smart-contracts/blob/10ac898f2a6d9b094f2e08af5daa07887e640807/contracts/Misc/Vesting_Contract.sol#L37\":59:1985  contract Vesting{... */\ntag_6:\n  dataSize(sub_0)\n  dup1\n  dataOffset(sub_0)\n  0x00\n  codecopy\n  0x00\n  return\nstop\n\nsub_0: assembly {\n        /* \"https://github.com/metafy-social/web3-smart-contracts/blob/10ac898f2a6d9b094f2e08af5daa07887e640807/contracts/Misc/Vesting_Contract.sol#L37\":59:1985  contract Vesting{... */\n      mstore(0x40, 0x80)\n      callvalue\n      dup1\n      iszero\n      tag_1\n      jumpi\n      0x00\n      dup1\n      revert\n    tag_1:\n      pop\n      jumpi(tag_2, lt(calldatasize, 0x04))\n      shr(0xe0, calldataload(0x00))\n      dup1\n      0x777ce7a9\n      gt\n      tag_14\n      jumpi\n      dup1\n      0x777ce7a9\n      eq\n      tag_8\n      jumpi\n      dup1\n      0x7e1c0c09\n      eq\n      tag_9\n      jumpi\n      dup1\n      0x8da5cb5b\n      eq\n      tag_10\n      jumpi\n      dup1\n      0xb44df72d\n      eq\n      tag_11\n      jumpi\n      dup1\n      0xbe9a6555\n      eq\n      tag_12\n      jumpi\n      dup1\n      0xf7260d3e\n      eq\n      tag_13\n      jumpi\n      jump(tag_2)\n    tag_14:\n      dup1\n      0x13d033c0\n      eq\n      tag_3\n      jumpi\n      dup1\n      0x309bd527\n      eq\n      tag_4\n      jumpi\n      dup1\n      0x3519a2f8\n      eq\n      tag_5\n      jumpi\n      dup1\n      0x48c54b9d\n      eq\n      tag_6\n      jumpi\n      dup1\n      0x547e3f06\n      eq\n      tag_7\n      jumpi\n    tag_2:\n      0x00\n      dup1\n      revert\n        /* \"https://github.com/metafy-social/web3-smart-contracts/blob/10ac898f2a6d9b094f2e08af5daa07887e640807/contracts/Misc/Vesting_Contract.sol#L37\":109:126  uint public cliff */\n    tag_3:\n      tag_15\n      tag_16\n      jump\t// in\n    tag_15:\n      mload(0x40)\n      tag_17\n      swap2\n      swap1\n      tag_18\n      jump\t// in\n    tag_17:\n      mload(0x40)\n      dup1\n      swap2\n      sub\n      swap1\n      return\n        /* \"https://github.com/metafy-social/web3-smart-contracts/blob/10ac898f2a6d9b094f2e08af5daa07887e640807/contracts/Misc/Vesting_Contract.sol#L37\":221:249  uint public vesting_duration */\n    tag_4:\n      tag_19\n      tag_20\n      jump\t// in\n    tag_19:\n      mload(0x40)\n      tag_21\n      swap2\n      swap1\n      tag_18\n      jump\t// in\n    tag_21:\n      mload(0x40)\n      dup1\n      swap2\n      sub\n      swap1\n      return\n        /* \"https://github.com/metafy-social/web3-smart-contracts/blob/10ac898f2a6d9b094f2e08af5daa07887e640807/contracts/Misc/Vesting_Contract.sol#L37\":875:1086  function fundContract(uint _tokens) public {... */\n    tag_5:\n      tag_22\n      0x04\n      dup1\n      calldatasize\n      sub\n      dup2\n      add\n      swap1\n      tag_23\n      swap2\n      swap1\n      tag_24\n      jump\t// in\n    tag_23:\n      tag_25\n      jump\t// in\n    tag_22:\n      stop\n        /* \"https://github.com/metafy-social/web3-smart-contracts/blob/10ac898f2a6d9b094f2e08af5daa07887e640807/contracts/Misc/Vesting_Contract.sol#L37\":1171:1683  function claimTokens()  public {... */\n    tag_6:\n      tag_26\n      tag_27\n      jump\t// in\n    tag_26:\n      stop\n        /* \"https://github.com/metafy-social/web3-smart-contracts/blob/10ac898f2a6d9b094f2e08af5daa07887e640807/contracts/Misc/Vesting_Contract.sol#L37\":1763:1982  function changeReceiver(address newReceiver)  public{... */\n    tag_7:\n      tag_28\n      0x04\n      dup1\n      calldatasize\n      sub\n      dup2\n      add\n      swap1\n      tag_29\n      swap2\n      swap1\n      tag_30\n      jump\t// in\n    tag_29:\n      tag_31\n      jump\t// in\n    tag_28:\n      stop\n        /* \"https://github.com/metafy-social/web3-smart-contracts/blob/10ac898f2a6d9b094f2e08af5daa07887e640807/contracts/Misc/Vesting_Contract.sol#L37\":305:331  uint public vesting_cycles */\n    tag_8:\n      tag_32\n      tag_33\n      jump\t// in\n    tag_32:\n      mload(0x40)\n      tag_34\n      swap2\n      swap1\n      tag_18\n      jump\t// in\n    tag_34:\n      mload(0x40)\n      dup1\n      swap2\n      sub\n      swap1\n      return\n        /* \"https://github.com/metafy-social/web3-smart-contracts/blob/10ac898f2a6d9b094f2e08af5daa07887e640807/contracts/Misc/Vesting_Contract.sol#L37\":365:388  uint public totalTokens */\n    tag_9:\n      tag_35\n      tag_36\n      jump\t// in\n    tag_35:\n      mload(0x40)\n      tag_37\n      swap2\n      swap1\n      tag_18\n      jump\t// in\n    tag_37:\n      mload(0x40)\n      dup1\n      swap2\n      sub\n      swap1\n      return\n        /* \"https://github.com/metafy-social/web3-smart-contracts/blob/10ac898f2a6d9b094f2e08af5daa07887e640807/contracts/Misc/Vesting_Contract.sol#L37\":425:445  address public owner */\n    tag_10:\n      tag_38\n      tag_39\n      jump\t// in\n    tag_38:\n      mload(0x40)\n      tag_40\n      swap2\n      swap1\n      tag_41\n      jump\t// in\n    tag_40:\n      mload(0x40)\n      dup1\n      swap2\n      sub\n      swap1\n      return\n        /* \"https://github.com/metafy-social/web3-smart-contracts/blob/10ac898f2a6d9b094f2e08af5daa07887e640807/contracts/Misc/Vesting_Contract.sol#L37\":394:419  uint public tokensClaimed */\n    tag_11:\n      tag_42\n      tag_43\n      jump\t// in\n    tag_42:\n      mload(0x40)\n      tag_44\n      swap2\n      swap1\n      tag_18\n      jump\t// in\n    tag_44:\n      mload(0x40)\n      dup1\n      swap2\n      sub\n      swap1\n      return\n        /* \"https://github.com/metafy-social/web3-smart-contracts/blob/10ac898f2a6d9b094f2e08af5daa07887e640807/contracts/Misc/Vesting_Contract.sol#L37\":170:187  uint public start */\n    tag_12:\n      tag_45\n      tag_46\n      jump\t// in\n    tag_45:\n      mload(0x40)\n      tag_47\n      swap2\n      swap1\n      tag_18\n      jump\t// in\n    tag_47:\n      mload(0x40)\n      dup1\n      swap2\n      sub\n      swap1\n      return\n        /* \"https://github.com/metafy-social/web3-smart-contracts/blob/10ac898f2a6d9b094f2e08af5daa07887e640807/contracts/Misc/Vesting_Contract.sol#L37\":473:496  address public receiver */\n    tag_13:\n      tag_48\n      tag_49\n      jump\t// in\n    tag_48:\n      mload(0x40)\n      tag_50\n      swap2\n      swap1\n      tag_41\n      jump\t// in\n    tag_50:\n      mload(0x40)\n      dup1\n      swap2\n      sub\n      swap1\n      return\n        /* \"https://github.com/metafy-social/web3-smart-contracts/blob/10ac898f2a6d9b094f2e08af5daa07887e640807/contracts/Misc/Vesting_Contract.sol#L37\":109:126  uint public cliff */\n    tag_16:\n      sload(0x00)\n      dup2\n      jump\t// out\n        /* \"https://github.com/metafy-social/web3-smart-contracts/blob/10ac898f2a6d9b094f2e08af5daa07887e640807/contracts/Misc/Vesting_Contract.sol#L37\":221:249  uint public vesting_duration */\n    tag_20:\n      sload(0x02)\n      dup2\n      jump\t// out\n        /* \"https://github.com/metafy-social/web3-smart-contracts/blob/10ac898f2a6d9b094f2e08af5daa07887e640807/contracts/Misc/Vesting_Contract.sol#L37\":875:1086  function fundContract(uint _tokens) public {... */\n    tag_25:\n        /* \"https://github.com/metafy-social/web3-smart-contracts/blob/10ac898f2a6d9b094f2e08af5daa07887e640807/contracts/Misc/Vesting_Contract.sol#L37\":950:955  owner */\n      0x06\n      0x00\n      swap1\n      sload\n      swap1\n      0x0100\n      exp\n      swap1\n      div\n      0xffffffffffffffffffffffffffffffffffffffff\n      and\n        /* \"https://github.com/metafy-social/web3-smart-contracts/blob/10ac898f2a6d9b094f2e08af5daa07887e640807/contracts/Misc/Vesting_Contract.sol#L37\":936:955  msg.sender == owner */\n      0xffffffffffffffffffffffffffffffffffffffff\n      and\n        /* \"https://github.com/metafy-social/web3-smart-contracts/blob/10ac898f2a6d9b094f2e08af5daa07887e640807/contracts/Misc/Vesting_Contract.sol#L37\":936:946  msg.sender */\n      caller\n        /* \"https://github.com/metafy-social/web3-smart-contracts/blob/10ac898f2a6d9b094f2e08af5daa07887e640807/contracts/Misc/Vesting_Contract.sol#L37\":936:955  msg.sender == owner */\n      0xffffffffffffffffffffffffffffffffffffffff\n      and\n      eq\n        /* \"https://github.com/metafy-social/web3-smart-contracts/blob/10ac898f2a6d9b094f2e08af5daa07887e640807/contracts/Misc/Vesting_Contract.sol#L37\":928:983  require(msg.sender == owner, \"only owner can fund it.\") */\n      tag_52\n      jumpi\n      mload(0x40)\n      0x08c379a000000000000000000000000000000000000000000000000000000000\n      dup2\n      mstore\n      0x04\n      add\n      tag_53\n      swap1\n      tag_54\n      jump\t// in\n    tag_53:\n      mload(0x40)\n      dup1\n      swap2\n      sub\n      swap1\n      revert\n    tag_52:\n        /* \"https://github.com/metafy-social/web3-smart-contracts/blob/10ac898f2a6d9b094f2e08af5daa07887e640807/contracts/Misc/Vesting_Contract.sol#L37\":1007:1014  _tokens */\n      dup1\n        /* \"https://github.com/metafy-social/web3-smart-contracts/blob/10ac898f2a6d9b094f2e08af5daa07887e640807/contracts/Misc/Vesting_Contract.sol#L37\":993:1004  totalTokens */\n      0x04\n        /* \"https://github.com/metafy-social/web3-smart-contracts/blob/10ac898f2a6d9b094f2e08af5daa07887e640807/contracts/Misc/Vesting_Contract.sol#L37\":993:1014  totalTokens = _tokens */\n      dup2\n      swap1\n      sstore\n      pop\n        /* \"https://github.com/metafy-social/web3-smart-contracts/blob/10ac898f2a6d9b094f2e08af5daa07887e640807/contracts/Misc/Vesting_Contract.sol#L37\":875:1086  function fundContract(uint _tokens) public {... */\n      pop\n      jump\t// out\n        /* \"https://github.com/metafy-social/web3-smart-contracts/blob/10ac898f2a6d9b094f2e08af5daa07887e640807/contracts/Misc/Vesting_Contract.sol#L37\":1171:1683  function claimTokens()  public {... */\n    tag_27:\n        /* \"https://github.com/metafy-social/web3-smart-contracts/blob/10ac898f2a6d9b094f2e08af5daa07887e640807/contracts/Misc/Vesting_Contract.sol#L37\":1234:1239  owner */\n      0x06\n      0x00\n      swap1\n      sload\n      swap1\n      0x0100\n      exp\n      swap1\n      div\n      0xffffffffffffffffffffffffffffffffffffffff\n      and\n        /* \"https://github.com/metafy-social/web3-smart-contracts/blob/10ac898f2a6d9b094f2e08af5daa07887e640807/contracts/Misc/Vesting_Contract.sol#L37\":1220:1239  msg.sender != owner */\n      0xffffffffffffffffffffffffffffffffffffffff\n      and\n        /* \"https://github.com/metafy-social/web3-smart-contracts/blob/10ac898f2a6d9b094f2e08af5daa07887e640807/contracts/Misc/Vesting_Contract.sol#L37\":1220:1230  msg.sender */\n      caller\n        /* \"https://github.com/metafy-social/web3-smart-contracts/blob/10ac898f2a6d9b094f2e08af5daa07887e640807/contracts/Misc/Vesting_Contract.sol#L37\":1220:1239  msg.sender != owner */\n      0xffffffffffffffffffffffffffffffffffffffff\n      and\n      sub\n        /* \"https://github.com/metafy-social/web3-smart-contracts/blob/10ac898f2a6d9b094f2e08af5daa07887e640807/contracts/Misc/Vesting_Contract.sol#L37\":1212:1268  require(msg.sender != owner,\"owner cannot claim tokens\") */\n      tag_56\n      jumpi\n      mload(0x40)\n      0x08c379a000000000000000000000000000000000000000000000000000000000\n      dup2\n      mstore\n      0x04\n      add\n      tag_57\n      swap1\n      tag_58\n      jump\t// in\n    tag_57:\n      mload(0x40)\n      dup1\n      swap2\n      sub\n      swap1\n      revert\n    tag_56:\n        /* \"https://github.com/metafy-social/web3-smart-contracts/blob/10ac898f2a6d9b094f2e08af5daa07887e640807/contracts/Misc/Vesting_Contract.sol#L37\":1310:1315  cliff */\n      sload(0x00)\n        /* \"https://github.com/metafy-social/web3-smart-contracts/blob/10ac898f2a6d9b094f2e08af5daa07887e640807/contracts/Misc/Vesting_Contract.sol#L37\":1304:1309  start */\n      sload(0x01)\n        /* \"https://github.com/metafy-social/web3-smart-contracts/blob/10ac898f2a6d9b094f2e08af5daa07887e640807/contracts/Misc/Vesting_Contract.sol#L37\":1304:1315  start+cliff */\n      tag_59\n      swap2\n      swap1\n      tag_60\n      jump\t// in\n    tag_59:\n        /* \"https://github.com/metafy-social/web3-smart-contracts/blob/10ac898f2a6d9b094f2e08af5daa07887e640807/contracts/Misc/Vesting_Contract.sol#L37\":1286:1301  block.timestamp */\n      timestamp\n        /* \"https://github.com/metafy-social/web3-smart-contracts/blob/10ac898f2a6d9b094f2e08af5daa07887e640807/contracts/Misc/Vesting_Contract.sol#L37\":1286:1315  block.timestamp > start+cliff */\n      gt\n        /* \"https://github.com/metafy-social/web3-smart-contracts/blob/10ac898f2a6d9b094f2e08af5daa07887e640807/contracts/Misc/Vesting_Contract.sol#L37\":1278:1341  require(block.timestamp > start+cliff, \"Vesting hasnt started\") */\n      tag_61\n      jumpi\n      mload(0x40)\n      0x08c379a000000000000000000000000000000000000000000000000000000000\n      dup2\n      mstore\n      0x04\n      add\n      tag_62\n      swap1\n      tag_63\n      jump\t// in\n    tag_62:\n      mload(0x40)\n      dup1\n      swap2\n      sub\n      swap1\n      revert\n    tag_61:\n        /* \"https://github.com/metafy-social/web3-smart-contracts/blob/10ac898f2a6d9b094f2e08af5daa07887e640807/contracts/Misc/Vesting_Contract.sol#L37\":1373:1374  0 */\n      0x00\n        /* \"https://github.com/metafy-social/web3-smart-contracts/blob/10ac898f2a6d9b094f2e08af5daa07887e640807/contracts/Misc/Vesting_Contract.sol#L37\":1359:1370  totalTokens */\n      sload(0x04)\n        /* \"https://github.com/metafy-social/web3-smart-contracts/blob/10ac898f2a6d9b094f2e08af5daa07887e640807/contracts/Misc/Vesting_Contract.sol#L37\":1359:1374  totalTokens > 0 */\n      gt\n        /* \"https://github.com/metafy-social/web3-smart-contracts/blob/10ac898f2a6d9b094f2e08af5daa07887e640807/contracts/Misc/Vesting_Contract.sol#L37\":1351:1407  require(totalTokens > 0, \"Contract has not been funded\") */\n      tag_64\n      jumpi\n      mload(0x40)\n      0x08c379a000000000000000000000000000000000000000000000000000000000\n      dup2\n      mstore\n      0x04\n      add\n      tag_65\n      swap1\n      tag_66\n      jump\t// in\n    tag_65:\n      mload(0x40)\n      dup1\n      swap2\n      sub\n      swap1\n      revert\n    tag_64:\n        /* \"https://github.com/metafy-social/web3-smart-contracts/blob/10ac898f2a6d9b094f2e08af5daa07887e640807/contracts/Misc/Vesting_Contract.sol#L37\":1418:1431  uint time_now */\n      0x00\n        /* \"https://github.com/metafy-social/web3-smart-contracts/blob/10ac898f2a6d9b094f2e08af5daa07887e640807/contracts/Misc/Vesting_Contract.sol#L37\":1460:1465  cliff */\n      dup1\n      sload\n        /* \"https://github.com/metafy-social/web3-smart-contracts/blob/10ac898f2a6d9b094f2e08af5daa07887e640807/contracts/Misc/Vesting_Contract.sol#L37\":1454:1459  start */\n      sload(0x01)\n        /* \"https://github.com/metafy-social/web3-smart-contracts/blob/10ac898f2a6d9b094f2e08af5daa07887e640807/contracts/Misc/Vesting_Contract.sol#L37\":1454:1465  start+cliff */\n      tag_67\n      swap2\n      swap1\n      tag_60\n      jump\t// in\n    tag_67:\n        /* \"https://github.com/metafy-social/web3-smart-contracts/blob/10ac898f2a6d9b094f2e08af5daa07887e640807/contracts/Misc/Vesting_Contract.sol#L37\":1436:1451  block.timestamp */\n      timestamp\n        /* \"https://github.com/metafy-social/web3-smart-contracts/blob/10ac898f2a6d9b094f2e08af5daa07887e640807/contracts/Misc/Vesting_Contract.sol#L37\":1435:1466  (block.timestamp)-(start+cliff) */\n      tag_68\n      swap2\n      swap1\n      tag_69\n      jump\t// in\n    tag_68:\n        /* \"https://github.com/metafy-social/web3-smart-contracts/blob/10ac898f2a6d9b094f2e08af5daa07887e640807/contracts/Misc/Vesting_Contract.sol#L37\":1418:1467  uint time_now = ((block.timestamp)-(start+cliff)) */\n      swap1\n      pop\n        /* \"https://github.com/metafy-social/web3-smart-contracts/blob/10ac898f2a6d9b094f2e08af5daa07887e640807/contracts/Misc/Vesting_Contract.sol#L37\":1479:1497  uint token_pending */\n      0x00\n        /* \"https://github.com/metafy-social/web3-smart-contracts/blob/10ac898f2a6d9b094f2e08af5daa07887e640807/contracts/Misc/Vesting_Contract.sol#L37\":1556:1569  tokensClaimed */\n      sload(0x05)\n        /* \"https://github.com/metafy-social/web3-smart-contracts/blob/10ac898f2a6d9b094f2e08af5daa07887e640807/contracts/Misc/Vesting_Contract.sol#L37\":1540:1554  vesting_cycles */\n      sload(0x03)\n        /* \"https://github.com/metafy-social/web3-smart-contracts/blob/10ac898f2a6d9b094f2e08af5daa07887e640807/contracts/Misc/Vesting_Contract.sol#L37\":1531:1539  time_now */\n      dup4\n        /* \"https://github.com/metafy-social/web3-smart-contracts/blob/10ac898f2a6d9b094f2e08af5daa07887e640807/contracts/Misc/Vesting_Contract.sol#L37\":1531:1554  time_now/vesting_cycles */\n      tag_70\n      swap2\n      swap1\n      tag_71\n      jump\t// in\n    tag_70:\n        /* \"https://github.com/metafy-social/web3-smart-contracts/blob/10ac898f2a6d9b094f2e08af5daa07887e640807/contracts/Misc/Vesting_Contract.sol#L37\":1514:1528  vesting_cycles */\n      sload(0x03)\n        /* \"https://github.com/metafy-social/web3-smart-contracts/blob/10ac898f2a6d9b094f2e08af5daa07887e640807/contracts/Misc/Vesting_Contract.sol#L37\":1502:1513  totalTokens */\n      sload(0x04)\n        /* \"https://github.com/metafy-social/web3-smart-contracts/blob/10ac898f2a6d9b094f2e08af5daa07887e640807/contracts/Misc/Vesting_Contract.sol#L37\":1502:1528  totalTokens/vesting_cycles */\n      tag_72\n      swap2\n      swap1\n      tag_71\n      jump\t// in\n    tag_72:\n        /* \"https://github.com/metafy-social/web3-smart-contracts/blob/10ac898f2a6d9b094f2e08af5daa07887e640807/contracts/Misc/Vesting_Contract.sol#L37\":1501:1555  (totalTokens/vesting_cycles)*(time_now/vesting_cycles) */\n      tag_73\n      swap2\n      swap1\n      tag_74\n      jump\t// in\n    tag_73:\n        /* \"https://github.com/metafy-social/web3-smart-contracts/blob/10ac898f2a6d9b094f2e08af5daa07887e640807/contracts/Misc/Vesting_Contract.sol#L37\":1501:1569  (totalTokens/vesting_cycles)*(time_now/vesting_cycles)-tokensClaimed */\n      tag_75\n      swap2\n      swap1\n      tag_69\n      jump\t// in\n    tag_75:\n        /* \"https://github.com/metafy-social/web3-smart-contracts/blob/10ac898f2a6d9b094f2e08af5daa07887e640807/contracts/Misc/Vesting_Contract.sol#L37\":1479:1570  uint token_pending = ((totalTokens/vesting_cycles)*(time_now/vesting_cycles)-tokensClaimed) */\n      swap1\n      pop\n        /* \"https://github.com/metafy-social/web3-smart-contracts/blob/10ac898f2a6d9b094f2e08af5daa07887e640807/contracts/Misc/Vesting_Contract.sol#L37\":1654:1667  token_pending */\n      dup1\n        /* \"https://github.com/metafy-social/web3-smart-contracts/blob/10ac898f2a6d9b094f2e08af5daa07887e640807/contracts/Misc/Vesting_Contract.sol#L37\":1638:1651  tokensClaimed */\n      sload(0x05)\n        /* \"https://github.com/metafy-social/web3-smart-contracts/blob/10ac898f2a6d9b094f2e08af5daa07887e640807/contracts/Misc/Vesting_Contract.sol#L37\":1638:1667  tokensClaimed + token_pending */\n      tag_76\n      swap2\n      swap1\n      tag_60\n      jump\t// in\n    tag_76:\n        /* \"https://github.com/metafy-social/web3-smart-contracts/blob/10ac898f2a6d9b094f2e08af5daa07887e640807/contracts/Misc/Vesting_Contract.sol#L37\":1622:1635  tokensClaimed */\n      0x05\n        /* \"https://github.com/metafy-social/web3-smart-contracts/blob/10ac898f2a6d9b094f2e08af5daa07887e640807/contracts/Misc/Vesting_Contract.sol#L37\":1622:1667  tokensClaimed = tokensClaimed + token_pending */\n      dup2\n      swap1\n      sstore\n      pop\n        /* \"https://github.com/metafy-social/web3-smart-contracts/blob/10ac898f2a6d9b094f2e08af5daa07887e640807/contracts/Misc/Vesting_Contract.sol#L37\":1202:1683  {... */\n      pop\n      pop\n        /* \"https://github.com/metafy-social/web3-smart-contracts/blob/10ac898f2a6d9b094f2e08af5daa07887e640807/contracts/Misc/Vesting_Contract.sol#L37\":1171:1683  function claimTokens()  public {... */\n      jump\t// out\n        /* \"https://github.com/metafy-social/web3-smart-contracts/blob/10ac898f2a6d9b094f2e08af5daa07887e640807/contracts/Misc/Vesting_Contract.sol#L37\":1763:1982  function changeReceiver(address newReceiver)  public{... */\n    tag_31:\n        /* \"https://github.com/metafy-social/web3-smart-contracts/blob/10ac898f2a6d9b094f2e08af5daa07887e640807/contracts/Misc/Vesting_Contract.sol#L37\":1847:1852  owner */\n      0x06\n      0x00\n      swap1\n      sload\n      swap1\n      0x0100\n      exp\n      swap1\n      div\n      0xffffffffffffffffffffffffffffffffffffffff\n      and\n        /* \"https://github.com/metafy-social/web3-smart-contracts/blob/10ac898f2a6d9b094f2e08af5daa07887e640807/contracts/Misc/Vesting_Contract.sol#L37\":1833:1852  msg.sender == owner */\n      0xffffffffffffffffffffffffffffffffffffffff\n      and\n        /* \"https://github.com/metafy-social/web3-smart-contracts/blob/10ac898f2a6d9b094f2e08af5daa07887e640807/contracts/Misc/Vesting_Contract.sol#L37\":1833:1843  msg.sender */\n      caller\n        /* \"https://github.com/metafy-social/web3-smart-contracts/blob/10ac898f2a6d9b094f2e08af5daa07887e640807/contracts/Misc/Vesting_Contract.sol#L37\":1833:1852  msg.sender == owner */\n      0xffffffffffffffffffffffffffffffffffffffff\n      and\n      eq\n        /* \"https://github.com/metafy-social/web3-smart-contracts/blob/10ac898f2a6d9b094f2e08af5daa07887e640807/contracts/Misc/Vesting_Contract.sol#L37\":1825:1889  require(msg.sender == owner, \"This can be called by owner only\") */\n      tag_78\n      jumpi\n      mload(0x40)\n      0x08c379a000000000000000000000000000000000000000000000000000000000\n      dup2\n      mstore\n      0x04\n      add\n      tag_79\n      swap1\n      tag_80\n      jump\t// in\n    tag_79:\n      mload(0x40)\n      dup1\n      swap2\n      sub\n      swap1\n      revert\n    tag_78:\n        /* \"https://github.com/metafy-social/web3-smart-contracts/blob/10ac898f2a6d9b094f2e08af5daa07887e640807/contracts/Misc/Vesting_Contract.sol#L37\":1913:1923  msg.sender */\n      caller\n        /* \"https://github.com/metafy-social/web3-smart-contracts/blob/10ac898f2a6d9b094f2e08af5daa07887e640807/contracts/Misc/Vesting_Contract.sol#L37\":1899:1923  newReceiver = msg.sender */\n      swap1\n      pop\n        /* \"https://github.com/metafy-social/web3-smart-contracts/blob/10ac898f2a6d9b094f2e08af5daa07887e640807/contracts/Misc/Vesting_Contract.sol#L37\":1947:1948  0 */\n      0x00\n        /* \"https://github.com/metafy-social/web3-smart-contracts/blob/10ac898f2a6d9b094f2e08af5daa07887e640807/contracts/Misc/Vesting_Contract.sol#L37\":1933:1944  totalTokens */\n      0x04\n        /* \"https://github.com/metafy-social/web3-smart-contracts/blob/10ac898f2a6d9b094f2e08af5daa07887e640807/contracts/Misc/Vesting_Contract.sol#L37\":1933:1948  totalTokens = 0 */\n      dup2\n      swap1\n      sstore\n      pop\n        /* \"https://github.com/metafy-social/web3-smart-contracts/blob/10ac898f2a6d9b094f2e08af5daa07887e640807/contracts/Misc/Vesting_Contract.sol#L37\":1974:1975  0 */\n      0x00\n        /* \"https://github.com/metafy-social/web3-smart-contracts/blob/10ac898f2a6d9b094f2e08af5daa07887e640807/contracts/Misc/Vesting_Contract.sol#L37\":1958:1971  tokensClaimed */\n      0x05\n        /* \"https://github.com/metafy-social/web3-smart-contracts/blob/10ac898f2a6d9b094f2e08af5daa07887e640807/contracts/Misc/Vesting_Contract.sol#L37\":1958:1975  tokensClaimed = 0 */\n      dup2\n      swap1\n      sstore\n      pop\n        /* \"https://github.com/metafy-social/web3-smart-contracts/blob/10ac898f2a6d9b094f2e08af5daa07887e640807/contracts/Misc/Vesting_Contract.sol#L37\":1763:1982  function changeReceiver(address newReceiver)  public{... */\n      pop\n      jump\t// out\n        /* \"https://github.com/metafy-social/web3-smart-contracts/blob/10ac898f2a6d9b094f2e08af5daa07887e640807/contracts/Misc/Vesting_Contract.sol#L37\":305:331  uint public vesting_cycles */\n    tag_33:\n      sload(0x03)\n      dup2\n      jump\t// out\n        /* \"https://github.com/metafy-social/web3-smart-contracts/blob/10ac898f2a6d9b094f2e08af5daa07887e640807/contracts/Misc/Vesting_Contract.sol#L37\":365:388  uint public totalTokens */\n    tag_36:\n      sload(0x04)\n      dup2\n      jump\t// out\n        /* \"https://github.com/metafy-social/web3-smart-contracts/blob/10ac898f2a6d9b094f2e08af5daa07887e640807/contracts/Misc/Vesting_Contract.sol#L37\":425:445  address public owner */\n    tag_39:\n      0x06\n      0x00\n      swap1\n      sload\n      swap1\n      0x0100\n      exp\n      swap1\n      div\n      0xffffffffffffffffffffffffffffffffffffffff\n      and\n      dup2\n      jump\t// out\n        /* \"https://github.com/metafy-social/web3-smart-contracts/blob/10ac898f2a6d9b094f2e08af5daa07887e640807/contracts/Misc/Vesting_Contract.sol#L37\":394:419  uint public tokensClaimed */\n    tag_43:\n      sload(0x05)\n      dup2\n      jump\t// out\n        /* \"https://github.com/metafy-social/web3-smart-contracts/blob/10ac898f2a6d9b094f2e08af5daa07887e640807/contracts/Misc/Vesting_Contract.sol#L37\":170:187  uint public start */\n    tag_46:\n      sload(0x01)\n      dup2\n      jump\t// out\n        /* \"https://github.com/metafy-social/web3-smart-contracts/blob/10ac898f2a6d9b094f2e08af5daa07887e640807/contracts/Misc/Vesting_Contract.sol#L37\":473:496  address public receiver */\n    tag_49:\n      0x07\n      0x00\n      swap1\n      sload\n      swap1\n      0x0100\n      exp\n      swap1\n      div\n      0xffffffffffffffffffffffffffffffffffffffff\n      and\n      dup2\n      jump\t// out\n        /* \"#utility.yul\":7:84   */\n    tag_81:\n        /* \"#utility.yul\":44:51   */\n      0x00\n        /* \"#utility.yul\":73:78   */\n      dup2\n        /* \"#utility.yul\":62:78   */\n      swap1\n      pop\n        /* \"#utility.yul\":7:84   */\n      swap2\n      swap1\n      pop\n      jump\t// out\n        /* \"#utility.yul\":90:208   */\n    tag_82:\n        /* \"#utility.yul\":177:201   */\n      tag_109\n        /* \"#utility.yul\":195:200   */\n      dup2\n        /* \"#utility.yul\":177:201   */\n      tag_81\n      jump\t// in\n    tag_109:\n        /* \"#utility.yul\":172:175   */\n      dup3\n        /* \"#utility.yul\":165:202   */\n      mstore\n        /* \"#utility.yul\":90:208   */\n      pop\n      pop\n      jump\t// out\n        /* \"#utility.yul\":214:436   */\n    tag_18:\n        /* \"#utility.yul\":307:311   */\n      0x00\n        /* \"#utility.yul\":345:347   */\n      0x20\n        /* \"#utility.yul\":334:343   */\n      dup3\n        /* \"#utility.yul\":330:348   */\n      add\n        /* \"#utility.yul\":322:348   */\n      swap1\n      pop\n        /* \"#utility.yul\":358:429   */\n      tag_111\n        /* \"#utility.yul\":426:427   */\n      0x00\n        /* \"#utility.yul\":415:424   */\n      dup4\n        /* \"#utility.yul\":411:428   */\n      add\n        /* \"#utility.yul\":402:408   */\n      dup5\n        /* \"#utility.yul\":358:429   */\n      tag_82\n      jump\t// in\n    tag_111:\n        /* \"#utility.yul\":214:436   */\n      swap3\n      swap2\n      pop\n      pop\n      jump\t// out\n        /* \"#utility.yul\":523:640   */\n    tag_84:\n        /* \"#utility.yul\":632:633   */\n      0x00\n        /* \"#utility.yul\":629:630   */\n      dup1\n        /* \"#utility.yul\":622:634   */\n      revert\n        /* \"#utility.yul\":769:891   */\n    tag_86:\n        /* \"#utility.yul\":842:866   */\n      tag_116\n        /* \"#utility.yul\":860:865   */\n      dup2\n        /* \"#utility.yul\":842:866   */\n      tag_81\n      jump\t// in\n    tag_116:\n        /* \"#utility.yul\":835:840   */\n      dup2\n        /* \"#utility.yul\":832:867   */\n      eq\n        /* \"#utility.yul\":822:885   */\n      tag_117\n      jumpi\n        /* \"#utility.yul\":881:882   */\n      0x00\n        /* \"#utility.yul\":878:879   */\n      dup1\n        /* \"#utility.yul\":871:883   */\n      revert\n        /* \"#utility.yul\":822:885   */\n    tag_117:\n        /* \"#utility.yul\":769:891   */\n      pop\n      jump\t// out\n        /* \"#utility.yul\":897:1036   */\n    tag_87:\n        /* \"#utility.yul\":943:948   */\n      0x00\n        /* \"#utility.yul\":981:987   */\n      dup2\n        /* \"#utility.yul\":968:988   */\n      calldataload\n        /* \"#utility.yul\":959:988   */\n      swap1\n      pop\n        /* \"#utility.yul\":997:1030   */\n      tag_119\n        /* \"#utility.yul\":1024:1029   */\n      dup2\n        /* \"#utility.yul\":997:1030   */\n      tag_86\n      jump\t// in\n    tag_119:\n        /* \"#utility.yul\":897:1036   */\n      swap3\n      swap2\n      pop\n      pop\n      jump\t// out\n        /* \"#utility.yul\":1042:1371   */\n    tag_24:\n        /* \"#utility.yul\":1101:1107   */\n      0x00\n        /* \"#utility.yul\":1150:1152   */\n      0x20\n        /* \"#utility.yul\":1138:1147   */\n      dup3\n        /* \"#utility.yul\":1129:1136   */\n      dup5\n        /* \"#utility.yul\":1125:1148   */\n      sub\n        /* \"#utility.yul\":1121:1153   */\n      slt\n        /* \"#utility.yul\":1118:1237   */\n      iszero\n      tag_121\n      jumpi\n        /* \"#utility.yul\":1156:1235   */\n      tag_122\n      tag_84\n      jump\t// in\n    tag_122:\n        /* \"#utility.yul\":1118:1237   */\n    tag_121:\n        /* \"#utility.yul\":1276:1277   */\n      0x00\n        /* \"#utility.yul\":1301:1354   */\n      tag_123\n        /* \"#utility.yul\":1346:1353   */\n      dup5\n        /* \"#utility.yul\":1337:1343   */\n      dup3\n        /* \"#utility.yul\":1326:1335   */\n      dup6\n        /* \"#utility.yul\":1322:1344   */\n      add\n        /* \"#utility.yul\":1301:1354   */\n      tag_87\n      jump\t// in\n    tag_123:\n        /* \"#utility.yul\":1291:1354   */\n      swap2\n      pop\n        /* \"#utility.yul\":1247:1364   */\n      pop\n        /* \"#utility.yul\":1042:1371   */\n      swap3\n      swap2\n      pop\n      pop\n      jump\t// out\n        /* \"#utility.yul\":1377:1503   */\n    tag_88:\n        /* \"#utility.yul\":1414:1421   */\n      0x00\n        /* \"#utility.yul\":1454:1496   */\n      0xffffffffffffffffffffffffffffffffffffffff\n        /* \"#utility.yul\":1447:1452   */\n      dup3\n        /* \"#utility.yul\":1443:1497   */\n      and\n        /* \"#utility.yul\":1432:1497   */\n      swap1\n      pop\n        /* \"#utility.yul\":1377:1503   */\n      swap2\n      swap1\n      pop\n      jump\t// out\n        /* \"#utility.yul\":1509:1605   */\n    tag_89:\n        /* \"#utility.yul\":1546:1553   */\n      0x00\n        /* \"#utility.yul\":1575:1599   */\n      tag_126\n        /* \"#utility.yul\":1593:1598   */\n      dup3\n        /* \"#utility.yul\":1575:1599   */\n      tag_88\n      jump\t// in\n    tag_126:\n        /* \"#utility.yul\":1564:1599   */\n      swap1\n      pop\n        /* \"#utility.yul\":1509:1605   */\n      swap2\n      swap1\n      pop\n      jump\t// out\n        /* \"#utility.yul\":1611:1733   */\n    tag_90:\n        /* \"#utility.yul\":1684:1708   */\n      tag_128\n        /* \"#utility.yul\":1702:1707   */\n      dup2\n        /* \"#utility.yul\":1684:1708   */\n      tag_89\n      jump\t// in\n    tag_128:\n        /* \"#utility.yul\":1677:1682   */\n      dup2\n        /* \"#utility.yul\":1674:1709   */\n      eq\n        /* \"#utility.yul\":1664:1727   */\n      tag_129\n      jumpi\n        /* \"#utility.yul\":1723:1724   */\n      0x00\n        /* \"#utility.yul\":1720:1721   */\n      dup1\n        /* \"#utility.yul\":1713:1725   */\n      revert\n        /* \"#utility.yul\":1664:1727   */\n    tag_129:\n        /* \"#utility.yul\":1611:1733   */\n      pop\n      jump\t// out\n        /* \"#utility.yul\":1739:1878   */\n    tag_91:\n        /* \"#utility.yul\":1785:1790   */\n      0x00\n        /* \"#utility.yul\":1823:1829   */\n      dup2\n        /* \"#utility.yul\":1810:1830   */\n      calldataload\n        /* \"#utility.yul\":1801:1830   */\n      swap1\n      pop\n        /* \"#utility.yul\":1839:1872   */\n      tag_131\n        /* \"#utility.yul\":1866:1871   */\n      dup2\n        /* \"#utility.yul\":1839:1872   */\n      tag_90\n      jump\t// in\n    tag_131:\n        /* \"#utility.yul\":1739:1878   */\n      swap3\n      swap2\n      pop\n      pop\n      jump\t// out\n        /* \"#utility.yul\":1884:2213   */\n    tag_30:\n        /* \"#utility.yul\":1943:1949   */\n      0x00\n        /* \"#utility.yul\":1992:1994   */\n      0x20\n        /* \"#utility.yul\":1980:1989   */\n      dup3\n        /* \"#utility.yul\":1971:1978   */\n      dup5\n        /* \"#utility.yul\":1967:1990   */\n      sub\n        /* \"#utility.yul\":1963:1995   */\n      slt\n        /* \"#utility.yul\":1960:2079   */\n      iszero\n      tag_133\n      jumpi\n        /* \"#utility.yul\":1998:2077   */\n      tag_134\n      tag_84\n      jump\t// in\n    tag_134:\n        /* \"#utility.yul\":1960:2079   */\n    tag_133:\n        /* \"#utility.yul\":2118:2119   */\n      0x00\n        /* \"#utility.yul\":2143:2196   */\n      tag_135\n        /* \"#utility.yul\":2188:2195   */\n      dup5\n        /* \"#utility.yul\":2179:2185   */\n      dup3\n        /* \"#utility.yul\":2168:2177   */\n      dup6\n        /* \"#utility.yul\":2164:2186   */\n      add\n        /* \"#utility.yul\":2143:2196   */\n      tag_91\n      jump\t// in\n    tag_135:\n        /* \"#utility.yul\":2133:2196   */\n      swap2\n      pop\n        /* \"#utility.yul\":2089:2206   */\n      pop\n        /* \"#utility.yul\":1884:2213   */\n      swap3\n      swap2\n      pop\n      pop\n      jump\t// out\n        /* \"#utility.yul\":2219:2337   */\n    tag_92:\n        /* \"#utility.yul\":2306:2330   */\n      tag_137\n        /* \"#utility.yul\":2324:2329   */\n      dup2\n        /* \"#utility.yul\":2306:2330   */\n      tag_89\n      jump\t// in\n    tag_137:\n        /* \"#utility.yul\":2301:2304   */\n      dup3\n        /* \"#utility.yul\":2294:2331   */\n      mstore\n        /* \"#utility.yul\":2219:2337   */\n      pop\n      pop\n      jump\t// out\n        /* \"#utility.yul\":2343:2565   */\n    tag_41:\n        /* \"#utility.yul\":2436:2440   */\n      0x00\n        /* \"#utility.yul\":2474:2476   */\n      0x20\n        /* \"#utility.yul\":2463:2472   */\n      dup3\n        /* \"#utility.yul\":2459:2477   */\n      add\n        /* \"#utility.yul\":2451:2477   */\n      swap1\n      pop\n        /* \"#utility.yul\":2487:2558   */\n      tag_139\n        /* \"#utility.yul\":2555:2556   */\n      0x00\n        /* \"#utility.yul\":2544:2553   */\n      dup4\n        /* \"#utility.yul\":2540:2557   */\n      add\n        /* \"#utility.yul\":2531:2537   */\n      dup5\n        /* \"#utility.yul\":2487:2558   */\n      tag_92\n      jump\t// in\n    tag_139:\n        /* \"#utility.yul\":2343:2565   */\n      swap3\n      swap2\n      pop\n      pop\n      jump\t// out\n        /* \"#utility.yul\":2571:2740   */\n    tag_93:\n        /* \"#utility.yul\":2655:2666   */\n      0x00\n        /* \"#utility.yul\":2689:2695   */\n      dup3\n        /* \"#utility.yul\":2684:2687   */\n      dup3\n        /* \"#utility.yul\":2677:2696   */\n      mstore\n        /* \"#utility.yul\":2729:2733   */\n      0x20\n        /* \"#utility.yul\":2724:2727   */\n      dup3\n        /* \"#utility.yul\":2720:2734   */\n      add\n        /* \"#utility.yul\":2705:2734   */\n      swap1\n      pop\n        /* \"#utility.yul\":2571:2740   */\n      swap3\n      swap2\n      pop\n      pop\n      jump\t// out\n        /* \"#utility.yul\":2746:2919   */\n    tag_94:\n        /* \"#utility.yul\":2886:2911   */\n      0x6f6e6c79206f776e65722063616e2066756e642069742e000000000000000000\n        /* \"#utility.yul\":2882:2883   */\n      0x00\n        /* \"#utility.yul\":2874:2880   */\n      dup3\n        /* \"#utility.yul\":2870:2884   */\n      add\n        /* \"#utility.yul\":2863:2912   */\n      mstore\n        /* \"#utility.yul\":2746:2919   */\n      pop\n      jump\t// out\n        /* \"#utility.yul\":2925:3291   */\n    tag_95:\n        /* \"#utility.yul\":3067:3070   */\n      0x00\n        /* \"#utility.yul\":3088:3155   */\n      tag_143\n        /* \"#utility.yul\":3152:3154   */\n      0x17\n        /* \"#utility.yul\":3147:3150   */\n      dup4\n        /* \"#utility.yul\":3088:3155   */\n      tag_93\n      jump\t// in\n    tag_143:\n        /* \"#utility.yul\":3081:3155   */\n      swap2\n      pop\n        /* \"#utility.yul\":3164:3257   */\n      tag_144\n        /* \"#utility.yul\":3253:3256   */\n      dup3\n        /* \"#utility.yul\":3164:3257   */\n      tag_94\n      jump\t// in\n    tag_144:\n        /* \"#utility.yul\":3282:3284   */\n      0x20\n        /* \"#utility.yul\":3277:3280   */\n      dup3\n        /* \"#utility.yul\":3273:3285   */\n      add\n        /* \"#utility.yul\":3266:3285   */\n      swap1\n      pop\n        /* \"#utility.yul\":2925:3291   */\n      swap2\n      swap1\n      pop\n      jump\t// out\n        /* \"#utility.yul\":3297:3716   */\n    tag_54:\n        /* \"#utility.yul\":3463:3467   */\n      0x00\n        /* \"#utility.yul\":3501:3503   */\n      0x20\n        /* \"#utility.yul\":3490:3499   */\n      dup3\n        /* \"#utility.yul\":3486:3504   */\n      add\n        /* \"#utility.yul\":3478:3504   */\n      swap1\n      pop\n        /* \"#utility.yul\":3550:3559   */\n      dup2\n        /* \"#utility.yul\":3544:3548   */\n      dup2\n        /* \"#utility.yul\":3540:3560   */\n      sub\n        /* \"#utility.yul\":3536:3537   */\n      0x00\n        /* \"#utility.yul\":3525:3534   */\n      dup4\n        /* \"#utility.yul\":3521:3538   */\n      add\n        /* \"#utility.yul\":3514:3561   */\n      mstore\n        /* \"#utility.yul\":3578:3709   */\n      tag_146\n        /* \"#utility.yul\":3704:3708   */\n      dup2\n        /* \"#utility.yul\":3578:3709   */\n      tag_95\n      jump\t// in\n    tag_146:\n        /* \"#utility.yul\":3570:3709   */\n      swap1\n      pop\n        /* \"#utility.yul\":3297:3716   */\n      swap2\n      swap1\n      pop\n      jump\t// out\n        /* \"#utility.yul\":3722:3897   */\n    tag_96:\n        /* \"#utility.yul\":3862:3889   */\n      0x6f776e65722063616e6e6f7420636c61696d20746f6b656e7300000000000000\n        /* \"#utility.yul\":3858:3859   */\n      0x00\n        /* \"#utility.yul\":3850:3856   */\n      dup3\n        /* \"#utility.yul\":3846:3860   */\n      add\n        /* \"#utility.yul\":3839:3890   */\n      mstore\n        /* \"#utility.yul\":3722:3897   */\n      pop\n      jump\t// out\n        /* \"#utility.yul\":3903:4269   */\n    tag_97:\n        /* \"#utility.yul\":4045:4048   */\n      0x00\n        /* \"#utility.yul\":4066:4133   */\n      tag_149\n        /* \"#utility.yul\":4130:4132   */\n      0x19\n        /* \"#utility.yul\":4125:4128   */\n      dup4\n        /* \"#utility.yul\":4066:4133   */\n      tag_93\n      jump\t// in\n    tag_149:\n        /* \"#utility.yul\":4059:4133   */\n      swap2\n      pop\n        /* \"#utility.yul\":4142:4235   */\n      tag_150\n        /* \"#utility.yul\":4231:4234   */\n      dup3\n        /* \"#utility.yul\":4142:4235   */\n      tag_96\n      jump\t// in\n    tag_150:\n        /* \"#utility.yul\":4260:4262   */\n      0x20\n        /* \"#utility.yul\":4255:4258   */\n      dup3\n        /* \"#utility.yul\":4251:4263   */\n      add\n        /* \"#utility.yul\":4244:4263   */\n      swap1\n      pop\n        /* \"#utility.yul\":3903:4269   */\n      swap2\n      swap1\n      pop\n      jump\t// out\n        /* \"#utility.yul\":4275:4694   */\n    tag_58:\n        /* \"#utility.yul\":4441:4445   */\n      0x00\n        /* \"#utility.yul\":4479:4481   */\n      0x20\n        /* \"#utility.yul\":4468:4477   */\n      dup3\n        /* \"#utility.yul\":4464:4482   */\n      add\n        /* \"#utility.yul\":4456:4482   */\n      swap1\n      pop\n        /* \"#utility.yul\":4528:4537   */\n      dup2\n        /* \"#utility.yul\":4522:4526   */\n      dup2\n        /* \"#utility.yul\":4518:4538   */\n      sub\n        /* \"#utility.yul\":4514:4515   */\n      0x00\n        /* \"#utility.yul\":4503:4512   */\n      dup4\n        /* \"#utility.yul\":4499:4516   */\n      add\n        /* \"#utility.yul\":4492:4539   */\n      mstore\n        /* \"#utility.yul\":4556:4687   */\n      tag_152\n        /* \"#utility.yul\":4682:4686   */\n      dup2\n        /* \"#utility.yul\":4556:4687   */\n      tag_97\n      jump\t// in\n    tag_152:\n        /* \"#utility.yul\":4548:4687   */\n      swap1\n      pop\n        /* \"#utility.yul\":4275:4694   */\n      swap2\n      swap1\n      pop\n      jump\t// out\n        /* \"#utility.yul\":4700:4880   */\n    tag_98:\n        /* \"#utility.yul\":4748:4825   */\n      0x4e487b7100000000000000000000000000000000000000000000000000000000\n        /* \"#utility.yul\":4745:4746   */\n      0x00\n        /* \"#utility.yul\":4738:4826   */\n      mstore\n        /* \"#utility.yul\":4845:4849   */\n      0x11\n        /* \"#utility.yul\":4842:4843   */\n      0x04\n        /* \"#utility.yul\":4835:4850   */\n      mstore\n        /* \"#utility.yul\":4869:4873   */\n      0x24\n        /* \"#utility.yul\":4866:4867   */\n      0x00\n        /* \"#utility.yul\":4859:4874   */\n      revert\n        /* \"#utility.yul\":4886:5077   */\n    tag_60:\n        /* \"#utility.yul\":4926:4929   */\n      0x00\n        /* \"#utility.yul\":4945:4965   */\n      tag_155\n        /* \"#utility.yul\":4963:4964   */\n      dup3\n        /* \"#utility.yul\":4945:4965   */\n      tag_81\n      jump\t// in\n    tag_155:\n        /* \"#utility.yul\":4940:4965   */\n      swap2\n      pop\n        /* \"#utility.yul\":4979:4999   */\n      tag_156\n        /* \"#utility.yul\":4997:4998   */\n      dup4\n        /* \"#utility.yul\":4979:4999   */\n      tag_81\n      jump\t// in\n    tag_156:\n        /* \"#utility.yul\":4974:4999   */\n      swap3\n      pop\n        /* \"#utility.yul\":5022:5023   */\n      dup3\n        /* \"#utility.yul\":5019:5020   */\n      dup3\n        /* \"#utility.yul\":5015:5024   */\n      add\n        /* \"#utility.yul\":5008:5024   */\n      swap1\n      pop\n        /* \"#utility.yul\":5043:5046   */\n      dup1\n        /* \"#utility.yul\":5040:5041   */\n      dup3\n        /* \"#utility.yul\":5037:5047   */\n      gt\n        /* \"#utility.yul\":5034:5070   */\n      iszero\n      tag_157\n      jumpi\n        /* \"#utility.yul\":5050:5068   */\n      tag_158\n      tag_98\n      jump\t// in\n    tag_158:\n        /* \"#utility.yul\":5034:5070   */\n    tag_157:\n        /* \"#utility.yul\":4886:5077   */\n      swap3\n      swap2\n      pop\n      pop\n      jump\t// out\n        /* \"#utility.yul\":5083:5254   */\n    tag_99:\n        /* \"#utility.yul\":5223:5246   */\n      0x56657374696e67206861736e7420737461727465640000000000000000000000\n        /* \"#utility.yul\":5219:5220   */\n      0x00\n        /* \"#utility.yul\":5211:5217   */\n      dup3\n        /* \"#utility.yul\":5207:5221   */\n      add\n        /* \"#utility.yul\":5200:5247   */\n      mstore\n        /* \"#utility.yul\":5083:5254   */\n      pop\n      jump\t// out\n        /* \"#utility.yul\":5260:5626   */\n    tag_100:\n        /* \"#utility.yul\":5402:5405   */\n      0x00\n        /* \"#utility.yul\":5423:5490   */\n      tag_161\n        /* \"#utility.yul\":5487:5489   */\n      0x15\n        /* \"#utility.yul\":5482:5485   */\n      dup4\n        /* \"#utility.yul\":5423:5490   */\n      tag_93\n      jump\t// in\n    tag_161:\n        /* \"#utility.yul\":5416:5490   */\n      swap2\n      pop\n        /* \"#utility.yul\":5499:5592   */\n      tag_162\n        /* \"#utility.yul\":5588:5591   */\n      dup3\n        /* \"#utility.yul\":5499:5592   */\n      tag_99\n      jump\t// in\n    tag_162:\n        /* \"#utility.yul\":5617:5619   */\n      0x20\n        /* \"#utility.yul\":5612:5615   */\n      dup3\n        /* \"#utility.yul\":5608:5620   */\n      add\n        /* \"#utility.yul\":5601:5620   */\n      swap1\n      pop\n        /* \"#utility.yul\":5260:5626   */\n      swap2\n      swap1\n      pop\n      jump\t// out\n        /* \"#utility.yul\":5632:6051   */\n    tag_63:\n        /* \"#utility.yul\":5798:5802   */\n      0x00\n        /* \"#utility.yul\":5836:5838   */\n      0x20\n        /* \"#utility.yul\":5825:5834   */\n      dup3\n        /* \"#utility.yul\":5821:5839   */\n      add\n        /* \"#utility.yul\":5813:5839   */\n      swap1\n      pop\n        /* \"#utility.yul\":5885:5894   */\n      dup2\n        /* \"#utility.yul\":5879:5883   */\n      dup2\n        /* \"#utility.yul\":5875:5895   */\n      sub\n        /* \"#utility.yul\":5871:5872   */\n      0x00\n        /* \"#utility.yul\":5860:5869   */\n      dup4\n        /* \"#utility.yul\":5856:5873   */\n      add\n        /* \"#utility.yul\":5849:5896   */\n      mstore\n        /* \"#utility.yul\":5913:6044   */\n      tag_164\n        /* \"#utility.yul\":6039:6043   */\n      dup2\n        /* \"#utility.yul\":5913:6044   */\n      tag_100\n      jump\t// in\n    tag_164:\n        /* \"#utility.yul\":5905:6044   */\n      swap1\n      pop\n        /* \"#utility.yul\":5632:6051   */\n      swap2\n      swap1\n      pop\n      jump\t// out\n        /* \"#utility.yul\":6057:6235   */\n    tag_101:\n        /* \"#utility.yul\":6197:6227   */\n      0x436f6e747261637420686173206e6f74206265656e2066756e64656400000000\n        /* \"#utility.yul\":6193:6194   */\n      0x00\n        /* \"#utility.yul\":6185:6191   */\n      dup3\n        /* \"#utility.yul\":6181:6195   */\n      add\n        /* \"#utility.yul\":6174:6228   */\n      mstore\n        /* \"#utility.yul\":6057:6235   */\n      pop\n      jump\t// out\n        /* \"#utility.yul\":6241:6607   */\n    tag_102:\n        /* \"#utility.yul\":6383:6386   */\n      0x00\n        /* \"#utility.yul\":6404:6471   */\n      tag_167\n        /* \"#utility.yul\":6468:6470   */\n      0x1c\n        /* \"#utility.yul\":6463:6466   */\n      dup4\n        /* \"#utility.yul\":6404:6471   */\n      tag_93\n      jump\t// in\n    tag_167:\n        /* \"#utility.yul\":6397:6471   */\n      swap2\n      pop\n        /* \"#utility.yul\":6480:6573   */\n      tag_168\n        /* \"#utility.yul\":6569:6572   */\n      dup3\n        /* \"#utility.yul\":6480:6573   */\n      tag_101\n      jump\t// in\n    tag_168:\n        /* \"#utility.yul\":6598:6600   */\n      0x20\n        /* \"#utility.yul\":6593:6596   */\n      dup3\n        /* \"#utility.yul\":6589:6601   */\n      add\n        /* \"#utility.yul\":6582:6601   */\n      swap1\n      pop\n        /* \"#utility.yul\":6241:6607   */\n      swap2\n      swap1\n      pop\n      jump\t// out\n        /* \"#utility.yul\":6613:7032   */\n    tag_66:\n        /* \"#utility.yul\":6779:6783   */\n      0x00\n        /* \"#utility.yul\":6817:6819   */\n      0x20\n        /* \"#utility.yul\":6806:6815   */\n      dup3\n        /* \"#utility.yul\":6802:6820   */\n      add\n        /* \"#utility.yul\":6794:6820   */\n      swap1\n      pop\n        /* \"#utility.yul\":6866:6875   */\n      dup2\n        /* \"#utility.yul\":6860:6864   */\n      dup2\n        /* \"#utility.yul\":6856:6876   */\n      sub\n        /* \"#utility.yul\":6852:6853   */\n      0x00\n        /* \"#utility.yul\":6841:6850   */\n      dup4\n        /* \"#utility.yul\":6837:6854   */\n      add\n        /* \"#utility.yul\":6830:6877   */\n      mstore\n        /* \"#utility.yul\":6894:7025   */\n      tag_170\n        /* \"#utility.yul\":7020:7024   */\n      dup2\n        /* \"#utility.yul\":6894:7025   */\n      tag_102\n      jump\t// in\n    tag_170:\n        /* \"#utility.yul\":6886:7025   */\n      swap1\n      pop\n        /* \"#utility.yul\":6613:7032   */\n      swap2\n      swap1\n      pop\n      jump\t// out\n        /* \"#utility.yul\":7038:7232   */\n    tag_69:\n        /* \"#utility.yul\":7078:7082   */\n      0x00\n        /* \"#utility.yul\":7098:7118   */\n      tag_172\n        /* \"#utility.yul\":7116:7117   */\n      dup3\n        /* \"#utility.yul\":7098:7118   */\n      tag_81\n      jump\t// in\n    tag_172:\n        /* \"#utility.yul\":7093:7118   */\n      swap2\n      pop\n        /* \"#utility.yul\":7132:7152   */\n      tag_173\n        /* \"#utility.yul\":7150:7151   */\n      dup4\n        /* \"#utility.yul\":7132:7152   */\n      tag_81\n      jump\t// in\n    tag_173:\n        /* \"#utility.yul\":7127:7152   */\n      swap3\n      pop\n        /* \"#utility.yul\":7176:7177   */\n      dup3\n        /* \"#utility.yul\":7173:7174   */\n      dup3\n        /* \"#utility.yul\":7169:7178   */\n      sub\n        /* \"#utility.yul\":7161:7178   */\n      swap1\n      pop\n        /* \"#utility.yul\":7200:7201   */\n      dup2\n        /* \"#utility.yul\":7194:7198   */\n      dup2\n        /* \"#utility.yul\":7191:7202   */\n      gt\n        /* \"#utility.yul\":7188:7225   */\n      iszero\n      tag_174\n      jumpi\n        /* \"#utility.yul\":7205:7223   */\n      tag_175\n      tag_98\n      jump\t// in\n    tag_175:\n        /* \"#utility.yul\":7188:7225   */\n    tag_174:\n        /* \"#utility.yul\":7038:7232   */\n      swap3\n      swap2\n      pop\n      pop\n      jump\t// out\n        /* \"#utility.yul\":7238:7418   */\n    tag_103:\n        /* \"#utility.yul\":7286:7363   */\n      0x4e487b7100000000000000000000000000000000000000000000000000000000\n        /* \"#utility.yul\":7283:7284   */\n      0x00\n        /* \"#utility.yul\":7276:7364   */\n      mstore\n        /* \"#utility.yul\":7383:7387   */\n      0x12\n        /* \"#utility.yul\":7380:7381   */\n      0x04\n        /* \"#utility.yul\":7373:7388   */\n      mstore\n        /* \"#utility.yul\":7407:7411   */\n      0x24\n        /* \"#utility.yul\":7404:7405   */\n      0x00\n        /* \"#utility.yul\":7397:7412   */\n      revert\n        /* \"#utility.yul\":7424:7609   */\n    tag_71:\n        /* \"#utility.yul\":7464:7465   */\n      0x00\n        /* \"#utility.yul\":7481:7501   */\n      tag_178\n        /* \"#utility.yul\":7499:7500   */\n      dup3\n        /* \"#utility.yul\":7481:7501   */\n      tag_81\n      jump\t// in\n    tag_178:\n        /* \"#utility.yul\":7476:7501   */\n      swap2\n      pop\n        /* \"#utility.yul\":7515:7535   */\n      tag_179\n        /* \"#utility.yul\":7533:7534   */\n      dup4\n        /* \"#utility.yul\":7515:7535   */\n      tag_81\n      jump\t// in\n    tag_179:\n        /* \"#utility.yul\":7510:7535   */\n      swap3\n      pop\n        /* \"#utility.yul\":7554:7555   */\n      dup3\n        /* \"#utility.yul\":7544:7579   */\n      tag_180\n      jumpi\n        /* \"#utility.yul\":7559:7577   */\n      tag_181\n      tag_103\n      jump\t// in\n    tag_181:\n        /* \"#utility.yul\":7544:7579   */\n    tag_180:\n        /* \"#utility.yul\":7601:7602   */\n      dup3\n        /* \"#utility.yul\":7598:7599   */\n      dup3\n        /* \"#utility.yul\":7594:7603   */\n      div\n        /* \"#utility.yul\":7589:7603   */\n      swap1\n      pop\n        /* \"#utility.yul\":7424:7609   */\n      swap3\n      swap2\n      pop\n      pop\n      jump\t// out\n        /* \"#utility.yul\":7615:7963   */\n    tag_74:\n        /* \"#utility.yul\":7655:7662   */\n      0x00\n        /* \"#utility.yul\":7678:7698   */\n      tag_183\n        /* \"#utility.yul\":7696:7697   */\n      dup3\n        /* \"#utility.yul\":7678:7698   */\n      tag_81\n      jump\t// in\n    tag_183:\n        /* \"#utility.yul\":7673:7698   */\n      swap2\n      pop\n        /* \"#utility.yul\":7712:7732   */\n      tag_184\n        /* \"#utility.yul\":7730:7731   */\n      dup4\n        /* \"#utility.yul\":7712:7732   */\n      tag_81\n      jump\t// in\n    tag_184:\n        /* \"#utility.yul\":7707:7732   */\n      swap3\n      pop\n        /* \"#utility.yul\":7900:7901   */\n      dup2\n        /* \"#utility.yul\":7832:7898   */\n      0xffffffffffffffffffffffffffffffffffffffffffffffffffffffffffffffff\n        /* \"#utility.yul\":7828:7902   */\n      div\n        /* \"#utility.yul\":7825:7826   */\n      dup4\n        /* \"#utility.yul\":7822:7903   */\n      gt\n        /* \"#utility.yul\":7817:7818   */\n      dup3\n        /* \"#utility.yul\":7810:7819   */\n      iszero\n        /* \"#utility.yul\":7803:7820   */\n      iszero\n        /* \"#utility.yul\":7799:7904   */\n      and\n        /* \"#utility.yul\":7796:7927   */\n      iszero\n      tag_185\n      jumpi\n        /* \"#utility.yul\":7907:7925   */\n      tag_186\n      tag_98\n      jump\t// in\n    tag_186:\n        /* \"#utility.yul\":7796:7927   */\n    tag_185:\n        /* \"#utility.yul\":7955:7956   */\n      dup3\n        /* \"#utility.yul\":7952:7953   */\n      dup3\n        /* \"#utility.yul\":7948:7957   */\n      mul\n        /* \"#utility.yul\":7937:7957   */\n      swap1\n      pop\n        /* \"#utility.yul\":7615:7963   */\n      swap3\n      swap2\n      pop\n      pop\n      jump\t// out\n        /* \"#utility.yul\":7969:8151   */\n    tag_104:\n        /* \"#utility.yul\":8109:8143   */\n      0x546869732063616e2062652063616c6c6564206279206f776e6572206f6e6c79\n        /* \"#utility.yul\":8105:8106   */\n      0x00\n        /* \"#utility.yul\":8097:8103   */\n      dup3\n        /* \"#utility.yul\":8093:8107   */\n      add\n        /* \"#utility.yul\":8086:8144   */\n      mstore\n        /* \"#utility.yul\":7969:8151   */\n      pop\n      jump\t// out\n        /* \"#utility.yul\":8157:8523   */\n    tag_105:\n        /* \"#utility.yul\":8299:8302   */\n      0x00\n        /* \"#utility.yul\":8320:8387   */\n      tag_189\n        /* \"#utility.yul\":8384:8386   */\n      0x20\n        /* \"#utility.yul\":8379:8382   */\n      dup4\n        /* \"#utility.yul\":8320:8387   */\n      tag_93\n      jump\t// in\n    tag_189:\n        /* \"#utility.yul\":8313:8387   */\n      swap2\n      pop\n        /* \"#utility.yul\":8396:8489   */\n      tag_190\n        /* \"#utility.yul\":8485:8488   */\n      dup3\n        /* \"#utility.yul\":8396:8489   */\n      tag_104\n      jump\t// in\n    tag_190:\n        /* \"#utility.yul\":8514:8516   */\n      0x20\n        /* \"#utility.yul\":8509:8512   */\n      dup3\n        /* \"#utility.yul\":8505:8517   */\n      add\n        /* \"#utility.yul\":8498:8517   */\n      swap1\n      pop\n        /* \"#utility.yul\":8157:8523   */\n      swap2\n      swap1\n      pop\n      jump\t// out\n        /* \"#utility.yul\":8529:8948   */\n    tag_80:\n        /* \"#utility.yul\":8695:8699   */\n      0x00\n        /* \"#utility.yul\":8733:8735   */\n      0x20\n        /* \"#utility.yul\":8722:8731   */\n      dup3\n        /* \"#utility.yul\":8718:8736   */\n      add\n        /* \"#utility.yul\":8710:8736   */\n      swap1\n      pop\n        /* \"#utility.yul\":8782:8791   */\n      dup2\n        /* \"#utility.yul\":8776:8780   */\n      dup2\n        /* \"#utility.yul\":8772:8792   */\n      sub\n        /* \"#utility.yul\":8768:8769   */\n      0x00\n        /* \"#utility.yul\":8757:8766   */\n      dup4\n        /* \"#utility.yul\":8753:8770   */\n      add\n        /* \"#utility.yul\":8746:8793   */\n      mstore\n        /* \"#utility.yul\":8810:8941   */\n      tag_192\n        /* \"#utility.yul\":8936:8940   */\n      dup2\n        /* \"#utility.yul\":8810:8941   */\n      tag_105\n      jump\t// in\n    tag_192:\n        /* \"#utility.yul\":8802:8941   */\n      swap1\n      pop\n        /* \"#utility.yul\":8529:8948   */\n      swap2\n      swap1\n      pop\n      jump\t// out\n\n    auxdata: 0xa264697066735822122078568664fa2b05380967baeb904f2a7dc8ab942a81a692fa5ce4789c6a7c8ab164736f6c63430008100033\n}\n",
				"bytecode": {
					"linkReferences": {},
					"object": "60806040523480156200001157600080fd5b5060405162000be838038062000be8833981810160405281019062000037919062000146565b33915081600660006101000a81548173ffffffffffffffffffffffffffffffffffffffff021916908373ffffffffffffffffffffffffffffffffffffffff1602179055508260028190555083600081905550426001819055508060038190555050505050620001b8565b600080fd5b6000819050919050565b620000bb81620000a6565b8114620000c757600080fd5b50565b600081519050620000db81620000b0565b92915050565b600073ffffffffffffffffffffffffffffffffffffffff82169050919050565b60006200010e82620000e1565b9050919050565b620001208162000101565b81146200012c57600080fd5b50565b600081519050620001408162000115565b92915050565b60008060008060808587031215620001635762000162620000a1565b5b60006200017387828801620000ca565b94505060206200018687828801620000ca565b935050604062000199878288016200012f565b9250506060620001ac87828801620000ca565b91505092959194509250565b610a2080620001c86000396000f3fe608060405234801561001057600080fd5b50600436106100a95760003560e01c8063777ce7a911610071578063777ce7a91461012c5780637e1c0c091461014a5780638da5cb5b14610168578063b44df72d14610186578063be9a6555146101a4578063f7260d3e146101c2576100a9565b806313d033c0146100ae578063309bd527146100cc5780633519a2f8146100ea57806348c54b9d14610106578063547e3f0614610110575b600080fd5b6100b66101e0565b6040516100c3919061053e565b60405180910390f35b6100d46101e6565b6040516100e1919061053e565b60405180910390f35b61010460048036038101906100ff919061058a565b6101ec565b005b61010e610286565b005b61012a60048036038101906101259190610615565b61041b565b005b6101346104c1565b604051610141919061053e565b60405180910390f35b6101526104c7565b60405161015f919061053e565b60405180910390f35b6101706104cd565b60405161017d9190610651565b60405180910390f35b61018e6104f3565b60405161019b919061053e565b60405180910390f35b6101ac6104f9565b6040516101b9919061053e565b60405180910390f35b6101ca6104ff565b6040516101d79190610651565b60405180910390f35b60005481565b60025481565b600660009054906101000a900473ffffffffffffffffffffffffffffffffffffffff1673ffffffffffffffffffffffffffffffffffffffff163373ffffffffffffffffffffffffffffffffffffffff161461027c576040517f08c379a0000000000000000000000000000000000000000000000000000000008152600401610273906106c9565b60405180910390fd5b8060048190555050565b600660009054906101000a900473ffffffffffffffffffffffffffffffffffffffff1673ffffffffffffffffffffffffffffffffffffffff163373ffffffffffffffffffffffffffffffffffffffff1603610316576040517f08c379a000000000000000000000000000000000000000000000000000000000815260040161030d90610735565b60405180910390fd5b6000546001546103269190610784565b4211610367576040517f08c379a000000000000000000000000000000000000000000000000000000000815260040161035e90610804565b60405180910390fd5b6000600454116103ac576040517f08c379a00000000000000000000000000000000000000000000000000000000081526004016103a390610870565b60405180910390fd5b600080546001546103bd9190610784565b426103c89190610890565b90506000600554600354836103dd91906108f3565b6003546004546103ed91906108f3565b6103f79190610924565b6104019190610890565b9050806005546104119190610784565b6005819055505050565b600660009054906101000a900473ffffffffffffffffffffffffffffffffffffffff1673ffffffffffffffffffffffffffffffffffffffff163373ffffffffffffffffffffffffffffffffffffffff16146104ab576040517f08c379a00000000000000000000000000000000000000000000000000000000081526004016104a2906109ca565b60405180910390fd5b3390506000600481905550600060058190555050565b60035481565b60045481565b600660009054906101000a900473ffffffffffffffffffffffffffffffffffffffff1681565b60055481565b60015481565b600760009054906101000a900473ffffffffffffffffffffffffffffffffffffffff1681565b6000819050919050565b61053881610525565b82525050565b6000602082019050610553600083018461052f565b92915050565b600080fd5b61056781610525565b811461057257600080fd5b50565b6000813590506105848161055e565b92915050565b6000602082840312156105a05761059f610559565b5b60006105ae84828501610575565b91505092915050565b600073ffffffffffffffffffffffffffffffffffffffff82169050919050565b60006105e2826105b7565b9050919050565b6105f2816105d7565b81146105fd57600080fd5b50565b60008135905061060f816105e9565b92915050565b60006020828403121561062b5761062a610559565b5b600061063984828501610600565b91505092915050565b61064b816105d7565b82525050565b60006020820190506106666000830184610642565b92915050565b600082825260208201905092915050565b7f6f6e6c79206f776e65722063616e2066756e642069742e000000000000000000600082015250565b60006106b360178361066c565b91506106be8261067d565b602082019050919050565b600060208201905081810360008301526106e2816106a6565b9050919050565b7f6f776e65722063616e6e6f7420636c61696d20746f6b656e7300000000000000600082015250565b600061071f60198361066c565b915061072a826106e9565b602082019050919050565b6000602082019050818103600083015261074e81610712565b9050919050565b7f4e487b7100000000000000000000000000000000000000000000000000000000600052601160045260246000fd5b600061078f82610525565b915061079a83610525565b92508282019050808211156107b2576107b1610755565b5b92915050565b7f56657374696e67206861736e7420737461727465640000000000000000000000600082015250565b60006107ee60158361066c565b91506107f9826107b8565b602082019050919050565b6000602082019050818103600083015261081d816107e1565b9050919050565b7f436f6e747261637420686173206e6f74206265656e2066756e64656400000000600082015250565b600061085a601c8361066c565b915061086582610824565b602082019050919050565b600060208201905081810360008301526108898161084d565b9050919050565b600061089b82610525565b91506108a683610525565b92508282039050818111156108be576108bd610755565b5b92915050565b7f4e487b7100000000000000000000000000000000000000000000000000000000600052601260045260246000fd5b60006108fe82610525565b915061090983610525565b925082610919576109186108c4565b5b828204905092915050565b600061092f82610525565b915061093a83610525565b9250817fffffffffffffffffffffffffffffffffffffffffffffffffffffffffffffffff048311821515161561097357610972610755565b5b828202905092915050565b7f546869732063616e2062652063616c6c6564206279206f776e6572206f6e6c79600082015250565b60006109b460208361066c565b91506109bf8261097e565b602082019050919050565b600060208201905081810360008301526109e3816109a7565b905091905056fea264697066735822122078568664fa2b05380967baeb904f2a7dc8ab942a81a692fa5ce4789c6a7c8ab164736f6c63430008100033",
					"opcodes": "PUSH1 0x80 PUSH1 0x40 MSTORE CALLVALUE DUP1 ISZERO PUSH3 0x11 JUMPI PUSH1 0x0 DUP1 REVERT JUMPDEST POP PUSH1 0x40 MLOAD PUSH3 0xBE8 CODESIZE SUB DUP1 PUSH3 0xBE8 DUP4 CODECOPY DUP2 DUP2 ADD PUSH1 0x40 MSTORE DUP2 ADD SWAP1 PUSH3 0x37 SWAP2 SWAP1 PUSH3 0x146 JUMP JUMPDEST CALLER SWAP2 POP DUP2 PUSH1 0x6 PUSH1 0x0 PUSH2 0x100 EXP DUP2 SLOAD DUP2 PUSH20 0xFFFFFFFFFFFFFFFFFFFFFFFFFFFFFFFFFFFFFFFF MUL NOT AND SWAP1 DUP4 PUSH20 0xFFFFFFFFFFFFFFFFFFFFFFFFFFFFFFFFFFFFFFFF AND MUL OR SWAP1 SSTORE POP DUP3 PUSH1 0x2 DUP2 SWAP1 SSTORE POP DUP4 PUSH1 0x0 DUP2 SWAP1 SSTORE POP TIMESTAMP PUSH1 0x1 DUP2 SWAP1 SSTORE POP DUP1 PUSH1 0x3 DUP2 SWAP1 SSTORE POP POP POP POP POP PUSH3 0x1B8 JUMP JUMPDEST PUSH1 0x0 DUP1 REVERT JUMPDEST PUSH1 0x0 DUP2 SWAP1 POP SWAP2 SWAP1 POP JUMP JUMPDEST PUSH3 0xBB DUP2 PUSH3 0xA6 JUMP JUMPDEST DUP2 EQ PUSH3 0xC7 JUMPI PUSH1 0x0 DUP1 REVERT JUMPDEST POP JUMP JUMPDEST PUSH1 0x0 DUP2 MLOAD SWAP1 POP PUSH3 0xDB DUP2 PUSH3 0xB0 JUMP JUMPDEST SWAP3 SWAP2 POP POP JUMP JUMPDEST PUSH1 0x0 PUSH20 0xFFFFFFFFFFFFFFFFFFFFFFFFFFFFFFFFFFFFFFFF DUP3 AND SWAP1 POP SWAP2 SWAP1 POP JUMP JUMPDEST PUSH1 0x0 PUSH3 0x10E DUP3 PUSH3 0xE1 JUMP JUMPDEST SWAP1 POP SWAP2 SWAP1 POP JUMP JUMPDEST PUSH3 0x120 DUP2 PUSH3 0x101 JUMP JUMPDEST DUP2 EQ PUSH3 0x12C JUMPI PUSH1 0x0 DUP1 REVERT JUMPDEST POP JUMP JUMPDEST PUSH1 0x0 DUP2 MLOAD SWAP1 POP PUSH3 0x140 DUP2 PUSH3 0x115 JUMP JUMPDEST SWAP3 SWAP2 POP POP JUMP JUMPDEST PUSH1 0x0 DUP1 PUSH1 0x0 DUP1 PUSH1 0x80 DUP6 DUP8 SUB SLT ISZERO PUSH3 0x163 JUMPI PUSH3 0x162 PUSH3 0xA1 JUMP JUMPDEST JUMPDEST PUSH1 0x0 PUSH3 0x173 DUP8 DUP3 DUP9 ADD PUSH3 0xCA JUMP JUMPDEST SWAP5 POP POP PUSH1 0x20 PUSH3 0x186 DUP8 DUP3 DUP9 ADD PUSH3 0xCA JUMP JUMPDEST SWAP4 POP POP PUSH1 0x40 PUSH3 0x199 DUP8 DUP3 DUP9 ADD PUSH3 0x12F JUMP JUMPDEST SWAP3 POP POP PUSH1 0x60 PUSH3 0x1AC DUP8 DUP3 DUP9 ADD PUSH3 0xCA JUMP JUMPDEST SWAP2 POP POP SWAP3 SWAP6 SWAP2 SWAP5 POP SWAP3 POP JUMP JUMPDEST PUSH2 0xA20 DUP1 PUSH3 0x1C8 PUSH1 0x0 CODECOPY PUSH1 0x0 RETURN INVALID PUSH1 0x80 PUSH1 0x40 MSTORE CALLVALUE DUP1 ISZERO PUSH2 0x10 JUMPI PUSH1 0x0 DUP1 REVERT JUMPDEST POP PUSH1 0x4 CALLDATASIZE LT PUSH2 0xA9 JUMPI PUSH1 0x0 CALLDATALOAD PUSH1 0xE0 SHR DUP1 PUSH4 0x777CE7A9 GT PUSH2 0x71 JUMPI DUP1 PUSH4 0x777CE7A9 EQ PUSH2 0x12C JUMPI DUP1 PUSH4 0x7E1C0C09 EQ PUSH2 0x14A JUMPI DUP1 PUSH4 0x8DA5CB5B EQ PUSH2 0x168 JUMPI DUP1 PUSH4 0xB44DF72D EQ PUSH2 0x186 JUMPI DUP1 PUSH4 0xBE9A6555 EQ PUSH2 0x1A4 JUMPI DUP1 PUSH4 0xF7260D3E EQ PUSH2 0x1C2 JUMPI PUSH2 0xA9 JUMP JUMPDEST DUP1 PUSH4 0x13D033C0 EQ PUSH2 0xAE JUMPI DUP1 PUSH4 0x309BD527 EQ PUSH2 0xCC JUMPI DUP1 PUSH4 0x3519A2F8 EQ PUSH2 0xEA JUMPI DUP1 PUSH4 0x48C54B9D EQ PUSH2 0x106 JUMPI DUP1 PUSH4 0x547E3F06 EQ PUSH2 0x110 JUMPI JUMPDEST PUSH1 0x0 DUP1 REVERT JUMPDEST PUSH2 0xB6 PUSH2 0x1E0 JUMP JUMPDEST PUSH1 0x40 MLOAD PUSH2 0xC3 SWAP2 SWAP1 PUSH2 0x53E JUMP JUMPDEST PUSH1 0x40 MLOAD DUP1 SWAP2 SUB SWAP1 RETURN JUMPDEST PUSH2 0xD4 PUSH2 0x1E6 JUMP JUMPDEST PUSH1 0x40 MLOAD PUSH2 0xE1 SWAP2 SWAP1 PUSH2 0x53E JUMP JUMPDEST PUSH1 0x40 MLOAD DUP1 SWAP2 SUB SWAP1 RETURN JUMPDEST PUSH2 0x104 PUSH1 0x4 DUP1 CALLDATASIZE SUB DUP2 ADD SWAP1 PUSH2 0xFF SWAP2 SWAP1 PUSH2 0x58A JUMP JUMPDEST PUSH2 0x1EC JUMP JUMPDEST STOP JUMPDEST PUSH2 0x10E PUSH2 0x286 JUMP JUMPDEST STOP JUMPDEST PUSH2 0x12A PUSH1 0x4 DUP1 CALLDATASIZE SUB DUP2 ADD SWAP1 PUSH2 0x125 SWAP2 SWAP1 PUSH2 0x615 JUMP JUMPDEST PUSH2 0x41B JUMP JUMPDEST STOP JUMPDEST PUSH2 0x134 PUSH2 0x4C1 JUMP JUMPDEST PUSH1 0x40 MLOAD PUSH2 0x141 SWAP2 SWAP1 PUSH2 0x53E JUMP JUMPDEST PUSH1 0x40 MLOAD DUP1 SWAP2 SUB SWAP1 RETURN JUMPDEST PUSH2 0x152 PUSH2 0x4C7 JUMP JUMPDEST PUSH1 0x40 MLOAD PUSH2 0x15F SWAP2 SWAP1 PUSH2 0x53E JUMP JUMPDEST PUSH1 0x40 MLOAD DUP1 SWAP2 SUB SWAP1 RETURN JUMPDEST PUSH2 0x170 PUSH2 0x4CD JUMP JUMPDEST PUSH1 0x40 MLOAD PUSH2 0x17D SWAP2 SWAP1 PUSH2 0x651 JUMP JUMPDEST PUSH1 0x40 MLOAD DUP1 SWAP2 SUB SWAP1 RETURN JUMPDEST PUSH2 0x18E PUSH2 0x4F3 JUMP JUMPDEST PUSH1 0x40 MLOAD PUSH2 0x19B SWAP2 SWAP1 PUSH2 0x53E JUMP JUMPDEST PUSH1 0x40 MLOAD DUP1 SWAP2 SUB SWAP1 RETURN JUMPDEST PUSH2 0x1AC PUSH2 0x4F9 JUMP JUMPDEST PUSH1 0x40 MLOAD PUSH2 0x1B9 SWAP2 SWAP1 PUSH2 0x53E JUMP JUMPDEST PUSH1 0x40 MLOAD DUP1 SWAP2 SUB SWAP1 RETURN JUMPDEST PUSH2 0x1CA PUSH2 0x4FF JUMP JUMPDEST PUSH1 0x40 MLOAD PUSH2 0x1D7 SWAP2 SWAP1 PUSH2 0x651 JUMP JUMPDEST PUSH1 0x40 MLOAD DUP1 SWAP2 SUB SWAP1 RETURN JUMPDEST PUSH1 0x0 SLOAD DUP2 JUMP JUMPDEST PUSH1 0x2 SLOAD DUP2 JUMP JUMPDEST PUSH1 0x6 PUSH1 0x0 SWAP1 SLOAD SWAP1 PUSH2 0x100 EXP SWAP1 DIV PUSH20 0xFFFFFFFFFFFFFFFFFFFFFFFFFFFFFFFFFFFFFFFF AND PUSH20 0xFFFFFFFFFFFFFFFFFFFFFFFFFFFFFFFFFFFFFFFF AND CALLER PUSH20 0xFFFFFFFFFFFFFFFFFFFFFFFFFFFFFFFFFFFFFFFF AND EQ PUSH2 0x27C JUMPI PUSH1 0x40 MLOAD PUSH32 0x8C379A000000000000000000000000000000000000000000000000000000000 DUP2 MSTORE PUSH1 0x4 ADD PUSH2 0x273 SWAP1 PUSH2 0x6C9 JUMP JUMPDEST PUSH1 0x40 MLOAD DUP1 SWAP2 SUB SWAP1 REVERT JUMPDEST DUP1 PUSH1 0x4 DUP2 SWAP1 SSTORE POP POP JUMP JUMPDEST PUSH1 0x6 PUSH1 0x0 SWAP1 SLOAD SWAP1 PUSH2 0x100 EXP SWAP1 DIV PUSH20 0xFFFFFFFFFFFFFFFFFFFFFFFFFFFFFFFFFFFFFFFF AND PUSH20 0xFFFFFFFFFFFFFFFFFFFFFFFFFFFFFFFFFFFFFFFF AND CALLER PUSH20 0xFFFFFFFFFFFFFFFFFFFFFFFFFFFFFFFFFFFFFFFF AND SUB PUSH2 0x316 JUMPI PUSH1 0x40 MLOAD PUSH32 0x8C379A000000000000000000000000000000000000000000000000000000000 DUP2 MSTORE PUSH1 0x4 ADD PUSH2 0x30D SWAP1 PUSH2 0x735 JUMP JUMPDEST PUSH1 0x40 MLOAD DUP1 SWAP2 SUB SWAP1 REVERT JUMPDEST PUSH1 0x0 SLOAD PUSH1 0x1 SLOAD PUSH2 0x326 SWAP2 SWAP1 PUSH2 0x784 JUMP JUMPDEST TIMESTAMP GT PUSH2 0x367 JUMPI PUSH1 0x40 MLOAD PUSH32 0x8C379A000000000000000000000000000000000000000000000000000000000 DUP2 MSTORE PUSH1 0x4 ADD PUSH2 0x35E SWAP1 PUSH2 0x804 JUMP JUMPDEST PUSH1 0x40 MLOAD DUP1 SWAP2 SUB SWAP1 REVERT JUMPDEST PUSH1 0x0 PUSH1 0x4 SLOAD GT PUSH2 0x3AC JUMPI PUSH1 0x40 MLOAD PUSH32 0x8C379A000000000000000000000000000000000000000000000000000000000 DUP2 MSTORE PUSH1 0x4 ADD PUSH2 0x3A3 SWAP1 PUSH2 0x870 JUMP JUMPDEST PUSH1 0x40 MLOAD DUP1 SWAP2 SUB SWAP1 REVERT JUMPDEST PUSH1 0x0 DUP1 SLOAD PUSH1 0x1 SLOAD PUSH2 0x3BD SWAP2 SWAP1 PUSH2 0x784 JUMP JUMPDEST TIMESTAMP PUSH2 0x3C8 SWAP2 SWAP1 PUSH2 0x890 JUMP JUMPDEST SWAP1 POP PUSH1 0x0 PUSH1 0x5 SLOAD PUSH1 0x3 SLOAD DUP4 PUSH2 0x3DD SWAP2 SWAP1 PUSH2 0x8F3 JUMP JUMPDEST PUSH1 0x3 SLOAD PUSH1 0x4 SLOAD PUSH2 0x3ED SWAP2 SWAP1 PUSH2 0x8F3 JUMP JUMPDEST PUSH2 0x3F7 SWAP2 SWAP1 PUSH2 0x924 JUMP JUMPDEST PUSH2 0x401 SWAP2 SWAP1 PUSH2 0x890 JUMP JUMPDEST SWAP1 POP DUP1 PUSH1 0x5 SLOAD PUSH2 0x411 SWAP2 SWAP1 PUSH2 0x784 JUMP JUMPDEST PUSH1 0x5 DUP2 SWAP1 SSTORE POP POP POP JUMP JUMPDEST PUSH1 0x6 PUSH1 0x0 SWAP1 SLOAD SWAP1 PUSH2 0x100 EXP SWAP1 DIV PUSH20 0xFFFFFFFFFFFFFFFFFFFFFFFFFFFFFFFFFFFFFFFF AND PUSH20 0xFFFFFFFFFFFFFFFFFFFFFFFFFFFFFFFFFFFFFFFF AND CALLER PUSH20 0xFFFFFFFFFFFFFFFFFFFFFFFFFFFFFFFFFFFFFFFF AND EQ PUSH2 0x4AB JUMPI PUSH1 0x40 MLOAD PUSH32 0x8C379A000000000000000000000000000000000000000000000000000000000 DUP2 MSTORE PUSH1 0x4 ADD PUSH2 0x4A2 SWAP1 PUSH2 0x9CA JUMP JUMPDEST PUSH1 0x40 MLOAD DUP1 SWAP2 SUB SWAP1 REVERT JUMPDEST CALLER SWAP1 POP PUSH1 0x0 PUSH1 0x4 DUP2 SWAP1 SSTORE POP PUSH1 0x0 PUSH1 0x5 DUP2 SWAP1 SSTORE POP POP JUMP JUMPDEST PUSH1 0x3 SLOAD DUP2 JUMP JUMPDEST PUSH1 0x4 SLOAD DUP2 JUMP JUMPDEST PUSH1 0x6 PUSH1 0x0 SWAP1 SLOAD SWAP1 PUSH2 0x100 EXP SWAP1 DIV PUSH20 0xFFFFFFFFFFFFFFFFFFFFFFFFFFFFFFFFFFFFFFFF AND DUP2 JUMP JUMPDEST PUSH1 0x5 SLOAD DUP2 JUMP JUMPDEST PUSH1 0x1 SLOAD DUP2 JUMP JUMPDEST PUSH1 0x7 PUSH1 0x0 SWAP1 SLOAD SWAP1 PUSH2 0x100 EXP SWAP1 DIV PUSH20 0xFFFFFFFFFFFFFFFFFFFFFFFFFFFFFFFFFFFFFFFF AND DUP2 JUMP JUMPDEST PUSH1 0x0 DUP2 SWAP1 POP SWAP2 SWAP1 POP JUMP JUMPDEST PUSH2 0x538 DUP2 PUSH2 0x525 JUMP JUMPDEST DUP3 MSTORE POP POP JUMP JUMPDEST PUSH1 0x0 PUSH1 0x20 DUP3 ADD SWAP1 POP PUSH2 0x553 PUSH1 0x0 DUP4 ADD DUP5 PUSH2 0x52F JUMP JUMPDEST SWAP3 SWAP2 POP POP JUMP JUMPDEST PUSH1 0x0 DUP1 REVERT JUMPDEST PUSH2 0x567 DUP2 PUSH2 0x525 JUMP JUMPDEST DUP2 EQ PUSH2 0x572 JUMPI PUSH1 0x0 DUP1 REVERT JUMPDEST POP JUMP JUMPDEST PUSH1 0x0 DUP2 CALLDATALOAD SWAP1 POP PUSH2 0x584 DUP2 PUSH2 0x55E JUMP JUMPDEST SWAP3 SWAP2 POP POP JUMP JUMPDEST PUSH1 0x0 PUSH1 0x20 DUP3 DUP5 SUB SLT ISZERO PUSH2 0x5A0 JUMPI PUSH2 0x59F PUSH2 0x559 JUMP JUMPDEST JUMPDEST PUSH1 0x0 PUSH2 0x5AE DUP5 DUP3 DUP6 ADD PUSH2 0x575 JUMP JUMPDEST SWAP2 POP POP SWAP3 SWAP2 POP POP JUMP JUMPDEST PUSH1 0x0 PUSH20 0xFFFFFFFFFFFFFFFFFFFFFFFFFFFFFFFFFFFFFFFF DUP3 AND SWAP1 POP SWAP2 SWAP1 POP JUMP JUMPDEST PUSH1 0x0 PUSH2 0x5E2 DUP3 PUSH2 0x5B7 JUMP JUMPDEST SWAP1 POP SWAP2 SWAP1 POP JUMP JUMPDEST PUSH2 0x5F2 DUP2 PUSH2 0x5D7 JUMP JUMPDEST DUP2 EQ PUSH2 0x5FD JUMPI PUSH1 0x0 DUP1 REVERT JUMPDEST POP JUMP JUMPDEST PUSH1 0x0 DUP2 CALLDATALOAD SWAP1 POP PUSH2 0x60F DUP2 PUSH2 0x5E9 JUMP JUMPDEST SWAP3 SWAP2 POP POP JUMP JUMPDEST PUSH1 0x0 PUSH1 0x20 DUP3 DUP5 SUB SLT ISZERO PUSH2 0x62B JUMPI PUSH2 0x62A PUSH2 0x559 JUMP JUMPDEST JUMPDEST PUSH1 0x0 PUSH2 0x639 DUP5 DUP3 DUP6 ADD PUSH2 0x600 JUMP JUMPDEST SWAP2 POP POP SWAP3 SWAP2 POP POP JUMP JUMPDEST PUSH2 0x64B DUP2 PUSH2 0x5D7 JUMP JUMPDEST DUP3 MSTORE POP POP JUMP JUMPDEST PUSH1 0x0 PUSH1 0x20 DUP3 ADD SWAP1 POP PUSH2 0x666 PUSH1 0x0 DUP4 ADD DUP5 PUSH2 0x642 JUMP JUMPDEST SWAP3 SWAP2 POP POP JUMP JUMPDEST PUSH1 0x0 DUP3 DUP3 MSTORE PUSH1 0x20 DUP3 ADD SWAP1 POP SWAP3 SWAP2 POP POP JUMP JUMPDEST PUSH32 0x6F6E6C79206F776E65722063616E2066756E642069742E000000000000000000 PUSH1 0x0 DUP3 ADD MSTORE POP JUMP JUMPDEST PUSH1 0x0 PUSH2 0x6B3 PUSH1 0x17 DUP4 PUSH2 0x66C JUMP JUMPDEST SWAP2 POP PUSH2 0x6BE DUP3 PUSH2 0x67D JUMP JUMPDEST PUSH1 0x20 DUP3 ADD SWAP1 POP SWAP2 SWAP1 POP JUMP JUMPDEST PUSH1 0x0 PUSH1 0x20 DUP3 ADD SWAP1 POP DUP2 DUP2 SUB PUSH1 0x0 DUP4 ADD MSTORE PUSH2 0x6E2 DUP2 PUSH2 0x6A6 JUMP JUMPDEST SWAP1 POP SWAP2 SWAP1 POP JUMP JUMPDEST PUSH32 0x6F776E65722063616E6E6F7420636C61696D20746F6B656E7300000000000000 PUSH1 0x0 DUP3 ADD MSTORE POP JUMP JUMPDEST PUSH1 0x0 PUSH2 0x71F PUSH1 0x19 DUP4 PUSH2 0x66C JUMP JUMPDEST SWAP2 POP PUSH2 0x72A DUP3 PUSH2 0x6E9 JUMP JUMPDEST PUSH1 0x20 DUP3 ADD SWAP1 POP SWAP2 SWAP1 POP JUMP JUMPDEST PUSH1 0x0 PUSH1 0x20 DUP3 ADD SWAP1 POP DUP2 DUP2 SUB PUSH1 0x0 DUP4 ADD MSTORE PUSH2 0x74E DUP2 PUSH2 0x712 JUMP JUMPDEST SWAP1 POP SWAP2 SWAP1 POP JUMP JUMPDEST PUSH32 0x4E487B7100000000000000000000000000000000000000000000000000000000 PUSH1 0x0 MSTORE PUSH1 0x11 PUSH1 0x4 MSTORE PUSH1 0x24 PUSH1 0x0 REVERT JUMPDEST PUSH1 0x0 PUSH2 0x78F DUP3 PUSH2 0x525 JUMP JUMPDEST SWAP2 POP PUSH2 0x79A DUP4 PUSH2 0x525 JUMP JUMPDEST SWAP3 POP DUP3 DUP3 ADD SWAP1 POP DUP1 DUP3 GT ISZERO PUSH2 0x7B2 JUMPI PUSH2 0x7B1 PUSH2 0x755 JUMP JUMPDEST JUMPDEST SWAP3 SWAP2 POP POP JUMP JUMPDEST PUSH32 0x56657374696E67206861736E7420737461727465640000000000000000000000 PUSH1 0x0 DUP3 ADD MSTORE POP JUMP JUMPDEST PUSH1 0x0 PUSH2 0x7EE PUSH1 0x15 DUP4 PUSH2 0x66C JUMP JUMPDEST SWAP2 POP PUSH2 0x7F9 DUP3 PUSH2 0x7B8 JUMP JUMPDEST PUSH1 0x20 DUP3 ADD SWAP1 POP SWAP2 SWAP1 POP JUMP JUMPDEST PUSH1 0x0 PUSH1 0x20 DUP3 ADD SWAP1 POP DUP2 DUP2 SUB PUSH1 0x0 DUP4 ADD MSTORE PUSH2 0x81D DUP2 PUSH2 0x7E1 JUMP JUMPDEST SWAP1 POP SWAP2 SWAP1 POP JUMP JUMPDEST PUSH32 0x436F6E747261637420686173206E6F74206265656E2066756E64656400000000 PUSH1 0x0 DUP3 ADD MSTORE POP JUMP JUMPDEST PUSH1 0x0 PUSH2 0x85A PUSH1 0x1C DUP4 PUSH2 0x66C JUMP JUMPDEST SWAP2 POP PUSH2 0x865 DUP3 PUSH2 0x824 JUMP JUMPDEST PUSH1 0x20 DUP3 ADD SWAP1 POP SWAP2 SWAP1 POP JUMP JUMPDEST PUSH1 0x0 PUSH1 0x20 DUP3 ADD SWAP1 POP DUP2 DUP2 SUB PUSH1 0x0 DUP4 ADD MSTORE PUSH2 0x889 DUP2 PUSH2 0x84D JUMP JUMPDEST SWAP1 POP SWAP2 SWAP1 POP JUMP JUMPDEST PUSH1 0x0 PUSH2 0x89B DUP3 PUSH2 0x525 JUMP JUMPDEST SWAP2 POP PUSH2 0x8A6 DUP4 PUSH2 0x525 JUMP JUMPDEST SWAP3 POP DUP3 DUP3 SUB SWAP1 POP DUP2 DUP2 GT ISZERO PUSH2 0x8BE JUMPI PUSH2 0x8BD PUSH2 0x755 JUMP JUMPDEST JUMPDEST SWAP3 SWAP2 POP POP JUMP JUMPDEST PUSH32 0x4E487B7100000000000000000000000000000000000000000000000000000000 PUSH1 0x0 MSTORE PUSH1 0x12 PUSH1 0x4 MSTORE PUSH1 0x24 PUSH1 0x0 REVERT JUMPDEST PUSH1 0x0 PUSH2 0x8FE DUP3 PUSH2 0x525 JUMP JUMPDEST SWAP2 POP PUSH2 0x909 DUP4 PUSH2 0x525 JUMP JUMPDEST SWAP3 POP DUP3 PUSH2 0x919 JUMPI PUSH2 0x918 PUSH2 0x8C4 JUMP JUMPDEST JUMPDEST DUP3 DUP3 DIV SWAP1 POP SWAP3 SWAP2 POP POP JUMP JUMPDEST PUSH1 0x0 PUSH2 0x92F DUP3 PUSH2 0x525 JUMP JUMPDEST SWAP2 POP PUSH2 0x93A DUP4 PUSH2 0x525 JUMP JUMPDEST SWAP3 POP DUP2 PUSH32 0xFFFFFFFFFFFFFFFFFFFFFFFFFFFFFFFFFFFFFFFFFFFFFFFFFFFFFFFFFFFFFFFF DIV DUP4 GT DUP3 ISZERO ISZERO AND ISZERO PUSH2 0x973 JUMPI PUSH2 0x972 PUSH2 0x755 JUMP JUMPDEST JUMPDEST DUP3 DUP3 MUL SWAP1 POP SWAP3 SWAP2 POP POP JUMP JUMPDEST PUSH32 0x546869732063616E2062652063616C6C6564206279206F776E6572206F6E6C79 PUSH1 0x0 DUP3 ADD MSTORE POP JUMP JUMPDEST PUSH1 0x0 PUSH2 0x9B4 PUSH1 0x20 DUP4 PUSH2 0x66C JUMP JUMPDEST SWAP2 POP PUSH2 0x9BF DUP3 PUSH2 0x97E JUMP JUMPDEST PUSH1 0x20 DUP3 ADD SWAP1 POP SWAP2 SWAP1 POP JUMP JUMPDEST PUSH1 0x0 PUSH1 0x20 DUP3 ADD SWAP1 POP DUP2 DUP2 SUB PUSH1 0x0 DUP4 ADD MSTORE PUSH2 0x9E3 DUP2 PUSH2 0x9A7 JUMP JUMPDEST SWAP1 POP SWAP2 SWAP1 POP JUMP INVALID LOG2 PUSH5 0x6970667358 0x22 SLT KECCAK256 PUSH25 0x568664FA2B05380967BAEB904F2A7DC8AB942A81A692FA5CE4 PUSH25 0x9C6A7C8AB164736F6C63430008100033000000000000000000 "
				},
				"gasEstimates": {
					"creation": {
						"codeDepositCost": "518400",
						"executionCost": "infinite",
						"totalCost": "infinite"
					},
					"external": {
						"changeReceiver(address)": "12749",
						"claimTokens()": "infinite",
						"cliff()": "2430",
						"fundContract(uint256)": "24735",
						"owner()": "2558",
						"receiver()": "2624",
						"start()": "2517",
						"tokensClaimed()": "2495",
						"totalTokens()": "2451",
						"vesting_cycles()": "2429",
						"vesting_duration()": "2452"
					}
				},
				"methodIdentifiers": {
					"changeReceiver(address)": "547e3f06",
					"claimTokens()": "48c54b9d",
					"cliff()": "13d033c0",
					"fundContract(uint256)": "3519a2f8",
					"owner()": "8da5cb5b",
					"receiver()": "f7260d3e",
					"start()": "be9a6555",
					"tokensClaimed()": "b44df72d",
					"totalTokens()": "7e1c0c09",
					"vesting_cycles()": "777ce7a9",
					"vesting_duration()": "309bd527"
				}
			},
			"storageLayout": {
				"storage": [
					{
						"astId": 4,
						"contract": "https://github.com/metafy-social/web3-smart-contracts/blob/10ac898f2a6d9b094f2e08af5daa07887e640807/contracts/Misc/Vesting_Contract.sol#L37:Vesting",
						"label": "cliff",
						"offset": 0,
						"slot": "0",
						"type": "t_uint256"
					},
					{
						"astId": 6,
						"contract": "https://github.com/metafy-social/web3-smart-contracts/blob/10ac898f2a6d9b094f2e08af5daa07887e640807/contracts/Misc/Vesting_Contract.sol#L37:Vesting",
						"label": "start",
						"offset": 0,
						"slot": "1",
						"type": "t_uint256"
					},
					{
						"astId": 8,
						"contract": "https://github.com/metafy-social/web3-smart-contracts/blob/10ac898f2a6d9b094f2e08af5daa07887e640807/contracts/Misc/Vesting_Contract.sol#L37:Vesting",
						"label": "vesting_duration",
						"offset": 0,
						"slot": "2",
						"type": "t_uint256"
					},
					{
						"astId": 10,
						"contract": "https://github.com/metafy-social/web3-smart-contracts/blob/10ac898f2a6d9b094f2e08af5daa07887e640807/contracts/Misc/Vesting_Contract.sol#L37:Vesting",
						"label": "vesting_cycles",
						"offset": 0,
						"slot": "3",
						"type": "t_uint256"
					},
					{
						"astId": 12,
						"contract": "https://github.com/metafy-social/web3-smart-contracts/blob/10ac898f2a6d9b094f2e08af5daa07887e640807/contracts/Misc/Vesting_Contract.sol#L37:Vesting",
						"label": "totalTokens",
						"offset": 0,
						"slot": "4",
						"type": "t_uint256"
					},
					{
						"astId": 14,
						"contract": "https://github.com/metafy-social/web3-smart-contracts/blob/10ac898f2a6d9b094f2e08af5daa07887e640807/contracts/Misc/Vesting_Contract.sol#L37:Vesting",
						"label": "tokensClaimed",
						"offset": 0,
						"slot": "5",
						"type": "t_uint256"
					},
					{
						"astId": 16,
						"contract": "https://github.com/metafy-social/web3-smart-contracts/blob/10ac898f2a6d9b094f2e08af5daa07887e640807/contracts/Misc/Vesting_Contract.sol#L37:Vesting",
						"label": "owner",
						"offset": 0,
						"slot": "6",
						"type": "t_address"
					},
					{
						"astId": 18,
						"contract": "https://github.com/metafy-social/web3-smart-contracts/blob/10ac898f2a6d9b094f2e08af5daa07887e640807/contracts/Misc/Vesting_Contract.sol#L37:Vesting",
						"label": "receiver",
						"offset": 0,
						"slot": "7",
						"type": "t_address"
					}
				],
				"types": {
					"t_address": {
						"encoding": "inplace",
						"label": "address",
						"numberOfBytes": "20"
					},
					"t_uint256": {
						"encoding": "inplace",
						"label": "uint256",
						"numberOfBytes": "32"
					}
				}
			},
			"userdoc": {
				"kind": "user",
				"methods": {
					"cliff()": {
						"notice": "token not included"
					}
				},
				"version": 1
			}
		}
	}
}